{
	"IFBCoin.sol": {
		"IFBCoin": {
			"abi": [
				{
					"inputs": [],
					"stateMutability": "nonpayable",
					"type": "constructor"
				},
				{
					"anonymous": false,
					"inputs": [
						{
							"indexed": true,
							"internalType": "address",
							"name": "previousOwner",
							"type": "address"
						},
						{
							"indexed": true,
							"internalType": "address",
							"name": "newOwner",
							"type": "address"
						}
					],
					"name": "OwnershipTransferred",
					"type": "event"
				},
				{
					"inputs": [],
					"name": "TOKEN_NAME",
					"outputs": [
						{
							"internalType": "string",
							"name": "",
							"type": "string"
						}
					],
					"stateMutability": "view",
					"type": "function"
				},
				{
					"inputs": [],
					"name": "TOKEN_SYMBOL",
					"outputs": [
						{
							"internalType": "string",
							"name": "",
							"type": "string"
						}
					],
					"stateMutability": "view",
					"type": "function"
				},
				{
					"inputs": [
						{
							"internalType": "address",
							"name": "account",
							"type": "address"
						}
					],
					"name": "balanceOf",
					"outputs": [
						{
							"internalType": "uint256",
							"name": "",
							"type": "uint256"
						}
					],
					"stateMutability": "view",
					"type": "function"
				},
				{
					"inputs": [],
					"name": "burnMonthly",
					"outputs": [],
					"stateMutability": "nonpayable",
					"type": "function"
				},
				{
					"inputs": [],
					"name": "decimals",
					"outputs": [
						{
							"internalType": "uint8",
							"name": "",
							"type": "uint8"
						}
					],
					"stateMutability": "view",
					"type": "function"
				},
				{
					"inputs": [
						{
							"internalType": "address",
							"name": "_projectsWallet",
							"type": "address"
						},
						{
							"internalType": "address",
							"name": "_operationsWallet",
							"type": "address"
						}
					],
					"name": "initialize",
					"outputs": [],
					"stateMutability": "nonpayable",
					"type": "function"
				},
				{
					"inputs": [],
					"name": "name",
					"outputs": [
						{
							"internalType": "string",
							"name": "",
							"type": "string"
						}
					],
					"stateMutability": "view",
					"type": "function"
				},
				{
					"inputs": [],
					"name": "owner",
					"outputs": [
						{
							"internalType": "address",
							"name": "",
							"type": "address"
						}
					],
					"stateMutability": "view",
					"type": "function"
				},
				{
					"inputs": [],
					"name": "symbol",
					"outputs": [
						{
							"internalType": "string",
							"name": "",
							"type": "string"
						}
					],
					"stateMutability": "view",
					"type": "function"
				},
				{
					"inputs": [],
					"name": "taxSocialOperationsWallet",
					"outputs": [
						{
							"internalType": "address",
							"name": "",
							"type": "address"
						}
					],
					"stateMutability": "view",
					"type": "function"
				},
				{
					"inputs": [],
					"name": "taxSocialPercent",
					"outputs": [
						{
							"internalType": "uint256",
							"name": "",
							"type": "uint256"
						}
					],
					"stateMutability": "view",
					"type": "function"
				},
				{
					"inputs": [],
					"name": "taxSocialProjectsWallet",
					"outputs": [
						{
							"internalType": "address",
							"name": "",
							"type": "address"
						}
					],
					"stateMutability": "view",
					"type": "function"
				},
				{
					"inputs": [],
					"name": "totalSupply",
					"outputs": [
						{
							"internalType": "uint256",
							"name": "",
							"type": "uint256"
						}
					],
					"stateMutability": "view",
					"type": "function"
				}
			],
			"devdoc": {
				"kind": "dev",
				"methods": {},
				"version": 1
			},
			"evm": {
				"assembly": "    /* \"IFBCoin.sol\":3922:5030  contract IFBCoin is Initializable, ERC20Upgradeable, OwnableUpgradeable, UUPSUpgradeable {... */\n  mstore(0x40, 0x80)\n    /* \"IFBCoin.sol\":4238:4240  50 */\n  0x32\n    /* \"IFBCoin.sol\":4204:4240  uint256 public taxSocialPercent = 50 */\n  0x06\n  sstore\n    /* \"IFBCoin.sol\":4341:4396  constructor() {... */\n  callvalue\n  dup1\n  iszero\n  tag_1\n  jumpi\n  revert(0x00, 0x00)\ntag_1:\n  pop\n    /* \"IFBCoin.sol\":4366:4388  _disableInitializers() */\n  tag_4\n    /* \"IFBCoin.sol\":4366:4386  _disableInitializers */\n  shl(0x20, tag_5)\n    /* \"IFBCoin.sol\":4366:4388  _disableInitializers() */\n  0x20\n  shr\n  jump\t// in\ntag_4:\n    /* \"IFBCoin.sol\":3922:5030  contract IFBCoin is Initializable, ERC20Upgradeable, OwnableUpgradeable, UUPSUpgradeable {... */\n  jump(tag_6)\n    /* \"IFBCoin.sol\":611:698  function _disableInitializers() internal virtual {... */\ntag_5:\n    /* \"IFBCoin.sol\":686:690  true */\n  0x01\n    /* \"IFBCoin.sol\":671:683  _initialized */\n  0x00\n  0x00\n    /* \"IFBCoin.sol\":671:690  _initialized = true */\n  0x0100\n  exp\n  dup2\n  sload\n  dup2\n  0xff\n  mul\n  not\n  and\n  swap1\n  dup4\n  iszero\n  iszero\n  mul\n  or\n  swap1\n  sstore\n  pop\n    /* \"IFBCoin.sol\":611:698  function _disableInitializers() internal virtual {... */\n  jump\t// out\n    /* \"IFBCoin.sol\":3922:5030  contract IFBCoin is Initializable, ERC20Upgradeable, OwnableUpgradeable, UUPSUpgradeable {... */\ntag_6:\n  dataSize(sub_0)\n  dup1\n  dataOffset(sub_0)\n  0x00\n  codecopy\n  0x00\n  return\nstop\n\nsub_0: assembly {\n        /* \"IFBCoin.sol\":3922:5030  contract IFBCoin is Initializable, ERC20Upgradeable, OwnableUpgradeable, UUPSUpgradeable {... */\n      mstore(0x40, 0x80)\n      callvalue\n      dup1\n      iszero\n      tag_1\n      jumpi\n      revert(0x00, 0x00)\n    tag_1:\n      pop\n      jumpi(tag_2, lt(calldatasize, 0x04))\n      shr(0xe0, calldataload(0x00))\n      dup1\n      0x6f5585b8\n      gt\n      tag_16\n      jumpi\n      dup1\n      0x8da5cb5b\n      gt\n      tag_17\n      jumpi\n      dup1\n      0x8da5cb5b\n      eq\n      tag_12\n      jumpi\n      dup1\n      0x95d89b41\n      eq\n      tag_13\n      jumpi\n      dup1\n      0xa2770731\n      eq\n      tag_14\n      jumpi\n      dup1\n      0xd8a43b1f\n      eq\n      tag_15\n      jumpi\n      jump(tag_2)\n    tag_17:\n      dup1\n      0x6f5585b8\n      eq\n      tag_9\n      jumpi\n      dup1\n      0x70a08231\n      eq\n      tag_10\n      jumpi\n      dup1\n      0x878c7ca8\n      eq\n      tag_11\n      jumpi\n      jump(tag_2)\n    tag_16:\n      dup1\n      0x06fdde03\n      eq\n      tag_3\n      jumpi\n      dup1\n      0x18160ddd\n      eq\n      tag_4\n      jumpi\n      dup1\n      0x18821400\n      eq\n      tag_5\n      jumpi\n      dup1\n      0x2a905318\n      eq\n      tag_6\n      jumpi\n      dup1\n      0x313ce567\n      eq\n      tag_7\n      jumpi\n      dup1\n      0x485cc955\n      eq\n      tag_8\n      jumpi\n    tag_2:\n      revert(0x00, 0x00)\n        /* \"IFBCoin.sol\":2111:2202  function name() public view virtual returns (string memory) {... */\n    tag_3:\n      tag_18\n      tag_19\n      jump\t// in\n    tag_18:\n      mload(0x40)\n      tag_20\n      swap2\n      swap1\n      tag_21\n      jump\t// in\n    tag_20:\n      mload(0x40)\n      dup1\n      swap2\n      sub\n      swap1\n      return\n        /* \"IFBCoin.sol\":2433:2532  function totalSupply() public view virtual returns (uint256) {... */\n    tag_4:\n      tag_22\n      tag_23\n      jump\t// in\n    tag_22:\n      mload(0x40)\n      tag_24\n      swap2\n      swap1\n      tag_25\n      jump\t// in\n    tag_24:\n      mload(0x40)\n      dup1\n      swap2\n      sub\n      swap1\n      return\n        /* \"IFBCoin.sol\":4020:4066  string public constant TOKEN_NAME = \"IFB Coin\" */\n    tag_5:\n      tag_26\n      tag_27\n      jump\t// in\n    tag_26:\n      mload(0x40)\n      tag_28\n      swap2\n      swap1\n      tag_21\n      jump\t// in\n    tag_28:\n      mload(0x40)\n      dup1\n      swap2\n      sub\n      swap1\n      return\n        /* \"IFBCoin.sol\":4073:4116  string public constant TOKEN_SYMBOL = \"IFB\" */\n    tag_6:\n      tag_29\n      tag_30\n      jump\t// in\n    tag_29:\n      mload(0x40)\n      tag_31\n      swap2\n      swap1\n      tag_21\n      jump\t// in\n    tag_31:\n      mload(0x40)\n      dup1\n      swap2\n      sub\n      swap1\n      return\n        /* \"IFBCoin.sol\":2313:2425  function decimals() public view virtual returns (uint8) {... */\n    tag_7:\n      tag_32\n      tag_33\n      jump\t// in\n    tag_32:\n      mload(0x40)\n      tag_34\n      swap2\n      swap1\n      tag_35\n      jump\t// in\n    tag_34:\n      mload(0x40)\n      dup1\n      swap2\n      sub\n      swap1\n      return\n        /* \"IFBCoin.sol\":4404:4751  function initialize(address _projectsWallet, address _operationsWallet) public initializer {... */\n    tag_8:\n      tag_36\n      0x04\n      dup1\n      calldatasize\n      sub\n      dup2\n      add\n      swap1\n      tag_37\n      swap2\n      swap1\n      tag_38\n      jump\t// in\n    tag_37:\n      tag_39\n      jump\t// in\n    tag_36:\n      stop\n        /* \"IFBCoin.sol\":4247:4285  address public taxSocialProjectsWallet */\n    tag_9:\n      tag_40\n      tag_41\n      jump\t// in\n    tag_40:\n      mload(0x40)\n      tag_42\n      swap2\n      swap1\n      tag_43\n      jump\t// in\n    tag_42:\n      mload(0x40)\n      dup1\n      swap2\n      sub\n      swap1\n      return\n        /* \"IFBCoin.sol\":2540:2658  function balanceOf(address account) public view virtual returns (uint256) {... */\n    tag_10:\n      tag_44\n      0x04\n      dup1\n      calldatasize\n      sub\n      dup2\n      add\n      swap1\n      tag_45\n      swap2\n      swap1\n      tag_46\n      jump\t// in\n    tag_45:\n      tag_47\n      jump\t// in\n    tag_44:\n      mload(0x40)\n      tag_48\n      swap2\n      swap1\n      tag_25\n      jump\t// in\n    tag_48:\n      mload(0x40)\n      dup1\n      swap2\n      sub\n      swap1\n      return\n        /* \"IFBCoin.sol\":4292:4332  address public taxSocialOperationsWallet */\n    tag_11:\n      tag_49\n      tag_50\n      jump\t// in\n    tag_49:\n      mload(0x40)\n      tag_51\n      swap2\n      swap1\n      tag_43\n      jump\t// in\n    tag_51:\n      mload(0x40)\n      dup1\n      swap2\n      sub\n      swap1\n      return\n        /* \"IFBCoin.sol\":1446:1533  function owner() public view virtual returns (address) {... */\n    tag_12:\n      tag_52\n      tag_53\n      jump\t// in\n    tag_52:\n      mload(0x40)\n      tag_54\n      swap2\n      swap1\n      tag_43\n      jump\t// in\n    tag_54:\n      mload(0x40)\n      dup1\n      swap2\n      sub\n      swap1\n      return\n        /* \"IFBCoin.sol\":2210:2305  function symbol() public view virtual returns (string memory) {... */\n    tag_13:\n      tag_55\n      tag_56\n      jump\t// in\n    tag_55:\n      mload(0x40)\n      tag_57\n      swap2\n      swap1\n      tag_21\n      jump\t// in\n    tag_57:\n      mload(0x40)\n      dup1\n      swap2\n      sub\n      swap1\n      return\n        /* \"IFBCoin.sol\":4204:4240  uint256 public taxSocialPercent = 50 */\n    tag_14:\n      tag_58\n      tag_59\n      jump\t// in\n    tag_58:\n      mload(0x40)\n      tag_60\n      swap2\n      swap1\n      tag_25\n      jump\t// in\n    tag_60:\n      mload(0x40)\n      dup1\n      swap2\n      sub\n      swap1\n      return\n        /* \"IFBCoin.sol\":4759:4935  function burnMonthly() public onlyOwner {... */\n    tag_15:\n      tag_61\n      tag_62\n      jump\t// in\n    tag_61:\n      stop\n        /* \"IFBCoin.sol\":2111:2202  function name() public view virtual returns (string memory) {... */\n    tag_19:\n        /* \"IFBCoin.sol\":2156:2169  string memory */\n      0x60\n        /* \"IFBCoin.sol\":2189:2194  _name */\n      0x03\n        /* \"IFBCoin.sol\":2182:2194  return _name */\n      dup1\n      sload\n      tag_64\n      swap1\n      tag_65\n      jump\t// in\n    tag_64:\n      dup1\n      0x1f\n      add\n      0x20\n      dup1\n      swap2\n      div\n      mul\n      0x20\n      add\n      mload(0x40)\n      swap1\n      dup2\n      add\n      0x40\n      mstore\n      dup1\n      swap3\n      swap2\n      swap1\n      dup2\n      dup2\n      mstore\n      0x20\n      add\n      dup3\n      dup1\n      sload\n      tag_66\n      swap1\n      tag_65\n      jump\t// in\n    tag_66:\n      dup1\n      iszero\n      tag_67\n      jumpi\n      dup1\n      0x1f\n      lt\n      tag_68\n      jumpi\n      0x0100\n      dup1\n      dup4\n      sload\n      div\n      mul\n      dup4\n      mstore\n      swap2\n      0x20\n      add\n      swap2\n      jump(tag_67)\n    tag_68:\n      dup3\n      add\n      swap2\n      swap1\n      0x00\n      mstore\n      keccak256(0x00, 0x20)\n      swap1\n    tag_69:\n      dup2\n      sload\n      dup2\n      mstore\n      swap1\n      0x01\n      add\n      swap1\n      0x20\n      add\n      dup1\n      dup4\n      gt\n      tag_69\n      jumpi\n      dup3\n      swap1\n      sub\n      0x1f\n      and\n      dup3\n      add\n      swap2\n    tag_67:\n      pop\n      pop\n      pop\n      pop\n      pop\n      swap1\n      pop\n        /* \"IFBCoin.sol\":2111:2202  function name() public view virtual returns (string memory) {... */\n      swap1\n      jump\t// out\n        /* \"IFBCoin.sol\":2433:2532  function totalSupply() public view virtual returns (uint256) {... */\n    tag_23:\n        /* \"IFBCoin.sol\":2485:2492  uint256 */\n      0x00\n        /* \"IFBCoin.sol\":2512:2524  _totalSupply */\n      sload(0x02)\n        /* \"IFBCoin.sol\":2505:2524  return _totalSupply */\n      swap1\n      pop\n        /* \"IFBCoin.sol\":2433:2532  function totalSupply() public view virtual returns (uint256) {... */\n      swap1\n      jump\t// out\n        /* \"IFBCoin.sol\":4020:4066  string public constant TOKEN_NAME = \"IFB Coin\" */\n    tag_27:\n      mload(0x40)\n      dup1\n      0x40\n      add\n      0x40\n      mstore\n      dup1\n      0x08\n      dup2\n      mstore\n      0x20\n      add\n      0x49464220436f696e000000000000000000000000000000000000000000000000\n      dup2\n      mstore\n      pop\n      dup2\n      jump\t// out\n        /* \"IFBCoin.sol\":4073:4116  string public constant TOKEN_SYMBOL = \"IFB\" */\n    tag_30:\n      mload(0x40)\n      dup1\n      0x40\n      add\n      0x40\n      mstore\n      dup1\n      0x03\n      dup2\n      mstore\n      0x20\n      add\n      0x4946420000000000000000000000000000000000000000000000000000000000\n      dup2\n      mstore\n      pop\n      dup2\n      jump\t// out\n        /* \"IFBCoin.sol\":2313:2425  function decimals() public view virtual returns (uint8) {... */\n    tag_33:\n        /* \"IFBCoin.sol\":2362:2367  uint8 */\n      0x00\n        /* \"IFBCoin.sol\":2387:2388  6 */\n      0x06\n        /* \"IFBCoin.sol\":2380:2388  return 6 */\n      swap1\n      pop\n        /* \"IFBCoin.sol\":2313:2425  function decimals() public view virtual returns (uint8) {... */\n      swap1\n      jump\t// out\n        /* \"IFBCoin.sol\":4404:4751  function initialize(address _projectsWallet, address _operationsWallet) public initializer {... */\n    tag_39:\n        /* \"IFBCoin.sol\":266:279  _initializing */\n      0x00\n      0x01\n      swap1\n      sload\n      swap1\n      0x0100\n      exp\n      swap1\n      div\n      0xff\n      and\n        /* \"IFBCoin.sol\":266:296  _initializing || !_initialized */\n      dup1\n      tag_73\n      jumpi\n      pop\n        /* \"IFBCoin.sol\":284:296  _initialized */\n      0x00\n      0x00\n      swap1\n      sload\n      swap1\n      0x0100\n      exp\n      swap1\n      div\n      0xff\n      and\n        /* \"IFBCoin.sol\":283:296  !_initialized */\n      iszero\n        /* \"IFBCoin.sol\":266:296  _initializing || !_initialized */\n    tag_73:\n        /* \"IFBCoin.sol\":258:347  require(_initializing || !_initialized, \"Initializable: contract is already initialized\") */\n      tag_74\n      jumpi\n      mload(0x40)\n      0x08c379a000000000000000000000000000000000000000000000000000000000\n      dup2\n      mstore\n      0x04\n      add\n      tag_75\n      swap1\n      tag_76\n      jump\t// in\n    tag_75:\n      mload(0x40)\n      dup1\n      swap2\n      sub\n      swap1\n      revert\n    tag_74:\n        /* \"IFBCoin.sol\":358:377  bool isTopLevelCall */\n      0x00\n        /* \"IFBCoin.sol\":381:394  _initializing */\n      0x00\n      0x01\n      swap1\n      sload\n      swap1\n      0x0100\n      exp\n      swap1\n      div\n      0xff\n      and\n        /* \"IFBCoin.sol\":380:394  !_initializing */\n      iszero\n        /* \"IFBCoin.sol\":358:394  bool isTopLevelCall = !_initializing */\n      swap1\n      pop\n        /* \"IFBCoin.sol\":409:423  isTopLevelCall */\n      dup1\n        /* \"IFBCoin.sol\":405:506  if (isTopLevelCall) {... */\n      iszero\n      tag_77\n      jumpi\n        /* \"IFBCoin.sol\":456:460  true */\n      0x01\n        /* \"IFBCoin.sol\":440:453  _initializing */\n      0x00\n      0x01\n        /* \"IFBCoin.sol\":440:460  _initializing = true */\n      0x0100\n      exp\n      dup2\n      sload\n      dup2\n      0xff\n      mul\n      not\n      and\n      swap1\n      dup4\n      iszero\n      iszero\n      mul\n      or\n      swap1\n      sstore\n      pop\n        /* \"IFBCoin.sol\":490:494  true */\n      0x01\n        /* \"IFBCoin.sol\":475:487  _initialized */\n      0x00\n      0x00\n        /* \"IFBCoin.sol\":475:494  _initialized = true */\n      0x0100\n      exp\n      dup2\n      sload\n      dup2\n      0xff\n      mul\n      not\n      and\n      swap1\n      dup4\n      iszero\n      iszero\n      mul\n      or\n      swap1\n      sstore\n      pop\n        /* \"IFBCoin.sol\":405:506  if (isTopLevelCall) {... */\n    tag_77:\n        /* \"IFBCoin.sol\":4506:4544  __ERC20_init(TOKEN_NAME, TOKEN_SYMBOL) */\n      tag_79\n        /* \"IFBCoin.sol\":4519:4529  TOKEN_NAME */\n      mload(0x40)\n      dup1\n      0x40\n      add\n      0x40\n      mstore\n      dup1\n      0x08\n      dup2\n      mstore\n      0x20\n      add\n      0x49464220436f696e000000000000000000000000000000000000000000000000\n      dup2\n      mstore\n      pop\n        /* \"IFBCoin.sol\":4531:4543  TOKEN_SYMBOL */\n      mload(0x40)\n      dup1\n      0x40\n      add\n      0x40\n      mstore\n      dup1\n      0x03\n      dup2\n      mstore\n      0x20\n      add\n      0x4946420000000000000000000000000000000000000000000000000000000000\n      dup2\n      mstore\n      pop\n        /* \"IFBCoin.sol\":4506:4518  __ERC20_init */\n      tag_80\n        /* \"IFBCoin.sol\":4506:4544  __ERC20_init(TOKEN_NAME, TOKEN_SYMBOL) */\n      jump\t// in\n    tag_79:\n        /* \"IFBCoin.sol\":4555:4581  __Ownable_init(msg.sender) */\n      tag_81\n        /* \"IFBCoin.sol\":4570:4580  msg.sender */\n      caller\n        /* \"IFBCoin.sol\":4555:4569  __Ownable_init */\n      tag_82\n        /* \"IFBCoin.sol\":4555:4581  __Ownable_init(msg.sender) */\n      jump\t// in\n    tag_81:\n        /* \"IFBCoin.sol\":4594:4633  _mint(msg.sender, INITIAL_TOTAL_SUPPLY) */\n      tag_83\n        /* \"IFBCoin.sol\":4600:4610  msg.sender */\n      caller\n        /* \"IFBCoin.sol\":4171:4195  10_000_000_000 * (10**6) */\n      0x2386f26fc10000\n        /* \"IFBCoin.sol\":4594:4599  _mint */\n      tag_84\n        /* \"IFBCoin.sol\":4594:4633  _mint(msg.sender, INITIAL_TOTAL_SUPPLY) */\n      jump\t// in\n    tag_83:\n        /* \"IFBCoin.sol\":4672:4687  _projectsWallet */\n      dup3\n        /* \"IFBCoin.sol\":4646:4669  taxSocialProjectsWallet */\n      0x07\n      0x00\n        /* \"IFBCoin.sol\":4646:4687  taxSocialProjectsWallet = _projectsWallet */\n      0x0100\n      exp\n      dup2\n      sload\n      dup2\n      0xffffffffffffffffffffffffffffffffffffffff\n      mul\n      not\n      and\n      swap1\n      dup4\n      0xffffffffffffffffffffffffffffffffffffffff\n      and\n      mul\n      or\n      swap1\n      sstore\n      pop\n        /* \"IFBCoin.sol\":4726:4743  _operationsWallet */\n      dup2\n        /* \"IFBCoin.sol\":4698:4723  taxSocialOperationsWallet */\n      0x08\n      0x00\n        /* \"IFBCoin.sol\":4698:4743  taxSocialOperationsWallet = _operationsWallet */\n      0x0100\n      exp\n      dup2\n      sload\n      dup2\n      0xffffffffffffffffffffffffffffffffffffffff\n      mul\n      not\n      and\n      swap1\n      dup4\n      0xffffffffffffffffffffffffffffffffffffffff\n      and\n      mul\n      or\n      swap1\n      sstore\n      pop\n        /* \"IFBCoin.sol\":532:546  isTopLevelCall */\n      dup1\n        /* \"IFBCoin.sol\":528:596  if (isTopLevelCall) {... */\n      iszero\n      tag_85\n      jumpi\n        /* \"IFBCoin.sol\":579:584  false */\n      0x00\n        /* \"IFBCoin.sol\":563:576  _initializing */\n      0x00\n      0x01\n        /* \"IFBCoin.sol\":563:584  _initializing = false */\n      0x0100\n      exp\n      dup2\n      sload\n      dup2\n      0xff\n      mul\n      not\n      and\n      swap1\n      dup4\n      iszero\n      iszero\n      mul\n      or\n      swap1\n      sstore\n      pop\n        /* \"IFBCoin.sol\":528:596  if (isTopLevelCall) {... */\n    tag_85:\n        /* \"IFBCoin.sol\":247:603  {... */\n      pop\n        /* \"IFBCoin.sol\":4404:4751  function initialize(address _projectsWallet, address _operationsWallet) public initializer {... */\n      pop\n      pop\n      jump\t// out\n        /* \"IFBCoin.sol\":4247:4285  address public taxSocialProjectsWallet */\n    tag_41:\n      0x07\n      0x00\n      swap1\n      sload\n      swap1\n      0x0100\n      exp\n      swap1\n      div\n      0xffffffffffffffffffffffffffffffffffffffff\n      and\n      dup2\n      jump\t// out\n        /* \"IFBCoin.sol\":2540:2658  function balanceOf(address account) public view virtual returns (uint256) {... */\n    tag_47:\n        /* \"IFBCoin.sol\":2605:2612  uint256 */\n      0x00\n        /* \"IFBCoin.sol\":2632:2641  _balances */\n      0x01\n        /* \"IFBCoin.sol\":2632:2650  _balances[account] */\n      0x00\n        /* \"IFBCoin.sol\":2642:2649  account */\n      dup4\n        /* \"IFBCoin.sol\":2632:2650  _balances[account] */\n      0xffffffffffffffffffffffffffffffffffffffff\n      and\n      0xffffffffffffffffffffffffffffffffffffffff\n      and\n      dup2\n      mstore\n      0x20\n      add\n      swap1\n      dup2\n      mstore\n      0x20\n      add\n      0x00\n      keccak256\n      sload\n        /* \"IFBCoin.sol\":2625:2650  return _balances[account] */\n      swap1\n      pop\n        /* \"IFBCoin.sol\":2540:2658  function balanceOf(address account) public view virtual returns (uint256) {... */\n      swap2\n      swap1\n      pop\n      jump\t// out\n        /* \"IFBCoin.sol\":4292:4332  address public taxSocialOperationsWallet */\n    tag_50:\n      0x08\n      0x00\n      swap1\n      sload\n      swap1\n      0x0100\n      exp\n      swap1\n      div\n      0xffffffffffffffffffffffffffffffffffffffff\n      and\n      dup2\n      jump\t// out\n        /* \"IFBCoin.sol\":1446:1533  function owner() public view virtual returns (address) {... */\n    tag_53:\n        /* \"IFBCoin.sol\":1492:1499  address */\n      0x00\n        /* \"IFBCoin.sol\":1519:1525  _owner */\n      0x05\n      0x00\n      swap1\n      sload\n      swap1\n      0x0100\n      exp\n      swap1\n      div\n      0xffffffffffffffffffffffffffffffffffffffff\n      and\n        /* \"IFBCoin.sol\":1512:1525  return _owner */\n      swap1\n      pop\n        /* \"IFBCoin.sol\":1446:1533  function owner() public view virtual returns (address) {... */\n      swap1\n      jump\t// out\n        /* \"IFBCoin.sol\":2210:2305  function symbol() public view virtual returns (string memory) {... */\n    tag_56:\n        /* \"IFBCoin.sol\":2257:2270  string memory */\n      0x60\n        /* \"IFBCoin.sol\":2290:2297  _symbol */\n      0x04\n        /* \"IFBCoin.sol\":2283:2297  return _symbol */\n      dup1\n      sload\n      tag_89\n      swap1\n      tag_65\n      jump\t// in\n    tag_89:\n      dup1\n      0x1f\n      add\n      0x20\n      dup1\n      swap2\n      div\n      mul\n      0x20\n      add\n      mload(0x40)\n      swap1\n      dup2\n      add\n      0x40\n      mstore\n      dup1\n      swap3\n      swap2\n      swap1\n      dup2\n      dup2\n      mstore\n      0x20\n      add\n      dup3\n      dup1\n      sload\n      tag_90\n      swap1\n      tag_65\n      jump\t// in\n    tag_90:\n      dup1\n      iszero\n      tag_91\n      jumpi\n      dup1\n      0x1f\n      lt\n      tag_92\n      jumpi\n      0x0100\n      dup1\n      dup4\n      sload\n      div\n      mul\n      dup4\n      mstore\n      swap2\n      0x20\n      add\n      swap2\n      jump(tag_91)\n    tag_92:\n      dup3\n      add\n      swap2\n      swap1\n      0x00\n      mstore\n      keccak256(0x00, 0x20)\n      swap1\n    tag_93:\n      dup2\n      sload\n      dup2\n      mstore\n      swap1\n      0x01\n      add\n      swap1\n      0x20\n      add\n      dup1\n      dup4\n      gt\n      tag_93\n      jumpi\n      dup3\n      swap1\n      sub\n      0x1f\n      and\n      dup3\n      add\n      swap2\n    tag_91:\n      pop\n      pop\n      pop\n      pop\n      pop\n      swap1\n      pop\n        /* \"IFBCoin.sol\":2210:2305  function symbol() public view virtual returns (string memory) {... */\n      swap1\n      jump\t// out\n        /* \"IFBCoin.sol\":4204:4240  uint256 public taxSocialPercent = 50 */\n    tag_59:\n      sload(0x06)\n      dup2\n      jump\t// out\n        /* \"IFBCoin.sol\":4759:4935  function burnMonthly() public onlyOwner {... */\n    tag_62:\n        /* \"IFBCoin.sol\":1369:1381  _msgSender() */\n      tag_95\n        /* \"IFBCoin.sol\":1369:1379  _msgSender */\n      tag_96\n        /* \"IFBCoin.sol\":1369:1381  _msgSender() */\n      jump\t// in\n    tag_95:\n        /* \"IFBCoin.sol\":1358:1381  owner() == _msgSender() */\n      0xffffffffffffffffffffffffffffffffffffffff\n      and\n        /* \"IFBCoin.sol\":1358:1365  owner() */\n      tag_97\n        /* \"IFBCoin.sol\":1358:1363  owner */\n      tag_53\n        /* \"IFBCoin.sol\":1358:1365  owner() */\n      jump\t// in\n    tag_97:\n        /* \"IFBCoin.sol\":1358:1381  owner() == _msgSender() */\n      0xffffffffffffffffffffffffffffffffffffffff\n      and\n      eq\n        /* \"IFBCoin.sol\":1350:1418  require(owner() == _msgSender(), \"Ownable: caller is not the owner\") */\n      tag_98\n      jumpi\n      mload(0x40)\n      0x08c379a000000000000000000000000000000000000000000000000000000000\n      dup2\n      mstore\n      0x04\n      add\n      tag_99\n      swap1\n      tag_100\n      jump\t// in\n    tag_99:\n      mload(0x40)\n      dup1\n      swap2\n      sub\n      swap1\n      revert\n    tag_98:\n        /* \"IFBCoin.sol\":4810:4828  uint256 burnAmount */\n      0x00\n        /* \"IFBCoin.sol\":4879:4884  10000 */\n      0x2710\n        /* \"IFBCoin.sol\":4859:4875  taxSocialPercent */\n      sload(0x06)\n        /* \"IFBCoin.sol\":4832:4856  balanceOf(address(this)) */\n      tag_102\n        /* \"IFBCoin.sol\":4850:4854  this */\n      address\n        /* \"IFBCoin.sol\":4832:4841  balanceOf */\n      tag_47\n        /* \"IFBCoin.sol\":4832:4856  balanceOf(address(this)) */\n      jump\t// in\n    tag_102:\n        /* \"IFBCoin.sol\":4832:4875  balanceOf(address(this)) * taxSocialPercent */\n      tag_103\n      swap2\n      swap1\n      tag_104\n      jump\t// in\n    tag_103:\n        /* \"IFBCoin.sol\":4831:4884  (balanceOf(address(this)) * taxSocialPercent) / 10000 */\n      tag_105\n      swap2\n      swap1\n      tag_106\n      jump\t// in\n    tag_105:\n        /* \"IFBCoin.sol\":4810:4884  uint256 burnAmount = (balanceOf(address(this)) * taxSocialPercent) / 10000 */\n      swap1\n      pop\n        /* \"IFBCoin.sol\":4895:4927  _burn(address(this), burnAmount) */\n      tag_107\n        /* \"IFBCoin.sol\":4909:4913  this */\n      address\n        /* \"IFBCoin.sol\":4916:4926  burnAmount */\n      dup3\n        /* \"IFBCoin.sol\":4895:4900  _burn */\n      tag_108\n        /* \"IFBCoin.sol\":4895:4927  _burn(address(this), burnAmount) */\n      jump\t// in\n    tag_107:\n        /* \"IFBCoin.sol\":4799:4935  {... */\n      pop\n        /* \"IFBCoin.sol\":4759:4935  function burnMonthly() public onlyOwner {... */\n      jump\t// out\n        /* \"IFBCoin.sol\":1929:2103  function __ERC20_init(string memory name_, string memory symbol_) internal initializer {... */\n    tag_80:\n        /* \"IFBCoin.sol\":266:279  _initializing */\n      0x00\n      0x01\n      swap1\n      sload\n      swap1\n      0x0100\n      exp\n      swap1\n      div\n      0xff\n      and\n        /* \"IFBCoin.sol\":266:296  _initializing || !_initialized */\n      dup1\n      tag_110\n      jumpi\n      pop\n        /* \"IFBCoin.sol\":284:296  _initialized */\n      0x00\n      0x00\n      swap1\n      sload\n      swap1\n      0x0100\n      exp\n      swap1\n      div\n      0xff\n      and\n        /* \"IFBCoin.sol\":283:296  !_initialized */\n      iszero\n        /* \"IFBCoin.sol\":266:296  _initializing || !_initialized */\n    tag_110:\n        /* \"IFBCoin.sol\":258:347  require(_initializing || !_initialized, \"Initializable: contract is already initialized\") */\n      tag_111\n      jumpi\n      mload(0x40)\n      0x08c379a000000000000000000000000000000000000000000000000000000000\n      dup2\n      mstore\n      0x04\n      add\n      tag_112\n      swap1\n      tag_76\n      jump\t// in\n    tag_112:\n      mload(0x40)\n      dup1\n      swap2\n      sub\n      swap1\n      revert\n    tag_111:\n        /* \"IFBCoin.sol\":358:377  bool isTopLevelCall */\n      0x00\n        /* \"IFBCoin.sol\":381:394  _initializing */\n      0x00\n      0x01\n      swap1\n      sload\n      swap1\n      0x0100\n      exp\n      swap1\n      div\n      0xff\n      and\n        /* \"IFBCoin.sol\":380:394  !_initializing */\n      iszero\n        /* \"IFBCoin.sol\":358:394  bool isTopLevelCall = !_initializing */\n      swap1\n      pop\n        /* \"IFBCoin.sol\":409:423  isTopLevelCall */\n      dup1\n        /* \"IFBCoin.sol\":405:506  if (isTopLevelCall) {... */\n      iszero\n      tag_113\n      jumpi\n        /* \"IFBCoin.sol\":456:460  true */\n      0x01\n        /* \"IFBCoin.sol\":440:453  _initializing */\n      0x00\n      0x01\n        /* \"IFBCoin.sol\":440:460  _initializing = true */\n      0x0100\n      exp\n      dup2\n      sload\n      dup2\n      0xff\n      mul\n      not\n      and\n      swap1\n      dup4\n      iszero\n      iszero\n      mul\n      or\n      swap1\n      sstore\n      pop\n        /* \"IFBCoin.sol\":490:494  true */\n      0x01\n        /* \"IFBCoin.sol\":475:487  _initialized */\n      0x00\n      0x00\n        /* \"IFBCoin.sol\":475:494  _initialized = true */\n      0x0100\n      exp\n      dup2\n      sload\n      dup2\n      0xff\n      mul\n      not\n      and\n      swap1\n      dup4\n      iszero\n      iszero\n      mul\n      or\n      swap1\n      sstore\n      pop\n        /* \"IFBCoin.sol\":405:506  if (isTopLevelCall) {... */\n    tag_113:\n        /* \"IFBCoin.sol\":2027:2043  __Context_init() */\n      tag_115\n        /* \"IFBCoin.sol\":2027:2041  __Context_init */\n      tag_116\n        /* \"IFBCoin.sol\":2027:2043  __Context_init() */\n      jump\t// in\n    tag_115:\n        /* \"IFBCoin.sol\":2062:2067  name_ */\n      dup3\n        /* \"IFBCoin.sol\":2054:2059  _name */\n      0x03\n        /* \"IFBCoin.sol\":2054:2067  _name = name_ */\n      swap1\n      dup2\n      tag_117\n      swap2\n      swap1\n      tag_118\n      jump\t// in\n    tag_117:\n      pop\n        /* \"IFBCoin.sol\":2088:2095  symbol_ */\n      dup2\n        /* \"IFBCoin.sol\":2078:2085  _symbol */\n      0x04\n        /* \"IFBCoin.sol\":2078:2095  _symbol = symbol_ */\n      swap1\n      dup2\n      tag_119\n      swap2\n      swap1\n      tag_118\n      jump\t// in\n    tag_119:\n      pop\n        /* \"IFBCoin.sol\":532:546  isTopLevelCall */\n      dup1\n        /* \"IFBCoin.sol\":528:596  if (isTopLevelCall) {... */\n      iszero\n      tag_120\n      jumpi\n        /* \"IFBCoin.sol\":579:584  false */\n      0x00\n        /* \"IFBCoin.sol\":563:576  _initializing */\n      0x00\n      0x01\n        /* \"IFBCoin.sol\":563:584  _initializing = false */\n      0x0100\n      exp\n      dup2\n      sload\n      dup2\n      0xff\n      mul\n      not\n      and\n      swap1\n      dup4\n      iszero\n      iszero\n      mul\n      or\n      swap1\n      sstore\n      pop\n        /* \"IFBCoin.sol\":528:596  if (isTopLevelCall) {... */\n    tag_120:\n        /* \"IFBCoin.sol\":247:603  {... */\n      pop\n        /* \"IFBCoin.sol\":1929:2103  function __ERC20_init(string memory name_, string memory symbol_) internal initializer {... */\n      pop\n      pop\n      jump\t// out\n        /* \"IFBCoin.sol\":1165:1310  function __Ownable_init(address initialOwner) internal initializer {... */\n    tag_82:\n        /* \"IFBCoin.sol\":266:279  _initializing */\n      0x00\n      0x01\n      swap1\n      sload\n      swap1\n      0x0100\n      exp\n      swap1\n      div\n      0xff\n      and\n        /* \"IFBCoin.sol\":266:296  _initializing || !_initialized */\n      dup1\n      tag_122\n      jumpi\n      pop\n        /* \"IFBCoin.sol\":284:296  _initialized */\n      0x00\n      0x00\n      swap1\n      sload\n      swap1\n      0x0100\n      exp\n      swap1\n      div\n      0xff\n      and\n        /* \"IFBCoin.sol\":283:296  !_initialized */\n      iszero\n        /* \"IFBCoin.sol\":266:296  _initializing || !_initialized */\n    tag_122:\n        /* \"IFBCoin.sol\":258:347  require(_initializing || !_initialized, \"Initializable: contract is already initialized\") */\n      tag_123\n      jumpi\n      mload(0x40)\n      0x08c379a000000000000000000000000000000000000000000000000000000000\n      dup2\n      mstore\n      0x04\n      add\n      tag_124\n      swap1\n      tag_76\n      jump\t// in\n    tag_124:\n      mload(0x40)\n      dup1\n      swap2\n      sub\n      swap1\n      revert\n    tag_123:\n        /* \"IFBCoin.sol\":358:377  bool isTopLevelCall */\n      0x00\n        /* \"IFBCoin.sol\":381:394  _initializing */\n      0x00\n      0x01\n      swap1\n      sload\n      swap1\n      0x0100\n      exp\n      swap1\n      div\n      0xff\n      and\n        /* \"IFBCoin.sol\":380:394  !_initializing */\n      iszero\n        /* \"IFBCoin.sol\":358:394  bool isTopLevelCall = !_initializing */\n      swap1\n      pop\n        /* \"IFBCoin.sol\":409:423  isTopLevelCall */\n      dup1\n        /* \"IFBCoin.sol\":405:506  if (isTopLevelCall) {... */\n      iszero\n      tag_125\n      jumpi\n        /* \"IFBCoin.sol\":456:460  true */\n      0x01\n        /* \"IFBCoin.sol\":440:453  _initializing */\n      0x00\n      0x01\n        /* \"IFBCoin.sol\":440:460  _initializing = true */\n      0x0100\n      exp\n      dup2\n      sload\n      dup2\n      0xff\n      mul\n      not\n      and\n      swap1\n      dup4\n      iszero\n      iszero\n      mul\n      or\n      swap1\n      sstore\n      pop\n        /* \"IFBCoin.sol\":490:494  true */\n      0x01\n        /* \"IFBCoin.sol\":475:487  _initialized */\n      0x00\n      0x00\n        /* \"IFBCoin.sol\":475:494  _initialized = true */\n      0x0100\n      exp\n      dup2\n      sload\n      dup2\n      0xff\n      mul\n      not\n      and\n      swap1\n      dup4\n      iszero\n      iszero\n      mul\n      or\n      swap1\n      sstore\n      pop\n        /* \"IFBCoin.sol\":405:506  if (isTopLevelCall) {... */\n    tag_125:\n        /* \"IFBCoin.sol\":1243:1259  __Context_init() */\n      tag_127\n        /* \"IFBCoin.sol\":1243:1257  __Context_init */\n      tag_116\n        /* \"IFBCoin.sol\":1243:1259  __Context_init() */\n      jump\t// in\n    tag_127:\n        /* \"IFBCoin.sol\":1270:1302  _transferOwnership(initialOwner) */\n      tag_128\n        /* \"IFBCoin.sol\":1289:1301  initialOwner */\n      dup3\n        /* \"IFBCoin.sol\":1270:1288  _transferOwnership */\n      tag_129\n        /* \"IFBCoin.sol\":1270:1302  _transferOwnership(initialOwner) */\n      jump\t// in\n    tag_128:\n        /* \"IFBCoin.sol\":532:546  isTopLevelCall */\n      dup1\n        /* \"IFBCoin.sol\":528:596  if (isTopLevelCall) {... */\n      iszero\n      tag_130\n      jumpi\n        /* \"IFBCoin.sol\":579:584  false */\n      0x00\n        /* \"IFBCoin.sol\":563:576  _initializing */\n      0x00\n      0x01\n        /* \"IFBCoin.sol\":563:584  _initializing = false */\n      0x0100\n      exp\n      dup2\n      sload\n      dup2\n      0xff\n      mul\n      not\n      and\n      swap1\n      dup4\n      iszero\n      iszero\n      mul\n      or\n      swap1\n      sstore\n      pop\n        /* \"IFBCoin.sol\":528:596  if (isTopLevelCall) {... */\n    tag_130:\n        /* \"IFBCoin.sol\":247:603  {... */\n      pop\n        /* \"IFBCoin.sol\":1165:1310  function __Ownable_init(address initialOwner) internal initializer {... */\n      pop\n      jump\t// out\n        /* \"IFBCoin.sol\":3170:3379  function _mint(address account, uint256 amount) internal virtual {... */\n    tag_84:\n        /* \"IFBCoin.sol\":3273:3274  0 */\n      0x00\n        /* \"IFBCoin.sol\":3254:3275  account != address(0) */\n      0xffffffffffffffffffffffffffffffffffffffff\n      and\n        /* \"IFBCoin.sol\":3254:3261  account */\n      dup3\n        /* \"IFBCoin.sol\":3254:3275  account != address(0) */\n      0xffffffffffffffffffffffffffffffffffffffff\n      and\n      sub\n        /* \"IFBCoin.sol\":3246:3299  require(account != address(0), \"ERC20: mint to zero\") */\n      tag_132\n      jumpi\n      mload(0x40)\n      0x08c379a000000000000000000000000000000000000000000000000000000000\n      dup2\n      mstore\n      0x04\n      add\n      tag_133\n      swap1\n      tag_134\n      jump\t// in\n    tag_133:\n      mload(0x40)\n      dup1\n      swap2\n      sub\n      swap1\n      revert\n    tag_132:\n        /* \"IFBCoin.sol\":3326:3332  amount */\n      dup1\n        /* \"IFBCoin.sol\":3310:3322  _totalSupply */\n      0x02\n      0x00\n        /* \"IFBCoin.sol\":3310:3332  _totalSupply += amount */\n      dup3\n      dup3\n      sload\n      tag_135\n      swap2\n      swap1\n      tag_136\n      jump\t// in\n    tag_135:\n      swap3\n      pop\n      pop\n      dup2\n      swap1\n      sstore\n      pop\n        /* \"IFBCoin.sol\":3365:3371  amount */\n      dup1\n        /* \"IFBCoin.sol\":3343:3352  _balances */\n      0x01\n        /* \"IFBCoin.sol\":3343:3361  _balances[account] */\n      0x00\n        /* \"IFBCoin.sol\":3353:3360  account */\n      dup5\n        /* \"IFBCoin.sol\":3343:3361  _balances[account] */\n      0xffffffffffffffffffffffffffffffffffffffff\n      and\n      0xffffffffffffffffffffffffffffffffffffffff\n      and\n      dup2\n      mstore\n      0x20\n      add\n      swap1\n      dup2\n      mstore\n      0x20\n      add\n      0x00\n      keccak256\n      0x00\n        /* \"IFBCoin.sol\":3343:3371  _balances[account] += amount */\n      dup3\n      dup3\n      sload\n      tag_137\n      swap2\n      swap1\n      tag_136\n      jump\t// in\n    tag_137:\n      swap3\n      pop\n      pop\n      dup2\n      swap1\n      sstore\n      pop\n        /* \"IFBCoin.sol\":3170:3379  function _mint(address account, uint256 amount) internal virtual {... */\n      pop\n      pop\n      jump\t// out\n        /* \"IFBCoin.sol\":856:954  function _msgSender() internal view virtual returns (address) {... */\n    tag_96:\n        /* \"IFBCoin.sol\":909:916  address */\n      0x00\n        /* \"IFBCoin.sol\":936:946  msg.sender */\n      caller\n        /* \"IFBCoin.sol\":929:946  return msg.sender */\n      swap1\n      pop\n        /* \"IFBCoin.sol\":856:954  function _msgSender() internal view virtual returns (address) {... */\n      swap1\n      jump\t// out\n        /* \"IFBCoin.sol\":3387:3779  function _burn(address account, uint256 amount) internal virtual {... */\n    tag_108:\n        /* \"IFBCoin.sol\":3490:3491  0 */\n      0x00\n        /* \"IFBCoin.sol\":3471:3492  account != address(0) */\n      0xffffffffffffffffffffffffffffffffffffffff\n      and\n        /* \"IFBCoin.sol\":3471:3478  account */\n      dup3\n        /* \"IFBCoin.sol\":3471:3492  account != address(0) */\n      0xffffffffffffffffffffffffffffffffffffffff\n      and\n      sub\n        /* \"IFBCoin.sol\":3463:3518  require(account != address(0), \"ERC20: burn from zero\") */\n      tag_140\n      jumpi\n      mload(0x40)\n      0x08c379a000000000000000000000000000000000000000000000000000000000\n      dup2\n      mstore\n      0x04\n      add\n      tag_141\n      swap1\n      tag_142\n      jump\t// in\n    tag_141:\n      mload(0x40)\n      dup1\n      swap2\n      sub\n      swap1\n      revert\n    tag_140:\n        /* \"IFBCoin.sol\":3529:3551  uint256 accountBalance */\n      0x00\n        /* \"IFBCoin.sol\":3554:3572  balanceOf(account) */\n      tag_143\n        /* \"IFBCoin.sol\":3564:3571  account */\n      dup4\n        /* \"IFBCoin.sol\":3554:3563  balanceOf */\n      tag_47\n        /* \"IFBCoin.sol\":3554:3572  balanceOf(account) */\n      jump\t// in\n    tag_143:\n        /* \"IFBCoin.sol\":3529:3572  uint256 accountBalance = balanceOf(account) */\n      swap1\n      pop\n        /* \"IFBCoin.sol\":3609:3615  amount */\n      dup2\n        /* \"IFBCoin.sol\":3591:3605  accountBalance */\n      dup2\n        /* \"IFBCoin.sol\":3591:3615  accountBalance >= amount */\n      lt\n      iszero\n        /* \"IFBCoin.sol\":3583:3647  require(accountBalance >= amount, \"ERC20: burn exceeds balance\") */\n      tag_144\n      jumpi\n      mload(0x40)\n      0x08c379a000000000000000000000000000000000000000000000000000000000\n      dup2\n      mstore\n      0x04\n      add\n      tag_145\n      swap1\n      tag_146\n      jump\t// in\n    tag_145:\n      mload(0x40)\n      dup1\n      swap2\n      sub\n      swap1\n      revert\n    tag_144:\n        /* \"IFBCoin.sol\":3721:3727  amount */\n      dup2\n        /* \"IFBCoin.sol\":3704:3718  accountBalance */\n      dup2\n        /* \"IFBCoin.sol\":3704:3727  accountBalance - amount */\n      sub\n        /* \"IFBCoin.sol\":3683:3692  _balances */\n      0x01\n        /* \"IFBCoin.sol\":3683:3701  _balances[account] */\n      0x00\n        /* \"IFBCoin.sol\":3693:3700  account */\n      dup6\n        /* \"IFBCoin.sol\":3683:3701  _balances[account] */\n      0xffffffffffffffffffffffffffffffffffffffff\n      and\n      0xffffffffffffffffffffffffffffffffffffffff\n      and\n      dup2\n      mstore\n      0x20\n      add\n      swap1\n      dup2\n      mstore\n      0x20\n      add\n      0x00\n      keccak256\n        /* \"IFBCoin.sol\":3683:3727  _balances[account] = accountBalance - amount */\n      dup2\n      swap1\n      sstore\n      pop\n        /* \"IFBCoin.sol\":3765:3771  amount */\n      dup2\n        /* \"IFBCoin.sol\":3749:3761  _totalSupply */\n      0x02\n      0x00\n        /* \"IFBCoin.sol\":3749:3771  _totalSupply -= amount */\n      dup3\n      dup3\n      sload\n      tag_147\n      swap2\n      swap1\n      tag_148\n      jump\t// in\n    tag_147:\n      swap3\n      pop\n      pop\n      dup2\n      swap1\n      sstore\n      pop\n        /* \"IFBCoin.sol\":3452:3779  {... */\n      pop\n        /* \"IFBCoin.sol\":3387:3779  function _burn(address account, uint256 amount) internal virtual {... */\n      pop\n      pop\n      jump\t// out\n        /* \"IFBCoin.sol\":766:848  function __Context_init() internal {... */\n    tag_116:\n      jump\t// out\n        /* \"IFBCoin.sol\":1541:1698  function _transferOwnership(address newOwner) internal virtual {... */\n    tag_129:\n        /* \"IFBCoin.sol\":1624:1632  newOwner */\n      dup1\n        /* \"IFBCoin.sol\":1615:1621  _owner */\n      0x05\n      0x00\n        /* \"IFBCoin.sol\":1615:1632  _owner = newOwner */\n      0x0100\n      exp\n      dup2\n      sload\n      dup2\n      0xffffffffffffffffffffffffffffffffffffffff\n      mul\n      not\n      and\n      swap1\n      dup4\n      0xffffffffffffffffffffffffffffffffffffffff\n      and\n      mul\n      or\n      swap1\n      sstore\n      pop\n        /* \"IFBCoin.sol\":1681:1689  newOwner */\n      dup1\n        /* \"IFBCoin.sol\":1648:1690  OwnershipTransferred(msg.sender, newOwner) */\n      0xffffffffffffffffffffffffffffffffffffffff\n      and\n        /* \"IFBCoin.sol\":1669:1679  msg.sender */\n      caller\n        /* \"IFBCoin.sol\":1648:1690  OwnershipTransferred(msg.sender, newOwner) */\n      0xffffffffffffffffffffffffffffffffffffffff\n      and\n      0x8be0079c531659141344cd1fd0a4f28419497f9722a3daafe3b4186f6b6457e0\n      mload(0x40)\n      mload(0x40)\n      dup1\n      swap2\n      sub\n      swap1\n      log3\n        /* \"IFBCoin.sol\":1541:1698  function _transferOwnership(address newOwner) internal virtual {... */\n      pop\n      jump\t// out\n        /* \"#utility.yul\":7:106   */\n    tag_151:\n        /* \"#utility.yul\":59:65   */\n      0x00\n        /* \"#utility.yul\":93:98   */\n      dup2\n        /* \"#utility.yul\":87:99   */\n      mload\n        /* \"#utility.yul\":77:99   */\n      swap1\n      pop\n        /* \"#utility.yul\":7:106   */\n      swap2\n      swap1\n      pop\n      jump\t// out\n        /* \"#utility.yul\":112:281   */\n    tag_152:\n        /* \"#utility.yul\":196:207   */\n      0x00\n        /* \"#utility.yul\":230:236   */\n      dup3\n        /* \"#utility.yul\":225:228   */\n      dup3\n        /* \"#utility.yul\":218:237   */\n      mstore\n        /* \"#utility.yul\":270:274   */\n      0x20\n        /* \"#utility.yul\":265:268   */\n      dup3\n        /* \"#utility.yul\":261:275   */\n      add\n        /* \"#utility.yul\":246:275   */\n      swap1\n      pop\n        /* \"#utility.yul\":112:281   */\n      swap3\n      swap2\n      pop\n      pop\n      jump\t// out\n        /* \"#utility.yul\":287:426   */\n    tag_153:\n        /* \"#utility.yul\":376:382   */\n      dup3\n        /* \"#utility.yul\":371:374   */\n      dup2\n        /* \"#utility.yul\":366:369   */\n      dup4\n        /* \"#utility.yul\":360:383   */\n      mcopy\n        /* \"#utility.yul\":417:418   */\n      0x00\n        /* \"#utility.yul\":408:414   */\n      dup4\n        /* \"#utility.yul\":403:406   */\n      dup4\n        /* \"#utility.yul\":399:415   */\n      add\n        /* \"#utility.yul\":392:419   */\n      mstore\n        /* \"#utility.yul\":287:426   */\n      pop\n      pop\n      pop\n      jump\t// out\n        /* \"#utility.yul\":432:534   */\n    tag_154:\n        /* \"#utility.yul\":473:479   */\n      0x00\n        /* \"#utility.yul\":524:526   */\n      0x1f\n        /* \"#utility.yul\":520:527   */\n      not\n        /* \"#utility.yul\":515:517   */\n      0x1f\n        /* \"#utility.yul\":508:513   */\n      dup4\n        /* \"#utility.yul\":504:518   */\n      add\n        /* \"#utility.yul\":500:528   */\n      and\n        /* \"#utility.yul\":490:528   */\n      swap1\n      pop\n        /* \"#utility.yul\":432:534   */\n      swap2\n      swap1\n      pop\n      jump\t// out\n        /* \"#utility.yul\":540:917   */\n    tag_155:\n        /* \"#utility.yul\":628:631   */\n      0x00\n        /* \"#utility.yul\":656:695   */\n      tag_203\n        /* \"#utility.yul\":689:694   */\n      dup3\n        /* \"#utility.yul\":656:695   */\n      tag_151\n      jump\t// in\n    tag_203:\n        /* \"#utility.yul\":711:782   */\n      tag_204\n        /* \"#utility.yul\":775:781   */\n      dup2\n        /* \"#utility.yul\":770:773   */\n      dup6\n        /* \"#utility.yul\":711:782   */\n      tag_152\n      jump\t// in\n    tag_204:\n        /* \"#utility.yul\":704:782   */\n      swap4\n      pop\n        /* \"#utility.yul\":791:856   */\n      tag_205\n        /* \"#utility.yul\":849:855   */\n      dup2\n        /* \"#utility.yul\":844:847   */\n      dup6\n        /* \"#utility.yul\":837:841   */\n      0x20\n        /* \"#utility.yul\":830:835   */\n      dup7\n        /* \"#utility.yul\":826:842   */\n      add\n        /* \"#utility.yul\":791:856   */\n      tag_153\n      jump\t// in\n    tag_205:\n        /* \"#utility.yul\":881:910   */\n      tag_206\n        /* \"#utility.yul\":903:909   */\n      dup2\n        /* \"#utility.yul\":881:910   */\n      tag_154\n      jump\t// in\n    tag_206:\n        /* \"#utility.yul\":876:879   */\n      dup5\n        /* \"#utility.yul\":872:911   */\n      add\n        /* \"#utility.yul\":865:911   */\n      swap2\n      pop\n        /* \"#utility.yul\":632:917   */\n      pop\n        /* \"#utility.yul\":540:917   */\n      swap3\n      swap2\n      pop\n      pop\n      jump\t// out\n        /* \"#utility.yul\":923:1236   */\n    tag_21:\n        /* \"#utility.yul\":1036:1040   */\n      0x00\n        /* \"#utility.yul\":1074:1076   */\n      0x20\n        /* \"#utility.yul\":1063:1072   */\n      dup3\n        /* \"#utility.yul\":1059:1077   */\n      add\n        /* \"#utility.yul\":1051:1077   */\n      swap1\n      pop\n        /* \"#utility.yul\":1123:1132   */\n      dup2\n        /* \"#utility.yul\":1117:1121   */\n      dup2\n        /* \"#utility.yul\":1113:1133   */\n      sub\n        /* \"#utility.yul\":1109:1110   */\n      0x00\n        /* \"#utility.yul\":1098:1107   */\n      dup4\n        /* \"#utility.yul\":1094:1111   */\n      add\n        /* \"#utility.yul\":1087:1134   */\n      mstore\n        /* \"#utility.yul\":1151:1229   */\n      tag_208\n        /* \"#utility.yul\":1224:1228   */\n      dup2\n        /* \"#utility.yul\":1215:1221   */\n      dup5\n        /* \"#utility.yul\":1151:1229   */\n      tag_155\n      jump\t// in\n    tag_208:\n        /* \"#utility.yul\":1143:1229   */\n      swap1\n      pop\n        /* \"#utility.yul\":923:1236   */\n      swap3\n      swap2\n      pop\n      pop\n      jump\t// out\n        /* \"#utility.yul\":1242:1319   */\n    tag_156:\n        /* \"#utility.yul\":1279:1286   */\n      0x00\n        /* \"#utility.yul\":1308:1313   */\n      dup2\n        /* \"#utility.yul\":1297:1313   */\n      swap1\n      pop\n        /* \"#utility.yul\":1242:1319   */\n      swap2\n      swap1\n      pop\n      jump\t// out\n        /* \"#utility.yul\":1325:1443   */\n    tag_157:\n        /* \"#utility.yul\":1412:1436   */\n      tag_211\n        /* \"#utility.yul\":1430:1435   */\n      dup2\n        /* \"#utility.yul\":1412:1436   */\n      tag_156\n      jump\t// in\n    tag_211:\n        /* \"#utility.yul\":1407:1410   */\n      dup3\n        /* \"#utility.yul\":1400:1437   */\n      mstore\n        /* \"#utility.yul\":1325:1443   */\n      pop\n      pop\n      jump\t// out\n        /* \"#utility.yul\":1449:1671   */\n    tag_25:\n        /* \"#utility.yul\":1542:1546   */\n      0x00\n        /* \"#utility.yul\":1580:1582   */\n      0x20\n        /* \"#utility.yul\":1569:1578   */\n      dup3\n        /* \"#utility.yul\":1565:1583   */\n      add\n        /* \"#utility.yul\":1557:1583   */\n      swap1\n      pop\n        /* \"#utility.yul\":1593:1664   */\n      tag_213\n        /* \"#utility.yul\":1661:1662   */\n      0x00\n        /* \"#utility.yul\":1650:1659   */\n      dup4\n        /* \"#utility.yul\":1646:1663   */\n      add\n        /* \"#utility.yul\":1637:1643   */\n      dup5\n        /* \"#utility.yul\":1593:1664   */\n      tag_157\n      jump\t// in\n    tag_213:\n        /* \"#utility.yul\":1449:1671   */\n      swap3\n      swap2\n      pop\n      pop\n      jump\t// out\n        /* \"#utility.yul\":1677:1763   */\n    tag_158:\n        /* \"#utility.yul\":1712:1719   */\n      0x00\n        /* \"#utility.yul\":1752:1756   */\n      0xff\n        /* \"#utility.yul\":1745:1750   */\n      dup3\n        /* \"#utility.yul\":1741:1757   */\n      and\n        /* \"#utility.yul\":1730:1757   */\n      swap1\n      pop\n        /* \"#utility.yul\":1677:1763   */\n      swap2\n      swap1\n      pop\n      jump\t// out\n        /* \"#utility.yul\":1769:1881   */\n    tag_159:\n        /* \"#utility.yul\":1852:1874   */\n      tag_216\n        /* \"#utility.yul\":1868:1873   */\n      dup2\n        /* \"#utility.yul\":1852:1874   */\n      tag_158\n      jump\t// in\n    tag_216:\n        /* \"#utility.yul\":1847:1850   */\n      dup3\n        /* \"#utility.yul\":1840:1875   */\n      mstore\n        /* \"#utility.yul\":1769:1881   */\n      pop\n      pop\n      jump\t// out\n        /* \"#utility.yul\":1887:2101   */\n    tag_35:\n        /* \"#utility.yul\":1976:1980   */\n      0x00\n        /* \"#utility.yul\":2014:2016   */\n      0x20\n        /* \"#utility.yul\":2003:2012   */\n      dup3\n        /* \"#utility.yul\":1999:2017   */\n      add\n        /* \"#utility.yul\":1991:2017   */\n      swap1\n      pop\n        /* \"#utility.yul\":2027:2094   */\n      tag_218\n        /* \"#utility.yul\":2091:2092   */\n      0x00\n        /* \"#utility.yul\":2080:2089   */\n      dup4\n        /* \"#utility.yul\":2076:2093   */\n      add\n        /* \"#utility.yul\":2067:2073   */\n      dup5\n        /* \"#utility.yul\":2027:2094   */\n      tag_159\n      jump\t// in\n    tag_218:\n        /* \"#utility.yul\":1887:2101   */\n      swap3\n      swap2\n      pop\n      pop\n      jump\t// out\n        /* \"#utility.yul\":2188:2305   */\n    tag_161:\n        /* \"#utility.yul\":2297:2298   */\n      0x00\n        /* \"#utility.yul\":2294:2295   */\n      0x00\n        /* \"#utility.yul\":2287:2299   */\n      revert\n        /* \"#utility.yul\":2434:2560   */\n    tag_163:\n        /* \"#utility.yul\":2471:2478   */\n      0x00\n        /* \"#utility.yul\":2511:2553   */\n      0xffffffffffffffffffffffffffffffffffffffff\n        /* \"#utility.yul\":2504:2509   */\n      dup3\n        /* \"#utility.yul\":2500:2554   */\n      and\n        /* \"#utility.yul\":2489:2554   */\n      swap1\n      pop\n        /* \"#utility.yul\":2434:2560   */\n      swap2\n      swap1\n      pop\n      jump\t// out\n        /* \"#utility.yul\":2566:2662   */\n    tag_164:\n        /* \"#utility.yul\":2603:2610   */\n      0x00\n        /* \"#utility.yul\":2632:2656   */\n      tag_224\n        /* \"#utility.yul\":2650:2655   */\n      dup3\n        /* \"#utility.yul\":2632:2656   */\n      tag_163\n      jump\t// in\n    tag_224:\n        /* \"#utility.yul\":2621:2656   */\n      swap1\n      pop\n        /* \"#utility.yul\":2566:2662   */\n      swap2\n      swap1\n      pop\n      jump\t// out\n        /* \"#utility.yul\":2668:2790   */\n    tag_165:\n        /* \"#utility.yul\":2741:2765   */\n      tag_226\n        /* \"#utility.yul\":2759:2764   */\n      dup2\n        /* \"#utility.yul\":2741:2765   */\n      tag_164\n      jump\t// in\n    tag_226:\n        /* \"#utility.yul\":2734:2739   */\n      dup2\n        /* \"#utility.yul\":2731:2766   */\n      eq\n        /* \"#utility.yul\":2721:2784   */\n      tag_227\n      jumpi\n        /* \"#utility.yul\":2780:2781   */\n      0x00\n        /* \"#utility.yul\":2777:2778   */\n      0x00\n        /* \"#utility.yul\":2770:2782   */\n      revert\n        /* \"#utility.yul\":2721:2784   */\n    tag_227:\n        /* \"#utility.yul\":2668:2790   */\n      pop\n      jump\t// out\n        /* \"#utility.yul\":2796:2935   */\n    tag_166:\n        /* \"#utility.yul\":2842:2847   */\n      0x00\n        /* \"#utility.yul\":2880:2886   */\n      dup2\n        /* \"#utility.yul\":2867:2887   */\n      calldataload\n        /* \"#utility.yul\":2858:2887   */\n      swap1\n      pop\n        /* \"#utility.yul\":2896:2929   */\n      tag_229\n        /* \"#utility.yul\":2923:2928   */\n      dup2\n        /* \"#utility.yul\":2896:2929   */\n      tag_165\n      jump\t// in\n    tag_229:\n        /* \"#utility.yul\":2796:2935   */\n      swap3\n      swap2\n      pop\n      pop\n      jump\t// out\n        /* \"#utility.yul\":2941:3415   */\n    tag_38:\n        /* \"#utility.yul\":3009:3015   */\n      0x00\n        /* \"#utility.yul\":3017:3023   */\n      0x00\n        /* \"#utility.yul\":3066:3068   */\n      0x40\n        /* \"#utility.yul\":3054:3063   */\n      dup4\n        /* \"#utility.yul\":3045:3052   */\n      dup6\n        /* \"#utility.yul\":3041:3064   */\n      sub\n        /* \"#utility.yul\":3037:3069   */\n      slt\n        /* \"#utility.yul\":3034:3153   */\n      iszero\n      tag_231\n      jumpi\n        /* \"#utility.yul\":3072:3151   */\n      tag_232\n      tag_161\n      jump\t// in\n    tag_232:\n        /* \"#utility.yul\":3034:3153   */\n    tag_231:\n        /* \"#utility.yul\":3192:3193   */\n      0x00\n        /* \"#utility.yul\":3217:3270   */\n      tag_233\n        /* \"#utility.yul\":3262:3269   */\n      dup6\n        /* \"#utility.yul\":3253:3259   */\n      dup3\n        /* \"#utility.yul\":3242:3251   */\n      dup7\n        /* \"#utility.yul\":3238:3260   */\n      add\n        /* \"#utility.yul\":3217:3270   */\n      tag_166\n      jump\t// in\n    tag_233:\n        /* \"#utility.yul\":3207:3270   */\n      swap3\n      pop\n        /* \"#utility.yul\":3163:3280   */\n      pop\n        /* \"#utility.yul\":3319:3321   */\n      0x20\n        /* \"#utility.yul\":3345:3398   */\n      tag_234\n        /* \"#utility.yul\":3390:3397   */\n      dup6\n        /* \"#utility.yul\":3381:3387   */\n      dup3\n        /* \"#utility.yul\":3370:3379   */\n      dup7\n        /* \"#utility.yul\":3366:3388   */\n      add\n        /* \"#utility.yul\":3345:3398   */\n      tag_166\n      jump\t// in\n    tag_234:\n        /* \"#utility.yul\":3335:3398   */\n      swap2\n      pop\n        /* \"#utility.yul\":3290:3408   */\n      pop\n        /* \"#utility.yul\":2941:3415   */\n      swap3\n      pop\n      swap3\n      swap1\n      pop\n      jump\t// out\n        /* \"#utility.yul\":3421:3539   */\n    tag_167:\n        /* \"#utility.yul\":3508:3532   */\n      tag_236\n        /* \"#utility.yul\":3526:3531   */\n      dup2\n        /* \"#utility.yul\":3508:3532   */\n      tag_164\n      jump\t// in\n    tag_236:\n        /* \"#utility.yul\":3503:3506   */\n      dup3\n        /* \"#utility.yul\":3496:3533   */\n      mstore\n        /* \"#utility.yul\":3421:3539   */\n      pop\n      pop\n      jump\t// out\n        /* \"#utility.yul\":3545:3767   */\n    tag_43:\n        /* \"#utility.yul\":3638:3642   */\n      0x00\n        /* \"#utility.yul\":3676:3678   */\n      0x20\n        /* \"#utility.yul\":3665:3674   */\n      dup3\n        /* \"#utility.yul\":3661:3679   */\n      add\n        /* \"#utility.yul\":3653:3679   */\n      swap1\n      pop\n        /* \"#utility.yul\":3689:3760   */\n      tag_238\n        /* \"#utility.yul\":3757:3758   */\n      0x00\n        /* \"#utility.yul\":3746:3755   */\n      dup4\n        /* \"#utility.yul\":3742:3759   */\n      add\n        /* \"#utility.yul\":3733:3739   */\n      dup5\n        /* \"#utility.yul\":3689:3760   */\n      tag_167\n      jump\t// in\n    tag_238:\n        /* \"#utility.yul\":3545:3767   */\n      swap3\n      swap2\n      pop\n      pop\n      jump\t// out\n        /* \"#utility.yul\":3773:4102   */\n    tag_46:\n        /* \"#utility.yul\":3832:3838   */\n      0x00\n        /* \"#utility.yul\":3881:3883   */\n      0x20\n        /* \"#utility.yul\":3869:3878   */\n      dup3\n        /* \"#utility.yul\":3860:3867   */\n      dup5\n        /* \"#utility.yul\":3856:3879   */\n      sub\n        /* \"#utility.yul\":3852:3884   */\n      slt\n        /* \"#utility.yul\":3849:3968   */\n      iszero\n      tag_240\n      jumpi\n        /* \"#utility.yul\":3887:3966   */\n      tag_241\n      tag_161\n      jump\t// in\n    tag_241:\n        /* \"#utility.yul\":3849:3968   */\n    tag_240:\n        /* \"#utility.yul\":4007:4008   */\n      0x00\n        /* \"#utility.yul\":4032:4085   */\n      tag_242\n        /* \"#utility.yul\":4077:4084   */\n      dup5\n        /* \"#utility.yul\":4068:4074   */\n      dup3\n        /* \"#utility.yul\":4057:4066   */\n      dup6\n        /* \"#utility.yul\":4053:4075   */\n      add\n        /* \"#utility.yul\":4032:4085   */\n      tag_166\n      jump\t// in\n    tag_242:\n        /* \"#utility.yul\":4022:4085   */\n      swap2\n      pop\n        /* \"#utility.yul\":3978:4095   */\n      pop\n        /* \"#utility.yul\":3773:4102   */\n      swap3\n      swap2\n      pop\n      pop\n      jump\t// out\n        /* \"#utility.yul\":4108:4288   */\n    tag_168:\n        /* \"#utility.yul\":4156:4233   */\n      0x4e487b7100000000000000000000000000000000000000000000000000000000\n        /* \"#utility.yul\":4153:4154   */\n      0x00\n        /* \"#utility.yul\":4146:4234   */\n      mstore\n        /* \"#utility.yul\":4253:4257   */\n      0x22\n        /* \"#utility.yul\":4250:4251   */\n      0x04\n        /* \"#utility.yul\":4243:4258   */\n      mstore\n        /* \"#utility.yul\":4277:4281   */\n      0x24\n        /* \"#utility.yul\":4274:4275   */\n      0x00\n        /* \"#utility.yul\":4267:4282   */\n      revert\n        /* \"#utility.yul\":4294:4614   */\n    tag_65:\n        /* \"#utility.yul\":4338:4344   */\n      0x00\n        /* \"#utility.yul\":4375:4376   */\n      0x02\n        /* \"#utility.yul\":4369:4373   */\n      dup3\n        /* \"#utility.yul\":4365:4377   */\n      div\n        /* \"#utility.yul\":4355:4377   */\n      swap1\n      pop\n        /* \"#utility.yul\":4422:4423   */\n      0x01\n        /* \"#utility.yul\":4416:4420   */\n      dup3\n        /* \"#utility.yul\":4412:4424   */\n      and\n        /* \"#utility.yul\":4443:4461   */\n      dup1\n        /* \"#utility.yul\":4433:4514   */\n      tag_245\n      jumpi\n        /* \"#utility.yul\":4499:4503   */\n      0x7f\n        /* \"#utility.yul\":4491:4497   */\n      dup3\n        /* \"#utility.yul\":4487:4504   */\n      and\n        /* \"#utility.yul\":4477:4504   */\n      swap2\n      pop\n        /* \"#utility.yul\":4433:4514   */\n    tag_245:\n        /* \"#utility.yul\":4561:4563   */\n      0x20\n        /* \"#utility.yul\":4553:4559   */\n      dup3\n        /* \"#utility.yul\":4550:4564   */\n      lt\n        /* \"#utility.yul\":4530:4548   */\n      dup2\n        /* \"#utility.yul\":4527:4565   */\n      sub\n        /* \"#utility.yul\":4524:4608   */\n      tag_246\n      jumpi\n        /* \"#utility.yul\":4580:4598   */\n      tag_247\n      tag_168\n      jump\t// in\n    tag_247:\n        /* \"#utility.yul\":4524:4608   */\n    tag_246:\n        /* \"#utility.yul\":4345:4614   */\n      pop\n        /* \"#utility.yul\":4294:4614   */\n      swap2\n      swap1\n      pop\n      jump\t// out\n        /* \"#utility.yul\":4620:4853   */\n    tag_169:\n        /* \"#utility.yul\":4760:4794   */\n      0x496e697469616c697a61626c653a20636f6e747261637420697320616c726561\n        /* \"#utility.yul\":4756:4757   */\n      0x00\n        /* \"#utility.yul\":4748:4754   */\n      dup3\n        /* \"#utility.yul\":4744:4758   */\n      add\n        /* \"#utility.yul\":4737:4795   */\n      mstore\n        /* \"#utility.yul\":4829:4845   */\n      0x647920696e697469616c697a6564000000000000000000000000000000000000\n        /* \"#utility.yul\":4824:4826   */\n      0x20\n        /* \"#utility.yul\":4816:4822   */\n      dup3\n        /* \"#utility.yul\":4812:4827   */\n      add\n        /* \"#utility.yul\":4805:4846   */\n      mstore\n        /* \"#utility.yul\":4620:4853   */\n      pop\n      jump\t// out\n        /* \"#utility.yul\":4859:5225   */\n    tag_170:\n        /* \"#utility.yul\":5001:5004   */\n      0x00\n        /* \"#utility.yul\":5022:5089   */\n      tag_250\n        /* \"#utility.yul\":5086:5088   */\n      0x2e\n        /* \"#utility.yul\":5081:5084   */\n      dup4\n        /* \"#utility.yul\":5022:5089   */\n      tag_152\n      jump\t// in\n    tag_250:\n        /* \"#utility.yul\":5015:5089   */\n      swap2\n      pop\n        /* \"#utility.yul\":5098:5191   */\n      tag_251\n        /* \"#utility.yul\":5187:5190   */\n      dup3\n        /* \"#utility.yul\":5098:5191   */\n      tag_169\n      jump\t// in\n    tag_251:\n        /* \"#utility.yul\":5216:5218   */\n      0x40\n        /* \"#utility.yul\":5211:5214   */\n      dup3\n        /* \"#utility.yul\":5207:5219   */\n      add\n        /* \"#utility.yul\":5200:5219   */\n      swap1\n      pop\n        /* \"#utility.yul\":4859:5225   */\n      swap2\n      swap1\n      pop\n      jump\t// out\n        /* \"#utility.yul\":5231:5650   */\n    tag_76:\n        /* \"#utility.yul\":5397:5401   */\n      0x00\n        /* \"#utility.yul\":5435:5437   */\n      0x20\n        /* \"#utility.yul\":5424:5433   */\n      dup3\n        /* \"#utility.yul\":5420:5438   */\n      add\n        /* \"#utility.yul\":5412:5438   */\n      swap1\n      pop\n        /* \"#utility.yul\":5484:5493   */\n      dup2\n        /* \"#utility.yul\":5478:5482   */\n      dup2\n        /* \"#utility.yul\":5474:5494   */\n      sub\n        /* \"#utility.yul\":5470:5471   */\n      0x00\n        /* \"#utility.yul\":5459:5468   */\n      dup4\n        /* \"#utility.yul\":5455:5472   */\n      add\n        /* \"#utility.yul\":5448:5495   */\n      mstore\n        /* \"#utility.yul\":5512:5643   */\n      tag_253\n        /* \"#utility.yul\":5638:5642   */\n      dup2\n        /* \"#utility.yul\":5512:5643   */\n      tag_170\n      jump\t// in\n    tag_253:\n        /* \"#utility.yul\":5504:5643   */\n      swap1\n      pop\n        /* \"#utility.yul\":5231:5650   */\n      swap2\n      swap1\n      pop\n      jump\t// out\n        /* \"#utility.yul\":5656:5838   */\n    tag_171:\n        /* \"#utility.yul\":5796:5830   */\n      0x4f776e61626c653a2063616c6c6572206973206e6f7420746865206f776e6572\n        /* \"#utility.yul\":5792:5793   */\n      0x00\n        /* \"#utility.yul\":5784:5790   */\n      dup3\n        /* \"#utility.yul\":5780:5794   */\n      add\n        /* \"#utility.yul\":5773:5831   */\n      mstore\n        /* \"#utility.yul\":5656:5838   */\n      pop\n      jump\t// out\n        /* \"#utility.yul\":5844:6210   */\n    tag_172:\n        /* \"#utility.yul\":5986:5989   */\n      0x00\n        /* \"#utility.yul\":6007:6074   */\n      tag_256\n        /* \"#utility.yul\":6071:6073   */\n      0x20\n        /* \"#utility.yul\":6066:6069   */\n      dup4\n        /* \"#utility.yul\":6007:6074   */\n      tag_152\n      jump\t// in\n    tag_256:\n        /* \"#utility.yul\":6000:6074   */\n      swap2\n      pop\n        /* \"#utility.yul\":6083:6176   */\n      tag_257\n        /* \"#utility.yul\":6172:6175   */\n      dup3\n        /* \"#utility.yul\":6083:6176   */\n      tag_171\n      jump\t// in\n    tag_257:\n        /* \"#utility.yul\":6201:6203   */\n      0x20\n        /* \"#utility.yul\":6196:6199   */\n      dup3\n        /* \"#utility.yul\":6192:6204   */\n      add\n        /* \"#utility.yul\":6185:6204   */\n      swap1\n      pop\n        /* \"#utility.yul\":5844:6210   */\n      swap2\n      swap1\n      pop\n      jump\t// out\n        /* \"#utility.yul\":6216:6635   */\n    tag_100:\n        /* \"#utility.yul\":6382:6386   */\n      0x00\n        /* \"#utility.yul\":6420:6422   */\n      0x20\n        /* \"#utility.yul\":6409:6418   */\n      dup3\n        /* \"#utility.yul\":6405:6423   */\n      add\n        /* \"#utility.yul\":6397:6423   */\n      swap1\n      pop\n        /* \"#utility.yul\":6469:6478   */\n      dup2\n        /* \"#utility.yul\":6463:6467   */\n      dup2\n        /* \"#utility.yul\":6459:6479   */\n      sub\n        /* \"#utility.yul\":6455:6456   */\n      0x00\n        /* \"#utility.yul\":6444:6453   */\n      dup4\n        /* \"#utility.yul\":6440:6457   */\n      add\n        /* \"#utility.yul\":6433:6480   */\n      mstore\n        /* \"#utility.yul\":6497:6628   */\n      tag_259\n        /* \"#utility.yul\":6623:6627   */\n      dup2\n        /* \"#utility.yul\":6497:6628   */\n      tag_172\n      jump\t// in\n    tag_259:\n        /* \"#utility.yul\":6489:6628   */\n      swap1\n      pop\n        /* \"#utility.yul\":6216:6635   */\n      swap2\n      swap1\n      pop\n      jump\t// out\n        /* \"#utility.yul\":6641:6821   */\n    tag_173:\n        /* \"#utility.yul\":6689:6766   */\n      0x4e487b7100000000000000000000000000000000000000000000000000000000\n        /* \"#utility.yul\":6686:6687   */\n      0x00\n        /* \"#utility.yul\":6679:6767   */\n      mstore\n        /* \"#utility.yul\":6786:6790   */\n      0x11\n        /* \"#utility.yul\":6783:6784   */\n      0x04\n        /* \"#utility.yul\":6776:6791   */\n      mstore\n        /* \"#utility.yul\":6810:6814   */\n      0x24\n        /* \"#utility.yul\":6807:6808   */\n      0x00\n        /* \"#utility.yul\":6800:6815   */\n      revert\n        /* \"#utility.yul\":6827:7237   */\n    tag_104:\n        /* \"#utility.yul\":6867:6874   */\n      0x00\n        /* \"#utility.yul\":6890:6910   */\n      tag_262\n        /* \"#utility.yul\":6908:6909   */\n      dup3\n        /* \"#utility.yul\":6890:6910   */\n      tag_156\n      jump\t// in\n    tag_262:\n        /* \"#utility.yul\":6885:6910   */\n      swap2\n      pop\n        /* \"#utility.yul\":6924:6944   */\n      tag_263\n        /* \"#utility.yul\":6942:6943   */\n      dup4\n        /* \"#utility.yul\":6924:6944   */\n      tag_156\n      jump\t// in\n    tag_263:\n        /* \"#utility.yul\":6919:6944   */\n      swap3\n      pop\n        /* \"#utility.yul\":6979:6980   */\n      dup3\n        /* \"#utility.yul\":6976:6977   */\n      dup3\n        /* \"#utility.yul\":6972:6981   */\n      mul\n        /* \"#utility.yul\":7001:7031   */\n      tag_264\n        /* \"#utility.yul\":7019:7030   */\n      dup2\n        /* \"#utility.yul\":7001:7031   */\n      tag_156\n      jump\t// in\n    tag_264:\n        /* \"#utility.yul\":6990:7031   */\n      swap2\n      pop\n        /* \"#utility.yul\":7180:7181   */\n      dup3\n        /* \"#utility.yul\":7171:7178   */\n      dup3\n        /* \"#utility.yul\":7167:7182   */\n      div\n        /* \"#utility.yul\":7164:7165   */\n      dup5\n        /* \"#utility.yul\":7161:7183   */\n      eq\n        /* \"#utility.yul\":7141:7142   */\n      dup4\n        /* \"#utility.yul\":7134:7143   */\n      iszero\n        /* \"#utility.yul\":7114:7197   */\n      or\n        /* \"#utility.yul\":7091:7230   */\n      tag_265\n      jumpi\n        /* \"#utility.yul\":7210:7228   */\n      tag_266\n      tag_173\n      jump\t// in\n    tag_266:\n        /* \"#utility.yul\":7091:7230   */\n    tag_265:\n        /* \"#utility.yul\":6875:7237   */\n      pop\n        /* \"#utility.yul\":6827:7237   */\n      swap3\n      swap2\n      pop\n      pop\n      jump\t// out\n        /* \"#utility.yul\":7243:7423   */\n    tag_174:\n        /* \"#utility.yul\":7291:7368   */\n      0x4e487b7100000000000000000000000000000000000000000000000000000000\n        /* \"#utility.yul\":7288:7289   */\n      0x00\n        /* \"#utility.yul\":7281:7369   */\n      mstore\n        /* \"#utility.yul\":7388:7392   */\n      0x12\n        /* \"#utility.yul\":7385:7386   */\n      0x04\n        /* \"#utility.yul\":7378:7393   */\n      mstore\n        /* \"#utility.yul\":7412:7416   */\n      0x24\n        /* \"#utility.yul\":7409:7410   */\n      0x00\n        /* \"#utility.yul\":7402:7417   */\n      revert\n        /* \"#utility.yul\":7429:7614   */\n    tag_106:\n        /* \"#utility.yul\":7469:7470   */\n      0x00\n        /* \"#utility.yul\":7486:7506   */\n      tag_269\n        /* \"#utility.yul\":7504:7505   */\n      dup3\n        /* \"#utility.yul\":7486:7506   */\n      tag_156\n      jump\t// in\n    tag_269:\n        /* \"#utility.yul\":7481:7506   */\n      swap2\n      pop\n        /* \"#utility.yul\":7520:7540   */\n      tag_270\n        /* \"#utility.yul\":7538:7539   */\n      dup4\n        /* \"#utility.yul\":7520:7540   */\n      tag_156\n      jump\t// in\n    tag_270:\n        /* \"#utility.yul\":7515:7540   */\n      swap3\n      pop\n        /* \"#utility.yul\":7559:7560   */\n      dup3\n        /* \"#utility.yul\":7549:7584   */\n      tag_271\n      jumpi\n        /* \"#utility.yul\":7564:7582   */\n      tag_272\n      tag_174\n      jump\t// in\n    tag_272:\n        /* \"#utility.yul\":7549:7584   */\n    tag_271:\n        /* \"#utility.yul\":7606:7607   */\n      dup3\n        /* \"#utility.yul\":7603:7604   */\n      dup3\n        /* \"#utility.yul\":7599:7608   */\n      div\n        /* \"#utility.yul\":7594:7608   */\n      swap1\n      pop\n        /* \"#utility.yul\":7429:7614   */\n      swap3\n      swap2\n      pop\n      pop\n      jump\t// out\n        /* \"#utility.yul\":7620:7800   */\n    tag_175:\n        /* \"#utility.yul\":7668:7745   */\n      0x4e487b7100000000000000000000000000000000000000000000000000000000\n        /* \"#utility.yul\":7665:7666   */\n      0x00\n        /* \"#utility.yul\":7658:7746   */\n      mstore\n        /* \"#utility.yul\":7765:7769   */\n      0x41\n        /* \"#utility.yul\":7762:7763   */\n      0x04\n        /* \"#utility.yul\":7755:7770   */\n      mstore\n        /* \"#utility.yul\":7789:7793   */\n      0x24\n        /* \"#utility.yul\":7786:7787   */\n      0x00\n        /* \"#utility.yul\":7779:7794   */\n      revert\n        /* \"#utility.yul\":7806:7947   */\n    tag_176:\n        /* \"#utility.yul\":7855:7859   */\n      0x00\n        /* \"#utility.yul\":7878:7881   */\n      dup2\n        /* \"#utility.yul\":7870:7881   */\n      swap1\n      pop\n        /* \"#utility.yul\":7901:7904   */\n      dup2\n        /* \"#utility.yul\":7898:7899   */\n      0x00\n        /* \"#utility.yul\":7891:7905   */\n      mstore\n        /* \"#utility.yul\":7935:7939   */\n      0x20\n        /* \"#utility.yul\":7932:7933   */\n      0x00\n        /* \"#utility.yul\":7922:7940   */\n      keccak256\n        /* \"#utility.yul\":7914:7940   */\n      swap1\n      pop\n        /* \"#utility.yul\":7806:7947   */\n      swap2\n      swap1\n      pop\n      jump\t// out\n        /* \"#utility.yul\":7953:8046   */\n    tag_177:\n        /* \"#utility.yul\":7990:7996   */\n      0x00\n        /* \"#utility.yul\":8037:8039   */\n      0x20\n        /* \"#utility.yul\":8032:8034   */\n      0x1f\n        /* \"#utility.yul\":8025:8030   */\n      dup4\n        /* \"#utility.yul\":8021:8035   */\n      add\n        /* \"#utility.yul\":8017:8040   */\n      div\n        /* \"#utility.yul\":8007:8040   */\n      swap1\n      pop\n        /* \"#utility.yul\":7953:8046   */\n      swap2\n      swap1\n      pop\n      jump\t// out\n        /* \"#utility.yul\":8052:8159   */\n    tag_178:\n        /* \"#utility.yul\":8096:8104   */\n      0x00\n        /* \"#utility.yul\":8146:8151   */\n      dup3\n        /* \"#utility.yul\":8140:8144   */\n      dup3\n        /* \"#utility.yul\":8136:8152   */\n      shl\n        /* \"#utility.yul\":8115:8152   */\n      swap1\n      pop\n        /* \"#utility.yul\":8052:8159   */\n      swap3\n      swap2\n      pop\n      pop\n      jump\t// out\n        /* \"#utility.yul\":8165:8558   */\n    tag_179:\n        /* \"#utility.yul\":8234:8240   */\n      0x00\n        /* \"#utility.yul\":8284:8285   */\n      0x08\n        /* \"#utility.yul\":8272:8282   */\n      dup4\n        /* \"#utility.yul\":8268:8286   */\n      mul\n        /* \"#utility.yul\":8307:8404   */\n      tag_278\n        /* \"#utility.yul\":8337:8403   */\n      0xffffffffffffffffffffffffffffffffffffffffffffffffffffffffffffffff\n        /* \"#utility.yul\":8326:8335   */\n      dup3\n        /* \"#utility.yul\":8307:8404   */\n      tag_178\n      jump\t// in\n    tag_278:\n        /* \"#utility.yul\":8425:8464   */\n      tag_279\n        /* \"#utility.yul\":8455:8463   */\n      dup7\n        /* \"#utility.yul\":8444:8453   */\n      dup4\n        /* \"#utility.yul\":8425:8464   */\n      tag_178\n      jump\t// in\n    tag_279:\n        /* \"#utility.yul\":8413:8464   */\n      swap6\n      pop\n        /* \"#utility.yul\":8497:8501   */\n      dup1\n        /* \"#utility.yul\":8493:8502   */\n      not\n        /* \"#utility.yul\":8486:8491   */\n      dup5\n        /* \"#utility.yul\":8482:8503   */\n      and\n        /* \"#utility.yul\":8473:8503   */\n      swap4\n      pop\n        /* \"#utility.yul\":8546:8550   */\n      dup1\n        /* \"#utility.yul\":8536:8544   */\n      dup7\n        /* \"#utility.yul\":8532:8551   */\n      and\n        /* \"#utility.yul\":8525:8530   */\n      dup5\n        /* \"#utility.yul\":8522:8552   */\n      or\n        /* \"#utility.yul\":8512:8552   */\n      swap3\n      pop\n        /* \"#utility.yul\":8241:8558   */\n      pop\n      pop\n        /* \"#utility.yul\":8165:8558   */\n      swap4\n      swap3\n      pop\n      pop\n      pop\n      jump\t// out\n        /* \"#utility.yul\":8564:8624   */\n    tag_180:\n        /* \"#utility.yul\":8592:8595   */\n      0x00\n        /* \"#utility.yul\":8613:8618   */\n      dup2\n        /* \"#utility.yul\":8606:8618   */\n      swap1\n      pop\n        /* \"#utility.yul\":8564:8624   */\n      swap2\n      swap1\n      pop\n      jump\t// out\n        /* \"#utility.yul\":8630:8772   */\n    tag_181:\n        /* \"#utility.yul\":8680:8689   */\n      0x00\n        /* \"#utility.yul\":8713:8766   */\n      tag_282\n        /* \"#utility.yul\":8731:8765   */\n      tag_283\n        /* \"#utility.yul\":8740:8764   */\n      tag_284\n        /* \"#utility.yul\":8758:8763   */\n      dup5\n        /* \"#utility.yul\":8740:8764   */\n      tag_156\n      jump\t// in\n    tag_284:\n        /* \"#utility.yul\":8731:8765   */\n      tag_180\n      jump\t// in\n    tag_283:\n        /* \"#utility.yul\":8713:8766   */\n      tag_156\n      jump\t// in\n    tag_282:\n        /* \"#utility.yul\":8700:8766   */\n      swap1\n      pop\n        /* \"#utility.yul\":8630:8772   */\n      swap2\n      swap1\n      pop\n      jump\t// out\n        /* \"#utility.yul\":8778:8853   */\n    tag_182:\n        /* \"#utility.yul\":8821:8824   */\n      0x00\n        /* \"#utility.yul\":8842:8847   */\n      dup2\n        /* \"#utility.yul\":8835:8847   */\n      swap1\n      pop\n        /* \"#utility.yul\":8778:8853   */\n      swap2\n      swap1\n      pop\n      jump\t// out\n        /* \"#utility.yul\":8859:9128   */\n    tag_183:\n        /* \"#utility.yul\":8969:9008   */\n      tag_287\n        /* \"#utility.yul\":9000:9007   */\n      dup4\n        /* \"#utility.yul\":8969:9008   */\n      tag_181\n      jump\t// in\n    tag_287:\n        /* \"#utility.yul\":9030:9121   */\n      tag_288\n        /* \"#utility.yul\":9079:9120   */\n      tag_289\n        /* \"#utility.yul\":9103:9119   */\n      dup3\n        /* \"#utility.yul\":9079:9120   */\n      tag_182\n      jump\t// in\n    tag_289:\n        /* \"#utility.yul\":9071:9077   */\n      dup5\n        /* \"#utility.yul\":9064:9068   */\n      dup5\n        /* \"#utility.yul\":9058:9069   */\n      sload\n        /* \"#utility.yul\":9030:9121   */\n      tag_179\n      jump\t// in\n    tag_288:\n        /* \"#utility.yul\":9024:9028   */\n      dup3\n        /* \"#utility.yul\":9017:9122   */\n      sstore\n        /* \"#utility.yul\":8935:9128   */\n      pop\n        /* \"#utility.yul\":8859:9128   */\n      pop\n      pop\n      pop\n      jump\t// out\n        /* \"#utility.yul\":9134:9207   */\n    tag_184:\n        /* \"#utility.yul\":9179:9182   */\n      0x00\n        /* \"#utility.yul\":9200:9201   */\n      0x00\n        /* \"#utility.yul\":9193:9201   */\n      swap1\n      pop\n        /* \"#utility.yul\":9134:9207   */\n      swap1\n      jump\t// out\n        /* \"#utility.yul\":9213:9402   */\n    tag_185:\n        /* \"#utility.yul\":9290:9322   */\n      tag_292\n      tag_184\n      jump\t// in\n    tag_292:\n        /* \"#utility.yul\":9331:9396   */\n      tag_293\n        /* \"#utility.yul\":9389:9395   */\n      dup2\n        /* \"#utility.yul\":9381:9387   */\n      dup5\n        /* \"#utility.yul\":9375:9379   */\n      dup5\n        /* \"#utility.yul\":9331:9396   */\n      tag_183\n      jump\t// in\n    tag_293:\n        /* \"#utility.yul\":9266:9402   */\n      pop\n        /* \"#utility.yul\":9213:9402   */\n      pop\n      pop\n      jump\t// out\n        /* \"#utility.yul\":9408:9594   */\n    tag_186:\n        /* \"#utility.yul\":9468:9588   */\n    tag_295:\n        /* \"#utility.yul\":9485:9488   */\n      dup2\n        /* \"#utility.yul\":9478:9483   */\n      dup2\n        /* \"#utility.yul\":9475:9489   */\n      lt\n        /* \"#utility.yul\":9468:9588   */\n      iszero\n      tag_297\n      jumpi\n        /* \"#utility.yul\":9539:9578   */\n      tag_298\n        /* \"#utility.yul\":9576:9577   */\n      0x00\n        /* \"#utility.yul\":9569:9574   */\n      dup3\n        /* \"#utility.yul\":9539:9578   */\n      tag_185\n      jump\t// in\n    tag_298:\n        /* \"#utility.yul\":9512:9513   */\n      0x01\n        /* \"#utility.yul\":9505:9510   */\n      dup2\n        /* \"#utility.yul\":9501:9514   */\n      add\n        /* \"#utility.yul\":9492:9514   */\n      swap1\n      pop\n        /* \"#utility.yul\":9468:9588   */\n      jump(tag_295)\n    tag_297:\n        /* \"#utility.yul\":9408:9594   */\n      pop\n      pop\n      jump\t// out\n        /* \"#utility.yul\":9600:10143   */\n    tag_187:\n        /* \"#utility.yul\":9701:9703   */\n      0x1f\n        /* \"#utility.yul\":9696:9699   */\n      dup3\n        /* \"#utility.yul\":9693:9704   */\n      gt\n        /* \"#utility.yul\":9690:10136   */\n      iszero\n      tag_300\n      jumpi\n        /* \"#utility.yul\":9735:9773   */\n      tag_301\n        /* \"#utility.yul\":9767:9772   */\n      dup2\n        /* \"#utility.yul\":9735:9773   */\n      tag_176\n      jump\t// in\n    tag_301:\n        /* \"#utility.yul\":9819:9848   */\n      tag_302\n        /* \"#utility.yul\":9837:9847   */\n      dup5\n        /* \"#utility.yul\":9819:9848   */\n      tag_177\n      jump\t// in\n    tag_302:\n        /* \"#utility.yul\":9809:9817   */\n      dup2\n        /* \"#utility.yul\":9805:9849   */\n      add\n        /* \"#utility.yul\":10002:10004   */\n      0x20\n        /* \"#utility.yul\":9990:10000   */\n      dup6\n        /* \"#utility.yul\":9987:10005   */\n      lt\n        /* \"#utility.yul\":9984:10033   */\n      iszero\n      tag_303\n      jumpi\n        /* \"#utility.yul\":10023:10031   */\n      dup2\n        /* \"#utility.yul\":10008:10031   */\n      swap1\n      pop\n        /* \"#utility.yul\":9984:10033   */\n    tag_303:\n        /* \"#utility.yul\":10046:10126   */\n      tag_304\n        /* \"#utility.yul\":10102:10124   */\n      tag_305\n        /* \"#utility.yul\":10120:10123   */\n      dup6\n        /* \"#utility.yul\":10102:10124   */\n      tag_177\n      jump\t// in\n    tag_305:\n        /* \"#utility.yul\":10092:10100   */\n      dup4\n        /* \"#utility.yul\":10088:10125   */\n      add\n        /* \"#utility.yul\":10075:10086   */\n      dup3\n        /* \"#utility.yul\":10046:10126   */\n      tag_186\n      jump\t// in\n    tag_304:\n        /* \"#utility.yul\":9705:10136   */\n      pop\n      pop\n        /* \"#utility.yul\":9690:10136   */\n    tag_300:\n        /* \"#utility.yul\":9600:10143   */\n      pop\n      pop\n      pop\n      jump\t// out\n        /* \"#utility.yul\":10149:10266   */\n    tag_188:\n        /* \"#utility.yul\":10203:10211   */\n      0x00\n        /* \"#utility.yul\":10253:10258   */\n      dup3\n        /* \"#utility.yul\":10247:10251   */\n      dup3\n        /* \"#utility.yul\":10243:10259   */\n      shr\n        /* \"#utility.yul\":10222:10259   */\n      swap1\n      pop\n        /* \"#utility.yul\":10149:10266   */\n      swap3\n      swap2\n      pop\n      pop\n      jump\t// out\n        /* \"#utility.yul\":10272:10441   */\n    tag_189:\n        /* \"#utility.yul\":10316:10322   */\n      0x00\n        /* \"#utility.yul\":10349:10400   */\n      tag_308\n        /* \"#utility.yul\":10397:10398   */\n      0x00\n        /* \"#utility.yul\":10393:10399   */\n      not\n        /* \"#utility.yul\":10385:10390   */\n      dup5\n        /* \"#utility.yul\":10382:10383   */\n      0x08\n        /* \"#utility.yul\":10378:10391   */\n      mul\n        /* \"#utility.yul\":10349:10400   */\n      tag_188\n      jump\t// in\n    tag_308:\n        /* \"#utility.yul\":10345:10401   */\n      not\n        /* \"#utility.yul\":10430:10434   */\n      dup1\n        /* \"#utility.yul\":10424:10428   */\n      dup4\n        /* \"#utility.yul\":10420:10435   */\n      and\n        /* \"#utility.yul\":10410:10435   */\n      swap2\n      pop\n        /* \"#utility.yul\":10323:10441   */\n      pop\n        /* \"#utility.yul\":10272:10441   */\n      swap3\n      swap2\n      pop\n      pop\n      jump\t// out\n        /* \"#utility.yul\":10446:10741   */\n    tag_190:\n        /* \"#utility.yul\":10522:10526   */\n      0x00\n        /* \"#utility.yul\":10668:10697   */\n      tag_310\n        /* \"#utility.yul\":10693:10696   */\n      dup4\n        /* \"#utility.yul\":10687:10691   */\n      dup4\n        /* \"#utility.yul\":10668:10697   */\n      tag_189\n      jump\t// in\n    tag_310:\n        /* \"#utility.yul\":10660:10697   */\n      swap2\n      pop\n        /* \"#utility.yul\":10730:10733   */\n      dup3\n        /* \"#utility.yul\":10727:10728   */\n      0x02\n        /* \"#utility.yul\":10723:10734   */\n      mul\n        /* \"#utility.yul\":10717:10721   */\n      dup3\n        /* \"#utility.yul\":10714:10735   */\n      or\n        /* \"#utility.yul\":10706:10735   */\n      swap1\n      pop\n        /* \"#utility.yul\":10446:10741   */\n      swap3\n      swap2\n      pop\n      pop\n      jump\t// out\n        /* \"#utility.yul\":10746:12141   */\n    tag_118:\n        /* \"#utility.yul\":10863:10900   */\n      tag_312\n        /* \"#utility.yul\":10896:10899   */\n      dup3\n        /* \"#utility.yul\":10863:10900   */\n      tag_151\n      jump\t// in\n    tag_312:\n        /* \"#utility.yul\":10965:10983   */\n      0xffffffffffffffff\n        /* \"#utility.yul\":10957:10963   */\n      dup2\n        /* \"#utility.yul\":10954:10984   */\n      gt\n        /* \"#utility.yul\":10951:11007   */\n      iszero\n      tag_313\n      jumpi\n        /* \"#utility.yul\":10987:11005   */\n      tag_314\n      tag_175\n      jump\t// in\n    tag_314:\n        /* \"#utility.yul\":10951:11007   */\n    tag_313:\n        /* \"#utility.yul\":11031:11069   */\n      tag_315\n        /* \"#utility.yul\":11063:11067   */\n      dup3\n        /* \"#utility.yul\":11057:11068   */\n      sload\n        /* \"#utility.yul\":11031:11069   */\n      tag_65\n      jump\t// in\n    tag_315:\n        /* \"#utility.yul\":11116:11183   */\n      tag_316\n        /* \"#utility.yul\":11176:11182   */\n      dup3\n        /* \"#utility.yul\":11168:11174   */\n      dup3\n        /* \"#utility.yul\":11162:11166   */\n      dup6\n        /* \"#utility.yul\":11116:11183   */\n      tag_187\n      jump\t// in\n    tag_316:\n        /* \"#utility.yul\":11210:11211   */\n      0x00\n        /* \"#utility.yul\":11234:11238   */\n      0x20\n        /* \"#utility.yul\":11221:11238   */\n      swap1\n      pop\n        /* \"#utility.yul\":11266:11268   */\n      0x1f\n        /* \"#utility.yul\":11258:11264   */\n      dup4\n        /* \"#utility.yul\":11255:11269   */\n      gt\n        /* \"#utility.yul\":11283:11284   */\n      0x01\n        /* \"#utility.yul\":11278:11896   */\n      dup2\n      eq\n      tag_318\n      jumpi\n        /* \"#utility.yul\":11940:11941   */\n      0x00\n        /* \"#utility.yul\":11957:11963   */\n      dup5\n        /* \"#utility.yul\":11954:12031   */\n      iszero\n      tag_319\n      jumpi\n        /* \"#utility.yul\":12006:12015   */\n      dup3\n        /* \"#utility.yul\":12001:12004   */\n      dup8\n        /* \"#utility.yul\":11997:12016   */\n      add\n        /* \"#utility.yul\":11991:12017   */\n      mload\n        /* \"#utility.yul\":11982:12017   */\n      swap1\n      pop\n        /* \"#utility.yul\":11954:12031   */\n    tag_319:\n        /* \"#utility.yul\":12057:12124   */\n      tag_320\n        /* \"#utility.yul\":12117:12123   */\n      dup6\n        /* \"#utility.yul\":12110:12115   */\n      dup3\n        /* \"#utility.yul\":12057:12124   */\n      tag_190\n      jump\t// in\n    tag_320:\n        /* \"#utility.yul\":12051:12055   */\n      dup7\n        /* \"#utility.yul\":12044:12125   */\n      sstore\n        /* \"#utility.yul\":11913:12135   */\n      pop\n        /* \"#utility.yul\":11248:12135   */\n      jump(tag_317)\n        /* \"#utility.yul\":11278:11896   */\n    tag_318:\n        /* \"#utility.yul\":11330:11334   */\n      0x1f\n        /* \"#utility.yul\":11326:11335   */\n      not\n        /* \"#utility.yul\":11318:11324   */\n      dup5\n        /* \"#utility.yul\":11314:11336   */\n      and\n        /* \"#utility.yul\":11364:11401   */\n      tag_321\n        /* \"#utility.yul\":11396:11400   */\n      dup7\n        /* \"#utility.yul\":11364:11401   */\n      tag_176\n      jump\t// in\n    tag_321:\n        /* \"#utility.yul\":11423:11424   */\n      0x00\n        /* \"#utility.yul\":11437:11645   */\n    tag_322:\n        /* \"#utility.yul\":11451:11458   */\n      dup3\n        /* \"#utility.yul\":11448:11449   */\n      dup2\n        /* \"#utility.yul\":11445:11459   */\n      lt\n        /* \"#utility.yul\":11437:11645   */\n      iszero\n      tag_324\n      jumpi\n        /* \"#utility.yul\":11530:11539   */\n      dup5\n        /* \"#utility.yul\":11525:11528   */\n      dup10\n        /* \"#utility.yul\":11521:11540   */\n      add\n        /* \"#utility.yul\":11515:11541   */\n      mload\n        /* \"#utility.yul\":11507:11513   */\n      dup3\n        /* \"#utility.yul\":11500:11542   */\n      sstore\n        /* \"#utility.yul\":11581:11582   */\n      0x01\n        /* \"#utility.yul\":11573:11579   */\n      dup3\n        /* \"#utility.yul\":11569:11583   */\n      add\n        /* \"#utility.yul\":11559:11583   */\n      swap2\n      pop\n        /* \"#utility.yul\":11628:11630   */\n      0x20\n        /* \"#utility.yul\":11617:11626   */\n      dup6\n        /* \"#utility.yul\":11613:11631   */\n      add\n        /* \"#utility.yul\":11600:11631   */\n      swap5\n      pop\n        /* \"#utility.yul\":11474:11478   */\n      0x20\n        /* \"#utility.yul\":11471:11472   */\n      dup2\n        /* \"#utility.yul\":11467:11479   */\n      add\n        /* \"#utility.yul\":11462:11479   */\n      swap1\n      pop\n        /* \"#utility.yul\":11437:11645   */\n      jump(tag_322)\n    tag_324:\n        /* \"#utility.yul\":11673:11679   */\n      dup7\n        /* \"#utility.yul\":11664:11671   */\n      dup4\n        /* \"#utility.yul\":11661:11680   */\n      lt\n        /* \"#utility.yul\":11658:11837   */\n      iszero\n      tag_325\n      jumpi\n        /* \"#utility.yul\":11731:11740   */\n      dup5\n        /* \"#utility.yul\":11726:11729   */\n      dup10\n        /* \"#utility.yul\":11722:11741   */\n      add\n        /* \"#utility.yul\":11716:11742   */\n      mload\n        /* \"#utility.yul\":11774:11822   */\n      tag_326\n        /* \"#utility.yul\":11816:11820   */\n      0x1f\n        /* \"#utility.yul\":11808:11814   */\n      dup10\n        /* \"#utility.yul\":11804:11821   */\n      and\n        /* \"#utility.yul\":11793:11802   */\n      dup3\n        /* \"#utility.yul\":11774:11822   */\n      tag_189\n      jump\t// in\n    tag_326:\n        /* \"#utility.yul\":11766:11772   */\n      dup4\n        /* \"#utility.yul\":11759:11823   */\n      sstore\n        /* \"#utility.yul\":11681:11837   */\n      pop\n        /* \"#utility.yul\":11658:11837   */\n    tag_325:\n        /* \"#utility.yul\":11883:11884   */\n      0x01\n        /* \"#utility.yul\":11879:11880   */\n      0x02\n        /* \"#utility.yul\":11871:11877   */\n      dup9\n        /* \"#utility.yul\":11867:11881   */\n      mul\n        /* \"#utility.yul\":11863:11885   */\n      add\n        /* \"#utility.yul\":11857:11861   */\n      dup9\n        /* \"#utility.yul\":11850:11886   */\n      sstore\n        /* \"#utility.yul\":11285:11896   */\n      pop\n      pop\n      pop\n        /* \"#utility.yul\":11248:12135   */\n    tag_317:\n      pop\n        /* \"#utility.yul\":10838:12141   */\n      pop\n      pop\n      pop\n        /* \"#utility.yul\":10746:12141   */\n      pop\n      pop\n      jump\t// out\n        /* \"#utility.yul\":12147:12316   */\n    tag_191:\n        /* \"#utility.yul\":12287:12308   */\n      0x45524332303a206d696e7420746f207a65726f00000000000000000000000000\n        /* \"#utility.yul\":12283:12284   */\n      0x00\n        /* \"#utility.yul\":12275:12281   */\n      dup3\n        /* \"#utility.yul\":12271:12285   */\n      add\n        /* \"#utility.yul\":12264:12309   */\n      mstore\n        /* \"#utility.yul\":12147:12316   */\n      pop\n      jump\t// out\n        /* \"#utility.yul\":12322:12688   */\n    tag_192:\n        /* \"#utility.yul\":12464:12467   */\n      0x00\n        /* \"#utility.yul\":12485:12552   */\n      tag_329\n        /* \"#utility.yul\":12549:12551   */\n      0x13\n        /* \"#utility.yul\":12544:12547   */\n      dup4\n        /* \"#utility.yul\":12485:12552   */\n      tag_152\n      jump\t// in\n    tag_329:\n        /* \"#utility.yul\":12478:12552   */\n      swap2\n      pop\n        /* \"#utility.yul\":12561:12654   */\n      tag_330\n        /* \"#utility.yul\":12650:12653   */\n      dup3\n        /* \"#utility.yul\":12561:12654   */\n      tag_191\n      jump\t// in\n    tag_330:\n        /* \"#utility.yul\":12679:12681   */\n      0x20\n        /* \"#utility.yul\":12674:12677   */\n      dup3\n        /* \"#utility.yul\":12670:12682   */\n      add\n        /* \"#utility.yul\":12663:12682   */\n      swap1\n      pop\n        /* \"#utility.yul\":12322:12688   */\n      swap2\n      swap1\n      pop\n      jump\t// out\n        /* \"#utility.yul\":12694:13113   */\n    tag_134:\n        /* \"#utility.yul\":12860:12864   */\n      0x00\n        /* \"#utility.yul\":12898:12900   */\n      0x20\n        /* \"#utility.yul\":12887:12896   */\n      dup3\n        /* \"#utility.yul\":12883:12901   */\n      add\n        /* \"#utility.yul\":12875:12901   */\n      swap1\n      pop\n        /* \"#utility.yul\":12947:12956   */\n      dup2\n        /* \"#utility.yul\":12941:12945   */\n      dup2\n        /* \"#utility.yul\":12937:12957   */\n      sub\n        /* \"#utility.yul\":12933:12934   */\n      0x00\n        /* \"#utility.yul\":12922:12931   */\n      dup4\n        /* \"#utility.yul\":12918:12935   */\n      add\n        /* \"#utility.yul\":12911:12958   */\n      mstore\n        /* \"#utility.yul\":12975:13106   */\n      tag_332\n        /* \"#utility.yul\":13101:13105   */\n      dup2\n        /* \"#utility.yul\":12975:13106   */\n      tag_192\n      jump\t// in\n    tag_332:\n        /* \"#utility.yul\":12967:13106   */\n      swap1\n      pop\n        /* \"#utility.yul\":12694:13113   */\n      swap2\n      swap1\n      pop\n      jump\t// out\n        /* \"#utility.yul\":13119:13310   */\n    tag_136:\n        /* \"#utility.yul\":13159:13162   */\n      0x00\n        /* \"#utility.yul\":13178:13198   */\n      tag_334\n        /* \"#utility.yul\":13196:13197   */\n      dup3\n        /* \"#utility.yul\":13178:13198   */\n      tag_156\n      jump\t// in\n    tag_334:\n        /* \"#utility.yul\":13173:13198   */\n      swap2\n      pop\n        /* \"#utility.yul\":13212:13232   */\n      tag_335\n        /* \"#utility.yul\":13230:13231   */\n      dup4\n        /* \"#utility.yul\":13212:13232   */\n      tag_156\n      jump\t// in\n    tag_335:\n        /* \"#utility.yul\":13207:13232   */\n      swap3\n      pop\n        /* \"#utility.yul\":13255:13256   */\n      dup3\n        /* \"#utility.yul\":13252:13253   */\n      dup3\n        /* \"#utility.yul\":13248:13257   */\n      add\n        /* \"#utility.yul\":13241:13257   */\n      swap1\n      pop\n        /* \"#utility.yul\":13276:13279   */\n      dup1\n        /* \"#utility.yul\":13273:13274   */\n      dup3\n        /* \"#utility.yul\":13270:13280   */\n      gt\n        /* \"#utility.yul\":13267:13303   */\n      iszero\n      tag_336\n      jumpi\n        /* \"#utility.yul\":13283:13301   */\n      tag_337\n      tag_173\n      jump\t// in\n    tag_337:\n        /* \"#utility.yul\":13267:13303   */\n    tag_336:\n        /* \"#utility.yul\":13119:13310   */\n      swap3\n      swap2\n      pop\n      pop\n      jump\t// out\n        /* \"#utility.yul\":13316:13487   */\n    tag_193:\n        /* \"#utility.yul\":13456:13479   */\n      0x45524332303a206275726e2066726f6d207a65726f0000000000000000000000\n        /* \"#utility.yul\":13452:13453   */\n      0x00\n        /* \"#utility.yul\":13444:13450   */\n      dup3\n        /* \"#utility.yul\":13440:13454   */\n      add\n        /* \"#utility.yul\":13433:13480   */\n      mstore\n        /* \"#utility.yul\":13316:13487   */\n      pop\n      jump\t// out\n        /* \"#utility.yul\":13493:13859   */\n    tag_194:\n        /* \"#utility.yul\":13635:13638   */\n      0x00\n        /* \"#utility.yul\":13656:13723   */\n      tag_340\n        /* \"#utility.yul\":13720:13722   */\n      0x15\n        /* \"#utility.yul\":13715:13718   */\n      dup4\n        /* \"#utility.yul\":13656:13723   */\n      tag_152\n      jump\t// in\n    tag_340:\n        /* \"#utility.yul\":13649:13723   */\n      swap2\n      pop\n        /* \"#utility.yul\":13732:13825   */\n      tag_341\n        /* \"#utility.yul\":13821:13824   */\n      dup3\n        /* \"#utility.yul\":13732:13825   */\n      tag_193\n      jump\t// in\n    tag_341:\n        /* \"#utility.yul\":13850:13852   */\n      0x20\n        /* \"#utility.yul\":13845:13848   */\n      dup3\n        /* \"#utility.yul\":13841:13853   */\n      add\n        /* \"#utility.yul\":13834:13853   */\n      swap1\n      pop\n        /* \"#utility.yul\":13493:13859   */\n      swap2\n      swap1\n      pop\n      jump\t// out\n        /* \"#utility.yul\":13865:14284   */\n    tag_142:\n        /* \"#utility.yul\":14031:14035   */\n      0x00\n        /* \"#utility.yul\":14069:14071   */\n      0x20\n        /* \"#utility.yul\":14058:14067   */\n      dup3\n        /* \"#utility.yul\":14054:14072   */\n      add\n        /* \"#utility.yul\":14046:14072   */\n      swap1\n      pop\n        /* \"#utility.yul\":14118:14127   */\n      dup2\n        /* \"#utility.yul\":14112:14116   */\n      dup2\n        /* \"#utility.yul\":14108:14128   */\n      sub\n        /* \"#utility.yul\":14104:14105   */\n      0x00\n        /* \"#utility.yul\":14093:14102   */\n      dup4\n        /* \"#utility.yul\":14089:14106   */\n      add\n        /* \"#utility.yul\":14082:14129   */\n      mstore\n        /* \"#utility.yul\":14146:14277   */\n      tag_343\n        /* \"#utility.yul\":14272:14276   */\n      dup2\n        /* \"#utility.yul\":14146:14277   */\n      tag_194\n      jump\t// in\n    tag_343:\n        /* \"#utility.yul\":14138:14277   */\n      swap1\n      pop\n        /* \"#utility.yul\":13865:14284   */\n      swap2\n      swap1\n      pop\n      jump\t// out\n        /* \"#utility.yul\":14290:14467   */\n    tag_195:\n        /* \"#utility.yul\":14430:14459   */\n      0x45524332303a206275726e20657863656564732062616c616e63650000000000\n        /* \"#utility.yul\":14426:14427   */\n      0x00\n        /* \"#utility.yul\":14418:14424   */\n      dup3\n        /* \"#utility.yul\":14414:14428   */\n      add\n        /* \"#utility.yul\":14407:14460   */\n      mstore\n        /* \"#utility.yul\":14290:14467   */\n      pop\n      jump\t// out\n        /* \"#utility.yul\":14473:14839   */\n    tag_196:\n        /* \"#utility.yul\":14615:14618   */\n      0x00\n        /* \"#utility.yul\":14636:14703   */\n      tag_346\n        /* \"#utility.yul\":14700:14702   */\n      0x1b\n        /* \"#utility.yul\":14695:14698   */\n      dup4\n        /* \"#utility.yul\":14636:14703   */\n      tag_152\n      jump\t// in\n    tag_346:\n        /* \"#utility.yul\":14629:14703   */\n      swap2\n      pop\n        /* \"#utility.yul\":14712:14805   */\n      tag_347\n        /* \"#utility.yul\":14801:14804   */\n      dup3\n        /* \"#utility.yul\":14712:14805   */\n      tag_195\n      jump\t// in\n    tag_347:\n        /* \"#utility.yul\":14830:14832   */\n      0x20\n        /* \"#utility.yul\":14825:14828   */\n      dup3\n        /* \"#utility.yul\":14821:14833   */\n      add\n        /* \"#utility.yul\":14814:14833   */\n      swap1\n      pop\n        /* \"#utility.yul\":14473:14839   */\n      swap2\n      swap1\n      pop\n      jump\t// out\n        /* \"#utility.yul\":14845:15264   */\n    tag_146:\n        /* \"#utility.yul\":15011:15015   */\n      0x00\n        /* \"#utility.yul\":15049:15051   */\n      0x20\n        /* \"#utility.yul\":15038:15047   */\n      dup3\n        /* \"#utility.yul\":15034:15052   */\n      add\n        /* \"#utility.yul\":15026:15052   */\n      swap1\n      pop\n        /* \"#utility.yul\":15098:15107   */\n      dup2\n        /* \"#utility.yul\":15092:15096   */\n      dup2\n        /* \"#utility.yul\":15088:15108   */\n      sub\n        /* \"#utility.yul\":15084:15085   */\n      0x00\n        /* \"#utility.yul\":15073:15082   */\n      dup4\n        /* \"#utility.yul\":15069:15086   */\n      add\n        /* \"#utility.yul\":15062:15109   */\n      mstore\n        /* \"#utility.yul\":15126:15257   */\n      tag_349\n        /* \"#utility.yul\":15252:15256   */\n      dup2\n        /* \"#utility.yul\":15126:15257   */\n      tag_196\n      jump\t// in\n    tag_349:\n        /* \"#utility.yul\":15118:15257   */\n      swap1\n      pop\n        /* \"#utility.yul\":14845:15264   */\n      swap2\n      swap1\n      pop\n      jump\t// out\n        /* \"#utility.yul\":15270:15464   */\n    tag_148:\n        /* \"#utility.yul\":15310:15314   */\n      0x00\n        /* \"#utility.yul\":15330:15350   */\n      tag_351\n        /* \"#utility.yul\":15348:15349   */\n      dup3\n        /* \"#utility.yul\":15330:15350   */\n      tag_156\n      jump\t// in\n    tag_351:\n        /* \"#utility.yul\":15325:15350   */\n      swap2\n      pop\n        /* \"#utility.yul\":15364:15384   */\n      tag_352\n        /* \"#utility.yul\":15382:15383   */\n      dup4\n        /* \"#utility.yul\":15364:15384   */\n      tag_156\n      jump\t// in\n    tag_352:\n        /* \"#utility.yul\":15359:15384   */\n      swap3\n      pop\n        /* \"#utility.yul\":15408:15409   */\n      dup3\n        /* \"#utility.yul\":15405:15406   */\n      dup3\n        /* \"#utility.yul\":15401:15410   */\n      sub\n        /* \"#utility.yul\":15393:15410   */\n      swap1\n      pop\n        /* \"#utility.yul\":15432:15433   */\n      dup2\n        /* \"#utility.yul\":15426:15430   */\n      dup2\n        /* \"#utility.yul\":15423:15434   */\n      gt\n        /* \"#utility.yul\":15420:15457   */\n      iszero\n      tag_353\n      jumpi\n        /* \"#utility.yul\":15437:15455   */\n      tag_354\n      tag_173\n      jump\t// in\n    tag_354:\n        /* \"#utility.yul\":15420:15457   */\n    tag_353:\n        /* \"#utility.yul\":15270:15464   */\n      swap3\n      swap2\n      pop\n      pop\n      jump\t// out\n\n    auxdata: 0xa2646970667358221220618819552651272ba6591064c588f5ef238a10ff0a6dc327d8ff0471b8cd675964736f6c634300081e0033\n}\n",
				"bytecode": {
					"linkReferences": {},
					"object": "608060405260326006553480156013575f5ffd5b506020602460201b60201c565b603f565b60015f5f6101000a81548160ff021916908315150217905550565b61143e8061004c5f395ff3fe608060405234801561000f575f5ffd5b50600436106100cd575f3560e01c80636f5585b81161008a5780638da5cb5b116100645780638da5cb5b146101ef57806395d89b411461020d578063a27707311461022b578063d8a43b1f14610249576100cd565b80636f5585b81461018357806370a08231146101a1578063878c7ca8146101d1576100cd565b806306fdde03146100d157806318160ddd146100ef578063188214001461010d5780632a9053181461012b578063313ce56714610149578063485cc95514610167575b5f5ffd5b6100d9610253565b6040516100e69190610c3c565b60405180910390f35b6100f76102e3565b6040516101049190610c74565b60405180910390f35b6101156102ec565b6040516101229190610c3c565b60405180910390f35b610133610325565b6040516101409190610c3c565b60405180910390f35b61015161035e565b60405161015e9190610ca8565b60405180910390f35b610181600480360381019061017c9190610d1f565b610366565b005b61018b61054a565b6040516101989190610d6c565b60405180910390f35b6101bb60048036038101906101b69190610d85565b61056f565b6040516101c89190610c74565b60405180910390f35b6101d96105b5565b6040516101e69190610d6c565b60405180910390f35b6101f76105da565b6040516102049190610d6c565b60405180910390f35b610215610602565b6040516102229190610c3c565b60405180910390f35b610233610692565b6040516102409190610c74565b60405180910390f35b610251610698565b005b60606003805461026290610ddd565b80601f016020809104026020016040519081016040528092919081815260200182805461028e90610ddd565b80156102d95780601f106102b0576101008083540402835291602001916102d9565b820191905f5260205f20905b8154815290600101906020018083116102bc57829003601f168201915b5050505050905090565b5f600254905090565b6040518060400160405280600881526020017f49464220436f696e00000000000000000000000000000000000000000000000081525081565b6040518060400160405280600381526020017f494642000000000000000000000000000000000000000000000000000000000081525081565b5f6006905090565b5f60019054906101000a900460ff168061038b57505f5f9054906101000a900460ff16155b6103ca576040517f08c379a00000000000000000000000000000000000000000000000000000000081526004016103c190610e7d565b60405180910390fd5b5f5f60019054906101000a900460ff1615905080156104175760015f60016101000a81548160ff02191690831515021790555060015f5f6101000a81548160ff0219169083151502179055505b61048b6040518060400160405280600881526020017f49464220436f696e0000000000000000000000000000000000000000000000008152506040518060400160405280600381526020017f4946420000000000000000000000000000000000000000000000000000000000815250610747565b61049433610845565b6104a533662386f26fc1000061092b565b8260075f6101000a81548173ffffffffffffffffffffffffffffffffffffffff021916908373ffffffffffffffffffffffffffffffffffffffff1602179055508160085f6101000a81548173ffffffffffffffffffffffffffffffffffffffff021916908373ffffffffffffffffffffffffffffffffffffffff1602179055508015610545575f5f60016101000a81548160ff0219169083151502179055505b505050565b60075f9054906101000a900473ffffffffffffffffffffffffffffffffffffffff1681565b5f60015f8373ffffffffffffffffffffffffffffffffffffffff1673ffffffffffffffffffffffffffffffffffffffff1681526020019081526020015f20549050919050565b60085f9054906101000a900473ffffffffffffffffffffffffffffffffffffffff1681565b5f60055f9054906101000a900473ffffffffffffffffffffffffffffffffffffffff16905090565b60606004805461061190610ddd565b80601f016020809104026020016040519081016040528092919081815260200182805461063d90610ddd565b80156106885780601f1061065f57610100808354040283529160200191610688565b820191905f5260205f20905b81548152906001019060200180831161066b57829003601f168201915b5050505050905090565b60065481565b6106a0610a08565b73ffffffffffffffffffffffffffffffffffffffff166106be6105da565b73ffffffffffffffffffffffffffffffffffffffff1614610714576040517f08c379a000000000000000000000000000000000000000000000000000000000815260040161070b90610ee5565b60405180910390fd5b5f6127106006546107243061056f565b61072e9190610f30565b6107389190610f9e565b90506107443082610a0f565b50565b5f60019054906101000a900460ff168061076c57505f5f9054906101000a900460ff16155b6107ab576040517f08c379a00000000000000000000000000000000000000000000000000000000081526004016107a290610e7d565b60405180910390fd5b5f5f60019054906101000a900460ff1615905080156107f85760015f60016101000a81548160ff02191690831515021790555060015f5f6101000a81548160ff0219169083151502179055505b610800610b2d565b826003908161080f919061119b565b50816004908161081f919061119b565b508015610840575f5f60016101000a81548160ff0219169083151502179055505b505050565b5f60019054906101000a900460ff168061086a57505f5f9054906101000a900460ff16155b6108a9576040517f08c379a00000000000000000000000000000000000000000000000000000000081526004016108a090610e7d565b60405180910390fd5b5f5f60019054906101000a900460ff1615905080156108f65760015f60016101000a81548160ff02191690831515021790555060015f5f6101000a81548160ff0219169083151502179055505b6108fe610b2d565b61090782610b2f565b8015610927575f5f60016101000a81548160ff0219169083151502179055505b5050565b5f73ffffffffffffffffffffffffffffffffffffffff168273ffffffffffffffffffffffffffffffffffffffff1603610999576040517f08c379a0000000000000000000000000000000000000000000000000000000008152600401610990906112b4565b60405180910390fd5b8060025f8282546109aa91906112d2565b925050819055508060015f8473ffffffffffffffffffffffffffffffffffffffff1673ffffffffffffffffffffffffffffffffffffffff1681526020019081526020015f205f8282546109fd91906112d2565b925050819055505050565b5f33905090565b5f73ffffffffffffffffffffffffffffffffffffffff168273ffffffffffffffffffffffffffffffffffffffff1603610a7d576040517f08c379a0000000000000000000000000000000000000000000000000000000008152600401610a749061134f565b60405180910390fd5b5f610a878361056f565b905081811015610acc576040517f08c379a0000000000000000000000000000000000000000000000000000000008152600401610ac3906113b7565b60405180910390fd5b81810360015f8573ffffffffffffffffffffffffffffffffffffffff1673ffffffffffffffffffffffffffffffffffffffff1681526020019081526020015f20819055508160025f828254610b2191906113d5565b92505081905550505050565b565b8060055f6101000a81548173ffffffffffffffffffffffffffffffffffffffff021916908373ffffffffffffffffffffffffffffffffffffffff1602179055508073ffffffffffffffffffffffffffffffffffffffff163373ffffffffffffffffffffffffffffffffffffffff167f8be0079c531659141344cd1fd0a4f28419497f9722a3daafe3b4186f6b6457e060405160405180910390a350565b5f81519050919050565b5f82825260208201905092915050565b8281835e5f83830152505050565b5f601f19601f8301169050919050565b5f610c0e82610bcc565b610c188185610bd6565b9350610c28818560208601610be6565b610c3181610bf4565b840191505092915050565b5f6020820190508181035f830152610c548184610c04565b905092915050565b5f819050919050565b610c6e81610c5c565b82525050565b5f602082019050610c875f830184610c65565b92915050565b5f60ff82169050919050565b610ca281610c8d565b82525050565b5f602082019050610cbb5f830184610c99565b92915050565b5f5ffd5b5f73ffffffffffffffffffffffffffffffffffffffff82169050919050565b5f610cee82610cc5565b9050919050565b610cfe81610ce4565b8114610d08575f5ffd5b50565b5f81359050610d1981610cf5565b92915050565b5f5f60408385031215610d3557610d34610cc1565b5b5f610d4285828601610d0b565b9250506020610d5385828601610d0b565b9150509250929050565b610d6681610ce4565b82525050565b5f602082019050610d7f5f830184610d5d565b92915050565b5f60208284031215610d9a57610d99610cc1565b5b5f610da784828501610d0b565b91505092915050565b7f4e487b71000000000000000000000000000000000000000000000000000000005f52602260045260245ffd5b5f6002820490506001821680610df457607f821691505b602082108103610e0757610e06610db0565b5b50919050565b7f496e697469616c697a61626c653a20636f6e747261637420697320616c7265615f8201527f647920696e697469616c697a6564000000000000000000000000000000000000602082015250565b5f610e67602e83610bd6565b9150610e7282610e0d565b604082019050919050565b5f6020820190508181035f830152610e9481610e5b565b9050919050565b7f4f776e61626c653a2063616c6c6572206973206e6f7420746865206f776e65725f82015250565b5f610ecf602083610bd6565b9150610eda82610e9b565b602082019050919050565b5f6020820190508181035f830152610efc81610ec3565b9050919050565b7f4e487b71000000000000000000000000000000000000000000000000000000005f52601160045260245ffd5b5f610f3a82610c5c565b9150610f4583610c5c565b9250828202610f5381610c5c565b91508282048414831517610f6a57610f69610f03565b5b5092915050565b7f4e487b71000000000000000000000000000000000000000000000000000000005f52601260045260245ffd5b5f610fa882610c5c565b9150610fb383610c5c565b925082610fc357610fc2610f71565b5b828204905092915050565b7f4e487b71000000000000000000000000000000000000000000000000000000005f52604160045260245ffd5b5f819050815f5260205f209050919050565b5f6020601f8301049050919050565b5f82821b905092915050565b5f600883026110577fffffffffffffffffffffffffffffffffffffffffffffffffffffffffffffffff8261101c565b611061868361101c565b95508019841693508086168417925050509392505050565b5f819050919050565b5f61109c61109761109284610c5c565b611079565b610c5c565b9050919050565b5f819050919050565b6110b583611082565b6110c96110c1826110a3565b848454611028565b825550505050565b5f5f905090565b6110e06110d1565b6110eb8184846110ac565b505050565b5b8181101561110e576111035f826110d8565b6001810190506110f1565b5050565b601f8211156111535761112481610ffb565b61112d8461100d565b8101602085101561113c578190505b6111506111488561100d565b8301826110f0565b50505b505050565b5f82821c905092915050565b5f6111735f1984600802611158565b1980831691505092915050565b5f61118b8383611164565b9150826002028217905092915050565b6111a482610bcc565b67ffffffffffffffff8111156111bd576111bc610fce565b5b6111c78254610ddd565b6111d2828285611112565b5f60209050601f831160018114611203575f84156111f1578287015190505b6111fb8582611180565b865550611262565b601f19841661121186610ffb565b5f5b8281101561123857848901518255600182019150602085019450602081019050611213565b868310156112555784890151611251601f891682611164565b8355505b6001600288020188555050505b505050505050565b7f45524332303a206d696e7420746f207a65726f000000000000000000000000005f82015250565b5f61129e601383610bd6565b91506112a98261126a565b602082019050919050565b5f6020820190508181035f8301526112cb81611292565b9050919050565b5f6112dc82610c5c565b91506112e783610c5c565b92508282019050808211156112ff576112fe610f03565b5b92915050565b7f45524332303a206275726e2066726f6d207a65726f00000000000000000000005f82015250565b5f611339601583610bd6565b915061134482611305565b602082019050919050565b5f6020820190508181035f8301526113668161132d565b9050919050565b7f45524332303a206275726e20657863656564732062616c616e636500000000005f82015250565b5f6113a1601b83610bd6565b91506113ac8261136d565b602082019050919050565b5f6020820190508181035f8301526113ce81611395565b9050919050565b5f6113df82610c5c565b91506113ea83610c5c565b925082820390508181111561140257611401610f03565b5b9291505056fea2646970667358221220618819552651272ba6591064c588f5ef238a10ff0a6dc327d8ff0471b8cd675964736f6c634300081e0033",
					"opcodes": "PUSH1 0x80 PUSH1 0x40 MSTORE PUSH1 0x32 PUSH1 0x6 SSTORE CALLVALUE DUP1 ISZERO PUSH1 0x13 JUMPI PUSH0 PUSH0 REVERT JUMPDEST POP PUSH1 0x20 PUSH1 0x24 PUSH1 0x20 SHL PUSH1 0x20 SHR JUMP JUMPDEST PUSH1 0x3F JUMP JUMPDEST PUSH1 0x1 PUSH0 PUSH0 PUSH2 0x100 EXP DUP2 SLOAD DUP2 PUSH1 0xFF MUL NOT AND SWAP1 DUP4 ISZERO ISZERO MUL OR SWAP1 SSTORE POP JUMP JUMPDEST PUSH2 0x143E DUP1 PUSH2 0x4C PUSH0 CODECOPY PUSH0 RETURN INVALID PUSH1 0x80 PUSH1 0x40 MSTORE CALLVALUE DUP1 ISZERO PUSH2 0xF JUMPI PUSH0 PUSH0 REVERT JUMPDEST POP PUSH1 0x4 CALLDATASIZE LT PUSH2 0xCD JUMPI PUSH0 CALLDATALOAD PUSH1 0xE0 SHR DUP1 PUSH4 0x6F5585B8 GT PUSH2 0x8A JUMPI DUP1 PUSH4 0x8DA5CB5B GT PUSH2 0x64 JUMPI DUP1 PUSH4 0x8DA5CB5B EQ PUSH2 0x1EF JUMPI DUP1 PUSH4 0x95D89B41 EQ PUSH2 0x20D JUMPI DUP1 PUSH4 0xA2770731 EQ PUSH2 0x22B JUMPI DUP1 PUSH4 0xD8A43B1F EQ PUSH2 0x249 JUMPI PUSH2 0xCD JUMP JUMPDEST DUP1 PUSH4 0x6F5585B8 EQ PUSH2 0x183 JUMPI DUP1 PUSH4 0x70A08231 EQ PUSH2 0x1A1 JUMPI DUP1 PUSH4 0x878C7CA8 EQ PUSH2 0x1D1 JUMPI PUSH2 0xCD JUMP JUMPDEST DUP1 PUSH4 0x6FDDE03 EQ PUSH2 0xD1 JUMPI DUP1 PUSH4 0x18160DDD EQ PUSH2 0xEF JUMPI DUP1 PUSH4 0x18821400 EQ PUSH2 0x10D JUMPI DUP1 PUSH4 0x2A905318 EQ PUSH2 0x12B JUMPI DUP1 PUSH4 0x313CE567 EQ PUSH2 0x149 JUMPI DUP1 PUSH4 0x485CC955 EQ PUSH2 0x167 JUMPI JUMPDEST PUSH0 PUSH0 REVERT JUMPDEST PUSH2 0xD9 PUSH2 0x253 JUMP JUMPDEST PUSH1 0x40 MLOAD PUSH2 0xE6 SWAP2 SWAP1 PUSH2 0xC3C JUMP JUMPDEST PUSH1 0x40 MLOAD DUP1 SWAP2 SUB SWAP1 RETURN JUMPDEST PUSH2 0xF7 PUSH2 0x2E3 JUMP JUMPDEST PUSH1 0x40 MLOAD PUSH2 0x104 SWAP2 SWAP1 PUSH2 0xC74 JUMP JUMPDEST PUSH1 0x40 MLOAD DUP1 SWAP2 SUB SWAP1 RETURN JUMPDEST PUSH2 0x115 PUSH2 0x2EC JUMP JUMPDEST PUSH1 0x40 MLOAD PUSH2 0x122 SWAP2 SWAP1 PUSH2 0xC3C JUMP JUMPDEST PUSH1 0x40 MLOAD DUP1 SWAP2 SUB SWAP1 RETURN JUMPDEST PUSH2 0x133 PUSH2 0x325 JUMP JUMPDEST PUSH1 0x40 MLOAD PUSH2 0x140 SWAP2 SWAP1 PUSH2 0xC3C JUMP JUMPDEST PUSH1 0x40 MLOAD DUP1 SWAP2 SUB SWAP1 RETURN JUMPDEST PUSH2 0x151 PUSH2 0x35E JUMP JUMPDEST PUSH1 0x40 MLOAD PUSH2 0x15E SWAP2 SWAP1 PUSH2 0xCA8 JUMP JUMPDEST PUSH1 0x40 MLOAD DUP1 SWAP2 SUB SWAP1 RETURN JUMPDEST PUSH2 0x181 PUSH1 0x4 DUP1 CALLDATASIZE SUB DUP2 ADD SWAP1 PUSH2 0x17C SWAP2 SWAP1 PUSH2 0xD1F JUMP JUMPDEST PUSH2 0x366 JUMP JUMPDEST STOP JUMPDEST PUSH2 0x18B PUSH2 0x54A JUMP JUMPDEST PUSH1 0x40 MLOAD PUSH2 0x198 SWAP2 SWAP1 PUSH2 0xD6C JUMP JUMPDEST PUSH1 0x40 MLOAD DUP1 SWAP2 SUB SWAP1 RETURN JUMPDEST PUSH2 0x1BB PUSH1 0x4 DUP1 CALLDATASIZE SUB DUP2 ADD SWAP1 PUSH2 0x1B6 SWAP2 SWAP1 PUSH2 0xD85 JUMP JUMPDEST PUSH2 0x56F JUMP JUMPDEST PUSH1 0x40 MLOAD PUSH2 0x1C8 SWAP2 SWAP1 PUSH2 0xC74 JUMP JUMPDEST PUSH1 0x40 MLOAD DUP1 SWAP2 SUB SWAP1 RETURN JUMPDEST PUSH2 0x1D9 PUSH2 0x5B5 JUMP JUMPDEST PUSH1 0x40 MLOAD PUSH2 0x1E6 SWAP2 SWAP1 PUSH2 0xD6C JUMP JUMPDEST PUSH1 0x40 MLOAD DUP1 SWAP2 SUB SWAP1 RETURN JUMPDEST PUSH2 0x1F7 PUSH2 0x5DA JUMP JUMPDEST PUSH1 0x40 MLOAD PUSH2 0x204 SWAP2 SWAP1 PUSH2 0xD6C JUMP JUMPDEST PUSH1 0x40 MLOAD DUP1 SWAP2 SUB SWAP1 RETURN JUMPDEST PUSH2 0x215 PUSH2 0x602 JUMP JUMPDEST PUSH1 0x40 MLOAD PUSH2 0x222 SWAP2 SWAP1 PUSH2 0xC3C JUMP JUMPDEST PUSH1 0x40 MLOAD DUP1 SWAP2 SUB SWAP1 RETURN JUMPDEST PUSH2 0x233 PUSH2 0x692 JUMP JUMPDEST PUSH1 0x40 MLOAD PUSH2 0x240 SWAP2 SWAP1 PUSH2 0xC74 JUMP JUMPDEST PUSH1 0x40 MLOAD DUP1 SWAP2 SUB SWAP1 RETURN JUMPDEST PUSH2 0x251 PUSH2 0x698 JUMP JUMPDEST STOP JUMPDEST PUSH1 0x60 PUSH1 0x3 DUP1 SLOAD PUSH2 0x262 SWAP1 PUSH2 0xDDD JUMP JUMPDEST DUP1 PUSH1 0x1F ADD PUSH1 0x20 DUP1 SWAP2 DIV MUL PUSH1 0x20 ADD PUSH1 0x40 MLOAD SWAP1 DUP2 ADD PUSH1 0x40 MSTORE DUP1 SWAP3 SWAP2 SWAP1 DUP2 DUP2 MSTORE PUSH1 0x20 ADD DUP3 DUP1 SLOAD PUSH2 0x28E SWAP1 PUSH2 0xDDD JUMP JUMPDEST DUP1 ISZERO PUSH2 0x2D9 JUMPI DUP1 PUSH1 0x1F LT PUSH2 0x2B0 JUMPI PUSH2 0x100 DUP1 DUP4 SLOAD DIV MUL DUP4 MSTORE SWAP2 PUSH1 0x20 ADD SWAP2 PUSH2 0x2D9 JUMP JUMPDEST DUP3 ADD SWAP2 SWAP1 PUSH0 MSTORE PUSH1 0x20 PUSH0 KECCAK256 SWAP1 JUMPDEST DUP2 SLOAD DUP2 MSTORE SWAP1 PUSH1 0x1 ADD SWAP1 PUSH1 0x20 ADD DUP1 DUP4 GT PUSH2 0x2BC JUMPI DUP3 SWAP1 SUB PUSH1 0x1F AND DUP3 ADD SWAP2 JUMPDEST POP POP POP POP POP SWAP1 POP SWAP1 JUMP JUMPDEST PUSH0 PUSH1 0x2 SLOAD SWAP1 POP SWAP1 JUMP JUMPDEST PUSH1 0x40 MLOAD DUP1 PUSH1 0x40 ADD PUSH1 0x40 MSTORE DUP1 PUSH1 0x8 DUP2 MSTORE PUSH1 0x20 ADD PUSH32 0x49464220436F696E000000000000000000000000000000000000000000000000 DUP2 MSTORE POP DUP2 JUMP JUMPDEST PUSH1 0x40 MLOAD DUP1 PUSH1 0x40 ADD PUSH1 0x40 MSTORE DUP1 PUSH1 0x3 DUP2 MSTORE PUSH1 0x20 ADD PUSH32 0x4946420000000000000000000000000000000000000000000000000000000000 DUP2 MSTORE POP DUP2 JUMP JUMPDEST PUSH0 PUSH1 0x6 SWAP1 POP SWAP1 JUMP JUMPDEST PUSH0 PUSH1 0x1 SWAP1 SLOAD SWAP1 PUSH2 0x100 EXP SWAP1 DIV PUSH1 0xFF AND DUP1 PUSH2 0x38B JUMPI POP PUSH0 PUSH0 SWAP1 SLOAD SWAP1 PUSH2 0x100 EXP SWAP1 DIV PUSH1 0xFF AND ISZERO JUMPDEST PUSH2 0x3CA JUMPI PUSH1 0x40 MLOAD PUSH32 0x8C379A000000000000000000000000000000000000000000000000000000000 DUP2 MSTORE PUSH1 0x4 ADD PUSH2 0x3C1 SWAP1 PUSH2 0xE7D JUMP JUMPDEST PUSH1 0x40 MLOAD DUP1 SWAP2 SUB SWAP1 REVERT JUMPDEST PUSH0 PUSH0 PUSH1 0x1 SWAP1 SLOAD SWAP1 PUSH2 0x100 EXP SWAP1 DIV PUSH1 0xFF AND ISZERO SWAP1 POP DUP1 ISZERO PUSH2 0x417 JUMPI PUSH1 0x1 PUSH0 PUSH1 0x1 PUSH2 0x100 EXP DUP2 SLOAD DUP2 PUSH1 0xFF MUL NOT AND SWAP1 DUP4 ISZERO ISZERO MUL OR SWAP1 SSTORE POP PUSH1 0x1 PUSH0 PUSH0 PUSH2 0x100 EXP DUP2 SLOAD DUP2 PUSH1 0xFF MUL NOT AND SWAP1 DUP4 ISZERO ISZERO MUL OR SWAP1 SSTORE POP JUMPDEST PUSH2 0x48B PUSH1 0x40 MLOAD DUP1 PUSH1 0x40 ADD PUSH1 0x40 MSTORE DUP1 PUSH1 0x8 DUP2 MSTORE PUSH1 0x20 ADD PUSH32 0x49464220436F696E000000000000000000000000000000000000000000000000 DUP2 MSTORE POP PUSH1 0x40 MLOAD DUP1 PUSH1 0x40 ADD PUSH1 0x40 MSTORE DUP1 PUSH1 0x3 DUP2 MSTORE PUSH1 0x20 ADD PUSH32 0x4946420000000000000000000000000000000000000000000000000000000000 DUP2 MSTORE POP PUSH2 0x747 JUMP JUMPDEST PUSH2 0x494 CALLER PUSH2 0x845 JUMP JUMPDEST PUSH2 0x4A5 CALLER PUSH7 0x2386F26FC10000 PUSH2 0x92B JUMP JUMPDEST DUP3 PUSH1 0x7 PUSH0 PUSH2 0x100 EXP DUP2 SLOAD DUP2 PUSH20 0xFFFFFFFFFFFFFFFFFFFFFFFFFFFFFFFFFFFFFFFF MUL NOT AND SWAP1 DUP4 PUSH20 0xFFFFFFFFFFFFFFFFFFFFFFFFFFFFFFFFFFFFFFFF AND MUL OR SWAP1 SSTORE POP DUP2 PUSH1 0x8 PUSH0 PUSH2 0x100 EXP DUP2 SLOAD DUP2 PUSH20 0xFFFFFFFFFFFFFFFFFFFFFFFFFFFFFFFFFFFFFFFF MUL NOT AND SWAP1 DUP4 PUSH20 0xFFFFFFFFFFFFFFFFFFFFFFFFFFFFFFFFFFFFFFFF AND MUL OR SWAP1 SSTORE POP DUP1 ISZERO PUSH2 0x545 JUMPI PUSH0 PUSH0 PUSH1 0x1 PUSH2 0x100 EXP DUP2 SLOAD DUP2 PUSH1 0xFF MUL NOT AND SWAP1 DUP4 ISZERO ISZERO MUL OR SWAP1 SSTORE POP JUMPDEST POP POP POP JUMP JUMPDEST PUSH1 0x7 PUSH0 SWAP1 SLOAD SWAP1 PUSH2 0x100 EXP SWAP1 DIV PUSH20 0xFFFFFFFFFFFFFFFFFFFFFFFFFFFFFFFFFFFFFFFF AND DUP2 JUMP JUMPDEST PUSH0 PUSH1 0x1 PUSH0 DUP4 PUSH20 0xFFFFFFFFFFFFFFFFFFFFFFFFFFFFFFFFFFFFFFFF AND PUSH20 0xFFFFFFFFFFFFFFFFFFFFFFFFFFFFFFFFFFFFFFFF AND DUP2 MSTORE PUSH1 0x20 ADD SWAP1 DUP2 MSTORE PUSH1 0x20 ADD PUSH0 KECCAK256 SLOAD SWAP1 POP SWAP2 SWAP1 POP JUMP JUMPDEST PUSH1 0x8 PUSH0 SWAP1 SLOAD SWAP1 PUSH2 0x100 EXP SWAP1 DIV PUSH20 0xFFFFFFFFFFFFFFFFFFFFFFFFFFFFFFFFFFFFFFFF AND DUP2 JUMP JUMPDEST PUSH0 PUSH1 0x5 PUSH0 SWAP1 SLOAD SWAP1 PUSH2 0x100 EXP SWAP1 DIV PUSH20 0xFFFFFFFFFFFFFFFFFFFFFFFFFFFFFFFFFFFFFFFF AND SWAP1 POP SWAP1 JUMP JUMPDEST PUSH1 0x60 PUSH1 0x4 DUP1 SLOAD PUSH2 0x611 SWAP1 PUSH2 0xDDD JUMP JUMPDEST DUP1 PUSH1 0x1F ADD PUSH1 0x20 DUP1 SWAP2 DIV MUL PUSH1 0x20 ADD PUSH1 0x40 MLOAD SWAP1 DUP2 ADD PUSH1 0x40 MSTORE DUP1 SWAP3 SWAP2 SWAP1 DUP2 DUP2 MSTORE PUSH1 0x20 ADD DUP3 DUP1 SLOAD PUSH2 0x63D SWAP1 PUSH2 0xDDD JUMP JUMPDEST DUP1 ISZERO PUSH2 0x688 JUMPI DUP1 PUSH1 0x1F LT PUSH2 0x65F JUMPI PUSH2 0x100 DUP1 DUP4 SLOAD DIV MUL DUP4 MSTORE SWAP2 PUSH1 0x20 ADD SWAP2 PUSH2 0x688 JUMP JUMPDEST DUP3 ADD SWAP2 SWAP1 PUSH0 MSTORE PUSH1 0x20 PUSH0 KECCAK256 SWAP1 JUMPDEST DUP2 SLOAD DUP2 MSTORE SWAP1 PUSH1 0x1 ADD SWAP1 PUSH1 0x20 ADD DUP1 DUP4 GT PUSH2 0x66B JUMPI DUP3 SWAP1 SUB PUSH1 0x1F AND DUP3 ADD SWAP2 JUMPDEST POP POP POP POP POP SWAP1 POP SWAP1 JUMP JUMPDEST PUSH1 0x6 SLOAD DUP2 JUMP JUMPDEST PUSH2 0x6A0 PUSH2 0xA08 JUMP JUMPDEST PUSH20 0xFFFFFFFFFFFFFFFFFFFFFFFFFFFFFFFFFFFFFFFF AND PUSH2 0x6BE PUSH2 0x5DA JUMP JUMPDEST PUSH20 0xFFFFFFFFFFFFFFFFFFFFFFFFFFFFFFFFFFFFFFFF AND EQ PUSH2 0x714 JUMPI PUSH1 0x40 MLOAD PUSH32 0x8C379A000000000000000000000000000000000000000000000000000000000 DUP2 MSTORE PUSH1 0x4 ADD PUSH2 0x70B SWAP1 PUSH2 0xEE5 JUMP JUMPDEST PUSH1 0x40 MLOAD DUP1 SWAP2 SUB SWAP1 REVERT JUMPDEST PUSH0 PUSH2 0x2710 PUSH1 0x6 SLOAD PUSH2 0x724 ADDRESS PUSH2 0x56F JUMP JUMPDEST PUSH2 0x72E SWAP2 SWAP1 PUSH2 0xF30 JUMP JUMPDEST PUSH2 0x738 SWAP2 SWAP1 PUSH2 0xF9E JUMP JUMPDEST SWAP1 POP PUSH2 0x744 ADDRESS DUP3 PUSH2 0xA0F JUMP JUMPDEST POP JUMP JUMPDEST PUSH0 PUSH1 0x1 SWAP1 SLOAD SWAP1 PUSH2 0x100 EXP SWAP1 DIV PUSH1 0xFF AND DUP1 PUSH2 0x76C JUMPI POP PUSH0 PUSH0 SWAP1 SLOAD SWAP1 PUSH2 0x100 EXP SWAP1 DIV PUSH1 0xFF AND ISZERO JUMPDEST PUSH2 0x7AB JUMPI PUSH1 0x40 MLOAD PUSH32 0x8C379A000000000000000000000000000000000000000000000000000000000 DUP2 MSTORE PUSH1 0x4 ADD PUSH2 0x7A2 SWAP1 PUSH2 0xE7D JUMP JUMPDEST PUSH1 0x40 MLOAD DUP1 SWAP2 SUB SWAP1 REVERT JUMPDEST PUSH0 PUSH0 PUSH1 0x1 SWAP1 SLOAD SWAP1 PUSH2 0x100 EXP SWAP1 DIV PUSH1 0xFF AND ISZERO SWAP1 POP DUP1 ISZERO PUSH2 0x7F8 JUMPI PUSH1 0x1 PUSH0 PUSH1 0x1 PUSH2 0x100 EXP DUP2 SLOAD DUP2 PUSH1 0xFF MUL NOT AND SWAP1 DUP4 ISZERO ISZERO MUL OR SWAP1 SSTORE POP PUSH1 0x1 PUSH0 PUSH0 PUSH2 0x100 EXP DUP2 SLOAD DUP2 PUSH1 0xFF MUL NOT AND SWAP1 DUP4 ISZERO ISZERO MUL OR SWAP1 SSTORE POP JUMPDEST PUSH2 0x800 PUSH2 0xB2D JUMP JUMPDEST DUP3 PUSH1 0x3 SWAP1 DUP2 PUSH2 0x80F SWAP2 SWAP1 PUSH2 0x119B JUMP JUMPDEST POP DUP2 PUSH1 0x4 SWAP1 DUP2 PUSH2 0x81F SWAP2 SWAP1 PUSH2 0x119B JUMP JUMPDEST POP DUP1 ISZERO PUSH2 0x840 JUMPI PUSH0 PUSH0 PUSH1 0x1 PUSH2 0x100 EXP DUP2 SLOAD DUP2 PUSH1 0xFF MUL NOT AND SWAP1 DUP4 ISZERO ISZERO MUL OR SWAP1 SSTORE POP JUMPDEST POP POP POP JUMP JUMPDEST PUSH0 PUSH1 0x1 SWAP1 SLOAD SWAP1 PUSH2 0x100 EXP SWAP1 DIV PUSH1 0xFF AND DUP1 PUSH2 0x86A JUMPI POP PUSH0 PUSH0 SWAP1 SLOAD SWAP1 PUSH2 0x100 EXP SWAP1 DIV PUSH1 0xFF AND ISZERO JUMPDEST PUSH2 0x8A9 JUMPI PUSH1 0x40 MLOAD PUSH32 0x8C379A000000000000000000000000000000000000000000000000000000000 DUP2 MSTORE PUSH1 0x4 ADD PUSH2 0x8A0 SWAP1 PUSH2 0xE7D JUMP JUMPDEST PUSH1 0x40 MLOAD DUP1 SWAP2 SUB SWAP1 REVERT JUMPDEST PUSH0 PUSH0 PUSH1 0x1 SWAP1 SLOAD SWAP1 PUSH2 0x100 EXP SWAP1 DIV PUSH1 0xFF AND ISZERO SWAP1 POP DUP1 ISZERO PUSH2 0x8F6 JUMPI PUSH1 0x1 PUSH0 PUSH1 0x1 PUSH2 0x100 EXP DUP2 SLOAD DUP2 PUSH1 0xFF MUL NOT AND SWAP1 DUP4 ISZERO ISZERO MUL OR SWAP1 SSTORE POP PUSH1 0x1 PUSH0 PUSH0 PUSH2 0x100 EXP DUP2 SLOAD DUP2 PUSH1 0xFF MUL NOT AND SWAP1 DUP4 ISZERO ISZERO MUL OR SWAP1 SSTORE POP JUMPDEST PUSH2 0x8FE PUSH2 0xB2D JUMP JUMPDEST PUSH2 0x907 DUP3 PUSH2 0xB2F JUMP JUMPDEST DUP1 ISZERO PUSH2 0x927 JUMPI PUSH0 PUSH0 PUSH1 0x1 PUSH2 0x100 EXP DUP2 SLOAD DUP2 PUSH1 0xFF MUL NOT AND SWAP1 DUP4 ISZERO ISZERO MUL OR SWAP1 SSTORE POP JUMPDEST POP POP JUMP JUMPDEST PUSH0 PUSH20 0xFFFFFFFFFFFFFFFFFFFFFFFFFFFFFFFFFFFFFFFF AND DUP3 PUSH20 0xFFFFFFFFFFFFFFFFFFFFFFFFFFFFFFFFFFFFFFFF AND SUB PUSH2 0x999 JUMPI PUSH1 0x40 MLOAD PUSH32 0x8C379A000000000000000000000000000000000000000000000000000000000 DUP2 MSTORE PUSH1 0x4 ADD PUSH2 0x990 SWAP1 PUSH2 0x12B4 JUMP JUMPDEST PUSH1 0x40 MLOAD DUP1 SWAP2 SUB SWAP1 REVERT JUMPDEST DUP1 PUSH1 0x2 PUSH0 DUP3 DUP3 SLOAD PUSH2 0x9AA SWAP2 SWAP1 PUSH2 0x12D2 JUMP JUMPDEST SWAP3 POP POP DUP2 SWAP1 SSTORE POP DUP1 PUSH1 0x1 PUSH0 DUP5 PUSH20 0xFFFFFFFFFFFFFFFFFFFFFFFFFFFFFFFFFFFFFFFF AND PUSH20 0xFFFFFFFFFFFFFFFFFFFFFFFFFFFFFFFFFFFFFFFF AND DUP2 MSTORE PUSH1 0x20 ADD SWAP1 DUP2 MSTORE PUSH1 0x20 ADD PUSH0 KECCAK256 PUSH0 DUP3 DUP3 SLOAD PUSH2 0x9FD SWAP2 SWAP1 PUSH2 0x12D2 JUMP JUMPDEST SWAP3 POP POP DUP2 SWAP1 SSTORE POP POP POP JUMP JUMPDEST PUSH0 CALLER SWAP1 POP SWAP1 JUMP JUMPDEST PUSH0 PUSH20 0xFFFFFFFFFFFFFFFFFFFFFFFFFFFFFFFFFFFFFFFF AND DUP3 PUSH20 0xFFFFFFFFFFFFFFFFFFFFFFFFFFFFFFFFFFFFFFFF AND SUB PUSH2 0xA7D JUMPI PUSH1 0x40 MLOAD PUSH32 0x8C379A000000000000000000000000000000000000000000000000000000000 DUP2 MSTORE PUSH1 0x4 ADD PUSH2 0xA74 SWAP1 PUSH2 0x134F JUMP JUMPDEST PUSH1 0x40 MLOAD DUP1 SWAP2 SUB SWAP1 REVERT JUMPDEST PUSH0 PUSH2 0xA87 DUP4 PUSH2 0x56F JUMP JUMPDEST SWAP1 POP DUP2 DUP2 LT ISZERO PUSH2 0xACC JUMPI PUSH1 0x40 MLOAD PUSH32 0x8C379A000000000000000000000000000000000000000000000000000000000 DUP2 MSTORE PUSH1 0x4 ADD PUSH2 0xAC3 SWAP1 PUSH2 0x13B7 JUMP JUMPDEST PUSH1 0x40 MLOAD DUP1 SWAP2 SUB SWAP1 REVERT JUMPDEST DUP2 DUP2 SUB PUSH1 0x1 PUSH0 DUP6 PUSH20 0xFFFFFFFFFFFFFFFFFFFFFFFFFFFFFFFFFFFFFFFF AND PUSH20 0xFFFFFFFFFFFFFFFFFFFFFFFFFFFFFFFFFFFFFFFF AND DUP2 MSTORE PUSH1 0x20 ADD SWAP1 DUP2 MSTORE PUSH1 0x20 ADD PUSH0 KECCAK256 DUP2 SWAP1 SSTORE POP DUP2 PUSH1 0x2 PUSH0 DUP3 DUP3 SLOAD PUSH2 0xB21 SWAP2 SWAP1 PUSH2 0x13D5 JUMP JUMPDEST SWAP3 POP POP DUP2 SWAP1 SSTORE POP POP POP POP JUMP JUMPDEST JUMP JUMPDEST DUP1 PUSH1 0x5 PUSH0 PUSH2 0x100 EXP DUP2 SLOAD DUP2 PUSH20 0xFFFFFFFFFFFFFFFFFFFFFFFFFFFFFFFFFFFFFFFF MUL NOT AND SWAP1 DUP4 PUSH20 0xFFFFFFFFFFFFFFFFFFFFFFFFFFFFFFFFFFFFFFFF AND MUL OR SWAP1 SSTORE POP DUP1 PUSH20 0xFFFFFFFFFFFFFFFFFFFFFFFFFFFFFFFFFFFFFFFF AND CALLER PUSH20 0xFFFFFFFFFFFFFFFFFFFFFFFFFFFFFFFFFFFFFFFF AND PUSH32 0x8BE0079C531659141344CD1FD0A4F28419497F9722A3DAAFE3B4186F6B6457E0 PUSH1 0x40 MLOAD PUSH1 0x40 MLOAD DUP1 SWAP2 SUB SWAP1 LOG3 POP JUMP JUMPDEST PUSH0 DUP2 MLOAD SWAP1 POP SWAP2 SWAP1 POP JUMP JUMPDEST PUSH0 DUP3 DUP3 MSTORE PUSH1 0x20 DUP3 ADD SWAP1 POP SWAP3 SWAP2 POP POP JUMP JUMPDEST DUP3 DUP2 DUP4 MCOPY PUSH0 DUP4 DUP4 ADD MSTORE POP POP POP JUMP JUMPDEST PUSH0 PUSH1 0x1F NOT PUSH1 0x1F DUP4 ADD AND SWAP1 POP SWAP2 SWAP1 POP JUMP JUMPDEST PUSH0 PUSH2 0xC0E DUP3 PUSH2 0xBCC JUMP JUMPDEST PUSH2 0xC18 DUP2 DUP6 PUSH2 0xBD6 JUMP JUMPDEST SWAP4 POP PUSH2 0xC28 DUP2 DUP6 PUSH1 0x20 DUP7 ADD PUSH2 0xBE6 JUMP JUMPDEST PUSH2 0xC31 DUP2 PUSH2 0xBF4 JUMP JUMPDEST DUP5 ADD SWAP2 POP POP SWAP3 SWAP2 POP POP JUMP JUMPDEST PUSH0 PUSH1 0x20 DUP3 ADD SWAP1 POP DUP2 DUP2 SUB PUSH0 DUP4 ADD MSTORE PUSH2 0xC54 DUP2 DUP5 PUSH2 0xC04 JUMP JUMPDEST SWAP1 POP SWAP3 SWAP2 POP POP JUMP JUMPDEST PUSH0 DUP2 SWAP1 POP SWAP2 SWAP1 POP JUMP JUMPDEST PUSH2 0xC6E DUP2 PUSH2 0xC5C JUMP JUMPDEST DUP3 MSTORE POP POP JUMP JUMPDEST PUSH0 PUSH1 0x20 DUP3 ADD SWAP1 POP PUSH2 0xC87 PUSH0 DUP4 ADD DUP5 PUSH2 0xC65 JUMP JUMPDEST SWAP3 SWAP2 POP POP JUMP JUMPDEST PUSH0 PUSH1 0xFF DUP3 AND SWAP1 POP SWAP2 SWAP1 POP JUMP JUMPDEST PUSH2 0xCA2 DUP2 PUSH2 0xC8D JUMP JUMPDEST DUP3 MSTORE POP POP JUMP JUMPDEST PUSH0 PUSH1 0x20 DUP3 ADD SWAP1 POP PUSH2 0xCBB PUSH0 DUP4 ADD DUP5 PUSH2 0xC99 JUMP JUMPDEST SWAP3 SWAP2 POP POP JUMP JUMPDEST PUSH0 PUSH0 REVERT JUMPDEST PUSH0 PUSH20 0xFFFFFFFFFFFFFFFFFFFFFFFFFFFFFFFFFFFFFFFF DUP3 AND SWAP1 POP SWAP2 SWAP1 POP JUMP JUMPDEST PUSH0 PUSH2 0xCEE DUP3 PUSH2 0xCC5 JUMP JUMPDEST SWAP1 POP SWAP2 SWAP1 POP JUMP JUMPDEST PUSH2 0xCFE DUP2 PUSH2 0xCE4 JUMP JUMPDEST DUP2 EQ PUSH2 0xD08 JUMPI PUSH0 PUSH0 REVERT JUMPDEST POP JUMP JUMPDEST PUSH0 DUP2 CALLDATALOAD SWAP1 POP PUSH2 0xD19 DUP2 PUSH2 0xCF5 JUMP JUMPDEST SWAP3 SWAP2 POP POP JUMP JUMPDEST PUSH0 PUSH0 PUSH1 0x40 DUP4 DUP6 SUB SLT ISZERO PUSH2 0xD35 JUMPI PUSH2 0xD34 PUSH2 0xCC1 JUMP JUMPDEST JUMPDEST PUSH0 PUSH2 0xD42 DUP6 DUP3 DUP7 ADD PUSH2 0xD0B JUMP JUMPDEST SWAP3 POP POP PUSH1 0x20 PUSH2 0xD53 DUP6 DUP3 DUP7 ADD PUSH2 0xD0B JUMP JUMPDEST SWAP2 POP POP SWAP3 POP SWAP3 SWAP1 POP JUMP JUMPDEST PUSH2 0xD66 DUP2 PUSH2 0xCE4 JUMP JUMPDEST DUP3 MSTORE POP POP JUMP JUMPDEST PUSH0 PUSH1 0x20 DUP3 ADD SWAP1 POP PUSH2 0xD7F PUSH0 DUP4 ADD DUP5 PUSH2 0xD5D JUMP JUMPDEST SWAP3 SWAP2 POP POP JUMP JUMPDEST PUSH0 PUSH1 0x20 DUP3 DUP5 SUB SLT ISZERO PUSH2 0xD9A JUMPI PUSH2 0xD99 PUSH2 0xCC1 JUMP JUMPDEST JUMPDEST PUSH0 PUSH2 0xDA7 DUP5 DUP3 DUP6 ADD PUSH2 0xD0B JUMP JUMPDEST SWAP2 POP POP SWAP3 SWAP2 POP POP JUMP JUMPDEST PUSH32 0x4E487B7100000000000000000000000000000000000000000000000000000000 PUSH0 MSTORE PUSH1 0x22 PUSH1 0x4 MSTORE PUSH1 0x24 PUSH0 REVERT JUMPDEST PUSH0 PUSH1 0x2 DUP3 DIV SWAP1 POP PUSH1 0x1 DUP3 AND DUP1 PUSH2 0xDF4 JUMPI PUSH1 0x7F DUP3 AND SWAP2 POP JUMPDEST PUSH1 0x20 DUP3 LT DUP2 SUB PUSH2 0xE07 JUMPI PUSH2 0xE06 PUSH2 0xDB0 JUMP JUMPDEST JUMPDEST POP SWAP2 SWAP1 POP JUMP JUMPDEST PUSH32 0x496E697469616C697A61626C653A20636F6E747261637420697320616C726561 PUSH0 DUP3 ADD MSTORE PUSH32 0x647920696E697469616C697A6564000000000000000000000000000000000000 PUSH1 0x20 DUP3 ADD MSTORE POP JUMP JUMPDEST PUSH0 PUSH2 0xE67 PUSH1 0x2E DUP4 PUSH2 0xBD6 JUMP JUMPDEST SWAP2 POP PUSH2 0xE72 DUP3 PUSH2 0xE0D JUMP JUMPDEST PUSH1 0x40 DUP3 ADD SWAP1 POP SWAP2 SWAP1 POP JUMP JUMPDEST PUSH0 PUSH1 0x20 DUP3 ADD SWAP1 POP DUP2 DUP2 SUB PUSH0 DUP4 ADD MSTORE PUSH2 0xE94 DUP2 PUSH2 0xE5B JUMP JUMPDEST SWAP1 POP SWAP2 SWAP1 POP JUMP JUMPDEST PUSH32 0x4F776E61626C653A2063616C6C6572206973206E6F7420746865206F776E6572 PUSH0 DUP3 ADD MSTORE POP JUMP JUMPDEST PUSH0 PUSH2 0xECF PUSH1 0x20 DUP4 PUSH2 0xBD6 JUMP JUMPDEST SWAP2 POP PUSH2 0xEDA DUP3 PUSH2 0xE9B JUMP JUMPDEST PUSH1 0x20 DUP3 ADD SWAP1 POP SWAP2 SWAP1 POP JUMP JUMPDEST PUSH0 PUSH1 0x20 DUP3 ADD SWAP1 POP DUP2 DUP2 SUB PUSH0 DUP4 ADD MSTORE PUSH2 0xEFC DUP2 PUSH2 0xEC3 JUMP JUMPDEST SWAP1 POP SWAP2 SWAP1 POP JUMP JUMPDEST PUSH32 0x4E487B7100000000000000000000000000000000000000000000000000000000 PUSH0 MSTORE PUSH1 0x11 PUSH1 0x4 MSTORE PUSH1 0x24 PUSH0 REVERT JUMPDEST PUSH0 PUSH2 0xF3A DUP3 PUSH2 0xC5C JUMP JUMPDEST SWAP2 POP PUSH2 0xF45 DUP4 PUSH2 0xC5C JUMP JUMPDEST SWAP3 POP DUP3 DUP3 MUL PUSH2 0xF53 DUP2 PUSH2 0xC5C JUMP JUMPDEST SWAP2 POP DUP3 DUP3 DIV DUP5 EQ DUP4 ISZERO OR PUSH2 0xF6A JUMPI PUSH2 0xF69 PUSH2 0xF03 JUMP JUMPDEST JUMPDEST POP SWAP3 SWAP2 POP POP JUMP JUMPDEST PUSH32 0x4E487B7100000000000000000000000000000000000000000000000000000000 PUSH0 MSTORE PUSH1 0x12 PUSH1 0x4 MSTORE PUSH1 0x24 PUSH0 REVERT JUMPDEST PUSH0 PUSH2 0xFA8 DUP3 PUSH2 0xC5C JUMP JUMPDEST SWAP2 POP PUSH2 0xFB3 DUP4 PUSH2 0xC5C JUMP JUMPDEST SWAP3 POP DUP3 PUSH2 0xFC3 JUMPI PUSH2 0xFC2 PUSH2 0xF71 JUMP JUMPDEST JUMPDEST DUP3 DUP3 DIV SWAP1 POP SWAP3 SWAP2 POP POP JUMP JUMPDEST PUSH32 0x4E487B7100000000000000000000000000000000000000000000000000000000 PUSH0 MSTORE PUSH1 0x41 PUSH1 0x4 MSTORE PUSH1 0x24 PUSH0 REVERT JUMPDEST PUSH0 DUP2 SWAP1 POP DUP2 PUSH0 MSTORE PUSH1 0x20 PUSH0 KECCAK256 SWAP1 POP SWAP2 SWAP1 POP JUMP JUMPDEST PUSH0 PUSH1 0x20 PUSH1 0x1F DUP4 ADD DIV SWAP1 POP SWAP2 SWAP1 POP JUMP JUMPDEST PUSH0 DUP3 DUP3 SHL SWAP1 POP SWAP3 SWAP2 POP POP JUMP JUMPDEST PUSH0 PUSH1 0x8 DUP4 MUL PUSH2 0x1057 PUSH32 0xFFFFFFFFFFFFFFFFFFFFFFFFFFFFFFFFFFFFFFFFFFFFFFFFFFFFFFFFFFFFFFFF DUP3 PUSH2 0x101C JUMP JUMPDEST PUSH2 0x1061 DUP7 DUP4 PUSH2 0x101C JUMP JUMPDEST SWAP6 POP DUP1 NOT DUP5 AND SWAP4 POP DUP1 DUP7 AND DUP5 OR SWAP3 POP POP POP SWAP4 SWAP3 POP POP POP JUMP JUMPDEST PUSH0 DUP2 SWAP1 POP SWAP2 SWAP1 POP JUMP JUMPDEST PUSH0 PUSH2 0x109C PUSH2 0x1097 PUSH2 0x1092 DUP5 PUSH2 0xC5C JUMP JUMPDEST PUSH2 0x1079 JUMP JUMPDEST PUSH2 0xC5C JUMP JUMPDEST SWAP1 POP SWAP2 SWAP1 POP JUMP JUMPDEST PUSH0 DUP2 SWAP1 POP SWAP2 SWAP1 POP JUMP JUMPDEST PUSH2 0x10B5 DUP4 PUSH2 0x1082 JUMP JUMPDEST PUSH2 0x10C9 PUSH2 0x10C1 DUP3 PUSH2 0x10A3 JUMP JUMPDEST DUP5 DUP5 SLOAD PUSH2 0x1028 JUMP JUMPDEST DUP3 SSTORE POP POP POP POP JUMP JUMPDEST PUSH0 PUSH0 SWAP1 POP SWAP1 JUMP JUMPDEST PUSH2 0x10E0 PUSH2 0x10D1 JUMP JUMPDEST PUSH2 0x10EB DUP2 DUP5 DUP5 PUSH2 0x10AC JUMP JUMPDEST POP POP POP JUMP JUMPDEST JUMPDEST DUP2 DUP2 LT ISZERO PUSH2 0x110E JUMPI PUSH2 0x1103 PUSH0 DUP3 PUSH2 0x10D8 JUMP JUMPDEST PUSH1 0x1 DUP2 ADD SWAP1 POP PUSH2 0x10F1 JUMP JUMPDEST POP POP JUMP JUMPDEST PUSH1 0x1F DUP3 GT ISZERO PUSH2 0x1153 JUMPI PUSH2 0x1124 DUP2 PUSH2 0xFFB JUMP JUMPDEST PUSH2 0x112D DUP5 PUSH2 0x100D JUMP JUMPDEST DUP2 ADD PUSH1 0x20 DUP6 LT ISZERO PUSH2 0x113C JUMPI DUP2 SWAP1 POP JUMPDEST PUSH2 0x1150 PUSH2 0x1148 DUP6 PUSH2 0x100D JUMP JUMPDEST DUP4 ADD DUP3 PUSH2 0x10F0 JUMP JUMPDEST POP POP JUMPDEST POP POP POP JUMP JUMPDEST PUSH0 DUP3 DUP3 SHR SWAP1 POP SWAP3 SWAP2 POP POP JUMP JUMPDEST PUSH0 PUSH2 0x1173 PUSH0 NOT DUP5 PUSH1 0x8 MUL PUSH2 0x1158 JUMP JUMPDEST NOT DUP1 DUP4 AND SWAP2 POP POP SWAP3 SWAP2 POP POP JUMP JUMPDEST PUSH0 PUSH2 0x118B DUP4 DUP4 PUSH2 0x1164 JUMP JUMPDEST SWAP2 POP DUP3 PUSH1 0x2 MUL DUP3 OR SWAP1 POP SWAP3 SWAP2 POP POP JUMP JUMPDEST PUSH2 0x11A4 DUP3 PUSH2 0xBCC JUMP JUMPDEST PUSH8 0xFFFFFFFFFFFFFFFF DUP2 GT ISZERO PUSH2 0x11BD JUMPI PUSH2 0x11BC PUSH2 0xFCE JUMP JUMPDEST JUMPDEST PUSH2 0x11C7 DUP3 SLOAD PUSH2 0xDDD JUMP JUMPDEST PUSH2 0x11D2 DUP3 DUP3 DUP6 PUSH2 0x1112 JUMP JUMPDEST PUSH0 PUSH1 0x20 SWAP1 POP PUSH1 0x1F DUP4 GT PUSH1 0x1 DUP2 EQ PUSH2 0x1203 JUMPI PUSH0 DUP5 ISZERO PUSH2 0x11F1 JUMPI DUP3 DUP8 ADD MLOAD SWAP1 POP JUMPDEST PUSH2 0x11FB DUP6 DUP3 PUSH2 0x1180 JUMP JUMPDEST DUP7 SSTORE POP PUSH2 0x1262 JUMP JUMPDEST PUSH1 0x1F NOT DUP5 AND PUSH2 0x1211 DUP7 PUSH2 0xFFB JUMP JUMPDEST PUSH0 JUMPDEST DUP3 DUP2 LT ISZERO PUSH2 0x1238 JUMPI DUP5 DUP10 ADD MLOAD DUP3 SSTORE PUSH1 0x1 DUP3 ADD SWAP2 POP PUSH1 0x20 DUP6 ADD SWAP5 POP PUSH1 0x20 DUP2 ADD SWAP1 POP PUSH2 0x1213 JUMP JUMPDEST DUP7 DUP4 LT ISZERO PUSH2 0x1255 JUMPI DUP5 DUP10 ADD MLOAD PUSH2 0x1251 PUSH1 0x1F DUP10 AND DUP3 PUSH2 0x1164 JUMP JUMPDEST DUP4 SSTORE POP JUMPDEST PUSH1 0x1 PUSH1 0x2 DUP9 MUL ADD DUP9 SSTORE POP POP POP JUMPDEST POP POP POP POP POP POP JUMP JUMPDEST PUSH32 0x45524332303A206D696E7420746F207A65726F00000000000000000000000000 PUSH0 DUP3 ADD MSTORE POP JUMP JUMPDEST PUSH0 PUSH2 0x129E PUSH1 0x13 DUP4 PUSH2 0xBD6 JUMP JUMPDEST SWAP2 POP PUSH2 0x12A9 DUP3 PUSH2 0x126A JUMP JUMPDEST PUSH1 0x20 DUP3 ADD SWAP1 POP SWAP2 SWAP1 POP JUMP JUMPDEST PUSH0 PUSH1 0x20 DUP3 ADD SWAP1 POP DUP2 DUP2 SUB PUSH0 DUP4 ADD MSTORE PUSH2 0x12CB DUP2 PUSH2 0x1292 JUMP JUMPDEST SWAP1 POP SWAP2 SWAP1 POP JUMP JUMPDEST PUSH0 PUSH2 0x12DC DUP3 PUSH2 0xC5C JUMP JUMPDEST SWAP2 POP PUSH2 0x12E7 DUP4 PUSH2 0xC5C JUMP JUMPDEST SWAP3 POP DUP3 DUP3 ADD SWAP1 POP DUP1 DUP3 GT ISZERO PUSH2 0x12FF JUMPI PUSH2 0x12FE PUSH2 0xF03 JUMP JUMPDEST JUMPDEST SWAP3 SWAP2 POP POP JUMP JUMPDEST PUSH32 0x45524332303A206275726E2066726F6D207A65726F0000000000000000000000 PUSH0 DUP3 ADD MSTORE POP JUMP JUMPDEST PUSH0 PUSH2 0x1339 PUSH1 0x15 DUP4 PUSH2 0xBD6 JUMP JUMPDEST SWAP2 POP PUSH2 0x1344 DUP3 PUSH2 0x1305 JUMP JUMPDEST PUSH1 0x20 DUP3 ADD SWAP1 POP SWAP2 SWAP1 POP JUMP JUMPDEST PUSH0 PUSH1 0x20 DUP3 ADD SWAP1 POP DUP2 DUP2 SUB PUSH0 DUP4 ADD MSTORE PUSH2 0x1366 DUP2 PUSH2 0x132D JUMP JUMPDEST SWAP1 POP SWAP2 SWAP1 POP JUMP JUMPDEST PUSH32 0x45524332303A206275726E20657863656564732062616C616E63650000000000 PUSH0 DUP3 ADD MSTORE POP JUMP JUMPDEST PUSH0 PUSH2 0x13A1 PUSH1 0x1B DUP4 PUSH2 0xBD6 JUMP JUMPDEST SWAP2 POP PUSH2 0x13AC DUP3 PUSH2 0x136D JUMP JUMPDEST PUSH1 0x20 DUP3 ADD SWAP1 POP SWAP2 SWAP1 POP JUMP JUMPDEST PUSH0 PUSH1 0x20 DUP3 ADD SWAP1 POP DUP2 DUP2 SUB PUSH0 DUP4 ADD MSTORE PUSH2 0x13CE DUP2 PUSH2 0x1395 JUMP JUMPDEST SWAP1 POP SWAP2 SWAP1 POP JUMP JUMPDEST PUSH0 PUSH2 0x13DF DUP3 PUSH2 0xC5C JUMP JUMPDEST SWAP2 POP PUSH2 0x13EA DUP4 PUSH2 0xC5C JUMP JUMPDEST SWAP3 POP DUP3 DUP3 SUB SWAP1 POP DUP2 DUP2 GT ISZERO PUSH2 0x1402 JUMPI PUSH2 0x1401 PUSH2 0xF03 JUMP JUMPDEST JUMPDEST SWAP3 SWAP2 POP POP JUMP INVALID LOG2 PUSH5 0x6970667358 0x22 SLT KECCAK256 PUSH2 0x8819 SSTORE 0x26 MLOAD 0x27 0x2B 0xA6 MSIZE LT PUSH5 0xC588F5EF23 DUP11 LT SELFDESTRUCT EXP PUSH14 0xC327D8FF0471B8CD675964736F6C PUSH4 0x4300081E STOP CALLER "
				},
				"gasEstimates": {
					"creation": {
						"codeDepositCost": "1036400",
						"executionCost": "infinite",
						"totalCost": "infinite"
					},
					"external": {
						"TOKEN_NAME()": "infinite",
						"TOKEN_SYMBOL()": "infinite",
						"balanceOf(address)": "2874",
						"burnMonthly()": "infinite",
						"decimals()": "427",
						"initialize(address,address)": "infinite",
						"name()": "infinite",
						"owner()": "2537",
						"symbol()": "infinite",
						"taxSocialOperationsWallet()": "2575",
						"taxSocialPercent()": "2491",
						"taxSocialProjectsWallet()": "2531",
						"totalSupply()": "2455"
					},
					"internal": {
						"_authorizeUpgrade(address)": "infinite"
					}
				},
				"methodIdentifiers": {
					"TOKEN_NAME()": "18821400",
					"TOKEN_SYMBOL()": "2a905318",
					"balanceOf(address)": "70a08231",
					"burnMonthly()": "d8a43b1f",
					"decimals()": "313ce567",
					"initialize(address,address)": "485cc955",
					"name()": "06fdde03",
					"owner()": "8da5cb5b",
					"symbol()": "95d89b41",
					"taxSocialOperationsWallet()": "878c7ca8",
					"taxSocialPercent()": "a2770731",
					"taxSocialProjectsWallet()": "6f5585b8",
					"totalSupply()": "18160ddd"
				}
			},
			"storageLayout": {
				"storage": [
					{
						"astId": 3,
						"contract": "IFBCoin.sol:IFBCoin",
						"label": "_initialized",
						"offset": 0,
						"slot": "0",
						"type": "t_bool"
					},
					{
						"astId": 5,
						"contract": "IFBCoin.sol:IFBCoin",
						"label": "_initializing",
						"offset": 1,
						"slot": "0",
						"type": "t_bool"
					},
					{
						"astId": 138,
						"contract": "IFBCoin.sol:IFBCoin",
						"label": "_balances",
						"offset": 0,
						"slot": "1",
						"type": "t_mapping(t_address,t_uint256)"
					},
					{
						"astId": 140,
						"contract": "IFBCoin.sol:IFBCoin",
						"label": "_totalSupply",
						"offset": 0,
						"slot": "2",
						"type": "t_uint256"
					},
					{
						"astId": 142,
						"contract": "IFBCoin.sol:IFBCoin",
						"label": "_name",
						"offset": 0,
						"slot": "3",
						"type": "t_string_storage"
					},
					{
						"astId": 144,
						"contract": "IFBCoin.sol:IFBCoin",
						"label": "_symbol",
						"offset": 0,
						"slot": "4",
						"type": "t_string_storage"
					},
					{
						"astId": 71,
						"contract": "IFBCoin.sol:IFBCoin",
						"label": "_owner",
						"offset": 0,
						"slot": "5",
						"type": "t_address"
					},
					{
						"astId": 373,
						"contract": "IFBCoin.sol:IFBCoin",
						"label": "taxSocialPercent",
						"offset": 0,
						"slot": "6",
						"type": "t_uint256"
					},
					{
						"astId": 375,
						"contract": "IFBCoin.sol:IFBCoin",
						"label": "taxSocialProjectsWallet",
						"offset": 0,
						"slot": "7",
						"type": "t_address"
					},
					{
						"astId": 377,
						"contract": "IFBCoin.sol:IFBCoin",
						"label": "taxSocialOperationsWallet",
						"offset": 0,
						"slot": "8",
						"type": "t_address"
					}
				],
				"types": {
					"t_address": {
						"encoding": "inplace",
						"label": "address",
						"numberOfBytes": "20"
					},
					"t_bool": {
						"encoding": "inplace",
						"label": "bool",
						"numberOfBytes": "1"
					},
					"t_mapping(t_address,t_uint256)": {
						"encoding": "mapping",
						"key": "t_address",
						"label": "mapping(address => uint256)",
						"numberOfBytes": "32",
						"value": "t_uint256"
					},
					"t_string_storage": {
						"encoding": "bytes",
						"label": "string",
						"numberOfBytes": "32"
					},
					"t_uint256": {
						"encoding": "inplace",
						"label": "uint256",
						"numberOfBytes": "32"
					}
				}
			},
			"userdoc": {
				"kind": "user",
				"methods": {},
				"version": 1
			}
		}
	}
}