{
	"BTC+com tx.sol": {
		"BTCMAIS": {
			"abi": [
				{
					"inputs": [],
					"stateMutability": "nonpayable",
					"type": "constructor"
				},
				{
					"anonymous": false,
					"inputs": [
						{
							"indexed": true,
							"internalType": "address",
							"name": "owner",
							"type": "address"
						},
						{
							"indexed": true,
							"internalType": "address",
							"name": "spender",
							"type": "address"
						},
						{
							"indexed": false,
							"internalType": "uint256",
							"name": "value",
							"type": "uint256"
						}
					],
					"name": "Approval",
					"type": "event"
				},
				{
					"anonymous": false,
					"inputs": [
						{
							"indexed": false,
							"internalType": "uint256",
							"name": "amount",
							"type": "uint256"
						},
						{
							"indexed": false,
							"internalType": "address",
							"name": "recipient",
							"type": "address"
						}
					],
					"name": "ForwardedBNB",
					"type": "event"
				},
				{
					"anonymous": false,
					"inputs": [
						{
							"indexed": true,
							"internalType": "address",
							"name": "previousOwner",
							"type": "address"
						},
						{
							"indexed": true,
							"internalType": "address",
							"name": "newOwner",
							"type": "address"
						}
					],
					"name": "OwnershipTransferred",
					"type": "event"
				},
				{
					"anonymous": false,
					"inputs": [
						{
							"indexed": true,
							"internalType": "address",
							"name": "account",
							"type": "address"
						}
					],
					"name": "Paused",
					"type": "event"
				},
				{
					"anonymous": false,
					"inputs": [
						{
							"indexed": true,
							"internalType": "address",
							"name": "account",
							"type": "address"
						}
					],
					"name": "Terminated",
					"type": "event"
				},
				{
					"anonymous": false,
					"inputs": [
						{
							"indexed": true,
							"internalType": "address",
							"name": "from",
							"type": "address"
						},
						{
							"indexed": true,
							"internalType": "address",
							"name": "to",
							"type": "address"
						},
						{
							"indexed": false,
							"internalType": "uint256",
							"name": "value",
							"type": "uint256"
						}
					],
					"name": "Transfer",
					"type": "event"
				},
				{
					"anonymous": false,
					"inputs": [
						{
							"indexed": true,
							"internalType": "address",
							"name": "account",
							"type": "address"
						}
					],
					"name": "Unpaused",
					"type": "event"
				},
				{
					"inputs": [
						{
							"internalType": "address",
							"name": "owner",
							"type": "address"
						},
						{
							"internalType": "address",
							"name": "spender",
							"type": "address"
						}
					],
					"name": "allowance",
					"outputs": [
						{
							"internalType": "uint256",
							"name": "",
							"type": "uint256"
						}
					],
					"stateMutability": "view",
					"type": "function"
				},
				{
					"inputs": [
						{
							"internalType": "address",
							"name": "spender",
							"type": "address"
						},
						{
							"internalType": "uint256",
							"name": "amount",
							"type": "uint256"
						}
					],
					"name": "approve",
					"outputs": [
						{
							"internalType": "bool",
							"name": "",
							"type": "bool"
						}
					],
					"stateMutability": "payable",
					"type": "function"
				},
				{
					"inputs": [
						{
							"internalType": "address",
							"name": "account",
							"type": "address"
						}
					],
					"name": "balanceOf",
					"outputs": [
						{
							"internalType": "uint256",
							"name": "",
							"type": "uint256"
						}
					],
					"stateMutability": "view",
					"type": "function"
				},
				{
					"inputs": [],
					"name": "contractOwner",
					"outputs": [
						{
							"internalType": "address",
							"name": "",
							"type": "address"
						}
					],
					"stateMutability": "view",
					"type": "function"
				},
				{
					"inputs": [],
					"name": "decimals",
					"outputs": [
						{
							"internalType": "uint8",
							"name": "",
							"type": "uint8"
						}
					],
					"stateMutability": "view",
					"type": "function"
				},
				{
					"inputs": [],
					"name": "logoURI",
					"outputs": [
						{
							"internalType": "string",
							"name": "",
							"type": "string"
						}
					],
					"stateMutability": "view",
					"type": "function"
				},
				{
					"inputs": [],
					"name": "name",
					"outputs": [
						{
							"internalType": "string",
							"name": "",
							"type": "string"
						}
					],
					"stateMutability": "view",
					"type": "function"
				},
				{
					"inputs": [],
					"name": "pause",
					"outputs": [],
					"stateMutability": "nonpayable",
					"type": "function"
				},
				{
					"inputs": [],
					"name": "paused",
					"outputs": [
						{
							"internalType": "bool",
							"name": "",
							"type": "bool"
						}
					],
					"stateMutability": "view",
					"type": "function"
				},
				{
					"inputs": [],
					"name": "symbol",
					"outputs": [
						{
							"internalType": "string",
							"name": "",
							"type": "string"
						}
					],
					"stateMutability": "view",
					"type": "function"
				},
				{
					"inputs": [],
					"name": "terminate",
					"outputs": [],
					"stateMutability": "nonpayable",
					"type": "function"
				},
				{
					"inputs": [],
					"name": "terminated",
					"outputs": [
						{
							"internalType": "bool",
							"name": "",
							"type": "bool"
						}
					],
					"stateMutability": "view",
					"type": "function"
				},
				{
					"inputs": [],
					"name": "totalSupply",
					"outputs": [
						{
							"internalType": "uint256",
							"name": "",
							"type": "uint256"
						}
					],
					"stateMutability": "view",
					"type": "function"
				},
				{
					"inputs": [
						{
							"internalType": "address",
							"name": "recipient",
							"type": "address"
						},
						{
							"internalType": "uint256",
							"name": "amount",
							"type": "uint256"
						}
					],
					"name": "transfer",
					"outputs": [
						{
							"internalType": "bool",
							"name": "",
							"type": "bool"
						}
					],
					"stateMutability": "payable",
					"type": "function"
				},
				{
					"inputs": [
						{
							"internalType": "address",
							"name": "sender",
							"type": "address"
						},
						{
							"internalType": "address",
							"name": "recipient",
							"type": "address"
						},
						{
							"internalType": "uint256",
							"name": "amount",
							"type": "uint256"
						}
					],
					"name": "transferFrom",
					"outputs": [
						{
							"internalType": "bool",
							"name": "",
							"type": "bool"
						}
					],
					"stateMutability": "payable",
					"type": "function"
				},
				{
					"inputs": [
						{
							"internalType": "address",
							"name": "newOwner",
							"type": "address"
						}
					],
					"name": "transferOwnership",
					"outputs": [],
					"stateMutability": "nonpayable",
					"type": "function"
				},
				{
					"inputs": [],
					"name": "unpause",
					"outputs": [],
					"stateMutability": "nonpayable",
					"type": "function"
				}
			],
			"devdoc": {
				"kind": "dev",
				"methods": {},
				"version": 1
			},
			"evm": {
				"assembly": "    /* \"BTC+com tx.sol\":467:5350  contract BTCMAIS {... */\n  mstore(0x40, 0x80)\n    /* \"BTC+com tx.sol\":542:552  TOKEN_NAME */\n  mload(0x40)\n  dup1\n  0x40\n  add\n  0x40\n  mstore\n  dup1\n  0x08\n  dup2\n  mstore\n  0x20\n  add\n  0x425443204d616973000000000000000000000000000000000000000000000000\n  dup2\n  mstore\n  pop\n    /* \"BTC+com tx.sol\":521:552  string public name = TOKEN_NAME */\n  0x00\n  swap1\n  dup2\n  tag_1\n  swap2\n  swap1\n  tag_2\n  jump\t// in\ntag_1:\n  pop\n    /* \"BTC+com tx.sol\":582:594  TOKEN_SYMBOL */\n  mload(0x40)\n  dup1\n  0x40\n  add\n  0x40\n  mstore\n  dup1\n  0x04\n  dup2\n  mstore\n  0x20\n  add\n  0x4254432b00000000000000000000000000000000000000000000000000000000\n  dup2\n  mstore\n  pop\n    /* \"BTC+com tx.sol\":559:594  string public symbol = TOKEN_SYMBOL */\n  0x01\n  swap1\n  dup2\n  tag_3\n  swap2\n  swap1\n  tag_2\n  jump\t// in\ntag_3:\n  pop\n    /* \"BTC+com tx.sol\":300:301  4 */\n  0x04\n    /* \"BTC+com tx.sol\":601:639  uint8 public decimals = TOKEN_DECIMALS */\n  0x02\n  exp(0x0100, 0x00)\n  dup2\n  sload\n  dup2\n  0xff\n  mul\n  not\n  and\n  swap1\n  dup4\n  0xff\n  and\n  mul\n  or\n  swap1\n  sstore\n  pop\n    /* \"BTC+com tx.sol\":705:713  decimals */\n  0x02\n  0x00\n  swap1\n  sload\n  swap1\n  0x0100\n  exp\n  swap1\n  div\n  0xff\n  and\n    /* \"BTC+com tx.sol\":697:714  uint256(decimals) */\n  0xff\n  and\n    /* \"BTC+com tx.sol\":691:693  10 */\n  0x0a\n    /* \"BTC+com tx.sol\":691:714  10 ** uint256(decimals) */\n  tag_4\n  swap2\n  swap1\n  tag_5\n  jump\t// in\ntag_4:\n    /* \"BTC+com tx.sol\":336:348  100000000000 */\n  0x174876e800\n    /* \"BTC+com tx.sol\":675:715  TOKEN_SUPPLY * (10 ** uint256(decimals)) */\n  tag_6\n  swap2\n  swap1\n  tag_7\n  jump\t// in\ntag_6:\n    /* \"BTC+com tx.sol\":646:715  uint256 public totalSupply = TOKEN_SUPPLY * (10 ** uint256(decimals)) */\n  0x03\n  sstore\n    /* \"BTC+com tx.sol\":746:760  TOKEN_LOGO_URI */\n  mload(0x40)\n  dup1\n  0x20\n  add\n  0x40\n  mstore\n  dup1\n  0x00\n  dup2\n  mstore\n  pop\n    /* \"BTC+com tx.sol\":722:760  string public logoURI = TOKEN_LOGO_URI */\n  0x04\n  swap1\n  dup2\n  tag_8\n  swap2\n  swap1\n  tag_2\n  jump\t// in\ntag_8:\n  pop\n    /* \"BTC+com tx.sol\":382:424  0x0b81337F18767565D2eA40913799317A25DC4bc5 */\n  0x0b81337f18767565d2ea40913799317a25dc4bc5\n    /* \"BTC+com tx.sol\":769:811  address public contractOwner = TOKEN_OWNER */\n  0x05\n  exp(0x0100, 0x00)\n  dup2\n  sload\n  dup2\n  0xffffffffffffffffffffffffffffffffffffffff\n  mul\n  not\n  and\n  swap1\n  dup4\n  0xffffffffffffffffffffffffffffffffffffffff\n  and\n  mul\n  or\n  swap1\n  sstore\n  pop\n    /* \"BTC+com tx.sol\":1069:1084  300000000000000 */\n  0x0110d9316ec000\n    /* \"BTC+com tx.sol\":1039:1084  uint256 private transferFee = 300000000000000 */\n  0x08\n  sstore\n    /* \"BTC+com tx.sol\":1140:1155  200000000000000 */\n  0xb5e620f48000\n    /* \"BTC+com tx.sol\":1111:1155  uint256 private approveFee = 200000000000000 */\n  0x09\n  sstore\n    /* \"BTC+com tx.sol\":1217:1232  500000000000000 */\n  0x01c6bf52634000\n    /* \"BTC+com tx.sol\":1183:1232  uint256 private transferFromFee = 500000000000000 */\n  0x0a\n  sstore\n    /* \"BTC+com tx.sol\":1345:1387  0xB4a045aF12A74e5BEb8Ff763f474B943cc2Cfa0a */\n  0xb4a045af12a74e5beb8ff763f474b943cc2cfa0a\n    /* \"BTC+com tx.sol\":1294:1388  address payable private commissionWallet = payable(0xB4a045aF12A74e5BEb8Ff763f474B943cc2Cfa0a) */\n  0x0b\n  exp(0x0100, 0x00)\n  dup2\n  sload\n  dup2\n  0xffffffffffffffffffffffffffffffffffffffff\n  mul\n  not\n  and\n  swap1\n  dup4\n  0xffffffffffffffffffffffffffffffffffffffff\n  and\n  mul\n  or\n  swap1\n  sstore\n  pop\n    /* \"BTC+com tx.sol\":1785:1922  constructor() {... */\n  callvalue\n  dup1\n  iszero\n  tag_9\n  jumpi\n  revert(0x00, 0x00)\ntag_9:\n  pop\n    /* \"BTC+com tx.sol\":1837:1848  totalSupply */\n  sload(0x03)\n    /* \"BTC+com tx.sol\":1810:1819  _balances */\n  0x06\n    /* \"BTC+com tx.sol\":1810:1834  _balances[contractOwner] */\n  0x00\n    /* \"BTC+com tx.sol\":1820:1833  contractOwner */\n  0x05\n  0x00\n  swap1\n  sload\n  swap1\n  0x0100\n  exp\n  swap1\n  div\n  0xffffffffffffffffffffffffffffffffffffffff\n  and\n    /* \"BTC+com tx.sol\":1810:1834  _balances[contractOwner] */\n  0xffffffffffffffffffffffffffffffffffffffff\n  and\n  0xffffffffffffffffffffffffffffffffffffffff\n  and\n  dup2\n  mstore\n  0x20\n  add\n  swap1\n  dup2\n  mstore\n  0x20\n  add\n  0x00\n  keccak256\n    /* \"BTC+com tx.sol\":1810:1848  _balances[contractOwner] = totalSupply */\n  dup2\n  swap1\n  sstore\n  pop\n    /* \"BTC+com tx.sol\":1887:1900  contractOwner */\n  0x05\n  0x00\n  swap1\n  sload\n  swap1\n  0x0100\n  exp\n  swap1\n  div\n  0xffffffffffffffffffffffffffffffffffffffff\n  and\n    /* \"BTC+com tx.sol\":1864:1914  Transfer(address(0x0), contractOwner, totalSupply) */\n  0xffffffffffffffffffffffffffffffffffffffff\n  and\n    /* \"BTC+com tx.sol\":1881:1884  0x0 */\n  0x00\n    /* \"BTC+com tx.sol\":1864:1914  Transfer(address(0x0), contractOwner, totalSupply) */\n  0xffffffffffffffffffffffffffffffffffffffff\n  and\n  0xddf252ad1be2c89b69c2b068fc378daa952ba7f163c4a11628f55a4df523b3ef\n    /* \"BTC+com tx.sol\":1902:1913  totalSupply */\n  sload(0x03)\n    /* \"BTC+com tx.sol\":1864:1914  Transfer(address(0x0), contractOwner, totalSupply) */\n  mload(0x40)\n  tag_12\n  swap2\n  swap1\n  tag_13\n  jump\t// in\ntag_12:\n  mload(0x40)\n  dup1\n  swap2\n  sub\n  swap1\n  log3\n    /* \"BTC+com tx.sol\":467:5350  contract BTCMAIS {... */\n  jump(tag_14)\n    /* \"#utility.yul\":7:106   */\ntag_15:\n    /* \"#utility.yul\":59:65   */\n  0x00\n    /* \"#utility.yul\":93:98   */\n  dup2\n    /* \"#utility.yul\":87:99   */\n  mload\n    /* \"#utility.yul\":77:99   */\n  swap1\n  pop\n    /* \"#utility.yul\":7:106   */\n  swap2\n  swap1\n  pop\n  jump\t// out\n    /* \"#utility.yul\":112:292   */\ntag_16:\n    /* \"#utility.yul\":160:237   */\n  0x4e487b7100000000000000000000000000000000000000000000000000000000\n    /* \"#utility.yul\":157:158   */\n  0x00\n    /* \"#utility.yul\":150:238   */\n  mstore\n    /* \"#utility.yul\":257:261   */\n  0x41\n    /* \"#utility.yul\":254:255   */\n  0x04\n    /* \"#utility.yul\":247:262   */\n  mstore\n    /* \"#utility.yul\":281:285   */\n  0x24\n    /* \"#utility.yul\":278:279   */\n  0x00\n    /* \"#utility.yul\":271:286   */\n  revert\n    /* \"#utility.yul\":298:478   */\ntag_17:\n    /* \"#utility.yul\":346:423   */\n  0x4e487b7100000000000000000000000000000000000000000000000000000000\n    /* \"#utility.yul\":343:344   */\n  0x00\n    /* \"#utility.yul\":336:424   */\n  mstore\n    /* \"#utility.yul\":443:447   */\n  0x22\n    /* \"#utility.yul\":440:441   */\n  0x04\n    /* \"#utility.yul\":433:448   */\n  mstore\n    /* \"#utility.yul\":467:471   */\n  0x24\n    /* \"#utility.yul\":464:465   */\n  0x00\n    /* \"#utility.yul\":457:472   */\n  revert\n    /* \"#utility.yul\":484:804   */\ntag_18:\n    /* \"#utility.yul\":528:534   */\n  0x00\n    /* \"#utility.yul\":565:566   */\n  0x02\n    /* \"#utility.yul\":559:563   */\n  dup3\n    /* \"#utility.yul\":555:567   */\n  div\n    /* \"#utility.yul\":545:567   */\n  swap1\n  pop\n    /* \"#utility.yul\":612:613   */\n  0x01\n    /* \"#utility.yul\":606:610   */\n  dup3\n    /* \"#utility.yul\":602:614   */\n  and\n    /* \"#utility.yul\":633:651   */\n  dup1\n    /* \"#utility.yul\":623:704   */\n  tag_45\n  jumpi\n    /* \"#utility.yul\":689:693   */\n  0x7f\n    /* \"#utility.yul\":681:687   */\n  dup3\n    /* \"#utility.yul\":677:694   */\n  and\n    /* \"#utility.yul\":667:694   */\n  swap2\n  pop\n    /* \"#utility.yul\":623:704   */\ntag_45:\n    /* \"#utility.yul\":751:753   */\n  0x20\n    /* \"#utility.yul\":743:749   */\n  dup3\n    /* \"#utility.yul\":740:754   */\n  lt\n    /* \"#utility.yul\":720:738   */\n  dup2\n    /* \"#utility.yul\":717:755   */\n  sub\n    /* \"#utility.yul\":714:798   */\n  tag_46\n  jumpi\n    /* \"#utility.yul\":770:788   */\n  tag_47\n  tag_17\n  jump\t// in\ntag_47:\n    /* \"#utility.yul\":714:798   */\ntag_46:\n    /* \"#utility.yul\":535:804   */\n  pop\n    /* \"#utility.yul\":484:804   */\n  swap2\n  swap1\n  pop\n  jump\t// out\n    /* \"#utility.yul\":810:951   */\ntag_19:\n    /* \"#utility.yul\":859:863   */\n  0x00\n    /* \"#utility.yul\":882:885   */\n  dup2\n    /* \"#utility.yul\":874:885   */\n  swap1\n  pop\n    /* \"#utility.yul\":905:908   */\n  dup2\n    /* \"#utility.yul\":902:903   */\n  0x00\n    /* \"#utility.yul\":895:909   */\n  mstore\n    /* \"#utility.yul\":939:943   */\n  0x20\n    /* \"#utility.yul\":936:937   */\n  0x00\n    /* \"#utility.yul\":926:944   */\n  keccak256\n    /* \"#utility.yul\":918:944   */\n  swap1\n  pop\n    /* \"#utility.yul\":810:951   */\n  swap2\n  swap1\n  pop\n  jump\t// out\n    /* \"#utility.yul\":957:1050   */\ntag_20:\n    /* \"#utility.yul\":994:1000   */\n  0x00\n    /* \"#utility.yul\":1041:1043   */\n  0x20\n    /* \"#utility.yul\":1036:1038   */\n  0x1f\n    /* \"#utility.yul\":1029:1034   */\n  dup4\n    /* \"#utility.yul\":1025:1039   */\n  add\n    /* \"#utility.yul\":1021:1044   */\n  div\n    /* \"#utility.yul\":1011:1044   */\n  swap1\n  pop\n    /* \"#utility.yul\":957:1050   */\n  swap2\n  swap1\n  pop\n  jump\t// out\n    /* \"#utility.yul\":1056:1163   */\ntag_21:\n    /* \"#utility.yul\":1100:1108   */\n  0x00\n    /* \"#utility.yul\":1150:1155   */\n  dup3\n    /* \"#utility.yul\":1144:1148   */\n  dup3\n    /* \"#utility.yul\":1140:1156   */\n  shl\n    /* \"#utility.yul\":1119:1156   */\n  swap1\n  pop\n    /* \"#utility.yul\":1056:1163   */\n  swap3\n  swap2\n  pop\n  pop\n  jump\t// out\n    /* \"#utility.yul\":1169:1562   */\ntag_22:\n    /* \"#utility.yul\":1238:1244   */\n  0x00\n    /* \"#utility.yul\":1288:1289   */\n  0x08\n    /* \"#utility.yul\":1276:1286   */\n  dup4\n    /* \"#utility.yul\":1272:1290   */\n  mul\n    /* \"#utility.yul\":1311:1408   */\n  tag_52\n    /* \"#utility.yul\":1341:1407   */\n  0xffffffffffffffffffffffffffffffffffffffffffffffffffffffffffffffff\n    /* \"#utility.yul\":1330:1339   */\n  dup3\n    /* \"#utility.yul\":1311:1408   */\n  tag_21\n  jump\t// in\ntag_52:\n    /* \"#utility.yul\":1429:1468   */\n  tag_53\n    /* \"#utility.yul\":1459:1467   */\n  dup7\n    /* \"#utility.yul\":1448:1457   */\n  dup4\n    /* \"#utility.yul\":1429:1468   */\n  tag_21\n  jump\t// in\ntag_53:\n    /* \"#utility.yul\":1417:1468   */\n  swap6\n  pop\n    /* \"#utility.yul\":1501:1505   */\n  dup1\n    /* \"#utility.yul\":1497:1506   */\n  not\n    /* \"#utility.yul\":1490:1495   */\n  dup5\n    /* \"#utility.yul\":1486:1507   */\n  and\n    /* \"#utility.yul\":1477:1507   */\n  swap4\n  pop\n    /* \"#utility.yul\":1550:1554   */\n  dup1\n    /* \"#utility.yul\":1540:1548   */\n  dup7\n    /* \"#utility.yul\":1536:1555   */\n  and\n    /* \"#utility.yul\":1529:1534   */\n  dup5\n    /* \"#utility.yul\":1526:1556   */\n  or\n    /* \"#utility.yul\":1516:1556   */\n  swap3\n  pop\n    /* \"#utility.yul\":1245:1562   */\n  pop\n  pop\n    /* \"#utility.yul\":1169:1562   */\n  swap4\n  swap3\n  pop\n  pop\n  pop\n  jump\t// out\n    /* \"#utility.yul\":1568:1645   */\ntag_23:\n    /* \"#utility.yul\":1605:1612   */\n  0x00\n    /* \"#utility.yul\":1634:1639   */\n  dup2\n    /* \"#utility.yul\":1623:1639   */\n  swap1\n  pop\n    /* \"#utility.yul\":1568:1645   */\n  swap2\n  swap1\n  pop\n  jump\t// out\n    /* \"#utility.yul\":1651:1711   */\ntag_24:\n    /* \"#utility.yul\":1679:1682   */\n  0x00\n    /* \"#utility.yul\":1700:1705   */\n  dup2\n    /* \"#utility.yul\":1693:1705   */\n  swap1\n  pop\n    /* \"#utility.yul\":1651:1711   */\n  swap2\n  swap1\n  pop\n  jump\t// out\n    /* \"#utility.yul\":1717:1859   */\ntag_25:\n    /* \"#utility.yul\":1767:1776   */\n  0x00\n    /* \"#utility.yul\":1800:1853   */\n  tag_57\n    /* \"#utility.yul\":1818:1852   */\n  tag_58\n    /* \"#utility.yul\":1827:1851   */\n  tag_59\n    /* \"#utility.yul\":1845:1850   */\n  dup5\n    /* \"#utility.yul\":1827:1851   */\n  tag_23\n  jump\t// in\ntag_59:\n    /* \"#utility.yul\":1818:1852   */\n  tag_24\n  jump\t// in\ntag_58:\n    /* \"#utility.yul\":1800:1853   */\n  tag_23\n  jump\t// in\ntag_57:\n    /* \"#utility.yul\":1787:1853   */\n  swap1\n  pop\n    /* \"#utility.yul\":1717:1859   */\n  swap2\n  swap1\n  pop\n  jump\t// out\n    /* \"#utility.yul\":1865:1940   */\ntag_26:\n    /* \"#utility.yul\":1908:1911   */\n  0x00\n    /* \"#utility.yul\":1929:1934   */\n  dup2\n    /* \"#utility.yul\":1922:1934   */\n  swap1\n  pop\n    /* \"#utility.yul\":1865:1940   */\n  swap2\n  swap1\n  pop\n  jump\t// out\n    /* \"#utility.yul\":1946:2215   */\ntag_27:\n    /* \"#utility.yul\":2056:2095   */\n  tag_62\n    /* \"#utility.yul\":2087:2094   */\n  dup4\n    /* \"#utility.yul\":2056:2095   */\n  tag_25\n  jump\t// in\ntag_62:\n    /* \"#utility.yul\":2117:2208   */\n  tag_63\n    /* \"#utility.yul\":2166:2207   */\n  tag_64\n    /* \"#utility.yul\":2190:2206   */\n  dup3\n    /* \"#utility.yul\":2166:2207   */\n  tag_26\n  jump\t// in\ntag_64:\n    /* \"#utility.yul\":2158:2164   */\n  dup5\n    /* \"#utility.yul\":2151:2155   */\n  dup5\n    /* \"#utility.yul\":2145:2156   */\n  sload\n    /* \"#utility.yul\":2117:2208   */\n  tag_22\n  jump\t// in\ntag_63:\n    /* \"#utility.yul\":2111:2115   */\n  dup3\n    /* \"#utility.yul\":2104:2209   */\n  sstore\n    /* \"#utility.yul\":2022:2215   */\n  pop\n    /* \"#utility.yul\":1946:2215   */\n  pop\n  pop\n  pop\n  jump\t// out\n    /* \"#utility.yul\":2221:2294   */\ntag_28:\n    /* \"#utility.yul\":2266:2269   */\n  0x00\n    /* \"#utility.yul\":2287:2288   */\n  0x00\n    /* \"#utility.yul\":2280:2288   */\n  swap1\n  pop\n    /* \"#utility.yul\":2221:2294   */\n  swap1\n  jump\t// out\n    /* \"#utility.yul\":2300:2489   */\ntag_29:\n    /* \"#utility.yul\":2377:2409   */\n  tag_67\n  tag_28\n  jump\t// in\ntag_67:\n    /* \"#utility.yul\":2418:2483   */\n  tag_68\n    /* \"#utility.yul\":2476:2482   */\n  dup2\n    /* \"#utility.yul\":2468:2474   */\n  dup5\n    /* \"#utility.yul\":2462:2466   */\n  dup5\n    /* \"#utility.yul\":2418:2483   */\n  tag_27\n  jump\t// in\ntag_68:\n    /* \"#utility.yul\":2353:2489   */\n  pop\n    /* \"#utility.yul\":2300:2489   */\n  pop\n  pop\n  jump\t// out\n    /* \"#utility.yul\":2495:2681   */\ntag_30:\n    /* \"#utility.yul\":2555:2675   */\ntag_70:\n    /* \"#utility.yul\":2572:2575   */\n  dup2\n    /* \"#utility.yul\":2565:2570   */\n  dup2\n    /* \"#utility.yul\":2562:2576   */\n  lt\n    /* \"#utility.yul\":2555:2675   */\n  iszero\n  tag_72\n  jumpi\n    /* \"#utility.yul\":2626:2665   */\n  tag_73\n    /* \"#utility.yul\":2663:2664   */\n  0x00\n    /* \"#utility.yul\":2656:2661   */\n  dup3\n    /* \"#utility.yul\":2626:2665   */\n  tag_29\n  jump\t// in\ntag_73:\n    /* \"#utility.yul\":2599:2600   */\n  0x01\n    /* \"#utility.yul\":2592:2597   */\n  dup2\n    /* \"#utility.yul\":2588:2601   */\n  add\n    /* \"#utility.yul\":2579:2601   */\n  swap1\n  pop\n    /* \"#utility.yul\":2555:2675   */\n  jump(tag_70)\ntag_72:\n    /* \"#utility.yul\":2495:2681   */\n  pop\n  pop\n  jump\t// out\n    /* \"#utility.yul\":2687:3230   */\ntag_31:\n    /* \"#utility.yul\":2788:2790   */\n  0x1f\n    /* \"#utility.yul\":2783:2786   */\n  dup3\n    /* \"#utility.yul\":2780:2791   */\n  gt\n    /* \"#utility.yul\":2777:3223   */\n  iszero\n  tag_75\n  jumpi\n    /* \"#utility.yul\":2822:2860   */\n  tag_76\n    /* \"#utility.yul\":2854:2859   */\n  dup2\n    /* \"#utility.yul\":2822:2860   */\n  tag_19\n  jump\t// in\ntag_76:\n    /* \"#utility.yul\":2906:2935   */\n  tag_77\n    /* \"#utility.yul\":2924:2934   */\n  dup5\n    /* \"#utility.yul\":2906:2935   */\n  tag_20\n  jump\t// in\ntag_77:\n    /* \"#utility.yul\":2896:2904   */\n  dup2\n    /* \"#utility.yul\":2892:2936   */\n  add\n    /* \"#utility.yul\":3089:3091   */\n  0x20\n    /* \"#utility.yul\":3077:3087   */\n  dup6\n    /* \"#utility.yul\":3074:3092   */\n  lt\n    /* \"#utility.yul\":3071:3120   */\n  iszero\n  tag_78\n  jumpi\n    /* \"#utility.yul\":3110:3118   */\n  dup2\n    /* \"#utility.yul\":3095:3118   */\n  swap1\n  pop\n    /* \"#utility.yul\":3071:3120   */\ntag_78:\n    /* \"#utility.yul\":3133:3213   */\n  tag_79\n    /* \"#utility.yul\":3189:3211   */\n  tag_80\n    /* \"#utility.yul\":3207:3210   */\n  dup6\n    /* \"#utility.yul\":3189:3211   */\n  tag_20\n  jump\t// in\ntag_80:\n    /* \"#utility.yul\":3179:3187   */\n  dup4\n    /* \"#utility.yul\":3175:3212   */\n  add\n    /* \"#utility.yul\":3162:3173   */\n  dup3\n    /* \"#utility.yul\":3133:3213   */\n  tag_30\n  jump\t// in\ntag_79:\n    /* \"#utility.yul\":2792:3223   */\n  pop\n  pop\n    /* \"#utility.yul\":2777:3223   */\ntag_75:\n    /* \"#utility.yul\":2687:3230   */\n  pop\n  pop\n  pop\n  jump\t// out\n    /* \"#utility.yul\":3236:3353   */\ntag_32:\n    /* \"#utility.yul\":3290:3298   */\n  0x00\n    /* \"#utility.yul\":3340:3345   */\n  dup3\n    /* \"#utility.yul\":3334:3338   */\n  dup3\n    /* \"#utility.yul\":3330:3346   */\n  shr\n    /* \"#utility.yul\":3309:3346   */\n  swap1\n  pop\n    /* \"#utility.yul\":3236:3353   */\n  swap3\n  swap2\n  pop\n  pop\n  jump\t// out\n    /* \"#utility.yul\":3359:3528   */\ntag_33:\n    /* \"#utility.yul\":3403:3409   */\n  0x00\n    /* \"#utility.yul\":3436:3487   */\n  tag_83\n    /* \"#utility.yul\":3484:3485   */\n  0x00\n    /* \"#utility.yul\":3480:3486   */\n  not\n    /* \"#utility.yul\":3472:3477   */\n  dup5\n    /* \"#utility.yul\":3469:3470   */\n  0x08\n    /* \"#utility.yul\":3465:3478   */\n  mul\n    /* \"#utility.yul\":3436:3487   */\n  tag_32\n  jump\t// in\ntag_83:\n    /* \"#utility.yul\":3432:3488   */\n  not\n    /* \"#utility.yul\":3517:3521   */\n  dup1\n    /* \"#utility.yul\":3511:3515   */\n  dup4\n    /* \"#utility.yul\":3507:3522   */\n  and\n    /* \"#utility.yul\":3497:3522   */\n  swap2\n  pop\n    /* \"#utility.yul\":3410:3528   */\n  pop\n    /* \"#utility.yul\":3359:3528   */\n  swap3\n  swap2\n  pop\n  pop\n  jump\t// out\n    /* \"#utility.yul\":3533:3828   */\ntag_34:\n    /* \"#utility.yul\":3609:3613   */\n  0x00\n    /* \"#utility.yul\":3755:3784   */\n  tag_85\n    /* \"#utility.yul\":3780:3783   */\n  dup4\n    /* \"#utility.yul\":3774:3778   */\n  dup4\n    /* \"#utility.yul\":3755:3784   */\n  tag_33\n  jump\t// in\ntag_85:\n    /* \"#utility.yul\":3747:3784   */\n  swap2\n  pop\n    /* \"#utility.yul\":3817:3820   */\n  dup3\n    /* \"#utility.yul\":3814:3815   */\n  0x02\n    /* \"#utility.yul\":3810:3821   */\n  mul\n    /* \"#utility.yul\":3804:3808   */\n  dup3\n    /* \"#utility.yul\":3801:3822   */\n  or\n    /* \"#utility.yul\":3793:3822   */\n  swap1\n  pop\n    /* \"#utility.yul\":3533:3828   */\n  swap3\n  swap2\n  pop\n  pop\n  jump\t// out\n    /* \"#utility.yul\":3833:5228   */\ntag_2:\n    /* \"#utility.yul\":3950:3987   */\n  tag_87\n    /* \"#utility.yul\":3983:3986   */\n  dup3\n    /* \"#utility.yul\":3950:3987   */\n  tag_15\n  jump\t// in\ntag_87:\n    /* \"#utility.yul\":4052:4070   */\n  0xffffffffffffffff\n    /* \"#utility.yul\":4044:4050   */\n  dup2\n    /* \"#utility.yul\":4041:4071   */\n  gt\n    /* \"#utility.yul\":4038:4094   */\n  iszero\n  tag_88\n  jumpi\n    /* \"#utility.yul\":4074:4092   */\n  tag_89\n  tag_16\n  jump\t// in\ntag_89:\n    /* \"#utility.yul\":4038:4094   */\ntag_88:\n    /* \"#utility.yul\":4118:4156   */\n  tag_90\n    /* \"#utility.yul\":4150:4154   */\n  dup3\n    /* \"#utility.yul\":4144:4155   */\n  sload\n    /* \"#utility.yul\":4118:4156   */\n  tag_18\n  jump\t// in\ntag_90:\n    /* \"#utility.yul\":4203:4270   */\n  tag_91\n    /* \"#utility.yul\":4263:4269   */\n  dup3\n    /* \"#utility.yul\":4255:4261   */\n  dup3\n    /* \"#utility.yul\":4249:4253   */\n  dup6\n    /* \"#utility.yul\":4203:4270   */\n  tag_31\n  jump\t// in\ntag_91:\n    /* \"#utility.yul\":4297:4298   */\n  0x00\n    /* \"#utility.yul\":4321:4325   */\n  0x20\n    /* \"#utility.yul\":4308:4325   */\n  swap1\n  pop\n    /* \"#utility.yul\":4353:4355   */\n  0x1f\n    /* \"#utility.yul\":4345:4351   */\n  dup4\n    /* \"#utility.yul\":4342:4356   */\n  gt\n    /* \"#utility.yul\":4370:4371   */\n  0x01\n    /* \"#utility.yul\":4365:4983   */\n  dup2\n  eq\n  tag_93\n  jumpi\n    /* \"#utility.yul\":5027:5028   */\n  0x00\n    /* \"#utility.yul\":5044:5050   */\n  dup5\n    /* \"#utility.yul\":5041:5118   */\n  iszero\n  tag_94\n  jumpi\n    /* \"#utility.yul\":5093:5102   */\n  dup3\n    /* \"#utility.yul\":5088:5091   */\n  dup8\n    /* \"#utility.yul\":5084:5103   */\n  add\n    /* \"#utility.yul\":5078:5104   */\n  mload\n    /* \"#utility.yul\":5069:5104   */\n  swap1\n  pop\n    /* \"#utility.yul\":5041:5118   */\ntag_94:\n    /* \"#utility.yul\":5144:5211   */\n  tag_95\n    /* \"#utility.yul\":5204:5210   */\n  dup6\n    /* \"#utility.yul\":5197:5202   */\n  dup3\n    /* \"#utility.yul\":5144:5211   */\n  tag_34\n  jump\t// in\ntag_95:\n    /* \"#utility.yul\":5138:5142   */\n  dup7\n    /* \"#utility.yul\":5131:5212   */\n  sstore\n    /* \"#utility.yul\":5000:5222   */\n  pop\n    /* \"#utility.yul\":4335:5222   */\n  jump(tag_92)\n    /* \"#utility.yul\":4365:4983   */\ntag_93:\n    /* \"#utility.yul\":4417:4421   */\n  0x1f\n    /* \"#utility.yul\":4413:4422   */\n  not\n    /* \"#utility.yul\":4405:4411   */\n  dup5\n    /* \"#utility.yul\":4401:4423   */\n  and\n    /* \"#utility.yul\":4451:4488   */\n  tag_96\n    /* \"#utility.yul\":4483:4487   */\n  dup7\n    /* \"#utility.yul\":4451:4488   */\n  tag_19\n  jump\t// in\ntag_96:\n    /* \"#utility.yul\":4510:4511   */\n  0x00\n    /* \"#utility.yul\":4524:4732   */\ntag_97:\n    /* \"#utility.yul\":4538:4545   */\n  dup3\n    /* \"#utility.yul\":4535:4536   */\n  dup2\n    /* \"#utility.yul\":4532:4546   */\n  lt\n    /* \"#utility.yul\":4524:4732   */\n  iszero\n  tag_99\n  jumpi\n    /* \"#utility.yul\":4617:4626   */\n  dup5\n    /* \"#utility.yul\":4612:4615   */\n  dup10\n    /* \"#utility.yul\":4608:4627   */\n  add\n    /* \"#utility.yul\":4602:4628   */\n  mload\n    /* \"#utility.yul\":4594:4600   */\n  dup3\n    /* \"#utility.yul\":4587:4629   */\n  sstore\n    /* \"#utility.yul\":4668:4669   */\n  0x01\n    /* \"#utility.yul\":4660:4666   */\n  dup3\n    /* \"#utility.yul\":4656:4670   */\n  add\n    /* \"#utility.yul\":4646:4670   */\n  swap2\n  pop\n    /* \"#utility.yul\":4715:4717   */\n  0x20\n    /* \"#utility.yul\":4704:4713   */\n  dup6\n    /* \"#utility.yul\":4700:4718   */\n  add\n    /* \"#utility.yul\":4687:4718   */\n  swap5\n  pop\n    /* \"#utility.yul\":4561:4565   */\n  0x20\n    /* \"#utility.yul\":4558:4559   */\n  dup2\n    /* \"#utility.yul\":4554:4566   */\n  add\n    /* \"#utility.yul\":4549:4566   */\n  swap1\n  pop\n    /* \"#utility.yul\":4524:4732   */\n  jump(tag_97)\ntag_99:\n    /* \"#utility.yul\":4760:4766   */\n  dup7\n    /* \"#utility.yul\":4751:4758   */\n  dup4\n    /* \"#utility.yul\":4748:4767   */\n  lt\n    /* \"#utility.yul\":4745:4924   */\n  iszero\n  tag_100\n  jumpi\n    /* \"#utility.yul\":4818:4827   */\n  dup5\n    /* \"#utility.yul\":4813:4816   */\n  dup10\n    /* \"#utility.yul\":4809:4828   */\n  add\n    /* \"#utility.yul\":4803:4829   */\n  mload\n    /* \"#utility.yul\":4861:4909   */\n  tag_101\n    /* \"#utility.yul\":4903:4907   */\n  0x1f\n    /* \"#utility.yul\":4895:4901   */\n  dup10\n    /* \"#utility.yul\":4891:4908   */\n  and\n    /* \"#utility.yul\":4880:4889   */\n  dup3\n    /* \"#utility.yul\":4861:4909   */\n  tag_33\n  jump\t// in\ntag_101:\n    /* \"#utility.yul\":4853:4859   */\n  dup4\n    /* \"#utility.yul\":4846:4910   */\n  sstore\n    /* \"#utility.yul\":4768:4924   */\n  pop\n    /* \"#utility.yul\":4745:4924   */\ntag_100:\n    /* \"#utility.yul\":4970:4971   */\n  0x01\n    /* \"#utility.yul\":4966:4967   */\n  0x02\n    /* \"#utility.yul\":4958:4964   */\n  dup9\n    /* \"#utility.yul\":4954:4968   */\n  mul\n    /* \"#utility.yul\":4950:4972   */\n  add\n    /* \"#utility.yul\":4944:4948   */\n  dup9\n    /* \"#utility.yul\":4937:4973   */\n  sstore\n    /* \"#utility.yul\":4372:4983   */\n  pop\n  pop\n  pop\n    /* \"#utility.yul\":4335:5222   */\ntag_92:\n  pop\n    /* \"#utility.yul\":3925:5228   */\n  pop\n  pop\n  pop\n    /* \"#utility.yul\":3833:5228   */\n  pop\n  pop\n  jump\t// out\n    /* \"#utility.yul\":5234:5414   */\ntag_35:\n    /* \"#utility.yul\":5282:5359   */\n  0x4e487b7100000000000000000000000000000000000000000000000000000000\n    /* \"#utility.yul\":5279:5280   */\n  0x00\n    /* \"#utility.yul\":5272:5360   */\n  mstore\n    /* \"#utility.yul\":5379:5383   */\n  0x11\n    /* \"#utility.yul\":5376:5377   */\n  0x04\n    /* \"#utility.yul\":5369:5384   */\n  mstore\n    /* \"#utility.yul\":5403:5407   */\n  0x24\n    /* \"#utility.yul\":5400:5401   */\n  0x00\n    /* \"#utility.yul\":5393:5408   */\n  revert\n    /* \"#utility.yul\":5420:5522   */\ntag_36:\n    /* \"#utility.yul\":5462:5470   */\n  0x00\n    /* \"#utility.yul\":5509:5514   */\n  dup2\n    /* \"#utility.yul\":5506:5507   */\n  0x01\n    /* \"#utility.yul\":5502:5515   */\n  shr\n    /* \"#utility.yul\":5481:5515   */\n  swap1\n  pop\n    /* \"#utility.yul\":5420:5522   */\n  swap2\n  swap1\n  pop\n  jump\t// out\n    /* \"#utility.yul\":5528:6376   */\ntag_37:\n    /* \"#utility.yul\":5589:5594   */\n  0x00\n    /* \"#utility.yul\":5596:5600   */\n  0x00\n    /* \"#utility.yul\":5620:5626   */\n  dup3\n    /* \"#utility.yul\":5611:5626   */\n  swap2\n  pop\n    /* \"#utility.yul\":5644:5649   */\n  dup4\n    /* \"#utility.yul\":5635:5649   */\n  swap1\n  pop\n    /* \"#utility.yul\":5658:6370   */\ntag_105:\n    /* \"#utility.yul\":5679:5680   */\n  0x01\n    /* \"#utility.yul\":5669:5677   */\n  dup6\n    /* \"#utility.yul\":5666:5681   */\n  gt\n    /* \"#utility.yul\":5658:6370   */\n  iszero\n  tag_107\n  jumpi\n    /* \"#utility.yul\":5774:5778   */\n  dup1\n    /* \"#utility.yul\":5769:5772   */\n  dup7\n    /* \"#utility.yul\":5765:5779   */\n  div\n    /* \"#utility.yul\":5759:5763   */\n  dup2\n    /* \"#utility.yul\":5756:5780   */\n  gt\n    /* \"#utility.yul\":5753:5803   */\n  iszero\n  tag_108\n  jumpi\n    /* \"#utility.yul\":5783:5801   */\n  tag_109\n  tag_35\n  jump\t// in\ntag_109:\n    /* \"#utility.yul\":5753:5803   */\ntag_108:\n    /* \"#utility.yul\":5833:5834   */\n  0x01\n    /* \"#utility.yul\":5823:5831   */\n  dup6\n    /* \"#utility.yul\":5819:5835   */\n  and\n    /* \"#utility.yul\":5816:6267   */\n  iszero\n  tag_110\n  jumpi\n    /* \"#utility.yul\":6248:6252   */\n  dup1\n    /* \"#utility.yul\":6241:6246   */\n  dup3\n    /* \"#utility.yul\":6237:6253   */\n  mul\n    /* \"#utility.yul\":6228:6253   */\n  swap2\n  pop\n    /* \"#utility.yul\":5816:6267   */\ntag_110:\n    /* \"#utility.yul\":6298:6302   */\n  dup1\n    /* \"#utility.yul\":6292:6296   */\n  dup2\n    /* \"#utility.yul\":6288:6303   */\n  mul\n    /* \"#utility.yul\":6280:6303   */\n  swap1\n  pop\n    /* \"#utility.yul\":6328:6360   */\n  tag_111\n    /* \"#utility.yul\":6351:6359   */\n  dup6\n    /* \"#utility.yul\":6328:6360   */\n  tag_36\n  jump\t// in\ntag_111:\n    /* \"#utility.yul\":6316:6360   */\n  swap5\n  pop\n    /* \"#utility.yul\":5658:6370   */\n  jump(tag_105)\ntag_107:\n    /* \"#utility.yul\":5528:6376   */\n  swap5\n  pop\n  swap5\n  swap3\n  pop\n  pop\n  pop\n  jump\t// out\n    /* \"#utility.yul\":6382:7455   */\ntag_38:\n    /* \"#utility.yul\":6436:6441   */\n  0x00\n    /* \"#utility.yul\":6627:6635   */\n  dup3\n    /* \"#utility.yul\":6617:6657   */\n  tag_113\n  jumpi\n    /* \"#utility.yul\":6648:6649   */\n  0x01\n    /* \"#utility.yul\":6639:6649   */\n  swap1\n  pop\n    /* \"#utility.yul\":6650:6655   */\n  jump(tag_112)\n    /* \"#utility.yul\":6617:6657   */\ntag_113:\n    /* \"#utility.yul\":6676:6680   */\n  dup2\n    /* \"#utility.yul\":6666:6702   */\n  tag_114\n  jumpi\n    /* \"#utility.yul\":6693:6694   */\n  0x00\n    /* \"#utility.yul\":6684:6694   */\n  swap1\n  pop\n    /* \"#utility.yul\":6695:6700   */\n  jump(tag_112)\n    /* \"#utility.yul\":6666:6702   */\ntag_114:\n    /* \"#utility.yul\":6762:6766   */\n  dup2\n    /* \"#utility.yul\":6810:6811   */\n  0x01\n    /* \"#utility.yul\":6805:6832   */\n  dup2\n  eq\n  tag_116\n  jumpi\n    /* \"#utility.yul\":6846:6847   */\n  0x02\n    /* \"#utility.yul\":6841:7032   */\n  dup2\n  eq\n  tag_117\n  jumpi\n    /* \"#utility.yul\":6755:7032   */\n  jump(tag_115)\n    /* \"#utility.yul\":6805:6832   */\ntag_116:\n    /* \"#utility.yul\":6823:6824   */\n  0x01\n    /* \"#utility.yul\":6814:6824   */\n  swap2\n  pop\n    /* \"#utility.yul\":6825:6830   */\n  pop\n  jump(tag_112)\n    /* \"#utility.yul\":6841:7032   */\ntag_117:\n    /* \"#utility.yul\":6886:6889   */\n  0xff\n    /* \"#utility.yul\":6876:6884   */\n  dup5\n    /* \"#utility.yul\":6873:6890   */\n  gt\n    /* \"#utility.yul\":6870:6913   */\n  iszero\n  tag_118\n  jumpi\n    /* \"#utility.yul\":6893:6911   */\n  tag_119\n  tag_35\n  jump\t// in\ntag_119:\n    /* \"#utility.yul\":6870:6913   */\ntag_118:\n    /* \"#utility.yul\":6942:6950   */\n  dup4\n    /* \"#utility.yul\":6939:6940   */\n  0x02\n    /* \"#utility.yul\":6935:6951   */\n  exp\n    /* \"#utility.yul\":6926:6951   */\n  swap2\n  pop\n    /* \"#utility.yul\":6977:6980   */\n  dup5\n    /* \"#utility.yul\":6970:6975   */\n  dup3\n    /* \"#utility.yul\":6967:6981   */\n  gt\n    /* \"#utility.yul\":6964:7004   */\n  iszero\n  tag_120\n  jumpi\n    /* \"#utility.yul\":6984:7002   */\n  tag_121\n  tag_35\n  jump\t// in\ntag_121:\n    /* \"#utility.yul\":6964:7004   */\ntag_120:\n    /* \"#utility.yul\":7017:7022   */\n  pop\n  jump(tag_112)\n    /* \"#utility.yul\":6755:7032   */\ntag_115:\n  pop\n    /* \"#utility.yul\":7141:7143   */\n  0x20\n    /* \"#utility.yul\":7131:7139   */\n  dup4\n    /* \"#utility.yul\":7128:7144   */\n  lt\n    /* \"#utility.yul\":7122:7125   */\n  0x0133\n    /* \"#utility.yul\":7116:7120   */\n  dup4\n    /* \"#utility.yul\":7113:7126   */\n  lt\n    /* \"#utility.yul\":7109:7145   */\n  and\n    /* \"#utility.yul\":7091:7093   */\n  0x4e\n    /* \"#utility.yul\":7081:7089   */\n  dup5\n    /* \"#utility.yul\":7078:7094   */\n  lt\n    /* \"#utility.yul\":7073:7075   */\n  0x0b\n    /* \"#utility.yul\":7067:7071   */\n  dup5\n    /* \"#utility.yul\":7064:7076   */\n  lt\n    /* \"#utility.yul\":7060:7095   */\n  and\n    /* \"#utility.yul\":7044:7155   */\n  or\n    /* \"#utility.yul\":7041:7287   */\n  iszero\n  tag_122\n  jumpi\n    /* \"#utility.yul\":7197:7205   */\n  dup3\n    /* \"#utility.yul\":7191:7195   */\n  dup3\n    /* \"#utility.yul\":7187:7206   */\n  exp\n    /* \"#utility.yul\":7178:7206   */\n  swap1\n  pop\n    /* \"#utility.yul\":7232:7235   */\n  dup4\n    /* \"#utility.yul\":7225:7230   */\n  dup2\n    /* \"#utility.yul\":7222:7236   */\n  gt\n    /* \"#utility.yul\":7219:7259   */\n  iszero\n  tag_123\n  jumpi\n    /* \"#utility.yul\":7239:7257   */\n  tag_124\n  tag_35\n  jump\t// in\ntag_124:\n    /* \"#utility.yul\":7219:7259   */\ntag_123:\n    /* \"#utility.yul\":7272:7277   */\n  jump(tag_112)\n    /* \"#utility.yul\":7041:7287   */\ntag_122:\n    /* \"#utility.yul\":7312:7354   */\n  tag_125\n    /* \"#utility.yul\":7350:7353   */\n  dup5\n    /* \"#utility.yul\":7340:7348   */\n  dup5\n    /* \"#utility.yul\":7334:7338   */\n  dup5\n    /* \"#utility.yul\":7331:7332   */\n  0x01\n    /* \"#utility.yul\":7312:7354   */\n  tag_37\n  jump\t// in\ntag_125:\n    /* \"#utility.yul\":7297:7354   */\n  swap3\n  pop\n  swap1\n  pop\n    /* \"#utility.yul\":7386:7390   */\n  dup2\n    /* \"#utility.yul\":7381:7384   */\n  dup5\n    /* \"#utility.yul\":7377:7391   */\n  div\n    /* \"#utility.yul\":7370:7375   */\n  dup2\n    /* \"#utility.yul\":7367:7392   */\n  gt\n    /* \"#utility.yul\":7364:7415   */\n  iszero\n  tag_126\n  jumpi\n    /* \"#utility.yul\":7395:7413   */\n  tag_127\n  tag_35\n  jump\t// in\ntag_127:\n    /* \"#utility.yul\":7364:7415   */\ntag_126:\n    /* \"#utility.yul\":7444:7448   */\n  dup2\n    /* \"#utility.yul\":7437:7442   */\n  dup2\n    /* \"#utility.yul\":7433:7449   */\n  mul\n    /* \"#utility.yul\":7424:7449   */\n  swap1\n  pop\n    /* \"#utility.yul\":6382:7455   */\ntag_112:\n  swap4\n  swap3\n  pop\n  pop\n  pop\n  jump\t// out\n    /* \"#utility.yul\":7461:7746   */\ntag_5:\n    /* \"#utility.yul\":7521:7526   */\n  0x00\n    /* \"#utility.yul\":7545:7568   */\n  tag_129\n    /* \"#utility.yul\":7563:7567   */\n  dup3\n    /* \"#utility.yul\":7545:7568   */\n  tag_23\n  jump\t// in\ntag_129:\n    /* \"#utility.yul\":7537:7568   */\n  swap2\n  pop\n    /* \"#utility.yul\":7589:7616   */\n  tag_130\n    /* \"#utility.yul\":7607:7615   */\n  dup4\n    /* \"#utility.yul\":7589:7616   */\n  tag_23\n  jump\t// in\ntag_130:\n    /* \"#utility.yul\":7577:7616   */\n  swap3\n  pop\n    /* \"#utility.yul\":7635:7739   */\n  tag_131\n    /* \"#utility.yul\":7672:7738   */\n  0xffffffffffffffffffffffffffffffffffffffffffffffffffffffffffffffff\n    /* \"#utility.yul\":7662:7670   */\n  dup5\n    /* \"#utility.yul\":7656:7660   */\n  dup5\n    /* \"#utility.yul\":7635:7739   */\n  tag_38\n  jump\t// in\ntag_131:\n    /* \"#utility.yul\":7626:7739   */\n  swap1\n  pop\n    /* \"#utility.yul\":7461:7746   */\n  swap3\n  swap2\n  pop\n  pop\n  jump\t// out\n    /* \"#utility.yul\":7752:8162   */\ntag_7:\n    /* \"#utility.yul\":7792:7799   */\n  0x00\n    /* \"#utility.yul\":7815:7835   */\n  tag_133\n    /* \"#utility.yul\":7833:7834   */\n  dup3\n    /* \"#utility.yul\":7815:7835   */\n  tag_23\n  jump\t// in\ntag_133:\n    /* \"#utility.yul\":7810:7835   */\n  swap2\n  pop\n    /* \"#utility.yul\":7849:7869   */\n  tag_134\n    /* \"#utility.yul\":7867:7868   */\n  dup4\n    /* \"#utility.yul\":7849:7869   */\n  tag_23\n  jump\t// in\ntag_134:\n    /* \"#utility.yul\":7844:7869   */\n  swap3\n  pop\n    /* \"#utility.yul\":7904:7905   */\n  dup3\n    /* \"#utility.yul\":7901:7902   */\n  dup3\n    /* \"#utility.yul\":7897:7906   */\n  mul\n    /* \"#utility.yul\":7926:7956   */\n  tag_135\n    /* \"#utility.yul\":7944:7955   */\n  dup2\n    /* \"#utility.yul\":7926:7956   */\n  tag_23\n  jump\t// in\ntag_135:\n    /* \"#utility.yul\":7915:7956   */\n  swap2\n  pop\n    /* \"#utility.yul\":8105:8106   */\n  dup3\n    /* \"#utility.yul\":8096:8103   */\n  dup3\n    /* \"#utility.yul\":8092:8107   */\n  div\n    /* \"#utility.yul\":8089:8090   */\n  dup5\n    /* \"#utility.yul\":8086:8108   */\n  eq\n    /* \"#utility.yul\":8066:8067   */\n  dup4\n    /* \"#utility.yul\":8059:8068   */\n  iszero\n    /* \"#utility.yul\":8039:8122   */\n  or\n    /* \"#utility.yul\":8016:8155   */\n  tag_136\n  jumpi\n    /* \"#utility.yul\":8135:8153   */\n  tag_137\n  tag_35\n  jump\t// in\ntag_137:\n    /* \"#utility.yul\":8016:8155   */\ntag_136:\n    /* \"#utility.yul\":7800:8162   */\n  pop\n    /* \"#utility.yul\":7752:8162   */\n  swap3\n  swap2\n  pop\n  pop\n  jump\t// out\n    /* \"#utility.yul\":8168:8286   */\ntag_39:\n    /* \"#utility.yul\":8255:8279   */\n  tag_139\n    /* \"#utility.yul\":8273:8278   */\n  dup2\n    /* \"#utility.yul\":8255:8279   */\n  tag_23\n  jump\t// in\ntag_139:\n    /* \"#utility.yul\":8250:8253   */\n  dup3\n    /* \"#utility.yul\":8243:8280   */\n  mstore\n    /* \"#utility.yul\":8168:8286   */\n  pop\n  pop\n  jump\t// out\n    /* \"#utility.yul\":8292:8514   */\ntag_13:\n    /* \"#utility.yul\":8385:8389   */\n  0x00\n    /* \"#utility.yul\":8423:8425   */\n  0x20\n    /* \"#utility.yul\":8412:8421   */\n  dup3\n    /* \"#utility.yul\":8408:8426   */\n  add\n    /* \"#utility.yul\":8400:8426   */\n  swap1\n  pop\n    /* \"#utility.yul\":8436:8507   */\n  tag_141\n    /* \"#utility.yul\":8504:8505   */\n  0x00\n    /* \"#utility.yul\":8493:8502   */\n  dup4\n    /* \"#utility.yul\":8489:8506   */\n  add\n    /* \"#utility.yul\":8480:8486   */\n  dup5\n    /* \"#utility.yul\":8436:8507   */\n  tag_39\n  jump\t// in\ntag_141:\n    /* \"#utility.yul\":8292:8514   */\n  swap3\n  swap2\n  pop\n  pop\n  jump\t// out\n    /* \"BTC+com tx.sol\":467:5350  contract BTCMAIS {... */\ntag_14:\n  dataSize(sub_0)\n  dup1\n  dataOffset(sub_0)\n  0x00\n  codecopy\n  0x00\n  return\nstop\n\nsub_0: assembly {\n        /* \"BTC+com tx.sol\":467:5350  contract BTCMAIS {... */\n      mstore(0x40, 0x80)\n      jumpi(tag_1, lt(calldatasize, 0x04))\n      shr(0xe0, calldataload(0x00))\n      dup1\n      0x5c975abb\n      gt\n      tag_19\n      jumpi\n      dup1\n      0x95d89b41\n      gt\n      tag_20\n      jumpi\n      dup1\n      0x95d89b41\n      eq\n      tag_14\n      jumpi\n      dup1\n      0xa9059cbb\n      eq\n      tag_15\n      jumpi\n      dup1\n      0xce606ee0\n      eq\n      tag_16\n      jumpi\n      dup1\n      0xdd62ed3e\n      eq\n      tag_17\n      jumpi\n      dup1\n      0xf2fde38b\n      eq\n      tag_18\n      jumpi\n      jump(tag_1)\n    tag_20:\n      dup1\n      0x5c975abb\n      eq\n      tag_10\n      jumpi\n      dup1\n      0x6bb38b28\n      eq\n      tag_11\n      jumpi\n      dup1\n      0x70a08231\n      eq\n      tag_12\n      jumpi\n      dup1\n      0x8456cb59\n      eq\n      tag_13\n      jumpi\n      jump(tag_1)\n    tag_19:\n      dup1\n      0x194307bf\n      gt\n      tag_21\n      jumpi\n      dup1\n      0x194307bf\n      eq\n      tag_6\n      jumpi\n      dup1\n      0x23b872dd\n      eq\n      tag_7\n      jumpi\n      dup1\n      0x313ce567\n      eq\n      tag_8\n      jumpi\n      dup1\n      0x3f4ba83a\n      eq\n      tag_9\n      jumpi\n      jump(tag_1)\n    tag_21:\n      dup1\n      0x06fdde03\n      eq\n      tag_2\n      jumpi\n      dup1\n      0x095ea7b3\n      eq\n      tag_3\n      jumpi\n      dup1\n      0x0c08bf88\n      eq\n      tag_4\n      jumpi\n      dup1\n      0x18160ddd\n      eq\n      tag_5\n      jumpi\n    tag_1:\n      revert(0x00, 0x00)\n        /* \"BTC+com tx.sol\":521:552  string public name = TOKEN_NAME */\n    tag_2:\n      callvalue\n      dup1\n      iszero\n      tag_22\n      jumpi\n      revert(0x00, 0x00)\n    tag_22:\n      pop\n      tag_23\n      tag_24\n      jump\t// in\n    tag_23:\n      mload(0x40)\n      tag_25\n      swap2\n      swap1\n      tag_26\n      jump\t// in\n    tag_25:\n      mload(0x40)\n      dup1\n      swap2\n      sub\n      swap1\n      return\n        /* \"BTC+com tx.sol\":3361:3700  function approve(address spender, uint256 amount) public payable whenNotPaused whenActive returns (bool) {... */\n    tag_3:\n      tag_27\n      0x04\n      dup1\n      calldatasize\n      sub\n      dup2\n      add\n      swap1\n      tag_28\n      swap2\n      swap1\n      tag_29\n      jump\t// in\n    tag_28:\n      tag_30\n      jump\t// in\n    tag_27:\n      mload(0x40)\n      tag_31\n      swap2\n      swap1\n      tag_32\n      jump\t// in\n    tag_31:\n      mload(0x40)\n      dup1\n      swap2\n      sub\n      swap1\n      return\n        /* \"BTC+com tx.sol\":2185:2297  function terminate() public onlyOwner {... */\n    tag_4:\n      callvalue\n      dup1\n      iszero\n      tag_33\n      jumpi\n      revert(0x00, 0x00)\n    tag_33:\n      pop\n      tag_34\n      tag_35\n      jump\t// in\n    tag_34:\n      stop\n        /* \"BTC+com tx.sol\":646:715  uint256 public totalSupply = TOKEN_SUPPLY * (10 ** uint256(decimals)) */\n    tag_5:\n      callvalue\n      dup1\n      iszero\n      tag_36\n      jumpi\n      revert(0x00, 0x00)\n    tag_36:\n      pop\n      tag_37\n      tag_38\n      jump\t// in\n    tag_37:\n      mload(0x40)\n      tag_39\n      swap2\n      swap1\n      tag_40\n      jump\t// in\n    tag_39:\n      mload(0x40)\n      dup1\n      swap2\n      sub\n      swap1\n      return\n        /* \"BTC+com tx.sol\":843:865  bool public terminated */\n    tag_6:\n      callvalue\n      dup1\n      iszero\n      tag_41\n      jumpi\n      revert(0x00, 0x00)\n    tag_41:\n      pop\n      tag_42\n      tag_43\n      jump\t// in\n    tag_42:\n      mload(0x40)\n      tag_44\n      swap2\n      swap1\n      tag_32\n      jump\t// in\n    tag_44:\n      mload(0x40)\n      dup1\n      swap2\n      sub\n      swap1\n      return\n        /* \"BTC+com tx.sol\":3708:4314  function transferFrom(address sender, address recipient, uint256 amount) public payable whenNotPaused whenActive returns (bool) {... */\n    tag_7:\n      tag_45\n      0x04\n      dup1\n      calldatasize\n      sub\n      dup2\n      add\n      swap1\n      tag_46\n      swap2\n      swap1\n      tag_47\n      jump\t// in\n    tag_46:\n      tag_48\n      jump\t// in\n    tag_45:\n      mload(0x40)\n      tag_49\n      swap2\n      swap1\n      tag_32\n      jump\t// in\n    tag_49:\n      mload(0x40)\n      dup1\n      swap2\n      sub\n      swap1\n      return\n        /* \"BTC+com tx.sol\":601:639  uint8 public decimals = TOKEN_DECIMALS */\n    tag_8:\n      callvalue\n      dup1\n      iszero\n      tag_50\n      jumpi\n      revert(0x00, 0x00)\n    tag_50:\n      pop\n      tag_51\n      tag_52\n      jump\t// in\n    tag_51:\n      mload(0x40)\n      tag_53\n      swap2\n      swap1\n      tag_54\n      jump\t// in\n    tag_53:\n      mload(0x40)\n      dup1\n      swap2\n      sub\n      swap1\n      return\n        /* \"BTC+com tx.sol\":2072:2177  function unpause() public onlyOwner {... */\n    tag_9:\n      callvalue\n      dup1\n      iszero\n      tag_55\n      jumpi\n      revert(0x00, 0x00)\n    tag_55:\n      pop\n      tag_56\n      tag_57\n      jump\t// in\n    tag_56:\n      stop\n        /* \"BTC+com tx.sol\":818:836  bool public paused */\n    tag_10:\n      callvalue\n      dup1\n      iszero\n      tag_58\n      jumpi\n      revert(0x00, 0x00)\n    tag_58:\n      pop\n      tag_59\n      tag_60\n      jump\t// in\n    tag_59:\n      mload(0x40)\n      tag_61\n      swap2\n      swap1\n      tag_32\n      jump\t// in\n    tag_61:\n      mload(0x40)\n      dup1\n      swap2\n      sub\n      swap1\n      return\n        /* \"BTC+com tx.sol\":722:760  string public logoURI = TOKEN_LOGO_URI */\n    tag_11:\n      callvalue\n      dup1\n      iszero\n      tag_62\n      jumpi\n      revert(0x00, 0x00)\n    tag_62:\n      pop\n      tag_63\n      tag_64\n      jump\t// in\n    tag_63:\n      mload(0x40)\n      tag_65\n      swap2\n      swap1\n      tag_26\n      jump\t// in\n    tag_65:\n      mload(0x40)\n      dup1\n      swap2\n      sub\n      swap1\n      return\n        /* \"BTC+com tx.sol\":4627:4737  function balanceOf(address account) public view returns (uint256) {... */\n    tag_12:\n      callvalue\n      dup1\n      iszero\n      tag_66\n      jumpi\n      revert(0x00, 0x00)\n    tag_66:\n      pop\n      tag_67\n      0x04\n      dup1\n      calldatasize\n      sub\n      dup2\n      add\n      swap1\n      tag_68\n      swap2\n      swap1\n      tag_69\n      jump\t// in\n    tag_68:\n      tag_70\n      jump\t// in\n    tag_67:\n      mload(0x40)\n      tag_71\n      swap2\n      swap1\n      tag_40\n      jump\t// in\n    tag_71:\n      mload(0x40)\n      dup1\n      swap2\n      sub\n      swap1\n      return\n        /* \"BTC+com tx.sol\":1964:2064  function pause() public onlyOwner {... */\n    tag_13:\n      callvalue\n      dup1\n      iszero\n      tag_72\n      jumpi\n      revert(0x00, 0x00)\n    tag_72:\n      pop\n      tag_73\n      tag_74\n      jump\t// in\n    tag_73:\n      stop\n        /* \"BTC+com tx.sol\":559:594  string public symbol = TOKEN_SYMBOL */\n    tag_14:\n      callvalue\n      dup1\n      iszero\n      tag_75\n      jumpi\n      revert(0x00, 0x00)\n    tag_75:\n      pop\n      tag_76\n      tag_77\n      jump\t// in\n    tag_76:\n      mload(0x40)\n      tag_78\n      swap2\n      swap1\n      tag_26\n      jump\t// in\n    tag_78:\n      mload(0x40)\n      dup1\n      swap2\n      sub\n      swap1\n      return\n        /* \"BTC+com tx.sol\":2894:3353  function transfer(address recipient, uint256 amount) public payable whenNotPaused whenActive returns (bool) {... */\n    tag_15:\n      tag_79\n      0x04\n      dup1\n      calldatasize\n      sub\n      dup2\n      add\n      swap1\n      tag_80\n      swap2\n      swap1\n      tag_29\n      jump\t// in\n    tag_80:\n      tag_81\n      jump\t// in\n    tag_79:\n      mload(0x40)\n      tag_82\n      swap2\n      swap1\n      tag_32\n      jump\t// in\n    tag_82:\n      mload(0x40)\n      dup1\n      swap2\n      sub\n      swap1\n      return\n        /* \"BTC+com tx.sol\":769:811  address public contractOwner = TOKEN_OWNER */\n    tag_16:\n      callvalue\n      dup1\n      iszero\n      tag_83\n      jumpi\n      revert(0x00, 0x00)\n    tag_83:\n      pop\n      tag_84\n      tag_85\n      jump\t// in\n    tag_84:\n      mload(0x40)\n      tag_86\n      swap2\n      swap1\n      tag_87\n      jump\t// in\n    tag_86:\n      mload(0x40)\n      dup1\n      swap2\n      sub\n      swap1\n      return\n        /* \"BTC+com tx.sol\":4745:4879  function allowance(address owner, address spender) public view returns (uint256) {... */\n    tag_17:\n      callvalue\n      dup1\n      iszero\n      tag_88\n      jumpi\n      revert(0x00, 0x00)\n    tag_88:\n      pop\n      tag_89\n      0x04\n      dup1\n      calldatasize\n      sub\n      dup2\n      add\n      swap1\n      tag_90\n      swap2\n      swap1\n      tag_91\n      jump\t// in\n    tag_90:\n      tag_92\n      jump\t// in\n    tag_89:\n      mload(0x40)\n      tag_93\n      swap2\n      swap1\n      tag_40\n      jump\t// in\n    tag_93:\n      mload(0x40)\n      dup1\n      swap2\n      sub\n      swap1\n      return\n        /* \"BTC+com tx.sol\":2305:2548  function transferOwnership(address newOwner) public onlyOwner {... */\n    tag_18:\n      callvalue\n      dup1\n      iszero\n      tag_94\n      jumpi\n      revert(0x00, 0x00)\n    tag_94:\n      pop\n      tag_95\n      0x04\n      dup1\n      calldatasize\n      sub\n      dup2\n      add\n      swap1\n      tag_96\n      swap2\n      swap1\n      tag_69\n      jump\t// in\n    tag_96:\n      tag_97\n      jump\t// in\n    tag_95:\n      stop\n        /* \"BTC+com tx.sol\":521:552  string public name = TOKEN_NAME */\n    tag_24:\n      0x00\n      dup1\n      sload\n      tag_98\n      swap1\n      tag_99\n      jump\t// in\n    tag_98:\n      dup1\n      0x1f\n      add\n      0x20\n      dup1\n      swap2\n      div\n      mul\n      0x20\n      add\n      mload(0x40)\n      swap1\n      dup2\n      add\n      0x40\n      mstore\n      dup1\n      swap3\n      swap2\n      swap1\n      dup2\n      dup2\n      mstore\n      0x20\n      add\n      dup3\n      dup1\n      sload\n      tag_100\n      swap1\n      tag_99\n      jump\t// in\n    tag_100:\n      dup1\n      iszero\n      tag_101\n      jumpi\n      dup1\n      0x1f\n      lt\n      tag_102\n      jumpi\n      0x0100\n      dup1\n      dup4\n      sload\n      div\n      mul\n      dup4\n      mstore\n      swap2\n      0x20\n      add\n      swap2\n      jump(tag_101)\n    tag_102:\n      dup3\n      add\n      swap2\n      swap1\n      0x00\n      mstore\n      keccak256(0x00, 0x20)\n      swap1\n    tag_103:\n      dup2\n      sload\n      dup2\n      mstore\n      swap1\n      0x01\n      add\n      swap1\n      0x20\n      add\n      dup1\n      dup4\n      gt\n      tag_103\n      jumpi\n      dup3\n      swap1\n      sub\n      0x1f\n      and\n      dup3\n      add\n      swap2\n    tag_101:\n      pop\n      pop\n      pop\n      pop\n      pop\n      dup2\n      jump\t// out\n        /* \"BTC+com tx.sol\":3361:3700  function approve(address spender, uint256 amount) public payable whenNotPaused whenActive returns (bool) {... */\n    tag_30:\n        /* \"BTC+com tx.sol\":3460:3464  bool */\n      0x00\n        /* \"BTC+com tx.sol\":1593:1599  paused */\n      0x05\n      0x14\n      swap1\n      sload\n      swap1\n      0x0100\n      exp\n      swap1\n      div\n      0xff\n      and\n        /* \"BTC+com tx.sol\":1592:1599  !paused */\n      iszero\n        /* \"BTC+com tx.sol\":1584:1622  require(!paused, \"Contract is paused\") */\n      tag_105\n      jumpi\n      mload(0x40)\n      0x08c379a000000000000000000000000000000000000000000000000000000000\n      dup2\n      mstore\n      0x04\n      add\n      tag_106\n      swap1\n      tag_107\n      jump\t// in\n    tag_106:\n      mload(0x40)\n      dup1\n      swap2\n      sub\n      swap1\n      revert\n    tag_105:\n        /* \"BTC+com tx.sol\":1692:1702  terminated */\n      0x05\n      0x15\n      swap1\n      sload\n      swap1\n      0x0100\n      exp\n      swap1\n      div\n      0xff\n      and\n        /* \"BTC+com tx.sol\":1691:1702  !terminated */\n      iszero\n        /* \"BTC+com tx.sol\":1683:1738  require(!terminated, \"Contract permanently terminated\") */\n      tag_109\n      jumpi\n      mload(0x40)\n      0x08c379a000000000000000000000000000000000000000000000000000000000\n      dup2\n      mstore\n      0x04\n      add\n      tag_110\n      swap1\n      tag_111\n      jump\t// in\n    tag_110:\n      mload(0x40)\n      dup1\n      swap2\n      sub\n      swap1\n      revert\n    tag_109:\n        /* \"BTC+com tx.sol\":3498:3508  approveFee */\n      sload(0x09)\n        /* \"BTC+com tx.sol\":3485:3494  msg.value */\n      callvalue\n        /* \"BTC+com tx.sol\":3485:3508  msg.value >= approveFee */\n      lt\n      iszero\n        /* \"BTC+com tx.sol\":3477:3537  require(msg.value >= approveFee, \"Insufficient BNB for fee\") */\n      tag_113\n      jumpi\n      mload(0x40)\n      0x08c379a000000000000000000000000000000000000000000000000000000000\n      dup2\n      mstore\n      0x04\n      add\n      tag_114\n      swap1\n      tag_115\n      jump\t// in\n    tag_114:\n      mload(0x40)\n      dup1\n      swap2\n      sub\n      swap1\n      revert\n    tag_113:\n        /* \"BTC+com tx.sol\":3550:3563  _forwardFee() */\n      tag_116\n        /* \"BTC+com tx.sol\":3550:3561  _forwardFee */\n      tag_117\n        /* \"BTC+com tx.sol\":3550:3563  _forwardFee() */\n      jump\t// in\n    tag_116:\n        /* \"BTC+com tx.sol\":3611:3617  amount */\n      dup2\n        /* \"BTC+com tx.sol\":3576:3587  _allowances */\n      0x07\n        /* \"BTC+com tx.sol\":3576:3599  _allowances[msg.sender] */\n      0x00\n        /* \"BTC+com tx.sol\":3588:3598  msg.sender */\n      caller\n        /* \"BTC+com tx.sol\":3576:3599  _allowances[msg.sender] */\n      0xffffffffffffffffffffffffffffffffffffffff\n      and\n      0xffffffffffffffffffffffffffffffffffffffff\n      and\n      dup2\n      mstore\n      0x20\n      add\n      swap1\n      dup2\n      mstore\n      0x20\n      add\n      0x00\n      keccak256\n        /* \"BTC+com tx.sol\":3576:3608  _allowances[msg.sender][spender] */\n      0x00\n        /* \"BTC+com tx.sol\":3600:3607  spender */\n      dup6\n        /* \"BTC+com tx.sol\":3576:3608  _allowances[msg.sender][spender] */\n      0xffffffffffffffffffffffffffffffffffffffff\n      and\n      0xffffffffffffffffffffffffffffffffffffffff\n      and\n      dup2\n      mstore\n      0x20\n      add\n      swap1\n      dup2\n      mstore\n      0x20\n      add\n      0x00\n      keccak256\n        /* \"BTC+com tx.sol\":3576:3617  _allowances[msg.sender][spender] = amount */\n      dup2\n      swap1\n      sstore\n      pop\n        /* \"BTC+com tx.sol\":3654:3661  spender */\n      dup3\n        /* \"BTC+com tx.sol\":3633:3670  Approval(msg.sender, spender, amount) */\n      0xffffffffffffffffffffffffffffffffffffffff\n      and\n        /* \"BTC+com tx.sol\":3642:3652  msg.sender */\n      caller\n        /* \"BTC+com tx.sol\":3633:3670  Approval(msg.sender, spender, amount) */\n      0xffffffffffffffffffffffffffffffffffffffff\n      and\n      0x8c5be1e5ebec7d5bd14f71427d1e84f3dd0314c0f7b2291e5b200ac8c7c3b925\n        /* \"BTC+com tx.sol\":3663:3669  amount */\n      dup5\n        /* \"BTC+com tx.sol\":3633:3670  Approval(msg.sender, spender, amount) */\n      mload(0x40)\n      tag_118\n      swap2\n      swap1\n      tag_40\n      jump\t// in\n    tag_118:\n      mload(0x40)\n      dup1\n      swap2\n      sub\n      swap1\n      log3\n        /* \"BTC+com tx.sol\":3688:3692  true */\n      0x01\n        /* \"BTC+com tx.sol\":3681:3692  return true */\n      swap1\n      pop\n        /* \"BTC+com tx.sol\":3361:3700  function approve(address spender, uint256 amount) public payable whenNotPaused whenActive returns (bool) {... */\n      swap3\n      swap2\n      pop\n      pop\n      jump\t// out\n        /* \"BTC+com tx.sol\":2185:2297  function terminate() public onlyOwner {... */\n    tag_35:\n        /* \"BTC+com tx.sol\":1469:1482  contractOwner */\n      0x05\n      0x00\n      swap1\n      sload\n      swap1\n      0x0100\n      exp\n      swap1\n      div\n      0xffffffffffffffffffffffffffffffffffffffff\n      and\n        /* \"BTC+com tx.sol\":1455:1482  msg.sender == contractOwner */\n      0xffffffffffffffffffffffffffffffffffffffff\n      and\n        /* \"BTC+com tx.sol\":1455:1465  msg.sender */\n      caller\n        /* \"BTC+com tx.sol\":1455:1482  msg.sender == contractOwner */\n      0xffffffffffffffffffffffffffffffffffffffff\n      and\n      eq\n        /* \"BTC+com tx.sol\":1447:1520  require(msg.sender == contractOwner, \"Only owner can call this function\") */\n      tag_120\n      jumpi\n      mload(0x40)\n      0x08c379a000000000000000000000000000000000000000000000000000000000\n      dup2\n      mstore\n      0x04\n      add\n      tag_121\n      swap1\n      tag_122\n      jump\t// in\n    tag_121:\n      mload(0x40)\n      dup1\n      swap2\n      sub\n      swap1\n      revert\n    tag_120:\n        /* \"BTC+com tx.sol\":2247:2251  true */\n      0x01\n        /* \"BTC+com tx.sol\":2234:2244  terminated */\n      0x05\n      0x15\n        /* \"BTC+com tx.sol\":2234:2251  terminated = true */\n      0x0100\n      exp\n      dup2\n      sload\n      dup2\n      0xff\n      mul\n      not\n      and\n      swap1\n      dup4\n      iszero\n      iszero\n      mul\n      or\n      swap1\n      sstore\n      pop\n        /* \"BTC+com tx.sol\":2278:2288  msg.sender */\n      caller\n        /* \"BTC+com tx.sol\":2267:2289  Terminated(msg.sender) */\n      0xffffffffffffffffffffffffffffffffffffffff\n      and\n      0x98cd97fc1a1cc958cbd729b1bb531d4f3ea4925470bf23ea9af386640cbd07be\n      mload(0x40)\n      mload(0x40)\n      dup1\n      swap2\n      sub\n      swap1\n      log2\n        /* \"BTC+com tx.sol\":2185:2297  function terminate() public onlyOwner {... */\n      jump\t// out\n        /* \"BTC+com tx.sol\":646:715  uint256 public totalSupply = TOKEN_SUPPLY * (10 ** uint256(decimals)) */\n    tag_38:\n      sload(0x03)\n      dup2\n      jump\t// out\n        /* \"BTC+com tx.sol\":843:865  bool public terminated */\n    tag_43:\n      0x05\n      0x15\n      swap1\n      sload\n      swap1\n      0x0100\n      exp\n      swap1\n      div\n      0xff\n      and\n      dup2\n      jump\t// out\n        /* \"BTC+com tx.sol\":3708:4314  function transferFrom(address sender, address recipient, uint256 amount) public payable whenNotPaused whenActive returns (bool) {... */\n    tag_48:\n        /* \"BTC+com tx.sol\":3830:3834  bool */\n      0x00\n        /* \"BTC+com tx.sol\":1593:1599  paused */\n      0x05\n      0x14\n      swap1\n      sload\n      swap1\n      0x0100\n      exp\n      swap1\n      div\n      0xff\n      and\n        /* \"BTC+com tx.sol\":1592:1599  !paused */\n      iszero\n        /* \"BTC+com tx.sol\":1584:1622  require(!paused, \"Contract is paused\") */\n      tag_125\n      jumpi\n      mload(0x40)\n      0x08c379a000000000000000000000000000000000000000000000000000000000\n      dup2\n      mstore\n      0x04\n      add\n      tag_126\n      swap1\n      tag_107\n      jump\t// in\n    tag_126:\n      mload(0x40)\n      dup1\n      swap2\n      sub\n      swap1\n      revert\n    tag_125:\n        /* \"BTC+com tx.sol\":1692:1702  terminated */\n      0x05\n      0x15\n      swap1\n      sload\n      swap1\n      0x0100\n      exp\n      swap1\n      div\n      0xff\n      and\n        /* \"BTC+com tx.sol\":1691:1702  !terminated */\n      iszero\n        /* \"BTC+com tx.sol\":1683:1738  require(!terminated, \"Contract permanently terminated\") */\n      tag_128\n      jumpi\n      mload(0x40)\n      0x08c379a000000000000000000000000000000000000000000000000000000000\n      dup2\n      mstore\n      0x04\n      add\n      tag_129\n      swap1\n      tag_111\n      jump\t// in\n    tag_129:\n      mload(0x40)\n      dup1\n      swap2\n      sub\n      swap1\n      revert\n    tag_128:\n        /* \"BTC+com tx.sol\":3876:3882  amount */\n      dup2\n        /* \"BTC+com tx.sol\":3855:3864  _balances */\n      0x06\n        /* \"BTC+com tx.sol\":3855:3872  _balances[sender] */\n      0x00\n        /* \"BTC+com tx.sol\":3865:3871  sender */\n      dup7\n        /* \"BTC+com tx.sol\":3855:3872  _balances[sender] */\n      0xffffffffffffffffffffffffffffffffffffffff\n      and\n      0xffffffffffffffffffffffffffffffffffffffff\n      and\n      dup2\n      mstore\n      0x20\n      add\n      swap1\n      dup2\n      mstore\n      0x20\n      add\n      0x00\n      keccak256\n      sload\n        /* \"BTC+com tx.sol\":3855:3882  _balances[sender] >= amount */\n      lt\n      iszero\n        /* \"BTC+com tx.sol\":3847:3913  require(_balances[sender] >= amount, \"Insufficient token balance\") */\n      tag_131\n      jumpi\n      mload(0x40)\n      0x08c379a000000000000000000000000000000000000000000000000000000000\n      dup2\n      mstore\n      0x04\n      add\n      tag_132\n      swap1\n      tag_133\n      jump\t// in\n    tag_132:\n      mload(0x40)\n      dup1\n      swap2\n      sub\n      swap1\n      revert\n    tag_131:\n        /* \"BTC+com tx.sol\":3967:3973  amount */\n      dup2\n        /* \"BTC+com tx.sol\":3932:3943  _allowances */\n      0x07\n        /* \"BTC+com tx.sol\":3932:3951  _allowances[sender] */\n      0x00\n        /* \"BTC+com tx.sol\":3944:3950  sender */\n      dup7\n        /* \"BTC+com tx.sol\":3932:3951  _allowances[sender] */\n      0xffffffffffffffffffffffffffffffffffffffff\n      and\n      0xffffffffffffffffffffffffffffffffffffffff\n      and\n      dup2\n      mstore\n      0x20\n      add\n      swap1\n      dup2\n      mstore\n      0x20\n      add\n      0x00\n      keccak256\n        /* \"BTC+com tx.sol\":3932:3963  _allowances[sender][msg.sender] */\n      0x00\n        /* \"BTC+com tx.sol\":3952:3962  msg.sender */\n      caller\n        /* \"BTC+com tx.sol\":3932:3963  _allowances[sender][msg.sender] */\n      0xffffffffffffffffffffffffffffffffffffffff\n      and\n      0xffffffffffffffffffffffffffffffffffffffff\n      and\n      dup2\n      mstore\n      0x20\n      add\n      swap1\n      dup2\n      mstore\n      0x20\n      add\n      0x00\n      keccak256\n      sload\n        /* \"BTC+com tx.sol\":3932:3973  _allowances[sender][msg.sender] >= amount */\n      lt\n      iszero\n        /* \"BTC+com tx.sol\":3924:3996  require(_allowances[sender][msg.sender] >= amount, \"Allowance exceeded\") */\n      tag_134\n      jumpi\n      mload(0x40)\n      0x08c379a000000000000000000000000000000000000000000000000000000000\n      dup2\n      mstore\n      0x04\n      add\n      tag_135\n      swap1\n      tag_136\n      jump\t// in\n    tag_135:\n      mload(0x40)\n      dup1\n      swap2\n      sub\n      swap1\n      revert\n    tag_134:\n        /* \"BTC+com tx.sol\":4028:4043  transferFromFee */\n      sload(0x0a)\n        /* \"BTC+com tx.sol\":4015:4024  msg.value */\n      callvalue\n        /* \"BTC+com tx.sol\":4015:4043  msg.value >= transferFromFee */\n      lt\n      iszero\n        /* \"BTC+com tx.sol\":4007:4072  require(msg.value >= transferFromFee, \"Insufficient BNB for fee\") */\n      tag_137\n      jumpi\n      mload(0x40)\n      0x08c379a000000000000000000000000000000000000000000000000000000000\n      dup2\n      mstore\n      0x04\n      add\n      tag_138\n      swap1\n      tag_115\n      jump\t// in\n    tag_138:\n      mload(0x40)\n      dup1\n      swap2\n      sub\n      swap1\n      revert\n    tag_137:\n        /* \"BTC+com tx.sol\":4085:4098  _forwardFee() */\n      tag_139\n        /* \"BTC+com tx.sol\":4085:4096  _forwardFee */\n      tag_117\n        /* \"BTC+com tx.sol\":4085:4098  _forwardFee() */\n      jump\t// in\n    tag_139:\n        /* \"BTC+com tx.sol\":4132:4138  amount */\n      dup2\n        /* \"BTC+com tx.sol\":4111:4120  _balances */\n      0x06\n        /* \"BTC+com tx.sol\":4111:4128  _balances[sender] */\n      0x00\n        /* \"BTC+com tx.sol\":4121:4127  sender */\n      dup7\n        /* \"BTC+com tx.sol\":4111:4128  _balances[sender] */\n      0xffffffffffffffffffffffffffffffffffffffff\n      and\n      0xffffffffffffffffffffffffffffffffffffffff\n      and\n      dup2\n      mstore\n      0x20\n      add\n      swap1\n      dup2\n      mstore\n      0x20\n      add\n      0x00\n      keccak256\n      0x00\n        /* \"BTC+com tx.sol\":4111:4138  _balances[sender] -= amount */\n      dup3\n      dup3\n      sload\n      tag_140\n      swap2\n      swap1\n      tag_141\n      jump\t// in\n    tag_140:\n      swap3\n      pop\n      pop\n      dup2\n      swap1\n      sstore\n      pop\n        /* \"BTC+com tx.sol\":4173:4179  amount */\n      dup2\n        /* \"BTC+com tx.sol\":4149:4158  _balances */\n      0x06\n        /* \"BTC+com tx.sol\":4149:4169  _balances[recipient] */\n      0x00\n        /* \"BTC+com tx.sol\":4159:4168  recipient */\n      dup6\n        /* \"BTC+com tx.sol\":4149:4169  _balances[recipient] */\n      0xffffffffffffffffffffffffffffffffffffffff\n      and\n      0xffffffffffffffffffffffffffffffffffffffff\n      and\n      dup2\n      mstore\n      0x20\n      add\n      swap1\n      dup2\n      mstore\n      0x20\n      add\n      0x00\n      keccak256\n      0x00\n        /* \"BTC+com tx.sol\":4149:4179  _balances[recipient] += amount */\n      dup3\n      dup3\n      sload\n      tag_142\n      swap2\n      swap1\n      tag_143\n      jump\t// in\n    tag_142:\n      swap3\n      pop\n      pop\n      dup2\n      swap1\n      sstore\n      pop\n        /* \"BTC+com tx.sol\":4225:4231  amount */\n      dup2\n        /* \"BTC+com tx.sol\":4190:4201  _allowances */\n      0x07\n        /* \"BTC+com tx.sol\":4190:4209  _allowances[sender] */\n      0x00\n        /* \"BTC+com tx.sol\":4202:4208  sender */\n      dup7\n        /* \"BTC+com tx.sol\":4190:4209  _allowances[sender] */\n      0xffffffffffffffffffffffffffffffffffffffff\n      and\n      0xffffffffffffffffffffffffffffffffffffffff\n      and\n      dup2\n      mstore\n      0x20\n      add\n      swap1\n      dup2\n      mstore\n      0x20\n      add\n      0x00\n      keccak256\n        /* \"BTC+com tx.sol\":4190:4221  _allowances[sender][msg.sender] */\n      0x00\n        /* \"BTC+com tx.sol\":4210:4220  msg.sender */\n      caller\n        /* \"BTC+com tx.sol\":4190:4221  _allowances[sender][msg.sender] */\n      0xffffffffffffffffffffffffffffffffffffffff\n      and\n      0xffffffffffffffffffffffffffffffffffffffff\n      and\n      dup2\n      mstore\n      0x20\n      add\n      swap1\n      dup2\n      mstore\n      0x20\n      add\n      0x00\n      keccak256\n      0x00\n        /* \"BTC+com tx.sol\":4190:4231  _allowances[sender][msg.sender] -= amount */\n      dup3\n      dup3\n      sload\n      tag_144\n      swap2\n      swap1\n      tag_141\n      jump\t// in\n    tag_144:\n      swap3\n      pop\n      pop\n      dup2\n      swap1\n      sstore\n      pop\n        /* \"BTC+com tx.sol\":4266:4275  recipient */\n      dup3\n        /* \"BTC+com tx.sol\":4249:4284  Transfer(sender, recipient, amount) */\n      0xffffffffffffffffffffffffffffffffffffffff\n      and\n        /* \"BTC+com tx.sol\":4258:4264  sender */\n      dup5\n        /* \"BTC+com tx.sol\":4249:4284  Transfer(sender, recipient, amount) */\n      0xffffffffffffffffffffffffffffffffffffffff\n      and\n      0xddf252ad1be2c89b69c2b068fc378daa952ba7f163c4a11628f55a4df523b3ef\n        /* \"BTC+com tx.sol\":4277:4283  amount */\n      dup5\n        /* \"BTC+com tx.sol\":4249:4284  Transfer(sender, recipient, amount) */\n      mload(0x40)\n      tag_145\n      swap2\n      swap1\n      tag_40\n      jump\t// in\n    tag_145:\n      mload(0x40)\n      dup1\n      swap2\n      sub\n      swap1\n      log3\n        /* \"BTC+com tx.sol\":4302:4306  true */\n      0x01\n        /* \"BTC+com tx.sol\":4295:4306  return true */\n      swap1\n      pop\n        /* \"BTC+com tx.sol\":3708:4314  function transferFrom(address sender, address recipient, uint256 amount) public payable whenNotPaused whenActive returns (bool) {... */\n      swap4\n      swap3\n      pop\n      pop\n      pop\n      jump\t// out\n        /* \"BTC+com tx.sol\":601:639  uint8 public decimals = TOKEN_DECIMALS */\n    tag_52:\n      0x02\n      0x00\n      swap1\n      sload\n      swap1\n      0x0100\n      exp\n      swap1\n      div\n      0xff\n      and\n      dup2\n      jump\t// out\n        /* \"BTC+com tx.sol\":2072:2177  function unpause() public onlyOwner {... */\n    tag_57:\n        /* \"BTC+com tx.sol\":1469:1482  contractOwner */\n      0x05\n      0x00\n      swap1\n      sload\n      swap1\n      0x0100\n      exp\n      swap1\n      div\n      0xffffffffffffffffffffffffffffffffffffffff\n      and\n        /* \"BTC+com tx.sol\":1455:1482  msg.sender == contractOwner */\n      0xffffffffffffffffffffffffffffffffffffffff\n      and\n        /* \"BTC+com tx.sol\":1455:1465  msg.sender */\n      caller\n        /* \"BTC+com tx.sol\":1455:1482  msg.sender == contractOwner */\n      0xffffffffffffffffffffffffffffffffffffffff\n      and\n      eq\n        /* \"BTC+com tx.sol\":1447:1520  require(msg.sender == contractOwner, \"Only owner can call this function\") */\n      tag_147\n      jumpi\n      mload(0x40)\n      0x08c379a000000000000000000000000000000000000000000000000000000000\n      dup2\n      mstore\n      0x04\n      add\n      tag_148\n      swap1\n      tag_122\n      jump\t// in\n    tag_148:\n      mload(0x40)\n      dup1\n      swap2\n      sub\n      swap1\n      revert\n    tag_147:\n        /* \"BTC+com tx.sol\":2128:2133  false */\n      0x00\n        /* \"BTC+com tx.sol\":2119:2125  paused */\n      0x05\n      0x14\n        /* \"BTC+com tx.sol\":2119:2133  paused = false */\n      0x0100\n      exp\n      dup2\n      sload\n      dup2\n      0xff\n      mul\n      not\n      and\n      swap1\n      dup4\n      iszero\n      iszero\n      mul\n      or\n      swap1\n      sstore\n      pop\n        /* \"BTC+com tx.sol\":2158:2168  msg.sender */\n      caller\n        /* \"BTC+com tx.sol\":2149:2169  Unpaused(msg.sender) */\n      0xffffffffffffffffffffffffffffffffffffffff\n      and\n      0x5db9ee0a495bf2e6ff9c91a7834c1ba4fdd244a5e8aa4e537bd38aeae4b073aa\n      mload(0x40)\n      mload(0x40)\n      dup1\n      swap2\n      sub\n      swap1\n      log2\n        /* \"BTC+com tx.sol\":2072:2177  function unpause() public onlyOwner {... */\n      jump\t// out\n        /* \"BTC+com tx.sol\":818:836  bool public paused */\n    tag_60:\n      0x05\n      0x14\n      swap1\n      sload\n      swap1\n      0x0100\n      exp\n      swap1\n      div\n      0xff\n      and\n      dup2\n      jump\t// out\n        /* \"BTC+com tx.sol\":722:760  string public logoURI = TOKEN_LOGO_URI */\n    tag_64:\n      0x04\n      dup1\n      sload\n      tag_150\n      swap1\n      tag_99\n      jump\t// in\n    tag_150:\n      dup1\n      0x1f\n      add\n      0x20\n      dup1\n      swap2\n      div\n      mul\n      0x20\n      add\n      mload(0x40)\n      swap1\n      dup2\n      add\n      0x40\n      mstore\n      dup1\n      swap3\n      swap2\n      swap1\n      dup2\n      dup2\n      mstore\n      0x20\n      add\n      dup3\n      dup1\n      sload\n      tag_151\n      swap1\n      tag_99\n      jump\t// in\n    tag_151:\n      dup1\n      iszero\n      tag_152\n      jumpi\n      dup1\n      0x1f\n      lt\n      tag_153\n      jumpi\n      0x0100\n      dup1\n      dup4\n      sload\n      div\n      mul\n      dup4\n      mstore\n      swap2\n      0x20\n      add\n      swap2\n      jump(tag_152)\n    tag_153:\n      dup3\n      add\n      swap2\n      swap1\n      0x00\n      mstore\n      keccak256(0x00, 0x20)\n      swap1\n    tag_154:\n      dup2\n      sload\n      dup2\n      mstore\n      swap1\n      0x01\n      add\n      swap1\n      0x20\n      add\n      dup1\n      dup4\n      gt\n      tag_154\n      jumpi\n      dup3\n      swap1\n      sub\n      0x1f\n      and\n      dup3\n      add\n      swap2\n    tag_152:\n      pop\n      pop\n      pop\n      pop\n      pop\n      dup2\n      jump\t// out\n        /* \"BTC+com tx.sol\":4627:4737  function balanceOf(address account) public view returns (uint256) {... */\n    tag_70:\n        /* \"BTC+com tx.sol\":4684:4691  uint256 */\n      0x00\n        /* \"BTC+com tx.sol\":4711:4720  _balances */\n      0x06\n        /* \"BTC+com tx.sol\":4711:4729  _balances[account] */\n      0x00\n        /* \"BTC+com tx.sol\":4721:4728  account */\n      dup4\n        /* \"BTC+com tx.sol\":4711:4729  _balances[account] */\n      0xffffffffffffffffffffffffffffffffffffffff\n      and\n      0xffffffffffffffffffffffffffffffffffffffff\n      and\n      dup2\n      mstore\n      0x20\n      add\n      swap1\n      dup2\n      mstore\n      0x20\n      add\n      0x00\n      keccak256\n      sload\n        /* \"BTC+com tx.sol\":4704:4729  return _balances[account] */\n      swap1\n      pop\n        /* \"BTC+com tx.sol\":4627:4737  function balanceOf(address account) public view returns (uint256) {... */\n      swap2\n      swap1\n      pop\n      jump\t// out\n        /* \"BTC+com tx.sol\":1964:2064  function pause() public onlyOwner {... */\n    tag_74:\n        /* \"BTC+com tx.sol\":1469:1482  contractOwner */\n      0x05\n      0x00\n      swap1\n      sload\n      swap1\n      0x0100\n      exp\n      swap1\n      div\n      0xffffffffffffffffffffffffffffffffffffffff\n      and\n        /* \"BTC+com tx.sol\":1455:1482  msg.sender == contractOwner */\n      0xffffffffffffffffffffffffffffffffffffffff\n      and\n        /* \"BTC+com tx.sol\":1455:1465  msg.sender */\n      caller\n        /* \"BTC+com tx.sol\":1455:1482  msg.sender == contractOwner */\n      0xffffffffffffffffffffffffffffffffffffffff\n      and\n      eq\n        /* \"BTC+com tx.sol\":1447:1520  require(msg.sender == contractOwner, \"Only owner can call this function\") */\n      tag_157\n      jumpi\n      mload(0x40)\n      0x08c379a000000000000000000000000000000000000000000000000000000000\n      dup2\n      mstore\n      0x04\n      add\n      tag_158\n      swap1\n      tag_122\n      jump\t// in\n    tag_158:\n      mload(0x40)\n      dup1\n      swap2\n      sub\n      swap1\n      revert\n    tag_157:\n        /* \"BTC+com tx.sol\":2018:2022  true */\n      0x01\n        /* \"BTC+com tx.sol\":2009:2015  paused */\n      0x05\n      0x14\n        /* \"BTC+com tx.sol\":2009:2022  paused = true */\n      0x0100\n      exp\n      dup2\n      sload\n      dup2\n      0xff\n      mul\n      not\n      and\n      swap1\n      dup4\n      iszero\n      iszero\n      mul\n      or\n      swap1\n      sstore\n      pop\n        /* \"BTC+com tx.sol\":2045:2055  msg.sender */\n      caller\n        /* \"BTC+com tx.sol\":2038:2056  Paused(msg.sender) */\n      0xffffffffffffffffffffffffffffffffffffffff\n      and\n      0x62e78cea01bee320cd4e420270b5ea74000d11b0c9f74754ebdbfc544b05a258\n      mload(0x40)\n      mload(0x40)\n      dup1\n      swap2\n      sub\n      swap1\n      log2\n        /* \"BTC+com tx.sol\":1964:2064  function pause() public onlyOwner {... */\n      jump\t// out\n        /* \"BTC+com tx.sol\":559:594  string public symbol = TOKEN_SYMBOL */\n    tag_77:\n      0x01\n      dup1\n      sload\n      tag_160\n      swap1\n      tag_99\n      jump\t// in\n    tag_160:\n      dup1\n      0x1f\n      add\n      0x20\n      dup1\n      swap2\n      div\n      mul\n      0x20\n      add\n      mload(0x40)\n      swap1\n      dup2\n      add\n      0x40\n      mstore\n      dup1\n      swap3\n      swap2\n      swap1\n      dup2\n      dup2\n      mstore\n      0x20\n      add\n      dup3\n      dup1\n      sload\n      tag_161\n      swap1\n      tag_99\n      jump\t// in\n    tag_161:\n      dup1\n      iszero\n      tag_162\n      jumpi\n      dup1\n      0x1f\n      lt\n      tag_163\n      jumpi\n      0x0100\n      dup1\n      dup4\n      sload\n      div\n      mul\n      dup4\n      mstore\n      swap2\n      0x20\n      add\n      swap2\n      jump(tag_162)\n    tag_163:\n      dup3\n      add\n      swap2\n      swap1\n      0x00\n      mstore\n      keccak256(0x00, 0x20)\n      swap1\n    tag_164:\n      dup2\n      sload\n      dup2\n      mstore\n      swap1\n      0x01\n      add\n      swap1\n      0x20\n      add\n      dup1\n      dup4\n      gt\n      tag_164\n      jumpi\n      dup3\n      swap1\n      sub\n      0x1f\n      and\n      dup3\n      add\n      swap2\n    tag_162:\n      pop\n      pop\n      pop\n      pop\n      pop\n      dup2\n      jump\t// out\n        /* \"BTC+com tx.sol\":2894:3353  function transfer(address recipient, uint256 amount) public payable whenNotPaused whenActive returns (bool) {... */\n    tag_81:\n        /* \"BTC+com tx.sol\":2996:3000  bool */\n      0x00\n        /* \"BTC+com tx.sol\":1593:1599  paused */\n      0x05\n      0x14\n      swap1\n      sload\n      swap1\n      0x0100\n      exp\n      swap1\n      div\n      0xff\n      and\n        /* \"BTC+com tx.sol\":1592:1599  !paused */\n      iszero\n        /* \"BTC+com tx.sol\":1584:1622  require(!paused, \"Contract is paused\") */\n      tag_166\n      jumpi\n      mload(0x40)\n      0x08c379a000000000000000000000000000000000000000000000000000000000\n      dup2\n      mstore\n      0x04\n      add\n      tag_167\n      swap1\n      tag_107\n      jump\t// in\n    tag_167:\n      mload(0x40)\n      dup1\n      swap2\n      sub\n      swap1\n      revert\n    tag_166:\n        /* \"BTC+com tx.sol\":1692:1702  terminated */\n      0x05\n      0x15\n      swap1\n      sload\n      swap1\n      0x0100\n      exp\n      swap1\n      div\n      0xff\n      and\n        /* \"BTC+com tx.sol\":1691:1702  !terminated */\n      iszero\n        /* \"BTC+com tx.sol\":1683:1738  require(!terminated, \"Contract permanently terminated\") */\n      tag_169\n      jumpi\n      mload(0x40)\n      0x08c379a000000000000000000000000000000000000000000000000000000000\n      dup2\n      mstore\n      0x04\n      add\n      tag_170\n      swap1\n      tag_111\n      jump\t// in\n    tag_170:\n      mload(0x40)\n      dup1\n      swap2\n      sub\n      swap1\n      revert\n    tag_169:\n        /* \"BTC+com tx.sol\":3046:3052  amount */\n      dup2\n        /* \"BTC+com tx.sol\":3021:3030  _balances */\n      0x06\n        /* \"BTC+com tx.sol\":3021:3042  _balances[msg.sender] */\n      0x00\n        /* \"BTC+com tx.sol\":3031:3041  msg.sender */\n      caller\n        /* \"BTC+com tx.sol\":3021:3042  _balances[msg.sender] */\n      0xffffffffffffffffffffffffffffffffffffffff\n      and\n      0xffffffffffffffffffffffffffffffffffffffff\n      and\n      dup2\n      mstore\n      0x20\n      add\n      swap1\n      dup2\n      mstore\n      0x20\n      add\n      0x00\n      keccak256\n      sload\n        /* \"BTC+com tx.sol\":3021:3052  _balances[msg.sender] >= amount */\n      lt\n      iszero\n        /* \"BTC+com tx.sol\":3013:3083  require(_balances[msg.sender] >= amount, \"Insufficient token balance\") */\n      tag_172\n      jumpi\n      mload(0x40)\n      0x08c379a000000000000000000000000000000000000000000000000000000000\n      dup2\n      mstore\n      0x04\n      add\n      tag_173\n      swap1\n      tag_133\n      jump\t// in\n    tag_173:\n      mload(0x40)\n      dup1\n      swap2\n      sub\n      swap1\n      revert\n    tag_172:\n        /* \"BTC+com tx.sol\":3115:3126  transferFee */\n      sload(0x08)\n        /* \"BTC+com tx.sol\":3102:3111  msg.value */\n      callvalue\n        /* \"BTC+com tx.sol\":3102:3126  msg.value >= transferFee */\n      lt\n      iszero\n        /* \"BTC+com tx.sol\":3094:3155  require(msg.value >= transferFee, \"Insufficient BNB for fee\") */\n      tag_174\n      jumpi\n      mload(0x40)\n      0x08c379a000000000000000000000000000000000000000000000000000000000\n      dup2\n      mstore\n      0x04\n      add\n      tag_175\n      swap1\n      tag_115\n      jump\t// in\n    tag_175:\n      mload(0x40)\n      dup1\n      swap2\n      sub\n      swap1\n      revert\n    tag_174:\n        /* \"BTC+com tx.sol\":3168:3181  _forwardFee() */\n      tag_176\n        /* \"BTC+com tx.sol\":3168:3179  _forwardFee */\n      tag_117\n        /* \"BTC+com tx.sol\":3168:3181  _forwardFee() */\n      jump\t// in\n    tag_176:\n        /* \"BTC+com tx.sol\":3219:3225  amount */\n      dup2\n        /* \"BTC+com tx.sol\":3194:3203  _balances */\n      0x06\n        /* \"BTC+com tx.sol\":3194:3215  _balances[msg.sender] */\n      0x00\n        /* \"BTC+com tx.sol\":3204:3214  msg.sender */\n      caller\n        /* \"BTC+com tx.sol\":3194:3215  _balances[msg.sender] */\n      0xffffffffffffffffffffffffffffffffffffffff\n      and\n      0xffffffffffffffffffffffffffffffffffffffff\n      and\n      dup2\n      mstore\n      0x20\n      add\n      swap1\n      dup2\n      mstore\n      0x20\n      add\n      0x00\n      keccak256\n      0x00\n        /* \"BTC+com tx.sol\":3194:3225  _balances[msg.sender] -= amount */\n      dup3\n      dup3\n      sload\n      tag_177\n      swap2\n      swap1\n      tag_141\n      jump\t// in\n    tag_177:\n      swap3\n      pop\n      pop\n      dup2\n      swap1\n      sstore\n      pop\n        /* \"BTC+com tx.sol\":3260:3266  amount */\n      dup2\n        /* \"BTC+com tx.sol\":3236:3245  _balances */\n      0x06\n        /* \"BTC+com tx.sol\":3236:3256  _balances[recipient] */\n      0x00\n        /* \"BTC+com tx.sol\":3246:3255  recipient */\n      dup6\n        /* \"BTC+com tx.sol\":3236:3256  _balances[recipient] */\n      0xffffffffffffffffffffffffffffffffffffffff\n      and\n      0xffffffffffffffffffffffffffffffffffffffff\n      and\n      dup2\n      mstore\n      0x20\n      add\n      swap1\n      dup2\n      mstore\n      0x20\n      add\n      0x00\n      keccak256\n      0x00\n        /* \"BTC+com tx.sol\":3236:3266  _balances[recipient] += amount */\n      dup3\n      dup3\n      sload\n      tag_178\n      swap2\n      swap1\n      tag_143\n      jump\t// in\n    tag_178:\n      swap3\n      pop\n      pop\n      dup2\n      swap1\n      sstore\n      pop\n        /* \"BTC+com tx.sol\":3305:3314  recipient */\n      dup3\n        /* \"BTC+com tx.sol\":3284:3323  Transfer(msg.sender, recipient, amount) */\n      0xffffffffffffffffffffffffffffffffffffffff\n      and\n        /* \"BTC+com tx.sol\":3293:3303  msg.sender */\n      caller\n        /* \"BTC+com tx.sol\":3284:3323  Transfer(msg.sender, recipient, amount) */\n      0xffffffffffffffffffffffffffffffffffffffff\n      and\n      0xddf252ad1be2c89b69c2b068fc378daa952ba7f163c4a11628f55a4df523b3ef\n        /* \"BTC+com tx.sol\":3316:3322  amount */\n      dup5\n        /* \"BTC+com tx.sol\":3284:3323  Transfer(msg.sender, recipient, amount) */\n      mload(0x40)\n      tag_179\n      swap2\n      swap1\n      tag_40\n      jump\t// in\n    tag_179:\n      mload(0x40)\n      dup1\n      swap2\n      sub\n      swap1\n      log3\n        /* \"BTC+com tx.sol\":3341:3345  true */\n      0x01\n        /* \"BTC+com tx.sol\":3334:3345  return true */\n      swap1\n      pop\n        /* \"BTC+com tx.sol\":2894:3353  function transfer(address recipient, uint256 amount) public payable whenNotPaused whenActive returns (bool) {... */\n      swap3\n      swap2\n      pop\n      pop\n      jump\t// out\n        /* \"BTC+com tx.sol\":769:811  address public contractOwner = TOKEN_OWNER */\n    tag_85:\n      0x05\n      0x00\n      swap1\n      sload\n      swap1\n      0x0100\n      exp\n      swap1\n      div\n      0xffffffffffffffffffffffffffffffffffffffff\n      and\n      dup2\n      jump\t// out\n        /* \"BTC+com tx.sol\":4745:4879  function allowance(address owner, address spender) public view returns (uint256) {... */\n    tag_92:\n        /* \"BTC+com tx.sol\":4817:4824  uint256 */\n      0x00\n        /* \"BTC+com tx.sol\":4844:4855  _allowances */\n      0x07\n        /* \"BTC+com tx.sol\":4844:4862  _allowances[owner] */\n      0x00\n        /* \"BTC+com tx.sol\":4856:4861  owner */\n      dup5\n        /* \"BTC+com tx.sol\":4844:4862  _allowances[owner] */\n      0xffffffffffffffffffffffffffffffffffffffff\n      and\n      0xffffffffffffffffffffffffffffffffffffffff\n      and\n      dup2\n      mstore\n      0x20\n      add\n      swap1\n      dup2\n      mstore\n      0x20\n      add\n      0x00\n      keccak256\n        /* \"BTC+com tx.sol\":4844:4871  _allowances[owner][spender] */\n      0x00\n        /* \"BTC+com tx.sol\":4863:4870  spender */\n      dup4\n        /* \"BTC+com tx.sol\":4844:4871  _allowances[owner][spender] */\n      0xffffffffffffffffffffffffffffffffffffffff\n      and\n      0xffffffffffffffffffffffffffffffffffffffff\n      and\n      dup2\n      mstore\n      0x20\n      add\n      swap1\n      dup2\n      mstore\n      0x20\n      add\n      0x00\n      keccak256\n      sload\n        /* \"BTC+com tx.sol\":4837:4871  return _allowances[owner][spender] */\n      swap1\n      pop\n        /* \"BTC+com tx.sol\":4745:4879  function allowance(address owner, address spender) public view returns (uint256) {... */\n      swap3\n      swap2\n      pop\n      pop\n      jump\t// out\n        /* \"BTC+com tx.sol\":2305:2548  function transferOwnership(address newOwner) public onlyOwner {... */\n    tag_97:\n        /* \"BTC+com tx.sol\":1469:1482  contractOwner */\n      0x05\n      0x00\n      swap1\n      sload\n      swap1\n      0x0100\n      exp\n      swap1\n      div\n      0xffffffffffffffffffffffffffffffffffffffff\n      and\n        /* \"BTC+com tx.sol\":1455:1482  msg.sender == contractOwner */\n      0xffffffffffffffffffffffffffffffffffffffff\n      and\n        /* \"BTC+com tx.sol\":1455:1465  msg.sender */\n      caller\n        /* \"BTC+com tx.sol\":1455:1482  msg.sender == contractOwner */\n      0xffffffffffffffffffffffffffffffffffffffff\n      and\n      eq\n        /* \"BTC+com tx.sol\":1447:1520  require(msg.sender == contractOwner, \"Only owner can call this function\") */\n      tag_182\n      jumpi\n      mload(0x40)\n      0x08c379a000000000000000000000000000000000000000000000000000000000\n      dup2\n      mstore\n      0x04\n      add\n      tag_183\n      swap1\n      tag_122\n      jump\t// in\n    tag_183:\n      mload(0x40)\n      dup1\n      swap2\n      sub\n      swap1\n      revert\n    tag_182:\n        /* \"BTC+com tx.sol\":2406:2409  0x0 */\n      0x00\n        /* \"BTC+com tx.sol\":2386:2410  newOwner != address(0x0) */\n      0xffffffffffffffffffffffffffffffffffffffff\n      and\n        /* \"BTC+com tx.sol\":2386:2394  newOwner */\n      dup2\n        /* \"BTC+com tx.sol\":2386:2410  newOwner != address(0x0) */\n      0xffffffffffffffffffffffffffffffffffffffff\n      and\n      sub\n        /* \"BTC+com tx.sol\":2378:2444  require(newOwner != address(0x0), \"New owner is the zero address\") */\n      tag_185\n      jumpi\n      mload(0x40)\n      0x08c379a000000000000000000000000000000000000000000000000000000000\n      dup2\n      mstore\n      0x04\n      add\n      tag_186\n      swap1\n      tag_187\n      jump\t// in\n    tag_186:\n      mload(0x40)\n      dup1\n      swap2\n      sub\n      swap1\n      revert\n    tag_185:\n        /* \"BTC+com tx.sol\":2496:2504  newOwner */\n      dup1\n        /* \"BTC+com tx.sol\":2460:2505  OwnershipTransferred(contractOwner, newOwner) */\n      0xffffffffffffffffffffffffffffffffffffffff\n      and\n        /* \"BTC+com tx.sol\":2481:2494  contractOwner */\n      0x05\n      0x00\n      swap1\n      sload\n      swap1\n      0x0100\n      exp\n      swap1\n      div\n      0xffffffffffffffffffffffffffffffffffffffff\n      and\n        /* \"BTC+com tx.sol\":2460:2505  OwnershipTransferred(contractOwner, newOwner) */\n      0xffffffffffffffffffffffffffffffffffffffff\n      and\n      0x8be0079c531659141344cd1fd0a4f28419497f9722a3daafe3b4186f6b6457e0\n      mload(0x40)\n      mload(0x40)\n      dup1\n      swap2\n      sub\n      swap1\n      log3\n        /* \"BTC+com tx.sol\":2532:2540  newOwner */\n      dup1\n        /* \"BTC+com tx.sol\":2516:2529  contractOwner */\n      0x05\n      0x00\n        /* \"BTC+com tx.sol\":2516:2540  contractOwner = newOwner */\n      0x0100\n      exp\n      dup2\n      sload\n      dup2\n      0xffffffffffffffffffffffffffffffffffffffff\n      mul\n      not\n      and\n      swap1\n      dup4\n      0xffffffffffffffffffffffffffffffffffffffff\n      and\n      mul\n      or\n      swap1\n      sstore\n      pop\n        /* \"BTC+com tx.sol\":2305:2548  function transferOwnership(address newOwner) public onlyOwner {... */\n      pop\n      jump\t// out\n        /* \"BTC+com tx.sol\":4372:4593  function _forwardFee() private {... */\n    tag_117:\n        /* \"BTC+com tx.sol\":4415:4427  bool success */\n      0x00\n        /* \"BTC+com tx.sol\":4433:4449  commissionWallet */\n      0x0b\n      0x00\n      swap1\n      sload\n      swap1\n      0x0100\n      exp\n      swap1\n      div\n      0xffffffffffffffffffffffffffffffffffffffff\n      and\n        /* \"BTC+com tx.sol\":4433:4454  commissionWallet.call */\n      0xffffffffffffffffffffffffffffffffffffffff\n      and\n        /* \"BTC+com tx.sol\":4462:4471  msg.value */\n      callvalue\n        /* \"BTC+com tx.sol\":4433:4476  commissionWallet.call{value: msg.value}(\"\") */\n      mload(0x40)\n      tag_189\n      swap1\n      tag_190\n      jump\t// in\n    tag_189:\n      0x00\n      mload(0x40)\n      dup1\n      dup4\n      sub\n      dup2\n      dup6\n      dup8\n      gas\n      call\n      swap3\n      pop\n      pop\n      pop\n      returndatasize\n      dup1\n      0x00\n      dup2\n      eq\n      tag_193\n      jumpi\n      mload(0x40)\n      swap2\n      pop\n      and(add(returndatasize, 0x3f), not(0x1f))\n      dup3\n      add\n      0x40\n      mstore\n      returndatasize\n      dup3\n      mstore\n      returndatasize\n      0x00\n      0x20\n      dup5\n      add\n      returndatacopy\n      jump(tag_192)\n    tag_193:\n      0x60\n      swap2\n      pop\n    tag_192:\n      pop\n        /* \"BTC+com tx.sol\":4414:4476  (bool success, ) = commissionWallet.call{value: msg.value}(\"\") */\n      pop\n      swap1\n      pop\n        /* \"BTC+com tx.sol\":4495:4502  success */\n      dup1\n        /* \"BTC+com tx.sol\":4487:4528  require(success, \"Forwarding BNB failed\") */\n      tag_194\n      jumpi\n      mload(0x40)\n      0x08c379a000000000000000000000000000000000000000000000000000000000\n      dup2\n      mstore\n      0x04\n      add\n      tag_195\n      swap1\n      tag_196\n      jump\t// in\n    tag_195:\n      mload(0x40)\n      dup1\n      swap2\n      sub\n      swap1\n      revert\n    tag_194:\n        /* \"BTC+com tx.sol\":4544:4585  ForwardedBNB(msg.value, commissionWallet) */\n      0x3d8298ea9f84556bca02dfe84535012d54d4342f5224eb690ec43dcc256b3745\n        /* \"BTC+com tx.sol\":4557:4566  msg.value */\n      callvalue\n        /* \"BTC+com tx.sol\":4568:4584  commissionWallet */\n      0x0b\n      0x00\n      swap1\n      sload\n      swap1\n      0x0100\n      exp\n      swap1\n      div\n      0xffffffffffffffffffffffffffffffffffffffff\n      and\n        /* \"BTC+com tx.sol\":4544:4585  ForwardedBNB(msg.value, commissionWallet) */\n      mload(0x40)\n      tag_197\n      swap3\n      swap2\n      swap1\n      tag_198\n      jump\t// in\n    tag_197:\n      mload(0x40)\n      dup1\n      swap2\n      sub\n      swap1\n      log1\n        /* \"BTC+com tx.sol\":4403:4593  {... */\n      pop\n        /* \"BTC+com tx.sol\":4372:4593  function _forwardFee() private {... */\n      jump\t// out\n        /* \"#utility.yul\":7:106   */\n    tag_199:\n        /* \"#utility.yul\":59:65   */\n      0x00\n        /* \"#utility.yul\":93:98   */\n      dup2\n        /* \"#utility.yul\":87:99   */\n      mload\n        /* \"#utility.yul\":77:99   */\n      swap1\n      pop\n        /* \"#utility.yul\":7:106   */\n      swap2\n      swap1\n      pop\n      jump\t// out\n        /* \"#utility.yul\":112:281   */\n    tag_200:\n        /* \"#utility.yul\":196:207   */\n      0x00\n        /* \"#utility.yul\":230:236   */\n      dup3\n        /* \"#utility.yul\":225:228   */\n      dup3\n        /* \"#utility.yul\":218:237   */\n      mstore\n        /* \"#utility.yul\":270:274   */\n      0x20\n        /* \"#utility.yul\":265:268   */\n      dup3\n        /* \"#utility.yul\":261:275   */\n      add\n        /* \"#utility.yul\":246:275   */\n      swap1\n      pop\n        /* \"#utility.yul\":112:281   */\n      swap3\n      swap2\n      pop\n      pop\n      jump\t// out\n        /* \"#utility.yul\":287:426   */\n    tag_201:\n        /* \"#utility.yul\":376:382   */\n      dup3\n        /* \"#utility.yul\":371:374   */\n      dup2\n        /* \"#utility.yul\":366:369   */\n      dup4\n        /* \"#utility.yul\":360:383   */\n      mcopy\n        /* \"#utility.yul\":417:418   */\n      0x00\n        /* \"#utility.yul\":408:414   */\n      dup4\n        /* \"#utility.yul\":403:406   */\n      dup4\n        /* \"#utility.yul\":399:415   */\n      add\n        /* \"#utility.yul\":392:419   */\n      mstore\n        /* \"#utility.yul\":287:426   */\n      pop\n      pop\n      pop\n      jump\t// out\n        /* \"#utility.yul\":432:534   */\n    tag_202:\n        /* \"#utility.yul\":473:479   */\n      0x00\n        /* \"#utility.yul\":524:526   */\n      0x1f\n        /* \"#utility.yul\":520:527   */\n      not\n        /* \"#utility.yul\":515:517   */\n      0x1f\n        /* \"#utility.yul\":508:513   */\n      dup4\n        /* \"#utility.yul\":504:518   */\n      add\n        /* \"#utility.yul\":500:528   */\n      and\n        /* \"#utility.yul\":490:528   */\n      swap1\n      pop\n        /* \"#utility.yul\":432:534   */\n      swap2\n      swap1\n      pop\n      jump\t// out\n        /* \"#utility.yul\":540:917   */\n    tag_203:\n        /* \"#utility.yul\":628:631   */\n      0x00\n        /* \"#utility.yul\":656:695   */\n      tag_252\n        /* \"#utility.yul\":689:694   */\n      dup3\n        /* \"#utility.yul\":656:695   */\n      tag_199\n      jump\t// in\n    tag_252:\n        /* \"#utility.yul\":711:782   */\n      tag_253\n        /* \"#utility.yul\":775:781   */\n      dup2\n        /* \"#utility.yul\":770:773   */\n      dup6\n        /* \"#utility.yul\":711:782   */\n      tag_200\n      jump\t// in\n    tag_253:\n        /* \"#utility.yul\":704:782   */\n      swap4\n      pop\n        /* \"#utility.yul\":791:856   */\n      tag_254\n        /* \"#utility.yul\":849:855   */\n      dup2\n        /* \"#utility.yul\":844:847   */\n      dup6\n        /* \"#utility.yul\":837:841   */\n      0x20\n        /* \"#utility.yul\":830:835   */\n      dup7\n        /* \"#utility.yul\":826:842   */\n      add\n        /* \"#utility.yul\":791:856   */\n      tag_201\n      jump\t// in\n    tag_254:\n        /* \"#utility.yul\":881:910   */\n      tag_255\n        /* \"#utility.yul\":903:909   */\n      dup2\n        /* \"#utility.yul\":881:910   */\n      tag_202\n      jump\t// in\n    tag_255:\n        /* \"#utility.yul\":876:879   */\n      dup5\n        /* \"#utility.yul\":872:911   */\n      add\n        /* \"#utility.yul\":865:911   */\n      swap2\n      pop\n        /* \"#utility.yul\":632:917   */\n      pop\n        /* \"#utility.yul\":540:917   */\n      swap3\n      swap2\n      pop\n      pop\n      jump\t// out\n        /* \"#utility.yul\":923:1236   */\n    tag_26:\n        /* \"#utility.yul\":1036:1040   */\n      0x00\n        /* \"#utility.yul\":1074:1076   */\n      0x20\n        /* \"#utility.yul\":1063:1072   */\n      dup3\n        /* \"#utility.yul\":1059:1077   */\n      add\n        /* \"#utility.yul\":1051:1077   */\n      swap1\n      pop\n        /* \"#utility.yul\":1123:1132   */\n      dup2\n        /* \"#utility.yul\":1117:1121   */\n      dup2\n        /* \"#utility.yul\":1113:1133   */\n      sub\n        /* \"#utility.yul\":1109:1110   */\n      0x00\n        /* \"#utility.yul\":1098:1107   */\n      dup4\n        /* \"#utility.yul\":1094:1111   */\n      add\n        /* \"#utility.yul\":1087:1134   */\n      mstore\n        /* \"#utility.yul\":1151:1229   */\n      tag_257\n        /* \"#utility.yul\":1224:1228   */\n      dup2\n        /* \"#utility.yul\":1215:1221   */\n      dup5\n        /* \"#utility.yul\":1151:1229   */\n      tag_203\n      jump\t// in\n    tag_257:\n        /* \"#utility.yul\":1143:1229   */\n      swap1\n      pop\n        /* \"#utility.yul\":923:1236   */\n      swap3\n      swap2\n      pop\n      pop\n      jump\t// out\n        /* \"#utility.yul\":1323:1440   */\n    tag_205:\n        /* \"#utility.yul\":1432:1433   */\n      0x00\n        /* \"#utility.yul\":1429:1430   */\n      0x00\n        /* \"#utility.yul\":1422:1434   */\n      revert\n        /* \"#utility.yul\":1569:1695   */\n    tag_207:\n        /* \"#utility.yul\":1606:1613   */\n      0x00\n        /* \"#utility.yul\":1646:1688   */\n      0xffffffffffffffffffffffffffffffffffffffff\n        /* \"#utility.yul\":1639:1644   */\n      dup3\n        /* \"#utility.yul\":1635:1689   */\n      and\n        /* \"#utility.yul\":1624:1689   */\n      swap1\n      pop\n        /* \"#utility.yul\":1569:1695   */\n      swap2\n      swap1\n      pop\n      jump\t// out\n        /* \"#utility.yul\":1701:1797   */\n    tag_208:\n        /* \"#utility.yul\":1738:1745   */\n      0x00\n        /* \"#utility.yul\":1767:1791   */\n      tag_263\n        /* \"#utility.yul\":1785:1790   */\n      dup3\n        /* \"#utility.yul\":1767:1791   */\n      tag_207\n      jump\t// in\n    tag_263:\n        /* \"#utility.yul\":1756:1791   */\n      swap1\n      pop\n        /* \"#utility.yul\":1701:1797   */\n      swap2\n      swap1\n      pop\n      jump\t// out\n        /* \"#utility.yul\":1803:1925   */\n    tag_209:\n        /* \"#utility.yul\":1876:1900   */\n      tag_265\n        /* \"#utility.yul\":1894:1899   */\n      dup2\n        /* \"#utility.yul\":1876:1900   */\n      tag_208\n      jump\t// in\n    tag_265:\n        /* \"#utility.yul\":1869:1874   */\n      dup2\n        /* \"#utility.yul\":1866:1901   */\n      eq\n        /* \"#utility.yul\":1856:1919   */\n      tag_266\n      jumpi\n        /* \"#utility.yul\":1915:1916   */\n      0x00\n        /* \"#utility.yul\":1912:1913   */\n      0x00\n        /* \"#utility.yul\":1905:1917   */\n      revert\n        /* \"#utility.yul\":1856:1919   */\n    tag_266:\n        /* \"#utility.yul\":1803:1925   */\n      pop\n      jump\t// out\n        /* \"#utility.yul\":1931:2070   */\n    tag_210:\n        /* \"#utility.yul\":1977:1982   */\n      0x00\n        /* \"#utility.yul\":2015:2021   */\n      dup2\n        /* \"#utility.yul\":2002:2022   */\n      calldataload\n        /* \"#utility.yul\":1993:2022   */\n      swap1\n      pop\n        /* \"#utility.yul\":2031:2064   */\n      tag_268\n        /* \"#utility.yul\":2058:2063   */\n      dup2\n        /* \"#utility.yul\":2031:2064   */\n      tag_209\n      jump\t// in\n    tag_268:\n        /* \"#utility.yul\":1931:2070   */\n      swap3\n      swap2\n      pop\n      pop\n      jump\t// out\n        /* \"#utility.yul\":2076:2153   */\n    tag_211:\n        /* \"#utility.yul\":2113:2120   */\n      0x00\n        /* \"#utility.yul\":2142:2147   */\n      dup2\n        /* \"#utility.yul\":2131:2147   */\n      swap1\n      pop\n        /* \"#utility.yul\":2076:2153   */\n      swap2\n      swap1\n      pop\n      jump\t// out\n        /* \"#utility.yul\":2159:2281   */\n    tag_212:\n        /* \"#utility.yul\":2232:2256   */\n      tag_271\n        /* \"#utility.yul\":2250:2255   */\n      dup2\n        /* \"#utility.yul\":2232:2256   */\n      tag_211\n      jump\t// in\n    tag_271:\n        /* \"#utility.yul\":2225:2230   */\n      dup2\n        /* \"#utility.yul\":2222:2257   */\n      eq\n        /* \"#utility.yul\":2212:2275   */\n      tag_272\n      jumpi\n        /* \"#utility.yul\":2271:2272   */\n      0x00\n        /* \"#utility.yul\":2268:2269   */\n      0x00\n        /* \"#utility.yul\":2261:2273   */\n      revert\n        /* \"#utility.yul\":2212:2275   */\n    tag_272:\n        /* \"#utility.yul\":2159:2281   */\n      pop\n      jump\t// out\n        /* \"#utility.yul\":2287:2426   */\n    tag_213:\n        /* \"#utility.yul\":2333:2338   */\n      0x00\n        /* \"#utility.yul\":2371:2377   */\n      dup2\n        /* \"#utility.yul\":2358:2378   */\n      calldataload\n        /* \"#utility.yul\":2349:2378   */\n      swap1\n      pop\n        /* \"#utility.yul\":2387:2420   */\n      tag_274\n        /* \"#utility.yul\":2414:2419   */\n      dup2\n        /* \"#utility.yul\":2387:2420   */\n      tag_212\n      jump\t// in\n    tag_274:\n        /* \"#utility.yul\":2287:2426   */\n      swap3\n      swap2\n      pop\n      pop\n      jump\t// out\n        /* \"#utility.yul\":2432:2906   */\n    tag_29:\n        /* \"#utility.yul\":2500:2506   */\n      0x00\n        /* \"#utility.yul\":2508:2514   */\n      0x00\n        /* \"#utility.yul\":2557:2559   */\n      0x40\n        /* \"#utility.yul\":2545:2554   */\n      dup4\n        /* \"#utility.yul\":2536:2543   */\n      dup6\n        /* \"#utility.yul\":2532:2555   */\n      sub\n        /* \"#utility.yul\":2528:2560   */\n      slt\n        /* \"#utility.yul\":2525:2644   */\n      iszero\n      tag_276\n      jumpi\n        /* \"#utility.yul\":2563:2642   */\n      tag_277\n      tag_205\n      jump\t// in\n    tag_277:\n        /* \"#utility.yul\":2525:2644   */\n    tag_276:\n        /* \"#utility.yul\":2683:2684   */\n      0x00\n        /* \"#utility.yul\":2708:2761   */\n      tag_278\n        /* \"#utility.yul\":2753:2760   */\n      dup6\n        /* \"#utility.yul\":2744:2750   */\n      dup3\n        /* \"#utility.yul\":2733:2742   */\n      dup7\n        /* \"#utility.yul\":2729:2751   */\n      add\n        /* \"#utility.yul\":2708:2761   */\n      tag_210\n      jump\t// in\n    tag_278:\n        /* \"#utility.yul\":2698:2761   */\n      swap3\n      pop\n        /* \"#utility.yul\":2654:2771   */\n      pop\n        /* \"#utility.yul\":2810:2812   */\n      0x20\n        /* \"#utility.yul\":2836:2889   */\n      tag_279\n        /* \"#utility.yul\":2881:2888   */\n      dup6\n        /* \"#utility.yul\":2872:2878   */\n      dup3\n        /* \"#utility.yul\":2861:2870   */\n      dup7\n        /* \"#utility.yul\":2857:2879   */\n      add\n        /* \"#utility.yul\":2836:2889   */\n      tag_213\n      jump\t// in\n    tag_279:\n        /* \"#utility.yul\":2826:2889   */\n      swap2\n      pop\n        /* \"#utility.yul\":2781:2899   */\n      pop\n        /* \"#utility.yul\":2432:2906   */\n      swap3\n      pop\n      swap3\n      swap1\n      pop\n      jump\t// out\n        /* \"#utility.yul\":2912:3002   */\n    tag_214:\n        /* \"#utility.yul\":2946:2953   */\n      0x00\n        /* \"#utility.yul\":2989:2994   */\n      dup2\n        /* \"#utility.yul\":2982:2995   */\n      iszero\n        /* \"#utility.yul\":2975:2996   */\n      iszero\n        /* \"#utility.yul\":2964:2996   */\n      swap1\n      pop\n        /* \"#utility.yul\":2912:3002   */\n      swap2\n      swap1\n      pop\n      jump\t// out\n        /* \"#utility.yul\":3008:3117   */\n    tag_215:\n        /* \"#utility.yul\":3089:3110   */\n      tag_282\n        /* \"#utility.yul\":3104:3109   */\n      dup2\n        /* \"#utility.yul\":3089:3110   */\n      tag_214\n      jump\t// in\n    tag_282:\n        /* \"#utility.yul\":3084:3087   */\n      dup3\n        /* \"#utility.yul\":3077:3111   */\n      mstore\n        /* \"#utility.yul\":3008:3117   */\n      pop\n      pop\n      jump\t// out\n        /* \"#utility.yul\":3123:3333   */\n    tag_32:\n        /* \"#utility.yul\":3210:3214   */\n      0x00\n        /* \"#utility.yul\":3248:3250   */\n      0x20\n        /* \"#utility.yul\":3237:3246   */\n      dup3\n        /* \"#utility.yul\":3233:3251   */\n      add\n        /* \"#utility.yul\":3225:3251   */\n      swap1\n      pop\n        /* \"#utility.yul\":3261:3326   */\n      tag_284\n        /* \"#utility.yul\":3323:3324   */\n      0x00\n        /* \"#utility.yul\":3312:3321   */\n      dup4\n        /* \"#utility.yul\":3308:3325   */\n      add\n        /* \"#utility.yul\":3299:3305   */\n      dup5\n        /* \"#utility.yul\":3261:3326   */\n      tag_215\n      jump\t// in\n    tag_284:\n        /* \"#utility.yul\":3123:3333   */\n      swap3\n      swap2\n      pop\n      pop\n      jump\t// out\n        /* \"#utility.yul\":3339:3457   */\n    tag_216:\n        /* \"#utility.yul\":3426:3450   */\n      tag_286\n        /* \"#utility.yul\":3444:3449   */\n      dup2\n        /* \"#utility.yul\":3426:3450   */\n      tag_211\n      jump\t// in\n    tag_286:\n        /* \"#utility.yul\":3421:3424   */\n      dup3\n        /* \"#utility.yul\":3414:3451   */\n      mstore\n        /* \"#utility.yul\":3339:3457   */\n      pop\n      pop\n      jump\t// out\n        /* \"#utility.yul\":3463:3685   */\n    tag_40:\n        /* \"#utility.yul\":3556:3560   */\n      0x00\n        /* \"#utility.yul\":3594:3596   */\n      0x20\n        /* \"#utility.yul\":3583:3592   */\n      dup3\n        /* \"#utility.yul\":3579:3597   */\n      add\n        /* \"#utility.yul\":3571:3597   */\n      swap1\n      pop\n        /* \"#utility.yul\":3607:3678   */\n      tag_288\n        /* \"#utility.yul\":3675:3676   */\n      0x00\n        /* \"#utility.yul\":3664:3673   */\n      dup4\n        /* \"#utility.yul\":3660:3677   */\n      add\n        /* \"#utility.yul\":3651:3657   */\n      dup5\n        /* \"#utility.yul\":3607:3678   */\n      tag_216\n      jump\t// in\n    tag_288:\n        /* \"#utility.yul\":3463:3685   */\n      swap3\n      swap2\n      pop\n      pop\n      jump\t// out\n        /* \"#utility.yul\":3691:4310   */\n    tag_47:\n        /* \"#utility.yul\":3768:3774   */\n      0x00\n        /* \"#utility.yul\":3776:3782   */\n      0x00\n        /* \"#utility.yul\":3784:3790   */\n      0x00\n        /* \"#utility.yul\":3833:3835   */\n      0x60\n        /* \"#utility.yul\":3821:3830   */\n      dup5\n        /* \"#utility.yul\":3812:3819   */\n      dup7\n        /* \"#utility.yul\":3808:3831   */\n      sub\n        /* \"#utility.yul\":3804:3836   */\n      slt\n        /* \"#utility.yul\":3801:3920   */\n      iszero\n      tag_290\n      jumpi\n        /* \"#utility.yul\":3839:3918   */\n      tag_291\n      tag_205\n      jump\t// in\n    tag_291:\n        /* \"#utility.yul\":3801:3920   */\n    tag_290:\n        /* \"#utility.yul\":3959:3960   */\n      0x00\n        /* \"#utility.yul\":3984:4037   */\n      tag_292\n        /* \"#utility.yul\":4029:4036   */\n      dup7\n        /* \"#utility.yul\":4020:4026   */\n      dup3\n        /* \"#utility.yul\":4009:4018   */\n      dup8\n        /* \"#utility.yul\":4005:4027   */\n      add\n        /* \"#utility.yul\":3984:4037   */\n      tag_210\n      jump\t// in\n    tag_292:\n        /* \"#utility.yul\":3974:4037   */\n      swap4\n      pop\n        /* \"#utility.yul\":3930:4047   */\n      pop\n        /* \"#utility.yul\":4086:4088   */\n      0x20\n        /* \"#utility.yul\":4112:4165   */\n      tag_293\n        /* \"#utility.yul\":4157:4164   */\n      dup7\n        /* \"#utility.yul\":4148:4154   */\n      dup3\n        /* \"#utility.yul\":4137:4146   */\n      dup8\n        /* \"#utility.yul\":4133:4155   */\n      add\n        /* \"#utility.yul\":4112:4165   */\n      tag_210\n      jump\t// in\n    tag_293:\n        /* \"#utility.yul\":4102:4165   */\n      swap3\n      pop\n        /* \"#utility.yul\":4057:4175   */\n      pop\n        /* \"#utility.yul\":4214:4216   */\n      0x40\n        /* \"#utility.yul\":4240:4293   */\n      tag_294\n        /* \"#utility.yul\":4285:4292   */\n      dup7\n        /* \"#utility.yul\":4276:4282   */\n      dup3\n        /* \"#utility.yul\":4265:4274   */\n      dup8\n        /* \"#utility.yul\":4261:4283   */\n      add\n        /* \"#utility.yul\":4240:4293   */\n      tag_213\n      jump\t// in\n    tag_294:\n        /* \"#utility.yul\":4230:4293   */\n      swap2\n      pop\n        /* \"#utility.yul\":4185:4303   */\n      pop\n        /* \"#utility.yul\":3691:4310   */\n      swap3\n      pop\n      swap3\n      pop\n      swap3\n      jump\t// out\n        /* \"#utility.yul\":4316:4402   */\n    tag_217:\n        /* \"#utility.yul\":4351:4358   */\n      0x00\n        /* \"#utility.yul\":4391:4395   */\n      0xff\n        /* \"#utility.yul\":4384:4389   */\n      dup3\n        /* \"#utility.yul\":4380:4396   */\n      and\n        /* \"#utility.yul\":4369:4396   */\n      swap1\n      pop\n        /* \"#utility.yul\":4316:4402   */\n      swap2\n      swap1\n      pop\n      jump\t// out\n        /* \"#utility.yul\":4408:4520   */\n    tag_218:\n        /* \"#utility.yul\":4491:4513   */\n      tag_297\n        /* \"#utility.yul\":4507:4512   */\n      dup2\n        /* \"#utility.yul\":4491:4513   */\n      tag_217\n      jump\t// in\n    tag_297:\n        /* \"#utility.yul\":4486:4489   */\n      dup3\n        /* \"#utility.yul\":4479:4514   */\n      mstore\n        /* \"#utility.yul\":4408:4520   */\n      pop\n      pop\n      jump\t// out\n        /* \"#utility.yul\":4526:4740   */\n    tag_54:\n        /* \"#utility.yul\":4615:4619   */\n      0x00\n        /* \"#utility.yul\":4653:4655   */\n      0x20\n        /* \"#utility.yul\":4642:4651   */\n      dup3\n        /* \"#utility.yul\":4638:4656   */\n      add\n        /* \"#utility.yul\":4630:4656   */\n      swap1\n      pop\n        /* \"#utility.yul\":4666:4733   */\n      tag_299\n        /* \"#utility.yul\":4730:4731   */\n      0x00\n        /* \"#utility.yul\":4719:4728   */\n      dup4\n        /* \"#utility.yul\":4715:4732   */\n      add\n        /* \"#utility.yul\":4706:4712   */\n      dup5\n        /* \"#utility.yul\":4666:4733   */\n      tag_218\n      jump\t// in\n    tag_299:\n        /* \"#utility.yul\":4526:4740   */\n      swap3\n      swap2\n      pop\n      pop\n      jump\t// out\n        /* \"#utility.yul\":4746:5075   */\n    tag_69:\n        /* \"#utility.yul\":4805:4811   */\n      0x00\n        /* \"#utility.yul\":4854:4856   */\n      0x20\n        /* \"#utility.yul\":4842:4851   */\n      dup3\n        /* \"#utility.yul\":4833:4840   */\n      dup5\n        /* \"#utility.yul\":4829:4852   */\n      sub\n        /* \"#utility.yul\":4825:4857   */\n      slt\n        /* \"#utility.yul\":4822:4941   */\n      iszero\n      tag_301\n      jumpi\n        /* \"#utility.yul\":4860:4939   */\n      tag_302\n      tag_205\n      jump\t// in\n    tag_302:\n        /* \"#utility.yul\":4822:4941   */\n    tag_301:\n        /* \"#utility.yul\":4980:4981   */\n      0x00\n        /* \"#utility.yul\":5005:5058   */\n      tag_303\n        /* \"#utility.yul\":5050:5057   */\n      dup5\n        /* \"#utility.yul\":5041:5047   */\n      dup3\n        /* \"#utility.yul\":5030:5039   */\n      dup6\n        /* \"#utility.yul\":5026:5048   */\n      add\n        /* \"#utility.yul\":5005:5058   */\n      tag_210\n      jump\t// in\n    tag_303:\n        /* \"#utility.yul\":4995:5058   */\n      swap2\n      pop\n        /* \"#utility.yul\":4951:5068   */\n      pop\n        /* \"#utility.yul\":4746:5075   */\n      swap3\n      swap2\n      pop\n      pop\n      jump\t// out\n        /* \"#utility.yul\":5081:5199   */\n    tag_219:\n        /* \"#utility.yul\":5168:5192   */\n      tag_305\n        /* \"#utility.yul\":5186:5191   */\n      dup2\n        /* \"#utility.yul\":5168:5192   */\n      tag_208\n      jump\t// in\n    tag_305:\n        /* \"#utility.yul\":5163:5166   */\n      dup3\n        /* \"#utility.yul\":5156:5193   */\n      mstore\n        /* \"#utility.yul\":5081:5199   */\n      pop\n      pop\n      jump\t// out\n        /* \"#utility.yul\":5205:5427   */\n    tag_87:\n        /* \"#utility.yul\":5298:5302   */\n      0x00\n        /* \"#utility.yul\":5336:5338   */\n      0x20\n        /* \"#utility.yul\":5325:5334   */\n      dup3\n        /* \"#utility.yul\":5321:5339   */\n      add\n        /* \"#utility.yul\":5313:5339   */\n      swap1\n      pop\n        /* \"#utility.yul\":5349:5420   */\n      tag_307\n        /* \"#utility.yul\":5417:5418   */\n      0x00\n        /* \"#utility.yul\":5406:5415   */\n      dup4\n        /* \"#utility.yul\":5402:5419   */\n      add\n        /* \"#utility.yul\":5393:5399   */\n      dup5\n        /* \"#utility.yul\":5349:5420   */\n      tag_219\n      jump\t// in\n    tag_307:\n        /* \"#utility.yul\":5205:5427   */\n      swap3\n      swap2\n      pop\n      pop\n      jump\t// out\n        /* \"#utility.yul\":5433:5907   */\n    tag_91:\n        /* \"#utility.yul\":5501:5507   */\n      0x00\n        /* \"#utility.yul\":5509:5515   */\n      0x00\n        /* \"#utility.yul\":5558:5560   */\n      0x40\n        /* \"#utility.yul\":5546:5555   */\n      dup4\n        /* \"#utility.yul\":5537:5544   */\n      dup6\n        /* \"#utility.yul\":5533:5556   */\n      sub\n        /* \"#utility.yul\":5529:5561   */\n      slt\n        /* \"#utility.yul\":5526:5645   */\n      iszero\n      tag_309\n      jumpi\n        /* \"#utility.yul\":5564:5643   */\n      tag_310\n      tag_205\n      jump\t// in\n    tag_310:\n        /* \"#utility.yul\":5526:5645   */\n    tag_309:\n        /* \"#utility.yul\":5684:5685   */\n      0x00\n        /* \"#utility.yul\":5709:5762   */\n      tag_311\n        /* \"#utility.yul\":5754:5761   */\n      dup6\n        /* \"#utility.yul\":5745:5751   */\n      dup3\n        /* \"#utility.yul\":5734:5743   */\n      dup7\n        /* \"#utility.yul\":5730:5752   */\n      add\n        /* \"#utility.yul\":5709:5762   */\n      tag_210\n      jump\t// in\n    tag_311:\n        /* \"#utility.yul\":5699:5762   */\n      swap3\n      pop\n        /* \"#utility.yul\":5655:5772   */\n      pop\n        /* \"#utility.yul\":5811:5813   */\n      0x20\n        /* \"#utility.yul\":5837:5890   */\n      tag_312\n        /* \"#utility.yul\":5882:5889   */\n      dup6\n        /* \"#utility.yul\":5873:5879   */\n      dup3\n        /* \"#utility.yul\":5862:5871   */\n      dup7\n        /* \"#utility.yul\":5858:5880   */\n      add\n        /* \"#utility.yul\":5837:5890   */\n      tag_210\n      jump\t// in\n    tag_312:\n        /* \"#utility.yul\":5827:5890   */\n      swap2\n      pop\n        /* \"#utility.yul\":5782:5900   */\n      pop\n        /* \"#utility.yul\":5433:5907   */\n      swap3\n      pop\n      swap3\n      swap1\n      pop\n      jump\t// out\n        /* \"#utility.yul\":5913:6093   */\n    tag_220:\n        /* \"#utility.yul\":5961:6038   */\n      0x4e487b7100000000000000000000000000000000000000000000000000000000\n        /* \"#utility.yul\":5958:5959   */\n      0x00\n        /* \"#utility.yul\":5951:6039   */\n      mstore\n        /* \"#utility.yul\":6058:6062   */\n      0x22\n        /* \"#utility.yul\":6055:6056   */\n      0x04\n        /* \"#utility.yul\":6048:6063   */\n      mstore\n        /* \"#utility.yul\":6082:6086   */\n      0x24\n        /* \"#utility.yul\":6079:6080   */\n      0x00\n        /* \"#utility.yul\":6072:6087   */\n      revert\n        /* \"#utility.yul\":6099:6419   */\n    tag_99:\n        /* \"#utility.yul\":6143:6149   */\n      0x00\n        /* \"#utility.yul\":6180:6181   */\n      0x02\n        /* \"#utility.yul\":6174:6178   */\n      dup3\n        /* \"#utility.yul\":6170:6182   */\n      div\n        /* \"#utility.yul\":6160:6182   */\n      swap1\n      pop\n        /* \"#utility.yul\":6227:6228   */\n      0x01\n        /* \"#utility.yul\":6221:6225   */\n      dup3\n        /* \"#utility.yul\":6217:6229   */\n      and\n        /* \"#utility.yul\":6248:6266   */\n      dup1\n        /* \"#utility.yul\":6238:6319   */\n      tag_315\n      jumpi\n        /* \"#utility.yul\":6304:6308   */\n      0x7f\n        /* \"#utility.yul\":6296:6302   */\n      dup3\n        /* \"#utility.yul\":6292:6309   */\n      and\n        /* \"#utility.yul\":6282:6309   */\n      swap2\n      pop\n        /* \"#utility.yul\":6238:6319   */\n    tag_315:\n        /* \"#utility.yul\":6366:6368   */\n      0x20\n        /* \"#utility.yul\":6358:6364   */\n      dup3\n        /* \"#utility.yul\":6355:6369   */\n      lt\n        /* \"#utility.yul\":6335:6353   */\n      dup2\n        /* \"#utility.yul\":6332:6370   */\n      sub\n        /* \"#utility.yul\":6329:6413   */\n      tag_316\n      jumpi\n        /* \"#utility.yul\":6385:6403   */\n      tag_317\n      tag_220\n      jump\t// in\n    tag_317:\n        /* \"#utility.yul\":6329:6413   */\n    tag_316:\n        /* \"#utility.yul\":6150:6419   */\n      pop\n        /* \"#utility.yul\":6099:6419   */\n      swap2\n      swap1\n      pop\n      jump\t// out\n        /* \"#utility.yul\":6425:6593   */\n    tag_221:\n        /* \"#utility.yul\":6565:6585   */\n      0x436f6e7472616374206973207061757365640000000000000000000000000000\n        /* \"#utility.yul\":6561:6562   */\n      0x00\n        /* \"#utility.yul\":6553:6559   */\n      dup3\n        /* \"#utility.yul\":6549:6563   */\n      add\n        /* \"#utility.yul\":6542:6586   */\n      mstore\n        /* \"#utility.yul\":6425:6593   */\n      pop\n      jump\t// out\n        /* \"#utility.yul\":6599:6965   */\n    tag_222:\n        /* \"#utility.yul\":6741:6744   */\n      0x00\n        /* \"#utility.yul\":6762:6829   */\n      tag_320\n        /* \"#utility.yul\":6826:6828   */\n      0x12\n        /* \"#utility.yul\":6821:6824   */\n      dup4\n        /* \"#utility.yul\":6762:6829   */\n      tag_200\n      jump\t// in\n    tag_320:\n        /* \"#utility.yul\":6755:6829   */\n      swap2\n      pop\n        /* \"#utility.yul\":6838:6931   */\n      tag_321\n        /* \"#utility.yul\":6927:6930   */\n      dup3\n        /* \"#utility.yul\":6838:6931   */\n      tag_221\n      jump\t// in\n    tag_321:\n        /* \"#utility.yul\":6956:6958   */\n      0x20\n        /* \"#utility.yul\":6951:6954   */\n      dup3\n        /* \"#utility.yul\":6947:6959   */\n      add\n        /* \"#utility.yul\":6940:6959   */\n      swap1\n      pop\n        /* \"#utility.yul\":6599:6965   */\n      swap2\n      swap1\n      pop\n      jump\t// out\n        /* \"#utility.yul\":6971:7390   */\n    tag_107:\n        /* \"#utility.yul\":7137:7141   */\n      0x00\n        /* \"#utility.yul\":7175:7177   */\n      0x20\n        /* \"#utility.yul\":7164:7173   */\n      dup3\n        /* \"#utility.yul\":7160:7178   */\n      add\n        /* \"#utility.yul\":7152:7178   */\n      swap1\n      pop\n        /* \"#utility.yul\":7224:7233   */\n      dup2\n        /* \"#utility.yul\":7218:7222   */\n      dup2\n        /* \"#utility.yul\":7214:7234   */\n      sub\n        /* \"#utility.yul\":7210:7211   */\n      0x00\n        /* \"#utility.yul\":7199:7208   */\n      dup4\n        /* \"#utility.yul\":7195:7212   */\n      add\n        /* \"#utility.yul\":7188:7235   */\n      mstore\n        /* \"#utility.yul\":7252:7383   */\n      tag_323\n        /* \"#utility.yul\":7378:7382   */\n      dup2\n        /* \"#utility.yul\":7252:7383   */\n      tag_222\n      jump\t// in\n    tag_323:\n        /* \"#utility.yul\":7244:7383   */\n      swap1\n      pop\n        /* \"#utility.yul\":6971:7390   */\n      swap2\n      swap1\n      pop\n      jump\t// out\n        /* \"#utility.yul\":7396:7577   */\n    tag_223:\n        /* \"#utility.yul\":7536:7569   */\n      0x436f6e7472616374207065726d616e656e746c79207465726d696e6174656400\n        /* \"#utility.yul\":7532:7533   */\n      0x00\n        /* \"#utility.yul\":7524:7530   */\n      dup3\n        /* \"#utility.yul\":7520:7534   */\n      add\n        /* \"#utility.yul\":7513:7570   */\n      mstore\n        /* \"#utility.yul\":7396:7577   */\n      pop\n      jump\t// out\n        /* \"#utility.yul\":7583:7949   */\n    tag_224:\n        /* \"#utility.yul\":7725:7728   */\n      0x00\n        /* \"#utility.yul\":7746:7813   */\n      tag_326\n        /* \"#utility.yul\":7810:7812   */\n      0x1f\n        /* \"#utility.yul\":7805:7808   */\n      dup4\n        /* \"#utility.yul\":7746:7813   */\n      tag_200\n      jump\t// in\n    tag_326:\n        /* \"#utility.yul\":7739:7813   */\n      swap2\n      pop\n        /* \"#utility.yul\":7822:7915   */\n      tag_327\n        /* \"#utility.yul\":7911:7914   */\n      dup3\n        /* \"#utility.yul\":7822:7915   */\n      tag_223\n      jump\t// in\n    tag_327:\n        /* \"#utility.yul\":7940:7942   */\n      0x20\n        /* \"#utility.yul\":7935:7938   */\n      dup3\n        /* \"#utility.yul\":7931:7943   */\n      add\n        /* \"#utility.yul\":7924:7943   */\n      swap1\n      pop\n        /* \"#utility.yul\":7583:7949   */\n      swap2\n      swap1\n      pop\n      jump\t// out\n        /* \"#utility.yul\":7955:8374   */\n    tag_111:\n        /* \"#utility.yul\":8121:8125   */\n      0x00\n        /* \"#utility.yul\":8159:8161   */\n      0x20\n        /* \"#utility.yul\":8148:8157   */\n      dup3\n        /* \"#utility.yul\":8144:8162   */\n      add\n        /* \"#utility.yul\":8136:8162   */\n      swap1\n      pop\n        /* \"#utility.yul\":8208:8217   */\n      dup2\n        /* \"#utility.yul\":8202:8206   */\n      dup2\n        /* \"#utility.yul\":8198:8218   */\n      sub\n        /* \"#utility.yul\":8194:8195   */\n      0x00\n        /* \"#utility.yul\":8183:8192   */\n      dup4\n        /* \"#utility.yul\":8179:8196   */\n      add\n        /* \"#utility.yul\":8172:8219   */\n      mstore\n        /* \"#utility.yul\":8236:8367   */\n      tag_329\n        /* \"#utility.yul\":8362:8366   */\n      dup2\n        /* \"#utility.yul\":8236:8367   */\n      tag_224\n      jump\t// in\n    tag_329:\n        /* \"#utility.yul\":8228:8367   */\n      swap1\n      pop\n        /* \"#utility.yul\":7955:8374   */\n      swap2\n      swap1\n      pop\n      jump\t// out\n        /* \"#utility.yul\":8380:8554   */\n    tag_225:\n        /* \"#utility.yul\":8520:8546   */\n      0x496e73756666696369656e7420424e4220666f72206665650000000000000000\n        /* \"#utility.yul\":8516:8517   */\n      0x00\n        /* \"#utility.yul\":8508:8514   */\n      dup3\n        /* \"#utility.yul\":8504:8518   */\n      add\n        /* \"#utility.yul\":8497:8547   */\n      mstore\n        /* \"#utility.yul\":8380:8554   */\n      pop\n      jump\t// out\n        /* \"#utility.yul\":8560:8926   */\n    tag_226:\n        /* \"#utility.yul\":8702:8705   */\n      0x00\n        /* \"#utility.yul\":8723:8790   */\n      tag_332\n        /* \"#utility.yul\":8787:8789   */\n      0x18\n        /* \"#utility.yul\":8782:8785   */\n      dup4\n        /* \"#utility.yul\":8723:8790   */\n      tag_200\n      jump\t// in\n    tag_332:\n        /* \"#utility.yul\":8716:8790   */\n      swap2\n      pop\n        /* \"#utility.yul\":8799:8892   */\n      tag_333\n        /* \"#utility.yul\":8888:8891   */\n      dup3\n        /* \"#utility.yul\":8799:8892   */\n      tag_225\n      jump\t// in\n    tag_333:\n        /* \"#utility.yul\":8917:8919   */\n      0x20\n        /* \"#utility.yul\":8912:8915   */\n      dup3\n        /* \"#utility.yul\":8908:8920   */\n      add\n        /* \"#utility.yul\":8901:8920   */\n      swap1\n      pop\n        /* \"#utility.yul\":8560:8926   */\n      swap2\n      swap1\n      pop\n      jump\t// out\n        /* \"#utility.yul\":8932:9351   */\n    tag_115:\n        /* \"#utility.yul\":9098:9102   */\n      0x00\n        /* \"#utility.yul\":9136:9138   */\n      0x20\n        /* \"#utility.yul\":9125:9134   */\n      dup3\n        /* \"#utility.yul\":9121:9139   */\n      add\n        /* \"#utility.yul\":9113:9139   */\n      swap1\n      pop\n        /* \"#utility.yul\":9185:9194   */\n      dup2\n        /* \"#utility.yul\":9179:9183   */\n      dup2\n        /* \"#utility.yul\":9175:9195   */\n      sub\n        /* \"#utility.yul\":9171:9172   */\n      0x00\n        /* \"#utility.yul\":9160:9169   */\n      dup4\n        /* \"#utility.yul\":9156:9173   */\n      add\n        /* \"#utility.yul\":9149:9196   */\n      mstore\n        /* \"#utility.yul\":9213:9344   */\n      tag_335\n        /* \"#utility.yul\":9339:9343   */\n      dup2\n        /* \"#utility.yul\":9213:9344   */\n      tag_226\n      jump\t// in\n    tag_335:\n        /* \"#utility.yul\":9205:9344   */\n      swap1\n      pop\n        /* \"#utility.yul\":8932:9351   */\n      swap2\n      swap1\n      pop\n      jump\t// out\n        /* \"#utility.yul\":9357:9577   */\n    tag_227:\n        /* \"#utility.yul\":9497:9531   */\n      0x4f6e6c79206f776e65722063616e2063616c6c20746869732066756e6374696f\n        /* \"#utility.yul\":9493:9494   */\n      0x00\n        /* \"#utility.yul\":9485:9491   */\n      dup3\n        /* \"#utility.yul\":9481:9495   */\n      add\n        /* \"#utility.yul\":9474:9532   */\n      mstore\n        /* \"#utility.yul\":9566:9569   */\n      0x6e00000000000000000000000000000000000000000000000000000000000000\n        /* \"#utility.yul\":9561:9563   */\n      0x20\n        /* \"#utility.yul\":9553:9559   */\n      dup3\n        /* \"#utility.yul\":9549:9564   */\n      add\n        /* \"#utility.yul\":9542:9570   */\n      mstore\n        /* \"#utility.yul\":9357:9577   */\n      pop\n      jump\t// out\n        /* \"#utility.yul\":9583:9949   */\n    tag_228:\n        /* \"#utility.yul\":9725:9728   */\n      0x00\n        /* \"#utility.yul\":9746:9813   */\n      tag_338\n        /* \"#utility.yul\":9810:9812   */\n      0x21\n        /* \"#utility.yul\":9805:9808   */\n      dup4\n        /* \"#utility.yul\":9746:9813   */\n      tag_200\n      jump\t// in\n    tag_338:\n        /* \"#utility.yul\":9739:9813   */\n      swap2\n      pop\n        /* \"#utility.yul\":9822:9915   */\n      tag_339\n        /* \"#utility.yul\":9911:9914   */\n      dup3\n        /* \"#utility.yul\":9822:9915   */\n      tag_227\n      jump\t// in\n    tag_339:\n        /* \"#utility.yul\":9940:9942   */\n      0x40\n        /* \"#utility.yul\":9935:9938   */\n      dup3\n        /* \"#utility.yul\":9931:9943   */\n      add\n        /* \"#utility.yul\":9924:9943   */\n      swap1\n      pop\n        /* \"#utility.yul\":9583:9949   */\n      swap2\n      swap1\n      pop\n      jump\t// out\n        /* \"#utility.yul\":9955:10374   */\n    tag_122:\n        /* \"#utility.yul\":10121:10125   */\n      0x00\n        /* \"#utility.yul\":10159:10161   */\n      0x20\n        /* \"#utility.yul\":10148:10157   */\n      dup3\n        /* \"#utility.yul\":10144:10162   */\n      add\n        /* \"#utility.yul\":10136:10162   */\n      swap1\n      pop\n        /* \"#utility.yul\":10208:10217   */\n      dup2\n        /* \"#utility.yul\":10202:10206   */\n      dup2\n        /* \"#utility.yul\":10198:10218   */\n      sub\n        /* \"#utility.yul\":10194:10195   */\n      0x00\n        /* \"#utility.yul\":10183:10192   */\n      dup4\n        /* \"#utility.yul\":10179:10196   */\n      add\n        /* \"#utility.yul\":10172:10219   */\n      mstore\n        /* \"#utility.yul\":10236:10367   */\n      tag_341\n        /* \"#utility.yul\":10362:10366   */\n      dup2\n        /* \"#utility.yul\":10236:10367   */\n      tag_228\n      jump\t// in\n    tag_341:\n        /* \"#utility.yul\":10228:10367   */\n      swap1\n      pop\n        /* \"#utility.yul\":9955:10374   */\n      swap2\n      swap1\n      pop\n      jump\t// out\n        /* \"#utility.yul\":10380:10556   */\n    tag_229:\n        /* \"#utility.yul\":10520:10548   */\n      0x496e73756666696369656e7420746f6b656e2062616c616e6365000000000000\n        /* \"#utility.yul\":10516:10517   */\n      0x00\n        /* \"#utility.yul\":10508:10514   */\n      dup3\n        /* \"#utility.yul\":10504:10518   */\n      add\n        /* \"#utility.yul\":10497:10549   */\n      mstore\n        /* \"#utility.yul\":10380:10556   */\n      pop\n      jump\t// out\n        /* \"#utility.yul\":10562:10928   */\n    tag_230:\n        /* \"#utility.yul\":10704:10707   */\n      0x00\n        /* \"#utility.yul\":10725:10792   */\n      tag_344\n        /* \"#utility.yul\":10789:10791   */\n      0x1a\n        /* \"#utility.yul\":10784:10787   */\n      dup4\n        /* \"#utility.yul\":10725:10792   */\n      tag_200\n      jump\t// in\n    tag_344:\n        /* \"#utility.yul\":10718:10792   */\n      swap2\n      pop\n        /* \"#utility.yul\":10801:10894   */\n      tag_345\n        /* \"#utility.yul\":10890:10893   */\n      dup3\n        /* \"#utility.yul\":10801:10894   */\n      tag_229\n      jump\t// in\n    tag_345:\n        /* \"#utility.yul\":10919:10921   */\n      0x20\n        /* \"#utility.yul\":10914:10917   */\n      dup3\n        /* \"#utility.yul\":10910:10922   */\n      add\n        /* \"#utility.yul\":10903:10922   */\n      swap1\n      pop\n        /* \"#utility.yul\":10562:10928   */\n      swap2\n      swap1\n      pop\n      jump\t// out\n        /* \"#utility.yul\":10934:11353   */\n    tag_133:\n        /* \"#utility.yul\":11100:11104   */\n      0x00\n        /* \"#utility.yul\":11138:11140   */\n      0x20\n        /* \"#utility.yul\":11127:11136   */\n      dup3\n        /* \"#utility.yul\":11123:11141   */\n      add\n        /* \"#utility.yul\":11115:11141   */\n      swap1\n      pop\n        /* \"#utility.yul\":11187:11196   */\n      dup2\n        /* \"#utility.yul\":11181:11185   */\n      dup2\n        /* \"#utility.yul\":11177:11197   */\n      sub\n        /* \"#utility.yul\":11173:11174   */\n      0x00\n        /* \"#utility.yul\":11162:11171   */\n      dup4\n        /* \"#utility.yul\":11158:11175   */\n      add\n        /* \"#utility.yul\":11151:11198   */\n      mstore\n        /* \"#utility.yul\":11215:11346   */\n      tag_347\n        /* \"#utility.yul\":11341:11345   */\n      dup2\n        /* \"#utility.yul\":11215:11346   */\n      tag_230\n      jump\t// in\n    tag_347:\n        /* \"#utility.yul\":11207:11346   */\n      swap1\n      pop\n        /* \"#utility.yul\":10934:11353   */\n      swap2\n      swap1\n      pop\n      jump\t// out\n        /* \"#utility.yul\":11359:11527   */\n    tag_231:\n        /* \"#utility.yul\":11499:11519   */\n      0x416c6c6f77616e63652065786365656465640000000000000000000000000000\n        /* \"#utility.yul\":11495:11496   */\n      0x00\n        /* \"#utility.yul\":11487:11493   */\n      dup3\n        /* \"#utility.yul\":11483:11497   */\n      add\n        /* \"#utility.yul\":11476:11520   */\n      mstore\n        /* \"#utility.yul\":11359:11527   */\n      pop\n      jump\t// out\n        /* \"#utility.yul\":11533:11899   */\n    tag_232:\n        /* \"#utility.yul\":11675:11678   */\n      0x00\n        /* \"#utility.yul\":11696:11763   */\n      tag_350\n        /* \"#utility.yul\":11760:11762   */\n      0x12\n        /* \"#utility.yul\":11755:11758   */\n      dup4\n        /* \"#utility.yul\":11696:11763   */\n      tag_200\n      jump\t// in\n    tag_350:\n        /* \"#utility.yul\":11689:11763   */\n      swap2\n      pop\n        /* \"#utility.yul\":11772:11865   */\n      tag_351\n        /* \"#utility.yul\":11861:11864   */\n      dup3\n        /* \"#utility.yul\":11772:11865   */\n      tag_231\n      jump\t// in\n    tag_351:\n        /* \"#utility.yul\":11890:11892   */\n      0x20\n        /* \"#utility.yul\":11885:11888   */\n      dup3\n        /* \"#utility.yul\":11881:11893   */\n      add\n        /* \"#utility.yul\":11874:11893   */\n      swap1\n      pop\n        /* \"#utility.yul\":11533:11899   */\n      swap2\n      swap1\n      pop\n      jump\t// out\n        /* \"#utility.yul\":11905:12324   */\n    tag_136:\n        /* \"#utility.yul\":12071:12075   */\n      0x00\n        /* \"#utility.yul\":12109:12111   */\n      0x20\n        /* \"#utility.yul\":12098:12107   */\n      dup3\n        /* \"#utility.yul\":12094:12112   */\n      add\n        /* \"#utility.yul\":12086:12112   */\n      swap1\n      pop\n        /* \"#utility.yul\":12158:12167   */\n      dup2\n        /* \"#utility.yul\":12152:12156   */\n      dup2\n        /* \"#utility.yul\":12148:12168   */\n      sub\n        /* \"#utility.yul\":12144:12145   */\n      0x00\n        /* \"#utility.yul\":12133:12142   */\n      dup4\n        /* \"#utility.yul\":12129:12146   */\n      add\n        /* \"#utility.yul\":12122:12169   */\n      mstore\n        /* \"#utility.yul\":12186:12317   */\n      tag_353\n        /* \"#utility.yul\":12312:12316   */\n      dup2\n        /* \"#utility.yul\":12186:12317   */\n      tag_232\n      jump\t// in\n    tag_353:\n        /* \"#utility.yul\":12178:12317   */\n      swap1\n      pop\n        /* \"#utility.yul\":11905:12324   */\n      swap2\n      swap1\n      pop\n      jump\t// out\n        /* \"#utility.yul\":12330:12510   */\n    tag_233:\n        /* \"#utility.yul\":12378:12455   */\n      0x4e487b7100000000000000000000000000000000000000000000000000000000\n        /* \"#utility.yul\":12375:12376   */\n      0x00\n        /* \"#utility.yul\":12368:12456   */\n      mstore\n        /* \"#utility.yul\":12475:12479   */\n      0x11\n        /* \"#utility.yul\":12472:12473   */\n      0x04\n        /* \"#utility.yul\":12465:12480   */\n      mstore\n        /* \"#utility.yul\":12499:12503   */\n      0x24\n        /* \"#utility.yul\":12496:12497   */\n      0x00\n        /* \"#utility.yul\":12489:12504   */\n      revert\n        /* \"#utility.yul\":12516:12710   */\n    tag_141:\n        /* \"#utility.yul\":12556:12560   */\n      0x00\n        /* \"#utility.yul\":12576:12596   */\n      tag_356\n        /* \"#utility.yul\":12594:12595   */\n      dup3\n        /* \"#utility.yul\":12576:12596   */\n      tag_211\n      jump\t// in\n    tag_356:\n        /* \"#utility.yul\":12571:12596   */\n      swap2\n      pop\n        /* \"#utility.yul\":12610:12630   */\n      tag_357\n        /* \"#utility.yul\":12628:12629   */\n      dup4\n        /* \"#utility.yul\":12610:12630   */\n      tag_211\n      jump\t// in\n    tag_357:\n        /* \"#utility.yul\":12605:12630   */\n      swap3\n      pop\n        /* \"#utility.yul\":12654:12655   */\n      dup3\n        /* \"#utility.yul\":12651:12652   */\n      dup3\n        /* \"#utility.yul\":12647:12656   */\n      sub\n        /* \"#utility.yul\":12639:12656   */\n      swap1\n      pop\n        /* \"#utility.yul\":12678:12679   */\n      dup2\n        /* \"#utility.yul\":12672:12676   */\n      dup2\n        /* \"#utility.yul\":12669:12680   */\n      gt\n        /* \"#utility.yul\":12666:12703   */\n      iszero\n      tag_358\n      jumpi\n        /* \"#utility.yul\":12683:12701   */\n      tag_359\n      tag_233\n      jump\t// in\n    tag_359:\n        /* \"#utility.yul\":12666:12703   */\n    tag_358:\n        /* \"#utility.yul\":12516:12710   */\n      swap3\n      swap2\n      pop\n      pop\n      jump\t// out\n        /* \"#utility.yul\":12716:12907   */\n    tag_143:\n        /* \"#utility.yul\":12756:12759   */\n      0x00\n        /* \"#utility.yul\":12775:12795   */\n      tag_361\n        /* \"#utility.yul\":12793:12794   */\n      dup3\n        /* \"#utility.yul\":12775:12795   */\n      tag_211\n      jump\t// in\n    tag_361:\n        /* \"#utility.yul\":12770:12795   */\n      swap2\n      pop\n        /* \"#utility.yul\":12809:12829   */\n      tag_362\n        /* \"#utility.yul\":12827:12828   */\n      dup4\n        /* \"#utility.yul\":12809:12829   */\n      tag_211\n      jump\t// in\n    tag_362:\n        /* \"#utility.yul\":12804:12829   */\n      swap3\n      pop\n        /* \"#utility.yul\":12852:12853   */\n      dup3\n        /* \"#utility.yul\":12849:12850   */\n      dup3\n        /* \"#utility.yul\":12845:12854   */\n      add\n        /* \"#utility.yul\":12838:12854   */\n      swap1\n      pop\n        /* \"#utility.yul\":12873:12876   */\n      dup1\n        /* \"#utility.yul\":12870:12871   */\n      dup3\n        /* \"#utility.yul\":12867:12877   */\n      gt\n        /* \"#utility.yul\":12864:12900   */\n      iszero\n      tag_363\n      jumpi\n        /* \"#utility.yul\":12880:12898   */\n      tag_364\n      tag_233\n      jump\t// in\n    tag_364:\n        /* \"#utility.yul\":12864:12900   */\n    tag_363:\n        /* \"#utility.yul\":12716:12907   */\n      swap3\n      swap2\n      pop\n      pop\n      jump\t// out\n        /* \"#utility.yul\":12913:13092   */\n    tag_234:\n        /* \"#utility.yul\":13053:13084   */\n      0x4e6577206f776e657220697320746865207a65726f2061646472657373000000\n        /* \"#utility.yul\":13049:13050   */\n      0x00\n        /* \"#utility.yul\":13041:13047   */\n      dup3\n        /* \"#utility.yul\":13037:13051   */\n      add\n        /* \"#utility.yul\":13030:13085   */\n      mstore\n        /* \"#utility.yul\":12913:13092   */\n      pop\n      jump\t// out\n        /* \"#utility.yul\":13098:13464   */\n    tag_235:\n        /* \"#utility.yul\":13240:13243   */\n      0x00\n        /* \"#utility.yul\":13261:13328   */\n      tag_367\n        /* \"#utility.yul\":13325:13327   */\n      0x1d\n        /* \"#utility.yul\":13320:13323   */\n      dup4\n        /* \"#utility.yul\":13261:13328   */\n      tag_200\n      jump\t// in\n    tag_367:\n        /* \"#utility.yul\":13254:13328   */\n      swap2\n      pop\n        /* \"#utility.yul\":13337:13430   */\n      tag_368\n        /* \"#utility.yul\":13426:13429   */\n      dup3\n        /* \"#utility.yul\":13337:13430   */\n      tag_234\n      jump\t// in\n    tag_368:\n        /* \"#utility.yul\":13455:13457   */\n      0x20\n        /* \"#utility.yul\":13450:13453   */\n      dup3\n        /* \"#utility.yul\":13446:13458   */\n      add\n        /* \"#utility.yul\":13439:13458   */\n      swap1\n      pop\n        /* \"#utility.yul\":13098:13464   */\n      swap2\n      swap1\n      pop\n      jump\t// out\n        /* \"#utility.yul\":13470:13889   */\n    tag_187:\n        /* \"#utility.yul\":13636:13640   */\n      0x00\n        /* \"#utility.yul\":13674:13676   */\n      0x20\n        /* \"#utility.yul\":13663:13672   */\n      dup3\n        /* \"#utility.yul\":13659:13677   */\n      add\n        /* \"#utility.yul\":13651:13677   */\n      swap1\n      pop\n        /* \"#utility.yul\":13723:13732   */\n      dup2\n        /* \"#utility.yul\":13717:13721   */\n      dup2\n        /* \"#utility.yul\":13713:13733   */\n      sub\n        /* \"#utility.yul\":13709:13710   */\n      0x00\n        /* \"#utility.yul\":13698:13707   */\n      dup4\n        /* \"#utility.yul\":13694:13711   */\n      add\n        /* \"#utility.yul\":13687:13734   */\n      mstore\n        /* \"#utility.yul\":13751:13882   */\n      tag_370\n        /* \"#utility.yul\":13877:13881   */\n      dup2\n        /* \"#utility.yul\":13751:13882   */\n      tag_235\n      jump\t// in\n    tag_370:\n        /* \"#utility.yul\":13743:13882   */\n      swap1\n      pop\n        /* \"#utility.yul\":13470:13889   */\n      swap2\n      swap1\n      pop\n      jump\t// out\n        /* \"#utility.yul\":13895:14042   */\n    tag_236:\n        /* \"#utility.yul\":13996:14007   */\n      0x00\n        /* \"#utility.yul\":14033:14036   */\n      dup2\n        /* \"#utility.yul\":14018:14036   */\n      swap1\n      pop\n        /* \"#utility.yul\":13895:14042   */\n      swap3\n      swap2\n      pop\n      pop\n      jump\t// out\n        /* \"#utility.yul\":14048:14162   */\n    tag_237:\n      pop\n      jump\t// out\n        /* \"#utility.yul\":14168:14566   */\n    tag_238:\n        /* \"#utility.yul\":14327:14330   */\n      0x00\n        /* \"#utility.yul\":14348:14431   */\n      tag_374\n        /* \"#utility.yul\":14429:14430   */\n      0x00\n        /* \"#utility.yul\":14424:14427   */\n      dup4\n        /* \"#utility.yul\":14348:14431   */\n      tag_236\n      jump\t// in\n    tag_374:\n        /* \"#utility.yul\":14341:14431   */\n      swap2\n      pop\n        /* \"#utility.yul\":14440:14533   */\n      tag_375\n        /* \"#utility.yul\":14529:14532   */\n      dup3\n        /* \"#utility.yul\":14440:14533   */\n      tag_237\n      jump\t// in\n    tag_375:\n        /* \"#utility.yul\":14558:14559   */\n      0x00\n        /* \"#utility.yul\":14553:14556   */\n      dup3\n        /* \"#utility.yul\":14549:14560   */\n      add\n        /* \"#utility.yul\":14542:14560   */\n      swap1\n      pop\n        /* \"#utility.yul\":14168:14566   */\n      swap2\n      swap1\n      pop\n      jump\t// out\n        /* \"#utility.yul\":14572:14951   */\n    tag_190:\n        /* \"#utility.yul\":14756:14759   */\n      0x00\n        /* \"#utility.yul\":14778:14925   */\n      tag_377\n        /* \"#utility.yul\":14921:14924   */\n      dup3\n        /* \"#utility.yul\":14778:14925   */\n      tag_238\n      jump\t// in\n    tag_377:\n        /* \"#utility.yul\":14771:14925   */\n      swap2\n      pop\n        /* \"#utility.yul\":14942:14945   */\n      dup2\n        /* \"#utility.yul\":14935:14945   */\n      swap1\n      pop\n        /* \"#utility.yul\":14572:14951   */\n      swap2\n      swap1\n      pop\n      jump\t// out\n        /* \"#utility.yul\":14957:15128   */\n    tag_239:\n        /* \"#utility.yul\":15097:15120   */\n      0x466f7277617264696e6720424e42206661696c65640000000000000000000000\n        /* \"#utility.yul\":15093:15094   */\n      0x00\n        /* \"#utility.yul\":15085:15091   */\n      dup3\n        /* \"#utility.yul\":15081:15095   */\n      add\n        /* \"#utility.yul\":15074:15121   */\n      mstore\n        /* \"#utility.yul\":14957:15128   */\n      pop\n      jump\t// out\n        /* \"#utility.yul\":15134:15500   */\n    tag_240:\n        /* \"#utility.yul\":15276:15279   */\n      0x00\n        /* \"#utility.yul\":15297:15364   */\n      tag_380\n        /* \"#utility.yul\":15361:15363   */\n      0x15\n        /* \"#utility.yul\":15356:15359   */\n      dup4\n        /* \"#utility.yul\":15297:15364   */\n      tag_200\n      jump\t// in\n    tag_380:\n        /* \"#utility.yul\":15290:15364   */\n      swap2\n      pop\n        /* \"#utility.yul\":15373:15466   */\n      tag_381\n        /* \"#utility.yul\":15462:15465   */\n      dup3\n        /* \"#utility.yul\":15373:15466   */\n      tag_239\n      jump\t// in\n    tag_381:\n        /* \"#utility.yul\":15491:15493   */\n      0x20\n        /* \"#utility.yul\":15486:15489   */\n      dup3\n        /* \"#utility.yul\":15482:15494   */\n      add\n        /* \"#utility.yul\":15475:15494   */\n      swap1\n      pop\n        /* \"#utility.yul\":15134:15500   */\n      swap2\n      swap1\n      pop\n      jump\t// out\n        /* \"#utility.yul\":15506:15925   */\n    tag_196:\n        /* \"#utility.yul\":15672:15676   */\n      0x00\n        /* \"#utility.yul\":15710:15712   */\n      0x20\n        /* \"#utility.yul\":15699:15708   */\n      dup3\n        /* \"#utility.yul\":15695:15713   */\n      add\n        /* \"#utility.yul\":15687:15713   */\n      swap1\n      pop\n        /* \"#utility.yul\":15759:15768   */\n      dup2\n        /* \"#utility.yul\":15753:15757   */\n      dup2\n        /* \"#utility.yul\":15749:15769   */\n      sub\n        /* \"#utility.yul\":15745:15746   */\n      0x00\n        /* \"#utility.yul\":15734:15743   */\n      dup4\n        /* \"#utility.yul\":15730:15747   */\n      add\n        /* \"#utility.yul\":15723:15770   */\n      mstore\n        /* \"#utility.yul\":15787:15918   */\n      tag_383\n        /* \"#utility.yul\":15913:15917   */\n      dup2\n        /* \"#utility.yul\":15787:15918   */\n      tag_240\n      jump\t// in\n    tag_383:\n        /* \"#utility.yul\":15779:15918   */\n      swap1\n      pop\n        /* \"#utility.yul\":15506:15925   */\n      swap2\n      swap1\n      pop\n      jump\t// out\n        /* \"#utility.yul\":15931:15991   */\n    tag_241:\n        /* \"#utility.yul\":15959:15962   */\n      0x00\n        /* \"#utility.yul\":15980:15985   */\n      dup2\n        /* \"#utility.yul\":15973:15985   */\n      swap1\n      pop\n        /* \"#utility.yul\":15931:15991   */\n      swap2\n      swap1\n      pop\n      jump\t// out\n        /* \"#utility.yul\":15997:16139   */\n    tag_242:\n        /* \"#utility.yul\":16047:16056   */\n      0x00\n        /* \"#utility.yul\":16080:16133   */\n      tag_386\n        /* \"#utility.yul\":16098:16132   */\n      tag_387\n        /* \"#utility.yul\":16107:16131   */\n      tag_388\n        /* \"#utility.yul\":16125:16130   */\n      dup5\n        /* \"#utility.yul\":16107:16131   */\n      tag_207\n      jump\t// in\n    tag_388:\n        /* \"#utility.yul\":16098:16132   */\n      tag_241\n      jump\t// in\n    tag_387:\n        /* \"#utility.yul\":16080:16133   */\n      tag_207\n      jump\t// in\n    tag_386:\n        /* \"#utility.yul\":16067:16133   */\n      swap1\n      pop\n        /* \"#utility.yul\":15997:16139   */\n      swap2\n      swap1\n      pop\n      jump\t// out\n        /* \"#utility.yul\":16145:16271   */\n    tag_243:\n        /* \"#utility.yul\":16195:16204   */\n      0x00\n        /* \"#utility.yul\":16228:16265   */\n      tag_390\n        /* \"#utility.yul\":16259:16264   */\n      dup3\n        /* \"#utility.yul\":16228:16265   */\n      tag_242\n      jump\t// in\n    tag_390:\n        /* \"#utility.yul\":16215:16265   */\n      swap1\n      pop\n        /* \"#utility.yul\":16145:16271   */\n      swap2\n      swap1\n      pop\n      jump\t// out\n        /* \"#utility.yul\":16277:16411   */\n    tag_244:\n        /* \"#utility.yul\":16335:16344   */\n      0x00\n        /* \"#utility.yul\":16368:16405   */\n      tag_392\n        /* \"#utility.yul\":16399:16404   */\n      dup3\n        /* \"#utility.yul\":16368:16405   */\n      tag_243\n      jump\t// in\n    tag_392:\n        /* \"#utility.yul\":16355:16405   */\n      swap1\n      pop\n        /* \"#utility.yul\":16277:16411   */\n      swap2\n      swap1\n      pop\n      jump\t// out\n        /* \"#utility.yul\":16417:16564   */\n    tag_245:\n        /* \"#utility.yul\":16512:16557   */\n      tag_394\n        /* \"#utility.yul\":16551:16556   */\n      dup2\n        /* \"#utility.yul\":16512:16557   */\n      tag_244\n      jump\t// in\n    tag_394:\n        /* \"#utility.yul\":16507:16510   */\n      dup3\n        /* \"#utility.yul\":16500:16558   */\n      mstore\n        /* \"#utility.yul\":16417:16564   */\n      pop\n      pop\n      jump\t// out\n        /* \"#utility.yul\":16570:16918   */\n    tag_198:\n        /* \"#utility.yul\":16699:16703   */\n      0x00\n        /* \"#utility.yul\":16737:16739   */\n      0x40\n        /* \"#utility.yul\":16726:16735   */\n      dup3\n        /* \"#utility.yul\":16722:16740   */\n      add\n        /* \"#utility.yul\":16714:16740   */\n      swap1\n      pop\n        /* \"#utility.yul\":16750:16821   */\n      tag_396\n        /* \"#utility.yul\":16818:16819   */\n      0x00\n        /* \"#utility.yul\":16807:16816   */\n      dup4\n        /* \"#utility.yul\":16803:16820   */\n      add\n        /* \"#utility.yul\":16794:16800   */\n      dup6\n        /* \"#utility.yul\":16750:16821   */\n      tag_216\n      jump\t// in\n    tag_396:\n        /* \"#utility.yul\":16831:16911   */\n      tag_397\n        /* \"#utility.yul\":16907:16909   */\n      0x20\n        /* \"#utility.yul\":16896:16905   */\n      dup4\n        /* \"#utility.yul\":16892:16910   */\n      add\n        /* \"#utility.yul\":16883:16889   */\n      dup5\n        /* \"#utility.yul\":16831:16911   */\n      tag_245\n      jump\t// in\n    tag_397:\n        /* \"#utility.yul\":16570:16918   */\n      swap4\n      swap3\n      pop\n      pop\n      pop\n      jump\t// out\n\n    auxdata: 0xa264697066735822122024f988f7f1853a597d4f65c9a2e169f3225547ad0eb548ae5b9ab72bbaac0c0964736f6c634300081e0033\n}\n",
				"bytecode": {
					"linkReferences": {},
					"object": "60806040526040518060400160405280600881526020017f425443204d6169730000000000000000000000000000000000000000000000008152505f908161004791906104fa565b506040518060400160405280600481526020017f4254432b000000000000000000000000000000000000000000000000000000008152506001908161008c91906104fa565b50600460025f6101000a81548160ff021916908360ff16021790555060025f9054906101000a900460ff1660ff16600a6100c69190610725565b64174876e8006100d6919061076f565b60035560405180602001604052805f815250600490816100f691906104fa565b50730b81337f18767565d2ea40913799317a25dc4bc560055f6101000a81548173ffffffffffffffffffffffffffffffffffffffff021916908373ffffffffffffffffffffffffffffffffffffffff160217905550660110d9316ec00060085565b5e620f480006009556601c6bf52634000600a5573b4a045af12a74e5beb8ff763f474b943cc2cfa0a600b5f6101000a81548173ffffffffffffffffffffffffffffffffffffffff021916908373ffffffffffffffffffffffffffffffffffffffff1602179055503480156101ca575f5ffd5b5060035460065f60055f9054906101000a900473ffffffffffffffffffffffffffffffffffffffff1673ffffffffffffffffffffffffffffffffffffffff1673ffffffffffffffffffffffffffffffffffffffff1681526020019081526020015f208190555060055f9054906101000a900473ffffffffffffffffffffffffffffffffffffffff1673ffffffffffffffffffffffffffffffffffffffff165f73ffffffffffffffffffffffffffffffffffffffff167fddf252ad1be2c89b69c2b068fc378daa952ba7f163c4a11628f55a4df523b3ef6003546040516102b091906107bf565b60405180910390a36107d8565b5f81519050919050565b7f4e487b71000000000000000000000000000000000000000000000000000000005f52604160045260245ffd5b7f4e487b71000000000000000000000000000000000000000000000000000000005f52602260045260245ffd5b5f600282049050600182168061033857607f821691505b60208210810361034b5761034a6102f4565b5b50919050565b5f819050815f5260205f209050919050565b5f6020601f8301049050919050565b5f82821b905092915050565b5f600883026103ad7fffffffffffffffffffffffffffffffffffffffffffffffffffffffffffffffff82610372565b6103b78683610372565b95508019841693508086168417925050509392505050565b5f819050919050565b5f819050919050565b5f6103fb6103f66103f1846103cf565b6103d8565b6103cf565b9050919050565b5f819050919050565b610414836103e1565b61042861042082610402565b84845461037e565b825550505050565b5f5f905090565b61043f610430565b61044a81848461040b565b505050565b5b8181101561046d576104625f82610437565b600181019050610450565b5050565b601f8211156104b25761048381610351565b61048c84610363565b8101602085101561049b578190505b6104af6104a785610363565b83018261044f565b50505b505050565b5f82821c905092915050565b5f6104d25f19846008026104b7565b1980831691505092915050565b5f6104ea83836104c3565b9150826002028217905092915050565b610503826102bd565b67ffffffffffffffff81111561051c5761051b6102c7565b5b6105268254610321565b610531828285610471565b5f60209050601f831160018114610562575f8415610550578287015190505b61055a85826104df565b8655506105c1565b601f19841661057086610351565b5f5b8281101561059757848901518255600182019150602085019450602081019050610572565b868310156105b457848901516105b0601f8916826104c3565b8355505b6001600288020188555050505b505050505050565b7f4e487b71000000000000000000000000000000000000000000000000000000005f52601160045260245ffd5b5f8160011c9050919050565b5f5f8291508390505b600185111561064b57808604811115610627576106266105c9565b5b60018516156106365780820291505b8081029050610644856105f6565b945061060b565b94509492505050565b5f82610663576001905061071e565b81610670575f905061071e565b81600181146106865760028114610690576106bf565b600191505061071e565b60ff8411156106a2576106a16105c9565b5b8360020a9150848211156106b9576106b86105c9565b5b5061071e565b5060208310610133831016604e8410600b84101617156106f45782820a9050838111156106ef576106ee6105c9565b5b61071e565b6107018484846001610602565b92509050818404811115610718576107176105c9565b5b81810290505b9392505050565b5f61072f826103cf565b915061073a836103cf565b92506107677fffffffffffffffffffffffffffffffffffffffffffffffffffffffffffffffff8484610654565b905092915050565b5f610779826103cf565b9150610784836103cf565b9250828202610792816103cf565b915082820484148315176107a9576107a86105c9565b5b5092915050565b6107b9816103cf565b82525050565b5f6020820190506107d25f8301846107b0565b92915050565b611c86806107e55f395ff3fe6080604052600436106100fd575f3560e01c80635c975abb1161009457806395d89b411161006357806395d89b41146102db578063a9059cbb14610305578063ce606ee014610335578063dd62ed3e1461035f578063f2fde38b1461039b576100fd565b80635c975abb146102355780636bb38b281461025f57806370a08231146102895780638456cb59146102c5576100fd565b8063194307bf116100d0578063194307bf1461019b57806323b872dd146101c5578063313ce567146101f55780633f4ba83a1461021f576100fd565b806306fdde0314610101578063095ea7b31461012b5780630c08bf881461015b57806318160ddd14610171575b5f5ffd5b34801561010c575f5ffd5b506101156103c3565b60405161012291906114d8565b60405180910390f35b61014560048036038101906101409190611589565b61044e565b60405161015291906115e1565b60405180910390f35b348015610166575f5ffd5b5061016f610628565b005b34801561017c575f5ffd5b50610185610717565b6040516101929190611609565b60405180910390f35b3480156101a6575f5ffd5b506101af61071d565b6040516101bc91906115e1565b60405180910390f35b6101df60048036038101906101da9190611622565b610730565b6040516101ec91906115e1565b60405180910390f35b348015610200575f5ffd5b50610209610afd565b604051610216919061168d565b60405180910390f35b34801561022a575f5ffd5b50610233610b0f565b005b348015610240575f5ffd5b50610249610bfd565b60405161025691906115e1565b60405180910390f35b34801561026a575f5ffd5b50610273610c10565b60405161028091906114d8565b60405180910390f35b348015610294575f5ffd5b506102af60048036038101906102aa91906116a6565b610c9c565b6040516102bc9190611609565b60405180910390f35b3480156102d0575f5ffd5b506102d9610ce2565b005b3480156102e6575f5ffd5b506102ef610dd1565b6040516102fc91906114d8565b60405180910390f35b61031f600480360381019061031a9190611589565b610e5d565b60405161032c91906115e1565b60405180910390f35b348015610340575f5ffd5b506103496110e0565b60405161035691906116e0565b60405180910390f35b34801561036a575f5ffd5b50610385600480360381019061038091906116f9565b611105565b6040516103929190611609565b60405180910390f35b3480156103a6575f5ffd5b506103c160048036038101906103bc91906116a6565b611187565b005b5f80546103cf90611764565b80601f01602080910402602001604051908101604052809291908181526020018280546103fb90611764565b80156104465780601f1061041d57610100808354040283529160200191610446565b820191905f5260205f20905b81548152906001019060200180831161042957829003601f168201915b505050505081565b5f600560149054906101000a900460ff161561049f576040517f08c379a0000000000000000000000000000000000000000000000000000000008152600401610496906117de565b60405180910390fd5b600560159054906101000a900460ff16156104ef576040517f08c379a00000000000000000000000000000000000000000000000000000000081526004016104e690611846565b60405180910390fd5b600954341015610534576040517f08c379a000000000000000000000000000000000000000000000000000000000815260040161052b906118ae565b60405180910390fd5b61053c611342565b8160075f3373ffffffffffffffffffffffffffffffffffffffff1673ffffffffffffffffffffffffffffffffffffffff1681526020019081526020015f205f8573ffffffffffffffffffffffffffffffffffffffff1673ffffffffffffffffffffffffffffffffffffffff1681526020019081526020015f20819055508273ffffffffffffffffffffffffffffffffffffffff163373ffffffffffffffffffffffffffffffffffffffff167f8c5be1e5ebec7d5bd14f71427d1e84f3dd0314c0f7b2291e5b200ac8c7c3b925846040516106169190611609565b60405180910390a36001905092915050565b60055f9054906101000a900473ffffffffffffffffffffffffffffffffffffffff1673ffffffffffffffffffffffffffffffffffffffff163373ffffffffffffffffffffffffffffffffffffffff16146106b7576040517f08c379a00000000000000000000000000000000000000000000000000000000081526004016106ae9061193c565b60405180910390fd5b6001600560156101000a81548160ff0219169083151502179055503373ffffffffffffffffffffffffffffffffffffffff167f98cd97fc1a1cc958cbd729b1bb531d4f3ea4925470bf23ea9af386640cbd07be60405160405180910390a2565b60035481565b600560159054906101000a900460ff1681565b5f600560149054906101000a900460ff1615610781576040517f08c379a0000000000000000000000000000000000000000000000000000000008152600401610778906117de565b60405180910390fd5b600560159054906101000a900460ff16156107d1576040517f08c379a00000000000000000000000000000000000000000000000000000000081526004016107c890611846565b60405180910390fd5b8160065f8673ffffffffffffffffffffffffffffffffffffffff1673ffffffffffffffffffffffffffffffffffffffff1681526020019081526020015f20541015610851576040517f08c379a0000000000000000000000000000000000000000000000000000000008152600401610848906119a4565b60405180910390fd5b8160075f8673ffffffffffffffffffffffffffffffffffffffff1673ffffffffffffffffffffffffffffffffffffffff1681526020019081526020015f205f3373ffffffffffffffffffffffffffffffffffffffff1673ffffffffffffffffffffffffffffffffffffffff1681526020019081526020015f2054101561090c576040517f08c379a000000000000000000000000000000000000000000000000000000000815260040161090390611a0c565b60405180910390fd5b600a54341015610951576040517f08c379a0000000000000000000000000000000000000000000000000000000008152600401610948906118ae565b60405180910390fd5b610959611342565b8160065f8673ffffffffffffffffffffffffffffffffffffffff1673ffffffffffffffffffffffffffffffffffffffff1681526020019081526020015f205f8282546109a59190611a57565b925050819055508160065f8573ffffffffffffffffffffffffffffffffffffffff1673ffffffffffffffffffffffffffffffffffffffff1681526020019081526020015f205f8282546109f89190611a8a565b925050819055508160075f8673ffffffffffffffffffffffffffffffffffffffff1673ffffffffffffffffffffffffffffffffffffffff1681526020019081526020015f205f3373ffffffffffffffffffffffffffffffffffffffff1673ffffffffffffffffffffffffffffffffffffffff1681526020019081526020015f205f828254610a869190611a57565b925050819055508273ffffffffffffffffffffffffffffffffffffffff168473ffffffffffffffffffffffffffffffffffffffff167fddf252ad1be2c89b69c2b068fc378daa952ba7f163c4a11628f55a4df523b3ef84604051610aea9190611609565b60405180910390a3600190509392505050565b60025f9054906101000a900460ff1681565b60055f9054906101000a900473ffffffffffffffffffffffffffffffffffffffff1673ffffffffffffffffffffffffffffffffffffffff163373ffffffffffffffffffffffffffffffffffffffff1614610b9e576040517f08c379a0000000000000000000000000000000000000000000000000000000008152600401610b959061193c565b60405180910390fd5b5f600560146101000a81548160ff0219169083151502179055503373ffffffffffffffffffffffffffffffffffffffff167f5db9ee0a495bf2e6ff9c91a7834c1ba4fdd244a5e8aa4e537bd38aeae4b073aa60405160405180910390a2565b600560149054906101000a900460ff1681565b60048054610c1d90611764565b80601f0160208091040260200160405190810160405280929190818152602001828054610c4990611764565b8015610c945780601f10610c6b57610100808354040283529160200191610c94565b820191905f5260205f20905b815481529060010190602001808311610c7757829003601f168201915b505050505081565b5f60065f8373ffffffffffffffffffffffffffffffffffffffff1673ffffffffffffffffffffffffffffffffffffffff1681526020019081526020015f20549050919050565b60055f9054906101000a900473ffffffffffffffffffffffffffffffffffffffff1673ffffffffffffffffffffffffffffffffffffffff163373ffffffffffffffffffffffffffffffffffffffff1614610d71576040517f08c379a0000000000000000000000000000000000000000000000000000000008152600401610d689061193c565b60405180910390fd5b6001600560146101000a81548160ff0219169083151502179055503373ffffffffffffffffffffffffffffffffffffffff167f62e78cea01bee320cd4e420270b5ea74000d11b0c9f74754ebdbfc544b05a25860405160405180910390a2565b60018054610dde90611764565b80601f0160208091040260200160405190810160405280929190818152602001828054610e0a90611764565b8015610e555780601f10610e2c57610100808354040283529160200191610e55565b820191905f5260205f20905b815481529060010190602001808311610e3857829003601f168201915b505050505081565b5f600560149054906101000a900460ff1615610eae576040517f08c379a0000000000000000000000000000000000000000000000000000000008152600401610ea5906117de565b60405180910390fd5b600560159054906101000a900460ff1615610efe576040517f08c379a0000000000000000000000000000000000000000000000000000000008152600401610ef590611846565b60405180910390fd5b8160065f3373ffffffffffffffffffffffffffffffffffffffff1673ffffffffffffffffffffffffffffffffffffffff1681526020019081526020015f20541015610f7e576040517f08c379a0000000000000000000000000000000000000000000000000000000008152600401610f75906119a4565b60405180910390fd5b600854341015610fc3576040517f08c379a0000000000000000000000000000000000000000000000000000000008152600401610fba906118ae565b60405180910390fd5b610fcb611342565b8160065f3373ffffffffffffffffffffffffffffffffffffffff1673ffffffffffffffffffffffffffffffffffffffff1681526020019081526020015f205f8282546110179190611a57565b925050819055508160065f8573ffffffffffffffffffffffffffffffffffffffff1673ffffffffffffffffffffffffffffffffffffffff1681526020019081526020015f205f82825461106a9190611a8a565b925050819055508273ffffffffffffffffffffffffffffffffffffffff163373ffffffffffffffffffffffffffffffffffffffff167fddf252ad1be2c89b69c2b068fc378daa952ba7f163c4a11628f55a4df523b3ef846040516110ce9190611609565b60405180910390a36001905092915050565b60055f9054906101000a900473ffffffffffffffffffffffffffffffffffffffff1681565b5f60075f8473ffffffffffffffffffffffffffffffffffffffff1673ffffffffffffffffffffffffffffffffffffffff1681526020019081526020015f205f8373ffffffffffffffffffffffffffffffffffffffff1673ffffffffffffffffffffffffffffffffffffffff1681526020019081526020015f2054905092915050565b60055f9054906101000a900473ffffffffffffffffffffffffffffffffffffffff1673ffffffffffffffffffffffffffffffffffffffff163373ffffffffffffffffffffffffffffffffffffffff1614611216576040517f08c379a000000000000000000000000000000000000000000000000000000000815260040161120d9061193c565b60405180910390fd5b5f73ffffffffffffffffffffffffffffffffffffffff168173ffffffffffffffffffffffffffffffffffffffff1603611284576040517f08c379a000000000000000000000000000000000000000000000000000000000815260040161127b90611b07565b60405180910390fd5b8073ffffffffffffffffffffffffffffffffffffffff1660055f9054906101000a900473ffffffffffffffffffffffffffffffffffffffff1673ffffffffffffffffffffffffffffffffffffffff167f8be0079c531659141344cd1fd0a4f28419497f9722a3daafe3b4186f6b6457e060405160405180910390a38060055f6101000a81548173ffffffffffffffffffffffffffffffffffffffff021916908373ffffffffffffffffffffffffffffffffffffffff16021790555050565b5f600b5f9054906101000a900473ffffffffffffffffffffffffffffffffffffffff1673ffffffffffffffffffffffffffffffffffffffff163460405161138890611b52565b5f6040518083038185875af1925050503d805f81146113c2576040519150601f19603f3d011682016040523d82523d5f602084013e6113c7565b606091505b505090508061140b576040517f08c379a000000000000000000000000000000000000000000000000000000000815260040161140290611bb0565b60405180910390fd5b7f3d8298ea9f84556bca02dfe84535012d54d4342f5224eb690ec43dcc256b374534600b5f9054906101000a900473ffffffffffffffffffffffffffffffffffffffff1660405161145d929190611c29565b60405180910390a150565b5f81519050919050565b5f82825260208201905092915050565b8281835e5f83830152505050565b5f601f19601f8301169050919050565b5f6114aa82611468565b6114b48185611472565b93506114c4818560208601611482565b6114cd81611490565b840191505092915050565b5f6020820190508181035f8301526114f081846114a0565b905092915050565b5f5ffd5b5f73ffffffffffffffffffffffffffffffffffffffff82169050919050565b5f611525826114fc565b9050919050565b6115358161151b565b811461153f575f5ffd5b50565b5f813590506115508161152c565b92915050565b5f819050919050565b61156881611556565b8114611572575f5ffd5b50565b5f813590506115838161155f565b92915050565b5f5f6040838503121561159f5761159e6114f8565b5b5f6115ac85828601611542565b92505060206115bd85828601611575565b9150509250929050565b5f8115159050919050565b6115db816115c7565b82525050565b5f6020820190506115f45f8301846115d2565b92915050565b61160381611556565b82525050565b5f60208201905061161c5f8301846115fa565b92915050565b5f5f5f60608486031215611639576116386114f8565b5b5f61164686828701611542565b935050602061165786828701611542565b925050604061166886828701611575565b9150509250925092565b5f60ff82169050919050565b61168781611672565b82525050565b5f6020820190506116a05f83018461167e565b92915050565b5f602082840312156116bb576116ba6114f8565b5b5f6116c884828501611542565b91505092915050565b6116da8161151b565b82525050565b5f6020820190506116f35f8301846116d1565b92915050565b5f5f6040838503121561170f5761170e6114f8565b5b5f61171c85828601611542565b925050602061172d85828601611542565b9150509250929050565b7f4e487b71000000000000000000000000000000000000000000000000000000005f52602260045260245ffd5b5f600282049050600182168061177b57607f821691505b60208210810361178e5761178d611737565b5b50919050565b7f436f6e74726163742069732070617573656400000000000000000000000000005f82015250565b5f6117c8601283611472565b91506117d382611794565b602082019050919050565b5f6020820190508181035f8301526117f5816117bc565b9050919050565b7f436f6e7472616374207065726d616e656e746c79207465726d696e61746564005f82015250565b5f611830601f83611472565b915061183b826117fc565b602082019050919050565b5f6020820190508181035f83015261185d81611824565b9050919050565b7f496e73756666696369656e7420424e4220666f722066656500000000000000005f82015250565b5f611898601883611472565b91506118a382611864565b602082019050919050565b5f6020820190508181035f8301526118c58161188c565b9050919050565b7f4f6e6c79206f776e65722063616e2063616c6c20746869732066756e6374696f5f8201527f6e00000000000000000000000000000000000000000000000000000000000000602082015250565b5f611926602183611472565b9150611931826118cc565b604082019050919050565b5f6020820190508181035f8301526119538161191a565b9050919050565b7f496e73756666696369656e7420746f6b656e2062616c616e63650000000000005f82015250565b5f61198e601a83611472565b91506119998261195a565b602082019050919050565b5f6020820190508181035f8301526119bb81611982565b9050919050565b7f416c6c6f77616e636520657863656564656400000000000000000000000000005f82015250565b5f6119f6601283611472565b9150611a01826119c2565b602082019050919050565b5f6020820190508181035f830152611a23816119ea565b9050919050565b7f4e487b71000000000000000000000000000000000000000000000000000000005f52601160045260245ffd5b5f611a6182611556565b9150611a6c83611556565b9250828203905081811115611a8457611a83611a2a565b5b92915050565b5f611a9482611556565b9150611a9f83611556565b9250828201905080821115611ab757611ab6611a2a565b5b92915050565b7f4e6577206f776e657220697320746865207a65726f20616464726573730000005f82015250565b5f611af1601d83611472565b9150611afc82611abd565b602082019050919050565b5f6020820190508181035f830152611b1e81611ae5565b9050919050565b5f81905092915050565b50565b5f611b3d5f83611b25565b9150611b4882611b2f565b5f82019050919050565b5f611b5c82611b32565b9150819050919050565b7f466f7277617264696e6720424e42206661696c656400000000000000000000005f82015250565b5f611b9a601583611472565b9150611ba582611b66565b602082019050919050565b5f6020820190508181035f830152611bc781611b8e565b9050919050565b5f819050919050565b5f611bf1611bec611be7846114fc565b611bce565b6114fc565b9050919050565b5f611c0282611bd7565b9050919050565b5f611c1382611bf8565b9050919050565b611c2381611c09565b82525050565b5f604082019050611c3c5f8301856115fa565b611c496020830184611c1a565b939250505056fea264697066735822122024f988f7f1853a597d4f65c9a2e169f3225547ad0eb548ae5b9ab72bbaac0c0964736f6c634300081e0033",
					"opcodes": "PUSH1 0x80 PUSH1 0x40 MSTORE PUSH1 0x40 MLOAD DUP1 PUSH1 0x40 ADD PUSH1 0x40 MSTORE DUP1 PUSH1 0x8 DUP2 MSTORE PUSH1 0x20 ADD PUSH32 0x425443204D616973000000000000000000000000000000000000000000000000 DUP2 MSTORE POP PUSH0 SWAP1 DUP2 PUSH2 0x47 SWAP2 SWAP1 PUSH2 0x4FA JUMP JUMPDEST POP PUSH1 0x40 MLOAD DUP1 PUSH1 0x40 ADD PUSH1 0x40 MSTORE DUP1 PUSH1 0x4 DUP2 MSTORE PUSH1 0x20 ADD PUSH32 0x4254432B00000000000000000000000000000000000000000000000000000000 DUP2 MSTORE POP PUSH1 0x1 SWAP1 DUP2 PUSH2 0x8C SWAP2 SWAP1 PUSH2 0x4FA JUMP JUMPDEST POP PUSH1 0x4 PUSH1 0x2 PUSH0 PUSH2 0x100 EXP DUP2 SLOAD DUP2 PUSH1 0xFF MUL NOT AND SWAP1 DUP4 PUSH1 0xFF AND MUL OR SWAP1 SSTORE POP PUSH1 0x2 PUSH0 SWAP1 SLOAD SWAP1 PUSH2 0x100 EXP SWAP1 DIV PUSH1 0xFF AND PUSH1 0xFF AND PUSH1 0xA PUSH2 0xC6 SWAP2 SWAP1 PUSH2 0x725 JUMP JUMPDEST PUSH5 0x174876E800 PUSH2 0xD6 SWAP2 SWAP1 PUSH2 0x76F JUMP JUMPDEST PUSH1 0x3 SSTORE PUSH1 0x40 MLOAD DUP1 PUSH1 0x20 ADD PUSH1 0x40 MSTORE DUP1 PUSH0 DUP2 MSTORE POP PUSH1 0x4 SWAP1 DUP2 PUSH2 0xF6 SWAP2 SWAP1 PUSH2 0x4FA JUMP JUMPDEST POP PUSH20 0xB81337F18767565D2EA40913799317A25DC4BC5 PUSH1 0x5 PUSH0 PUSH2 0x100 EXP DUP2 SLOAD DUP2 PUSH20 0xFFFFFFFFFFFFFFFFFFFFFFFFFFFFFFFFFFFFFFFF MUL NOT AND SWAP1 DUP4 PUSH20 0xFFFFFFFFFFFFFFFFFFFFFFFFFFFFFFFFFFFFFFFF AND MUL OR SWAP1 SSTORE POP PUSH7 0x110D9316EC000 PUSH1 0x8 SSTORE PUSH6 0xB5E620F48000 PUSH1 0x9 SSTORE PUSH7 0x1C6BF52634000 PUSH1 0xA SSTORE PUSH20 0xB4A045AF12A74E5BEB8FF763F474B943CC2CFA0A PUSH1 0xB PUSH0 PUSH2 0x100 EXP DUP2 SLOAD DUP2 PUSH20 0xFFFFFFFFFFFFFFFFFFFFFFFFFFFFFFFFFFFFFFFF MUL NOT AND SWAP1 DUP4 PUSH20 0xFFFFFFFFFFFFFFFFFFFFFFFFFFFFFFFFFFFFFFFF AND MUL OR SWAP1 SSTORE POP CALLVALUE DUP1 ISZERO PUSH2 0x1CA JUMPI PUSH0 PUSH0 REVERT JUMPDEST POP PUSH1 0x3 SLOAD PUSH1 0x6 PUSH0 PUSH1 0x5 PUSH0 SWAP1 SLOAD SWAP1 PUSH2 0x100 EXP SWAP1 DIV PUSH20 0xFFFFFFFFFFFFFFFFFFFFFFFFFFFFFFFFFFFFFFFF AND PUSH20 0xFFFFFFFFFFFFFFFFFFFFFFFFFFFFFFFFFFFFFFFF AND PUSH20 0xFFFFFFFFFFFFFFFFFFFFFFFFFFFFFFFFFFFFFFFF AND DUP2 MSTORE PUSH1 0x20 ADD SWAP1 DUP2 MSTORE PUSH1 0x20 ADD PUSH0 KECCAK256 DUP2 SWAP1 SSTORE POP PUSH1 0x5 PUSH0 SWAP1 SLOAD SWAP1 PUSH2 0x100 EXP SWAP1 DIV PUSH20 0xFFFFFFFFFFFFFFFFFFFFFFFFFFFFFFFFFFFFFFFF AND PUSH20 0xFFFFFFFFFFFFFFFFFFFFFFFFFFFFFFFFFFFFFFFF AND PUSH0 PUSH20 0xFFFFFFFFFFFFFFFFFFFFFFFFFFFFFFFFFFFFFFFF AND PUSH32 0xDDF252AD1BE2C89B69C2B068FC378DAA952BA7F163C4A11628F55A4DF523B3EF PUSH1 0x3 SLOAD PUSH1 0x40 MLOAD PUSH2 0x2B0 SWAP2 SWAP1 PUSH2 0x7BF JUMP JUMPDEST PUSH1 0x40 MLOAD DUP1 SWAP2 SUB SWAP1 LOG3 PUSH2 0x7D8 JUMP JUMPDEST PUSH0 DUP2 MLOAD SWAP1 POP SWAP2 SWAP1 POP JUMP JUMPDEST PUSH32 0x4E487B7100000000000000000000000000000000000000000000000000000000 PUSH0 MSTORE PUSH1 0x41 PUSH1 0x4 MSTORE PUSH1 0x24 PUSH0 REVERT JUMPDEST PUSH32 0x4E487B7100000000000000000000000000000000000000000000000000000000 PUSH0 MSTORE PUSH1 0x22 PUSH1 0x4 MSTORE PUSH1 0x24 PUSH0 REVERT JUMPDEST PUSH0 PUSH1 0x2 DUP3 DIV SWAP1 POP PUSH1 0x1 DUP3 AND DUP1 PUSH2 0x338 JUMPI PUSH1 0x7F DUP3 AND SWAP2 POP JUMPDEST PUSH1 0x20 DUP3 LT DUP2 SUB PUSH2 0x34B JUMPI PUSH2 0x34A PUSH2 0x2F4 JUMP JUMPDEST JUMPDEST POP SWAP2 SWAP1 POP JUMP JUMPDEST PUSH0 DUP2 SWAP1 POP DUP2 PUSH0 MSTORE PUSH1 0x20 PUSH0 KECCAK256 SWAP1 POP SWAP2 SWAP1 POP JUMP JUMPDEST PUSH0 PUSH1 0x20 PUSH1 0x1F DUP4 ADD DIV SWAP1 POP SWAP2 SWAP1 POP JUMP JUMPDEST PUSH0 DUP3 DUP3 SHL SWAP1 POP SWAP3 SWAP2 POP POP JUMP JUMPDEST PUSH0 PUSH1 0x8 DUP4 MUL PUSH2 0x3AD PUSH32 0xFFFFFFFFFFFFFFFFFFFFFFFFFFFFFFFFFFFFFFFFFFFFFFFFFFFFFFFFFFFFFFFF DUP3 PUSH2 0x372 JUMP JUMPDEST PUSH2 0x3B7 DUP7 DUP4 PUSH2 0x372 JUMP JUMPDEST SWAP6 POP DUP1 NOT DUP5 AND SWAP4 POP DUP1 DUP7 AND DUP5 OR SWAP3 POP POP POP SWAP4 SWAP3 POP POP POP JUMP JUMPDEST PUSH0 DUP2 SWAP1 POP SWAP2 SWAP1 POP JUMP JUMPDEST PUSH0 DUP2 SWAP1 POP SWAP2 SWAP1 POP JUMP JUMPDEST PUSH0 PUSH2 0x3FB PUSH2 0x3F6 PUSH2 0x3F1 DUP5 PUSH2 0x3CF JUMP JUMPDEST PUSH2 0x3D8 JUMP JUMPDEST PUSH2 0x3CF JUMP JUMPDEST SWAP1 POP SWAP2 SWAP1 POP JUMP JUMPDEST PUSH0 DUP2 SWAP1 POP SWAP2 SWAP1 POP JUMP JUMPDEST PUSH2 0x414 DUP4 PUSH2 0x3E1 JUMP JUMPDEST PUSH2 0x428 PUSH2 0x420 DUP3 PUSH2 0x402 JUMP JUMPDEST DUP5 DUP5 SLOAD PUSH2 0x37E JUMP JUMPDEST DUP3 SSTORE POP POP POP POP JUMP JUMPDEST PUSH0 PUSH0 SWAP1 POP SWAP1 JUMP JUMPDEST PUSH2 0x43F PUSH2 0x430 JUMP JUMPDEST PUSH2 0x44A DUP2 DUP5 DUP5 PUSH2 0x40B JUMP JUMPDEST POP POP POP JUMP JUMPDEST JUMPDEST DUP2 DUP2 LT ISZERO PUSH2 0x46D JUMPI PUSH2 0x462 PUSH0 DUP3 PUSH2 0x437 JUMP JUMPDEST PUSH1 0x1 DUP2 ADD SWAP1 POP PUSH2 0x450 JUMP JUMPDEST POP POP JUMP JUMPDEST PUSH1 0x1F DUP3 GT ISZERO PUSH2 0x4B2 JUMPI PUSH2 0x483 DUP2 PUSH2 0x351 JUMP JUMPDEST PUSH2 0x48C DUP5 PUSH2 0x363 JUMP JUMPDEST DUP2 ADD PUSH1 0x20 DUP6 LT ISZERO PUSH2 0x49B JUMPI DUP2 SWAP1 POP JUMPDEST PUSH2 0x4AF PUSH2 0x4A7 DUP6 PUSH2 0x363 JUMP JUMPDEST DUP4 ADD DUP3 PUSH2 0x44F JUMP JUMPDEST POP POP JUMPDEST POP POP POP JUMP JUMPDEST PUSH0 DUP3 DUP3 SHR SWAP1 POP SWAP3 SWAP2 POP POP JUMP JUMPDEST PUSH0 PUSH2 0x4D2 PUSH0 NOT DUP5 PUSH1 0x8 MUL PUSH2 0x4B7 JUMP JUMPDEST NOT DUP1 DUP4 AND SWAP2 POP POP SWAP3 SWAP2 POP POP JUMP JUMPDEST PUSH0 PUSH2 0x4EA DUP4 DUP4 PUSH2 0x4C3 JUMP JUMPDEST SWAP2 POP DUP3 PUSH1 0x2 MUL DUP3 OR SWAP1 POP SWAP3 SWAP2 POP POP JUMP JUMPDEST PUSH2 0x503 DUP3 PUSH2 0x2BD JUMP JUMPDEST PUSH8 0xFFFFFFFFFFFFFFFF DUP2 GT ISZERO PUSH2 0x51C JUMPI PUSH2 0x51B PUSH2 0x2C7 JUMP JUMPDEST JUMPDEST PUSH2 0x526 DUP3 SLOAD PUSH2 0x321 JUMP JUMPDEST PUSH2 0x531 DUP3 DUP3 DUP6 PUSH2 0x471 JUMP JUMPDEST PUSH0 PUSH1 0x20 SWAP1 POP PUSH1 0x1F DUP4 GT PUSH1 0x1 DUP2 EQ PUSH2 0x562 JUMPI PUSH0 DUP5 ISZERO PUSH2 0x550 JUMPI DUP3 DUP8 ADD MLOAD SWAP1 POP JUMPDEST PUSH2 0x55A DUP6 DUP3 PUSH2 0x4DF JUMP JUMPDEST DUP7 SSTORE POP PUSH2 0x5C1 JUMP JUMPDEST PUSH1 0x1F NOT DUP5 AND PUSH2 0x570 DUP7 PUSH2 0x351 JUMP JUMPDEST PUSH0 JUMPDEST DUP3 DUP2 LT ISZERO PUSH2 0x597 JUMPI DUP5 DUP10 ADD MLOAD DUP3 SSTORE PUSH1 0x1 DUP3 ADD SWAP2 POP PUSH1 0x20 DUP6 ADD SWAP5 POP PUSH1 0x20 DUP2 ADD SWAP1 POP PUSH2 0x572 JUMP JUMPDEST DUP7 DUP4 LT ISZERO PUSH2 0x5B4 JUMPI DUP5 DUP10 ADD MLOAD PUSH2 0x5B0 PUSH1 0x1F DUP10 AND DUP3 PUSH2 0x4C3 JUMP JUMPDEST DUP4 SSTORE POP JUMPDEST PUSH1 0x1 PUSH1 0x2 DUP9 MUL ADD DUP9 SSTORE POP POP POP JUMPDEST POP POP POP POP POP POP JUMP JUMPDEST PUSH32 0x4E487B7100000000000000000000000000000000000000000000000000000000 PUSH0 MSTORE PUSH1 0x11 PUSH1 0x4 MSTORE PUSH1 0x24 PUSH0 REVERT JUMPDEST PUSH0 DUP2 PUSH1 0x1 SHR SWAP1 POP SWAP2 SWAP1 POP JUMP JUMPDEST PUSH0 PUSH0 DUP3 SWAP2 POP DUP4 SWAP1 POP JUMPDEST PUSH1 0x1 DUP6 GT ISZERO PUSH2 0x64B JUMPI DUP1 DUP7 DIV DUP2 GT ISZERO PUSH2 0x627 JUMPI PUSH2 0x626 PUSH2 0x5C9 JUMP JUMPDEST JUMPDEST PUSH1 0x1 DUP6 AND ISZERO PUSH2 0x636 JUMPI DUP1 DUP3 MUL SWAP2 POP JUMPDEST DUP1 DUP2 MUL SWAP1 POP PUSH2 0x644 DUP6 PUSH2 0x5F6 JUMP JUMPDEST SWAP5 POP PUSH2 0x60B JUMP JUMPDEST SWAP5 POP SWAP5 SWAP3 POP POP POP JUMP JUMPDEST PUSH0 DUP3 PUSH2 0x663 JUMPI PUSH1 0x1 SWAP1 POP PUSH2 0x71E JUMP JUMPDEST DUP2 PUSH2 0x670 JUMPI PUSH0 SWAP1 POP PUSH2 0x71E JUMP JUMPDEST DUP2 PUSH1 0x1 DUP2 EQ PUSH2 0x686 JUMPI PUSH1 0x2 DUP2 EQ PUSH2 0x690 JUMPI PUSH2 0x6BF JUMP JUMPDEST PUSH1 0x1 SWAP2 POP POP PUSH2 0x71E JUMP JUMPDEST PUSH1 0xFF DUP5 GT ISZERO PUSH2 0x6A2 JUMPI PUSH2 0x6A1 PUSH2 0x5C9 JUMP JUMPDEST JUMPDEST DUP4 PUSH1 0x2 EXP SWAP2 POP DUP5 DUP3 GT ISZERO PUSH2 0x6B9 JUMPI PUSH2 0x6B8 PUSH2 0x5C9 JUMP JUMPDEST JUMPDEST POP PUSH2 0x71E JUMP JUMPDEST POP PUSH1 0x20 DUP4 LT PUSH2 0x133 DUP4 LT AND PUSH1 0x4E DUP5 LT PUSH1 0xB DUP5 LT AND OR ISZERO PUSH2 0x6F4 JUMPI DUP3 DUP3 EXP SWAP1 POP DUP4 DUP2 GT ISZERO PUSH2 0x6EF JUMPI PUSH2 0x6EE PUSH2 0x5C9 JUMP JUMPDEST JUMPDEST PUSH2 0x71E JUMP JUMPDEST PUSH2 0x701 DUP5 DUP5 DUP5 PUSH1 0x1 PUSH2 0x602 JUMP JUMPDEST SWAP3 POP SWAP1 POP DUP2 DUP5 DIV DUP2 GT ISZERO PUSH2 0x718 JUMPI PUSH2 0x717 PUSH2 0x5C9 JUMP JUMPDEST JUMPDEST DUP2 DUP2 MUL SWAP1 POP JUMPDEST SWAP4 SWAP3 POP POP POP JUMP JUMPDEST PUSH0 PUSH2 0x72F DUP3 PUSH2 0x3CF JUMP JUMPDEST SWAP2 POP PUSH2 0x73A DUP4 PUSH2 0x3CF JUMP JUMPDEST SWAP3 POP PUSH2 0x767 PUSH32 0xFFFFFFFFFFFFFFFFFFFFFFFFFFFFFFFFFFFFFFFFFFFFFFFFFFFFFFFFFFFFFFFF DUP5 DUP5 PUSH2 0x654 JUMP JUMPDEST SWAP1 POP SWAP3 SWAP2 POP POP JUMP JUMPDEST PUSH0 PUSH2 0x779 DUP3 PUSH2 0x3CF JUMP JUMPDEST SWAP2 POP PUSH2 0x784 DUP4 PUSH2 0x3CF JUMP JUMPDEST SWAP3 POP DUP3 DUP3 MUL PUSH2 0x792 DUP2 PUSH2 0x3CF JUMP JUMPDEST SWAP2 POP DUP3 DUP3 DIV DUP5 EQ DUP4 ISZERO OR PUSH2 0x7A9 JUMPI PUSH2 0x7A8 PUSH2 0x5C9 JUMP JUMPDEST JUMPDEST POP SWAP3 SWAP2 POP POP JUMP JUMPDEST PUSH2 0x7B9 DUP2 PUSH2 0x3CF JUMP JUMPDEST DUP3 MSTORE POP POP JUMP JUMPDEST PUSH0 PUSH1 0x20 DUP3 ADD SWAP1 POP PUSH2 0x7D2 PUSH0 DUP4 ADD DUP5 PUSH2 0x7B0 JUMP JUMPDEST SWAP3 SWAP2 POP POP JUMP JUMPDEST PUSH2 0x1C86 DUP1 PUSH2 0x7E5 PUSH0 CODECOPY PUSH0 RETURN INVALID PUSH1 0x80 PUSH1 0x40 MSTORE PUSH1 0x4 CALLDATASIZE LT PUSH2 0xFD JUMPI PUSH0 CALLDATALOAD PUSH1 0xE0 SHR DUP1 PUSH4 0x5C975ABB GT PUSH2 0x94 JUMPI DUP1 PUSH4 0x95D89B41 GT PUSH2 0x63 JUMPI DUP1 PUSH4 0x95D89B41 EQ PUSH2 0x2DB JUMPI DUP1 PUSH4 0xA9059CBB EQ PUSH2 0x305 JUMPI DUP1 PUSH4 0xCE606EE0 EQ PUSH2 0x335 JUMPI DUP1 PUSH4 0xDD62ED3E EQ PUSH2 0x35F JUMPI DUP1 PUSH4 0xF2FDE38B EQ PUSH2 0x39B JUMPI PUSH2 0xFD JUMP JUMPDEST DUP1 PUSH4 0x5C975ABB EQ PUSH2 0x235 JUMPI DUP1 PUSH4 0x6BB38B28 EQ PUSH2 0x25F JUMPI DUP1 PUSH4 0x70A08231 EQ PUSH2 0x289 JUMPI DUP1 PUSH4 0x8456CB59 EQ PUSH2 0x2C5 JUMPI PUSH2 0xFD JUMP JUMPDEST DUP1 PUSH4 0x194307BF GT PUSH2 0xD0 JUMPI DUP1 PUSH4 0x194307BF EQ PUSH2 0x19B JUMPI DUP1 PUSH4 0x23B872DD EQ PUSH2 0x1C5 JUMPI DUP1 PUSH4 0x313CE567 EQ PUSH2 0x1F5 JUMPI DUP1 PUSH4 0x3F4BA83A EQ PUSH2 0x21F JUMPI PUSH2 0xFD JUMP JUMPDEST DUP1 PUSH4 0x6FDDE03 EQ PUSH2 0x101 JUMPI DUP1 PUSH4 0x95EA7B3 EQ PUSH2 0x12B JUMPI DUP1 PUSH4 0xC08BF88 EQ PUSH2 0x15B JUMPI DUP1 PUSH4 0x18160DDD EQ PUSH2 0x171 JUMPI JUMPDEST PUSH0 PUSH0 REVERT JUMPDEST CALLVALUE DUP1 ISZERO PUSH2 0x10C JUMPI PUSH0 PUSH0 REVERT JUMPDEST POP PUSH2 0x115 PUSH2 0x3C3 JUMP JUMPDEST PUSH1 0x40 MLOAD PUSH2 0x122 SWAP2 SWAP1 PUSH2 0x14D8 JUMP JUMPDEST PUSH1 0x40 MLOAD DUP1 SWAP2 SUB SWAP1 RETURN JUMPDEST PUSH2 0x145 PUSH1 0x4 DUP1 CALLDATASIZE SUB DUP2 ADD SWAP1 PUSH2 0x140 SWAP2 SWAP1 PUSH2 0x1589 JUMP JUMPDEST PUSH2 0x44E JUMP JUMPDEST PUSH1 0x40 MLOAD PUSH2 0x152 SWAP2 SWAP1 PUSH2 0x15E1 JUMP JUMPDEST PUSH1 0x40 MLOAD DUP1 SWAP2 SUB SWAP1 RETURN JUMPDEST CALLVALUE DUP1 ISZERO PUSH2 0x166 JUMPI PUSH0 PUSH0 REVERT JUMPDEST POP PUSH2 0x16F PUSH2 0x628 JUMP JUMPDEST STOP JUMPDEST CALLVALUE DUP1 ISZERO PUSH2 0x17C JUMPI PUSH0 PUSH0 REVERT JUMPDEST POP PUSH2 0x185 PUSH2 0x717 JUMP JUMPDEST PUSH1 0x40 MLOAD PUSH2 0x192 SWAP2 SWAP1 PUSH2 0x1609 JUMP JUMPDEST PUSH1 0x40 MLOAD DUP1 SWAP2 SUB SWAP1 RETURN JUMPDEST CALLVALUE DUP1 ISZERO PUSH2 0x1A6 JUMPI PUSH0 PUSH0 REVERT JUMPDEST POP PUSH2 0x1AF PUSH2 0x71D JUMP JUMPDEST PUSH1 0x40 MLOAD PUSH2 0x1BC SWAP2 SWAP1 PUSH2 0x15E1 JUMP JUMPDEST PUSH1 0x40 MLOAD DUP1 SWAP2 SUB SWAP1 RETURN JUMPDEST PUSH2 0x1DF PUSH1 0x4 DUP1 CALLDATASIZE SUB DUP2 ADD SWAP1 PUSH2 0x1DA SWAP2 SWAP1 PUSH2 0x1622 JUMP JUMPDEST PUSH2 0x730 JUMP JUMPDEST PUSH1 0x40 MLOAD PUSH2 0x1EC SWAP2 SWAP1 PUSH2 0x15E1 JUMP JUMPDEST PUSH1 0x40 MLOAD DUP1 SWAP2 SUB SWAP1 RETURN JUMPDEST CALLVALUE DUP1 ISZERO PUSH2 0x200 JUMPI PUSH0 PUSH0 REVERT JUMPDEST POP PUSH2 0x209 PUSH2 0xAFD JUMP JUMPDEST PUSH1 0x40 MLOAD PUSH2 0x216 SWAP2 SWAP1 PUSH2 0x168D JUMP JUMPDEST PUSH1 0x40 MLOAD DUP1 SWAP2 SUB SWAP1 RETURN JUMPDEST CALLVALUE DUP1 ISZERO PUSH2 0x22A JUMPI PUSH0 PUSH0 REVERT JUMPDEST POP PUSH2 0x233 PUSH2 0xB0F JUMP JUMPDEST STOP JUMPDEST CALLVALUE DUP1 ISZERO PUSH2 0x240 JUMPI PUSH0 PUSH0 REVERT JUMPDEST POP PUSH2 0x249 PUSH2 0xBFD JUMP JUMPDEST PUSH1 0x40 MLOAD PUSH2 0x256 SWAP2 SWAP1 PUSH2 0x15E1 JUMP JUMPDEST PUSH1 0x40 MLOAD DUP1 SWAP2 SUB SWAP1 RETURN JUMPDEST CALLVALUE DUP1 ISZERO PUSH2 0x26A JUMPI PUSH0 PUSH0 REVERT JUMPDEST POP PUSH2 0x273 PUSH2 0xC10 JUMP JUMPDEST PUSH1 0x40 MLOAD PUSH2 0x280 SWAP2 SWAP1 PUSH2 0x14D8 JUMP JUMPDEST PUSH1 0x40 MLOAD DUP1 SWAP2 SUB SWAP1 RETURN JUMPDEST CALLVALUE DUP1 ISZERO PUSH2 0x294 JUMPI PUSH0 PUSH0 REVERT JUMPDEST POP PUSH2 0x2AF PUSH1 0x4 DUP1 CALLDATASIZE SUB DUP2 ADD SWAP1 PUSH2 0x2AA SWAP2 SWAP1 PUSH2 0x16A6 JUMP JUMPDEST PUSH2 0xC9C JUMP JUMPDEST PUSH1 0x40 MLOAD PUSH2 0x2BC SWAP2 SWAP1 PUSH2 0x1609 JUMP JUMPDEST PUSH1 0x40 MLOAD DUP1 SWAP2 SUB SWAP1 RETURN JUMPDEST CALLVALUE DUP1 ISZERO PUSH2 0x2D0 JUMPI PUSH0 PUSH0 REVERT JUMPDEST POP PUSH2 0x2D9 PUSH2 0xCE2 JUMP JUMPDEST STOP JUMPDEST CALLVALUE DUP1 ISZERO PUSH2 0x2E6 JUMPI PUSH0 PUSH0 REVERT JUMPDEST POP PUSH2 0x2EF PUSH2 0xDD1 JUMP JUMPDEST PUSH1 0x40 MLOAD PUSH2 0x2FC SWAP2 SWAP1 PUSH2 0x14D8 JUMP JUMPDEST PUSH1 0x40 MLOAD DUP1 SWAP2 SUB SWAP1 RETURN JUMPDEST PUSH2 0x31F PUSH1 0x4 DUP1 CALLDATASIZE SUB DUP2 ADD SWAP1 PUSH2 0x31A SWAP2 SWAP1 PUSH2 0x1589 JUMP JUMPDEST PUSH2 0xE5D JUMP JUMPDEST PUSH1 0x40 MLOAD PUSH2 0x32C SWAP2 SWAP1 PUSH2 0x15E1 JUMP JUMPDEST PUSH1 0x40 MLOAD DUP1 SWAP2 SUB SWAP1 RETURN JUMPDEST CALLVALUE DUP1 ISZERO PUSH2 0x340 JUMPI PUSH0 PUSH0 REVERT JUMPDEST POP PUSH2 0x349 PUSH2 0x10E0 JUMP JUMPDEST PUSH1 0x40 MLOAD PUSH2 0x356 SWAP2 SWAP1 PUSH2 0x16E0 JUMP JUMPDEST PUSH1 0x40 MLOAD DUP1 SWAP2 SUB SWAP1 RETURN JUMPDEST CALLVALUE DUP1 ISZERO PUSH2 0x36A JUMPI PUSH0 PUSH0 REVERT JUMPDEST POP PUSH2 0x385 PUSH1 0x4 DUP1 CALLDATASIZE SUB DUP2 ADD SWAP1 PUSH2 0x380 SWAP2 SWAP1 PUSH2 0x16F9 JUMP JUMPDEST PUSH2 0x1105 JUMP JUMPDEST PUSH1 0x40 MLOAD PUSH2 0x392 SWAP2 SWAP1 PUSH2 0x1609 JUMP JUMPDEST PUSH1 0x40 MLOAD DUP1 SWAP2 SUB SWAP1 RETURN JUMPDEST CALLVALUE DUP1 ISZERO PUSH2 0x3A6 JUMPI PUSH0 PUSH0 REVERT JUMPDEST POP PUSH2 0x3C1 PUSH1 0x4 DUP1 CALLDATASIZE SUB DUP2 ADD SWAP1 PUSH2 0x3BC SWAP2 SWAP1 PUSH2 0x16A6 JUMP JUMPDEST PUSH2 0x1187 JUMP JUMPDEST STOP JUMPDEST PUSH0 DUP1 SLOAD PUSH2 0x3CF SWAP1 PUSH2 0x1764 JUMP JUMPDEST DUP1 PUSH1 0x1F ADD PUSH1 0x20 DUP1 SWAP2 DIV MUL PUSH1 0x20 ADD PUSH1 0x40 MLOAD SWAP1 DUP2 ADD PUSH1 0x40 MSTORE DUP1 SWAP3 SWAP2 SWAP1 DUP2 DUP2 MSTORE PUSH1 0x20 ADD DUP3 DUP1 SLOAD PUSH2 0x3FB SWAP1 PUSH2 0x1764 JUMP JUMPDEST DUP1 ISZERO PUSH2 0x446 JUMPI DUP1 PUSH1 0x1F LT PUSH2 0x41D JUMPI PUSH2 0x100 DUP1 DUP4 SLOAD DIV MUL DUP4 MSTORE SWAP2 PUSH1 0x20 ADD SWAP2 PUSH2 0x446 JUMP JUMPDEST DUP3 ADD SWAP2 SWAP1 PUSH0 MSTORE PUSH1 0x20 PUSH0 KECCAK256 SWAP1 JUMPDEST DUP2 SLOAD DUP2 MSTORE SWAP1 PUSH1 0x1 ADD SWAP1 PUSH1 0x20 ADD DUP1 DUP4 GT PUSH2 0x429 JUMPI DUP3 SWAP1 SUB PUSH1 0x1F AND DUP3 ADD SWAP2 JUMPDEST POP POP POP POP POP DUP2 JUMP JUMPDEST PUSH0 PUSH1 0x5 PUSH1 0x14 SWAP1 SLOAD SWAP1 PUSH2 0x100 EXP SWAP1 DIV PUSH1 0xFF AND ISZERO PUSH2 0x49F JUMPI PUSH1 0x40 MLOAD PUSH32 0x8C379A000000000000000000000000000000000000000000000000000000000 DUP2 MSTORE PUSH1 0x4 ADD PUSH2 0x496 SWAP1 PUSH2 0x17DE JUMP JUMPDEST PUSH1 0x40 MLOAD DUP1 SWAP2 SUB SWAP1 REVERT JUMPDEST PUSH1 0x5 PUSH1 0x15 SWAP1 SLOAD SWAP1 PUSH2 0x100 EXP SWAP1 DIV PUSH1 0xFF AND ISZERO PUSH2 0x4EF JUMPI PUSH1 0x40 MLOAD PUSH32 0x8C379A000000000000000000000000000000000000000000000000000000000 DUP2 MSTORE PUSH1 0x4 ADD PUSH2 0x4E6 SWAP1 PUSH2 0x1846 JUMP JUMPDEST PUSH1 0x40 MLOAD DUP1 SWAP2 SUB SWAP1 REVERT JUMPDEST PUSH1 0x9 SLOAD CALLVALUE LT ISZERO PUSH2 0x534 JUMPI PUSH1 0x40 MLOAD PUSH32 0x8C379A000000000000000000000000000000000000000000000000000000000 DUP2 MSTORE PUSH1 0x4 ADD PUSH2 0x52B SWAP1 PUSH2 0x18AE JUMP JUMPDEST PUSH1 0x40 MLOAD DUP1 SWAP2 SUB SWAP1 REVERT JUMPDEST PUSH2 0x53C PUSH2 0x1342 JUMP JUMPDEST DUP2 PUSH1 0x7 PUSH0 CALLER PUSH20 0xFFFFFFFFFFFFFFFFFFFFFFFFFFFFFFFFFFFFFFFF AND PUSH20 0xFFFFFFFFFFFFFFFFFFFFFFFFFFFFFFFFFFFFFFFF AND DUP2 MSTORE PUSH1 0x20 ADD SWAP1 DUP2 MSTORE PUSH1 0x20 ADD PUSH0 KECCAK256 PUSH0 DUP6 PUSH20 0xFFFFFFFFFFFFFFFFFFFFFFFFFFFFFFFFFFFFFFFF AND PUSH20 0xFFFFFFFFFFFFFFFFFFFFFFFFFFFFFFFFFFFFFFFF AND DUP2 MSTORE PUSH1 0x20 ADD SWAP1 DUP2 MSTORE PUSH1 0x20 ADD PUSH0 KECCAK256 DUP2 SWAP1 SSTORE POP DUP3 PUSH20 0xFFFFFFFFFFFFFFFFFFFFFFFFFFFFFFFFFFFFFFFF AND CALLER PUSH20 0xFFFFFFFFFFFFFFFFFFFFFFFFFFFFFFFFFFFFFFFF AND PUSH32 0x8C5BE1E5EBEC7D5BD14F71427D1E84F3DD0314C0F7B2291E5B200AC8C7C3B925 DUP5 PUSH1 0x40 MLOAD PUSH2 0x616 SWAP2 SWAP1 PUSH2 0x1609 JUMP JUMPDEST PUSH1 0x40 MLOAD DUP1 SWAP2 SUB SWAP1 LOG3 PUSH1 0x1 SWAP1 POP SWAP3 SWAP2 POP POP JUMP JUMPDEST PUSH1 0x5 PUSH0 SWAP1 SLOAD SWAP1 PUSH2 0x100 EXP SWAP1 DIV PUSH20 0xFFFFFFFFFFFFFFFFFFFFFFFFFFFFFFFFFFFFFFFF AND PUSH20 0xFFFFFFFFFFFFFFFFFFFFFFFFFFFFFFFFFFFFFFFF AND CALLER PUSH20 0xFFFFFFFFFFFFFFFFFFFFFFFFFFFFFFFFFFFFFFFF AND EQ PUSH2 0x6B7 JUMPI PUSH1 0x40 MLOAD PUSH32 0x8C379A000000000000000000000000000000000000000000000000000000000 DUP2 MSTORE PUSH1 0x4 ADD PUSH2 0x6AE SWAP1 PUSH2 0x193C JUMP JUMPDEST PUSH1 0x40 MLOAD DUP1 SWAP2 SUB SWAP1 REVERT JUMPDEST PUSH1 0x1 PUSH1 0x5 PUSH1 0x15 PUSH2 0x100 EXP DUP2 SLOAD DUP2 PUSH1 0xFF MUL NOT AND SWAP1 DUP4 ISZERO ISZERO MUL OR SWAP1 SSTORE POP CALLER PUSH20 0xFFFFFFFFFFFFFFFFFFFFFFFFFFFFFFFFFFFFFFFF AND PUSH32 0x98CD97FC1A1CC958CBD729B1BB531D4F3EA4925470BF23EA9AF386640CBD07BE PUSH1 0x40 MLOAD PUSH1 0x40 MLOAD DUP1 SWAP2 SUB SWAP1 LOG2 JUMP JUMPDEST PUSH1 0x3 SLOAD DUP2 JUMP JUMPDEST PUSH1 0x5 PUSH1 0x15 SWAP1 SLOAD SWAP1 PUSH2 0x100 EXP SWAP1 DIV PUSH1 0xFF AND DUP2 JUMP JUMPDEST PUSH0 PUSH1 0x5 PUSH1 0x14 SWAP1 SLOAD SWAP1 PUSH2 0x100 EXP SWAP1 DIV PUSH1 0xFF AND ISZERO PUSH2 0x781 JUMPI PUSH1 0x40 MLOAD PUSH32 0x8C379A000000000000000000000000000000000000000000000000000000000 DUP2 MSTORE PUSH1 0x4 ADD PUSH2 0x778 SWAP1 PUSH2 0x17DE JUMP JUMPDEST PUSH1 0x40 MLOAD DUP1 SWAP2 SUB SWAP1 REVERT JUMPDEST PUSH1 0x5 PUSH1 0x15 SWAP1 SLOAD SWAP1 PUSH2 0x100 EXP SWAP1 DIV PUSH1 0xFF AND ISZERO PUSH2 0x7D1 JUMPI PUSH1 0x40 MLOAD PUSH32 0x8C379A000000000000000000000000000000000000000000000000000000000 DUP2 MSTORE PUSH1 0x4 ADD PUSH2 0x7C8 SWAP1 PUSH2 0x1846 JUMP JUMPDEST PUSH1 0x40 MLOAD DUP1 SWAP2 SUB SWAP1 REVERT JUMPDEST DUP2 PUSH1 0x6 PUSH0 DUP7 PUSH20 0xFFFFFFFFFFFFFFFFFFFFFFFFFFFFFFFFFFFFFFFF AND PUSH20 0xFFFFFFFFFFFFFFFFFFFFFFFFFFFFFFFFFFFFFFFF AND DUP2 MSTORE PUSH1 0x20 ADD SWAP1 DUP2 MSTORE PUSH1 0x20 ADD PUSH0 KECCAK256 SLOAD LT ISZERO PUSH2 0x851 JUMPI PUSH1 0x40 MLOAD PUSH32 0x8C379A000000000000000000000000000000000000000000000000000000000 DUP2 MSTORE PUSH1 0x4 ADD PUSH2 0x848 SWAP1 PUSH2 0x19A4 JUMP JUMPDEST PUSH1 0x40 MLOAD DUP1 SWAP2 SUB SWAP1 REVERT JUMPDEST DUP2 PUSH1 0x7 PUSH0 DUP7 PUSH20 0xFFFFFFFFFFFFFFFFFFFFFFFFFFFFFFFFFFFFFFFF AND PUSH20 0xFFFFFFFFFFFFFFFFFFFFFFFFFFFFFFFFFFFFFFFF AND DUP2 MSTORE PUSH1 0x20 ADD SWAP1 DUP2 MSTORE PUSH1 0x20 ADD PUSH0 KECCAK256 PUSH0 CALLER PUSH20 0xFFFFFFFFFFFFFFFFFFFFFFFFFFFFFFFFFFFFFFFF AND PUSH20 0xFFFFFFFFFFFFFFFFFFFFFFFFFFFFFFFFFFFFFFFF AND DUP2 MSTORE PUSH1 0x20 ADD SWAP1 DUP2 MSTORE PUSH1 0x20 ADD PUSH0 KECCAK256 SLOAD LT ISZERO PUSH2 0x90C JUMPI PUSH1 0x40 MLOAD PUSH32 0x8C379A000000000000000000000000000000000000000000000000000000000 DUP2 MSTORE PUSH1 0x4 ADD PUSH2 0x903 SWAP1 PUSH2 0x1A0C JUMP JUMPDEST PUSH1 0x40 MLOAD DUP1 SWAP2 SUB SWAP1 REVERT JUMPDEST PUSH1 0xA SLOAD CALLVALUE LT ISZERO PUSH2 0x951 JUMPI PUSH1 0x40 MLOAD PUSH32 0x8C379A000000000000000000000000000000000000000000000000000000000 DUP2 MSTORE PUSH1 0x4 ADD PUSH2 0x948 SWAP1 PUSH2 0x18AE JUMP JUMPDEST PUSH1 0x40 MLOAD DUP1 SWAP2 SUB SWAP1 REVERT JUMPDEST PUSH2 0x959 PUSH2 0x1342 JUMP JUMPDEST DUP2 PUSH1 0x6 PUSH0 DUP7 PUSH20 0xFFFFFFFFFFFFFFFFFFFFFFFFFFFFFFFFFFFFFFFF AND PUSH20 0xFFFFFFFFFFFFFFFFFFFFFFFFFFFFFFFFFFFFFFFF AND DUP2 MSTORE PUSH1 0x20 ADD SWAP1 DUP2 MSTORE PUSH1 0x20 ADD PUSH0 KECCAK256 PUSH0 DUP3 DUP3 SLOAD PUSH2 0x9A5 SWAP2 SWAP1 PUSH2 0x1A57 JUMP JUMPDEST SWAP3 POP POP DUP2 SWAP1 SSTORE POP DUP2 PUSH1 0x6 PUSH0 DUP6 PUSH20 0xFFFFFFFFFFFFFFFFFFFFFFFFFFFFFFFFFFFFFFFF AND PUSH20 0xFFFFFFFFFFFFFFFFFFFFFFFFFFFFFFFFFFFFFFFF AND DUP2 MSTORE PUSH1 0x20 ADD SWAP1 DUP2 MSTORE PUSH1 0x20 ADD PUSH0 KECCAK256 PUSH0 DUP3 DUP3 SLOAD PUSH2 0x9F8 SWAP2 SWAP1 PUSH2 0x1A8A JUMP JUMPDEST SWAP3 POP POP DUP2 SWAP1 SSTORE POP DUP2 PUSH1 0x7 PUSH0 DUP7 PUSH20 0xFFFFFFFFFFFFFFFFFFFFFFFFFFFFFFFFFFFFFFFF AND PUSH20 0xFFFFFFFFFFFFFFFFFFFFFFFFFFFFFFFFFFFFFFFF AND DUP2 MSTORE PUSH1 0x20 ADD SWAP1 DUP2 MSTORE PUSH1 0x20 ADD PUSH0 KECCAK256 PUSH0 CALLER PUSH20 0xFFFFFFFFFFFFFFFFFFFFFFFFFFFFFFFFFFFFFFFF AND PUSH20 0xFFFFFFFFFFFFFFFFFFFFFFFFFFFFFFFFFFFFFFFF AND DUP2 MSTORE PUSH1 0x20 ADD SWAP1 DUP2 MSTORE PUSH1 0x20 ADD PUSH0 KECCAK256 PUSH0 DUP3 DUP3 SLOAD PUSH2 0xA86 SWAP2 SWAP1 PUSH2 0x1A57 JUMP JUMPDEST SWAP3 POP POP DUP2 SWAP1 SSTORE POP DUP3 PUSH20 0xFFFFFFFFFFFFFFFFFFFFFFFFFFFFFFFFFFFFFFFF AND DUP5 PUSH20 0xFFFFFFFFFFFFFFFFFFFFFFFFFFFFFFFFFFFFFFFF AND PUSH32 0xDDF252AD1BE2C89B69C2B068FC378DAA952BA7F163C4A11628F55A4DF523B3EF DUP5 PUSH1 0x40 MLOAD PUSH2 0xAEA SWAP2 SWAP1 PUSH2 0x1609 JUMP JUMPDEST PUSH1 0x40 MLOAD DUP1 SWAP2 SUB SWAP1 LOG3 PUSH1 0x1 SWAP1 POP SWAP4 SWAP3 POP POP POP JUMP JUMPDEST PUSH1 0x2 PUSH0 SWAP1 SLOAD SWAP1 PUSH2 0x100 EXP SWAP1 DIV PUSH1 0xFF AND DUP2 JUMP JUMPDEST PUSH1 0x5 PUSH0 SWAP1 SLOAD SWAP1 PUSH2 0x100 EXP SWAP1 DIV PUSH20 0xFFFFFFFFFFFFFFFFFFFFFFFFFFFFFFFFFFFFFFFF AND PUSH20 0xFFFFFFFFFFFFFFFFFFFFFFFFFFFFFFFFFFFFFFFF AND CALLER PUSH20 0xFFFFFFFFFFFFFFFFFFFFFFFFFFFFFFFFFFFFFFFF AND EQ PUSH2 0xB9E JUMPI PUSH1 0x40 MLOAD PUSH32 0x8C379A000000000000000000000000000000000000000000000000000000000 DUP2 MSTORE PUSH1 0x4 ADD PUSH2 0xB95 SWAP1 PUSH2 0x193C JUMP JUMPDEST PUSH1 0x40 MLOAD DUP1 SWAP2 SUB SWAP1 REVERT JUMPDEST PUSH0 PUSH1 0x5 PUSH1 0x14 PUSH2 0x100 EXP DUP2 SLOAD DUP2 PUSH1 0xFF MUL NOT AND SWAP1 DUP4 ISZERO ISZERO MUL OR SWAP1 SSTORE POP CALLER PUSH20 0xFFFFFFFFFFFFFFFFFFFFFFFFFFFFFFFFFFFFFFFF AND PUSH32 0x5DB9EE0A495BF2E6FF9C91A7834C1BA4FDD244A5E8AA4E537BD38AEAE4B073AA PUSH1 0x40 MLOAD PUSH1 0x40 MLOAD DUP1 SWAP2 SUB SWAP1 LOG2 JUMP JUMPDEST PUSH1 0x5 PUSH1 0x14 SWAP1 SLOAD SWAP1 PUSH2 0x100 EXP SWAP1 DIV PUSH1 0xFF AND DUP2 JUMP JUMPDEST PUSH1 0x4 DUP1 SLOAD PUSH2 0xC1D SWAP1 PUSH2 0x1764 JUMP JUMPDEST DUP1 PUSH1 0x1F ADD PUSH1 0x20 DUP1 SWAP2 DIV MUL PUSH1 0x20 ADD PUSH1 0x40 MLOAD SWAP1 DUP2 ADD PUSH1 0x40 MSTORE DUP1 SWAP3 SWAP2 SWAP1 DUP2 DUP2 MSTORE PUSH1 0x20 ADD DUP3 DUP1 SLOAD PUSH2 0xC49 SWAP1 PUSH2 0x1764 JUMP JUMPDEST DUP1 ISZERO PUSH2 0xC94 JUMPI DUP1 PUSH1 0x1F LT PUSH2 0xC6B JUMPI PUSH2 0x100 DUP1 DUP4 SLOAD DIV MUL DUP4 MSTORE SWAP2 PUSH1 0x20 ADD SWAP2 PUSH2 0xC94 JUMP JUMPDEST DUP3 ADD SWAP2 SWAP1 PUSH0 MSTORE PUSH1 0x20 PUSH0 KECCAK256 SWAP1 JUMPDEST DUP2 SLOAD DUP2 MSTORE SWAP1 PUSH1 0x1 ADD SWAP1 PUSH1 0x20 ADD DUP1 DUP4 GT PUSH2 0xC77 JUMPI DUP3 SWAP1 SUB PUSH1 0x1F AND DUP3 ADD SWAP2 JUMPDEST POP POP POP POP POP DUP2 JUMP JUMPDEST PUSH0 PUSH1 0x6 PUSH0 DUP4 PUSH20 0xFFFFFFFFFFFFFFFFFFFFFFFFFFFFFFFFFFFFFFFF AND PUSH20 0xFFFFFFFFFFFFFFFFFFFFFFFFFFFFFFFFFFFFFFFF AND DUP2 MSTORE PUSH1 0x20 ADD SWAP1 DUP2 MSTORE PUSH1 0x20 ADD PUSH0 KECCAK256 SLOAD SWAP1 POP SWAP2 SWAP1 POP JUMP JUMPDEST PUSH1 0x5 PUSH0 SWAP1 SLOAD SWAP1 PUSH2 0x100 EXP SWAP1 DIV PUSH20 0xFFFFFFFFFFFFFFFFFFFFFFFFFFFFFFFFFFFFFFFF AND PUSH20 0xFFFFFFFFFFFFFFFFFFFFFFFFFFFFFFFFFFFFFFFF AND CALLER PUSH20 0xFFFFFFFFFFFFFFFFFFFFFFFFFFFFFFFFFFFFFFFF AND EQ PUSH2 0xD71 JUMPI PUSH1 0x40 MLOAD PUSH32 0x8C379A000000000000000000000000000000000000000000000000000000000 DUP2 MSTORE PUSH1 0x4 ADD PUSH2 0xD68 SWAP1 PUSH2 0x193C JUMP JUMPDEST PUSH1 0x40 MLOAD DUP1 SWAP2 SUB SWAP1 REVERT JUMPDEST PUSH1 0x1 PUSH1 0x5 PUSH1 0x14 PUSH2 0x100 EXP DUP2 SLOAD DUP2 PUSH1 0xFF MUL NOT AND SWAP1 DUP4 ISZERO ISZERO MUL OR SWAP1 SSTORE POP CALLER PUSH20 0xFFFFFFFFFFFFFFFFFFFFFFFFFFFFFFFFFFFFFFFF AND PUSH32 0x62E78CEA01BEE320CD4E420270B5EA74000D11B0C9F74754EBDBFC544B05A258 PUSH1 0x40 MLOAD PUSH1 0x40 MLOAD DUP1 SWAP2 SUB SWAP1 LOG2 JUMP JUMPDEST PUSH1 0x1 DUP1 SLOAD PUSH2 0xDDE SWAP1 PUSH2 0x1764 JUMP JUMPDEST DUP1 PUSH1 0x1F ADD PUSH1 0x20 DUP1 SWAP2 DIV MUL PUSH1 0x20 ADD PUSH1 0x40 MLOAD SWAP1 DUP2 ADD PUSH1 0x40 MSTORE DUP1 SWAP3 SWAP2 SWAP1 DUP2 DUP2 MSTORE PUSH1 0x20 ADD DUP3 DUP1 SLOAD PUSH2 0xE0A SWAP1 PUSH2 0x1764 JUMP JUMPDEST DUP1 ISZERO PUSH2 0xE55 JUMPI DUP1 PUSH1 0x1F LT PUSH2 0xE2C JUMPI PUSH2 0x100 DUP1 DUP4 SLOAD DIV MUL DUP4 MSTORE SWAP2 PUSH1 0x20 ADD SWAP2 PUSH2 0xE55 JUMP JUMPDEST DUP3 ADD SWAP2 SWAP1 PUSH0 MSTORE PUSH1 0x20 PUSH0 KECCAK256 SWAP1 JUMPDEST DUP2 SLOAD DUP2 MSTORE SWAP1 PUSH1 0x1 ADD SWAP1 PUSH1 0x20 ADD DUP1 DUP4 GT PUSH2 0xE38 JUMPI DUP3 SWAP1 SUB PUSH1 0x1F AND DUP3 ADD SWAP2 JUMPDEST POP POP POP POP POP DUP2 JUMP JUMPDEST PUSH0 PUSH1 0x5 PUSH1 0x14 SWAP1 SLOAD SWAP1 PUSH2 0x100 EXP SWAP1 DIV PUSH1 0xFF AND ISZERO PUSH2 0xEAE JUMPI PUSH1 0x40 MLOAD PUSH32 0x8C379A000000000000000000000000000000000000000000000000000000000 DUP2 MSTORE PUSH1 0x4 ADD PUSH2 0xEA5 SWAP1 PUSH2 0x17DE JUMP JUMPDEST PUSH1 0x40 MLOAD DUP1 SWAP2 SUB SWAP1 REVERT JUMPDEST PUSH1 0x5 PUSH1 0x15 SWAP1 SLOAD SWAP1 PUSH2 0x100 EXP SWAP1 DIV PUSH1 0xFF AND ISZERO PUSH2 0xEFE JUMPI PUSH1 0x40 MLOAD PUSH32 0x8C379A000000000000000000000000000000000000000000000000000000000 DUP2 MSTORE PUSH1 0x4 ADD PUSH2 0xEF5 SWAP1 PUSH2 0x1846 JUMP JUMPDEST PUSH1 0x40 MLOAD DUP1 SWAP2 SUB SWAP1 REVERT JUMPDEST DUP2 PUSH1 0x6 PUSH0 CALLER PUSH20 0xFFFFFFFFFFFFFFFFFFFFFFFFFFFFFFFFFFFFFFFF AND PUSH20 0xFFFFFFFFFFFFFFFFFFFFFFFFFFFFFFFFFFFFFFFF AND DUP2 MSTORE PUSH1 0x20 ADD SWAP1 DUP2 MSTORE PUSH1 0x20 ADD PUSH0 KECCAK256 SLOAD LT ISZERO PUSH2 0xF7E JUMPI PUSH1 0x40 MLOAD PUSH32 0x8C379A000000000000000000000000000000000000000000000000000000000 DUP2 MSTORE PUSH1 0x4 ADD PUSH2 0xF75 SWAP1 PUSH2 0x19A4 JUMP JUMPDEST PUSH1 0x40 MLOAD DUP1 SWAP2 SUB SWAP1 REVERT JUMPDEST PUSH1 0x8 SLOAD CALLVALUE LT ISZERO PUSH2 0xFC3 JUMPI PUSH1 0x40 MLOAD PUSH32 0x8C379A000000000000000000000000000000000000000000000000000000000 DUP2 MSTORE PUSH1 0x4 ADD PUSH2 0xFBA SWAP1 PUSH2 0x18AE JUMP JUMPDEST PUSH1 0x40 MLOAD DUP1 SWAP2 SUB SWAP1 REVERT JUMPDEST PUSH2 0xFCB PUSH2 0x1342 JUMP JUMPDEST DUP2 PUSH1 0x6 PUSH0 CALLER PUSH20 0xFFFFFFFFFFFFFFFFFFFFFFFFFFFFFFFFFFFFFFFF AND PUSH20 0xFFFFFFFFFFFFFFFFFFFFFFFFFFFFFFFFFFFFFFFF AND DUP2 MSTORE PUSH1 0x20 ADD SWAP1 DUP2 MSTORE PUSH1 0x20 ADD PUSH0 KECCAK256 PUSH0 DUP3 DUP3 SLOAD PUSH2 0x1017 SWAP2 SWAP1 PUSH2 0x1A57 JUMP JUMPDEST SWAP3 POP POP DUP2 SWAP1 SSTORE POP DUP2 PUSH1 0x6 PUSH0 DUP6 PUSH20 0xFFFFFFFFFFFFFFFFFFFFFFFFFFFFFFFFFFFFFFFF AND PUSH20 0xFFFFFFFFFFFFFFFFFFFFFFFFFFFFFFFFFFFFFFFF AND DUP2 MSTORE PUSH1 0x20 ADD SWAP1 DUP2 MSTORE PUSH1 0x20 ADD PUSH0 KECCAK256 PUSH0 DUP3 DUP3 SLOAD PUSH2 0x106A SWAP2 SWAP1 PUSH2 0x1A8A JUMP JUMPDEST SWAP3 POP POP DUP2 SWAP1 SSTORE POP DUP3 PUSH20 0xFFFFFFFFFFFFFFFFFFFFFFFFFFFFFFFFFFFFFFFF AND CALLER PUSH20 0xFFFFFFFFFFFFFFFFFFFFFFFFFFFFFFFFFFFFFFFF AND PUSH32 0xDDF252AD1BE2C89B69C2B068FC378DAA952BA7F163C4A11628F55A4DF523B3EF DUP5 PUSH1 0x40 MLOAD PUSH2 0x10CE SWAP2 SWAP1 PUSH2 0x1609 JUMP JUMPDEST PUSH1 0x40 MLOAD DUP1 SWAP2 SUB SWAP1 LOG3 PUSH1 0x1 SWAP1 POP SWAP3 SWAP2 POP POP JUMP JUMPDEST PUSH1 0x5 PUSH0 SWAP1 SLOAD SWAP1 PUSH2 0x100 EXP SWAP1 DIV PUSH20 0xFFFFFFFFFFFFFFFFFFFFFFFFFFFFFFFFFFFFFFFF AND DUP2 JUMP JUMPDEST PUSH0 PUSH1 0x7 PUSH0 DUP5 PUSH20 0xFFFFFFFFFFFFFFFFFFFFFFFFFFFFFFFFFFFFFFFF AND PUSH20 0xFFFFFFFFFFFFFFFFFFFFFFFFFFFFFFFFFFFFFFFF AND DUP2 MSTORE PUSH1 0x20 ADD SWAP1 DUP2 MSTORE PUSH1 0x20 ADD PUSH0 KECCAK256 PUSH0 DUP4 PUSH20 0xFFFFFFFFFFFFFFFFFFFFFFFFFFFFFFFFFFFFFFFF AND PUSH20 0xFFFFFFFFFFFFFFFFFFFFFFFFFFFFFFFFFFFFFFFF AND DUP2 MSTORE PUSH1 0x20 ADD SWAP1 DUP2 MSTORE PUSH1 0x20 ADD PUSH0 KECCAK256 SLOAD SWAP1 POP SWAP3 SWAP2 POP POP JUMP JUMPDEST PUSH1 0x5 PUSH0 SWAP1 SLOAD SWAP1 PUSH2 0x100 EXP SWAP1 DIV PUSH20 0xFFFFFFFFFFFFFFFFFFFFFFFFFFFFFFFFFFFFFFFF AND PUSH20 0xFFFFFFFFFFFFFFFFFFFFFFFFFFFFFFFFFFFFFFFF AND CALLER PUSH20 0xFFFFFFFFFFFFFFFFFFFFFFFFFFFFFFFFFFFFFFFF AND EQ PUSH2 0x1216 JUMPI PUSH1 0x40 MLOAD PUSH32 0x8C379A000000000000000000000000000000000000000000000000000000000 DUP2 MSTORE PUSH1 0x4 ADD PUSH2 0x120D SWAP1 PUSH2 0x193C JUMP JUMPDEST PUSH1 0x40 MLOAD DUP1 SWAP2 SUB SWAP1 REVERT JUMPDEST PUSH0 PUSH20 0xFFFFFFFFFFFFFFFFFFFFFFFFFFFFFFFFFFFFFFFF AND DUP2 PUSH20 0xFFFFFFFFFFFFFFFFFFFFFFFFFFFFFFFFFFFFFFFF AND SUB PUSH2 0x1284 JUMPI PUSH1 0x40 MLOAD PUSH32 0x8C379A000000000000000000000000000000000000000000000000000000000 DUP2 MSTORE PUSH1 0x4 ADD PUSH2 0x127B SWAP1 PUSH2 0x1B07 JUMP JUMPDEST PUSH1 0x40 MLOAD DUP1 SWAP2 SUB SWAP1 REVERT JUMPDEST DUP1 PUSH20 0xFFFFFFFFFFFFFFFFFFFFFFFFFFFFFFFFFFFFFFFF AND PUSH1 0x5 PUSH0 SWAP1 SLOAD SWAP1 PUSH2 0x100 EXP SWAP1 DIV PUSH20 0xFFFFFFFFFFFFFFFFFFFFFFFFFFFFFFFFFFFFFFFF AND PUSH20 0xFFFFFFFFFFFFFFFFFFFFFFFFFFFFFFFFFFFFFFFF AND PUSH32 0x8BE0079C531659141344CD1FD0A4F28419497F9722A3DAAFE3B4186F6B6457E0 PUSH1 0x40 MLOAD PUSH1 0x40 MLOAD DUP1 SWAP2 SUB SWAP1 LOG3 DUP1 PUSH1 0x5 PUSH0 PUSH2 0x100 EXP DUP2 SLOAD DUP2 PUSH20 0xFFFFFFFFFFFFFFFFFFFFFFFFFFFFFFFFFFFFFFFF MUL NOT AND SWAP1 DUP4 PUSH20 0xFFFFFFFFFFFFFFFFFFFFFFFFFFFFFFFFFFFFFFFF AND MUL OR SWAP1 SSTORE POP POP JUMP JUMPDEST PUSH0 PUSH1 0xB PUSH0 SWAP1 SLOAD SWAP1 PUSH2 0x100 EXP SWAP1 DIV PUSH20 0xFFFFFFFFFFFFFFFFFFFFFFFFFFFFFFFFFFFFFFFF AND PUSH20 0xFFFFFFFFFFFFFFFFFFFFFFFFFFFFFFFFFFFFFFFF AND CALLVALUE PUSH1 0x40 MLOAD PUSH2 0x1388 SWAP1 PUSH2 0x1B52 JUMP JUMPDEST PUSH0 PUSH1 0x40 MLOAD DUP1 DUP4 SUB DUP2 DUP6 DUP8 GAS CALL SWAP3 POP POP POP RETURNDATASIZE DUP1 PUSH0 DUP2 EQ PUSH2 0x13C2 JUMPI PUSH1 0x40 MLOAD SWAP2 POP PUSH1 0x1F NOT PUSH1 0x3F RETURNDATASIZE ADD AND DUP3 ADD PUSH1 0x40 MSTORE RETURNDATASIZE DUP3 MSTORE RETURNDATASIZE PUSH0 PUSH1 0x20 DUP5 ADD RETURNDATACOPY PUSH2 0x13C7 JUMP JUMPDEST PUSH1 0x60 SWAP2 POP JUMPDEST POP POP SWAP1 POP DUP1 PUSH2 0x140B JUMPI PUSH1 0x40 MLOAD PUSH32 0x8C379A000000000000000000000000000000000000000000000000000000000 DUP2 MSTORE PUSH1 0x4 ADD PUSH2 0x1402 SWAP1 PUSH2 0x1BB0 JUMP JUMPDEST PUSH1 0x40 MLOAD DUP1 SWAP2 SUB SWAP1 REVERT JUMPDEST PUSH32 0x3D8298EA9F84556BCA02DFE84535012D54D4342F5224EB690EC43DCC256B3745 CALLVALUE PUSH1 0xB PUSH0 SWAP1 SLOAD SWAP1 PUSH2 0x100 EXP SWAP1 DIV PUSH20 0xFFFFFFFFFFFFFFFFFFFFFFFFFFFFFFFFFFFFFFFF AND PUSH1 0x40 MLOAD PUSH2 0x145D SWAP3 SWAP2 SWAP1 PUSH2 0x1C29 JUMP JUMPDEST PUSH1 0x40 MLOAD DUP1 SWAP2 SUB SWAP1 LOG1 POP JUMP JUMPDEST PUSH0 DUP2 MLOAD SWAP1 POP SWAP2 SWAP1 POP JUMP JUMPDEST PUSH0 DUP3 DUP3 MSTORE PUSH1 0x20 DUP3 ADD SWAP1 POP SWAP3 SWAP2 POP POP JUMP JUMPDEST DUP3 DUP2 DUP4 MCOPY PUSH0 DUP4 DUP4 ADD MSTORE POP POP POP JUMP JUMPDEST PUSH0 PUSH1 0x1F NOT PUSH1 0x1F DUP4 ADD AND SWAP1 POP SWAP2 SWAP1 POP JUMP JUMPDEST PUSH0 PUSH2 0x14AA DUP3 PUSH2 0x1468 JUMP JUMPDEST PUSH2 0x14B4 DUP2 DUP6 PUSH2 0x1472 JUMP JUMPDEST SWAP4 POP PUSH2 0x14C4 DUP2 DUP6 PUSH1 0x20 DUP7 ADD PUSH2 0x1482 JUMP JUMPDEST PUSH2 0x14CD DUP2 PUSH2 0x1490 JUMP JUMPDEST DUP5 ADD SWAP2 POP POP SWAP3 SWAP2 POP POP JUMP JUMPDEST PUSH0 PUSH1 0x20 DUP3 ADD SWAP1 POP DUP2 DUP2 SUB PUSH0 DUP4 ADD MSTORE PUSH2 0x14F0 DUP2 DUP5 PUSH2 0x14A0 JUMP JUMPDEST SWAP1 POP SWAP3 SWAP2 POP POP JUMP JUMPDEST PUSH0 PUSH0 REVERT JUMPDEST PUSH0 PUSH20 0xFFFFFFFFFFFFFFFFFFFFFFFFFFFFFFFFFFFFFFFF DUP3 AND SWAP1 POP SWAP2 SWAP1 POP JUMP JUMPDEST PUSH0 PUSH2 0x1525 DUP3 PUSH2 0x14FC JUMP JUMPDEST SWAP1 POP SWAP2 SWAP1 POP JUMP JUMPDEST PUSH2 0x1535 DUP2 PUSH2 0x151B JUMP JUMPDEST DUP2 EQ PUSH2 0x153F JUMPI PUSH0 PUSH0 REVERT JUMPDEST POP JUMP JUMPDEST PUSH0 DUP2 CALLDATALOAD SWAP1 POP PUSH2 0x1550 DUP2 PUSH2 0x152C JUMP JUMPDEST SWAP3 SWAP2 POP POP JUMP JUMPDEST PUSH0 DUP2 SWAP1 POP SWAP2 SWAP1 POP JUMP JUMPDEST PUSH2 0x1568 DUP2 PUSH2 0x1556 JUMP JUMPDEST DUP2 EQ PUSH2 0x1572 JUMPI PUSH0 PUSH0 REVERT JUMPDEST POP JUMP JUMPDEST PUSH0 DUP2 CALLDATALOAD SWAP1 POP PUSH2 0x1583 DUP2 PUSH2 0x155F JUMP JUMPDEST SWAP3 SWAP2 POP POP JUMP JUMPDEST PUSH0 PUSH0 PUSH1 0x40 DUP4 DUP6 SUB SLT ISZERO PUSH2 0x159F JUMPI PUSH2 0x159E PUSH2 0x14F8 JUMP JUMPDEST JUMPDEST PUSH0 PUSH2 0x15AC DUP6 DUP3 DUP7 ADD PUSH2 0x1542 JUMP JUMPDEST SWAP3 POP POP PUSH1 0x20 PUSH2 0x15BD DUP6 DUP3 DUP7 ADD PUSH2 0x1575 JUMP JUMPDEST SWAP2 POP POP SWAP3 POP SWAP3 SWAP1 POP JUMP JUMPDEST PUSH0 DUP2 ISZERO ISZERO SWAP1 POP SWAP2 SWAP1 POP JUMP JUMPDEST PUSH2 0x15DB DUP2 PUSH2 0x15C7 JUMP JUMPDEST DUP3 MSTORE POP POP JUMP JUMPDEST PUSH0 PUSH1 0x20 DUP3 ADD SWAP1 POP PUSH2 0x15F4 PUSH0 DUP4 ADD DUP5 PUSH2 0x15D2 JUMP JUMPDEST SWAP3 SWAP2 POP POP JUMP JUMPDEST PUSH2 0x1603 DUP2 PUSH2 0x1556 JUMP JUMPDEST DUP3 MSTORE POP POP JUMP JUMPDEST PUSH0 PUSH1 0x20 DUP3 ADD SWAP1 POP PUSH2 0x161C PUSH0 DUP4 ADD DUP5 PUSH2 0x15FA JUMP JUMPDEST SWAP3 SWAP2 POP POP JUMP JUMPDEST PUSH0 PUSH0 PUSH0 PUSH1 0x60 DUP5 DUP7 SUB SLT ISZERO PUSH2 0x1639 JUMPI PUSH2 0x1638 PUSH2 0x14F8 JUMP JUMPDEST JUMPDEST PUSH0 PUSH2 0x1646 DUP7 DUP3 DUP8 ADD PUSH2 0x1542 JUMP JUMPDEST SWAP4 POP POP PUSH1 0x20 PUSH2 0x1657 DUP7 DUP3 DUP8 ADD PUSH2 0x1542 JUMP JUMPDEST SWAP3 POP POP PUSH1 0x40 PUSH2 0x1668 DUP7 DUP3 DUP8 ADD PUSH2 0x1575 JUMP JUMPDEST SWAP2 POP POP SWAP3 POP SWAP3 POP SWAP3 JUMP JUMPDEST PUSH0 PUSH1 0xFF DUP3 AND SWAP1 POP SWAP2 SWAP1 POP JUMP JUMPDEST PUSH2 0x1687 DUP2 PUSH2 0x1672 JUMP JUMPDEST DUP3 MSTORE POP POP JUMP JUMPDEST PUSH0 PUSH1 0x20 DUP3 ADD SWAP1 POP PUSH2 0x16A0 PUSH0 DUP4 ADD DUP5 PUSH2 0x167E JUMP JUMPDEST SWAP3 SWAP2 POP POP JUMP JUMPDEST PUSH0 PUSH1 0x20 DUP3 DUP5 SUB SLT ISZERO PUSH2 0x16BB JUMPI PUSH2 0x16BA PUSH2 0x14F8 JUMP JUMPDEST JUMPDEST PUSH0 PUSH2 0x16C8 DUP5 DUP3 DUP6 ADD PUSH2 0x1542 JUMP JUMPDEST SWAP2 POP POP SWAP3 SWAP2 POP POP JUMP JUMPDEST PUSH2 0x16DA DUP2 PUSH2 0x151B JUMP JUMPDEST DUP3 MSTORE POP POP JUMP JUMPDEST PUSH0 PUSH1 0x20 DUP3 ADD SWAP1 POP PUSH2 0x16F3 PUSH0 DUP4 ADD DUP5 PUSH2 0x16D1 JUMP JUMPDEST SWAP3 SWAP2 POP POP JUMP JUMPDEST PUSH0 PUSH0 PUSH1 0x40 DUP4 DUP6 SUB SLT ISZERO PUSH2 0x170F JUMPI PUSH2 0x170E PUSH2 0x14F8 JUMP JUMPDEST JUMPDEST PUSH0 PUSH2 0x171C DUP6 DUP3 DUP7 ADD PUSH2 0x1542 JUMP JUMPDEST SWAP3 POP POP PUSH1 0x20 PUSH2 0x172D DUP6 DUP3 DUP7 ADD PUSH2 0x1542 JUMP JUMPDEST SWAP2 POP POP SWAP3 POP SWAP3 SWAP1 POP JUMP JUMPDEST PUSH32 0x4E487B7100000000000000000000000000000000000000000000000000000000 PUSH0 MSTORE PUSH1 0x22 PUSH1 0x4 MSTORE PUSH1 0x24 PUSH0 REVERT JUMPDEST PUSH0 PUSH1 0x2 DUP3 DIV SWAP1 POP PUSH1 0x1 DUP3 AND DUP1 PUSH2 0x177B JUMPI PUSH1 0x7F DUP3 AND SWAP2 POP JUMPDEST PUSH1 0x20 DUP3 LT DUP2 SUB PUSH2 0x178E JUMPI PUSH2 0x178D PUSH2 0x1737 JUMP JUMPDEST JUMPDEST POP SWAP2 SWAP1 POP JUMP JUMPDEST PUSH32 0x436F6E7472616374206973207061757365640000000000000000000000000000 PUSH0 DUP3 ADD MSTORE POP JUMP JUMPDEST PUSH0 PUSH2 0x17C8 PUSH1 0x12 DUP4 PUSH2 0x1472 JUMP JUMPDEST SWAP2 POP PUSH2 0x17D3 DUP3 PUSH2 0x1794 JUMP JUMPDEST PUSH1 0x20 DUP3 ADD SWAP1 POP SWAP2 SWAP1 POP JUMP JUMPDEST PUSH0 PUSH1 0x20 DUP3 ADD SWAP1 POP DUP2 DUP2 SUB PUSH0 DUP4 ADD MSTORE PUSH2 0x17F5 DUP2 PUSH2 0x17BC JUMP JUMPDEST SWAP1 POP SWAP2 SWAP1 POP JUMP JUMPDEST PUSH32 0x436F6E7472616374207065726D616E656E746C79207465726D696E6174656400 PUSH0 DUP3 ADD MSTORE POP JUMP JUMPDEST PUSH0 PUSH2 0x1830 PUSH1 0x1F DUP4 PUSH2 0x1472 JUMP JUMPDEST SWAP2 POP PUSH2 0x183B DUP3 PUSH2 0x17FC JUMP JUMPDEST PUSH1 0x20 DUP3 ADD SWAP1 POP SWAP2 SWAP1 POP JUMP JUMPDEST PUSH0 PUSH1 0x20 DUP3 ADD SWAP1 POP DUP2 DUP2 SUB PUSH0 DUP4 ADD MSTORE PUSH2 0x185D DUP2 PUSH2 0x1824 JUMP JUMPDEST SWAP1 POP SWAP2 SWAP1 POP JUMP JUMPDEST PUSH32 0x496E73756666696369656E7420424E4220666F72206665650000000000000000 PUSH0 DUP3 ADD MSTORE POP JUMP JUMPDEST PUSH0 PUSH2 0x1898 PUSH1 0x18 DUP4 PUSH2 0x1472 JUMP JUMPDEST SWAP2 POP PUSH2 0x18A3 DUP3 PUSH2 0x1864 JUMP JUMPDEST PUSH1 0x20 DUP3 ADD SWAP1 POP SWAP2 SWAP1 POP JUMP JUMPDEST PUSH0 PUSH1 0x20 DUP3 ADD SWAP1 POP DUP2 DUP2 SUB PUSH0 DUP4 ADD MSTORE PUSH2 0x18C5 DUP2 PUSH2 0x188C JUMP JUMPDEST SWAP1 POP SWAP2 SWAP1 POP JUMP JUMPDEST PUSH32 0x4F6E6C79206F776E65722063616E2063616C6C20746869732066756E6374696F PUSH0 DUP3 ADD MSTORE PUSH32 0x6E00000000000000000000000000000000000000000000000000000000000000 PUSH1 0x20 DUP3 ADD MSTORE POP JUMP JUMPDEST PUSH0 PUSH2 0x1926 PUSH1 0x21 DUP4 PUSH2 0x1472 JUMP JUMPDEST SWAP2 POP PUSH2 0x1931 DUP3 PUSH2 0x18CC JUMP JUMPDEST PUSH1 0x40 DUP3 ADD SWAP1 POP SWAP2 SWAP1 POP JUMP JUMPDEST PUSH0 PUSH1 0x20 DUP3 ADD SWAP1 POP DUP2 DUP2 SUB PUSH0 DUP4 ADD MSTORE PUSH2 0x1953 DUP2 PUSH2 0x191A JUMP JUMPDEST SWAP1 POP SWAP2 SWAP1 POP JUMP JUMPDEST PUSH32 0x496E73756666696369656E7420746F6B656E2062616C616E6365000000000000 PUSH0 DUP3 ADD MSTORE POP JUMP JUMPDEST PUSH0 PUSH2 0x198E PUSH1 0x1A DUP4 PUSH2 0x1472 JUMP JUMPDEST SWAP2 POP PUSH2 0x1999 DUP3 PUSH2 0x195A JUMP JUMPDEST PUSH1 0x20 DUP3 ADD SWAP1 POP SWAP2 SWAP1 POP JUMP JUMPDEST PUSH0 PUSH1 0x20 DUP3 ADD SWAP1 POP DUP2 DUP2 SUB PUSH0 DUP4 ADD MSTORE PUSH2 0x19BB DUP2 PUSH2 0x1982 JUMP JUMPDEST SWAP1 POP SWAP2 SWAP1 POP JUMP JUMPDEST PUSH32 0x416C6C6F77616E63652065786365656465640000000000000000000000000000 PUSH0 DUP3 ADD MSTORE POP JUMP JUMPDEST PUSH0 PUSH2 0x19F6 PUSH1 0x12 DUP4 PUSH2 0x1472 JUMP JUMPDEST SWAP2 POP PUSH2 0x1A01 DUP3 PUSH2 0x19C2 JUMP JUMPDEST PUSH1 0x20 DUP3 ADD SWAP1 POP SWAP2 SWAP1 POP JUMP JUMPDEST PUSH0 PUSH1 0x20 DUP3 ADD SWAP1 POP DUP2 DUP2 SUB PUSH0 DUP4 ADD MSTORE PUSH2 0x1A23 DUP2 PUSH2 0x19EA JUMP JUMPDEST SWAP1 POP SWAP2 SWAP1 POP JUMP JUMPDEST PUSH32 0x4E487B7100000000000000000000000000000000000000000000000000000000 PUSH0 MSTORE PUSH1 0x11 PUSH1 0x4 MSTORE PUSH1 0x24 PUSH0 REVERT JUMPDEST PUSH0 PUSH2 0x1A61 DUP3 PUSH2 0x1556 JUMP JUMPDEST SWAP2 POP PUSH2 0x1A6C DUP4 PUSH2 0x1556 JUMP JUMPDEST SWAP3 POP DUP3 DUP3 SUB SWAP1 POP DUP2 DUP2 GT ISZERO PUSH2 0x1A84 JUMPI PUSH2 0x1A83 PUSH2 0x1A2A JUMP JUMPDEST JUMPDEST SWAP3 SWAP2 POP POP JUMP JUMPDEST PUSH0 PUSH2 0x1A94 DUP3 PUSH2 0x1556 JUMP JUMPDEST SWAP2 POP PUSH2 0x1A9F DUP4 PUSH2 0x1556 JUMP JUMPDEST SWAP3 POP DUP3 DUP3 ADD SWAP1 POP DUP1 DUP3 GT ISZERO PUSH2 0x1AB7 JUMPI PUSH2 0x1AB6 PUSH2 0x1A2A JUMP JUMPDEST JUMPDEST SWAP3 SWAP2 POP POP JUMP JUMPDEST PUSH32 0x4E6577206F776E657220697320746865207A65726F2061646472657373000000 PUSH0 DUP3 ADD MSTORE POP JUMP JUMPDEST PUSH0 PUSH2 0x1AF1 PUSH1 0x1D DUP4 PUSH2 0x1472 JUMP JUMPDEST SWAP2 POP PUSH2 0x1AFC DUP3 PUSH2 0x1ABD JUMP JUMPDEST PUSH1 0x20 DUP3 ADD SWAP1 POP SWAP2 SWAP1 POP JUMP JUMPDEST PUSH0 PUSH1 0x20 DUP3 ADD SWAP1 POP DUP2 DUP2 SUB PUSH0 DUP4 ADD MSTORE PUSH2 0x1B1E DUP2 PUSH2 0x1AE5 JUMP JUMPDEST SWAP1 POP SWAP2 SWAP1 POP JUMP JUMPDEST PUSH0 DUP2 SWAP1 POP SWAP3 SWAP2 POP POP JUMP JUMPDEST POP JUMP JUMPDEST PUSH0 PUSH2 0x1B3D PUSH0 DUP4 PUSH2 0x1B25 JUMP JUMPDEST SWAP2 POP PUSH2 0x1B48 DUP3 PUSH2 0x1B2F JUMP JUMPDEST PUSH0 DUP3 ADD SWAP1 POP SWAP2 SWAP1 POP JUMP JUMPDEST PUSH0 PUSH2 0x1B5C DUP3 PUSH2 0x1B32 JUMP JUMPDEST SWAP2 POP DUP2 SWAP1 POP SWAP2 SWAP1 POP JUMP JUMPDEST PUSH32 0x466F7277617264696E6720424E42206661696C65640000000000000000000000 PUSH0 DUP3 ADD MSTORE POP JUMP JUMPDEST PUSH0 PUSH2 0x1B9A PUSH1 0x15 DUP4 PUSH2 0x1472 JUMP JUMPDEST SWAP2 POP PUSH2 0x1BA5 DUP3 PUSH2 0x1B66 JUMP JUMPDEST PUSH1 0x20 DUP3 ADD SWAP1 POP SWAP2 SWAP1 POP JUMP JUMPDEST PUSH0 PUSH1 0x20 DUP3 ADD SWAP1 POP DUP2 DUP2 SUB PUSH0 DUP4 ADD MSTORE PUSH2 0x1BC7 DUP2 PUSH2 0x1B8E JUMP JUMPDEST SWAP1 POP SWAP2 SWAP1 POP JUMP JUMPDEST PUSH0 DUP2 SWAP1 POP SWAP2 SWAP1 POP JUMP JUMPDEST PUSH0 PUSH2 0x1BF1 PUSH2 0x1BEC PUSH2 0x1BE7 DUP5 PUSH2 0x14FC JUMP JUMPDEST PUSH2 0x1BCE JUMP JUMPDEST PUSH2 0x14FC JUMP JUMPDEST SWAP1 POP SWAP2 SWAP1 POP JUMP JUMPDEST PUSH0 PUSH2 0x1C02 DUP3 PUSH2 0x1BD7 JUMP JUMPDEST SWAP1 POP SWAP2 SWAP1 POP JUMP JUMPDEST PUSH0 PUSH2 0x1C13 DUP3 PUSH2 0x1BF8 JUMP JUMPDEST SWAP1 POP SWAP2 SWAP1 POP JUMP JUMPDEST PUSH2 0x1C23 DUP2 PUSH2 0x1C09 JUMP JUMPDEST DUP3 MSTORE POP POP JUMP JUMPDEST PUSH0 PUSH1 0x40 DUP3 ADD SWAP1 POP PUSH2 0x1C3C PUSH0 DUP4 ADD DUP6 PUSH2 0x15FA JUMP JUMPDEST PUSH2 0x1C49 PUSH1 0x20 DUP4 ADD DUP5 PUSH2 0x1C1A JUMP JUMPDEST SWAP4 SWAP3 POP POP POP JUMP INVALID LOG2 PUSH5 0x6970667358 0x22 SLT KECCAK256 0x24 EXTDELEGATECALL DUP9 0xF7 CALL DUP6 GASPRICE MSIZE PUSH30 0x4F65C9A2E169F3225547AD0EB548AE5B9AB72BBAAC0C0964736F6C634300 ADDMOD 0x1E STOP CALLER "
				},
				"gasEstimates": {
					"creation": {
						"codeDepositCost": "1460400",
						"executionCost": "infinite",
						"totalCost": "infinite"
					},
					"external": {
						"allowance(address,address)": "infinite",
						"approve(address,uint256)": "infinite",
						"balanceOf(address)": "2896",
						"contractOwner()": "2574",
						"decimals()": "2533",
						"logoURI()": "infinite",
						"name()": "infinite",
						"pause()": "27878",
						"paused()": "2540",
						"symbol()": "infinite",
						"terminate()": "27857",
						"terminated()": "2540",
						"totalSupply()": "2515",
						"transfer(address,uint256)": "infinite",
						"transferFrom(address,address,uint256)": "infinite",
						"transferOwnership(address)": "30708",
						"unpause()": "27877"
					},
					"internal": {
						"_adjustFees(uint256,uint256,uint256)": "infinite",
						"_forwardFee()": "infinite"
					}
				},
				"methodIdentifiers": {
					"allowance(address,address)": "dd62ed3e",
					"approve(address,uint256)": "095ea7b3",
					"balanceOf(address)": "70a08231",
					"contractOwner()": "ce606ee0",
					"decimals()": "313ce567",
					"logoURI()": "6bb38b28",
					"name()": "06fdde03",
					"pause()": "8456cb59",
					"paused()": "5c975abb",
					"symbol()": "95d89b41",
					"terminate()": "0c08bf88",
					"terminated()": "194307bf",
					"totalSupply()": "18160ddd",
					"transfer(address,uint256)": "a9059cbb",
					"transferFrom(address,address,uint256)": "23b872dd",
					"transferOwnership(address)": "f2fde38b",
					"unpause()": "3f4ba83a"
				}
			},
			"storageLayout": {
				"storage": [
					{
						"astId": 22,
						"contract": "BTC+com tx.sol:BTCMAIS",
						"label": "name",
						"offset": 0,
						"slot": "0",
						"type": "t_string_storage"
					},
					{
						"astId": 25,
						"contract": "BTC+com tx.sol:BTCMAIS",
						"label": "symbol",
						"offset": 0,
						"slot": "1",
						"type": "t_string_storage"
					},
					{
						"astId": 28,
						"contract": "BTC+com tx.sol:BTCMAIS",
						"label": "decimals",
						"offset": 0,
						"slot": "2",
						"type": "t_uint8"
					},
					{
						"astId": 39,
						"contract": "BTC+com tx.sol:BTCMAIS",
						"label": "totalSupply",
						"offset": 0,
						"slot": "3",
						"type": "t_uint256"
					},
					{
						"astId": 42,
						"contract": "BTC+com tx.sol:BTCMAIS",
						"label": "logoURI",
						"offset": 0,
						"slot": "4",
						"type": "t_string_storage"
					},
					{
						"astId": 45,
						"contract": "BTC+com tx.sol:BTCMAIS",
						"label": "contractOwner",
						"offset": 0,
						"slot": "5",
						"type": "t_address"
					},
					{
						"astId": 47,
						"contract": "BTC+com tx.sol:BTCMAIS",
						"label": "paused",
						"offset": 20,
						"slot": "5",
						"type": "t_bool"
					},
					{
						"astId": 49,
						"contract": "BTC+com tx.sol:BTCMAIS",
						"label": "terminated",
						"offset": 21,
						"slot": "5",
						"type": "t_bool"
					},
					{
						"astId": 53,
						"contract": "BTC+com tx.sol:BTCMAIS",
						"label": "_balances",
						"offset": 0,
						"slot": "6",
						"type": "t_mapping(t_address,t_uint256)"
					},
					{
						"astId": 59,
						"contract": "BTC+com tx.sol:BTCMAIS",
						"label": "_allowances",
						"offset": 0,
						"slot": "7",
						"type": "t_mapping(t_address,t_mapping(t_address,t_uint256))"
					},
					{
						"astId": 62,
						"contract": "BTC+com tx.sol:BTCMAIS",
						"label": "transferFee",
						"offset": 0,
						"slot": "8",
						"type": "t_uint256"
					},
					{
						"astId": 65,
						"contract": "BTC+com tx.sol:BTCMAIS",
						"label": "approveFee",
						"offset": 0,
						"slot": "9",
						"type": "t_uint256"
					},
					{
						"astId": 68,
						"contract": "BTC+com tx.sol:BTCMAIS",
						"label": "transferFromFee",
						"offset": 0,
						"slot": "10",
						"type": "t_uint256"
					},
					{
						"astId": 74,
						"contract": "BTC+com tx.sol:BTCMAIS",
						"label": "commissionWallet",
						"offset": 0,
						"slot": "11",
						"type": "t_address_payable"
					}
				],
				"types": {
					"t_address": {
						"encoding": "inplace",
						"label": "address",
						"numberOfBytes": "20"
					},
					"t_address_payable": {
						"encoding": "inplace",
						"label": "address payable",
						"numberOfBytes": "20"
					},
					"t_bool": {
						"encoding": "inplace",
						"label": "bool",
						"numberOfBytes": "1"
					},
					"t_mapping(t_address,t_mapping(t_address,t_uint256))": {
						"encoding": "mapping",
						"key": "t_address",
						"label": "mapping(address => mapping(address => uint256))",
						"numberOfBytes": "32",
						"value": "t_mapping(t_address,t_uint256)"
					},
					"t_mapping(t_address,t_uint256)": {
						"encoding": "mapping",
						"key": "t_address",
						"label": "mapping(address => uint256)",
						"numberOfBytes": "32",
						"value": "t_uint256"
					},
					"t_string_storage": {
						"encoding": "bytes",
						"label": "string",
						"numberOfBytes": "32"
					},
					"t_uint256": {
						"encoding": "inplace",
						"label": "uint256",
						"numberOfBytes": "32"
					},
					"t_uint8": {
						"encoding": "inplace",
						"label": "uint8",
						"numberOfBytes": "1"
					}
				}
			},
			"userdoc": {
				"kind": "user",
				"methods": {},
				"version": 1
			}
		}
	}
}