{
	"YK Prime - Test.sol": {
		"WKTOKENTST": {
			"abi": [
				{
					"inputs": [],
					"stateMutability": "nonpayable",
					"type": "constructor"
				},
				{
					"anonymous": false,
					"inputs": [
						{
							"indexed": true,
							"internalType": "address",
							"name": "owner",
							"type": "address"
						},
						{
							"indexed": true,
							"internalType": "address",
							"name": "spender",
							"type": "address"
						},
						{
							"indexed": false,
							"internalType": "uint256",
							"name": "value",
							"type": "uint256"
						}
					],
					"name": "Approval",
					"type": "event"
				},
				{
					"anonymous": false,
					"inputs": [
						{
							"indexed": false,
							"internalType": "string",
							"name": "message",
							"type": "string"
						},
						{
							"indexed": false,
							"internalType": "address",
							"name": "addr",
							"type": "address"
						},
						{
							"indexed": false,
							"internalType": "uint256",
							"name": "amount",
							"type": "uint256"
						}
					],
					"name": "DebugLog",
					"type": "event"
				},
				{
					"anonymous": false,
					"inputs": [
						{
							"indexed": true,
							"internalType": "address",
							"name": "from",
							"type": "address"
						},
						{
							"indexed": false,
							"internalType": "uint256",
							"name": "feeAmountBNB",
							"type": "uint256"
						}
					],
					"name": "FeeCharged",
					"type": "event"
				},
				{
					"anonymous": false,
					"inputs": [
						{
							"indexed": false,
							"internalType": "address",
							"name": "newRecipient",
							"type": "address"
						}
					],
					"name": "FeeRecipientChanged",
					"type": "event"
				},
				{
					"anonymous": false,
					"inputs": [
						{
							"indexed": false,
							"internalType": "string",
							"name": "newLogoURI",
							"type": "string"
						}
					],
					"name": "LogoURIChanged",
					"type": "event"
				},
				{
					"anonymous": false,
					"inputs": [
						{
							"indexed": true,
							"internalType": "address",
							"name": "previousOwner",
							"type": "address"
						},
						{
							"indexed": true,
							"internalType": "address",
							"name": "newOwner",
							"type": "address"
						}
					],
					"name": "OwnershipTransferred",
					"type": "event"
				},
				{
					"anonymous": false,
					"inputs": [
						{
							"indexed": true,
							"internalType": "address",
							"name": "account",
							"type": "address"
						}
					],
					"name": "Paused",
					"type": "event"
				},
				{
					"anonymous": false,
					"inputs": [
						{
							"indexed": true,
							"internalType": "address",
							"name": "account",
							"type": "address"
						}
					],
					"name": "Terminated",
					"type": "event"
				},
				{
					"anonymous": false,
					"inputs": [
						{
							"indexed": false,
							"internalType": "uint256",
							"name": "newFeeAmount",
							"type": "uint256"
						}
					],
					"name": "TransactionFeeChanged",
					"type": "event"
				},
				{
					"anonymous": false,
					"inputs": [
						{
							"indexed": true,
							"internalType": "address",
							"name": "from",
							"type": "address"
						},
						{
							"indexed": true,
							"internalType": "address",
							"name": "to",
							"type": "address"
						},
						{
							"indexed": false,
							"internalType": "uint256",
							"name": "value",
							"type": "uint256"
						}
					],
					"name": "Transfer",
					"type": "event"
				},
				{
					"anonymous": false,
					"inputs": [
						{
							"indexed": true,
							"internalType": "address",
							"name": "account",
							"type": "address"
						}
					],
					"name": "Unpaused",
					"type": "event"
				},
				{
					"inputs": [
						{
							"internalType": "address",
							"name": "owner",
							"type": "address"
						},
						{
							"internalType": "address",
							"name": "spender",
							"type": "address"
						}
					],
					"name": "allowance",
					"outputs": [
						{
							"internalType": "uint256",
							"name": "",
							"type": "uint256"
						}
					],
					"stateMutability": "view",
					"type": "function"
				},
				{
					"inputs": [
						{
							"internalType": "address",
							"name": "spender",
							"type": "address"
						},
						{
							"internalType": "uint256",
							"name": "amount",
							"type": "uint256"
						}
					],
					"name": "approve",
					"outputs": [
						{
							"internalType": "bool",
							"name": "",
							"type": "bool"
						}
					],
					"stateMutability": "nonpayable",
					"type": "function"
				},
				{
					"inputs": [
						{
							"internalType": "address",
							"name": "account",
							"type": "address"
						}
					],
					"name": "balanceOf",
					"outputs": [
						{
							"internalType": "uint256",
							"name": "",
							"type": "uint256"
						}
					],
					"stateMutability": "view",
					"type": "function"
				},
				{
					"inputs": [],
					"name": "contractOwner",
					"outputs": [
						{
							"internalType": "address",
							"name": "",
							"type": "address"
						}
					],
					"stateMutability": "view",
					"type": "function"
				},
				{
					"inputs": [],
					"name": "decimals",
					"outputs": [
						{
							"internalType": "uint8",
							"name": "",
							"type": "uint8"
						}
					],
					"stateMutability": "view",
					"type": "function"
				},
				{
					"inputs": [],
					"name": "feeRecipient",
					"outputs": [
						{
							"internalType": "address",
							"name": "",
							"type": "address"
						}
					],
					"stateMutability": "view",
					"type": "function"
				},
				{
					"inputs": [],
					"name": "logoURI",
					"outputs": [
						{
							"internalType": "string",
							"name": "",
							"type": "string"
						}
					],
					"stateMutability": "view",
					"type": "function"
				},
				{
					"inputs": [],
					"name": "name",
					"outputs": [
						{
							"internalType": "string",
							"name": "",
							"type": "string"
						}
					],
					"stateMutability": "view",
					"type": "function"
				},
				{
					"inputs": [],
					"name": "pause",
					"outputs": [],
					"stateMutability": "nonpayable",
					"type": "function"
				},
				{
					"inputs": [],
					"name": "paused",
					"outputs": [
						{
							"internalType": "bool",
							"name": "",
							"type": "bool"
						}
					],
					"stateMutability": "view",
					"type": "function"
				},
				{
					"inputs": [
						{
							"internalType": "address",
							"name": "newRecipient",
							"type": "address"
						}
					],
					"name": "setFeeRecipient",
					"outputs": [],
					"stateMutability": "nonpayable",
					"type": "function"
				},
				{
					"inputs": [
						{
							"internalType": "string",
							"name": "newLogoURI",
							"type": "string"
						}
					],
					"name": "setLogoURI",
					"outputs": [],
					"stateMutability": "nonpayable",
					"type": "function"
				},
				{
					"inputs": [
						{
							"internalType": "uint256",
							"name": "newFeeAmount",
							"type": "uint256"
						}
					],
					"name": "setTransactionFeePercent",
					"outputs": [],
					"stateMutability": "nonpayable",
					"type": "function"
				},
				{
					"inputs": [],
					"name": "symbol",
					"outputs": [
						{
							"internalType": "string",
							"name": "",
							"type": "string"
						}
					],
					"stateMutability": "view",
					"type": "function"
				},
				{
					"inputs": [],
					"name": "terminate",
					"outputs": [],
					"stateMutability": "nonpayable",
					"type": "function"
				},
				{
					"inputs": [],
					"name": "terminated",
					"outputs": [
						{
							"internalType": "bool",
							"name": "",
							"type": "bool"
						}
					],
					"stateMutability": "view",
					"type": "function"
				},
				{
					"inputs": [],
					"name": "totalSupply",
					"outputs": [
						{
							"internalType": "uint256",
							"name": "",
							"type": "uint256"
						}
					],
					"stateMutability": "view",
					"type": "function"
				},
				{
					"inputs": [],
					"name": "transactionFeePercent",
					"outputs": [
						{
							"internalType": "uint256",
							"name": "",
							"type": "uint256"
						}
					],
					"stateMutability": "view",
					"type": "function"
				},
				{
					"inputs": [
						{
							"internalType": "address",
							"name": "recipient",
							"type": "address"
						},
						{
							"internalType": "uint256",
							"name": "amount",
							"type": "uint256"
						}
					],
					"name": "transfer",
					"outputs": [
						{
							"internalType": "bool",
							"name": "",
							"type": "bool"
						}
					],
					"stateMutability": "payable",
					"type": "function"
				},
				{
					"inputs": [
						{
							"internalType": "address",
							"name": "sender",
							"type": "address"
						},
						{
							"internalType": "address",
							"name": "recipient",
							"type": "address"
						},
						{
							"internalType": "uint256",
							"name": "amount",
							"type": "uint256"
						}
					],
					"name": "transferFrom",
					"outputs": [
						{
							"internalType": "bool",
							"name": "",
							"type": "bool"
						}
					],
					"stateMutability": "payable",
					"type": "function"
				},
				{
					"inputs": [
						{
							"internalType": "address",
							"name": "newOwner",
							"type": "address"
						}
					],
					"name": "transferOwnership",
					"outputs": [],
					"stateMutability": "nonpayable",
					"type": "function"
				},
				{
					"inputs": [],
					"name": "unpause",
					"outputs": [],
					"stateMutability": "nonpayable",
					"type": "function"
				},
				{
					"stateMutability": "payable",
					"type": "receive"
				}
			],
			"devdoc": {
				"kind": "dev",
				"methods": {},
				"version": 1
			},
			"evm": {
				"assembly": "    /* \"YK Prime - Test.sol\":639:9594  contract WKTOKENTST {... */\n  mstore(0x40, 0x80)\n    /* \"YK Prime - Test.sol\":1011:1012  0 */\n  0x00\n    /* \"YK Prime - Test.sol\":972:1012  uint256 public transactionFeePercent = 0 */\n  0x00\n  sstore\n    /* \"YK Prime - Test.sol\":1088:1130  0xB4a045aF12A74e5BEb8Ff763f474B943cc2Cfa0a */\n  0xb4a045af12a74e5beb8ff763f474b943cc2cfa0a\n    /* \"YK Prime - Test.sol\":1058:1130  address public feeRecipient = 0xB4a045aF12A74e5BEb8Ff763f474B943cc2Cfa0a */\n  0x01\n  exp(0x0100, 0x00)\n  dup2\n  sload\n  dup2\n  0xffffffffffffffffffffffffffffffffffffffff\n  mul\n  not\n  and\n  swap1\n  dup4\n  0xffffffffffffffffffffffffffffffffffffffff\n  and\n  mul\n  or\n  swap1\n  sstore\n  pop\n    /* \"YK Prime - Test.sol\":3191:3474  constructor() {... */\n  callvalue\n  dup1\n  iszero\n  tag_1\n  jumpi\n  revert(0x00, 0x00)\ntag_1:\n  pop\n    /* \"YK Prime - Test.sol\":475:517  0x0b81337F18767565D2eA40913799317A25DC4bc5 */\n  0x0b81337f18767565d2ea40913799317a25dc4bc5\n    /* \"YK Prime - Test.sol\":3216:3229  contractOwner */\n  0x03\n  0x00\n    /* \"YK Prime - Test.sol\":3216:3243  contractOwner = TOKEN_OWNER */\n  0x0100\n  exp\n  dup2\n  sload\n  dup2\n  0xffffffffffffffffffffffffffffffffffffffff\n  mul\n  not\n  and\n  swap1\n  dup4\n  0xffffffffffffffffffffffffffffffffffffffff\n  and\n  mul\n  or\n  swap1\n  sstore\n  pop\n    /* \"YK Prime - Test.sol\":3264:3278  TOKEN_LOGO_URI */\n  mload(0x40)\n  dup1\n  0x20\n  add\n  0x40\n  mstore\n  dup1\n  0x00\n  dup2\n  mstore\n  pop\n    /* \"YK Prime - Test.sol\":3254:3261  logoURI */\n  0x02\n    /* \"YK Prime - Test.sol\":3254:3278  logoURI = TOKEN_LOGO_URI */\n  swap1\n  dup2\n  tag_4\n  swap2\n  swap1\n  tag_5\n  jump\t// in\ntag_4:\n  pop\n    /* \"YK Prime - Test.sol\":394:395  4 */\n  0x04\n    /* \"YK Prime - Test.sol\":1495:1512  uint256(decimals) */\n  0xff\n  and\n    /* \"YK Prime - Test.sol\":1489:1491  10 */\n  0x0a\n    /* \"YK Prime - Test.sol\":1489:1512  10 ** uint256(decimals) */\n  tag_6\n  swap2\n  swap1\n  tag_7\n  jump\t// in\ntag_6:\n    /* \"YK Prime - Test.sol\":430:441  50000000000 */\n  0x0ba43b7400\n    /* \"YK Prime - Test.sol\":1473:1513  TOKEN_SUPPLY * (10 ** uint256(decimals)) */\n  tag_8\n  swap2\n  swap1\n  tag_9\n  jump\t// in\ntag_8:\n    /* \"YK Prime - Test.sol\":3289:3298  _balances */\n  0x04\n    /* \"YK Prime - Test.sol\":3289:3313  _balances[contractOwner] */\n  0x00\n    /* \"YK Prime - Test.sol\":3299:3312  contractOwner */\n  0x03\n  0x00\n  swap1\n  sload\n  swap1\n  0x0100\n  exp\n  swap1\n  div\n  0xffffffffffffffffffffffffffffffffffffffff\n  and\n    /* \"YK Prime - Test.sol\":3289:3313  _balances[contractOwner] */\n  0xffffffffffffffffffffffffffffffffffffffff\n  and\n  0xffffffffffffffffffffffffffffffffffffffff\n  and\n  dup2\n  mstore\n  0x20\n  add\n  swap1\n  dup2\n  mstore\n  0x20\n  add\n  0x00\n  keccak256\n    /* \"YK Prime - Test.sol\":3289:3327  _balances[contractOwner] = totalSupply */\n  dup2\n  swap1\n  sstore\n  pop\n    /* \"YK Prime - Test.sol\":3366:3379  contractOwner */\n  0x03\n  0x00\n  swap1\n  sload\n  swap1\n  0x0100\n  exp\n  swap1\n  div\n  0xffffffffffffffffffffffffffffffffffffffff\n  and\n    /* \"YK Prime - Test.sol\":3343:3393  Transfer(address(0x0), contractOwner, totalSupply) */\n  0xffffffffffffffffffffffffffffffffffffffff\n  and\n    /* \"YK Prime - Test.sol\":3360:3363  0x0 */\n  0x00\n    /* \"YK Prime - Test.sol\":3343:3393  Transfer(address(0x0), contractOwner, totalSupply) */\n  0xffffffffffffffffffffffffffffffffffffffff\n  and\n  0xddf252ad1be2c89b69c2b068fc378daa952ba7f163c4a11628f55a4df523b3ef\n    /* \"YK Prime - Test.sol\":394:395  4 */\n  0x04\n    /* \"YK Prime - Test.sol\":1495:1512  uint256(decimals) */\n  0xff\n  and\n    /* \"YK Prime - Test.sol\":1489:1491  10 */\n  0x0a\n    /* \"YK Prime - Test.sol\":1489:1512  10 ** uint256(decimals) */\n  tag_10\n  swap2\n  swap1\n  tag_7\n  jump\t// in\ntag_10:\n    /* \"YK Prime - Test.sol\":430:441  50000000000 */\n  0x0ba43b7400\n    /* \"YK Prime - Test.sol\":1473:1513  TOKEN_SUPPLY * (10 ** uint256(decimals)) */\n  tag_11\n  swap2\n  swap1\n  tag_9\n  jump\t// in\ntag_11:\n    /* \"YK Prime - Test.sol\":3343:3393  Transfer(address(0x0), contractOwner, totalSupply) */\n  mload(0x40)\n  tag_12\n  swap2\n  swap1\n  tag_13\n  jump\t// in\ntag_12:\n  mload(0x40)\n  dup1\n  swap2\n  sub\n  swap1\n  log3\n    /* \"YK Prime - Test.sol\":3409:3466  DebugLog(\"Contract deployed\", contractOwner, totalSupply) */\n  0xb515f8464a2e9f92f223836cb4d97889b194249a3f5a6bae6b346c6b0ac8fd55\n    /* \"YK Prime - Test.sol\":3439:3452  contractOwner */\n  0x03\n  0x00\n  swap1\n  sload\n  swap1\n  0x0100\n  exp\n  swap1\n  div\n  0xffffffffffffffffffffffffffffffffffffffff\n  and\n    /* \"YK Prime - Test.sol\":394:395  4 */\n  0x04\n    /* \"YK Prime - Test.sol\":1495:1512  uint256(decimals) */\n  0xff\n  and\n    /* \"YK Prime - Test.sol\":1489:1491  10 */\n  0x0a\n    /* \"YK Prime - Test.sol\":1489:1512  10 ** uint256(decimals) */\n  tag_14\n  swap2\n  swap1\n  tag_7\n  jump\t// in\ntag_14:\n    /* \"YK Prime - Test.sol\":430:441  50000000000 */\n  0x0ba43b7400\n    /* \"YK Prime - Test.sol\":1473:1513  TOKEN_SUPPLY * (10 ** uint256(decimals)) */\n  tag_15\n  swap2\n  swap1\n  tag_9\n  jump\t// in\ntag_15:\n    /* \"YK Prime - Test.sol\":3409:3466  DebugLog(\"Contract deployed\", contractOwner, totalSupply) */\n  mload(0x40)\n  tag_16\n  swap3\n  swap2\n  swap1\n  tag_17\n  jump\t// in\ntag_16:\n  mload(0x40)\n  dup1\n  swap2\n  sub\n  swap1\n  log1\n    /* \"YK Prime - Test.sol\":639:9594  contract WKTOKENTST {... */\n  jump(tag_18)\n    /* \"#utility.yul\":7:106   */\ntag_19:\n    /* \"#utility.yul\":59:65   */\n  0x00\n    /* \"#utility.yul\":93:98   */\n  dup2\n    /* \"#utility.yul\":87:99   */\n  mload\n    /* \"#utility.yul\":77:99   */\n  swap1\n  pop\n    /* \"#utility.yul\":7:106   */\n  swap2\n  swap1\n  pop\n  jump\t// out\n    /* \"#utility.yul\":112:292   */\ntag_20:\n    /* \"#utility.yul\":160:237   */\n  0x4e487b7100000000000000000000000000000000000000000000000000000000\n    /* \"#utility.yul\":157:158   */\n  0x00\n    /* \"#utility.yul\":150:238   */\n  mstore\n    /* \"#utility.yul\":257:261   */\n  0x41\n    /* \"#utility.yul\":254:255   */\n  0x04\n    /* \"#utility.yul\":247:262   */\n  mstore\n    /* \"#utility.yul\":281:285   */\n  0x24\n    /* \"#utility.yul\":278:279   */\n  0x00\n    /* \"#utility.yul\":271:286   */\n  revert\n    /* \"#utility.yul\":298:478   */\ntag_21:\n    /* \"#utility.yul\":346:423   */\n  0x4e487b7100000000000000000000000000000000000000000000000000000000\n    /* \"#utility.yul\":343:344   */\n  0x00\n    /* \"#utility.yul\":336:424   */\n  mstore\n    /* \"#utility.yul\":443:447   */\n  0x22\n    /* \"#utility.yul\":440:441   */\n  0x04\n    /* \"#utility.yul\":433:448   */\n  mstore\n    /* \"#utility.yul\":467:471   */\n  0x24\n    /* \"#utility.yul\":464:465   */\n  0x00\n    /* \"#utility.yul\":457:472   */\n  revert\n    /* \"#utility.yul\":484:804   */\ntag_22:\n    /* \"#utility.yul\":528:534   */\n  0x00\n    /* \"#utility.yul\":565:566   */\n  0x02\n    /* \"#utility.yul\":559:563   */\n  dup3\n    /* \"#utility.yul\":555:567   */\n  div\n    /* \"#utility.yul\":545:567   */\n  swap1\n  pop\n    /* \"#utility.yul\":612:613   */\n  0x01\n    /* \"#utility.yul\":606:610   */\n  dup3\n    /* \"#utility.yul\":602:614   */\n  and\n    /* \"#utility.yul\":633:651   */\n  dup1\n    /* \"#utility.yul\":623:704   */\n  tag_55\n  jumpi\n    /* \"#utility.yul\":689:693   */\n  0x7f\n    /* \"#utility.yul\":681:687   */\n  dup3\n    /* \"#utility.yul\":677:694   */\n  and\n    /* \"#utility.yul\":667:694   */\n  swap2\n  pop\n    /* \"#utility.yul\":623:704   */\ntag_55:\n    /* \"#utility.yul\":751:753   */\n  0x20\n    /* \"#utility.yul\":743:749   */\n  dup3\n    /* \"#utility.yul\":740:754   */\n  lt\n    /* \"#utility.yul\":720:738   */\n  dup2\n    /* \"#utility.yul\":717:755   */\n  sub\n    /* \"#utility.yul\":714:798   */\n  tag_56\n  jumpi\n    /* \"#utility.yul\":770:788   */\n  tag_57\n  tag_21\n  jump\t// in\ntag_57:\n    /* \"#utility.yul\":714:798   */\ntag_56:\n    /* \"#utility.yul\":535:804   */\n  pop\n    /* \"#utility.yul\":484:804   */\n  swap2\n  swap1\n  pop\n  jump\t// out\n    /* \"#utility.yul\":810:951   */\ntag_23:\n    /* \"#utility.yul\":859:863   */\n  0x00\n    /* \"#utility.yul\":882:885   */\n  dup2\n    /* \"#utility.yul\":874:885   */\n  swap1\n  pop\n    /* \"#utility.yul\":905:908   */\n  dup2\n    /* \"#utility.yul\":902:903   */\n  0x00\n    /* \"#utility.yul\":895:909   */\n  mstore\n    /* \"#utility.yul\":939:943   */\n  0x20\n    /* \"#utility.yul\":936:937   */\n  0x00\n    /* \"#utility.yul\":926:944   */\n  keccak256\n    /* \"#utility.yul\":918:944   */\n  swap1\n  pop\n    /* \"#utility.yul\":810:951   */\n  swap2\n  swap1\n  pop\n  jump\t// out\n    /* \"#utility.yul\":957:1050   */\ntag_24:\n    /* \"#utility.yul\":994:1000   */\n  0x00\n    /* \"#utility.yul\":1041:1043   */\n  0x20\n    /* \"#utility.yul\":1036:1038   */\n  0x1f\n    /* \"#utility.yul\":1029:1034   */\n  dup4\n    /* \"#utility.yul\":1025:1039   */\n  add\n    /* \"#utility.yul\":1021:1044   */\n  div\n    /* \"#utility.yul\":1011:1044   */\n  swap1\n  pop\n    /* \"#utility.yul\":957:1050   */\n  swap2\n  swap1\n  pop\n  jump\t// out\n    /* \"#utility.yul\":1056:1163   */\ntag_25:\n    /* \"#utility.yul\":1100:1108   */\n  0x00\n    /* \"#utility.yul\":1150:1155   */\n  dup3\n    /* \"#utility.yul\":1144:1148   */\n  dup3\n    /* \"#utility.yul\":1140:1156   */\n  shl\n    /* \"#utility.yul\":1119:1156   */\n  swap1\n  pop\n    /* \"#utility.yul\":1056:1163   */\n  swap3\n  swap2\n  pop\n  pop\n  jump\t// out\n    /* \"#utility.yul\":1169:1562   */\ntag_26:\n    /* \"#utility.yul\":1238:1244   */\n  0x00\n    /* \"#utility.yul\":1288:1289   */\n  0x08\n    /* \"#utility.yul\":1276:1286   */\n  dup4\n    /* \"#utility.yul\":1272:1290   */\n  mul\n    /* \"#utility.yul\":1311:1408   */\n  tag_62\n    /* \"#utility.yul\":1341:1407   */\n  0xffffffffffffffffffffffffffffffffffffffffffffffffffffffffffffffff\n    /* \"#utility.yul\":1330:1339   */\n  dup3\n    /* \"#utility.yul\":1311:1408   */\n  tag_25\n  jump\t// in\ntag_62:\n    /* \"#utility.yul\":1429:1468   */\n  tag_63\n    /* \"#utility.yul\":1459:1467   */\n  dup7\n    /* \"#utility.yul\":1448:1457   */\n  dup4\n    /* \"#utility.yul\":1429:1468   */\n  tag_25\n  jump\t// in\ntag_63:\n    /* \"#utility.yul\":1417:1468   */\n  swap6\n  pop\n    /* \"#utility.yul\":1501:1505   */\n  dup1\n    /* \"#utility.yul\":1497:1506   */\n  not\n    /* \"#utility.yul\":1490:1495   */\n  dup5\n    /* \"#utility.yul\":1486:1507   */\n  and\n    /* \"#utility.yul\":1477:1507   */\n  swap4\n  pop\n    /* \"#utility.yul\":1550:1554   */\n  dup1\n    /* \"#utility.yul\":1540:1548   */\n  dup7\n    /* \"#utility.yul\":1536:1555   */\n  and\n    /* \"#utility.yul\":1529:1534   */\n  dup5\n    /* \"#utility.yul\":1526:1556   */\n  or\n    /* \"#utility.yul\":1516:1556   */\n  swap3\n  pop\n    /* \"#utility.yul\":1245:1562   */\n  pop\n  pop\n    /* \"#utility.yul\":1169:1562   */\n  swap4\n  swap3\n  pop\n  pop\n  pop\n  jump\t// out\n    /* \"#utility.yul\":1568:1645   */\ntag_27:\n    /* \"#utility.yul\":1605:1612   */\n  0x00\n    /* \"#utility.yul\":1634:1639   */\n  dup2\n    /* \"#utility.yul\":1623:1639   */\n  swap1\n  pop\n    /* \"#utility.yul\":1568:1645   */\n  swap2\n  swap1\n  pop\n  jump\t// out\n    /* \"#utility.yul\":1651:1711   */\ntag_28:\n    /* \"#utility.yul\":1679:1682   */\n  0x00\n    /* \"#utility.yul\":1700:1705   */\n  dup2\n    /* \"#utility.yul\":1693:1705   */\n  swap1\n  pop\n    /* \"#utility.yul\":1651:1711   */\n  swap2\n  swap1\n  pop\n  jump\t// out\n    /* \"#utility.yul\":1717:1859   */\ntag_29:\n    /* \"#utility.yul\":1767:1776   */\n  0x00\n    /* \"#utility.yul\":1800:1853   */\n  tag_67\n    /* \"#utility.yul\":1818:1852   */\n  tag_68\n    /* \"#utility.yul\":1827:1851   */\n  tag_69\n    /* \"#utility.yul\":1845:1850   */\n  dup5\n    /* \"#utility.yul\":1827:1851   */\n  tag_27\n  jump\t// in\ntag_69:\n    /* \"#utility.yul\":1818:1852   */\n  tag_28\n  jump\t// in\ntag_68:\n    /* \"#utility.yul\":1800:1853   */\n  tag_27\n  jump\t// in\ntag_67:\n    /* \"#utility.yul\":1787:1853   */\n  swap1\n  pop\n    /* \"#utility.yul\":1717:1859   */\n  swap2\n  swap1\n  pop\n  jump\t// out\n    /* \"#utility.yul\":1865:1940   */\ntag_30:\n    /* \"#utility.yul\":1908:1911   */\n  0x00\n    /* \"#utility.yul\":1929:1934   */\n  dup2\n    /* \"#utility.yul\":1922:1934   */\n  swap1\n  pop\n    /* \"#utility.yul\":1865:1940   */\n  swap2\n  swap1\n  pop\n  jump\t// out\n    /* \"#utility.yul\":1946:2215   */\ntag_31:\n    /* \"#utility.yul\":2056:2095   */\n  tag_72\n    /* \"#utility.yul\":2087:2094   */\n  dup4\n    /* \"#utility.yul\":2056:2095   */\n  tag_29\n  jump\t// in\ntag_72:\n    /* \"#utility.yul\":2117:2208   */\n  tag_73\n    /* \"#utility.yul\":2166:2207   */\n  tag_74\n    /* \"#utility.yul\":2190:2206   */\n  dup3\n    /* \"#utility.yul\":2166:2207   */\n  tag_30\n  jump\t// in\ntag_74:\n    /* \"#utility.yul\":2158:2164   */\n  dup5\n    /* \"#utility.yul\":2151:2155   */\n  dup5\n    /* \"#utility.yul\":2145:2156   */\n  sload\n    /* \"#utility.yul\":2117:2208   */\n  tag_26\n  jump\t// in\ntag_73:\n    /* \"#utility.yul\":2111:2115   */\n  dup3\n    /* \"#utility.yul\":2104:2209   */\n  sstore\n    /* \"#utility.yul\":2022:2215   */\n  pop\n    /* \"#utility.yul\":1946:2215   */\n  pop\n  pop\n  pop\n  jump\t// out\n    /* \"#utility.yul\":2221:2294   */\ntag_32:\n    /* \"#utility.yul\":2266:2269   */\n  0x00\n    /* \"#utility.yul\":2287:2288   */\n  0x00\n    /* \"#utility.yul\":2280:2288   */\n  swap1\n  pop\n    /* \"#utility.yul\":2221:2294   */\n  swap1\n  jump\t// out\n    /* \"#utility.yul\":2300:2489   */\ntag_33:\n    /* \"#utility.yul\":2377:2409   */\n  tag_77\n  tag_32\n  jump\t// in\ntag_77:\n    /* \"#utility.yul\":2418:2483   */\n  tag_78\n    /* \"#utility.yul\":2476:2482   */\n  dup2\n    /* \"#utility.yul\":2468:2474   */\n  dup5\n    /* \"#utility.yul\":2462:2466   */\n  dup5\n    /* \"#utility.yul\":2418:2483   */\n  tag_31\n  jump\t// in\ntag_78:\n    /* \"#utility.yul\":2353:2489   */\n  pop\n    /* \"#utility.yul\":2300:2489   */\n  pop\n  pop\n  jump\t// out\n    /* \"#utility.yul\":2495:2681   */\ntag_34:\n    /* \"#utility.yul\":2555:2675   */\ntag_80:\n    /* \"#utility.yul\":2572:2575   */\n  dup2\n    /* \"#utility.yul\":2565:2570   */\n  dup2\n    /* \"#utility.yul\":2562:2576   */\n  lt\n    /* \"#utility.yul\":2555:2675   */\n  iszero\n  tag_82\n  jumpi\n    /* \"#utility.yul\":2626:2665   */\n  tag_83\n    /* \"#utility.yul\":2663:2664   */\n  0x00\n    /* \"#utility.yul\":2656:2661   */\n  dup3\n    /* \"#utility.yul\":2626:2665   */\n  tag_33\n  jump\t// in\ntag_83:\n    /* \"#utility.yul\":2599:2600   */\n  0x01\n    /* \"#utility.yul\":2592:2597   */\n  dup2\n    /* \"#utility.yul\":2588:2601   */\n  add\n    /* \"#utility.yul\":2579:2601   */\n  swap1\n  pop\n    /* \"#utility.yul\":2555:2675   */\n  jump(tag_80)\ntag_82:\n    /* \"#utility.yul\":2495:2681   */\n  pop\n  pop\n  jump\t// out\n    /* \"#utility.yul\":2687:3230   */\ntag_35:\n    /* \"#utility.yul\":2788:2790   */\n  0x1f\n    /* \"#utility.yul\":2783:2786   */\n  dup3\n    /* \"#utility.yul\":2780:2791   */\n  gt\n    /* \"#utility.yul\":2777:3223   */\n  iszero\n  tag_85\n  jumpi\n    /* \"#utility.yul\":2822:2860   */\n  tag_86\n    /* \"#utility.yul\":2854:2859   */\n  dup2\n    /* \"#utility.yul\":2822:2860   */\n  tag_23\n  jump\t// in\ntag_86:\n    /* \"#utility.yul\":2906:2935   */\n  tag_87\n    /* \"#utility.yul\":2924:2934   */\n  dup5\n    /* \"#utility.yul\":2906:2935   */\n  tag_24\n  jump\t// in\ntag_87:\n    /* \"#utility.yul\":2896:2904   */\n  dup2\n    /* \"#utility.yul\":2892:2936   */\n  add\n    /* \"#utility.yul\":3089:3091   */\n  0x20\n    /* \"#utility.yul\":3077:3087   */\n  dup6\n    /* \"#utility.yul\":3074:3092   */\n  lt\n    /* \"#utility.yul\":3071:3120   */\n  iszero\n  tag_88\n  jumpi\n    /* \"#utility.yul\":3110:3118   */\n  dup2\n    /* \"#utility.yul\":3095:3118   */\n  swap1\n  pop\n    /* \"#utility.yul\":3071:3120   */\ntag_88:\n    /* \"#utility.yul\":3133:3213   */\n  tag_89\n    /* \"#utility.yul\":3189:3211   */\n  tag_90\n    /* \"#utility.yul\":3207:3210   */\n  dup6\n    /* \"#utility.yul\":3189:3211   */\n  tag_24\n  jump\t// in\ntag_90:\n    /* \"#utility.yul\":3179:3187   */\n  dup4\n    /* \"#utility.yul\":3175:3212   */\n  add\n    /* \"#utility.yul\":3162:3173   */\n  dup3\n    /* \"#utility.yul\":3133:3213   */\n  tag_34\n  jump\t// in\ntag_89:\n    /* \"#utility.yul\":2792:3223   */\n  pop\n  pop\n    /* \"#utility.yul\":2777:3223   */\ntag_85:\n    /* \"#utility.yul\":2687:3230   */\n  pop\n  pop\n  pop\n  jump\t// out\n    /* \"#utility.yul\":3236:3353   */\ntag_36:\n    /* \"#utility.yul\":3290:3298   */\n  0x00\n    /* \"#utility.yul\":3340:3345   */\n  dup3\n    /* \"#utility.yul\":3334:3338   */\n  dup3\n    /* \"#utility.yul\":3330:3346   */\n  shr\n    /* \"#utility.yul\":3309:3346   */\n  swap1\n  pop\n    /* \"#utility.yul\":3236:3353   */\n  swap3\n  swap2\n  pop\n  pop\n  jump\t// out\n    /* \"#utility.yul\":3359:3528   */\ntag_37:\n    /* \"#utility.yul\":3403:3409   */\n  0x00\n    /* \"#utility.yul\":3436:3487   */\n  tag_93\n    /* \"#utility.yul\":3484:3485   */\n  0x00\n    /* \"#utility.yul\":3480:3486   */\n  not\n    /* \"#utility.yul\":3472:3477   */\n  dup5\n    /* \"#utility.yul\":3469:3470   */\n  0x08\n    /* \"#utility.yul\":3465:3478   */\n  mul\n    /* \"#utility.yul\":3436:3487   */\n  tag_36\n  jump\t// in\ntag_93:\n    /* \"#utility.yul\":3432:3488   */\n  not\n    /* \"#utility.yul\":3517:3521   */\n  dup1\n    /* \"#utility.yul\":3511:3515   */\n  dup4\n    /* \"#utility.yul\":3507:3522   */\n  and\n    /* \"#utility.yul\":3497:3522   */\n  swap2\n  pop\n    /* \"#utility.yul\":3410:3528   */\n  pop\n    /* \"#utility.yul\":3359:3528   */\n  swap3\n  swap2\n  pop\n  pop\n  jump\t// out\n    /* \"#utility.yul\":3533:3828   */\ntag_38:\n    /* \"#utility.yul\":3609:3613   */\n  0x00\n    /* \"#utility.yul\":3755:3784   */\n  tag_95\n    /* \"#utility.yul\":3780:3783   */\n  dup4\n    /* \"#utility.yul\":3774:3778   */\n  dup4\n    /* \"#utility.yul\":3755:3784   */\n  tag_37\n  jump\t// in\ntag_95:\n    /* \"#utility.yul\":3747:3784   */\n  swap2\n  pop\n    /* \"#utility.yul\":3817:3820   */\n  dup3\n    /* \"#utility.yul\":3814:3815   */\n  0x02\n    /* \"#utility.yul\":3810:3821   */\n  mul\n    /* \"#utility.yul\":3804:3808   */\n  dup3\n    /* \"#utility.yul\":3801:3822   */\n  or\n    /* \"#utility.yul\":3793:3822   */\n  swap1\n  pop\n    /* \"#utility.yul\":3533:3828   */\n  swap3\n  swap2\n  pop\n  pop\n  jump\t// out\n    /* \"#utility.yul\":3833:5228   */\ntag_5:\n    /* \"#utility.yul\":3950:3987   */\n  tag_97\n    /* \"#utility.yul\":3983:3986   */\n  dup3\n    /* \"#utility.yul\":3950:3987   */\n  tag_19\n  jump\t// in\ntag_97:\n    /* \"#utility.yul\":4052:4070   */\n  0xffffffffffffffff\n    /* \"#utility.yul\":4044:4050   */\n  dup2\n    /* \"#utility.yul\":4041:4071   */\n  gt\n    /* \"#utility.yul\":4038:4094   */\n  iszero\n  tag_98\n  jumpi\n    /* \"#utility.yul\":4074:4092   */\n  tag_99\n  tag_20\n  jump\t// in\ntag_99:\n    /* \"#utility.yul\":4038:4094   */\ntag_98:\n    /* \"#utility.yul\":4118:4156   */\n  tag_100\n    /* \"#utility.yul\":4150:4154   */\n  dup3\n    /* \"#utility.yul\":4144:4155   */\n  sload\n    /* \"#utility.yul\":4118:4156   */\n  tag_22\n  jump\t// in\ntag_100:\n    /* \"#utility.yul\":4203:4270   */\n  tag_101\n    /* \"#utility.yul\":4263:4269   */\n  dup3\n    /* \"#utility.yul\":4255:4261   */\n  dup3\n    /* \"#utility.yul\":4249:4253   */\n  dup6\n    /* \"#utility.yul\":4203:4270   */\n  tag_35\n  jump\t// in\ntag_101:\n    /* \"#utility.yul\":4297:4298   */\n  0x00\n    /* \"#utility.yul\":4321:4325   */\n  0x20\n    /* \"#utility.yul\":4308:4325   */\n  swap1\n  pop\n    /* \"#utility.yul\":4353:4355   */\n  0x1f\n    /* \"#utility.yul\":4345:4351   */\n  dup4\n    /* \"#utility.yul\":4342:4356   */\n  gt\n    /* \"#utility.yul\":4370:4371   */\n  0x01\n    /* \"#utility.yul\":4365:4983   */\n  dup2\n  eq\n  tag_103\n  jumpi\n    /* \"#utility.yul\":5027:5028   */\n  0x00\n    /* \"#utility.yul\":5044:5050   */\n  dup5\n    /* \"#utility.yul\":5041:5118   */\n  iszero\n  tag_104\n  jumpi\n    /* \"#utility.yul\":5093:5102   */\n  dup3\n    /* \"#utility.yul\":5088:5091   */\n  dup8\n    /* \"#utility.yul\":5084:5103   */\n  add\n    /* \"#utility.yul\":5078:5104   */\n  mload\n    /* \"#utility.yul\":5069:5104   */\n  swap1\n  pop\n    /* \"#utility.yul\":5041:5118   */\ntag_104:\n    /* \"#utility.yul\":5144:5211   */\n  tag_105\n    /* \"#utility.yul\":5204:5210   */\n  dup6\n    /* \"#utility.yul\":5197:5202   */\n  dup3\n    /* \"#utility.yul\":5144:5211   */\n  tag_38\n  jump\t// in\ntag_105:\n    /* \"#utility.yul\":5138:5142   */\n  dup7\n    /* \"#utility.yul\":5131:5212   */\n  sstore\n    /* \"#utility.yul\":5000:5222   */\n  pop\n    /* \"#utility.yul\":4335:5222   */\n  jump(tag_102)\n    /* \"#utility.yul\":4365:4983   */\ntag_103:\n    /* \"#utility.yul\":4417:4421   */\n  0x1f\n    /* \"#utility.yul\":4413:4422   */\n  not\n    /* \"#utility.yul\":4405:4411   */\n  dup5\n    /* \"#utility.yul\":4401:4423   */\n  and\n    /* \"#utility.yul\":4451:4488   */\n  tag_106\n    /* \"#utility.yul\":4483:4487   */\n  dup7\n    /* \"#utility.yul\":4451:4488   */\n  tag_23\n  jump\t// in\ntag_106:\n    /* \"#utility.yul\":4510:4511   */\n  0x00\n    /* \"#utility.yul\":4524:4732   */\ntag_107:\n    /* \"#utility.yul\":4538:4545   */\n  dup3\n    /* \"#utility.yul\":4535:4536   */\n  dup2\n    /* \"#utility.yul\":4532:4546   */\n  lt\n    /* \"#utility.yul\":4524:4732   */\n  iszero\n  tag_109\n  jumpi\n    /* \"#utility.yul\":4617:4626   */\n  dup5\n    /* \"#utility.yul\":4612:4615   */\n  dup10\n    /* \"#utility.yul\":4608:4627   */\n  add\n    /* \"#utility.yul\":4602:4628   */\n  mload\n    /* \"#utility.yul\":4594:4600   */\n  dup3\n    /* \"#utility.yul\":4587:4629   */\n  sstore\n    /* \"#utility.yul\":4668:4669   */\n  0x01\n    /* \"#utility.yul\":4660:4666   */\n  dup3\n    /* \"#utility.yul\":4656:4670   */\n  add\n    /* \"#utility.yul\":4646:4670   */\n  swap2\n  pop\n    /* \"#utility.yul\":4715:4717   */\n  0x20\n    /* \"#utility.yul\":4704:4713   */\n  dup6\n    /* \"#utility.yul\":4700:4718   */\n  add\n    /* \"#utility.yul\":4687:4718   */\n  swap5\n  pop\n    /* \"#utility.yul\":4561:4565   */\n  0x20\n    /* \"#utility.yul\":4558:4559   */\n  dup2\n    /* \"#utility.yul\":4554:4566   */\n  add\n    /* \"#utility.yul\":4549:4566   */\n  swap1\n  pop\n    /* \"#utility.yul\":4524:4732   */\n  jump(tag_107)\ntag_109:\n    /* \"#utility.yul\":4760:4766   */\n  dup7\n    /* \"#utility.yul\":4751:4758   */\n  dup4\n    /* \"#utility.yul\":4748:4767   */\n  lt\n    /* \"#utility.yul\":4745:4924   */\n  iszero\n  tag_110\n  jumpi\n    /* \"#utility.yul\":4818:4827   */\n  dup5\n    /* \"#utility.yul\":4813:4816   */\n  dup10\n    /* \"#utility.yul\":4809:4828   */\n  add\n    /* \"#utility.yul\":4803:4829   */\n  mload\n    /* \"#utility.yul\":4861:4909   */\n  tag_111\n    /* \"#utility.yul\":4903:4907   */\n  0x1f\n    /* \"#utility.yul\":4895:4901   */\n  dup10\n    /* \"#utility.yul\":4891:4908   */\n  and\n    /* \"#utility.yul\":4880:4889   */\n  dup3\n    /* \"#utility.yul\":4861:4909   */\n  tag_37\n  jump\t// in\ntag_111:\n    /* \"#utility.yul\":4853:4859   */\n  dup4\n    /* \"#utility.yul\":4846:4910   */\n  sstore\n    /* \"#utility.yul\":4768:4924   */\n  pop\n    /* \"#utility.yul\":4745:4924   */\ntag_110:\n    /* \"#utility.yul\":4970:4971   */\n  0x01\n    /* \"#utility.yul\":4966:4967   */\n  0x02\n    /* \"#utility.yul\":4958:4964   */\n  dup9\n    /* \"#utility.yul\":4954:4968   */\n  mul\n    /* \"#utility.yul\":4950:4972   */\n  add\n    /* \"#utility.yul\":4944:4948   */\n  dup9\n    /* \"#utility.yul\":4937:4973   */\n  sstore\n    /* \"#utility.yul\":4372:4983   */\n  pop\n  pop\n  pop\n    /* \"#utility.yul\":4335:5222   */\ntag_102:\n  pop\n    /* \"#utility.yul\":3925:5228   */\n  pop\n  pop\n  pop\n    /* \"#utility.yul\":3833:5228   */\n  pop\n  pop\n  jump\t// out\n    /* \"#utility.yul\":5234:5414   */\ntag_39:\n    /* \"#utility.yul\":5282:5359   */\n  0x4e487b7100000000000000000000000000000000000000000000000000000000\n    /* \"#utility.yul\":5279:5280   */\n  0x00\n    /* \"#utility.yul\":5272:5360   */\n  mstore\n    /* \"#utility.yul\":5379:5383   */\n  0x11\n    /* \"#utility.yul\":5376:5377   */\n  0x04\n    /* \"#utility.yul\":5369:5384   */\n  mstore\n    /* \"#utility.yul\":5403:5407   */\n  0x24\n    /* \"#utility.yul\":5400:5401   */\n  0x00\n    /* \"#utility.yul\":5393:5408   */\n  revert\n    /* \"#utility.yul\":5420:5522   */\ntag_40:\n    /* \"#utility.yul\":5462:5470   */\n  0x00\n    /* \"#utility.yul\":5509:5514   */\n  dup2\n    /* \"#utility.yul\":5506:5507   */\n  0x01\n    /* \"#utility.yul\":5502:5515   */\n  shr\n    /* \"#utility.yul\":5481:5515   */\n  swap1\n  pop\n    /* \"#utility.yul\":5420:5522   */\n  swap2\n  swap1\n  pop\n  jump\t// out\n    /* \"#utility.yul\":5528:6376   */\ntag_41:\n    /* \"#utility.yul\":5589:5594   */\n  0x00\n    /* \"#utility.yul\":5596:5600   */\n  0x00\n    /* \"#utility.yul\":5620:5626   */\n  dup3\n    /* \"#utility.yul\":5611:5626   */\n  swap2\n  pop\n    /* \"#utility.yul\":5644:5649   */\n  dup4\n    /* \"#utility.yul\":5635:5649   */\n  swap1\n  pop\n    /* \"#utility.yul\":5658:6370   */\ntag_115:\n    /* \"#utility.yul\":5679:5680   */\n  0x01\n    /* \"#utility.yul\":5669:5677   */\n  dup6\n    /* \"#utility.yul\":5666:5681   */\n  gt\n    /* \"#utility.yul\":5658:6370   */\n  iszero\n  tag_117\n  jumpi\n    /* \"#utility.yul\":5774:5778   */\n  dup1\n    /* \"#utility.yul\":5769:5772   */\n  dup7\n    /* \"#utility.yul\":5765:5779   */\n  div\n    /* \"#utility.yul\":5759:5763   */\n  dup2\n    /* \"#utility.yul\":5756:5780   */\n  gt\n    /* \"#utility.yul\":5753:5803   */\n  iszero\n  tag_118\n  jumpi\n    /* \"#utility.yul\":5783:5801   */\n  tag_119\n  tag_39\n  jump\t// in\ntag_119:\n    /* \"#utility.yul\":5753:5803   */\ntag_118:\n    /* \"#utility.yul\":5833:5834   */\n  0x01\n    /* \"#utility.yul\":5823:5831   */\n  dup6\n    /* \"#utility.yul\":5819:5835   */\n  and\n    /* \"#utility.yul\":5816:6267   */\n  iszero\n  tag_120\n  jumpi\n    /* \"#utility.yul\":6248:6252   */\n  dup1\n    /* \"#utility.yul\":6241:6246   */\n  dup3\n    /* \"#utility.yul\":6237:6253   */\n  mul\n    /* \"#utility.yul\":6228:6253   */\n  swap2\n  pop\n    /* \"#utility.yul\":5816:6267   */\ntag_120:\n    /* \"#utility.yul\":6298:6302   */\n  dup1\n    /* \"#utility.yul\":6292:6296   */\n  dup2\n    /* \"#utility.yul\":6288:6303   */\n  mul\n    /* \"#utility.yul\":6280:6303   */\n  swap1\n  pop\n    /* \"#utility.yul\":6328:6360   */\n  tag_121\n    /* \"#utility.yul\":6351:6359   */\n  dup6\n    /* \"#utility.yul\":6328:6360   */\n  tag_40\n  jump\t// in\ntag_121:\n    /* \"#utility.yul\":6316:6360   */\n  swap5\n  pop\n    /* \"#utility.yul\":5658:6370   */\n  jump(tag_115)\ntag_117:\n    /* \"#utility.yul\":5528:6376   */\n  swap5\n  pop\n  swap5\n  swap3\n  pop\n  pop\n  pop\n  jump\t// out\n    /* \"#utility.yul\":6382:7455   */\ntag_42:\n    /* \"#utility.yul\":6436:6441   */\n  0x00\n    /* \"#utility.yul\":6627:6635   */\n  dup3\n    /* \"#utility.yul\":6617:6657   */\n  tag_123\n  jumpi\n    /* \"#utility.yul\":6648:6649   */\n  0x01\n    /* \"#utility.yul\":6639:6649   */\n  swap1\n  pop\n    /* \"#utility.yul\":6650:6655   */\n  jump(tag_122)\n    /* \"#utility.yul\":6617:6657   */\ntag_123:\n    /* \"#utility.yul\":6676:6680   */\n  dup2\n    /* \"#utility.yul\":6666:6702   */\n  tag_124\n  jumpi\n    /* \"#utility.yul\":6693:6694   */\n  0x00\n    /* \"#utility.yul\":6684:6694   */\n  swap1\n  pop\n    /* \"#utility.yul\":6695:6700   */\n  jump(tag_122)\n    /* \"#utility.yul\":6666:6702   */\ntag_124:\n    /* \"#utility.yul\":6762:6766   */\n  dup2\n    /* \"#utility.yul\":6810:6811   */\n  0x01\n    /* \"#utility.yul\":6805:6832   */\n  dup2\n  eq\n  tag_126\n  jumpi\n    /* \"#utility.yul\":6846:6847   */\n  0x02\n    /* \"#utility.yul\":6841:7032   */\n  dup2\n  eq\n  tag_127\n  jumpi\n    /* \"#utility.yul\":6755:7032   */\n  jump(tag_125)\n    /* \"#utility.yul\":6805:6832   */\ntag_126:\n    /* \"#utility.yul\":6823:6824   */\n  0x01\n    /* \"#utility.yul\":6814:6824   */\n  swap2\n  pop\n    /* \"#utility.yul\":6825:6830   */\n  pop\n  jump(tag_122)\n    /* \"#utility.yul\":6841:7032   */\ntag_127:\n    /* \"#utility.yul\":6886:6889   */\n  0xff\n    /* \"#utility.yul\":6876:6884   */\n  dup5\n    /* \"#utility.yul\":6873:6890   */\n  gt\n    /* \"#utility.yul\":6870:6913   */\n  iszero\n  tag_128\n  jumpi\n    /* \"#utility.yul\":6893:6911   */\n  tag_129\n  tag_39\n  jump\t// in\ntag_129:\n    /* \"#utility.yul\":6870:6913   */\ntag_128:\n    /* \"#utility.yul\":6942:6950   */\n  dup4\n    /* \"#utility.yul\":6939:6940   */\n  0x02\n    /* \"#utility.yul\":6935:6951   */\n  exp\n    /* \"#utility.yul\":6926:6951   */\n  swap2\n  pop\n    /* \"#utility.yul\":6977:6980   */\n  dup5\n    /* \"#utility.yul\":6970:6975   */\n  dup3\n    /* \"#utility.yul\":6967:6981   */\n  gt\n    /* \"#utility.yul\":6964:7004   */\n  iszero\n  tag_130\n  jumpi\n    /* \"#utility.yul\":6984:7002   */\n  tag_131\n  tag_39\n  jump\t// in\ntag_131:\n    /* \"#utility.yul\":6964:7004   */\ntag_130:\n    /* \"#utility.yul\":7017:7022   */\n  pop\n  jump(tag_122)\n    /* \"#utility.yul\":6755:7032   */\ntag_125:\n  pop\n    /* \"#utility.yul\":7141:7143   */\n  0x20\n    /* \"#utility.yul\":7131:7139   */\n  dup4\n    /* \"#utility.yul\":7128:7144   */\n  lt\n    /* \"#utility.yul\":7122:7125   */\n  0x0133\n    /* \"#utility.yul\":7116:7120   */\n  dup4\n    /* \"#utility.yul\":7113:7126   */\n  lt\n    /* \"#utility.yul\":7109:7145   */\n  and\n    /* \"#utility.yul\":7091:7093   */\n  0x4e\n    /* \"#utility.yul\":7081:7089   */\n  dup5\n    /* \"#utility.yul\":7078:7094   */\n  lt\n    /* \"#utility.yul\":7073:7075   */\n  0x0b\n    /* \"#utility.yul\":7067:7071   */\n  dup5\n    /* \"#utility.yul\":7064:7076   */\n  lt\n    /* \"#utility.yul\":7060:7095   */\n  and\n    /* \"#utility.yul\":7044:7155   */\n  or\n    /* \"#utility.yul\":7041:7287   */\n  iszero\n  tag_132\n  jumpi\n    /* \"#utility.yul\":7197:7205   */\n  dup3\n    /* \"#utility.yul\":7191:7195   */\n  dup3\n    /* \"#utility.yul\":7187:7206   */\n  exp\n    /* \"#utility.yul\":7178:7206   */\n  swap1\n  pop\n    /* \"#utility.yul\":7232:7235   */\n  dup4\n    /* \"#utility.yul\":7225:7230   */\n  dup2\n    /* \"#utility.yul\":7222:7236   */\n  gt\n    /* \"#utility.yul\":7219:7259   */\n  iszero\n  tag_133\n  jumpi\n    /* \"#utility.yul\":7239:7257   */\n  tag_134\n  tag_39\n  jump\t// in\ntag_134:\n    /* \"#utility.yul\":7219:7259   */\ntag_133:\n    /* \"#utility.yul\":7272:7277   */\n  jump(tag_122)\n    /* \"#utility.yul\":7041:7287   */\ntag_132:\n    /* \"#utility.yul\":7312:7354   */\n  tag_135\n    /* \"#utility.yul\":7350:7353   */\n  dup5\n    /* \"#utility.yul\":7340:7348   */\n  dup5\n    /* \"#utility.yul\":7334:7338   */\n  dup5\n    /* \"#utility.yul\":7331:7332   */\n  0x01\n    /* \"#utility.yul\":7312:7354   */\n  tag_41\n  jump\t// in\ntag_135:\n    /* \"#utility.yul\":7297:7354   */\n  swap3\n  pop\n  swap1\n  pop\n    /* \"#utility.yul\":7386:7390   */\n  dup2\n    /* \"#utility.yul\":7381:7384   */\n  dup5\n    /* \"#utility.yul\":7377:7391   */\n  div\n    /* \"#utility.yul\":7370:7375   */\n  dup2\n    /* \"#utility.yul\":7367:7392   */\n  gt\n    /* \"#utility.yul\":7364:7415   */\n  iszero\n  tag_136\n  jumpi\n    /* \"#utility.yul\":7395:7413   */\n  tag_137\n  tag_39\n  jump\t// in\ntag_137:\n    /* \"#utility.yul\":7364:7415   */\ntag_136:\n    /* \"#utility.yul\":7444:7448   */\n  dup2\n    /* \"#utility.yul\":7437:7442   */\n  dup2\n    /* \"#utility.yul\":7433:7449   */\n  mul\n    /* \"#utility.yul\":7424:7449   */\n  swap1\n  pop\n    /* \"#utility.yul\":6382:7455   */\ntag_122:\n  swap4\n  swap3\n  pop\n  pop\n  pop\n  jump\t// out\n    /* \"#utility.yul\":7461:7746   */\ntag_7:\n    /* \"#utility.yul\":7521:7526   */\n  0x00\n    /* \"#utility.yul\":7545:7568   */\n  tag_139\n    /* \"#utility.yul\":7563:7567   */\n  dup3\n    /* \"#utility.yul\":7545:7568   */\n  tag_27\n  jump\t// in\ntag_139:\n    /* \"#utility.yul\":7537:7568   */\n  swap2\n  pop\n    /* \"#utility.yul\":7589:7616   */\n  tag_140\n    /* \"#utility.yul\":7607:7615   */\n  dup4\n    /* \"#utility.yul\":7589:7616   */\n  tag_27\n  jump\t// in\ntag_140:\n    /* \"#utility.yul\":7577:7616   */\n  swap3\n  pop\n    /* \"#utility.yul\":7635:7739   */\n  tag_141\n    /* \"#utility.yul\":7672:7738   */\n  0xffffffffffffffffffffffffffffffffffffffffffffffffffffffffffffffff\n    /* \"#utility.yul\":7662:7670   */\n  dup5\n    /* \"#utility.yul\":7656:7660   */\n  dup5\n    /* \"#utility.yul\":7635:7739   */\n  tag_42\n  jump\t// in\ntag_141:\n    /* \"#utility.yul\":7626:7739   */\n  swap1\n  pop\n    /* \"#utility.yul\":7461:7746   */\n  swap3\n  swap2\n  pop\n  pop\n  jump\t// out\n    /* \"#utility.yul\":7752:8162   */\ntag_9:\n    /* \"#utility.yul\":7792:7799   */\n  0x00\n    /* \"#utility.yul\":7815:7835   */\n  tag_143\n    /* \"#utility.yul\":7833:7834   */\n  dup3\n    /* \"#utility.yul\":7815:7835   */\n  tag_27\n  jump\t// in\ntag_143:\n    /* \"#utility.yul\":7810:7835   */\n  swap2\n  pop\n    /* \"#utility.yul\":7849:7869   */\n  tag_144\n    /* \"#utility.yul\":7867:7868   */\n  dup4\n    /* \"#utility.yul\":7849:7869   */\n  tag_27\n  jump\t// in\ntag_144:\n    /* \"#utility.yul\":7844:7869   */\n  swap3\n  pop\n    /* \"#utility.yul\":7904:7905   */\n  dup3\n    /* \"#utility.yul\":7901:7902   */\n  dup3\n    /* \"#utility.yul\":7897:7906   */\n  mul\n    /* \"#utility.yul\":7926:7956   */\n  tag_145\n    /* \"#utility.yul\":7944:7955   */\n  dup2\n    /* \"#utility.yul\":7926:7956   */\n  tag_27\n  jump\t// in\ntag_145:\n    /* \"#utility.yul\":7915:7956   */\n  swap2\n  pop\n    /* \"#utility.yul\":8105:8106   */\n  dup3\n    /* \"#utility.yul\":8096:8103   */\n  dup3\n    /* \"#utility.yul\":8092:8107   */\n  div\n    /* \"#utility.yul\":8089:8090   */\n  dup5\n    /* \"#utility.yul\":8086:8108   */\n  eq\n    /* \"#utility.yul\":8066:8067   */\n  dup4\n    /* \"#utility.yul\":8059:8068   */\n  iszero\n    /* \"#utility.yul\":8039:8122   */\n  or\n    /* \"#utility.yul\":8016:8155   */\n  tag_146\n  jumpi\n    /* \"#utility.yul\":8135:8153   */\n  tag_147\n  tag_39\n  jump\t// in\ntag_147:\n    /* \"#utility.yul\":8016:8155   */\ntag_146:\n    /* \"#utility.yul\":7800:8162   */\n  pop\n    /* \"#utility.yul\":7752:8162   */\n  swap3\n  swap2\n  pop\n  pop\n  jump\t// out\n    /* \"#utility.yul\":8168:8286   */\ntag_43:\n    /* \"#utility.yul\":8255:8279   */\n  tag_149\n    /* \"#utility.yul\":8273:8278   */\n  dup2\n    /* \"#utility.yul\":8255:8279   */\n  tag_27\n  jump\t// in\ntag_149:\n    /* \"#utility.yul\":8250:8253   */\n  dup3\n    /* \"#utility.yul\":8243:8280   */\n  mstore\n    /* \"#utility.yul\":8168:8286   */\n  pop\n  pop\n  jump\t// out\n    /* \"#utility.yul\":8292:8514   */\ntag_13:\n    /* \"#utility.yul\":8385:8389   */\n  0x00\n    /* \"#utility.yul\":8423:8425   */\n  0x20\n    /* \"#utility.yul\":8412:8421   */\n  dup3\n    /* \"#utility.yul\":8408:8426   */\n  add\n    /* \"#utility.yul\":8400:8426   */\n  swap1\n  pop\n    /* \"#utility.yul\":8436:8507   */\n  tag_151\n    /* \"#utility.yul\":8504:8505   */\n  0x00\n    /* \"#utility.yul\":8493:8502   */\n  dup4\n    /* \"#utility.yul\":8489:8506   */\n  add\n    /* \"#utility.yul\":8480:8486   */\n  dup5\n    /* \"#utility.yul\":8436:8507   */\n  tag_43\n  jump\t// in\ntag_151:\n    /* \"#utility.yul\":8292:8514   */\n  swap3\n  swap2\n  pop\n  pop\n  jump\t// out\n    /* \"#utility.yul\":8520:8689   */\ntag_44:\n    /* \"#utility.yul\":8604:8615   */\n  0x00\n    /* \"#utility.yul\":8638:8644   */\n  dup3\n    /* \"#utility.yul\":8633:8636   */\n  dup3\n    /* \"#utility.yul\":8626:8645   */\n  mstore\n    /* \"#utility.yul\":8678:8682   */\n  0x20\n    /* \"#utility.yul\":8673:8676   */\n  dup3\n    /* \"#utility.yul\":8669:8683   */\n  add\n    /* \"#utility.yul\":8654:8683   */\n  swap1\n  pop\n    /* \"#utility.yul\":8520:8689   */\n  swap3\n  swap2\n  pop\n  pop\n  jump\t// out\n    /* \"#utility.yul\":8695:8862   */\ntag_45:\n    /* \"#utility.yul\":8835:8854   */\n  0x436f6e7472616374206465706c6f796564000000000000000000000000000000\n    /* \"#utility.yul\":8831:8832   */\n  0x00\n    /* \"#utility.yul\":8823:8829   */\n  dup3\n    /* \"#utility.yul\":8819:8833   */\n  add\n    /* \"#utility.yul\":8812:8855   */\n  mstore\n    /* \"#utility.yul\":8695:8862   */\n  pop\n  jump\t// out\n    /* \"#utility.yul\":8868:9234   */\ntag_46:\n    /* \"#utility.yul\":9010:9013   */\n  0x00\n    /* \"#utility.yul\":9031:9098   */\n  tag_155\n    /* \"#utility.yul\":9095:9097   */\n  0x11\n    /* \"#utility.yul\":9090:9093   */\n  dup4\n    /* \"#utility.yul\":9031:9098   */\n  tag_44\n  jump\t// in\ntag_155:\n    /* \"#utility.yul\":9024:9098   */\n  swap2\n  pop\n    /* \"#utility.yul\":9107:9200   */\n  tag_156\n    /* \"#utility.yul\":9196:9199   */\n  dup3\n    /* \"#utility.yul\":9107:9200   */\n  tag_45\n  jump\t// in\ntag_156:\n    /* \"#utility.yul\":9225:9227   */\n  0x20\n    /* \"#utility.yul\":9220:9223   */\n  dup3\n    /* \"#utility.yul\":9216:9228   */\n  add\n    /* \"#utility.yul\":9209:9228   */\n  swap1\n  pop\n    /* \"#utility.yul\":8868:9234   */\n  swap2\n  swap1\n  pop\n  jump\t// out\n    /* \"#utility.yul\":9240:9366   */\ntag_47:\n    /* \"#utility.yul\":9277:9284   */\n  0x00\n    /* \"#utility.yul\":9317:9359   */\n  0xffffffffffffffffffffffffffffffffffffffff\n    /* \"#utility.yul\":9310:9315   */\n  dup3\n    /* \"#utility.yul\":9306:9360   */\n  and\n    /* \"#utility.yul\":9295:9360   */\n  swap1\n  pop\n    /* \"#utility.yul\":9240:9366   */\n  swap2\n  swap1\n  pop\n  jump\t// out\n    /* \"#utility.yul\":9372:9468   */\ntag_48:\n    /* \"#utility.yul\":9409:9416   */\n  0x00\n    /* \"#utility.yul\":9438:9462   */\n  tag_159\n    /* \"#utility.yul\":9456:9461   */\n  dup3\n    /* \"#utility.yul\":9438:9462   */\n  tag_47\n  jump\t// in\ntag_159:\n    /* \"#utility.yul\":9427:9462   */\n  swap1\n  pop\n    /* \"#utility.yul\":9372:9468   */\n  swap2\n  swap1\n  pop\n  jump\t// out\n    /* \"#utility.yul\":9474:9592   */\ntag_49:\n    /* \"#utility.yul\":9561:9585   */\n  tag_161\n    /* \"#utility.yul\":9579:9584   */\n  dup2\n    /* \"#utility.yul\":9561:9585   */\n  tag_48\n  jump\t// in\ntag_161:\n    /* \"#utility.yul\":9556:9559   */\n  dup3\n    /* \"#utility.yul\":9549:9586   */\n  mstore\n    /* \"#utility.yul\":9474:9592   */\n  pop\n  pop\n  jump\t// out\n    /* \"#utility.yul\":9598:10237   */\ntag_17:\n    /* \"#utility.yul\":9820:9824   */\n  0x00\n    /* \"#utility.yul\":9858:9860   */\n  0x60\n    /* \"#utility.yul\":9847:9856   */\n  dup3\n    /* \"#utility.yul\":9843:9861   */\n  add\n    /* \"#utility.yul\":9835:9861   */\n  swap1\n  pop\n    /* \"#utility.yul\":9907:9916   */\n  dup2\n    /* \"#utility.yul\":9901:9905   */\n  dup2\n    /* \"#utility.yul\":9897:9917   */\n  sub\n    /* \"#utility.yul\":9893:9894   */\n  0x00\n    /* \"#utility.yul\":9882:9891   */\n  dup4\n    /* \"#utility.yul\":9878:9895   */\n  add\n    /* \"#utility.yul\":9871:9918   */\n  mstore\n    /* \"#utility.yul\":9935:10066   */\n  tag_163\n    /* \"#utility.yul\":10061:10065   */\n  dup2\n    /* \"#utility.yul\":9935:10066   */\n  tag_46\n  jump\t// in\ntag_163:\n    /* \"#utility.yul\":9927:10066   */\n  swap1\n  pop\n    /* \"#utility.yul\":10076:10148   */\n  tag_164\n    /* \"#utility.yul\":10144:10146   */\n  0x20\n    /* \"#utility.yul\":10133:10142   */\n  dup4\n    /* \"#utility.yul\":10129:10147   */\n  add\n    /* \"#utility.yul\":10120:10126   */\n  dup6\n    /* \"#utility.yul\":10076:10148   */\n  tag_49\n  jump\t// in\ntag_164:\n    /* \"#utility.yul\":10158:10230   */\n  tag_165\n    /* \"#utility.yul\":10226:10228   */\n  0x40\n    /* \"#utility.yul\":10215:10224   */\n  dup4\n    /* \"#utility.yul\":10211:10229   */\n  add\n    /* \"#utility.yul\":10202:10208   */\n  dup5\n    /* \"#utility.yul\":10158:10230   */\n  tag_43\n  jump\t// in\ntag_165:\n    /* \"#utility.yul\":9598:10237   */\n  swap4\n  swap3\n  pop\n  pop\n  pop\n  jump\t// out\n    /* \"YK Prime - Test.sol\":639:9594  contract WKTOKENTST {... */\ntag_18:\n  dataSize(sub_0)\n  dup1\n  dataOffset(sub_0)\n  0x00\n  codecopy\n  0x00\n  return\nstop\n\nsub_0: assembly {\n        /* \"YK Prime - Test.sol\":639:9594  contract WKTOKENTST {... */\n      mstore(0x40, 0x80)\n      jumpi(tag_1, lt(calldatasize, 0x04))\n      shr(0xe0, calldataload(0x00))\n      dup1\n      0x6bb38b28\n      gt\n      tag_25\n      jumpi\n      dup1\n      0xc30ff6df\n      gt\n      tag_26\n      jumpi\n      dup1\n      0xc30ff6df\n      eq\n      tag_19\n      jumpi\n      dup1\n      0xce606ee0\n      eq\n      tag_20\n      jumpi\n      dup1\n      0xcebec750\n      eq\n      tag_21\n      jumpi\n      dup1\n      0xdd62ed3e\n      eq\n      tag_22\n      jumpi\n      dup1\n      0xe74b981b\n      eq\n      tag_23\n      jumpi\n      dup1\n      0xf2fde38b\n      eq\n      tag_24\n      jumpi\n      jump(tag_2)\n    tag_26:\n      dup1\n      0x6bb38b28\n      eq\n      tag_14\n      jumpi\n      dup1\n      0x70a08231\n      eq\n      tag_15\n      jumpi\n      dup1\n      0x8456cb59\n      eq\n      tag_16\n      jumpi\n      dup1\n      0x95d89b41\n      eq\n      tag_17\n      jumpi\n      dup1\n      0xa9059cbb\n      eq\n      tag_18\n      jumpi\n      jump(tag_2)\n    tag_25:\n      dup1\n      0x194307bf\n      gt\n      tag_27\n      jumpi\n      dup1\n      0x194307bf\n      eq\n      tag_8\n      jumpi\n      dup1\n      0x23b872dd\n      eq\n      tag_9\n      jumpi\n      dup1\n      0x313ce567\n      eq\n      tag_10\n      jumpi\n      dup1\n      0x3f4ba83a\n      eq\n      tag_11\n      jumpi\n      dup1\n      0x46904840\n      eq\n      tag_12\n      jumpi\n      dup1\n      0x5c975abb\n      eq\n      tag_13\n      jumpi\n      jump(tag_2)\n    tag_27:\n      dup1\n      0x06fdde03\n      eq\n      tag_3\n      jumpi\n      dup1\n      0x095ea7b3\n      eq\n      tag_4\n      jumpi\n      dup1\n      0x0c08bf88\n      eq\n      tag_5\n      jumpi\n      dup1\n      0x0c8f5e00\n      eq\n      tag_6\n      jumpi\n      dup1\n      0x18160ddd\n      eq\n      tag_7\n      jumpi\n      jump(tag_2)\n    tag_1:\n      jumpi(tag_2, calldatasize)\n        /* \"YK Prime - Test.sol\":9204:9286  revert(\"Envie BNB apenas junto com uma transferencia de token para pagar a taxa.\") */\n      mload(0x40)\n      0x08c379a000000000000000000000000000000000000000000000000000000000\n      dup2\n      mstore\n      0x04\n      add\n      tag_30\n      swap1\n      tag_31\n      jump\t// in\n    tag_30:\n      mload(0x40)\n      dup1\n      swap2\n      sub\n      swap1\n      revert\n        /* \"YK Prime - Test.sol\":639:9594  contract WKTOKENTST {... */\n    tag_2:\n      revert(0x00, 0x00)\n        /* \"YK Prime - Test.sol\":1283:1323  string public constant name = TOKEN_NAME */\n    tag_3:\n      callvalue\n      dup1\n      iszero\n      tag_32\n      jumpi\n      revert(0x00, 0x00)\n    tag_32:\n      pop\n      tag_33\n      tag_34\n      jump\t// in\n    tag_33:\n      mload(0x40)\n      tag_35\n      swap2\n      swap1\n      tag_36\n      jump\t// in\n    tag_35:\n      mload(0x40)\n      dup1\n      swap2\n      sub\n      swap1\n      return\n        /* \"YK Prime - Test.sol\":5886:6118  function approve(address spender, uint256 amount) public whenNotPaused whenActive returns (bool) {... */\n    tag_4:\n      callvalue\n      dup1\n      iszero\n      tag_37\n      jumpi\n      revert(0x00, 0x00)\n    tag_37:\n      pop\n      tag_38\n      0x04\n      dup1\n      calldatasize\n      sub\n      dup2\n      add\n      swap1\n      tag_39\n      swap2\n      swap1\n      tag_40\n      jump\t// in\n    tag_39:\n      tag_41\n      jump\t// in\n    tag_38:\n      mload(0x40)\n      tag_42\n      swap2\n      swap1\n      tag_43\n      jump\t// in\n    tag_42:\n      mload(0x40)\n      dup1\n      swap2\n      sub\n      swap1\n      return\n        /* \"YK Prime - Test.sol\":4606:4718  function terminate() public onlyOwner {... */\n    tag_5:\n      callvalue\n      dup1\n      iszero\n      tag_44\n      jumpi\n      revert(0x00, 0x00)\n    tag_44:\n      pop\n      tag_45\n      tag_46\n      jump\t// in\n    tag_45:\n      stop\n        /* \"YK Prime - Test.sol\":972:1012  uint256 public transactionFeePercent = 0 */\n    tag_6:\n      callvalue\n      dup1\n      iszero\n      tag_47\n      jumpi\n      revert(0x00, 0x00)\n    tag_47:\n      pop\n      tag_48\n      tag_49\n      jump\t// in\n    tag_48:\n      mload(0x40)\n      tag_50\n      swap2\n      swap1\n      tag_51\n      jump\t// in\n    tag_50:\n      mload(0x40)\n      dup1\n      swap2\n      sub\n      swap1\n      return\n        /* \"YK Prime - Test.sol\":1435:1513  uint256 public constant totalSupply = TOKEN_SUPPLY * (10 ** uint256(decimals)) */\n    tag_7:\n      callvalue\n      dup1\n      iszero\n      tag_52\n      jumpi\n      revert(0x00, 0x00)\n    tag_52:\n      pop\n      tag_53\n      tag_54\n      jump\t// in\n    tag_53:\n      mload(0x40)\n      tag_55\n      swap2\n      swap1\n      tag_51\n      jump\t// in\n    tag_55:\n      mload(0x40)\n      dup1\n      swap2\n      sub\n      swap1\n      return\n        /* \"YK Prime - Test.sol\":1610:1632  bool public terminated */\n    tag_8:\n      callvalue\n      dup1\n      iszero\n      tag_56\n      jumpi\n      revert(0x00, 0x00)\n    tag_56:\n      pop\n      tag_57\n      tag_58\n      jump\t// in\n    tag_57:\n      mload(0x40)\n      tag_59\n      swap2\n      swap1\n      tag_43\n      jump\t// in\n    tag_59:\n      mload(0x40)\n      dup1\n      swap2\n      sub\n      swap1\n      return\n        /* \"YK Prime - Test.sol\":6126:6899  function transferFrom(address sender, address recipient, uint256 amount) public payable whenNotPaused whenActive returns (bool) {... */\n    tag_9:\n      tag_60\n      0x04\n      dup1\n      calldatasize\n      sub\n      dup2\n      add\n      swap1\n      tag_61\n      swap2\n      swap1\n      tag_62\n      jump\t// in\n    tag_61:\n      tag_63\n      jump\t// in\n    tag_60:\n      mload(0x40)\n      tag_64\n      swap2\n      swap1\n      tag_43\n      jump\t// in\n    tag_64:\n      mload(0x40)\n      dup1\n      swap2\n      sub\n      swap1\n      return\n        /* \"YK Prime - Test.sol\":1381:1428  uint8 public constant decimals = TOKEN_DECIMALS */\n    tag_10:\n      callvalue\n      dup1\n      iszero\n      tag_65\n      jumpi\n      revert(0x00, 0x00)\n    tag_65:\n      pop\n      tag_66\n      tag_67\n      jump\t// in\n    tag_66:\n      mload(0x40)\n      tag_68\n      swap2\n      swap1\n      tag_69\n      jump\t// in\n    tag_68:\n      mload(0x40)\n      dup1\n      swap2\n      sub\n      swap1\n      return\n        /* \"YK Prime - Test.sol\":4493:4598  function unpause() public onlyOwner {... */\n    tag_11:\n      callvalue\n      dup1\n      iszero\n      tag_70\n      jumpi\n      revert(0x00, 0x00)\n    tag_70:\n      pop\n      tag_71\n      tag_72\n      jump\t// in\n    tag_71:\n      stop\n        /* \"YK Prime - Test.sol\":1058:1130  address public feeRecipient = 0xB4a045aF12A74e5BEb8Ff763f474B943cc2Cfa0a */\n    tag_12:\n      callvalue\n      dup1\n      iszero\n      tag_73\n      jumpi\n      revert(0x00, 0x00)\n    tag_73:\n      pop\n      tag_74\n      tag_75\n      jump\t// in\n    tag_74:\n      mload(0x40)\n      tag_76\n      swap2\n      swap1\n      tag_77\n      jump\t// in\n    tag_76:\n      mload(0x40)\n      dup1\n      swap2\n      sub\n      swap1\n      return\n        /* \"YK Prime - Test.sol\":1585:1603  bool public paused */\n    tag_13:\n      callvalue\n      dup1\n      iszero\n      tag_78\n      jumpi\n      revert(0x00, 0x00)\n    tag_78:\n      pop\n      tag_79\n      tag_80\n      jump\t// in\n    tag_79:\n      mload(0x40)\n      tag_81\n      swap2\n      swap1\n      tag_43\n      jump\t// in\n    tag_81:\n      mload(0x40)\n      dup1\n      swap2\n      sub\n      swap1\n      return\n        /* \"YK Prime - Test.sol\":1520:1541  string public logoURI */\n    tag_14:\n      callvalue\n      dup1\n      iszero\n      tag_82\n      jumpi\n      revert(0x00, 0x00)\n    tag_82:\n      pop\n      tag_83\n      tag_84\n      jump\t// in\n    tag_83:\n      mload(0x40)\n      tag_85\n      swap2\n      swap1\n      tag_36\n      jump\t// in\n    tag_85:\n      mload(0x40)\n      dup1\n      swap2\n      sub\n      swap1\n      return\n        /* \"YK Prime - Test.sol\":8779:8889  function balanceOf(address account) public view returns (uint256) {... */\n    tag_15:\n      callvalue\n      dup1\n      iszero\n      tag_86\n      jumpi\n      revert(0x00, 0x00)\n    tag_86:\n      pop\n      tag_87\n      0x04\n      dup1\n      calldatasize\n      sub\n      dup2\n      add\n      swap1\n      tag_88\n      swap2\n      swap1\n      tag_89\n      jump\t// in\n    tag_88:\n      tag_90\n      jump\t// in\n    tag_87:\n      mload(0x40)\n      tag_91\n      swap2\n      swap1\n      tag_51\n      jump\t// in\n    tag_91:\n      mload(0x40)\n      dup1\n      swap2\n      sub\n      swap1\n      return\n        /* \"YK Prime - Test.sol\":4385:4485  function pause() public onlyOwner {... */\n    tag_16:\n      callvalue\n      dup1\n      iszero\n      tag_92\n      jumpi\n      revert(0x00, 0x00)\n    tag_92:\n      pop\n      tag_93\n      tag_94\n      jump\t// in\n    tag_93:\n      stop\n        /* \"YK Prime - Test.sol\":1330:1374  string public constant symbol = TOKEN_SYMBOL */\n    tag_17:\n      callvalue\n      dup1\n      iszero\n      tag_95\n      jumpi\n      revert(0x00, 0x00)\n    tag_95:\n      pop\n      tag_96\n      tag_97\n      jump\t// in\n    tag_96:\n      mload(0x40)\n      tag_98\n      swap2\n      swap1\n      tag_36\n      jump\t// in\n    tag_98:\n      mload(0x40)\n      dup1\n      swap2\n      sub\n      swap1\n      return\n        /* \"YK Prime - Test.sol\":5246:5878  function transfer(address recipient, uint256 amount) public payable whenNotPaused whenActive returns (bool) {... */\n    tag_18:\n      tag_99\n      0x04\n      dup1\n      calldatasize\n      sub\n      dup2\n      add\n      swap1\n      tag_100\n      swap2\n      swap1\n      tag_40\n      jump\t// in\n    tag_100:\n      tag_101\n      jump\t// in\n    tag_99:\n      mload(0x40)\n      tag_102\n      swap2\n      swap1\n      tag_43\n      jump\t// in\n    tag_102:\n      mload(0x40)\n      dup1\n      swap2\n      sub\n      swap1\n      return\n        /* \"YK Prime - Test.sol\":3596:3740  function setLogoURI(string memory newLogoURI) public onlyOwner {... */\n    tag_19:\n      callvalue\n      dup1\n      iszero\n      tag_103\n      jumpi\n      revert(0x00, 0x00)\n    tag_103:\n      pop\n      tag_104\n      0x04\n      dup1\n      calldatasize\n      sub\n      dup2\n      add\n      swap1\n      tag_105\n      swap2\n      swap1\n      tag_106\n      jump\t// in\n    tag_105:\n      tag_107\n      jump\t// in\n    tag_104:\n      stop\n        /* \"YK Prime - Test.sol\":1550:1578  address public contractOwner */\n    tag_20:\n      callvalue\n      dup1\n      iszero\n      tag_108\n      jumpi\n      revert(0x00, 0x00)\n    tag_108:\n      pop\n      tag_109\n      tag_110\n      jump\t// in\n    tag_109:\n      mload(0x40)\n      tag_111\n      swap2\n      swap1\n      tag_77\n      jump\t// in\n    tag_111:\n      mload(0x40)\n      dup1\n      swap2\n      sub\n      swap1\n      return\n        /* \"YK Prime - Test.sol\":4120:4377  function setTransactionFeePercent(uint256 newFeeAmount) public onlyOwner {... */\n    tag_21:\n      callvalue\n      dup1\n      iszero\n      tag_112\n      jumpi\n      revert(0x00, 0x00)\n    tag_112:\n      pop\n      tag_113\n      0x04\n      dup1\n      calldatasize\n      sub\n      dup2\n      add\n      swap1\n      tag_114\n      swap2\n      swap1\n      tag_115\n      jump\t// in\n    tag_114:\n      tag_116\n      jump\t// in\n    tag_113:\n      stop\n        /* \"YK Prime - Test.sol\":8897:9031  function allowance(address owner, address spender) public view returns (uint256) {... */\n    tag_22:\n      callvalue\n      dup1\n      iszero\n      tag_117\n      jumpi\n      revert(0x00, 0x00)\n    tag_117:\n      pop\n      tag_118\n      0x04\n      dup1\n      calldatasize\n      sub\n      dup2\n      add\n      swap1\n      tag_119\n      swap2\n      swap1\n      tag_120\n      jump\t// in\n    tag_119:\n      tag_121\n      jump\t// in\n    tag_118:\n      mload(0x40)\n      tag_122\n      swap2\n      swap1\n      tag_51\n      jump\t// in\n    tag_122:\n      mload(0x40)\n      dup1\n      swap2\n      sub\n      swap1\n      return\n        /* \"YK Prime - Test.sol\":3748:3986  function setFeeRecipient(address newRecipient) public onlyOwner {... */\n    tag_23:\n      callvalue\n      dup1\n      iszero\n      tag_123\n      jumpi\n      revert(0x00, 0x00)\n    tag_123:\n      pop\n      tag_124\n      0x04\n      dup1\n      calldatasize\n      sub\n      dup2\n      add\n      swap1\n      tag_125\n      swap2\n      swap1\n      tag_89\n      jump\t// in\n    tag_125:\n      tag_126\n      jump\t// in\n    tag_124:\n      stop\n        /* \"YK Prime - Test.sol\":4726:4969  function transferOwnership(address newOwner) public onlyOwner {... */\n    tag_24:\n      callvalue\n      dup1\n      iszero\n      tag_127\n      jumpi\n      revert(0x00, 0x00)\n    tag_127:\n      pop\n      tag_128\n      0x04\n      dup1\n      calldatasize\n      sub\n      dup2\n      add\n      swap1\n      tag_129\n      swap2\n      swap1\n      tag_89\n      jump\t// in\n    tag_129:\n      tag_130\n      jump\t// in\n    tag_128:\n      stop\n        /* \"YK Prime - Test.sol\":1283:1323  string public constant name = TOKEN_NAME */\n    tag_34:\n        /* \"YK Prime - Test.sol\":1313:1323  TOKEN_NAME */\n      mload(0x40)\n      dup1\n      0x40\n      add\n      0x40\n      mstore\n      dup1\n      0x0c\n      dup2\n      mstore\n      0x20\n      add\n      0x574b20544f4b454e205453540000000000000000000000000000000000000000\n      dup2\n      mstore\n      pop\n        /* \"YK Prime - Test.sol\":1283:1323  string public constant name = TOKEN_NAME */\n      dup2\n      jump\t// out\n        /* \"YK Prime - Test.sol\":5886:6118  function approve(address spender, uint256 amount) public whenNotPaused whenActive returns (bool) {... */\n    tag_41:\n        /* \"YK Prime - Test.sol\":5977:5981  bool */\n      0x00\n        /* \"YK Prime - Test.sol\":2921:2927  paused */\n      0x03\n      0x14\n      swap1\n      sload\n      swap1\n      0x0100\n      exp\n      swap1\n      div\n      0xff\n      and\n        /* \"YK Prime - Test.sol\":2920:2927  !paused */\n      iszero\n        /* \"YK Prime - Test.sol\":2912:2950  require(!paused, \"Contract is paused\") */\n      tag_132\n      jumpi\n      mload(0x40)\n      0x08c379a000000000000000000000000000000000000000000000000000000000\n      dup2\n      mstore\n      0x04\n      add\n      tag_133\n      swap1\n      tag_134\n      jump\t// in\n    tag_133:\n      mload(0x40)\n      dup1\n      swap2\n      sub\n      swap1\n      revert\n    tag_132:\n        /* \"YK Prime - Test.sol\":3020:3030  terminated */\n      0x03\n      0x15\n      swap1\n      sload\n      swap1\n      0x0100\n      exp\n      swap1\n      div\n      0xff\n      and\n        /* \"YK Prime - Test.sol\":3019:3030  !terminated */\n      iszero\n        /* \"YK Prime - Test.sol\":3011:3066  require(!terminated, \"Contract permanently terminated\") */\n      tag_136\n      jumpi\n      mload(0x40)\n      0x08c379a000000000000000000000000000000000000000000000000000000000\n      dup2\n      mstore\n      0x04\n      add\n      tag_137\n      swap1\n      tag_138\n      jump\t// in\n    tag_137:\n      mload(0x40)\n      dup1\n      swap2\n      sub\n      swap1\n      revert\n    tag_136:\n        /* \"YK Prime - Test.sol\":6029:6035  amount */\n      dup2\n        /* \"YK Prime - Test.sol\":5994:6005  _allowances */\n      0x05\n        /* \"YK Prime - Test.sol\":5994:6017  _allowances[msg.sender] */\n      0x00\n        /* \"YK Prime - Test.sol\":6006:6016  msg.sender */\n      caller\n        /* \"YK Prime - Test.sol\":5994:6017  _allowances[msg.sender] */\n      0xffffffffffffffffffffffffffffffffffffffff\n      and\n      0xffffffffffffffffffffffffffffffffffffffff\n      and\n      dup2\n      mstore\n      0x20\n      add\n      swap1\n      dup2\n      mstore\n      0x20\n      add\n      0x00\n      keccak256\n        /* \"YK Prime - Test.sol\":5994:6026  _allowances[msg.sender][spender] */\n      0x00\n        /* \"YK Prime - Test.sol\":6018:6025  spender */\n      dup6\n        /* \"YK Prime - Test.sol\":5994:6026  _allowances[msg.sender][spender] */\n      0xffffffffffffffffffffffffffffffffffffffff\n      and\n      0xffffffffffffffffffffffffffffffffffffffff\n      and\n      dup2\n      mstore\n      0x20\n      add\n      swap1\n      dup2\n      mstore\n      0x20\n      add\n      0x00\n      keccak256\n        /* \"YK Prime - Test.sol\":5994:6035  _allowances[msg.sender][spender] = amount */\n      dup2\n      swap1\n      sstore\n      pop\n        /* \"YK Prime - Test.sol\":6072:6079  spender */\n      dup3\n        /* \"YK Prime - Test.sol\":6051:6088  Approval(msg.sender, spender, amount) */\n      0xffffffffffffffffffffffffffffffffffffffff\n      and\n        /* \"YK Prime - Test.sol\":6060:6070  msg.sender */\n      caller\n        /* \"YK Prime - Test.sol\":6051:6088  Approval(msg.sender, spender, amount) */\n      0xffffffffffffffffffffffffffffffffffffffff\n      and\n      0x8c5be1e5ebec7d5bd14f71427d1e84f3dd0314c0f7b2291e5b200ac8c7c3b925\n        /* \"YK Prime - Test.sol\":6081:6087  amount */\n      dup5\n        /* \"YK Prime - Test.sol\":6051:6088  Approval(msg.sender, spender, amount) */\n      mload(0x40)\n      tag_140\n      swap2\n      swap1\n      tag_51\n      jump\t// in\n    tag_140:\n      mload(0x40)\n      dup1\n      swap2\n      sub\n      swap1\n      log3\n        /* \"YK Prime - Test.sol\":6106:6110  true */\n      0x01\n        /* \"YK Prime - Test.sol\":6099:6110  return true */\n      swap1\n      pop\n        /* \"YK Prime - Test.sol\":5886:6118  function approve(address spender, uint256 amount) public whenNotPaused whenActive returns (bool) {... */\n      swap3\n      swap2\n      pop\n      pop\n      jump\t// out\n        /* \"YK Prime - Test.sol\":4606:4718  function terminate() public onlyOwner {... */\n    tag_46:\n        /* \"YK Prime - Test.sol\":2797:2810  contractOwner */\n      0x03\n      0x00\n      swap1\n      sload\n      swap1\n      0x0100\n      exp\n      swap1\n      div\n      0xffffffffffffffffffffffffffffffffffffffff\n      and\n        /* \"YK Prime - Test.sol\":2783:2810  msg.sender == contractOwner */\n      0xffffffffffffffffffffffffffffffffffffffff\n      and\n        /* \"YK Prime - Test.sol\":2783:2793  msg.sender */\n      caller\n        /* \"YK Prime - Test.sol\":2783:2810  msg.sender == contractOwner */\n      0xffffffffffffffffffffffffffffffffffffffff\n      and\n      eq\n        /* \"YK Prime - Test.sol\":2775:2848  require(msg.sender == contractOwner, \"Only owner can call this function\") */\n      tag_142\n      jumpi\n      mload(0x40)\n      0x08c379a000000000000000000000000000000000000000000000000000000000\n      dup2\n      mstore\n      0x04\n      add\n      tag_143\n      swap1\n      tag_144\n      jump\t// in\n    tag_143:\n      mload(0x40)\n      dup1\n      swap2\n      sub\n      swap1\n      revert\n    tag_142:\n        /* \"YK Prime - Test.sol\":4668:4672  true */\n      0x01\n        /* \"YK Prime - Test.sol\":4655:4665  terminated */\n      0x03\n      0x15\n        /* \"YK Prime - Test.sol\":4655:4672  terminated = true */\n      0x0100\n      exp\n      dup2\n      sload\n      dup2\n      0xff\n      mul\n      not\n      and\n      swap1\n      dup4\n      iszero\n      iszero\n      mul\n      or\n      swap1\n      sstore\n      pop\n        /* \"YK Prime - Test.sol\":4699:4709  msg.sender */\n      caller\n        /* \"YK Prime - Test.sol\":4688:4710  Terminated(msg.sender) */\n      0xffffffffffffffffffffffffffffffffffffffff\n      and\n      0x98cd97fc1a1cc958cbd729b1bb531d4f3ea4925470bf23ea9af386640cbd07be\n      mload(0x40)\n      mload(0x40)\n      dup1\n      swap2\n      sub\n      swap1\n      log2\n        /* \"YK Prime - Test.sol\":4606:4718  function terminate() public onlyOwner {... */\n      jump\t// out\n        /* \"YK Prime - Test.sol\":972:1012  uint256 public transactionFeePercent = 0 */\n    tag_49:\n      sload(0x00)\n      dup2\n      jump\t// out\n        /* \"YK Prime - Test.sol\":1435:1513  uint256 public constant totalSupply = TOKEN_SUPPLY * (10 ** uint256(decimals)) */\n    tag_54:\n        /* \"YK Prime - Test.sol\":394:395  4 */\n      0x04\n        /* \"YK Prime - Test.sol\":1495:1512  uint256(decimals) */\n      0xff\n      and\n        /* \"YK Prime - Test.sol\":1489:1491  10 */\n      0x0a\n        /* \"YK Prime - Test.sol\":1489:1512  10 ** uint256(decimals) */\n      tag_146\n      swap2\n      swap1\n      tag_147\n      jump\t// in\n    tag_146:\n        /* \"YK Prime - Test.sol\":430:441  50000000000 */\n      0x0ba43b7400\n        /* \"YK Prime - Test.sol\":1473:1513  TOKEN_SUPPLY * (10 ** uint256(decimals)) */\n      tag_148\n      swap2\n      swap1\n      tag_149\n      jump\t// in\n    tag_148:\n        /* \"YK Prime - Test.sol\":1435:1513  uint256 public constant totalSupply = TOKEN_SUPPLY * (10 ** uint256(decimals)) */\n      dup2\n      jump\t// out\n        /* \"YK Prime - Test.sol\":1610:1632  bool public terminated */\n    tag_58:\n      0x03\n      0x15\n      swap1\n      sload\n      swap1\n      0x0100\n      exp\n      swap1\n      div\n      0xff\n      and\n      dup2\n      jump\t// out\n        /* \"YK Prime - Test.sol\":6126:6899  function transferFrom(address sender, address recipient, uint256 amount) public payable whenNotPaused whenActive returns (bool) {... */\n    tag_63:\n        /* \"YK Prime - Test.sol\":6248:6252  bool */\n      0x00\n        /* \"YK Prime - Test.sol\":2921:2927  paused */\n      0x03\n      0x14\n      swap1\n      sload\n      swap1\n      0x0100\n      exp\n      swap1\n      div\n      0xff\n      and\n        /* \"YK Prime - Test.sol\":2920:2927  !paused */\n      iszero\n        /* \"YK Prime - Test.sol\":2912:2950  require(!paused, \"Contract is paused\") */\n      tag_151\n      jumpi\n      mload(0x40)\n      0x08c379a000000000000000000000000000000000000000000000000000000000\n      dup2\n      mstore\n      0x04\n      add\n      tag_152\n      swap1\n      tag_134\n      jump\t// in\n    tag_152:\n      mload(0x40)\n      dup1\n      swap2\n      sub\n      swap1\n      revert\n    tag_151:\n        /* \"YK Prime - Test.sol\":3020:3030  terminated */\n      0x03\n      0x15\n      swap1\n      sload\n      swap1\n      0x0100\n      exp\n      swap1\n      div\n      0xff\n      and\n        /* \"YK Prime - Test.sol\":3019:3030  !terminated */\n      iszero\n        /* \"YK Prime - Test.sol\":3011:3066  require(!terminated, \"Contract permanently terminated\") */\n      tag_154\n      jumpi\n      mload(0x40)\n      0x08c379a000000000000000000000000000000000000000000000000000000000\n      dup2\n      mstore\n      0x04\n      add\n      tag_155\n      swap1\n      tag_138\n      jump\t// in\n    tag_155:\n      mload(0x40)\n      dup1\n      swap2\n      sub\n      swap1\n      revert\n    tag_154:\n        /* \"YK Prime - Test.sol\":6270:6320  DebugLog(\"Iniciando transferFrom\", sender, amount) */\n      0xb515f8464a2e9f92f223836cb4d97889b194249a3f5a6bae6b346c6b0ac8fd55\n        /* \"YK Prime - Test.sol\":6305:6311  sender */\n      dup5\n        /* \"YK Prime - Test.sol\":6313:6319  amount */\n      dup4\n        /* \"YK Prime - Test.sol\":6270:6320  DebugLog(\"Iniciando transferFrom\", sender, amount) */\n      mload(0x40)\n      tag_157\n      swap3\n      swap2\n      swap1\n      tag_158\n      jump\t// in\n    tag_157:\n      mload(0x40)\n      dup1\n      swap2\n      sub\n      swap1\n      log1\n        /* \"YK Prime - Test.sol\":6374:6380  amount */\n      dup2\n        /* \"YK Prime - Test.sol\":6339:6350  _allowances */\n      0x05\n        /* \"YK Prime - Test.sol\":6339:6358  _allowances[sender] */\n      0x00\n        /* \"YK Prime - Test.sol\":6351:6357  sender */\n      dup7\n        /* \"YK Prime - Test.sol\":6339:6358  _allowances[sender] */\n      0xffffffffffffffffffffffffffffffffffffffff\n      and\n      0xffffffffffffffffffffffffffffffffffffffff\n      and\n      dup2\n      mstore\n      0x20\n      add\n      swap1\n      dup2\n      mstore\n      0x20\n      add\n      0x00\n      keccak256\n        /* \"YK Prime - Test.sol\":6339:6370  _allowances[sender][msg.sender] */\n      0x00\n        /* \"YK Prime - Test.sol\":6359:6369  msg.sender */\n      caller\n        /* \"YK Prime - Test.sol\":6339:6370  _allowances[sender][msg.sender] */\n      0xffffffffffffffffffffffffffffffffffffffff\n      and\n      0xffffffffffffffffffffffffffffffffffffffff\n      and\n      dup2\n      mstore\n      0x20\n      add\n      swap1\n      dup2\n      mstore\n      0x20\n      add\n      0x00\n      keccak256\n      sload\n        /* \"YK Prime - Test.sol\":6339:6380  _allowances[sender][msg.sender] >= amount */\n      lt\n      iszero\n        /* \"YK Prime - Test.sol\":6331:6403  require(_allowances[sender][msg.sender] >= amount, \"Permissao excedida\") */\n      tag_159\n      jumpi\n      mload(0x40)\n      0x08c379a000000000000000000000000000000000000000000000000000000000\n      dup2\n      mstore\n      0x04\n      add\n      tag_160\n      swap1\n      tag_161\n      jump\t// in\n    tag_160:\n      mload(0x40)\n      dup1\n      swap2\n      sub\n      swap1\n      revert\n    tag_159:\n        /* \"YK Prime - Test.sol\":6443:6449  amount */\n      dup2\n        /* \"YK Prime - Test.sol\":6422:6431  _balances */\n      0x04\n        /* \"YK Prime - Test.sol\":6422:6439  _balances[sender] */\n      0x00\n        /* \"YK Prime - Test.sol\":6432:6438  sender */\n      dup7\n        /* \"YK Prime - Test.sol\":6422:6439  _balances[sender] */\n      0xffffffffffffffffffffffffffffffffffffffff\n      and\n      0xffffffffffffffffffffffffffffffffffffffff\n      and\n      dup2\n      mstore\n      0x20\n      add\n      swap1\n      dup2\n      mstore\n      0x20\n      add\n      0x00\n      keccak256\n      sload\n        /* \"YK Prime - Test.sol\":6422:6449  _balances[sender] >= amount */\n      lt\n      iszero\n        /* \"YK Prime - Test.sol\":6414:6481  require(_balances[sender] >= amount, \"Saldo de token insuficiente\") */\n      tag_162\n      jumpi\n      mload(0x40)\n      0x08c379a000000000000000000000000000000000000000000000000000000000\n      dup2\n      mstore\n      0x04\n      add\n      tag_163\n      swap1\n      tag_164\n      jump\t// in\n    tag_163:\n      mload(0x40)\n      dup1\n      swap2\n      sub\n      swap1\n      revert\n    tag_162:\n        /* \"YK Prime - Test.sol\":6501:6522  isContract(recipient) */\n      tag_165\n        /* \"YK Prime - Test.sol\":6512:6521  recipient */\n      dup4\n        /* \"YK Prime - Test.sol\":6501:6511  isContract */\n      tag_166\n        /* \"YK Prime - Test.sol\":6501:6522  isContract(recipient) */\n      jump\t// in\n    tag_165:\n        /* \"YK Prime - Test.sol\":6500:6522  !isContract(recipient) */\n      iszero\n        /* \"YK Prime - Test.sol\":6492:6576  require(!isContract(recipient), \"Destinatario e um contrato e pode rejeitar tokens\") */\n      tag_167\n      jumpi\n      mload(0x40)\n      0x08c379a000000000000000000000000000000000000000000000000000000000\n      dup2\n      mstore\n      0x04\n      add\n      tag_168\n      swap1\n      tag_169\n      jump\t// in\n    tag_168:\n      mload(0x40)\n      dup1\n      swap2\n      sub\n      swap1\n      revert\n    tag_167:\n        /* \"YK Prime - Test.sol\":6624:6630  amount */\n      dup2\n        /* \"YK Prime - Test.sol\":6589:6600  _allowances */\n      0x05\n        /* \"YK Prime - Test.sol\":6589:6608  _allowances[sender] */\n      0x00\n        /* \"YK Prime - Test.sol\":6601:6607  sender */\n      dup7\n        /* \"YK Prime - Test.sol\":6589:6608  _allowances[sender] */\n      0xffffffffffffffffffffffffffffffffffffffff\n      and\n      0xffffffffffffffffffffffffffffffffffffffff\n      and\n      dup2\n      mstore\n      0x20\n      add\n      swap1\n      dup2\n      mstore\n      0x20\n      add\n      0x00\n      keccak256\n        /* \"YK Prime - Test.sol\":6589:6620  _allowances[sender][msg.sender] */\n      0x00\n        /* \"YK Prime - Test.sol\":6609:6619  msg.sender */\n      caller\n        /* \"YK Prime - Test.sol\":6589:6620  _allowances[sender][msg.sender] */\n      0xffffffffffffffffffffffffffffffffffffffff\n      and\n      0xffffffffffffffffffffffffffffffffffffffff\n      and\n      dup2\n      mstore\n      0x20\n      add\n      swap1\n      dup2\n      mstore\n      0x20\n      add\n      0x00\n      keccak256\n      0x00\n        /* \"YK Prime - Test.sol\":6589:6630  _allowances[sender][msg.sender] -= amount */\n      dup3\n      dup3\n      sload\n      tag_170\n      swap2\n      swap1\n      tag_171\n      jump\t// in\n    tag_170:\n      swap3\n      pop\n      pop\n      dup2\n      swap1\n      sstore\n      pop\n        /* \"YK Prime - Test.sol\":6641:6654  _collectFee() */\n      tag_172\n        /* \"YK Prime - Test.sol\":6641:6652  _collectFee */\n      tag_173\n        /* \"YK Prime - Test.sol\":6641:6654  _collectFee() */\n      jump\t// in\n    tag_172:\n        /* \"YK Prime - Test.sol\":6719:6761  _transferTokens(sender, recipient, amount) */\n      tag_174\n        /* \"YK Prime - Test.sol\":6735:6741  sender */\n      dup5\n        /* \"YK Prime - Test.sol\":6743:6752  recipient */\n      dup5\n        /* \"YK Prime - Test.sol\":6754:6760  amount */\n      dup5\n        /* \"YK Prime - Test.sol\":6719:6734  _transferTokens */\n      tag_175\n        /* \"YK Prime - Test.sol\":6719:6761  _transferTokens(sender, recipient, amount) */\n      jump\t// in\n    tag_174:\n        /* \"YK Prime - Test.sol\":6816:6869  DebugLog(\"transferFrom concluida\", recipient, amount) */\n      0xb515f8464a2e9f92f223836cb4d97889b194249a3f5a6bae6b346c6b0ac8fd55\n        /* \"YK Prime - Test.sol\":6851:6860  recipient */\n      dup4\n        /* \"YK Prime - Test.sol\":6862:6868  amount */\n      dup4\n        /* \"YK Prime - Test.sol\":6816:6869  DebugLog(\"transferFrom concluida\", recipient, amount) */\n      mload(0x40)\n      tag_176\n      swap3\n      swap2\n      swap1\n      tag_177\n      jump\t// in\n    tag_176:\n      mload(0x40)\n      dup1\n      swap2\n      sub\n      swap1\n      log1\n        /* \"YK Prime - Test.sol\":6887:6891  true */\n      0x01\n        /* \"YK Prime - Test.sol\":6880:6891  return true */\n      swap1\n      pop\n        /* \"YK Prime - Test.sol\":6126:6899  function transferFrom(address sender, address recipient, uint256 amount) public payable whenNotPaused whenActive returns (bool) {... */\n      swap4\n      swap3\n      pop\n      pop\n      pop\n      jump\t// out\n        /* \"YK Prime - Test.sol\":1381:1428  uint8 public constant decimals = TOKEN_DECIMALS */\n    tag_67:\n        /* \"YK Prime - Test.sol\":394:395  4 */\n      0x04\n        /* \"YK Prime - Test.sol\":1381:1428  uint8 public constant decimals = TOKEN_DECIMALS */\n      dup2\n      jump\t// out\n        /* \"YK Prime - Test.sol\":4493:4598  function unpause() public onlyOwner {... */\n    tag_72:\n        /* \"YK Prime - Test.sol\":2797:2810  contractOwner */\n      0x03\n      0x00\n      swap1\n      sload\n      swap1\n      0x0100\n      exp\n      swap1\n      div\n      0xffffffffffffffffffffffffffffffffffffffff\n      and\n        /* \"YK Prime - Test.sol\":2783:2810  msg.sender == contractOwner */\n      0xffffffffffffffffffffffffffffffffffffffff\n      and\n        /* \"YK Prime - Test.sol\":2783:2793  msg.sender */\n      caller\n        /* \"YK Prime - Test.sol\":2783:2810  msg.sender == contractOwner */\n      0xffffffffffffffffffffffffffffffffffffffff\n      and\n      eq\n        /* \"YK Prime - Test.sol\":2775:2848  require(msg.sender == contractOwner, \"Only owner can call this function\") */\n      tag_179\n      jumpi\n      mload(0x40)\n      0x08c379a000000000000000000000000000000000000000000000000000000000\n      dup2\n      mstore\n      0x04\n      add\n      tag_180\n      swap1\n      tag_144\n      jump\t// in\n    tag_180:\n      mload(0x40)\n      dup1\n      swap2\n      sub\n      swap1\n      revert\n    tag_179:\n        /* \"YK Prime - Test.sol\":4549:4554  false */\n      0x00\n        /* \"YK Prime - Test.sol\":4540:4546  paused */\n      0x03\n      0x14\n        /* \"YK Prime - Test.sol\":4540:4554  paused = false */\n      0x0100\n      exp\n      dup2\n      sload\n      dup2\n      0xff\n      mul\n      not\n      and\n      swap1\n      dup4\n      iszero\n      iszero\n      mul\n      or\n      swap1\n      sstore\n      pop\n        /* \"YK Prime - Test.sol\":4579:4589  msg.sender */\n      caller\n        /* \"YK Prime - Test.sol\":4570:4590  Unpaused(msg.sender) */\n      0xffffffffffffffffffffffffffffffffffffffff\n      and\n      0x5db9ee0a495bf2e6ff9c91a7834c1ba4fdd244a5e8aa4e537bd38aeae4b073aa\n      mload(0x40)\n      mload(0x40)\n      dup1\n      swap2\n      sub\n      swap1\n      log2\n        /* \"YK Prime - Test.sol\":4493:4598  function unpause() public onlyOwner {... */\n      jump\t// out\n        /* \"YK Prime - Test.sol\":1058:1130  address public feeRecipient = 0xB4a045aF12A74e5BEb8Ff763f474B943cc2Cfa0a */\n    tag_75:\n      0x01\n      0x00\n      swap1\n      sload\n      swap1\n      0x0100\n      exp\n      swap1\n      div\n      0xffffffffffffffffffffffffffffffffffffffff\n      and\n      dup2\n      jump\t// out\n        /* \"YK Prime - Test.sol\":1585:1603  bool public paused */\n    tag_80:\n      0x03\n      0x14\n      swap1\n      sload\n      swap1\n      0x0100\n      exp\n      swap1\n      div\n      0xff\n      and\n      dup2\n      jump\t// out\n        /* \"YK Prime - Test.sol\":1520:1541  string public logoURI */\n    tag_84:\n      0x02\n      dup1\n      sload\n      tag_182\n      swap1\n      tag_183\n      jump\t// in\n    tag_182:\n      dup1\n      0x1f\n      add\n      0x20\n      dup1\n      swap2\n      div\n      mul\n      0x20\n      add\n      mload(0x40)\n      swap1\n      dup2\n      add\n      0x40\n      mstore\n      dup1\n      swap3\n      swap2\n      swap1\n      dup2\n      dup2\n      mstore\n      0x20\n      add\n      dup3\n      dup1\n      sload\n      tag_184\n      swap1\n      tag_183\n      jump\t// in\n    tag_184:\n      dup1\n      iszero\n      tag_185\n      jumpi\n      dup1\n      0x1f\n      lt\n      tag_186\n      jumpi\n      0x0100\n      dup1\n      dup4\n      sload\n      div\n      mul\n      dup4\n      mstore\n      swap2\n      0x20\n      add\n      swap2\n      jump(tag_185)\n    tag_186:\n      dup3\n      add\n      swap2\n      swap1\n      0x00\n      mstore\n      keccak256(0x00, 0x20)\n      swap1\n    tag_187:\n      dup2\n      sload\n      dup2\n      mstore\n      swap1\n      0x01\n      add\n      swap1\n      0x20\n      add\n      dup1\n      dup4\n      gt\n      tag_187\n      jumpi\n      dup3\n      swap1\n      sub\n      0x1f\n      and\n      dup3\n      add\n      swap2\n    tag_185:\n      pop\n      pop\n      pop\n      pop\n      pop\n      dup2\n      jump\t// out\n        /* \"YK Prime - Test.sol\":8779:8889  function balanceOf(address account) public view returns (uint256) {... */\n    tag_90:\n        /* \"YK Prime - Test.sol\":8836:8843  uint256 */\n      0x00\n        /* \"YK Prime - Test.sol\":8863:8872  _balances */\n      0x04\n        /* \"YK Prime - Test.sol\":8863:8881  _balances[account] */\n      0x00\n        /* \"YK Prime - Test.sol\":8873:8880  account */\n      dup4\n        /* \"YK Prime - Test.sol\":8863:8881  _balances[account] */\n      0xffffffffffffffffffffffffffffffffffffffff\n      and\n      0xffffffffffffffffffffffffffffffffffffffff\n      and\n      dup2\n      mstore\n      0x20\n      add\n      swap1\n      dup2\n      mstore\n      0x20\n      add\n      0x00\n      keccak256\n      sload\n        /* \"YK Prime - Test.sol\":8856:8881  return _balances[account] */\n      swap1\n      pop\n        /* \"YK Prime - Test.sol\":8779:8889  function balanceOf(address account) public view returns (uint256) {... */\n      swap2\n      swap1\n      pop\n      jump\t// out\n        /* \"YK Prime - Test.sol\":4385:4485  function pause() public onlyOwner {... */\n    tag_94:\n        /* \"YK Prime - Test.sol\":2797:2810  contractOwner */\n      0x03\n      0x00\n      swap1\n      sload\n      swap1\n      0x0100\n      exp\n      swap1\n      div\n      0xffffffffffffffffffffffffffffffffffffffff\n      and\n        /* \"YK Prime - Test.sol\":2783:2810  msg.sender == contractOwner */\n      0xffffffffffffffffffffffffffffffffffffffff\n      and\n        /* \"YK Prime - Test.sol\":2783:2793  msg.sender */\n      caller\n        /* \"YK Prime - Test.sol\":2783:2810  msg.sender == contractOwner */\n      0xffffffffffffffffffffffffffffffffffffffff\n      and\n      eq\n        /* \"YK Prime - Test.sol\":2775:2848  require(msg.sender == contractOwner, \"Only owner can call this function\") */\n      tag_190\n      jumpi\n      mload(0x40)\n      0x08c379a000000000000000000000000000000000000000000000000000000000\n      dup2\n      mstore\n      0x04\n      add\n      tag_191\n      swap1\n      tag_144\n      jump\t// in\n    tag_191:\n      mload(0x40)\n      dup1\n      swap2\n      sub\n      swap1\n      revert\n    tag_190:\n        /* \"YK Prime - Test.sol\":4439:4443  true */\n      0x01\n        /* \"YK Prime - Test.sol\":4430:4436  paused */\n      0x03\n      0x14\n        /* \"YK Prime - Test.sol\":4430:4443  paused = true */\n      0x0100\n      exp\n      dup2\n      sload\n      dup2\n      0xff\n      mul\n      not\n      and\n      swap1\n      dup4\n      iszero\n      iszero\n      mul\n      or\n      swap1\n      sstore\n      pop\n        /* \"YK Prime - Test.sol\":4466:4476  msg.sender */\n      caller\n        /* \"YK Prime - Test.sol\":4459:4477  Paused(msg.sender) */\n      0xffffffffffffffffffffffffffffffffffffffff\n      and\n      0x62e78cea01bee320cd4e420270b5ea74000d11b0c9f74754ebdbfc544b05a258\n      mload(0x40)\n      mload(0x40)\n      dup1\n      swap2\n      sub\n      swap1\n      log2\n        /* \"YK Prime - Test.sol\":4385:4485  function pause() public onlyOwner {... */\n      jump\t// out\n        /* \"YK Prime - Test.sol\":1330:1374  string public constant symbol = TOKEN_SYMBOL */\n    tag_97:\n        /* \"YK Prime - Test.sol\":1362:1374  TOKEN_SYMBOL */\n      mload(0x40)\n      dup1\n      0x40\n      add\n      0x40\n      mstore\n      dup1\n      0x0a\n      dup2\n      mstore\n      0x20\n      add\n      0x574b544f4b454e54535400000000000000000000000000000000000000000000\n      dup2\n      mstore\n      pop\n        /* \"YK Prime - Test.sol\":1330:1374  string public constant symbol = TOKEN_SYMBOL */\n      dup2\n      jump\t// out\n        /* \"YK Prime - Test.sol\":5246:5878  function transfer(address recipient, uint256 amount) public payable whenNotPaused whenActive returns (bool) {... */\n    tag_101:\n        /* \"YK Prime - Test.sol\":5348:5352  bool */\n      0x00\n        /* \"YK Prime - Test.sol\":2921:2927  paused */\n      0x03\n      0x14\n      swap1\n      sload\n      swap1\n      0x0100\n      exp\n      swap1\n      div\n      0xff\n      and\n        /* \"YK Prime - Test.sol\":2920:2927  !paused */\n      iszero\n        /* \"YK Prime - Test.sol\":2912:2950  require(!paused, \"Contract is paused\") */\n      tag_194\n      jumpi\n      mload(0x40)\n      0x08c379a000000000000000000000000000000000000000000000000000000000\n      dup2\n      mstore\n      0x04\n      add\n      tag_195\n      swap1\n      tag_134\n      jump\t// in\n    tag_195:\n      mload(0x40)\n      dup1\n      swap2\n      sub\n      swap1\n      revert\n    tag_194:\n        /* \"YK Prime - Test.sol\":3020:3030  terminated */\n      0x03\n      0x15\n      swap1\n      sload\n      swap1\n      0x0100\n      exp\n      swap1\n      div\n      0xff\n      and\n        /* \"YK Prime - Test.sol\":3019:3030  !terminated */\n      iszero\n        /* \"YK Prime - Test.sol\":3011:3066  require(!terminated, \"Contract permanently terminated\") */\n      tag_197\n      jumpi\n      mload(0x40)\n      0x08c379a000000000000000000000000000000000000000000000000000000000\n      dup2\n      mstore\n      0x04\n      add\n      tag_198\n      swap1\n      tag_138\n      jump\t// in\n    tag_198:\n      mload(0x40)\n      dup1\n      swap2\n      sub\n      swap1\n      revert\n    tag_197:\n        /* \"YK Prime - Test.sol\":5370:5425  DebugLog(\"Iniciando transferencia\", msg.sender, amount) */\n      0xb515f8464a2e9f92f223836cb4d97889b194249a3f5a6bae6b346c6b0ac8fd55\n        /* \"YK Prime - Test.sol\":5406:5416  msg.sender */\n      caller\n        /* \"YK Prime - Test.sol\":5418:5424  amount */\n      dup4\n        /* \"YK Prime - Test.sol\":5370:5425  DebugLog(\"Iniciando transferencia\", msg.sender, amount) */\n      mload(0x40)\n      tag_200\n      swap3\n      swap2\n      swap1\n      tag_201\n      jump\t// in\n    tag_200:\n      mload(0x40)\n      dup1\n      swap2\n      sub\n      swap1\n      log1\n        /* \"YK Prime - Test.sol\":5469:5475  amount */\n      dup2\n        /* \"YK Prime - Test.sol\":5444:5453  _balances */\n      0x04\n        /* \"YK Prime - Test.sol\":5444:5465  _balances[msg.sender] */\n      0x00\n        /* \"YK Prime - Test.sol\":5454:5464  msg.sender */\n      caller\n        /* \"YK Prime - Test.sol\":5444:5465  _balances[msg.sender] */\n      0xffffffffffffffffffffffffffffffffffffffff\n      and\n      0xffffffffffffffffffffffffffffffffffffffff\n      and\n      dup2\n      mstore\n      0x20\n      add\n      swap1\n      dup2\n      mstore\n      0x20\n      add\n      0x00\n      keccak256\n      sload\n        /* \"YK Prime - Test.sol\":5444:5475  _balances[msg.sender] >= amount */\n      lt\n      iszero\n        /* \"YK Prime - Test.sol\":5436:5507  require(_balances[msg.sender] >= amount, \"Saldo de token insuficiente\") */\n      tag_202\n      jumpi\n      mload(0x40)\n      0x08c379a000000000000000000000000000000000000000000000000000000000\n      dup2\n      mstore\n      0x04\n      add\n      tag_203\n      swap1\n      tag_164\n      jump\t// in\n    tag_203:\n      mload(0x40)\n      dup1\n      swap2\n      sub\n      swap1\n      revert\n    tag_202:\n        /* \"YK Prime - Test.sol\":5527:5548  isContract(recipient) */\n      tag_204\n        /* \"YK Prime - Test.sol\":5538:5547  recipient */\n      dup4\n        /* \"YK Prime - Test.sol\":5527:5537  isContract */\n      tag_166\n        /* \"YK Prime - Test.sol\":5527:5548  isContract(recipient) */\n      jump\t// in\n    tag_204:\n        /* \"YK Prime - Test.sol\":5526:5548  !isContract(recipient) */\n      iszero\n        /* \"YK Prime - Test.sol\":5518:5602  require(!isContract(recipient), \"Destinatario e um contrato e pode rejeitar tokens\") */\n      tag_205\n      jumpi\n      mload(0x40)\n      0x08c379a000000000000000000000000000000000000000000000000000000000\n      dup2\n      mstore\n      0x04\n      add\n      tag_206\n      swap1\n      tag_169\n      jump\t// in\n    tag_206:\n      mload(0x40)\n      dup1\n      swap2\n      sub\n      swap1\n      revert\n    tag_205:\n        /* \"YK Prime - Test.sol\":5615:5628  _collectFee() */\n      tag_207\n        /* \"YK Prime - Test.sol\":5615:5626  _collectFee */\n      tag_173\n        /* \"YK Prime - Test.sol\":5615:5628  _collectFee() */\n      jump\t// in\n    tag_207:\n        /* \"YK Prime - Test.sol\":5693:5739  _transferTokens(msg.sender, recipient, amount) */\n      tag_208\n        /* \"YK Prime - Test.sol\":5709:5719  msg.sender */\n      caller\n        /* \"YK Prime - Test.sol\":5721:5730  recipient */\n      dup5\n        /* \"YK Prime - Test.sol\":5732:5738  amount */\n      dup5\n        /* \"YK Prime - Test.sol\":5693:5708  _transferTokens */\n      tag_175\n        /* \"YK Prime - Test.sol\":5693:5739  _transferTokens(msg.sender, recipient, amount) */\n      jump\t// in\n    tag_208:\n        /* \"YK Prime - Test.sol\":5794:5848  DebugLog(\"Transferencia concluida\", recipient, amount) */\n      0xb515f8464a2e9f92f223836cb4d97889b194249a3f5a6bae6b346c6b0ac8fd55\n        /* \"YK Prime - Test.sol\":5830:5839  recipient */\n      dup4\n        /* \"YK Prime - Test.sol\":5841:5847  amount */\n      dup4\n        /* \"YK Prime - Test.sol\":5794:5848  DebugLog(\"Transferencia concluida\", recipient, amount) */\n      mload(0x40)\n      tag_209\n      swap3\n      swap2\n      swap1\n      tag_210\n      jump\t// in\n    tag_209:\n      mload(0x40)\n      dup1\n      swap2\n      sub\n      swap1\n      log1\n        /* \"YK Prime - Test.sol\":5866:5870  true */\n      0x01\n        /* \"YK Prime - Test.sol\":5859:5870  return true */\n      swap1\n      pop\n        /* \"YK Prime - Test.sol\":5246:5878  function transfer(address recipient, uint256 amount) public payable whenNotPaused whenActive returns (bool) {... */\n      swap3\n      swap2\n      pop\n      pop\n      jump\t// out\n        /* \"YK Prime - Test.sol\":3596:3740  function setLogoURI(string memory newLogoURI) public onlyOwner {... */\n    tag_107:\n        /* \"YK Prime - Test.sol\":2797:2810  contractOwner */\n      0x03\n      0x00\n      swap1\n      sload\n      swap1\n      0x0100\n      exp\n      swap1\n      div\n      0xffffffffffffffffffffffffffffffffffffffff\n      and\n        /* \"YK Prime - Test.sol\":2783:2810  msg.sender == contractOwner */\n      0xffffffffffffffffffffffffffffffffffffffff\n      and\n        /* \"YK Prime - Test.sol\":2783:2793  msg.sender */\n      caller\n        /* \"YK Prime - Test.sol\":2783:2810  msg.sender == contractOwner */\n      0xffffffffffffffffffffffffffffffffffffffff\n      and\n      eq\n        /* \"YK Prime - Test.sol\":2775:2848  require(msg.sender == contractOwner, \"Only owner can call this function\") */\n      tag_212\n      jumpi\n      mload(0x40)\n      0x08c379a000000000000000000000000000000000000000000000000000000000\n      dup2\n      mstore\n      0x04\n      add\n      tag_213\n      swap1\n      tag_144\n      jump\t// in\n    tag_213:\n      mload(0x40)\n      dup1\n      swap2\n      sub\n      swap1\n      revert\n    tag_212:\n        /* \"YK Prime - Test.sol\":3680:3690  newLogoURI */\n      dup1\n        /* \"YK Prime - Test.sol\":3670:3677  logoURI */\n      0x02\n        /* \"YK Prime - Test.sol\":3670:3690  logoURI = newLogoURI */\n      swap1\n      dup2\n      tag_215\n      swap2\n      swap1\n      tag_216\n      jump\t// in\n    tag_215:\n      pop\n        /* \"YK Prime - Test.sol\":3706:3732  LogoURIChanged(newLogoURI) */\n      0xe3fb25e6b72ff77d9f2a50e0fd9dbcd69f0a806a0d0bbbcf804d7848bb277b48\n        /* \"YK Prime - Test.sol\":3721:3731  newLogoURI */\n      dup2\n        /* \"YK Prime - Test.sol\":3706:3732  LogoURIChanged(newLogoURI) */\n      mload(0x40)\n      tag_217\n      swap2\n      swap1\n      tag_36\n      jump\t// in\n    tag_217:\n      mload(0x40)\n      dup1\n      swap2\n      sub\n      swap1\n      log1\n        /* \"YK Prime - Test.sol\":3596:3740  function setLogoURI(string memory newLogoURI) public onlyOwner {... */\n      pop\n      jump\t// out\n        /* \"YK Prime - Test.sol\":1550:1578  address public contractOwner */\n    tag_110:\n      0x03\n      0x00\n      swap1\n      sload\n      swap1\n      0x0100\n      exp\n      swap1\n      div\n      0xffffffffffffffffffffffffffffffffffffffff\n      and\n      dup2\n      jump\t// out\n        /* \"YK Prime - Test.sol\":4120:4377  function setTransactionFeePercent(uint256 newFeeAmount) public onlyOwner {... */\n    tag_116:\n        /* \"YK Prime - Test.sol\":2797:2810  contractOwner */\n      0x03\n      0x00\n      swap1\n      sload\n      swap1\n      0x0100\n      exp\n      swap1\n      div\n      0xffffffffffffffffffffffffffffffffffffffff\n      and\n        /* \"YK Prime - Test.sol\":2783:2810  msg.sender == contractOwner */\n      0xffffffffffffffffffffffffffffffffffffffff\n      and\n        /* \"YK Prime - Test.sol\":2783:2793  msg.sender */\n      caller\n        /* \"YK Prime - Test.sol\":2783:2810  msg.sender == contractOwner */\n      0xffffffffffffffffffffffffffffffffffffffff\n      and\n      eq\n        /* \"YK Prime - Test.sol\":2775:2848  require(msg.sender == contractOwner, \"Only owner can call this function\") */\n      tag_219\n      jumpi\n      mload(0x40)\n      0x08c379a000000000000000000000000000000000000000000000000000000000\n      dup2\n      mstore\n      0x04\n      add\n      tag_220\n      swap1\n      tag_144\n      jump\t// in\n    tag_220:\n      mload(0x40)\n      dup1\n      swap2\n      sub\n      swap1\n      revert\n    tag_219:\n        /* \"YK Prime - Test.sol\":4228:4229  0 */\n      0x00\n        /* \"YK Prime - Test.sol\":4212:4224  newFeeAmount */\n      dup2\n        /* \"YK Prime - Test.sol\":4212:4229  newFeeAmount >= 0 */\n      lt\n      iszero\n        /* \"YK Prime - Test.sol\":4204:4271  require(newFeeAmount >= 0, \"A taxa deve ser maior ou igual a zero\") */\n      tag_222\n      jumpi\n      mload(0x40)\n      0x08c379a000000000000000000000000000000000000000000000000000000000\n      dup2\n      mstore\n      0x04\n      add\n      tag_223\n      swap1\n      tag_224\n      jump\t// in\n    tag_223:\n      mload(0x40)\n      dup1\n      swap2\n      sub\n      swap1\n      revert\n    tag_222:\n        /* \"YK Prime - Test.sol\":4306:4318  newFeeAmount */\n      dup1\n        /* \"YK Prime - Test.sol\":4282:4303  transactionFeePercent */\n      0x00\n        /* \"YK Prime - Test.sol\":4282:4318  transactionFeePercent = newFeeAmount */\n      dup2\n      swap1\n      sstore\n      pop\n        /* \"YK Prime - Test.sol\":4334:4369  TransactionFeeChanged(newFeeAmount) */\n      0x61ebed89d5ab28b433235a7cf26a30b1934b8915bb1280d917579c7d52e4de\n        /* \"YK Prime - Test.sol\":4356:4368  newFeeAmount */\n      dup2\n        /* \"YK Prime - Test.sol\":4334:4369  TransactionFeeChanged(newFeeAmount) */\n      mload(0x40)\n      tag_225\n      swap2\n      swap1\n      tag_51\n      jump\t// in\n    tag_225:\n      mload(0x40)\n      dup1\n      swap2\n      sub\n      swap1\n      log1\n        /* \"YK Prime - Test.sol\":4120:4377  function setTransactionFeePercent(uint256 newFeeAmount) public onlyOwner {... */\n      pop\n      jump\t// out\n        /* \"YK Prime - Test.sol\":8897:9031  function allowance(address owner, address spender) public view returns (uint256) {... */\n    tag_121:\n        /* \"YK Prime - Test.sol\":8969:8976  uint256 */\n      0x00\n        /* \"YK Prime - Test.sol\":8996:9007  _allowances */\n      0x05\n        /* \"YK Prime - Test.sol\":8996:9014  _allowances[owner] */\n      0x00\n        /* \"YK Prime - Test.sol\":9008:9013  owner */\n      dup5\n        /* \"YK Prime - Test.sol\":8996:9014  _allowances[owner] */\n      0xffffffffffffffffffffffffffffffffffffffff\n      and\n      0xffffffffffffffffffffffffffffffffffffffff\n      and\n      dup2\n      mstore\n      0x20\n      add\n      swap1\n      dup2\n      mstore\n      0x20\n      add\n      0x00\n      keccak256\n        /* \"YK Prime - Test.sol\":8996:9023  _allowances[owner][spender] */\n      0x00\n        /* \"YK Prime - Test.sol\":9015:9022  spender */\n      dup4\n        /* \"YK Prime - Test.sol\":8996:9023  _allowances[owner][spender] */\n      0xffffffffffffffffffffffffffffffffffffffff\n      and\n      0xffffffffffffffffffffffffffffffffffffffff\n      and\n      dup2\n      mstore\n      0x20\n      add\n      swap1\n      dup2\n      mstore\n      0x20\n      add\n      0x00\n      keccak256\n      sload\n        /* \"YK Prime - Test.sol\":8989:9023  return _allowances[owner][spender] */\n      swap1\n      pop\n        /* \"YK Prime - Test.sol\":8897:9031  function allowance(address owner, address spender) public view returns (uint256) {... */\n      swap3\n      swap2\n      pop\n      pop\n      jump\t// out\n        /* \"YK Prime - Test.sol\":3748:3986  function setFeeRecipient(address newRecipient) public onlyOwner {... */\n    tag_126:\n        /* \"YK Prime - Test.sol\":2797:2810  contractOwner */\n      0x03\n      0x00\n      swap1\n      sload\n      swap1\n      0x0100\n      exp\n      swap1\n      div\n      0xffffffffffffffffffffffffffffffffffffffff\n      and\n        /* \"YK Prime - Test.sol\":2783:2810  msg.sender == contractOwner */\n      0xffffffffffffffffffffffffffffffffffffffff\n      and\n        /* \"YK Prime - Test.sol\":2783:2793  msg.sender */\n      caller\n        /* \"YK Prime - Test.sol\":2783:2810  msg.sender == contractOwner */\n      0xffffffffffffffffffffffffffffffffffffffff\n      and\n      eq\n        /* \"YK Prime - Test.sol\":2775:2848  require(msg.sender == contractOwner, \"Only owner can call this function\") */\n      tag_228\n      jumpi\n      mload(0x40)\n      0x08c379a000000000000000000000000000000000000000000000000000000000\n      dup2\n      mstore\n      0x04\n      add\n      tag_229\n      swap1\n      tag_144\n      jump\t// in\n    tag_229:\n      mload(0x40)\n      dup1\n      swap2\n      sub\n      swap1\n      revert\n    tag_228:\n        /* \"YK Prime - Test.sol\":3855:3856  0 */\n      0x00\n        /* \"YK Prime - Test.sol\":3831:3857  newRecipient != address(0) */\n      0xffffffffffffffffffffffffffffffffffffffff\n      and\n        /* \"YK Prime - Test.sol\":3831:3843  newRecipient */\n      dup2\n        /* \"YK Prime - Test.sol\":3831:3857  newRecipient != address(0) */\n      0xffffffffffffffffffffffffffffffffffffffff\n      and\n      sub\n        /* \"YK Prime - Test.sol\":3823:3891  require(newRecipient != address(0), \"Invalid fee recipient address\") */\n      tag_231\n      jumpi\n      mload(0x40)\n      0x08c379a000000000000000000000000000000000000000000000000000000000\n      dup2\n      mstore\n      0x04\n      add\n      tag_232\n      swap1\n      tag_233\n      jump\t// in\n    tag_232:\n      mload(0x40)\n      dup1\n      swap2\n      sub\n      swap1\n      revert\n    tag_231:\n        /* \"YK Prime - Test.sol\":3917:3929  newRecipient */\n      dup1\n        /* \"YK Prime - Test.sol\":3902:3914  feeRecipient */\n      0x01\n      0x00\n        /* \"YK Prime - Test.sol\":3902:3929  feeRecipient = newRecipient */\n      0x0100\n      exp\n      dup2\n      sload\n      dup2\n      0xffffffffffffffffffffffffffffffffffffffff\n      mul\n      not\n      and\n      swap1\n      dup4\n      0xffffffffffffffffffffffffffffffffffffffff\n      and\n      mul\n      or\n      swap1\n      sstore\n      pop\n        /* \"YK Prime - Test.sol\":3945:3978  FeeRecipientChanged(newRecipient) */\n      0x167cccccc6e9b2892a740ec13fc1e51d3de8ea384f25bd87fee7412d588637e2\n        /* \"YK Prime - Test.sol\":3965:3977  newRecipient */\n      dup2\n        /* \"YK Prime - Test.sol\":3945:3978  FeeRecipientChanged(newRecipient) */\n      mload(0x40)\n      tag_234\n      swap2\n      swap1\n      tag_77\n      jump\t// in\n    tag_234:\n      mload(0x40)\n      dup1\n      swap2\n      sub\n      swap1\n      log1\n        /* \"YK Prime - Test.sol\":3748:3986  function setFeeRecipient(address newRecipient) public onlyOwner {... */\n      pop\n      jump\t// out\n        /* \"YK Prime - Test.sol\":4726:4969  function transferOwnership(address newOwner) public onlyOwner {... */\n    tag_130:\n        /* \"YK Prime - Test.sol\":2797:2810  contractOwner */\n      0x03\n      0x00\n      swap1\n      sload\n      swap1\n      0x0100\n      exp\n      swap1\n      div\n      0xffffffffffffffffffffffffffffffffffffffff\n      and\n        /* \"YK Prime - Test.sol\":2783:2810  msg.sender == contractOwner */\n      0xffffffffffffffffffffffffffffffffffffffff\n      and\n        /* \"YK Prime - Test.sol\":2783:2793  msg.sender */\n      caller\n        /* \"YK Prime - Test.sol\":2783:2810  msg.sender == contractOwner */\n      0xffffffffffffffffffffffffffffffffffffffff\n      and\n      eq\n        /* \"YK Prime - Test.sol\":2775:2848  require(msg.sender == contractOwner, \"Only owner can call this function\") */\n      tag_236\n      jumpi\n      mload(0x40)\n      0x08c379a000000000000000000000000000000000000000000000000000000000\n      dup2\n      mstore\n      0x04\n      add\n      tag_237\n      swap1\n      tag_144\n      jump\t// in\n    tag_237:\n      mload(0x40)\n      dup1\n      swap2\n      sub\n      swap1\n      revert\n    tag_236:\n        /* \"YK Prime - Test.sol\":4827:4830  0x0 */\n      0x00\n        /* \"YK Prime - Test.sol\":4807:4831  newOwner != address(0x0) */\n      0xffffffffffffffffffffffffffffffffffffffff\n      and\n        /* \"YK Prime - Test.sol\":4807:4815  newOwner */\n      dup2\n        /* \"YK Prime - Test.sol\":4807:4831  newOwner != address(0x0) */\n      0xffffffffffffffffffffffffffffffffffffffff\n      and\n      sub\n        /* \"YK Prime - Test.sol\":4799:4865  require(newOwner != address(0x0), \"New owner is the zero address\") */\n      tag_239\n      jumpi\n      mload(0x40)\n      0x08c379a000000000000000000000000000000000000000000000000000000000\n      dup2\n      mstore\n      0x04\n      add\n      tag_240\n      swap1\n      tag_241\n      jump\t// in\n    tag_240:\n      mload(0x40)\n      dup1\n      swap2\n      sub\n      swap1\n      revert\n    tag_239:\n        /* \"YK Prime - Test.sol\":4917:4925  newOwner */\n      dup1\n        /* \"YK Prime - Test.sol\":4881:4926  OwnershipTransferred(contractOwner, newOwner) */\n      0xffffffffffffffffffffffffffffffffffffffff\n      and\n        /* \"YK Prime - Test.sol\":4902:4915  contractOwner */\n      0x03\n      0x00\n      swap1\n      sload\n      swap1\n      0x0100\n      exp\n      swap1\n      div\n      0xffffffffffffffffffffffffffffffffffffffff\n      and\n        /* \"YK Prime - Test.sol\":4881:4926  OwnershipTransferred(contractOwner, newOwner) */\n      0xffffffffffffffffffffffffffffffffffffffff\n      and\n      0x8be0079c531659141344cd1fd0a4f28419497f9722a3daafe3b4186f6b6457e0\n      mload(0x40)\n      mload(0x40)\n      dup1\n      swap2\n      sub\n      swap1\n      log3\n        /* \"YK Prime - Test.sol\":4953:4961  newOwner */\n      dup1\n        /* \"YK Prime - Test.sol\":4937:4950  contractOwner */\n      0x03\n      0x00\n        /* \"YK Prime - Test.sol\":4937:4961  contractOwner = newOwner */\n      0x0100\n      exp\n      dup2\n      sload\n      dup2\n      0xffffffffffffffffffffffffffffffffffffffff\n      mul\n      not\n      and\n      swap1\n      dup4\n      0xffffffffffffffffffffffffffffffffffffffff\n      and\n      mul\n      or\n      swap1\n      sstore\n      pop\n        /* \"YK Prime - Test.sol\":4726:4969  function transferOwnership(address newOwner) public onlyOwner {... */\n      pop\n      jump\t// out\n        /* \"YK Prime - Test.sol\":9423:9591  function isContract(address addr) internal view returns (bool) {... */\n    tag_166:\n        /* \"YK Prime - Test.sol\":9480:9484  bool */\n      0x00\n        /* \"YK Prime - Test.sol\":9497:9509  uint256 size */\n      0x00\n        /* \"YK Prime - Test.sol\":9551:9555  addr */\n      dup3\n        /* \"YK Prime - Test.sol\":9539:9556  extcodesize(addr) */\n      extcodesize\n        /* \"YK Prime - Test.sol\":9531:9556  size := extcodesize(addr) */\n      swap1\n      pop\n        /* \"YK Prime - Test.sol\":9582:9583  0 */\n      0x00\n        /* \"YK Prime - Test.sol\":9575:9579  size */\n      dup2\n        /* \"YK Prime - Test.sol\":9575:9583  size > 0 */\n      gt\n        /* \"YK Prime - Test.sol\":9568:9583  return size > 0 */\n      swap2\n      pop\n      pop\n        /* \"YK Prime - Test.sol\":9423:9591  function isContract(address addr) internal view returns (bool) {... */\n      swap2\n      swap1\n      pop\n      jump\t// out\n        /* \"YK Prime - Test.sol\":6959:8254  function _collectFee() internal {... */\n    tag_173:\n        /* \"YK Prime - Test.sol\":7159:7180  transactionFeePercent */\n      sload(0x00)\n        /* \"YK Prime - Test.sol\":7146:7155  msg.value */\n      callvalue\n        /* \"YK Prime - Test.sol\":7146:7180  msg.value >= transactionFeePercent */\n      lt\n      iszero\n        /* \"YK Prime - Test.sol\":7138:7222  require(msg.value >= transactionFeePercent, \"Valor insuficiente de BNB para a taxa\") */\n      tag_244\n      jumpi\n      mload(0x40)\n      0x08c379a000000000000000000000000000000000000000000000000000000000\n      dup2\n      mstore\n      0x04\n      add\n      tag_245\n      swap1\n      tag_246\n      jump\t// in\n    tag_245:\n      mload(0x40)\n      dup1\n      swap2\n      sub\n      swap1\n      revert\n    tag_244:\n        /* \"YK Prime - Test.sol\":7372:7373  0 */\n      0x00\n        /* \"YK Prime - Test.sol\":7348:7369  transactionFeePercent */\n      sload(0x00)\n        /* \"YK Prime - Test.sol\":7348:7373  transactionFeePercent > 0 */\n      gt\n        /* \"YK Prime - Test.sol\":7344:7717  if (transactionFeePercent > 0) {... */\n      iszero\n      tag_247\n      jumpi\n        /* \"YK Prime - Test.sol\":7391:7403  bool success */\n      0x00\n        /* \"YK Prime - Test.sol\":7417:7429  feeRecipient */\n      0x01\n      0x00\n      swap1\n      sload\n      swap1\n      0x0100\n      exp\n      swap1\n      div\n      0xffffffffffffffffffffffffffffffffffffffff\n      and\n        /* \"YK Prime - Test.sol\":7409:7435  payable(feeRecipient).call */\n      0xffffffffffffffffffffffffffffffffffffffff\n      and\n        /* \"YK Prime - Test.sol\":7443:7464  transactionFeePercent */\n      sload(0x00)\n        /* \"YK Prime - Test.sol\":7409:7469  payable(feeRecipient).call{value: transactionFeePercent}(\"\") */\n      mload(0x40)\n      tag_248\n      swap1\n      tag_249\n      jump\t// in\n    tag_248:\n      0x00\n      mload(0x40)\n      dup1\n      dup4\n      sub\n      dup2\n      dup6\n      dup8\n      gas\n      call\n      swap3\n      pop\n      pop\n      pop\n      returndatasize\n      dup1\n      0x00\n      dup2\n      eq\n      tag_252\n      jumpi\n      mload(0x40)\n      swap2\n      pop\n      and(add(returndatasize, 0x3f), not(0x1f))\n      dup3\n      add\n      0x40\n      mstore\n      returndatasize\n      dup3\n      mstore\n      returndatasize\n      0x00\n      0x20\n      dup5\n      add\n      returndatacopy\n      jump(tag_251)\n    tag_252:\n      0x60\n      swap2\n      pop\n    tag_251:\n      pop\n        /* \"YK Prime - Test.sol\":7390:7469  (bool success, ) = payable(feeRecipient).call{value: transactionFeePercent}(\"\") */\n      pop\n      swap1\n      pop\n        /* \"YK Prime - Test.sol\":7492:7499  success */\n      dup1\n        /* \"YK Prime - Test.sol\":7484:7555  require(success, \"Falha na transferencia da taxa BNB para o recebedor\") */\n      tag_253\n      jumpi\n      mload(0x40)\n      0x08c379a000000000000000000000000000000000000000000000000000000000\n      dup2\n      mstore\n      0x04\n      add\n      tag_254\n      swap1\n      tag_255\n      jump\t// in\n    tag_254:\n      mload(0x40)\n      dup1\n      swap2\n      sub\n      swap1\n      revert\n    tag_253:\n        /* \"YK Prime - Test.sol\":7586:7596  msg.sender */\n      caller\n        /* \"YK Prime - Test.sol\":7575:7620  FeeCharged(msg.sender, transactionFeePercent) */\n      0xffffffffffffffffffffffffffffffffffffffff\n      and\n      0x55bb3cade9d43b798a4fe5ffdd05024b2d7870df53920673bfc7e68047cd0ab1\n        /* \"YK Prime - Test.sol\":7598:7619  transactionFeePercent */\n      sload(0x00)\n        /* \"YK Prime - Test.sol\":7575:7620  FeeCharged(msg.sender, transactionFeePercent) */\n      mload(0x40)\n      tag_256\n      swap2\n      swap1\n      tag_51\n      jump\t// in\n    tag_256:\n      mload(0x40)\n      dup1\n      swap2\n      sub\n      swap1\n      log2\n        /* \"YK Prime - Test.sol\":7640:7705  DebugLog(\"Taxa BNB cobrada\", feeRecipient, transactionFeePercent) */\n      0xb515f8464a2e9f92f223836cb4d97889b194249a3f5a6bae6b346c6b0ac8fd55\n        /* \"YK Prime - Test.sol\":7669:7681  feeRecipient */\n      0x01\n      0x00\n      swap1\n      sload\n      swap1\n      0x0100\n      exp\n      swap1\n      div\n      0xffffffffffffffffffffffffffffffffffffffff\n      and\n        /* \"YK Prime - Test.sol\":7683:7704  transactionFeePercent */\n      sload(0x00)\n        /* \"YK Prime - Test.sol\":7640:7705  DebugLog(\"Taxa BNB cobrada\", feeRecipient, transactionFeePercent) */\n      mload(0x40)\n      tag_257\n      swap3\n      swap2\n      swap1\n      tag_258\n      jump\t// in\n    tag_257:\n      mload(0x40)\n      dup1\n      swap2\n      sub\n      swap1\n      log1\n        /* \"YK Prime - Test.sol\":7375:7717  {... */\n      pop\n        /* \"YK Prime - Test.sol\":7344:7717  if (transactionFeePercent > 0) {... */\n    tag_247:\n        /* \"YK Prime - Test.sol\":6959:8254  function _collectFee() internal {... */\n      jump\t// out\n        /* \"YK Prime - Test.sol\":8336:8673  function _transferTokens(address from, address to, uint256 amount) internal {... */\n    tag_175:\n        /* \"YK Prime - Test.sol\":8445:8448  0x0 */\n      0x00\n        /* \"YK Prime - Test.sol\":8431:8449  to != address(0x0) */\n      0xffffffffffffffffffffffffffffffffffffffff\n      and\n        /* \"YK Prime - Test.sol\":8431:8433  to */\n      dup3\n        /* \"YK Prime - Test.sol\":8431:8449  to != address(0x0) */\n      0xffffffffffffffffffffffffffffffffffffffff\n      and\n      sub\n        /* \"YK Prime - Test.sol\":8423:8486  require(to != address(0x0), \"Transferencia para endereco zero\") */\n      tag_260\n      jumpi\n      mload(0x40)\n      0x08c379a000000000000000000000000000000000000000000000000000000000\n      dup2\n      mstore\n      0x04\n      add\n      tag_261\n      swap1\n      tag_262\n      jump\t// in\n    tag_261:\n      mload(0x40)\n      dup1\n      swap2\n      sub\n      swap1\n      revert\n    tag_260:\n        /* \"YK Prime - Test.sol\":8514:8515  0 */\n      0x00\n        /* \"YK Prime - Test.sol\":8505:8511  amount */\n      dup2\n        /* \"YK Prime - Test.sol\":8505:8515  amount > 0 */\n      gt\n        /* \"YK Prime - Test.sol\":8497:8549  require(amount > 0, \"Valor deve ser maior que zero\") */\n      tag_263\n      jumpi\n      mload(0x40)\n      0x08c379a000000000000000000000000000000000000000000000000000000000\n      dup2\n      mstore\n      0x04\n      add\n      tag_264\n      swap1\n      tag_265\n      jump\t// in\n    tag_264:\n      mload(0x40)\n      dup1\n      swap2\n      sub\n      swap1\n      revert\n    tag_263:\n        /* \"YK Prime - Test.sol\":8581:8587  amount */\n      dup1\n        /* \"YK Prime - Test.sol\":8562:8571  _balances */\n      0x04\n        /* \"YK Prime - Test.sol\":8562:8577  _balances[from] */\n      0x00\n        /* \"YK Prime - Test.sol\":8572:8576  from */\n      dup6\n        /* \"YK Prime - Test.sol\":8562:8577  _balances[from] */\n      0xffffffffffffffffffffffffffffffffffffffff\n      and\n      0xffffffffffffffffffffffffffffffffffffffff\n      and\n      dup2\n      mstore\n      0x20\n      add\n      swap1\n      dup2\n      mstore\n      0x20\n      add\n      0x00\n      keccak256\n      0x00\n        /* \"YK Prime - Test.sol\":8562:8587  _balances[from] -= amount */\n      dup3\n      dup3\n      sload\n      tag_266\n      swap2\n      swap1\n      tag_171\n      jump\t// in\n    tag_266:\n      swap3\n      pop\n      pop\n      dup2\n      swap1\n      sstore\n      pop\n        /* \"YK Prime - Test.sol\":8615:8621  amount */\n      dup1\n        /* \"YK Prime - Test.sol\":8598:8607  _balances */\n      0x04\n        /* \"YK Prime - Test.sol\":8598:8611  _balances[to] */\n      0x00\n        /* \"YK Prime - Test.sol\":8608:8610  to */\n      dup5\n        /* \"YK Prime - Test.sol\":8598:8611  _balances[to] */\n      0xffffffffffffffffffffffffffffffffffffffff\n      and\n      0xffffffffffffffffffffffffffffffffffffffff\n      and\n      dup2\n      mstore\n      0x20\n      add\n      swap1\n      dup2\n      mstore\n      0x20\n      add\n      0x00\n      keccak256\n      0x00\n        /* \"YK Prime - Test.sol\":8598:8621  _balances[to] += amount */\n      dup3\n      dup3\n      sload\n      tag_267\n      swap2\n      swap1\n      tag_268\n      jump\t// in\n    tag_267:\n      swap3\n      pop\n      pop\n      dup2\n      swap1\n      sstore\n      pop\n        /* \"YK Prime - Test.sol\":8654:8656  to */\n      dup2\n        /* \"YK Prime - Test.sol\":8639:8665  Transfer(from, to, amount) */\n      0xffffffffffffffffffffffffffffffffffffffff\n      and\n        /* \"YK Prime - Test.sol\":8648:8652  from */\n      dup4\n        /* \"YK Prime - Test.sol\":8639:8665  Transfer(from, to, amount) */\n      0xffffffffffffffffffffffffffffffffffffffff\n      and\n      0xddf252ad1be2c89b69c2b068fc378daa952ba7f163c4a11628f55a4df523b3ef\n        /* \"YK Prime - Test.sol\":8658:8664  amount */\n      dup4\n        /* \"YK Prime - Test.sol\":8639:8665  Transfer(from, to, amount) */\n      mload(0x40)\n      tag_269\n      swap2\n      swap1\n      tag_51\n      jump\t// in\n    tag_269:\n      mload(0x40)\n      dup1\n      swap2\n      sub\n      swap1\n      log3\n        /* \"YK Prime - Test.sol\":8336:8673  function _transferTokens(address from, address to, uint256 amount) internal {... */\n      pop\n      pop\n      pop\n      jump\t// out\n        /* \"#utility.yul\":7:176   */\n    tag_270:\n        /* \"#utility.yul\":91:102   */\n      0x00\n        /* \"#utility.yul\":125:131   */\n      dup3\n        /* \"#utility.yul\":120:123   */\n      dup3\n        /* \"#utility.yul\":113:132   */\n      mstore\n        /* \"#utility.yul\":165:169   */\n      0x20\n        /* \"#utility.yul\":160:163   */\n      dup3\n        /* \"#utility.yul\":156:170   */\n      add\n        /* \"#utility.yul\":141:170   */\n      swap1\n      pop\n        /* \"#utility.yul\":7:176   */\n      swap3\n      swap2\n      pop\n      pop\n      jump\t// out\n        /* \"#utility.yul\":182:478   */\n    tag_271:\n        /* \"#utility.yul\":322:356   */\n      0x456e76696520424e42206170656e6173206a756e746f20636f6d20756d612074\n        /* \"#utility.yul\":318:319   */\n      0x00\n        /* \"#utility.yul\":310:316   */\n      dup3\n        /* \"#utility.yul\":306:320   */\n      add\n        /* \"#utility.yul\":299:357   */\n      mstore\n        /* \"#utility.yul\":391:425   */\n      0x72616e73666572656e63696120646520746f6b656e2070617261207061676172\n        /* \"#utility.yul\":386:388   */\n      0x20\n        /* \"#utility.yul\":378:384   */\n      dup3\n        /* \"#utility.yul\":374:389   */\n      add\n        /* \"#utility.yul\":367:426   */\n      mstore\n        /* \"#utility.yul\":460:470   */\n      0x206120746178612e000000000000000000000000000000000000000000000000\n        /* \"#utility.yul\":455:457   */\n      0x40\n        /* \"#utility.yul\":447:453   */\n      dup3\n        /* \"#utility.yul\":443:458   */\n      add\n        /* \"#utility.yul\":436:471   */\n      mstore\n        /* \"#utility.yul\":182:478   */\n      pop\n      jump\t// out\n        /* \"#utility.yul\":484:850   */\n    tag_272:\n        /* \"#utility.yul\":626:629   */\n      0x00\n        /* \"#utility.yul\":647:714   */\n      tag_365\n        /* \"#utility.yul\":711:713   */\n      0x48\n        /* \"#utility.yul\":706:709   */\n      dup4\n        /* \"#utility.yul\":647:714   */\n      tag_270\n      jump\t// in\n    tag_365:\n        /* \"#utility.yul\":640:714   */\n      swap2\n      pop\n        /* \"#utility.yul\":723:816   */\n      tag_366\n        /* \"#utility.yul\":812:815   */\n      dup3\n        /* \"#utility.yul\":723:816   */\n      tag_271\n      jump\t// in\n    tag_366:\n        /* \"#utility.yul\":841:843   */\n      0x60\n        /* \"#utility.yul\":836:839   */\n      dup3\n        /* \"#utility.yul\":832:844   */\n      add\n        /* \"#utility.yul\":825:844   */\n      swap1\n      pop\n        /* \"#utility.yul\":484:850   */\n      swap2\n      swap1\n      pop\n      jump\t// out\n        /* \"#utility.yul\":856:1275   */\n    tag_31:\n        /* \"#utility.yul\":1022:1026   */\n      0x00\n        /* \"#utility.yul\":1060:1062   */\n      0x20\n        /* \"#utility.yul\":1049:1058   */\n      dup3\n        /* \"#utility.yul\":1045:1063   */\n      add\n        /* \"#utility.yul\":1037:1063   */\n      swap1\n      pop\n        /* \"#utility.yul\":1109:1118   */\n      dup2\n        /* \"#utility.yul\":1103:1107   */\n      dup2\n        /* \"#utility.yul\":1099:1119   */\n      sub\n        /* \"#utility.yul\":1095:1096   */\n      0x00\n        /* \"#utility.yul\":1084:1093   */\n      dup4\n        /* \"#utility.yul\":1080:1097   */\n      add\n        /* \"#utility.yul\":1073:1120   */\n      mstore\n        /* \"#utility.yul\":1137:1268   */\n      tag_368\n        /* \"#utility.yul\":1263:1267   */\n      dup2\n        /* \"#utility.yul\":1137:1268   */\n      tag_272\n      jump\t// in\n    tag_368:\n        /* \"#utility.yul\":1129:1268   */\n      swap1\n      pop\n        /* \"#utility.yul\":856:1275   */\n      swap2\n      swap1\n      pop\n      jump\t// out\n        /* \"#utility.yul\":1281:1380   */\n    tag_273:\n        /* \"#utility.yul\":1333:1339   */\n      0x00\n        /* \"#utility.yul\":1367:1372   */\n      dup2\n        /* \"#utility.yul\":1361:1373   */\n      mload\n        /* \"#utility.yul\":1351:1373   */\n      swap1\n      pop\n        /* \"#utility.yul\":1281:1380   */\n      swap2\n      swap1\n      pop\n      jump\t// out\n        /* \"#utility.yul\":1386:1525   */\n    tag_274:\n        /* \"#utility.yul\":1475:1481   */\n      dup3\n        /* \"#utility.yul\":1470:1473   */\n      dup2\n        /* \"#utility.yul\":1465:1468   */\n      dup4\n        /* \"#utility.yul\":1459:1482   */\n      mcopy\n        /* \"#utility.yul\":1516:1517   */\n      0x00\n        /* \"#utility.yul\":1507:1513   */\n      dup4\n        /* \"#utility.yul\":1502:1505   */\n      dup4\n        /* \"#utility.yul\":1498:1514   */\n      add\n        /* \"#utility.yul\":1491:1518   */\n      mstore\n        /* \"#utility.yul\":1386:1525   */\n      pop\n      pop\n      pop\n      jump\t// out\n        /* \"#utility.yul\":1531:1633   */\n    tag_275:\n        /* \"#utility.yul\":1572:1578   */\n      0x00\n        /* \"#utility.yul\":1623:1625   */\n      0x1f\n        /* \"#utility.yul\":1619:1626   */\n      not\n        /* \"#utility.yul\":1614:1616   */\n      0x1f\n        /* \"#utility.yul\":1607:1612   */\n      dup4\n        /* \"#utility.yul\":1603:1617   */\n      add\n        /* \"#utility.yul\":1599:1627   */\n      and\n        /* \"#utility.yul\":1589:1627   */\n      swap1\n      pop\n        /* \"#utility.yul\":1531:1633   */\n      swap2\n      swap1\n      pop\n      jump\t// out\n        /* \"#utility.yul\":1639:2016   */\n    tag_276:\n        /* \"#utility.yul\":1727:1730   */\n      0x00\n        /* \"#utility.yul\":1755:1794   */\n      tag_373\n        /* \"#utility.yul\":1788:1793   */\n      dup3\n        /* \"#utility.yul\":1755:1794   */\n      tag_273\n      jump\t// in\n    tag_373:\n        /* \"#utility.yul\":1810:1881   */\n      tag_374\n        /* \"#utility.yul\":1874:1880   */\n      dup2\n        /* \"#utility.yul\":1869:1872   */\n      dup6\n        /* \"#utility.yul\":1810:1881   */\n      tag_270\n      jump\t// in\n    tag_374:\n        /* \"#utility.yul\":1803:1881   */\n      swap4\n      pop\n        /* \"#utility.yul\":1890:1955   */\n      tag_375\n        /* \"#utility.yul\":1948:1954   */\n      dup2\n        /* \"#utility.yul\":1943:1946   */\n      dup6\n        /* \"#utility.yul\":1936:1940   */\n      0x20\n        /* \"#utility.yul\":1929:1934   */\n      dup7\n        /* \"#utility.yul\":1925:1941   */\n      add\n        /* \"#utility.yul\":1890:1955   */\n      tag_274\n      jump\t// in\n    tag_375:\n        /* \"#utility.yul\":1980:2009   */\n      tag_376\n        /* \"#utility.yul\":2002:2008   */\n      dup2\n        /* \"#utility.yul\":1980:2009   */\n      tag_275\n      jump\t// in\n    tag_376:\n        /* \"#utility.yul\":1975:1978   */\n      dup5\n        /* \"#utility.yul\":1971:2010   */\n      add\n        /* \"#utility.yul\":1964:2010   */\n      swap2\n      pop\n        /* \"#utility.yul\":1731:2016   */\n      pop\n        /* \"#utility.yul\":1639:2016   */\n      swap3\n      swap2\n      pop\n      pop\n      jump\t// out\n        /* \"#utility.yul\":2022:2335   */\n    tag_36:\n        /* \"#utility.yul\":2135:2139   */\n      0x00\n        /* \"#utility.yul\":2173:2175   */\n      0x20\n        /* \"#utility.yul\":2162:2171   */\n      dup3\n        /* \"#utility.yul\":2158:2176   */\n      add\n        /* \"#utility.yul\":2150:2176   */\n      swap1\n      pop\n        /* \"#utility.yul\":2222:2231   */\n      dup2\n        /* \"#utility.yul\":2216:2220   */\n      dup2\n        /* \"#utility.yul\":2212:2232   */\n      sub\n        /* \"#utility.yul\":2208:2209   */\n      0x00\n        /* \"#utility.yul\":2197:2206   */\n      dup4\n        /* \"#utility.yul\":2193:2210   */\n      add\n        /* \"#utility.yul\":2186:2233   */\n      mstore\n        /* \"#utility.yul\":2250:2328   */\n      tag_378\n        /* \"#utility.yul\":2323:2327   */\n      dup2\n        /* \"#utility.yul\":2314:2320   */\n      dup5\n        /* \"#utility.yul\":2250:2328   */\n      tag_276\n      jump\t// in\n    tag_378:\n        /* \"#utility.yul\":2242:2328   */\n      swap1\n      pop\n        /* \"#utility.yul\":2022:2335   */\n      swap3\n      swap2\n      pop\n      pop\n      jump\t// out\n        /* \"#utility.yul\":2341:2416   */\n    tag_277:\n        /* \"#utility.yul\":2374:2380   */\n      0x00\n        /* \"#utility.yul\":2407:2409   */\n      0x40\n        /* \"#utility.yul\":2401:2410   */\n      mload\n        /* \"#utility.yul\":2391:2410   */\n      swap1\n      pop\n        /* \"#utility.yul\":2341:2416   */\n      swap1\n      jump\t// out\n        /* \"#utility.yul\":2422:2539   */\n    tag_278:\n        /* \"#utility.yul\":2531:2532   */\n      0x00\n        /* \"#utility.yul\":2528:2529   */\n      0x00\n        /* \"#utility.yul\":2521:2533   */\n      revert\n        /* \"#utility.yul\":2545:2662   */\n    tag_279:\n        /* \"#utility.yul\":2654:2655   */\n      0x00\n        /* \"#utility.yul\":2651:2652   */\n      0x00\n        /* \"#utility.yul\":2644:2656   */\n      revert\n        /* \"#utility.yul\":2668:2794   */\n    tag_280:\n        /* \"#utility.yul\":2705:2712   */\n      0x00\n        /* \"#utility.yul\":2745:2787   */\n      0xffffffffffffffffffffffffffffffffffffffff\n        /* \"#utility.yul\":2738:2743   */\n      dup3\n        /* \"#utility.yul\":2734:2788   */\n      and\n        /* \"#utility.yul\":2723:2788   */\n      swap1\n      pop\n        /* \"#utility.yul\":2668:2794   */\n      swap2\n      swap1\n      pop\n      jump\t// out\n        /* \"#utility.yul\":2800:2896   */\n    tag_281:\n        /* \"#utility.yul\":2837:2844   */\n      0x00\n        /* \"#utility.yul\":2866:2890   */\n      tag_384\n        /* \"#utility.yul\":2884:2889   */\n      dup3\n        /* \"#utility.yul\":2866:2890   */\n      tag_280\n      jump\t// in\n    tag_384:\n        /* \"#utility.yul\":2855:2890   */\n      swap1\n      pop\n        /* \"#utility.yul\":2800:2896   */\n      swap2\n      swap1\n      pop\n      jump\t// out\n        /* \"#utility.yul\":2902:3024   */\n    tag_282:\n        /* \"#utility.yul\":2975:2999   */\n      tag_386\n        /* \"#utility.yul\":2993:2998   */\n      dup2\n        /* \"#utility.yul\":2975:2999   */\n      tag_281\n      jump\t// in\n    tag_386:\n        /* \"#utility.yul\":2968:2973   */\n      dup2\n        /* \"#utility.yul\":2965:3000   */\n      eq\n        /* \"#utility.yul\":2955:3018   */\n      tag_387\n      jumpi\n        /* \"#utility.yul\":3014:3015   */\n      0x00\n        /* \"#utility.yul\":3011:3012   */\n      0x00\n        /* \"#utility.yul\":3004:3016   */\n      revert\n        /* \"#utility.yul\":2955:3018   */\n    tag_387:\n        /* \"#utility.yul\":2902:3024   */\n      pop\n      jump\t// out\n        /* \"#utility.yul\":3030:3169   */\n    tag_283:\n        /* \"#utility.yul\":3076:3081   */\n      0x00\n        /* \"#utility.yul\":3114:3120   */\n      dup2\n        /* \"#utility.yul\":3101:3121   */\n      calldataload\n        /* \"#utility.yul\":3092:3121   */\n      swap1\n      pop\n        /* \"#utility.yul\":3130:3163   */\n      tag_389\n        /* \"#utility.yul\":3157:3162   */\n      dup2\n        /* \"#utility.yul\":3130:3163   */\n      tag_282\n      jump\t// in\n    tag_389:\n        /* \"#utility.yul\":3030:3169   */\n      swap3\n      swap2\n      pop\n      pop\n      jump\t// out\n        /* \"#utility.yul\":3175:3252   */\n    tag_284:\n        /* \"#utility.yul\":3212:3219   */\n      0x00\n        /* \"#utility.yul\":3241:3246   */\n      dup2\n        /* \"#utility.yul\":3230:3246   */\n      swap1\n      pop\n        /* \"#utility.yul\":3175:3252   */\n      swap2\n      swap1\n      pop\n      jump\t// out\n        /* \"#utility.yul\":3258:3380   */\n    tag_285:\n        /* \"#utility.yul\":3331:3355   */\n      tag_392\n        /* \"#utility.yul\":3349:3354   */\n      dup2\n        /* \"#utility.yul\":3331:3355   */\n      tag_284\n      jump\t// in\n    tag_392:\n        /* \"#utility.yul\":3324:3329   */\n      dup2\n        /* \"#utility.yul\":3321:3356   */\n      eq\n        /* \"#utility.yul\":3311:3374   */\n      tag_393\n      jumpi\n        /* \"#utility.yul\":3370:3371   */\n      0x00\n        /* \"#utility.yul\":3367:3368   */\n      0x00\n        /* \"#utility.yul\":3360:3372   */\n      revert\n        /* \"#utility.yul\":3311:3374   */\n    tag_393:\n        /* \"#utility.yul\":3258:3380   */\n      pop\n      jump\t// out\n        /* \"#utility.yul\":3386:3525   */\n    tag_286:\n        /* \"#utility.yul\":3432:3437   */\n      0x00\n        /* \"#utility.yul\":3470:3476   */\n      dup2\n        /* \"#utility.yul\":3457:3477   */\n      calldataload\n        /* \"#utility.yul\":3448:3477   */\n      swap1\n      pop\n        /* \"#utility.yul\":3486:3519   */\n      tag_395\n        /* \"#utility.yul\":3513:3518   */\n      dup2\n        /* \"#utility.yul\":3486:3519   */\n      tag_285\n      jump\t// in\n    tag_395:\n        /* \"#utility.yul\":3386:3525   */\n      swap3\n      swap2\n      pop\n      pop\n      jump\t// out\n        /* \"#utility.yul\":3531:4005   */\n    tag_40:\n        /* \"#utility.yul\":3599:3605   */\n      0x00\n        /* \"#utility.yul\":3607:3613   */\n      0x00\n        /* \"#utility.yul\":3656:3658   */\n      0x40\n        /* \"#utility.yul\":3644:3653   */\n      dup4\n        /* \"#utility.yul\":3635:3642   */\n      dup6\n        /* \"#utility.yul\":3631:3654   */\n      sub\n        /* \"#utility.yul\":3627:3659   */\n      slt\n        /* \"#utility.yul\":3624:3743   */\n      iszero\n      tag_397\n      jumpi\n        /* \"#utility.yul\":3662:3741   */\n      tag_398\n      tag_278\n      jump\t// in\n    tag_398:\n        /* \"#utility.yul\":3624:3743   */\n    tag_397:\n        /* \"#utility.yul\":3782:3783   */\n      0x00\n        /* \"#utility.yul\":3807:3860   */\n      tag_399\n        /* \"#utility.yul\":3852:3859   */\n      dup6\n        /* \"#utility.yul\":3843:3849   */\n      dup3\n        /* \"#utility.yul\":3832:3841   */\n      dup7\n        /* \"#utility.yul\":3828:3850   */\n      add\n        /* \"#utility.yul\":3807:3860   */\n      tag_283\n      jump\t// in\n    tag_399:\n        /* \"#utility.yul\":3797:3860   */\n      swap3\n      pop\n        /* \"#utility.yul\":3753:3870   */\n      pop\n        /* \"#utility.yul\":3909:3911   */\n      0x20\n        /* \"#utility.yul\":3935:3988   */\n      tag_400\n        /* \"#utility.yul\":3980:3987   */\n      dup6\n        /* \"#utility.yul\":3971:3977   */\n      dup3\n        /* \"#utility.yul\":3960:3969   */\n      dup7\n        /* \"#utility.yul\":3956:3978   */\n      add\n        /* \"#utility.yul\":3935:3988   */\n      tag_286\n      jump\t// in\n    tag_400:\n        /* \"#utility.yul\":3925:3988   */\n      swap2\n      pop\n        /* \"#utility.yul\":3880:3998   */\n      pop\n        /* \"#utility.yul\":3531:4005   */\n      swap3\n      pop\n      swap3\n      swap1\n      pop\n      jump\t// out\n        /* \"#utility.yul\":4011:4101   */\n    tag_287:\n        /* \"#utility.yul\":4045:4052   */\n      0x00\n        /* \"#utility.yul\":4088:4093   */\n      dup2\n        /* \"#utility.yul\":4081:4094   */\n      iszero\n        /* \"#utility.yul\":4074:4095   */\n      iszero\n        /* \"#utility.yul\":4063:4095   */\n      swap1\n      pop\n        /* \"#utility.yul\":4011:4101   */\n      swap2\n      swap1\n      pop\n      jump\t// out\n        /* \"#utility.yul\":4107:4216   */\n    tag_288:\n        /* \"#utility.yul\":4188:4209   */\n      tag_403\n        /* \"#utility.yul\":4203:4208   */\n      dup2\n        /* \"#utility.yul\":4188:4209   */\n      tag_287\n      jump\t// in\n    tag_403:\n        /* \"#utility.yul\":4183:4186   */\n      dup3\n        /* \"#utility.yul\":4176:4210   */\n      mstore\n        /* \"#utility.yul\":4107:4216   */\n      pop\n      pop\n      jump\t// out\n        /* \"#utility.yul\":4222:4432   */\n    tag_43:\n        /* \"#utility.yul\":4309:4313   */\n      0x00\n        /* \"#utility.yul\":4347:4349   */\n      0x20\n        /* \"#utility.yul\":4336:4345   */\n      dup3\n        /* \"#utility.yul\":4332:4350   */\n      add\n        /* \"#utility.yul\":4324:4350   */\n      swap1\n      pop\n        /* \"#utility.yul\":4360:4425   */\n      tag_405\n        /* \"#utility.yul\":4422:4423   */\n      0x00\n        /* \"#utility.yul\":4411:4420   */\n      dup4\n        /* \"#utility.yul\":4407:4424   */\n      add\n        /* \"#utility.yul\":4398:4404   */\n      dup5\n        /* \"#utility.yul\":4360:4425   */\n      tag_288\n      jump\t// in\n    tag_405:\n        /* \"#utility.yul\":4222:4432   */\n      swap3\n      swap2\n      pop\n      pop\n      jump\t// out\n        /* \"#utility.yul\":4438:4556   */\n    tag_289:\n        /* \"#utility.yul\":4525:4549   */\n      tag_407\n        /* \"#utility.yul\":4543:4548   */\n      dup2\n        /* \"#utility.yul\":4525:4549   */\n      tag_284\n      jump\t// in\n    tag_407:\n        /* \"#utility.yul\":4520:4523   */\n      dup3\n        /* \"#utility.yul\":4513:4550   */\n      mstore\n        /* \"#utility.yul\":4438:4556   */\n      pop\n      pop\n      jump\t// out\n        /* \"#utility.yul\":4562:4784   */\n    tag_51:\n        /* \"#utility.yul\":4655:4659   */\n      0x00\n        /* \"#utility.yul\":4693:4695   */\n      0x20\n        /* \"#utility.yul\":4682:4691   */\n      dup3\n        /* \"#utility.yul\":4678:4696   */\n      add\n        /* \"#utility.yul\":4670:4696   */\n      swap1\n      pop\n        /* \"#utility.yul\":4706:4777   */\n      tag_409\n        /* \"#utility.yul\":4774:4775   */\n      0x00\n        /* \"#utility.yul\":4763:4772   */\n      dup4\n        /* \"#utility.yul\":4759:4776   */\n      add\n        /* \"#utility.yul\":4750:4756   */\n      dup5\n        /* \"#utility.yul\":4706:4777   */\n      tag_289\n      jump\t// in\n    tag_409:\n        /* \"#utility.yul\":4562:4784   */\n      swap3\n      swap2\n      pop\n      pop\n      jump\t// out\n        /* \"#utility.yul\":4790:5409   */\n    tag_62:\n        /* \"#utility.yul\":4867:4873   */\n      0x00\n        /* \"#utility.yul\":4875:4881   */\n      0x00\n        /* \"#utility.yul\":4883:4889   */\n      0x00\n        /* \"#utility.yul\":4932:4934   */\n      0x60\n        /* \"#utility.yul\":4920:4929   */\n      dup5\n        /* \"#utility.yul\":4911:4918   */\n      dup7\n        /* \"#utility.yul\":4907:4930   */\n      sub\n        /* \"#utility.yul\":4903:4935   */\n      slt\n        /* \"#utility.yul\":4900:5019   */\n      iszero\n      tag_411\n      jumpi\n        /* \"#utility.yul\":4938:5017   */\n      tag_412\n      tag_278\n      jump\t// in\n    tag_412:\n        /* \"#utility.yul\":4900:5019   */\n    tag_411:\n        /* \"#utility.yul\":5058:5059   */\n      0x00\n        /* \"#utility.yul\":5083:5136   */\n      tag_413\n        /* \"#utility.yul\":5128:5135   */\n      dup7\n        /* \"#utility.yul\":5119:5125   */\n      dup3\n        /* \"#utility.yul\":5108:5117   */\n      dup8\n        /* \"#utility.yul\":5104:5126   */\n      add\n        /* \"#utility.yul\":5083:5136   */\n      tag_283\n      jump\t// in\n    tag_413:\n        /* \"#utility.yul\":5073:5136   */\n      swap4\n      pop\n        /* \"#utility.yul\":5029:5146   */\n      pop\n        /* \"#utility.yul\":5185:5187   */\n      0x20\n        /* \"#utility.yul\":5211:5264   */\n      tag_414\n        /* \"#utility.yul\":5256:5263   */\n      dup7\n        /* \"#utility.yul\":5247:5253   */\n      dup3\n        /* \"#utility.yul\":5236:5245   */\n      dup8\n        /* \"#utility.yul\":5232:5254   */\n      add\n        /* \"#utility.yul\":5211:5264   */\n      tag_283\n      jump\t// in\n    tag_414:\n        /* \"#utility.yul\":5201:5264   */\n      swap3\n      pop\n        /* \"#utility.yul\":5156:5274   */\n      pop\n        /* \"#utility.yul\":5313:5315   */\n      0x40\n        /* \"#utility.yul\":5339:5392   */\n      tag_415\n        /* \"#utility.yul\":5384:5391   */\n      dup7\n        /* \"#utility.yul\":5375:5381   */\n      dup3\n        /* \"#utility.yul\":5364:5373   */\n      dup8\n        /* \"#utility.yul\":5360:5382   */\n      add\n        /* \"#utility.yul\":5339:5392   */\n      tag_286\n      jump\t// in\n    tag_415:\n        /* \"#utility.yul\":5329:5392   */\n      swap2\n      pop\n        /* \"#utility.yul\":5284:5402   */\n      pop\n        /* \"#utility.yul\":4790:5409   */\n      swap3\n      pop\n      swap3\n      pop\n      swap3\n      jump\t// out\n        /* \"#utility.yul\":5415:5501   */\n    tag_290:\n        /* \"#utility.yul\":5450:5457   */\n      0x00\n        /* \"#utility.yul\":5490:5494   */\n      0xff\n        /* \"#utility.yul\":5483:5488   */\n      dup3\n        /* \"#utility.yul\":5479:5495   */\n      and\n        /* \"#utility.yul\":5468:5495   */\n      swap1\n      pop\n        /* \"#utility.yul\":5415:5501   */\n      swap2\n      swap1\n      pop\n      jump\t// out\n        /* \"#utility.yul\":5507:5619   */\n    tag_291:\n        /* \"#utility.yul\":5590:5612   */\n      tag_418\n        /* \"#utility.yul\":5606:5611   */\n      dup2\n        /* \"#utility.yul\":5590:5612   */\n      tag_290\n      jump\t// in\n    tag_418:\n        /* \"#utility.yul\":5585:5588   */\n      dup3\n        /* \"#utility.yul\":5578:5613   */\n      mstore\n        /* \"#utility.yul\":5507:5619   */\n      pop\n      pop\n      jump\t// out\n        /* \"#utility.yul\":5625:5839   */\n    tag_69:\n        /* \"#utility.yul\":5714:5718   */\n      0x00\n        /* \"#utility.yul\":5752:5754   */\n      0x20\n        /* \"#utility.yul\":5741:5750   */\n      dup3\n        /* \"#utility.yul\":5737:5755   */\n      add\n        /* \"#utility.yul\":5729:5755   */\n      swap1\n      pop\n        /* \"#utility.yul\":5765:5832   */\n      tag_420\n        /* \"#utility.yul\":5829:5830   */\n      0x00\n        /* \"#utility.yul\":5818:5827   */\n      dup4\n        /* \"#utility.yul\":5814:5831   */\n      add\n        /* \"#utility.yul\":5805:5811   */\n      dup5\n        /* \"#utility.yul\":5765:5832   */\n      tag_291\n      jump\t// in\n    tag_420:\n        /* \"#utility.yul\":5625:5839   */\n      swap3\n      swap2\n      pop\n      pop\n      jump\t// out\n        /* \"#utility.yul\":5845:5963   */\n    tag_292:\n        /* \"#utility.yul\":5932:5956   */\n      tag_422\n        /* \"#utility.yul\":5950:5955   */\n      dup2\n        /* \"#utility.yul\":5932:5956   */\n      tag_281\n      jump\t// in\n    tag_422:\n        /* \"#utility.yul\":5927:5930   */\n      dup3\n        /* \"#utility.yul\":5920:5957   */\n      mstore\n        /* \"#utility.yul\":5845:5963   */\n      pop\n      pop\n      jump\t// out\n        /* \"#utility.yul\":5969:6191   */\n    tag_77:\n        /* \"#utility.yul\":6062:6066   */\n      0x00\n        /* \"#utility.yul\":6100:6102   */\n      0x20\n        /* \"#utility.yul\":6089:6098   */\n      dup3\n        /* \"#utility.yul\":6085:6103   */\n      add\n        /* \"#utility.yul\":6077:6103   */\n      swap1\n      pop\n        /* \"#utility.yul\":6113:6184   */\n      tag_424\n        /* \"#utility.yul\":6181:6182   */\n      0x00\n        /* \"#utility.yul\":6170:6179   */\n      dup4\n        /* \"#utility.yul\":6166:6183   */\n      add\n        /* \"#utility.yul\":6157:6163   */\n      dup5\n        /* \"#utility.yul\":6113:6184   */\n      tag_292\n      jump\t// in\n    tag_424:\n        /* \"#utility.yul\":5969:6191   */\n      swap3\n      swap2\n      pop\n      pop\n      jump\t// out\n        /* \"#utility.yul\":6197:6526   */\n    tag_89:\n        /* \"#utility.yul\":6256:6262   */\n      0x00\n        /* \"#utility.yul\":6305:6307   */\n      0x20\n        /* \"#utility.yul\":6293:6302   */\n      dup3\n        /* \"#utility.yul\":6284:6291   */\n      dup5\n        /* \"#utility.yul\":6280:6303   */\n      sub\n        /* \"#utility.yul\":6276:6308   */\n      slt\n        /* \"#utility.yul\":6273:6392   */\n      iszero\n      tag_426\n      jumpi\n        /* \"#utility.yul\":6311:6390   */\n      tag_427\n      tag_278\n      jump\t// in\n    tag_427:\n        /* \"#utility.yul\":6273:6392   */\n    tag_426:\n        /* \"#utility.yul\":6431:6432   */\n      0x00\n        /* \"#utility.yul\":6456:6509   */\n      tag_428\n        /* \"#utility.yul\":6501:6508   */\n      dup5\n        /* \"#utility.yul\":6492:6498   */\n      dup3\n        /* \"#utility.yul\":6481:6490   */\n      dup6\n        /* \"#utility.yul\":6477:6499   */\n      add\n        /* \"#utility.yul\":6456:6509   */\n      tag_283\n      jump\t// in\n    tag_428:\n        /* \"#utility.yul\":6446:6509   */\n      swap2\n      pop\n        /* \"#utility.yul\":6402:6519   */\n      pop\n        /* \"#utility.yul\":6197:6526   */\n      swap3\n      swap2\n      pop\n      pop\n      jump\t// out\n        /* \"#utility.yul\":6532:6649   */\n    tag_293:\n        /* \"#utility.yul\":6641:6642   */\n      0x00\n        /* \"#utility.yul\":6638:6639   */\n      0x00\n        /* \"#utility.yul\":6631:6643   */\n      revert\n        /* \"#utility.yul\":6655:6772   */\n    tag_294:\n        /* \"#utility.yul\":6764:6765   */\n      0x00\n        /* \"#utility.yul\":6761:6762   */\n      0x00\n        /* \"#utility.yul\":6754:6766   */\n      revert\n        /* \"#utility.yul\":6778:6958   */\n    tag_295:\n        /* \"#utility.yul\":6826:6903   */\n      0x4e487b7100000000000000000000000000000000000000000000000000000000\n        /* \"#utility.yul\":6823:6824   */\n      0x00\n        /* \"#utility.yul\":6816:6904   */\n      mstore\n        /* \"#utility.yul\":6923:6927   */\n      0x41\n        /* \"#utility.yul\":6920:6921   */\n      0x04\n        /* \"#utility.yul\":6913:6928   */\n      mstore\n        /* \"#utility.yul\":6947:6951   */\n      0x24\n        /* \"#utility.yul\":6944:6945   */\n      0x00\n        /* \"#utility.yul\":6937:6952   */\n      revert\n        /* \"#utility.yul\":6964:7245   */\n    tag_296:\n        /* \"#utility.yul\":7047:7074   */\n      tag_433\n        /* \"#utility.yul\":7069:7073   */\n      dup3\n        /* \"#utility.yul\":7047:7074   */\n      tag_275\n      jump\t// in\n    tag_433:\n        /* \"#utility.yul\":7039:7045   */\n      dup2\n        /* \"#utility.yul\":7035:7075   */\n      add\n        /* \"#utility.yul\":7177:7183   */\n      dup2\n        /* \"#utility.yul\":7165:7175   */\n      dup2\n        /* \"#utility.yul\":7162:7184   */\n      lt\n        /* \"#utility.yul\":7141:7159   */\n      0xffffffffffffffff\n        /* \"#utility.yul\":7129:7139   */\n      dup3\n        /* \"#utility.yul\":7126:7160   */\n      gt\n        /* \"#utility.yul\":7123:7185   */\n      or\n        /* \"#utility.yul\":7120:7208   */\n      iszero\n      tag_434\n      jumpi\n        /* \"#utility.yul\":7188:7206   */\n      tag_435\n      tag_295\n      jump\t// in\n    tag_435:\n        /* \"#utility.yul\":7120:7208   */\n    tag_434:\n        /* \"#utility.yul\":7228:7238   */\n      dup1\n        /* \"#utility.yul\":7224:7226   */\n      0x40\n        /* \"#utility.yul\":7217:7239   */\n      mstore\n        /* \"#utility.yul\":7007:7245   */\n      pop\n        /* \"#utility.yul\":6964:7245   */\n      pop\n      pop\n      jump\t// out\n        /* \"#utility.yul\":7251:7380   */\n    tag_297:\n        /* \"#utility.yul\":7285:7291   */\n      0x00\n        /* \"#utility.yul\":7312:7332   */\n      tag_437\n      tag_277\n      jump\t// in\n    tag_437:\n        /* \"#utility.yul\":7302:7332   */\n      swap1\n      pop\n        /* \"#utility.yul\":7341:7374   */\n      tag_438\n        /* \"#utility.yul\":7369:7373   */\n      dup3\n        /* \"#utility.yul\":7361:7367   */\n      dup3\n        /* \"#utility.yul\":7341:7374   */\n      tag_296\n      jump\t// in\n    tag_438:\n        /* \"#utility.yul\":7251:7380   */\n      swap2\n      swap1\n      pop\n      jump\t// out\n        /* \"#utility.yul\":7386:7694   */\n    tag_298:\n        /* \"#utility.yul\":7448:7452   */\n      0x00\n        /* \"#utility.yul\":7538:7556   */\n      0xffffffffffffffff\n        /* \"#utility.yul\":7530:7536   */\n      dup3\n        /* \"#utility.yul\":7527:7557   */\n      gt\n        /* \"#utility.yul\":7524:7580   */\n      iszero\n      tag_440\n      jumpi\n        /* \"#utility.yul\":7560:7578   */\n      tag_441\n      tag_295\n      jump\t// in\n    tag_441:\n        /* \"#utility.yul\":7524:7580   */\n    tag_440:\n        /* \"#utility.yul\":7598:7627   */\n      tag_442\n        /* \"#utility.yul\":7620:7626   */\n      dup3\n        /* \"#utility.yul\":7598:7627   */\n      tag_275\n      jump\t// in\n    tag_442:\n        /* \"#utility.yul\":7590:7627   */\n      swap1\n      pop\n        /* \"#utility.yul\":7682:7686   */\n      0x20\n        /* \"#utility.yul\":7676:7680   */\n      dup2\n        /* \"#utility.yul\":7672:7687   */\n      add\n        /* \"#utility.yul\":7664:7687   */\n      swap1\n      pop\n        /* \"#utility.yul\":7386:7694   */\n      swap2\n      swap1\n      pop\n      jump\t// out\n        /* \"#utility.yul\":7700:7848   */\n    tag_299:\n        /* \"#utility.yul\":7798:7804   */\n      dup3\n        /* \"#utility.yul\":7793:7796   */\n      dup2\n        /* \"#utility.yul\":7788:7791   */\n      dup4\n        /* \"#utility.yul\":7775:7805   */\n      calldatacopy\n        /* \"#utility.yul\":7839:7840   */\n      0x00\n        /* \"#utility.yul\":7830:7836   */\n      dup4\n        /* \"#utility.yul\":7825:7828   */\n      dup4\n        /* \"#utility.yul\":7821:7837   */\n      add\n        /* \"#utility.yul\":7814:7841   */\n      mstore\n        /* \"#utility.yul\":7700:7848   */\n      pop\n      pop\n      pop\n      jump\t// out\n        /* \"#utility.yul\":7854:8279   */\n    tag_300:\n        /* \"#utility.yul\":7932:7937   */\n      0x00\n        /* \"#utility.yul\":7957:8023   */\n      tag_445\n        /* \"#utility.yul\":7973:8022   */\n      tag_446\n        /* \"#utility.yul\":8015:8021   */\n      dup5\n        /* \"#utility.yul\":7973:8022   */\n      tag_298\n      jump\t// in\n    tag_446:\n        /* \"#utility.yul\":7957:8023   */\n      tag_297\n      jump\t// in\n    tag_445:\n        /* \"#utility.yul\":7948:8023   */\n      swap1\n      pop\n        /* \"#utility.yul\":8046:8052   */\n      dup3\n        /* \"#utility.yul\":8039:8044   */\n      dup2\n        /* \"#utility.yul\":8032:8053   */\n      mstore\n        /* \"#utility.yul\":8084:8088   */\n      0x20\n        /* \"#utility.yul\":8077:8082   */\n      dup2\n        /* \"#utility.yul\":8073:8089   */\n      add\n        /* \"#utility.yul\":8122:8125   */\n      dup5\n        /* \"#utility.yul\":8113:8119   */\n      dup5\n        /* \"#utility.yul\":8108:8111   */\n      dup5\n        /* \"#utility.yul\":8104:8120   */\n      add\n        /* \"#utility.yul\":8101:8126   */\n      gt\n        /* \"#utility.yul\":8098:8210   */\n      iszero\n      tag_447\n      jumpi\n        /* \"#utility.yul\":8129:8208   */\n      tag_448\n      tag_294\n      jump\t// in\n    tag_448:\n        /* \"#utility.yul\":8098:8210   */\n    tag_447:\n        /* \"#utility.yul\":8219:8273   */\n      tag_449\n        /* \"#utility.yul\":8266:8272   */\n      dup5\n        /* \"#utility.yul\":8261:8264   */\n      dup3\n        /* \"#utility.yul\":8256:8259   */\n      dup6\n        /* \"#utility.yul\":8219:8273   */\n      tag_299\n      jump\t// in\n    tag_449:\n        /* \"#utility.yul\":7938:8279   */\n      pop\n        /* \"#utility.yul\":7854:8279   */\n      swap4\n      swap3\n      pop\n      pop\n      pop\n      jump\t// out\n        /* \"#utility.yul\":8299:8639   */\n    tag_301:\n        /* \"#utility.yul\":8355:8360   */\n      0x00\n        /* \"#utility.yul\":8404:8407   */\n      dup3\n        /* \"#utility.yul\":8397:8401   */\n      0x1f\n        /* \"#utility.yul\":8389:8395   */\n      dup4\n        /* \"#utility.yul\":8385:8402   */\n      add\n        /* \"#utility.yul\":8381:8408   */\n      slt\n        /* \"#utility.yul\":8371:8493   */\n      tag_451\n      jumpi\n        /* \"#utility.yul\":8412:8491   */\n      tag_452\n      tag_293\n      jump\t// in\n    tag_452:\n        /* \"#utility.yul\":8371:8493   */\n    tag_451:\n        /* \"#utility.yul\":8529:8535   */\n      dup2\n        /* \"#utility.yul\":8516:8536   */\n      calldataload\n        /* \"#utility.yul\":8554:8633   */\n      tag_453\n        /* \"#utility.yul\":8629:8632   */\n      dup5\n        /* \"#utility.yul\":8621:8627   */\n      dup3\n        /* \"#utility.yul\":8614:8618   */\n      0x20\n        /* \"#utility.yul\":8606:8612   */\n      dup7\n        /* \"#utility.yul\":8602:8619   */\n      add\n        /* \"#utility.yul\":8554:8633   */\n      tag_300\n      jump\t// in\n    tag_453:\n        /* \"#utility.yul\":8545:8633   */\n      swap2\n      pop\n        /* \"#utility.yul\":8361:8639   */\n      pop\n        /* \"#utility.yul\":8299:8639   */\n      swap3\n      swap2\n      pop\n      pop\n      jump\t// out\n        /* \"#utility.yul\":8645:9154   */\n    tag_106:\n        /* \"#utility.yul\":8714:8720   */\n      0x00\n        /* \"#utility.yul\":8763:8765   */\n      0x20\n        /* \"#utility.yul\":8751:8760   */\n      dup3\n        /* \"#utility.yul\":8742:8749   */\n      dup5\n        /* \"#utility.yul\":8738:8761   */\n      sub\n        /* \"#utility.yul\":8734:8766   */\n      slt\n        /* \"#utility.yul\":8731:8850   */\n      iszero\n      tag_455\n      jumpi\n        /* \"#utility.yul\":8769:8848   */\n      tag_456\n      tag_278\n      jump\t// in\n    tag_456:\n        /* \"#utility.yul\":8731:8850   */\n    tag_455:\n        /* \"#utility.yul\":8917:8918   */\n      0x00\n        /* \"#utility.yul\":8906:8915   */\n      dup3\n        /* \"#utility.yul\":8902:8919   */\n      add\n        /* \"#utility.yul\":8889:8920   */\n      calldataload\n        /* \"#utility.yul\":8947:8965   */\n      0xffffffffffffffff\n        /* \"#utility.yul\":8939:8945   */\n      dup2\n        /* \"#utility.yul\":8936:8966   */\n      gt\n        /* \"#utility.yul\":8933:9050   */\n      iszero\n      tag_457\n      jumpi\n        /* \"#utility.yul\":8969:9048   */\n      tag_458\n      tag_279\n      jump\t// in\n    tag_458:\n        /* \"#utility.yul\":8933:9050   */\n    tag_457:\n        /* \"#utility.yul\":9074:9137   */\n      tag_459\n        /* \"#utility.yul\":9129:9136   */\n      dup5\n        /* \"#utility.yul\":9120:9126   */\n      dup3\n        /* \"#utility.yul\":9109:9118   */\n      dup6\n        /* \"#utility.yul\":9105:9127   */\n      add\n        /* \"#utility.yul\":9074:9137   */\n      tag_301\n      jump\t// in\n    tag_459:\n        /* \"#utility.yul\":9064:9137   */\n      swap2\n      pop\n        /* \"#utility.yul\":8860:9147   */\n      pop\n        /* \"#utility.yul\":8645:9154   */\n      swap3\n      swap2\n      pop\n      pop\n      jump\t// out\n        /* \"#utility.yul\":9160:9489   */\n    tag_115:\n        /* \"#utility.yul\":9219:9225   */\n      0x00\n        /* \"#utility.yul\":9268:9270   */\n      0x20\n        /* \"#utility.yul\":9256:9265   */\n      dup3\n        /* \"#utility.yul\":9247:9254   */\n      dup5\n        /* \"#utility.yul\":9243:9266   */\n      sub\n        /* \"#utility.yul\":9239:9271   */\n      slt\n        /* \"#utility.yul\":9236:9355   */\n      iszero\n      tag_461\n      jumpi\n        /* \"#utility.yul\":9274:9353   */\n      tag_462\n      tag_278\n      jump\t// in\n    tag_462:\n        /* \"#utility.yul\":9236:9355   */\n    tag_461:\n        /* \"#utility.yul\":9394:9395   */\n      0x00\n        /* \"#utility.yul\":9419:9472   */\n      tag_463\n        /* \"#utility.yul\":9464:9471   */\n      dup5\n        /* \"#utility.yul\":9455:9461   */\n      dup3\n        /* \"#utility.yul\":9444:9453   */\n      dup6\n        /* \"#utility.yul\":9440:9462   */\n      add\n        /* \"#utility.yul\":9419:9472   */\n      tag_286\n      jump\t// in\n    tag_463:\n        /* \"#utility.yul\":9409:9472   */\n      swap2\n      pop\n        /* \"#utility.yul\":9365:9482   */\n      pop\n        /* \"#utility.yul\":9160:9489   */\n      swap3\n      swap2\n      pop\n      pop\n      jump\t// out\n        /* \"#utility.yul\":9495:9969   */\n    tag_120:\n        /* \"#utility.yul\":9563:9569   */\n      0x00\n        /* \"#utility.yul\":9571:9577   */\n      0x00\n        /* \"#utility.yul\":9620:9622   */\n      0x40\n        /* \"#utility.yul\":9608:9617   */\n      dup4\n        /* \"#utility.yul\":9599:9606   */\n      dup6\n        /* \"#utility.yul\":9595:9618   */\n      sub\n        /* \"#utility.yul\":9591:9623   */\n      slt\n        /* \"#utility.yul\":9588:9707   */\n      iszero\n      tag_465\n      jumpi\n        /* \"#utility.yul\":9626:9705   */\n      tag_466\n      tag_278\n      jump\t// in\n    tag_466:\n        /* \"#utility.yul\":9588:9707   */\n    tag_465:\n        /* \"#utility.yul\":9746:9747   */\n      0x00\n        /* \"#utility.yul\":9771:9824   */\n      tag_467\n        /* \"#utility.yul\":9816:9823   */\n      dup6\n        /* \"#utility.yul\":9807:9813   */\n      dup3\n        /* \"#utility.yul\":9796:9805   */\n      dup7\n        /* \"#utility.yul\":9792:9814   */\n      add\n        /* \"#utility.yul\":9771:9824   */\n      tag_283\n      jump\t// in\n    tag_467:\n        /* \"#utility.yul\":9761:9824   */\n      swap3\n      pop\n        /* \"#utility.yul\":9717:9834   */\n      pop\n        /* \"#utility.yul\":9873:9875   */\n      0x20\n        /* \"#utility.yul\":9899:9952   */\n      tag_468\n        /* \"#utility.yul\":9944:9951   */\n      dup6\n        /* \"#utility.yul\":9935:9941   */\n      dup3\n        /* \"#utility.yul\":9924:9933   */\n      dup7\n        /* \"#utility.yul\":9920:9942   */\n      add\n        /* \"#utility.yul\":9899:9952   */\n      tag_283\n      jump\t// in\n    tag_468:\n        /* \"#utility.yul\":9889:9952   */\n      swap2\n      pop\n        /* \"#utility.yul\":9844:9962   */\n      pop\n        /* \"#utility.yul\":9495:9969   */\n      swap3\n      pop\n      swap3\n      swap1\n      pop\n      jump\t// out\n        /* \"#utility.yul\":9975:10143   */\n    tag_302:\n        /* \"#utility.yul\":10115:10135   */\n      0x436f6e7472616374206973207061757365640000000000000000000000000000\n        /* \"#utility.yul\":10111:10112   */\n      0x00\n        /* \"#utility.yul\":10103:10109   */\n      dup3\n        /* \"#utility.yul\":10099:10113   */\n      add\n        /* \"#utility.yul\":10092:10136   */\n      mstore\n        /* \"#utility.yul\":9975:10143   */\n      pop\n      jump\t// out\n        /* \"#utility.yul\":10149:10515   */\n    tag_303:\n        /* \"#utility.yul\":10291:10294   */\n      0x00\n        /* \"#utility.yul\":10312:10379   */\n      tag_471\n        /* \"#utility.yul\":10376:10378   */\n      0x12\n        /* \"#utility.yul\":10371:10374   */\n      dup4\n        /* \"#utility.yul\":10312:10379   */\n      tag_270\n      jump\t// in\n    tag_471:\n        /* \"#utility.yul\":10305:10379   */\n      swap2\n      pop\n        /* \"#utility.yul\":10388:10481   */\n      tag_472\n        /* \"#utility.yul\":10477:10480   */\n      dup3\n        /* \"#utility.yul\":10388:10481   */\n      tag_302\n      jump\t// in\n    tag_472:\n        /* \"#utility.yul\":10506:10508   */\n      0x20\n        /* \"#utility.yul\":10501:10504   */\n      dup3\n        /* \"#utility.yul\":10497:10509   */\n      add\n        /* \"#utility.yul\":10490:10509   */\n      swap1\n      pop\n        /* \"#utility.yul\":10149:10515   */\n      swap2\n      swap1\n      pop\n      jump\t// out\n        /* \"#utility.yul\":10521:10940   */\n    tag_134:\n        /* \"#utility.yul\":10687:10691   */\n      0x00\n        /* \"#utility.yul\":10725:10727   */\n      0x20\n        /* \"#utility.yul\":10714:10723   */\n      dup3\n        /* \"#utility.yul\":10710:10728   */\n      add\n        /* \"#utility.yul\":10702:10728   */\n      swap1\n      pop\n        /* \"#utility.yul\":10774:10783   */\n      dup2\n        /* \"#utility.yul\":10768:10772   */\n      dup2\n        /* \"#utility.yul\":10764:10784   */\n      sub\n        /* \"#utility.yul\":10760:10761   */\n      0x00\n        /* \"#utility.yul\":10749:10758   */\n      dup4\n        /* \"#utility.yul\":10745:10762   */\n      add\n        /* \"#utility.yul\":10738:10785   */\n      mstore\n        /* \"#utility.yul\":10802:10933   */\n      tag_474\n        /* \"#utility.yul\":10928:10932   */\n      dup2\n        /* \"#utility.yul\":10802:10933   */\n      tag_303\n      jump\t// in\n    tag_474:\n        /* \"#utility.yul\":10794:10933   */\n      swap1\n      pop\n        /* \"#utility.yul\":10521:10940   */\n      swap2\n      swap1\n      pop\n      jump\t// out\n        /* \"#utility.yul\":10946:11127   */\n    tag_304:\n        /* \"#utility.yul\":11086:11119   */\n      0x436f6e7472616374207065726d616e656e746c79207465726d696e6174656400\n        /* \"#utility.yul\":11082:11083   */\n      0x00\n        /* \"#utility.yul\":11074:11080   */\n      dup3\n        /* \"#utility.yul\":11070:11084   */\n      add\n        /* \"#utility.yul\":11063:11120   */\n      mstore\n        /* \"#utility.yul\":10946:11127   */\n      pop\n      jump\t// out\n        /* \"#utility.yul\":11133:11499   */\n    tag_305:\n        /* \"#utility.yul\":11275:11278   */\n      0x00\n        /* \"#utility.yul\":11296:11363   */\n      tag_477\n        /* \"#utility.yul\":11360:11362   */\n      0x1f\n        /* \"#utility.yul\":11355:11358   */\n      dup4\n        /* \"#utility.yul\":11296:11363   */\n      tag_270\n      jump\t// in\n    tag_477:\n        /* \"#utility.yul\":11289:11363   */\n      swap2\n      pop\n        /* \"#utility.yul\":11372:11465   */\n      tag_478\n        /* \"#utility.yul\":11461:11464   */\n      dup3\n        /* \"#utility.yul\":11372:11465   */\n      tag_304\n      jump\t// in\n    tag_478:\n        /* \"#utility.yul\":11490:11492   */\n      0x20\n        /* \"#utility.yul\":11485:11488   */\n      dup3\n        /* \"#utility.yul\":11481:11493   */\n      add\n        /* \"#utility.yul\":11474:11493   */\n      swap1\n      pop\n        /* \"#utility.yul\":11133:11499   */\n      swap2\n      swap1\n      pop\n      jump\t// out\n        /* \"#utility.yul\":11505:11924   */\n    tag_138:\n        /* \"#utility.yul\":11671:11675   */\n      0x00\n        /* \"#utility.yul\":11709:11711   */\n      0x20\n        /* \"#utility.yul\":11698:11707   */\n      dup3\n        /* \"#utility.yul\":11694:11712   */\n      add\n        /* \"#utility.yul\":11686:11712   */\n      swap1\n      pop\n        /* \"#utility.yul\":11758:11767   */\n      dup2\n        /* \"#utility.yul\":11752:11756   */\n      dup2\n        /* \"#utility.yul\":11748:11768   */\n      sub\n        /* \"#utility.yul\":11744:11745   */\n      0x00\n        /* \"#utility.yul\":11733:11742   */\n      dup4\n        /* \"#utility.yul\":11729:11746   */\n      add\n        /* \"#utility.yul\":11722:11769   */\n      mstore\n        /* \"#utility.yul\":11786:11917   */\n      tag_480\n        /* \"#utility.yul\":11912:11916   */\n      dup2\n        /* \"#utility.yul\":11786:11917   */\n      tag_305\n      jump\t// in\n    tag_480:\n        /* \"#utility.yul\":11778:11917   */\n      swap1\n      pop\n        /* \"#utility.yul\":11505:11924   */\n      swap2\n      swap1\n      pop\n      jump\t// out\n        /* \"#utility.yul\":11930:12150   */\n    tag_306:\n        /* \"#utility.yul\":12070:12104   */\n      0x4f6e6c79206f776e65722063616e2063616c6c20746869732066756e6374696f\n        /* \"#utility.yul\":12066:12067   */\n      0x00\n        /* \"#utility.yul\":12058:12064   */\n      dup3\n        /* \"#utility.yul\":12054:12068   */\n      add\n        /* \"#utility.yul\":12047:12105   */\n      mstore\n        /* \"#utility.yul\":12139:12142   */\n      0x6e00000000000000000000000000000000000000000000000000000000000000\n        /* \"#utility.yul\":12134:12136   */\n      0x20\n        /* \"#utility.yul\":12126:12132   */\n      dup3\n        /* \"#utility.yul\":12122:12137   */\n      add\n        /* \"#utility.yul\":12115:12143   */\n      mstore\n        /* \"#utility.yul\":11930:12150   */\n      pop\n      jump\t// out\n        /* \"#utility.yul\":12156:12522   */\n    tag_307:\n        /* \"#utility.yul\":12298:12301   */\n      0x00\n        /* \"#utility.yul\":12319:12386   */\n      tag_483\n        /* \"#utility.yul\":12383:12385   */\n      0x21\n        /* \"#utility.yul\":12378:12381   */\n      dup4\n        /* \"#utility.yul\":12319:12386   */\n      tag_270\n      jump\t// in\n    tag_483:\n        /* \"#utility.yul\":12312:12386   */\n      swap2\n      pop\n        /* \"#utility.yul\":12395:12488   */\n      tag_484\n        /* \"#utility.yul\":12484:12487   */\n      dup3\n        /* \"#utility.yul\":12395:12488   */\n      tag_306\n      jump\t// in\n    tag_484:\n        /* \"#utility.yul\":12513:12515   */\n      0x40\n        /* \"#utility.yul\":12508:12511   */\n      dup3\n        /* \"#utility.yul\":12504:12516   */\n      add\n        /* \"#utility.yul\":12497:12516   */\n      swap1\n      pop\n        /* \"#utility.yul\":12156:12522   */\n      swap2\n      swap1\n      pop\n      jump\t// out\n        /* \"#utility.yul\":12528:12947   */\n    tag_144:\n        /* \"#utility.yul\":12694:12698   */\n      0x00\n        /* \"#utility.yul\":12732:12734   */\n      0x20\n        /* \"#utility.yul\":12721:12730   */\n      dup3\n        /* \"#utility.yul\":12717:12735   */\n      add\n        /* \"#utility.yul\":12709:12735   */\n      swap1\n      pop\n        /* \"#utility.yul\":12781:12790   */\n      dup2\n        /* \"#utility.yul\":12775:12779   */\n      dup2\n        /* \"#utility.yul\":12771:12791   */\n      sub\n        /* \"#utility.yul\":12767:12768   */\n      0x00\n        /* \"#utility.yul\":12756:12765   */\n      dup4\n        /* \"#utility.yul\":12752:12769   */\n      add\n        /* \"#utility.yul\":12745:12792   */\n      mstore\n        /* \"#utility.yul\":12809:12940   */\n      tag_486\n        /* \"#utility.yul\":12935:12939   */\n      dup2\n        /* \"#utility.yul\":12809:12940   */\n      tag_307\n      jump\t// in\n    tag_486:\n        /* \"#utility.yul\":12801:12940   */\n      swap1\n      pop\n        /* \"#utility.yul\":12528:12947   */\n      swap2\n      swap1\n      pop\n      jump\t// out\n        /* \"#utility.yul\":12953:13133   */\n    tag_308:\n        /* \"#utility.yul\":13001:13078   */\n      0x4e487b7100000000000000000000000000000000000000000000000000000000\n        /* \"#utility.yul\":12998:12999   */\n      0x00\n        /* \"#utility.yul\":12991:13079   */\n      mstore\n        /* \"#utility.yul\":13098:13102   */\n      0x11\n        /* \"#utility.yul\":13095:13096   */\n      0x04\n        /* \"#utility.yul\":13088:13103   */\n      mstore\n        /* \"#utility.yul\":13122:13126   */\n      0x24\n        /* \"#utility.yul\":13119:13120   */\n      0x00\n        /* \"#utility.yul\":13112:13127   */\n      revert\n        /* \"#utility.yul\":13139:13241   */\n    tag_309:\n        /* \"#utility.yul\":13181:13189   */\n      0x00\n        /* \"#utility.yul\":13228:13233   */\n      dup2\n        /* \"#utility.yul\":13225:13226   */\n      0x01\n        /* \"#utility.yul\":13221:13234   */\n      shr\n        /* \"#utility.yul\":13200:13234   */\n      swap1\n      pop\n        /* \"#utility.yul\":13139:13241   */\n      swap2\n      swap1\n      pop\n      jump\t// out\n        /* \"#utility.yul\":13247:14095   */\n    tag_310:\n        /* \"#utility.yul\":13308:13313   */\n      0x00\n        /* \"#utility.yul\":13315:13319   */\n      0x00\n        /* \"#utility.yul\":13339:13345   */\n      dup3\n        /* \"#utility.yul\":13330:13345   */\n      swap2\n      pop\n        /* \"#utility.yul\":13363:13368   */\n      dup4\n        /* \"#utility.yul\":13354:13368   */\n      swap1\n      pop\n        /* \"#utility.yul\":13377:14089   */\n    tag_490:\n        /* \"#utility.yul\":13398:13399   */\n      0x01\n        /* \"#utility.yul\":13388:13396   */\n      dup6\n        /* \"#utility.yul\":13385:13400   */\n      gt\n        /* \"#utility.yul\":13377:14089   */\n      iszero\n      tag_492\n      jumpi\n        /* \"#utility.yul\":13493:13497   */\n      dup1\n        /* \"#utility.yul\":13488:13491   */\n      dup7\n        /* \"#utility.yul\":13484:13498   */\n      div\n        /* \"#utility.yul\":13478:13482   */\n      dup2\n        /* \"#utility.yul\":13475:13499   */\n      gt\n        /* \"#utility.yul\":13472:13522   */\n      iszero\n      tag_493\n      jumpi\n        /* \"#utility.yul\":13502:13520   */\n      tag_494\n      tag_308\n      jump\t// in\n    tag_494:\n        /* \"#utility.yul\":13472:13522   */\n    tag_493:\n        /* \"#utility.yul\":13552:13553   */\n      0x01\n        /* \"#utility.yul\":13542:13550   */\n      dup6\n        /* \"#utility.yul\":13538:13554   */\n      and\n        /* \"#utility.yul\":13535:13986   */\n      iszero\n      tag_495\n      jumpi\n        /* \"#utility.yul\":13967:13971   */\n      dup1\n        /* \"#utility.yul\":13960:13965   */\n      dup3\n        /* \"#utility.yul\":13956:13972   */\n      mul\n        /* \"#utility.yul\":13947:13972   */\n      swap2\n      pop\n        /* \"#utility.yul\":13535:13986   */\n    tag_495:\n        /* \"#utility.yul\":14017:14021   */\n      dup1\n        /* \"#utility.yul\":14011:14015   */\n      dup2\n        /* \"#utility.yul\":14007:14022   */\n      mul\n        /* \"#utility.yul\":13999:14022   */\n      swap1\n      pop\n        /* \"#utility.yul\":14047:14079   */\n      tag_496\n        /* \"#utility.yul\":14070:14078   */\n      dup6\n        /* \"#utility.yul\":14047:14079   */\n      tag_309\n      jump\t// in\n    tag_496:\n        /* \"#utility.yul\":14035:14079   */\n      swap5\n      pop\n        /* \"#utility.yul\":13377:14089   */\n      jump(tag_490)\n    tag_492:\n        /* \"#utility.yul\":13247:14095   */\n      swap5\n      pop\n      swap5\n      swap3\n      pop\n      pop\n      pop\n      jump\t// out\n        /* \"#utility.yul\":14101:15174   */\n    tag_311:\n        /* \"#utility.yul\":14155:14160   */\n      0x00\n        /* \"#utility.yul\":14346:14354   */\n      dup3\n        /* \"#utility.yul\":14336:14376   */\n      tag_498\n      jumpi\n        /* \"#utility.yul\":14367:14368   */\n      0x01\n        /* \"#utility.yul\":14358:14368   */\n      swap1\n      pop\n        /* \"#utility.yul\":14369:14374   */\n      jump(tag_497)\n        /* \"#utility.yul\":14336:14376   */\n    tag_498:\n        /* \"#utility.yul\":14395:14399   */\n      dup2\n        /* \"#utility.yul\":14385:14421   */\n      tag_499\n      jumpi\n        /* \"#utility.yul\":14412:14413   */\n      0x00\n        /* \"#utility.yul\":14403:14413   */\n      swap1\n      pop\n        /* \"#utility.yul\":14414:14419   */\n      jump(tag_497)\n        /* \"#utility.yul\":14385:14421   */\n    tag_499:\n        /* \"#utility.yul\":14481:14485   */\n      dup2\n        /* \"#utility.yul\":14529:14530   */\n      0x01\n        /* \"#utility.yul\":14524:14551   */\n      dup2\n      eq\n      tag_501\n      jumpi\n        /* \"#utility.yul\":14565:14566   */\n      0x02\n        /* \"#utility.yul\":14560:14751   */\n      dup2\n      eq\n      tag_502\n      jumpi\n        /* \"#utility.yul\":14474:14751   */\n      jump(tag_500)\n        /* \"#utility.yul\":14524:14551   */\n    tag_501:\n        /* \"#utility.yul\":14542:14543   */\n      0x01\n        /* \"#utility.yul\":14533:14543   */\n      swap2\n      pop\n        /* \"#utility.yul\":14544:14549   */\n      pop\n      jump(tag_497)\n        /* \"#utility.yul\":14560:14751   */\n    tag_502:\n        /* \"#utility.yul\":14605:14608   */\n      0xff\n        /* \"#utility.yul\":14595:14603   */\n      dup5\n        /* \"#utility.yul\":14592:14609   */\n      gt\n        /* \"#utility.yul\":14589:14632   */\n      iszero\n      tag_503\n      jumpi\n        /* \"#utility.yul\":14612:14630   */\n      tag_504\n      tag_308\n      jump\t// in\n    tag_504:\n        /* \"#utility.yul\":14589:14632   */\n    tag_503:\n        /* \"#utility.yul\":14661:14669   */\n      dup4\n        /* \"#utility.yul\":14658:14659   */\n      0x02\n        /* \"#utility.yul\":14654:14670   */\n      exp\n        /* \"#utility.yul\":14645:14670   */\n      swap2\n      pop\n        /* \"#utility.yul\":14696:14699   */\n      dup5\n        /* \"#utility.yul\":14689:14694   */\n      dup3\n        /* \"#utility.yul\":14686:14700   */\n      gt\n        /* \"#utility.yul\":14683:14723   */\n      iszero\n      tag_505\n      jumpi\n        /* \"#utility.yul\":14703:14721   */\n      tag_506\n      tag_308\n      jump\t// in\n    tag_506:\n        /* \"#utility.yul\":14683:14723   */\n    tag_505:\n        /* \"#utility.yul\":14736:14741   */\n      pop\n      jump(tag_497)\n        /* \"#utility.yul\":14474:14751   */\n    tag_500:\n      pop\n        /* \"#utility.yul\":14860:14862   */\n      0x20\n        /* \"#utility.yul\":14850:14858   */\n      dup4\n        /* \"#utility.yul\":14847:14863   */\n      lt\n        /* \"#utility.yul\":14841:14844   */\n      0x0133\n        /* \"#utility.yul\":14835:14839   */\n      dup4\n        /* \"#utility.yul\":14832:14845   */\n      lt\n        /* \"#utility.yul\":14828:14864   */\n      and\n        /* \"#utility.yul\":14810:14812   */\n      0x4e\n        /* \"#utility.yul\":14800:14808   */\n      dup5\n        /* \"#utility.yul\":14797:14813   */\n      lt\n        /* \"#utility.yul\":14792:14794   */\n      0x0b\n        /* \"#utility.yul\":14786:14790   */\n      dup5\n        /* \"#utility.yul\":14783:14795   */\n      lt\n        /* \"#utility.yul\":14779:14814   */\n      and\n        /* \"#utility.yul\":14763:14874   */\n      or\n        /* \"#utility.yul\":14760:15006   */\n      iszero\n      tag_507\n      jumpi\n        /* \"#utility.yul\":14916:14924   */\n      dup3\n        /* \"#utility.yul\":14910:14914   */\n      dup3\n        /* \"#utility.yul\":14906:14925   */\n      exp\n        /* \"#utility.yul\":14897:14925   */\n      swap1\n      pop\n        /* \"#utility.yul\":14951:14954   */\n      dup4\n        /* \"#utility.yul\":14944:14949   */\n      dup2\n        /* \"#utility.yul\":14941:14955   */\n      gt\n        /* \"#utility.yul\":14938:14978   */\n      iszero\n      tag_508\n      jumpi\n        /* \"#utility.yul\":14958:14976   */\n      tag_509\n      tag_308\n      jump\t// in\n    tag_509:\n        /* \"#utility.yul\":14938:14978   */\n    tag_508:\n        /* \"#utility.yul\":14991:14996   */\n      jump(tag_497)\n        /* \"#utility.yul\":14760:15006   */\n    tag_507:\n        /* \"#utility.yul\":15031:15073   */\n      tag_510\n        /* \"#utility.yul\":15069:15072   */\n      dup5\n        /* \"#utility.yul\":15059:15067   */\n      dup5\n        /* \"#utility.yul\":15053:15057   */\n      dup5\n        /* \"#utility.yul\":15050:15051   */\n      0x01\n        /* \"#utility.yul\":15031:15073   */\n      tag_310\n      jump\t// in\n    tag_510:\n        /* \"#utility.yul\":15016:15073   */\n      swap3\n      pop\n      swap1\n      pop\n        /* \"#utility.yul\":15105:15109   */\n      dup2\n        /* \"#utility.yul\":15100:15103   */\n      dup5\n        /* \"#utility.yul\":15096:15110   */\n      div\n        /* \"#utility.yul\":15089:15094   */\n      dup2\n        /* \"#utility.yul\":15086:15111   */\n      gt\n        /* \"#utility.yul\":15083:15134   */\n      iszero\n      tag_511\n      jumpi\n        /* \"#utility.yul\":15114:15132   */\n      tag_512\n      tag_308\n      jump\t// in\n    tag_512:\n        /* \"#utility.yul\":15083:15134   */\n    tag_511:\n        /* \"#utility.yul\":15163:15167   */\n      dup2\n        /* \"#utility.yul\":15156:15161   */\n      dup2\n        /* \"#utility.yul\":15152:15168   */\n      mul\n        /* \"#utility.yul\":15143:15168   */\n      swap1\n      pop\n        /* \"#utility.yul\":14101:15174   */\n    tag_497:\n      swap4\n      swap3\n      pop\n      pop\n      pop\n      jump\t// out\n        /* \"#utility.yul\":15180:15465   */\n    tag_147:\n        /* \"#utility.yul\":15240:15245   */\n      0x00\n        /* \"#utility.yul\":15264:15287   */\n      tag_514\n        /* \"#utility.yul\":15282:15286   */\n      dup3\n        /* \"#utility.yul\":15264:15287   */\n      tag_284\n      jump\t// in\n    tag_514:\n        /* \"#utility.yul\":15256:15287   */\n      swap2\n      pop\n        /* \"#utility.yul\":15308:15335   */\n      tag_515\n        /* \"#utility.yul\":15326:15334   */\n      dup4\n        /* \"#utility.yul\":15308:15335   */\n      tag_284\n      jump\t// in\n    tag_515:\n        /* \"#utility.yul\":15296:15335   */\n      swap3\n      pop\n        /* \"#utility.yul\":15354:15458   */\n      tag_516\n        /* \"#utility.yul\":15391:15457   */\n      0xffffffffffffffffffffffffffffffffffffffffffffffffffffffffffffffff\n        /* \"#utility.yul\":15381:15389   */\n      dup5\n        /* \"#utility.yul\":15375:15379   */\n      dup5\n        /* \"#utility.yul\":15354:15458   */\n      tag_311\n      jump\t// in\n    tag_516:\n        /* \"#utility.yul\":15345:15458   */\n      swap1\n      pop\n        /* \"#utility.yul\":15180:15465   */\n      swap3\n      swap2\n      pop\n      pop\n      jump\t// out\n        /* \"#utility.yul\":15471:15881   */\n    tag_149:\n        /* \"#utility.yul\":15511:15518   */\n      0x00\n        /* \"#utility.yul\":15534:15554   */\n      tag_518\n        /* \"#utility.yul\":15552:15553   */\n      dup3\n        /* \"#utility.yul\":15534:15554   */\n      tag_284\n      jump\t// in\n    tag_518:\n        /* \"#utility.yul\":15529:15554   */\n      swap2\n      pop\n        /* \"#utility.yul\":15568:15588   */\n      tag_519\n        /* \"#utility.yul\":15586:15587   */\n      dup4\n        /* \"#utility.yul\":15568:15588   */\n      tag_284\n      jump\t// in\n    tag_519:\n        /* \"#utility.yul\":15563:15588   */\n      swap3\n      pop\n        /* \"#utility.yul\":15623:15624   */\n      dup3\n        /* \"#utility.yul\":15620:15621   */\n      dup3\n        /* \"#utility.yul\":15616:15625   */\n      mul\n        /* \"#utility.yul\":15645:15675   */\n      tag_520\n        /* \"#utility.yul\":15663:15674   */\n      dup2\n        /* \"#utility.yul\":15645:15675   */\n      tag_284\n      jump\t// in\n    tag_520:\n        /* \"#utility.yul\":15634:15675   */\n      swap2\n      pop\n        /* \"#utility.yul\":15824:15825   */\n      dup3\n        /* \"#utility.yul\":15815:15822   */\n      dup3\n        /* \"#utility.yul\":15811:15826   */\n      div\n        /* \"#utility.yul\":15808:15809   */\n      dup5\n        /* \"#utility.yul\":15805:15827   */\n      eq\n        /* \"#utility.yul\":15785:15786   */\n      dup4\n        /* \"#utility.yul\":15778:15787   */\n      iszero\n        /* \"#utility.yul\":15758:15841   */\n      or\n        /* \"#utility.yul\":15735:15874   */\n      tag_521\n      jumpi\n        /* \"#utility.yul\":15854:15872   */\n      tag_522\n      tag_308\n      jump\t// in\n    tag_522:\n        /* \"#utility.yul\":15735:15874   */\n    tag_521:\n        /* \"#utility.yul\":15519:15881   */\n      pop\n        /* \"#utility.yul\":15471:15881   */\n      swap3\n      swap2\n      pop\n      pop\n      jump\t// out\n        /* \"#utility.yul\":15887:16059   */\n    tag_312:\n        /* \"#utility.yul\":16027:16051   */\n      0x496e696369616e646f207472616e7366657246726f6d00000000000000000000\n        /* \"#utility.yul\":16023:16024   */\n      0x00\n        /* \"#utility.yul\":16015:16021   */\n      dup3\n        /* \"#utility.yul\":16011:16025   */\n      add\n        /* \"#utility.yul\":16004:16052   */\n      mstore\n        /* \"#utility.yul\":15887:16059   */\n      pop\n      jump\t// out\n        /* \"#utility.yul\":16065:16431   */\n    tag_313:\n        /* \"#utility.yul\":16207:16210   */\n      0x00\n        /* \"#utility.yul\":16228:16295   */\n      tag_525\n        /* \"#utility.yul\":16292:16294   */\n      0x16\n        /* \"#utility.yul\":16287:16290   */\n      dup4\n        /* \"#utility.yul\":16228:16295   */\n      tag_270\n      jump\t// in\n    tag_525:\n        /* \"#utility.yul\":16221:16295   */\n      swap2\n      pop\n        /* \"#utility.yul\":16304:16397   */\n      tag_526\n        /* \"#utility.yul\":16393:16396   */\n      dup3\n        /* \"#utility.yul\":16304:16397   */\n      tag_312\n      jump\t// in\n    tag_526:\n        /* \"#utility.yul\":16422:16424   */\n      0x20\n        /* \"#utility.yul\":16417:16420   */\n      dup3\n        /* \"#utility.yul\":16413:16425   */\n      add\n        /* \"#utility.yul\":16406:16425   */\n      swap1\n      pop\n        /* \"#utility.yul\":16065:16431   */\n      swap2\n      swap1\n      pop\n      jump\t// out\n        /* \"#utility.yul\":16437:17076   */\n    tag_158:\n        /* \"#utility.yul\":16659:16663   */\n      0x00\n        /* \"#utility.yul\":16697:16699   */\n      0x60\n        /* \"#utility.yul\":16686:16695   */\n      dup3\n        /* \"#utility.yul\":16682:16700   */\n      add\n        /* \"#utility.yul\":16674:16700   */\n      swap1\n      pop\n        /* \"#utility.yul\":16746:16755   */\n      dup2\n        /* \"#utility.yul\":16740:16744   */\n      dup2\n        /* \"#utility.yul\":16736:16756   */\n      sub\n        /* \"#utility.yul\":16732:16733   */\n      0x00\n        /* \"#utility.yul\":16721:16730   */\n      dup4\n        /* \"#utility.yul\":16717:16734   */\n      add\n        /* \"#utility.yul\":16710:16757   */\n      mstore\n        /* \"#utility.yul\":16774:16905   */\n      tag_528\n        /* \"#utility.yul\":16900:16904   */\n      dup2\n        /* \"#utility.yul\":16774:16905   */\n      tag_313\n      jump\t// in\n    tag_528:\n        /* \"#utility.yul\":16766:16905   */\n      swap1\n      pop\n        /* \"#utility.yul\":16915:16987   */\n      tag_529\n        /* \"#utility.yul\":16983:16985   */\n      0x20\n        /* \"#utility.yul\":16972:16981   */\n      dup4\n        /* \"#utility.yul\":16968:16986   */\n      add\n        /* \"#utility.yul\":16959:16965   */\n      dup6\n        /* \"#utility.yul\":16915:16987   */\n      tag_292\n      jump\t// in\n    tag_529:\n        /* \"#utility.yul\":16997:17069   */\n      tag_530\n        /* \"#utility.yul\":17065:17067   */\n      0x40\n        /* \"#utility.yul\":17054:17063   */\n      dup4\n        /* \"#utility.yul\":17050:17068   */\n      add\n        /* \"#utility.yul\":17041:17047   */\n      dup5\n        /* \"#utility.yul\":16997:17069   */\n      tag_289\n      jump\t// in\n    tag_530:\n        /* \"#utility.yul\":16437:17076   */\n      swap4\n      swap3\n      pop\n      pop\n      pop\n      jump\t// out\n        /* \"#utility.yul\":17082:17250   */\n    tag_314:\n        /* \"#utility.yul\":17222:17242   */\n      0x5065726d697373616f2065786365646964610000000000000000000000000000\n        /* \"#utility.yul\":17218:17219   */\n      0x00\n        /* \"#utility.yul\":17210:17216   */\n      dup3\n        /* \"#utility.yul\":17206:17220   */\n      add\n        /* \"#utility.yul\":17199:17243   */\n      mstore\n        /* \"#utility.yul\":17082:17250   */\n      pop\n      jump\t// out\n        /* \"#utility.yul\":17256:17622   */\n    tag_315:\n        /* \"#utility.yul\":17398:17401   */\n      0x00\n        /* \"#utility.yul\":17419:17486   */\n      tag_533\n        /* \"#utility.yul\":17483:17485   */\n      0x12\n        /* \"#utility.yul\":17478:17481   */\n      dup4\n        /* \"#utility.yul\":17419:17486   */\n      tag_270\n      jump\t// in\n    tag_533:\n        /* \"#utility.yul\":17412:17486   */\n      swap2\n      pop\n        /* \"#utility.yul\":17495:17588   */\n      tag_534\n        /* \"#utility.yul\":17584:17587   */\n      dup3\n        /* \"#utility.yul\":17495:17588   */\n      tag_314\n      jump\t// in\n    tag_534:\n        /* \"#utility.yul\":17613:17615   */\n      0x20\n        /* \"#utility.yul\":17608:17611   */\n      dup3\n        /* \"#utility.yul\":17604:17616   */\n      add\n        /* \"#utility.yul\":17597:17616   */\n      swap1\n      pop\n        /* \"#utility.yul\":17256:17622   */\n      swap2\n      swap1\n      pop\n      jump\t// out\n        /* \"#utility.yul\":17628:18047   */\n    tag_161:\n        /* \"#utility.yul\":17794:17798   */\n      0x00\n        /* \"#utility.yul\":17832:17834   */\n      0x20\n        /* \"#utility.yul\":17821:17830   */\n      dup3\n        /* \"#utility.yul\":17817:17835   */\n      add\n        /* \"#utility.yul\":17809:17835   */\n      swap1\n      pop\n        /* \"#utility.yul\":17881:17890   */\n      dup2\n        /* \"#utility.yul\":17875:17879   */\n      dup2\n        /* \"#utility.yul\":17871:17891   */\n      sub\n        /* \"#utility.yul\":17867:17868   */\n      0x00\n        /* \"#utility.yul\":17856:17865   */\n      dup4\n        /* \"#utility.yul\":17852:17869   */\n      add\n        /* \"#utility.yul\":17845:17892   */\n      mstore\n        /* \"#utility.yul\":17909:18040   */\n      tag_536\n        /* \"#utility.yul\":18035:18039   */\n      dup2\n        /* \"#utility.yul\":17909:18040   */\n      tag_315\n      jump\t// in\n    tag_536:\n        /* \"#utility.yul\":17901:18040   */\n      swap1\n      pop\n        /* \"#utility.yul\":17628:18047   */\n      swap2\n      swap1\n      pop\n      jump\t// out\n        /* \"#utility.yul\":18053:18230   */\n    tag_316:\n        /* \"#utility.yul\":18193:18222   */\n      0x53616c646f20646520746f6b656e20696e737566696369656e74650000000000\n        /* \"#utility.yul\":18189:18190   */\n      0x00\n        /* \"#utility.yul\":18181:18187   */\n      dup3\n        /* \"#utility.yul\":18177:18191   */\n      add\n        /* \"#utility.yul\":18170:18223   */\n      mstore\n        /* \"#utility.yul\":18053:18230   */\n      pop\n      jump\t// out\n        /* \"#utility.yul\":18236:18602   */\n    tag_317:\n        /* \"#utility.yul\":18378:18381   */\n      0x00\n        /* \"#utility.yul\":18399:18466   */\n      tag_539\n        /* \"#utility.yul\":18463:18465   */\n      0x1b\n        /* \"#utility.yul\":18458:18461   */\n      dup4\n        /* \"#utility.yul\":18399:18466   */\n      tag_270\n      jump\t// in\n    tag_539:\n        /* \"#utility.yul\":18392:18466   */\n      swap2\n      pop\n        /* \"#utility.yul\":18475:18568   */\n      tag_540\n        /* \"#utility.yul\":18564:18567   */\n      dup3\n        /* \"#utility.yul\":18475:18568   */\n      tag_316\n      jump\t// in\n    tag_540:\n        /* \"#utility.yul\":18593:18595   */\n      0x20\n        /* \"#utility.yul\":18588:18591   */\n      dup3\n        /* \"#utility.yul\":18584:18596   */\n      add\n        /* \"#utility.yul\":18577:18596   */\n      swap1\n      pop\n        /* \"#utility.yul\":18236:18602   */\n      swap2\n      swap1\n      pop\n      jump\t// out\n        /* \"#utility.yul\":18608:19027   */\n    tag_164:\n        /* \"#utility.yul\":18774:18778   */\n      0x00\n        /* \"#utility.yul\":18812:18814   */\n      0x20\n        /* \"#utility.yul\":18801:18810   */\n      dup3\n        /* \"#utility.yul\":18797:18815   */\n      add\n        /* \"#utility.yul\":18789:18815   */\n      swap1\n      pop\n        /* \"#utility.yul\":18861:18870   */\n      dup2\n        /* \"#utility.yul\":18855:18859   */\n      dup2\n        /* \"#utility.yul\":18851:18871   */\n      sub\n        /* \"#utility.yul\":18847:18848   */\n      0x00\n        /* \"#utility.yul\":18836:18845   */\n      dup4\n        /* \"#utility.yul\":18832:18849   */\n      add\n        /* \"#utility.yul\":18825:18872   */\n      mstore\n        /* \"#utility.yul\":18889:19020   */\n      tag_542\n        /* \"#utility.yul\":19015:19019   */\n      dup2\n        /* \"#utility.yul\":18889:19020   */\n      tag_317\n      jump\t// in\n    tag_542:\n        /* \"#utility.yul\":18881:19020   */\n      swap1\n      pop\n        /* \"#utility.yul\":18608:19027   */\n      swap2\n      swap1\n      pop\n      jump\t// out\n        /* \"#utility.yul\":19033:19269   */\n    tag_318:\n        /* \"#utility.yul\":19173:19207   */\n      0x44657374696e61746172696f206520756d20636f6e747261746f206520706f64\n        /* \"#utility.yul\":19169:19170   */\n      0x00\n        /* \"#utility.yul\":19161:19167   */\n      dup3\n        /* \"#utility.yul\":19157:19171   */\n      add\n        /* \"#utility.yul\":19150:19208   */\n      mstore\n        /* \"#utility.yul\":19242:19261   */\n      0x652072656a656974617220746f6b656e73000000000000000000000000000000\n        /* \"#utility.yul\":19237:19239   */\n      0x20\n        /* \"#utility.yul\":19229:19235   */\n      dup3\n        /* \"#utility.yul\":19225:19240   */\n      add\n        /* \"#utility.yul\":19218:19262   */\n      mstore\n        /* \"#utility.yul\":19033:19269   */\n      pop\n      jump\t// out\n        /* \"#utility.yul\":19275:19641   */\n    tag_319:\n        /* \"#utility.yul\":19417:19420   */\n      0x00\n        /* \"#utility.yul\":19438:19505   */\n      tag_545\n        /* \"#utility.yul\":19502:19504   */\n      0x31\n        /* \"#utility.yul\":19497:19500   */\n      dup4\n        /* \"#utility.yul\":19438:19505   */\n      tag_270\n      jump\t// in\n    tag_545:\n        /* \"#utility.yul\":19431:19505   */\n      swap2\n      pop\n        /* \"#utility.yul\":19514:19607   */\n      tag_546\n        /* \"#utility.yul\":19603:19606   */\n      dup3\n        /* \"#utility.yul\":19514:19607   */\n      tag_318\n      jump\t// in\n    tag_546:\n        /* \"#utility.yul\":19632:19634   */\n      0x40\n        /* \"#utility.yul\":19627:19630   */\n      dup3\n        /* \"#utility.yul\":19623:19635   */\n      add\n        /* \"#utility.yul\":19616:19635   */\n      swap1\n      pop\n        /* \"#utility.yul\":19275:19641   */\n      swap2\n      swap1\n      pop\n      jump\t// out\n        /* \"#utility.yul\":19647:20066   */\n    tag_169:\n        /* \"#utility.yul\":19813:19817   */\n      0x00\n        /* \"#utility.yul\":19851:19853   */\n      0x20\n        /* \"#utility.yul\":19840:19849   */\n      dup3\n        /* \"#utility.yul\":19836:19854   */\n      add\n        /* \"#utility.yul\":19828:19854   */\n      swap1\n      pop\n        /* \"#utility.yul\":19900:19909   */\n      dup2\n        /* \"#utility.yul\":19894:19898   */\n      dup2\n        /* \"#utility.yul\":19890:19910   */\n      sub\n        /* \"#utility.yul\":19886:19887   */\n      0x00\n        /* \"#utility.yul\":19875:19884   */\n      dup4\n        /* \"#utility.yul\":19871:19888   */\n      add\n        /* \"#utility.yul\":19864:19911   */\n      mstore\n        /* \"#utility.yul\":19928:20059   */\n      tag_548\n        /* \"#utility.yul\":20054:20058   */\n      dup2\n        /* \"#utility.yul\":19928:20059   */\n      tag_319\n      jump\t// in\n    tag_548:\n        /* \"#utility.yul\":19920:20059   */\n      swap1\n      pop\n        /* \"#utility.yul\":19647:20066   */\n      swap2\n      swap1\n      pop\n      jump\t// out\n        /* \"#utility.yul\":20072:20266   */\n    tag_171:\n        /* \"#utility.yul\":20112:20116   */\n      0x00\n        /* \"#utility.yul\":20132:20152   */\n      tag_550\n        /* \"#utility.yul\":20150:20151   */\n      dup3\n        /* \"#utility.yul\":20132:20152   */\n      tag_284\n      jump\t// in\n    tag_550:\n        /* \"#utility.yul\":20127:20152   */\n      swap2\n      pop\n        /* \"#utility.yul\":20166:20186   */\n      tag_551\n        /* \"#utility.yul\":20184:20185   */\n      dup4\n        /* \"#utility.yul\":20166:20186   */\n      tag_284\n      jump\t// in\n    tag_551:\n        /* \"#utility.yul\":20161:20186   */\n      swap3\n      pop\n        /* \"#utility.yul\":20210:20211   */\n      dup3\n        /* \"#utility.yul\":20207:20208   */\n      dup3\n        /* \"#utility.yul\":20203:20212   */\n      sub\n        /* \"#utility.yul\":20195:20212   */\n      swap1\n      pop\n        /* \"#utility.yul\":20234:20235   */\n      dup2\n        /* \"#utility.yul\":20228:20232   */\n      dup2\n        /* \"#utility.yul\":20225:20236   */\n      gt\n        /* \"#utility.yul\":20222:20259   */\n      iszero\n      tag_552\n      jumpi\n        /* \"#utility.yul\":20239:20257   */\n      tag_553\n      tag_308\n      jump\t// in\n    tag_553:\n        /* \"#utility.yul\":20222:20259   */\n    tag_552:\n        /* \"#utility.yul\":20072:20266   */\n      swap3\n      swap2\n      pop\n      pop\n      jump\t// out\n        /* \"#utility.yul\":20272:20444   */\n    tag_320:\n        /* \"#utility.yul\":20412:20436   */\n      0x7472616e7366657246726f6d20636f6e636c7569646100000000000000000000\n        /* \"#utility.yul\":20408:20409   */\n      0x00\n        /* \"#utility.yul\":20400:20406   */\n      dup3\n        /* \"#utility.yul\":20396:20410   */\n      add\n        /* \"#utility.yul\":20389:20437   */\n      mstore\n        /* \"#utility.yul\":20272:20444   */\n      pop\n      jump\t// out\n        /* \"#utility.yul\":20450:20816   */\n    tag_321:\n        /* \"#utility.yul\":20592:20595   */\n      0x00\n        /* \"#utility.yul\":20613:20680   */\n      tag_556\n        /* \"#utility.yul\":20677:20679   */\n      0x16\n        /* \"#utility.yul\":20672:20675   */\n      dup4\n        /* \"#utility.yul\":20613:20680   */\n      tag_270\n      jump\t// in\n    tag_556:\n        /* \"#utility.yul\":20606:20680   */\n      swap2\n      pop\n        /* \"#utility.yul\":20689:20782   */\n      tag_557\n        /* \"#utility.yul\":20778:20781   */\n      dup3\n        /* \"#utility.yul\":20689:20782   */\n      tag_320\n      jump\t// in\n    tag_557:\n        /* \"#utility.yul\":20807:20809   */\n      0x20\n        /* \"#utility.yul\":20802:20805   */\n      dup3\n        /* \"#utility.yul\":20798:20810   */\n      add\n        /* \"#utility.yul\":20791:20810   */\n      swap1\n      pop\n        /* \"#utility.yul\":20450:20816   */\n      swap2\n      swap1\n      pop\n      jump\t// out\n        /* \"#utility.yul\":20822:21461   */\n    tag_177:\n        /* \"#utility.yul\":21044:21048   */\n      0x00\n        /* \"#utility.yul\":21082:21084   */\n      0x60\n        /* \"#utility.yul\":21071:21080   */\n      dup3\n        /* \"#utility.yul\":21067:21085   */\n      add\n        /* \"#utility.yul\":21059:21085   */\n      swap1\n      pop\n        /* \"#utility.yul\":21131:21140   */\n      dup2\n        /* \"#utility.yul\":21125:21129   */\n      dup2\n        /* \"#utility.yul\":21121:21141   */\n      sub\n        /* \"#utility.yul\":21117:21118   */\n      0x00\n        /* \"#utility.yul\":21106:21115   */\n      dup4\n        /* \"#utility.yul\":21102:21119   */\n      add\n        /* \"#utility.yul\":21095:21142   */\n      mstore\n        /* \"#utility.yul\":21159:21290   */\n      tag_559\n        /* \"#utility.yul\":21285:21289   */\n      dup2\n        /* \"#utility.yul\":21159:21290   */\n      tag_321\n      jump\t// in\n    tag_559:\n        /* \"#utility.yul\":21151:21290   */\n      swap1\n      pop\n        /* \"#utility.yul\":21300:21372   */\n      tag_560\n        /* \"#utility.yul\":21368:21370   */\n      0x20\n        /* \"#utility.yul\":21357:21366   */\n      dup4\n        /* \"#utility.yul\":21353:21371   */\n      add\n        /* \"#utility.yul\":21344:21350   */\n      dup6\n        /* \"#utility.yul\":21300:21372   */\n      tag_292\n      jump\t// in\n    tag_560:\n        /* \"#utility.yul\":21382:21454   */\n      tag_561\n        /* \"#utility.yul\":21450:21452   */\n      0x40\n        /* \"#utility.yul\":21439:21448   */\n      dup4\n        /* \"#utility.yul\":21435:21453   */\n      add\n        /* \"#utility.yul\":21426:21432   */\n      dup5\n        /* \"#utility.yul\":21382:21454   */\n      tag_289\n      jump\t// in\n    tag_561:\n        /* \"#utility.yul\":20822:21461   */\n      swap4\n      swap3\n      pop\n      pop\n      pop\n      jump\t// out\n        /* \"#utility.yul\":21467:21647   */\n    tag_322:\n        /* \"#utility.yul\":21515:21592   */\n      0x4e487b7100000000000000000000000000000000000000000000000000000000\n        /* \"#utility.yul\":21512:21513   */\n      0x00\n        /* \"#utility.yul\":21505:21593   */\n      mstore\n        /* \"#utility.yul\":21612:21616   */\n      0x22\n        /* \"#utility.yul\":21609:21610   */\n      0x04\n        /* \"#utility.yul\":21602:21617   */\n      mstore\n        /* \"#utility.yul\":21636:21640   */\n      0x24\n        /* \"#utility.yul\":21633:21634   */\n      0x00\n        /* \"#utility.yul\":21626:21641   */\n      revert\n        /* \"#utility.yul\":21653:21973   */\n    tag_183:\n        /* \"#utility.yul\":21697:21703   */\n      0x00\n        /* \"#utility.yul\":21734:21735   */\n      0x02\n        /* \"#utility.yul\":21728:21732   */\n      dup3\n        /* \"#utility.yul\":21724:21736   */\n      div\n        /* \"#utility.yul\":21714:21736   */\n      swap1\n      pop\n        /* \"#utility.yul\":21781:21782   */\n      0x01\n        /* \"#utility.yul\":21775:21779   */\n      dup3\n        /* \"#utility.yul\":21771:21783   */\n      and\n        /* \"#utility.yul\":21802:21820   */\n      dup1\n        /* \"#utility.yul\":21792:21873   */\n      tag_564\n      jumpi\n        /* \"#utility.yul\":21858:21862   */\n      0x7f\n        /* \"#utility.yul\":21850:21856   */\n      dup3\n        /* \"#utility.yul\":21846:21863   */\n      and\n        /* \"#utility.yul\":21836:21863   */\n      swap2\n      pop\n        /* \"#utility.yul\":21792:21873   */\n    tag_564:\n        /* \"#utility.yul\":21920:21922   */\n      0x20\n        /* \"#utility.yul\":21912:21918   */\n      dup3\n        /* \"#utility.yul\":21909:21923   */\n      lt\n        /* \"#utility.yul\":21889:21907   */\n      dup2\n        /* \"#utility.yul\":21886:21924   */\n      sub\n        /* \"#utility.yul\":21883:21967   */\n      tag_565\n      jumpi\n        /* \"#utility.yul\":21939:21957   */\n      tag_566\n      tag_322\n      jump\t// in\n    tag_566:\n        /* \"#utility.yul\":21883:21967   */\n    tag_565:\n        /* \"#utility.yul\":21704:21973   */\n      pop\n        /* \"#utility.yul\":21653:21973   */\n      swap2\n      swap1\n      pop\n      jump\t// out\n        /* \"#utility.yul\":21979:22152   */\n    tag_323:\n        /* \"#utility.yul\":22119:22144   */\n      0x496e696369616e646f207472616e73666572656e636961000000000000000000\n        /* \"#utility.yul\":22115:22116   */\n      0x00\n        /* \"#utility.yul\":22107:22113   */\n      dup3\n        /* \"#utility.yul\":22103:22117   */\n      add\n        /* \"#utility.yul\":22096:22145   */\n      mstore\n        /* \"#utility.yul\":21979:22152   */\n      pop\n      jump\t// out\n        /* \"#utility.yul\":22158:22524   */\n    tag_324:\n        /* \"#utility.yul\":22300:22303   */\n      0x00\n        /* \"#utility.yul\":22321:22388   */\n      tag_569\n        /* \"#utility.yul\":22385:22387   */\n      0x17\n        /* \"#utility.yul\":22380:22383   */\n      dup4\n        /* \"#utility.yul\":22321:22388   */\n      tag_270\n      jump\t// in\n    tag_569:\n        /* \"#utility.yul\":22314:22388   */\n      swap2\n      pop\n        /* \"#utility.yul\":22397:22490   */\n      tag_570\n        /* \"#utility.yul\":22486:22489   */\n      dup3\n        /* \"#utility.yul\":22397:22490   */\n      tag_323\n      jump\t// in\n    tag_570:\n        /* \"#utility.yul\":22515:22517   */\n      0x20\n        /* \"#utility.yul\":22510:22513   */\n      dup3\n        /* \"#utility.yul\":22506:22518   */\n      add\n        /* \"#utility.yul\":22499:22518   */\n      swap1\n      pop\n        /* \"#utility.yul\":22158:22524   */\n      swap2\n      swap1\n      pop\n      jump\t// out\n        /* \"#utility.yul\":22530:23169   */\n    tag_201:\n        /* \"#utility.yul\":22752:22756   */\n      0x00\n        /* \"#utility.yul\":22790:22792   */\n      0x60\n        /* \"#utility.yul\":22779:22788   */\n      dup3\n        /* \"#utility.yul\":22775:22793   */\n      add\n        /* \"#utility.yul\":22767:22793   */\n      swap1\n      pop\n        /* \"#utility.yul\":22839:22848   */\n      dup2\n        /* \"#utility.yul\":22833:22837   */\n      dup2\n        /* \"#utility.yul\":22829:22849   */\n      sub\n        /* \"#utility.yul\":22825:22826   */\n      0x00\n        /* \"#utility.yul\":22814:22823   */\n      dup4\n        /* \"#utility.yul\":22810:22827   */\n      add\n        /* \"#utility.yul\":22803:22850   */\n      mstore\n        /* \"#utility.yul\":22867:22998   */\n      tag_572\n        /* \"#utility.yul\":22993:22997   */\n      dup2\n        /* \"#utility.yul\":22867:22998   */\n      tag_324\n      jump\t// in\n    tag_572:\n        /* \"#utility.yul\":22859:22998   */\n      swap1\n      pop\n        /* \"#utility.yul\":23008:23080   */\n      tag_573\n        /* \"#utility.yul\":23076:23078   */\n      0x20\n        /* \"#utility.yul\":23065:23074   */\n      dup4\n        /* \"#utility.yul\":23061:23079   */\n      add\n        /* \"#utility.yul\":23052:23058   */\n      dup6\n        /* \"#utility.yul\":23008:23080   */\n      tag_292\n      jump\t// in\n    tag_573:\n        /* \"#utility.yul\":23090:23162   */\n      tag_574\n        /* \"#utility.yul\":23158:23160   */\n      0x40\n        /* \"#utility.yul\":23147:23156   */\n      dup4\n        /* \"#utility.yul\":23143:23161   */\n      add\n        /* \"#utility.yul\":23134:23140   */\n      dup5\n        /* \"#utility.yul\":23090:23162   */\n      tag_289\n      jump\t// in\n    tag_574:\n        /* \"#utility.yul\":22530:23169   */\n      swap4\n      swap3\n      pop\n      pop\n      pop\n      jump\t// out\n        /* \"#utility.yul\":23175:23348   */\n    tag_325:\n        /* \"#utility.yul\":23315:23340   */\n      0x5472616e73666572656e63696120636f6e636c75696461000000000000000000\n        /* \"#utility.yul\":23311:23312   */\n      0x00\n        /* \"#utility.yul\":23303:23309   */\n      dup3\n        /* \"#utility.yul\":23299:23313   */\n      add\n        /* \"#utility.yul\":23292:23341   */\n      mstore\n        /* \"#utility.yul\":23175:23348   */\n      pop\n      jump\t// out\n        /* \"#utility.yul\":23354:23720   */\n    tag_326:\n        /* \"#utility.yul\":23496:23499   */\n      0x00\n        /* \"#utility.yul\":23517:23584   */\n      tag_577\n        /* \"#utility.yul\":23581:23583   */\n      0x17\n        /* \"#utility.yul\":23576:23579   */\n      dup4\n        /* \"#utility.yul\":23517:23584   */\n      tag_270\n      jump\t// in\n    tag_577:\n        /* \"#utility.yul\":23510:23584   */\n      swap2\n      pop\n        /* \"#utility.yul\":23593:23686   */\n      tag_578\n        /* \"#utility.yul\":23682:23685   */\n      dup3\n        /* \"#utility.yul\":23593:23686   */\n      tag_325\n      jump\t// in\n    tag_578:\n        /* \"#utility.yul\":23711:23713   */\n      0x20\n        /* \"#utility.yul\":23706:23709   */\n      dup3\n        /* \"#utility.yul\":23702:23714   */\n      add\n        /* \"#utility.yul\":23695:23714   */\n      swap1\n      pop\n        /* \"#utility.yul\":23354:23720   */\n      swap2\n      swap1\n      pop\n      jump\t// out\n        /* \"#utility.yul\":23726:24365   */\n    tag_210:\n        /* \"#utility.yul\":23948:23952   */\n      0x00\n        /* \"#utility.yul\":23986:23988   */\n      0x60\n        /* \"#utility.yul\":23975:23984   */\n      dup3\n        /* \"#utility.yul\":23971:23989   */\n      add\n        /* \"#utility.yul\":23963:23989   */\n      swap1\n      pop\n        /* \"#utility.yul\":24035:24044   */\n      dup2\n        /* \"#utility.yul\":24029:24033   */\n      dup2\n        /* \"#utility.yul\":24025:24045   */\n      sub\n        /* \"#utility.yul\":24021:24022   */\n      0x00\n        /* \"#utility.yul\":24010:24019   */\n      dup4\n        /* \"#utility.yul\":24006:24023   */\n      add\n        /* \"#utility.yul\":23999:24046   */\n      mstore\n        /* \"#utility.yul\":24063:24194   */\n      tag_580\n        /* \"#utility.yul\":24189:24193   */\n      dup2\n        /* \"#utility.yul\":24063:24194   */\n      tag_326\n      jump\t// in\n    tag_580:\n        /* \"#utility.yul\":24055:24194   */\n      swap1\n      pop\n        /* \"#utility.yul\":24204:24276   */\n      tag_581\n        /* \"#utility.yul\":24272:24274   */\n      0x20\n        /* \"#utility.yul\":24261:24270   */\n      dup4\n        /* \"#utility.yul\":24257:24275   */\n      add\n        /* \"#utility.yul\":24248:24254   */\n      dup6\n        /* \"#utility.yul\":24204:24276   */\n      tag_292\n      jump\t// in\n    tag_581:\n        /* \"#utility.yul\":24286:24358   */\n      tag_582\n        /* \"#utility.yul\":24354:24356   */\n      0x40\n        /* \"#utility.yul\":24343:24352   */\n      dup4\n        /* \"#utility.yul\":24339:24357   */\n      add\n        /* \"#utility.yul\":24330:24336   */\n      dup5\n        /* \"#utility.yul\":24286:24358   */\n      tag_289\n      jump\t// in\n    tag_582:\n        /* \"#utility.yul\":23726:24365   */\n      swap4\n      swap3\n      pop\n      pop\n      pop\n      jump\t// out\n        /* \"#utility.yul\":24371:24512   */\n    tag_327:\n        /* \"#utility.yul\":24420:24424   */\n      0x00\n        /* \"#utility.yul\":24443:24446   */\n      dup2\n        /* \"#utility.yul\":24435:24446   */\n      swap1\n      pop\n        /* \"#utility.yul\":24466:24469   */\n      dup2\n        /* \"#utility.yul\":24463:24464   */\n      0x00\n        /* \"#utility.yul\":24456:24470   */\n      mstore\n        /* \"#utility.yul\":24500:24504   */\n      0x20\n        /* \"#utility.yul\":24497:24498   */\n      0x00\n        /* \"#utility.yul\":24487:24505   */\n      keccak256\n        /* \"#utility.yul\":24479:24505   */\n      swap1\n      pop\n        /* \"#utility.yul\":24371:24512   */\n      swap2\n      swap1\n      pop\n      jump\t// out\n        /* \"#utility.yul\":24518:24611   */\n    tag_328:\n        /* \"#utility.yul\":24555:24561   */\n      0x00\n        /* \"#utility.yul\":24602:24604   */\n      0x20\n        /* \"#utility.yul\":24597:24599   */\n      0x1f\n        /* \"#utility.yul\":24590:24595   */\n      dup4\n        /* \"#utility.yul\":24586:24600   */\n      add\n        /* \"#utility.yul\":24582:24605   */\n      div\n        /* \"#utility.yul\":24572:24605   */\n      swap1\n      pop\n        /* \"#utility.yul\":24518:24611   */\n      swap2\n      swap1\n      pop\n      jump\t// out\n        /* \"#utility.yul\":24617:24724   */\n    tag_329:\n        /* \"#utility.yul\":24661:24669   */\n      0x00\n        /* \"#utility.yul\":24711:24716   */\n      dup3\n        /* \"#utility.yul\":24705:24709   */\n      dup3\n        /* \"#utility.yul\":24701:24717   */\n      shl\n        /* \"#utility.yul\":24680:24717   */\n      swap1\n      pop\n        /* \"#utility.yul\":24617:24724   */\n      swap3\n      swap2\n      pop\n      pop\n      jump\t// out\n        /* \"#utility.yul\":24730:25123   */\n    tag_330:\n        /* \"#utility.yul\":24799:24805   */\n      0x00\n        /* \"#utility.yul\":24849:24850   */\n      0x08\n        /* \"#utility.yul\":24837:24847   */\n      dup4\n        /* \"#utility.yul\":24833:24851   */\n      mul\n        /* \"#utility.yul\":24872:24969   */\n      tag_587\n        /* \"#utility.yul\":24902:24968   */\n      0xffffffffffffffffffffffffffffffffffffffffffffffffffffffffffffffff\n        /* \"#utility.yul\":24891:24900   */\n      dup3\n        /* \"#utility.yul\":24872:24969   */\n      tag_329\n      jump\t// in\n    tag_587:\n        /* \"#utility.yul\":24990:25029   */\n      tag_588\n        /* \"#utility.yul\":25020:25028   */\n      dup7\n        /* \"#utility.yul\":25009:25018   */\n      dup4\n        /* \"#utility.yul\":24990:25029   */\n      tag_329\n      jump\t// in\n    tag_588:\n        /* \"#utility.yul\":24978:25029   */\n      swap6\n      pop\n        /* \"#utility.yul\":25062:25066   */\n      dup1\n        /* \"#utility.yul\":25058:25067   */\n      not\n        /* \"#utility.yul\":25051:25056   */\n      dup5\n        /* \"#utility.yul\":25047:25068   */\n      and\n        /* \"#utility.yul\":25038:25068   */\n      swap4\n      pop\n        /* \"#utility.yul\":25111:25115   */\n      dup1\n        /* \"#utility.yul\":25101:25109   */\n      dup7\n        /* \"#utility.yul\":25097:25116   */\n      and\n        /* \"#utility.yul\":25090:25095   */\n      dup5\n        /* \"#utility.yul\":25087:25117   */\n      or\n        /* \"#utility.yul\":25077:25117   */\n      swap3\n      pop\n        /* \"#utility.yul\":24806:25123   */\n      pop\n      pop\n        /* \"#utility.yul\":24730:25123   */\n      swap4\n      swap3\n      pop\n      pop\n      pop\n      jump\t// out\n        /* \"#utility.yul\":25129:25189   */\n    tag_331:\n        /* \"#utility.yul\":25157:25160   */\n      0x00\n        /* \"#utility.yul\":25178:25183   */\n      dup2\n        /* \"#utility.yul\":25171:25183   */\n      swap1\n      pop\n        /* \"#utility.yul\":25129:25189   */\n      swap2\n      swap1\n      pop\n      jump\t// out\n        /* \"#utility.yul\":25195:25337   */\n    tag_332:\n        /* \"#utility.yul\":25245:25254   */\n      0x00\n        /* \"#utility.yul\":25278:25331   */\n      tag_591\n        /* \"#utility.yul\":25296:25330   */\n      tag_592\n        /* \"#utility.yul\":25305:25329   */\n      tag_593\n        /* \"#utility.yul\":25323:25328   */\n      dup5\n        /* \"#utility.yul\":25305:25329   */\n      tag_284\n      jump\t// in\n    tag_593:\n        /* \"#utility.yul\":25296:25330   */\n      tag_331\n      jump\t// in\n    tag_592:\n        /* \"#utility.yul\":25278:25331   */\n      tag_284\n      jump\t// in\n    tag_591:\n        /* \"#utility.yul\":25265:25331   */\n      swap1\n      pop\n        /* \"#utility.yul\":25195:25337   */\n      swap2\n      swap1\n      pop\n      jump\t// out\n        /* \"#utility.yul\":25343:25418   */\n    tag_333:\n        /* \"#utility.yul\":25386:25389   */\n      0x00\n        /* \"#utility.yul\":25407:25412   */\n      dup2\n        /* \"#utility.yul\":25400:25412   */\n      swap1\n      pop\n        /* \"#utility.yul\":25343:25418   */\n      swap2\n      swap1\n      pop\n      jump\t// out\n        /* \"#utility.yul\":25424:25693   */\n    tag_334:\n        /* \"#utility.yul\":25534:25573   */\n      tag_596\n        /* \"#utility.yul\":25565:25572   */\n      dup4\n        /* \"#utility.yul\":25534:25573   */\n      tag_332\n      jump\t// in\n    tag_596:\n        /* \"#utility.yul\":25595:25686   */\n      tag_597\n        /* \"#utility.yul\":25644:25685   */\n      tag_598\n        /* \"#utility.yul\":25668:25684   */\n      dup3\n        /* \"#utility.yul\":25644:25685   */\n      tag_333\n      jump\t// in\n    tag_598:\n        /* \"#utility.yul\":25636:25642   */\n      dup5\n        /* \"#utility.yul\":25629:25633   */\n      dup5\n        /* \"#utility.yul\":25623:25634   */\n      sload\n        /* \"#utility.yul\":25595:25686   */\n      tag_330\n      jump\t// in\n    tag_597:\n        /* \"#utility.yul\":25589:25593   */\n      dup3\n        /* \"#utility.yul\":25582:25687   */\n      sstore\n        /* \"#utility.yul\":25500:25693   */\n      pop\n        /* \"#utility.yul\":25424:25693   */\n      pop\n      pop\n      pop\n      jump\t// out\n        /* \"#utility.yul\":25699:25772   */\n    tag_335:\n        /* \"#utility.yul\":25744:25747   */\n      0x00\n        /* \"#utility.yul\":25765:25766   */\n      0x00\n        /* \"#utility.yul\":25758:25766   */\n      swap1\n      pop\n        /* \"#utility.yul\":25699:25772   */\n      swap1\n      jump\t// out\n        /* \"#utility.yul\":25778:25967   */\n    tag_336:\n        /* \"#utility.yul\":25855:25887   */\n      tag_601\n      tag_335\n      jump\t// in\n    tag_601:\n        /* \"#utility.yul\":25896:25961   */\n      tag_602\n        /* \"#utility.yul\":25954:25960   */\n      dup2\n        /* \"#utility.yul\":25946:25952   */\n      dup5\n        /* \"#utility.yul\":25940:25944   */\n      dup5\n        /* \"#utility.yul\":25896:25961   */\n      tag_334\n      jump\t// in\n    tag_602:\n        /* \"#utility.yul\":25831:25967   */\n      pop\n        /* \"#utility.yul\":25778:25967   */\n      pop\n      pop\n      jump\t// out\n        /* \"#utility.yul\":25973:26159   */\n    tag_337:\n        /* \"#utility.yul\":26033:26153   */\n    tag_604:\n        /* \"#utility.yul\":26050:26053   */\n      dup2\n        /* \"#utility.yul\":26043:26048   */\n      dup2\n        /* \"#utility.yul\":26040:26054   */\n      lt\n        /* \"#utility.yul\":26033:26153   */\n      iszero\n      tag_606\n      jumpi\n        /* \"#utility.yul\":26104:26143   */\n      tag_607\n        /* \"#utility.yul\":26141:26142   */\n      0x00\n        /* \"#utility.yul\":26134:26139   */\n      dup3\n        /* \"#utility.yul\":26104:26143   */\n      tag_336\n      jump\t// in\n    tag_607:\n        /* \"#utility.yul\":26077:26078   */\n      0x01\n        /* \"#utility.yul\":26070:26075   */\n      dup2\n        /* \"#utility.yul\":26066:26079   */\n      add\n        /* \"#utility.yul\":26057:26079   */\n      swap1\n      pop\n        /* \"#utility.yul\":26033:26153   */\n      jump(tag_604)\n    tag_606:\n        /* \"#utility.yul\":25973:26159   */\n      pop\n      pop\n      jump\t// out\n        /* \"#utility.yul\":26165:26708   */\n    tag_338:\n        /* \"#utility.yul\":26266:26268   */\n      0x1f\n        /* \"#utility.yul\":26261:26264   */\n      dup3\n        /* \"#utility.yul\":26258:26269   */\n      gt\n        /* \"#utility.yul\":26255:26701   */\n      iszero\n      tag_609\n      jumpi\n        /* \"#utility.yul\":26300:26338   */\n      tag_610\n        /* \"#utility.yul\":26332:26337   */\n      dup2\n        /* \"#utility.yul\":26300:26338   */\n      tag_327\n      jump\t// in\n    tag_610:\n        /* \"#utility.yul\":26384:26413   */\n      tag_611\n        /* \"#utility.yul\":26402:26412   */\n      dup5\n        /* \"#utility.yul\":26384:26413   */\n      tag_328\n      jump\t// in\n    tag_611:\n        /* \"#utility.yul\":26374:26382   */\n      dup2\n        /* \"#utility.yul\":26370:26414   */\n      add\n        /* \"#utility.yul\":26567:26569   */\n      0x20\n        /* \"#utility.yul\":26555:26565   */\n      dup6\n        /* \"#utility.yul\":26552:26570   */\n      lt\n        /* \"#utility.yul\":26549:26598   */\n      iszero\n      tag_612\n      jumpi\n        /* \"#utility.yul\":26588:26596   */\n      dup2\n        /* \"#utility.yul\":26573:26596   */\n      swap1\n      pop\n        /* \"#utility.yul\":26549:26598   */\n    tag_612:\n        /* \"#utility.yul\":26611:26691   */\n      tag_613\n        /* \"#utility.yul\":26667:26689   */\n      tag_614\n        /* \"#utility.yul\":26685:26688   */\n      dup6\n        /* \"#utility.yul\":26667:26689   */\n      tag_328\n      jump\t// in\n    tag_614:\n        /* \"#utility.yul\":26657:26665   */\n      dup4\n        /* \"#utility.yul\":26653:26690   */\n      add\n        /* \"#utility.yul\":26640:26651   */\n      dup3\n        /* \"#utility.yul\":26611:26691   */\n      tag_337\n      jump\t// in\n    tag_613:\n        /* \"#utility.yul\":26270:26701   */\n      pop\n      pop\n        /* \"#utility.yul\":26255:26701   */\n    tag_609:\n        /* \"#utility.yul\":26165:26708   */\n      pop\n      pop\n      pop\n      jump\t// out\n        /* \"#utility.yul\":26714:26831   */\n    tag_339:\n        /* \"#utility.yul\":26768:26776   */\n      0x00\n        /* \"#utility.yul\":26818:26823   */\n      dup3\n        /* \"#utility.yul\":26812:26816   */\n      dup3\n        /* \"#utility.yul\":26808:26824   */\n      shr\n        /* \"#utility.yul\":26787:26824   */\n      swap1\n      pop\n        /* \"#utility.yul\":26714:26831   */\n      swap3\n      swap2\n      pop\n      pop\n      jump\t// out\n        /* \"#utility.yul\":26837:27006   */\n    tag_340:\n        /* \"#utility.yul\":26881:26887   */\n      0x00\n        /* \"#utility.yul\":26914:26965   */\n      tag_617\n        /* \"#utility.yul\":26962:26963   */\n      0x00\n        /* \"#utility.yul\":26958:26964   */\n      not\n        /* \"#utility.yul\":26950:26955   */\n      dup5\n        /* \"#utility.yul\":26947:26948   */\n      0x08\n        /* \"#utility.yul\":26943:26956   */\n      mul\n        /* \"#utility.yul\":26914:26965   */\n      tag_339\n      jump\t// in\n    tag_617:\n        /* \"#utility.yul\":26910:26966   */\n      not\n        /* \"#utility.yul\":26995:26999   */\n      dup1\n        /* \"#utility.yul\":26989:26993   */\n      dup4\n        /* \"#utility.yul\":26985:27000   */\n      and\n        /* \"#utility.yul\":26975:27000   */\n      swap2\n      pop\n        /* \"#utility.yul\":26888:27006   */\n      pop\n        /* \"#utility.yul\":26837:27006   */\n      swap3\n      swap2\n      pop\n      pop\n      jump\t// out\n        /* \"#utility.yul\":27011:27306   */\n    tag_341:\n        /* \"#utility.yul\":27087:27091   */\n      0x00\n        /* \"#utility.yul\":27233:27262   */\n      tag_619\n        /* \"#utility.yul\":27258:27261   */\n      dup4\n        /* \"#utility.yul\":27252:27256   */\n      dup4\n        /* \"#utility.yul\":27233:27262   */\n      tag_340\n      jump\t// in\n    tag_619:\n        /* \"#utility.yul\":27225:27262   */\n      swap2\n      pop\n        /* \"#utility.yul\":27295:27298   */\n      dup3\n        /* \"#utility.yul\":27292:27293   */\n      0x02\n        /* \"#utility.yul\":27288:27299   */\n      mul\n        /* \"#utility.yul\":27282:27286   */\n      dup3\n        /* \"#utility.yul\":27279:27300   */\n      or\n        /* \"#utility.yul\":27271:27300   */\n      swap1\n      pop\n        /* \"#utility.yul\":27011:27306   */\n      swap3\n      swap2\n      pop\n      pop\n      jump\t// out\n        /* \"#utility.yul\":27311:28706   */\n    tag_216:\n        /* \"#utility.yul\":27428:27465   */\n      tag_621\n        /* \"#utility.yul\":27461:27464   */\n      dup3\n        /* \"#utility.yul\":27428:27465   */\n      tag_273\n      jump\t// in\n    tag_621:\n        /* \"#utility.yul\":27530:27548   */\n      0xffffffffffffffff\n        /* \"#utility.yul\":27522:27528   */\n      dup2\n        /* \"#utility.yul\":27519:27549   */\n      gt\n        /* \"#utility.yul\":27516:27572   */\n      iszero\n      tag_622\n      jumpi\n        /* \"#utility.yul\":27552:27570   */\n      tag_623\n      tag_295\n      jump\t// in\n    tag_623:\n        /* \"#utility.yul\":27516:27572   */\n    tag_622:\n        /* \"#utility.yul\":27596:27634   */\n      tag_624\n        /* \"#utility.yul\":27628:27632   */\n      dup3\n        /* \"#utility.yul\":27622:27633   */\n      sload\n        /* \"#utility.yul\":27596:27634   */\n      tag_183\n      jump\t// in\n    tag_624:\n        /* \"#utility.yul\":27681:27748   */\n      tag_625\n        /* \"#utility.yul\":27741:27747   */\n      dup3\n        /* \"#utility.yul\":27733:27739   */\n      dup3\n        /* \"#utility.yul\":27727:27731   */\n      dup6\n        /* \"#utility.yul\":27681:27748   */\n      tag_338\n      jump\t// in\n    tag_625:\n        /* \"#utility.yul\":27775:27776   */\n      0x00\n        /* \"#utility.yul\":27799:27803   */\n      0x20\n        /* \"#utility.yul\":27786:27803   */\n      swap1\n      pop\n        /* \"#utility.yul\":27831:27833   */\n      0x1f\n        /* \"#utility.yul\":27823:27829   */\n      dup4\n        /* \"#utility.yul\":27820:27834   */\n      gt\n        /* \"#utility.yul\":27848:27849   */\n      0x01\n        /* \"#utility.yul\":27843:28461   */\n      dup2\n      eq\n      tag_627\n      jumpi\n        /* \"#utility.yul\":28505:28506   */\n      0x00\n        /* \"#utility.yul\":28522:28528   */\n      dup5\n        /* \"#utility.yul\":28519:28596   */\n      iszero\n      tag_628\n      jumpi\n        /* \"#utility.yul\":28571:28580   */\n      dup3\n        /* \"#utility.yul\":28566:28569   */\n      dup8\n        /* \"#utility.yul\":28562:28581   */\n      add\n        /* \"#utility.yul\":28556:28582   */\n      mload\n        /* \"#utility.yul\":28547:28582   */\n      swap1\n      pop\n        /* \"#utility.yul\":28519:28596   */\n    tag_628:\n        /* \"#utility.yul\":28622:28689   */\n      tag_629\n        /* \"#utility.yul\":28682:28688   */\n      dup6\n        /* \"#utility.yul\":28675:28680   */\n      dup3\n        /* \"#utility.yul\":28622:28689   */\n      tag_341\n      jump\t// in\n    tag_629:\n        /* \"#utility.yul\":28616:28620   */\n      dup7\n        /* \"#utility.yul\":28609:28690   */\n      sstore\n        /* \"#utility.yul\":28478:28700   */\n      pop\n        /* \"#utility.yul\":27813:28700   */\n      jump(tag_626)\n        /* \"#utility.yul\":27843:28461   */\n    tag_627:\n        /* \"#utility.yul\":27895:27899   */\n      0x1f\n        /* \"#utility.yul\":27891:27900   */\n      not\n        /* \"#utility.yul\":27883:27889   */\n      dup5\n        /* \"#utility.yul\":27879:27901   */\n      and\n        /* \"#utility.yul\":27929:27966   */\n      tag_630\n        /* \"#utility.yul\":27961:27965   */\n      dup7\n        /* \"#utility.yul\":27929:27966   */\n      tag_327\n      jump\t// in\n    tag_630:\n        /* \"#utility.yul\":27988:27989   */\n      0x00\n        /* \"#utility.yul\":28002:28210   */\n    tag_631:\n        /* \"#utility.yul\":28016:28023   */\n      dup3\n        /* \"#utility.yul\":28013:28014   */\n      dup2\n        /* \"#utility.yul\":28010:28024   */\n      lt\n        /* \"#utility.yul\":28002:28210   */\n      iszero\n      tag_633\n      jumpi\n        /* \"#utility.yul\":28095:28104   */\n      dup5\n        /* \"#utility.yul\":28090:28093   */\n      dup10\n        /* \"#utility.yul\":28086:28105   */\n      add\n        /* \"#utility.yul\":28080:28106   */\n      mload\n        /* \"#utility.yul\":28072:28078   */\n      dup3\n        /* \"#utility.yul\":28065:28107   */\n      sstore\n        /* \"#utility.yul\":28146:28147   */\n      0x01\n        /* \"#utility.yul\":28138:28144   */\n      dup3\n        /* \"#utility.yul\":28134:28148   */\n      add\n        /* \"#utility.yul\":28124:28148   */\n      swap2\n      pop\n        /* \"#utility.yul\":28193:28195   */\n      0x20\n        /* \"#utility.yul\":28182:28191   */\n      dup6\n        /* \"#utility.yul\":28178:28196   */\n      add\n        /* \"#utility.yul\":28165:28196   */\n      swap5\n      pop\n        /* \"#utility.yul\":28039:28043   */\n      0x20\n        /* \"#utility.yul\":28036:28037   */\n      dup2\n        /* \"#utility.yul\":28032:28044   */\n      add\n        /* \"#utility.yul\":28027:28044   */\n      swap1\n      pop\n        /* \"#utility.yul\":28002:28210   */\n      jump(tag_631)\n    tag_633:\n        /* \"#utility.yul\":28238:28244   */\n      dup7\n        /* \"#utility.yul\":28229:28236   */\n      dup4\n        /* \"#utility.yul\":28226:28245   */\n      lt\n        /* \"#utility.yul\":28223:28402   */\n      iszero\n      tag_634\n      jumpi\n        /* \"#utility.yul\":28296:28305   */\n      dup5\n        /* \"#utility.yul\":28291:28294   */\n      dup10\n        /* \"#utility.yul\":28287:28306   */\n      add\n        /* \"#utility.yul\":28281:28307   */\n      mload\n        /* \"#utility.yul\":28339:28387   */\n      tag_635\n        /* \"#utility.yul\":28381:28385   */\n      0x1f\n        /* \"#utility.yul\":28373:28379   */\n      dup10\n        /* \"#utility.yul\":28369:28386   */\n      and\n        /* \"#utility.yul\":28358:28367   */\n      dup3\n        /* \"#utility.yul\":28339:28387   */\n      tag_340\n      jump\t// in\n    tag_635:\n        /* \"#utility.yul\":28331:28337   */\n      dup4\n        /* \"#utility.yul\":28324:28388   */\n      sstore\n        /* \"#utility.yul\":28246:28402   */\n      pop\n        /* \"#utility.yul\":28223:28402   */\n    tag_634:\n        /* \"#utility.yul\":28448:28449   */\n      0x01\n        /* \"#utility.yul\":28444:28445   */\n      0x02\n        /* \"#utility.yul\":28436:28442   */\n      dup9\n        /* \"#utility.yul\":28432:28446   */\n      mul\n        /* \"#utility.yul\":28428:28450   */\n      add\n        /* \"#utility.yul\":28422:28426   */\n      dup9\n        /* \"#utility.yul\":28415:28451   */\n      sstore\n        /* \"#utility.yul\":27850:28461   */\n      pop\n      pop\n      pop\n        /* \"#utility.yul\":27813:28700   */\n    tag_626:\n      pop\n        /* \"#utility.yul\":27403:28706   */\n      pop\n      pop\n      pop\n        /* \"#utility.yul\":27311:28706   */\n      pop\n      pop\n      jump\t// out\n        /* \"#utility.yul\":28712:28936   */\n    tag_342:\n        /* \"#utility.yul\":28852:28886   */\n      0x412074617861206465766520736572206d61696f72206f7520696775616c2061\n        /* \"#utility.yul\":28848:28849   */\n      0x00\n        /* \"#utility.yul\":28840:28846   */\n      dup3\n        /* \"#utility.yul\":28836:28850   */\n      add\n        /* \"#utility.yul\":28829:28887   */\n      mstore\n        /* \"#utility.yul\":28921:28928   */\n      0x207a65726f000000000000000000000000000000000000000000000000000000\n        /* \"#utility.yul\":28916:28918   */\n      0x20\n        /* \"#utility.yul\":28908:28914   */\n      dup3\n        /* \"#utility.yul\":28904:28919   */\n      add\n        /* \"#utility.yul\":28897:28929   */\n      mstore\n        /* \"#utility.yul\":28712:28936   */\n      pop\n      jump\t// out\n        /* \"#utility.yul\":28942:29308   */\n    tag_343:\n        /* \"#utility.yul\":29084:29087   */\n      0x00\n        /* \"#utility.yul\":29105:29172   */\n      tag_638\n        /* \"#utility.yul\":29169:29171   */\n      0x25\n        /* \"#utility.yul\":29164:29167   */\n      dup4\n        /* \"#utility.yul\":29105:29172   */\n      tag_270\n      jump\t// in\n    tag_638:\n        /* \"#utility.yul\":29098:29172   */\n      swap2\n      pop\n        /* \"#utility.yul\":29181:29274   */\n      tag_639\n        /* \"#utility.yul\":29270:29273   */\n      dup3\n        /* \"#utility.yul\":29181:29274   */\n      tag_342\n      jump\t// in\n    tag_639:\n        /* \"#utility.yul\":29299:29301   */\n      0x40\n        /* \"#utility.yul\":29294:29297   */\n      dup3\n        /* \"#utility.yul\":29290:29302   */\n      add\n        /* \"#utility.yul\":29283:29302   */\n      swap1\n      pop\n        /* \"#utility.yul\":28942:29308   */\n      swap2\n      swap1\n      pop\n      jump\t// out\n        /* \"#utility.yul\":29314:29733   */\n    tag_224:\n        /* \"#utility.yul\":29480:29484   */\n      0x00\n        /* \"#utility.yul\":29518:29520   */\n      0x20\n        /* \"#utility.yul\":29507:29516   */\n      dup3\n        /* \"#utility.yul\":29503:29521   */\n      add\n        /* \"#utility.yul\":29495:29521   */\n      swap1\n      pop\n        /* \"#utility.yul\":29567:29576   */\n      dup2\n        /* \"#utility.yul\":29561:29565   */\n      dup2\n        /* \"#utility.yul\":29557:29577   */\n      sub\n        /* \"#utility.yul\":29553:29554   */\n      0x00\n        /* \"#utility.yul\":29542:29551   */\n      dup4\n        /* \"#utility.yul\":29538:29555   */\n      add\n        /* \"#utility.yul\":29531:29578   */\n      mstore\n        /* \"#utility.yul\":29595:29726   */\n      tag_641\n        /* \"#utility.yul\":29721:29725   */\n      dup2\n        /* \"#utility.yul\":29595:29726   */\n      tag_343\n      jump\t// in\n    tag_641:\n        /* \"#utility.yul\":29587:29726   */\n      swap1\n      pop\n        /* \"#utility.yul\":29314:29733   */\n      swap2\n      swap1\n      pop\n      jump\t// out\n        /* \"#utility.yul\":29739:29918   */\n    tag_344:\n        /* \"#utility.yul\":29879:29910   */\n      0x496e76616c69642066656520726563697069656e742061646472657373000000\n        /* \"#utility.yul\":29875:29876   */\n      0x00\n        /* \"#utility.yul\":29867:29873   */\n      dup3\n        /* \"#utility.yul\":29863:29877   */\n      add\n        /* \"#utility.yul\":29856:29911   */\n      mstore\n        /* \"#utility.yul\":29739:29918   */\n      pop\n      jump\t// out\n        /* \"#utility.yul\":29924:30290   */\n    tag_345:\n        /* \"#utility.yul\":30066:30069   */\n      0x00\n        /* \"#utility.yul\":30087:30154   */\n      tag_644\n        /* \"#utility.yul\":30151:30153   */\n      0x1d\n        /* \"#utility.yul\":30146:30149   */\n      dup4\n        /* \"#utility.yul\":30087:30154   */\n      tag_270\n      jump\t// in\n    tag_644:\n        /* \"#utility.yul\":30080:30154   */\n      swap2\n      pop\n        /* \"#utility.yul\":30163:30256   */\n      tag_645\n        /* \"#utility.yul\":30252:30255   */\n      dup3\n        /* \"#utility.yul\":30163:30256   */\n      tag_344\n      jump\t// in\n    tag_645:\n        /* \"#utility.yul\":30281:30283   */\n      0x20\n        /* \"#utility.yul\":30276:30279   */\n      dup3\n        /* \"#utility.yul\":30272:30284   */\n      add\n        /* \"#utility.yul\":30265:30284   */\n      swap1\n      pop\n        /* \"#utility.yul\":29924:30290   */\n      swap2\n      swap1\n      pop\n      jump\t// out\n        /* \"#utility.yul\":30296:30715   */\n    tag_233:\n        /* \"#utility.yul\":30462:30466   */\n      0x00\n        /* \"#utility.yul\":30500:30502   */\n      0x20\n        /* \"#utility.yul\":30489:30498   */\n      dup3\n        /* \"#utility.yul\":30485:30503   */\n      add\n        /* \"#utility.yul\":30477:30503   */\n      swap1\n      pop\n        /* \"#utility.yul\":30549:30558   */\n      dup2\n        /* \"#utility.yul\":30543:30547   */\n      dup2\n        /* \"#utility.yul\":30539:30559   */\n      sub\n        /* \"#utility.yul\":30535:30536   */\n      0x00\n        /* \"#utility.yul\":30524:30533   */\n      dup4\n        /* \"#utility.yul\":30520:30537   */\n      add\n        /* \"#utility.yul\":30513:30560   */\n      mstore\n        /* \"#utility.yul\":30577:30708   */\n      tag_647\n        /* \"#utility.yul\":30703:30707   */\n      dup2\n        /* \"#utility.yul\":30577:30708   */\n      tag_345\n      jump\t// in\n    tag_647:\n        /* \"#utility.yul\":30569:30708   */\n      swap1\n      pop\n        /* \"#utility.yul\":30296:30715   */\n      swap2\n      swap1\n      pop\n      jump\t// out\n        /* \"#utility.yul\":30721:30900   */\n    tag_346:\n        /* \"#utility.yul\":30861:30892   */\n      0x4e6577206f776e657220697320746865207a65726f2061646472657373000000\n        /* \"#utility.yul\":30857:30858   */\n      0x00\n        /* \"#utility.yul\":30849:30855   */\n      dup3\n        /* \"#utility.yul\":30845:30859   */\n      add\n        /* \"#utility.yul\":30838:30893   */\n      mstore\n        /* \"#utility.yul\":30721:30900   */\n      pop\n      jump\t// out\n        /* \"#utility.yul\":30906:31272   */\n    tag_347:\n        /* \"#utility.yul\":31048:31051   */\n      0x00\n        /* \"#utility.yul\":31069:31136   */\n      tag_650\n        /* \"#utility.yul\":31133:31135   */\n      0x1d\n        /* \"#utility.yul\":31128:31131   */\n      dup4\n        /* \"#utility.yul\":31069:31136   */\n      tag_270\n      jump\t// in\n    tag_650:\n        /* \"#utility.yul\":31062:31136   */\n      swap2\n      pop\n        /* \"#utility.yul\":31145:31238   */\n      tag_651\n        /* \"#utility.yul\":31234:31237   */\n      dup3\n        /* \"#utility.yul\":31145:31238   */\n      tag_346\n      jump\t// in\n    tag_651:\n        /* \"#utility.yul\":31263:31265   */\n      0x20\n        /* \"#utility.yul\":31258:31261   */\n      dup3\n        /* \"#utility.yul\":31254:31266   */\n      add\n        /* \"#utility.yul\":31247:31266   */\n      swap1\n      pop\n        /* \"#utility.yul\":30906:31272   */\n      swap2\n      swap1\n      pop\n      jump\t// out\n        /* \"#utility.yul\":31278:31697   */\n    tag_241:\n        /* \"#utility.yul\":31444:31448   */\n      0x00\n        /* \"#utility.yul\":31482:31484   */\n      0x20\n        /* \"#utility.yul\":31471:31480   */\n      dup3\n        /* \"#utility.yul\":31467:31485   */\n      add\n        /* \"#utility.yul\":31459:31485   */\n      swap1\n      pop\n        /* \"#utility.yul\":31531:31540   */\n      dup2\n        /* \"#utility.yul\":31525:31529   */\n      dup2\n        /* \"#utility.yul\":31521:31541   */\n      sub\n        /* \"#utility.yul\":31517:31518   */\n      0x00\n        /* \"#utility.yul\":31506:31515   */\n      dup4\n        /* \"#utility.yul\":31502:31519   */\n      add\n        /* \"#utility.yul\":31495:31542   */\n      mstore\n        /* \"#utility.yul\":31559:31690   */\n      tag_653\n        /* \"#utility.yul\":31685:31689   */\n      dup2\n        /* \"#utility.yul\":31559:31690   */\n      tag_347\n      jump\t// in\n    tag_653:\n        /* \"#utility.yul\":31551:31690   */\n      swap1\n      pop\n        /* \"#utility.yul\":31278:31697   */\n      swap2\n      swap1\n      pop\n      jump\t// out\n        /* \"#utility.yul\":31703:31927   */\n    tag_348:\n        /* \"#utility.yul\":31843:31877   */\n      0x56616c6f7220696e737566696369656e746520646520424e4220706172612061\n        /* \"#utility.yul\":31839:31840   */\n      0x00\n        /* \"#utility.yul\":31831:31837   */\n      dup3\n        /* \"#utility.yul\":31827:31841   */\n      add\n        /* \"#utility.yul\":31820:31878   */\n      mstore\n        /* \"#utility.yul\":31912:31919   */\n      0x2074617861000000000000000000000000000000000000000000000000000000\n        /* \"#utility.yul\":31907:31909   */\n      0x20\n        /* \"#utility.yul\":31899:31905   */\n      dup3\n        /* \"#utility.yul\":31895:31910   */\n      add\n        /* \"#utility.yul\":31888:31920   */\n      mstore\n        /* \"#utility.yul\":31703:31927   */\n      pop\n      jump\t// out\n        /* \"#utility.yul\":31933:32299   */\n    tag_349:\n        /* \"#utility.yul\":32075:32078   */\n      0x00\n        /* \"#utility.yul\":32096:32163   */\n      tag_656\n        /* \"#utility.yul\":32160:32162   */\n      0x25\n        /* \"#utility.yul\":32155:32158   */\n      dup4\n        /* \"#utility.yul\":32096:32163   */\n      tag_270\n      jump\t// in\n    tag_656:\n        /* \"#utility.yul\":32089:32163   */\n      swap2\n      pop\n        /* \"#utility.yul\":32172:32265   */\n      tag_657\n        /* \"#utility.yul\":32261:32264   */\n      dup3\n        /* \"#utility.yul\":32172:32265   */\n      tag_348\n      jump\t// in\n    tag_657:\n        /* \"#utility.yul\":32290:32292   */\n      0x40\n        /* \"#utility.yul\":32285:32288   */\n      dup3\n        /* \"#utility.yul\":32281:32293   */\n      add\n        /* \"#utility.yul\":32274:32293   */\n      swap1\n      pop\n        /* \"#utility.yul\":31933:32299   */\n      swap2\n      swap1\n      pop\n      jump\t// out\n        /* \"#utility.yul\":32305:32724   */\n    tag_246:\n        /* \"#utility.yul\":32471:32475   */\n      0x00\n        /* \"#utility.yul\":32509:32511   */\n      0x20\n        /* \"#utility.yul\":32498:32507   */\n      dup3\n        /* \"#utility.yul\":32494:32512   */\n      add\n        /* \"#utility.yul\":32486:32512   */\n      swap1\n      pop\n        /* \"#utility.yul\":32558:32567   */\n      dup2\n        /* \"#utility.yul\":32552:32556   */\n      dup2\n        /* \"#utility.yul\":32548:32568   */\n      sub\n        /* \"#utility.yul\":32544:32545   */\n      0x00\n        /* \"#utility.yul\":32533:32542   */\n      dup4\n        /* \"#utility.yul\":32529:32546   */\n      add\n        /* \"#utility.yul\":32522:32569   */\n      mstore\n        /* \"#utility.yul\":32586:32717   */\n      tag_659\n        /* \"#utility.yul\":32712:32716   */\n      dup2\n        /* \"#utility.yul\":32586:32717   */\n      tag_349\n      jump\t// in\n    tag_659:\n        /* \"#utility.yul\":32578:32717   */\n      swap1\n      pop\n        /* \"#utility.yul\":32305:32724   */\n      swap2\n      swap1\n      pop\n      jump\t// out\n        /* \"#utility.yul\":32730:32877   */\n    tag_350:\n        /* \"#utility.yul\":32831:32842   */\n      0x00\n        /* \"#utility.yul\":32868:32871   */\n      dup2\n        /* \"#utility.yul\":32853:32871   */\n      swap1\n      pop\n        /* \"#utility.yul\":32730:32877   */\n      swap3\n      swap2\n      pop\n      pop\n      jump\t// out\n        /* \"#utility.yul\":32883:32997   */\n    tag_351:\n      pop\n      jump\t// out\n        /* \"#utility.yul\":33003:33401   */\n    tag_352:\n        /* \"#utility.yul\":33162:33165   */\n      0x00\n        /* \"#utility.yul\":33183:33266   */\n      tag_663\n        /* \"#utility.yul\":33264:33265   */\n      0x00\n        /* \"#utility.yul\":33259:33262   */\n      dup4\n        /* \"#utility.yul\":33183:33266   */\n      tag_350\n      jump\t// in\n    tag_663:\n        /* \"#utility.yul\":33176:33266   */\n      swap2\n      pop\n        /* \"#utility.yul\":33275:33368   */\n      tag_664\n        /* \"#utility.yul\":33364:33367   */\n      dup3\n        /* \"#utility.yul\":33275:33368   */\n      tag_351\n      jump\t// in\n    tag_664:\n        /* \"#utility.yul\":33393:33394   */\n      0x00\n        /* \"#utility.yul\":33388:33391   */\n      dup3\n        /* \"#utility.yul\":33384:33395   */\n      add\n        /* \"#utility.yul\":33377:33395   */\n      swap1\n      pop\n        /* \"#utility.yul\":33003:33401   */\n      swap2\n      swap1\n      pop\n      jump\t// out\n        /* \"#utility.yul\":33407:33786   */\n    tag_249:\n        /* \"#utility.yul\":33591:33594   */\n      0x00\n        /* \"#utility.yul\":33613:33760   */\n      tag_666\n        /* \"#utility.yul\":33756:33759   */\n      dup3\n        /* \"#utility.yul\":33613:33760   */\n      tag_352\n      jump\t// in\n    tag_666:\n        /* \"#utility.yul\":33606:33760   */\n      swap2\n      pop\n        /* \"#utility.yul\":33777:33780   */\n      dup2\n        /* \"#utility.yul\":33770:33780   */\n      swap1\n      pop\n        /* \"#utility.yul\":33407:33786   */\n      swap2\n      swap1\n      pop\n      jump\t// out\n        /* \"#utility.yul\":33792:34030   */\n    tag_353:\n        /* \"#utility.yul\":33932:33966   */\n      0x46616c6861206e61207472616e73666572656e63696120646120746178612042\n        /* \"#utility.yul\":33928:33929   */\n      0x00\n        /* \"#utility.yul\":33920:33926   */\n      dup3\n        /* \"#utility.yul\":33916:33930   */\n      add\n        /* \"#utility.yul\":33909:33967   */\n      mstore\n        /* \"#utility.yul\":34001:34022   */\n      0x4e422070617261206f20726563656265646f7200000000000000000000000000\n        /* \"#utility.yul\":33996:33998   */\n      0x20\n        /* \"#utility.yul\":33988:33994   */\n      dup3\n        /* \"#utility.yul\":33984:33999   */\n      add\n        /* \"#utility.yul\":33977:34023   */\n      mstore\n        /* \"#utility.yul\":33792:34030   */\n      pop\n      jump\t// out\n        /* \"#utility.yul\":34036:34402   */\n    tag_354:\n        /* \"#utility.yul\":34178:34181   */\n      0x00\n        /* \"#utility.yul\":34199:34266   */\n      tag_669\n        /* \"#utility.yul\":34263:34265   */\n      0x33\n        /* \"#utility.yul\":34258:34261   */\n      dup4\n        /* \"#utility.yul\":34199:34266   */\n      tag_270\n      jump\t// in\n    tag_669:\n        /* \"#utility.yul\":34192:34266   */\n      swap2\n      pop\n        /* \"#utility.yul\":34275:34368   */\n      tag_670\n        /* \"#utility.yul\":34364:34367   */\n      dup3\n        /* \"#utility.yul\":34275:34368   */\n      tag_353\n      jump\t// in\n    tag_670:\n        /* \"#utility.yul\":34393:34395   */\n      0x40\n        /* \"#utility.yul\":34388:34391   */\n      dup3\n        /* \"#utility.yul\":34384:34396   */\n      add\n        /* \"#utility.yul\":34377:34396   */\n      swap1\n      pop\n        /* \"#utility.yul\":34036:34402   */\n      swap2\n      swap1\n      pop\n      jump\t// out\n        /* \"#utility.yul\":34408:34827   */\n    tag_255:\n        /* \"#utility.yul\":34574:34578   */\n      0x00\n        /* \"#utility.yul\":34612:34614   */\n      0x20\n        /* \"#utility.yul\":34601:34610   */\n      dup3\n        /* \"#utility.yul\":34597:34615   */\n      add\n        /* \"#utility.yul\":34589:34615   */\n      swap1\n      pop\n        /* \"#utility.yul\":34661:34670   */\n      dup2\n        /* \"#utility.yul\":34655:34659   */\n      dup2\n        /* \"#utility.yul\":34651:34671   */\n      sub\n        /* \"#utility.yul\":34647:34648   */\n      0x00\n        /* \"#utility.yul\":34636:34645   */\n      dup4\n        /* \"#utility.yul\":34632:34649   */\n      add\n        /* \"#utility.yul\":34625:34672   */\n      mstore\n        /* \"#utility.yul\":34689:34820   */\n      tag_672\n        /* \"#utility.yul\":34815:34819   */\n      dup2\n        /* \"#utility.yul\":34689:34820   */\n      tag_354\n      jump\t// in\n    tag_672:\n        /* \"#utility.yul\":34681:34820   */\n      swap1\n      pop\n        /* \"#utility.yul\":34408:34827   */\n      swap2\n      swap1\n      pop\n      jump\t// out\n        /* \"#utility.yul\":34833:34999   */\n    tag_355:\n        /* \"#utility.yul\":34973:34991   */\n      0x5461786120424e4220636f627261646100000000000000000000000000000000\n        /* \"#utility.yul\":34969:34970   */\n      0x00\n        /* \"#utility.yul\":34961:34967   */\n      dup3\n        /* \"#utility.yul\":34957:34971   */\n      add\n        /* \"#utility.yul\":34950:34992   */\n      mstore\n        /* \"#utility.yul\":34833:34999   */\n      pop\n      jump\t// out\n        /* \"#utility.yul\":35005:35371   */\n    tag_356:\n        /* \"#utility.yul\":35147:35150   */\n      0x00\n        /* \"#utility.yul\":35168:35235   */\n      tag_675\n        /* \"#utility.yul\":35232:35234   */\n      0x10\n        /* \"#utility.yul\":35227:35230   */\n      dup4\n        /* \"#utility.yul\":35168:35235   */\n      tag_270\n      jump\t// in\n    tag_675:\n        /* \"#utility.yul\":35161:35235   */\n      swap2\n      pop\n        /* \"#utility.yul\":35244:35337   */\n      tag_676\n        /* \"#utility.yul\":35333:35336   */\n      dup3\n        /* \"#utility.yul\":35244:35337   */\n      tag_355\n      jump\t// in\n    tag_676:\n        /* \"#utility.yul\":35362:35364   */\n      0x20\n        /* \"#utility.yul\":35357:35360   */\n      dup3\n        /* \"#utility.yul\":35353:35365   */\n      add\n        /* \"#utility.yul\":35346:35365   */\n      swap1\n      pop\n        /* \"#utility.yul\":35005:35371   */\n      swap2\n      swap1\n      pop\n      jump\t// out\n        /* \"#utility.yul\":35377:36016   */\n    tag_258:\n        /* \"#utility.yul\":35599:35603   */\n      0x00\n        /* \"#utility.yul\":35637:35639   */\n      0x60\n        /* \"#utility.yul\":35626:35635   */\n      dup3\n        /* \"#utility.yul\":35622:35640   */\n      add\n        /* \"#utility.yul\":35614:35640   */\n      swap1\n      pop\n        /* \"#utility.yul\":35686:35695   */\n      dup2\n        /* \"#utility.yul\":35680:35684   */\n      dup2\n        /* \"#utility.yul\":35676:35696   */\n      sub\n        /* \"#utility.yul\":35672:35673   */\n      0x00\n        /* \"#utility.yul\":35661:35670   */\n      dup4\n        /* \"#utility.yul\":35657:35674   */\n      add\n        /* \"#utility.yul\":35650:35697   */\n      mstore\n        /* \"#utility.yul\":35714:35845   */\n      tag_678\n        /* \"#utility.yul\":35840:35844   */\n      dup2\n        /* \"#utility.yul\":35714:35845   */\n      tag_356\n      jump\t// in\n    tag_678:\n        /* \"#utility.yul\":35706:35845   */\n      swap1\n      pop\n        /* \"#utility.yul\":35855:35927   */\n      tag_679\n        /* \"#utility.yul\":35923:35925   */\n      0x20\n        /* \"#utility.yul\":35912:35921   */\n      dup4\n        /* \"#utility.yul\":35908:35926   */\n      add\n        /* \"#utility.yul\":35899:35905   */\n      dup6\n        /* \"#utility.yul\":35855:35927   */\n      tag_292\n      jump\t// in\n    tag_679:\n        /* \"#utility.yul\":35937:36009   */\n      tag_680\n        /* \"#utility.yul\":36005:36007   */\n      0x40\n        /* \"#utility.yul\":35994:36003   */\n      dup4\n        /* \"#utility.yul\":35990:36008   */\n      add\n        /* \"#utility.yul\":35981:35987   */\n      dup5\n        /* \"#utility.yul\":35937:36009   */\n      tag_289\n      jump\t// in\n    tag_680:\n        /* \"#utility.yul\":35377:36016   */\n      swap4\n      swap3\n      pop\n      pop\n      pop\n      jump\t// out\n        /* \"#utility.yul\":36022:36204   */\n    tag_357:\n        /* \"#utility.yul\":36162:36196   */\n      0x5472616e73666572656e636961207061726120656e64657265636f207a65726f\n        /* \"#utility.yul\":36158:36159   */\n      0x00\n        /* \"#utility.yul\":36150:36156   */\n      dup3\n        /* \"#utility.yul\":36146:36160   */\n      add\n        /* \"#utility.yul\":36139:36197   */\n      mstore\n        /* \"#utility.yul\":36022:36204   */\n      pop\n      jump\t// out\n        /* \"#utility.yul\":36210:36576   */\n    tag_358:\n        /* \"#utility.yul\":36352:36355   */\n      0x00\n        /* \"#utility.yul\":36373:36440   */\n      tag_683\n        /* \"#utility.yul\":36437:36439   */\n      0x20\n        /* \"#utility.yul\":36432:36435   */\n      dup4\n        /* \"#utility.yul\":36373:36440   */\n      tag_270\n      jump\t// in\n    tag_683:\n        /* \"#utility.yul\":36366:36440   */\n      swap2\n      pop\n        /* \"#utility.yul\":36449:36542   */\n      tag_684\n        /* \"#utility.yul\":36538:36541   */\n      dup3\n        /* \"#utility.yul\":36449:36542   */\n      tag_357\n      jump\t// in\n    tag_684:\n        /* \"#utility.yul\":36567:36569   */\n      0x20\n        /* \"#utility.yul\":36562:36565   */\n      dup3\n        /* \"#utility.yul\":36558:36570   */\n      add\n        /* \"#utility.yul\":36551:36570   */\n      swap1\n      pop\n        /* \"#utility.yul\":36210:36576   */\n      swap2\n      swap1\n      pop\n      jump\t// out\n        /* \"#utility.yul\":36582:37001   */\n    tag_262:\n        /* \"#utility.yul\":36748:36752   */\n      0x00\n        /* \"#utility.yul\":36786:36788   */\n      0x20\n        /* \"#utility.yul\":36775:36784   */\n      dup3\n        /* \"#utility.yul\":36771:36789   */\n      add\n        /* \"#utility.yul\":36763:36789   */\n      swap1\n      pop\n        /* \"#utility.yul\":36835:36844   */\n      dup2\n        /* \"#utility.yul\":36829:36833   */\n      dup2\n        /* \"#utility.yul\":36825:36845   */\n      sub\n        /* \"#utility.yul\":36821:36822   */\n      0x00\n        /* \"#utility.yul\":36810:36819   */\n      dup4\n        /* \"#utility.yul\":36806:36823   */\n      add\n        /* \"#utility.yul\":36799:36846   */\n      mstore\n        /* \"#utility.yul\":36863:36994   */\n      tag_686\n        /* \"#utility.yul\":36989:36993   */\n      dup2\n        /* \"#utility.yul\":36863:36994   */\n      tag_358\n      jump\t// in\n    tag_686:\n        /* \"#utility.yul\":36855:36994   */\n      swap1\n      pop\n        /* \"#utility.yul\":36582:37001   */\n      swap2\n      swap1\n      pop\n      jump\t// out\n        /* \"#utility.yul\":37007:37186   */\n    tag_359:\n        /* \"#utility.yul\":37147:37178   */\n      0x56616c6f72206465766520736572206d61696f7220717565207a65726f000000\n        /* \"#utility.yul\":37143:37144   */\n      0x00\n        /* \"#utility.yul\":37135:37141   */\n      dup3\n        /* \"#utility.yul\":37131:37145   */\n      add\n        /* \"#utility.yul\":37124:37179   */\n      mstore\n        /* \"#utility.yul\":37007:37186   */\n      pop\n      jump\t// out\n        /* \"#utility.yul\":37192:37558   */\n    tag_360:\n        /* \"#utility.yul\":37334:37337   */\n      0x00\n        /* \"#utility.yul\":37355:37422   */\n      tag_689\n        /* \"#utility.yul\":37419:37421   */\n      0x1d\n        /* \"#utility.yul\":37414:37417   */\n      dup4\n        /* \"#utility.yul\":37355:37422   */\n      tag_270\n      jump\t// in\n    tag_689:\n        /* \"#utility.yul\":37348:37422   */\n      swap2\n      pop\n        /* \"#utility.yul\":37431:37524   */\n      tag_690\n        /* \"#utility.yul\":37520:37523   */\n      dup3\n        /* \"#utility.yul\":37431:37524   */\n      tag_359\n      jump\t// in\n    tag_690:\n        /* \"#utility.yul\":37549:37551   */\n      0x20\n        /* \"#utility.yul\":37544:37547   */\n      dup3\n        /* \"#utility.yul\":37540:37552   */\n      add\n        /* \"#utility.yul\":37533:37552   */\n      swap1\n      pop\n        /* \"#utility.yul\":37192:37558   */\n      swap2\n      swap1\n      pop\n      jump\t// out\n        /* \"#utility.yul\":37564:37983   */\n    tag_265:\n        /* \"#utility.yul\":37730:37734   */\n      0x00\n        /* \"#utility.yul\":37768:37770   */\n      0x20\n        /* \"#utility.yul\":37757:37766   */\n      dup3\n        /* \"#utility.yul\":37753:37771   */\n      add\n        /* \"#utility.yul\":37745:37771   */\n      swap1\n      pop\n        /* \"#utility.yul\":37817:37826   */\n      dup2\n        /* \"#utility.yul\":37811:37815   */\n      dup2\n        /* \"#utility.yul\":37807:37827   */\n      sub\n        /* \"#utility.yul\":37803:37804   */\n      0x00\n        /* \"#utility.yul\":37792:37801   */\n      dup4\n        /* \"#utility.yul\":37788:37805   */\n      add\n        /* \"#utility.yul\":37781:37828   */\n      mstore\n        /* \"#utility.yul\":37845:37976   */\n      tag_692\n        /* \"#utility.yul\":37971:37975   */\n      dup2\n        /* \"#utility.yul\":37845:37976   */\n      tag_360\n      jump\t// in\n    tag_692:\n        /* \"#utility.yul\":37837:37976   */\n      swap1\n      pop\n        /* \"#utility.yul\":37564:37983   */\n      swap2\n      swap1\n      pop\n      jump\t// out\n        /* \"#utility.yul\":37989:38180   */\n    tag_268:\n        /* \"#utility.yul\":38029:38032   */\n      0x00\n        /* \"#utility.yul\":38048:38068   */\n      tag_694\n        /* \"#utility.yul\":38066:38067   */\n      dup3\n        /* \"#utility.yul\":38048:38068   */\n      tag_284\n      jump\t// in\n    tag_694:\n        /* \"#utility.yul\":38043:38068   */\n      swap2\n      pop\n        /* \"#utility.yul\":38082:38102   */\n      tag_695\n        /* \"#utility.yul\":38100:38101   */\n      dup4\n        /* \"#utility.yul\":38082:38102   */\n      tag_284\n      jump\t// in\n    tag_695:\n        /* \"#utility.yul\":38077:38102   */\n      swap3\n      pop\n        /* \"#utility.yul\":38125:38126   */\n      dup3\n        /* \"#utility.yul\":38122:38123   */\n      dup3\n        /* \"#utility.yul\":38118:38127   */\n      add\n        /* \"#utility.yul\":38111:38127   */\n      swap1\n      pop\n        /* \"#utility.yul\":38146:38149   */\n      dup1\n        /* \"#utility.yul\":38143:38144   */\n      dup3\n        /* \"#utility.yul\":38140:38150   */\n      gt\n        /* \"#utility.yul\":38137:38173   */\n      iszero\n      tag_696\n      jumpi\n        /* \"#utility.yul\":38153:38171   */\n      tag_697\n      tag_308\n      jump\t// in\n    tag_697:\n        /* \"#utility.yul\":38137:38173   */\n    tag_696:\n        /* \"#utility.yul\":37989:38180   */\n      swap3\n      swap2\n      pop\n      pop\n      jump\t// out\n\n    auxdata: 0xa2646970667358221220c2b9b6dfbd0b49e73735290a43b2925b3200e58b18975321eaa23888504b6e6064736f6c634300081e0033\n}\n",
				"bytecode": {
					"linkReferences": {},
					"object": "60806040525f5f5573b4a045af12a74e5beb8ff763f474b943cc2cfa0a60015f6101000a81548173ffffffffffffffffffffffffffffffffffffffff021916908373ffffffffffffffffffffffffffffffffffffffff160217905550348015610066575f5ffd5b50730b81337f18767565d2ea40913799317a25dc4bc560035f6101000a81548173ffffffffffffffffffffffffffffffffffffffff021916908373ffffffffffffffffffffffffffffffffffffffff16021790555060405180602001604052805f815250600290816100d891906104be565b50600460ff16600a6100ea91906106e9565b640ba43b74006100fa9190610733565b60045f60035f9054906101000a900473ffffffffffffffffffffffffffffffffffffffff1673ffffffffffffffffffffffffffffffffffffffff1673ffffffffffffffffffffffffffffffffffffffff1681526020019081526020015f208190555060035f9054906101000a900473ffffffffffffffffffffffffffffffffffffffff1673ffffffffffffffffffffffffffffffffffffffff165f73ffffffffffffffffffffffffffffffffffffffff167fddf252ad1be2c89b69c2b068fc378daa952ba7f163c4a11628f55a4df523b3ef600460ff16600a6101dd91906106e9565b640ba43b74006101ed9190610733565b6040516101fa9190610783565b60405180910390a37fb515f8464a2e9f92f223836cb4d97889b194249a3f5a6bae6b346c6b0ac8fd5560035f9054906101000a900473ffffffffffffffffffffffffffffffffffffffff16600460ff16600a61025691906106e9565b640ba43b74006102669190610733565b604051610274929190610835565b60405180910390a161086f565b5f81519050919050565b7f4e487b71000000000000000000000000000000000000000000000000000000005f52604160045260245ffd5b7f4e487b71000000000000000000000000000000000000000000000000000000005f52602260045260245ffd5b5f60028204905060018216806102fc57607f821691505b60208210810361030f5761030e6102b8565b5b50919050565b5f819050815f5260205f209050919050565b5f6020601f8301049050919050565b5f82821b905092915050565b5f600883026103717fffffffffffffffffffffffffffffffffffffffffffffffffffffffffffffffff82610336565b61037b8683610336565b95508019841693508086168417925050509392505050565b5f819050919050565b5f819050919050565b5f6103bf6103ba6103b584610393565b61039c565b610393565b9050919050565b5f819050919050565b6103d8836103a5565b6103ec6103e4826103c6565b848454610342565b825550505050565b5f5f905090565b6104036103f4565b61040e8184846103cf565b505050565b5b81811015610431576104265f826103fb565b600181019050610414565b5050565b601f8211156104765761044781610315565b61045084610327565b8101602085101561045f578190505b61047361046b85610327565b830182610413565b50505b505050565b5f82821c905092915050565b5f6104965f198460080261047b565b1980831691505092915050565b5f6104ae8383610487565b9150826002028217905092915050565b6104c782610281565b67ffffffffffffffff8111156104e0576104df61028b565b5b6104ea82546102e5565b6104f5828285610435565b5f60209050601f831160018114610526575f8415610514578287015190505b61051e85826104a3565b865550610585565b601f19841661053486610315565b5f5b8281101561055b57848901518255600182019150602085019450602081019050610536565b868310156105785784890151610574601f891682610487565b8355505b6001600288020188555050505b505050505050565b7f4e487b71000000000000000000000000000000000000000000000000000000005f52601160045260245ffd5b5f8160011c9050919050565b5f5f8291508390505b600185111561060f578086048111156105eb576105ea61058d565b5b60018516156105fa5780820291505b8081029050610608856105ba565b94506105cf565b94509492505050565b5f8261062757600190506106e2565b81610634575f90506106e2565b816001811461064a576002811461065457610683565b60019150506106e2565b60ff8411156106665761066561058d565b5b8360020a91508482111561067d5761067c61058d565b5b506106e2565b5060208310610133831016604e8410600b84101617156106b85782820a9050838111156106b3576106b261058d565b5b6106e2565b6106c584848460016105c6565b925090508184048111156106dc576106db61058d565b5b81810290505b9392505050565b5f6106f382610393565b91506106fe83610393565b925061072b7fffffffffffffffffffffffffffffffffffffffffffffffffffffffffffffffff8484610618565b905092915050565b5f61073d82610393565b915061074883610393565b925082820261075681610393565b9150828204841483151761076d5761076c61058d565b5b5092915050565b61077d81610393565b82525050565b5f6020820190506107965f830184610774565b92915050565b5f82825260208201905092915050565b7f436f6e7472616374206465706c6f7965640000000000000000000000000000005f82015250565b5f6107e060118361079c565b91506107eb826107ac565b602082019050919050565b5f73ffffffffffffffffffffffffffffffffffffffff82169050919050565b5f61081f826107f6565b9050919050565b61082f81610815565b82525050565b5f6060820190508181035f83015261084c816107d4565b905061085b6020830185610826565b6108686040830184610774565b9392505050565b612d198061087c5f395ff3fe608060405260043610610138575f3560e01c80636bb38b28116100aa578063c30ff6df1161006e578063c30ff6df14610410578063ce606ee014610438578063cebec75014610462578063dd62ed3e1461048a578063e74b981b146104c6578063f2fde38b146104ee57610178565b80636bb38b281461033a57806370a08231146103645780638456cb59146103a057806395d89b41146103b6578063a9059cbb146103e057610178565b8063194307bf116100fc578063194307bf1461024c57806323b872dd14610276578063313ce567146102a65780633f4ba83a146102d057806346904840146102e65780635c975abb1461031057610178565b806306fdde031461017c578063095ea7b3146101a65780630c08bf88146101e25780630c8f5e00146101f857806318160ddd1461022257610178565b36610178576040517f08c379a000000000000000000000000000000000000000000000000000000000815260040161016f90611a67565b60405180910390fd5b5f5ffd5b348015610187575f5ffd5b50610190610516565b60405161019d9190611ae5565b60405180910390f35b3480156101b1575f5ffd5b506101cc60048036038101906101c79190611ba3565b61054f565b6040516101d99190611bfb565b60405180910390f35b3480156101ed575f5ffd5b506101f66106dc565b005b348015610203575f5ffd5b5061020c6107cb565b6040516102199190611c23565b60405180910390f35b34801561022d575f5ffd5b506102366107d0565b6040516102439190611c23565b60405180910390f35b348015610257575f5ffd5b506102606107f4565b60405161026d9190611bfb565b60405180910390f35b610290600480360381019061028b9190611c3c565b610807565b60405161029d9190611bfb565b60405180910390f35b3480156102b1575f5ffd5b506102ba610b4a565b6040516102c79190611ca7565b60405180910390f35b3480156102db575f5ffd5b506102e4610b4f565b005b3480156102f1575f5ffd5b506102fa610c3d565b6040516103079190611ccf565b60405180910390f35b34801561031b575f5ffd5b50610324610c62565b6040516103319190611bfb565b60405180910390f35b348015610345575f5ffd5b5061034e610c75565b60405161035b9190611ae5565b60405180910390f35b34801561036f575f5ffd5b5061038a60048036038101906103859190611ce8565b610d01565b6040516103979190611c23565b60405180910390f35b3480156103ab575f5ffd5b506103b4610d47565b005b3480156103c1575f5ffd5b506103ca610e36565b6040516103d79190611ae5565b60405180910390f35b6103fa60048036038101906103f59190611ba3565b610e6f565b6040516104079190611bfb565b60405180910390f35b34801561041b575f5ffd5b5061043660048036038101906104319190611e3f565b611068565b005b348015610443575f5ffd5b5061044c611141565b6040516104599190611ccf565b60405180910390f35b34801561046d575f5ffd5b5061048860048036038101906104839190611e86565b611166565b005b348015610495575f5ffd5b506104b060048036038101906104ab9190611eb1565b611277565b6040516104bd9190611c23565b60405180910390f35b3480156104d1575f5ffd5b506104ec60048036038101906104e79190611ce8565b6112f9565b005b3480156104f9575f5ffd5b50610514600480360381019061050f9190611ce8565b611470565b005b6040518060400160405280600c81526020017f574b20544f4b454e20545354000000000000000000000000000000000000000081525081565b5f600360149054906101000a900460ff16156105a0576040517f08c379a000000000000000000000000000000000000000000000000000000000815260040161059790611f39565b60405180910390fd5b600360159054906101000a900460ff16156105f0576040517f08c379a00000000000000000000000000000000000000000000000000000000081526004016105e790611fa1565b60405180910390fd5b8160055f3373ffffffffffffffffffffffffffffffffffffffff1673ffffffffffffffffffffffffffffffffffffffff1681526020019081526020015f205f8573ffffffffffffffffffffffffffffffffffffffff1673ffffffffffffffffffffffffffffffffffffffff1681526020019081526020015f20819055508273ffffffffffffffffffffffffffffffffffffffff163373ffffffffffffffffffffffffffffffffffffffff167f8c5be1e5ebec7d5bd14f71427d1e84f3dd0314c0f7b2291e5b200ac8c7c3b925846040516106ca9190611c23565b60405180910390a36001905092915050565b60035f9054906101000a900473ffffffffffffffffffffffffffffffffffffffff1673ffffffffffffffffffffffffffffffffffffffff163373ffffffffffffffffffffffffffffffffffffffff161461076b576040517f08c379a00000000000000000000000000000000000000000000000000000000081526004016107629061202f565b60405180910390fd5b6001600360156101000a81548160ff0219169083151502179055503373ffffffffffffffffffffffffffffffffffffffff167f98cd97fc1a1cc958cbd729b1bb531d4f3ea4925470bf23ea9af386640cbd07be60405160405180910390a2565b5f5481565b600460ff16600a6107e191906121a9565b640ba43b74006107f191906121f3565b81565b600360159054906101000a900460ff1681565b5f600360149054906101000a900460ff1615610858576040517f08c379a000000000000000000000000000000000000000000000000000000000815260040161084f90611f39565b60405180910390fd5b600360159054906101000a900460ff16156108a8576040517f08c379a000000000000000000000000000000000000000000000000000000000815260040161089f90611fa1565b60405180910390fd5b7fb515f8464a2e9f92f223836cb4d97889b194249a3f5a6bae6b346c6b0ac8fd5584836040516108d992919061227e565b60405180910390a18160055f8673ffffffffffffffffffffffffffffffffffffffff1673ffffffffffffffffffffffffffffffffffffffff1681526020019081526020015f205f3373ffffffffffffffffffffffffffffffffffffffff1673ffffffffffffffffffffffffffffffffffffffff1681526020019081526020015f2054101561099c576040517f08c379a000000000000000000000000000000000000000000000000000000000815260040161099390612302565b60405180910390fd5b8160045f8673ffffffffffffffffffffffffffffffffffffffff1673ffffffffffffffffffffffffffffffffffffffff1681526020019081526020015f20541015610a1c576040517f08c379a0000000000000000000000000000000000000000000000000000000008152600401610a139061236a565b60405180910390fd5b610a258361162b565b15610a65576040517f08c379a0000000000000000000000000000000000000000000000000000000008152600401610a5c906123f8565b60405180910390fd5b8160055f8673ffffffffffffffffffffffffffffffffffffffff1673ffffffffffffffffffffffffffffffffffffffff1681526020019081526020015f205f3373ffffffffffffffffffffffffffffffffffffffff1673ffffffffffffffffffffffffffffffffffffffff1681526020019081526020015f205f828254610aec9190612416565b92505081905550610afb61163c565b610b06848484611801565b7fb515f8464a2e9f92f223836cb4d97889b194249a3f5a6bae6b346c6b0ac8fd558383604051610b37929190612493565b60405180910390a1600190509392505050565b600481565b60035f9054906101000a900473ffffffffffffffffffffffffffffffffffffffff1673ffffffffffffffffffffffffffffffffffffffff163373ffffffffffffffffffffffffffffffffffffffff1614610bde576040517f08c379a0000000000000000000000000000000000000000000000000000000008152600401610bd59061202f565b60405180910390fd5b5f600360146101000a81548160ff0219169083151502179055503373ffffffffffffffffffffffffffffffffffffffff167f5db9ee0a495bf2e6ff9c91a7834c1ba4fdd244a5e8aa4e537bd38aeae4b073aa60405160405180910390a2565b60015f9054906101000a900473ffffffffffffffffffffffffffffffffffffffff1681565b600360149054906101000a900460ff1681565b60028054610c82906124fa565b80601f0160208091040260200160405190810160405280929190818152602001828054610cae906124fa565b8015610cf95780601f10610cd057610100808354040283529160200191610cf9565b820191905f5260205f20905b815481529060010190602001808311610cdc57829003601f168201915b505050505081565b5f60045f8373ffffffffffffffffffffffffffffffffffffffff1673ffffffffffffffffffffffffffffffffffffffff1681526020019081526020015f20549050919050565b60035f9054906101000a900473ffffffffffffffffffffffffffffffffffffffff1673ffffffffffffffffffffffffffffffffffffffff163373ffffffffffffffffffffffffffffffffffffffff1614610dd6576040517f08c379a0000000000000000000000000000000000000000000000000000000008152600401610dcd9061202f565b60405180910390fd5b6001600360146101000a81548160ff0219169083151502179055503373ffffffffffffffffffffffffffffffffffffffff167f62e78cea01bee320cd4e420270b5ea74000d11b0c9f74754ebdbfc544b05a25860405160405180910390a2565b6040518060400160405280600a81526020017f574b544f4b454e5453540000000000000000000000000000000000000000000081525081565b5f600360149054906101000a900460ff1615610ec0576040517f08c379a0000000000000000000000000000000000000000000000000000000008152600401610eb790611f39565b60405180910390fd5b600360159054906101000a900460ff1615610f10576040517f08c379a0000000000000000000000000000000000000000000000000000000008152600401610f0790611fa1565b60405180910390fd5b7fb515f8464a2e9f92f223836cb4d97889b194249a3f5a6bae6b346c6b0ac8fd553383604051610f41929190612574565b60405180910390a18160045f3373ffffffffffffffffffffffffffffffffffffffff1673ffffffffffffffffffffffffffffffffffffffff1681526020019081526020015f20541015610fc9576040517f08c379a0000000000000000000000000000000000000000000000000000000008152600401610fc09061236a565b60405180910390fd5b610fd28361162b565b15611012576040517f08c379a0000000000000000000000000000000000000000000000000000000008152600401611009906123f8565b60405180910390fd5b61101a61163c565b611025338484611801565b7fb515f8464a2e9f92f223836cb4d97889b194249a3f5a6bae6b346c6b0ac8fd5583836040516110569291906125f8565b60405180910390a16001905092915050565b60035f9054906101000a900473ffffffffffffffffffffffffffffffffffffffff1673ffffffffffffffffffffffffffffffffffffffff163373ffffffffffffffffffffffffffffffffffffffff16146110f7576040517f08c379a00000000000000000000000000000000000000000000000000000000081526004016110ee9061202f565b60405180910390fd5b806002908161110691906127d2565b507fe3fb25e6b72ff77d9f2a50e0fd9dbcd69f0a806a0d0bbbcf804d7848bb277b48816040516111369190611ae5565b60405180910390a150565b60035f9054906101000a900473ffffffffffffffffffffffffffffffffffffffff1681565b60035f9054906101000a900473ffffffffffffffffffffffffffffffffffffffff1673ffffffffffffffffffffffffffffffffffffffff163373ffffffffffffffffffffffffffffffffffffffff16146111f5576040517f08c379a00000000000000000000000000000000000000000000000000000000081526004016111ec9061202f565b60405180910390fd5b5f811015611238576040517f08c379a000000000000000000000000000000000000000000000000000000000815260040161122f90612911565b60405180910390fd5b805f819055507e61ebed89d5ab28b433235a7cf26a30b1934b8915bb1280d917579c7d52e4de8160405161126c9190611c23565b60405180910390a150565b5f60055f8473ffffffffffffffffffffffffffffffffffffffff1673ffffffffffffffffffffffffffffffffffffffff1681526020019081526020015f205f8373ffffffffffffffffffffffffffffffffffffffff1673ffffffffffffffffffffffffffffffffffffffff1681526020019081526020015f2054905092915050565b60035f9054906101000a900473ffffffffffffffffffffffffffffffffffffffff1673ffffffffffffffffffffffffffffffffffffffff163373ffffffffffffffffffffffffffffffffffffffff1614611388576040517f08c379a000000000000000000000000000000000000000000000000000000000815260040161137f9061202f565b60405180910390fd5b5f73ffffffffffffffffffffffffffffffffffffffff168173ffffffffffffffffffffffffffffffffffffffff16036113f6576040517f08c379a00000000000000000000000000000000000000000000000000000000081526004016113ed90612979565b60405180910390fd5b8060015f6101000a81548173ffffffffffffffffffffffffffffffffffffffff021916908373ffffffffffffffffffffffffffffffffffffffff1602179055507f167cccccc6e9b2892a740ec13fc1e51d3de8ea384f25bd87fee7412d588637e2816040516114659190611ccf565b60405180910390a150565b60035f9054906101000a900473ffffffffffffffffffffffffffffffffffffffff1673ffffffffffffffffffffffffffffffffffffffff163373ffffffffffffffffffffffffffffffffffffffff16146114ff576040517f08c379a00000000000000000000000000000000000000000000000000000000081526004016114f69061202f565b60405180910390fd5b5f73ffffffffffffffffffffffffffffffffffffffff168173ffffffffffffffffffffffffffffffffffffffff160361156d576040517f08c379a0000000000000000000000000000000000000000000000000000000008152600401611564906129e1565b60405180910390fd5b8073ffffffffffffffffffffffffffffffffffffffff1660035f9054906101000a900473ffffffffffffffffffffffffffffffffffffffff1673ffffffffffffffffffffffffffffffffffffffff167f8be0079c531659141344cd1fd0a4f28419497f9722a3daafe3b4186f6b6457e060405160405180910390a38060035f6101000a81548173ffffffffffffffffffffffffffffffffffffffff021916908373ffffffffffffffffffffffffffffffffffffffff16021790555050565b5f5f823b90505f8111915050919050565b5f54341015611680576040517f08c379a000000000000000000000000000000000000000000000000000000000815260040161167790612a6f565b60405180910390fd5b5f5f5411156117ff575f60015f9054906101000a900473ffffffffffffffffffffffffffffffffffffffff1673ffffffffffffffffffffffffffffffffffffffff165f546040516116d090612aba565b5f6040518083038185875af1925050503d805f811461170a576040519150601f19603f3d011682016040523d82523d5f602084013e61170f565b606091505b5050905080611753576040517f08c379a000000000000000000000000000000000000000000000000000000000815260040161174a90612b3e565b60405180910390fd5b3373ffffffffffffffffffffffffffffffffffffffff167f55bb3cade9d43b798a4fe5ffdd05024b2d7870df53920673bfc7e68047cd0ab15f5460405161179a9190611c23565b60405180910390a27fb515f8464a2e9f92f223836cb4d97889b194249a3f5a6bae6b346c6b0ac8fd5560015f9054906101000a900473ffffffffffffffffffffffffffffffffffffffff165f546040516117f5929190612ba6565b60405180910390a1505b565b5f73ffffffffffffffffffffffffffffffffffffffff168273ffffffffffffffffffffffffffffffffffffffff160361186f576040517f08c379a000000000000000000000000000000000000000000000000000000000815260040161186690612c2a565b60405180910390fd5b5f81116118b1576040517f08c379a00000000000000000000000000000000000000000000000000000000081526004016118a890612c92565b60405180910390fd5b8060045f8573ffffffffffffffffffffffffffffffffffffffff1673ffffffffffffffffffffffffffffffffffffffff1681526020019081526020015f205f8282546118fd9190612416565b925050819055508060045f8473ffffffffffffffffffffffffffffffffffffffff1673ffffffffffffffffffffffffffffffffffffffff1681526020019081526020015f205f8282546119509190612cb0565b925050819055508173ffffffffffffffffffffffffffffffffffffffff168373ffffffffffffffffffffffffffffffffffffffff167fddf252ad1be2c89b69c2b068fc378daa952ba7f163c4a11628f55a4df523b3ef836040516119b49190611c23565b60405180910390a3505050565b5f82825260208201905092915050565b7f456e76696520424e42206170656e6173206a756e746f20636f6d20756d6120745f8201527f72616e73666572656e63696120646520746f6b656e207061726120706167617260208201527f206120746178612e000000000000000000000000000000000000000000000000604082015250565b5f611a516048836119c1565b9150611a5c826119d1565b606082019050919050565b5f6020820190508181035f830152611a7e81611a45565b9050919050565b5f81519050919050565b8281835e5f83830152505050565b5f601f19601f8301169050919050565b5f611ab782611a85565b611ac181856119c1565b9350611ad1818560208601611a8f565b611ada81611a9d565b840191505092915050565b5f6020820190508181035f830152611afd8184611aad565b905092915050565b5f604051905090565b5f5ffd5b5f5ffd5b5f73ffffffffffffffffffffffffffffffffffffffff82169050919050565b5f611b3f82611b16565b9050919050565b611b4f81611b35565b8114611b59575f5ffd5b50565b5f81359050611b6a81611b46565b92915050565b5f819050919050565b611b8281611b70565b8114611b8c575f5ffd5b50565b5f81359050611b9d81611b79565b92915050565b5f5f60408385031215611bb957611bb8611b0e565b5b5f611bc685828601611b5c565b9250506020611bd785828601611b8f565b9150509250929050565b5f8115159050919050565b611bf581611be1565b82525050565b5f602082019050611c0e5f830184611bec565b92915050565b611c1d81611b70565b82525050565b5f602082019050611c365f830184611c14565b92915050565b5f5f5f60608486031215611c5357611c52611b0e565b5b5f611c6086828701611b5c565b9350506020611c7186828701611b5c565b9250506040611c8286828701611b8f565b9150509250925092565b5f60ff82169050919050565b611ca181611c8c565b82525050565b5f602082019050611cba5f830184611c98565b92915050565b611cc981611b35565b82525050565b5f602082019050611ce25f830184611cc0565b92915050565b5f60208284031215611cfd57611cfc611b0e565b5b5f611d0a84828501611b5c565b91505092915050565b5f5ffd5b5f5ffd5b7f4e487b71000000000000000000000000000000000000000000000000000000005f52604160045260245ffd5b611d5182611a9d565b810181811067ffffffffffffffff82111715611d7057611d6f611d1b565b5b80604052505050565b5f611d82611b05565b9050611d8e8282611d48565b919050565b5f67ffffffffffffffff821115611dad57611dac611d1b565b5b611db682611a9d565b9050602081019050919050565b828183375f83830152505050565b5f611de3611dde84611d93565b611d79565b905082815260208101848484011115611dff57611dfe611d17565b5b611e0a848285611dc3565b509392505050565b5f82601f830112611e2657611e25611d13565b5b8135611e36848260208601611dd1565b91505092915050565b5f60208284031215611e5457611e53611b0e565b5b5f82013567ffffffffffffffff811115611e7157611e70611b12565b5b611e7d84828501611e12565b91505092915050565b5f60208284031215611e9b57611e9a611b0e565b5b5f611ea884828501611b8f565b91505092915050565b5f5f60408385031215611ec757611ec6611b0e565b5b5f611ed485828601611b5c565b9250506020611ee585828601611b5c565b9150509250929050565b7f436f6e74726163742069732070617573656400000000000000000000000000005f82015250565b5f611f236012836119c1565b9150611f2e82611eef565b602082019050919050565b5f6020820190508181035f830152611f5081611f17565b9050919050565b7f436f6e7472616374207065726d616e656e746c79207465726d696e61746564005f82015250565b5f611f8b601f836119c1565b9150611f9682611f57565b602082019050919050565b5f6020820190508181035f830152611fb881611f7f565b9050919050565b7f4f6e6c79206f776e65722063616e2063616c6c20746869732066756e6374696f5f8201527f6e00000000000000000000000000000000000000000000000000000000000000602082015250565b5f6120196021836119c1565b915061202482611fbf565b604082019050919050565b5f6020820190508181035f8301526120468161200d565b9050919050565b7f4e487b71000000000000000000000000000000000000000000000000000000005f52601160045260245ffd5b5f8160011c9050919050565b5f5f8291508390505b60018511156120cf578086048111156120ab576120aa61204d565b5b60018516156120ba5780820291505b80810290506120c88561207a565b945061208f565b94509492505050565b5f826120e757600190506121a2565b816120f4575f90506121a2565b816001811461210a576002811461211457612143565b60019150506121a2565b60ff8411156121265761212561204d565b5b8360020a91508482111561213d5761213c61204d565b5b506121a2565b5060208310610133831016604e8410600b84101617156121785782820a9050838111156121735761217261204d565b5b6121a2565b6121858484846001612086565b9250905081840481111561219c5761219b61204d565b5b81810290505b9392505050565b5f6121b382611b70565b91506121be83611b70565b92506121eb7fffffffffffffffffffffffffffffffffffffffffffffffffffffffffffffffff84846120d8565b905092915050565b5f6121fd82611b70565b915061220883611b70565b925082820261221681611b70565b9150828204841483151761222d5761222c61204d565b5b5092915050565b7f496e696369616e646f207472616e7366657246726f6d000000000000000000005f82015250565b5f6122686016836119c1565b915061227382612234565b602082019050919050565b5f6060820190508181035f8301526122958161225c565b90506122a46020830185611cc0565b6122b16040830184611c14565b9392505050565b7f5065726d697373616f20657863656469646100000000000000000000000000005f82015250565b5f6122ec6012836119c1565b91506122f7826122b8565b602082019050919050565b5f6020820190508181035f830152612319816122e0565b9050919050565b7f53616c646f20646520746f6b656e20696e737566696369656e746500000000005f82015250565b5f612354601b836119c1565b915061235f82612320565b602082019050919050565b5f6020820190508181035f83015261238181612348565b9050919050565b7f44657374696e61746172696f206520756d20636f6e747261746f206520706f645f8201527f652072656a656974617220746f6b656e73000000000000000000000000000000602082015250565b5f6123e26031836119c1565b91506123ed82612388565b604082019050919050565b5f6020820190508181035f83015261240f816123d6565b9050919050565b5f61242082611b70565b915061242b83611b70565b92508282039050818111156124435761244261204d565b5b92915050565b7f7472616e7366657246726f6d20636f6e636c75696461000000000000000000005f82015250565b5f61247d6016836119c1565b915061248882612449565b602082019050919050565b5f6060820190508181035f8301526124aa81612471565b90506124b96020830185611cc0565b6124c66040830184611c14565b9392505050565b7f4e487b71000000000000000000000000000000000000000000000000000000005f52602260045260245ffd5b5f600282049050600182168061251157607f821691505b602082108103612524576125236124cd565b5b50919050565b7f496e696369616e646f207472616e73666572656e6369610000000000000000005f82015250565b5f61255e6017836119c1565b91506125698261252a565b602082019050919050565b5f6060820190508181035f83015261258b81612552565b905061259a6020830185611cc0565b6125a76040830184611c14565b9392505050565b7f5472616e73666572656e63696120636f6e636c756964610000000000000000005f82015250565b5f6125e26017836119c1565b91506125ed826125ae565b602082019050919050565b5f6060820190508181035f83015261260f816125d6565b905061261e6020830185611cc0565b61262b6040830184611c14565b9392505050565b5f819050815f5260205f209050919050565b5f6020601f8301049050919050565b5f82821b905092915050565b5f6008830261268e7fffffffffffffffffffffffffffffffffffffffffffffffffffffffffffffffff82612653565b6126988683612653565b95508019841693508086168417925050509392505050565b5f819050919050565b5f6126d36126ce6126c984611b70565b6126b0565b611b70565b9050919050565b5f819050919050565b6126ec836126b9565b6127006126f8826126da565b84845461265f565b825550505050565b5f5f905090565b612717612708565b6127228184846126e3565b505050565b5b818110156127455761273a5f8261270f565b600181019050612728565b5050565b601f82111561278a5761275b81612632565b61276484612644565b81016020851015612773578190505b61278761277f85612644565b830182612727565b50505b505050565b5f82821c905092915050565b5f6127aa5f198460080261278f565b1980831691505092915050565b5f6127c2838361279b565b9150826002028217905092915050565b6127db82611a85565b67ffffffffffffffff8111156127f4576127f3611d1b565b5b6127fe82546124fa565b612809828285612749565b5f60209050601f83116001811461283a575f8415612828578287015190505b61283285826127b7565b865550612899565b601f19841661284886612632565b5f5b8281101561286f5784890151825560018201915060208501945060208101905061284a565b8683101561288c5784890151612888601f89168261279b565b8355505b6001600288020188555050505b505050505050565b7f412074617861206465766520736572206d61696f72206f7520696775616c20615f8201527f207a65726f000000000000000000000000000000000000000000000000000000602082015250565b5f6128fb6025836119c1565b9150612906826128a1565b604082019050919050565b5f6020820190508181035f830152612928816128ef565b9050919050565b7f496e76616c69642066656520726563697069656e7420616464726573730000005f82015250565b5f612963601d836119c1565b915061296e8261292f565b602082019050919050565b5f6020820190508181035f83015261299081612957565b9050919050565b7f4e6577206f776e657220697320746865207a65726f20616464726573730000005f82015250565b5f6129cb601d836119c1565b91506129d682612997565b602082019050919050565b5f6020820190508181035f8301526129f8816129bf565b9050919050565b7f56616c6f7220696e737566696369656e746520646520424e42207061726120615f8201527f2074617861000000000000000000000000000000000000000000000000000000602082015250565b5f612a596025836119c1565b9150612a64826129ff565b604082019050919050565b5f6020820190508181035f830152612a8681612a4d565b9050919050565b5f81905092915050565b50565b5f612aa55f83612a8d565b9150612ab082612a97565b5f82019050919050565b5f612ac482612a9a565b9150819050919050565b7f46616c6861206e61207472616e73666572656e636961206461207461786120425f8201527f4e422070617261206f20726563656265646f7200000000000000000000000000602082015250565b5f612b286033836119c1565b9150612b3382612ace565b604082019050919050565b5f6020820190508181035f830152612b5581612b1c565b9050919050565b7f5461786120424e4220636f6272616461000000000000000000000000000000005f82015250565b5f612b906010836119c1565b9150612b9b82612b5c565b602082019050919050565b5f6060820190508181035f830152612bbd81612b84565b9050612bcc6020830185611cc0565b612bd96040830184611c14565b9392505050565b7f5472616e73666572656e636961207061726120656e64657265636f207a65726f5f82015250565b5f612c146020836119c1565b9150612c1f82612be0565b602082019050919050565b5f6020820190508181035f830152612c4181612c08565b9050919050565b7f56616c6f72206465766520736572206d61696f7220717565207a65726f0000005f82015250565b5f612c7c601d836119c1565b9150612c8782612c48565b602082019050919050565b5f6020820190508181035f830152612ca981612c70565b9050919050565b5f612cba82611b70565b9150612cc583611b70565b9250828201905080821115612cdd57612cdc61204d565b5b9291505056fea2646970667358221220c2b9b6dfbd0b49e73735290a43b2925b3200e58b18975321eaa23888504b6e6064736f6c634300081e0033",
					"opcodes": "PUSH1 0x80 PUSH1 0x40 MSTORE PUSH0 PUSH0 SSTORE PUSH20 0xB4A045AF12A74E5BEB8FF763F474B943CC2CFA0A PUSH1 0x1 PUSH0 PUSH2 0x100 EXP DUP2 SLOAD DUP2 PUSH20 0xFFFFFFFFFFFFFFFFFFFFFFFFFFFFFFFFFFFFFFFF MUL NOT AND SWAP1 DUP4 PUSH20 0xFFFFFFFFFFFFFFFFFFFFFFFFFFFFFFFFFFFFFFFF AND MUL OR SWAP1 SSTORE POP CALLVALUE DUP1 ISZERO PUSH2 0x66 JUMPI PUSH0 PUSH0 REVERT JUMPDEST POP PUSH20 0xB81337F18767565D2EA40913799317A25DC4BC5 PUSH1 0x3 PUSH0 PUSH2 0x100 EXP DUP2 SLOAD DUP2 PUSH20 0xFFFFFFFFFFFFFFFFFFFFFFFFFFFFFFFFFFFFFFFF MUL NOT AND SWAP1 DUP4 PUSH20 0xFFFFFFFFFFFFFFFFFFFFFFFFFFFFFFFFFFFFFFFF AND MUL OR SWAP1 SSTORE POP PUSH1 0x40 MLOAD DUP1 PUSH1 0x20 ADD PUSH1 0x40 MSTORE DUP1 PUSH0 DUP2 MSTORE POP PUSH1 0x2 SWAP1 DUP2 PUSH2 0xD8 SWAP2 SWAP1 PUSH2 0x4BE JUMP JUMPDEST POP PUSH1 0x4 PUSH1 0xFF AND PUSH1 0xA PUSH2 0xEA SWAP2 SWAP1 PUSH2 0x6E9 JUMP JUMPDEST PUSH5 0xBA43B7400 PUSH2 0xFA SWAP2 SWAP1 PUSH2 0x733 JUMP JUMPDEST PUSH1 0x4 PUSH0 PUSH1 0x3 PUSH0 SWAP1 SLOAD SWAP1 PUSH2 0x100 EXP SWAP1 DIV PUSH20 0xFFFFFFFFFFFFFFFFFFFFFFFFFFFFFFFFFFFFFFFF AND PUSH20 0xFFFFFFFFFFFFFFFFFFFFFFFFFFFFFFFFFFFFFFFF AND PUSH20 0xFFFFFFFFFFFFFFFFFFFFFFFFFFFFFFFFFFFFFFFF AND DUP2 MSTORE PUSH1 0x20 ADD SWAP1 DUP2 MSTORE PUSH1 0x20 ADD PUSH0 KECCAK256 DUP2 SWAP1 SSTORE POP PUSH1 0x3 PUSH0 SWAP1 SLOAD SWAP1 PUSH2 0x100 EXP SWAP1 DIV PUSH20 0xFFFFFFFFFFFFFFFFFFFFFFFFFFFFFFFFFFFFFFFF AND PUSH20 0xFFFFFFFFFFFFFFFFFFFFFFFFFFFFFFFFFFFFFFFF AND PUSH0 PUSH20 0xFFFFFFFFFFFFFFFFFFFFFFFFFFFFFFFFFFFFFFFF AND PUSH32 0xDDF252AD1BE2C89B69C2B068FC378DAA952BA7F163C4A11628F55A4DF523B3EF PUSH1 0x4 PUSH1 0xFF AND PUSH1 0xA PUSH2 0x1DD SWAP2 SWAP1 PUSH2 0x6E9 JUMP JUMPDEST PUSH5 0xBA43B7400 PUSH2 0x1ED SWAP2 SWAP1 PUSH2 0x733 JUMP JUMPDEST PUSH1 0x40 MLOAD PUSH2 0x1FA SWAP2 SWAP1 PUSH2 0x783 JUMP JUMPDEST PUSH1 0x40 MLOAD DUP1 SWAP2 SUB SWAP1 LOG3 PUSH32 0xB515F8464A2E9F92F223836CB4D97889B194249A3F5A6BAE6B346C6B0AC8FD55 PUSH1 0x3 PUSH0 SWAP1 SLOAD SWAP1 PUSH2 0x100 EXP SWAP1 DIV PUSH20 0xFFFFFFFFFFFFFFFFFFFFFFFFFFFFFFFFFFFFFFFF AND PUSH1 0x4 PUSH1 0xFF AND PUSH1 0xA PUSH2 0x256 SWAP2 SWAP1 PUSH2 0x6E9 JUMP JUMPDEST PUSH5 0xBA43B7400 PUSH2 0x266 SWAP2 SWAP1 PUSH2 0x733 JUMP JUMPDEST PUSH1 0x40 MLOAD PUSH2 0x274 SWAP3 SWAP2 SWAP1 PUSH2 0x835 JUMP JUMPDEST PUSH1 0x40 MLOAD DUP1 SWAP2 SUB SWAP1 LOG1 PUSH2 0x86F JUMP JUMPDEST PUSH0 DUP2 MLOAD SWAP1 POP SWAP2 SWAP1 POP JUMP JUMPDEST PUSH32 0x4E487B7100000000000000000000000000000000000000000000000000000000 PUSH0 MSTORE PUSH1 0x41 PUSH1 0x4 MSTORE PUSH1 0x24 PUSH0 REVERT JUMPDEST PUSH32 0x4E487B7100000000000000000000000000000000000000000000000000000000 PUSH0 MSTORE PUSH1 0x22 PUSH1 0x4 MSTORE PUSH1 0x24 PUSH0 REVERT JUMPDEST PUSH0 PUSH1 0x2 DUP3 DIV SWAP1 POP PUSH1 0x1 DUP3 AND DUP1 PUSH2 0x2FC JUMPI PUSH1 0x7F DUP3 AND SWAP2 POP JUMPDEST PUSH1 0x20 DUP3 LT DUP2 SUB PUSH2 0x30F JUMPI PUSH2 0x30E PUSH2 0x2B8 JUMP JUMPDEST JUMPDEST POP SWAP2 SWAP1 POP JUMP JUMPDEST PUSH0 DUP2 SWAP1 POP DUP2 PUSH0 MSTORE PUSH1 0x20 PUSH0 KECCAK256 SWAP1 POP SWAP2 SWAP1 POP JUMP JUMPDEST PUSH0 PUSH1 0x20 PUSH1 0x1F DUP4 ADD DIV SWAP1 POP SWAP2 SWAP1 POP JUMP JUMPDEST PUSH0 DUP3 DUP3 SHL SWAP1 POP SWAP3 SWAP2 POP POP JUMP JUMPDEST PUSH0 PUSH1 0x8 DUP4 MUL PUSH2 0x371 PUSH32 0xFFFFFFFFFFFFFFFFFFFFFFFFFFFFFFFFFFFFFFFFFFFFFFFFFFFFFFFFFFFFFFFF DUP3 PUSH2 0x336 JUMP JUMPDEST PUSH2 0x37B DUP7 DUP4 PUSH2 0x336 JUMP JUMPDEST SWAP6 POP DUP1 NOT DUP5 AND SWAP4 POP DUP1 DUP7 AND DUP5 OR SWAP3 POP POP POP SWAP4 SWAP3 POP POP POP JUMP JUMPDEST PUSH0 DUP2 SWAP1 POP SWAP2 SWAP1 POP JUMP JUMPDEST PUSH0 DUP2 SWAP1 POP SWAP2 SWAP1 POP JUMP JUMPDEST PUSH0 PUSH2 0x3BF PUSH2 0x3BA PUSH2 0x3B5 DUP5 PUSH2 0x393 JUMP JUMPDEST PUSH2 0x39C JUMP JUMPDEST PUSH2 0x393 JUMP JUMPDEST SWAP1 POP SWAP2 SWAP1 POP JUMP JUMPDEST PUSH0 DUP2 SWAP1 POP SWAP2 SWAP1 POP JUMP JUMPDEST PUSH2 0x3D8 DUP4 PUSH2 0x3A5 JUMP JUMPDEST PUSH2 0x3EC PUSH2 0x3E4 DUP3 PUSH2 0x3C6 JUMP JUMPDEST DUP5 DUP5 SLOAD PUSH2 0x342 JUMP JUMPDEST DUP3 SSTORE POP POP POP POP JUMP JUMPDEST PUSH0 PUSH0 SWAP1 POP SWAP1 JUMP JUMPDEST PUSH2 0x403 PUSH2 0x3F4 JUMP JUMPDEST PUSH2 0x40E DUP2 DUP5 DUP5 PUSH2 0x3CF JUMP JUMPDEST POP POP POP JUMP JUMPDEST JUMPDEST DUP2 DUP2 LT ISZERO PUSH2 0x431 JUMPI PUSH2 0x426 PUSH0 DUP3 PUSH2 0x3FB JUMP JUMPDEST PUSH1 0x1 DUP2 ADD SWAP1 POP PUSH2 0x414 JUMP JUMPDEST POP POP JUMP JUMPDEST PUSH1 0x1F DUP3 GT ISZERO PUSH2 0x476 JUMPI PUSH2 0x447 DUP2 PUSH2 0x315 JUMP JUMPDEST PUSH2 0x450 DUP5 PUSH2 0x327 JUMP JUMPDEST DUP2 ADD PUSH1 0x20 DUP6 LT ISZERO PUSH2 0x45F JUMPI DUP2 SWAP1 POP JUMPDEST PUSH2 0x473 PUSH2 0x46B DUP6 PUSH2 0x327 JUMP JUMPDEST DUP4 ADD DUP3 PUSH2 0x413 JUMP JUMPDEST POP POP JUMPDEST POP POP POP JUMP JUMPDEST PUSH0 DUP3 DUP3 SHR SWAP1 POP SWAP3 SWAP2 POP POP JUMP JUMPDEST PUSH0 PUSH2 0x496 PUSH0 NOT DUP5 PUSH1 0x8 MUL PUSH2 0x47B JUMP JUMPDEST NOT DUP1 DUP4 AND SWAP2 POP POP SWAP3 SWAP2 POP POP JUMP JUMPDEST PUSH0 PUSH2 0x4AE DUP4 DUP4 PUSH2 0x487 JUMP JUMPDEST SWAP2 POP DUP3 PUSH1 0x2 MUL DUP3 OR SWAP1 POP SWAP3 SWAP2 POP POP JUMP JUMPDEST PUSH2 0x4C7 DUP3 PUSH2 0x281 JUMP JUMPDEST PUSH8 0xFFFFFFFFFFFFFFFF DUP2 GT ISZERO PUSH2 0x4E0 JUMPI PUSH2 0x4DF PUSH2 0x28B JUMP JUMPDEST JUMPDEST PUSH2 0x4EA DUP3 SLOAD PUSH2 0x2E5 JUMP JUMPDEST PUSH2 0x4F5 DUP3 DUP3 DUP6 PUSH2 0x435 JUMP JUMPDEST PUSH0 PUSH1 0x20 SWAP1 POP PUSH1 0x1F DUP4 GT PUSH1 0x1 DUP2 EQ PUSH2 0x526 JUMPI PUSH0 DUP5 ISZERO PUSH2 0x514 JUMPI DUP3 DUP8 ADD MLOAD SWAP1 POP JUMPDEST PUSH2 0x51E DUP6 DUP3 PUSH2 0x4A3 JUMP JUMPDEST DUP7 SSTORE POP PUSH2 0x585 JUMP JUMPDEST PUSH1 0x1F NOT DUP5 AND PUSH2 0x534 DUP7 PUSH2 0x315 JUMP JUMPDEST PUSH0 JUMPDEST DUP3 DUP2 LT ISZERO PUSH2 0x55B JUMPI DUP5 DUP10 ADD MLOAD DUP3 SSTORE PUSH1 0x1 DUP3 ADD SWAP2 POP PUSH1 0x20 DUP6 ADD SWAP5 POP PUSH1 0x20 DUP2 ADD SWAP1 POP PUSH2 0x536 JUMP JUMPDEST DUP7 DUP4 LT ISZERO PUSH2 0x578 JUMPI DUP5 DUP10 ADD MLOAD PUSH2 0x574 PUSH1 0x1F DUP10 AND DUP3 PUSH2 0x487 JUMP JUMPDEST DUP4 SSTORE POP JUMPDEST PUSH1 0x1 PUSH1 0x2 DUP9 MUL ADD DUP9 SSTORE POP POP POP JUMPDEST POP POP POP POP POP POP JUMP JUMPDEST PUSH32 0x4E487B7100000000000000000000000000000000000000000000000000000000 PUSH0 MSTORE PUSH1 0x11 PUSH1 0x4 MSTORE PUSH1 0x24 PUSH0 REVERT JUMPDEST PUSH0 DUP2 PUSH1 0x1 SHR SWAP1 POP SWAP2 SWAP1 POP JUMP JUMPDEST PUSH0 PUSH0 DUP3 SWAP2 POP DUP4 SWAP1 POP JUMPDEST PUSH1 0x1 DUP6 GT ISZERO PUSH2 0x60F JUMPI DUP1 DUP7 DIV DUP2 GT ISZERO PUSH2 0x5EB JUMPI PUSH2 0x5EA PUSH2 0x58D JUMP JUMPDEST JUMPDEST PUSH1 0x1 DUP6 AND ISZERO PUSH2 0x5FA JUMPI DUP1 DUP3 MUL SWAP2 POP JUMPDEST DUP1 DUP2 MUL SWAP1 POP PUSH2 0x608 DUP6 PUSH2 0x5BA JUMP JUMPDEST SWAP5 POP PUSH2 0x5CF JUMP JUMPDEST SWAP5 POP SWAP5 SWAP3 POP POP POP JUMP JUMPDEST PUSH0 DUP3 PUSH2 0x627 JUMPI PUSH1 0x1 SWAP1 POP PUSH2 0x6E2 JUMP JUMPDEST DUP2 PUSH2 0x634 JUMPI PUSH0 SWAP1 POP PUSH2 0x6E2 JUMP JUMPDEST DUP2 PUSH1 0x1 DUP2 EQ PUSH2 0x64A JUMPI PUSH1 0x2 DUP2 EQ PUSH2 0x654 JUMPI PUSH2 0x683 JUMP JUMPDEST PUSH1 0x1 SWAP2 POP POP PUSH2 0x6E2 JUMP JUMPDEST PUSH1 0xFF DUP5 GT ISZERO PUSH2 0x666 JUMPI PUSH2 0x665 PUSH2 0x58D JUMP JUMPDEST JUMPDEST DUP4 PUSH1 0x2 EXP SWAP2 POP DUP5 DUP3 GT ISZERO PUSH2 0x67D JUMPI PUSH2 0x67C PUSH2 0x58D JUMP JUMPDEST JUMPDEST POP PUSH2 0x6E2 JUMP JUMPDEST POP PUSH1 0x20 DUP4 LT PUSH2 0x133 DUP4 LT AND PUSH1 0x4E DUP5 LT PUSH1 0xB DUP5 LT AND OR ISZERO PUSH2 0x6B8 JUMPI DUP3 DUP3 EXP SWAP1 POP DUP4 DUP2 GT ISZERO PUSH2 0x6B3 JUMPI PUSH2 0x6B2 PUSH2 0x58D JUMP JUMPDEST JUMPDEST PUSH2 0x6E2 JUMP JUMPDEST PUSH2 0x6C5 DUP5 DUP5 DUP5 PUSH1 0x1 PUSH2 0x5C6 JUMP JUMPDEST SWAP3 POP SWAP1 POP DUP2 DUP5 DIV DUP2 GT ISZERO PUSH2 0x6DC JUMPI PUSH2 0x6DB PUSH2 0x58D JUMP JUMPDEST JUMPDEST DUP2 DUP2 MUL SWAP1 POP JUMPDEST SWAP4 SWAP3 POP POP POP JUMP JUMPDEST PUSH0 PUSH2 0x6F3 DUP3 PUSH2 0x393 JUMP JUMPDEST SWAP2 POP PUSH2 0x6FE DUP4 PUSH2 0x393 JUMP JUMPDEST SWAP3 POP PUSH2 0x72B PUSH32 0xFFFFFFFFFFFFFFFFFFFFFFFFFFFFFFFFFFFFFFFFFFFFFFFFFFFFFFFFFFFFFFFF DUP5 DUP5 PUSH2 0x618 JUMP JUMPDEST SWAP1 POP SWAP3 SWAP2 POP POP JUMP JUMPDEST PUSH0 PUSH2 0x73D DUP3 PUSH2 0x393 JUMP JUMPDEST SWAP2 POP PUSH2 0x748 DUP4 PUSH2 0x393 JUMP JUMPDEST SWAP3 POP DUP3 DUP3 MUL PUSH2 0x756 DUP2 PUSH2 0x393 JUMP JUMPDEST SWAP2 POP DUP3 DUP3 DIV DUP5 EQ DUP4 ISZERO OR PUSH2 0x76D JUMPI PUSH2 0x76C PUSH2 0x58D JUMP JUMPDEST JUMPDEST POP SWAP3 SWAP2 POP POP JUMP JUMPDEST PUSH2 0x77D DUP2 PUSH2 0x393 JUMP JUMPDEST DUP3 MSTORE POP POP JUMP JUMPDEST PUSH0 PUSH1 0x20 DUP3 ADD SWAP1 POP PUSH2 0x796 PUSH0 DUP4 ADD DUP5 PUSH2 0x774 JUMP JUMPDEST SWAP3 SWAP2 POP POP JUMP JUMPDEST PUSH0 DUP3 DUP3 MSTORE PUSH1 0x20 DUP3 ADD SWAP1 POP SWAP3 SWAP2 POP POP JUMP JUMPDEST PUSH32 0x436F6E7472616374206465706C6F796564000000000000000000000000000000 PUSH0 DUP3 ADD MSTORE POP JUMP JUMPDEST PUSH0 PUSH2 0x7E0 PUSH1 0x11 DUP4 PUSH2 0x79C JUMP JUMPDEST SWAP2 POP PUSH2 0x7EB DUP3 PUSH2 0x7AC JUMP JUMPDEST PUSH1 0x20 DUP3 ADD SWAP1 POP SWAP2 SWAP1 POP JUMP JUMPDEST PUSH0 PUSH20 0xFFFFFFFFFFFFFFFFFFFFFFFFFFFFFFFFFFFFFFFF DUP3 AND SWAP1 POP SWAP2 SWAP1 POP JUMP JUMPDEST PUSH0 PUSH2 0x81F DUP3 PUSH2 0x7F6 JUMP JUMPDEST SWAP1 POP SWAP2 SWAP1 POP JUMP JUMPDEST PUSH2 0x82F DUP2 PUSH2 0x815 JUMP JUMPDEST DUP3 MSTORE POP POP JUMP JUMPDEST PUSH0 PUSH1 0x60 DUP3 ADD SWAP1 POP DUP2 DUP2 SUB PUSH0 DUP4 ADD MSTORE PUSH2 0x84C DUP2 PUSH2 0x7D4 JUMP JUMPDEST SWAP1 POP PUSH2 0x85B PUSH1 0x20 DUP4 ADD DUP6 PUSH2 0x826 JUMP JUMPDEST PUSH2 0x868 PUSH1 0x40 DUP4 ADD DUP5 PUSH2 0x774 JUMP JUMPDEST SWAP4 SWAP3 POP POP POP JUMP JUMPDEST PUSH2 0x2D19 DUP1 PUSH2 0x87C PUSH0 CODECOPY PUSH0 RETURN INVALID PUSH1 0x80 PUSH1 0x40 MSTORE PUSH1 0x4 CALLDATASIZE LT PUSH2 0x138 JUMPI PUSH0 CALLDATALOAD PUSH1 0xE0 SHR DUP1 PUSH4 0x6BB38B28 GT PUSH2 0xAA JUMPI DUP1 PUSH4 0xC30FF6DF GT PUSH2 0x6E JUMPI DUP1 PUSH4 0xC30FF6DF EQ PUSH2 0x410 JUMPI DUP1 PUSH4 0xCE606EE0 EQ PUSH2 0x438 JUMPI DUP1 PUSH4 0xCEBEC750 EQ PUSH2 0x462 JUMPI DUP1 PUSH4 0xDD62ED3E EQ PUSH2 0x48A JUMPI DUP1 PUSH4 0xE74B981B EQ PUSH2 0x4C6 JUMPI DUP1 PUSH4 0xF2FDE38B EQ PUSH2 0x4EE JUMPI PUSH2 0x178 JUMP JUMPDEST DUP1 PUSH4 0x6BB38B28 EQ PUSH2 0x33A JUMPI DUP1 PUSH4 0x70A08231 EQ PUSH2 0x364 JUMPI DUP1 PUSH4 0x8456CB59 EQ PUSH2 0x3A0 JUMPI DUP1 PUSH4 0x95D89B41 EQ PUSH2 0x3B6 JUMPI DUP1 PUSH4 0xA9059CBB EQ PUSH2 0x3E0 JUMPI PUSH2 0x178 JUMP JUMPDEST DUP1 PUSH4 0x194307BF GT PUSH2 0xFC JUMPI DUP1 PUSH4 0x194307BF EQ PUSH2 0x24C JUMPI DUP1 PUSH4 0x23B872DD EQ PUSH2 0x276 JUMPI DUP1 PUSH4 0x313CE567 EQ PUSH2 0x2A6 JUMPI DUP1 PUSH4 0x3F4BA83A EQ PUSH2 0x2D0 JUMPI DUP1 PUSH4 0x46904840 EQ PUSH2 0x2E6 JUMPI DUP1 PUSH4 0x5C975ABB EQ PUSH2 0x310 JUMPI PUSH2 0x178 JUMP JUMPDEST DUP1 PUSH4 0x6FDDE03 EQ PUSH2 0x17C JUMPI DUP1 PUSH4 0x95EA7B3 EQ PUSH2 0x1A6 JUMPI DUP1 PUSH4 0xC08BF88 EQ PUSH2 0x1E2 JUMPI DUP1 PUSH4 0xC8F5E00 EQ PUSH2 0x1F8 JUMPI DUP1 PUSH4 0x18160DDD EQ PUSH2 0x222 JUMPI PUSH2 0x178 JUMP JUMPDEST CALLDATASIZE PUSH2 0x178 JUMPI PUSH1 0x40 MLOAD PUSH32 0x8C379A000000000000000000000000000000000000000000000000000000000 DUP2 MSTORE PUSH1 0x4 ADD PUSH2 0x16F SWAP1 PUSH2 0x1A67 JUMP JUMPDEST PUSH1 0x40 MLOAD DUP1 SWAP2 SUB SWAP1 REVERT JUMPDEST PUSH0 PUSH0 REVERT JUMPDEST CALLVALUE DUP1 ISZERO PUSH2 0x187 JUMPI PUSH0 PUSH0 REVERT JUMPDEST POP PUSH2 0x190 PUSH2 0x516 JUMP JUMPDEST PUSH1 0x40 MLOAD PUSH2 0x19D SWAP2 SWAP1 PUSH2 0x1AE5 JUMP JUMPDEST PUSH1 0x40 MLOAD DUP1 SWAP2 SUB SWAP1 RETURN JUMPDEST CALLVALUE DUP1 ISZERO PUSH2 0x1B1 JUMPI PUSH0 PUSH0 REVERT JUMPDEST POP PUSH2 0x1CC PUSH1 0x4 DUP1 CALLDATASIZE SUB DUP2 ADD SWAP1 PUSH2 0x1C7 SWAP2 SWAP1 PUSH2 0x1BA3 JUMP JUMPDEST PUSH2 0x54F JUMP JUMPDEST PUSH1 0x40 MLOAD PUSH2 0x1D9 SWAP2 SWAP1 PUSH2 0x1BFB JUMP JUMPDEST PUSH1 0x40 MLOAD DUP1 SWAP2 SUB SWAP1 RETURN JUMPDEST CALLVALUE DUP1 ISZERO PUSH2 0x1ED JUMPI PUSH0 PUSH0 REVERT JUMPDEST POP PUSH2 0x1F6 PUSH2 0x6DC JUMP JUMPDEST STOP JUMPDEST CALLVALUE DUP1 ISZERO PUSH2 0x203 JUMPI PUSH0 PUSH0 REVERT JUMPDEST POP PUSH2 0x20C PUSH2 0x7CB JUMP JUMPDEST PUSH1 0x40 MLOAD PUSH2 0x219 SWAP2 SWAP1 PUSH2 0x1C23 JUMP JUMPDEST PUSH1 0x40 MLOAD DUP1 SWAP2 SUB SWAP1 RETURN JUMPDEST CALLVALUE DUP1 ISZERO PUSH2 0x22D JUMPI PUSH0 PUSH0 REVERT JUMPDEST POP PUSH2 0x236 PUSH2 0x7D0 JUMP JUMPDEST PUSH1 0x40 MLOAD PUSH2 0x243 SWAP2 SWAP1 PUSH2 0x1C23 JUMP JUMPDEST PUSH1 0x40 MLOAD DUP1 SWAP2 SUB SWAP1 RETURN JUMPDEST CALLVALUE DUP1 ISZERO PUSH2 0x257 JUMPI PUSH0 PUSH0 REVERT JUMPDEST POP PUSH2 0x260 PUSH2 0x7F4 JUMP JUMPDEST PUSH1 0x40 MLOAD PUSH2 0x26D SWAP2 SWAP1 PUSH2 0x1BFB JUMP JUMPDEST PUSH1 0x40 MLOAD DUP1 SWAP2 SUB SWAP1 RETURN JUMPDEST PUSH2 0x290 PUSH1 0x4 DUP1 CALLDATASIZE SUB DUP2 ADD SWAP1 PUSH2 0x28B SWAP2 SWAP1 PUSH2 0x1C3C JUMP JUMPDEST PUSH2 0x807 JUMP JUMPDEST PUSH1 0x40 MLOAD PUSH2 0x29D SWAP2 SWAP1 PUSH2 0x1BFB JUMP JUMPDEST PUSH1 0x40 MLOAD DUP1 SWAP2 SUB SWAP1 RETURN JUMPDEST CALLVALUE DUP1 ISZERO PUSH2 0x2B1 JUMPI PUSH0 PUSH0 REVERT JUMPDEST POP PUSH2 0x2BA PUSH2 0xB4A JUMP JUMPDEST PUSH1 0x40 MLOAD PUSH2 0x2C7 SWAP2 SWAP1 PUSH2 0x1CA7 JUMP JUMPDEST PUSH1 0x40 MLOAD DUP1 SWAP2 SUB SWAP1 RETURN JUMPDEST CALLVALUE DUP1 ISZERO PUSH2 0x2DB JUMPI PUSH0 PUSH0 REVERT JUMPDEST POP PUSH2 0x2E4 PUSH2 0xB4F JUMP JUMPDEST STOP JUMPDEST CALLVALUE DUP1 ISZERO PUSH2 0x2F1 JUMPI PUSH0 PUSH0 REVERT JUMPDEST POP PUSH2 0x2FA PUSH2 0xC3D JUMP JUMPDEST PUSH1 0x40 MLOAD PUSH2 0x307 SWAP2 SWAP1 PUSH2 0x1CCF JUMP JUMPDEST PUSH1 0x40 MLOAD DUP1 SWAP2 SUB SWAP1 RETURN JUMPDEST CALLVALUE DUP1 ISZERO PUSH2 0x31B JUMPI PUSH0 PUSH0 REVERT JUMPDEST POP PUSH2 0x324 PUSH2 0xC62 JUMP JUMPDEST PUSH1 0x40 MLOAD PUSH2 0x331 SWAP2 SWAP1 PUSH2 0x1BFB JUMP JUMPDEST PUSH1 0x40 MLOAD DUP1 SWAP2 SUB SWAP1 RETURN JUMPDEST CALLVALUE DUP1 ISZERO PUSH2 0x345 JUMPI PUSH0 PUSH0 REVERT JUMPDEST POP PUSH2 0x34E PUSH2 0xC75 JUMP JUMPDEST PUSH1 0x40 MLOAD PUSH2 0x35B SWAP2 SWAP1 PUSH2 0x1AE5 JUMP JUMPDEST PUSH1 0x40 MLOAD DUP1 SWAP2 SUB SWAP1 RETURN JUMPDEST CALLVALUE DUP1 ISZERO PUSH2 0x36F JUMPI PUSH0 PUSH0 REVERT JUMPDEST POP PUSH2 0x38A PUSH1 0x4 DUP1 CALLDATASIZE SUB DUP2 ADD SWAP1 PUSH2 0x385 SWAP2 SWAP1 PUSH2 0x1CE8 JUMP JUMPDEST PUSH2 0xD01 JUMP JUMPDEST PUSH1 0x40 MLOAD PUSH2 0x397 SWAP2 SWAP1 PUSH2 0x1C23 JUMP JUMPDEST PUSH1 0x40 MLOAD DUP1 SWAP2 SUB SWAP1 RETURN JUMPDEST CALLVALUE DUP1 ISZERO PUSH2 0x3AB JUMPI PUSH0 PUSH0 REVERT JUMPDEST POP PUSH2 0x3B4 PUSH2 0xD47 JUMP JUMPDEST STOP JUMPDEST CALLVALUE DUP1 ISZERO PUSH2 0x3C1 JUMPI PUSH0 PUSH0 REVERT JUMPDEST POP PUSH2 0x3CA PUSH2 0xE36 JUMP JUMPDEST PUSH1 0x40 MLOAD PUSH2 0x3D7 SWAP2 SWAP1 PUSH2 0x1AE5 JUMP JUMPDEST PUSH1 0x40 MLOAD DUP1 SWAP2 SUB SWAP1 RETURN JUMPDEST PUSH2 0x3FA PUSH1 0x4 DUP1 CALLDATASIZE SUB DUP2 ADD SWAP1 PUSH2 0x3F5 SWAP2 SWAP1 PUSH2 0x1BA3 JUMP JUMPDEST PUSH2 0xE6F JUMP JUMPDEST PUSH1 0x40 MLOAD PUSH2 0x407 SWAP2 SWAP1 PUSH2 0x1BFB JUMP JUMPDEST PUSH1 0x40 MLOAD DUP1 SWAP2 SUB SWAP1 RETURN JUMPDEST CALLVALUE DUP1 ISZERO PUSH2 0x41B JUMPI PUSH0 PUSH0 REVERT JUMPDEST POP PUSH2 0x436 PUSH1 0x4 DUP1 CALLDATASIZE SUB DUP2 ADD SWAP1 PUSH2 0x431 SWAP2 SWAP1 PUSH2 0x1E3F JUMP JUMPDEST PUSH2 0x1068 JUMP JUMPDEST STOP JUMPDEST CALLVALUE DUP1 ISZERO PUSH2 0x443 JUMPI PUSH0 PUSH0 REVERT JUMPDEST POP PUSH2 0x44C PUSH2 0x1141 JUMP JUMPDEST PUSH1 0x40 MLOAD PUSH2 0x459 SWAP2 SWAP1 PUSH2 0x1CCF JUMP JUMPDEST PUSH1 0x40 MLOAD DUP1 SWAP2 SUB SWAP1 RETURN JUMPDEST CALLVALUE DUP1 ISZERO PUSH2 0x46D JUMPI PUSH0 PUSH0 REVERT JUMPDEST POP PUSH2 0x488 PUSH1 0x4 DUP1 CALLDATASIZE SUB DUP2 ADD SWAP1 PUSH2 0x483 SWAP2 SWAP1 PUSH2 0x1E86 JUMP JUMPDEST PUSH2 0x1166 JUMP JUMPDEST STOP JUMPDEST CALLVALUE DUP1 ISZERO PUSH2 0x495 JUMPI PUSH0 PUSH0 REVERT JUMPDEST POP PUSH2 0x4B0 PUSH1 0x4 DUP1 CALLDATASIZE SUB DUP2 ADD SWAP1 PUSH2 0x4AB SWAP2 SWAP1 PUSH2 0x1EB1 JUMP JUMPDEST PUSH2 0x1277 JUMP JUMPDEST PUSH1 0x40 MLOAD PUSH2 0x4BD SWAP2 SWAP1 PUSH2 0x1C23 JUMP JUMPDEST PUSH1 0x40 MLOAD DUP1 SWAP2 SUB SWAP1 RETURN JUMPDEST CALLVALUE DUP1 ISZERO PUSH2 0x4D1 JUMPI PUSH0 PUSH0 REVERT JUMPDEST POP PUSH2 0x4EC PUSH1 0x4 DUP1 CALLDATASIZE SUB DUP2 ADD SWAP1 PUSH2 0x4E7 SWAP2 SWAP1 PUSH2 0x1CE8 JUMP JUMPDEST PUSH2 0x12F9 JUMP JUMPDEST STOP JUMPDEST CALLVALUE DUP1 ISZERO PUSH2 0x4F9 JUMPI PUSH0 PUSH0 REVERT JUMPDEST POP PUSH2 0x514 PUSH1 0x4 DUP1 CALLDATASIZE SUB DUP2 ADD SWAP1 PUSH2 0x50F SWAP2 SWAP1 PUSH2 0x1CE8 JUMP JUMPDEST PUSH2 0x1470 JUMP JUMPDEST STOP JUMPDEST PUSH1 0x40 MLOAD DUP1 PUSH1 0x40 ADD PUSH1 0x40 MSTORE DUP1 PUSH1 0xC DUP2 MSTORE PUSH1 0x20 ADD PUSH32 0x574B20544F4B454E205453540000000000000000000000000000000000000000 DUP2 MSTORE POP DUP2 JUMP JUMPDEST PUSH0 PUSH1 0x3 PUSH1 0x14 SWAP1 SLOAD SWAP1 PUSH2 0x100 EXP SWAP1 DIV PUSH1 0xFF AND ISZERO PUSH2 0x5A0 JUMPI PUSH1 0x40 MLOAD PUSH32 0x8C379A000000000000000000000000000000000000000000000000000000000 DUP2 MSTORE PUSH1 0x4 ADD PUSH2 0x597 SWAP1 PUSH2 0x1F39 JUMP JUMPDEST PUSH1 0x40 MLOAD DUP1 SWAP2 SUB SWAP1 REVERT JUMPDEST PUSH1 0x3 PUSH1 0x15 SWAP1 SLOAD SWAP1 PUSH2 0x100 EXP SWAP1 DIV PUSH1 0xFF AND ISZERO PUSH2 0x5F0 JUMPI PUSH1 0x40 MLOAD PUSH32 0x8C379A000000000000000000000000000000000000000000000000000000000 DUP2 MSTORE PUSH1 0x4 ADD PUSH2 0x5E7 SWAP1 PUSH2 0x1FA1 JUMP JUMPDEST PUSH1 0x40 MLOAD DUP1 SWAP2 SUB SWAP1 REVERT JUMPDEST DUP2 PUSH1 0x5 PUSH0 CALLER PUSH20 0xFFFFFFFFFFFFFFFFFFFFFFFFFFFFFFFFFFFFFFFF AND PUSH20 0xFFFFFFFFFFFFFFFFFFFFFFFFFFFFFFFFFFFFFFFF AND DUP2 MSTORE PUSH1 0x20 ADD SWAP1 DUP2 MSTORE PUSH1 0x20 ADD PUSH0 KECCAK256 PUSH0 DUP6 PUSH20 0xFFFFFFFFFFFFFFFFFFFFFFFFFFFFFFFFFFFFFFFF AND PUSH20 0xFFFFFFFFFFFFFFFFFFFFFFFFFFFFFFFFFFFFFFFF AND DUP2 MSTORE PUSH1 0x20 ADD SWAP1 DUP2 MSTORE PUSH1 0x20 ADD PUSH0 KECCAK256 DUP2 SWAP1 SSTORE POP DUP3 PUSH20 0xFFFFFFFFFFFFFFFFFFFFFFFFFFFFFFFFFFFFFFFF AND CALLER PUSH20 0xFFFFFFFFFFFFFFFFFFFFFFFFFFFFFFFFFFFFFFFF AND PUSH32 0x8C5BE1E5EBEC7D5BD14F71427D1E84F3DD0314C0F7B2291E5B200AC8C7C3B925 DUP5 PUSH1 0x40 MLOAD PUSH2 0x6CA SWAP2 SWAP1 PUSH2 0x1C23 JUMP JUMPDEST PUSH1 0x40 MLOAD DUP1 SWAP2 SUB SWAP1 LOG3 PUSH1 0x1 SWAP1 POP SWAP3 SWAP2 POP POP JUMP JUMPDEST PUSH1 0x3 PUSH0 SWAP1 SLOAD SWAP1 PUSH2 0x100 EXP SWAP1 DIV PUSH20 0xFFFFFFFFFFFFFFFFFFFFFFFFFFFFFFFFFFFFFFFF AND PUSH20 0xFFFFFFFFFFFFFFFFFFFFFFFFFFFFFFFFFFFFFFFF AND CALLER PUSH20 0xFFFFFFFFFFFFFFFFFFFFFFFFFFFFFFFFFFFFFFFF AND EQ PUSH2 0x76B JUMPI PUSH1 0x40 MLOAD PUSH32 0x8C379A000000000000000000000000000000000000000000000000000000000 DUP2 MSTORE PUSH1 0x4 ADD PUSH2 0x762 SWAP1 PUSH2 0x202F JUMP JUMPDEST PUSH1 0x40 MLOAD DUP1 SWAP2 SUB SWAP1 REVERT JUMPDEST PUSH1 0x1 PUSH1 0x3 PUSH1 0x15 PUSH2 0x100 EXP DUP2 SLOAD DUP2 PUSH1 0xFF MUL NOT AND SWAP1 DUP4 ISZERO ISZERO MUL OR SWAP1 SSTORE POP CALLER PUSH20 0xFFFFFFFFFFFFFFFFFFFFFFFFFFFFFFFFFFFFFFFF AND PUSH32 0x98CD97FC1A1CC958CBD729B1BB531D4F3EA4925470BF23EA9AF386640CBD07BE PUSH1 0x40 MLOAD PUSH1 0x40 MLOAD DUP1 SWAP2 SUB SWAP1 LOG2 JUMP JUMPDEST PUSH0 SLOAD DUP2 JUMP JUMPDEST PUSH1 0x4 PUSH1 0xFF AND PUSH1 0xA PUSH2 0x7E1 SWAP2 SWAP1 PUSH2 0x21A9 JUMP JUMPDEST PUSH5 0xBA43B7400 PUSH2 0x7F1 SWAP2 SWAP1 PUSH2 0x21F3 JUMP JUMPDEST DUP2 JUMP JUMPDEST PUSH1 0x3 PUSH1 0x15 SWAP1 SLOAD SWAP1 PUSH2 0x100 EXP SWAP1 DIV PUSH1 0xFF AND DUP2 JUMP JUMPDEST PUSH0 PUSH1 0x3 PUSH1 0x14 SWAP1 SLOAD SWAP1 PUSH2 0x100 EXP SWAP1 DIV PUSH1 0xFF AND ISZERO PUSH2 0x858 JUMPI PUSH1 0x40 MLOAD PUSH32 0x8C379A000000000000000000000000000000000000000000000000000000000 DUP2 MSTORE PUSH1 0x4 ADD PUSH2 0x84F SWAP1 PUSH2 0x1F39 JUMP JUMPDEST PUSH1 0x40 MLOAD DUP1 SWAP2 SUB SWAP1 REVERT JUMPDEST PUSH1 0x3 PUSH1 0x15 SWAP1 SLOAD SWAP1 PUSH2 0x100 EXP SWAP1 DIV PUSH1 0xFF AND ISZERO PUSH2 0x8A8 JUMPI PUSH1 0x40 MLOAD PUSH32 0x8C379A000000000000000000000000000000000000000000000000000000000 DUP2 MSTORE PUSH1 0x4 ADD PUSH2 0x89F SWAP1 PUSH2 0x1FA1 JUMP JUMPDEST PUSH1 0x40 MLOAD DUP1 SWAP2 SUB SWAP1 REVERT JUMPDEST PUSH32 0xB515F8464A2E9F92F223836CB4D97889B194249A3F5A6BAE6B346C6B0AC8FD55 DUP5 DUP4 PUSH1 0x40 MLOAD PUSH2 0x8D9 SWAP3 SWAP2 SWAP1 PUSH2 0x227E JUMP JUMPDEST PUSH1 0x40 MLOAD DUP1 SWAP2 SUB SWAP1 LOG1 DUP2 PUSH1 0x5 PUSH0 DUP7 PUSH20 0xFFFFFFFFFFFFFFFFFFFFFFFFFFFFFFFFFFFFFFFF AND PUSH20 0xFFFFFFFFFFFFFFFFFFFFFFFFFFFFFFFFFFFFFFFF AND DUP2 MSTORE PUSH1 0x20 ADD SWAP1 DUP2 MSTORE PUSH1 0x20 ADD PUSH0 KECCAK256 PUSH0 CALLER PUSH20 0xFFFFFFFFFFFFFFFFFFFFFFFFFFFFFFFFFFFFFFFF AND PUSH20 0xFFFFFFFFFFFFFFFFFFFFFFFFFFFFFFFFFFFFFFFF AND DUP2 MSTORE PUSH1 0x20 ADD SWAP1 DUP2 MSTORE PUSH1 0x20 ADD PUSH0 KECCAK256 SLOAD LT ISZERO PUSH2 0x99C JUMPI PUSH1 0x40 MLOAD PUSH32 0x8C379A000000000000000000000000000000000000000000000000000000000 DUP2 MSTORE PUSH1 0x4 ADD PUSH2 0x993 SWAP1 PUSH2 0x2302 JUMP JUMPDEST PUSH1 0x40 MLOAD DUP1 SWAP2 SUB SWAP1 REVERT JUMPDEST DUP2 PUSH1 0x4 PUSH0 DUP7 PUSH20 0xFFFFFFFFFFFFFFFFFFFFFFFFFFFFFFFFFFFFFFFF AND PUSH20 0xFFFFFFFFFFFFFFFFFFFFFFFFFFFFFFFFFFFFFFFF AND DUP2 MSTORE PUSH1 0x20 ADD SWAP1 DUP2 MSTORE PUSH1 0x20 ADD PUSH0 KECCAK256 SLOAD LT ISZERO PUSH2 0xA1C JUMPI PUSH1 0x40 MLOAD PUSH32 0x8C379A000000000000000000000000000000000000000000000000000000000 DUP2 MSTORE PUSH1 0x4 ADD PUSH2 0xA13 SWAP1 PUSH2 0x236A JUMP JUMPDEST PUSH1 0x40 MLOAD DUP1 SWAP2 SUB SWAP1 REVERT JUMPDEST PUSH2 0xA25 DUP4 PUSH2 0x162B JUMP JUMPDEST ISZERO PUSH2 0xA65 JUMPI PUSH1 0x40 MLOAD PUSH32 0x8C379A000000000000000000000000000000000000000000000000000000000 DUP2 MSTORE PUSH1 0x4 ADD PUSH2 0xA5C SWAP1 PUSH2 0x23F8 JUMP JUMPDEST PUSH1 0x40 MLOAD DUP1 SWAP2 SUB SWAP1 REVERT JUMPDEST DUP2 PUSH1 0x5 PUSH0 DUP7 PUSH20 0xFFFFFFFFFFFFFFFFFFFFFFFFFFFFFFFFFFFFFFFF AND PUSH20 0xFFFFFFFFFFFFFFFFFFFFFFFFFFFFFFFFFFFFFFFF AND DUP2 MSTORE PUSH1 0x20 ADD SWAP1 DUP2 MSTORE PUSH1 0x20 ADD PUSH0 KECCAK256 PUSH0 CALLER PUSH20 0xFFFFFFFFFFFFFFFFFFFFFFFFFFFFFFFFFFFFFFFF AND PUSH20 0xFFFFFFFFFFFFFFFFFFFFFFFFFFFFFFFFFFFFFFFF AND DUP2 MSTORE PUSH1 0x20 ADD SWAP1 DUP2 MSTORE PUSH1 0x20 ADD PUSH0 KECCAK256 PUSH0 DUP3 DUP3 SLOAD PUSH2 0xAEC SWAP2 SWAP1 PUSH2 0x2416 JUMP JUMPDEST SWAP3 POP POP DUP2 SWAP1 SSTORE POP PUSH2 0xAFB PUSH2 0x163C JUMP JUMPDEST PUSH2 0xB06 DUP5 DUP5 DUP5 PUSH2 0x1801 JUMP JUMPDEST PUSH32 0xB515F8464A2E9F92F223836CB4D97889B194249A3F5A6BAE6B346C6B0AC8FD55 DUP4 DUP4 PUSH1 0x40 MLOAD PUSH2 0xB37 SWAP3 SWAP2 SWAP1 PUSH2 0x2493 JUMP JUMPDEST PUSH1 0x40 MLOAD DUP1 SWAP2 SUB SWAP1 LOG1 PUSH1 0x1 SWAP1 POP SWAP4 SWAP3 POP POP POP JUMP JUMPDEST PUSH1 0x4 DUP2 JUMP JUMPDEST PUSH1 0x3 PUSH0 SWAP1 SLOAD SWAP1 PUSH2 0x100 EXP SWAP1 DIV PUSH20 0xFFFFFFFFFFFFFFFFFFFFFFFFFFFFFFFFFFFFFFFF AND PUSH20 0xFFFFFFFFFFFFFFFFFFFFFFFFFFFFFFFFFFFFFFFF AND CALLER PUSH20 0xFFFFFFFFFFFFFFFFFFFFFFFFFFFFFFFFFFFFFFFF AND EQ PUSH2 0xBDE JUMPI PUSH1 0x40 MLOAD PUSH32 0x8C379A000000000000000000000000000000000000000000000000000000000 DUP2 MSTORE PUSH1 0x4 ADD PUSH2 0xBD5 SWAP1 PUSH2 0x202F JUMP JUMPDEST PUSH1 0x40 MLOAD DUP1 SWAP2 SUB SWAP1 REVERT JUMPDEST PUSH0 PUSH1 0x3 PUSH1 0x14 PUSH2 0x100 EXP DUP2 SLOAD DUP2 PUSH1 0xFF MUL NOT AND SWAP1 DUP4 ISZERO ISZERO MUL OR SWAP1 SSTORE POP CALLER PUSH20 0xFFFFFFFFFFFFFFFFFFFFFFFFFFFFFFFFFFFFFFFF AND PUSH32 0x5DB9EE0A495BF2E6FF9C91A7834C1BA4FDD244A5E8AA4E537BD38AEAE4B073AA PUSH1 0x40 MLOAD PUSH1 0x40 MLOAD DUP1 SWAP2 SUB SWAP1 LOG2 JUMP JUMPDEST PUSH1 0x1 PUSH0 SWAP1 SLOAD SWAP1 PUSH2 0x100 EXP SWAP1 DIV PUSH20 0xFFFFFFFFFFFFFFFFFFFFFFFFFFFFFFFFFFFFFFFF AND DUP2 JUMP JUMPDEST PUSH1 0x3 PUSH1 0x14 SWAP1 SLOAD SWAP1 PUSH2 0x100 EXP SWAP1 DIV PUSH1 0xFF AND DUP2 JUMP JUMPDEST PUSH1 0x2 DUP1 SLOAD PUSH2 0xC82 SWAP1 PUSH2 0x24FA JUMP JUMPDEST DUP1 PUSH1 0x1F ADD PUSH1 0x20 DUP1 SWAP2 DIV MUL PUSH1 0x20 ADD PUSH1 0x40 MLOAD SWAP1 DUP2 ADD PUSH1 0x40 MSTORE DUP1 SWAP3 SWAP2 SWAP1 DUP2 DUP2 MSTORE PUSH1 0x20 ADD DUP3 DUP1 SLOAD PUSH2 0xCAE SWAP1 PUSH2 0x24FA JUMP JUMPDEST DUP1 ISZERO PUSH2 0xCF9 JUMPI DUP1 PUSH1 0x1F LT PUSH2 0xCD0 JUMPI PUSH2 0x100 DUP1 DUP4 SLOAD DIV MUL DUP4 MSTORE SWAP2 PUSH1 0x20 ADD SWAP2 PUSH2 0xCF9 JUMP JUMPDEST DUP3 ADD SWAP2 SWAP1 PUSH0 MSTORE PUSH1 0x20 PUSH0 KECCAK256 SWAP1 JUMPDEST DUP2 SLOAD DUP2 MSTORE SWAP1 PUSH1 0x1 ADD SWAP1 PUSH1 0x20 ADD DUP1 DUP4 GT PUSH2 0xCDC JUMPI DUP3 SWAP1 SUB PUSH1 0x1F AND DUP3 ADD SWAP2 JUMPDEST POP POP POP POP POP DUP2 JUMP JUMPDEST PUSH0 PUSH1 0x4 PUSH0 DUP4 PUSH20 0xFFFFFFFFFFFFFFFFFFFFFFFFFFFFFFFFFFFFFFFF AND PUSH20 0xFFFFFFFFFFFFFFFFFFFFFFFFFFFFFFFFFFFFFFFF AND DUP2 MSTORE PUSH1 0x20 ADD SWAP1 DUP2 MSTORE PUSH1 0x20 ADD PUSH0 KECCAK256 SLOAD SWAP1 POP SWAP2 SWAP1 POP JUMP JUMPDEST PUSH1 0x3 PUSH0 SWAP1 SLOAD SWAP1 PUSH2 0x100 EXP SWAP1 DIV PUSH20 0xFFFFFFFFFFFFFFFFFFFFFFFFFFFFFFFFFFFFFFFF AND PUSH20 0xFFFFFFFFFFFFFFFFFFFFFFFFFFFFFFFFFFFFFFFF AND CALLER PUSH20 0xFFFFFFFFFFFFFFFFFFFFFFFFFFFFFFFFFFFFFFFF AND EQ PUSH2 0xDD6 JUMPI PUSH1 0x40 MLOAD PUSH32 0x8C379A000000000000000000000000000000000000000000000000000000000 DUP2 MSTORE PUSH1 0x4 ADD PUSH2 0xDCD SWAP1 PUSH2 0x202F JUMP JUMPDEST PUSH1 0x40 MLOAD DUP1 SWAP2 SUB SWAP1 REVERT JUMPDEST PUSH1 0x1 PUSH1 0x3 PUSH1 0x14 PUSH2 0x100 EXP DUP2 SLOAD DUP2 PUSH1 0xFF MUL NOT AND SWAP1 DUP4 ISZERO ISZERO MUL OR SWAP1 SSTORE POP CALLER PUSH20 0xFFFFFFFFFFFFFFFFFFFFFFFFFFFFFFFFFFFFFFFF AND PUSH32 0x62E78CEA01BEE320CD4E420270B5EA74000D11B0C9F74754EBDBFC544B05A258 PUSH1 0x40 MLOAD PUSH1 0x40 MLOAD DUP1 SWAP2 SUB SWAP1 LOG2 JUMP JUMPDEST PUSH1 0x40 MLOAD DUP1 PUSH1 0x40 ADD PUSH1 0x40 MSTORE DUP1 PUSH1 0xA DUP2 MSTORE PUSH1 0x20 ADD PUSH32 0x574B544F4B454E54535400000000000000000000000000000000000000000000 DUP2 MSTORE POP DUP2 JUMP JUMPDEST PUSH0 PUSH1 0x3 PUSH1 0x14 SWAP1 SLOAD SWAP1 PUSH2 0x100 EXP SWAP1 DIV PUSH1 0xFF AND ISZERO PUSH2 0xEC0 JUMPI PUSH1 0x40 MLOAD PUSH32 0x8C379A000000000000000000000000000000000000000000000000000000000 DUP2 MSTORE PUSH1 0x4 ADD PUSH2 0xEB7 SWAP1 PUSH2 0x1F39 JUMP JUMPDEST PUSH1 0x40 MLOAD DUP1 SWAP2 SUB SWAP1 REVERT JUMPDEST PUSH1 0x3 PUSH1 0x15 SWAP1 SLOAD SWAP1 PUSH2 0x100 EXP SWAP1 DIV PUSH1 0xFF AND ISZERO PUSH2 0xF10 JUMPI PUSH1 0x40 MLOAD PUSH32 0x8C379A000000000000000000000000000000000000000000000000000000000 DUP2 MSTORE PUSH1 0x4 ADD PUSH2 0xF07 SWAP1 PUSH2 0x1FA1 JUMP JUMPDEST PUSH1 0x40 MLOAD DUP1 SWAP2 SUB SWAP1 REVERT JUMPDEST PUSH32 0xB515F8464A2E9F92F223836CB4D97889B194249A3F5A6BAE6B346C6B0AC8FD55 CALLER DUP4 PUSH1 0x40 MLOAD PUSH2 0xF41 SWAP3 SWAP2 SWAP1 PUSH2 0x2574 JUMP JUMPDEST PUSH1 0x40 MLOAD DUP1 SWAP2 SUB SWAP1 LOG1 DUP2 PUSH1 0x4 PUSH0 CALLER PUSH20 0xFFFFFFFFFFFFFFFFFFFFFFFFFFFFFFFFFFFFFFFF AND PUSH20 0xFFFFFFFFFFFFFFFFFFFFFFFFFFFFFFFFFFFFFFFF AND DUP2 MSTORE PUSH1 0x20 ADD SWAP1 DUP2 MSTORE PUSH1 0x20 ADD PUSH0 KECCAK256 SLOAD LT ISZERO PUSH2 0xFC9 JUMPI PUSH1 0x40 MLOAD PUSH32 0x8C379A000000000000000000000000000000000000000000000000000000000 DUP2 MSTORE PUSH1 0x4 ADD PUSH2 0xFC0 SWAP1 PUSH2 0x236A JUMP JUMPDEST PUSH1 0x40 MLOAD DUP1 SWAP2 SUB SWAP1 REVERT JUMPDEST PUSH2 0xFD2 DUP4 PUSH2 0x162B JUMP JUMPDEST ISZERO PUSH2 0x1012 JUMPI PUSH1 0x40 MLOAD PUSH32 0x8C379A000000000000000000000000000000000000000000000000000000000 DUP2 MSTORE PUSH1 0x4 ADD PUSH2 0x1009 SWAP1 PUSH2 0x23F8 JUMP JUMPDEST PUSH1 0x40 MLOAD DUP1 SWAP2 SUB SWAP1 REVERT JUMPDEST PUSH2 0x101A PUSH2 0x163C JUMP JUMPDEST PUSH2 0x1025 CALLER DUP5 DUP5 PUSH2 0x1801 JUMP JUMPDEST PUSH32 0xB515F8464A2E9F92F223836CB4D97889B194249A3F5A6BAE6B346C6B0AC8FD55 DUP4 DUP4 PUSH1 0x40 MLOAD PUSH2 0x1056 SWAP3 SWAP2 SWAP1 PUSH2 0x25F8 JUMP JUMPDEST PUSH1 0x40 MLOAD DUP1 SWAP2 SUB SWAP1 LOG1 PUSH1 0x1 SWAP1 POP SWAP3 SWAP2 POP POP JUMP JUMPDEST PUSH1 0x3 PUSH0 SWAP1 SLOAD SWAP1 PUSH2 0x100 EXP SWAP1 DIV PUSH20 0xFFFFFFFFFFFFFFFFFFFFFFFFFFFFFFFFFFFFFFFF AND PUSH20 0xFFFFFFFFFFFFFFFFFFFFFFFFFFFFFFFFFFFFFFFF AND CALLER PUSH20 0xFFFFFFFFFFFFFFFFFFFFFFFFFFFFFFFFFFFFFFFF AND EQ PUSH2 0x10F7 JUMPI PUSH1 0x40 MLOAD PUSH32 0x8C379A000000000000000000000000000000000000000000000000000000000 DUP2 MSTORE PUSH1 0x4 ADD PUSH2 0x10EE SWAP1 PUSH2 0x202F JUMP JUMPDEST PUSH1 0x40 MLOAD DUP1 SWAP2 SUB SWAP1 REVERT JUMPDEST DUP1 PUSH1 0x2 SWAP1 DUP2 PUSH2 0x1106 SWAP2 SWAP1 PUSH2 0x27D2 JUMP JUMPDEST POP PUSH32 0xE3FB25E6B72FF77D9F2A50E0FD9DBCD69F0A806A0D0BBBCF804D7848BB277B48 DUP2 PUSH1 0x40 MLOAD PUSH2 0x1136 SWAP2 SWAP1 PUSH2 0x1AE5 JUMP JUMPDEST PUSH1 0x40 MLOAD DUP1 SWAP2 SUB SWAP1 LOG1 POP JUMP JUMPDEST PUSH1 0x3 PUSH0 SWAP1 SLOAD SWAP1 PUSH2 0x100 EXP SWAP1 DIV PUSH20 0xFFFFFFFFFFFFFFFFFFFFFFFFFFFFFFFFFFFFFFFF AND DUP2 JUMP JUMPDEST PUSH1 0x3 PUSH0 SWAP1 SLOAD SWAP1 PUSH2 0x100 EXP SWAP1 DIV PUSH20 0xFFFFFFFFFFFFFFFFFFFFFFFFFFFFFFFFFFFFFFFF AND PUSH20 0xFFFFFFFFFFFFFFFFFFFFFFFFFFFFFFFFFFFFFFFF AND CALLER PUSH20 0xFFFFFFFFFFFFFFFFFFFFFFFFFFFFFFFFFFFFFFFF AND EQ PUSH2 0x11F5 JUMPI PUSH1 0x40 MLOAD PUSH32 0x8C379A000000000000000000000000000000000000000000000000000000000 DUP2 MSTORE PUSH1 0x4 ADD PUSH2 0x11EC SWAP1 PUSH2 0x202F JUMP JUMPDEST PUSH1 0x40 MLOAD DUP1 SWAP2 SUB SWAP1 REVERT JUMPDEST PUSH0 DUP2 LT ISZERO PUSH2 0x1238 JUMPI PUSH1 0x40 MLOAD PUSH32 0x8C379A000000000000000000000000000000000000000000000000000000000 DUP2 MSTORE PUSH1 0x4 ADD PUSH2 0x122F SWAP1 PUSH2 0x2911 JUMP JUMPDEST PUSH1 0x40 MLOAD DUP1 SWAP2 SUB SWAP1 REVERT JUMPDEST DUP1 PUSH0 DUP2 SWAP1 SSTORE POP PUSH31 0x61EBED89D5AB28B433235A7CF26A30B1934B8915BB1280D917579C7D52E4DE DUP2 PUSH1 0x40 MLOAD PUSH2 0x126C SWAP2 SWAP1 PUSH2 0x1C23 JUMP JUMPDEST PUSH1 0x40 MLOAD DUP1 SWAP2 SUB SWAP1 LOG1 POP JUMP JUMPDEST PUSH0 PUSH1 0x5 PUSH0 DUP5 PUSH20 0xFFFFFFFFFFFFFFFFFFFFFFFFFFFFFFFFFFFFFFFF AND PUSH20 0xFFFFFFFFFFFFFFFFFFFFFFFFFFFFFFFFFFFFFFFF AND DUP2 MSTORE PUSH1 0x20 ADD SWAP1 DUP2 MSTORE PUSH1 0x20 ADD PUSH0 KECCAK256 PUSH0 DUP4 PUSH20 0xFFFFFFFFFFFFFFFFFFFFFFFFFFFFFFFFFFFFFFFF AND PUSH20 0xFFFFFFFFFFFFFFFFFFFFFFFFFFFFFFFFFFFFFFFF AND DUP2 MSTORE PUSH1 0x20 ADD SWAP1 DUP2 MSTORE PUSH1 0x20 ADD PUSH0 KECCAK256 SLOAD SWAP1 POP SWAP3 SWAP2 POP POP JUMP JUMPDEST PUSH1 0x3 PUSH0 SWAP1 SLOAD SWAP1 PUSH2 0x100 EXP SWAP1 DIV PUSH20 0xFFFFFFFFFFFFFFFFFFFFFFFFFFFFFFFFFFFFFFFF AND PUSH20 0xFFFFFFFFFFFFFFFFFFFFFFFFFFFFFFFFFFFFFFFF AND CALLER PUSH20 0xFFFFFFFFFFFFFFFFFFFFFFFFFFFFFFFFFFFFFFFF AND EQ PUSH2 0x1388 JUMPI PUSH1 0x40 MLOAD PUSH32 0x8C379A000000000000000000000000000000000000000000000000000000000 DUP2 MSTORE PUSH1 0x4 ADD PUSH2 0x137F SWAP1 PUSH2 0x202F JUMP JUMPDEST PUSH1 0x40 MLOAD DUP1 SWAP2 SUB SWAP1 REVERT JUMPDEST PUSH0 PUSH20 0xFFFFFFFFFFFFFFFFFFFFFFFFFFFFFFFFFFFFFFFF AND DUP2 PUSH20 0xFFFFFFFFFFFFFFFFFFFFFFFFFFFFFFFFFFFFFFFF AND SUB PUSH2 0x13F6 JUMPI PUSH1 0x40 MLOAD PUSH32 0x8C379A000000000000000000000000000000000000000000000000000000000 DUP2 MSTORE PUSH1 0x4 ADD PUSH2 0x13ED SWAP1 PUSH2 0x2979 JUMP JUMPDEST PUSH1 0x40 MLOAD DUP1 SWAP2 SUB SWAP1 REVERT JUMPDEST DUP1 PUSH1 0x1 PUSH0 PUSH2 0x100 EXP DUP2 SLOAD DUP2 PUSH20 0xFFFFFFFFFFFFFFFFFFFFFFFFFFFFFFFFFFFFFFFF MUL NOT AND SWAP1 DUP4 PUSH20 0xFFFFFFFFFFFFFFFFFFFFFFFFFFFFFFFFFFFFFFFF AND MUL OR SWAP1 SSTORE POP PUSH32 0x167CCCCCC6E9B2892A740EC13FC1E51D3DE8EA384F25BD87FEE7412D588637E2 DUP2 PUSH1 0x40 MLOAD PUSH2 0x1465 SWAP2 SWAP1 PUSH2 0x1CCF JUMP JUMPDEST PUSH1 0x40 MLOAD DUP1 SWAP2 SUB SWAP1 LOG1 POP JUMP JUMPDEST PUSH1 0x3 PUSH0 SWAP1 SLOAD SWAP1 PUSH2 0x100 EXP SWAP1 DIV PUSH20 0xFFFFFFFFFFFFFFFFFFFFFFFFFFFFFFFFFFFFFFFF AND PUSH20 0xFFFFFFFFFFFFFFFFFFFFFFFFFFFFFFFFFFFFFFFF AND CALLER PUSH20 0xFFFFFFFFFFFFFFFFFFFFFFFFFFFFFFFFFFFFFFFF AND EQ PUSH2 0x14FF JUMPI PUSH1 0x40 MLOAD PUSH32 0x8C379A000000000000000000000000000000000000000000000000000000000 DUP2 MSTORE PUSH1 0x4 ADD PUSH2 0x14F6 SWAP1 PUSH2 0x202F JUMP JUMPDEST PUSH1 0x40 MLOAD DUP1 SWAP2 SUB SWAP1 REVERT JUMPDEST PUSH0 PUSH20 0xFFFFFFFFFFFFFFFFFFFFFFFFFFFFFFFFFFFFFFFF AND DUP2 PUSH20 0xFFFFFFFFFFFFFFFFFFFFFFFFFFFFFFFFFFFFFFFF AND SUB PUSH2 0x156D JUMPI PUSH1 0x40 MLOAD PUSH32 0x8C379A000000000000000000000000000000000000000000000000000000000 DUP2 MSTORE PUSH1 0x4 ADD PUSH2 0x1564 SWAP1 PUSH2 0x29E1 JUMP JUMPDEST PUSH1 0x40 MLOAD DUP1 SWAP2 SUB SWAP1 REVERT JUMPDEST DUP1 PUSH20 0xFFFFFFFFFFFFFFFFFFFFFFFFFFFFFFFFFFFFFFFF AND PUSH1 0x3 PUSH0 SWAP1 SLOAD SWAP1 PUSH2 0x100 EXP SWAP1 DIV PUSH20 0xFFFFFFFFFFFFFFFFFFFFFFFFFFFFFFFFFFFFFFFF AND PUSH20 0xFFFFFFFFFFFFFFFFFFFFFFFFFFFFFFFFFFFFFFFF AND PUSH32 0x8BE0079C531659141344CD1FD0A4F28419497F9722A3DAAFE3B4186F6B6457E0 PUSH1 0x40 MLOAD PUSH1 0x40 MLOAD DUP1 SWAP2 SUB SWAP1 LOG3 DUP1 PUSH1 0x3 PUSH0 PUSH2 0x100 EXP DUP2 SLOAD DUP2 PUSH20 0xFFFFFFFFFFFFFFFFFFFFFFFFFFFFFFFFFFFFFFFF MUL NOT AND SWAP1 DUP4 PUSH20 0xFFFFFFFFFFFFFFFFFFFFFFFFFFFFFFFFFFFFFFFF AND MUL OR SWAP1 SSTORE POP POP JUMP JUMPDEST PUSH0 PUSH0 DUP3 EXTCODESIZE SWAP1 POP PUSH0 DUP2 GT SWAP2 POP POP SWAP2 SWAP1 POP JUMP JUMPDEST PUSH0 SLOAD CALLVALUE LT ISZERO PUSH2 0x1680 JUMPI PUSH1 0x40 MLOAD PUSH32 0x8C379A000000000000000000000000000000000000000000000000000000000 DUP2 MSTORE PUSH1 0x4 ADD PUSH2 0x1677 SWAP1 PUSH2 0x2A6F JUMP JUMPDEST PUSH1 0x40 MLOAD DUP1 SWAP2 SUB SWAP1 REVERT JUMPDEST PUSH0 PUSH0 SLOAD GT ISZERO PUSH2 0x17FF JUMPI PUSH0 PUSH1 0x1 PUSH0 SWAP1 SLOAD SWAP1 PUSH2 0x100 EXP SWAP1 DIV PUSH20 0xFFFFFFFFFFFFFFFFFFFFFFFFFFFFFFFFFFFFFFFF AND PUSH20 0xFFFFFFFFFFFFFFFFFFFFFFFFFFFFFFFFFFFFFFFF AND PUSH0 SLOAD PUSH1 0x40 MLOAD PUSH2 0x16D0 SWAP1 PUSH2 0x2ABA JUMP JUMPDEST PUSH0 PUSH1 0x40 MLOAD DUP1 DUP4 SUB DUP2 DUP6 DUP8 GAS CALL SWAP3 POP POP POP RETURNDATASIZE DUP1 PUSH0 DUP2 EQ PUSH2 0x170A JUMPI PUSH1 0x40 MLOAD SWAP2 POP PUSH1 0x1F NOT PUSH1 0x3F RETURNDATASIZE ADD AND DUP3 ADD PUSH1 0x40 MSTORE RETURNDATASIZE DUP3 MSTORE RETURNDATASIZE PUSH0 PUSH1 0x20 DUP5 ADD RETURNDATACOPY PUSH2 0x170F JUMP JUMPDEST PUSH1 0x60 SWAP2 POP JUMPDEST POP POP SWAP1 POP DUP1 PUSH2 0x1753 JUMPI PUSH1 0x40 MLOAD PUSH32 0x8C379A000000000000000000000000000000000000000000000000000000000 DUP2 MSTORE PUSH1 0x4 ADD PUSH2 0x174A SWAP1 PUSH2 0x2B3E JUMP JUMPDEST PUSH1 0x40 MLOAD DUP1 SWAP2 SUB SWAP1 REVERT JUMPDEST CALLER PUSH20 0xFFFFFFFFFFFFFFFFFFFFFFFFFFFFFFFFFFFFFFFF AND PUSH32 0x55BB3CADE9D43B798A4FE5FFDD05024B2D7870DF53920673BFC7E68047CD0AB1 PUSH0 SLOAD PUSH1 0x40 MLOAD PUSH2 0x179A SWAP2 SWAP1 PUSH2 0x1C23 JUMP JUMPDEST PUSH1 0x40 MLOAD DUP1 SWAP2 SUB SWAP1 LOG2 PUSH32 0xB515F8464A2E9F92F223836CB4D97889B194249A3F5A6BAE6B346C6B0AC8FD55 PUSH1 0x1 PUSH0 SWAP1 SLOAD SWAP1 PUSH2 0x100 EXP SWAP1 DIV PUSH20 0xFFFFFFFFFFFFFFFFFFFFFFFFFFFFFFFFFFFFFFFF AND PUSH0 SLOAD PUSH1 0x40 MLOAD PUSH2 0x17F5 SWAP3 SWAP2 SWAP1 PUSH2 0x2BA6 JUMP JUMPDEST PUSH1 0x40 MLOAD DUP1 SWAP2 SUB SWAP1 LOG1 POP JUMPDEST JUMP JUMPDEST PUSH0 PUSH20 0xFFFFFFFFFFFFFFFFFFFFFFFFFFFFFFFFFFFFFFFF AND DUP3 PUSH20 0xFFFFFFFFFFFFFFFFFFFFFFFFFFFFFFFFFFFFFFFF AND SUB PUSH2 0x186F JUMPI PUSH1 0x40 MLOAD PUSH32 0x8C379A000000000000000000000000000000000000000000000000000000000 DUP2 MSTORE PUSH1 0x4 ADD PUSH2 0x1866 SWAP1 PUSH2 0x2C2A JUMP JUMPDEST PUSH1 0x40 MLOAD DUP1 SWAP2 SUB SWAP1 REVERT JUMPDEST PUSH0 DUP2 GT PUSH2 0x18B1 JUMPI PUSH1 0x40 MLOAD PUSH32 0x8C379A000000000000000000000000000000000000000000000000000000000 DUP2 MSTORE PUSH1 0x4 ADD PUSH2 0x18A8 SWAP1 PUSH2 0x2C92 JUMP JUMPDEST PUSH1 0x40 MLOAD DUP1 SWAP2 SUB SWAP1 REVERT JUMPDEST DUP1 PUSH1 0x4 PUSH0 DUP6 PUSH20 0xFFFFFFFFFFFFFFFFFFFFFFFFFFFFFFFFFFFFFFFF AND PUSH20 0xFFFFFFFFFFFFFFFFFFFFFFFFFFFFFFFFFFFFFFFF AND DUP2 MSTORE PUSH1 0x20 ADD SWAP1 DUP2 MSTORE PUSH1 0x20 ADD PUSH0 KECCAK256 PUSH0 DUP3 DUP3 SLOAD PUSH2 0x18FD SWAP2 SWAP1 PUSH2 0x2416 JUMP JUMPDEST SWAP3 POP POP DUP2 SWAP1 SSTORE POP DUP1 PUSH1 0x4 PUSH0 DUP5 PUSH20 0xFFFFFFFFFFFFFFFFFFFFFFFFFFFFFFFFFFFFFFFF AND PUSH20 0xFFFFFFFFFFFFFFFFFFFFFFFFFFFFFFFFFFFFFFFF AND DUP2 MSTORE PUSH1 0x20 ADD SWAP1 DUP2 MSTORE PUSH1 0x20 ADD PUSH0 KECCAK256 PUSH0 DUP3 DUP3 SLOAD PUSH2 0x1950 SWAP2 SWAP1 PUSH2 0x2CB0 JUMP JUMPDEST SWAP3 POP POP DUP2 SWAP1 SSTORE POP DUP2 PUSH20 0xFFFFFFFFFFFFFFFFFFFFFFFFFFFFFFFFFFFFFFFF AND DUP4 PUSH20 0xFFFFFFFFFFFFFFFFFFFFFFFFFFFFFFFFFFFFFFFF AND PUSH32 0xDDF252AD1BE2C89B69C2B068FC378DAA952BA7F163C4A11628F55A4DF523B3EF DUP4 PUSH1 0x40 MLOAD PUSH2 0x19B4 SWAP2 SWAP1 PUSH2 0x1C23 JUMP JUMPDEST PUSH1 0x40 MLOAD DUP1 SWAP2 SUB SWAP1 LOG3 POP POP POP JUMP JUMPDEST PUSH0 DUP3 DUP3 MSTORE PUSH1 0x20 DUP3 ADD SWAP1 POP SWAP3 SWAP2 POP POP JUMP JUMPDEST PUSH32 0x456E76696520424E42206170656E6173206A756E746F20636F6D20756D612074 PUSH0 DUP3 ADD MSTORE PUSH32 0x72616E73666572656E63696120646520746F6B656E2070617261207061676172 PUSH1 0x20 DUP3 ADD MSTORE PUSH32 0x206120746178612E000000000000000000000000000000000000000000000000 PUSH1 0x40 DUP3 ADD MSTORE POP JUMP JUMPDEST PUSH0 PUSH2 0x1A51 PUSH1 0x48 DUP4 PUSH2 0x19C1 JUMP JUMPDEST SWAP2 POP PUSH2 0x1A5C DUP3 PUSH2 0x19D1 JUMP JUMPDEST PUSH1 0x60 DUP3 ADD SWAP1 POP SWAP2 SWAP1 POP JUMP JUMPDEST PUSH0 PUSH1 0x20 DUP3 ADD SWAP1 POP DUP2 DUP2 SUB PUSH0 DUP4 ADD MSTORE PUSH2 0x1A7E DUP2 PUSH2 0x1A45 JUMP JUMPDEST SWAP1 POP SWAP2 SWAP1 POP JUMP JUMPDEST PUSH0 DUP2 MLOAD SWAP1 POP SWAP2 SWAP1 POP JUMP JUMPDEST DUP3 DUP2 DUP4 MCOPY PUSH0 DUP4 DUP4 ADD MSTORE POP POP POP JUMP JUMPDEST PUSH0 PUSH1 0x1F NOT PUSH1 0x1F DUP4 ADD AND SWAP1 POP SWAP2 SWAP1 POP JUMP JUMPDEST PUSH0 PUSH2 0x1AB7 DUP3 PUSH2 0x1A85 JUMP JUMPDEST PUSH2 0x1AC1 DUP2 DUP6 PUSH2 0x19C1 JUMP JUMPDEST SWAP4 POP PUSH2 0x1AD1 DUP2 DUP6 PUSH1 0x20 DUP7 ADD PUSH2 0x1A8F JUMP JUMPDEST PUSH2 0x1ADA DUP2 PUSH2 0x1A9D JUMP JUMPDEST DUP5 ADD SWAP2 POP POP SWAP3 SWAP2 POP POP JUMP JUMPDEST PUSH0 PUSH1 0x20 DUP3 ADD SWAP1 POP DUP2 DUP2 SUB PUSH0 DUP4 ADD MSTORE PUSH2 0x1AFD DUP2 DUP5 PUSH2 0x1AAD JUMP JUMPDEST SWAP1 POP SWAP3 SWAP2 POP POP JUMP JUMPDEST PUSH0 PUSH1 0x40 MLOAD SWAP1 POP SWAP1 JUMP JUMPDEST PUSH0 PUSH0 REVERT JUMPDEST PUSH0 PUSH0 REVERT JUMPDEST PUSH0 PUSH20 0xFFFFFFFFFFFFFFFFFFFFFFFFFFFFFFFFFFFFFFFF DUP3 AND SWAP1 POP SWAP2 SWAP1 POP JUMP JUMPDEST PUSH0 PUSH2 0x1B3F DUP3 PUSH2 0x1B16 JUMP JUMPDEST SWAP1 POP SWAP2 SWAP1 POP JUMP JUMPDEST PUSH2 0x1B4F DUP2 PUSH2 0x1B35 JUMP JUMPDEST DUP2 EQ PUSH2 0x1B59 JUMPI PUSH0 PUSH0 REVERT JUMPDEST POP JUMP JUMPDEST PUSH0 DUP2 CALLDATALOAD SWAP1 POP PUSH2 0x1B6A DUP2 PUSH2 0x1B46 JUMP JUMPDEST SWAP3 SWAP2 POP POP JUMP JUMPDEST PUSH0 DUP2 SWAP1 POP SWAP2 SWAP1 POP JUMP JUMPDEST PUSH2 0x1B82 DUP2 PUSH2 0x1B70 JUMP JUMPDEST DUP2 EQ PUSH2 0x1B8C JUMPI PUSH0 PUSH0 REVERT JUMPDEST POP JUMP JUMPDEST PUSH0 DUP2 CALLDATALOAD SWAP1 POP PUSH2 0x1B9D DUP2 PUSH2 0x1B79 JUMP JUMPDEST SWAP3 SWAP2 POP POP JUMP JUMPDEST PUSH0 PUSH0 PUSH1 0x40 DUP4 DUP6 SUB SLT ISZERO PUSH2 0x1BB9 JUMPI PUSH2 0x1BB8 PUSH2 0x1B0E JUMP JUMPDEST JUMPDEST PUSH0 PUSH2 0x1BC6 DUP6 DUP3 DUP7 ADD PUSH2 0x1B5C JUMP JUMPDEST SWAP3 POP POP PUSH1 0x20 PUSH2 0x1BD7 DUP6 DUP3 DUP7 ADD PUSH2 0x1B8F JUMP JUMPDEST SWAP2 POP POP SWAP3 POP SWAP3 SWAP1 POP JUMP JUMPDEST PUSH0 DUP2 ISZERO ISZERO SWAP1 POP SWAP2 SWAP1 POP JUMP JUMPDEST PUSH2 0x1BF5 DUP2 PUSH2 0x1BE1 JUMP JUMPDEST DUP3 MSTORE POP POP JUMP JUMPDEST PUSH0 PUSH1 0x20 DUP3 ADD SWAP1 POP PUSH2 0x1C0E PUSH0 DUP4 ADD DUP5 PUSH2 0x1BEC JUMP JUMPDEST SWAP3 SWAP2 POP POP JUMP JUMPDEST PUSH2 0x1C1D DUP2 PUSH2 0x1B70 JUMP JUMPDEST DUP3 MSTORE POP POP JUMP JUMPDEST PUSH0 PUSH1 0x20 DUP3 ADD SWAP1 POP PUSH2 0x1C36 PUSH0 DUP4 ADD DUP5 PUSH2 0x1C14 JUMP JUMPDEST SWAP3 SWAP2 POP POP JUMP JUMPDEST PUSH0 PUSH0 PUSH0 PUSH1 0x60 DUP5 DUP7 SUB SLT ISZERO PUSH2 0x1C53 JUMPI PUSH2 0x1C52 PUSH2 0x1B0E JUMP JUMPDEST JUMPDEST PUSH0 PUSH2 0x1C60 DUP7 DUP3 DUP8 ADD PUSH2 0x1B5C JUMP JUMPDEST SWAP4 POP POP PUSH1 0x20 PUSH2 0x1C71 DUP7 DUP3 DUP8 ADD PUSH2 0x1B5C JUMP JUMPDEST SWAP3 POP POP PUSH1 0x40 PUSH2 0x1C82 DUP7 DUP3 DUP8 ADD PUSH2 0x1B8F JUMP JUMPDEST SWAP2 POP POP SWAP3 POP SWAP3 POP SWAP3 JUMP JUMPDEST PUSH0 PUSH1 0xFF DUP3 AND SWAP1 POP SWAP2 SWAP1 POP JUMP JUMPDEST PUSH2 0x1CA1 DUP2 PUSH2 0x1C8C JUMP JUMPDEST DUP3 MSTORE POP POP JUMP JUMPDEST PUSH0 PUSH1 0x20 DUP3 ADD SWAP1 POP PUSH2 0x1CBA PUSH0 DUP4 ADD DUP5 PUSH2 0x1C98 JUMP JUMPDEST SWAP3 SWAP2 POP POP JUMP JUMPDEST PUSH2 0x1CC9 DUP2 PUSH2 0x1B35 JUMP JUMPDEST DUP3 MSTORE POP POP JUMP JUMPDEST PUSH0 PUSH1 0x20 DUP3 ADD SWAP1 POP PUSH2 0x1CE2 PUSH0 DUP4 ADD DUP5 PUSH2 0x1CC0 JUMP JUMPDEST SWAP3 SWAP2 POP POP JUMP JUMPDEST PUSH0 PUSH1 0x20 DUP3 DUP5 SUB SLT ISZERO PUSH2 0x1CFD JUMPI PUSH2 0x1CFC PUSH2 0x1B0E JUMP JUMPDEST JUMPDEST PUSH0 PUSH2 0x1D0A DUP5 DUP3 DUP6 ADD PUSH2 0x1B5C JUMP JUMPDEST SWAP2 POP POP SWAP3 SWAP2 POP POP JUMP JUMPDEST PUSH0 PUSH0 REVERT JUMPDEST PUSH0 PUSH0 REVERT JUMPDEST PUSH32 0x4E487B7100000000000000000000000000000000000000000000000000000000 PUSH0 MSTORE PUSH1 0x41 PUSH1 0x4 MSTORE PUSH1 0x24 PUSH0 REVERT JUMPDEST PUSH2 0x1D51 DUP3 PUSH2 0x1A9D JUMP JUMPDEST DUP2 ADD DUP2 DUP2 LT PUSH8 0xFFFFFFFFFFFFFFFF DUP3 GT OR ISZERO PUSH2 0x1D70 JUMPI PUSH2 0x1D6F PUSH2 0x1D1B JUMP JUMPDEST JUMPDEST DUP1 PUSH1 0x40 MSTORE POP POP POP JUMP JUMPDEST PUSH0 PUSH2 0x1D82 PUSH2 0x1B05 JUMP JUMPDEST SWAP1 POP PUSH2 0x1D8E DUP3 DUP3 PUSH2 0x1D48 JUMP JUMPDEST SWAP2 SWAP1 POP JUMP JUMPDEST PUSH0 PUSH8 0xFFFFFFFFFFFFFFFF DUP3 GT ISZERO PUSH2 0x1DAD JUMPI PUSH2 0x1DAC PUSH2 0x1D1B JUMP JUMPDEST JUMPDEST PUSH2 0x1DB6 DUP3 PUSH2 0x1A9D JUMP JUMPDEST SWAP1 POP PUSH1 0x20 DUP2 ADD SWAP1 POP SWAP2 SWAP1 POP JUMP JUMPDEST DUP3 DUP2 DUP4 CALLDATACOPY PUSH0 DUP4 DUP4 ADD MSTORE POP POP POP JUMP JUMPDEST PUSH0 PUSH2 0x1DE3 PUSH2 0x1DDE DUP5 PUSH2 0x1D93 JUMP JUMPDEST PUSH2 0x1D79 JUMP JUMPDEST SWAP1 POP DUP3 DUP2 MSTORE PUSH1 0x20 DUP2 ADD DUP5 DUP5 DUP5 ADD GT ISZERO PUSH2 0x1DFF JUMPI PUSH2 0x1DFE PUSH2 0x1D17 JUMP JUMPDEST JUMPDEST PUSH2 0x1E0A DUP5 DUP3 DUP6 PUSH2 0x1DC3 JUMP JUMPDEST POP SWAP4 SWAP3 POP POP POP JUMP JUMPDEST PUSH0 DUP3 PUSH1 0x1F DUP4 ADD SLT PUSH2 0x1E26 JUMPI PUSH2 0x1E25 PUSH2 0x1D13 JUMP JUMPDEST JUMPDEST DUP2 CALLDATALOAD PUSH2 0x1E36 DUP5 DUP3 PUSH1 0x20 DUP7 ADD PUSH2 0x1DD1 JUMP JUMPDEST SWAP2 POP POP SWAP3 SWAP2 POP POP JUMP JUMPDEST PUSH0 PUSH1 0x20 DUP3 DUP5 SUB SLT ISZERO PUSH2 0x1E54 JUMPI PUSH2 0x1E53 PUSH2 0x1B0E JUMP JUMPDEST JUMPDEST PUSH0 DUP3 ADD CALLDATALOAD PUSH8 0xFFFFFFFFFFFFFFFF DUP2 GT ISZERO PUSH2 0x1E71 JUMPI PUSH2 0x1E70 PUSH2 0x1B12 JUMP JUMPDEST JUMPDEST PUSH2 0x1E7D DUP5 DUP3 DUP6 ADD PUSH2 0x1E12 JUMP JUMPDEST SWAP2 POP POP SWAP3 SWAP2 POP POP JUMP JUMPDEST PUSH0 PUSH1 0x20 DUP3 DUP5 SUB SLT ISZERO PUSH2 0x1E9B JUMPI PUSH2 0x1E9A PUSH2 0x1B0E JUMP JUMPDEST JUMPDEST PUSH0 PUSH2 0x1EA8 DUP5 DUP3 DUP6 ADD PUSH2 0x1B8F JUMP JUMPDEST SWAP2 POP POP SWAP3 SWAP2 POP POP JUMP JUMPDEST PUSH0 PUSH0 PUSH1 0x40 DUP4 DUP6 SUB SLT ISZERO PUSH2 0x1EC7 JUMPI PUSH2 0x1EC6 PUSH2 0x1B0E JUMP JUMPDEST JUMPDEST PUSH0 PUSH2 0x1ED4 DUP6 DUP3 DUP7 ADD PUSH2 0x1B5C JUMP JUMPDEST SWAP3 POP POP PUSH1 0x20 PUSH2 0x1EE5 DUP6 DUP3 DUP7 ADD PUSH2 0x1B5C JUMP JUMPDEST SWAP2 POP POP SWAP3 POP SWAP3 SWAP1 POP JUMP JUMPDEST PUSH32 0x436F6E7472616374206973207061757365640000000000000000000000000000 PUSH0 DUP3 ADD MSTORE POP JUMP JUMPDEST PUSH0 PUSH2 0x1F23 PUSH1 0x12 DUP4 PUSH2 0x19C1 JUMP JUMPDEST SWAP2 POP PUSH2 0x1F2E DUP3 PUSH2 0x1EEF JUMP JUMPDEST PUSH1 0x20 DUP3 ADD SWAP1 POP SWAP2 SWAP1 POP JUMP JUMPDEST PUSH0 PUSH1 0x20 DUP3 ADD SWAP1 POP DUP2 DUP2 SUB PUSH0 DUP4 ADD MSTORE PUSH2 0x1F50 DUP2 PUSH2 0x1F17 JUMP JUMPDEST SWAP1 POP SWAP2 SWAP1 POP JUMP JUMPDEST PUSH32 0x436F6E7472616374207065726D616E656E746C79207465726D696E6174656400 PUSH0 DUP3 ADD MSTORE POP JUMP JUMPDEST PUSH0 PUSH2 0x1F8B PUSH1 0x1F DUP4 PUSH2 0x19C1 JUMP JUMPDEST SWAP2 POP PUSH2 0x1F96 DUP3 PUSH2 0x1F57 JUMP JUMPDEST PUSH1 0x20 DUP3 ADD SWAP1 POP SWAP2 SWAP1 POP JUMP JUMPDEST PUSH0 PUSH1 0x20 DUP3 ADD SWAP1 POP DUP2 DUP2 SUB PUSH0 DUP4 ADD MSTORE PUSH2 0x1FB8 DUP2 PUSH2 0x1F7F JUMP JUMPDEST SWAP1 POP SWAP2 SWAP1 POP JUMP JUMPDEST PUSH32 0x4F6E6C79206F776E65722063616E2063616C6C20746869732066756E6374696F PUSH0 DUP3 ADD MSTORE PUSH32 0x6E00000000000000000000000000000000000000000000000000000000000000 PUSH1 0x20 DUP3 ADD MSTORE POP JUMP JUMPDEST PUSH0 PUSH2 0x2019 PUSH1 0x21 DUP4 PUSH2 0x19C1 JUMP JUMPDEST SWAP2 POP PUSH2 0x2024 DUP3 PUSH2 0x1FBF JUMP JUMPDEST PUSH1 0x40 DUP3 ADD SWAP1 POP SWAP2 SWAP1 POP JUMP JUMPDEST PUSH0 PUSH1 0x20 DUP3 ADD SWAP1 POP DUP2 DUP2 SUB PUSH0 DUP4 ADD MSTORE PUSH2 0x2046 DUP2 PUSH2 0x200D JUMP JUMPDEST SWAP1 POP SWAP2 SWAP1 POP JUMP JUMPDEST PUSH32 0x4E487B7100000000000000000000000000000000000000000000000000000000 PUSH0 MSTORE PUSH1 0x11 PUSH1 0x4 MSTORE PUSH1 0x24 PUSH0 REVERT JUMPDEST PUSH0 DUP2 PUSH1 0x1 SHR SWAP1 POP SWAP2 SWAP1 POP JUMP JUMPDEST PUSH0 PUSH0 DUP3 SWAP2 POP DUP4 SWAP1 POP JUMPDEST PUSH1 0x1 DUP6 GT ISZERO PUSH2 0x20CF JUMPI DUP1 DUP7 DIV DUP2 GT ISZERO PUSH2 0x20AB JUMPI PUSH2 0x20AA PUSH2 0x204D JUMP JUMPDEST JUMPDEST PUSH1 0x1 DUP6 AND ISZERO PUSH2 0x20BA JUMPI DUP1 DUP3 MUL SWAP2 POP JUMPDEST DUP1 DUP2 MUL SWAP1 POP PUSH2 0x20C8 DUP6 PUSH2 0x207A JUMP JUMPDEST SWAP5 POP PUSH2 0x208F JUMP JUMPDEST SWAP5 POP SWAP5 SWAP3 POP POP POP JUMP JUMPDEST PUSH0 DUP3 PUSH2 0x20E7 JUMPI PUSH1 0x1 SWAP1 POP PUSH2 0x21A2 JUMP JUMPDEST DUP2 PUSH2 0x20F4 JUMPI PUSH0 SWAP1 POP PUSH2 0x21A2 JUMP JUMPDEST DUP2 PUSH1 0x1 DUP2 EQ PUSH2 0x210A JUMPI PUSH1 0x2 DUP2 EQ PUSH2 0x2114 JUMPI PUSH2 0x2143 JUMP JUMPDEST PUSH1 0x1 SWAP2 POP POP PUSH2 0x21A2 JUMP JUMPDEST PUSH1 0xFF DUP5 GT ISZERO PUSH2 0x2126 JUMPI PUSH2 0x2125 PUSH2 0x204D JUMP JUMPDEST JUMPDEST DUP4 PUSH1 0x2 EXP SWAP2 POP DUP5 DUP3 GT ISZERO PUSH2 0x213D JUMPI PUSH2 0x213C PUSH2 0x204D JUMP JUMPDEST JUMPDEST POP PUSH2 0x21A2 JUMP JUMPDEST POP PUSH1 0x20 DUP4 LT PUSH2 0x133 DUP4 LT AND PUSH1 0x4E DUP5 LT PUSH1 0xB DUP5 LT AND OR ISZERO PUSH2 0x2178 JUMPI DUP3 DUP3 EXP SWAP1 POP DUP4 DUP2 GT ISZERO PUSH2 0x2173 JUMPI PUSH2 0x2172 PUSH2 0x204D JUMP JUMPDEST JUMPDEST PUSH2 0x21A2 JUMP JUMPDEST PUSH2 0x2185 DUP5 DUP5 DUP5 PUSH1 0x1 PUSH2 0x2086 JUMP JUMPDEST SWAP3 POP SWAP1 POP DUP2 DUP5 DIV DUP2 GT ISZERO PUSH2 0x219C JUMPI PUSH2 0x219B PUSH2 0x204D JUMP JUMPDEST JUMPDEST DUP2 DUP2 MUL SWAP1 POP JUMPDEST SWAP4 SWAP3 POP POP POP JUMP JUMPDEST PUSH0 PUSH2 0x21B3 DUP3 PUSH2 0x1B70 JUMP JUMPDEST SWAP2 POP PUSH2 0x21BE DUP4 PUSH2 0x1B70 JUMP JUMPDEST SWAP3 POP PUSH2 0x21EB PUSH32 0xFFFFFFFFFFFFFFFFFFFFFFFFFFFFFFFFFFFFFFFFFFFFFFFFFFFFFFFFFFFFFFFF DUP5 DUP5 PUSH2 0x20D8 JUMP JUMPDEST SWAP1 POP SWAP3 SWAP2 POP POP JUMP JUMPDEST PUSH0 PUSH2 0x21FD DUP3 PUSH2 0x1B70 JUMP JUMPDEST SWAP2 POP PUSH2 0x2208 DUP4 PUSH2 0x1B70 JUMP JUMPDEST SWAP3 POP DUP3 DUP3 MUL PUSH2 0x2216 DUP2 PUSH2 0x1B70 JUMP JUMPDEST SWAP2 POP DUP3 DUP3 DIV DUP5 EQ DUP4 ISZERO OR PUSH2 0x222D JUMPI PUSH2 0x222C PUSH2 0x204D JUMP JUMPDEST JUMPDEST POP SWAP3 SWAP2 POP POP JUMP JUMPDEST PUSH32 0x496E696369616E646F207472616E7366657246726F6D00000000000000000000 PUSH0 DUP3 ADD MSTORE POP JUMP JUMPDEST PUSH0 PUSH2 0x2268 PUSH1 0x16 DUP4 PUSH2 0x19C1 JUMP JUMPDEST SWAP2 POP PUSH2 0x2273 DUP3 PUSH2 0x2234 JUMP JUMPDEST PUSH1 0x20 DUP3 ADD SWAP1 POP SWAP2 SWAP1 POP JUMP JUMPDEST PUSH0 PUSH1 0x60 DUP3 ADD SWAP1 POP DUP2 DUP2 SUB PUSH0 DUP4 ADD MSTORE PUSH2 0x2295 DUP2 PUSH2 0x225C JUMP JUMPDEST SWAP1 POP PUSH2 0x22A4 PUSH1 0x20 DUP4 ADD DUP6 PUSH2 0x1CC0 JUMP JUMPDEST PUSH2 0x22B1 PUSH1 0x40 DUP4 ADD DUP5 PUSH2 0x1C14 JUMP JUMPDEST SWAP4 SWAP3 POP POP POP JUMP JUMPDEST PUSH32 0x5065726D697373616F2065786365646964610000000000000000000000000000 PUSH0 DUP3 ADD MSTORE POP JUMP JUMPDEST PUSH0 PUSH2 0x22EC PUSH1 0x12 DUP4 PUSH2 0x19C1 JUMP JUMPDEST SWAP2 POP PUSH2 0x22F7 DUP3 PUSH2 0x22B8 JUMP JUMPDEST PUSH1 0x20 DUP3 ADD SWAP1 POP SWAP2 SWAP1 POP JUMP JUMPDEST PUSH0 PUSH1 0x20 DUP3 ADD SWAP1 POP DUP2 DUP2 SUB PUSH0 DUP4 ADD MSTORE PUSH2 0x2319 DUP2 PUSH2 0x22E0 JUMP JUMPDEST SWAP1 POP SWAP2 SWAP1 POP JUMP JUMPDEST PUSH32 0x53616C646F20646520746F6B656E20696E737566696369656E74650000000000 PUSH0 DUP3 ADD MSTORE POP JUMP JUMPDEST PUSH0 PUSH2 0x2354 PUSH1 0x1B DUP4 PUSH2 0x19C1 JUMP JUMPDEST SWAP2 POP PUSH2 0x235F DUP3 PUSH2 0x2320 JUMP JUMPDEST PUSH1 0x20 DUP3 ADD SWAP1 POP SWAP2 SWAP1 POP JUMP JUMPDEST PUSH0 PUSH1 0x20 DUP3 ADD SWAP1 POP DUP2 DUP2 SUB PUSH0 DUP4 ADD MSTORE PUSH2 0x2381 DUP2 PUSH2 0x2348 JUMP JUMPDEST SWAP1 POP SWAP2 SWAP1 POP JUMP JUMPDEST PUSH32 0x44657374696E61746172696F206520756D20636F6E747261746F206520706F64 PUSH0 DUP3 ADD MSTORE PUSH32 0x652072656A656974617220746F6B656E73000000000000000000000000000000 PUSH1 0x20 DUP3 ADD MSTORE POP JUMP JUMPDEST PUSH0 PUSH2 0x23E2 PUSH1 0x31 DUP4 PUSH2 0x19C1 JUMP JUMPDEST SWAP2 POP PUSH2 0x23ED DUP3 PUSH2 0x2388 JUMP JUMPDEST PUSH1 0x40 DUP3 ADD SWAP1 POP SWAP2 SWAP1 POP JUMP JUMPDEST PUSH0 PUSH1 0x20 DUP3 ADD SWAP1 POP DUP2 DUP2 SUB PUSH0 DUP4 ADD MSTORE PUSH2 0x240F DUP2 PUSH2 0x23D6 JUMP JUMPDEST SWAP1 POP SWAP2 SWAP1 POP JUMP JUMPDEST PUSH0 PUSH2 0x2420 DUP3 PUSH2 0x1B70 JUMP JUMPDEST SWAP2 POP PUSH2 0x242B DUP4 PUSH2 0x1B70 JUMP JUMPDEST SWAP3 POP DUP3 DUP3 SUB SWAP1 POP DUP2 DUP2 GT ISZERO PUSH2 0x2443 JUMPI PUSH2 0x2442 PUSH2 0x204D JUMP JUMPDEST JUMPDEST SWAP3 SWAP2 POP POP JUMP JUMPDEST PUSH32 0x7472616E7366657246726F6D20636F6E636C7569646100000000000000000000 PUSH0 DUP3 ADD MSTORE POP JUMP JUMPDEST PUSH0 PUSH2 0x247D PUSH1 0x16 DUP4 PUSH2 0x19C1 JUMP JUMPDEST SWAP2 POP PUSH2 0x2488 DUP3 PUSH2 0x2449 JUMP JUMPDEST PUSH1 0x20 DUP3 ADD SWAP1 POP SWAP2 SWAP1 POP JUMP JUMPDEST PUSH0 PUSH1 0x60 DUP3 ADD SWAP1 POP DUP2 DUP2 SUB PUSH0 DUP4 ADD MSTORE PUSH2 0x24AA DUP2 PUSH2 0x2471 JUMP JUMPDEST SWAP1 POP PUSH2 0x24B9 PUSH1 0x20 DUP4 ADD DUP6 PUSH2 0x1CC0 JUMP JUMPDEST PUSH2 0x24C6 PUSH1 0x40 DUP4 ADD DUP5 PUSH2 0x1C14 JUMP JUMPDEST SWAP4 SWAP3 POP POP POP JUMP JUMPDEST PUSH32 0x4E487B7100000000000000000000000000000000000000000000000000000000 PUSH0 MSTORE PUSH1 0x22 PUSH1 0x4 MSTORE PUSH1 0x24 PUSH0 REVERT JUMPDEST PUSH0 PUSH1 0x2 DUP3 DIV SWAP1 POP PUSH1 0x1 DUP3 AND DUP1 PUSH2 0x2511 JUMPI PUSH1 0x7F DUP3 AND SWAP2 POP JUMPDEST PUSH1 0x20 DUP3 LT DUP2 SUB PUSH2 0x2524 JUMPI PUSH2 0x2523 PUSH2 0x24CD JUMP JUMPDEST JUMPDEST POP SWAP2 SWAP1 POP JUMP JUMPDEST PUSH32 0x496E696369616E646F207472616E73666572656E636961000000000000000000 PUSH0 DUP3 ADD MSTORE POP JUMP JUMPDEST PUSH0 PUSH2 0x255E PUSH1 0x17 DUP4 PUSH2 0x19C1 JUMP JUMPDEST SWAP2 POP PUSH2 0x2569 DUP3 PUSH2 0x252A JUMP JUMPDEST PUSH1 0x20 DUP3 ADD SWAP1 POP SWAP2 SWAP1 POP JUMP JUMPDEST PUSH0 PUSH1 0x60 DUP3 ADD SWAP1 POP DUP2 DUP2 SUB PUSH0 DUP4 ADD MSTORE PUSH2 0x258B DUP2 PUSH2 0x2552 JUMP JUMPDEST SWAP1 POP PUSH2 0x259A PUSH1 0x20 DUP4 ADD DUP6 PUSH2 0x1CC0 JUMP JUMPDEST PUSH2 0x25A7 PUSH1 0x40 DUP4 ADD DUP5 PUSH2 0x1C14 JUMP JUMPDEST SWAP4 SWAP3 POP POP POP JUMP JUMPDEST PUSH32 0x5472616E73666572656E63696120636F6E636C75696461000000000000000000 PUSH0 DUP3 ADD MSTORE POP JUMP JUMPDEST PUSH0 PUSH2 0x25E2 PUSH1 0x17 DUP4 PUSH2 0x19C1 JUMP JUMPDEST SWAP2 POP PUSH2 0x25ED DUP3 PUSH2 0x25AE JUMP JUMPDEST PUSH1 0x20 DUP3 ADD SWAP1 POP SWAP2 SWAP1 POP JUMP JUMPDEST PUSH0 PUSH1 0x60 DUP3 ADD SWAP1 POP DUP2 DUP2 SUB PUSH0 DUP4 ADD MSTORE PUSH2 0x260F DUP2 PUSH2 0x25D6 JUMP JUMPDEST SWAP1 POP PUSH2 0x261E PUSH1 0x20 DUP4 ADD DUP6 PUSH2 0x1CC0 JUMP JUMPDEST PUSH2 0x262B PUSH1 0x40 DUP4 ADD DUP5 PUSH2 0x1C14 JUMP JUMPDEST SWAP4 SWAP3 POP POP POP JUMP JUMPDEST PUSH0 DUP2 SWAP1 POP DUP2 PUSH0 MSTORE PUSH1 0x20 PUSH0 KECCAK256 SWAP1 POP SWAP2 SWAP1 POP JUMP JUMPDEST PUSH0 PUSH1 0x20 PUSH1 0x1F DUP4 ADD DIV SWAP1 POP SWAP2 SWAP1 POP JUMP JUMPDEST PUSH0 DUP3 DUP3 SHL SWAP1 POP SWAP3 SWAP2 POP POP JUMP JUMPDEST PUSH0 PUSH1 0x8 DUP4 MUL PUSH2 0x268E PUSH32 0xFFFFFFFFFFFFFFFFFFFFFFFFFFFFFFFFFFFFFFFFFFFFFFFFFFFFFFFFFFFFFFFF DUP3 PUSH2 0x2653 JUMP JUMPDEST PUSH2 0x2698 DUP7 DUP4 PUSH2 0x2653 JUMP JUMPDEST SWAP6 POP DUP1 NOT DUP5 AND SWAP4 POP DUP1 DUP7 AND DUP5 OR SWAP3 POP POP POP SWAP4 SWAP3 POP POP POP JUMP JUMPDEST PUSH0 DUP2 SWAP1 POP SWAP2 SWAP1 POP JUMP JUMPDEST PUSH0 PUSH2 0x26D3 PUSH2 0x26CE PUSH2 0x26C9 DUP5 PUSH2 0x1B70 JUMP JUMPDEST PUSH2 0x26B0 JUMP JUMPDEST PUSH2 0x1B70 JUMP JUMPDEST SWAP1 POP SWAP2 SWAP1 POP JUMP JUMPDEST PUSH0 DUP2 SWAP1 POP SWAP2 SWAP1 POP JUMP JUMPDEST PUSH2 0x26EC DUP4 PUSH2 0x26B9 JUMP JUMPDEST PUSH2 0x2700 PUSH2 0x26F8 DUP3 PUSH2 0x26DA JUMP JUMPDEST DUP5 DUP5 SLOAD PUSH2 0x265F JUMP JUMPDEST DUP3 SSTORE POP POP POP POP JUMP JUMPDEST PUSH0 PUSH0 SWAP1 POP SWAP1 JUMP JUMPDEST PUSH2 0x2717 PUSH2 0x2708 JUMP JUMPDEST PUSH2 0x2722 DUP2 DUP5 DUP5 PUSH2 0x26E3 JUMP JUMPDEST POP POP POP JUMP JUMPDEST JUMPDEST DUP2 DUP2 LT ISZERO PUSH2 0x2745 JUMPI PUSH2 0x273A PUSH0 DUP3 PUSH2 0x270F JUMP JUMPDEST PUSH1 0x1 DUP2 ADD SWAP1 POP PUSH2 0x2728 JUMP JUMPDEST POP POP JUMP JUMPDEST PUSH1 0x1F DUP3 GT ISZERO PUSH2 0x278A JUMPI PUSH2 0x275B DUP2 PUSH2 0x2632 JUMP JUMPDEST PUSH2 0x2764 DUP5 PUSH2 0x2644 JUMP JUMPDEST DUP2 ADD PUSH1 0x20 DUP6 LT ISZERO PUSH2 0x2773 JUMPI DUP2 SWAP1 POP JUMPDEST PUSH2 0x2787 PUSH2 0x277F DUP6 PUSH2 0x2644 JUMP JUMPDEST DUP4 ADD DUP3 PUSH2 0x2727 JUMP JUMPDEST POP POP JUMPDEST POP POP POP JUMP JUMPDEST PUSH0 DUP3 DUP3 SHR SWAP1 POP SWAP3 SWAP2 POP POP JUMP JUMPDEST PUSH0 PUSH2 0x27AA PUSH0 NOT DUP5 PUSH1 0x8 MUL PUSH2 0x278F JUMP JUMPDEST NOT DUP1 DUP4 AND SWAP2 POP POP SWAP3 SWAP2 POP POP JUMP JUMPDEST PUSH0 PUSH2 0x27C2 DUP4 DUP4 PUSH2 0x279B JUMP JUMPDEST SWAP2 POP DUP3 PUSH1 0x2 MUL DUP3 OR SWAP1 POP SWAP3 SWAP2 POP POP JUMP JUMPDEST PUSH2 0x27DB DUP3 PUSH2 0x1A85 JUMP JUMPDEST PUSH8 0xFFFFFFFFFFFFFFFF DUP2 GT ISZERO PUSH2 0x27F4 JUMPI PUSH2 0x27F3 PUSH2 0x1D1B JUMP JUMPDEST JUMPDEST PUSH2 0x27FE DUP3 SLOAD PUSH2 0x24FA JUMP JUMPDEST PUSH2 0x2809 DUP3 DUP3 DUP6 PUSH2 0x2749 JUMP JUMPDEST PUSH0 PUSH1 0x20 SWAP1 POP PUSH1 0x1F DUP4 GT PUSH1 0x1 DUP2 EQ PUSH2 0x283A JUMPI PUSH0 DUP5 ISZERO PUSH2 0x2828 JUMPI DUP3 DUP8 ADD MLOAD SWAP1 POP JUMPDEST PUSH2 0x2832 DUP6 DUP3 PUSH2 0x27B7 JUMP JUMPDEST DUP7 SSTORE POP PUSH2 0x2899 JUMP JUMPDEST PUSH1 0x1F NOT DUP5 AND PUSH2 0x2848 DUP7 PUSH2 0x2632 JUMP JUMPDEST PUSH0 JUMPDEST DUP3 DUP2 LT ISZERO PUSH2 0x286F JUMPI DUP5 DUP10 ADD MLOAD DUP3 SSTORE PUSH1 0x1 DUP3 ADD SWAP2 POP PUSH1 0x20 DUP6 ADD SWAP5 POP PUSH1 0x20 DUP2 ADD SWAP1 POP PUSH2 0x284A JUMP JUMPDEST DUP7 DUP4 LT ISZERO PUSH2 0x288C JUMPI DUP5 DUP10 ADD MLOAD PUSH2 0x2888 PUSH1 0x1F DUP10 AND DUP3 PUSH2 0x279B JUMP JUMPDEST DUP4 SSTORE POP JUMPDEST PUSH1 0x1 PUSH1 0x2 DUP9 MUL ADD DUP9 SSTORE POP POP POP JUMPDEST POP POP POP POP POP POP JUMP JUMPDEST PUSH32 0x412074617861206465766520736572206D61696F72206F7520696775616C2061 PUSH0 DUP3 ADD MSTORE PUSH32 0x207A65726F000000000000000000000000000000000000000000000000000000 PUSH1 0x20 DUP3 ADD MSTORE POP JUMP JUMPDEST PUSH0 PUSH2 0x28FB PUSH1 0x25 DUP4 PUSH2 0x19C1 JUMP JUMPDEST SWAP2 POP PUSH2 0x2906 DUP3 PUSH2 0x28A1 JUMP JUMPDEST PUSH1 0x40 DUP3 ADD SWAP1 POP SWAP2 SWAP1 POP JUMP JUMPDEST PUSH0 PUSH1 0x20 DUP3 ADD SWAP1 POP DUP2 DUP2 SUB PUSH0 DUP4 ADD MSTORE PUSH2 0x2928 DUP2 PUSH2 0x28EF JUMP JUMPDEST SWAP1 POP SWAP2 SWAP1 POP JUMP JUMPDEST PUSH32 0x496E76616C69642066656520726563697069656E742061646472657373000000 PUSH0 DUP3 ADD MSTORE POP JUMP JUMPDEST PUSH0 PUSH2 0x2963 PUSH1 0x1D DUP4 PUSH2 0x19C1 JUMP JUMPDEST SWAP2 POP PUSH2 0x296E DUP3 PUSH2 0x292F JUMP JUMPDEST PUSH1 0x20 DUP3 ADD SWAP1 POP SWAP2 SWAP1 POP JUMP JUMPDEST PUSH0 PUSH1 0x20 DUP3 ADD SWAP1 POP DUP2 DUP2 SUB PUSH0 DUP4 ADD MSTORE PUSH2 0x2990 DUP2 PUSH2 0x2957 JUMP JUMPDEST SWAP1 POP SWAP2 SWAP1 POP JUMP JUMPDEST PUSH32 0x4E6577206F776E657220697320746865207A65726F2061646472657373000000 PUSH0 DUP3 ADD MSTORE POP JUMP JUMPDEST PUSH0 PUSH2 0x29CB PUSH1 0x1D DUP4 PUSH2 0x19C1 JUMP JUMPDEST SWAP2 POP PUSH2 0x29D6 DUP3 PUSH2 0x2997 JUMP JUMPDEST PUSH1 0x20 DUP3 ADD SWAP1 POP SWAP2 SWAP1 POP JUMP JUMPDEST PUSH0 PUSH1 0x20 DUP3 ADD SWAP1 POP DUP2 DUP2 SUB PUSH0 DUP4 ADD MSTORE PUSH2 0x29F8 DUP2 PUSH2 0x29BF JUMP JUMPDEST SWAP1 POP SWAP2 SWAP1 POP JUMP JUMPDEST PUSH32 0x56616C6F7220696E737566696369656E746520646520424E4220706172612061 PUSH0 DUP3 ADD MSTORE PUSH32 0x2074617861000000000000000000000000000000000000000000000000000000 PUSH1 0x20 DUP3 ADD MSTORE POP JUMP JUMPDEST PUSH0 PUSH2 0x2A59 PUSH1 0x25 DUP4 PUSH2 0x19C1 JUMP JUMPDEST SWAP2 POP PUSH2 0x2A64 DUP3 PUSH2 0x29FF JUMP JUMPDEST PUSH1 0x40 DUP3 ADD SWAP1 POP SWAP2 SWAP1 POP JUMP JUMPDEST PUSH0 PUSH1 0x20 DUP3 ADD SWAP1 POP DUP2 DUP2 SUB PUSH0 DUP4 ADD MSTORE PUSH2 0x2A86 DUP2 PUSH2 0x2A4D JUMP JUMPDEST SWAP1 POP SWAP2 SWAP1 POP JUMP JUMPDEST PUSH0 DUP2 SWAP1 POP SWAP3 SWAP2 POP POP JUMP JUMPDEST POP JUMP JUMPDEST PUSH0 PUSH2 0x2AA5 PUSH0 DUP4 PUSH2 0x2A8D JUMP JUMPDEST SWAP2 POP PUSH2 0x2AB0 DUP3 PUSH2 0x2A97 JUMP JUMPDEST PUSH0 DUP3 ADD SWAP1 POP SWAP2 SWAP1 POP JUMP JUMPDEST PUSH0 PUSH2 0x2AC4 DUP3 PUSH2 0x2A9A JUMP JUMPDEST SWAP2 POP DUP2 SWAP1 POP SWAP2 SWAP1 POP JUMP JUMPDEST PUSH32 0x46616C6861206E61207472616E73666572656E63696120646120746178612042 PUSH0 DUP3 ADD MSTORE PUSH32 0x4E422070617261206F20726563656265646F7200000000000000000000000000 PUSH1 0x20 DUP3 ADD MSTORE POP JUMP JUMPDEST PUSH0 PUSH2 0x2B28 PUSH1 0x33 DUP4 PUSH2 0x19C1 JUMP JUMPDEST SWAP2 POP PUSH2 0x2B33 DUP3 PUSH2 0x2ACE JUMP JUMPDEST PUSH1 0x40 DUP3 ADD SWAP1 POP SWAP2 SWAP1 POP JUMP JUMPDEST PUSH0 PUSH1 0x20 DUP3 ADD SWAP1 POP DUP2 DUP2 SUB PUSH0 DUP4 ADD MSTORE PUSH2 0x2B55 DUP2 PUSH2 0x2B1C JUMP JUMPDEST SWAP1 POP SWAP2 SWAP1 POP JUMP JUMPDEST PUSH32 0x5461786120424E4220636F627261646100000000000000000000000000000000 PUSH0 DUP3 ADD MSTORE POP JUMP JUMPDEST PUSH0 PUSH2 0x2B90 PUSH1 0x10 DUP4 PUSH2 0x19C1 JUMP JUMPDEST SWAP2 POP PUSH2 0x2B9B DUP3 PUSH2 0x2B5C JUMP JUMPDEST PUSH1 0x20 DUP3 ADD SWAP1 POP SWAP2 SWAP1 POP JUMP JUMPDEST PUSH0 PUSH1 0x60 DUP3 ADD SWAP1 POP DUP2 DUP2 SUB PUSH0 DUP4 ADD MSTORE PUSH2 0x2BBD DUP2 PUSH2 0x2B84 JUMP JUMPDEST SWAP1 POP PUSH2 0x2BCC PUSH1 0x20 DUP4 ADD DUP6 PUSH2 0x1CC0 JUMP JUMPDEST PUSH2 0x2BD9 PUSH1 0x40 DUP4 ADD DUP5 PUSH2 0x1C14 JUMP JUMPDEST SWAP4 SWAP3 POP POP POP JUMP JUMPDEST PUSH32 0x5472616E73666572656E636961207061726120656E64657265636F207A65726F PUSH0 DUP3 ADD MSTORE POP JUMP JUMPDEST PUSH0 PUSH2 0x2C14 PUSH1 0x20 DUP4 PUSH2 0x19C1 JUMP JUMPDEST SWAP2 POP PUSH2 0x2C1F DUP3 PUSH2 0x2BE0 JUMP JUMPDEST PUSH1 0x20 DUP3 ADD SWAP1 POP SWAP2 SWAP1 POP JUMP JUMPDEST PUSH0 PUSH1 0x20 DUP3 ADD SWAP1 POP DUP2 DUP2 SUB PUSH0 DUP4 ADD MSTORE PUSH2 0x2C41 DUP2 PUSH2 0x2C08 JUMP JUMPDEST SWAP1 POP SWAP2 SWAP1 POP JUMP JUMPDEST PUSH32 0x56616C6F72206465766520736572206D61696F7220717565207A65726F000000 PUSH0 DUP3 ADD MSTORE POP JUMP JUMPDEST PUSH0 PUSH2 0x2C7C PUSH1 0x1D DUP4 PUSH2 0x19C1 JUMP JUMPDEST SWAP2 POP PUSH2 0x2C87 DUP3 PUSH2 0x2C48 JUMP JUMPDEST PUSH1 0x20 DUP3 ADD SWAP1 POP SWAP2 SWAP1 POP JUMP JUMPDEST PUSH0 PUSH1 0x20 DUP3 ADD SWAP1 POP DUP2 DUP2 SUB PUSH0 DUP4 ADD MSTORE PUSH2 0x2CA9 DUP2 PUSH2 0x2C70 JUMP JUMPDEST SWAP1 POP SWAP2 SWAP1 POP JUMP JUMPDEST PUSH0 PUSH2 0x2CBA DUP3 PUSH2 0x1B70 JUMP JUMPDEST SWAP2 POP PUSH2 0x2CC5 DUP4 PUSH2 0x1B70 JUMP JUMPDEST SWAP3 POP DUP3 DUP3 ADD SWAP1 POP DUP1 DUP3 GT ISZERO PUSH2 0x2CDD JUMPI PUSH2 0x2CDC PUSH2 0x204D JUMP JUMPDEST JUMPDEST SWAP3 SWAP2 POP POP JUMP INVALID LOG2 PUSH5 0x6970667358 0x22 SLT KECCAK256 0xC2 0xB9 0xB6 0xDF 0xBD SIGNEXTEND BLOBHASH SWAPN 0x37 CALLDATALOAD 0x29 EXP NUMBER 0xB2 SWAP3 JUMPDEST ORIGIN STOP JUMPF 0x8B18 SWAP8 MSTORE8 0x21 0xEA LOG2 CODESIZE DUP9 POP 0x4B PUSH15 0x6064736F6C634300081E0033000000 "
				},
				"gasEstimates": {
					"creation": {
						"codeDepositCost": "2309000",
						"executionCost": "infinite",
						"totalCost": "infinite"
					},
					"external": {
						"allowance(address,address)": "infinite",
						"approve(address,uint256)": "infinite",
						"balanceOf(address)": "2874",
						"contractOwner()": "2552",
						"decimals()": "398",
						"feeRecipient()": "2619",
						"logoURI()": "infinite",
						"name()": "infinite",
						"pause()": "27856",
						"paused()": "2650",
						"setFeeRecipient(address)": "infinite",
						"setLogoURI(string)": "infinite",
						"setTransactionFeePercent(uint256)": "infinite",
						"symbol()": "infinite",
						"terminate()": "27857",
						"terminated()": "2540",
						"totalSupply()": "infinite",
						"transactionFeePercent()": "2514",
						"transfer(address,uint256)": "5400",
						"transferFrom(address,address,uint256)": "infinite",
						"transferOwnership(address)": "30730",
						"unpause()": "27877"
					},
					"internal": {
						"_collectFee()": "infinite",
						"_transferTokens(address,address,uint256)": "infinite",
						"isContract(address)": "2644"
					}
				},
				"methodIdentifiers": {
					"allowance(address,address)": "dd62ed3e",
					"approve(address,uint256)": "095ea7b3",
					"balanceOf(address)": "70a08231",
					"contractOwner()": "ce606ee0",
					"decimals()": "313ce567",
					"feeRecipient()": "46904840",
					"logoURI()": "6bb38b28",
					"name()": "06fdde03",
					"pause()": "8456cb59",
					"paused()": "5c975abb",
					"setFeeRecipient(address)": "e74b981b",
					"setLogoURI(string)": "c30ff6df",
					"setTransactionFeePercent(uint256)": "cebec750",
					"symbol()": "95d89b41",
					"terminate()": "0c08bf88",
					"terminated()": "194307bf",
					"totalSupply()": "18160ddd",
					"transactionFeePercent()": "0c8f5e00",
					"transfer(address,uint256)": "a9059cbb",
					"transferFrom(address,address,uint256)": "23b872dd",
					"transferOwnership(address)": "f2fde38b",
					"unpause()": "3f4ba83a"
				}
			},
			"storageLayout": {
				"storage": [
					{
						"astId": 25,
						"contract": "YK Prime - Test.sol:WKTOKENTST",
						"label": "transactionFeePercent",
						"offset": 0,
						"slot": "0",
						"type": "t_uint256"
					},
					{
						"astId": 28,
						"contract": "YK Prime - Test.sol:WKTOKENTST",
						"label": "feeRecipient",
						"offset": 0,
						"slot": "1",
						"type": "t_address"
					},
					{
						"astId": 50,
						"contract": "YK Prime - Test.sol:WKTOKENTST",
						"label": "logoURI",
						"offset": 0,
						"slot": "2",
						"type": "t_string_storage"
					},
					{
						"astId": 52,
						"contract": "YK Prime - Test.sol:WKTOKENTST",
						"label": "contractOwner",
						"offset": 0,
						"slot": "3",
						"type": "t_address"
					},
					{
						"astId": 54,
						"contract": "YK Prime - Test.sol:WKTOKENTST",
						"label": "paused",
						"offset": 20,
						"slot": "3",
						"type": "t_bool"
					},
					{
						"astId": 56,
						"contract": "YK Prime - Test.sol:WKTOKENTST",
						"label": "terminated",
						"offset": 21,
						"slot": "3",
						"type": "t_bool"
					},
					{
						"astId": 60,
						"contract": "YK Prime - Test.sol:WKTOKENTST",
						"label": "_balances",
						"offset": 0,
						"slot": "4",
						"type": "t_mapping(t_address,t_uint256)"
					},
					{
						"astId": 66,
						"contract": "YK Prime - Test.sol:WKTOKENTST",
						"label": "_allowances",
						"offset": 0,
						"slot": "5",
						"type": "t_mapping(t_address,t_mapping(t_address,t_uint256))"
					}
				],
				"types": {
					"t_address": {
						"encoding": "inplace",
						"label": "address",
						"numberOfBytes": "20"
					},
					"t_bool": {
						"encoding": "inplace",
						"label": "bool",
						"numberOfBytes": "1"
					},
					"t_mapping(t_address,t_mapping(t_address,t_uint256))": {
						"encoding": "mapping",
						"key": "t_address",
						"label": "mapping(address => mapping(address => uint256))",
						"numberOfBytes": "32",
						"value": "t_mapping(t_address,t_uint256)"
					},
					"t_mapping(t_address,t_uint256)": {
						"encoding": "mapping",
						"key": "t_address",
						"label": "mapping(address => uint256)",
						"numberOfBytes": "32",
						"value": "t_uint256"
					},
					"t_string_storage": {
						"encoding": "bytes",
						"label": "string",
						"numberOfBytes": "32"
					},
					"t_uint256": {
						"encoding": "inplace",
						"label": "uint256",
						"numberOfBytes": "32"
					}
				}
			},
			"userdoc": {
				"kind": "user",
				"methods": {},
				"version": 1
			}
		}
	}
}