{
	"Create2Factory.sol": {
		"CREATE2Factory": {
			"abi": [
				{
					"anonymous": false,
					"inputs": [
						{
							"indexed": false,
							"internalType": "address",
							"name": "addr",
							"type": "address"
						},
						{
							"indexed": false,
							"internalType": "uint256",
							"name": "salt",
							"type": "uint256"
						}
					],
					"name": "Deployed",
					"type": "event"
				},
				{
					"inputs": [
						{
							"internalType": "bytes",
							"name": "bytecode",
							"type": "bytes"
						},
						{
							"internalType": "uint256",
							"name": "salt",
							"type": "uint256"
						}
					],
					"name": "deploy",
					"outputs": [
						{
							"internalType": "address",
							"name": "addr",
							"type": "address"
						}
					],
					"stateMutability": "nonpayable",
					"type": "function"
				},
				{
					"inputs": [
						{
							"internalType": "bytes",
							"name": "bytecode",
							"type": "bytes"
						},
						{
							"internalType": "uint256",
							"name": "salt",
							"type": "uint256"
						}
					],
					"name": "getAddress",
					"outputs": [
						{
							"internalType": "address",
							"name": "",
							"type": "address"
						}
					],
					"stateMutability": "view",
					"type": "function"
				}
			],
			"devdoc": {
				"kind": "dev",
				"methods": {},
				"version": 1
			},
			"evm": {
				"assembly": "    /* \"Create2Factory.sol\":310:1291  contract CREATE2Factory {... */\n  mstore(0x40, 0x80)\n  callvalue\n  dup1\n  iszero\n  tag_1\n  jumpi\n  revert(0x00, 0x00)\ntag_1:\n  pop\n  dataSize(sub_0)\n  dup1\n  dataOffset(sub_0)\n  0x00\n  codecopy\n  0x00\n  return\nstop\n\nsub_0: assembly {\n        /* \"Create2Factory.sol\":310:1291  contract CREATE2Factory {... */\n      mstore(0x40, 0x80)\n      callvalue\n      dup1\n      iszero\n      tag_1\n      jumpi\n      revert(0x00, 0x00)\n    tag_1:\n      pop\n      jumpi(tag_2, lt(calldatasize, 0x04))\n      shr(0xe0, calldataload(0x00))\n      dup1\n      0x94ca2cb5\n      eq\n      tag_3\n      jumpi\n      dup1\n      0x9c4ae2d0\n      eq\n      tag_4\n      jumpi\n    tag_2:\n      revert(0x00, 0x00)\n        /* \"Create2Factory.sol\":928:1288  function getAddress(bytes memory bytecode, uint256 salt) public view returns (address) {... */\n    tag_3:\n      tag_5\n      0x04\n      dup1\n      calldatasize\n      sub\n      dup2\n      add\n      swap1\n      tag_6\n      swap2\n      swap1\n      tag_7\n      jump\t// in\n    tag_6:\n      tag_8\n      jump\t// in\n    tag_5:\n      mload(0x40)\n      tag_9\n      swap2\n      swap1\n      tag_10\n      jump\t// in\n    tag_9:\n      mload(0x40)\n      dup1\n      swap2\n      sub\n      swap1\n      return\n        /* \"Create2Factory.sol\":467:821  function deploy(bytes memory bytecode, uint256 salt) public returns (address addr) {... */\n    tag_4:\n      tag_11\n      0x04\n      dup1\n      calldatasize\n      sub\n      dup2\n      add\n      swap1\n      tag_12\n      swap2\n      swap1\n      tag_7\n      jump\t// in\n    tag_12:\n      tag_13\n      jump\t// in\n    tag_11:\n      mload(0x40)\n      tag_14\n      swap2\n      swap1\n      tag_10\n      jump\t// in\n    tag_14:\n      mload(0x40)\n      dup1\n      swap2\n      sub\n      swap1\n      return\n        /* \"Create2Factory.sol\":928:1288  function getAddress(bytes memory bytecode, uint256 salt) public view returns (address) {... */\n    tag_8:\n        /* \"Create2Factory.sol\":1006:1013  address */\n      0x00\n        /* \"Create2Factory.sol\":1026:1038  bytes32 hash */\n      0x00\n        /* \"Create2Factory.sol\":1107:1111  0xff */\n      0xff\n        /* \"Create2Factory.sol\":1100:1112  bytes1(0xff) */\n      0xf8\n      shl\n        /* \"Create2Factory.sol\":1139:1143  this */\n      address\n        /* \"Create2Factory.sol\":1163:1167  salt */\n      dup5\n        /* \"Create2Factory.sol\":1196:1204  bytecode */\n      dup7\n        /* \"Create2Factory.sol\":1186:1205  keccak256(bytecode) */\n      dup1\n      mload\n      swap1\n      0x20\n      add\n      keccak256\n        /* \"Create2Factory.sol\":1065:1220  abi.encodePacked(... */\n      add(0x20, mload(0x40))\n      tag_16\n      swap5\n      swap4\n      swap3\n      swap2\n      swap1\n      tag_17\n      jump\t// in\n    tag_16:\n      mload(0x40)\n      0x20\n      dup2\n      dup4\n      sub\n      sub\n      dup2\n      mstore\n      swap1\n      0x40\n      mstore\n        /* \"Create2Factory.sol\":1041:1231  keccak256(... */\n      dup1\n      mload\n      swap1\n      0x20\n      add\n      keccak256\n        /* \"Create2Factory.sol\":1026:1231  bytes32 hash = keccak256(... */\n      swap1\n      pop\n        /* \"Create2Factory.sol\":1273:1277  hash */\n      dup1\n        /* \"Create2Factory.sol\":1265:1278  uint256(hash) */\n      0x00\n      shr\n        /* \"Create2Factory.sol\":1242:1280  return address(uint160(uint256(hash))) */\n      swap2\n      pop\n      pop\n        /* \"Create2Factory.sol\":928:1288  function getAddress(bytes memory bytecode, uint256 salt) public view returns (address) {... */\n      swap3\n      swap2\n      pop\n      pop\n      jump\t// out\n        /* \"Create2Factory.sol\":467:821  function deploy(bytes memory bytecode, uint256 salt) public returns (address addr) {... */\n    tag_13:\n        /* \"Create2Factory.sol\":536:548  address addr */\n      0x00\n        /* \"Create2Factory.sol\":587:588  0 */\n      0x00\n        /* \"Create2Factory.sol\":569:577  bytecode */\n      dup4\n        /* \"Create2Factory.sol\":569:584  bytecode.length */\n      mload\n        /* \"Create2Factory.sol\":569:588  bytecode.length > 0 */\n      gt\n        /* \"Create2Factory.sol\":561:607  require(bytecode.length > 0, \"Bytecode vazio\") */\n      tag_19\n      jumpi\n      mload(0x40)\n      0x08c379a000000000000000000000000000000000000000000000000000000000\n      dup2\n      mstore\n      0x04\n      add\n      tag_20\n      swap1\n      tag_21\n      jump\t// in\n    tag_20:\n      mload(0x40)\n      dup1\n      swap2\n      sub\n      swap1\n      revert\n    tag_19:\n        /* \"Create2Factory.sol\":701:705  salt */\n      dup2\n        /* \"Create2Factory.sol\":690:698  bytecode */\n      dup4\n        /* \"Create2Factory.sol\":684:699  mload(bytecode) */\n      mload\n        /* \"Create2Factory.sol\":677:681  0x20 */\n      0x20\n        /* \"Create2Factory.sol\":667:675  bytecode */\n      dup6\n        /* \"Create2Factory.sol\":663:682  add(bytecode, 0x20) */\n      add\n        /* \"Create2Factory.sol\":660:661  0 */\n      0x00\n        /* \"Create2Factory.sol\":652:706  create2(0, add(bytecode, 0x20), mload(bytecode), salt) */\n      create2\n        /* \"Create2Factory.sol\":644:706  addr := create2(0, add(bytecode, 0x20), mload(bytecode), salt) */\n      swap1\n      pop\n        /* \"Create2Factory.sol\":742:746  addr */\n      dup1\n        /* \"Create2Factory.sol\":730:747  extcodesize(addr) */\n      extcodesize\n        /* \"Create2Factory.sol\":720:765  if iszero(extcodesize(addr)) { revert(0, 0) } */\n      tag_22\n      jumpi\n        /* \"Create2Factory.sol\":761:762  0 */\n      0x00\n        /* \"Create2Factory.sol\":758:759  0 */\n      0x00\n        /* \"Create2Factory.sol\":751:763  revert(0, 0) */\n      revert\n        /* \"Create2Factory.sol\":720:765  if iszero(extcodesize(addr)) { revert(0, 0) } */\n    tag_22:\n        /* \"Create2Factory.sol\":793:813  Deployed(addr, salt) */\n      0xb03c53b28e78a88e31607a27e1fa48234dce28d5d9d9ec7b295aeb02e674a1e1\n        /* \"Create2Factory.sol\":802:806  addr */\n      dup2\n        /* \"Create2Factory.sol\":808:812  salt */\n      dup4\n        /* \"Create2Factory.sol\":793:813  Deployed(addr, salt) */\n      mload(0x40)\n      tag_23\n      swap3\n      swap2\n      swap1\n      tag_24\n      jump\t// in\n    tag_23:\n      mload(0x40)\n      dup1\n      swap2\n      sub\n      swap1\n      log1\n        /* \"Create2Factory.sol\":467:821  function deploy(bytes memory bytecode, uint256 salt) public returns (address addr) {... */\n      swap3\n      swap2\n      pop\n      pop\n      jump\t// out\n        /* \"#utility.yul\":7:82   */\n    tag_25:\n        /* \"#utility.yul\":40:46   */\n      0x00\n        /* \"#utility.yul\":73:75   */\n      0x40\n        /* \"#utility.yul\":67:76   */\n      mload\n        /* \"#utility.yul\":57:76   */\n      swap1\n      pop\n        /* \"#utility.yul\":7:82   */\n      swap1\n      jump\t// out\n        /* \"#utility.yul\":88:205   */\n    tag_26:\n        /* \"#utility.yul\":197:198   */\n      0x00\n        /* \"#utility.yul\":194:195   */\n      0x00\n        /* \"#utility.yul\":187:199   */\n      revert\n        /* \"#utility.yul\":211:328   */\n    tag_27:\n        /* \"#utility.yul\":320:321   */\n      0x00\n        /* \"#utility.yul\":317:318   */\n      0x00\n        /* \"#utility.yul\":310:322   */\n      revert\n        /* \"#utility.yul\":334:451   */\n    tag_28:\n        /* \"#utility.yul\":443:444   */\n      0x00\n        /* \"#utility.yul\":440:441   */\n      0x00\n        /* \"#utility.yul\":433:445   */\n      revert\n        /* \"#utility.yul\":457:574   */\n    tag_29:\n        /* \"#utility.yul\":566:567   */\n      0x00\n        /* \"#utility.yul\":563:564   */\n      0x00\n        /* \"#utility.yul\":556:568   */\n      revert\n        /* \"#utility.yul\":580:682   */\n    tag_30:\n        /* \"#utility.yul\":621:627   */\n      0x00\n        /* \"#utility.yul\":672:674   */\n      0x1f\n        /* \"#utility.yul\":668:675   */\n      not\n        /* \"#utility.yul\":663:665   */\n      0x1f\n        /* \"#utility.yul\":656:661   */\n      dup4\n        /* \"#utility.yul\":652:666   */\n      add\n        /* \"#utility.yul\":648:676   */\n      and\n        /* \"#utility.yul\":638:676   */\n      swap1\n      pop\n        /* \"#utility.yul\":580:682   */\n      swap2\n      swap1\n      pop\n      jump\t// out\n        /* \"#utility.yul\":688:868   */\n    tag_31:\n        /* \"#utility.yul\":736:813   */\n      0x4e487b7100000000000000000000000000000000000000000000000000000000\n        /* \"#utility.yul\":733:734   */\n      0x00\n        /* \"#utility.yul\":726:814   */\n      mstore\n        /* \"#utility.yul\":833:837   */\n      0x41\n        /* \"#utility.yul\":830:831   */\n      0x04\n        /* \"#utility.yul\":823:838   */\n      mstore\n        /* \"#utility.yul\":857:861   */\n      0x24\n        /* \"#utility.yul\":854:855   */\n      0x00\n        /* \"#utility.yul\":847:862   */\n      revert\n        /* \"#utility.yul\":874:1155   */\n    tag_32:\n        /* \"#utility.yul\":957:984   */\n      tag_69\n        /* \"#utility.yul\":979:983   */\n      dup3\n        /* \"#utility.yul\":957:984   */\n      tag_30\n      jump\t// in\n    tag_69:\n        /* \"#utility.yul\":949:955   */\n      dup2\n        /* \"#utility.yul\":945:985   */\n      add\n        /* \"#utility.yul\":1087:1093   */\n      dup2\n        /* \"#utility.yul\":1075:1085   */\n      dup2\n        /* \"#utility.yul\":1072:1094   */\n      lt\n        /* \"#utility.yul\":1051:1069   */\n      0xffffffffffffffff\n        /* \"#utility.yul\":1039:1049   */\n      dup3\n        /* \"#utility.yul\":1036:1070   */\n      gt\n        /* \"#utility.yul\":1033:1095   */\n      or\n        /* \"#utility.yul\":1030:1118   */\n      iszero\n      tag_70\n      jumpi\n        /* \"#utility.yul\":1098:1116   */\n      tag_71\n      tag_31\n      jump\t// in\n    tag_71:\n        /* \"#utility.yul\":1030:1118   */\n    tag_70:\n        /* \"#utility.yul\":1138:1148   */\n      dup1\n        /* \"#utility.yul\":1134:1136   */\n      0x40\n        /* \"#utility.yul\":1127:1149   */\n      mstore\n        /* \"#utility.yul\":917:1155   */\n      pop\n        /* \"#utility.yul\":874:1155   */\n      pop\n      pop\n      jump\t// out\n        /* \"#utility.yul\":1161:1290   */\n    tag_33:\n        /* \"#utility.yul\":1195:1201   */\n      0x00\n        /* \"#utility.yul\":1222:1242   */\n      tag_73\n      tag_25\n      jump\t// in\n    tag_73:\n        /* \"#utility.yul\":1212:1242   */\n      swap1\n      pop\n        /* \"#utility.yul\":1251:1284   */\n      tag_74\n        /* \"#utility.yul\":1279:1283   */\n      dup3\n        /* \"#utility.yul\":1271:1277   */\n      dup3\n        /* \"#utility.yul\":1251:1284   */\n      tag_32\n      jump\t// in\n    tag_74:\n        /* \"#utility.yul\":1161:1290   */\n      swap2\n      swap1\n      pop\n      jump\t// out\n        /* \"#utility.yul\":1296:1603   */\n    tag_34:\n        /* \"#utility.yul\":1357:1361   */\n      0x00\n        /* \"#utility.yul\":1447:1465   */\n      0xffffffffffffffff\n        /* \"#utility.yul\":1439:1445   */\n      dup3\n        /* \"#utility.yul\":1436:1466   */\n      gt\n        /* \"#utility.yul\":1433:1489   */\n      iszero\n      tag_76\n      jumpi\n        /* \"#utility.yul\":1469:1487   */\n      tag_77\n      tag_31\n      jump\t// in\n    tag_77:\n        /* \"#utility.yul\":1433:1489   */\n    tag_76:\n        /* \"#utility.yul\":1507:1536   */\n      tag_78\n        /* \"#utility.yul\":1529:1535   */\n      dup3\n        /* \"#utility.yul\":1507:1536   */\n      tag_30\n      jump\t// in\n    tag_78:\n        /* \"#utility.yul\":1499:1536   */\n      swap1\n      pop\n        /* \"#utility.yul\":1591:1595   */\n      0x20\n        /* \"#utility.yul\":1585:1589   */\n      dup2\n        /* \"#utility.yul\":1581:1596   */\n      add\n        /* \"#utility.yul\":1573:1596   */\n      swap1\n      pop\n        /* \"#utility.yul\":1296:1603   */\n      swap2\n      swap1\n      pop\n      jump\t// out\n        /* \"#utility.yul\":1609:1757   */\n    tag_35:\n        /* \"#utility.yul\":1707:1713   */\n      dup3\n        /* \"#utility.yul\":1702:1705   */\n      dup2\n        /* \"#utility.yul\":1697:1700   */\n      dup4\n        /* \"#utility.yul\":1684:1714   */\n      calldatacopy\n        /* \"#utility.yul\":1748:1749   */\n      0x00\n        /* \"#utility.yul\":1739:1745   */\n      dup4\n        /* \"#utility.yul\":1734:1737   */\n      dup4\n        /* \"#utility.yul\":1730:1746   */\n      add\n        /* \"#utility.yul\":1723:1750   */\n      mstore\n        /* \"#utility.yul\":1609:1757   */\n      pop\n      pop\n      pop\n      jump\t// out\n        /* \"#utility.yul\":1763:2186   */\n    tag_36:\n        /* \"#utility.yul\":1840:1845   */\n      0x00\n        /* \"#utility.yul\":1865:1930   */\n      tag_81\n        /* \"#utility.yul\":1881:1929   */\n      tag_82\n        /* \"#utility.yul\":1922:1928   */\n      dup5\n        /* \"#utility.yul\":1881:1929   */\n      tag_34\n      jump\t// in\n    tag_82:\n        /* \"#utility.yul\":1865:1930   */\n      tag_33\n      jump\t// in\n    tag_81:\n        /* \"#utility.yul\":1856:1930   */\n      swap1\n      pop\n        /* \"#utility.yul\":1953:1959   */\n      dup3\n        /* \"#utility.yul\":1946:1951   */\n      dup2\n        /* \"#utility.yul\":1939:1960   */\n      mstore\n        /* \"#utility.yul\":1991:1995   */\n      0x20\n        /* \"#utility.yul\":1984:1989   */\n      dup2\n        /* \"#utility.yul\":1980:1996   */\n      add\n        /* \"#utility.yul\":2029:2032   */\n      dup5\n        /* \"#utility.yul\":2020:2026   */\n      dup5\n        /* \"#utility.yul\":2015:2018   */\n      dup5\n        /* \"#utility.yul\":2011:2027   */\n      add\n        /* \"#utility.yul\":2008:2033   */\n      gt\n        /* \"#utility.yul\":2005:2117   */\n      iszero\n      tag_83\n      jumpi\n        /* \"#utility.yul\":2036:2115   */\n      tag_84\n      tag_29\n      jump\t// in\n    tag_84:\n        /* \"#utility.yul\":2005:2117   */\n    tag_83:\n        /* \"#utility.yul\":2126:2180   */\n      tag_85\n        /* \"#utility.yul\":2173:2179   */\n      dup5\n        /* \"#utility.yul\":2168:2171   */\n      dup3\n        /* \"#utility.yul\":2163:2166   */\n      dup6\n        /* \"#utility.yul\":2126:2180   */\n      tag_35\n      jump\t// in\n    tag_85:\n        /* \"#utility.yul\":1846:2186   */\n      pop\n        /* \"#utility.yul\":1763:2186   */\n      swap4\n      swap3\n      pop\n      pop\n      pop\n      jump\t// out\n        /* \"#utility.yul\":2205:2543   */\n    tag_37:\n        /* \"#utility.yul\":2260:2265   */\n      0x00\n        /* \"#utility.yul\":2309:2312   */\n      dup3\n        /* \"#utility.yul\":2302:2306   */\n      0x1f\n        /* \"#utility.yul\":2294:2300   */\n      dup4\n        /* \"#utility.yul\":2290:2307   */\n      add\n        /* \"#utility.yul\":2286:2313   */\n      slt\n        /* \"#utility.yul\":2276:2398   */\n      tag_87\n      jumpi\n        /* \"#utility.yul\":2317:2396   */\n      tag_88\n      tag_28\n      jump\t// in\n    tag_88:\n        /* \"#utility.yul\":2276:2398   */\n    tag_87:\n        /* \"#utility.yul\":2434:2440   */\n      dup2\n        /* \"#utility.yul\":2421:2441   */\n      calldataload\n        /* \"#utility.yul\":2459:2537   */\n      tag_89\n        /* \"#utility.yul\":2533:2536   */\n      dup5\n        /* \"#utility.yul\":2525:2531   */\n      dup3\n        /* \"#utility.yul\":2518:2522   */\n      0x20\n        /* \"#utility.yul\":2510:2516   */\n      dup7\n        /* \"#utility.yul\":2506:2523   */\n      add\n        /* \"#utility.yul\":2459:2537   */\n      tag_36\n      jump\t// in\n    tag_89:\n        /* \"#utility.yul\":2450:2537   */\n      swap2\n      pop\n        /* \"#utility.yul\":2266:2543   */\n      pop\n        /* \"#utility.yul\":2205:2543   */\n      swap3\n      swap2\n      pop\n      pop\n      jump\t// out\n        /* \"#utility.yul\":2549:2626   */\n    tag_38:\n        /* \"#utility.yul\":2586:2593   */\n      0x00\n        /* \"#utility.yul\":2615:2620   */\n      dup2\n        /* \"#utility.yul\":2604:2620   */\n      swap1\n      pop\n        /* \"#utility.yul\":2549:2626   */\n      swap2\n      swap1\n      pop\n      jump\t// out\n        /* \"#utility.yul\":2632:2754   */\n    tag_39:\n        /* \"#utility.yul\":2705:2729   */\n      tag_92\n        /* \"#utility.yul\":2723:2728   */\n      dup2\n        /* \"#utility.yul\":2705:2729   */\n      tag_38\n      jump\t// in\n    tag_92:\n        /* \"#utility.yul\":2698:2703   */\n      dup2\n        /* \"#utility.yul\":2695:2730   */\n      eq\n        /* \"#utility.yul\":2685:2748   */\n      tag_93\n      jumpi\n        /* \"#utility.yul\":2744:2745   */\n      0x00\n        /* \"#utility.yul\":2741:2742   */\n      0x00\n        /* \"#utility.yul\":2734:2746   */\n      revert\n        /* \"#utility.yul\":2685:2748   */\n    tag_93:\n        /* \"#utility.yul\":2632:2754   */\n      pop\n      jump\t// out\n        /* \"#utility.yul\":2760:2899   */\n    tag_40:\n        /* \"#utility.yul\":2806:2811   */\n      0x00\n        /* \"#utility.yul\":2844:2850   */\n      dup2\n        /* \"#utility.yul\":2831:2851   */\n      calldataload\n        /* \"#utility.yul\":2822:2851   */\n      swap1\n      pop\n        /* \"#utility.yul\":2860:2893   */\n      tag_95\n        /* \"#utility.yul\":2887:2892   */\n      dup2\n        /* \"#utility.yul\":2860:2893   */\n      tag_39\n      jump\t// in\n    tag_95:\n        /* \"#utility.yul\":2760:2899   */\n      swap3\n      swap2\n      pop\n      pop\n      jump\t// out\n        /* \"#utility.yul\":2905:3557   */\n    tag_7:\n        /* \"#utility.yul\":2982:2988   */\n      0x00\n        /* \"#utility.yul\":2990:2996   */\n      0x00\n        /* \"#utility.yul\":3039:3041   */\n      0x40\n        /* \"#utility.yul\":3027:3036   */\n      dup4\n        /* \"#utility.yul\":3018:3025   */\n      dup6\n        /* \"#utility.yul\":3014:3037   */\n      sub\n        /* \"#utility.yul\":3010:3042   */\n      slt\n        /* \"#utility.yul\":3007:3126   */\n      iszero\n      tag_97\n      jumpi\n        /* \"#utility.yul\":3045:3124   */\n      tag_98\n      tag_26\n      jump\t// in\n    tag_98:\n        /* \"#utility.yul\":3007:3126   */\n    tag_97:\n        /* \"#utility.yul\":3193:3194   */\n      0x00\n        /* \"#utility.yul\":3182:3191   */\n      dup4\n        /* \"#utility.yul\":3178:3195   */\n      add\n        /* \"#utility.yul\":3165:3196   */\n      calldataload\n        /* \"#utility.yul\":3223:3241   */\n      0xffffffffffffffff\n        /* \"#utility.yul\":3215:3221   */\n      dup2\n        /* \"#utility.yul\":3212:3242   */\n      gt\n        /* \"#utility.yul\":3209:3326   */\n      iszero\n      tag_99\n      jumpi\n        /* \"#utility.yul\":3245:3324   */\n      tag_100\n      tag_27\n      jump\t// in\n    tag_100:\n        /* \"#utility.yul\":3209:3326   */\n    tag_99:\n        /* \"#utility.yul\":3350:3412   */\n      tag_101\n        /* \"#utility.yul\":3404:3411   */\n      dup6\n        /* \"#utility.yul\":3395:3401   */\n      dup3\n        /* \"#utility.yul\":3384:3393   */\n      dup7\n        /* \"#utility.yul\":3380:3402   */\n      add\n        /* \"#utility.yul\":3350:3412   */\n      tag_37\n      jump\t// in\n    tag_101:\n        /* \"#utility.yul\":3340:3412   */\n      swap3\n      pop\n        /* \"#utility.yul\":3136:3422   */\n      pop\n        /* \"#utility.yul\":3461:3463   */\n      0x20\n        /* \"#utility.yul\":3487:3540   */\n      tag_102\n        /* \"#utility.yul\":3532:3539   */\n      dup6\n        /* \"#utility.yul\":3523:3529   */\n      dup3\n        /* \"#utility.yul\":3512:3521   */\n      dup7\n        /* \"#utility.yul\":3508:3530   */\n      add\n        /* \"#utility.yul\":3487:3540   */\n      tag_40\n      jump\t// in\n    tag_102:\n        /* \"#utility.yul\":3477:3540   */\n      swap2\n      pop\n        /* \"#utility.yul\":3432:3550   */\n      pop\n        /* \"#utility.yul\":2905:3557   */\n      swap3\n      pop\n      swap3\n      swap1\n      pop\n      jump\t// out\n        /* \"#utility.yul\":3563:3689   */\n    tag_41:\n        /* \"#utility.yul\":3600:3607   */\n      0x00\n        /* \"#utility.yul\":3640:3682   */\n      0xffffffffffffffffffffffffffffffffffffffff\n        /* \"#utility.yul\":3633:3638   */\n      dup3\n        /* \"#utility.yul\":3629:3683   */\n      and\n        /* \"#utility.yul\":3618:3683   */\n      swap1\n      pop\n        /* \"#utility.yul\":3563:3689   */\n      swap2\n      swap1\n      pop\n      jump\t// out\n        /* \"#utility.yul\":3695:3791   */\n    tag_42:\n        /* \"#utility.yul\":3732:3739   */\n      0x00\n        /* \"#utility.yul\":3761:3785   */\n      tag_105\n        /* \"#utility.yul\":3779:3784   */\n      dup3\n        /* \"#utility.yul\":3761:3785   */\n      tag_41\n      jump\t// in\n    tag_105:\n        /* \"#utility.yul\":3750:3785   */\n      swap1\n      pop\n        /* \"#utility.yul\":3695:3791   */\n      swap2\n      swap1\n      pop\n      jump\t// out\n        /* \"#utility.yul\":3797:3915   */\n    tag_43:\n        /* \"#utility.yul\":3884:3908   */\n      tag_107\n        /* \"#utility.yul\":3902:3907   */\n      dup2\n        /* \"#utility.yul\":3884:3908   */\n      tag_42\n      jump\t// in\n    tag_107:\n        /* \"#utility.yul\":3879:3882   */\n      dup3\n        /* \"#utility.yul\":3872:3909   */\n      mstore\n        /* \"#utility.yul\":3797:3915   */\n      pop\n      pop\n      jump\t// out\n        /* \"#utility.yul\":3921:4143   */\n    tag_10:\n        /* \"#utility.yul\":4014:4018   */\n      0x00\n        /* \"#utility.yul\":4052:4054   */\n      0x20\n        /* \"#utility.yul\":4041:4050   */\n      dup3\n        /* \"#utility.yul\":4037:4055   */\n      add\n        /* \"#utility.yul\":4029:4055   */\n      swap1\n      pop\n        /* \"#utility.yul\":4065:4136   */\n      tag_109\n        /* \"#utility.yul\":4133:4134   */\n      0x00\n        /* \"#utility.yul\":4122:4131   */\n      dup4\n        /* \"#utility.yul\":4118:4135   */\n      add\n        /* \"#utility.yul\":4109:4115   */\n      dup5\n        /* \"#utility.yul\":4065:4136   */\n      tag_43\n      jump\t// in\n    tag_109:\n        /* \"#utility.yul\":3921:4143   */\n      swap3\n      swap2\n      pop\n      pop\n      jump\t// out\n        /* \"#utility.yul\":4149:4298   */\n    tag_44:\n        /* \"#utility.yul\":4185:4192   */\n      0x00\n        /* \"#utility.yul\":4225:4291   */\n      0xff00000000000000000000000000000000000000000000000000000000000000\n        /* \"#utility.yul\":4218:4223   */\n      dup3\n        /* \"#utility.yul\":4214:4292   */\n      and\n        /* \"#utility.yul\":4203:4292   */\n      swap1\n      pop\n        /* \"#utility.yul\":4149:4298   */\n      swap2\n      swap1\n      pop\n      jump\t// out\n        /* \"#utility.yul\":4304:4382   */\n    tag_45:\n        /* \"#utility.yul\":4342:4349   */\n      0x00\n        /* \"#utility.yul\":4371:4376   */\n      dup2\n        /* \"#utility.yul\":4360:4376   */\n      swap1\n      pop\n        /* \"#utility.yul\":4304:4382   */\n      swap2\n      swap1\n      pop\n      jump\t// out\n        /* \"#utility.yul\":4388:4541   */\n    tag_46:\n        /* \"#utility.yul\":4491:4534   */\n      tag_113\n        /* \"#utility.yul\":4510:4533   */\n      tag_114\n        /* \"#utility.yul\":4527:4532   */\n      dup3\n        /* \"#utility.yul\":4510:4533   */\n      tag_44\n      jump\t// in\n    tag_114:\n        /* \"#utility.yul\":4491:4534   */\n      tag_45\n      jump\t// in\n    tag_113:\n        /* \"#utility.yul\":4486:4489   */\n      dup3\n        /* \"#utility.yul\":4479:4535   */\n      mstore\n        /* \"#utility.yul\":4388:4541   */\n      pop\n      pop\n      jump\t// out\n        /* \"#utility.yul\":4547:4641   */\n    tag_47:\n        /* \"#utility.yul\":4580:4588   */\n      0x00\n        /* \"#utility.yul\":4628:4633   */\n      dup2\n        /* \"#utility.yul\":4624:4626   */\n      0x60\n        /* \"#utility.yul\":4620:4634   */\n      shl\n        /* \"#utility.yul\":4599:4634   */\n      swap1\n      pop\n        /* \"#utility.yul\":4547:4641   */\n      swap2\n      swap1\n      pop\n      jump\t// out\n        /* \"#utility.yul\":4647:4741   */\n    tag_48:\n        /* \"#utility.yul\":4686:4693   */\n      0x00\n        /* \"#utility.yul\":4715:4735   */\n      tag_117\n        /* \"#utility.yul\":4729:4734   */\n      dup3\n        /* \"#utility.yul\":4715:4735   */\n      tag_47\n      jump\t// in\n    tag_117:\n        /* \"#utility.yul\":4704:4735   */\n      swap1\n      pop\n        /* \"#utility.yul\":4647:4741   */\n      swap2\n      swap1\n      pop\n      jump\t// out\n        /* \"#utility.yul\":4747:4847   */\n    tag_49:\n        /* \"#utility.yul\":4786:4793   */\n      0x00\n        /* \"#utility.yul\":4815:4841   */\n      tag_119\n        /* \"#utility.yul\":4835:4840   */\n      dup3\n        /* \"#utility.yul\":4815:4841   */\n      tag_48\n      jump\t// in\n    tag_119:\n        /* \"#utility.yul\":4804:4841   */\n      swap1\n      pop\n        /* \"#utility.yul\":4747:4847   */\n      swap2\n      swap1\n      pop\n      jump\t// out\n        /* \"#utility.yul\":4853:5010   */\n    tag_50:\n        /* \"#utility.yul\":4958:5003   */\n      tag_121\n        /* \"#utility.yul\":4978:5002   */\n      tag_122\n        /* \"#utility.yul\":4996:5001   */\n      dup3\n        /* \"#utility.yul\":4978:5002   */\n      tag_42\n      jump\t// in\n    tag_122:\n        /* \"#utility.yul\":4958:5003   */\n      tag_49\n      jump\t// in\n    tag_121:\n        /* \"#utility.yul\":4953:4956   */\n      dup3\n        /* \"#utility.yul\":4946:5004   */\n      mstore\n        /* \"#utility.yul\":4853:5010   */\n      pop\n      pop\n      jump\t// out\n        /* \"#utility.yul\":5016:5095   */\n    tag_51:\n        /* \"#utility.yul\":5055:5062   */\n      0x00\n        /* \"#utility.yul\":5084:5089   */\n      dup2\n        /* \"#utility.yul\":5073:5089   */\n      swap1\n      pop\n        /* \"#utility.yul\":5016:5095   */\n      swap2\n      swap1\n      pop\n      jump\t// out\n        /* \"#utility.yul\":5101:5258   */\n    tag_52:\n        /* \"#utility.yul\":5206:5251   */\n      tag_125\n        /* \"#utility.yul\":5226:5250   */\n      tag_126\n        /* \"#utility.yul\":5244:5249   */\n      dup3\n        /* \"#utility.yul\":5226:5250   */\n      tag_38\n      jump\t// in\n    tag_126:\n        /* \"#utility.yul\":5206:5251   */\n      tag_51\n      jump\t// in\n    tag_125:\n        /* \"#utility.yul\":5201:5204   */\n      dup3\n        /* \"#utility.yul\":5194:5252   */\n      mstore\n        /* \"#utility.yul\":5101:5258   */\n      pop\n      pop\n      jump\t// out\n        /* \"#utility.yul\":5264:5341   */\n    tag_53:\n        /* \"#utility.yul\":5301:5308   */\n      0x00\n        /* \"#utility.yul\":5330:5335   */\n      dup2\n        /* \"#utility.yul\":5319:5335   */\n      swap1\n      pop\n        /* \"#utility.yul\":5264:5341   */\n      swap2\n      swap1\n      pop\n      jump\t// out\n        /* \"#utility.yul\":5347:5426   */\n    tag_54:\n        /* \"#utility.yul\":5386:5393   */\n      0x00\n        /* \"#utility.yul\":5415:5420   */\n      dup2\n        /* \"#utility.yul\":5404:5420   */\n      swap1\n      pop\n        /* \"#utility.yul\":5347:5426   */\n      swap2\n      swap1\n      pop\n      jump\t// out\n        /* \"#utility.yul\":5432:5589   */\n    tag_55:\n        /* \"#utility.yul\":5537:5582   */\n      tag_130\n        /* \"#utility.yul\":5557:5581   */\n      tag_131\n        /* \"#utility.yul\":5575:5580   */\n      dup3\n        /* \"#utility.yul\":5557:5581   */\n      tag_53\n      jump\t// in\n    tag_131:\n        /* \"#utility.yul\":5537:5582   */\n      tag_54\n      jump\t// in\n    tag_130:\n        /* \"#utility.yul\":5532:5535   */\n      dup3\n        /* \"#utility.yul\":5525:5583   */\n      mstore\n        /* \"#utility.yul\":5432:5589   */\n      pop\n      pop\n      jump\t// out\n        /* \"#utility.yul\":5595:6269   */\n    tag_17:\n        /* \"#utility.yul\":5789:5792   */\n      0x00\n        /* \"#utility.yul\":5804:5877   */\n      tag_133\n        /* \"#utility.yul\":5873:5876   */\n      dup3\n        /* \"#utility.yul\":5864:5870   */\n      dup8\n        /* \"#utility.yul\":5804:5877   */\n      tag_46\n      jump\t// in\n    tag_133:\n        /* \"#utility.yul\":5902:5903   */\n      0x01\n        /* \"#utility.yul\":5897:5900   */\n      dup3\n        /* \"#utility.yul\":5893:5904   */\n      add\n        /* \"#utility.yul\":5886:5904   */\n      swap2\n      pop\n        /* \"#utility.yul\":5914:5989   */\n      tag_134\n        /* \"#utility.yul\":5985:5988   */\n      dup3\n        /* \"#utility.yul\":5976:5982   */\n      dup7\n        /* \"#utility.yul\":5914:5989   */\n      tag_50\n      jump\t// in\n    tag_134:\n        /* \"#utility.yul\":6014:6016   */\n      0x14\n        /* \"#utility.yul\":6009:6012   */\n      dup3\n        /* \"#utility.yul\":6005:6017   */\n      add\n        /* \"#utility.yul\":5998:6017   */\n      swap2\n      pop\n        /* \"#utility.yul\":6027:6102   */\n      tag_135\n        /* \"#utility.yul\":6098:6101   */\n      dup3\n        /* \"#utility.yul\":6089:6095   */\n      dup6\n        /* \"#utility.yul\":6027:6102   */\n      tag_52\n      jump\t// in\n    tag_135:\n        /* \"#utility.yul\":6127:6129   */\n      0x20\n        /* \"#utility.yul\":6122:6125   */\n      dup3\n        /* \"#utility.yul\":6118:6130   */\n      add\n        /* \"#utility.yul\":6111:6130   */\n      swap2\n      pop\n        /* \"#utility.yul\":6140:6215   */\n      tag_136\n        /* \"#utility.yul\":6211:6214   */\n      dup3\n        /* \"#utility.yul\":6202:6208   */\n      dup5\n        /* \"#utility.yul\":6140:6215   */\n      tag_55\n      jump\t// in\n    tag_136:\n        /* \"#utility.yul\":6240:6242   */\n      0x20\n        /* \"#utility.yul\":6235:6238   */\n      dup3\n        /* \"#utility.yul\":6231:6243   */\n      add\n        /* \"#utility.yul\":6224:6243   */\n      swap2\n      pop\n        /* \"#utility.yul\":6260:6263   */\n      dup2\n        /* \"#utility.yul\":6253:6263   */\n      swap1\n      pop\n        /* \"#utility.yul\":5595:6269   */\n      swap6\n      swap5\n      pop\n      pop\n      pop\n      pop\n      pop\n      jump\t// out\n        /* \"#utility.yul\":6275:6444   */\n    tag_56:\n        /* \"#utility.yul\":6359:6370   */\n      0x00\n        /* \"#utility.yul\":6393:6399   */\n      dup3\n        /* \"#utility.yul\":6388:6391   */\n      dup3\n        /* \"#utility.yul\":6381:6400   */\n      mstore\n        /* \"#utility.yul\":6433:6437   */\n      0x20\n        /* \"#utility.yul\":6428:6431   */\n      dup3\n        /* \"#utility.yul\":6424:6438   */\n      add\n        /* \"#utility.yul\":6409:6438   */\n      swap1\n      pop\n        /* \"#utility.yul\":6275:6444   */\n      swap3\n      swap2\n      pop\n      pop\n      jump\t// out\n        /* \"#utility.yul\":6450:6614   */\n    tag_57:\n        /* \"#utility.yul\":6590:6606   */\n      0x42797465636f64652076617a696f000000000000000000000000000000000000\n        /* \"#utility.yul\":6586:6587   */\n      0x00\n        /* \"#utility.yul\":6578:6584   */\n      dup3\n        /* \"#utility.yul\":6574:6588   */\n      add\n        /* \"#utility.yul\":6567:6607   */\n      mstore\n        /* \"#utility.yul\":6450:6614   */\n      pop\n      jump\t// out\n        /* \"#utility.yul\":6620:6986   */\n    tag_58:\n        /* \"#utility.yul\":6762:6765   */\n      0x00\n        /* \"#utility.yul\":6783:6850   */\n      tag_140\n        /* \"#utility.yul\":6847:6849   */\n      0x0e\n        /* \"#utility.yul\":6842:6845   */\n      dup4\n        /* \"#utility.yul\":6783:6850   */\n      tag_56\n      jump\t// in\n    tag_140:\n        /* \"#utility.yul\":6776:6850   */\n      swap2\n      pop\n        /* \"#utility.yul\":6859:6952   */\n      tag_141\n        /* \"#utility.yul\":6948:6951   */\n      dup3\n        /* \"#utility.yul\":6859:6952   */\n      tag_57\n      jump\t// in\n    tag_141:\n        /* \"#utility.yul\":6977:6979   */\n      0x20\n        /* \"#utility.yul\":6972:6975   */\n      dup3\n        /* \"#utility.yul\":6968:6980   */\n      add\n        /* \"#utility.yul\":6961:6980   */\n      swap1\n      pop\n        /* \"#utility.yul\":6620:6986   */\n      swap2\n      swap1\n      pop\n      jump\t// out\n        /* \"#utility.yul\":6992:7411   */\n    tag_21:\n        /* \"#utility.yul\":7158:7162   */\n      0x00\n        /* \"#utility.yul\":7196:7198   */\n      0x20\n        /* \"#utility.yul\":7185:7194   */\n      dup3\n        /* \"#utility.yul\":7181:7199   */\n      add\n        /* \"#utility.yul\":7173:7199   */\n      swap1\n      pop\n        /* \"#utility.yul\":7245:7254   */\n      dup2\n        /* \"#utility.yul\":7239:7243   */\n      dup2\n        /* \"#utility.yul\":7235:7255   */\n      sub\n        /* \"#utility.yul\":7231:7232   */\n      0x00\n        /* \"#utility.yul\":7220:7229   */\n      dup4\n        /* \"#utility.yul\":7216:7233   */\n      add\n        /* \"#utility.yul\":7209:7256   */\n      mstore\n        /* \"#utility.yul\":7273:7404   */\n      tag_143\n        /* \"#utility.yul\":7399:7403   */\n      dup2\n        /* \"#utility.yul\":7273:7404   */\n      tag_58\n      jump\t// in\n    tag_143:\n        /* \"#utility.yul\":7265:7404   */\n      swap1\n      pop\n        /* \"#utility.yul\":6992:7411   */\n      swap2\n      swap1\n      pop\n      jump\t// out\n        /* \"#utility.yul\":7417:7535   */\n    tag_59:\n        /* \"#utility.yul\":7504:7528   */\n      tag_145\n        /* \"#utility.yul\":7522:7527   */\n      dup2\n        /* \"#utility.yul\":7504:7528   */\n      tag_38\n      jump\t// in\n    tag_145:\n        /* \"#utility.yul\":7499:7502   */\n      dup3\n        /* \"#utility.yul\":7492:7529   */\n      mstore\n        /* \"#utility.yul\":7417:7535   */\n      pop\n      pop\n      jump\t// out\n        /* \"#utility.yul\":7541:7873   */\n    tag_24:\n        /* \"#utility.yul\":7662:7666   */\n      0x00\n        /* \"#utility.yul\":7700:7702   */\n      0x40\n        /* \"#utility.yul\":7689:7698   */\n      dup3\n        /* \"#utility.yul\":7685:7703   */\n      add\n        /* \"#utility.yul\":7677:7703   */\n      swap1\n      pop\n        /* \"#utility.yul\":7713:7784   */\n      tag_147\n        /* \"#utility.yul\":7781:7782   */\n      0x00\n        /* \"#utility.yul\":7770:7779   */\n      dup4\n        /* \"#utility.yul\":7766:7783   */\n      add\n        /* \"#utility.yul\":7757:7763   */\n      dup6\n        /* \"#utility.yul\":7713:7784   */\n      tag_43\n      jump\t// in\n    tag_147:\n        /* \"#utility.yul\":7794:7866   */\n      tag_148\n        /* \"#utility.yul\":7862:7864   */\n      0x20\n        /* \"#utility.yul\":7851:7860   */\n      dup4\n        /* \"#utility.yul\":7847:7865   */\n      add\n        /* \"#utility.yul\":7838:7844   */\n      dup5\n        /* \"#utility.yul\":7794:7866   */\n      tag_59\n      jump\t// in\n    tag_148:\n        /* \"#utility.yul\":7541:7873   */\n      swap4\n      swap3\n      pop\n      pop\n      pop\n      jump\t// out\n\n    auxdata: 0xa26469706673582212208fa9f909c2be276676b704c5d25d64327b4af70eefe585b80bc585c863f7542664736f6c634300081e0033\n}\n",
				"bytecode": {
					"linkReferences": {},
					"object": "6080604052348015600e575f5ffd5b506105b48061001c5f395ff3fe608060405234801561000f575f5ffd5b5060043610610034575f3560e01c806394ca2cb5146100385780639c4ae2d014610068575b5f5ffd5b610052600480360381019061004d91906102f8565b610098565b60405161005f9190610391565b60405180910390f35b610082600480360381019061007d91906102f8565b6100e0565b60405161008f9190610391565b60405180910390f35b5f5f60ff60f81b308486805190602001206040516020016100bc9493929190610483565b604051602081830303815290604052805190602001209050805f1c91505092915050565b5f5f835111610124576040517f08c379a000000000000000000000000000000000000000000000000000000000815260040161011b9061052a565b60405180910390fd5b818351602085015ff59050803b610139575f5ffd5b7fb03c53b28e78a88e31607a27e1fa48234dce28d5d9d9ec7b295aeb02e674a1e1818360405161016a929190610557565b60405180910390a192915050565b5f604051905090565b5f5ffd5b5f5ffd5b5f5ffd5b5f5ffd5b5f601f19601f8301169050919050565b7f4e487b71000000000000000000000000000000000000000000000000000000005f52604160045260245ffd5b6101d782610191565b810181811067ffffffffffffffff821117156101f6576101f56101a1565b5b80604052505050565b5f610208610178565b905061021482826101ce565b919050565b5f67ffffffffffffffff821115610233576102326101a1565b5b61023c82610191565b9050602081019050919050565b828183375f83830152505050565b5f61026961026484610219565b6101ff565b9050828152602081018484840111156102855761028461018d565b5b610290848285610249565b509392505050565b5f82601f8301126102ac576102ab610189565b5b81356102bc848260208601610257565b91505092915050565b5f819050919050565b6102d7816102c5565b81146102e1575f5ffd5b50565b5f813590506102f2816102ce565b92915050565b5f5f6040838503121561030e5761030d610181565b5b5f83013567ffffffffffffffff81111561032b5761032a610185565b5b61033785828601610298565b9250506020610348858286016102e4565b9150509250929050565b5f73ffffffffffffffffffffffffffffffffffffffff82169050919050565b5f61037b82610352565b9050919050565b61038b81610371565b82525050565b5f6020820190506103a45f830184610382565b92915050565b5f7fff0000000000000000000000000000000000000000000000000000000000000082169050919050565b5f819050919050565b6103ef6103ea826103aa565b6103d5565b82525050565b5f8160601b9050919050565b5f61040b826103f5565b9050919050565b5f61041c82610401565b9050919050565b61043461042f82610371565b610412565b82525050565b5f819050919050565b61045461044f826102c5565b61043a565b82525050565b5f819050919050565b5f819050919050565b61047d6104788261045a565b610463565b82525050565b5f61048e82876103de565b60018201915061049e8286610423565b6014820191506104ae8285610443565b6020820191506104be828461046c565b60208201915081905095945050505050565b5f82825260208201905092915050565b7f42797465636f64652076617a696f0000000000000000000000000000000000005f82015250565b5f610514600e836104d0565b915061051f826104e0565b602082019050919050565b5f6020820190508181035f83015261054181610508565b9050919050565b610551816102c5565b82525050565b5f60408201905061056a5f830185610382565b6105776020830184610548565b939250505056fea26469706673582212208fa9f909c2be276676b704c5d25d64327b4af70eefe585b80bc585c863f7542664736f6c634300081e0033",
					"opcodes": "PUSH1 0x80 PUSH1 0x40 MSTORE CALLVALUE DUP1 ISZERO PUSH1 0xE JUMPI PUSH0 PUSH0 REVERT JUMPDEST POP PUSH2 0x5B4 DUP1 PUSH2 0x1C PUSH0 CODECOPY PUSH0 RETURN INVALID PUSH1 0x80 PUSH1 0x40 MSTORE CALLVALUE DUP1 ISZERO PUSH2 0xF JUMPI PUSH0 PUSH0 REVERT JUMPDEST POP PUSH1 0x4 CALLDATASIZE LT PUSH2 0x34 JUMPI PUSH0 CALLDATALOAD PUSH1 0xE0 SHR DUP1 PUSH4 0x94CA2CB5 EQ PUSH2 0x38 JUMPI DUP1 PUSH4 0x9C4AE2D0 EQ PUSH2 0x68 JUMPI JUMPDEST PUSH0 PUSH0 REVERT JUMPDEST PUSH2 0x52 PUSH1 0x4 DUP1 CALLDATASIZE SUB DUP2 ADD SWAP1 PUSH2 0x4D SWAP2 SWAP1 PUSH2 0x2F8 JUMP JUMPDEST PUSH2 0x98 JUMP JUMPDEST PUSH1 0x40 MLOAD PUSH2 0x5F SWAP2 SWAP1 PUSH2 0x391 JUMP JUMPDEST PUSH1 0x40 MLOAD DUP1 SWAP2 SUB SWAP1 RETURN JUMPDEST PUSH2 0x82 PUSH1 0x4 DUP1 CALLDATASIZE SUB DUP2 ADD SWAP1 PUSH2 0x7D SWAP2 SWAP1 PUSH2 0x2F8 JUMP JUMPDEST PUSH2 0xE0 JUMP JUMPDEST PUSH1 0x40 MLOAD PUSH2 0x8F SWAP2 SWAP1 PUSH2 0x391 JUMP JUMPDEST PUSH1 0x40 MLOAD DUP1 SWAP2 SUB SWAP1 RETURN JUMPDEST PUSH0 PUSH0 PUSH1 0xFF PUSH1 0xF8 SHL ADDRESS DUP5 DUP7 DUP1 MLOAD SWAP1 PUSH1 0x20 ADD KECCAK256 PUSH1 0x40 MLOAD PUSH1 0x20 ADD PUSH2 0xBC SWAP5 SWAP4 SWAP3 SWAP2 SWAP1 PUSH2 0x483 JUMP JUMPDEST PUSH1 0x40 MLOAD PUSH1 0x20 DUP2 DUP4 SUB SUB DUP2 MSTORE SWAP1 PUSH1 0x40 MSTORE DUP1 MLOAD SWAP1 PUSH1 0x20 ADD KECCAK256 SWAP1 POP DUP1 PUSH0 SHR SWAP2 POP POP SWAP3 SWAP2 POP POP JUMP JUMPDEST PUSH0 PUSH0 DUP4 MLOAD GT PUSH2 0x124 JUMPI PUSH1 0x40 MLOAD PUSH32 0x8C379A000000000000000000000000000000000000000000000000000000000 DUP2 MSTORE PUSH1 0x4 ADD PUSH2 0x11B SWAP1 PUSH2 0x52A JUMP JUMPDEST PUSH1 0x40 MLOAD DUP1 SWAP2 SUB SWAP1 REVERT JUMPDEST DUP2 DUP4 MLOAD PUSH1 0x20 DUP6 ADD PUSH0 CREATE2 SWAP1 POP DUP1 EXTCODESIZE PUSH2 0x139 JUMPI PUSH0 PUSH0 REVERT JUMPDEST PUSH32 0xB03C53B28E78A88E31607A27E1FA48234DCE28D5D9D9EC7B295AEB02E674A1E1 DUP2 DUP4 PUSH1 0x40 MLOAD PUSH2 0x16A SWAP3 SWAP2 SWAP1 PUSH2 0x557 JUMP JUMPDEST PUSH1 0x40 MLOAD DUP1 SWAP2 SUB SWAP1 LOG1 SWAP3 SWAP2 POP POP JUMP JUMPDEST PUSH0 PUSH1 0x40 MLOAD SWAP1 POP SWAP1 JUMP JUMPDEST PUSH0 PUSH0 REVERT JUMPDEST PUSH0 PUSH0 REVERT JUMPDEST PUSH0 PUSH0 REVERT JUMPDEST PUSH0 PUSH0 REVERT JUMPDEST PUSH0 PUSH1 0x1F NOT PUSH1 0x1F DUP4 ADD AND SWAP1 POP SWAP2 SWAP1 POP JUMP JUMPDEST PUSH32 0x4E487B7100000000000000000000000000000000000000000000000000000000 PUSH0 MSTORE PUSH1 0x41 PUSH1 0x4 MSTORE PUSH1 0x24 PUSH0 REVERT JUMPDEST PUSH2 0x1D7 DUP3 PUSH2 0x191 JUMP JUMPDEST DUP2 ADD DUP2 DUP2 LT PUSH8 0xFFFFFFFFFFFFFFFF DUP3 GT OR ISZERO PUSH2 0x1F6 JUMPI PUSH2 0x1F5 PUSH2 0x1A1 JUMP JUMPDEST JUMPDEST DUP1 PUSH1 0x40 MSTORE POP POP POP JUMP JUMPDEST PUSH0 PUSH2 0x208 PUSH2 0x178 JUMP JUMPDEST SWAP1 POP PUSH2 0x214 DUP3 DUP3 PUSH2 0x1CE JUMP JUMPDEST SWAP2 SWAP1 POP JUMP JUMPDEST PUSH0 PUSH8 0xFFFFFFFFFFFFFFFF DUP3 GT ISZERO PUSH2 0x233 JUMPI PUSH2 0x232 PUSH2 0x1A1 JUMP JUMPDEST JUMPDEST PUSH2 0x23C DUP3 PUSH2 0x191 JUMP JUMPDEST SWAP1 POP PUSH1 0x20 DUP2 ADD SWAP1 POP SWAP2 SWAP1 POP JUMP JUMPDEST DUP3 DUP2 DUP4 CALLDATACOPY PUSH0 DUP4 DUP4 ADD MSTORE POP POP POP JUMP JUMPDEST PUSH0 PUSH2 0x269 PUSH2 0x264 DUP5 PUSH2 0x219 JUMP JUMPDEST PUSH2 0x1FF JUMP JUMPDEST SWAP1 POP DUP3 DUP2 MSTORE PUSH1 0x20 DUP2 ADD DUP5 DUP5 DUP5 ADD GT ISZERO PUSH2 0x285 JUMPI PUSH2 0x284 PUSH2 0x18D JUMP JUMPDEST JUMPDEST PUSH2 0x290 DUP5 DUP3 DUP6 PUSH2 0x249 JUMP JUMPDEST POP SWAP4 SWAP3 POP POP POP JUMP JUMPDEST PUSH0 DUP3 PUSH1 0x1F DUP4 ADD SLT PUSH2 0x2AC JUMPI PUSH2 0x2AB PUSH2 0x189 JUMP JUMPDEST JUMPDEST DUP2 CALLDATALOAD PUSH2 0x2BC DUP5 DUP3 PUSH1 0x20 DUP7 ADD PUSH2 0x257 JUMP JUMPDEST SWAP2 POP POP SWAP3 SWAP2 POP POP JUMP JUMPDEST PUSH0 DUP2 SWAP1 POP SWAP2 SWAP1 POP JUMP JUMPDEST PUSH2 0x2D7 DUP2 PUSH2 0x2C5 JUMP JUMPDEST DUP2 EQ PUSH2 0x2E1 JUMPI PUSH0 PUSH0 REVERT JUMPDEST POP JUMP JUMPDEST PUSH0 DUP2 CALLDATALOAD SWAP1 POP PUSH2 0x2F2 DUP2 PUSH2 0x2CE JUMP JUMPDEST SWAP3 SWAP2 POP POP JUMP JUMPDEST PUSH0 PUSH0 PUSH1 0x40 DUP4 DUP6 SUB SLT ISZERO PUSH2 0x30E JUMPI PUSH2 0x30D PUSH2 0x181 JUMP JUMPDEST JUMPDEST PUSH0 DUP4 ADD CALLDATALOAD PUSH8 0xFFFFFFFFFFFFFFFF DUP2 GT ISZERO PUSH2 0x32B JUMPI PUSH2 0x32A PUSH2 0x185 JUMP JUMPDEST JUMPDEST PUSH2 0x337 DUP6 DUP3 DUP7 ADD PUSH2 0x298 JUMP JUMPDEST SWAP3 POP POP PUSH1 0x20 PUSH2 0x348 DUP6 DUP3 DUP7 ADD PUSH2 0x2E4 JUMP JUMPDEST SWAP2 POP POP SWAP3 POP SWAP3 SWAP1 POP JUMP JUMPDEST PUSH0 PUSH20 0xFFFFFFFFFFFFFFFFFFFFFFFFFFFFFFFFFFFFFFFF DUP3 AND SWAP1 POP SWAP2 SWAP1 POP JUMP JUMPDEST PUSH0 PUSH2 0x37B DUP3 PUSH2 0x352 JUMP JUMPDEST SWAP1 POP SWAP2 SWAP1 POP JUMP JUMPDEST PUSH2 0x38B DUP2 PUSH2 0x371 JUMP JUMPDEST DUP3 MSTORE POP POP JUMP JUMPDEST PUSH0 PUSH1 0x20 DUP3 ADD SWAP1 POP PUSH2 0x3A4 PUSH0 DUP4 ADD DUP5 PUSH2 0x382 JUMP JUMPDEST SWAP3 SWAP2 POP POP JUMP JUMPDEST PUSH0 PUSH32 0xFF00000000000000000000000000000000000000000000000000000000000000 DUP3 AND SWAP1 POP SWAP2 SWAP1 POP JUMP JUMPDEST PUSH0 DUP2 SWAP1 POP SWAP2 SWAP1 POP JUMP JUMPDEST PUSH2 0x3EF PUSH2 0x3EA DUP3 PUSH2 0x3AA JUMP JUMPDEST PUSH2 0x3D5 JUMP JUMPDEST DUP3 MSTORE POP POP JUMP JUMPDEST PUSH0 DUP2 PUSH1 0x60 SHL SWAP1 POP SWAP2 SWAP1 POP JUMP JUMPDEST PUSH0 PUSH2 0x40B DUP3 PUSH2 0x3F5 JUMP JUMPDEST SWAP1 POP SWAP2 SWAP1 POP JUMP JUMPDEST PUSH0 PUSH2 0x41C DUP3 PUSH2 0x401 JUMP JUMPDEST SWAP1 POP SWAP2 SWAP1 POP JUMP JUMPDEST PUSH2 0x434 PUSH2 0x42F DUP3 PUSH2 0x371 JUMP JUMPDEST PUSH2 0x412 JUMP JUMPDEST DUP3 MSTORE POP POP JUMP JUMPDEST PUSH0 DUP2 SWAP1 POP SWAP2 SWAP1 POP JUMP JUMPDEST PUSH2 0x454 PUSH2 0x44F DUP3 PUSH2 0x2C5 JUMP JUMPDEST PUSH2 0x43A JUMP JUMPDEST DUP3 MSTORE POP POP JUMP JUMPDEST PUSH0 DUP2 SWAP1 POP SWAP2 SWAP1 POP JUMP JUMPDEST PUSH0 DUP2 SWAP1 POP SWAP2 SWAP1 POP JUMP JUMPDEST PUSH2 0x47D PUSH2 0x478 DUP3 PUSH2 0x45A JUMP JUMPDEST PUSH2 0x463 JUMP JUMPDEST DUP3 MSTORE POP POP JUMP JUMPDEST PUSH0 PUSH2 0x48E DUP3 DUP8 PUSH2 0x3DE JUMP JUMPDEST PUSH1 0x1 DUP3 ADD SWAP2 POP PUSH2 0x49E DUP3 DUP7 PUSH2 0x423 JUMP JUMPDEST PUSH1 0x14 DUP3 ADD SWAP2 POP PUSH2 0x4AE DUP3 DUP6 PUSH2 0x443 JUMP JUMPDEST PUSH1 0x20 DUP3 ADD SWAP2 POP PUSH2 0x4BE DUP3 DUP5 PUSH2 0x46C JUMP JUMPDEST PUSH1 0x20 DUP3 ADD SWAP2 POP DUP2 SWAP1 POP SWAP6 SWAP5 POP POP POP POP POP JUMP JUMPDEST PUSH0 DUP3 DUP3 MSTORE PUSH1 0x20 DUP3 ADD SWAP1 POP SWAP3 SWAP2 POP POP JUMP JUMPDEST PUSH32 0x42797465636F64652076617A696F000000000000000000000000000000000000 PUSH0 DUP3 ADD MSTORE POP JUMP JUMPDEST PUSH0 PUSH2 0x514 PUSH1 0xE DUP4 PUSH2 0x4D0 JUMP JUMPDEST SWAP2 POP PUSH2 0x51F DUP3 PUSH2 0x4E0 JUMP JUMPDEST PUSH1 0x20 DUP3 ADD SWAP1 POP SWAP2 SWAP1 POP JUMP JUMPDEST PUSH0 PUSH1 0x20 DUP3 ADD SWAP1 POP DUP2 DUP2 SUB PUSH0 DUP4 ADD MSTORE PUSH2 0x541 DUP2 PUSH2 0x508 JUMP JUMPDEST SWAP1 POP SWAP2 SWAP1 POP JUMP JUMPDEST PUSH2 0x551 DUP2 PUSH2 0x2C5 JUMP JUMPDEST DUP3 MSTORE POP POP JUMP JUMPDEST PUSH0 PUSH1 0x40 DUP3 ADD SWAP1 POP PUSH2 0x56A PUSH0 DUP4 ADD DUP6 PUSH2 0x382 JUMP JUMPDEST PUSH2 0x577 PUSH1 0x20 DUP4 ADD DUP5 PUSH2 0x548 JUMP JUMPDEST SWAP4 SWAP3 POP POP POP JUMP INVALID LOG2 PUSH5 0x6970667358 0x22 SLT KECCAK256 DUP16 0xA9 EXTDELEGATECALL MULMOD 0xC2 0xBE 0x27 PUSH7 0x76B704C5D25D64 ORIGIN PUSH28 0x4AF70EEFE585B80BC585C863F7542664736F6C634300081E00330000 "
				},
				"gasEstimates": {
					"creation": {
						"codeDepositCost": "292000",
						"executionCost": "329",
						"totalCost": "292329"
					},
					"external": {
						"deploy(bytes,uint256)": "infinite",
						"getAddress(bytes,uint256)": "infinite"
					}
				},
				"methodIdentifiers": {
					"deploy(bytes,uint256)": "9c4ae2d0",
					"getAddress(bytes,uint256)": "94ca2cb5"
				}
			},
			"storageLayout": {
				"storage": [],
				"types": null
			},
			"userdoc": {
				"kind": "user",
				"methods": {
					"deploy(bytes,uint256)": {
						"notice": "Faz o deploy do contrato usando bytecode e salt (uint256)"
					},
					"getAddress(bytes,uint256)": {
						"notice": "Retorna o endereço do contrato que será criado com o bytecode e salt fornecidos"
					}
				},
				"version": 1
			}
		}
	}
}