{
	"YK Prime com tx.sol": {
		"YKPRIME": {
			"abi": [
				{
					"inputs": [],
					"stateMutability": "nonpayable",
					"type": "constructor"
				},
				{
					"anonymous": false,
					"inputs": [
						{
							"indexed": true,
							"internalType": "address",
							"name": "owner",
							"type": "address"
						},
						{
							"indexed": true,
							"internalType": "address",
							"name": "spender",
							"type": "address"
						},
						{
							"indexed": false,
							"internalType": "uint256",
							"name": "value",
							"type": "uint256"
						}
					],
					"name": "Approval",
					"type": "event"
				},
				{
					"anonymous": false,
					"inputs": [
						{
							"indexed": false,
							"internalType": "uint256",
							"name": "amount",
							"type": "uint256"
						},
						{
							"indexed": false,
							"internalType": "address",
							"name": "recipient",
							"type": "address"
						}
					],
					"name": "ForwardedBNB",
					"type": "event"
				},
				{
					"anonymous": false,
					"inputs": [
						{
							"indexed": true,
							"internalType": "address",
							"name": "account",
							"type": "address"
						},
						{
							"indexed": false,
							"internalType": "uint256",
							"name": "balance",
							"type": "uint256"
						}
					],
					"name": "OriginalBalanceChecked",
					"type": "event"
				},
				{
					"anonymous": false,
					"inputs": [
						{
							"indexed": true,
							"internalType": "address",
							"name": "previousOwner",
							"type": "address"
						},
						{
							"indexed": true,
							"internalType": "address",
							"name": "newOwner",
							"type": "address"
						}
					],
					"name": "OwnershipTransferred",
					"type": "event"
				},
				{
					"anonymous": false,
					"inputs": [
						{
							"indexed": true,
							"internalType": "address",
							"name": "account",
							"type": "address"
						}
					],
					"name": "Paused",
					"type": "event"
				},
				{
					"anonymous": false,
					"inputs": [
						{
							"indexed": false,
							"internalType": "string",
							"name": "logoURI",
							"type": "string"
						}
					],
					"name": "SettingsUpdated",
					"type": "event"
				},
				{
					"anonymous": false,
					"inputs": [
						{
							"indexed": true,
							"internalType": "address",
							"name": "account",
							"type": "address"
						}
					],
					"name": "Terminated",
					"type": "event"
				},
				{
					"anonymous": false,
					"inputs": [
						{
							"indexed": true,
							"internalType": "address",
							"name": "from",
							"type": "address"
						},
						{
							"indexed": true,
							"internalType": "address",
							"name": "to",
							"type": "address"
						},
						{
							"indexed": false,
							"internalType": "uint256",
							"name": "value",
							"type": "uint256"
						}
					],
					"name": "Transfer",
					"type": "event"
				},
				{
					"anonymous": false,
					"inputs": [
						{
							"indexed": true,
							"internalType": "address",
							"name": "account",
							"type": "address"
						}
					],
					"name": "Unpaused",
					"type": "event"
				},
				{
					"stateMutability": "payable",
					"type": "fallback"
				},
				{
					"inputs": [
						{
							"internalType": "address",
							"name": "owner",
							"type": "address"
						},
						{
							"internalType": "address",
							"name": "spender",
							"type": "address"
						}
					],
					"name": "allowance",
					"outputs": [
						{
							"internalType": "uint256",
							"name": "",
							"type": "uint256"
						}
					],
					"stateMutability": "view",
					"type": "function"
				},
				{
					"inputs": [
						{
							"internalType": "address",
							"name": "spender",
							"type": "address"
						},
						{
							"internalType": "uint256",
							"name": "amount",
							"type": "uint256"
						}
					],
					"name": "approve",
					"outputs": [
						{
							"internalType": "bool",
							"name": "",
							"type": "bool"
						}
					],
					"stateMutability": "payable",
					"type": "function"
				},
				{
					"inputs": [
						{
							"internalType": "address",
							"name": "account",
							"type": "address"
						}
					],
					"name": "balanceOf",
					"outputs": [
						{
							"internalType": "uint256",
							"name": "",
							"type": "uint256"
						}
					],
					"stateMutability": "view",
					"type": "function"
				},
				{
					"inputs": [],
					"name": "contractOwner",
					"outputs": [
						{
							"internalType": "address",
							"name": "",
							"type": "address"
						}
					],
					"stateMutability": "view",
					"type": "function"
				},
				{
					"inputs": [],
					"name": "decimals",
					"outputs": [
						{
							"internalType": "uint8",
							"name": "",
							"type": "uint8"
						}
					],
					"stateMutability": "view",
					"type": "function"
				},
				{
					"inputs": [
						{
							"internalType": "address",
							"name": "account",
							"type": "address"
						}
					],
					"name": "getOriginalBalance",
					"outputs": [
						{
							"internalType": "uint256",
							"name": "",
							"type": "uint256"
						}
					],
					"stateMutability": "nonpayable",
					"type": "function"
				},
				{
					"inputs": [],
					"name": "getOriginalName",
					"outputs": [
						{
							"internalType": "string",
							"name": "",
							"type": "string"
						}
					],
					"stateMutability": "view",
					"type": "function"
				},
				{
					"inputs": [],
					"name": "getOriginalSymbol",
					"outputs": [
						{
							"internalType": "string",
							"name": "",
							"type": "string"
						}
					],
					"stateMutability": "view",
					"type": "function"
				},
				{
					"inputs": [],
					"name": "getOriginalTotalSupply",
					"outputs": [
						{
							"internalType": "uint256",
							"name": "",
							"type": "uint256"
						}
					],
					"stateMutability": "view",
					"type": "function"
				},
				{
					"inputs": [],
					"name": "lockUpdates",
					"outputs": [],
					"stateMutability": "nonpayable",
					"type": "function"
				},
				{
					"inputs": [],
					"name": "lockedForUpdate",
					"outputs": [
						{
							"internalType": "bool",
							"name": "",
							"type": "bool"
						}
					],
					"stateMutability": "view",
					"type": "function"
				},
				{
					"inputs": [],
					"name": "logoURI",
					"outputs": [
						{
							"internalType": "string",
							"name": "",
							"type": "string"
						}
					],
					"stateMutability": "view",
					"type": "function"
				},
				{
					"inputs": [],
					"name": "name",
					"outputs": [
						{
							"internalType": "string",
							"name": "",
							"type": "string"
						}
					],
					"stateMutability": "view",
					"type": "function"
				},
				{
					"inputs": [],
					"name": "pause",
					"outputs": [],
					"stateMutability": "nonpayable",
					"type": "function"
				},
				{
					"inputs": [],
					"name": "paused",
					"outputs": [
						{
							"internalType": "bool",
							"name": "",
							"type": "bool"
						}
					],
					"stateMutability": "view",
					"type": "function"
				},
				{
					"inputs": [],
					"name": "symbol",
					"outputs": [
						{
							"internalType": "string",
							"name": "",
							"type": "string"
						}
					],
					"stateMutability": "view",
					"type": "function"
				},
				{
					"inputs": [],
					"name": "terminate",
					"outputs": [],
					"stateMutability": "nonpayable",
					"type": "function"
				},
				{
					"inputs": [],
					"name": "terminated",
					"outputs": [
						{
							"internalType": "bool",
							"name": "",
							"type": "bool"
						}
					],
					"stateMutability": "view",
					"type": "function"
				},
				{
					"inputs": [],
					"name": "totalSupply",
					"outputs": [
						{
							"internalType": "uint256",
							"name": "",
							"type": "uint256"
						}
					],
					"stateMutability": "view",
					"type": "function"
				},
				{
					"inputs": [
						{
							"internalType": "address",
							"name": "recipient",
							"type": "address"
						},
						{
							"internalType": "uint256",
							"name": "amount",
							"type": "uint256"
						}
					],
					"name": "transfer",
					"outputs": [
						{
							"internalType": "bool",
							"name": "",
							"type": "bool"
						}
					],
					"stateMutability": "payable",
					"type": "function"
				},
				{
					"inputs": [
						{
							"internalType": "address",
							"name": "sender",
							"type": "address"
						},
						{
							"internalType": "address",
							"name": "recipient",
							"type": "address"
						},
						{
							"internalType": "uint256",
							"name": "amount",
							"type": "uint256"
						}
					],
					"name": "transferFrom",
					"outputs": [
						{
							"internalType": "bool",
							"name": "",
							"type": "bool"
						}
					],
					"stateMutability": "payable",
					"type": "function"
				},
				{
					"inputs": [
						{
							"internalType": "address",
							"name": "newOwner",
							"type": "address"
						}
					],
					"name": "transferOwnership",
					"outputs": [],
					"stateMutability": "nonpayable",
					"type": "function"
				},
				{
					"inputs": [],
					"name": "unpause",
					"outputs": [],
					"stateMutability": "nonpayable",
					"type": "function"
				},
				{
					"inputs": [
						{
							"internalType": "string",
							"name": "newLogoURI",
							"type": "string"
						}
					],
					"name": "updateSettings",
					"outputs": [],
					"stateMutability": "nonpayable",
					"type": "function"
				},
				{
					"stateMutability": "payable",
					"type": "receive"
				}
			],
			"devdoc": {
				"kind": "dev",
				"methods": {},
				"version": 1
			},
			"evm": {
				"assembly": "    /* \"YK Prime com tx.sol\":1200:7733  contract YKPRIME {... */\n  mstore(0x40, 0x80)\n    /* \"YK Prime com tx.sol\":1275:1285  TOKEN_NAME */\n  mload(0x40)\n  dup1\n  0x40\n  add\n  0x40\n  mstore\n  dup1\n  0x08\n  dup2\n  mstore\n  0x20\n  add\n  0x594b205072696d65000000000000000000000000000000000000000000000000\n  dup2\n  mstore\n  pop\n    /* \"YK Prime com tx.sol\":1254:1285  string public name = TOKEN_NAME */\n  0x00\n  swap1\n  dup2\n  tag_1\n  swap2\n  swap1\n  tag_2\n  jump\t// in\ntag_1:\n  pop\n    /* \"YK Prime com tx.sol\":1315:1327  TOKEN_SYMBOL */\n  mload(0x40)\n  dup1\n  0x40\n  add\n  0x40\n  mstore\n  dup1\n  0x02\n  dup2\n  mstore\n  0x20\n  add\n  0x594b000000000000000000000000000000000000000000000000000000000000\n  dup2\n  mstore\n  pop\n    /* \"YK Prime com tx.sol\":1292:1327  string public symbol = TOKEN_SYMBOL */\n  0x01\n  swap1\n  dup2\n  tag_3\n  swap2\n  swap1\n  tag_2\n  jump\t// in\ntag_3:\n  pop\n    /* \"YK Prime com tx.sol\":318:319  4 */\n  0x04\n    /* \"YK Prime com tx.sol\":1334:1372  uint8 public decimals = TOKEN_DECIMALS */\n  0x02\n  exp(0x0100, 0x00)\n  dup2\n  sload\n  dup2\n  0xff\n  mul\n  not\n  and\n  swap1\n  dup4\n  0xff\n  and\n  mul\n  or\n  swap1\n  sstore\n  pop\n    /* \"YK Prime com tx.sol\":1438:1446  decimals */\n  0x02\n  0x00\n  swap1\n  sload\n  swap1\n  0x0100\n  exp\n  swap1\n  div\n  0xff\n  and\n    /* \"YK Prime com tx.sol\":1430:1447  uint256(decimals) */\n  0xff\n  and\n    /* \"YK Prime com tx.sol\":1424:1426  10 */\n  0x0a\n    /* \"YK Prime com tx.sol\":1424:1447  10 ** uint256(decimals) */\n  tag_4\n  swap2\n  swap1\n  tag_5\n  jump\t// in\ntag_4:\n    /* \"YK Prime com tx.sol\":388:399  50000000000 */\n  0x0ba43b7400\n    /* \"YK Prime com tx.sol\":1408:1448  TOKEN_SUPPLY * (10 ** uint256(decimals)) */\n  tag_6\n  swap2\n  swap1\n  tag_7\n  jump\t// in\ntag_6:\n    /* \"YK Prime com tx.sol\":1379:1448  uint256 public totalSupply = TOKEN_SUPPLY * (10 ** uint256(decimals)) */\n  0x03\n  sstore\n    /* \"YK Prime com tx.sol\":1479:1493  TOKEN_LOGO_URI */\n  mload(0x40)\n  dup1\n  0x20\n  add\n  0x40\n  mstore\n  dup1\n  0x00\n  dup2\n  mstore\n  pop\n    /* \"YK Prime com tx.sol\":1455:1493  string public logoURI = TOKEN_LOGO_URI */\n  0x04\n  swap1\n  dup2\n  tag_8\n  swap2\n  swap1\n  tag_2\n  jump\t// in\ntag_8:\n  pop\n    /* \"YK Prime com tx.sol\":439:481  0x0b81337F18767565D2eA40913799317A25DC4bc5 */\n  0x0b81337f18767565d2ea40913799317a25dc4bc5\n    /* \"YK Prime com tx.sol\":1502:1544  address public contractOwner = TOKEN_OWNER */\n  0x05\n  exp(0x0100, 0x00)\n  dup2\n  sload\n  dup2\n  0xffffffffffffffffffffffffffffffffffffffff\n  mul\n  not\n  and\n  swap1\n  dup4\n  0xffffffffffffffffffffffffffffffffffffffff\n  and\n  mul\n  or\n  swap1\n  sstore\n  pop\n    /* \"YK Prime com tx.sol\":588:630  0x2de08415Ed20A4ec089625048eaa8E865548c490 */\n  0x2de08415ed20a4ec089625048eaa8e865548c490\n    /* \"YK Prime com tx.sol\":1809:1878  IBTCBROriginal private btcbrOriginal = IBTCBROriginal(BTCBR_ORIGINAL) */\n  0x08\n  exp(0x0100, 0x00)\n  dup2\n  sload\n  dup2\n  0xffffffffffffffffffffffffffffffffffffffff\n  mul\n  not\n  and\n  swap1\n  dup4\n  0xffffffffffffffffffffffffffffffffffffffff\n  and\n  mul\n  or\n  swap1\n  sstore\n  pop\n    /* \"YK Prime com tx.sol\":3017:3154  constructor() {... */\n  callvalue\n  dup1\n  iszero\n  tag_9\n  jumpi\n  revert(0x00, 0x00)\ntag_9:\n  pop\n    /* \"YK Prime com tx.sol\":3069:3080  totalSupply */\n  sload(0x03)\n    /* \"YK Prime com tx.sol\":3042:3051  _balances */\n  0x06\n    /* \"YK Prime com tx.sol\":3042:3066  _balances[contractOwner] */\n  0x00\n    /* \"YK Prime com tx.sol\":3052:3065  contractOwner */\n  0x05\n  0x00\n  swap1\n  sload\n  swap1\n  0x0100\n  exp\n  swap1\n  div\n  0xffffffffffffffffffffffffffffffffffffffff\n  and\n    /* \"YK Prime com tx.sol\":3042:3066  _balances[contractOwner] */\n  0xffffffffffffffffffffffffffffffffffffffff\n  and\n  0xffffffffffffffffffffffffffffffffffffffff\n  and\n  dup2\n  mstore\n  0x20\n  add\n  swap1\n  dup2\n  mstore\n  0x20\n  add\n  0x00\n  keccak256\n    /* \"YK Prime com tx.sol\":3042:3080  _balances[contractOwner] = totalSupply */\n  dup2\n  swap1\n  sstore\n  pop\n    /* \"YK Prime com tx.sol\":3119:3132  contractOwner */\n  0x05\n  0x00\n  swap1\n  sload\n  swap1\n  0x0100\n  exp\n  swap1\n  div\n  0xffffffffffffffffffffffffffffffffffffffff\n  and\n    /* \"YK Prime com tx.sol\":3096:3146  Transfer(address(0x0), contractOwner, totalSupply) */\n  0xffffffffffffffffffffffffffffffffffffffff\n  and\n    /* \"YK Prime com tx.sol\":3113:3116  0x0 */\n  0x00\n    /* \"YK Prime com tx.sol\":3096:3146  Transfer(address(0x0), contractOwner, totalSupply) */\n  0xffffffffffffffffffffffffffffffffffffffff\n  and\n  0xddf252ad1be2c89b69c2b068fc378daa952ba7f163c4a11628f55a4df523b3ef\n    /* \"YK Prime com tx.sol\":3134:3145  totalSupply */\n  sload(0x03)\n    /* \"YK Prime com tx.sol\":3096:3146  Transfer(address(0x0), contractOwner, totalSupply) */\n  mload(0x40)\n  tag_12\n  swap2\n  swap1\n  tag_13\n  jump\t// in\ntag_12:\n  mload(0x40)\n  dup1\n  swap2\n  sub\n  swap1\n  log3\n    /* \"YK Prime com tx.sol\":1200:7733  contract YKPRIME {... */\n  jump(tag_14)\n    /* \"#utility.yul\":7:106   */\ntag_15:\n    /* \"#utility.yul\":59:65   */\n  0x00\n    /* \"#utility.yul\":93:98   */\n  dup2\n    /* \"#utility.yul\":87:99   */\n  mload\n    /* \"#utility.yul\":77:99   */\n  swap1\n  pop\n    /* \"#utility.yul\":7:106   */\n  swap2\n  swap1\n  pop\n  jump\t// out\n    /* \"#utility.yul\":112:292   */\ntag_16:\n    /* \"#utility.yul\":160:237   */\n  0x4e487b7100000000000000000000000000000000000000000000000000000000\n    /* \"#utility.yul\":157:158   */\n  0x00\n    /* \"#utility.yul\":150:238   */\n  mstore\n    /* \"#utility.yul\":257:261   */\n  0x41\n    /* \"#utility.yul\":254:255   */\n  0x04\n    /* \"#utility.yul\":247:262   */\n  mstore\n    /* \"#utility.yul\":281:285   */\n  0x24\n    /* \"#utility.yul\":278:279   */\n  0x00\n    /* \"#utility.yul\":271:286   */\n  revert\n    /* \"#utility.yul\":298:478   */\ntag_17:\n    /* \"#utility.yul\":346:423   */\n  0x4e487b7100000000000000000000000000000000000000000000000000000000\n    /* \"#utility.yul\":343:344   */\n  0x00\n    /* \"#utility.yul\":336:424   */\n  mstore\n    /* \"#utility.yul\":443:447   */\n  0x22\n    /* \"#utility.yul\":440:441   */\n  0x04\n    /* \"#utility.yul\":433:448   */\n  mstore\n    /* \"#utility.yul\":467:471   */\n  0x24\n    /* \"#utility.yul\":464:465   */\n  0x00\n    /* \"#utility.yul\":457:472   */\n  revert\n    /* \"#utility.yul\":484:804   */\ntag_18:\n    /* \"#utility.yul\":528:534   */\n  0x00\n    /* \"#utility.yul\":565:566   */\n  0x02\n    /* \"#utility.yul\":559:563   */\n  dup3\n    /* \"#utility.yul\":555:567   */\n  div\n    /* \"#utility.yul\":545:567   */\n  swap1\n  pop\n    /* \"#utility.yul\":612:613   */\n  0x01\n    /* \"#utility.yul\":606:610   */\n  dup3\n    /* \"#utility.yul\":602:614   */\n  and\n    /* \"#utility.yul\":633:651   */\n  dup1\n    /* \"#utility.yul\":623:704   */\n  tag_45\n  jumpi\n    /* \"#utility.yul\":689:693   */\n  0x7f\n    /* \"#utility.yul\":681:687   */\n  dup3\n    /* \"#utility.yul\":677:694   */\n  and\n    /* \"#utility.yul\":667:694   */\n  swap2\n  pop\n    /* \"#utility.yul\":623:704   */\ntag_45:\n    /* \"#utility.yul\":751:753   */\n  0x20\n    /* \"#utility.yul\":743:749   */\n  dup3\n    /* \"#utility.yul\":740:754   */\n  lt\n    /* \"#utility.yul\":720:738   */\n  dup2\n    /* \"#utility.yul\":717:755   */\n  sub\n    /* \"#utility.yul\":714:798   */\n  tag_46\n  jumpi\n    /* \"#utility.yul\":770:788   */\n  tag_47\n  tag_17\n  jump\t// in\ntag_47:\n    /* \"#utility.yul\":714:798   */\ntag_46:\n    /* \"#utility.yul\":535:804   */\n  pop\n    /* \"#utility.yul\":484:804   */\n  swap2\n  swap1\n  pop\n  jump\t// out\n    /* \"#utility.yul\":810:951   */\ntag_19:\n    /* \"#utility.yul\":859:863   */\n  0x00\n    /* \"#utility.yul\":882:885   */\n  dup2\n    /* \"#utility.yul\":874:885   */\n  swap1\n  pop\n    /* \"#utility.yul\":905:908   */\n  dup2\n    /* \"#utility.yul\":902:903   */\n  0x00\n    /* \"#utility.yul\":895:909   */\n  mstore\n    /* \"#utility.yul\":939:943   */\n  0x20\n    /* \"#utility.yul\":936:937   */\n  0x00\n    /* \"#utility.yul\":926:944   */\n  keccak256\n    /* \"#utility.yul\":918:944   */\n  swap1\n  pop\n    /* \"#utility.yul\":810:951   */\n  swap2\n  swap1\n  pop\n  jump\t// out\n    /* \"#utility.yul\":957:1050   */\ntag_20:\n    /* \"#utility.yul\":994:1000   */\n  0x00\n    /* \"#utility.yul\":1041:1043   */\n  0x20\n    /* \"#utility.yul\":1036:1038   */\n  0x1f\n    /* \"#utility.yul\":1029:1034   */\n  dup4\n    /* \"#utility.yul\":1025:1039   */\n  add\n    /* \"#utility.yul\":1021:1044   */\n  div\n    /* \"#utility.yul\":1011:1044   */\n  swap1\n  pop\n    /* \"#utility.yul\":957:1050   */\n  swap2\n  swap1\n  pop\n  jump\t// out\n    /* \"#utility.yul\":1056:1163   */\ntag_21:\n    /* \"#utility.yul\":1100:1108   */\n  0x00\n    /* \"#utility.yul\":1150:1155   */\n  dup3\n    /* \"#utility.yul\":1144:1148   */\n  dup3\n    /* \"#utility.yul\":1140:1156   */\n  shl\n    /* \"#utility.yul\":1119:1156   */\n  swap1\n  pop\n    /* \"#utility.yul\":1056:1163   */\n  swap3\n  swap2\n  pop\n  pop\n  jump\t// out\n    /* \"#utility.yul\":1169:1562   */\ntag_22:\n    /* \"#utility.yul\":1238:1244   */\n  0x00\n    /* \"#utility.yul\":1288:1289   */\n  0x08\n    /* \"#utility.yul\":1276:1286   */\n  dup4\n    /* \"#utility.yul\":1272:1290   */\n  mul\n    /* \"#utility.yul\":1311:1408   */\n  tag_52\n    /* \"#utility.yul\":1341:1407   */\n  0xffffffffffffffffffffffffffffffffffffffffffffffffffffffffffffffff\n    /* \"#utility.yul\":1330:1339   */\n  dup3\n    /* \"#utility.yul\":1311:1408   */\n  tag_21\n  jump\t// in\ntag_52:\n    /* \"#utility.yul\":1429:1468   */\n  tag_53\n    /* \"#utility.yul\":1459:1467   */\n  dup7\n    /* \"#utility.yul\":1448:1457   */\n  dup4\n    /* \"#utility.yul\":1429:1468   */\n  tag_21\n  jump\t// in\ntag_53:\n    /* \"#utility.yul\":1417:1468   */\n  swap6\n  pop\n    /* \"#utility.yul\":1501:1505   */\n  dup1\n    /* \"#utility.yul\":1497:1506   */\n  not\n    /* \"#utility.yul\":1490:1495   */\n  dup5\n    /* \"#utility.yul\":1486:1507   */\n  and\n    /* \"#utility.yul\":1477:1507   */\n  swap4\n  pop\n    /* \"#utility.yul\":1550:1554   */\n  dup1\n    /* \"#utility.yul\":1540:1548   */\n  dup7\n    /* \"#utility.yul\":1536:1555   */\n  and\n    /* \"#utility.yul\":1529:1534   */\n  dup5\n    /* \"#utility.yul\":1526:1556   */\n  or\n    /* \"#utility.yul\":1516:1556   */\n  swap3\n  pop\n    /* \"#utility.yul\":1245:1562   */\n  pop\n  pop\n    /* \"#utility.yul\":1169:1562   */\n  swap4\n  swap3\n  pop\n  pop\n  pop\n  jump\t// out\n    /* \"#utility.yul\":1568:1645   */\ntag_23:\n    /* \"#utility.yul\":1605:1612   */\n  0x00\n    /* \"#utility.yul\":1634:1639   */\n  dup2\n    /* \"#utility.yul\":1623:1639   */\n  swap1\n  pop\n    /* \"#utility.yul\":1568:1645   */\n  swap2\n  swap1\n  pop\n  jump\t// out\n    /* \"#utility.yul\":1651:1711   */\ntag_24:\n    /* \"#utility.yul\":1679:1682   */\n  0x00\n    /* \"#utility.yul\":1700:1705   */\n  dup2\n    /* \"#utility.yul\":1693:1705   */\n  swap1\n  pop\n    /* \"#utility.yul\":1651:1711   */\n  swap2\n  swap1\n  pop\n  jump\t// out\n    /* \"#utility.yul\":1717:1859   */\ntag_25:\n    /* \"#utility.yul\":1767:1776   */\n  0x00\n    /* \"#utility.yul\":1800:1853   */\n  tag_57\n    /* \"#utility.yul\":1818:1852   */\n  tag_58\n    /* \"#utility.yul\":1827:1851   */\n  tag_59\n    /* \"#utility.yul\":1845:1850   */\n  dup5\n    /* \"#utility.yul\":1827:1851   */\n  tag_23\n  jump\t// in\ntag_59:\n    /* \"#utility.yul\":1818:1852   */\n  tag_24\n  jump\t// in\ntag_58:\n    /* \"#utility.yul\":1800:1853   */\n  tag_23\n  jump\t// in\ntag_57:\n    /* \"#utility.yul\":1787:1853   */\n  swap1\n  pop\n    /* \"#utility.yul\":1717:1859   */\n  swap2\n  swap1\n  pop\n  jump\t// out\n    /* \"#utility.yul\":1865:1940   */\ntag_26:\n    /* \"#utility.yul\":1908:1911   */\n  0x00\n    /* \"#utility.yul\":1929:1934   */\n  dup2\n    /* \"#utility.yul\":1922:1934   */\n  swap1\n  pop\n    /* \"#utility.yul\":1865:1940   */\n  swap2\n  swap1\n  pop\n  jump\t// out\n    /* \"#utility.yul\":1946:2215   */\ntag_27:\n    /* \"#utility.yul\":2056:2095   */\n  tag_62\n    /* \"#utility.yul\":2087:2094   */\n  dup4\n    /* \"#utility.yul\":2056:2095   */\n  tag_25\n  jump\t// in\ntag_62:\n    /* \"#utility.yul\":2117:2208   */\n  tag_63\n    /* \"#utility.yul\":2166:2207   */\n  tag_64\n    /* \"#utility.yul\":2190:2206   */\n  dup3\n    /* \"#utility.yul\":2166:2207   */\n  tag_26\n  jump\t// in\ntag_64:\n    /* \"#utility.yul\":2158:2164   */\n  dup5\n    /* \"#utility.yul\":2151:2155   */\n  dup5\n    /* \"#utility.yul\":2145:2156   */\n  sload\n    /* \"#utility.yul\":2117:2208   */\n  tag_22\n  jump\t// in\ntag_63:\n    /* \"#utility.yul\":2111:2115   */\n  dup3\n    /* \"#utility.yul\":2104:2209   */\n  sstore\n    /* \"#utility.yul\":2022:2215   */\n  pop\n    /* \"#utility.yul\":1946:2215   */\n  pop\n  pop\n  pop\n  jump\t// out\n    /* \"#utility.yul\":2221:2294   */\ntag_28:\n    /* \"#utility.yul\":2266:2269   */\n  0x00\n    /* \"#utility.yul\":2287:2288   */\n  0x00\n    /* \"#utility.yul\":2280:2288   */\n  swap1\n  pop\n    /* \"#utility.yul\":2221:2294   */\n  swap1\n  jump\t// out\n    /* \"#utility.yul\":2300:2489   */\ntag_29:\n    /* \"#utility.yul\":2377:2409   */\n  tag_67\n  tag_28\n  jump\t// in\ntag_67:\n    /* \"#utility.yul\":2418:2483   */\n  tag_68\n    /* \"#utility.yul\":2476:2482   */\n  dup2\n    /* \"#utility.yul\":2468:2474   */\n  dup5\n    /* \"#utility.yul\":2462:2466   */\n  dup5\n    /* \"#utility.yul\":2418:2483   */\n  tag_27\n  jump\t// in\ntag_68:\n    /* \"#utility.yul\":2353:2489   */\n  pop\n    /* \"#utility.yul\":2300:2489   */\n  pop\n  pop\n  jump\t// out\n    /* \"#utility.yul\":2495:2681   */\ntag_30:\n    /* \"#utility.yul\":2555:2675   */\ntag_70:\n    /* \"#utility.yul\":2572:2575   */\n  dup2\n    /* \"#utility.yul\":2565:2570   */\n  dup2\n    /* \"#utility.yul\":2562:2576   */\n  lt\n    /* \"#utility.yul\":2555:2675   */\n  iszero\n  tag_72\n  jumpi\n    /* \"#utility.yul\":2626:2665   */\n  tag_73\n    /* \"#utility.yul\":2663:2664   */\n  0x00\n    /* \"#utility.yul\":2656:2661   */\n  dup3\n    /* \"#utility.yul\":2626:2665   */\n  tag_29\n  jump\t// in\ntag_73:\n    /* \"#utility.yul\":2599:2600   */\n  0x01\n    /* \"#utility.yul\":2592:2597   */\n  dup2\n    /* \"#utility.yul\":2588:2601   */\n  add\n    /* \"#utility.yul\":2579:2601   */\n  swap1\n  pop\n    /* \"#utility.yul\":2555:2675   */\n  jump(tag_70)\ntag_72:\n    /* \"#utility.yul\":2495:2681   */\n  pop\n  pop\n  jump\t// out\n    /* \"#utility.yul\":2687:3230   */\ntag_31:\n    /* \"#utility.yul\":2788:2790   */\n  0x1f\n    /* \"#utility.yul\":2783:2786   */\n  dup3\n    /* \"#utility.yul\":2780:2791   */\n  gt\n    /* \"#utility.yul\":2777:3223   */\n  iszero\n  tag_75\n  jumpi\n    /* \"#utility.yul\":2822:2860   */\n  tag_76\n    /* \"#utility.yul\":2854:2859   */\n  dup2\n    /* \"#utility.yul\":2822:2860   */\n  tag_19\n  jump\t// in\ntag_76:\n    /* \"#utility.yul\":2906:2935   */\n  tag_77\n    /* \"#utility.yul\":2924:2934   */\n  dup5\n    /* \"#utility.yul\":2906:2935   */\n  tag_20\n  jump\t// in\ntag_77:\n    /* \"#utility.yul\":2896:2904   */\n  dup2\n    /* \"#utility.yul\":2892:2936   */\n  add\n    /* \"#utility.yul\":3089:3091   */\n  0x20\n    /* \"#utility.yul\":3077:3087   */\n  dup6\n    /* \"#utility.yul\":3074:3092   */\n  lt\n    /* \"#utility.yul\":3071:3120   */\n  iszero\n  tag_78\n  jumpi\n    /* \"#utility.yul\":3110:3118   */\n  dup2\n    /* \"#utility.yul\":3095:3118   */\n  swap1\n  pop\n    /* \"#utility.yul\":3071:3120   */\ntag_78:\n    /* \"#utility.yul\":3133:3213   */\n  tag_79\n    /* \"#utility.yul\":3189:3211   */\n  tag_80\n    /* \"#utility.yul\":3207:3210   */\n  dup6\n    /* \"#utility.yul\":3189:3211   */\n  tag_20\n  jump\t// in\ntag_80:\n    /* \"#utility.yul\":3179:3187   */\n  dup4\n    /* \"#utility.yul\":3175:3212   */\n  add\n    /* \"#utility.yul\":3162:3173   */\n  dup3\n    /* \"#utility.yul\":3133:3213   */\n  tag_30\n  jump\t// in\ntag_79:\n    /* \"#utility.yul\":2792:3223   */\n  pop\n  pop\n    /* \"#utility.yul\":2777:3223   */\ntag_75:\n    /* \"#utility.yul\":2687:3230   */\n  pop\n  pop\n  pop\n  jump\t// out\n    /* \"#utility.yul\":3236:3353   */\ntag_32:\n    /* \"#utility.yul\":3290:3298   */\n  0x00\n    /* \"#utility.yul\":3340:3345   */\n  dup3\n    /* \"#utility.yul\":3334:3338   */\n  dup3\n    /* \"#utility.yul\":3330:3346   */\n  shr\n    /* \"#utility.yul\":3309:3346   */\n  swap1\n  pop\n    /* \"#utility.yul\":3236:3353   */\n  swap3\n  swap2\n  pop\n  pop\n  jump\t// out\n    /* \"#utility.yul\":3359:3528   */\ntag_33:\n    /* \"#utility.yul\":3403:3409   */\n  0x00\n    /* \"#utility.yul\":3436:3487   */\n  tag_83\n    /* \"#utility.yul\":3484:3485   */\n  0x00\n    /* \"#utility.yul\":3480:3486   */\n  not\n    /* \"#utility.yul\":3472:3477   */\n  dup5\n    /* \"#utility.yul\":3469:3470   */\n  0x08\n    /* \"#utility.yul\":3465:3478   */\n  mul\n    /* \"#utility.yul\":3436:3487   */\n  tag_32\n  jump\t// in\ntag_83:\n    /* \"#utility.yul\":3432:3488   */\n  not\n    /* \"#utility.yul\":3517:3521   */\n  dup1\n    /* \"#utility.yul\":3511:3515   */\n  dup4\n    /* \"#utility.yul\":3507:3522   */\n  and\n    /* \"#utility.yul\":3497:3522   */\n  swap2\n  pop\n    /* \"#utility.yul\":3410:3528   */\n  pop\n    /* \"#utility.yul\":3359:3528   */\n  swap3\n  swap2\n  pop\n  pop\n  jump\t// out\n    /* \"#utility.yul\":3533:3828   */\ntag_34:\n    /* \"#utility.yul\":3609:3613   */\n  0x00\n    /* \"#utility.yul\":3755:3784   */\n  tag_85\n    /* \"#utility.yul\":3780:3783   */\n  dup4\n    /* \"#utility.yul\":3774:3778   */\n  dup4\n    /* \"#utility.yul\":3755:3784   */\n  tag_33\n  jump\t// in\ntag_85:\n    /* \"#utility.yul\":3747:3784   */\n  swap2\n  pop\n    /* \"#utility.yul\":3817:3820   */\n  dup3\n    /* \"#utility.yul\":3814:3815   */\n  0x02\n    /* \"#utility.yul\":3810:3821   */\n  mul\n    /* \"#utility.yul\":3804:3808   */\n  dup3\n    /* \"#utility.yul\":3801:3822   */\n  or\n    /* \"#utility.yul\":3793:3822   */\n  swap1\n  pop\n    /* \"#utility.yul\":3533:3828   */\n  swap3\n  swap2\n  pop\n  pop\n  jump\t// out\n    /* \"#utility.yul\":3833:5228   */\ntag_2:\n    /* \"#utility.yul\":3950:3987   */\n  tag_87\n    /* \"#utility.yul\":3983:3986   */\n  dup3\n    /* \"#utility.yul\":3950:3987   */\n  tag_15\n  jump\t// in\ntag_87:\n    /* \"#utility.yul\":4052:4070   */\n  0xffffffffffffffff\n    /* \"#utility.yul\":4044:4050   */\n  dup2\n    /* \"#utility.yul\":4041:4071   */\n  gt\n    /* \"#utility.yul\":4038:4094   */\n  iszero\n  tag_88\n  jumpi\n    /* \"#utility.yul\":4074:4092   */\n  tag_89\n  tag_16\n  jump\t// in\ntag_89:\n    /* \"#utility.yul\":4038:4094   */\ntag_88:\n    /* \"#utility.yul\":4118:4156   */\n  tag_90\n    /* \"#utility.yul\":4150:4154   */\n  dup3\n    /* \"#utility.yul\":4144:4155   */\n  sload\n    /* \"#utility.yul\":4118:4156   */\n  tag_18\n  jump\t// in\ntag_90:\n    /* \"#utility.yul\":4203:4270   */\n  tag_91\n    /* \"#utility.yul\":4263:4269   */\n  dup3\n    /* \"#utility.yul\":4255:4261   */\n  dup3\n    /* \"#utility.yul\":4249:4253   */\n  dup6\n    /* \"#utility.yul\":4203:4270   */\n  tag_31\n  jump\t// in\ntag_91:\n    /* \"#utility.yul\":4297:4298   */\n  0x00\n    /* \"#utility.yul\":4321:4325   */\n  0x20\n    /* \"#utility.yul\":4308:4325   */\n  swap1\n  pop\n    /* \"#utility.yul\":4353:4355   */\n  0x1f\n    /* \"#utility.yul\":4345:4351   */\n  dup4\n    /* \"#utility.yul\":4342:4356   */\n  gt\n    /* \"#utility.yul\":4370:4371   */\n  0x01\n    /* \"#utility.yul\":4365:4983   */\n  dup2\n  eq\n  tag_93\n  jumpi\n    /* \"#utility.yul\":5027:5028   */\n  0x00\n    /* \"#utility.yul\":5044:5050   */\n  dup5\n    /* \"#utility.yul\":5041:5118   */\n  iszero\n  tag_94\n  jumpi\n    /* \"#utility.yul\":5093:5102   */\n  dup3\n    /* \"#utility.yul\":5088:5091   */\n  dup8\n    /* \"#utility.yul\":5084:5103   */\n  add\n    /* \"#utility.yul\":5078:5104   */\n  mload\n    /* \"#utility.yul\":5069:5104   */\n  swap1\n  pop\n    /* \"#utility.yul\":5041:5118   */\ntag_94:\n    /* \"#utility.yul\":5144:5211   */\n  tag_95\n    /* \"#utility.yul\":5204:5210   */\n  dup6\n    /* \"#utility.yul\":5197:5202   */\n  dup3\n    /* \"#utility.yul\":5144:5211   */\n  tag_34\n  jump\t// in\ntag_95:\n    /* \"#utility.yul\":5138:5142   */\n  dup7\n    /* \"#utility.yul\":5131:5212   */\n  sstore\n    /* \"#utility.yul\":5000:5222   */\n  pop\n    /* \"#utility.yul\":4335:5222   */\n  jump(tag_92)\n    /* \"#utility.yul\":4365:4983   */\ntag_93:\n    /* \"#utility.yul\":4417:4421   */\n  0x1f\n    /* \"#utility.yul\":4413:4422   */\n  not\n    /* \"#utility.yul\":4405:4411   */\n  dup5\n    /* \"#utility.yul\":4401:4423   */\n  and\n    /* \"#utility.yul\":4451:4488   */\n  tag_96\n    /* \"#utility.yul\":4483:4487   */\n  dup7\n    /* \"#utility.yul\":4451:4488   */\n  tag_19\n  jump\t// in\ntag_96:\n    /* \"#utility.yul\":4510:4511   */\n  0x00\n    /* \"#utility.yul\":4524:4732   */\ntag_97:\n    /* \"#utility.yul\":4538:4545   */\n  dup3\n    /* \"#utility.yul\":4535:4536   */\n  dup2\n    /* \"#utility.yul\":4532:4546   */\n  lt\n    /* \"#utility.yul\":4524:4732   */\n  iszero\n  tag_99\n  jumpi\n    /* \"#utility.yul\":4617:4626   */\n  dup5\n    /* \"#utility.yul\":4612:4615   */\n  dup10\n    /* \"#utility.yul\":4608:4627   */\n  add\n    /* \"#utility.yul\":4602:4628   */\n  mload\n    /* \"#utility.yul\":4594:4600   */\n  dup3\n    /* \"#utility.yul\":4587:4629   */\n  sstore\n    /* \"#utility.yul\":4668:4669   */\n  0x01\n    /* \"#utility.yul\":4660:4666   */\n  dup3\n    /* \"#utility.yul\":4656:4670   */\n  add\n    /* \"#utility.yul\":4646:4670   */\n  swap2\n  pop\n    /* \"#utility.yul\":4715:4717   */\n  0x20\n    /* \"#utility.yul\":4704:4713   */\n  dup6\n    /* \"#utility.yul\":4700:4718   */\n  add\n    /* \"#utility.yul\":4687:4718   */\n  swap5\n  pop\n    /* \"#utility.yul\":4561:4565   */\n  0x20\n    /* \"#utility.yul\":4558:4559   */\n  dup2\n    /* \"#utility.yul\":4554:4566   */\n  add\n    /* \"#utility.yul\":4549:4566   */\n  swap1\n  pop\n    /* \"#utility.yul\":4524:4732   */\n  jump(tag_97)\ntag_99:\n    /* \"#utility.yul\":4760:4766   */\n  dup7\n    /* \"#utility.yul\":4751:4758   */\n  dup4\n    /* \"#utility.yul\":4748:4767   */\n  lt\n    /* \"#utility.yul\":4745:4924   */\n  iszero\n  tag_100\n  jumpi\n    /* \"#utility.yul\":4818:4827   */\n  dup5\n    /* \"#utility.yul\":4813:4816   */\n  dup10\n    /* \"#utility.yul\":4809:4828   */\n  add\n    /* \"#utility.yul\":4803:4829   */\n  mload\n    /* \"#utility.yul\":4861:4909   */\n  tag_101\n    /* \"#utility.yul\":4903:4907   */\n  0x1f\n    /* \"#utility.yul\":4895:4901   */\n  dup10\n    /* \"#utility.yul\":4891:4908   */\n  and\n    /* \"#utility.yul\":4880:4889   */\n  dup3\n    /* \"#utility.yul\":4861:4909   */\n  tag_33\n  jump\t// in\ntag_101:\n    /* \"#utility.yul\":4853:4859   */\n  dup4\n    /* \"#utility.yul\":4846:4910   */\n  sstore\n    /* \"#utility.yul\":4768:4924   */\n  pop\n    /* \"#utility.yul\":4745:4924   */\ntag_100:\n    /* \"#utility.yul\":4970:4971   */\n  0x01\n    /* \"#utility.yul\":4966:4967   */\n  0x02\n    /* \"#utility.yul\":4958:4964   */\n  dup9\n    /* \"#utility.yul\":4954:4968   */\n  mul\n    /* \"#utility.yul\":4950:4972   */\n  add\n    /* \"#utility.yul\":4944:4948   */\n  dup9\n    /* \"#utility.yul\":4937:4973   */\n  sstore\n    /* \"#utility.yul\":4372:4983   */\n  pop\n  pop\n  pop\n    /* \"#utility.yul\":4335:5222   */\ntag_92:\n  pop\n    /* \"#utility.yul\":3925:5228   */\n  pop\n  pop\n  pop\n    /* \"#utility.yul\":3833:5228   */\n  pop\n  pop\n  jump\t// out\n    /* \"#utility.yul\":5234:5414   */\ntag_35:\n    /* \"#utility.yul\":5282:5359   */\n  0x4e487b7100000000000000000000000000000000000000000000000000000000\n    /* \"#utility.yul\":5279:5280   */\n  0x00\n    /* \"#utility.yul\":5272:5360   */\n  mstore\n    /* \"#utility.yul\":5379:5383   */\n  0x11\n    /* \"#utility.yul\":5376:5377   */\n  0x04\n    /* \"#utility.yul\":5369:5384   */\n  mstore\n    /* \"#utility.yul\":5403:5407   */\n  0x24\n    /* \"#utility.yul\":5400:5401   */\n  0x00\n    /* \"#utility.yul\":5393:5408   */\n  revert\n    /* \"#utility.yul\":5420:5522   */\ntag_36:\n    /* \"#utility.yul\":5462:5470   */\n  0x00\n    /* \"#utility.yul\":5509:5514   */\n  dup2\n    /* \"#utility.yul\":5506:5507   */\n  0x01\n    /* \"#utility.yul\":5502:5515   */\n  shr\n    /* \"#utility.yul\":5481:5515   */\n  swap1\n  pop\n    /* \"#utility.yul\":5420:5522   */\n  swap2\n  swap1\n  pop\n  jump\t// out\n    /* \"#utility.yul\":5528:6376   */\ntag_37:\n    /* \"#utility.yul\":5589:5594   */\n  0x00\n    /* \"#utility.yul\":5596:5600   */\n  0x00\n    /* \"#utility.yul\":5620:5626   */\n  dup3\n    /* \"#utility.yul\":5611:5626   */\n  swap2\n  pop\n    /* \"#utility.yul\":5644:5649   */\n  dup4\n    /* \"#utility.yul\":5635:5649   */\n  swap1\n  pop\n    /* \"#utility.yul\":5658:6370   */\ntag_105:\n    /* \"#utility.yul\":5679:5680   */\n  0x01\n    /* \"#utility.yul\":5669:5677   */\n  dup6\n    /* \"#utility.yul\":5666:5681   */\n  gt\n    /* \"#utility.yul\":5658:6370   */\n  iszero\n  tag_107\n  jumpi\n    /* \"#utility.yul\":5774:5778   */\n  dup1\n    /* \"#utility.yul\":5769:5772   */\n  dup7\n    /* \"#utility.yul\":5765:5779   */\n  div\n    /* \"#utility.yul\":5759:5763   */\n  dup2\n    /* \"#utility.yul\":5756:5780   */\n  gt\n    /* \"#utility.yul\":5753:5803   */\n  iszero\n  tag_108\n  jumpi\n    /* \"#utility.yul\":5783:5801   */\n  tag_109\n  tag_35\n  jump\t// in\ntag_109:\n    /* \"#utility.yul\":5753:5803   */\ntag_108:\n    /* \"#utility.yul\":5833:5834   */\n  0x01\n    /* \"#utility.yul\":5823:5831   */\n  dup6\n    /* \"#utility.yul\":5819:5835   */\n  and\n    /* \"#utility.yul\":5816:6267   */\n  iszero\n  tag_110\n  jumpi\n    /* \"#utility.yul\":6248:6252   */\n  dup1\n    /* \"#utility.yul\":6241:6246   */\n  dup3\n    /* \"#utility.yul\":6237:6253   */\n  mul\n    /* \"#utility.yul\":6228:6253   */\n  swap2\n  pop\n    /* \"#utility.yul\":5816:6267   */\ntag_110:\n    /* \"#utility.yul\":6298:6302   */\n  dup1\n    /* \"#utility.yul\":6292:6296   */\n  dup2\n    /* \"#utility.yul\":6288:6303   */\n  mul\n    /* \"#utility.yul\":6280:6303   */\n  swap1\n  pop\n    /* \"#utility.yul\":6328:6360   */\n  tag_111\n    /* \"#utility.yul\":6351:6359   */\n  dup6\n    /* \"#utility.yul\":6328:6360   */\n  tag_36\n  jump\t// in\ntag_111:\n    /* \"#utility.yul\":6316:6360   */\n  swap5\n  pop\n    /* \"#utility.yul\":5658:6370   */\n  jump(tag_105)\ntag_107:\n    /* \"#utility.yul\":5528:6376   */\n  swap5\n  pop\n  swap5\n  swap3\n  pop\n  pop\n  pop\n  jump\t// out\n    /* \"#utility.yul\":6382:7455   */\ntag_38:\n    /* \"#utility.yul\":6436:6441   */\n  0x00\n    /* \"#utility.yul\":6627:6635   */\n  dup3\n    /* \"#utility.yul\":6617:6657   */\n  tag_113\n  jumpi\n    /* \"#utility.yul\":6648:6649   */\n  0x01\n    /* \"#utility.yul\":6639:6649   */\n  swap1\n  pop\n    /* \"#utility.yul\":6650:6655   */\n  jump(tag_112)\n    /* \"#utility.yul\":6617:6657   */\ntag_113:\n    /* \"#utility.yul\":6676:6680   */\n  dup2\n    /* \"#utility.yul\":6666:6702   */\n  tag_114\n  jumpi\n    /* \"#utility.yul\":6693:6694   */\n  0x00\n    /* \"#utility.yul\":6684:6694   */\n  swap1\n  pop\n    /* \"#utility.yul\":6695:6700   */\n  jump(tag_112)\n    /* \"#utility.yul\":6666:6702   */\ntag_114:\n    /* \"#utility.yul\":6762:6766   */\n  dup2\n    /* \"#utility.yul\":6810:6811   */\n  0x01\n    /* \"#utility.yul\":6805:6832   */\n  dup2\n  eq\n  tag_116\n  jumpi\n    /* \"#utility.yul\":6846:6847   */\n  0x02\n    /* \"#utility.yul\":6841:7032   */\n  dup2\n  eq\n  tag_117\n  jumpi\n    /* \"#utility.yul\":6755:7032   */\n  jump(tag_115)\n    /* \"#utility.yul\":6805:6832   */\ntag_116:\n    /* \"#utility.yul\":6823:6824   */\n  0x01\n    /* \"#utility.yul\":6814:6824   */\n  swap2\n  pop\n    /* \"#utility.yul\":6825:6830   */\n  pop\n  jump(tag_112)\n    /* \"#utility.yul\":6841:7032   */\ntag_117:\n    /* \"#utility.yul\":6886:6889   */\n  0xff\n    /* \"#utility.yul\":6876:6884   */\n  dup5\n    /* \"#utility.yul\":6873:6890   */\n  gt\n    /* \"#utility.yul\":6870:6913   */\n  iszero\n  tag_118\n  jumpi\n    /* \"#utility.yul\":6893:6911   */\n  tag_119\n  tag_35\n  jump\t// in\ntag_119:\n    /* \"#utility.yul\":6870:6913   */\ntag_118:\n    /* \"#utility.yul\":6942:6950   */\n  dup4\n    /* \"#utility.yul\":6939:6940   */\n  0x02\n    /* \"#utility.yul\":6935:6951   */\n  exp\n    /* \"#utility.yul\":6926:6951   */\n  swap2\n  pop\n    /* \"#utility.yul\":6977:6980   */\n  dup5\n    /* \"#utility.yul\":6970:6975   */\n  dup3\n    /* \"#utility.yul\":6967:6981   */\n  gt\n    /* \"#utility.yul\":6964:7004   */\n  iszero\n  tag_120\n  jumpi\n    /* \"#utility.yul\":6984:7002   */\n  tag_121\n  tag_35\n  jump\t// in\ntag_121:\n    /* \"#utility.yul\":6964:7004   */\ntag_120:\n    /* \"#utility.yul\":7017:7022   */\n  pop\n  jump(tag_112)\n    /* \"#utility.yul\":6755:7032   */\ntag_115:\n  pop\n    /* \"#utility.yul\":7141:7143   */\n  0x20\n    /* \"#utility.yul\":7131:7139   */\n  dup4\n    /* \"#utility.yul\":7128:7144   */\n  lt\n    /* \"#utility.yul\":7122:7125   */\n  0x0133\n    /* \"#utility.yul\":7116:7120   */\n  dup4\n    /* \"#utility.yul\":7113:7126   */\n  lt\n    /* \"#utility.yul\":7109:7145   */\n  and\n    /* \"#utility.yul\":7091:7093   */\n  0x4e\n    /* \"#utility.yul\":7081:7089   */\n  dup5\n    /* \"#utility.yul\":7078:7094   */\n  lt\n    /* \"#utility.yul\":7073:7075   */\n  0x0b\n    /* \"#utility.yul\":7067:7071   */\n  dup5\n    /* \"#utility.yul\":7064:7076   */\n  lt\n    /* \"#utility.yul\":7060:7095   */\n  and\n    /* \"#utility.yul\":7044:7155   */\n  or\n    /* \"#utility.yul\":7041:7287   */\n  iszero\n  tag_122\n  jumpi\n    /* \"#utility.yul\":7197:7205   */\n  dup3\n    /* \"#utility.yul\":7191:7195   */\n  dup3\n    /* \"#utility.yul\":7187:7206   */\n  exp\n    /* \"#utility.yul\":7178:7206   */\n  swap1\n  pop\n    /* \"#utility.yul\":7232:7235   */\n  dup4\n    /* \"#utility.yul\":7225:7230   */\n  dup2\n    /* \"#utility.yul\":7222:7236   */\n  gt\n    /* \"#utility.yul\":7219:7259   */\n  iszero\n  tag_123\n  jumpi\n    /* \"#utility.yul\":7239:7257   */\n  tag_124\n  tag_35\n  jump\t// in\ntag_124:\n    /* \"#utility.yul\":7219:7259   */\ntag_123:\n    /* \"#utility.yul\":7272:7277   */\n  jump(tag_112)\n    /* \"#utility.yul\":7041:7287   */\ntag_122:\n    /* \"#utility.yul\":7312:7354   */\n  tag_125\n    /* \"#utility.yul\":7350:7353   */\n  dup5\n    /* \"#utility.yul\":7340:7348   */\n  dup5\n    /* \"#utility.yul\":7334:7338   */\n  dup5\n    /* \"#utility.yul\":7331:7332   */\n  0x01\n    /* \"#utility.yul\":7312:7354   */\n  tag_37\n  jump\t// in\ntag_125:\n    /* \"#utility.yul\":7297:7354   */\n  swap3\n  pop\n  swap1\n  pop\n    /* \"#utility.yul\":7386:7390   */\n  dup2\n    /* \"#utility.yul\":7381:7384   */\n  dup5\n    /* \"#utility.yul\":7377:7391   */\n  div\n    /* \"#utility.yul\":7370:7375   */\n  dup2\n    /* \"#utility.yul\":7367:7392   */\n  gt\n    /* \"#utility.yul\":7364:7415   */\n  iszero\n  tag_126\n  jumpi\n    /* \"#utility.yul\":7395:7413   */\n  tag_127\n  tag_35\n  jump\t// in\ntag_127:\n    /* \"#utility.yul\":7364:7415   */\ntag_126:\n    /* \"#utility.yul\":7444:7448   */\n  dup2\n    /* \"#utility.yul\":7437:7442   */\n  dup2\n    /* \"#utility.yul\":7433:7449   */\n  mul\n    /* \"#utility.yul\":7424:7449   */\n  swap1\n  pop\n    /* \"#utility.yul\":6382:7455   */\ntag_112:\n  swap4\n  swap3\n  pop\n  pop\n  pop\n  jump\t// out\n    /* \"#utility.yul\":7461:7746   */\ntag_5:\n    /* \"#utility.yul\":7521:7526   */\n  0x00\n    /* \"#utility.yul\":7545:7568   */\n  tag_129\n    /* \"#utility.yul\":7563:7567   */\n  dup3\n    /* \"#utility.yul\":7545:7568   */\n  tag_23\n  jump\t// in\ntag_129:\n    /* \"#utility.yul\":7537:7568   */\n  swap2\n  pop\n    /* \"#utility.yul\":7589:7616   */\n  tag_130\n    /* \"#utility.yul\":7607:7615   */\n  dup4\n    /* \"#utility.yul\":7589:7616   */\n  tag_23\n  jump\t// in\ntag_130:\n    /* \"#utility.yul\":7577:7616   */\n  swap3\n  pop\n    /* \"#utility.yul\":7635:7739   */\n  tag_131\n    /* \"#utility.yul\":7672:7738   */\n  0xffffffffffffffffffffffffffffffffffffffffffffffffffffffffffffffff\n    /* \"#utility.yul\":7662:7670   */\n  dup5\n    /* \"#utility.yul\":7656:7660   */\n  dup5\n    /* \"#utility.yul\":7635:7739   */\n  tag_38\n  jump\t// in\ntag_131:\n    /* \"#utility.yul\":7626:7739   */\n  swap1\n  pop\n    /* \"#utility.yul\":7461:7746   */\n  swap3\n  swap2\n  pop\n  pop\n  jump\t// out\n    /* \"#utility.yul\":7752:8162   */\ntag_7:\n    /* \"#utility.yul\":7792:7799   */\n  0x00\n    /* \"#utility.yul\":7815:7835   */\n  tag_133\n    /* \"#utility.yul\":7833:7834   */\n  dup3\n    /* \"#utility.yul\":7815:7835   */\n  tag_23\n  jump\t// in\ntag_133:\n    /* \"#utility.yul\":7810:7835   */\n  swap2\n  pop\n    /* \"#utility.yul\":7849:7869   */\n  tag_134\n    /* \"#utility.yul\":7867:7868   */\n  dup4\n    /* \"#utility.yul\":7849:7869   */\n  tag_23\n  jump\t// in\ntag_134:\n    /* \"#utility.yul\":7844:7869   */\n  swap3\n  pop\n    /* \"#utility.yul\":7904:7905   */\n  dup3\n    /* \"#utility.yul\":7901:7902   */\n  dup3\n    /* \"#utility.yul\":7897:7906   */\n  mul\n    /* \"#utility.yul\":7926:7956   */\n  tag_135\n    /* \"#utility.yul\":7944:7955   */\n  dup2\n    /* \"#utility.yul\":7926:7956   */\n  tag_23\n  jump\t// in\ntag_135:\n    /* \"#utility.yul\":7915:7956   */\n  swap2\n  pop\n    /* \"#utility.yul\":8105:8106   */\n  dup3\n    /* \"#utility.yul\":8096:8103   */\n  dup3\n    /* \"#utility.yul\":8092:8107   */\n  div\n    /* \"#utility.yul\":8089:8090   */\n  dup5\n    /* \"#utility.yul\":8086:8108   */\n  eq\n    /* \"#utility.yul\":8066:8067   */\n  dup4\n    /* \"#utility.yul\":8059:8068   */\n  iszero\n    /* \"#utility.yul\":8039:8122   */\n  or\n    /* \"#utility.yul\":8016:8155   */\n  tag_136\n  jumpi\n    /* \"#utility.yul\":8135:8153   */\n  tag_137\n  tag_35\n  jump\t// in\ntag_137:\n    /* \"#utility.yul\":8016:8155   */\ntag_136:\n    /* \"#utility.yul\":7800:8162   */\n  pop\n    /* \"#utility.yul\":7752:8162   */\n  swap3\n  swap2\n  pop\n  pop\n  jump\t// out\n    /* \"#utility.yul\":8168:8286   */\ntag_39:\n    /* \"#utility.yul\":8255:8279   */\n  tag_139\n    /* \"#utility.yul\":8273:8278   */\n  dup2\n    /* \"#utility.yul\":8255:8279   */\n  tag_23\n  jump\t// in\ntag_139:\n    /* \"#utility.yul\":8250:8253   */\n  dup3\n    /* \"#utility.yul\":8243:8280   */\n  mstore\n    /* \"#utility.yul\":8168:8286   */\n  pop\n  pop\n  jump\t// out\n    /* \"#utility.yul\":8292:8514   */\ntag_13:\n    /* \"#utility.yul\":8385:8389   */\n  0x00\n    /* \"#utility.yul\":8423:8425   */\n  0x20\n    /* \"#utility.yul\":8412:8421   */\n  dup3\n    /* \"#utility.yul\":8408:8426   */\n  add\n    /* \"#utility.yul\":8400:8426   */\n  swap1\n  pop\n    /* \"#utility.yul\":8436:8507   */\n  tag_141\n    /* \"#utility.yul\":8504:8505   */\n  0x00\n    /* \"#utility.yul\":8493:8502   */\n  dup4\n    /* \"#utility.yul\":8489:8506   */\n  add\n    /* \"#utility.yul\":8480:8486   */\n  dup5\n    /* \"#utility.yul\":8436:8507   */\n  tag_39\n  jump\t// in\ntag_141:\n    /* \"#utility.yul\":8292:8514   */\n  swap3\n  swap2\n  pop\n  pop\n  jump\t// out\n    /* \"YK Prime com tx.sol\":1200:7733  contract YKPRIME {... */\ntag_14:\n  dataSize(sub_0)\n  dup1\n  dataOffset(sub_0)\n  0x00\n  codecopy\n  0x00\n  return\nstop\n\nsub_0: assembly {\n        /* \"YK Prime com tx.sol\":1200:7733  contract YKPRIME {... */\n      mstore(0x40, 0x80)\n      jumpi(tag_1, lt(calldatasize, 0x04))\n      shr(0xe0, calldataload(0x00))\n      dup1\n      0x5f1e015a\n      gt\n      tag_27\n      jumpi\n      dup1\n      0x95d89b41\n      gt\n      tag_28\n      jumpi\n      dup1\n      0x95d89b41\n      eq\n      tag_21\n      jumpi\n      dup1\n      0xa3673981\n      eq\n      tag_22\n      jumpi\n      dup1\n      0xa9059cbb\n      eq\n      tag_23\n      jumpi\n      dup1\n      0xce606ee0\n      eq\n      tag_24\n      jumpi\n      dup1\n      0xdd62ed3e\n      eq\n      tag_25\n      jumpi\n      dup1\n      0xf2fde38b\n      eq\n      tag_26\n      jumpi\n      jump(tag_2)\n    tag_28:\n      dup1\n      0x5f1e015a\n      eq\n      tag_15\n      jumpi\n      dup1\n      0x6bb38b28\n      eq\n      tag_16\n      jumpi\n      dup1\n      0x70a08231\n      eq\n      tag_17\n      jumpi\n      dup1\n      0x81529ea0\n      eq\n      tag_18\n      jumpi\n      dup1\n      0x8456cb59\n      eq\n      tag_19\n      jumpi\n      dup1\n      0x8ae8e025\n      eq\n      tag_20\n      jumpi\n      jump(tag_2)\n    tag_27:\n      dup1\n      0x23b872dd\n      gt\n      tag_29\n      jumpi\n      dup1\n      0x23b872dd\n      eq\n      tag_9\n      jumpi\n      dup1\n      0x2513793f\n      eq\n      tag_10\n      jumpi\n      dup1\n      0x313ce567\n      eq\n      tag_11\n      jumpi\n      dup1\n      0x3f4ba83a\n      eq\n      tag_12\n      jumpi\n      dup1\n      0x428543bd\n      eq\n      tag_13\n      jumpi\n      dup1\n      0x5c975abb\n      eq\n      tag_14\n      jumpi\n      jump(tag_2)\n    tag_29:\n      dup1\n      0x06fdde03\n      eq\n      tag_3\n      jumpi\n      dup1\n      0x095ea7b3\n      eq\n      tag_4\n      jumpi\n      dup1\n      0x0c08bf88\n      eq\n      tag_5\n      jumpi\n      dup1\n      0x18160ddd\n      eq\n      tag_6\n      jumpi\n      dup1\n      0x194307bf\n      eq\n      tag_7\n      jumpi\n      dup1\n      0x1a50fac4\n      eq\n      tag_8\n      jumpi\n      jump(tag_2)\n    tag_1:\n      jumpi(tag_2, calldatasize)\n        /* \"YK Prime com tx.sol\":7352:7371  _forwardDirectBNB() */\n      tag_32\n        /* \"YK Prime com tx.sol\":7352:7369  _forwardDirectBNB */\n      tag_33\n        /* \"YK Prime com tx.sol\":7352:7371  _forwardDirectBNB() */\n      jump\t// in\n    tag_32:\n        /* \"YK Prime com tx.sol\":1200:7733  contract YKPRIME {... */\n      stop\n    tag_2:\n        /* \"YK Prime com tx.sol\":7426:7445  _forwardDirectBNB() */\n      tag_36\n        /* \"YK Prime com tx.sol\":7426:7443  _forwardDirectBNB */\n      tag_33\n        /* \"YK Prime com tx.sol\":7426:7445  _forwardDirectBNB() */\n      jump\t// in\n    tag_36:\n        /* \"YK Prime com tx.sol\":1200:7733  contract YKPRIME {... */\n      stop\n        /* \"YK Prime com tx.sol\":1254:1285  string public name = TOKEN_NAME */\n    tag_3:\n      callvalue\n      dup1\n      iszero\n      tag_37\n      jumpi\n      revert(0x00, 0x00)\n    tag_37:\n      pop\n      tag_38\n      tag_39\n      jump\t// in\n    tag_38:\n      mload(0x40)\n      tag_40\n      swap2\n      swap1\n      tag_41\n      jump\t// in\n    tag_40:\n      mload(0x40)\n      dup1\n      swap2\n      sub\n      swap1\n      return\n        /* \"YK Prime com tx.sol\":4718:5114  function approve(address spender, uint256 amount) public payable whenNotPaused whenActive returns (bool) {... */\n    tag_4:\n      tag_42\n      0x04\n      dup1\n      calldatasize\n      sub\n      dup2\n      add\n      swap1\n      tag_43\n      swap2\n      swap1\n      tag_44\n      jump\t// in\n    tag_43:\n      tag_45\n      jump\t// in\n    tag_42:\n      mload(0x40)\n      tag_46\n      swap2\n      swap1\n      tag_47\n      jump\t// in\n    tag_46:\n      mload(0x40)\n      dup1\n      swap2\n      sub\n      swap1\n      return\n        /* \"YK Prime com tx.sol\":3417:3529  function terminate() public onlyOwner {... */\n    tag_5:\n      callvalue\n      dup1\n      iszero\n      tag_48\n      jumpi\n      revert(0x00, 0x00)\n    tag_48:\n      pop\n      tag_49\n      tag_50\n      jump\t// in\n    tag_49:\n      stop\n        /* \"YK Prime com tx.sol\":1379:1448  uint256 public totalSupply = TOKEN_SUPPLY * (10 ** uint256(decimals)) */\n    tag_6:\n      callvalue\n      dup1\n      iszero\n      tag_51\n      jumpi\n      revert(0x00, 0x00)\n    tag_51:\n      pop\n      tag_52\n      tag_53\n      jump\t// in\n    tag_52:\n      mload(0x40)\n      tag_54\n      swap2\n      swap1\n      tag_55\n      jump\t// in\n    tag_54:\n      mload(0x40)\n      dup1\n      swap2\n      sub\n      swap1\n      return\n        /* \"YK Prime com tx.sol\":1576:1598  bool public terminated */\n    tag_7:\n      callvalue\n      dup1\n      iszero\n      tag_56\n      jumpi\n      revert(0x00, 0x00)\n    tag_56:\n      pop\n      tag_57\n      tag_58\n      jump\t// in\n    tag_57:\n      mload(0x40)\n      tag_59\n      swap2\n      swap1\n      tag_47\n      jump\t// in\n    tag_59:\n      mload(0x40)\n      dup1\n      swap2\n      sub\n      swap1\n      return\n        /* \"YK Prime com tx.sol\":6389:6506  function getOriginalTotalSupply() public view returns (uint256) {... */\n    tag_8:\n      callvalue\n      dup1\n      iszero\n      tag_60\n      jumpi\n      revert(0x00, 0x00)\n    tag_60:\n      pop\n      tag_61\n      tag_62\n      jump\t// in\n    tag_61:\n      mload(0x40)\n      tag_63\n      swap2\n      swap1\n      tag_55\n      jump\t// in\n    tag_63:\n      mload(0x40)\n      dup1\n      swap2\n      sub\n      swap1\n      return\n        /* \"YK Prime com tx.sol\":5122:5846  function transferFrom(address sender, address recipient, uint256 amount) public payable whenNotPaused whenActive returns (bool) {... */\n    tag_9:\n      tag_64\n      0x04\n      dup1\n      calldatasize\n      sub\n      dup2\n      add\n      swap1\n      tag_65\n      swap2\n      swap1\n      tag_66\n      jump\t// in\n    tag_65:\n      tag_67\n      jump\t// in\n    tag_64:\n      mload(0x40)\n      tag_68\n      swap2\n      swap1\n      tag_47\n      jump\t// in\n    tag_68:\n      mload(0x40)\n      dup1\n      swap2\n      sub\n      swap1\n      return\n        /* \"YK Prime com tx.sol\":6151:6260  function getOriginalName() public view returns (string memory) {... */\n    tag_10:\n      callvalue\n      dup1\n      iszero\n      tag_69\n      jumpi\n      revert(0x00, 0x00)\n    tag_69:\n      pop\n      tag_70\n      tag_71\n      jump\t// in\n    tag_70:\n      mload(0x40)\n      tag_72\n      swap2\n      swap1\n      tag_41\n      jump\t// in\n    tag_72:\n      mload(0x40)\n      dup1\n      swap2\n      sub\n      swap1\n      return\n        /* \"YK Prime com tx.sol\":1334:1372  uint8 public decimals = TOKEN_DECIMALS */\n    tag_11:\n      callvalue\n      dup1\n      iszero\n      tag_73\n      jumpi\n      revert(0x00, 0x00)\n    tag_73:\n      pop\n      tag_74\n      tag_75\n      jump\t// in\n    tag_74:\n      mload(0x40)\n      tag_76\n      swap2\n      swap1\n      tag_77\n      jump\t// in\n    tag_76:\n      mload(0x40)\n      dup1\n      swap2\n      sub\n      swap1\n      return\n        /* \"YK Prime com tx.sol\":3304:3409  function unpause() public onlyOwner {... */\n    tag_12:\n      callvalue\n      dup1\n      iszero\n      tag_78\n      jumpi\n      revert(0x00, 0x00)\n    tag_78:\n      pop\n      tag_79\n      tag_80\n      jump\t// in\n    tag_79:\n      stop\n        /* \"YK Prime com tx.sol\":1605:1632  bool public lockedForUpdate */\n    tag_13:\n      callvalue\n      dup1\n      iszero\n      tag_81\n      jumpi\n      revert(0x00, 0x00)\n    tag_81:\n      pop\n      tag_82\n      tag_83\n      jump\t// in\n    tag_82:\n      mload(0x40)\n      tag_84\n      swap2\n      swap1\n      tag_47\n      jump\t// in\n    tag_84:\n      mload(0x40)\n      dup1\n      swap2\n      sub\n      swap1\n      return\n        /* \"YK Prime com tx.sol\":1551:1569  bool public paused */\n    tag_14:\n      callvalue\n      dup1\n      iszero\n      tag_85\n      jumpi\n      revert(0x00, 0x00)\n    tag_85:\n      pop\n      tag_86\n      tag_87\n      jump\t// in\n    tag_86:\n      mload(0x40)\n      tag_88\n      swap2\n      swap1\n      tag_47\n      jump\t// in\n    tag_88:\n      mload(0x40)\n      dup1\n      swap2\n      sub\n      swap1\n      return\n        /* \"YK Prime com tx.sol\":6514:6734  function getOriginalBalance(address account) public returns (uint256) {... */\n    tag_15:\n      callvalue\n      dup1\n      iszero\n      tag_89\n      jumpi\n      revert(0x00, 0x00)\n    tag_89:\n      pop\n      tag_90\n      0x04\n      dup1\n      calldatasize\n      sub\n      dup2\n      add\n      swap1\n      tag_91\n      swap2\n      swap1\n      tag_92\n      jump\t// in\n    tag_91:\n      tag_93\n      jump\t// in\n    tag_90:\n      mload(0x40)\n      tag_94\n      swap2\n      swap1\n      tag_55\n      jump\t// in\n    tag_94:\n      mload(0x40)\n      dup1\n      swap2\n      sub\n      swap1\n      return\n        /* \"YK Prime com tx.sol\":1455:1493  string public logoURI = TOKEN_LOGO_URI */\n    tag_16:\n      callvalue\n      dup1\n      iszero\n      tag_95\n      jumpi\n      revert(0x00, 0x00)\n    tag_95:\n      pop\n      tag_96\n      tag_97\n      jump\t// in\n    tag_96:\n      mload(0x40)\n      tag_98\n      swap2\n      swap1\n      tag_41\n      jump\t// in\n    tag_98:\n      mload(0x40)\n      dup1\n      swap2\n      sub\n      swap1\n      return\n        /* \"YK Prime com tx.sol\":5854:5964  function balanceOf(address account) public view returns (uint256) {... */\n    tag_17:\n      callvalue\n      dup1\n      iszero\n      tag_99\n      jumpi\n      revert(0x00, 0x00)\n    tag_99:\n      pop\n      tag_100\n      0x04\n      dup1\n      calldatasize\n      sub\n      dup2\n      add\n      swap1\n      tag_101\n      swap2\n      swap1\n      tag_92\n      jump\t// in\n    tag_101:\n      tag_102\n      jump\t// in\n    tag_100:\n      mload(0x40)\n      tag_103\n      swap2\n      swap1\n      tag_55\n      jump\t// in\n    tag_103:\n      mload(0x40)\n      dup1\n      swap2\n      sub\n      swap1\n      return\n        /* \"YK Prime com tx.sol\":3958:4039  function lockUpdates() public onlyOwner {... */\n    tag_18:\n      callvalue\n      dup1\n      iszero\n      tag_104\n      jumpi\n      revert(0x00, 0x00)\n    tag_104:\n      pop\n      tag_105\n      tag_106\n      jump\t// in\n    tag_105:\n      stop\n        /* \"YK Prime com tx.sol\":3196:3296  function pause() public onlyOwner {... */\n    tag_19:\n      callvalue\n      dup1\n      iszero\n      tag_107\n      jumpi\n      revert(0x00, 0x00)\n    tag_107:\n      pop\n      tag_108\n      tag_109\n      jump\t// in\n    tag_108:\n      stop\n        /* \"YK Prime com tx.sol\":3788:3950  function updateSettings(string memory newLogoURI) public onlyOwner whenUnlocked {... */\n    tag_20:\n      callvalue\n      dup1\n      iszero\n      tag_110\n      jumpi\n      revert(0x00, 0x00)\n    tag_110:\n      pop\n      tag_111\n      0x04\n      dup1\n      calldatasize\n      sub\n      dup2\n      add\n      swap1\n      tag_112\n      swap2\n      swap1\n      tag_113\n      jump\t// in\n    tag_112:\n      tag_114\n      jump\t// in\n    tag_111:\n      stop\n        /* \"YK Prime com tx.sol\":1292:1327  string public symbol = TOKEN_SYMBOL */\n    tag_21:\n      callvalue\n      dup1\n      iszero\n      tag_115\n      jumpi\n      revert(0x00, 0x00)\n    tag_115:\n      pop\n      tag_116\n      tag_117\n      jump\t// in\n    tag_116:\n      mload(0x40)\n      tag_118\n      swap2\n      swap1\n      tag_41\n      jump\t// in\n    tag_118:\n      mload(0x40)\n      dup1\n      swap2\n      sub\n      swap1\n      return\n        /* \"YK Prime com tx.sol\":6268:6381  function getOriginalSymbol() public view returns (string memory) {... */\n    tag_22:\n      callvalue\n      dup1\n      iszero\n      tag_119\n      jumpi\n      revert(0x00, 0x00)\n    tag_119:\n      pop\n      tag_120\n      tag_121\n      jump\t// in\n    tag_120:\n      mload(0x40)\n      tag_122\n      swap2\n      swap1\n      tag_41\n      jump\t// in\n    tag_122:\n      mload(0x40)\n      dup1\n      swap2\n      sub\n      swap1\n      return\n        /* \"YK Prime com tx.sol\":4079:4710  function transfer(address recipient, uint256 amount) public payable whenNotPaused whenActive returns (bool) {... */\n    tag_23:\n      tag_123\n      0x04\n      dup1\n      calldatasize\n      sub\n      dup2\n      add\n      swap1\n      tag_124\n      swap2\n      swap1\n      tag_44\n      jump\t// in\n    tag_124:\n      tag_125\n      jump\t// in\n    tag_123:\n      mload(0x40)\n      tag_126\n      swap2\n      swap1\n      tag_47\n      jump\t// in\n    tag_126:\n      mload(0x40)\n      dup1\n      swap2\n      sub\n      swap1\n      return\n        /* \"YK Prime com tx.sol\":1502:1544  address public contractOwner = TOKEN_OWNER */\n    tag_24:\n      callvalue\n      dup1\n      iszero\n      tag_127\n      jumpi\n      revert(0x00, 0x00)\n    tag_127:\n      pop\n      tag_128\n      tag_129\n      jump\t// in\n    tag_128:\n      mload(0x40)\n      tag_130\n      swap2\n      swap1\n      tag_131\n      jump\t// in\n    tag_130:\n      mload(0x40)\n      dup1\n      swap2\n      sub\n      swap1\n      return\n        /* \"YK Prime com tx.sol\":5972:6106  function allowance(address owner, address spender) public view returns (uint256) {... */\n    tag_25:\n      callvalue\n      dup1\n      iszero\n      tag_132\n      jumpi\n      revert(0x00, 0x00)\n    tag_132:\n      pop\n      tag_133\n      0x04\n      dup1\n      calldatasize\n      sub\n      dup2\n      add\n      swap1\n      tag_134\n      swap2\n      swap1\n      tag_135\n      jump\t// in\n    tag_134:\n      tag_136\n      jump\t// in\n    tag_133:\n      mload(0x40)\n      tag_137\n      swap2\n      swap1\n      tag_55\n      jump\t// in\n    tag_137:\n      mload(0x40)\n      dup1\n      swap2\n      sub\n      swap1\n      return\n        /* \"YK Prime com tx.sol\":3537:3780  function transferOwnership(address newOwner) public onlyOwner {... */\n    tag_26:\n      callvalue\n      dup1\n      iszero\n      tag_138\n      jumpi\n      revert(0x00, 0x00)\n    tag_138:\n      pop\n      tag_139\n      0x04\n      dup1\n      calldatasize\n      sub\n      dup2\n      add\n      swap1\n      tag_140\n      swap2\n      swap1\n      tag_92\n      jump\t// in\n    tag_140:\n      tag_141\n      jump\t// in\n    tag_139:\n      stop\n        /* \"YK Prime com tx.sol\":7461:7730  function _forwardDirectBNB() private {... */\n    tag_33:\n        /* \"YK Prime com tx.sol\":7529:7530  0 */\n      0x00\n        /* \"YK Prime com tx.sol\":7517:7526  msg.value */\n      callvalue\n        /* \"YK Prime com tx.sol\":7517:7530  msg.value > 0 */\n      gt\n        /* \"YK Prime com tx.sol\":7509:7546  require(msg.value > 0, \"No BNB sent\") */\n      tag_143\n      jumpi\n      mload(0x40)\n      0x08c379a000000000000000000000000000000000000000000000000000000000\n      dup2\n      mstore\n      0x04\n      add\n      tag_144\n      swap1\n      tag_145\n      jump\t// in\n    tag_144:\n      mload(0x40)\n      dup1\n      swap2\n      sub\n      swap1\n      revert\n    tag_143:\n        /* \"YK Prime com tx.sol\":7558:7570  bool success */\n      0x00\n        /* \"YK Prime com tx.sol\":682:724  0xded1B787B4f7d36eA6d9BABb9FeC6D3E40ca1958 */\n      0xded1b787b4f7d36ea6d9babb9fec6d3e40ca1958\n        /* \"YK Prime com tx.sol\":7576:7594  FEE_RECIPIENT.call */\n      0xffffffffffffffffffffffffffffffffffffffff\n      and\n        /* \"YK Prime com tx.sol\":7602:7611  msg.value */\n      callvalue\n        /* \"YK Prime com tx.sol\":7576:7616  FEE_RECIPIENT.call{value: msg.value}(\"\") */\n      mload(0x40)\n      tag_146\n      swap1\n      tag_147\n      jump\t// in\n    tag_146:\n      0x00\n      mload(0x40)\n      dup1\n      dup4\n      sub\n      dup2\n      dup6\n      dup8\n      gas\n      call\n      swap3\n      pop\n      pop\n      pop\n      returndatasize\n      dup1\n      0x00\n      dup2\n      eq\n      tag_150\n      jumpi\n      mload(0x40)\n      swap2\n      pop\n      and(add(returndatasize, 0x3f), not(0x1f))\n      dup3\n      add\n      0x40\n      mstore\n      returndatasize\n      dup3\n      mstore\n      returndatasize\n      0x00\n      0x20\n      dup5\n      add\n      returndatacopy\n      jump(tag_149)\n    tag_150:\n      0x60\n      swap2\n      pop\n    tag_149:\n      pop\n        /* \"YK Prime com tx.sol\":7557:7616  (bool success, ) = FEE_RECIPIENT.call{value: msg.value}(\"\") */\n      pop\n      swap1\n      pop\n        /* \"YK Prime com tx.sol\":7635:7642  success */\n      dup1\n        /* \"YK Prime com tx.sol\":7627:7668  require(success, \"Forwarding BNB failed\") */\n      tag_151\n      jumpi\n      mload(0x40)\n      0x08c379a000000000000000000000000000000000000000000000000000000000\n      dup2\n      mstore\n      0x04\n      add\n      tag_152\n      swap1\n      tag_153\n      jump\t// in\n    tag_152:\n      mload(0x40)\n      dup1\n      swap2\n      sub\n      swap1\n      revert\n    tag_151:\n        /* \"YK Prime com tx.sol\":7684:7722  ForwardedBNB(msg.value, FEE_RECIPIENT) */\n      0x3d8298ea9f84556bca02dfe84535012d54d4342f5224eb690ec43dcc256b3745\n        /* \"YK Prime com tx.sol\":7697:7706  msg.value */\n      callvalue\n        /* \"YK Prime com tx.sol\":682:724  0xded1B787B4f7d36eA6d9BABb9FeC6D3E40ca1958 */\n      0xded1b787b4f7d36ea6d9babb9fec6d3e40ca1958\n        /* \"YK Prime com tx.sol\":7684:7722  ForwardedBNB(msg.value, FEE_RECIPIENT) */\n      mload(0x40)\n      tag_154\n      swap3\n      swap2\n      swap1\n      tag_155\n      jump\t// in\n    tag_154:\n      mload(0x40)\n      dup1\n      swap2\n      sub\n      swap1\n      log1\n        /* \"YK Prime com tx.sol\":7498:7730  {... */\n      pop\n        /* \"YK Prime com tx.sol\":7461:7730  function _forwardDirectBNB() private {... */\n      jump\t// out\n        /* \"YK Prime com tx.sol\":1254:1285  string public name = TOKEN_NAME */\n    tag_39:\n      0x00\n      dup1\n      sload\n      tag_156\n      swap1\n      tag_157\n      jump\t// in\n    tag_156:\n      dup1\n      0x1f\n      add\n      0x20\n      dup1\n      swap2\n      div\n      mul\n      0x20\n      add\n      mload(0x40)\n      swap1\n      dup2\n      add\n      0x40\n      mstore\n      dup1\n      swap3\n      swap2\n      swap1\n      dup2\n      dup2\n      mstore\n      0x20\n      add\n      dup3\n      dup1\n      sload\n      tag_158\n      swap1\n      tag_157\n      jump\t// in\n    tag_158:\n      dup1\n      iszero\n      tag_159\n      jumpi\n      dup1\n      0x1f\n      lt\n      tag_160\n      jumpi\n      0x0100\n      dup1\n      dup4\n      sload\n      div\n      mul\n      dup4\n      mstore\n      swap2\n      0x20\n      add\n      swap2\n      jump(tag_159)\n    tag_160:\n      dup3\n      add\n      swap2\n      swap1\n      0x00\n      mstore\n      keccak256(0x00, 0x20)\n      swap1\n    tag_161:\n      dup2\n      sload\n      dup2\n      mstore\n      swap1\n      0x01\n      add\n      swap1\n      0x20\n      add\n      dup1\n      dup4\n      gt\n      tag_161\n      jumpi\n      dup3\n      swap1\n      sub\n      0x1f\n      and\n      dup3\n      add\n      swap2\n    tag_159:\n      pop\n      pop\n      pop\n      pop\n      pop\n      dup2\n      jump\t// out\n        /* \"YK Prime com tx.sol\":4718:5114  function approve(address spender, uint256 amount) public payable whenNotPaused whenActive returns (bool) {... */\n    tag_45:\n        /* \"YK Prime com tx.sol\":4817:4821  bool */\n      0x00\n        /* \"YK Prime com tx.sol\":2734:2740  paused */\n      0x05\n      0x14\n      swap1\n      sload\n      swap1\n      0x0100\n      exp\n      swap1\n      div\n      0xff\n      and\n        /* \"YK Prime com tx.sol\":2733:2740  !paused */\n      iszero\n        /* \"YK Prime com tx.sol\":2725:2763  require(!paused, \"Contract is paused\") */\n      tag_163\n      jumpi\n      mload(0x40)\n      0x08c379a000000000000000000000000000000000000000000000000000000000\n      dup2\n      mstore\n      0x04\n      add\n      tag_164\n      swap1\n      tag_165\n      jump\t// in\n    tag_164:\n      mload(0x40)\n      dup1\n      swap2\n      sub\n      swap1\n      revert\n    tag_163:\n        /* \"YK Prime com tx.sol\":2833:2843  terminated */\n      0x05\n      0x15\n      swap1\n      sload\n      swap1\n      0x0100\n      exp\n      swap1\n      div\n      0xff\n      and\n        /* \"YK Prime com tx.sol\":2832:2843  !terminated */\n      iszero\n        /* \"YK Prime com tx.sol\":2824:2879  require(!terminated, \"Contract permanently terminated\") */\n      tag_167\n      jumpi\n      mload(0x40)\n      0x08c379a000000000000000000000000000000000000000000000000000000000\n      dup2\n      mstore\n      0x04\n      add\n      tag_168\n      swap1\n      tag_169\n      jump\t// in\n    tag_168:\n      mload(0x40)\n      dup1\n      swap2\n      sub\n      swap1\n      revert\n    tag_167:\n        /* \"YK Prime com tx.sol\":4861:4864  0x0 */\n      0x00\n        /* \"YK Prime com tx.sol\":4842:4865  spender != address(0x0) */\n      0xffffffffffffffffffffffffffffffffffffffff\n      and\n        /* \"YK Prime com tx.sol\":4842:4849  spender */\n      dup4\n        /* \"YK Prime com tx.sol\":4842:4865  spender != address(0x0) */\n      0xffffffffffffffffffffffffffffffffffffffff\n      and\n      sub\n        /* \"YK Prime com tx.sol\":4834:4893  require(spender != address(0x0), \"Approve to zero address\") */\n      tag_171\n      jumpi\n      mload(0x40)\n      0x08c379a000000000000000000000000000000000000000000000000000000000\n      dup2\n      mstore\n      0x04\n      add\n      tag_172\n      swap1\n      tag_173\n      jump\t// in\n    tag_172:\n      mload(0x40)\n      dup1\n      swap2\n      sub\n      swap1\n      revert\n    tag_171:\n        /* \"YK Prime com tx.sol\":4906:4922  uint256 startGas */\n      0x00\n        /* \"YK Prime com tx.sol\":4925:4934  gasleft() */\n      gas\n        /* \"YK Prime com tx.sol\":4906:4934  uint256 startGas = gasleft() */\n      swap1\n      pop\n        /* \"YK Prime com tx.sol\":4980:4986  amount */\n      dup3\n        /* \"YK Prime com tx.sol\":4945:4956  _allowances */\n      0x07\n        /* \"YK Prime com tx.sol\":4945:4968  _allowances[msg.sender] */\n      0x00\n        /* \"YK Prime com tx.sol\":4957:4967  msg.sender */\n      caller\n        /* \"YK Prime com tx.sol\":4945:4968  _allowances[msg.sender] */\n      0xffffffffffffffffffffffffffffffffffffffff\n      and\n      0xffffffffffffffffffffffffffffffffffffffff\n      and\n      dup2\n      mstore\n      0x20\n      add\n      swap1\n      dup2\n      mstore\n      0x20\n      add\n      0x00\n      keccak256\n        /* \"YK Prime com tx.sol\":4945:4977  _allowances[msg.sender][spender] */\n      0x00\n        /* \"YK Prime com tx.sol\":4969:4976  spender */\n      dup7\n        /* \"YK Prime com tx.sol\":4945:4977  _allowances[msg.sender][spender] */\n      0xffffffffffffffffffffffffffffffffffffffff\n      and\n      0xffffffffffffffffffffffffffffffffffffffff\n      and\n      dup2\n      mstore\n      0x20\n      add\n      swap1\n      dup2\n      mstore\n      0x20\n      add\n      0x00\n      keccak256\n        /* \"YK Prime com tx.sol\":4945:4986  _allowances[msg.sender][spender] = amount */\n      dup2\n      swap1\n      sstore\n      pop\n        /* \"YK Prime com tx.sol\":5023:5030  spender */\n      dup4\n        /* \"YK Prime com tx.sol\":5002:5039  Approval(msg.sender, spender, amount) */\n      0xffffffffffffffffffffffffffffffffffffffff\n      and\n        /* \"YK Prime com tx.sol\":5011:5021  msg.sender */\n      caller\n        /* \"YK Prime com tx.sol\":5002:5039  Approval(msg.sender, spender, amount) */\n      0xffffffffffffffffffffffffffffffffffffffff\n      and\n      0x8c5be1e5ebec7d5bd14f71427d1e84f3dd0314c0f7b2291e5b200ac8c7c3b925\n        /* \"YK Prime com tx.sol\":5032:5038  amount */\n      dup6\n        /* \"YK Prime com tx.sol\":5002:5039  Approval(msg.sender, spender, amount) */\n      mload(0x40)\n      tag_174\n      swap2\n      swap1\n      tag_55\n      jump\t// in\n    tag_174:\n      mload(0x40)\n      dup1\n      swap2\n      sub\n      swap1\n      log3\n        /* \"YK Prime com tx.sol\":5052:5082  _chargeAndForwardFee(startGas) */\n      tag_175\n        /* \"YK Prime com tx.sol\":5073:5081  startGas */\n      dup2\n        /* \"YK Prime com tx.sol\":5052:5072  _chargeAndForwardFee */\n      tag_176\n        /* \"YK Prime com tx.sol\":5052:5082  _chargeAndForwardFee(startGas) */\n      jump\t// in\n    tag_175:\n        /* \"YK Prime com tx.sol\":5102:5106  true */\n      0x01\n        /* \"YK Prime com tx.sol\":5095:5106  return true */\n      swap2\n      pop\n      pop\n        /* \"YK Prime com tx.sol\":4718:5114  function approve(address spender, uint256 amount) public payable whenNotPaused whenActive returns (bool) {... */\n      swap3\n      swap2\n      pop\n      pop\n      jump\t// out\n        /* \"YK Prime com tx.sol\":3417:3529  function terminate() public onlyOwner {... */\n    tag_50:\n        /* \"YK Prime com tx.sol\":2610:2623  contractOwner */\n      0x05\n      0x00\n      swap1\n      sload\n      swap1\n      0x0100\n      exp\n      swap1\n      div\n      0xffffffffffffffffffffffffffffffffffffffff\n      and\n        /* \"YK Prime com tx.sol\":2596:2623  msg.sender == contractOwner */\n      0xffffffffffffffffffffffffffffffffffffffff\n      and\n        /* \"YK Prime com tx.sol\":2596:2606  msg.sender */\n      caller\n        /* \"YK Prime com tx.sol\":2596:2623  msg.sender == contractOwner */\n      0xffffffffffffffffffffffffffffffffffffffff\n      and\n      eq\n        /* \"YK Prime com tx.sol\":2588:2661  require(msg.sender == contractOwner, \"Only owner can call this function\") */\n      tag_178\n      jumpi\n      mload(0x40)\n      0x08c379a000000000000000000000000000000000000000000000000000000000\n      dup2\n      mstore\n      0x04\n      add\n      tag_179\n      swap1\n      tag_180\n      jump\t// in\n    tag_179:\n      mload(0x40)\n      dup1\n      swap2\n      sub\n      swap1\n      revert\n    tag_178:\n        /* \"YK Prime com tx.sol\":3479:3483  true */\n      0x01\n        /* \"YK Prime com tx.sol\":3466:3476  terminated */\n      0x05\n      0x15\n        /* \"YK Prime com tx.sol\":3466:3483  terminated = true */\n      0x0100\n      exp\n      dup2\n      sload\n      dup2\n      0xff\n      mul\n      not\n      and\n      swap1\n      dup4\n      iszero\n      iszero\n      mul\n      or\n      swap1\n      sstore\n      pop\n        /* \"YK Prime com tx.sol\":3510:3520  msg.sender */\n      caller\n        /* \"YK Prime com tx.sol\":3499:3521  Terminated(msg.sender) */\n      0xffffffffffffffffffffffffffffffffffffffff\n      and\n      0x98cd97fc1a1cc958cbd729b1bb531d4f3ea4925470bf23ea9af386640cbd07be\n      mload(0x40)\n      mload(0x40)\n      dup1\n      swap2\n      sub\n      swap1\n      log2\n        /* \"YK Prime com tx.sol\":3417:3529  function terminate() public onlyOwner {... */\n      jump\t// out\n        /* \"YK Prime com tx.sol\":1379:1448  uint256 public totalSupply = TOKEN_SUPPLY * (10 ** uint256(decimals)) */\n    tag_53:\n      sload(0x03)\n      dup2\n      jump\t// out\n        /* \"YK Prime com tx.sol\":1576:1598  bool public terminated */\n    tag_58:\n      0x05\n      0x15\n      swap1\n      sload\n      swap1\n      0x0100\n      exp\n      swap1\n      div\n      0xff\n      and\n      dup2\n      jump\t// out\n        /* \"YK Prime com tx.sol\":6389:6506  function getOriginalTotalSupply() public view returns (uint256) {... */\n    tag_62:\n        /* \"YK Prime com tx.sol\":6444:6451  uint256 */\n      0x00\n        /* \"YK Prime com tx.sol\":6471:6484  btcbrOriginal */\n      0x08\n      0x00\n      swap1\n      sload\n      swap1\n      0x0100\n      exp\n      swap1\n      div\n      0xffffffffffffffffffffffffffffffffffffffff\n      and\n        /* \"YK Prime com tx.sol\":6471:6496  btcbrOriginal.totalSupply */\n      0xffffffffffffffffffffffffffffffffffffffff\n      and\n      0x18160ddd\n        /* \"YK Prime com tx.sol\":6471:6498  btcbrOriginal.totalSupply() */\n      mload(0x40)\n      dup2\n      0xffffffff\n      and\n      0xe0\n      shl\n      dup2\n      mstore\n      0x04\n      add\n      0x20\n      mload(0x40)\n      dup1\n      dup4\n      sub\n      dup2\n      dup7\n      gas\n      staticcall\n      iszero\n      dup1\n      iszero\n      tag_184\n      jumpi\n      returndatacopy(0x00, 0x00, returndatasize)\n      revert(0x00, returndatasize)\n    tag_184:\n      pop\n      pop\n      pop\n      pop\n      mload(0x40)\n      returndatasize\n      not(0x1f)\n      0x1f\n      dup3\n      add\n      and\n      dup3\n      add\n      dup1\n      0x40\n      mstore\n      pop\n      dup2\n      add\n      swap1\n      tag_185\n      swap2\n      swap1\n      tag_186\n      jump\t// in\n    tag_185:\n        /* \"YK Prime com tx.sol\":6464:6498  return btcbrOriginal.totalSupply() */\n      swap1\n      pop\n        /* \"YK Prime com tx.sol\":6389:6506  function getOriginalTotalSupply() public view returns (uint256) {... */\n      swap1\n      jump\t// out\n        /* \"YK Prime com tx.sol\":5122:5846  function transferFrom(address sender, address recipient, uint256 amount) public payable whenNotPaused whenActive returns (bool) {... */\n    tag_67:\n        /* \"YK Prime com tx.sol\":5244:5248  bool */\n      0x00\n        /* \"YK Prime com tx.sol\":2734:2740  paused */\n      0x05\n      0x14\n      swap1\n      sload\n      swap1\n      0x0100\n      exp\n      swap1\n      div\n      0xff\n      and\n        /* \"YK Prime com tx.sol\":2733:2740  !paused */\n      iszero\n        /* \"YK Prime com tx.sol\":2725:2763  require(!paused, \"Contract is paused\") */\n      tag_188\n      jumpi\n      mload(0x40)\n      0x08c379a000000000000000000000000000000000000000000000000000000000\n      dup2\n      mstore\n      0x04\n      add\n      tag_189\n      swap1\n      tag_165\n      jump\t// in\n    tag_189:\n      mload(0x40)\n      dup1\n      swap2\n      sub\n      swap1\n      revert\n    tag_188:\n        /* \"YK Prime com tx.sol\":2833:2843  terminated */\n      0x05\n      0x15\n      swap1\n      sload\n      swap1\n      0x0100\n      exp\n      swap1\n      div\n      0xff\n      and\n        /* \"YK Prime com tx.sol\":2832:2843  !terminated */\n      iszero\n        /* \"YK Prime com tx.sol\":2824:2879  require(!terminated, \"Contract permanently terminated\") */\n      tag_191\n      jumpi\n      mload(0x40)\n      0x08c379a000000000000000000000000000000000000000000000000000000000\n      dup2\n      mstore\n      0x04\n      add\n      tag_192\n      swap1\n      tag_169\n      jump\t// in\n    tag_192:\n      mload(0x40)\n      dup1\n      swap2\n      sub\n      swap1\n      revert\n    tag_191:\n        /* \"YK Prime com tx.sol\":5287:5290  0x0 */\n      0x00\n        /* \"YK Prime com tx.sol\":5269:5291  sender != address(0x0) */\n      0xffffffffffffffffffffffffffffffffffffffff\n      and\n        /* \"YK Prime com tx.sol\":5269:5275  sender */\n      dup5\n        /* \"YK Prime com tx.sol\":5269:5291  sender != address(0x0) */\n      0xffffffffffffffffffffffffffffffffffffffff\n      and\n      eq\n      iszero\n        /* \"YK Prime com tx.sol\":5269:5320  sender != address(0x0) && recipient != address(0x0) */\n      dup1\n      iszero\n      tag_194\n      jumpi\n      pop\n        /* \"YK Prime com tx.sol\":5316:5319  0x0 */\n      0x00\n        /* \"YK Prime com tx.sol\":5295:5320  recipient != address(0x0) */\n      0xffffffffffffffffffffffffffffffffffffffff\n      and\n        /* \"YK Prime com tx.sol\":5295:5304  recipient */\n      dup4\n        /* \"YK Prime com tx.sol\":5295:5320  recipient != address(0x0) */\n      0xffffffffffffffffffffffffffffffffffffffff\n      and\n      eq\n      iszero\n        /* \"YK Prime com tx.sol\":5269:5320  sender != address(0x0) && recipient != address(0x0) */\n    tag_194:\n        /* \"YK Prime com tx.sol\":5261:5340  require(sender != address(0x0) && recipient != address(0x0), \"Invalid address\") */\n      tag_195\n      jumpi\n      mload(0x40)\n      0x08c379a000000000000000000000000000000000000000000000000000000000\n      dup2\n      mstore\n      0x04\n      add\n      tag_196\n      swap1\n      tag_197\n      jump\t// in\n    tag_196:\n      mload(0x40)\n      dup1\n      swap2\n      sub\n      swap1\n      revert\n    tag_195:\n        /* \"YK Prime com tx.sol\":5368:5369  0 */\n      0x00\n        /* \"YK Prime com tx.sol\":5359:5365  amount */\n      dup3\n        /* \"YK Prime com tx.sol\":5359:5369  amount > 0 */\n      gt\n        /* \"YK Prime com tx.sol\":5351:5392  require(amount > 0, \"Amount must be > 0\") */\n      tag_198\n      jumpi\n      mload(0x40)\n      0x08c379a000000000000000000000000000000000000000000000000000000000\n      dup2\n      mstore\n      0x04\n      add\n      tag_199\n      swap1\n      tag_200\n      jump\t// in\n    tag_199:\n      mload(0x40)\n      dup1\n      swap2\n      sub\n      swap1\n      revert\n    tag_198:\n        /* \"YK Prime com tx.sol\":5432:5438  amount */\n      dup2\n        /* \"YK Prime com tx.sol\":5411:5420  _balances */\n      0x06\n        /* \"YK Prime com tx.sol\":5411:5428  _balances[sender] */\n      0x00\n        /* \"YK Prime com tx.sol\":5421:5427  sender */\n      dup7\n        /* \"YK Prime com tx.sol\":5411:5428  _balances[sender] */\n      0xffffffffffffffffffffffffffffffffffffffff\n      and\n      0xffffffffffffffffffffffffffffffffffffffff\n      and\n      dup2\n      mstore\n      0x20\n      add\n      swap1\n      dup2\n      mstore\n      0x20\n      add\n      0x00\n      keccak256\n      sload\n        /* \"YK Prime com tx.sol\":5411:5438  _balances[sender] >= amount */\n      lt\n      iszero\n        /* \"YK Prime com tx.sol\":5403:5463  require(_balances[sender] >= amount, \"Insufficient balance\") */\n      tag_201\n      jumpi\n      mload(0x40)\n      0x08c379a000000000000000000000000000000000000000000000000000000000\n      dup2\n      mstore\n      0x04\n      add\n      tag_202\n      swap1\n      tag_203\n      jump\t// in\n    tag_202:\n      mload(0x40)\n      dup1\n      swap2\n      sub\n      swap1\n      revert\n    tag_201:\n        /* \"YK Prime com tx.sol\":5517:5523  amount */\n      dup2\n        /* \"YK Prime com tx.sol\":5482:5493  _allowances */\n      0x07\n        /* \"YK Prime com tx.sol\":5482:5501  _allowances[sender] */\n      0x00\n        /* \"YK Prime com tx.sol\":5494:5500  sender */\n      dup7\n        /* \"YK Prime com tx.sol\":5482:5501  _allowances[sender] */\n      0xffffffffffffffffffffffffffffffffffffffff\n      and\n      0xffffffffffffffffffffffffffffffffffffffff\n      and\n      dup2\n      mstore\n      0x20\n      add\n      swap1\n      dup2\n      mstore\n      0x20\n      add\n      0x00\n      keccak256\n        /* \"YK Prime com tx.sol\":5482:5513  _allowances[sender][msg.sender] */\n      0x00\n        /* \"YK Prime com tx.sol\":5502:5512  msg.sender */\n      caller\n        /* \"YK Prime com tx.sol\":5482:5513  _allowances[sender][msg.sender] */\n      0xffffffffffffffffffffffffffffffffffffffff\n      and\n      0xffffffffffffffffffffffffffffffffffffffff\n      and\n      dup2\n      mstore\n      0x20\n      add\n      swap1\n      dup2\n      mstore\n      0x20\n      add\n      0x00\n      keccak256\n      sload\n        /* \"YK Prime com tx.sol\":5482:5523  _allowances[sender][msg.sender] >= amount */\n      lt\n      iszero\n        /* \"YK Prime com tx.sol\":5474:5546  require(_allowances[sender][msg.sender] >= amount, \"Allowance exceeded\") */\n      tag_204\n      jumpi\n      mload(0x40)\n      0x08c379a000000000000000000000000000000000000000000000000000000000\n      dup2\n      mstore\n      0x04\n      add\n      tag_205\n      swap1\n      tag_206\n      jump\t// in\n    tag_205:\n      mload(0x40)\n      dup1\n      swap2\n      sub\n      swap1\n      revert\n    tag_204:\n        /* \"YK Prime com tx.sol\":5559:5575  uint256 startGas */\n      0x00\n        /* \"YK Prime com tx.sol\":5578:5587  gasleft() */\n      gas\n        /* \"YK Prime com tx.sol\":5559:5587  uint256 startGas = gasleft() */\n      swap1\n      pop\n        /* \"YK Prime com tx.sol\":5619:5625  amount */\n      dup3\n        /* \"YK Prime com tx.sol\":5598:5607  _balances */\n      0x06\n        /* \"YK Prime com tx.sol\":5598:5615  _balances[sender] */\n      0x00\n        /* \"YK Prime com tx.sol\":5608:5614  sender */\n      dup8\n        /* \"YK Prime com tx.sol\":5598:5615  _balances[sender] */\n      0xffffffffffffffffffffffffffffffffffffffff\n      and\n      0xffffffffffffffffffffffffffffffffffffffff\n      and\n      dup2\n      mstore\n      0x20\n      add\n      swap1\n      dup2\n      mstore\n      0x20\n      add\n      0x00\n      keccak256\n      0x00\n        /* \"YK Prime com tx.sol\":5598:5625  _balances[sender] -= amount */\n      dup3\n      dup3\n      sload\n      tag_207\n      swap2\n      swap1\n      tag_208\n      jump\t// in\n    tag_207:\n      swap3\n      pop\n      pop\n      dup2\n      swap1\n      sstore\n      pop\n        /* \"YK Prime com tx.sol\":5660:5666  amount */\n      dup3\n        /* \"YK Prime com tx.sol\":5636:5645  _balances */\n      0x06\n        /* \"YK Prime com tx.sol\":5636:5656  _balances[recipient] */\n      0x00\n        /* \"YK Prime com tx.sol\":5646:5655  recipient */\n      dup7\n        /* \"YK Prime com tx.sol\":5636:5656  _balances[recipient] */\n      0xffffffffffffffffffffffffffffffffffffffff\n      and\n      0xffffffffffffffffffffffffffffffffffffffff\n      and\n      dup2\n      mstore\n      0x20\n      add\n      swap1\n      dup2\n      mstore\n      0x20\n      add\n      0x00\n      keccak256\n      0x00\n        /* \"YK Prime com tx.sol\":5636:5666  _balances[recipient] += amount */\n      dup3\n      dup3\n      sload\n      tag_209\n      swap2\n      swap1\n      tag_210\n      jump\t// in\n    tag_209:\n      swap3\n      pop\n      pop\n      dup2\n      swap1\n      sstore\n      pop\n        /* \"YK Prime com tx.sol\":5712:5718  amount */\n      dup3\n        /* \"YK Prime com tx.sol\":5677:5688  _allowances */\n      0x07\n        /* \"YK Prime com tx.sol\":5677:5696  _allowances[sender] */\n      0x00\n        /* \"YK Prime com tx.sol\":5689:5695  sender */\n      dup8\n        /* \"YK Prime com tx.sol\":5677:5696  _allowances[sender] */\n      0xffffffffffffffffffffffffffffffffffffffff\n      and\n      0xffffffffffffffffffffffffffffffffffffffff\n      and\n      dup2\n      mstore\n      0x20\n      add\n      swap1\n      dup2\n      mstore\n      0x20\n      add\n      0x00\n      keccak256\n        /* \"YK Prime com tx.sol\":5677:5708  _allowances[sender][msg.sender] */\n      0x00\n        /* \"YK Prime com tx.sol\":5697:5707  msg.sender */\n      caller\n        /* \"YK Prime com tx.sol\":5677:5708  _allowances[sender][msg.sender] */\n      0xffffffffffffffffffffffffffffffffffffffff\n      and\n      0xffffffffffffffffffffffffffffffffffffffff\n      and\n      dup2\n      mstore\n      0x20\n      add\n      swap1\n      dup2\n      mstore\n      0x20\n      add\n      0x00\n      keccak256\n      0x00\n        /* \"YK Prime com tx.sol\":5677:5718  _allowances[sender][msg.sender] -= amount */\n      dup3\n      dup3\n      sload\n      tag_211\n      swap2\n      swap1\n      tag_208\n      jump\t// in\n    tag_211:\n      swap3\n      pop\n      pop\n      dup2\n      swap1\n      sstore\n      pop\n        /* \"YK Prime com tx.sol\":5753:5762  recipient */\n      dup4\n        /* \"YK Prime com tx.sol\":5736:5771  Transfer(sender, recipient, amount) */\n      0xffffffffffffffffffffffffffffffffffffffff\n      and\n        /* \"YK Prime com tx.sol\":5745:5751  sender */\n      dup6\n        /* \"YK Prime com tx.sol\":5736:5771  Transfer(sender, recipient, amount) */\n      0xffffffffffffffffffffffffffffffffffffffff\n      and\n      0xddf252ad1be2c89b69c2b068fc378daa952ba7f163c4a11628f55a4df523b3ef\n        /* \"YK Prime com tx.sol\":5764:5770  amount */\n      dup6\n        /* \"YK Prime com tx.sol\":5736:5771  Transfer(sender, recipient, amount) */\n      mload(0x40)\n      tag_212\n      swap2\n      swap1\n      tag_55\n      jump\t// in\n    tag_212:\n      mload(0x40)\n      dup1\n      swap2\n      sub\n      swap1\n      log3\n        /* \"YK Prime com tx.sol\":5784:5814  _chargeAndForwardFee(startGas) */\n      tag_213\n        /* \"YK Prime com tx.sol\":5805:5813  startGas */\n      dup2\n        /* \"YK Prime com tx.sol\":5784:5804  _chargeAndForwardFee */\n      tag_176\n        /* \"YK Prime com tx.sol\":5784:5814  _chargeAndForwardFee(startGas) */\n      jump\t// in\n    tag_213:\n        /* \"YK Prime com tx.sol\":5834:5838  true */\n      0x01\n        /* \"YK Prime com tx.sol\":5827:5838  return true */\n      swap2\n      pop\n      pop\n        /* \"YK Prime com tx.sol\":5122:5846  function transferFrom(address sender, address recipient, uint256 amount) public payable whenNotPaused whenActive returns (bool) {... */\n      swap4\n      swap3\n      pop\n      pop\n      pop\n      jump\t// out\n        /* \"YK Prime com tx.sol\":6151:6260  function getOriginalName() public view returns (string memory) {... */\n    tag_71:\n        /* \"YK Prime com tx.sol\":6199:6212  string memory */\n      0x60\n        /* \"YK Prime com tx.sol\":6232:6245  btcbrOriginal */\n      0x08\n      0x00\n      swap1\n      sload\n      swap1\n      0x0100\n      exp\n      swap1\n      div\n      0xffffffffffffffffffffffffffffffffffffffff\n      and\n        /* \"YK Prime com tx.sol\":6232:6250  btcbrOriginal.name */\n      0xffffffffffffffffffffffffffffffffffffffff\n      and\n      0x06fdde03\n        /* \"YK Prime com tx.sol\":6232:6252  btcbrOriginal.name() */\n      mload(0x40)\n      dup2\n      0xffffffff\n      and\n      0xe0\n      shl\n      dup2\n      mstore\n      0x04\n      add\n      0x00\n      mload(0x40)\n      dup1\n      dup4\n      sub\n      dup2\n      dup7\n      gas\n      staticcall\n      iszero\n      dup1\n      iszero\n      tag_216\n      jumpi\n      returndatacopy(0x00, 0x00, returndatasize)\n      revert(0x00, returndatasize)\n    tag_216:\n      pop\n      pop\n      pop\n      pop\n      mload(0x40)\n      returndatasize\n      0x00\n      dup3\n      returndatacopy\n      returndatasize\n      not(0x1f)\n      0x1f\n      dup3\n      add\n      and\n      dup3\n      add\n      dup1\n      0x40\n      mstore\n      pop\n      dup2\n      add\n      swap1\n      tag_217\n      swap2\n      swap1\n      tag_218\n      jump\t// in\n    tag_217:\n        /* \"YK Prime com tx.sol\":6225:6252  return btcbrOriginal.name() */\n      swap1\n      pop\n        /* \"YK Prime com tx.sol\":6151:6260  function getOriginalName() public view returns (string memory) {... */\n      swap1\n      jump\t// out\n        /* \"YK Prime com tx.sol\":1334:1372  uint8 public decimals = TOKEN_DECIMALS */\n    tag_75:\n      0x02\n      0x00\n      swap1\n      sload\n      swap1\n      0x0100\n      exp\n      swap1\n      div\n      0xff\n      and\n      dup2\n      jump\t// out\n        /* \"YK Prime com tx.sol\":3304:3409  function unpause() public onlyOwner {... */\n    tag_80:\n        /* \"YK Prime com tx.sol\":2610:2623  contractOwner */\n      0x05\n      0x00\n      swap1\n      sload\n      swap1\n      0x0100\n      exp\n      swap1\n      div\n      0xffffffffffffffffffffffffffffffffffffffff\n      and\n        /* \"YK Prime com tx.sol\":2596:2623  msg.sender == contractOwner */\n      0xffffffffffffffffffffffffffffffffffffffff\n      and\n        /* \"YK Prime com tx.sol\":2596:2606  msg.sender */\n      caller\n        /* \"YK Prime com tx.sol\":2596:2623  msg.sender == contractOwner */\n      0xffffffffffffffffffffffffffffffffffffffff\n      and\n      eq\n        /* \"YK Prime com tx.sol\":2588:2661  require(msg.sender == contractOwner, \"Only owner can call this function\") */\n      tag_220\n      jumpi\n      mload(0x40)\n      0x08c379a000000000000000000000000000000000000000000000000000000000\n      dup2\n      mstore\n      0x04\n      add\n      tag_221\n      swap1\n      tag_180\n      jump\t// in\n    tag_221:\n      mload(0x40)\n      dup1\n      swap2\n      sub\n      swap1\n      revert\n    tag_220:\n        /* \"YK Prime com tx.sol\":3360:3365  false */\n      0x00\n        /* \"YK Prime com tx.sol\":3351:3357  paused */\n      0x05\n      0x14\n        /* \"YK Prime com tx.sol\":3351:3365  paused = false */\n      0x0100\n      exp\n      dup2\n      sload\n      dup2\n      0xff\n      mul\n      not\n      and\n      swap1\n      dup4\n      iszero\n      iszero\n      mul\n      or\n      swap1\n      sstore\n      pop\n        /* \"YK Prime com tx.sol\":3390:3400  msg.sender */\n      caller\n        /* \"YK Prime com tx.sol\":3381:3401  Unpaused(msg.sender) */\n      0xffffffffffffffffffffffffffffffffffffffff\n      and\n      0x5db9ee0a495bf2e6ff9c91a7834c1ba4fdd244a5e8aa4e537bd38aeae4b073aa\n      mload(0x40)\n      mload(0x40)\n      dup1\n      swap2\n      sub\n      swap1\n      log2\n        /* \"YK Prime com tx.sol\":3304:3409  function unpause() public onlyOwner {... */\n      jump\t// out\n        /* \"YK Prime com tx.sol\":1605:1632  bool public lockedForUpdate */\n    tag_83:\n      0x05\n      0x16\n      swap1\n      sload\n      swap1\n      0x0100\n      exp\n      swap1\n      div\n      0xff\n      and\n      dup2\n      jump\t// out\n        /* \"YK Prime com tx.sol\":1551:1569  bool public paused */\n    tag_87:\n      0x05\n      0x14\n      swap1\n      sload\n      swap1\n      0x0100\n      exp\n      swap1\n      div\n      0xff\n      and\n      dup2\n      jump\t// out\n        /* \"YK Prime com tx.sol\":6514:6734  function getOriginalBalance(address account) public returns (uint256) {... */\n    tag_93:\n        /* \"YK Prime com tx.sol\":6575:6582  uint256 */\n      0x00\n        /* \"YK Prime com tx.sol\":6595:6610  uint256 balance */\n      0x00\n        /* \"YK Prime com tx.sol\":6613:6626  btcbrOriginal */\n      0x08\n      0x00\n      swap1\n      sload\n      swap1\n      0x0100\n      exp\n      swap1\n      div\n      0xffffffffffffffffffffffffffffffffffffffff\n      and\n        /* \"YK Prime com tx.sol\":6613:6636  btcbrOriginal.balanceOf */\n      0xffffffffffffffffffffffffffffffffffffffff\n      and\n      0x70a08231\n        /* \"YK Prime com tx.sol\":6637:6644  account */\n      dup5\n        /* \"YK Prime com tx.sol\":6613:6645  btcbrOriginal.balanceOf(account) */\n      mload(0x40)\n      dup3\n      0xffffffff\n      and\n      0xe0\n      shl\n      dup2\n      mstore\n      0x04\n      add\n      tag_224\n      swap2\n      swap1\n      tag_131\n      jump\t// in\n    tag_224:\n      0x20\n      mload(0x40)\n      dup1\n      dup4\n      sub\n      dup2\n      dup7\n      gas\n      staticcall\n      iszero\n      dup1\n      iszero\n      tag_226\n      jumpi\n      returndatacopy(0x00, 0x00, returndatasize)\n      revert(0x00, returndatasize)\n    tag_226:\n      pop\n      pop\n      pop\n      pop\n      mload(0x40)\n      returndatasize\n      not(0x1f)\n      0x1f\n      dup3\n      add\n      and\n      dup3\n      add\n      dup1\n      0x40\n      mstore\n      pop\n      dup2\n      add\n      swap1\n      tag_227\n      swap2\n      swap1\n      tag_186\n      jump\t// in\n    tag_227:\n        /* \"YK Prime com tx.sol\":6595:6645  uint256 balance = btcbrOriginal.balanceOf(account) */\n      swap1\n      pop\n        /* \"YK Prime com tx.sol\":6684:6691  account */\n      dup3\n        /* \"YK Prime com tx.sol\":6661:6701  OriginalBalanceChecked(account, balance) */\n      0xffffffffffffffffffffffffffffffffffffffff\n      and\n      0xdbd71032b7681ee8e00cb6f187d955fdfc8cfb5302b98a717b033ab45bf21e64\n        /* \"YK Prime com tx.sol\":6693:6700  balance */\n      dup3\n        /* \"YK Prime com tx.sol\":6661:6701  OriginalBalanceChecked(account, balance) */\n      mload(0x40)\n      tag_228\n      swap2\n      swap1\n      tag_55\n      jump\t// in\n    tag_228:\n      mload(0x40)\n      dup1\n      swap2\n      sub\n      swap1\n      log2\n        /* \"YK Prime com tx.sol\":6719:6726  balance */\n      dup1\n        /* \"YK Prime com tx.sol\":6712:6726  return balance */\n      swap2\n      pop\n      pop\n        /* \"YK Prime com tx.sol\":6514:6734  function getOriginalBalance(address account) public returns (uint256) {... */\n      swap2\n      swap1\n      pop\n      jump\t// out\n        /* \"YK Prime com tx.sol\":1455:1493  string public logoURI = TOKEN_LOGO_URI */\n    tag_97:\n      0x04\n      dup1\n      sload\n      tag_229\n      swap1\n      tag_157\n      jump\t// in\n    tag_229:\n      dup1\n      0x1f\n      add\n      0x20\n      dup1\n      swap2\n      div\n      mul\n      0x20\n      add\n      mload(0x40)\n      swap1\n      dup2\n      add\n      0x40\n      mstore\n      dup1\n      swap3\n      swap2\n      swap1\n      dup2\n      dup2\n      mstore\n      0x20\n      add\n      dup3\n      dup1\n      sload\n      tag_230\n      swap1\n      tag_157\n      jump\t// in\n    tag_230:\n      dup1\n      iszero\n      tag_231\n      jumpi\n      dup1\n      0x1f\n      lt\n      tag_232\n      jumpi\n      0x0100\n      dup1\n      dup4\n      sload\n      div\n      mul\n      dup4\n      mstore\n      swap2\n      0x20\n      add\n      swap2\n      jump(tag_231)\n    tag_232:\n      dup3\n      add\n      swap2\n      swap1\n      0x00\n      mstore\n      keccak256(0x00, 0x20)\n      swap1\n    tag_233:\n      dup2\n      sload\n      dup2\n      mstore\n      swap1\n      0x01\n      add\n      swap1\n      0x20\n      add\n      dup1\n      dup4\n      gt\n      tag_233\n      jumpi\n      dup3\n      swap1\n      sub\n      0x1f\n      and\n      dup3\n      add\n      swap2\n    tag_231:\n      pop\n      pop\n      pop\n      pop\n      pop\n      dup2\n      jump\t// out\n        /* \"YK Prime com tx.sol\":5854:5964  function balanceOf(address account) public view returns (uint256) {... */\n    tag_102:\n        /* \"YK Prime com tx.sol\":5911:5918  uint256 */\n      0x00\n        /* \"YK Prime com tx.sol\":5938:5947  _balances */\n      0x06\n        /* \"YK Prime com tx.sol\":5938:5956  _balances[account] */\n      0x00\n        /* \"YK Prime com tx.sol\":5948:5955  account */\n      dup4\n        /* \"YK Prime com tx.sol\":5938:5956  _balances[account] */\n      0xffffffffffffffffffffffffffffffffffffffff\n      and\n      0xffffffffffffffffffffffffffffffffffffffff\n      and\n      dup2\n      mstore\n      0x20\n      add\n      swap1\n      dup2\n      mstore\n      0x20\n      add\n      0x00\n      keccak256\n      sload\n        /* \"YK Prime com tx.sol\":5931:5956  return _balances[account] */\n      swap1\n      pop\n        /* \"YK Prime com tx.sol\":5854:5964  function balanceOf(address account) public view returns (uint256) {... */\n      swap2\n      swap1\n      pop\n      jump\t// out\n        /* \"YK Prime com tx.sol\":3958:4039  function lockUpdates() public onlyOwner {... */\n    tag_106:\n        /* \"YK Prime com tx.sol\":2610:2623  contractOwner */\n      0x05\n      0x00\n      swap1\n      sload\n      swap1\n      0x0100\n      exp\n      swap1\n      div\n      0xffffffffffffffffffffffffffffffffffffffff\n      and\n        /* \"YK Prime com tx.sol\":2596:2623  msg.sender == contractOwner */\n      0xffffffffffffffffffffffffffffffffffffffff\n      and\n        /* \"YK Prime com tx.sol\":2596:2606  msg.sender */\n      caller\n        /* \"YK Prime com tx.sol\":2596:2623  msg.sender == contractOwner */\n      0xffffffffffffffffffffffffffffffffffffffff\n      and\n      eq\n        /* \"YK Prime com tx.sol\":2588:2661  require(msg.sender == contractOwner, \"Only owner can call this function\") */\n      tag_236\n      jumpi\n      mload(0x40)\n      0x08c379a000000000000000000000000000000000000000000000000000000000\n      dup2\n      mstore\n      0x04\n      add\n      tag_237\n      swap1\n      tag_180\n      jump\t// in\n    tag_237:\n      mload(0x40)\n      dup1\n      swap2\n      sub\n      swap1\n      revert\n    tag_236:\n        /* \"YK Prime com tx.sol\":4027:4031  true */\n      0x01\n        /* \"YK Prime com tx.sol\":4009:4024  lockedForUpdate */\n      0x05\n      0x16\n        /* \"YK Prime com tx.sol\":4009:4031  lockedForUpdate = true */\n      0x0100\n      exp\n      dup2\n      sload\n      dup2\n      0xff\n      mul\n      not\n      and\n      swap1\n      dup4\n      iszero\n      iszero\n      mul\n      or\n      swap1\n      sstore\n      pop\n        /* \"YK Prime com tx.sol\":3958:4039  function lockUpdates() public onlyOwner {... */\n      jump\t// out\n        /* \"YK Prime com tx.sol\":3196:3296  function pause() public onlyOwner {... */\n    tag_109:\n        /* \"YK Prime com tx.sol\":2610:2623  contractOwner */\n      0x05\n      0x00\n      swap1\n      sload\n      swap1\n      0x0100\n      exp\n      swap1\n      div\n      0xffffffffffffffffffffffffffffffffffffffff\n      and\n        /* \"YK Prime com tx.sol\":2596:2623  msg.sender == contractOwner */\n      0xffffffffffffffffffffffffffffffffffffffff\n      and\n        /* \"YK Prime com tx.sol\":2596:2606  msg.sender */\n      caller\n        /* \"YK Prime com tx.sol\":2596:2623  msg.sender == contractOwner */\n      0xffffffffffffffffffffffffffffffffffffffff\n      and\n      eq\n        /* \"YK Prime com tx.sol\":2588:2661  require(msg.sender == contractOwner, \"Only owner can call this function\") */\n      tag_240\n      jumpi\n      mload(0x40)\n      0x08c379a000000000000000000000000000000000000000000000000000000000\n      dup2\n      mstore\n      0x04\n      add\n      tag_241\n      swap1\n      tag_180\n      jump\t// in\n    tag_241:\n      mload(0x40)\n      dup1\n      swap2\n      sub\n      swap1\n      revert\n    tag_240:\n        /* \"YK Prime com tx.sol\":3250:3254  true */\n      0x01\n        /* \"YK Prime com tx.sol\":3241:3247  paused */\n      0x05\n      0x14\n        /* \"YK Prime com tx.sol\":3241:3254  paused = true */\n      0x0100\n      exp\n      dup2\n      sload\n      dup2\n      0xff\n      mul\n      not\n      and\n      swap1\n      dup4\n      iszero\n      iszero\n      mul\n      or\n      swap1\n      sstore\n      pop\n        /* \"YK Prime com tx.sol\":3277:3287  msg.sender */\n      caller\n        /* \"YK Prime com tx.sol\":3270:3288  Paused(msg.sender) */\n      0xffffffffffffffffffffffffffffffffffffffff\n      and\n      0x62e78cea01bee320cd4e420270b5ea74000d11b0c9f74754ebdbfc544b05a258\n      mload(0x40)\n      mload(0x40)\n      dup1\n      swap2\n      sub\n      swap1\n      log2\n        /* \"YK Prime com tx.sol\":3196:3296  function pause() public onlyOwner {... */\n      jump\t// out\n        /* \"YK Prime com tx.sol\":3788:3950  function updateSettings(string memory newLogoURI) public onlyOwner whenUnlocked {... */\n    tag_114:\n        /* \"YK Prime com tx.sol\":2610:2623  contractOwner */\n      0x05\n      0x00\n      swap1\n      sload\n      swap1\n      0x0100\n      exp\n      swap1\n      div\n      0xffffffffffffffffffffffffffffffffffffffff\n      and\n        /* \"YK Prime com tx.sol\":2596:2623  msg.sender == contractOwner */\n      0xffffffffffffffffffffffffffffffffffffffff\n      and\n        /* \"YK Prime com tx.sol\":2596:2606  msg.sender */\n      caller\n        /* \"YK Prime com tx.sol\":2596:2623  msg.sender == contractOwner */\n      0xffffffffffffffffffffffffffffffffffffffff\n      and\n      eq\n        /* \"YK Prime com tx.sol\":2588:2661  require(msg.sender == contractOwner, \"Only owner can call this function\") */\n      tag_244\n      jumpi\n      mload(0x40)\n      0x08c379a000000000000000000000000000000000000000000000000000000000\n      dup2\n      mstore\n      0x04\n      add\n      tag_245\n      swap1\n      tag_180\n      jump\t// in\n    tag_245:\n      mload(0x40)\n      dup1\n      swap2\n      sub\n      swap1\n      revert\n    tag_244:\n        /* \"YK Prime com tx.sol\":2951:2966  lockedForUpdate */\n      0x05\n      0x16\n      swap1\n      sload\n      swap1\n      0x0100\n      exp\n      swap1\n      div\n      0xff\n      and\n        /* \"YK Prime com tx.sol\":2950:2966  !lockedForUpdate */\n      iszero\n        /* \"YK Prime com tx.sol\":2942:2989  require(!lockedForUpdate, \"Updates are locked\") */\n      tag_247\n      jumpi\n      mload(0x40)\n      0x08c379a000000000000000000000000000000000000000000000000000000000\n      dup2\n      mstore\n      0x04\n      add\n      tag_248\n      swap1\n      tag_249\n      jump\t// in\n    tag_248:\n      mload(0x40)\n      dup1\n      swap2\n      sub\n      swap1\n      revert\n    tag_247:\n        /* \"YK Prime com tx.sol\":3889:3899  newLogoURI */\n      dup1\n        /* \"YK Prime com tx.sol\":3879:3886  logoURI */\n      0x04\n        /* \"YK Prime com tx.sol\":3879:3899  logoURI = newLogoURI */\n      swap1\n      dup2\n      tag_251\n      swap2\n      swap1\n      tag_252\n      jump\t// in\n    tag_251:\n      pop\n        /* \"YK Prime com tx.sol\":3915:3942  SettingsUpdated(newLogoURI) */\n      0xc059db0a2349eaa5d107d9598d56ad83aa565bd7c132ac1fbfe8f86f0ee4ea76\n        /* \"YK Prime com tx.sol\":3931:3941  newLogoURI */\n      dup2\n        /* \"YK Prime com tx.sol\":3915:3942  SettingsUpdated(newLogoURI) */\n      mload(0x40)\n      tag_253\n      swap2\n      swap1\n      tag_41\n      jump\t// in\n    tag_253:\n      mload(0x40)\n      dup1\n      swap2\n      sub\n      swap1\n      log1\n        /* \"YK Prime com tx.sol\":3788:3950  function updateSettings(string memory newLogoURI) public onlyOwner whenUnlocked {... */\n      pop\n      jump\t// out\n        /* \"YK Prime com tx.sol\":1292:1327  string public symbol = TOKEN_SYMBOL */\n    tag_117:\n      0x01\n      dup1\n      sload\n      tag_254\n      swap1\n      tag_157\n      jump\t// in\n    tag_254:\n      dup1\n      0x1f\n      add\n      0x20\n      dup1\n      swap2\n      div\n      mul\n      0x20\n      add\n      mload(0x40)\n      swap1\n      dup2\n      add\n      0x40\n      mstore\n      dup1\n      swap3\n      swap2\n      swap1\n      dup2\n      dup2\n      mstore\n      0x20\n      add\n      dup3\n      dup1\n      sload\n      tag_255\n      swap1\n      tag_157\n      jump\t// in\n    tag_255:\n      dup1\n      iszero\n      tag_256\n      jumpi\n      dup1\n      0x1f\n      lt\n      tag_257\n      jumpi\n      0x0100\n      dup1\n      dup4\n      sload\n      div\n      mul\n      dup4\n      mstore\n      swap2\n      0x20\n      add\n      swap2\n      jump(tag_256)\n    tag_257:\n      dup3\n      add\n      swap2\n      swap1\n      0x00\n      mstore\n      keccak256(0x00, 0x20)\n      swap1\n    tag_258:\n      dup2\n      sload\n      dup2\n      mstore\n      swap1\n      0x01\n      add\n      swap1\n      0x20\n      add\n      dup1\n      dup4\n      gt\n      tag_258\n      jumpi\n      dup3\n      swap1\n      sub\n      0x1f\n      and\n      dup3\n      add\n      swap2\n    tag_256:\n      pop\n      pop\n      pop\n      pop\n      pop\n      dup2\n      jump\t// out\n        /* \"YK Prime com tx.sol\":6268:6381  function getOriginalSymbol() public view returns (string memory) {... */\n    tag_121:\n        /* \"YK Prime com tx.sol\":6318:6331  string memory */\n      0x60\n        /* \"YK Prime com tx.sol\":6351:6364  btcbrOriginal */\n      0x08\n      0x00\n      swap1\n      sload\n      swap1\n      0x0100\n      exp\n      swap1\n      div\n      0xffffffffffffffffffffffffffffffffffffffff\n      and\n        /* \"YK Prime com tx.sol\":6351:6371  btcbrOriginal.symbol */\n      0xffffffffffffffffffffffffffffffffffffffff\n      and\n      0x95d89b41\n        /* \"YK Prime com tx.sol\":6351:6373  btcbrOriginal.symbol() */\n      mload(0x40)\n      dup2\n      0xffffffff\n      and\n      0xe0\n      shl\n      dup2\n      mstore\n      0x04\n      add\n      0x00\n      mload(0x40)\n      dup1\n      dup4\n      sub\n      dup2\n      dup7\n      gas\n      staticcall\n      iszero\n      dup1\n      iszero\n      tag_261\n      jumpi\n      returndatacopy(0x00, 0x00, returndatasize)\n      revert(0x00, returndatasize)\n    tag_261:\n      pop\n      pop\n      pop\n      pop\n      mload(0x40)\n      returndatasize\n      0x00\n      dup3\n      returndatacopy\n      returndatasize\n      not(0x1f)\n      0x1f\n      dup3\n      add\n      and\n      dup3\n      add\n      dup1\n      0x40\n      mstore\n      pop\n      dup2\n      add\n      swap1\n      tag_262\n      swap2\n      swap1\n      tag_218\n      jump\t// in\n    tag_262:\n        /* \"YK Prime com tx.sol\":6344:6373  return btcbrOriginal.symbol() */\n      swap1\n      pop\n        /* \"YK Prime com tx.sol\":6268:6381  function getOriginalSymbol() public view returns (string memory) {... */\n      swap1\n      jump\t// out\n        /* \"YK Prime com tx.sol\":4079:4710  function transfer(address recipient, uint256 amount) public payable whenNotPaused whenActive returns (bool) {... */\n    tag_125:\n        /* \"YK Prime com tx.sol\":4181:4185  bool */\n      0x00\n        /* \"YK Prime com tx.sol\":2734:2740  paused */\n      0x05\n      0x14\n      swap1\n      sload\n      swap1\n      0x0100\n      exp\n      swap1\n      div\n      0xff\n      and\n        /* \"YK Prime com tx.sol\":2733:2740  !paused */\n      iszero\n        /* \"YK Prime com tx.sol\":2725:2763  require(!paused, \"Contract is paused\") */\n      tag_264\n      jumpi\n      mload(0x40)\n      0x08c379a000000000000000000000000000000000000000000000000000000000\n      dup2\n      mstore\n      0x04\n      add\n      tag_265\n      swap1\n      tag_165\n      jump\t// in\n    tag_265:\n      mload(0x40)\n      dup1\n      swap2\n      sub\n      swap1\n      revert\n    tag_264:\n        /* \"YK Prime com tx.sol\":2833:2843  terminated */\n      0x05\n      0x15\n      swap1\n      sload\n      swap1\n      0x0100\n      exp\n      swap1\n      div\n      0xff\n      and\n        /* \"YK Prime com tx.sol\":2832:2843  !terminated */\n      iszero\n        /* \"YK Prime com tx.sol\":2824:2879  require(!terminated, \"Contract permanently terminated\") */\n      tag_267\n      jumpi\n      mload(0x40)\n      0x08c379a000000000000000000000000000000000000000000000000000000000\n      dup2\n      mstore\n      0x04\n      add\n      tag_268\n      swap1\n      tag_169\n      jump\t// in\n    tag_268:\n      mload(0x40)\n      dup1\n      swap2\n      sub\n      swap1\n      revert\n    tag_267:\n        /* \"YK Prime com tx.sol\":4227:4230  0x0 */\n      0x00\n        /* \"YK Prime com tx.sol\":4206:4231  recipient != address(0x0) */\n      0xffffffffffffffffffffffffffffffffffffffff\n      and\n        /* \"YK Prime com tx.sol\":4206:4215  recipient */\n      dup4\n        /* \"YK Prime com tx.sol\":4206:4231  recipient != address(0x0) */\n      0xffffffffffffffffffffffffffffffffffffffff\n      and\n      sub\n        /* \"YK Prime com tx.sol\":4198:4260  require(recipient != address(0x0), \"Transfer to zero address\") */\n      tag_270\n      jumpi\n      mload(0x40)\n      0x08c379a000000000000000000000000000000000000000000000000000000000\n      dup2\n      mstore\n      0x04\n      add\n      tag_271\n      swap1\n      tag_272\n      jump\t// in\n    tag_271:\n      mload(0x40)\n      dup1\n      swap2\n      sub\n      swap1\n      revert\n    tag_270:\n        /* \"YK Prime com tx.sol\":4288:4289  0 */\n      0x00\n        /* \"YK Prime com tx.sol\":4279:4285  amount */\n      dup3\n        /* \"YK Prime com tx.sol\":4279:4289  amount > 0 */\n      gt\n        /* \"YK Prime com tx.sol\":4271:4312  require(amount > 0, \"Amount must be > 0\") */\n      tag_273\n      jumpi\n      mload(0x40)\n      0x08c379a000000000000000000000000000000000000000000000000000000000\n      dup2\n      mstore\n      0x04\n      add\n      tag_274\n      swap1\n      tag_200\n      jump\t// in\n    tag_274:\n      mload(0x40)\n      dup1\n      swap2\n      sub\n      swap1\n      revert\n    tag_273:\n        /* \"YK Prime com tx.sol\":4356:4362  amount */\n      dup2\n        /* \"YK Prime com tx.sol\":4331:4340  _balances */\n      0x06\n        /* \"YK Prime com tx.sol\":4331:4352  _balances[msg.sender] */\n      0x00\n        /* \"YK Prime com tx.sol\":4341:4351  msg.sender */\n      caller\n        /* \"YK Prime com tx.sol\":4331:4352  _balances[msg.sender] */\n      0xffffffffffffffffffffffffffffffffffffffff\n      and\n      0xffffffffffffffffffffffffffffffffffffffff\n      and\n      dup2\n      mstore\n      0x20\n      add\n      swap1\n      dup2\n      mstore\n      0x20\n      add\n      0x00\n      keccak256\n      sload\n        /* \"YK Prime com tx.sol\":4331:4362  _balances[msg.sender] >= amount */\n      lt\n      iszero\n        /* \"YK Prime com tx.sol\":4323:4387  require(_balances[msg.sender] >= amount, \"Insufficient balance\") */\n      tag_275\n      jumpi\n      mload(0x40)\n      0x08c379a000000000000000000000000000000000000000000000000000000000\n      dup2\n      mstore\n      0x04\n      add\n      tag_276\n      swap1\n      tag_203\n      jump\t// in\n    tag_276:\n      mload(0x40)\n      dup1\n      swap2\n      sub\n      swap1\n      revert\n    tag_275:\n        /* \"YK Prime com tx.sol\":4469:4485  uint256 startGas */\n      0x00\n        /* \"YK Prime com tx.sol\":4488:4497  gasleft() */\n      gas\n        /* \"YK Prime com tx.sol\":4469:4497  uint256 startGas = gasleft() */\n      swap1\n      pop\n        /* \"YK Prime com tx.sol\":4533:4539  amount */\n      dup3\n        /* \"YK Prime com tx.sol\":4508:4517  _balances */\n      0x06\n        /* \"YK Prime com tx.sol\":4508:4529  _balances[msg.sender] */\n      0x00\n        /* \"YK Prime com tx.sol\":4518:4528  msg.sender */\n      caller\n        /* \"YK Prime com tx.sol\":4508:4529  _balances[msg.sender] */\n      0xffffffffffffffffffffffffffffffffffffffff\n      and\n      0xffffffffffffffffffffffffffffffffffffffff\n      and\n      dup2\n      mstore\n      0x20\n      add\n      swap1\n      dup2\n      mstore\n      0x20\n      add\n      0x00\n      keccak256\n      0x00\n        /* \"YK Prime com tx.sol\":4508:4539  _balances[msg.sender] -= amount */\n      dup3\n      dup3\n      sload\n      tag_277\n      swap2\n      swap1\n      tag_208\n      jump\t// in\n    tag_277:\n      swap3\n      pop\n      pop\n      dup2\n      swap1\n      sstore\n      pop\n        /* \"YK Prime com tx.sol\":4574:4580  amount */\n      dup3\n        /* \"YK Prime com tx.sol\":4550:4559  _balances */\n      0x06\n        /* \"YK Prime com tx.sol\":4550:4570  _balances[recipient] */\n      0x00\n        /* \"YK Prime com tx.sol\":4560:4569  recipient */\n      dup7\n        /* \"YK Prime com tx.sol\":4550:4570  _balances[recipient] */\n      0xffffffffffffffffffffffffffffffffffffffff\n      and\n      0xffffffffffffffffffffffffffffffffffffffff\n      and\n      dup2\n      mstore\n      0x20\n      add\n      swap1\n      dup2\n      mstore\n      0x20\n      add\n      0x00\n      keccak256\n      0x00\n        /* \"YK Prime com tx.sol\":4550:4580  _balances[recipient] += amount */\n      dup3\n      dup3\n      sload\n      tag_278\n      swap2\n      swap1\n      tag_210\n      jump\t// in\n    tag_278:\n      swap3\n      pop\n      pop\n      dup2\n      swap1\n      sstore\n      pop\n        /* \"YK Prime com tx.sol\":4617:4626  recipient */\n      dup4\n        /* \"YK Prime com tx.sol\":4596:4635  Transfer(msg.sender, recipient, amount) */\n      0xffffffffffffffffffffffffffffffffffffffff\n      and\n        /* \"YK Prime com tx.sol\":4605:4615  msg.sender */\n      caller\n        /* \"YK Prime com tx.sol\":4596:4635  Transfer(msg.sender, recipient, amount) */\n      0xffffffffffffffffffffffffffffffffffffffff\n      and\n      0xddf252ad1be2c89b69c2b068fc378daa952ba7f163c4a11628f55a4df523b3ef\n        /* \"YK Prime com tx.sol\":4628:4634  amount */\n      dup6\n        /* \"YK Prime com tx.sol\":4596:4635  Transfer(msg.sender, recipient, amount) */\n      mload(0x40)\n      tag_279\n      swap2\n      swap1\n      tag_55\n      jump\t// in\n    tag_279:\n      mload(0x40)\n      dup1\n      swap2\n      sub\n      swap1\n      log3\n        /* \"YK Prime com tx.sol\":4648:4678  _chargeAndForwardFee(startGas) */\n      tag_280\n        /* \"YK Prime com tx.sol\":4669:4677  startGas */\n      dup2\n        /* \"YK Prime com tx.sol\":4648:4668  _chargeAndForwardFee */\n      tag_176\n        /* \"YK Prime com tx.sol\":4648:4678  _chargeAndForwardFee(startGas) */\n      jump\t// in\n    tag_280:\n        /* \"YK Prime com tx.sol\":4698:4702  true */\n      0x01\n        /* \"YK Prime com tx.sol\":4691:4702  return true */\n      swap2\n      pop\n      pop\n        /* \"YK Prime com tx.sol\":4079:4710  function transfer(address recipient, uint256 amount) public payable whenNotPaused whenActive returns (bool) {... */\n      swap3\n      swap2\n      pop\n      pop\n      jump\t// out\n        /* \"YK Prime com tx.sol\":1502:1544  address public contractOwner = TOKEN_OWNER */\n    tag_129:\n      0x05\n      0x00\n      swap1\n      sload\n      swap1\n      0x0100\n      exp\n      swap1\n      div\n      0xffffffffffffffffffffffffffffffffffffffff\n      and\n      dup2\n      jump\t// out\n        /* \"YK Prime com tx.sol\":5972:6106  function allowance(address owner, address spender) public view returns (uint256) {... */\n    tag_136:\n        /* \"YK Prime com tx.sol\":6044:6051  uint256 */\n      0x00\n        /* \"YK Prime com tx.sol\":6071:6082  _allowances */\n      0x07\n        /* \"YK Prime com tx.sol\":6071:6089  _allowances[owner] */\n      0x00\n        /* \"YK Prime com tx.sol\":6083:6088  owner */\n      dup5\n        /* \"YK Prime com tx.sol\":6071:6089  _allowances[owner] */\n      0xffffffffffffffffffffffffffffffffffffffff\n      and\n      0xffffffffffffffffffffffffffffffffffffffff\n      and\n      dup2\n      mstore\n      0x20\n      add\n      swap1\n      dup2\n      mstore\n      0x20\n      add\n      0x00\n      keccak256\n        /* \"YK Prime com tx.sol\":6071:6098  _allowances[owner][spender] */\n      0x00\n        /* \"YK Prime com tx.sol\":6090:6097  spender */\n      dup4\n        /* \"YK Prime com tx.sol\":6071:6098  _allowances[owner][spender] */\n      0xffffffffffffffffffffffffffffffffffffffff\n      and\n      0xffffffffffffffffffffffffffffffffffffffff\n      and\n      dup2\n      mstore\n      0x20\n      add\n      swap1\n      dup2\n      mstore\n      0x20\n      add\n      0x00\n      keccak256\n      sload\n        /* \"YK Prime com tx.sol\":6064:6098  return _allowances[owner][spender] */\n      swap1\n      pop\n        /* \"YK Prime com tx.sol\":5972:6106  function allowance(address owner, address spender) public view returns (uint256) {... */\n      swap3\n      swap2\n      pop\n      pop\n      jump\t// out\n        /* \"YK Prime com tx.sol\":3537:3780  function transferOwnership(address newOwner) public onlyOwner {... */\n    tag_141:\n        /* \"YK Prime com tx.sol\":2610:2623  contractOwner */\n      0x05\n      0x00\n      swap1\n      sload\n      swap1\n      0x0100\n      exp\n      swap1\n      div\n      0xffffffffffffffffffffffffffffffffffffffff\n      and\n        /* \"YK Prime com tx.sol\":2596:2623  msg.sender == contractOwner */\n      0xffffffffffffffffffffffffffffffffffffffff\n      and\n        /* \"YK Prime com tx.sol\":2596:2606  msg.sender */\n      caller\n        /* \"YK Prime com tx.sol\":2596:2623  msg.sender == contractOwner */\n      0xffffffffffffffffffffffffffffffffffffffff\n      and\n      eq\n        /* \"YK Prime com tx.sol\":2588:2661  require(msg.sender == contractOwner, \"Only owner can call this function\") */\n      tag_283\n      jumpi\n      mload(0x40)\n      0x08c379a000000000000000000000000000000000000000000000000000000000\n      dup2\n      mstore\n      0x04\n      add\n      tag_284\n      swap1\n      tag_180\n      jump\t// in\n    tag_284:\n      mload(0x40)\n      dup1\n      swap2\n      sub\n      swap1\n      revert\n    tag_283:\n        /* \"YK Prime com tx.sol\":3638:3641  0x0 */\n      0x00\n        /* \"YK Prime com tx.sol\":3618:3642  newOwner != address(0x0) */\n      0xffffffffffffffffffffffffffffffffffffffff\n      and\n        /* \"YK Prime com tx.sol\":3618:3626  newOwner */\n      dup2\n        /* \"YK Prime com tx.sol\":3618:3642  newOwner != address(0x0) */\n      0xffffffffffffffffffffffffffffffffffffffff\n      and\n      sub\n        /* \"YK Prime com tx.sol\":3610:3676  require(newOwner != address(0x0), \"New owner is the zero address\") */\n      tag_286\n      jumpi\n      mload(0x40)\n      0x08c379a000000000000000000000000000000000000000000000000000000000\n      dup2\n      mstore\n      0x04\n      add\n      tag_287\n      swap1\n      tag_288\n      jump\t// in\n    tag_287:\n      mload(0x40)\n      dup1\n      swap2\n      sub\n      swap1\n      revert\n    tag_286:\n        /* \"YK Prime com tx.sol\":3728:3736  newOwner */\n      dup1\n        /* \"YK Prime com tx.sol\":3692:3737  OwnershipTransferred(contractOwner, newOwner) */\n      0xffffffffffffffffffffffffffffffffffffffff\n      and\n        /* \"YK Prime com tx.sol\":3713:3726  contractOwner */\n      0x05\n      0x00\n      swap1\n      sload\n      swap1\n      0x0100\n      exp\n      swap1\n      div\n      0xffffffffffffffffffffffffffffffffffffffff\n      and\n        /* \"YK Prime com tx.sol\":3692:3737  OwnershipTransferred(contractOwner, newOwner) */\n      0xffffffffffffffffffffffffffffffffffffffff\n      and\n      0x8be0079c531659141344cd1fd0a4f28419497f9722a3daafe3b4186f6b6457e0\n      mload(0x40)\n      mload(0x40)\n      dup1\n      swap2\n      sub\n      swap1\n      log3\n        /* \"YK Prime com tx.sol\":3764:3772  newOwner */\n      dup1\n        /* \"YK Prime com tx.sol\":3748:3761  contractOwner */\n      0x05\n      0x00\n        /* \"YK Prime com tx.sol\":3748:3772  contractOwner = newOwner */\n      0x0100\n      exp\n      dup2\n      sload\n      dup2\n      0xffffffffffffffffffffffffffffffffffffffff\n      mul\n      not\n      and\n      swap1\n      dup4\n      0xffffffffffffffffffffffffffffffffffffffff\n      and\n      mul\n      or\n      swap1\n      sstore\n      pop\n        /* \"YK Prime com tx.sol\":3537:3780  function transferOwnership(address newOwner) public onlyOwner {... */\n      pop\n      jump\t// out\n        /* \"YK Prime com tx.sol\":6777:7240  function _chargeAndForwardFee(uint256 startGas) private {... */\n    tag_176:\n        /* \"YK Prime com tx.sol\":6844:6859  uint256 gasUsed */\n      0x00\n        /* \"YK Prime com tx.sol\":6885:6890  21000 */\n      0x5208\n        /* \"YK Prime com tx.sol\":6873:6882  gasleft() */\n      gas\n        /* \"YK Prime com tx.sol\":6862:6870  startGas */\n      dup4\n        /* \"YK Prime com tx.sol\":6862:6882  startGas - gasleft() */\n      tag_290\n      swap2\n      swap1\n      tag_208\n      jump\t// in\n    tag_290:\n        /* \"YK Prime com tx.sol\":6862:6890  startGas - gasleft() + 21000 */\n      tag_291\n      swap2\n      swap1\n      tag_210\n      jump\t// in\n    tag_291:\n        /* \"YK Prime com tx.sol\":6844:6890  uint256 gasUsed = startGas - gasleft() + 21000 */\n      swap1\n      pop\n        /* \"YK Prime com tx.sol\":6932:6951  uint256 requiredFee */\n      0x00\n        /* \"YK Prime com tx.sol\":6968:6975  gasUsed */\n      dup2\n        /* \"YK Prime com tx.sol\":6954:6965  tx.gasprice */\n      gasprice\n        /* \"YK Prime com tx.sol\":6954:6975  tx.gasprice * gasUsed */\n      tag_292\n      swap2\n      swap1\n      tag_293\n      jump\t// in\n    tag_292:\n        /* \"YK Prime com tx.sol\":6932:6975  uint256 requiredFee = tx.gasprice * gasUsed */\n      swap1\n      pop\n        /* \"YK Prime com tx.sol\":7007:7018  requiredFee */\n      dup1\n        /* \"YK Prime com tx.sol\":6994:7003  msg.value */\n      callvalue\n        /* \"YK Prime com tx.sol\":6994:7018  msg.value >= requiredFee */\n      lt\n      iszero\n        /* \"YK Prime com tx.sol\":6986:7052  require(msg.value >= requiredFee, \"Insufficient BNB sent for fee\") */\n      tag_294\n      jumpi\n      mload(0x40)\n      0x08c379a000000000000000000000000000000000000000000000000000000000\n      dup2\n      mstore\n      0x04\n      add\n      tag_295\n      swap1\n      tag_296\n      jump\t// in\n    tag_295:\n      mload(0x40)\n      dup1\n      swap2\n      sub\n      swap1\n      revert\n    tag_294:\n        /* \"YK Prime com tx.sol\":7066:7078  bool success */\n      0x00\n        /* \"YK Prime com tx.sol\":682:724  0xded1B787B4f7d36eA6d9BABb9FeC6D3E40ca1958 */\n      0xded1b787b4f7d36ea6d9babb9fec6d3e40ca1958\n        /* \"YK Prime com tx.sol\":7084:7102  FEE_RECIPIENT.call */\n      0xffffffffffffffffffffffffffffffffffffffff\n      and\n        /* \"YK Prime com tx.sol\":7110:7119  msg.value */\n      callvalue\n        /* \"YK Prime com tx.sol\":7084:7124  FEE_RECIPIENT.call{value: msg.value}(\"\") */\n      mload(0x40)\n      tag_297\n      swap1\n      tag_147\n      jump\t// in\n    tag_297:\n      0x00\n      mload(0x40)\n      dup1\n      dup4\n      sub\n      dup2\n      dup6\n      dup8\n      gas\n      call\n      swap3\n      pop\n      pop\n      pop\n      returndatasize\n      dup1\n      0x00\n      dup2\n      eq\n      tag_300\n      jumpi\n      mload(0x40)\n      swap2\n      pop\n      and(add(returndatasize, 0x3f), not(0x1f))\n      dup3\n      add\n      0x40\n      mstore\n      returndatasize\n      dup3\n      mstore\n      returndatasize\n      0x00\n      0x20\n      dup5\n      add\n      returndatacopy\n      jump(tag_299)\n    tag_300:\n      0x60\n      swap2\n      pop\n    tag_299:\n      pop\n        /* \"YK Prime com tx.sol\":7065:7124  (bool success, ) = FEE_RECIPIENT.call{value: msg.value}(\"\") */\n      pop\n      swap1\n      pop\n        /* \"YK Prime com tx.sol\":7143:7150  success */\n      dup1\n        /* \"YK Prime com tx.sol\":7135:7176  require(success, \"Forwarding BNB failed\") */\n      tag_301\n      jumpi\n      mload(0x40)\n      0x08c379a000000000000000000000000000000000000000000000000000000000\n      dup2\n      mstore\n      0x04\n      add\n      tag_302\n      swap1\n      tag_153\n      jump\t// in\n    tag_302:\n      mload(0x40)\n      dup1\n      swap2\n      sub\n      swap1\n      revert\n    tag_301:\n        /* \"YK Prime com tx.sol\":7194:7232  ForwardedBNB(msg.value, FEE_RECIPIENT) */\n      0x3d8298ea9f84556bca02dfe84535012d54d4342f5224eb690ec43dcc256b3745\n        /* \"YK Prime com tx.sol\":7207:7216  msg.value */\n      callvalue\n        /* \"YK Prime com tx.sol\":682:724  0xded1B787B4f7d36eA6d9BABb9FeC6D3E40ca1958 */\n      0xded1b787b4f7d36ea6d9babb9fec6d3e40ca1958\n        /* \"YK Prime com tx.sol\":7194:7232  ForwardedBNB(msg.value, FEE_RECIPIENT) */\n      mload(0x40)\n      tag_303\n      swap3\n      swap2\n      swap1\n      tag_155\n      jump\t// in\n    tag_303:\n      mload(0x40)\n      dup1\n      swap2\n      sub\n      swap1\n      log1\n        /* \"YK Prime com tx.sol\":6833:7240  {... */\n      pop\n      pop\n      pop\n        /* \"YK Prime com tx.sol\":6777:7240  function _chargeAndForwardFee(uint256 startGas) private {... */\n      pop\n      jump\t// out\n        /* \"#utility.yul\":7:106   */\n    tag_304:\n        /* \"#utility.yul\":59:65   */\n      0x00\n        /* \"#utility.yul\":93:98   */\n      dup2\n        /* \"#utility.yul\":87:99   */\n      mload\n        /* \"#utility.yul\":77:99   */\n      swap1\n      pop\n        /* \"#utility.yul\":7:106   */\n      swap2\n      swap1\n      pop\n      jump\t// out\n        /* \"#utility.yul\":112:281   */\n    tag_305:\n        /* \"#utility.yul\":196:207   */\n      0x00\n        /* \"#utility.yul\":230:236   */\n      dup3\n        /* \"#utility.yul\":225:228   */\n      dup3\n        /* \"#utility.yul\":218:237   */\n      mstore\n        /* \"#utility.yul\":270:274   */\n      0x20\n        /* \"#utility.yul\":265:268   */\n      dup3\n        /* \"#utility.yul\":261:275   */\n      add\n        /* \"#utility.yul\":246:275   */\n      swap1\n      pop\n        /* \"#utility.yul\":112:281   */\n      swap3\n      swap2\n      pop\n      pop\n      jump\t// out\n        /* \"#utility.yul\":287:426   */\n    tag_306:\n        /* \"#utility.yul\":376:382   */\n      dup3\n        /* \"#utility.yul\":371:374   */\n      dup2\n        /* \"#utility.yul\":366:369   */\n      dup4\n        /* \"#utility.yul\":360:383   */\n      mcopy\n        /* \"#utility.yul\":417:418   */\n      0x00\n        /* \"#utility.yul\":408:414   */\n      dup4\n        /* \"#utility.yul\":403:406   */\n      dup4\n        /* \"#utility.yul\":399:415   */\n      add\n        /* \"#utility.yul\":392:419   */\n      mstore\n        /* \"#utility.yul\":287:426   */\n      pop\n      pop\n      pop\n      jump\t// out\n        /* \"#utility.yul\":432:534   */\n    tag_307:\n        /* \"#utility.yul\":473:479   */\n      0x00\n        /* \"#utility.yul\":524:526   */\n      0x1f\n        /* \"#utility.yul\":520:527   */\n      not\n        /* \"#utility.yul\":515:517   */\n      0x1f\n        /* \"#utility.yul\":508:513   */\n      dup4\n        /* \"#utility.yul\":504:518   */\n      add\n        /* \"#utility.yul\":500:528   */\n      and\n        /* \"#utility.yul\":490:528   */\n      swap1\n      pop\n        /* \"#utility.yul\":432:534   */\n      swap2\n      swap1\n      pop\n      jump\t// out\n        /* \"#utility.yul\":540:917   */\n    tag_308:\n        /* \"#utility.yul\":628:631   */\n      0x00\n        /* \"#utility.yul\":656:695   */\n      tag_395\n        /* \"#utility.yul\":689:694   */\n      dup3\n        /* \"#utility.yul\":656:695   */\n      tag_304\n      jump\t// in\n    tag_395:\n        /* \"#utility.yul\":711:782   */\n      tag_396\n        /* \"#utility.yul\":775:781   */\n      dup2\n        /* \"#utility.yul\":770:773   */\n      dup6\n        /* \"#utility.yul\":711:782   */\n      tag_305\n      jump\t// in\n    tag_396:\n        /* \"#utility.yul\":704:782   */\n      swap4\n      pop\n        /* \"#utility.yul\":791:856   */\n      tag_397\n        /* \"#utility.yul\":849:855   */\n      dup2\n        /* \"#utility.yul\":844:847   */\n      dup6\n        /* \"#utility.yul\":837:841   */\n      0x20\n        /* \"#utility.yul\":830:835   */\n      dup7\n        /* \"#utility.yul\":826:842   */\n      add\n        /* \"#utility.yul\":791:856   */\n      tag_306\n      jump\t// in\n    tag_397:\n        /* \"#utility.yul\":881:910   */\n      tag_398\n        /* \"#utility.yul\":903:909   */\n      dup2\n        /* \"#utility.yul\":881:910   */\n      tag_307\n      jump\t// in\n    tag_398:\n        /* \"#utility.yul\":876:879   */\n      dup5\n        /* \"#utility.yul\":872:911   */\n      add\n        /* \"#utility.yul\":865:911   */\n      swap2\n      pop\n        /* \"#utility.yul\":632:917   */\n      pop\n        /* \"#utility.yul\":540:917   */\n      swap3\n      swap2\n      pop\n      pop\n      jump\t// out\n        /* \"#utility.yul\":923:1236   */\n    tag_41:\n        /* \"#utility.yul\":1036:1040   */\n      0x00\n        /* \"#utility.yul\":1074:1076   */\n      0x20\n        /* \"#utility.yul\":1063:1072   */\n      dup3\n        /* \"#utility.yul\":1059:1077   */\n      add\n        /* \"#utility.yul\":1051:1077   */\n      swap1\n      pop\n        /* \"#utility.yul\":1123:1132   */\n      dup2\n        /* \"#utility.yul\":1117:1121   */\n      dup2\n        /* \"#utility.yul\":1113:1133   */\n      sub\n        /* \"#utility.yul\":1109:1110   */\n      0x00\n        /* \"#utility.yul\":1098:1107   */\n      dup4\n        /* \"#utility.yul\":1094:1111   */\n      add\n        /* \"#utility.yul\":1087:1134   */\n      mstore\n        /* \"#utility.yul\":1151:1229   */\n      tag_400\n        /* \"#utility.yul\":1224:1228   */\n      dup2\n        /* \"#utility.yul\":1215:1221   */\n      dup5\n        /* \"#utility.yul\":1151:1229   */\n      tag_308\n      jump\t// in\n    tag_400:\n        /* \"#utility.yul\":1143:1229   */\n      swap1\n      pop\n        /* \"#utility.yul\":923:1236   */\n      swap3\n      swap2\n      pop\n      pop\n      jump\t// out\n        /* \"#utility.yul\":1242:1317   */\n    tag_309:\n        /* \"#utility.yul\":1275:1281   */\n      0x00\n        /* \"#utility.yul\":1308:1310   */\n      0x40\n        /* \"#utility.yul\":1302:1311   */\n      mload\n        /* \"#utility.yul\":1292:1311   */\n      swap1\n      pop\n        /* \"#utility.yul\":1242:1317   */\n      swap1\n      jump\t// out\n        /* \"#utility.yul\":1323:1440   */\n    tag_310:\n        /* \"#utility.yul\":1432:1433   */\n      0x00\n        /* \"#utility.yul\":1429:1430   */\n      0x00\n        /* \"#utility.yul\":1422:1434   */\n      revert\n        /* \"#utility.yul\":1446:1563   */\n    tag_311:\n        /* \"#utility.yul\":1555:1556   */\n      0x00\n        /* \"#utility.yul\":1552:1553   */\n      0x00\n        /* \"#utility.yul\":1545:1557   */\n      revert\n        /* \"#utility.yul\":1569:1695   */\n    tag_312:\n        /* \"#utility.yul\":1606:1613   */\n      0x00\n        /* \"#utility.yul\":1646:1688   */\n      0xffffffffffffffffffffffffffffffffffffffff\n        /* \"#utility.yul\":1639:1644   */\n      dup3\n        /* \"#utility.yul\":1635:1689   */\n      and\n        /* \"#utility.yul\":1624:1689   */\n      swap1\n      pop\n        /* \"#utility.yul\":1569:1695   */\n      swap2\n      swap1\n      pop\n      jump\t// out\n        /* \"#utility.yul\":1701:1797   */\n    tag_313:\n        /* \"#utility.yul\":1738:1745   */\n      0x00\n        /* \"#utility.yul\":1767:1791   */\n      tag_406\n        /* \"#utility.yul\":1785:1790   */\n      dup3\n        /* \"#utility.yul\":1767:1791   */\n      tag_312\n      jump\t// in\n    tag_406:\n        /* \"#utility.yul\":1756:1791   */\n      swap1\n      pop\n        /* \"#utility.yul\":1701:1797   */\n      swap2\n      swap1\n      pop\n      jump\t// out\n        /* \"#utility.yul\":1803:1925   */\n    tag_314:\n        /* \"#utility.yul\":1876:1900   */\n      tag_408\n        /* \"#utility.yul\":1894:1899   */\n      dup2\n        /* \"#utility.yul\":1876:1900   */\n      tag_313\n      jump\t// in\n    tag_408:\n        /* \"#utility.yul\":1869:1874   */\n      dup2\n        /* \"#utility.yul\":1866:1901   */\n      eq\n        /* \"#utility.yul\":1856:1919   */\n      tag_409\n      jumpi\n        /* \"#utility.yul\":1915:1916   */\n      0x00\n        /* \"#utility.yul\":1912:1913   */\n      0x00\n        /* \"#utility.yul\":1905:1917   */\n      revert\n        /* \"#utility.yul\":1856:1919   */\n    tag_409:\n        /* \"#utility.yul\":1803:1925   */\n      pop\n      jump\t// out\n        /* \"#utility.yul\":1931:2070   */\n    tag_315:\n        /* \"#utility.yul\":1977:1982   */\n      0x00\n        /* \"#utility.yul\":2015:2021   */\n      dup2\n        /* \"#utility.yul\":2002:2022   */\n      calldataload\n        /* \"#utility.yul\":1993:2022   */\n      swap1\n      pop\n        /* \"#utility.yul\":2031:2064   */\n      tag_411\n        /* \"#utility.yul\":2058:2063   */\n      dup2\n        /* \"#utility.yul\":2031:2064   */\n      tag_314\n      jump\t// in\n    tag_411:\n        /* \"#utility.yul\":1931:2070   */\n      swap3\n      swap2\n      pop\n      pop\n      jump\t// out\n        /* \"#utility.yul\":2076:2153   */\n    tag_316:\n        /* \"#utility.yul\":2113:2120   */\n      0x00\n        /* \"#utility.yul\":2142:2147   */\n      dup2\n        /* \"#utility.yul\":2131:2147   */\n      swap1\n      pop\n        /* \"#utility.yul\":2076:2153   */\n      swap2\n      swap1\n      pop\n      jump\t// out\n        /* \"#utility.yul\":2159:2281   */\n    tag_317:\n        /* \"#utility.yul\":2232:2256   */\n      tag_414\n        /* \"#utility.yul\":2250:2255   */\n      dup2\n        /* \"#utility.yul\":2232:2256   */\n      tag_316\n      jump\t// in\n    tag_414:\n        /* \"#utility.yul\":2225:2230   */\n      dup2\n        /* \"#utility.yul\":2222:2257   */\n      eq\n        /* \"#utility.yul\":2212:2275   */\n      tag_415\n      jumpi\n        /* \"#utility.yul\":2271:2272   */\n      0x00\n        /* \"#utility.yul\":2268:2269   */\n      0x00\n        /* \"#utility.yul\":2261:2273   */\n      revert\n        /* \"#utility.yul\":2212:2275   */\n    tag_415:\n        /* \"#utility.yul\":2159:2281   */\n      pop\n      jump\t// out\n        /* \"#utility.yul\":2287:2426   */\n    tag_318:\n        /* \"#utility.yul\":2333:2338   */\n      0x00\n        /* \"#utility.yul\":2371:2377   */\n      dup2\n        /* \"#utility.yul\":2358:2378   */\n      calldataload\n        /* \"#utility.yul\":2349:2378   */\n      swap1\n      pop\n        /* \"#utility.yul\":2387:2420   */\n      tag_417\n        /* \"#utility.yul\":2414:2419   */\n      dup2\n        /* \"#utility.yul\":2387:2420   */\n      tag_317\n      jump\t// in\n    tag_417:\n        /* \"#utility.yul\":2287:2426   */\n      swap3\n      swap2\n      pop\n      pop\n      jump\t// out\n        /* \"#utility.yul\":2432:2906   */\n    tag_44:\n        /* \"#utility.yul\":2500:2506   */\n      0x00\n        /* \"#utility.yul\":2508:2514   */\n      0x00\n        /* \"#utility.yul\":2557:2559   */\n      0x40\n        /* \"#utility.yul\":2545:2554   */\n      dup4\n        /* \"#utility.yul\":2536:2543   */\n      dup6\n        /* \"#utility.yul\":2532:2555   */\n      sub\n        /* \"#utility.yul\":2528:2560   */\n      slt\n        /* \"#utility.yul\":2525:2644   */\n      iszero\n      tag_419\n      jumpi\n        /* \"#utility.yul\":2563:2642   */\n      tag_420\n      tag_310\n      jump\t// in\n    tag_420:\n        /* \"#utility.yul\":2525:2644   */\n    tag_419:\n        /* \"#utility.yul\":2683:2684   */\n      0x00\n        /* \"#utility.yul\":2708:2761   */\n      tag_421\n        /* \"#utility.yul\":2753:2760   */\n      dup6\n        /* \"#utility.yul\":2744:2750   */\n      dup3\n        /* \"#utility.yul\":2733:2742   */\n      dup7\n        /* \"#utility.yul\":2729:2751   */\n      add\n        /* \"#utility.yul\":2708:2761   */\n      tag_315\n      jump\t// in\n    tag_421:\n        /* \"#utility.yul\":2698:2761   */\n      swap3\n      pop\n        /* \"#utility.yul\":2654:2771   */\n      pop\n        /* \"#utility.yul\":2810:2812   */\n      0x20\n        /* \"#utility.yul\":2836:2889   */\n      tag_422\n        /* \"#utility.yul\":2881:2888   */\n      dup6\n        /* \"#utility.yul\":2872:2878   */\n      dup3\n        /* \"#utility.yul\":2861:2870   */\n      dup7\n        /* \"#utility.yul\":2857:2879   */\n      add\n        /* \"#utility.yul\":2836:2889   */\n      tag_318\n      jump\t// in\n    tag_422:\n        /* \"#utility.yul\":2826:2889   */\n      swap2\n      pop\n        /* \"#utility.yul\":2781:2899   */\n      pop\n        /* \"#utility.yul\":2432:2906   */\n      swap3\n      pop\n      swap3\n      swap1\n      pop\n      jump\t// out\n        /* \"#utility.yul\":2912:3002   */\n    tag_319:\n        /* \"#utility.yul\":2946:2953   */\n      0x00\n        /* \"#utility.yul\":2989:2994   */\n      dup2\n        /* \"#utility.yul\":2982:2995   */\n      iszero\n        /* \"#utility.yul\":2975:2996   */\n      iszero\n        /* \"#utility.yul\":2964:2996   */\n      swap1\n      pop\n        /* \"#utility.yul\":2912:3002   */\n      swap2\n      swap1\n      pop\n      jump\t// out\n        /* \"#utility.yul\":3008:3117   */\n    tag_320:\n        /* \"#utility.yul\":3089:3110   */\n      tag_425\n        /* \"#utility.yul\":3104:3109   */\n      dup2\n        /* \"#utility.yul\":3089:3110   */\n      tag_319\n      jump\t// in\n    tag_425:\n        /* \"#utility.yul\":3084:3087   */\n      dup3\n        /* \"#utility.yul\":3077:3111   */\n      mstore\n        /* \"#utility.yul\":3008:3117   */\n      pop\n      pop\n      jump\t// out\n        /* \"#utility.yul\":3123:3333   */\n    tag_47:\n        /* \"#utility.yul\":3210:3214   */\n      0x00\n        /* \"#utility.yul\":3248:3250   */\n      0x20\n        /* \"#utility.yul\":3237:3246   */\n      dup3\n        /* \"#utility.yul\":3233:3251   */\n      add\n        /* \"#utility.yul\":3225:3251   */\n      swap1\n      pop\n        /* \"#utility.yul\":3261:3326   */\n      tag_427\n        /* \"#utility.yul\":3323:3324   */\n      0x00\n        /* \"#utility.yul\":3312:3321   */\n      dup4\n        /* \"#utility.yul\":3308:3325   */\n      add\n        /* \"#utility.yul\":3299:3305   */\n      dup5\n        /* \"#utility.yul\":3261:3326   */\n      tag_320\n      jump\t// in\n    tag_427:\n        /* \"#utility.yul\":3123:3333   */\n      swap3\n      swap2\n      pop\n      pop\n      jump\t// out\n        /* \"#utility.yul\":3339:3457   */\n    tag_321:\n        /* \"#utility.yul\":3426:3450   */\n      tag_429\n        /* \"#utility.yul\":3444:3449   */\n      dup2\n        /* \"#utility.yul\":3426:3450   */\n      tag_316\n      jump\t// in\n    tag_429:\n        /* \"#utility.yul\":3421:3424   */\n      dup3\n        /* \"#utility.yul\":3414:3451   */\n      mstore\n        /* \"#utility.yul\":3339:3457   */\n      pop\n      pop\n      jump\t// out\n        /* \"#utility.yul\":3463:3685   */\n    tag_55:\n        /* \"#utility.yul\":3556:3560   */\n      0x00\n        /* \"#utility.yul\":3594:3596   */\n      0x20\n        /* \"#utility.yul\":3583:3592   */\n      dup3\n        /* \"#utility.yul\":3579:3597   */\n      add\n        /* \"#utility.yul\":3571:3597   */\n      swap1\n      pop\n        /* \"#utility.yul\":3607:3678   */\n      tag_431\n        /* \"#utility.yul\":3675:3676   */\n      0x00\n        /* \"#utility.yul\":3664:3673   */\n      dup4\n        /* \"#utility.yul\":3660:3677   */\n      add\n        /* \"#utility.yul\":3651:3657   */\n      dup5\n        /* \"#utility.yul\":3607:3678   */\n      tag_321\n      jump\t// in\n    tag_431:\n        /* \"#utility.yul\":3463:3685   */\n      swap3\n      swap2\n      pop\n      pop\n      jump\t// out\n        /* \"#utility.yul\":3691:4310   */\n    tag_66:\n        /* \"#utility.yul\":3768:3774   */\n      0x00\n        /* \"#utility.yul\":3776:3782   */\n      0x00\n        /* \"#utility.yul\":3784:3790   */\n      0x00\n        /* \"#utility.yul\":3833:3835   */\n      0x60\n        /* \"#utility.yul\":3821:3830   */\n      dup5\n        /* \"#utility.yul\":3812:3819   */\n      dup7\n        /* \"#utility.yul\":3808:3831   */\n      sub\n        /* \"#utility.yul\":3804:3836   */\n      slt\n        /* \"#utility.yul\":3801:3920   */\n      iszero\n      tag_433\n      jumpi\n        /* \"#utility.yul\":3839:3918   */\n      tag_434\n      tag_310\n      jump\t// in\n    tag_434:\n        /* \"#utility.yul\":3801:3920   */\n    tag_433:\n        /* \"#utility.yul\":3959:3960   */\n      0x00\n        /* \"#utility.yul\":3984:4037   */\n      tag_435\n        /* \"#utility.yul\":4029:4036   */\n      dup7\n        /* \"#utility.yul\":4020:4026   */\n      dup3\n        /* \"#utility.yul\":4009:4018   */\n      dup8\n        /* \"#utility.yul\":4005:4027   */\n      add\n        /* \"#utility.yul\":3984:4037   */\n      tag_315\n      jump\t// in\n    tag_435:\n        /* \"#utility.yul\":3974:4037   */\n      swap4\n      pop\n        /* \"#utility.yul\":3930:4047   */\n      pop\n        /* \"#utility.yul\":4086:4088   */\n      0x20\n        /* \"#utility.yul\":4112:4165   */\n      tag_436\n        /* \"#utility.yul\":4157:4164   */\n      dup7\n        /* \"#utility.yul\":4148:4154   */\n      dup3\n        /* \"#utility.yul\":4137:4146   */\n      dup8\n        /* \"#utility.yul\":4133:4155   */\n      add\n        /* \"#utility.yul\":4112:4165   */\n      tag_315\n      jump\t// in\n    tag_436:\n        /* \"#utility.yul\":4102:4165   */\n      swap3\n      pop\n        /* \"#utility.yul\":4057:4175   */\n      pop\n        /* \"#utility.yul\":4214:4216   */\n      0x40\n        /* \"#utility.yul\":4240:4293   */\n      tag_437\n        /* \"#utility.yul\":4285:4292   */\n      dup7\n        /* \"#utility.yul\":4276:4282   */\n      dup3\n        /* \"#utility.yul\":4265:4274   */\n      dup8\n        /* \"#utility.yul\":4261:4283   */\n      add\n        /* \"#utility.yul\":4240:4293   */\n      tag_318\n      jump\t// in\n    tag_437:\n        /* \"#utility.yul\":4230:4293   */\n      swap2\n      pop\n        /* \"#utility.yul\":4185:4303   */\n      pop\n        /* \"#utility.yul\":3691:4310   */\n      swap3\n      pop\n      swap3\n      pop\n      swap3\n      jump\t// out\n        /* \"#utility.yul\":4316:4402   */\n    tag_322:\n        /* \"#utility.yul\":4351:4358   */\n      0x00\n        /* \"#utility.yul\":4391:4395   */\n      0xff\n        /* \"#utility.yul\":4384:4389   */\n      dup3\n        /* \"#utility.yul\":4380:4396   */\n      and\n        /* \"#utility.yul\":4369:4396   */\n      swap1\n      pop\n        /* \"#utility.yul\":4316:4402   */\n      swap2\n      swap1\n      pop\n      jump\t// out\n        /* \"#utility.yul\":4408:4520   */\n    tag_323:\n        /* \"#utility.yul\":4491:4513   */\n      tag_440\n        /* \"#utility.yul\":4507:4512   */\n      dup2\n        /* \"#utility.yul\":4491:4513   */\n      tag_322\n      jump\t// in\n    tag_440:\n        /* \"#utility.yul\":4486:4489   */\n      dup3\n        /* \"#utility.yul\":4479:4514   */\n      mstore\n        /* \"#utility.yul\":4408:4520   */\n      pop\n      pop\n      jump\t// out\n        /* \"#utility.yul\":4526:4740   */\n    tag_77:\n        /* \"#utility.yul\":4615:4619   */\n      0x00\n        /* \"#utility.yul\":4653:4655   */\n      0x20\n        /* \"#utility.yul\":4642:4651   */\n      dup3\n        /* \"#utility.yul\":4638:4656   */\n      add\n        /* \"#utility.yul\":4630:4656   */\n      swap1\n      pop\n        /* \"#utility.yul\":4666:4733   */\n      tag_442\n        /* \"#utility.yul\":4730:4731   */\n      0x00\n        /* \"#utility.yul\":4719:4728   */\n      dup4\n        /* \"#utility.yul\":4715:4732   */\n      add\n        /* \"#utility.yul\":4706:4712   */\n      dup5\n        /* \"#utility.yul\":4666:4733   */\n      tag_323\n      jump\t// in\n    tag_442:\n        /* \"#utility.yul\":4526:4740   */\n      swap3\n      swap2\n      pop\n      pop\n      jump\t// out\n        /* \"#utility.yul\":4746:5075   */\n    tag_92:\n        /* \"#utility.yul\":4805:4811   */\n      0x00\n        /* \"#utility.yul\":4854:4856   */\n      0x20\n        /* \"#utility.yul\":4842:4851   */\n      dup3\n        /* \"#utility.yul\":4833:4840   */\n      dup5\n        /* \"#utility.yul\":4829:4852   */\n      sub\n        /* \"#utility.yul\":4825:4857   */\n      slt\n        /* \"#utility.yul\":4822:4941   */\n      iszero\n      tag_444\n      jumpi\n        /* \"#utility.yul\":4860:4939   */\n      tag_445\n      tag_310\n      jump\t// in\n    tag_445:\n        /* \"#utility.yul\":4822:4941   */\n    tag_444:\n        /* \"#utility.yul\":4980:4981   */\n      0x00\n        /* \"#utility.yul\":5005:5058   */\n      tag_446\n        /* \"#utility.yul\":5050:5057   */\n      dup5\n        /* \"#utility.yul\":5041:5047   */\n      dup3\n        /* \"#utility.yul\":5030:5039   */\n      dup6\n        /* \"#utility.yul\":5026:5048   */\n      add\n        /* \"#utility.yul\":5005:5058   */\n      tag_315\n      jump\t// in\n    tag_446:\n        /* \"#utility.yul\":4995:5058   */\n      swap2\n      pop\n        /* \"#utility.yul\":4951:5068   */\n      pop\n        /* \"#utility.yul\":4746:5075   */\n      swap3\n      swap2\n      pop\n      pop\n      jump\t// out\n        /* \"#utility.yul\":5081:5198   */\n    tag_324:\n        /* \"#utility.yul\":5190:5191   */\n      0x00\n        /* \"#utility.yul\":5187:5188   */\n      0x00\n        /* \"#utility.yul\":5180:5192   */\n      revert\n        /* \"#utility.yul\":5204:5321   */\n    tag_325:\n        /* \"#utility.yul\":5313:5314   */\n      0x00\n        /* \"#utility.yul\":5310:5311   */\n      0x00\n        /* \"#utility.yul\":5303:5315   */\n      revert\n        /* \"#utility.yul\":5327:5507   */\n    tag_326:\n        /* \"#utility.yul\":5375:5452   */\n      0x4e487b7100000000000000000000000000000000000000000000000000000000\n        /* \"#utility.yul\":5372:5373   */\n      0x00\n        /* \"#utility.yul\":5365:5453   */\n      mstore\n        /* \"#utility.yul\":5472:5476   */\n      0x41\n        /* \"#utility.yul\":5469:5470   */\n      0x04\n        /* \"#utility.yul\":5462:5477   */\n      mstore\n        /* \"#utility.yul\":5496:5500   */\n      0x24\n        /* \"#utility.yul\":5493:5494   */\n      0x00\n        /* \"#utility.yul\":5486:5501   */\n      revert\n        /* \"#utility.yul\":5513:5794   */\n    tag_327:\n        /* \"#utility.yul\":5596:5623   */\n      tag_451\n        /* \"#utility.yul\":5618:5622   */\n      dup3\n        /* \"#utility.yul\":5596:5623   */\n      tag_307\n      jump\t// in\n    tag_451:\n        /* \"#utility.yul\":5588:5594   */\n      dup2\n        /* \"#utility.yul\":5584:5624   */\n      add\n        /* \"#utility.yul\":5726:5732   */\n      dup2\n        /* \"#utility.yul\":5714:5724   */\n      dup2\n        /* \"#utility.yul\":5711:5733   */\n      lt\n        /* \"#utility.yul\":5690:5708   */\n      0xffffffffffffffff\n        /* \"#utility.yul\":5678:5688   */\n      dup3\n        /* \"#utility.yul\":5675:5709   */\n      gt\n        /* \"#utility.yul\":5672:5734   */\n      or\n        /* \"#utility.yul\":5669:5757   */\n      iszero\n      tag_452\n      jumpi\n        /* \"#utility.yul\":5737:5755   */\n      tag_453\n      tag_326\n      jump\t// in\n    tag_453:\n        /* \"#utility.yul\":5669:5757   */\n    tag_452:\n        /* \"#utility.yul\":5777:5787   */\n      dup1\n        /* \"#utility.yul\":5773:5775   */\n      0x40\n        /* \"#utility.yul\":5766:5788   */\n      mstore\n        /* \"#utility.yul\":5556:5794   */\n      pop\n        /* \"#utility.yul\":5513:5794   */\n      pop\n      pop\n      jump\t// out\n        /* \"#utility.yul\":5800:5929   */\n    tag_328:\n        /* \"#utility.yul\":5834:5840   */\n      0x00\n        /* \"#utility.yul\":5861:5881   */\n      tag_455\n      tag_309\n      jump\t// in\n    tag_455:\n        /* \"#utility.yul\":5851:5881   */\n      swap1\n      pop\n        /* \"#utility.yul\":5890:5923   */\n      tag_456\n        /* \"#utility.yul\":5918:5922   */\n      dup3\n        /* \"#utility.yul\":5910:5916   */\n      dup3\n        /* \"#utility.yul\":5890:5923   */\n      tag_327\n      jump\t// in\n    tag_456:\n        /* \"#utility.yul\":5800:5929   */\n      swap2\n      swap1\n      pop\n      jump\t// out\n        /* \"#utility.yul\":5935:6243   */\n    tag_329:\n        /* \"#utility.yul\":5997:6001   */\n      0x00\n        /* \"#utility.yul\":6087:6105   */\n      0xffffffffffffffff\n        /* \"#utility.yul\":6079:6085   */\n      dup3\n        /* \"#utility.yul\":6076:6106   */\n      gt\n        /* \"#utility.yul\":6073:6129   */\n      iszero\n      tag_458\n      jumpi\n        /* \"#utility.yul\":6109:6127   */\n      tag_459\n      tag_326\n      jump\t// in\n    tag_459:\n        /* \"#utility.yul\":6073:6129   */\n    tag_458:\n        /* \"#utility.yul\":6147:6176   */\n      tag_460\n        /* \"#utility.yul\":6169:6175   */\n      dup3\n        /* \"#utility.yul\":6147:6176   */\n      tag_307\n      jump\t// in\n    tag_460:\n        /* \"#utility.yul\":6139:6176   */\n      swap1\n      pop\n        /* \"#utility.yul\":6231:6235   */\n      0x20\n        /* \"#utility.yul\":6225:6229   */\n      dup2\n        /* \"#utility.yul\":6221:6236   */\n      add\n        /* \"#utility.yul\":6213:6236   */\n      swap1\n      pop\n        /* \"#utility.yul\":5935:6243   */\n      swap2\n      swap1\n      pop\n      jump\t// out\n        /* \"#utility.yul\":6249:6397   */\n    tag_330:\n        /* \"#utility.yul\":6347:6353   */\n      dup3\n        /* \"#utility.yul\":6342:6345   */\n      dup2\n        /* \"#utility.yul\":6337:6340   */\n      dup4\n        /* \"#utility.yul\":6324:6354   */\n      calldatacopy\n        /* \"#utility.yul\":6388:6389   */\n      0x00\n        /* \"#utility.yul\":6379:6385   */\n      dup4\n        /* \"#utility.yul\":6374:6377   */\n      dup4\n        /* \"#utility.yul\":6370:6386   */\n      add\n        /* \"#utility.yul\":6363:6390   */\n      mstore\n        /* \"#utility.yul\":6249:6397   */\n      pop\n      pop\n      pop\n      jump\t// out\n        /* \"#utility.yul\":6403:6828   */\n    tag_331:\n        /* \"#utility.yul\":6481:6486   */\n      0x00\n        /* \"#utility.yul\":6506:6572   */\n      tag_463\n        /* \"#utility.yul\":6522:6571   */\n      tag_464\n        /* \"#utility.yul\":6564:6570   */\n      dup5\n        /* \"#utility.yul\":6522:6571   */\n      tag_329\n      jump\t// in\n    tag_464:\n        /* \"#utility.yul\":6506:6572   */\n      tag_328\n      jump\t// in\n    tag_463:\n        /* \"#utility.yul\":6497:6572   */\n      swap1\n      pop\n        /* \"#utility.yul\":6595:6601   */\n      dup3\n        /* \"#utility.yul\":6588:6593   */\n      dup2\n        /* \"#utility.yul\":6581:6602   */\n      mstore\n        /* \"#utility.yul\":6633:6637   */\n      0x20\n        /* \"#utility.yul\":6626:6631   */\n      dup2\n        /* \"#utility.yul\":6622:6638   */\n      add\n        /* \"#utility.yul\":6671:6674   */\n      dup5\n        /* \"#utility.yul\":6662:6668   */\n      dup5\n        /* \"#utility.yul\":6657:6660   */\n      dup5\n        /* \"#utility.yul\":6653:6669   */\n      add\n        /* \"#utility.yul\":6650:6675   */\n      gt\n        /* \"#utility.yul\":6647:6759   */\n      iszero\n      tag_465\n      jumpi\n        /* \"#utility.yul\":6678:6757   */\n      tag_466\n      tag_325\n      jump\t// in\n    tag_466:\n        /* \"#utility.yul\":6647:6759   */\n    tag_465:\n        /* \"#utility.yul\":6768:6822   */\n      tag_467\n        /* \"#utility.yul\":6815:6821   */\n      dup5\n        /* \"#utility.yul\":6810:6813   */\n      dup3\n        /* \"#utility.yul\":6805:6808   */\n      dup6\n        /* \"#utility.yul\":6768:6822   */\n      tag_330\n      jump\t// in\n    tag_467:\n        /* \"#utility.yul\":6487:6828   */\n      pop\n        /* \"#utility.yul\":6403:6828   */\n      swap4\n      swap3\n      pop\n      pop\n      pop\n      jump\t// out\n        /* \"#utility.yul\":6848:7188   */\n    tag_332:\n        /* \"#utility.yul\":6904:6909   */\n      0x00\n        /* \"#utility.yul\":6953:6956   */\n      dup3\n        /* \"#utility.yul\":6946:6950   */\n      0x1f\n        /* \"#utility.yul\":6938:6944   */\n      dup4\n        /* \"#utility.yul\":6934:6951   */\n      add\n        /* \"#utility.yul\":6930:6957   */\n      slt\n        /* \"#utility.yul\":6920:7042   */\n      tag_469\n      jumpi\n        /* \"#utility.yul\":6961:7040   */\n      tag_470\n      tag_324\n      jump\t// in\n    tag_470:\n        /* \"#utility.yul\":6920:7042   */\n    tag_469:\n        /* \"#utility.yul\":7078:7084   */\n      dup2\n        /* \"#utility.yul\":7065:7085   */\n      calldataload\n        /* \"#utility.yul\":7103:7182   */\n      tag_471\n        /* \"#utility.yul\":7178:7181   */\n      dup5\n        /* \"#utility.yul\":7170:7176   */\n      dup3\n        /* \"#utility.yul\":7163:7167   */\n      0x20\n        /* \"#utility.yul\":7155:7161   */\n      dup7\n        /* \"#utility.yul\":7151:7168   */\n      add\n        /* \"#utility.yul\":7103:7182   */\n      tag_331\n      jump\t// in\n    tag_471:\n        /* \"#utility.yul\":7094:7182   */\n      swap2\n      pop\n        /* \"#utility.yul\":6910:7188   */\n      pop\n        /* \"#utility.yul\":6848:7188   */\n      swap3\n      swap2\n      pop\n      pop\n      jump\t// out\n        /* \"#utility.yul\":7194:7703   */\n    tag_113:\n        /* \"#utility.yul\":7263:7269   */\n      0x00\n        /* \"#utility.yul\":7312:7314   */\n      0x20\n        /* \"#utility.yul\":7300:7309   */\n      dup3\n        /* \"#utility.yul\":7291:7298   */\n      dup5\n        /* \"#utility.yul\":7287:7310   */\n      sub\n        /* \"#utility.yul\":7283:7315   */\n      slt\n        /* \"#utility.yul\":7280:7399   */\n      iszero\n      tag_473\n      jumpi\n        /* \"#utility.yul\":7318:7397   */\n      tag_474\n      tag_310\n      jump\t// in\n    tag_474:\n        /* \"#utility.yul\":7280:7399   */\n    tag_473:\n        /* \"#utility.yul\":7466:7467   */\n      0x00\n        /* \"#utility.yul\":7455:7464   */\n      dup3\n        /* \"#utility.yul\":7451:7468   */\n      add\n        /* \"#utility.yul\":7438:7469   */\n      calldataload\n        /* \"#utility.yul\":7496:7514   */\n      0xffffffffffffffff\n        /* \"#utility.yul\":7488:7494   */\n      dup2\n        /* \"#utility.yul\":7485:7515   */\n      gt\n        /* \"#utility.yul\":7482:7599   */\n      iszero\n      tag_475\n      jumpi\n        /* \"#utility.yul\":7518:7597   */\n      tag_476\n      tag_311\n      jump\t// in\n    tag_476:\n        /* \"#utility.yul\":7482:7599   */\n    tag_475:\n        /* \"#utility.yul\":7623:7686   */\n      tag_477\n        /* \"#utility.yul\":7678:7685   */\n      dup5\n        /* \"#utility.yul\":7669:7675   */\n      dup3\n        /* \"#utility.yul\":7658:7667   */\n      dup6\n        /* \"#utility.yul\":7654:7676   */\n      add\n        /* \"#utility.yul\":7623:7686   */\n      tag_332\n      jump\t// in\n    tag_477:\n        /* \"#utility.yul\":7613:7686   */\n      swap2\n      pop\n        /* \"#utility.yul\":7409:7696   */\n      pop\n        /* \"#utility.yul\":7194:7703   */\n      swap3\n      swap2\n      pop\n      pop\n      jump\t// out\n        /* \"#utility.yul\":7709:7827   */\n    tag_333:\n        /* \"#utility.yul\":7796:7820   */\n      tag_479\n        /* \"#utility.yul\":7814:7819   */\n      dup2\n        /* \"#utility.yul\":7796:7820   */\n      tag_313\n      jump\t// in\n    tag_479:\n        /* \"#utility.yul\":7791:7794   */\n      dup3\n        /* \"#utility.yul\":7784:7821   */\n      mstore\n        /* \"#utility.yul\":7709:7827   */\n      pop\n      pop\n      jump\t// out\n        /* \"#utility.yul\":7833:8055   */\n    tag_131:\n        /* \"#utility.yul\":7926:7930   */\n      0x00\n        /* \"#utility.yul\":7964:7966   */\n      0x20\n        /* \"#utility.yul\":7953:7962   */\n      dup3\n        /* \"#utility.yul\":7949:7967   */\n      add\n        /* \"#utility.yul\":7941:7967   */\n      swap1\n      pop\n        /* \"#utility.yul\":7977:8048   */\n      tag_481\n        /* \"#utility.yul\":8045:8046   */\n      0x00\n        /* \"#utility.yul\":8034:8043   */\n      dup4\n        /* \"#utility.yul\":8030:8047   */\n      add\n        /* \"#utility.yul\":8021:8027   */\n      dup5\n        /* \"#utility.yul\":7977:8048   */\n      tag_333\n      jump\t// in\n    tag_481:\n        /* \"#utility.yul\":7833:8055   */\n      swap3\n      swap2\n      pop\n      pop\n      jump\t// out\n        /* \"#utility.yul\":8061:8535   */\n    tag_135:\n        /* \"#utility.yul\":8129:8135   */\n      0x00\n        /* \"#utility.yul\":8137:8143   */\n      0x00\n        /* \"#utility.yul\":8186:8188   */\n      0x40\n        /* \"#utility.yul\":8174:8183   */\n      dup4\n        /* \"#utility.yul\":8165:8172   */\n      dup6\n        /* \"#utility.yul\":8161:8184   */\n      sub\n        /* \"#utility.yul\":8157:8189   */\n      slt\n        /* \"#utility.yul\":8154:8273   */\n      iszero\n      tag_483\n      jumpi\n        /* \"#utility.yul\":8192:8271   */\n      tag_484\n      tag_310\n      jump\t// in\n    tag_484:\n        /* \"#utility.yul\":8154:8273   */\n    tag_483:\n        /* \"#utility.yul\":8312:8313   */\n      0x00\n        /* \"#utility.yul\":8337:8390   */\n      tag_485\n        /* \"#utility.yul\":8382:8389   */\n      dup6\n        /* \"#utility.yul\":8373:8379   */\n      dup3\n        /* \"#utility.yul\":8362:8371   */\n      dup7\n        /* \"#utility.yul\":8358:8380   */\n      add\n        /* \"#utility.yul\":8337:8390   */\n      tag_315\n      jump\t// in\n    tag_485:\n        /* \"#utility.yul\":8327:8390   */\n      swap3\n      pop\n        /* \"#utility.yul\":8283:8400   */\n      pop\n        /* \"#utility.yul\":8439:8441   */\n      0x20\n        /* \"#utility.yul\":8465:8518   */\n      tag_486\n        /* \"#utility.yul\":8510:8517   */\n      dup6\n        /* \"#utility.yul\":8501:8507   */\n      dup3\n        /* \"#utility.yul\":8490:8499   */\n      dup7\n        /* \"#utility.yul\":8486:8508   */\n      add\n        /* \"#utility.yul\":8465:8518   */\n      tag_315\n      jump\t// in\n    tag_486:\n        /* \"#utility.yul\":8455:8518   */\n      swap2\n      pop\n        /* \"#utility.yul\":8410:8528   */\n      pop\n        /* \"#utility.yul\":8061:8535   */\n      swap3\n      pop\n      swap3\n      swap1\n      pop\n      jump\t// out\n        /* \"#utility.yul\":8541:8702   */\n    tag_334:\n        /* \"#utility.yul\":8681:8694   */\n      0x4e6f20424e422073656e74000000000000000000000000000000000000000000\n        /* \"#utility.yul\":8677:8678   */\n      0x00\n        /* \"#utility.yul\":8669:8675   */\n      dup3\n        /* \"#utility.yul\":8665:8679   */\n      add\n        /* \"#utility.yul\":8658:8695   */\n      mstore\n        /* \"#utility.yul\":8541:8702   */\n      pop\n      jump\t// out\n        /* \"#utility.yul\":8708:9074   */\n    tag_335:\n        /* \"#utility.yul\":8850:8853   */\n      0x00\n        /* \"#utility.yul\":8871:8938   */\n      tag_489\n        /* \"#utility.yul\":8935:8937   */\n      0x0b\n        /* \"#utility.yul\":8930:8933   */\n      dup4\n        /* \"#utility.yul\":8871:8938   */\n      tag_305\n      jump\t// in\n    tag_489:\n        /* \"#utility.yul\":8864:8938   */\n      swap2\n      pop\n        /* \"#utility.yul\":8947:9040   */\n      tag_490\n        /* \"#utility.yul\":9036:9039   */\n      dup3\n        /* \"#utility.yul\":8947:9040   */\n      tag_334\n      jump\t// in\n    tag_490:\n        /* \"#utility.yul\":9065:9067   */\n      0x20\n        /* \"#utility.yul\":9060:9063   */\n      dup3\n        /* \"#utility.yul\":9056:9068   */\n      add\n        /* \"#utility.yul\":9049:9068   */\n      swap1\n      pop\n        /* \"#utility.yul\":8708:9074   */\n      swap2\n      swap1\n      pop\n      jump\t// out\n        /* \"#utility.yul\":9080:9499   */\n    tag_145:\n        /* \"#utility.yul\":9246:9250   */\n      0x00\n        /* \"#utility.yul\":9284:9286   */\n      0x20\n        /* \"#utility.yul\":9273:9282   */\n      dup3\n        /* \"#utility.yul\":9269:9287   */\n      add\n        /* \"#utility.yul\":9261:9287   */\n      swap1\n      pop\n        /* \"#utility.yul\":9333:9342   */\n      dup2\n        /* \"#utility.yul\":9327:9331   */\n      dup2\n        /* \"#utility.yul\":9323:9343   */\n      sub\n        /* \"#utility.yul\":9319:9320   */\n      0x00\n        /* \"#utility.yul\":9308:9317   */\n      dup4\n        /* \"#utility.yul\":9304:9321   */\n      add\n        /* \"#utility.yul\":9297:9344   */\n      mstore\n        /* \"#utility.yul\":9361:9492   */\n      tag_492\n        /* \"#utility.yul\":9487:9491   */\n      dup2\n        /* \"#utility.yul\":9361:9492   */\n      tag_335\n      jump\t// in\n    tag_492:\n        /* \"#utility.yul\":9353:9492   */\n      swap1\n      pop\n        /* \"#utility.yul\":9080:9499   */\n      swap2\n      swap1\n      pop\n      jump\t// out\n        /* \"#utility.yul\":9505:9652   */\n    tag_336:\n        /* \"#utility.yul\":9606:9617   */\n      0x00\n        /* \"#utility.yul\":9643:9646   */\n      dup2\n        /* \"#utility.yul\":9628:9646   */\n      swap1\n      pop\n        /* \"#utility.yul\":9505:9652   */\n      swap3\n      swap2\n      pop\n      pop\n      jump\t// out\n        /* \"#utility.yul\":9658:9772   */\n    tag_337:\n      pop\n      jump\t// out\n        /* \"#utility.yul\":9778:10176   */\n    tag_338:\n        /* \"#utility.yul\":9937:9940   */\n      0x00\n        /* \"#utility.yul\":9958:10041   */\n      tag_496\n        /* \"#utility.yul\":10039:10040   */\n      0x00\n        /* \"#utility.yul\":10034:10037   */\n      dup4\n        /* \"#utility.yul\":9958:10041   */\n      tag_336\n      jump\t// in\n    tag_496:\n        /* \"#utility.yul\":9951:10041   */\n      swap2\n      pop\n        /* \"#utility.yul\":10050:10143   */\n      tag_497\n        /* \"#utility.yul\":10139:10142   */\n      dup3\n        /* \"#utility.yul\":10050:10143   */\n      tag_337\n      jump\t// in\n    tag_497:\n        /* \"#utility.yul\":10168:10169   */\n      0x00\n        /* \"#utility.yul\":10163:10166   */\n      dup3\n        /* \"#utility.yul\":10159:10170   */\n      add\n        /* \"#utility.yul\":10152:10170   */\n      swap1\n      pop\n        /* \"#utility.yul\":9778:10176   */\n      swap2\n      swap1\n      pop\n      jump\t// out\n        /* \"#utility.yul\":10182:10561   */\n    tag_147:\n        /* \"#utility.yul\":10366:10369   */\n      0x00\n        /* \"#utility.yul\":10388:10535   */\n      tag_499\n        /* \"#utility.yul\":10531:10534   */\n      dup3\n        /* \"#utility.yul\":10388:10535   */\n      tag_338\n      jump\t// in\n    tag_499:\n        /* \"#utility.yul\":10381:10535   */\n      swap2\n      pop\n        /* \"#utility.yul\":10552:10555   */\n      dup2\n        /* \"#utility.yul\":10545:10555   */\n      swap1\n      pop\n        /* \"#utility.yul\":10182:10561   */\n      swap2\n      swap1\n      pop\n      jump\t// out\n        /* \"#utility.yul\":10567:10738   */\n    tag_339:\n        /* \"#utility.yul\":10707:10730   */\n      0x466f7277617264696e6720424e42206661696c65640000000000000000000000\n        /* \"#utility.yul\":10703:10704   */\n      0x00\n        /* \"#utility.yul\":10695:10701   */\n      dup3\n        /* \"#utility.yul\":10691:10705   */\n      add\n        /* \"#utility.yul\":10684:10731   */\n      mstore\n        /* \"#utility.yul\":10567:10738   */\n      pop\n      jump\t// out\n        /* \"#utility.yul\":10744:11110   */\n    tag_340:\n        /* \"#utility.yul\":10886:10889   */\n      0x00\n        /* \"#utility.yul\":10907:10974   */\n      tag_502\n        /* \"#utility.yul\":10971:10973   */\n      0x15\n        /* \"#utility.yul\":10966:10969   */\n      dup4\n        /* \"#utility.yul\":10907:10974   */\n      tag_305\n      jump\t// in\n    tag_502:\n        /* \"#utility.yul\":10900:10974   */\n      swap2\n      pop\n        /* \"#utility.yul\":10983:11076   */\n      tag_503\n        /* \"#utility.yul\":11072:11075   */\n      dup3\n        /* \"#utility.yul\":10983:11076   */\n      tag_339\n      jump\t// in\n    tag_503:\n        /* \"#utility.yul\":11101:11103   */\n      0x20\n        /* \"#utility.yul\":11096:11099   */\n      dup3\n        /* \"#utility.yul\":11092:11104   */\n      add\n        /* \"#utility.yul\":11085:11104   */\n      swap1\n      pop\n        /* \"#utility.yul\":10744:11110   */\n      swap2\n      swap1\n      pop\n      jump\t// out\n        /* \"#utility.yul\":11116:11535   */\n    tag_153:\n        /* \"#utility.yul\":11282:11286   */\n      0x00\n        /* \"#utility.yul\":11320:11322   */\n      0x20\n        /* \"#utility.yul\":11309:11318   */\n      dup3\n        /* \"#utility.yul\":11305:11323   */\n      add\n        /* \"#utility.yul\":11297:11323   */\n      swap1\n      pop\n        /* \"#utility.yul\":11369:11378   */\n      dup2\n        /* \"#utility.yul\":11363:11367   */\n      dup2\n        /* \"#utility.yul\":11359:11379   */\n      sub\n        /* \"#utility.yul\":11355:11356   */\n      0x00\n        /* \"#utility.yul\":11344:11353   */\n      dup4\n        /* \"#utility.yul\":11340:11357   */\n      add\n        /* \"#utility.yul\":11333:11380   */\n      mstore\n        /* \"#utility.yul\":11397:11528   */\n      tag_505\n        /* \"#utility.yul\":11523:11527   */\n      dup2\n        /* \"#utility.yul\":11397:11528   */\n      tag_340\n      jump\t// in\n    tag_505:\n        /* \"#utility.yul\":11389:11528   */\n      swap1\n      pop\n        /* \"#utility.yul\":11116:11535   */\n      swap2\n      swap1\n      pop\n      jump\t// out\n        /* \"#utility.yul\":11541:11601   */\n    tag_341:\n        /* \"#utility.yul\":11569:11572   */\n      0x00\n        /* \"#utility.yul\":11590:11595   */\n      dup2\n        /* \"#utility.yul\":11583:11595   */\n      swap1\n      pop\n        /* \"#utility.yul\":11541:11601   */\n      swap2\n      swap1\n      pop\n      jump\t// out\n        /* \"#utility.yul\":11607:11749   */\n    tag_342:\n        /* \"#utility.yul\":11657:11666   */\n      0x00\n        /* \"#utility.yul\":11690:11743   */\n      tag_508\n        /* \"#utility.yul\":11708:11742   */\n      tag_509\n        /* \"#utility.yul\":11717:11741   */\n      tag_510\n        /* \"#utility.yul\":11735:11740   */\n      dup5\n        /* \"#utility.yul\":11717:11741   */\n      tag_312\n      jump\t// in\n    tag_510:\n        /* \"#utility.yul\":11708:11742   */\n      tag_341\n      jump\t// in\n    tag_509:\n        /* \"#utility.yul\":11690:11743   */\n      tag_312\n      jump\t// in\n    tag_508:\n        /* \"#utility.yul\":11677:11743   */\n      swap1\n      pop\n        /* \"#utility.yul\":11607:11749   */\n      swap2\n      swap1\n      pop\n      jump\t// out\n        /* \"#utility.yul\":11755:11881   */\n    tag_343:\n        /* \"#utility.yul\":11805:11814   */\n      0x00\n        /* \"#utility.yul\":11838:11875   */\n      tag_512\n        /* \"#utility.yul\":11869:11874   */\n      dup3\n        /* \"#utility.yul\":11838:11875   */\n      tag_342\n      jump\t// in\n    tag_512:\n        /* \"#utility.yul\":11825:11875   */\n      swap1\n      pop\n        /* \"#utility.yul\":11755:11881   */\n      swap2\n      swap1\n      pop\n      jump\t// out\n        /* \"#utility.yul\":11887:12021   */\n    tag_344:\n        /* \"#utility.yul\":11945:11954   */\n      0x00\n        /* \"#utility.yul\":11978:12015   */\n      tag_514\n        /* \"#utility.yul\":12009:12014   */\n      dup3\n        /* \"#utility.yul\":11978:12015   */\n      tag_343\n      jump\t// in\n    tag_514:\n        /* \"#utility.yul\":11965:12015   */\n      swap1\n      pop\n        /* \"#utility.yul\":11887:12021   */\n      swap2\n      swap1\n      pop\n      jump\t// out\n        /* \"#utility.yul\":12027:12174   */\n    tag_345:\n        /* \"#utility.yul\":12122:12167   */\n      tag_516\n        /* \"#utility.yul\":12161:12166   */\n      dup2\n        /* \"#utility.yul\":12122:12167   */\n      tag_344\n      jump\t// in\n    tag_516:\n        /* \"#utility.yul\":12117:12120   */\n      dup3\n        /* \"#utility.yul\":12110:12168   */\n      mstore\n        /* \"#utility.yul\":12027:12174   */\n      pop\n      pop\n      jump\t// out\n        /* \"#utility.yul\":12180:12528   */\n    tag_155:\n        /* \"#utility.yul\":12309:12313   */\n      0x00\n        /* \"#utility.yul\":12347:12349   */\n      0x40\n        /* \"#utility.yul\":12336:12345   */\n      dup3\n        /* \"#utility.yul\":12332:12350   */\n      add\n        /* \"#utility.yul\":12324:12350   */\n      swap1\n      pop\n        /* \"#utility.yul\":12360:12431   */\n      tag_518\n        /* \"#utility.yul\":12428:12429   */\n      0x00\n        /* \"#utility.yul\":12417:12426   */\n      dup4\n        /* \"#utility.yul\":12413:12430   */\n      add\n        /* \"#utility.yul\":12404:12410   */\n      dup6\n        /* \"#utility.yul\":12360:12431   */\n      tag_321\n      jump\t// in\n    tag_518:\n        /* \"#utility.yul\":12441:12521   */\n      tag_519\n        /* \"#utility.yul\":12517:12519   */\n      0x20\n        /* \"#utility.yul\":12506:12515   */\n      dup4\n        /* \"#utility.yul\":12502:12520   */\n      add\n        /* \"#utility.yul\":12493:12499   */\n      dup5\n        /* \"#utility.yul\":12441:12521   */\n      tag_345\n      jump\t// in\n    tag_519:\n        /* \"#utility.yul\":12180:12528   */\n      swap4\n      swap3\n      pop\n      pop\n      pop\n      jump\t// out\n        /* \"#utility.yul\":12534:12714   */\n    tag_346:\n        /* \"#utility.yul\":12582:12659   */\n      0x4e487b7100000000000000000000000000000000000000000000000000000000\n        /* \"#utility.yul\":12579:12580   */\n      0x00\n        /* \"#utility.yul\":12572:12660   */\n      mstore\n        /* \"#utility.yul\":12679:12683   */\n      0x22\n        /* \"#utility.yul\":12676:12677   */\n      0x04\n        /* \"#utility.yul\":12669:12684   */\n      mstore\n        /* \"#utility.yul\":12703:12707   */\n      0x24\n        /* \"#utility.yul\":12700:12701   */\n      0x00\n        /* \"#utility.yul\":12693:12708   */\n      revert\n        /* \"#utility.yul\":12720:13040   */\n    tag_157:\n        /* \"#utility.yul\":12764:12770   */\n      0x00\n        /* \"#utility.yul\":12801:12802   */\n      0x02\n        /* \"#utility.yul\":12795:12799   */\n      dup3\n        /* \"#utility.yul\":12791:12803   */\n      div\n        /* \"#utility.yul\":12781:12803   */\n      swap1\n      pop\n        /* \"#utility.yul\":12848:12849   */\n      0x01\n        /* \"#utility.yul\":12842:12846   */\n      dup3\n        /* \"#utility.yul\":12838:12850   */\n      and\n        /* \"#utility.yul\":12869:12887   */\n      dup1\n        /* \"#utility.yul\":12859:12940   */\n      tag_522\n      jumpi\n        /* \"#utility.yul\":12925:12929   */\n      0x7f\n        /* \"#utility.yul\":12917:12923   */\n      dup3\n        /* \"#utility.yul\":12913:12930   */\n      and\n        /* \"#utility.yul\":12903:12930   */\n      swap2\n      pop\n        /* \"#utility.yul\":12859:12940   */\n    tag_522:\n        /* \"#utility.yul\":12987:12989   */\n      0x20\n        /* \"#utility.yul\":12979:12985   */\n      dup3\n        /* \"#utility.yul\":12976:12990   */\n      lt\n        /* \"#utility.yul\":12956:12974   */\n      dup2\n        /* \"#utility.yul\":12953:12991   */\n      sub\n        /* \"#utility.yul\":12950:13034   */\n      tag_523\n      jumpi\n        /* \"#utility.yul\":13006:13024   */\n      tag_524\n      tag_346\n      jump\t// in\n    tag_524:\n        /* \"#utility.yul\":12950:13034   */\n    tag_523:\n        /* \"#utility.yul\":12771:13040   */\n      pop\n        /* \"#utility.yul\":12720:13040   */\n      swap2\n      swap1\n      pop\n      jump\t// out\n        /* \"#utility.yul\":13046:13214   */\n    tag_347:\n        /* \"#utility.yul\":13186:13206   */\n      0x436f6e7472616374206973207061757365640000000000000000000000000000\n        /* \"#utility.yul\":13182:13183   */\n      0x00\n        /* \"#utility.yul\":13174:13180   */\n      dup3\n        /* \"#utility.yul\":13170:13184   */\n      add\n        /* \"#utility.yul\":13163:13207   */\n      mstore\n        /* \"#utility.yul\":13046:13214   */\n      pop\n      jump\t// out\n        /* \"#utility.yul\":13220:13586   */\n    tag_348:\n        /* \"#utility.yul\":13362:13365   */\n      0x00\n        /* \"#utility.yul\":13383:13450   */\n      tag_527\n        /* \"#utility.yul\":13447:13449   */\n      0x12\n        /* \"#utility.yul\":13442:13445   */\n      dup4\n        /* \"#utility.yul\":13383:13450   */\n      tag_305\n      jump\t// in\n    tag_527:\n        /* \"#utility.yul\":13376:13450   */\n      swap2\n      pop\n        /* \"#utility.yul\":13459:13552   */\n      tag_528\n        /* \"#utility.yul\":13548:13551   */\n      dup3\n        /* \"#utility.yul\":13459:13552   */\n      tag_347\n      jump\t// in\n    tag_528:\n        /* \"#utility.yul\":13577:13579   */\n      0x20\n        /* \"#utility.yul\":13572:13575   */\n      dup3\n        /* \"#utility.yul\":13568:13580   */\n      add\n        /* \"#utility.yul\":13561:13580   */\n      swap1\n      pop\n        /* \"#utility.yul\":13220:13586   */\n      swap2\n      swap1\n      pop\n      jump\t// out\n        /* \"#utility.yul\":13592:14011   */\n    tag_165:\n        /* \"#utility.yul\":13758:13762   */\n      0x00\n        /* \"#utility.yul\":13796:13798   */\n      0x20\n        /* \"#utility.yul\":13785:13794   */\n      dup3\n        /* \"#utility.yul\":13781:13799   */\n      add\n        /* \"#utility.yul\":13773:13799   */\n      swap1\n      pop\n        /* \"#utility.yul\":13845:13854   */\n      dup2\n        /* \"#utility.yul\":13839:13843   */\n      dup2\n        /* \"#utility.yul\":13835:13855   */\n      sub\n        /* \"#utility.yul\":13831:13832   */\n      0x00\n        /* \"#utility.yul\":13820:13829   */\n      dup4\n        /* \"#utility.yul\":13816:13833   */\n      add\n        /* \"#utility.yul\":13809:13856   */\n      mstore\n        /* \"#utility.yul\":13873:14004   */\n      tag_530\n        /* \"#utility.yul\":13999:14003   */\n      dup2\n        /* \"#utility.yul\":13873:14004   */\n      tag_348\n      jump\t// in\n    tag_530:\n        /* \"#utility.yul\":13865:14004   */\n      swap1\n      pop\n        /* \"#utility.yul\":13592:14011   */\n      swap2\n      swap1\n      pop\n      jump\t// out\n        /* \"#utility.yul\":14017:14198   */\n    tag_349:\n        /* \"#utility.yul\":14157:14190   */\n      0x436f6e7472616374207065726d616e656e746c79207465726d696e6174656400\n        /* \"#utility.yul\":14153:14154   */\n      0x00\n        /* \"#utility.yul\":14145:14151   */\n      dup3\n        /* \"#utility.yul\":14141:14155   */\n      add\n        /* \"#utility.yul\":14134:14191   */\n      mstore\n        /* \"#utility.yul\":14017:14198   */\n      pop\n      jump\t// out\n        /* \"#utility.yul\":14204:14570   */\n    tag_350:\n        /* \"#utility.yul\":14346:14349   */\n      0x00\n        /* \"#utility.yul\":14367:14434   */\n      tag_533\n        /* \"#utility.yul\":14431:14433   */\n      0x1f\n        /* \"#utility.yul\":14426:14429   */\n      dup4\n        /* \"#utility.yul\":14367:14434   */\n      tag_305\n      jump\t// in\n    tag_533:\n        /* \"#utility.yul\":14360:14434   */\n      swap2\n      pop\n        /* \"#utility.yul\":14443:14536   */\n      tag_534\n        /* \"#utility.yul\":14532:14535   */\n      dup3\n        /* \"#utility.yul\":14443:14536   */\n      tag_349\n      jump\t// in\n    tag_534:\n        /* \"#utility.yul\":14561:14563   */\n      0x20\n        /* \"#utility.yul\":14556:14559   */\n      dup3\n        /* \"#utility.yul\":14552:14564   */\n      add\n        /* \"#utility.yul\":14545:14564   */\n      swap1\n      pop\n        /* \"#utility.yul\":14204:14570   */\n      swap2\n      swap1\n      pop\n      jump\t// out\n        /* \"#utility.yul\":14576:14995   */\n    tag_169:\n        /* \"#utility.yul\":14742:14746   */\n      0x00\n        /* \"#utility.yul\":14780:14782   */\n      0x20\n        /* \"#utility.yul\":14769:14778   */\n      dup3\n        /* \"#utility.yul\":14765:14783   */\n      add\n        /* \"#utility.yul\":14757:14783   */\n      swap1\n      pop\n        /* \"#utility.yul\":14829:14838   */\n      dup2\n        /* \"#utility.yul\":14823:14827   */\n      dup2\n        /* \"#utility.yul\":14819:14839   */\n      sub\n        /* \"#utility.yul\":14815:14816   */\n      0x00\n        /* \"#utility.yul\":14804:14813   */\n      dup4\n        /* \"#utility.yul\":14800:14817   */\n      add\n        /* \"#utility.yul\":14793:14840   */\n      mstore\n        /* \"#utility.yul\":14857:14988   */\n      tag_536\n        /* \"#utility.yul\":14983:14987   */\n      dup2\n        /* \"#utility.yul\":14857:14988   */\n      tag_350\n      jump\t// in\n    tag_536:\n        /* \"#utility.yul\":14849:14988   */\n      swap1\n      pop\n        /* \"#utility.yul\":14576:14995   */\n      swap2\n      swap1\n      pop\n      jump\t// out\n        /* \"#utility.yul\":15001:15174   */\n    tag_351:\n        /* \"#utility.yul\":15141:15166   */\n      0x417070726f766520746f207a65726f2061646472657373000000000000000000\n        /* \"#utility.yul\":15137:15138   */\n      0x00\n        /* \"#utility.yul\":15129:15135   */\n      dup3\n        /* \"#utility.yul\":15125:15139   */\n      add\n        /* \"#utility.yul\":15118:15167   */\n      mstore\n        /* \"#utility.yul\":15001:15174   */\n      pop\n      jump\t// out\n        /* \"#utility.yul\":15180:15546   */\n    tag_352:\n        /* \"#utility.yul\":15322:15325   */\n      0x00\n        /* \"#utility.yul\":15343:15410   */\n      tag_539\n        /* \"#utility.yul\":15407:15409   */\n      0x17\n        /* \"#utility.yul\":15402:15405   */\n      dup4\n        /* \"#utility.yul\":15343:15410   */\n      tag_305\n      jump\t// in\n    tag_539:\n        /* \"#utility.yul\":15336:15410   */\n      swap2\n      pop\n        /* \"#utility.yul\":15419:15512   */\n      tag_540\n        /* \"#utility.yul\":15508:15511   */\n      dup3\n        /* \"#utility.yul\":15419:15512   */\n      tag_351\n      jump\t// in\n    tag_540:\n        /* \"#utility.yul\":15537:15539   */\n      0x20\n        /* \"#utility.yul\":15532:15535   */\n      dup3\n        /* \"#utility.yul\":15528:15540   */\n      add\n        /* \"#utility.yul\":15521:15540   */\n      swap1\n      pop\n        /* \"#utility.yul\":15180:15546   */\n      swap2\n      swap1\n      pop\n      jump\t// out\n        /* \"#utility.yul\":15552:15971   */\n    tag_173:\n        /* \"#utility.yul\":15718:15722   */\n      0x00\n        /* \"#utility.yul\":15756:15758   */\n      0x20\n        /* \"#utility.yul\":15745:15754   */\n      dup3\n        /* \"#utility.yul\":15741:15759   */\n      add\n        /* \"#utility.yul\":15733:15759   */\n      swap1\n      pop\n        /* \"#utility.yul\":15805:15814   */\n      dup2\n        /* \"#utility.yul\":15799:15803   */\n      dup2\n        /* \"#utility.yul\":15795:15815   */\n      sub\n        /* \"#utility.yul\":15791:15792   */\n      0x00\n        /* \"#utility.yul\":15780:15789   */\n      dup4\n        /* \"#utility.yul\":15776:15793   */\n      add\n        /* \"#utility.yul\":15769:15816   */\n      mstore\n        /* \"#utility.yul\":15833:15964   */\n      tag_542\n        /* \"#utility.yul\":15959:15963   */\n      dup2\n        /* \"#utility.yul\":15833:15964   */\n      tag_352\n      jump\t// in\n    tag_542:\n        /* \"#utility.yul\":15825:15964   */\n      swap1\n      pop\n        /* \"#utility.yul\":15552:15971   */\n      swap2\n      swap1\n      pop\n      jump\t// out\n        /* \"#utility.yul\":15977:16197   */\n    tag_353:\n        /* \"#utility.yul\":16117:16151   */\n      0x4f6e6c79206f776e65722063616e2063616c6c20746869732066756e6374696f\n        /* \"#utility.yul\":16113:16114   */\n      0x00\n        /* \"#utility.yul\":16105:16111   */\n      dup3\n        /* \"#utility.yul\":16101:16115   */\n      add\n        /* \"#utility.yul\":16094:16152   */\n      mstore\n        /* \"#utility.yul\":16186:16189   */\n      0x6e00000000000000000000000000000000000000000000000000000000000000\n        /* \"#utility.yul\":16181:16183   */\n      0x20\n        /* \"#utility.yul\":16173:16179   */\n      dup3\n        /* \"#utility.yul\":16169:16184   */\n      add\n        /* \"#utility.yul\":16162:16190   */\n      mstore\n        /* \"#utility.yul\":15977:16197   */\n      pop\n      jump\t// out\n        /* \"#utility.yul\":16203:16569   */\n    tag_354:\n        /* \"#utility.yul\":16345:16348   */\n      0x00\n        /* \"#utility.yul\":16366:16433   */\n      tag_545\n        /* \"#utility.yul\":16430:16432   */\n      0x21\n        /* \"#utility.yul\":16425:16428   */\n      dup4\n        /* \"#utility.yul\":16366:16433   */\n      tag_305\n      jump\t// in\n    tag_545:\n        /* \"#utility.yul\":16359:16433   */\n      swap2\n      pop\n        /* \"#utility.yul\":16442:16535   */\n      tag_546\n        /* \"#utility.yul\":16531:16534   */\n      dup3\n        /* \"#utility.yul\":16442:16535   */\n      tag_353\n      jump\t// in\n    tag_546:\n        /* \"#utility.yul\":16560:16562   */\n      0x40\n        /* \"#utility.yul\":16555:16558   */\n      dup3\n        /* \"#utility.yul\":16551:16563   */\n      add\n        /* \"#utility.yul\":16544:16563   */\n      swap1\n      pop\n        /* \"#utility.yul\":16203:16569   */\n      swap2\n      swap1\n      pop\n      jump\t// out\n        /* \"#utility.yul\":16575:16994   */\n    tag_180:\n        /* \"#utility.yul\":16741:16745   */\n      0x00\n        /* \"#utility.yul\":16779:16781   */\n      0x20\n        /* \"#utility.yul\":16768:16777   */\n      dup3\n        /* \"#utility.yul\":16764:16782   */\n      add\n        /* \"#utility.yul\":16756:16782   */\n      swap1\n      pop\n        /* \"#utility.yul\":16828:16837   */\n      dup2\n        /* \"#utility.yul\":16822:16826   */\n      dup2\n        /* \"#utility.yul\":16818:16838   */\n      sub\n        /* \"#utility.yul\":16814:16815   */\n      0x00\n        /* \"#utility.yul\":16803:16812   */\n      dup4\n        /* \"#utility.yul\":16799:16816   */\n      add\n        /* \"#utility.yul\":16792:16839   */\n      mstore\n        /* \"#utility.yul\":16856:16987   */\n      tag_548\n        /* \"#utility.yul\":16982:16986   */\n      dup2\n        /* \"#utility.yul\":16856:16987   */\n      tag_354\n      jump\t// in\n    tag_548:\n        /* \"#utility.yul\":16848:16987   */\n      swap1\n      pop\n        /* \"#utility.yul\":16575:16994   */\n      swap2\n      swap1\n      pop\n      jump\t// out\n        /* \"#utility.yul\":17000:17143   */\n    tag_355:\n        /* \"#utility.yul\":17057:17062   */\n      0x00\n        /* \"#utility.yul\":17088:17094   */\n      dup2\n        /* \"#utility.yul\":17082:17095   */\n      mload\n        /* \"#utility.yul\":17073:17095   */\n      swap1\n      pop\n        /* \"#utility.yul\":17104:17137   */\n      tag_550\n        /* \"#utility.yul\":17131:17136   */\n      dup2\n        /* \"#utility.yul\":17104:17137   */\n      tag_317\n      jump\t// in\n    tag_550:\n        /* \"#utility.yul\":17000:17143   */\n      swap3\n      swap2\n      pop\n      pop\n      jump\t// out\n        /* \"#utility.yul\":17149:17500   */\n    tag_186:\n        /* \"#utility.yul\":17219:17225   */\n      0x00\n        /* \"#utility.yul\":17268:17270   */\n      0x20\n        /* \"#utility.yul\":17256:17265   */\n      dup3\n        /* \"#utility.yul\":17247:17254   */\n      dup5\n        /* \"#utility.yul\":17243:17266   */\n      sub\n        /* \"#utility.yul\":17239:17271   */\n      slt\n        /* \"#utility.yul\":17236:17355   */\n      iszero\n      tag_552\n      jumpi\n        /* \"#utility.yul\":17274:17353   */\n      tag_553\n      tag_310\n      jump\t// in\n    tag_553:\n        /* \"#utility.yul\":17236:17355   */\n    tag_552:\n        /* \"#utility.yul\":17394:17395   */\n      0x00\n        /* \"#utility.yul\":17419:17483   */\n      tag_554\n        /* \"#utility.yul\":17475:17482   */\n      dup5\n        /* \"#utility.yul\":17466:17472   */\n      dup3\n        /* \"#utility.yul\":17455:17464   */\n      dup6\n        /* \"#utility.yul\":17451:17473   */\n      add\n        /* \"#utility.yul\":17419:17483   */\n      tag_355\n      jump\t// in\n    tag_554:\n        /* \"#utility.yul\":17409:17483   */\n      swap2\n      pop\n        /* \"#utility.yul\":17365:17493   */\n      pop\n        /* \"#utility.yul\":17149:17500   */\n      swap3\n      swap2\n      pop\n      pop\n      jump\t// out\n        /* \"#utility.yul\":17506:17671   */\n    tag_356:\n        /* \"#utility.yul\":17646:17663   */\n      0x496e76616c696420616464726573730000000000000000000000000000000000\n        /* \"#utility.yul\":17642:17643   */\n      0x00\n        /* \"#utility.yul\":17634:17640   */\n      dup3\n        /* \"#utility.yul\":17630:17644   */\n      add\n        /* \"#utility.yul\":17623:17664   */\n      mstore\n        /* \"#utility.yul\":17506:17671   */\n      pop\n      jump\t// out\n        /* \"#utility.yul\":17677:18043   */\n    tag_357:\n        /* \"#utility.yul\":17819:17822   */\n      0x00\n        /* \"#utility.yul\":17840:17907   */\n      tag_557\n        /* \"#utility.yul\":17904:17906   */\n      0x0f\n        /* \"#utility.yul\":17899:17902   */\n      dup4\n        /* \"#utility.yul\":17840:17907   */\n      tag_305\n      jump\t// in\n    tag_557:\n        /* \"#utility.yul\":17833:17907   */\n      swap2\n      pop\n        /* \"#utility.yul\":17916:18009   */\n      tag_558\n        /* \"#utility.yul\":18005:18008   */\n      dup3\n        /* \"#utility.yul\":17916:18009   */\n      tag_356\n      jump\t// in\n    tag_558:\n        /* \"#utility.yul\":18034:18036   */\n      0x20\n        /* \"#utility.yul\":18029:18032   */\n      dup3\n        /* \"#utility.yul\":18025:18037   */\n      add\n        /* \"#utility.yul\":18018:18037   */\n      swap1\n      pop\n        /* \"#utility.yul\":17677:18043   */\n      swap2\n      swap1\n      pop\n      jump\t// out\n        /* \"#utility.yul\":18049:18468   */\n    tag_197:\n        /* \"#utility.yul\":18215:18219   */\n      0x00\n        /* \"#utility.yul\":18253:18255   */\n      0x20\n        /* \"#utility.yul\":18242:18251   */\n      dup3\n        /* \"#utility.yul\":18238:18256   */\n      add\n        /* \"#utility.yul\":18230:18256   */\n      swap1\n      pop\n        /* \"#utility.yul\":18302:18311   */\n      dup2\n        /* \"#utility.yul\":18296:18300   */\n      dup2\n        /* \"#utility.yul\":18292:18312   */\n      sub\n        /* \"#utility.yul\":18288:18289   */\n      0x00\n        /* \"#utility.yul\":18277:18286   */\n      dup4\n        /* \"#utility.yul\":18273:18290   */\n      add\n        /* \"#utility.yul\":18266:18313   */\n      mstore\n        /* \"#utility.yul\":18330:18461   */\n      tag_560\n        /* \"#utility.yul\":18456:18460   */\n      dup2\n        /* \"#utility.yul\":18330:18461   */\n      tag_357\n      jump\t// in\n    tag_560:\n        /* \"#utility.yul\":18322:18461   */\n      swap1\n      pop\n        /* \"#utility.yul\":18049:18468   */\n      swap2\n      swap1\n      pop\n      jump\t// out\n        /* \"#utility.yul\":18474:18642   */\n    tag_358:\n        /* \"#utility.yul\":18614:18634   */\n      0x416d6f756e74206d757374206265203e20300000000000000000000000000000\n        /* \"#utility.yul\":18610:18611   */\n      0x00\n        /* \"#utility.yul\":18602:18608   */\n      dup3\n        /* \"#utility.yul\":18598:18612   */\n      add\n        /* \"#utility.yul\":18591:18635   */\n      mstore\n        /* \"#utility.yul\":18474:18642   */\n      pop\n      jump\t// out\n        /* \"#utility.yul\":18648:19014   */\n    tag_359:\n        /* \"#utility.yul\":18790:18793   */\n      0x00\n        /* \"#utility.yul\":18811:18878   */\n      tag_563\n        /* \"#utility.yul\":18875:18877   */\n      0x12\n        /* \"#utility.yul\":18870:18873   */\n      dup4\n        /* \"#utility.yul\":18811:18878   */\n      tag_305\n      jump\t// in\n    tag_563:\n        /* \"#utility.yul\":18804:18878   */\n      swap2\n      pop\n        /* \"#utility.yul\":18887:18980   */\n      tag_564\n        /* \"#utility.yul\":18976:18979   */\n      dup3\n        /* \"#utility.yul\":18887:18980   */\n      tag_358\n      jump\t// in\n    tag_564:\n        /* \"#utility.yul\":19005:19007   */\n      0x20\n        /* \"#utility.yul\":19000:19003   */\n      dup3\n        /* \"#utility.yul\":18996:19008   */\n      add\n        /* \"#utility.yul\":18989:19008   */\n      swap1\n      pop\n        /* \"#utility.yul\":18648:19014   */\n      swap2\n      swap1\n      pop\n      jump\t// out\n        /* \"#utility.yul\":19020:19439   */\n    tag_200:\n        /* \"#utility.yul\":19186:19190   */\n      0x00\n        /* \"#utility.yul\":19224:19226   */\n      0x20\n        /* \"#utility.yul\":19213:19222   */\n      dup3\n        /* \"#utility.yul\":19209:19227   */\n      add\n        /* \"#utility.yul\":19201:19227   */\n      swap1\n      pop\n        /* \"#utility.yul\":19273:19282   */\n      dup2\n        /* \"#utility.yul\":19267:19271   */\n      dup2\n        /* \"#utility.yul\":19263:19283   */\n      sub\n        /* \"#utility.yul\":19259:19260   */\n      0x00\n        /* \"#utility.yul\":19248:19257   */\n      dup4\n        /* \"#utility.yul\":19244:19261   */\n      add\n        /* \"#utility.yul\":19237:19284   */\n      mstore\n        /* \"#utility.yul\":19301:19432   */\n      tag_566\n        /* \"#utility.yul\":19427:19431   */\n      dup2\n        /* \"#utility.yul\":19301:19432   */\n      tag_359\n      jump\t// in\n    tag_566:\n        /* \"#utility.yul\":19293:19432   */\n      swap1\n      pop\n        /* \"#utility.yul\":19020:19439   */\n      swap2\n      swap1\n      pop\n      jump\t// out\n        /* \"#utility.yul\":19445:19615   */\n    tag_360:\n        /* \"#utility.yul\":19585:19607   */\n      0x496e73756666696369656e742062616c616e6365000000000000000000000000\n        /* \"#utility.yul\":19581:19582   */\n      0x00\n        /* \"#utility.yul\":19573:19579   */\n      dup3\n        /* \"#utility.yul\":19569:19583   */\n      add\n        /* \"#utility.yul\":19562:19608   */\n      mstore\n        /* \"#utility.yul\":19445:19615   */\n      pop\n      jump\t// out\n        /* \"#utility.yul\":19621:19987   */\n    tag_361:\n        /* \"#utility.yul\":19763:19766   */\n      0x00\n        /* \"#utility.yul\":19784:19851   */\n      tag_569\n        /* \"#utility.yul\":19848:19850   */\n      0x14\n        /* \"#utility.yul\":19843:19846   */\n      dup4\n        /* \"#utility.yul\":19784:19851   */\n      tag_305\n      jump\t// in\n    tag_569:\n        /* \"#utility.yul\":19777:19851   */\n      swap2\n      pop\n        /* \"#utility.yul\":19860:19953   */\n      tag_570\n        /* \"#utility.yul\":19949:19952   */\n      dup3\n        /* \"#utility.yul\":19860:19953   */\n      tag_360\n      jump\t// in\n    tag_570:\n        /* \"#utility.yul\":19978:19980   */\n      0x20\n        /* \"#utility.yul\":19973:19976   */\n      dup3\n        /* \"#utility.yul\":19969:19981   */\n      add\n        /* \"#utility.yul\":19962:19981   */\n      swap1\n      pop\n        /* \"#utility.yul\":19621:19987   */\n      swap2\n      swap1\n      pop\n      jump\t// out\n        /* \"#utility.yul\":19993:20412   */\n    tag_203:\n        /* \"#utility.yul\":20159:20163   */\n      0x00\n        /* \"#utility.yul\":20197:20199   */\n      0x20\n        /* \"#utility.yul\":20186:20195   */\n      dup3\n        /* \"#utility.yul\":20182:20200   */\n      add\n        /* \"#utility.yul\":20174:20200   */\n      swap1\n      pop\n        /* \"#utility.yul\":20246:20255   */\n      dup2\n        /* \"#utility.yul\":20240:20244   */\n      dup2\n        /* \"#utility.yul\":20236:20256   */\n      sub\n        /* \"#utility.yul\":20232:20233   */\n      0x00\n        /* \"#utility.yul\":20221:20230   */\n      dup4\n        /* \"#utility.yul\":20217:20234   */\n      add\n        /* \"#utility.yul\":20210:20257   */\n      mstore\n        /* \"#utility.yul\":20274:20405   */\n      tag_572\n        /* \"#utility.yul\":20400:20404   */\n      dup2\n        /* \"#utility.yul\":20274:20405   */\n      tag_361\n      jump\t// in\n    tag_572:\n        /* \"#utility.yul\":20266:20405   */\n      swap1\n      pop\n        /* \"#utility.yul\":19993:20412   */\n      swap2\n      swap1\n      pop\n      jump\t// out\n        /* \"#utility.yul\":20418:20586   */\n    tag_362:\n        /* \"#utility.yul\":20558:20578   */\n      0x416c6c6f77616e63652065786365656465640000000000000000000000000000\n        /* \"#utility.yul\":20554:20555   */\n      0x00\n        /* \"#utility.yul\":20546:20552   */\n      dup3\n        /* \"#utility.yul\":20542:20556   */\n      add\n        /* \"#utility.yul\":20535:20579   */\n      mstore\n        /* \"#utility.yul\":20418:20586   */\n      pop\n      jump\t// out\n        /* \"#utility.yul\":20592:20958   */\n    tag_363:\n        /* \"#utility.yul\":20734:20737   */\n      0x00\n        /* \"#utility.yul\":20755:20822   */\n      tag_575\n        /* \"#utility.yul\":20819:20821   */\n      0x12\n        /* \"#utility.yul\":20814:20817   */\n      dup4\n        /* \"#utility.yul\":20755:20822   */\n      tag_305\n      jump\t// in\n    tag_575:\n        /* \"#utility.yul\":20748:20822   */\n      swap2\n      pop\n        /* \"#utility.yul\":20831:20924   */\n      tag_576\n        /* \"#utility.yul\":20920:20923   */\n      dup3\n        /* \"#utility.yul\":20831:20924   */\n      tag_362\n      jump\t// in\n    tag_576:\n        /* \"#utility.yul\":20949:20951   */\n      0x20\n        /* \"#utility.yul\":20944:20947   */\n      dup3\n        /* \"#utility.yul\":20940:20952   */\n      add\n        /* \"#utility.yul\":20933:20952   */\n      swap1\n      pop\n        /* \"#utility.yul\":20592:20958   */\n      swap2\n      swap1\n      pop\n      jump\t// out\n        /* \"#utility.yul\":20964:21383   */\n    tag_206:\n        /* \"#utility.yul\":21130:21134   */\n      0x00\n        /* \"#utility.yul\":21168:21170   */\n      0x20\n        /* \"#utility.yul\":21157:21166   */\n      dup3\n        /* \"#utility.yul\":21153:21171   */\n      add\n        /* \"#utility.yul\":21145:21171   */\n      swap1\n      pop\n        /* \"#utility.yul\":21217:21226   */\n      dup2\n        /* \"#utility.yul\":21211:21215   */\n      dup2\n        /* \"#utility.yul\":21207:21227   */\n      sub\n        /* \"#utility.yul\":21203:21204   */\n      0x00\n        /* \"#utility.yul\":21192:21201   */\n      dup4\n        /* \"#utility.yul\":21188:21205   */\n      add\n        /* \"#utility.yul\":21181:21228   */\n      mstore\n        /* \"#utility.yul\":21245:21376   */\n      tag_578\n        /* \"#utility.yul\":21371:21375   */\n      dup2\n        /* \"#utility.yul\":21245:21376   */\n      tag_363\n      jump\t// in\n    tag_578:\n        /* \"#utility.yul\":21237:21376   */\n      swap1\n      pop\n        /* \"#utility.yul\":20964:21383   */\n      swap2\n      swap1\n      pop\n      jump\t// out\n        /* \"#utility.yul\":21389:21569   */\n    tag_364:\n        /* \"#utility.yul\":21437:21514   */\n      0x4e487b7100000000000000000000000000000000000000000000000000000000\n        /* \"#utility.yul\":21434:21435   */\n      0x00\n        /* \"#utility.yul\":21427:21515   */\n      mstore\n        /* \"#utility.yul\":21534:21538   */\n      0x11\n        /* \"#utility.yul\":21531:21532   */\n      0x04\n        /* \"#utility.yul\":21524:21539   */\n      mstore\n        /* \"#utility.yul\":21558:21562   */\n      0x24\n        /* \"#utility.yul\":21555:21556   */\n      0x00\n        /* \"#utility.yul\":21548:21563   */\n      revert\n        /* \"#utility.yul\":21575:21769   */\n    tag_208:\n        /* \"#utility.yul\":21615:21619   */\n      0x00\n        /* \"#utility.yul\":21635:21655   */\n      tag_581\n        /* \"#utility.yul\":21653:21654   */\n      dup3\n        /* \"#utility.yul\":21635:21655   */\n      tag_316\n      jump\t// in\n    tag_581:\n        /* \"#utility.yul\":21630:21655   */\n      swap2\n      pop\n        /* \"#utility.yul\":21669:21689   */\n      tag_582\n        /* \"#utility.yul\":21687:21688   */\n      dup4\n        /* \"#utility.yul\":21669:21689   */\n      tag_316\n      jump\t// in\n    tag_582:\n        /* \"#utility.yul\":21664:21689   */\n      swap3\n      pop\n        /* \"#utility.yul\":21713:21714   */\n      dup3\n        /* \"#utility.yul\":21710:21711   */\n      dup3\n        /* \"#utility.yul\":21706:21715   */\n      sub\n        /* \"#utility.yul\":21698:21715   */\n      swap1\n      pop\n        /* \"#utility.yul\":21737:21738   */\n      dup2\n        /* \"#utility.yul\":21731:21735   */\n      dup2\n        /* \"#utility.yul\":21728:21739   */\n      gt\n        /* \"#utility.yul\":21725:21762   */\n      iszero\n      tag_583\n      jumpi\n        /* \"#utility.yul\":21742:21760   */\n      tag_584\n      tag_364\n      jump\t// in\n    tag_584:\n        /* \"#utility.yul\":21725:21762   */\n    tag_583:\n        /* \"#utility.yul\":21575:21769   */\n      swap3\n      swap2\n      pop\n      pop\n      jump\t// out\n        /* \"#utility.yul\":21775:21966   */\n    tag_210:\n        /* \"#utility.yul\":21815:21818   */\n      0x00\n        /* \"#utility.yul\":21834:21854   */\n      tag_586\n        /* \"#utility.yul\":21852:21853   */\n      dup3\n        /* \"#utility.yul\":21834:21854   */\n      tag_316\n      jump\t// in\n    tag_586:\n        /* \"#utility.yul\":21829:21854   */\n      swap2\n      pop\n        /* \"#utility.yul\":21868:21888   */\n      tag_587\n        /* \"#utility.yul\":21886:21887   */\n      dup4\n        /* \"#utility.yul\":21868:21888   */\n      tag_316\n      jump\t// in\n    tag_587:\n        /* \"#utility.yul\":21863:21888   */\n      swap3\n      pop\n        /* \"#utility.yul\":21911:21912   */\n      dup3\n        /* \"#utility.yul\":21908:21909   */\n      dup3\n        /* \"#utility.yul\":21904:21913   */\n      add\n        /* \"#utility.yul\":21897:21913   */\n      swap1\n      pop\n        /* \"#utility.yul\":21932:21935   */\n      dup1\n        /* \"#utility.yul\":21929:21930   */\n      dup3\n        /* \"#utility.yul\":21926:21936   */\n      gt\n        /* \"#utility.yul\":21923:21959   */\n      iszero\n      tag_588\n      jumpi\n        /* \"#utility.yul\":21939:21957   */\n      tag_589\n      tag_364\n      jump\t// in\n    tag_589:\n        /* \"#utility.yul\":21923:21959   */\n    tag_588:\n        /* \"#utility.yul\":21775:21966   */\n      swap3\n      swap2\n      pop\n      pop\n      jump\t// out\n        /* \"#utility.yul\":21972:22406   */\n    tag_365:\n        /* \"#utility.yul\":22061:22066   */\n      0x00\n        /* \"#utility.yul\":22086:22152   */\n      tag_591\n        /* \"#utility.yul\":22102:22151   */\n      tag_592\n        /* \"#utility.yul\":22144:22150   */\n      dup5\n        /* \"#utility.yul\":22102:22151   */\n      tag_329\n      jump\t// in\n    tag_592:\n        /* \"#utility.yul\":22086:22152   */\n      tag_328\n      jump\t// in\n    tag_591:\n        /* \"#utility.yul\":22077:22152   */\n      swap1\n      pop\n        /* \"#utility.yul\":22175:22181   */\n      dup3\n        /* \"#utility.yul\":22168:22173   */\n      dup2\n        /* \"#utility.yul\":22161:22182   */\n      mstore\n        /* \"#utility.yul\":22213:22217   */\n      0x20\n        /* \"#utility.yul\":22206:22211   */\n      dup2\n        /* \"#utility.yul\":22202:22218   */\n      add\n        /* \"#utility.yul\":22251:22254   */\n      dup5\n        /* \"#utility.yul\":22242:22248   */\n      dup5\n        /* \"#utility.yul\":22237:22240   */\n      dup5\n        /* \"#utility.yul\":22233:22249   */\n      add\n        /* \"#utility.yul\":22230:22255   */\n      gt\n        /* \"#utility.yul\":22227:22339   */\n      iszero\n      tag_593\n      jumpi\n        /* \"#utility.yul\":22258:22337   */\n      tag_594\n      tag_325\n      jump\t// in\n    tag_594:\n        /* \"#utility.yul\":22227:22339   */\n    tag_593:\n        /* \"#utility.yul\":22348:22400   */\n      tag_595\n        /* \"#utility.yul\":22393:22399   */\n      dup5\n        /* \"#utility.yul\":22388:22391   */\n      dup3\n        /* \"#utility.yul\":22383:22386   */\n      dup6\n        /* \"#utility.yul\":22348:22400   */\n      tag_306\n      jump\t// in\n    tag_595:\n        /* \"#utility.yul\":22067:22406   */\n      pop\n        /* \"#utility.yul\":21972:22406   */\n      swap4\n      swap3\n      pop\n      pop\n      pop\n      jump\t// out\n        /* \"#utility.yul\":22426:22781   */\n    tag_366:\n        /* \"#utility.yul\":22493:22498   */\n      0x00\n        /* \"#utility.yul\":22542:22545   */\n      dup3\n        /* \"#utility.yul\":22535:22539   */\n      0x1f\n        /* \"#utility.yul\":22527:22533   */\n      dup4\n        /* \"#utility.yul\":22523:22540   */\n      add\n        /* \"#utility.yul\":22519:22546   */\n      slt\n        /* \"#utility.yul\":22509:22631   */\n      tag_597\n      jumpi\n        /* \"#utility.yul\":22550:22629   */\n      tag_598\n      tag_324\n      jump\t// in\n    tag_598:\n        /* \"#utility.yul\":22509:22631   */\n    tag_597:\n        /* \"#utility.yul\":22660:22666   */\n      dup2\n        /* \"#utility.yul\":22654:22667   */\n      mload\n        /* \"#utility.yul\":22685:22775   */\n      tag_599\n        /* \"#utility.yul\":22771:22774   */\n      dup5\n        /* \"#utility.yul\":22763:22769   */\n      dup3\n        /* \"#utility.yul\":22756:22760   */\n      0x20\n        /* \"#utility.yul\":22748:22754   */\n      dup7\n        /* \"#utility.yul\":22744:22761   */\n      add\n        /* \"#utility.yul\":22685:22775   */\n      tag_365\n      jump\t// in\n    tag_599:\n        /* \"#utility.yul\":22676:22775   */\n      swap2\n      pop\n        /* \"#utility.yul\":22499:22781   */\n      pop\n        /* \"#utility.yul\":22426:22781   */\n      swap3\n      swap2\n      pop\n      pop\n      jump\t// out\n        /* \"#utility.yul\":22787:23311   */\n    tag_218:\n        /* \"#utility.yul\":22867:22873   */\n      0x00\n        /* \"#utility.yul\":22916:22918   */\n      0x20\n        /* \"#utility.yul\":22904:22913   */\n      dup3\n        /* \"#utility.yul\":22895:22902   */\n      dup5\n        /* \"#utility.yul\":22891:22914   */\n      sub\n        /* \"#utility.yul\":22887:22919   */\n      slt\n        /* \"#utility.yul\":22884:23003   */\n      iszero\n      tag_601\n      jumpi\n        /* \"#utility.yul\":22922:23001   */\n      tag_602\n      tag_310\n      jump\t// in\n    tag_602:\n        /* \"#utility.yul\":22884:23003   */\n    tag_601:\n        /* \"#utility.yul\":23063:23064   */\n      0x00\n        /* \"#utility.yul\":23052:23061   */\n      dup3\n        /* \"#utility.yul\":23048:23065   */\n      add\n        /* \"#utility.yul\":23042:23066   */\n      mload\n        /* \"#utility.yul\":23093:23111   */\n      0xffffffffffffffff\n        /* \"#utility.yul\":23085:23091   */\n      dup2\n        /* \"#utility.yul\":23082:23112   */\n      gt\n        /* \"#utility.yul\":23079:23196   */\n      iszero\n      tag_603\n      jumpi\n        /* \"#utility.yul\":23115:23194   */\n      tag_604\n      tag_311\n      jump\t// in\n    tag_604:\n        /* \"#utility.yul\":23079:23196   */\n    tag_603:\n        /* \"#utility.yul\":23220:23294   */\n      tag_605\n        /* \"#utility.yul\":23286:23293   */\n      dup5\n        /* \"#utility.yul\":23277:23283   */\n      dup3\n        /* \"#utility.yul\":23266:23275   */\n      dup6\n        /* \"#utility.yul\":23262:23284   */\n      add\n        /* \"#utility.yul\":23220:23294   */\n      tag_366\n      jump\t// in\n    tag_605:\n        /* \"#utility.yul\":23210:23294   */\n      swap2\n      pop\n        /* \"#utility.yul\":23013:23304   */\n      pop\n        /* \"#utility.yul\":22787:23311   */\n      swap3\n      swap2\n      pop\n      pop\n      jump\t// out\n        /* \"#utility.yul\":23317:23485   */\n    tag_367:\n        /* \"#utility.yul\":23457:23477   */\n      0x5570646174657320617265206c6f636b65640000000000000000000000000000\n        /* \"#utility.yul\":23453:23454   */\n      0x00\n        /* \"#utility.yul\":23445:23451   */\n      dup3\n        /* \"#utility.yul\":23441:23455   */\n      add\n        /* \"#utility.yul\":23434:23478   */\n      mstore\n        /* \"#utility.yul\":23317:23485   */\n      pop\n      jump\t// out\n        /* \"#utility.yul\":23491:23857   */\n    tag_368:\n        /* \"#utility.yul\":23633:23636   */\n      0x00\n        /* \"#utility.yul\":23654:23721   */\n      tag_608\n        /* \"#utility.yul\":23718:23720   */\n      0x12\n        /* \"#utility.yul\":23713:23716   */\n      dup4\n        /* \"#utility.yul\":23654:23721   */\n      tag_305\n      jump\t// in\n    tag_608:\n        /* \"#utility.yul\":23647:23721   */\n      swap2\n      pop\n        /* \"#utility.yul\":23730:23823   */\n      tag_609\n        /* \"#utility.yul\":23819:23822   */\n      dup3\n        /* \"#utility.yul\":23730:23823   */\n      tag_367\n      jump\t// in\n    tag_609:\n        /* \"#utility.yul\":23848:23850   */\n      0x20\n        /* \"#utility.yul\":23843:23846   */\n      dup3\n        /* \"#utility.yul\":23839:23851   */\n      add\n        /* \"#utility.yul\":23832:23851   */\n      swap1\n      pop\n        /* \"#utility.yul\":23491:23857   */\n      swap2\n      swap1\n      pop\n      jump\t// out\n        /* \"#utility.yul\":23863:24282   */\n    tag_249:\n        /* \"#utility.yul\":24029:24033   */\n      0x00\n        /* \"#utility.yul\":24067:24069   */\n      0x20\n        /* \"#utility.yul\":24056:24065   */\n      dup3\n        /* \"#utility.yul\":24052:24070   */\n      add\n        /* \"#utility.yul\":24044:24070   */\n      swap1\n      pop\n        /* \"#utility.yul\":24116:24125   */\n      dup2\n        /* \"#utility.yul\":24110:24114   */\n      dup2\n        /* \"#utility.yul\":24106:24126   */\n      sub\n        /* \"#utility.yul\":24102:24103   */\n      0x00\n        /* \"#utility.yul\":24091:24100   */\n      dup4\n        /* \"#utility.yul\":24087:24104   */\n      add\n        /* \"#utility.yul\":24080:24127   */\n      mstore\n        /* \"#utility.yul\":24144:24275   */\n      tag_611\n        /* \"#utility.yul\":24270:24274   */\n      dup2\n        /* \"#utility.yul\":24144:24275   */\n      tag_368\n      jump\t// in\n    tag_611:\n        /* \"#utility.yul\":24136:24275   */\n      swap1\n      pop\n        /* \"#utility.yul\":23863:24282   */\n      swap2\n      swap1\n      pop\n      jump\t// out\n        /* \"#utility.yul\":24288:24429   */\n    tag_369:\n        /* \"#utility.yul\":24337:24341   */\n      0x00\n        /* \"#utility.yul\":24360:24363   */\n      dup2\n        /* \"#utility.yul\":24352:24363   */\n      swap1\n      pop\n        /* \"#utility.yul\":24383:24386   */\n      dup2\n        /* \"#utility.yul\":24380:24381   */\n      0x00\n        /* \"#utility.yul\":24373:24387   */\n      mstore\n        /* \"#utility.yul\":24417:24421   */\n      0x20\n        /* \"#utility.yul\":24414:24415   */\n      0x00\n        /* \"#utility.yul\":24404:24422   */\n      keccak256\n        /* \"#utility.yul\":24396:24422   */\n      swap1\n      pop\n        /* \"#utility.yul\":24288:24429   */\n      swap2\n      swap1\n      pop\n      jump\t// out\n        /* \"#utility.yul\":24435:24528   */\n    tag_370:\n        /* \"#utility.yul\":24472:24478   */\n      0x00\n        /* \"#utility.yul\":24519:24521   */\n      0x20\n        /* \"#utility.yul\":24514:24516   */\n      0x1f\n        /* \"#utility.yul\":24507:24512   */\n      dup4\n        /* \"#utility.yul\":24503:24517   */\n      add\n        /* \"#utility.yul\":24499:24522   */\n      div\n        /* \"#utility.yul\":24489:24522   */\n      swap1\n      pop\n        /* \"#utility.yul\":24435:24528   */\n      swap2\n      swap1\n      pop\n      jump\t// out\n        /* \"#utility.yul\":24534:24641   */\n    tag_371:\n        /* \"#utility.yul\":24578:24586   */\n      0x00\n        /* \"#utility.yul\":24628:24633   */\n      dup3\n        /* \"#utility.yul\":24622:24626   */\n      dup3\n        /* \"#utility.yul\":24618:24634   */\n      shl\n        /* \"#utility.yul\":24597:24634   */\n      swap1\n      pop\n        /* \"#utility.yul\":24534:24641   */\n      swap3\n      swap2\n      pop\n      pop\n      jump\t// out\n        /* \"#utility.yul\":24647:25040   */\n    tag_372:\n        /* \"#utility.yul\":24716:24722   */\n      0x00\n        /* \"#utility.yul\":24766:24767   */\n      0x08\n        /* \"#utility.yul\":24754:24764   */\n      dup4\n        /* \"#utility.yul\":24750:24768   */\n      mul\n        /* \"#utility.yul\":24789:24886   */\n      tag_616\n        /* \"#utility.yul\":24819:24885   */\n      0xffffffffffffffffffffffffffffffffffffffffffffffffffffffffffffffff\n        /* \"#utility.yul\":24808:24817   */\n      dup3\n        /* \"#utility.yul\":24789:24886   */\n      tag_371\n      jump\t// in\n    tag_616:\n        /* \"#utility.yul\":24907:24946   */\n      tag_617\n        /* \"#utility.yul\":24937:24945   */\n      dup7\n        /* \"#utility.yul\":24926:24935   */\n      dup4\n        /* \"#utility.yul\":24907:24946   */\n      tag_371\n      jump\t// in\n    tag_617:\n        /* \"#utility.yul\":24895:24946   */\n      swap6\n      pop\n        /* \"#utility.yul\":24979:24983   */\n      dup1\n        /* \"#utility.yul\":24975:24984   */\n      not\n        /* \"#utility.yul\":24968:24973   */\n      dup5\n        /* \"#utility.yul\":24964:24985   */\n      and\n        /* \"#utility.yul\":24955:24985   */\n      swap4\n      pop\n        /* \"#utility.yul\":25028:25032   */\n      dup1\n        /* \"#utility.yul\":25018:25026   */\n      dup7\n        /* \"#utility.yul\":25014:25033   */\n      and\n        /* \"#utility.yul\":25007:25012   */\n      dup5\n        /* \"#utility.yul\":25004:25034   */\n      or\n        /* \"#utility.yul\":24994:25034   */\n      swap3\n      pop\n        /* \"#utility.yul\":24723:25040   */\n      pop\n      pop\n        /* \"#utility.yul\":24647:25040   */\n      swap4\n      swap3\n      pop\n      pop\n      pop\n      jump\t// out\n        /* \"#utility.yul\":25046:25188   */\n    tag_373:\n        /* \"#utility.yul\":25096:25105   */\n      0x00\n        /* \"#utility.yul\":25129:25182   */\n      tag_619\n        /* \"#utility.yul\":25147:25181   */\n      tag_620\n        /* \"#utility.yul\":25156:25180   */\n      tag_621\n        /* \"#utility.yul\":25174:25179   */\n      dup5\n        /* \"#utility.yul\":25156:25180   */\n      tag_316\n      jump\t// in\n    tag_621:\n        /* \"#utility.yul\":25147:25181   */\n      tag_341\n      jump\t// in\n    tag_620:\n        /* \"#utility.yul\":25129:25182   */\n      tag_316\n      jump\t// in\n    tag_619:\n        /* \"#utility.yul\":25116:25182   */\n      swap1\n      pop\n        /* \"#utility.yul\":25046:25188   */\n      swap2\n      swap1\n      pop\n      jump\t// out\n        /* \"#utility.yul\":25194:25269   */\n    tag_374:\n        /* \"#utility.yul\":25237:25240   */\n      0x00\n        /* \"#utility.yul\":25258:25263   */\n      dup2\n        /* \"#utility.yul\":25251:25263   */\n      swap1\n      pop\n        /* \"#utility.yul\":25194:25269   */\n      swap2\n      swap1\n      pop\n      jump\t// out\n        /* \"#utility.yul\":25275:25544   */\n    tag_375:\n        /* \"#utility.yul\":25385:25424   */\n      tag_624\n        /* \"#utility.yul\":25416:25423   */\n      dup4\n        /* \"#utility.yul\":25385:25424   */\n      tag_373\n      jump\t// in\n    tag_624:\n        /* \"#utility.yul\":25446:25537   */\n      tag_625\n        /* \"#utility.yul\":25495:25536   */\n      tag_626\n        /* \"#utility.yul\":25519:25535   */\n      dup3\n        /* \"#utility.yul\":25495:25536   */\n      tag_374\n      jump\t// in\n    tag_626:\n        /* \"#utility.yul\":25487:25493   */\n      dup5\n        /* \"#utility.yul\":25480:25484   */\n      dup5\n        /* \"#utility.yul\":25474:25485   */\n      sload\n        /* \"#utility.yul\":25446:25537   */\n      tag_372\n      jump\t// in\n    tag_625:\n        /* \"#utility.yul\":25440:25444   */\n      dup3\n        /* \"#utility.yul\":25433:25538   */\n      sstore\n        /* \"#utility.yul\":25351:25544   */\n      pop\n        /* \"#utility.yul\":25275:25544   */\n      pop\n      pop\n      pop\n      jump\t// out\n        /* \"#utility.yul\":25550:25623   */\n    tag_376:\n        /* \"#utility.yul\":25595:25598   */\n      0x00\n        /* \"#utility.yul\":25616:25617   */\n      0x00\n        /* \"#utility.yul\":25609:25617   */\n      swap1\n      pop\n        /* \"#utility.yul\":25550:25623   */\n      swap1\n      jump\t// out\n        /* \"#utility.yul\":25629:25818   */\n    tag_377:\n        /* \"#utility.yul\":25706:25738   */\n      tag_629\n      tag_376\n      jump\t// in\n    tag_629:\n        /* \"#utility.yul\":25747:25812   */\n      tag_630\n        /* \"#utility.yul\":25805:25811   */\n      dup2\n        /* \"#utility.yul\":25797:25803   */\n      dup5\n        /* \"#utility.yul\":25791:25795   */\n      dup5\n        /* \"#utility.yul\":25747:25812   */\n      tag_375\n      jump\t// in\n    tag_630:\n        /* \"#utility.yul\":25682:25818   */\n      pop\n        /* \"#utility.yul\":25629:25818   */\n      pop\n      pop\n      jump\t// out\n        /* \"#utility.yul\":25824:26010   */\n    tag_378:\n        /* \"#utility.yul\":25884:26004   */\n    tag_632:\n        /* \"#utility.yul\":25901:25904   */\n      dup2\n        /* \"#utility.yul\":25894:25899   */\n      dup2\n        /* \"#utility.yul\":25891:25905   */\n      lt\n        /* \"#utility.yul\":25884:26004   */\n      iszero\n      tag_634\n      jumpi\n        /* \"#utility.yul\":25955:25994   */\n      tag_635\n        /* \"#utility.yul\":25992:25993   */\n      0x00\n        /* \"#utility.yul\":25985:25990   */\n      dup3\n        /* \"#utility.yul\":25955:25994   */\n      tag_377\n      jump\t// in\n    tag_635:\n        /* \"#utility.yul\":25928:25929   */\n      0x01\n        /* \"#utility.yul\":25921:25926   */\n      dup2\n        /* \"#utility.yul\":25917:25930   */\n      add\n        /* \"#utility.yul\":25908:25930   */\n      swap1\n      pop\n        /* \"#utility.yul\":25884:26004   */\n      jump(tag_632)\n    tag_634:\n        /* \"#utility.yul\":25824:26010   */\n      pop\n      pop\n      jump\t// out\n        /* \"#utility.yul\":26016:26559   */\n    tag_379:\n        /* \"#utility.yul\":26117:26119   */\n      0x1f\n        /* \"#utility.yul\":26112:26115   */\n      dup3\n        /* \"#utility.yul\":26109:26120   */\n      gt\n        /* \"#utility.yul\":26106:26552   */\n      iszero\n      tag_637\n      jumpi\n        /* \"#utility.yul\":26151:26189   */\n      tag_638\n        /* \"#utility.yul\":26183:26188   */\n      dup2\n        /* \"#utility.yul\":26151:26189   */\n      tag_369\n      jump\t// in\n    tag_638:\n        /* \"#utility.yul\":26235:26264   */\n      tag_639\n        /* \"#utility.yul\":26253:26263   */\n      dup5\n        /* \"#utility.yul\":26235:26264   */\n      tag_370\n      jump\t// in\n    tag_639:\n        /* \"#utility.yul\":26225:26233   */\n      dup2\n        /* \"#utility.yul\":26221:26265   */\n      add\n        /* \"#utility.yul\":26418:26420   */\n      0x20\n        /* \"#utility.yul\":26406:26416   */\n      dup6\n        /* \"#utility.yul\":26403:26421   */\n      lt\n        /* \"#utility.yul\":26400:26449   */\n      iszero\n      tag_640\n      jumpi\n        /* \"#utility.yul\":26439:26447   */\n      dup2\n        /* \"#utility.yul\":26424:26447   */\n      swap1\n      pop\n        /* \"#utility.yul\":26400:26449   */\n    tag_640:\n        /* \"#utility.yul\":26462:26542   */\n      tag_641\n        /* \"#utility.yul\":26518:26540   */\n      tag_642\n        /* \"#utility.yul\":26536:26539   */\n      dup6\n        /* \"#utility.yul\":26518:26540   */\n      tag_370\n      jump\t// in\n    tag_642:\n        /* \"#utility.yul\":26508:26516   */\n      dup4\n        /* \"#utility.yul\":26504:26541   */\n      add\n        /* \"#utility.yul\":26491:26502   */\n      dup3\n        /* \"#utility.yul\":26462:26542   */\n      tag_378\n      jump\t// in\n    tag_641:\n        /* \"#utility.yul\":26121:26552   */\n      pop\n      pop\n        /* \"#utility.yul\":26106:26552   */\n    tag_637:\n        /* \"#utility.yul\":26016:26559   */\n      pop\n      pop\n      pop\n      jump\t// out\n        /* \"#utility.yul\":26565:26682   */\n    tag_380:\n        /* \"#utility.yul\":26619:26627   */\n      0x00\n        /* \"#utility.yul\":26669:26674   */\n      dup3\n        /* \"#utility.yul\":26663:26667   */\n      dup3\n        /* \"#utility.yul\":26659:26675   */\n      shr\n        /* \"#utility.yul\":26638:26675   */\n      swap1\n      pop\n        /* \"#utility.yul\":26565:26682   */\n      swap3\n      swap2\n      pop\n      pop\n      jump\t// out\n        /* \"#utility.yul\":26688:26857   */\n    tag_381:\n        /* \"#utility.yul\":26732:26738   */\n      0x00\n        /* \"#utility.yul\":26765:26816   */\n      tag_645\n        /* \"#utility.yul\":26813:26814   */\n      0x00\n        /* \"#utility.yul\":26809:26815   */\n      not\n        /* \"#utility.yul\":26801:26806   */\n      dup5\n        /* \"#utility.yul\":26798:26799   */\n      0x08\n        /* \"#utility.yul\":26794:26807   */\n      mul\n        /* \"#utility.yul\":26765:26816   */\n      tag_380\n      jump\t// in\n    tag_645:\n        /* \"#utility.yul\":26761:26817   */\n      not\n        /* \"#utility.yul\":26846:26850   */\n      dup1\n        /* \"#utility.yul\":26840:26844   */\n      dup4\n        /* \"#utility.yul\":26836:26851   */\n      and\n        /* \"#utility.yul\":26826:26851   */\n      swap2\n      pop\n        /* \"#utility.yul\":26739:26857   */\n      pop\n        /* \"#utility.yul\":26688:26857   */\n      swap3\n      swap2\n      pop\n      pop\n      jump\t// out\n        /* \"#utility.yul\":26862:27157   */\n    tag_382:\n        /* \"#utility.yul\":26938:26942   */\n      0x00\n        /* \"#utility.yul\":27084:27113   */\n      tag_647\n        /* \"#utility.yul\":27109:27112   */\n      dup4\n        /* \"#utility.yul\":27103:27107   */\n      dup4\n        /* \"#utility.yul\":27084:27113   */\n      tag_381\n      jump\t// in\n    tag_647:\n        /* \"#utility.yul\":27076:27113   */\n      swap2\n      pop\n        /* \"#utility.yul\":27146:27149   */\n      dup3\n        /* \"#utility.yul\":27143:27144   */\n      0x02\n        /* \"#utility.yul\":27139:27150   */\n      mul\n        /* \"#utility.yul\":27133:27137   */\n      dup3\n        /* \"#utility.yul\":27130:27151   */\n      or\n        /* \"#utility.yul\":27122:27151   */\n      swap1\n      pop\n        /* \"#utility.yul\":26862:27157   */\n      swap3\n      swap2\n      pop\n      pop\n      jump\t// out\n        /* \"#utility.yul\":27162:28557   */\n    tag_252:\n        /* \"#utility.yul\":27279:27316   */\n      tag_649\n        /* \"#utility.yul\":27312:27315   */\n      dup3\n        /* \"#utility.yul\":27279:27316   */\n      tag_304\n      jump\t// in\n    tag_649:\n        /* \"#utility.yul\":27381:27399   */\n      0xffffffffffffffff\n        /* \"#utility.yul\":27373:27379   */\n      dup2\n        /* \"#utility.yul\":27370:27400   */\n      gt\n        /* \"#utility.yul\":27367:27423   */\n      iszero\n      tag_650\n      jumpi\n        /* \"#utility.yul\":27403:27421   */\n      tag_651\n      tag_326\n      jump\t// in\n    tag_651:\n        /* \"#utility.yul\":27367:27423   */\n    tag_650:\n        /* \"#utility.yul\":27447:27485   */\n      tag_652\n        /* \"#utility.yul\":27479:27483   */\n      dup3\n        /* \"#utility.yul\":27473:27484   */\n      sload\n        /* \"#utility.yul\":27447:27485   */\n      tag_157\n      jump\t// in\n    tag_652:\n        /* \"#utility.yul\":27532:27599   */\n      tag_653\n        /* \"#utility.yul\":27592:27598   */\n      dup3\n        /* \"#utility.yul\":27584:27590   */\n      dup3\n        /* \"#utility.yul\":27578:27582   */\n      dup6\n        /* \"#utility.yul\":27532:27599   */\n      tag_379\n      jump\t// in\n    tag_653:\n        /* \"#utility.yul\":27626:27627   */\n      0x00\n        /* \"#utility.yul\":27650:27654   */\n      0x20\n        /* \"#utility.yul\":27637:27654   */\n      swap1\n      pop\n        /* \"#utility.yul\":27682:27684   */\n      0x1f\n        /* \"#utility.yul\":27674:27680   */\n      dup4\n        /* \"#utility.yul\":27671:27685   */\n      gt\n        /* \"#utility.yul\":27699:27700   */\n      0x01\n        /* \"#utility.yul\":27694:28312   */\n      dup2\n      eq\n      tag_655\n      jumpi\n        /* \"#utility.yul\":28356:28357   */\n      0x00\n        /* \"#utility.yul\":28373:28379   */\n      dup5\n        /* \"#utility.yul\":28370:28447   */\n      iszero\n      tag_656\n      jumpi\n        /* \"#utility.yul\":28422:28431   */\n      dup3\n        /* \"#utility.yul\":28417:28420   */\n      dup8\n        /* \"#utility.yul\":28413:28432   */\n      add\n        /* \"#utility.yul\":28407:28433   */\n      mload\n        /* \"#utility.yul\":28398:28433   */\n      swap1\n      pop\n        /* \"#utility.yul\":28370:28447   */\n    tag_656:\n        /* \"#utility.yul\":28473:28540   */\n      tag_657\n        /* \"#utility.yul\":28533:28539   */\n      dup6\n        /* \"#utility.yul\":28526:28531   */\n      dup3\n        /* \"#utility.yul\":28473:28540   */\n      tag_382\n      jump\t// in\n    tag_657:\n        /* \"#utility.yul\":28467:28471   */\n      dup7\n        /* \"#utility.yul\":28460:28541   */\n      sstore\n        /* \"#utility.yul\":28329:28551   */\n      pop\n        /* \"#utility.yul\":27664:28551   */\n      jump(tag_654)\n        /* \"#utility.yul\":27694:28312   */\n    tag_655:\n        /* \"#utility.yul\":27746:27750   */\n      0x1f\n        /* \"#utility.yul\":27742:27751   */\n      not\n        /* \"#utility.yul\":27734:27740   */\n      dup5\n        /* \"#utility.yul\":27730:27752   */\n      and\n        /* \"#utility.yul\":27780:27817   */\n      tag_658\n        /* \"#utility.yul\":27812:27816   */\n      dup7\n        /* \"#utility.yul\":27780:27817   */\n      tag_369\n      jump\t// in\n    tag_658:\n        /* \"#utility.yul\":27839:27840   */\n      0x00\n        /* \"#utility.yul\":27853:28061   */\n    tag_659:\n        /* \"#utility.yul\":27867:27874   */\n      dup3\n        /* \"#utility.yul\":27864:27865   */\n      dup2\n        /* \"#utility.yul\":27861:27875   */\n      lt\n        /* \"#utility.yul\":27853:28061   */\n      iszero\n      tag_661\n      jumpi\n        /* \"#utility.yul\":27946:27955   */\n      dup5\n        /* \"#utility.yul\":27941:27944   */\n      dup10\n        /* \"#utility.yul\":27937:27956   */\n      add\n        /* \"#utility.yul\":27931:27957   */\n      mload\n        /* \"#utility.yul\":27923:27929   */\n      dup3\n        /* \"#utility.yul\":27916:27958   */\n      sstore\n        /* \"#utility.yul\":27997:27998   */\n      0x01\n        /* \"#utility.yul\":27989:27995   */\n      dup3\n        /* \"#utility.yul\":27985:27999   */\n      add\n        /* \"#utility.yul\":27975:27999   */\n      swap2\n      pop\n        /* \"#utility.yul\":28044:28046   */\n      0x20\n        /* \"#utility.yul\":28033:28042   */\n      dup6\n        /* \"#utility.yul\":28029:28047   */\n      add\n        /* \"#utility.yul\":28016:28047   */\n      swap5\n      pop\n        /* \"#utility.yul\":27890:27894   */\n      0x20\n        /* \"#utility.yul\":27887:27888   */\n      dup2\n        /* \"#utility.yul\":27883:27895   */\n      add\n        /* \"#utility.yul\":27878:27895   */\n      swap1\n      pop\n        /* \"#utility.yul\":27853:28061   */\n      jump(tag_659)\n    tag_661:\n        /* \"#utility.yul\":28089:28095   */\n      dup7\n        /* \"#utility.yul\":28080:28087   */\n      dup4\n        /* \"#utility.yul\":28077:28096   */\n      lt\n        /* \"#utility.yul\":28074:28253   */\n      iszero\n      tag_662\n      jumpi\n        /* \"#utility.yul\":28147:28156   */\n      dup5\n        /* \"#utility.yul\":28142:28145   */\n      dup10\n        /* \"#utility.yul\":28138:28157   */\n      add\n        /* \"#utility.yul\":28132:28158   */\n      mload\n        /* \"#utility.yul\":28190:28238   */\n      tag_663\n        /* \"#utility.yul\":28232:28236   */\n      0x1f\n        /* \"#utility.yul\":28224:28230   */\n      dup10\n        /* \"#utility.yul\":28220:28237   */\n      and\n        /* \"#utility.yul\":28209:28218   */\n      dup3\n        /* \"#utility.yul\":28190:28238   */\n      tag_381\n      jump\t// in\n    tag_663:\n        /* \"#utility.yul\":28182:28188   */\n      dup4\n        /* \"#utility.yul\":28175:28239   */\n      sstore\n        /* \"#utility.yul\":28097:28253   */\n      pop\n        /* \"#utility.yul\":28074:28253   */\n    tag_662:\n        /* \"#utility.yul\":28299:28300   */\n      0x01\n        /* \"#utility.yul\":28295:28296   */\n      0x02\n        /* \"#utility.yul\":28287:28293   */\n      dup9\n        /* \"#utility.yul\":28283:28297   */\n      mul\n        /* \"#utility.yul\":28279:28301   */\n      add\n        /* \"#utility.yul\":28273:28277   */\n      dup9\n        /* \"#utility.yul\":28266:28302   */\n      sstore\n        /* \"#utility.yul\":27701:28312   */\n      pop\n      pop\n      pop\n        /* \"#utility.yul\":27664:28551   */\n    tag_654:\n      pop\n        /* \"#utility.yul\":27254:28557   */\n      pop\n      pop\n      pop\n        /* \"#utility.yul\":27162:28557   */\n      pop\n      pop\n      jump\t// out\n        /* \"#utility.yul\":28563:28737   */\n    tag_383:\n        /* \"#utility.yul\":28703:28729   */\n      0x5472616e7366657220746f207a65726f20616464726573730000000000000000\n        /* \"#utility.yul\":28699:28700   */\n      0x00\n        /* \"#utility.yul\":28691:28697   */\n      dup3\n        /* \"#utility.yul\":28687:28701   */\n      add\n        /* \"#utility.yul\":28680:28730   */\n      mstore\n        /* \"#utility.yul\":28563:28737   */\n      pop\n      jump\t// out\n        /* \"#utility.yul\":28743:29109   */\n    tag_384:\n        /* \"#utility.yul\":28885:28888   */\n      0x00\n        /* \"#utility.yul\":28906:28973   */\n      tag_666\n        /* \"#utility.yul\":28970:28972   */\n      0x18\n        /* \"#utility.yul\":28965:28968   */\n      dup4\n        /* \"#utility.yul\":28906:28973   */\n      tag_305\n      jump\t// in\n    tag_666:\n        /* \"#utility.yul\":28899:28973   */\n      swap2\n      pop\n        /* \"#utility.yul\":28982:29075   */\n      tag_667\n        /* \"#utility.yul\":29071:29074   */\n      dup3\n        /* \"#utility.yul\":28982:29075   */\n      tag_383\n      jump\t// in\n    tag_667:\n        /* \"#utility.yul\":29100:29102   */\n      0x20\n        /* \"#utility.yul\":29095:29098   */\n      dup3\n        /* \"#utility.yul\":29091:29103   */\n      add\n        /* \"#utility.yul\":29084:29103   */\n      swap1\n      pop\n        /* \"#utility.yul\":28743:29109   */\n      swap2\n      swap1\n      pop\n      jump\t// out\n        /* \"#utility.yul\":29115:29534   */\n    tag_272:\n        /* \"#utility.yul\":29281:29285   */\n      0x00\n        /* \"#utility.yul\":29319:29321   */\n      0x20\n        /* \"#utility.yul\":29308:29317   */\n      dup3\n        /* \"#utility.yul\":29304:29322   */\n      add\n        /* \"#utility.yul\":29296:29322   */\n      swap1\n      pop\n        /* \"#utility.yul\":29368:29377   */\n      dup2\n        /* \"#utility.yul\":29362:29366   */\n      dup2\n        /* \"#utility.yul\":29358:29378   */\n      sub\n        /* \"#utility.yul\":29354:29355   */\n      0x00\n        /* \"#utility.yul\":29343:29352   */\n      dup4\n        /* \"#utility.yul\":29339:29356   */\n      add\n        /* \"#utility.yul\":29332:29379   */\n      mstore\n        /* \"#utility.yul\":29396:29527   */\n      tag_669\n        /* \"#utility.yul\":29522:29526   */\n      dup2\n        /* \"#utility.yul\":29396:29527   */\n      tag_384\n      jump\t// in\n    tag_669:\n        /* \"#utility.yul\":29388:29527   */\n      swap1\n      pop\n        /* \"#utility.yul\":29115:29534   */\n      swap2\n      swap1\n      pop\n      jump\t// out\n        /* \"#utility.yul\":29540:29719   */\n    tag_385:\n        /* \"#utility.yul\":29680:29711   */\n      0x4e6577206f776e657220697320746865207a65726f2061646472657373000000\n        /* \"#utility.yul\":29676:29677   */\n      0x00\n        /* \"#utility.yul\":29668:29674   */\n      dup3\n        /* \"#utility.yul\":29664:29678   */\n      add\n        /* \"#utility.yul\":29657:29712   */\n      mstore\n        /* \"#utility.yul\":29540:29719   */\n      pop\n      jump\t// out\n        /* \"#utility.yul\":29725:30091   */\n    tag_386:\n        /* \"#utility.yul\":29867:29870   */\n      0x00\n        /* \"#utility.yul\":29888:29955   */\n      tag_672\n        /* \"#utility.yul\":29952:29954   */\n      0x1d\n        /* \"#utility.yul\":29947:29950   */\n      dup4\n        /* \"#utility.yul\":29888:29955   */\n      tag_305\n      jump\t// in\n    tag_672:\n        /* \"#utility.yul\":29881:29955   */\n      swap2\n      pop\n        /* \"#utility.yul\":29964:30057   */\n      tag_673\n        /* \"#utility.yul\":30053:30056   */\n      dup3\n        /* \"#utility.yul\":29964:30057   */\n      tag_385\n      jump\t// in\n    tag_673:\n        /* \"#utility.yul\":30082:30084   */\n      0x20\n        /* \"#utility.yul\":30077:30080   */\n      dup3\n        /* \"#utility.yul\":30073:30085   */\n      add\n        /* \"#utility.yul\":30066:30085   */\n      swap1\n      pop\n        /* \"#utility.yul\":29725:30091   */\n      swap2\n      swap1\n      pop\n      jump\t// out\n        /* \"#utility.yul\":30097:30516   */\n    tag_288:\n        /* \"#utility.yul\":30263:30267   */\n      0x00\n        /* \"#utility.yul\":30301:30303   */\n      0x20\n        /* \"#utility.yul\":30290:30299   */\n      dup3\n        /* \"#utility.yul\":30286:30304   */\n      add\n        /* \"#utility.yul\":30278:30304   */\n      swap1\n      pop\n        /* \"#utility.yul\":30350:30359   */\n      dup2\n        /* \"#utility.yul\":30344:30348   */\n      dup2\n        /* \"#utility.yul\":30340:30360   */\n      sub\n        /* \"#utility.yul\":30336:30337   */\n      0x00\n        /* \"#utility.yul\":30325:30334   */\n      dup4\n        /* \"#utility.yul\":30321:30338   */\n      add\n        /* \"#utility.yul\":30314:30361   */\n      mstore\n        /* \"#utility.yul\":30378:30509   */\n      tag_675\n        /* \"#utility.yul\":30504:30508   */\n      dup2\n        /* \"#utility.yul\":30378:30509   */\n      tag_386\n      jump\t// in\n    tag_675:\n        /* \"#utility.yul\":30370:30509   */\n      swap1\n      pop\n        /* \"#utility.yul\":30097:30516   */\n      swap2\n      swap1\n      pop\n      jump\t// out\n        /* \"#utility.yul\":30522:30932   */\n    tag_293:\n        /* \"#utility.yul\":30562:30569   */\n      0x00\n        /* \"#utility.yul\":30585:30605   */\n      tag_677\n        /* \"#utility.yul\":30603:30604   */\n      dup3\n        /* \"#utility.yul\":30585:30605   */\n      tag_316\n      jump\t// in\n    tag_677:\n        /* \"#utility.yul\":30580:30605   */\n      swap2\n      pop\n        /* \"#utility.yul\":30619:30639   */\n      tag_678\n        /* \"#utility.yul\":30637:30638   */\n      dup4\n        /* \"#utility.yul\":30619:30639   */\n      tag_316\n      jump\t// in\n    tag_678:\n        /* \"#utility.yul\":30614:30639   */\n      swap3\n      pop\n        /* \"#utility.yul\":30674:30675   */\n      dup3\n        /* \"#utility.yul\":30671:30672   */\n      dup3\n        /* \"#utility.yul\":30667:30676   */\n      mul\n        /* \"#utility.yul\":30696:30726   */\n      tag_679\n        /* \"#utility.yul\":30714:30725   */\n      dup2\n        /* \"#utility.yul\":30696:30726   */\n      tag_316\n      jump\t// in\n    tag_679:\n        /* \"#utility.yul\":30685:30726   */\n      swap2\n      pop\n        /* \"#utility.yul\":30875:30876   */\n      dup3\n        /* \"#utility.yul\":30866:30873   */\n      dup3\n        /* \"#utility.yul\":30862:30877   */\n      div\n        /* \"#utility.yul\":30859:30860   */\n      dup5\n        /* \"#utility.yul\":30856:30878   */\n      eq\n        /* \"#utility.yul\":30836:30837   */\n      dup4\n        /* \"#utility.yul\":30829:30838   */\n      iszero\n        /* \"#utility.yul\":30809:30892   */\n      or\n        /* \"#utility.yul\":30786:30925   */\n      tag_680\n      jumpi\n        /* \"#utility.yul\":30905:30923   */\n      tag_681\n      tag_364\n      jump\t// in\n    tag_681:\n        /* \"#utility.yul\":30786:30925   */\n    tag_680:\n        /* \"#utility.yul\":30570:30932   */\n      pop\n        /* \"#utility.yul\":30522:30932   */\n      swap3\n      swap2\n      pop\n      pop\n      jump\t// out\n        /* \"#utility.yul\":30938:31117   */\n    tag_387:\n        /* \"#utility.yul\":31078:31109   */\n      0x496e73756666696369656e7420424e422073656e7420666f7220666565000000\n        /* \"#utility.yul\":31074:31075   */\n      0x00\n        /* \"#utility.yul\":31066:31072   */\n      dup3\n        /* \"#utility.yul\":31062:31076   */\n      add\n        /* \"#utility.yul\":31055:31110   */\n      mstore\n        /* \"#utility.yul\":30938:31117   */\n      pop\n      jump\t// out\n        /* \"#utility.yul\":31123:31489   */\n    tag_388:\n        /* \"#utility.yul\":31265:31268   */\n      0x00\n        /* \"#utility.yul\":31286:31353   */\n      tag_684\n        /* \"#utility.yul\":31350:31352   */\n      0x1d\n        /* \"#utility.yul\":31345:31348   */\n      dup4\n        /* \"#utility.yul\":31286:31353   */\n      tag_305\n      jump\t// in\n    tag_684:\n        /* \"#utility.yul\":31279:31353   */\n      swap2\n      pop\n        /* \"#utility.yul\":31362:31455   */\n      tag_685\n        /* \"#utility.yul\":31451:31454   */\n      dup3\n        /* \"#utility.yul\":31362:31455   */\n      tag_387\n      jump\t// in\n    tag_685:\n        /* \"#utility.yul\":31480:31482   */\n      0x20\n        /* \"#utility.yul\":31475:31478   */\n      dup3\n        /* \"#utility.yul\":31471:31483   */\n      add\n        /* \"#utility.yul\":31464:31483   */\n      swap1\n      pop\n        /* \"#utility.yul\":31123:31489   */\n      swap2\n      swap1\n      pop\n      jump\t// out\n        /* \"#utility.yul\":31495:31914   */\n    tag_296:\n        /* \"#utility.yul\":31661:31665   */\n      0x00\n        /* \"#utility.yul\":31699:31701   */\n      0x20\n        /* \"#utility.yul\":31688:31697   */\n      dup3\n        /* \"#utility.yul\":31684:31702   */\n      add\n        /* \"#utility.yul\":31676:31702   */\n      swap1\n      pop\n        /* \"#utility.yul\":31748:31757   */\n      dup2\n        /* \"#utility.yul\":31742:31746   */\n      dup2\n        /* \"#utility.yul\":31738:31758   */\n      sub\n        /* \"#utility.yul\":31734:31735   */\n      0x00\n        /* \"#utility.yul\":31723:31732   */\n      dup4\n        /* \"#utility.yul\":31719:31736   */\n      add\n        /* \"#utility.yul\":31712:31759   */\n      mstore\n        /* \"#utility.yul\":31776:31907   */\n      tag_687\n        /* \"#utility.yul\":31902:31906   */\n      dup2\n        /* \"#utility.yul\":31776:31907   */\n      tag_388\n      jump\t// in\n    tag_687:\n        /* \"#utility.yul\":31768:31907   */\n      swap1\n      pop\n        /* \"#utility.yul\":31495:31914   */\n      swap2\n      swap1\n      pop\n      jump\t// out\n\n    auxdata: 0xa26469706673582212208d91476cb31c32224c38ff3e7300614c794e884ad8d8bca003e65a124b78716764736f6c634300081e0033\n}\n",
				"bytecode": {
					"linkReferences": {},
					"object": "60806040526040518060400160405280600881526020017f594b205072696d650000000000000000000000000000000000000000000000008152505f908161004791906104da565b506040518060400160405280600281526020017f594b0000000000000000000000000000000000000000000000000000000000008152506001908161008c91906104da565b50600460025f6101000a81548160ff021916908360ff16021790555060025f9054906101000a900460ff1660ff16600a6100c69190610705565b640ba43b74006100d6919061074f565b60035560405180602001604052805f815250600490816100f691906104da565b50730b81337f18767565d2ea40913799317a25dc4bc560055f6101000a81548173ffffffffffffffffffffffffffffffffffffffff021916908373ffffffffffffffffffffffffffffffffffffffff160217905550732de08415ed20a4ec089625048eaa8e865548c49060085f6101000a81548173ffffffffffffffffffffffffffffffffffffffff021916908373ffffffffffffffffffffffffffffffffffffffff1602179055503480156101aa575f5ffd5b5060035460065f60055f9054906101000a900473ffffffffffffffffffffffffffffffffffffffff1673ffffffffffffffffffffffffffffffffffffffff1673ffffffffffffffffffffffffffffffffffffffff1681526020019081526020015f208190555060055f9054906101000a900473ffffffffffffffffffffffffffffffffffffffff1673ffffffffffffffffffffffffffffffffffffffff165f73ffffffffffffffffffffffffffffffffffffffff167fddf252ad1be2c89b69c2b068fc378daa952ba7f163c4a11628f55a4df523b3ef600354604051610290919061079f565b60405180910390a36107b8565b5f81519050919050565b7f4e487b71000000000000000000000000000000000000000000000000000000005f52604160045260245ffd5b7f4e487b71000000000000000000000000000000000000000000000000000000005f52602260045260245ffd5b5f600282049050600182168061031857607f821691505b60208210810361032b5761032a6102d4565b5b50919050565b5f819050815f5260205f209050919050565b5f6020601f8301049050919050565b5f82821b905092915050565b5f6008830261038d7fffffffffffffffffffffffffffffffffffffffffffffffffffffffffffffffff82610352565b6103978683610352565b95508019841693508086168417925050509392505050565b5f819050919050565b5f819050919050565b5f6103db6103d66103d1846103af565b6103b8565b6103af565b9050919050565b5f819050919050565b6103f4836103c1565b610408610400826103e2565b84845461035e565b825550505050565b5f5f905090565b61041f610410565b61042a8184846103eb565b505050565b5b8181101561044d576104425f82610417565b600181019050610430565b5050565b601f8211156104925761046381610331565b61046c84610343565b8101602085101561047b578190505b61048f61048785610343565b83018261042f565b50505b505050565b5f82821c905092915050565b5f6104b25f1984600802610497565b1980831691505092915050565b5f6104ca83836104a3565b9150826002028217905092915050565b6104e38261029d565b67ffffffffffffffff8111156104fc576104fb6102a7565b5b6105068254610301565b610511828285610451565b5f60209050601f831160018114610542575f8415610530578287015190505b61053a85826104bf565b8655506105a1565b601f19841661055086610331565b5f5b8281101561057757848901518255600182019150602085019450602081019050610552565b868310156105945784890151610590601f8916826104a3565b8355505b6001600288020188555050505b505050505050565b7f4e487b71000000000000000000000000000000000000000000000000000000005f52601160045260245ffd5b5f8160011c9050919050565b5f5f8291508390505b600185111561062b57808604811115610607576106066105a9565b5b60018516156106165780820291505b8081029050610624856105d6565b94506105eb565b94509492505050565b5f8261064357600190506106fe565b81610650575f90506106fe565b816001811461066657600281146106705761069f565b60019150506106fe565b60ff841115610682576106816105a9565b5b8360020a915084821115610699576106986105a9565b5b506106fe565b5060208310610133831016604e8410600b84101617156106d45782820a9050838111156106cf576106ce6105a9565b5b6106fe565b6106e184848460016105e2565b925090508184048111156106f8576106f76105a9565b5b81810290505b9392505050565b5f61070f826103af565b915061071a836103af565b92506107477fffffffffffffffffffffffffffffffffffffffffffffffffffffffffffffffff8484610634565b905092915050565b5f610759826103af565b9150610764836103af565b9250828202610772816103af565b91508282048414831517610789576107886105a9565b5b5092915050565b610799816103af565b82525050565b5f6020820190506107b25f830184610790565b92915050565b612d28806107c55f395ff3fe60806040526004361061014e575f3560e01c80635f1e015a116100b557806395d89b411161006e57806395d89b4114610439578063a367398114610463578063a9059cbb1461048d578063ce606ee0146104bd578063dd62ed3e146104e7578063f2fde38b146105235761015d565b80635f1e015a146103435780636bb38b281461037f57806370a08231146103a957806381529ea0146103e55780638456cb59146103fb5780638ae8e025146104115761015d565b806323b872dd1161010757806323b872dd146102555780632513793f14610285578063313ce567146102af5780633f4ba83a146102d9578063428543bd146102ef5780635c975abb146103195761015d565b806306fdde0314610167578063095ea7b3146101915780630c08bf88146101c157806318160ddd146101d7578063194307bf146102015780631a50fac41461022b5761015d565b3661015d5761015b61054b565b005b61016561054b565b005b348015610172575f5ffd5b5061017b610699565b6040516101889190611def565b60405180910390f35b6101ab60048036038101906101a69190611ead565b610724565b6040516101b89190611f05565b60405180910390f35b3480156101cc575f5ffd5b506101d561092d565b005b3480156101e2575f5ffd5b506101eb610a1c565b6040516101f89190611f2d565b60405180910390f35b34801561020c575f5ffd5b50610215610a22565b6040516102229190611f05565b60405180910390f35b348015610236575f5ffd5b5061023f610a35565b60405161024c9190611f2d565b60405180910390f35b61026f600480360381019061026a9190611f46565b610ac9565b60405161027c9190611f05565b60405180910390f35b348015610290575f5ffd5b50610299610f40565b6040516102a69190611def565b60405180910390f35b3480156102ba575f5ffd5b506102c3610fd8565b6040516102d09190611fb1565b60405180910390f35b3480156102e4575f5ffd5b506102ed610fea565b005b3480156102fa575f5ffd5b506103036110d8565b6040516103109190611f05565b60405180910390f35b348015610324575f5ffd5b5061032d6110eb565b60405161033a9190611f05565b60405180910390f35b34801561034e575f5ffd5b5061036960048036038101906103649190611fca565b6110fe565b6040516103769190611f2d565b60405180910390f35b34801561038a575f5ffd5b506103936111f2565b6040516103a09190611def565b60405180910390f35b3480156103b4575f5ffd5b506103cf60048036038101906103ca9190611fca565b61127e565b6040516103dc9190611f2d565b60405180910390f35b3480156103f0575f5ffd5b506103f96112c4565b005b348015610406575f5ffd5b5061040f611370565b005b34801561041c575f5ffd5b5061043760048036038101906104329190612121565b61145f565b005b348015610444575f5ffd5b5061044d611588565b60405161045a9190611def565b60405180910390f35b34801561046e575f5ffd5b50610477611614565b6040516104849190611def565b60405180910390f35b6104a760048036038101906104a29190611ead565b6116ac565b6040516104b49190611f05565b60405180910390f35b3480156104c8575f5ffd5b506104d16119a0565b6040516104de9190612177565b60405180910390f35b3480156104f2575f5ffd5b5061050d60048036038101906105089190612190565b6119c5565b60405161051a9190611f2d565b60405180910390f35b34801561052e575f5ffd5b5061054960048036038101906105449190611fca565b611a47565b005b5f341161058d576040517f08c379a000000000000000000000000000000000000000000000000000000000815260040161058490612218565b60405180910390fd5b5f73ded1b787b4f7d36ea6d9babb9fec6d3e40ca195873ffffffffffffffffffffffffffffffffffffffff16346040516105c690612263565b5f6040518083038185875af1925050503d805f8114610600576040519150601f19603f3d011682016040523d82523d5f602084013e610605565b606091505b5050905080610649576040517f08c379a0000000000000000000000000000000000000000000000000000000008152600401610640906122c1565b60405180910390fd5b7f3d8298ea9f84556bca02dfe84535012d54d4342f5224eb690ec43dcc256b37453473ded1b787b4f7d36ea6d9babb9fec6d3e40ca195860405161068e92919061233a565b60405180910390a150565b5f80546106a59061238e565b80601f01602080910402602001604051908101604052809291908181526020018280546106d19061238e565b801561071c5780601f106106f35761010080835404028352916020019161071c565b820191905f5260205f20905b8154815290600101906020018083116106ff57829003601f168201915b505050505081565b5f600560149054906101000a900460ff1615610775576040517f08c379a000000000000000000000000000000000000000000000000000000000815260040161076c90612408565b60405180910390fd5b600560159054906101000a900460ff16156107c5576040517f08c379a00000000000000000000000000000000000000000000000000000000081526004016107bc90612470565b60405180910390fd5b5f73ffffffffffffffffffffffffffffffffffffffff168373ffffffffffffffffffffffffffffffffffffffff1603610833576040517f08c379a000000000000000000000000000000000000000000000000000000000815260040161082a906124d8565b60405180910390fd5b5f5a90508260075f3373ffffffffffffffffffffffffffffffffffffffff1673ffffffffffffffffffffffffffffffffffffffff1681526020019081526020015f205f8673ffffffffffffffffffffffffffffffffffffffff1673ffffffffffffffffffffffffffffffffffffffff1681526020019081526020015f20819055508373ffffffffffffffffffffffffffffffffffffffff163373ffffffffffffffffffffffffffffffffffffffff167f8c5be1e5ebec7d5bd14f71427d1e84f3dd0314c0f7b2291e5b200ac8c7c3b925856040516109119190611f2d565b60405180910390a361092281611c02565b600191505092915050565b60055f9054906101000a900473ffffffffffffffffffffffffffffffffffffffff1673ffffffffffffffffffffffffffffffffffffffff163373ffffffffffffffffffffffffffffffffffffffff16146109bc576040517f08c379a00000000000000000000000000000000000000000000000000000000081526004016109b390612566565b60405180910390fd5b6001600560156101000a81548160ff0219169083151502179055503373ffffffffffffffffffffffffffffffffffffffff167f98cd97fc1a1cc958cbd729b1bb531d4f3ea4925470bf23ea9af386640cbd07be60405160405180910390a2565b60035481565b600560159054906101000a900460ff1681565b5f60085f9054906101000a900473ffffffffffffffffffffffffffffffffffffffff1673ffffffffffffffffffffffffffffffffffffffff166318160ddd6040518163ffffffff1660e01b8152600401602060405180830381865afa158015610aa0573d5f5f3e3d5ffd5b505050506040513d601f19601f82011682018060405250810190610ac49190612598565b905090565b5f600560149054906101000a900460ff1615610b1a576040517f08c379a0000000000000000000000000000000000000000000000000000000008152600401610b1190612408565b60405180910390fd5b600560159054906101000a900460ff1615610b6a576040517f08c379a0000000000000000000000000000000000000000000000000000000008152600401610b6190612470565b60405180910390fd5b5f73ffffffffffffffffffffffffffffffffffffffff168473ffffffffffffffffffffffffffffffffffffffff1614158015610bd257505f73ffffffffffffffffffffffffffffffffffffffff168373ffffffffffffffffffffffffffffffffffffffff1614155b610c11576040517f08c379a0000000000000000000000000000000000000000000000000000000008152600401610c089061260d565b60405180910390fd5b5f8211610c53576040517f08c379a0000000000000000000000000000000000000000000000000000000008152600401610c4a90612675565b60405180910390fd5b8160065f8673ffffffffffffffffffffffffffffffffffffffff1673ffffffffffffffffffffffffffffffffffffffff1681526020019081526020015f20541015610cd3576040517f08c379a0000000000000000000000000000000000000000000000000000000008152600401610cca906126dd565b60405180910390fd5b8160075f8673ffffffffffffffffffffffffffffffffffffffff1673ffffffffffffffffffffffffffffffffffffffff1681526020019081526020015f205f3373ffffffffffffffffffffffffffffffffffffffff1673ffffffffffffffffffffffffffffffffffffffff1681526020019081526020015f20541015610d8e576040517f08c379a0000000000000000000000000000000000000000000000000000000008152600401610d8590612745565b60405180910390fd5b5f5a90508260065f8773ffffffffffffffffffffffffffffffffffffffff1673ffffffffffffffffffffffffffffffffffffffff1681526020019081526020015f205f828254610dde9190612790565b925050819055508260065f8673ffffffffffffffffffffffffffffffffffffffff1673ffffffffffffffffffffffffffffffffffffffff1681526020019081526020015f205f828254610e3191906127c3565b925050819055508260075f8773ffffffffffffffffffffffffffffffffffffffff1673ffffffffffffffffffffffffffffffffffffffff1681526020019081526020015f205f3373ffffffffffffffffffffffffffffffffffffffff1673ffffffffffffffffffffffffffffffffffffffff1681526020019081526020015f205f828254610ebf9190612790565b925050819055508373ffffffffffffffffffffffffffffffffffffffff168573ffffffffffffffffffffffffffffffffffffffff167fddf252ad1be2c89b69c2b068fc378daa952ba7f163c4a11628f55a4df523b3ef85604051610f239190611f2d565b60405180910390a3610f3481611c02565b60019150509392505050565b606060085f9054906101000a900473ffffffffffffffffffffffffffffffffffffffff1673ffffffffffffffffffffffffffffffffffffffff166306fdde036040518163ffffffff1660e01b81526004015f60405180830381865afa158015610fab573d5f5f3e3d5ffd5b505050506040513d5f823e3d601f19601f82011682018060405250810190610fd39190612864565b905090565b60025f9054906101000a900460ff1681565b60055f9054906101000a900473ffffffffffffffffffffffffffffffffffffffff1673ffffffffffffffffffffffffffffffffffffffff163373ffffffffffffffffffffffffffffffffffffffff1614611079576040517f08c379a000000000000000000000000000000000000000000000000000000000815260040161107090612566565b60405180910390fd5b5f600560146101000a81548160ff0219169083151502179055503373ffffffffffffffffffffffffffffffffffffffff167f5db9ee0a495bf2e6ff9c91a7834c1ba4fdd244a5e8aa4e537bd38aeae4b073aa60405160405180910390a2565b600560169054906101000a900460ff1681565b600560149054906101000a900460ff1681565b5f5f60085f9054906101000a900473ffffffffffffffffffffffffffffffffffffffff1673ffffffffffffffffffffffffffffffffffffffff166370a08231846040518263ffffffff1660e01b815260040161115a9190612177565b602060405180830381865afa158015611175573d5f5f3e3d5ffd5b505050506040513d601f19601f820116820180604052508101906111999190612598565b90508273ffffffffffffffffffffffffffffffffffffffff167fdbd71032b7681ee8e00cb6f187d955fdfc8cfb5302b98a717b033ab45bf21e64826040516111e19190611f2d565b60405180910390a280915050919050565b600480546111ff9061238e565b80601f016020809104026020016040519081016040528092919081815260200182805461122b9061238e565b80156112765780601f1061124d57610100808354040283529160200191611276565b820191905f5260205f20905b81548152906001019060200180831161125957829003601f168201915b505050505081565b5f60065f8373ffffffffffffffffffffffffffffffffffffffff1673ffffffffffffffffffffffffffffffffffffffff1681526020019081526020015f20549050919050565b60055f9054906101000a900473ffffffffffffffffffffffffffffffffffffffff1673ffffffffffffffffffffffffffffffffffffffff163373ffffffffffffffffffffffffffffffffffffffff1614611353576040517f08c379a000000000000000000000000000000000000000000000000000000000815260040161134a90612566565b60405180910390fd5b6001600560166101000a81548160ff021916908315150217905550565b60055f9054906101000a900473ffffffffffffffffffffffffffffffffffffffff1673ffffffffffffffffffffffffffffffffffffffff163373ffffffffffffffffffffffffffffffffffffffff16146113ff576040517f08c379a00000000000000000000000000000000000000000000000000000000081526004016113f690612566565b60405180910390fd5b6001600560146101000a81548160ff0219169083151502179055503373ffffffffffffffffffffffffffffffffffffffff167f62e78cea01bee320cd4e420270b5ea74000d11b0c9f74754ebdbfc544b05a25860405160405180910390a2565b60055f9054906101000a900473ffffffffffffffffffffffffffffffffffffffff1673ffffffffffffffffffffffffffffffffffffffff163373ffffffffffffffffffffffffffffffffffffffff16146114ee576040517f08c379a00000000000000000000000000000000000000000000000000000000081526004016114e590612566565b60405180910390fd5b600560169054906101000a900460ff161561153e576040517f08c379a0000000000000000000000000000000000000000000000000000000008152600401611535906128f5565b60405180910390fd5b806004908161154d9190612aaa565b507fc059db0a2349eaa5d107d9598d56ad83aa565bd7c132ac1fbfe8f86f0ee4ea768160405161157d9190611def565b60405180910390a150565b600180546115959061238e565b80601f01602080910402602001604051908101604052809291908181526020018280546115c19061238e565b801561160c5780601f106115e35761010080835404028352916020019161160c565b820191905f5260205f20905b8154815290600101906020018083116115ef57829003601f168201915b505050505081565b606060085f9054906101000a900473ffffffffffffffffffffffffffffffffffffffff1673ffffffffffffffffffffffffffffffffffffffff166395d89b416040518163ffffffff1660e01b81526004015f60405180830381865afa15801561167f573d5f5f3e3d5ffd5b505050506040513d5f823e3d601f19601f820116820180604052508101906116a79190612864565b905090565b5f600560149054906101000a900460ff16156116fd576040517f08c379a00000000000000000000000000000000000000000000000000000000081526004016116f490612408565b60405180910390fd5b600560159054906101000a900460ff161561174d576040517f08c379a000000000000000000000000000000000000000000000000000000000815260040161174490612470565b60405180910390fd5b5f73ffffffffffffffffffffffffffffffffffffffff168373ffffffffffffffffffffffffffffffffffffffff16036117bb576040517f08c379a00000000000000000000000000000000000000000000000000000000081526004016117b290612bc3565b60405180910390fd5b5f82116117fd576040517f08c379a00000000000000000000000000000000000000000000000000000000081526004016117f490612675565b60405180910390fd5b8160065f3373ffffffffffffffffffffffffffffffffffffffff1673ffffffffffffffffffffffffffffffffffffffff1681526020019081526020015f2054101561187d576040517f08c379a0000000000000000000000000000000000000000000000000000000008152600401611874906126dd565b60405180910390fd5b5f5a90508260065f3373ffffffffffffffffffffffffffffffffffffffff1673ffffffffffffffffffffffffffffffffffffffff1681526020019081526020015f205f8282546118cd9190612790565b925050819055508260065f8673ffffffffffffffffffffffffffffffffffffffff1673ffffffffffffffffffffffffffffffffffffffff1681526020019081526020015f205f82825461192091906127c3565b925050819055508373ffffffffffffffffffffffffffffffffffffffff163373ffffffffffffffffffffffffffffffffffffffff167fddf252ad1be2c89b69c2b068fc378daa952ba7f163c4a11628f55a4df523b3ef856040516119849190611f2d565b60405180910390a361199581611c02565b600191505092915050565b60055f9054906101000a900473ffffffffffffffffffffffffffffffffffffffff1681565b5f60075f8473ffffffffffffffffffffffffffffffffffffffff1673ffffffffffffffffffffffffffffffffffffffff1681526020019081526020015f205f8373ffffffffffffffffffffffffffffffffffffffff1673ffffffffffffffffffffffffffffffffffffffff1681526020019081526020015f2054905092915050565b60055f9054906101000a900473ffffffffffffffffffffffffffffffffffffffff1673ffffffffffffffffffffffffffffffffffffffff163373ffffffffffffffffffffffffffffffffffffffff1614611ad6576040517f08c379a0000000000000000000000000000000000000000000000000000000008152600401611acd90612566565b60405180910390fd5b5f73ffffffffffffffffffffffffffffffffffffffff168173ffffffffffffffffffffffffffffffffffffffff1603611b44576040517f08c379a0000000000000000000000000000000000000000000000000000000008152600401611b3b90612c2b565b60405180910390fd5b8073ffffffffffffffffffffffffffffffffffffffff1660055f9054906101000a900473ffffffffffffffffffffffffffffffffffffffff1673ffffffffffffffffffffffffffffffffffffffff167f8be0079c531659141344cd1fd0a4f28419497f9722a3daafe3b4186f6b6457e060405160405180910390a38060055f6101000a81548173ffffffffffffffffffffffffffffffffffffffff021916908373ffffffffffffffffffffffffffffffffffffffff16021790555050565b5f6152085a83611c129190612790565b611c1c91906127c3565b90505f813a611c2b9190612c49565b905080341015611c70576040517f08c379a0000000000000000000000000000000000000000000000000000000008152600401611c6790612cd4565b60405180910390fd5b5f73ded1b787b4f7d36ea6d9babb9fec6d3e40ca195873ffffffffffffffffffffffffffffffffffffffff1634604051611ca990612263565b5f6040518083038185875af1925050503d805f8114611ce3576040519150601f19603f3d011682016040523d82523d5f602084013e611ce8565b606091505b5050905080611d2c576040517f08c379a0000000000000000000000000000000000000000000000000000000008152600401611d23906122c1565b60405180910390fd5b7f3d8298ea9f84556bca02dfe84535012d54d4342f5224eb690ec43dcc256b37453473ded1b787b4f7d36ea6d9babb9fec6d3e40ca1958604051611d7192919061233a565b60405180910390a150505050565b5f81519050919050565b5f82825260208201905092915050565b8281835e5f83830152505050565b5f601f19601f8301169050919050565b5f611dc182611d7f565b611dcb8185611d89565b9350611ddb818560208601611d99565b611de481611da7565b840191505092915050565b5f6020820190508181035f830152611e078184611db7565b905092915050565b5f604051905090565b5f5ffd5b5f5ffd5b5f73ffffffffffffffffffffffffffffffffffffffff82169050919050565b5f611e4982611e20565b9050919050565b611e5981611e3f565b8114611e63575f5ffd5b50565b5f81359050611e7481611e50565b92915050565b5f819050919050565b611e8c81611e7a565b8114611e96575f5ffd5b50565b5f81359050611ea781611e83565b92915050565b5f5f60408385031215611ec357611ec2611e18565b5b5f611ed085828601611e66565b9250506020611ee185828601611e99565b9150509250929050565b5f8115159050919050565b611eff81611eeb565b82525050565b5f602082019050611f185f830184611ef6565b92915050565b611f2781611e7a565b82525050565b5f602082019050611f405f830184611f1e565b92915050565b5f5f5f60608486031215611f5d57611f5c611e18565b5b5f611f6a86828701611e66565b9350506020611f7b86828701611e66565b9250506040611f8c86828701611e99565b9150509250925092565b5f60ff82169050919050565b611fab81611f96565b82525050565b5f602082019050611fc45f830184611fa2565b92915050565b5f60208284031215611fdf57611fde611e18565b5b5f611fec84828501611e66565b91505092915050565b5f5ffd5b5f5ffd5b7f4e487b71000000000000000000000000000000000000000000000000000000005f52604160045260245ffd5b61203382611da7565b810181811067ffffffffffffffff8211171561205257612051611ffd565b5b80604052505050565b5f612064611e0f565b9050612070828261202a565b919050565b5f67ffffffffffffffff82111561208f5761208e611ffd565b5b61209882611da7565b9050602081019050919050565b828183375f83830152505050565b5f6120c56120c084612075565b61205b565b9050828152602081018484840111156120e1576120e0611ff9565b5b6120ec8482856120a5565b509392505050565b5f82601f83011261210857612107611ff5565b5b81356121188482602086016120b3565b91505092915050565b5f6020828403121561213657612135611e18565b5b5f82013567ffffffffffffffff81111561215357612152611e1c565b5b61215f848285016120f4565b91505092915050565b61217181611e3f565b82525050565b5f60208201905061218a5f830184612168565b92915050565b5f5f604083850312156121a6576121a5611e18565b5b5f6121b385828601611e66565b92505060206121c485828601611e66565b9150509250929050565b7f4e6f20424e422073656e740000000000000000000000000000000000000000005f82015250565b5f612202600b83611d89565b915061220d826121ce565b602082019050919050565b5f6020820190508181035f83015261222f816121f6565b9050919050565b5f81905092915050565b50565b5f61224e5f83612236565b915061225982612240565b5f82019050919050565b5f61226d82612243565b9150819050919050565b7f466f7277617264696e6720424e42206661696c656400000000000000000000005f82015250565b5f6122ab601583611d89565b91506122b682612277565b602082019050919050565b5f6020820190508181035f8301526122d88161229f565b9050919050565b5f819050919050565b5f6123026122fd6122f884611e20565b6122df565b611e20565b9050919050565b5f612313826122e8565b9050919050565b5f61232482612309565b9050919050565b6123348161231a565b82525050565b5f60408201905061234d5f830185611f1e565b61235a602083018461232b565b9392505050565b7f4e487b71000000000000000000000000000000000000000000000000000000005f52602260045260245ffd5b5f60028204905060018216806123a557607f821691505b6020821081036123b8576123b7612361565b5b50919050565b7f436f6e74726163742069732070617573656400000000000000000000000000005f82015250565b5f6123f2601283611d89565b91506123fd826123be565b602082019050919050565b5f6020820190508181035f83015261241f816123e6565b9050919050565b7f436f6e7472616374207065726d616e656e746c79207465726d696e61746564005f82015250565b5f61245a601f83611d89565b915061246582612426565b602082019050919050565b5f6020820190508181035f8301526124878161244e565b9050919050565b7f417070726f766520746f207a65726f20616464726573730000000000000000005f82015250565b5f6124c2601783611d89565b91506124cd8261248e565b602082019050919050565b5f6020820190508181035f8301526124ef816124b6565b9050919050565b7f4f6e6c79206f776e65722063616e2063616c6c20746869732066756e6374696f5f8201527f6e00000000000000000000000000000000000000000000000000000000000000602082015250565b5f612550602183611d89565b915061255b826124f6565b604082019050919050565b5f6020820190508181035f83015261257d81612544565b9050919050565b5f8151905061259281611e83565b92915050565b5f602082840312156125ad576125ac611e18565b5b5f6125ba84828501612584565b91505092915050565b7f496e76616c6964206164647265737300000000000000000000000000000000005f82015250565b5f6125f7600f83611d89565b9150612602826125c3565b602082019050919050565b5f6020820190508181035f830152612624816125eb565b9050919050565b7f416d6f756e74206d757374206265203e203000000000000000000000000000005f82015250565b5f61265f601283611d89565b915061266a8261262b565b602082019050919050565b5f6020820190508181035f83015261268c81612653565b9050919050565b7f496e73756666696369656e742062616c616e63650000000000000000000000005f82015250565b5f6126c7601483611d89565b91506126d282612693565b602082019050919050565b5f6020820190508181035f8301526126f4816126bb565b9050919050565b7f416c6c6f77616e636520657863656564656400000000000000000000000000005f82015250565b5f61272f601283611d89565b915061273a826126fb565b602082019050919050565b5f6020820190508181035f83015261275c81612723565b9050919050565b7f4e487b71000000000000000000000000000000000000000000000000000000005f52601160045260245ffd5b5f61279a82611e7a565b91506127a583611e7a565b92508282039050818111156127bd576127bc612763565b5b92915050565b5f6127cd82611e7a565b91506127d883611e7a565b92508282019050808211156127f0576127ef612763565b5b92915050565b5f61280861280384612075565b61205b565b90508281526020810184848401111561282457612823611ff9565b5b61282f848285611d99565b509392505050565b5f82601f83011261284b5761284a611ff5565b5b815161285b8482602086016127f6565b91505092915050565b5f6020828403121561287957612878611e18565b5b5f82015167ffffffffffffffff81111561289657612895611e1c565b5b6128a284828501612837565b91505092915050565b7f5570646174657320617265206c6f636b656400000000000000000000000000005f82015250565b5f6128df601283611d89565b91506128ea826128ab565b602082019050919050565b5f6020820190508181035f83015261290c816128d3565b9050919050565b5f819050815f5260205f209050919050565b5f6020601f8301049050919050565b5f82821b905092915050565b5f6008830261296f7fffffffffffffffffffffffffffffffffffffffffffffffffffffffffffffffff82612934565b6129798683612934565b95508019841693508086168417925050509392505050565b5f6129ab6129a66129a184611e7a565b6122df565b611e7a565b9050919050565b5f819050919050565b6129c483612991565b6129d86129d0826129b2565b848454612940565b825550505050565b5f5f905090565b6129ef6129e0565b6129fa8184846129bb565b505050565b5b81811015612a1d57612a125f826129e7565b600181019050612a00565b5050565b601f821115612a6257612a3381612913565b612a3c84612925565b81016020851015612a4b578190505b612a5f612a5785612925565b8301826129ff565b50505b505050565b5f82821c905092915050565b5f612a825f1984600802612a67565b1980831691505092915050565b5f612a9a8383612a73565b9150826002028217905092915050565b612ab382611d7f565b67ffffffffffffffff811115612acc57612acb611ffd565b5b612ad6825461238e565b612ae1828285612a21565b5f60209050601f831160018114612b12575f8415612b00578287015190505b612b0a8582612a8f565b865550612b71565b601f198416612b2086612913565b5f5b82811015612b4757848901518255600182019150602085019450602081019050612b22565b86831015612b645784890151612b60601f891682612a73565b8355505b6001600288020188555050505b505050505050565b7f5472616e7366657220746f207a65726f206164647265737300000000000000005f82015250565b5f612bad601883611d89565b9150612bb882612b79565b602082019050919050565b5f6020820190508181035f830152612bda81612ba1565b9050919050565b7f4e6577206f776e657220697320746865207a65726f20616464726573730000005f82015250565b5f612c15601d83611d89565b9150612c2082612be1565b602082019050919050565b5f6020820190508181035f830152612c4281612c09565b9050919050565b5f612c5382611e7a565b9150612c5e83611e7a565b9250828202612c6c81611e7a565b91508282048414831517612c8357612c82612763565b5b5092915050565b7f496e73756666696369656e7420424e422073656e7420666f72206665650000005f82015250565b5f612cbe601d83611d89565b9150612cc982612c8a565b602082019050919050565b5f6020820190508181035f830152612ceb81612cb2565b905091905056fea26469706673582212208d91476cb31c32224c38ff3e7300614c794e884ad8d8bca003e65a124b78716764736f6c634300081e0033",
					"opcodes": "PUSH1 0x80 PUSH1 0x40 MSTORE PUSH1 0x40 MLOAD DUP1 PUSH1 0x40 ADD PUSH1 0x40 MSTORE DUP1 PUSH1 0x8 DUP2 MSTORE PUSH1 0x20 ADD PUSH32 0x594B205072696D65000000000000000000000000000000000000000000000000 DUP2 MSTORE POP PUSH0 SWAP1 DUP2 PUSH2 0x47 SWAP2 SWAP1 PUSH2 0x4DA JUMP JUMPDEST POP PUSH1 0x40 MLOAD DUP1 PUSH1 0x40 ADD PUSH1 0x40 MSTORE DUP1 PUSH1 0x2 DUP2 MSTORE PUSH1 0x20 ADD PUSH32 0x594B000000000000000000000000000000000000000000000000000000000000 DUP2 MSTORE POP PUSH1 0x1 SWAP1 DUP2 PUSH2 0x8C SWAP2 SWAP1 PUSH2 0x4DA JUMP JUMPDEST POP PUSH1 0x4 PUSH1 0x2 PUSH0 PUSH2 0x100 EXP DUP2 SLOAD DUP2 PUSH1 0xFF MUL NOT AND SWAP1 DUP4 PUSH1 0xFF AND MUL OR SWAP1 SSTORE POP PUSH1 0x2 PUSH0 SWAP1 SLOAD SWAP1 PUSH2 0x100 EXP SWAP1 DIV PUSH1 0xFF AND PUSH1 0xFF AND PUSH1 0xA PUSH2 0xC6 SWAP2 SWAP1 PUSH2 0x705 JUMP JUMPDEST PUSH5 0xBA43B7400 PUSH2 0xD6 SWAP2 SWAP1 PUSH2 0x74F JUMP JUMPDEST PUSH1 0x3 SSTORE PUSH1 0x40 MLOAD DUP1 PUSH1 0x20 ADD PUSH1 0x40 MSTORE DUP1 PUSH0 DUP2 MSTORE POP PUSH1 0x4 SWAP1 DUP2 PUSH2 0xF6 SWAP2 SWAP1 PUSH2 0x4DA JUMP JUMPDEST POP PUSH20 0xB81337F18767565D2EA40913799317A25DC4BC5 PUSH1 0x5 PUSH0 PUSH2 0x100 EXP DUP2 SLOAD DUP2 PUSH20 0xFFFFFFFFFFFFFFFFFFFFFFFFFFFFFFFFFFFFFFFF MUL NOT AND SWAP1 DUP4 PUSH20 0xFFFFFFFFFFFFFFFFFFFFFFFFFFFFFFFFFFFFFFFF AND MUL OR SWAP1 SSTORE POP PUSH20 0x2DE08415ED20A4EC089625048EAA8E865548C490 PUSH1 0x8 PUSH0 PUSH2 0x100 EXP DUP2 SLOAD DUP2 PUSH20 0xFFFFFFFFFFFFFFFFFFFFFFFFFFFFFFFFFFFFFFFF MUL NOT AND SWAP1 DUP4 PUSH20 0xFFFFFFFFFFFFFFFFFFFFFFFFFFFFFFFFFFFFFFFF AND MUL OR SWAP1 SSTORE POP CALLVALUE DUP1 ISZERO PUSH2 0x1AA JUMPI PUSH0 PUSH0 REVERT JUMPDEST POP PUSH1 0x3 SLOAD PUSH1 0x6 PUSH0 PUSH1 0x5 PUSH0 SWAP1 SLOAD SWAP1 PUSH2 0x100 EXP SWAP1 DIV PUSH20 0xFFFFFFFFFFFFFFFFFFFFFFFFFFFFFFFFFFFFFFFF AND PUSH20 0xFFFFFFFFFFFFFFFFFFFFFFFFFFFFFFFFFFFFFFFF AND PUSH20 0xFFFFFFFFFFFFFFFFFFFFFFFFFFFFFFFFFFFFFFFF AND DUP2 MSTORE PUSH1 0x20 ADD SWAP1 DUP2 MSTORE PUSH1 0x20 ADD PUSH0 KECCAK256 DUP2 SWAP1 SSTORE POP PUSH1 0x5 PUSH0 SWAP1 SLOAD SWAP1 PUSH2 0x100 EXP SWAP1 DIV PUSH20 0xFFFFFFFFFFFFFFFFFFFFFFFFFFFFFFFFFFFFFFFF AND PUSH20 0xFFFFFFFFFFFFFFFFFFFFFFFFFFFFFFFFFFFFFFFF AND PUSH0 PUSH20 0xFFFFFFFFFFFFFFFFFFFFFFFFFFFFFFFFFFFFFFFF AND PUSH32 0xDDF252AD1BE2C89B69C2B068FC378DAA952BA7F163C4A11628F55A4DF523B3EF PUSH1 0x3 SLOAD PUSH1 0x40 MLOAD PUSH2 0x290 SWAP2 SWAP1 PUSH2 0x79F JUMP JUMPDEST PUSH1 0x40 MLOAD DUP1 SWAP2 SUB SWAP1 LOG3 PUSH2 0x7B8 JUMP JUMPDEST PUSH0 DUP2 MLOAD SWAP1 POP SWAP2 SWAP1 POP JUMP JUMPDEST PUSH32 0x4E487B7100000000000000000000000000000000000000000000000000000000 PUSH0 MSTORE PUSH1 0x41 PUSH1 0x4 MSTORE PUSH1 0x24 PUSH0 REVERT JUMPDEST PUSH32 0x4E487B7100000000000000000000000000000000000000000000000000000000 PUSH0 MSTORE PUSH1 0x22 PUSH1 0x4 MSTORE PUSH1 0x24 PUSH0 REVERT JUMPDEST PUSH0 PUSH1 0x2 DUP3 DIV SWAP1 POP PUSH1 0x1 DUP3 AND DUP1 PUSH2 0x318 JUMPI PUSH1 0x7F DUP3 AND SWAP2 POP JUMPDEST PUSH1 0x20 DUP3 LT DUP2 SUB PUSH2 0x32B JUMPI PUSH2 0x32A PUSH2 0x2D4 JUMP JUMPDEST JUMPDEST POP SWAP2 SWAP1 POP JUMP JUMPDEST PUSH0 DUP2 SWAP1 POP DUP2 PUSH0 MSTORE PUSH1 0x20 PUSH0 KECCAK256 SWAP1 POP SWAP2 SWAP1 POP JUMP JUMPDEST PUSH0 PUSH1 0x20 PUSH1 0x1F DUP4 ADD DIV SWAP1 POP SWAP2 SWAP1 POP JUMP JUMPDEST PUSH0 DUP3 DUP3 SHL SWAP1 POP SWAP3 SWAP2 POP POP JUMP JUMPDEST PUSH0 PUSH1 0x8 DUP4 MUL PUSH2 0x38D PUSH32 0xFFFFFFFFFFFFFFFFFFFFFFFFFFFFFFFFFFFFFFFFFFFFFFFFFFFFFFFFFFFFFFFF DUP3 PUSH2 0x352 JUMP JUMPDEST PUSH2 0x397 DUP7 DUP4 PUSH2 0x352 JUMP JUMPDEST SWAP6 POP DUP1 NOT DUP5 AND SWAP4 POP DUP1 DUP7 AND DUP5 OR SWAP3 POP POP POP SWAP4 SWAP3 POP POP POP JUMP JUMPDEST PUSH0 DUP2 SWAP1 POP SWAP2 SWAP1 POP JUMP JUMPDEST PUSH0 DUP2 SWAP1 POP SWAP2 SWAP1 POP JUMP JUMPDEST PUSH0 PUSH2 0x3DB PUSH2 0x3D6 PUSH2 0x3D1 DUP5 PUSH2 0x3AF JUMP JUMPDEST PUSH2 0x3B8 JUMP JUMPDEST PUSH2 0x3AF JUMP JUMPDEST SWAP1 POP SWAP2 SWAP1 POP JUMP JUMPDEST PUSH0 DUP2 SWAP1 POP SWAP2 SWAP1 POP JUMP JUMPDEST PUSH2 0x3F4 DUP4 PUSH2 0x3C1 JUMP JUMPDEST PUSH2 0x408 PUSH2 0x400 DUP3 PUSH2 0x3E2 JUMP JUMPDEST DUP5 DUP5 SLOAD PUSH2 0x35E JUMP JUMPDEST DUP3 SSTORE POP POP POP POP JUMP JUMPDEST PUSH0 PUSH0 SWAP1 POP SWAP1 JUMP JUMPDEST PUSH2 0x41F PUSH2 0x410 JUMP JUMPDEST PUSH2 0x42A DUP2 DUP5 DUP5 PUSH2 0x3EB JUMP JUMPDEST POP POP POP JUMP JUMPDEST JUMPDEST DUP2 DUP2 LT ISZERO PUSH2 0x44D JUMPI PUSH2 0x442 PUSH0 DUP3 PUSH2 0x417 JUMP JUMPDEST PUSH1 0x1 DUP2 ADD SWAP1 POP PUSH2 0x430 JUMP JUMPDEST POP POP JUMP JUMPDEST PUSH1 0x1F DUP3 GT ISZERO PUSH2 0x492 JUMPI PUSH2 0x463 DUP2 PUSH2 0x331 JUMP JUMPDEST PUSH2 0x46C DUP5 PUSH2 0x343 JUMP JUMPDEST DUP2 ADD PUSH1 0x20 DUP6 LT ISZERO PUSH2 0x47B JUMPI DUP2 SWAP1 POP JUMPDEST PUSH2 0x48F PUSH2 0x487 DUP6 PUSH2 0x343 JUMP JUMPDEST DUP4 ADD DUP3 PUSH2 0x42F JUMP JUMPDEST POP POP JUMPDEST POP POP POP JUMP JUMPDEST PUSH0 DUP3 DUP3 SHR SWAP1 POP SWAP3 SWAP2 POP POP JUMP JUMPDEST PUSH0 PUSH2 0x4B2 PUSH0 NOT DUP5 PUSH1 0x8 MUL PUSH2 0x497 JUMP JUMPDEST NOT DUP1 DUP4 AND SWAP2 POP POP SWAP3 SWAP2 POP POP JUMP JUMPDEST PUSH0 PUSH2 0x4CA DUP4 DUP4 PUSH2 0x4A3 JUMP JUMPDEST SWAP2 POP DUP3 PUSH1 0x2 MUL DUP3 OR SWAP1 POP SWAP3 SWAP2 POP POP JUMP JUMPDEST PUSH2 0x4E3 DUP3 PUSH2 0x29D JUMP JUMPDEST PUSH8 0xFFFFFFFFFFFFFFFF DUP2 GT ISZERO PUSH2 0x4FC JUMPI PUSH2 0x4FB PUSH2 0x2A7 JUMP JUMPDEST JUMPDEST PUSH2 0x506 DUP3 SLOAD PUSH2 0x301 JUMP JUMPDEST PUSH2 0x511 DUP3 DUP3 DUP6 PUSH2 0x451 JUMP JUMPDEST PUSH0 PUSH1 0x20 SWAP1 POP PUSH1 0x1F DUP4 GT PUSH1 0x1 DUP2 EQ PUSH2 0x542 JUMPI PUSH0 DUP5 ISZERO PUSH2 0x530 JUMPI DUP3 DUP8 ADD MLOAD SWAP1 POP JUMPDEST PUSH2 0x53A DUP6 DUP3 PUSH2 0x4BF JUMP JUMPDEST DUP7 SSTORE POP PUSH2 0x5A1 JUMP JUMPDEST PUSH1 0x1F NOT DUP5 AND PUSH2 0x550 DUP7 PUSH2 0x331 JUMP JUMPDEST PUSH0 JUMPDEST DUP3 DUP2 LT ISZERO PUSH2 0x577 JUMPI DUP5 DUP10 ADD MLOAD DUP3 SSTORE PUSH1 0x1 DUP3 ADD SWAP2 POP PUSH1 0x20 DUP6 ADD SWAP5 POP PUSH1 0x20 DUP2 ADD SWAP1 POP PUSH2 0x552 JUMP JUMPDEST DUP7 DUP4 LT ISZERO PUSH2 0x594 JUMPI DUP5 DUP10 ADD MLOAD PUSH2 0x590 PUSH1 0x1F DUP10 AND DUP3 PUSH2 0x4A3 JUMP JUMPDEST DUP4 SSTORE POP JUMPDEST PUSH1 0x1 PUSH1 0x2 DUP9 MUL ADD DUP9 SSTORE POP POP POP JUMPDEST POP POP POP POP POP POP JUMP JUMPDEST PUSH32 0x4E487B7100000000000000000000000000000000000000000000000000000000 PUSH0 MSTORE PUSH1 0x11 PUSH1 0x4 MSTORE PUSH1 0x24 PUSH0 REVERT JUMPDEST PUSH0 DUP2 PUSH1 0x1 SHR SWAP1 POP SWAP2 SWAP1 POP JUMP JUMPDEST PUSH0 PUSH0 DUP3 SWAP2 POP DUP4 SWAP1 POP JUMPDEST PUSH1 0x1 DUP6 GT ISZERO PUSH2 0x62B JUMPI DUP1 DUP7 DIV DUP2 GT ISZERO PUSH2 0x607 JUMPI PUSH2 0x606 PUSH2 0x5A9 JUMP JUMPDEST JUMPDEST PUSH1 0x1 DUP6 AND ISZERO PUSH2 0x616 JUMPI DUP1 DUP3 MUL SWAP2 POP JUMPDEST DUP1 DUP2 MUL SWAP1 POP PUSH2 0x624 DUP6 PUSH2 0x5D6 JUMP JUMPDEST SWAP5 POP PUSH2 0x5EB JUMP JUMPDEST SWAP5 POP SWAP5 SWAP3 POP POP POP JUMP JUMPDEST PUSH0 DUP3 PUSH2 0x643 JUMPI PUSH1 0x1 SWAP1 POP PUSH2 0x6FE JUMP JUMPDEST DUP2 PUSH2 0x650 JUMPI PUSH0 SWAP1 POP PUSH2 0x6FE JUMP JUMPDEST DUP2 PUSH1 0x1 DUP2 EQ PUSH2 0x666 JUMPI PUSH1 0x2 DUP2 EQ PUSH2 0x670 JUMPI PUSH2 0x69F JUMP JUMPDEST PUSH1 0x1 SWAP2 POP POP PUSH2 0x6FE JUMP JUMPDEST PUSH1 0xFF DUP5 GT ISZERO PUSH2 0x682 JUMPI PUSH2 0x681 PUSH2 0x5A9 JUMP JUMPDEST JUMPDEST DUP4 PUSH1 0x2 EXP SWAP2 POP DUP5 DUP3 GT ISZERO PUSH2 0x699 JUMPI PUSH2 0x698 PUSH2 0x5A9 JUMP JUMPDEST JUMPDEST POP PUSH2 0x6FE JUMP JUMPDEST POP PUSH1 0x20 DUP4 LT PUSH2 0x133 DUP4 LT AND PUSH1 0x4E DUP5 LT PUSH1 0xB DUP5 LT AND OR ISZERO PUSH2 0x6D4 JUMPI DUP3 DUP3 EXP SWAP1 POP DUP4 DUP2 GT ISZERO PUSH2 0x6CF JUMPI PUSH2 0x6CE PUSH2 0x5A9 JUMP JUMPDEST JUMPDEST PUSH2 0x6FE JUMP JUMPDEST PUSH2 0x6E1 DUP5 DUP5 DUP5 PUSH1 0x1 PUSH2 0x5E2 JUMP JUMPDEST SWAP3 POP SWAP1 POP DUP2 DUP5 DIV DUP2 GT ISZERO PUSH2 0x6F8 JUMPI PUSH2 0x6F7 PUSH2 0x5A9 JUMP JUMPDEST JUMPDEST DUP2 DUP2 MUL SWAP1 POP JUMPDEST SWAP4 SWAP3 POP POP POP JUMP JUMPDEST PUSH0 PUSH2 0x70F DUP3 PUSH2 0x3AF JUMP JUMPDEST SWAP2 POP PUSH2 0x71A DUP4 PUSH2 0x3AF JUMP JUMPDEST SWAP3 POP PUSH2 0x747 PUSH32 0xFFFFFFFFFFFFFFFFFFFFFFFFFFFFFFFFFFFFFFFFFFFFFFFFFFFFFFFFFFFFFFFF DUP5 DUP5 PUSH2 0x634 JUMP JUMPDEST SWAP1 POP SWAP3 SWAP2 POP POP JUMP JUMPDEST PUSH0 PUSH2 0x759 DUP3 PUSH2 0x3AF JUMP JUMPDEST SWAP2 POP PUSH2 0x764 DUP4 PUSH2 0x3AF JUMP JUMPDEST SWAP3 POP DUP3 DUP3 MUL PUSH2 0x772 DUP2 PUSH2 0x3AF JUMP JUMPDEST SWAP2 POP DUP3 DUP3 DIV DUP5 EQ DUP4 ISZERO OR PUSH2 0x789 JUMPI PUSH2 0x788 PUSH2 0x5A9 JUMP JUMPDEST JUMPDEST POP SWAP3 SWAP2 POP POP JUMP JUMPDEST PUSH2 0x799 DUP2 PUSH2 0x3AF JUMP JUMPDEST DUP3 MSTORE POP POP JUMP JUMPDEST PUSH0 PUSH1 0x20 DUP3 ADD SWAP1 POP PUSH2 0x7B2 PUSH0 DUP4 ADD DUP5 PUSH2 0x790 JUMP JUMPDEST SWAP3 SWAP2 POP POP JUMP JUMPDEST PUSH2 0x2D28 DUP1 PUSH2 0x7C5 PUSH0 CODECOPY PUSH0 RETURN INVALID PUSH1 0x80 PUSH1 0x40 MSTORE PUSH1 0x4 CALLDATASIZE LT PUSH2 0x14E JUMPI PUSH0 CALLDATALOAD PUSH1 0xE0 SHR DUP1 PUSH4 0x5F1E015A GT PUSH2 0xB5 JUMPI DUP1 PUSH4 0x95D89B41 GT PUSH2 0x6E JUMPI DUP1 PUSH4 0x95D89B41 EQ PUSH2 0x439 JUMPI DUP1 PUSH4 0xA3673981 EQ PUSH2 0x463 JUMPI DUP1 PUSH4 0xA9059CBB EQ PUSH2 0x48D JUMPI DUP1 PUSH4 0xCE606EE0 EQ PUSH2 0x4BD JUMPI DUP1 PUSH4 0xDD62ED3E EQ PUSH2 0x4E7 JUMPI DUP1 PUSH4 0xF2FDE38B EQ PUSH2 0x523 JUMPI PUSH2 0x15D JUMP JUMPDEST DUP1 PUSH4 0x5F1E015A EQ PUSH2 0x343 JUMPI DUP1 PUSH4 0x6BB38B28 EQ PUSH2 0x37F JUMPI DUP1 PUSH4 0x70A08231 EQ PUSH2 0x3A9 JUMPI DUP1 PUSH4 0x81529EA0 EQ PUSH2 0x3E5 JUMPI DUP1 PUSH4 0x8456CB59 EQ PUSH2 0x3FB JUMPI DUP1 PUSH4 0x8AE8E025 EQ PUSH2 0x411 JUMPI PUSH2 0x15D JUMP JUMPDEST DUP1 PUSH4 0x23B872DD GT PUSH2 0x107 JUMPI DUP1 PUSH4 0x23B872DD EQ PUSH2 0x255 JUMPI DUP1 PUSH4 0x2513793F EQ PUSH2 0x285 JUMPI DUP1 PUSH4 0x313CE567 EQ PUSH2 0x2AF JUMPI DUP1 PUSH4 0x3F4BA83A EQ PUSH2 0x2D9 JUMPI DUP1 PUSH4 0x428543BD EQ PUSH2 0x2EF JUMPI DUP1 PUSH4 0x5C975ABB EQ PUSH2 0x319 JUMPI PUSH2 0x15D JUMP JUMPDEST DUP1 PUSH4 0x6FDDE03 EQ PUSH2 0x167 JUMPI DUP1 PUSH4 0x95EA7B3 EQ PUSH2 0x191 JUMPI DUP1 PUSH4 0xC08BF88 EQ PUSH2 0x1C1 JUMPI DUP1 PUSH4 0x18160DDD EQ PUSH2 0x1D7 JUMPI DUP1 PUSH4 0x194307BF EQ PUSH2 0x201 JUMPI DUP1 PUSH4 0x1A50FAC4 EQ PUSH2 0x22B JUMPI PUSH2 0x15D JUMP JUMPDEST CALLDATASIZE PUSH2 0x15D JUMPI PUSH2 0x15B PUSH2 0x54B JUMP JUMPDEST STOP JUMPDEST PUSH2 0x165 PUSH2 0x54B JUMP JUMPDEST STOP JUMPDEST CALLVALUE DUP1 ISZERO PUSH2 0x172 JUMPI PUSH0 PUSH0 REVERT JUMPDEST POP PUSH2 0x17B PUSH2 0x699 JUMP JUMPDEST PUSH1 0x40 MLOAD PUSH2 0x188 SWAP2 SWAP1 PUSH2 0x1DEF JUMP JUMPDEST PUSH1 0x40 MLOAD DUP1 SWAP2 SUB SWAP1 RETURN JUMPDEST PUSH2 0x1AB PUSH1 0x4 DUP1 CALLDATASIZE SUB DUP2 ADD SWAP1 PUSH2 0x1A6 SWAP2 SWAP1 PUSH2 0x1EAD JUMP JUMPDEST PUSH2 0x724 JUMP JUMPDEST PUSH1 0x40 MLOAD PUSH2 0x1B8 SWAP2 SWAP1 PUSH2 0x1F05 JUMP JUMPDEST PUSH1 0x40 MLOAD DUP1 SWAP2 SUB SWAP1 RETURN JUMPDEST CALLVALUE DUP1 ISZERO PUSH2 0x1CC JUMPI PUSH0 PUSH0 REVERT JUMPDEST POP PUSH2 0x1D5 PUSH2 0x92D JUMP JUMPDEST STOP JUMPDEST CALLVALUE DUP1 ISZERO PUSH2 0x1E2 JUMPI PUSH0 PUSH0 REVERT JUMPDEST POP PUSH2 0x1EB PUSH2 0xA1C JUMP JUMPDEST PUSH1 0x40 MLOAD PUSH2 0x1F8 SWAP2 SWAP1 PUSH2 0x1F2D JUMP JUMPDEST PUSH1 0x40 MLOAD DUP1 SWAP2 SUB SWAP1 RETURN JUMPDEST CALLVALUE DUP1 ISZERO PUSH2 0x20C JUMPI PUSH0 PUSH0 REVERT JUMPDEST POP PUSH2 0x215 PUSH2 0xA22 JUMP JUMPDEST PUSH1 0x40 MLOAD PUSH2 0x222 SWAP2 SWAP1 PUSH2 0x1F05 JUMP JUMPDEST PUSH1 0x40 MLOAD DUP1 SWAP2 SUB SWAP1 RETURN JUMPDEST CALLVALUE DUP1 ISZERO PUSH2 0x236 JUMPI PUSH0 PUSH0 REVERT JUMPDEST POP PUSH2 0x23F PUSH2 0xA35 JUMP JUMPDEST PUSH1 0x40 MLOAD PUSH2 0x24C SWAP2 SWAP1 PUSH2 0x1F2D JUMP JUMPDEST PUSH1 0x40 MLOAD DUP1 SWAP2 SUB SWAP1 RETURN JUMPDEST PUSH2 0x26F PUSH1 0x4 DUP1 CALLDATASIZE SUB DUP2 ADD SWAP1 PUSH2 0x26A SWAP2 SWAP1 PUSH2 0x1F46 JUMP JUMPDEST PUSH2 0xAC9 JUMP JUMPDEST PUSH1 0x40 MLOAD PUSH2 0x27C SWAP2 SWAP1 PUSH2 0x1F05 JUMP JUMPDEST PUSH1 0x40 MLOAD DUP1 SWAP2 SUB SWAP1 RETURN JUMPDEST CALLVALUE DUP1 ISZERO PUSH2 0x290 JUMPI PUSH0 PUSH0 REVERT JUMPDEST POP PUSH2 0x299 PUSH2 0xF40 JUMP JUMPDEST PUSH1 0x40 MLOAD PUSH2 0x2A6 SWAP2 SWAP1 PUSH2 0x1DEF JUMP JUMPDEST PUSH1 0x40 MLOAD DUP1 SWAP2 SUB SWAP1 RETURN JUMPDEST CALLVALUE DUP1 ISZERO PUSH2 0x2BA JUMPI PUSH0 PUSH0 REVERT JUMPDEST POP PUSH2 0x2C3 PUSH2 0xFD8 JUMP JUMPDEST PUSH1 0x40 MLOAD PUSH2 0x2D0 SWAP2 SWAP1 PUSH2 0x1FB1 JUMP JUMPDEST PUSH1 0x40 MLOAD DUP1 SWAP2 SUB SWAP1 RETURN JUMPDEST CALLVALUE DUP1 ISZERO PUSH2 0x2E4 JUMPI PUSH0 PUSH0 REVERT JUMPDEST POP PUSH2 0x2ED PUSH2 0xFEA JUMP JUMPDEST STOP JUMPDEST CALLVALUE DUP1 ISZERO PUSH2 0x2FA JUMPI PUSH0 PUSH0 REVERT JUMPDEST POP PUSH2 0x303 PUSH2 0x10D8 JUMP JUMPDEST PUSH1 0x40 MLOAD PUSH2 0x310 SWAP2 SWAP1 PUSH2 0x1F05 JUMP JUMPDEST PUSH1 0x40 MLOAD DUP1 SWAP2 SUB SWAP1 RETURN JUMPDEST CALLVALUE DUP1 ISZERO PUSH2 0x324 JUMPI PUSH0 PUSH0 REVERT JUMPDEST POP PUSH2 0x32D PUSH2 0x10EB JUMP JUMPDEST PUSH1 0x40 MLOAD PUSH2 0x33A SWAP2 SWAP1 PUSH2 0x1F05 JUMP JUMPDEST PUSH1 0x40 MLOAD DUP1 SWAP2 SUB SWAP1 RETURN JUMPDEST CALLVALUE DUP1 ISZERO PUSH2 0x34E JUMPI PUSH0 PUSH0 REVERT JUMPDEST POP PUSH2 0x369 PUSH1 0x4 DUP1 CALLDATASIZE SUB DUP2 ADD SWAP1 PUSH2 0x364 SWAP2 SWAP1 PUSH2 0x1FCA JUMP JUMPDEST PUSH2 0x10FE JUMP JUMPDEST PUSH1 0x40 MLOAD PUSH2 0x376 SWAP2 SWAP1 PUSH2 0x1F2D JUMP JUMPDEST PUSH1 0x40 MLOAD DUP1 SWAP2 SUB SWAP1 RETURN JUMPDEST CALLVALUE DUP1 ISZERO PUSH2 0x38A JUMPI PUSH0 PUSH0 REVERT JUMPDEST POP PUSH2 0x393 PUSH2 0x11F2 JUMP JUMPDEST PUSH1 0x40 MLOAD PUSH2 0x3A0 SWAP2 SWAP1 PUSH2 0x1DEF JUMP JUMPDEST PUSH1 0x40 MLOAD DUP1 SWAP2 SUB SWAP1 RETURN JUMPDEST CALLVALUE DUP1 ISZERO PUSH2 0x3B4 JUMPI PUSH0 PUSH0 REVERT JUMPDEST POP PUSH2 0x3CF PUSH1 0x4 DUP1 CALLDATASIZE SUB DUP2 ADD SWAP1 PUSH2 0x3CA SWAP2 SWAP1 PUSH2 0x1FCA JUMP JUMPDEST PUSH2 0x127E JUMP JUMPDEST PUSH1 0x40 MLOAD PUSH2 0x3DC SWAP2 SWAP1 PUSH2 0x1F2D JUMP JUMPDEST PUSH1 0x40 MLOAD DUP1 SWAP2 SUB SWAP1 RETURN JUMPDEST CALLVALUE DUP1 ISZERO PUSH2 0x3F0 JUMPI PUSH0 PUSH0 REVERT JUMPDEST POP PUSH2 0x3F9 PUSH2 0x12C4 JUMP JUMPDEST STOP JUMPDEST CALLVALUE DUP1 ISZERO PUSH2 0x406 JUMPI PUSH0 PUSH0 REVERT JUMPDEST POP PUSH2 0x40F PUSH2 0x1370 JUMP JUMPDEST STOP JUMPDEST CALLVALUE DUP1 ISZERO PUSH2 0x41C JUMPI PUSH0 PUSH0 REVERT JUMPDEST POP PUSH2 0x437 PUSH1 0x4 DUP1 CALLDATASIZE SUB DUP2 ADD SWAP1 PUSH2 0x432 SWAP2 SWAP1 PUSH2 0x2121 JUMP JUMPDEST PUSH2 0x145F JUMP JUMPDEST STOP JUMPDEST CALLVALUE DUP1 ISZERO PUSH2 0x444 JUMPI PUSH0 PUSH0 REVERT JUMPDEST POP PUSH2 0x44D PUSH2 0x1588 JUMP JUMPDEST PUSH1 0x40 MLOAD PUSH2 0x45A SWAP2 SWAP1 PUSH2 0x1DEF JUMP JUMPDEST PUSH1 0x40 MLOAD DUP1 SWAP2 SUB SWAP1 RETURN JUMPDEST CALLVALUE DUP1 ISZERO PUSH2 0x46E JUMPI PUSH0 PUSH0 REVERT JUMPDEST POP PUSH2 0x477 PUSH2 0x1614 JUMP JUMPDEST PUSH1 0x40 MLOAD PUSH2 0x484 SWAP2 SWAP1 PUSH2 0x1DEF JUMP JUMPDEST PUSH1 0x40 MLOAD DUP1 SWAP2 SUB SWAP1 RETURN JUMPDEST PUSH2 0x4A7 PUSH1 0x4 DUP1 CALLDATASIZE SUB DUP2 ADD SWAP1 PUSH2 0x4A2 SWAP2 SWAP1 PUSH2 0x1EAD JUMP JUMPDEST PUSH2 0x16AC JUMP JUMPDEST PUSH1 0x40 MLOAD PUSH2 0x4B4 SWAP2 SWAP1 PUSH2 0x1F05 JUMP JUMPDEST PUSH1 0x40 MLOAD DUP1 SWAP2 SUB SWAP1 RETURN JUMPDEST CALLVALUE DUP1 ISZERO PUSH2 0x4C8 JUMPI PUSH0 PUSH0 REVERT JUMPDEST POP PUSH2 0x4D1 PUSH2 0x19A0 JUMP JUMPDEST PUSH1 0x40 MLOAD PUSH2 0x4DE SWAP2 SWAP1 PUSH2 0x2177 JUMP JUMPDEST PUSH1 0x40 MLOAD DUP1 SWAP2 SUB SWAP1 RETURN JUMPDEST CALLVALUE DUP1 ISZERO PUSH2 0x4F2 JUMPI PUSH0 PUSH0 REVERT JUMPDEST POP PUSH2 0x50D PUSH1 0x4 DUP1 CALLDATASIZE SUB DUP2 ADD SWAP1 PUSH2 0x508 SWAP2 SWAP1 PUSH2 0x2190 JUMP JUMPDEST PUSH2 0x19C5 JUMP JUMPDEST PUSH1 0x40 MLOAD PUSH2 0x51A SWAP2 SWAP1 PUSH2 0x1F2D JUMP JUMPDEST PUSH1 0x40 MLOAD DUP1 SWAP2 SUB SWAP1 RETURN JUMPDEST CALLVALUE DUP1 ISZERO PUSH2 0x52E JUMPI PUSH0 PUSH0 REVERT JUMPDEST POP PUSH2 0x549 PUSH1 0x4 DUP1 CALLDATASIZE SUB DUP2 ADD SWAP1 PUSH2 0x544 SWAP2 SWAP1 PUSH2 0x1FCA JUMP JUMPDEST PUSH2 0x1A47 JUMP JUMPDEST STOP JUMPDEST PUSH0 CALLVALUE GT PUSH2 0x58D JUMPI PUSH1 0x40 MLOAD PUSH32 0x8C379A000000000000000000000000000000000000000000000000000000000 DUP2 MSTORE PUSH1 0x4 ADD PUSH2 0x584 SWAP1 PUSH2 0x2218 JUMP JUMPDEST PUSH1 0x40 MLOAD DUP1 SWAP2 SUB SWAP1 REVERT JUMPDEST PUSH0 PUSH20 0xDED1B787B4F7D36EA6D9BABB9FEC6D3E40CA1958 PUSH20 0xFFFFFFFFFFFFFFFFFFFFFFFFFFFFFFFFFFFFFFFF AND CALLVALUE PUSH1 0x40 MLOAD PUSH2 0x5C6 SWAP1 PUSH2 0x2263 JUMP JUMPDEST PUSH0 PUSH1 0x40 MLOAD DUP1 DUP4 SUB DUP2 DUP6 DUP8 GAS CALL SWAP3 POP POP POP RETURNDATASIZE DUP1 PUSH0 DUP2 EQ PUSH2 0x600 JUMPI PUSH1 0x40 MLOAD SWAP2 POP PUSH1 0x1F NOT PUSH1 0x3F RETURNDATASIZE ADD AND DUP3 ADD PUSH1 0x40 MSTORE RETURNDATASIZE DUP3 MSTORE RETURNDATASIZE PUSH0 PUSH1 0x20 DUP5 ADD RETURNDATACOPY PUSH2 0x605 JUMP JUMPDEST PUSH1 0x60 SWAP2 POP JUMPDEST POP POP SWAP1 POP DUP1 PUSH2 0x649 JUMPI PUSH1 0x40 MLOAD PUSH32 0x8C379A000000000000000000000000000000000000000000000000000000000 DUP2 MSTORE PUSH1 0x4 ADD PUSH2 0x640 SWAP1 PUSH2 0x22C1 JUMP JUMPDEST PUSH1 0x40 MLOAD DUP1 SWAP2 SUB SWAP1 REVERT JUMPDEST PUSH32 0x3D8298EA9F84556BCA02DFE84535012D54D4342F5224EB690EC43DCC256B3745 CALLVALUE PUSH20 0xDED1B787B4F7D36EA6D9BABB9FEC6D3E40CA1958 PUSH1 0x40 MLOAD PUSH2 0x68E SWAP3 SWAP2 SWAP1 PUSH2 0x233A JUMP JUMPDEST PUSH1 0x40 MLOAD DUP1 SWAP2 SUB SWAP1 LOG1 POP JUMP JUMPDEST PUSH0 DUP1 SLOAD PUSH2 0x6A5 SWAP1 PUSH2 0x238E JUMP JUMPDEST DUP1 PUSH1 0x1F ADD PUSH1 0x20 DUP1 SWAP2 DIV MUL PUSH1 0x20 ADD PUSH1 0x40 MLOAD SWAP1 DUP2 ADD PUSH1 0x40 MSTORE DUP1 SWAP3 SWAP2 SWAP1 DUP2 DUP2 MSTORE PUSH1 0x20 ADD DUP3 DUP1 SLOAD PUSH2 0x6D1 SWAP1 PUSH2 0x238E JUMP JUMPDEST DUP1 ISZERO PUSH2 0x71C JUMPI DUP1 PUSH1 0x1F LT PUSH2 0x6F3 JUMPI PUSH2 0x100 DUP1 DUP4 SLOAD DIV MUL DUP4 MSTORE SWAP2 PUSH1 0x20 ADD SWAP2 PUSH2 0x71C JUMP JUMPDEST DUP3 ADD SWAP2 SWAP1 PUSH0 MSTORE PUSH1 0x20 PUSH0 KECCAK256 SWAP1 JUMPDEST DUP2 SLOAD DUP2 MSTORE SWAP1 PUSH1 0x1 ADD SWAP1 PUSH1 0x20 ADD DUP1 DUP4 GT PUSH2 0x6FF JUMPI DUP3 SWAP1 SUB PUSH1 0x1F AND DUP3 ADD SWAP2 JUMPDEST POP POP POP POP POP DUP2 JUMP JUMPDEST PUSH0 PUSH1 0x5 PUSH1 0x14 SWAP1 SLOAD SWAP1 PUSH2 0x100 EXP SWAP1 DIV PUSH1 0xFF AND ISZERO PUSH2 0x775 JUMPI PUSH1 0x40 MLOAD PUSH32 0x8C379A000000000000000000000000000000000000000000000000000000000 DUP2 MSTORE PUSH1 0x4 ADD PUSH2 0x76C SWAP1 PUSH2 0x2408 JUMP JUMPDEST PUSH1 0x40 MLOAD DUP1 SWAP2 SUB SWAP1 REVERT JUMPDEST PUSH1 0x5 PUSH1 0x15 SWAP1 SLOAD SWAP1 PUSH2 0x100 EXP SWAP1 DIV PUSH1 0xFF AND ISZERO PUSH2 0x7C5 JUMPI PUSH1 0x40 MLOAD PUSH32 0x8C379A000000000000000000000000000000000000000000000000000000000 DUP2 MSTORE PUSH1 0x4 ADD PUSH2 0x7BC SWAP1 PUSH2 0x2470 JUMP JUMPDEST PUSH1 0x40 MLOAD DUP1 SWAP2 SUB SWAP1 REVERT JUMPDEST PUSH0 PUSH20 0xFFFFFFFFFFFFFFFFFFFFFFFFFFFFFFFFFFFFFFFF AND DUP4 PUSH20 0xFFFFFFFFFFFFFFFFFFFFFFFFFFFFFFFFFFFFFFFF AND SUB PUSH2 0x833 JUMPI PUSH1 0x40 MLOAD PUSH32 0x8C379A000000000000000000000000000000000000000000000000000000000 DUP2 MSTORE PUSH1 0x4 ADD PUSH2 0x82A SWAP1 PUSH2 0x24D8 JUMP JUMPDEST PUSH1 0x40 MLOAD DUP1 SWAP2 SUB SWAP1 REVERT JUMPDEST PUSH0 GAS SWAP1 POP DUP3 PUSH1 0x7 PUSH0 CALLER PUSH20 0xFFFFFFFFFFFFFFFFFFFFFFFFFFFFFFFFFFFFFFFF AND PUSH20 0xFFFFFFFFFFFFFFFFFFFFFFFFFFFFFFFFFFFFFFFF AND DUP2 MSTORE PUSH1 0x20 ADD SWAP1 DUP2 MSTORE PUSH1 0x20 ADD PUSH0 KECCAK256 PUSH0 DUP7 PUSH20 0xFFFFFFFFFFFFFFFFFFFFFFFFFFFFFFFFFFFFFFFF AND PUSH20 0xFFFFFFFFFFFFFFFFFFFFFFFFFFFFFFFFFFFFFFFF AND DUP2 MSTORE PUSH1 0x20 ADD SWAP1 DUP2 MSTORE PUSH1 0x20 ADD PUSH0 KECCAK256 DUP2 SWAP1 SSTORE POP DUP4 PUSH20 0xFFFFFFFFFFFFFFFFFFFFFFFFFFFFFFFFFFFFFFFF AND CALLER PUSH20 0xFFFFFFFFFFFFFFFFFFFFFFFFFFFFFFFFFFFFFFFF AND PUSH32 0x8C5BE1E5EBEC7D5BD14F71427D1E84F3DD0314C0F7B2291E5B200AC8C7C3B925 DUP6 PUSH1 0x40 MLOAD PUSH2 0x911 SWAP2 SWAP1 PUSH2 0x1F2D JUMP JUMPDEST PUSH1 0x40 MLOAD DUP1 SWAP2 SUB SWAP1 LOG3 PUSH2 0x922 DUP2 PUSH2 0x1C02 JUMP JUMPDEST PUSH1 0x1 SWAP2 POP POP SWAP3 SWAP2 POP POP JUMP JUMPDEST PUSH1 0x5 PUSH0 SWAP1 SLOAD SWAP1 PUSH2 0x100 EXP SWAP1 DIV PUSH20 0xFFFFFFFFFFFFFFFFFFFFFFFFFFFFFFFFFFFFFFFF AND PUSH20 0xFFFFFFFFFFFFFFFFFFFFFFFFFFFFFFFFFFFFFFFF AND CALLER PUSH20 0xFFFFFFFFFFFFFFFFFFFFFFFFFFFFFFFFFFFFFFFF AND EQ PUSH2 0x9BC JUMPI PUSH1 0x40 MLOAD PUSH32 0x8C379A000000000000000000000000000000000000000000000000000000000 DUP2 MSTORE PUSH1 0x4 ADD PUSH2 0x9B3 SWAP1 PUSH2 0x2566 JUMP JUMPDEST PUSH1 0x40 MLOAD DUP1 SWAP2 SUB SWAP1 REVERT JUMPDEST PUSH1 0x1 PUSH1 0x5 PUSH1 0x15 PUSH2 0x100 EXP DUP2 SLOAD DUP2 PUSH1 0xFF MUL NOT AND SWAP1 DUP4 ISZERO ISZERO MUL OR SWAP1 SSTORE POP CALLER PUSH20 0xFFFFFFFFFFFFFFFFFFFFFFFFFFFFFFFFFFFFFFFF AND PUSH32 0x98CD97FC1A1CC958CBD729B1BB531D4F3EA4925470BF23EA9AF386640CBD07BE PUSH1 0x40 MLOAD PUSH1 0x40 MLOAD DUP1 SWAP2 SUB SWAP1 LOG2 JUMP JUMPDEST PUSH1 0x3 SLOAD DUP2 JUMP JUMPDEST PUSH1 0x5 PUSH1 0x15 SWAP1 SLOAD SWAP1 PUSH2 0x100 EXP SWAP1 DIV PUSH1 0xFF AND DUP2 JUMP JUMPDEST PUSH0 PUSH1 0x8 PUSH0 SWAP1 SLOAD SWAP1 PUSH2 0x100 EXP SWAP1 DIV PUSH20 0xFFFFFFFFFFFFFFFFFFFFFFFFFFFFFFFFFFFFFFFF AND PUSH20 0xFFFFFFFFFFFFFFFFFFFFFFFFFFFFFFFFFFFFFFFF AND PUSH4 0x18160DDD PUSH1 0x40 MLOAD DUP2 PUSH4 0xFFFFFFFF AND PUSH1 0xE0 SHL DUP2 MSTORE PUSH1 0x4 ADD PUSH1 0x20 PUSH1 0x40 MLOAD DUP1 DUP4 SUB DUP2 DUP7 GAS STATICCALL ISZERO DUP1 ISZERO PUSH2 0xAA0 JUMPI RETURNDATASIZE PUSH0 PUSH0 RETURNDATACOPY RETURNDATASIZE PUSH0 REVERT JUMPDEST POP POP POP POP PUSH1 0x40 MLOAD RETURNDATASIZE PUSH1 0x1F NOT PUSH1 0x1F DUP3 ADD AND DUP3 ADD DUP1 PUSH1 0x40 MSTORE POP DUP2 ADD SWAP1 PUSH2 0xAC4 SWAP2 SWAP1 PUSH2 0x2598 JUMP JUMPDEST SWAP1 POP SWAP1 JUMP JUMPDEST PUSH0 PUSH1 0x5 PUSH1 0x14 SWAP1 SLOAD SWAP1 PUSH2 0x100 EXP SWAP1 DIV PUSH1 0xFF AND ISZERO PUSH2 0xB1A JUMPI PUSH1 0x40 MLOAD PUSH32 0x8C379A000000000000000000000000000000000000000000000000000000000 DUP2 MSTORE PUSH1 0x4 ADD PUSH2 0xB11 SWAP1 PUSH2 0x2408 JUMP JUMPDEST PUSH1 0x40 MLOAD DUP1 SWAP2 SUB SWAP1 REVERT JUMPDEST PUSH1 0x5 PUSH1 0x15 SWAP1 SLOAD SWAP1 PUSH2 0x100 EXP SWAP1 DIV PUSH1 0xFF AND ISZERO PUSH2 0xB6A JUMPI PUSH1 0x40 MLOAD PUSH32 0x8C379A000000000000000000000000000000000000000000000000000000000 DUP2 MSTORE PUSH1 0x4 ADD PUSH2 0xB61 SWAP1 PUSH2 0x2470 JUMP JUMPDEST PUSH1 0x40 MLOAD DUP1 SWAP2 SUB SWAP1 REVERT JUMPDEST PUSH0 PUSH20 0xFFFFFFFFFFFFFFFFFFFFFFFFFFFFFFFFFFFFFFFF AND DUP5 PUSH20 0xFFFFFFFFFFFFFFFFFFFFFFFFFFFFFFFFFFFFFFFF AND EQ ISZERO DUP1 ISZERO PUSH2 0xBD2 JUMPI POP PUSH0 PUSH20 0xFFFFFFFFFFFFFFFFFFFFFFFFFFFFFFFFFFFFFFFF AND DUP4 PUSH20 0xFFFFFFFFFFFFFFFFFFFFFFFFFFFFFFFFFFFFFFFF AND EQ ISZERO JUMPDEST PUSH2 0xC11 JUMPI PUSH1 0x40 MLOAD PUSH32 0x8C379A000000000000000000000000000000000000000000000000000000000 DUP2 MSTORE PUSH1 0x4 ADD PUSH2 0xC08 SWAP1 PUSH2 0x260D JUMP JUMPDEST PUSH1 0x40 MLOAD DUP1 SWAP2 SUB SWAP1 REVERT JUMPDEST PUSH0 DUP3 GT PUSH2 0xC53 JUMPI PUSH1 0x40 MLOAD PUSH32 0x8C379A000000000000000000000000000000000000000000000000000000000 DUP2 MSTORE PUSH1 0x4 ADD PUSH2 0xC4A SWAP1 PUSH2 0x2675 JUMP JUMPDEST PUSH1 0x40 MLOAD DUP1 SWAP2 SUB SWAP1 REVERT JUMPDEST DUP2 PUSH1 0x6 PUSH0 DUP7 PUSH20 0xFFFFFFFFFFFFFFFFFFFFFFFFFFFFFFFFFFFFFFFF AND PUSH20 0xFFFFFFFFFFFFFFFFFFFFFFFFFFFFFFFFFFFFFFFF AND DUP2 MSTORE PUSH1 0x20 ADD SWAP1 DUP2 MSTORE PUSH1 0x20 ADD PUSH0 KECCAK256 SLOAD LT ISZERO PUSH2 0xCD3 JUMPI PUSH1 0x40 MLOAD PUSH32 0x8C379A000000000000000000000000000000000000000000000000000000000 DUP2 MSTORE PUSH1 0x4 ADD PUSH2 0xCCA SWAP1 PUSH2 0x26DD JUMP JUMPDEST PUSH1 0x40 MLOAD DUP1 SWAP2 SUB SWAP1 REVERT JUMPDEST DUP2 PUSH1 0x7 PUSH0 DUP7 PUSH20 0xFFFFFFFFFFFFFFFFFFFFFFFFFFFFFFFFFFFFFFFF AND PUSH20 0xFFFFFFFFFFFFFFFFFFFFFFFFFFFFFFFFFFFFFFFF AND DUP2 MSTORE PUSH1 0x20 ADD SWAP1 DUP2 MSTORE PUSH1 0x20 ADD PUSH0 KECCAK256 PUSH0 CALLER PUSH20 0xFFFFFFFFFFFFFFFFFFFFFFFFFFFFFFFFFFFFFFFF AND PUSH20 0xFFFFFFFFFFFFFFFFFFFFFFFFFFFFFFFFFFFFFFFF AND DUP2 MSTORE PUSH1 0x20 ADD SWAP1 DUP2 MSTORE PUSH1 0x20 ADD PUSH0 KECCAK256 SLOAD LT ISZERO PUSH2 0xD8E JUMPI PUSH1 0x40 MLOAD PUSH32 0x8C379A000000000000000000000000000000000000000000000000000000000 DUP2 MSTORE PUSH1 0x4 ADD PUSH2 0xD85 SWAP1 PUSH2 0x2745 JUMP JUMPDEST PUSH1 0x40 MLOAD DUP1 SWAP2 SUB SWAP1 REVERT JUMPDEST PUSH0 GAS SWAP1 POP DUP3 PUSH1 0x6 PUSH0 DUP8 PUSH20 0xFFFFFFFFFFFFFFFFFFFFFFFFFFFFFFFFFFFFFFFF AND PUSH20 0xFFFFFFFFFFFFFFFFFFFFFFFFFFFFFFFFFFFFFFFF AND DUP2 MSTORE PUSH1 0x20 ADD SWAP1 DUP2 MSTORE PUSH1 0x20 ADD PUSH0 KECCAK256 PUSH0 DUP3 DUP3 SLOAD PUSH2 0xDDE SWAP2 SWAP1 PUSH2 0x2790 JUMP JUMPDEST SWAP3 POP POP DUP2 SWAP1 SSTORE POP DUP3 PUSH1 0x6 PUSH0 DUP7 PUSH20 0xFFFFFFFFFFFFFFFFFFFFFFFFFFFFFFFFFFFFFFFF AND PUSH20 0xFFFFFFFFFFFFFFFFFFFFFFFFFFFFFFFFFFFFFFFF AND DUP2 MSTORE PUSH1 0x20 ADD SWAP1 DUP2 MSTORE PUSH1 0x20 ADD PUSH0 KECCAK256 PUSH0 DUP3 DUP3 SLOAD PUSH2 0xE31 SWAP2 SWAP1 PUSH2 0x27C3 JUMP JUMPDEST SWAP3 POP POP DUP2 SWAP1 SSTORE POP DUP3 PUSH1 0x7 PUSH0 DUP8 PUSH20 0xFFFFFFFFFFFFFFFFFFFFFFFFFFFFFFFFFFFFFFFF AND PUSH20 0xFFFFFFFFFFFFFFFFFFFFFFFFFFFFFFFFFFFFFFFF AND DUP2 MSTORE PUSH1 0x20 ADD SWAP1 DUP2 MSTORE PUSH1 0x20 ADD PUSH0 KECCAK256 PUSH0 CALLER PUSH20 0xFFFFFFFFFFFFFFFFFFFFFFFFFFFFFFFFFFFFFFFF AND PUSH20 0xFFFFFFFFFFFFFFFFFFFFFFFFFFFFFFFFFFFFFFFF AND DUP2 MSTORE PUSH1 0x20 ADD SWAP1 DUP2 MSTORE PUSH1 0x20 ADD PUSH0 KECCAK256 PUSH0 DUP3 DUP3 SLOAD PUSH2 0xEBF SWAP2 SWAP1 PUSH2 0x2790 JUMP JUMPDEST SWAP3 POP POP DUP2 SWAP1 SSTORE POP DUP4 PUSH20 0xFFFFFFFFFFFFFFFFFFFFFFFFFFFFFFFFFFFFFFFF AND DUP6 PUSH20 0xFFFFFFFFFFFFFFFFFFFFFFFFFFFFFFFFFFFFFFFF AND PUSH32 0xDDF252AD1BE2C89B69C2B068FC378DAA952BA7F163C4A11628F55A4DF523B3EF DUP6 PUSH1 0x40 MLOAD PUSH2 0xF23 SWAP2 SWAP1 PUSH2 0x1F2D JUMP JUMPDEST PUSH1 0x40 MLOAD DUP1 SWAP2 SUB SWAP1 LOG3 PUSH2 0xF34 DUP2 PUSH2 0x1C02 JUMP JUMPDEST PUSH1 0x1 SWAP2 POP POP SWAP4 SWAP3 POP POP POP JUMP JUMPDEST PUSH1 0x60 PUSH1 0x8 PUSH0 SWAP1 SLOAD SWAP1 PUSH2 0x100 EXP SWAP1 DIV PUSH20 0xFFFFFFFFFFFFFFFFFFFFFFFFFFFFFFFFFFFFFFFF AND PUSH20 0xFFFFFFFFFFFFFFFFFFFFFFFFFFFFFFFFFFFFFFFF AND PUSH4 0x6FDDE03 PUSH1 0x40 MLOAD DUP2 PUSH4 0xFFFFFFFF AND PUSH1 0xE0 SHL DUP2 MSTORE PUSH1 0x4 ADD PUSH0 PUSH1 0x40 MLOAD DUP1 DUP4 SUB DUP2 DUP7 GAS STATICCALL ISZERO DUP1 ISZERO PUSH2 0xFAB JUMPI RETURNDATASIZE PUSH0 PUSH0 RETURNDATACOPY RETURNDATASIZE PUSH0 REVERT JUMPDEST POP POP POP POP PUSH1 0x40 MLOAD RETURNDATASIZE PUSH0 DUP3 RETURNDATACOPY RETURNDATASIZE PUSH1 0x1F NOT PUSH1 0x1F DUP3 ADD AND DUP3 ADD DUP1 PUSH1 0x40 MSTORE POP DUP2 ADD SWAP1 PUSH2 0xFD3 SWAP2 SWAP1 PUSH2 0x2864 JUMP JUMPDEST SWAP1 POP SWAP1 JUMP JUMPDEST PUSH1 0x2 PUSH0 SWAP1 SLOAD SWAP1 PUSH2 0x100 EXP SWAP1 DIV PUSH1 0xFF AND DUP2 JUMP JUMPDEST PUSH1 0x5 PUSH0 SWAP1 SLOAD SWAP1 PUSH2 0x100 EXP SWAP1 DIV PUSH20 0xFFFFFFFFFFFFFFFFFFFFFFFFFFFFFFFFFFFFFFFF AND PUSH20 0xFFFFFFFFFFFFFFFFFFFFFFFFFFFFFFFFFFFFFFFF AND CALLER PUSH20 0xFFFFFFFFFFFFFFFFFFFFFFFFFFFFFFFFFFFFFFFF AND EQ PUSH2 0x1079 JUMPI PUSH1 0x40 MLOAD PUSH32 0x8C379A000000000000000000000000000000000000000000000000000000000 DUP2 MSTORE PUSH1 0x4 ADD PUSH2 0x1070 SWAP1 PUSH2 0x2566 JUMP JUMPDEST PUSH1 0x40 MLOAD DUP1 SWAP2 SUB SWAP1 REVERT JUMPDEST PUSH0 PUSH1 0x5 PUSH1 0x14 PUSH2 0x100 EXP DUP2 SLOAD DUP2 PUSH1 0xFF MUL NOT AND SWAP1 DUP4 ISZERO ISZERO MUL OR SWAP1 SSTORE POP CALLER PUSH20 0xFFFFFFFFFFFFFFFFFFFFFFFFFFFFFFFFFFFFFFFF AND PUSH32 0x5DB9EE0A495BF2E6FF9C91A7834C1BA4FDD244A5E8AA4E537BD38AEAE4B073AA PUSH1 0x40 MLOAD PUSH1 0x40 MLOAD DUP1 SWAP2 SUB SWAP1 LOG2 JUMP JUMPDEST PUSH1 0x5 PUSH1 0x16 SWAP1 SLOAD SWAP1 PUSH2 0x100 EXP SWAP1 DIV PUSH1 0xFF AND DUP2 JUMP JUMPDEST PUSH1 0x5 PUSH1 0x14 SWAP1 SLOAD SWAP1 PUSH2 0x100 EXP SWAP1 DIV PUSH1 0xFF AND DUP2 JUMP JUMPDEST PUSH0 PUSH0 PUSH1 0x8 PUSH0 SWAP1 SLOAD SWAP1 PUSH2 0x100 EXP SWAP1 DIV PUSH20 0xFFFFFFFFFFFFFFFFFFFFFFFFFFFFFFFFFFFFFFFF AND PUSH20 0xFFFFFFFFFFFFFFFFFFFFFFFFFFFFFFFFFFFFFFFF AND PUSH4 0x70A08231 DUP5 PUSH1 0x40 MLOAD DUP3 PUSH4 0xFFFFFFFF AND PUSH1 0xE0 SHL DUP2 MSTORE PUSH1 0x4 ADD PUSH2 0x115A SWAP2 SWAP1 PUSH2 0x2177 JUMP JUMPDEST PUSH1 0x20 PUSH1 0x40 MLOAD DUP1 DUP4 SUB DUP2 DUP7 GAS STATICCALL ISZERO DUP1 ISZERO PUSH2 0x1175 JUMPI RETURNDATASIZE PUSH0 PUSH0 RETURNDATACOPY RETURNDATASIZE PUSH0 REVERT JUMPDEST POP POP POP POP PUSH1 0x40 MLOAD RETURNDATASIZE PUSH1 0x1F NOT PUSH1 0x1F DUP3 ADD AND DUP3 ADD DUP1 PUSH1 0x40 MSTORE POP DUP2 ADD SWAP1 PUSH2 0x1199 SWAP2 SWAP1 PUSH2 0x2598 JUMP JUMPDEST SWAP1 POP DUP3 PUSH20 0xFFFFFFFFFFFFFFFFFFFFFFFFFFFFFFFFFFFFFFFF AND PUSH32 0xDBD71032B7681EE8E00CB6F187D955FDFC8CFB5302B98A717B033AB45BF21E64 DUP3 PUSH1 0x40 MLOAD PUSH2 0x11E1 SWAP2 SWAP1 PUSH2 0x1F2D JUMP JUMPDEST PUSH1 0x40 MLOAD DUP1 SWAP2 SUB SWAP1 LOG2 DUP1 SWAP2 POP POP SWAP2 SWAP1 POP JUMP JUMPDEST PUSH1 0x4 DUP1 SLOAD PUSH2 0x11FF SWAP1 PUSH2 0x238E JUMP JUMPDEST DUP1 PUSH1 0x1F ADD PUSH1 0x20 DUP1 SWAP2 DIV MUL PUSH1 0x20 ADD PUSH1 0x40 MLOAD SWAP1 DUP2 ADD PUSH1 0x40 MSTORE DUP1 SWAP3 SWAP2 SWAP1 DUP2 DUP2 MSTORE PUSH1 0x20 ADD DUP3 DUP1 SLOAD PUSH2 0x122B SWAP1 PUSH2 0x238E JUMP JUMPDEST DUP1 ISZERO PUSH2 0x1276 JUMPI DUP1 PUSH1 0x1F LT PUSH2 0x124D JUMPI PUSH2 0x100 DUP1 DUP4 SLOAD DIV MUL DUP4 MSTORE SWAP2 PUSH1 0x20 ADD SWAP2 PUSH2 0x1276 JUMP JUMPDEST DUP3 ADD SWAP2 SWAP1 PUSH0 MSTORE PUSH1 0x20 PUSH0 KECCAK256 SWAP1 JUMPDEST DUP2 SLOAD DUP2 MSTORE SWAP1 PUSH1 0x1 ADD SWAP1 PUSH1 0x20 ADD DUP1 DUP4 GT PUSH2 0x1259 JUMPI DUP3 SWAP1 SUB PUSH1 0x1F AND DUP3 ADD SWAP2 JUMPDEST POP POP POP POP POP DUP2 JUMP JUMPDEST PUSH0 PUSH1 0x6 PUSH0 DUP4 PUSH20 0xFFFFFFFFFFFFFFFFFFFFFFFFFFFFFFFFFFFFFFFF AND PUSH20 0xFFFFFFFFFFFFFFFFFFFFFFFFFFFFFFFFFFFFFFFF AND DUP2 MSTORE PUSH1 0x20 ADD SWAP1 DUP2 MSTORE PUSH1 0x20 ADD PUSH0 KECCAK256 SLOAD SWAP1 POP SWAP2 SWAP1 POP JUMP JUMPDEST PUSH1 0x5 PUSH0 SWAP1 SLOAD SWAP1 PUSH2 0x100 EXP SWAP1 DIV PUSH20 0xFFFFFFFFFFFFFFFFFFFFFFFFFFFFFFFFFFFFFFFF AND PUSH20 0xFFFFFFFFFFFFFFFFFFFFFFFFFFFFFFFFFFFFFFFF AND CALLER PUSH20 0xFFFFFFFFFFFFFFFFFFFFFFFFFFFFFFFFFFFFFFFF AND EQ PUSH2 0x1353 JUMPI PUSH1 0x40 MLOAD PUSH32 0x8C379A000000000000000000000000000000000000000000000000000000000 DUP2 MSTORE PUSH1 0x4 ADD PUSH2 0x134A SWAP1 PUSH2 0x2566 JUMP JUMPDEST PUSH1 0x40 MLOAD DUP1 SWAP2 SUB SWAP1 REVERT JUMPDEST PUSH1 0x1 PUSH1 0x5 PUSH1 0x16 PUSH2 0x100 EXP DUP2 SLOAD DUP2 PUSH1 0xFF MUL NOT AND SWAP1 DUP4 ISZERO ISZERO MUL OR SWAP1 SSTORE POP JUMP JUMPDEST PUSH1 0x5 PUSH0 SWAP1 SLOAD SWAP1 PUSH2 0x100 EXP SWAP1 DIV PUSH20 0xFFFFFFFFFFFFFFFFFFFFFFFFFFFFFFFFFFFFFFFF AND PUSH20 0xFFFFFFFFFFFFFFFFFFFFFFFFFFFFFFFFFFFFFFFF AND CALLER PUSH20 0xFFFFFFFFFFFFFFFFFFFFFFFFFFFFFFFFFFFFFFFF AND EQ PUSH2 0x13FF JUMPI PUSH1 0x40 MLOAD PUSH32 0x8C379A000000000000000000000000000000000000000000000000000000000 DUP2 MSTORE PUSH1 0x4 ADD PUSH2 0x13F6 SWAP1 PUSH2 0x2566 JUMP JUMPDEST PUSH1 0x40 MLOAD DUP1 SWAP2 SUB SWAP1 REVERT JUMPDEST PUSH1 0x1 PUSH1 0x5 PUSH1 0x14 PUSH2 0x100 EXP DUP2 SLOAD DUP2 PUSH1 0xFF MUL NOT AND SWAP1 DUP4 ISZERO ISZERO MUL OR SWAP1 SSTORE POP CALLER PUSH20 0xFFFFFFFFFFFFFFFFFFFFFFFFFFFFFFFFFFFFFFFF AND PUSH32 0x62E78CEA01BEE320CD4E420270B5EA74000D11B0C9F74754EBDBFC544B05A258 PUSH1 0x40 MLOAD PUSH1 0x40 MLOAD DUP1 SWAP2 SUB SWAP1 LOG2 JUMP JUMPDEST PUSH1 0x5 PUSH0 SWAP1 SLOAD SWAP1 PUSH2 0x100 EXP SWAP1 DIV PUSH20 0xFFFFFFFFFFFFFFFFFFFFFFFFFFFFFFFFFFFFFFFF AND PUSH20 0xFFFFFFFFFFFFFFFFFFFFFFFFFFFFFFFFFFFFFFFF AND CALLER PUSH20 0xFFFFFFFFFFFFFFFFFFFFFFFFFFFFFFFFFFFFFFFF AND EQ PUSH2 0x14EE JUMPI PUSH1 0x40 MLOAD PUSH32 0x8C379A000000000000000000000000000000000000000000000000000000000 DUP2 MSTORE PUSH1 0x4 ADD PUSH2 0x14E5 SWAP1 PUSH2 0x2566 JUMP JUMPDEST PUSH1 0x40 MLOAD DUP1 SWAP2 SUB SWAP1 REVERT JUMPDEST PUSH1 0x5 PUSH1 0x16 SWAP1 SLOAD SWAP1 PUSH2 0x100 EXP SWAP1 DIV PUSH1 0xFF AND ISZERO PUSH2 0x153E JUMPI PUSH1 0x40 MLOAD PUSH32 0x8C379A000000000000000000000000000000000000000000000000000000000 DUP2 MSTORE PUSH1 0x4 ADD PUSH2 0x1535 SWAP1 PUSH2 0x28F5 JUMP JUMPDEST PUSH1 0x40 MLOAD DUP1 SWAP2 SUB SWAP1 REVERT JUMPDEST DUP1 PUSH1 0x4 SWAP1 DUP2 PUSH2 0x154D SWAP2 SWAP1 PUSH2 0x2AAA JUMP JUMPDEST POP PUSH32 0xC059DB0A2349EAA5D107D9598D56AD83AA565BD7C132AC1FBFE8F86F0EE4EA76 DUP2 PUSH1 0x40 MLOAD PUSH2 0x157D SWAP2 SWAP1 PUSH2 0x1DEF JUMP JUMPDEST PUSH1 0x40 MLOAD DUP1 SWAP2 SUB SWAP1 LOG1 POP JUMP JUMPDEST PUSH1 0x1 DUP1 SLOAD PUSH2 0x1595 SWAP1 PUSH2 0x238E JUMP JUMPDEST DUP1 PUSH1 0x1F ADD PUSH1 0x20 DUP1 SWAP2 DIV MUL PUSH1 0x20 ADD PUSH1 0x40 MLOAD SWAP1 DUP2 ADD PUSH1 0x40 MSTORE DUP1 SWAP3 SWAP2 SWAP1 DUP2 DUP2 MSTORE PUSH1 0x20 ADD DUP3 DUP1 SLOAD PUSH2 0x15C1 SWAP1 PUSH2 0x238E JUMP JUMPDEST DUP1 ISZERO PUSH2 0x160C JUMPI DUP1 PUSH1 0x1F LT PUSH2 0x15E3 JUMPI PUSH2 0x100 DUP1 DUP4 SLOAD DIV MUL DUP4 MSTORE SWAP2 PUSH1 0x20 ADD SWAP2 PUSH2 0x160C JUMP JUMPDEST DUP3 ADD SWAP2 SWAP1 PUSH0 MSTORE PUSH1 0x20 PUSH0 KECCAK256 SWAP1 JUMPDEST DUP2 SLOAD DUP2 MSTORE SWAP1 PUSH1 0x1 ADD SWAP1 PUSH1 0x20 ADD DUP1 DUP4 GT PUSH2 0x15EF JUMPI DUP3 SWAP1 SUB PUSH1 0x1F AND DUP3 ADD SWAP2 JUMPDEST POP POP POP POP POP DUP2 JUMP JUMPDEST PUSH1 0x60 PUSH1 0x8 PUSH0 SWAP1 SLOAD SWAP1 PUSH2 0x100 EXP SWAP1 DIV PUSH20 0xFFFFFFFFFFFFFFFFFFFFFFFFFFFFFFFFFFFFFFFF AND PUSH20 0xFFFFFFFFFFFFFFFFFFFFFFFFFFFFFFFFFFFFFFFF AND PUSH4 0x95D89B41 PUSH1 0x40 MLOAD DUP2 PUSH4 0xFFFFFFFF AND PUSH1 0xE0 SHL DUP2 MSTORE PUSH1 0x4 ADD PUSH0 PUSH1 0x40 MLOAD DUP1 DUP4 SUB DUP2 DUP7 GAS STATICCALL ISZERO DUP1 ISZERO PUSH2 0x167F JUMPI RETURNDATASIZE PUSH0 PUSH0 RETURNDATACOPY RETURNDATASIZE PUSH0 REVERT JUMPDEST POP POP POP POP PUSH1 0x40 MLOAD RETURNDATASIZE PUSH0 DUP3 RETURNDATACOPY RETURNDATASIZE PUSH1 0x1F NOT PUSH1 0x1F DUP3 ADD AND DUP3 ADD DUP1 PUSH1 0x40 MSTORE POP DUP2 ADD SWAP1 PUSH2 0x16A7 SWAP2 SWAP1 PUSH2 0x2864 JUMP JUMPDEST SWAP1 POP SWAP1 JUMP JUMPDEST PUSH0 PUSH1 0x5 PUSH1 0x14 SWAP1 SLOAD SWAP1 PUSH2 0x100 EXP SWAP1 DIV PUSH1 0xFF AND ISZERO PUSH2 0x16FD JUMPI PUSH1 0x40 MLOAD PUSH32 0x8C379A000000000000000000000000000000000000000000000000000000000 DUP2 MSTORE PUSH1 0x4 ADD PUSH2 0x16F4 SWAP1 PUSH2 0x2408 JUMP JUMPDEST PUSH1 0x40 MLOAD DUP1 SWAP2 SUB SWAP1 REVERT JUMPDEST PUSH1 0x5 PUSH1 0x15 SWAP1 SLOAD SWAP1 PUSH2 0x100 EXP SWAP1 DIV PUSH1 0xFF AND ISZERO PUSH2 0x174D JUMPI PUSH1 0x40 MLOAD PUSH32 0x8C379A000000000000000000000000000000000000000000000000000000000 DUP2 MSTORE PUSH1 0x4 ADD PUSH2 0x1744 SWAP1 PUSH2 0x2470 JUMP JUMPDEST PUSH1 0x40 MLOAD DUP1 SWAP2 SUB SWAP1 REVERT JUMPDEST PUSH0 PUSH20 0xFFFFFFFFFFFFFFFFFFFFFFFFFFFFFFFFFFFFFFFF AND DUP4 PUSH20 0xFFFFFFFFFFFFFFFFFFFFFFFFFFFFFFFFFFFFFFFF AND SUB PUSH2 0x17BB JUMPI PUSH1 0x40 MLOAD PUSH32 0x8C379A000000000000000000000000000000000000000000000000000000000 DUP2 MSTORE PUSH1 0x4 ADD PUSH2 0x17B2 SWAP1 PUSH2 0x2BC3 JUMP JUMPDEST PUSH1 0x40 MLOAD DUP1 SWAP2 SUB SWAP1 REVERT JUMPDEST PUSH0 DUP3 GT PUSH2 0x17FD JUMPI PUSH1 0x40 MLOAD PUSH32 0x8C379A000000000000000000000000000000000000000000000000000000000 DUP2 MSTORE PUSH1 0x4 ADD PUSH2 0x17F4 SWAP1 PUSH2 0x2675 JUMP JUMPDEST PUSH1 0x40 MLOAD DUP1 SWAP2 SUB SWAP1 REVERT JUMPDEST DUP2 PUSH1 0x6 PUSH0 CALLER PUSH20 0xFFFFFFFFFFFFFFFFFFFFFFFFFFFFFFFFFFFFFFFF AND PUSH20 0xFFFFFFFFFFFFFFFFFFFFFFFFFFFFFFFFFFFFFFFF AND DUP2 MSTORE PUSH1 0x20 ADD SWAP1 DUP2 MSTORE PUSH1 0x20 ADD PUSH0 KECCAK256 SLOAD LT ISZERO PUSH2 0x187D JUMPI PUSH1 0x40 MLOAD PUSH32 0x8C379A000000000000000000000000000000000000000000000000000000000 DUP2 MSTORE PUSH1 0x4 ADD PUSH2 0x1874 SWAP1 PUSH2 0x26DD JUMP JUMPDEST PUSH1 0x40 MLOAD DUP1 SWAP2 SUB SWAP1 REVERT JUMPDEST PUSH0 GAS SWAP1 POP DUP3 PUSH1 0x6 PUSH0 CALLER PUSH20 0xFFFFFFFFFFFFFFFFFFFFFFFFFFFFFFFFFFFFFFFF AND PUSH20 0xFFFFFFFFFFFFFFFFFFFFFFFFFFFFFFFFFFFFFFFF AND DUP2 MSTORE PUSH1 0x20 ADD SWAP1 DUP2 MSTORE PUSH1 0x20 ADD PUSH0 KECCAK256 PUSH0 DUP3 DUP3 SLOAD PUSH2 0x18CD SWAP2 SWAP1 PUSH2 0x2790 JUMP JUMPDEST SWAP3 POP POP DUP2 SWAP1 SSTORE POP DUP3 PUSH1 0x6 PUSH0 DUP7 PUSH20 0xFFFFFFFFFFFFFFFFFFFFFFFFFFFFFFFFFFFFFFFF AND PUSH20 0xFFFFFFFFFFFFFFFFFFFFFFFFFFFFFFFFFFFFFFFF AND DUP2 MSTORE PUSH1 0x20 ADD SWAP1 DUP2 MSTORE PUSH1 0x20 ADD PUSH0 KECCAK256 PUSH0 DUP3 DUP3 SLOAD PUSH2 0x1920 SWAP2 SWAP1 PUSH2 0x27C3 JUMP JUMPDEST SWAP3 POP POP DUP2 SWAP1 SSTORE POP DUP4 PUSH20 0xFFFFFFFFFFFFFFFFFFFFFFFFFFFFFFFFFFFFFFFF AND CALLER PUSH20 0xFFFFFFFFFFFFFFFFFFFFFFFFFFFFFFFFFFFFFFFF AND PUSH32 0xDDF252AD1BE2C89B69C2B068FC378DAA952BA7F163C4A11628F55A4DF523B3EF DUP6 PUSH1 0x40 MLOAD PUSH2 0x1984 SWAP2 SWAP1 PUSH2 0x1F2D JUMP JUMPDEST PUSH1 0x40 MLOAD DUP1 SWAP2 SUB SWAP1 LOG3 PUSH2 0x1995 DUP2 PUSH2 0x1C02 JUMP JUMPDEST PUSH1 0x1 SWAP2 POP POP SWAP3 SWAP2 POP POP JUMP JUMPDEST PUSH1 0x5 PUSH0 SWAP1 SLOAD SWAP1 PUSH2 0x100 EXP SWAP1 DIV PUSH20 0xFFFFFFFFFFFFFFFFFFFFFFFFFFFFFFFFFFFFFFFF AND DUP2 JUMP JUMPDEST PUSH0 PUSH1 0x7 PUSH0 DUP5 PUSH20 0xFFFFFFFFFFFFFFFFFFFFFFFFFFFFFFFFFFFFFFFF AND PUSH20 0xFFFFFFFFFFFFFFFFFFFFFFFFFFFFFFFFFFFFFFFF AND DUP2 MSTORE PUSH1 0x20 ADD SWAP1 DUP2 MSTORE PUSH1 0x20 ADD PUSH0 KECCAK256 PUSH0 DUP4 PUSH20 0xFFFFFFFFFFFFFFFFFFFFFFFFFFFFFFFFFFFFFFFF AND PUSH20 0xFFFFFFFFFFFFFFFFFFFFFFFFFFFFFFFFFFFFFFFF AND DUP2 MSTORE PUSH1 0x20 ADD SWAP1 DUP2 MSTORE PUSH1 0x20 ADD PUSH0 KECCAK256 SLOAD SWAP1 POP SWAP3 SWAP2 POP POP JUMP JUMPDEST PUSH1 0x5 PUSH0 SWAP1 SLOAD SWAP1 PUSH2 0x100 EXP SWAP1 DIV PUSH20 0xFFFFFFFFFFFFFFFFFFFFFFFFFFFFFFFFFFFFFFFF AND PUSH20 0xFFFFFFFFFFFFFFFFFFFFFFFFFFFFFFFFFFFFFFFF AND CALLER PUSH20 0xFFFFFFFFFFFFFFFFFFFFFFFFFFFFFFFFFFFFFFFF AND EQ PUSH2 0x1AD6 JUMPI PUSH1 0x40 MLOAD PUSH32 0x8C379A000000000000000000000000000000000000000000000000000000000 DUP2 MSTORE PUSH1 0x4 ADD PUSH2 0x1ACD SWAP1 PUSH2 0x2566 JUMP JUMPDEST PUSH1 0x40 MLOAD DUP1 SWAP2 SUB SWAP1 REVERT JUMPDEST PUSH0 PUSH20 0xFFFFFFFFFFFFFFFFFFFFFFFFFFFFFFFFFFFFFFFF AND DUP2 PUSH20 0xFFFFFFFFFFFFFFFFFFFFFFFFFFFFFFFFFFFFFFFF AND SUB PUSH2 0x1B44 JUMPI PUSH1 0x40 MLOAD PUSH32 0x8C379A000000000000000000000000000000000000000000000000000000000 DUP2 MSTORE PUSH1 0x4 ADD PUSH2 0x1B3B SWAP1 PUSH2 0x2C2B JUMP JUMPDEST PUSH1 0x40 MLOAD DUP1 SWAP2 SUB SWAP1 REVERT JUMPDEST DUP1 PUSH20 0xFFFFFFFFFFFFFFFFFFFFFFFFFFFFFFFFFFFFFFFF AND PUSH1 0x5 PUSH0 SWAP1 SLOAD SWAP1 PUSH2 0x100 EXP SWAP1 DIV PUSH20 0xFFFFFFFFFFFFFFFFFFFFFFFFFFFFFFFFFFFFFFFF AND PUSH20 0xFFFFFFFFFFFFFFFFFFFFFFFFFFFFFFFFFFFFFFFF AND PUSH32 0x8BE0079C531659141344CD1FD0A4F28419497F9722A3DAAFE3B4186F6B6457E0 PUSH1 0x40 MLOAD PUSH1 0x40 MLOAD DUP1 SWAP2 SUB SWAP1 LOG3 DUP1 PUSH1 0x5 PUSH0 PUSH2 0x100 EXP DUP2 SLOAD DUP2 PUSH20 0xFFFFFFFFFFFFFFFFFFFFFFFFFFFFFFFFFFFFFFFF MUL NOT AND SWAP1 DUP4 PUSH20 0xFFFFFFFFFFFFFFFFFFFFFFFFFFFFFFFFFFFFFFFF AND MUL OR SWAP1 SSTORE POP POP JUMP JUMPDEST PUSH0 PUSH2 0x5208 GAS DUP4 PUSH2 0x1C12 SWAP2 SWAP1 PUSH2 0x2790 JUMP JUMPDEST PUSH2 0x1C1C SWAP2 SWAP1 PUSH2 0x27C3 JUMP JUMPDEST SWAP1 POP PUSH0 DUP2 GASPRICE PUSH2 0x1C2B SWAP2 SWAP1 PUSH2 0x2C49 JUMP JUMPDEST SWAP1 POP DUP1 CALLVALUE LT ISZERO PUSH2 0x1C70 JUMPI PUSH1 0x40 MLOAD PUSH32 0x8C379A000000000000000000000000000000000000000000000000000000000 DUP2 MSTORE PUSH1 0x4 ADD PUSH2 0x1C67 SWAP1 PUSH2 0x2CD4 JUMP JUMPDEST PUSH1 0x40 MLOAD DUP1 SWAP2 SUB SWAP1 REVERT JUMPDEST PUSH0 PUSH20 0xDED1B787B4F7D36EA6D9BABB9FEC6D3E40CA1958 PUSH20 0xFFFFFFFFFFFFFFFFFFFFFFFFFFFFFFFFFFFFFFFF AND CALLVALUE PUSH1 0x40 MLOAD PUSH2 0x1CA9 SWAP1 PUSH2 0x2263 JUMP JUMPDEST PUSH0 PUSH1 0x40 MLOAD DUP1 DUP4 SUB DUP2 DUP6 DUP8 GAS CALL SWAP3 POP POP POP RETURNDATASIZE DUP1 PUSH0 DUP2 EQ PUSH2 0x1CE3 JUMPI PUSH1 0x40 MLOAD SWAP2 POP PUSH1 0x1F NOT PUSH1 0x3F RETURNDATASIZE ADD AND DUP3 ADD PUSH1 0x40 MSTORE RETURNDATASIZE DUP3 MSTORE RETURNDATASIZE PUSH0 PUSH1 0x20 DUP5 ADD RETURNDATACOPY PUSH2 0x1CE8 JUMP JUMPDEST PUSH1 0x60 SWAP2 POP JUMPDEST POP POP SWAP1 POP DUP1 PUSH2 0x1D2C JUMPI PUSH1 0x40 MLOAD PUSH32 0x8C379A000000000000000000000000000000000000000000000000000000000 DUP2 MSTORE PUSH1 0x4 ADD PUSH2 0x1D23 SWAP1 PUSH2 0x22C1 JUMP JUMPDEST PUSH1 0x40 MLOAD DUP1 SWAP2 SUB SWAP1 REVERT JUMPDEST PUSH32 0x3D8298EA9F84556BCA02DFE84535012D54D4342F5224EB690EC43DCC256B3745 CALLVALUE PUSH20 0xDED1B787B4F7D36EA6D9BABB9FEC6D3E40CA1958 PUSH1 0x40 MLOAD PUSH2 0x1D71 SWAP3 SWAP2 SWAP1 PUSH2 0x233A JUMP JUMPDEST PUSH1 0x40 MLOAD DUP1 SWAP2 SUB SWAP1 LOG1 POP POP POP POP JUMP JUMPDEST PUSH0 DUP2 MLOAD SWAP1 POP SWAP2 SWAP1 POP JUMP JUMPDEST PUSH0 DUP3 DUP3 MSTORE PUSH1 0x20 DUP3 ADD SWAP1 POP SWAP3 SWAP2 POP POP JUMP JUMPDEST DUP3 DUP2 DUP4 MCOPY PUSH0 DUP4 DUP4 ADD MSTORE POP POP POP JUMP JUMPDEST PUSH0 PUSH1 0x1F NOT PUSH1 0x1F DUP4 ADD AND SWAP1 POP SWAP2 SWAP1 POP JUMP JUMPDEST PUSH0 PUSH2 0x1DC1 DUP3 PUSH2 0x1D7F JUMP JUMPDEST PUSH2 0x1DCB DUP2 DUP6 PUSH2 0x1D89 JUMP JUMPDEST SWAP4 POP PUSH2 0x1DDB DUP2 DUP6 PUSH1 0x20 DUP7 ADD PUSH2 0x1D99 JUMP JUMPDEST PUSH2 0x1DE4 DUP2 PUSH2 0x1DA7 JUMP JUMPDEST DUP5 ADD SWAP2 POP POP SWAP3 SWAP2 POP POP JUMP JUMPDEST PUSH0 PUSH1 0x20 DUP3 ADD SWAP1 POP DUP2 DUP2 SUB PUSH0 DUP4 ADD MSTORE PUSH2 0x1E07 DUP2 DUP5 PUSH2 0x1DB7 JUMP JUMPDEST SWAP1 POP SWAP3 SWAP2 POP POP JUMP JUMPDEST PUSH0 PUSH1 0x40 MLOAD SWAP1 POP SWAP1 JUMP JUMPDEST PUSH0 PUSH0 REVERT JUMPDEST PUSH0 PUSH0 REVERT JUMPDEST PUSH0 PUSH20 0xFFFFFFFFFFFFFFFFFFFFFFFFFFFFFFFFFFFFFFFF DUP3 AND SWAP1 POP SWAP2 SWAP1 POP JUMP JUMPDEST PUSH0 PUSH2 0x1E49 DUP3 PUSH2 0x1E20 JUMP JUMPDEST SWAP1 POP SWAP2 SWAP1 POP JUMP JUMPDEST PUSH2 0x1E59 DUP2 PUSH2 0x1E3F JUMP JUMPDEST DUP2 EQ PUSH2 0x1E63 JUMPI PUSH0 PUSH0 REVERT JUMPDEST POP JUMP JUMPDEST PUSH0 DUP2 CALLDATALOAD SWAP1 POP PUSH2 0x1E74 DUP2 PUSH2 0x1E50 JUMP JUMPDEST SWAP3 SWAP2 POP POP JUMP JUMPDEST PUSH0 DUP2 SWAP1 POP SWAP2 SWAP1 POP JUMP JUMPDEST PUSH2 0x1E8C DUP2 PUSH2 0x1E7A JUMP JUMPDEST DUP2 EQ PUSH2 0x1E96 JUMPI PUSH0 PUSH0 REVERT JUMPDEST POP JUMP JUMPDEST PUSH0 DUP2 CALLDATALOAD SWAP1 POP PUSH2 0x1EA7 DUP2 PUSH2 0x1E83 JUMP JUMPDEST SWAP3 SWAP2 POP POP JUMP JUMPDEST PUSH0 PUSH0 PUSH1 0x40 DUP4 DUP6 SUB SLT ISZERO PUSH2 0x1EC3 JUMPI PUSH2 0x1EC2 PUSH2 0x1E18 JUMP JUMPDEST JUMPDEST PUSH0 PUSH2 0x1ED0 DUP6 DUP3 DUP7 ADD PUSH2 0x1E66 JUMP JUMPDEST SWAP3 POP POP PUSH1 0x20 PUSH2 0x1EE1 DUP6 DUP3 DUP7 ADD PUSH2 0x1E99 JUMP JUMPDEST SWAP2 POP POP SWAP3 POP SWAP3 SWAP1 POP JUMP JUMPDEST PUSH0 DUP2 ISZERO ISZERO SWAP1 POP SWAP2 SWAP1 POP JUMP JUMPDEST PUSH2 0x1EFF DUP2 PUSH2 0x1EEB JUMP JUMPDEST DUP3 MSTORE POP POP JUMP JUMPDEST PUSH0 PUSH1 0x20 DUP3 ADD SWAP1 POP PUSH2 0x1F18 PUSH0 DUP4 ADD DUP5 PUSH2 0x1EF6 JUMP JUMPDEST SWAP3 SWAP2 POP POP JUMP JUMPDEST PUSH2 0x1F27 DUP2 PUSH2 0x1E7A JUMP JUMPDEST DUP3 MSTORE POP POP JUMP JUMPDEST PUSH0 PUSH1 0x20 DUP3 ADD SWAP1 POP PUSH2 0x1F40 PUSH0 DUP4 ADD DUP5 PUSH2 0x1F1E JUMP JUMPDEST SWAP3 SWAP2 POP POP JUMP JUMPDEST PUSH0 PUSH0 PUSH0 PUSH1 0x60 DUP5 DUP7 SUB SLT ISZERO PUSH2 0x1F5D JUMPI PUSH2 0x1F5C PUSH2 0x1E18 JUMP JUMPDEST JUMPDEST PUSH0 PUSH2 0x1F6A DUP7 DUP3 DUP8 ADD PUSH2 0x1E66 JUMP JUMPDEST SWAP4 POP POP PUSH1 0x20 PUSH2 0x1F7B DUP7 DUP3 DUP8 ADD PUSH2 0x1E66 JUMP JUMPDEST SWAP3 POP POP PUSH1 0x40 PUSH2 0x1F8C DUP7 DUP3 DUP8 ADD PUSH2 0x1E99 JUMP JUMPDEST SWAP2 POP POP SWAP3 POP SWAP3 POP SWAP3 JUMP JUMPDEST PUSH0 PUSH1 0xFF DUP3 AND SWAP1 POP SWAP2 SWAP1 POP JUMP JUMPDEST PUSH2 0x1FAB DUP2 PUSH2 0x1F96 JUMP JUMPDEST DUP3 MSTORE POP POP JUMP JUMPDEST PUSH0 PUSH1 0x20 DUP3 ADD SWAP1 POP PUSH2 0x1FC4 PUSH0 DUP4 ADD DUP5 PUSH2 0x1FA2 JUMP JUMPDEST SWAP3 SWAP2 POP POP JUMP JUMPDEST PUSH0 PUSH1 0x20 DUP3 DUP5 SUB SLT ISZERO PUSH2 0x1FDF JUMPI PUSH2 0x1FDE PUSH2 0x1E18 JUMP JUMPDEST JUMPDEST PUSH0 PUSH2 0x1FEC DUP5 DUP3 DUP6 ADD PUSH2 0x1E66 JUMP JUMPDEST SWAP2 POP POP SWAP3 SWAP2 POP POP JUMP JUMPDEST PUSH0 PUSH0 REVERT JUMPDEST PUSH0 PUSH0 REVERT JUMPDEST PUSH32 0x4E487B7100000000000000000000000000000000000000000000000000000000 PUSH0 MSTORE PUSH1 0x41 PUSH1 0x4 MSTORE PUSH1 0x24 PUSH0 REVERT JUMPDEST PUSH2 0x2033 DUP3 PUSH2 0x1DA7 JUMP JUMPDEST DUP2 ADD DUP2 DUP2 LT PUSH8 0xFFFFFFFFFFFFFFFF DUP3 GT OR ISZERO PUSH2 0x2052 JUMPI PUSH2 0x2051 PUSH2 0x1FFD JUMP JUMPDEST JUMPDEST DUP1 PUSH1 0x40 MSTORE POP POP POP JUMP JUMPDEST PUSH0 PUSH2 0x2064 PUSH2 0x1E0F JUMP JUMPDEST SWAP1 POP PUSH2 0x2070 DUP3 DUP3 PUSH2 0x202A JUMP JUMPDEST SWAP2 SWAP1 POP JUMP JUMPDEST PUSH0 PUSH8 0xFFFFFFFFFFFFFFFF DUP3 GT ISZERO PUSH2 0x208F JUMPI PUSH2 0x208E PUSH2 0x1FFD JUMP JUMPDEST JUMPDEST PUSH2 0x2098 DUP3 PUSH2 0x1DA7 JUMP JUMPDEST SWAP1 POP PUSH1 0x20 DUP2 ADD SWAP1 POP SWAP2 SWAP1 POP JUMP JUMPDEST DUP3 DUP2 DUP4 CALLDATACOPY PUSH0 DUP4 DUP4 ADD MSTORE POP POP POP JUMP JUMPDEST PUSH0 PUSH2 0x20C5 PUSH2 0x20C0 DUP5 PUSH2 0x2075 JUMP JUMPDEST PUSH2 0x205B JUMP JUMPDEST SWAP1 POP DUP3 DUP2 MSTORE PUSH1 0x20 DUP2 ADD DUP5 DUP5 DUP5 ADD GT ISZERO PUSH2 0x20E1 JUMPI PUSH2 0x20E0 PUSH2 0x1FF9 JUMP JUMPDEST JUMPDEST PUSH2 0x20EC DUP5 DUP3 DUP6 PUSH2 0x20A5 JUMP JUMPDEST POP SWAP4 SWAP3 POP POP POP JUMP JUMPDEST PUSH0 DUP3 PUSH1 0x1F DUP4 ADD SLT PUSH2 0x2108 JUMPI PUSH2 0x2107 PUSH2 0x1FF5 JUMP JUMPDEST JUMPDEST DUP2 CALLDATALOAD PUSH2 0x2118 DUP5 DUP3 PUSH1 0x20 DUP7 ADD PUSH2 0x20B3 JUMP JUMPDEST SWAP2 POP POP SWAP3 SWAP2 POP POP JUMP JUMPDEST PUSH0 PUSH1 0x20 DUP3 DUP5 SUB SLT ISZERO PUSH2 0x2136 JUMPI PUSH2 0x2135 PUSH2 0x1E18 JUMP JUMPDEST JUMPDEST PUSH0 DUP3 ADD CALLDATALOAD PUSH8 0xFFFFFFFFFFFFFFFF DUP2 GT ISZERO PUSH2 0x2153 JUMPI PUSH2 0x2152 PUSH2 0x1E1C JUMP JUMPDEST JUMPDEST PUSH2 0x215F DUP5 DUP3 DUP6 ADD PUSH2 0x20F4 JUMP JUMPDEST SWAP2 POP POP SWAP3 SWAP2 POP POP JUMP JUMPDEST PUSH2 0x2171 DUP2 PUSH2 0x1E3F JUMP JUMPDEST DUP3 MSTORE POP POP JUMP JUMPDEST PUSH0 PUSH1 0x20 DUP3 ADD SWAP1 POP PUSH2 0x218A PUSH0 DUP4 ADD DUP5 PUSH2 0x2168 JUMP JUMPDEST SWAP3 SWAP2 POP POP JUMP JUMPDEST PUSH0 PUSH0 PUSH1 0x40 DUP4 DUP6 SUB SLT ISZERO PUSH2 0x21A6 JUMPI PUSH2 0x21A5 PUSH2 0x1E18 JUMP JUMPDEST JUMPDEST PUSH0 PUSH2 0x21B3 DUP6 DUP3 DUP7 ADD PUSH2 0x1E66 JUMP JUMPDEST SWAP3 POP POP PUSH1 0x20 PUSH2 0x21C4 DUP6 DUP3 DUP7 ADD PUSH2 0x1E66 JUMP JUMPDEST SWAP2 POP POP SWAP3 POP SWAP3 SWAP1 POP JUMP JUMPDEST PUSH32 0x4E6F20424E422073656E74000000000000000000000000000000000000000000 PUSH0 DUP3 ADD MSTORE POP JUMP JUMPDEST PUSH0 PUSH2 0x2202 PUSH1 0xB DUP4 PUSH2 0x1D89 JUMP JUMPDEST SWAP2 POP PUSH2 0x220D DUP3 PUSH2 0x21CE JUMP JUMPDEST PUSH1 0x20 DUP3 ADD SWAP1 POP SWAP2 SWAP1 POP JUMP JUMPDEST PUSH0 PUSH1 0x20 DUP3 ADD SWAP1 POP DUP2 DUP2 SUB PUSH0 DUP4 ADD MSTORE PUSH2 0x222F DUP2 PUSH2 0x21F6 JUMP JUMPDEST SWAP1 POP SWAP2 SWAP1 POP JUMP JUMPDEST PUSH0 DUP2 SWAP1 POP SWAP3 SWAP2 POP POP JUMP JUMPDEST POP JUMP JUMPDEST PUSH0 PUSH2 0x224E PUSH0 DUP4 PUSH2 0x2236 JUMP JUMPDEST SWAP2 POP PUSH2 0x2259 DUP3 PUSH2 0x2240 JUMP JUMPDEST PUSH0 DUP3 ADD SWAP1 POP SWAP2 SWAP1 POP JUMP JUMPDEST PUSH0 PUSH2 0x226D DUP3 PUSH2 0x2243 JUMP JUMPDEST SWAP2 POP DUP2 SWAP1 POP SWAP2 SWAP1 POP JUMP JUMPDEST PUSH32 0x466F7277617264696E6720424E42206661696C65640000000000000000000000 PUSH0 DUP3 ADD MSTORE POP JUMP JUMPDEST PUSH0 PUSH2 0x22AB PUSH1 0x15 DUP4 PUSH2 0x1D89 JUMP JUMPDEST SWAP2 POP PUSH2 0x22B6 DUP3 PUSH2 0x2277 JUMP JUMPDEST PUSH1 0x20 DUP3 ADD SWAP1 POP SWAP2 SWAP1 POP JUMP JUMPDEST PUSH0 PUSH1 0x20 DUP3 ADD SWAP1 POP DUP2 DUP2 SUB PUSH0 DUP4 ADD MSTORE PUSH2 0x22D8 DUP2 PUSH2 0x229F JUMP JUMPDEST SWAP1 POP SWAP2 SWAP1 POP JUMP JUMPDEST PUSH0 DUP2 SWAP1 POP SWAP2 SWAP1 POP JUMP JUMPDEST PUSH0 PUSH2 0x2302 PUSH2 0x22FD PUSH2 0x22F8 DUP5 PUSH2 0x1E20 JUMP JUMPDEST PUSH2 0x22DF JUMP JUMPDEST PUSH2 0x1E20 JUMP JUMPDEST SWAP1 POP SWAP2 SWAP1 POP JUMP JUMPDEST PUSH0 PUSH2 0x2313 DUP3 PUSH2 0x22E8 JUMP JUMPDEST SWAP1 POP SWAP2 SWAP1 POP JUMP JUMPDEST PUSH0 PUSH2 0x2324 DUP3 PUSH2 0x2309 JUMP JUMPDEST SWAP1 POP SWAP2 SWAP1 POP JUMP JUMPDEST PUSH2 0x2334 DUP2 PUSH2 0x231A JUMP JUMPDEST DUP3 MSTORE POP POP JUMP JUMPDEST PUSH0 PUSH1 0x40 DUP3 ADD SWAP1 POP PUSH2 0x234D PUSH0 DUP4 ADD DUP6 PUSH2 0x1F1E JUMP JUMPDEST PUSH2 0x235A PUSH1 0x20 DUP4 ADD DUP5 PUSH2 0x232B JUMP JUMPDEST SWAP4 SWAP3 POP POP POP JUMP JUMPDEST PUSH32 0x4E487B7100000000000000000000000000000000000000000000000000000000 PUSH0 MSTORE PUSH1 0x22 PUSH1 0x4 MSTORE PUSH1 0x24 PUSH0 REVERT JUMPDEST PUSH0 PUSH1 0x2 DUP3 DIV SWAP1 POP PUSH1 0x1 DUP3 AND DUP1 PUSH2 0x23A5 JUMPI PUSH1 0x7F DUP3 AND SWAP2 POP JUMPDEST PUSH1 0x20 DUP3 LT DUP2 SUB PUSH2 0x23B8 JUMPI PUSH2 0x23B7 PUSH2 0x2361 JUMP JUMPDEST JUMPDEST POP SWAP2 SWAP1 POP JUMP JUMPDEST PUSH32 0x436F6E7472616374206973207061757365640000000000000000000000000000 PUSH0 DUP3 ADD MSTORE POP JUMP JUMPDEST PUSH0 PUSH2 0x23F2 PUSH1 0x12 DUP4 PUSH2 0x1D89 JUMP JUMPDEST SWAP2 POP PUSH2 0x23FD DUP3 PUSH2 0x23BE JUMP JUMPDEST PUSH1 0x20 DUP3 ADD SWAP1 POP SWAP2 SWAP1 POP JUMP JUMPDEST PUSH0 PUSH1 0x20 DUP3 ADD SWAP1 POP DUP2 DUP2 SUB PUSH0 DUP4 ADD MSTORE PUSH2 0x241F DUP2 PUSH2 0x23E6 JUMP JUMPDEST SWAP1 POP SWAP2 SWAP1 POP JUMP JUMPDEST PUSH32 0x436F6E7472616374207065726D616E656E746C79207465726D696E6174656400 PUSH0 DUP3 ADD MSTORE POP JUMP JUMPDEST PUSH0 PUSH2 0x245A PUSH1 0x1F DUP4 PUSH2 0x1D89 JUMP JUMPDEST SWAP2 POP PUSH2 0x2465 DUP3 PUSH2 0x2426 JUMP JUMPDEST PUSH1 0x20 DUP3 ADD SWAP1 POP SWAP2 SWAP1 POP JUMP JUMPDEST PUSH0 PUSH1 0x20 DUP3 ADD SWAP1 POP DUP2 DUP2 SUB PUSH0 DUP4 ADD MSTORE PUSH2 0x2487 DUP2 PUSH2 0x244E JUMP JUMPDEST SWAP1 POP SWAP2 SWAP1 POP JUMP JUMPDEST PUSH32 0x417070726F766520746F207A65726F2061646472657373000000000000000000 PUSH0 DUP3 ADD MSTORE POP JUMP JUMPDEST PUSH0 PUSH2 0x24C2 PUSH1 0x17 DUP4 PUSH2 0x1D89 JUMP JUMPDEST SWAP2 POP PUSH2 0x24CD DUP3 PUSH2 0x248E JUMP JUMPDEST PUSH1 0x20 DUP3 ADD SWAP1 POP SWAP2 SWAP1 POP JUMP JUMPDEST PUSH0 PUSH1 0x20 DUP3 ADD SWAP1 POP DUP2 DUP2 SUB PUSH0 DUP4 ADD MSTORE PUSH2 0x24EF DUP2 PUSH2 0x24B6 JUMP JUMPDEST SWAP1 POP SWAP2 SWAP1 POP JUMP JUMPDEST PUSH32 0x4F6E6C79206F776E65722063616E2063616C6C20746869732066756E6374696F PUSH0 DUP3 ADD MSTORE PUSH32 0x6E00000000000000000000000000000000000000000000000000000000000000 PUSH1 0x20 DUP3 ADD MSTORE POP JUMP JUMPDEST PUSH0 PUSH2 0x2550 PUSH1 0x21 DUP4 PUSH2 0x1D89 JUMP JUMPDEST SWAP2 POP PUSH2 0x255B DUP3 PUSH2 0x24F6 JUMP JUMPDEST PUSH1 0x40 DUP3 ADD SWAP1 POP SWAP2 SWAP1 POP JUMP JUMPDEST PUSH0 PUSH1 0x20 DUP3 ADD SWAP1 POP DUP2 DUP2 SUB PUSH0 DUP4 ADD MSTORE PUSH2 0x257D DUP2 PUSH2 0x2544 JUMP JUMPDEST SWAP1 POP SWAP2 SWAP1 POP JUMP JUMPDEST PUSH0 DUP2 MLOAD SWAP1 POP PUSH2 0x2592 DUP2 PUSH2 0x1E83 JUMP JUMPDEST SWAP3 SWAP2 POP POP JUMP JUMPDEST PUSH0 PUSH1 0x20 DUP3 DUP5 SUB SLT ISZERO PUSH2 0x25AD JUMPI PUSH2 0x25AC PUSH2 0x1E18 JUMP JUMPDEST JUMPDEST PUSH0 PUSH2 0x25BA DUP5 DUP3 DUP6 ADD PUSH2 0x2584 JUMP JUMPDEST SWAP2 POP POP SWAP3 SWAP2 POP POP JUMP JUMPDEST PUSH32 0x496E76616C696420616464726573730000000000000000000000000000000000 PUSH0 DUP3 ADD MSTORE POP JUMP JUMPDEST PUSH0 PUSH2 0x25F7 PUSH1 0xF DUP4 PUSH2 0x1D89 JUMP JUMPDEST SWAP2 POP PUSH2 0x2602 DUP3 PUSH2 0x25C3 JUMP JUMPDEST PUSH1 0x20 DUP3 ADD SWAP1 POP SWAP2 SWAP1 POP JUMP JUMPDEST PUSH0 PUSH1 0x20 DUP3 ADD SWAP1 POP DUP2 DUP2 SUB PUSH0 DUP4 ADD MSTORE PUSH2 0x2624 DUP2 PUSH2 0x25EB JUMP JUMPDEST SWAP1 POP SWAP2 SWAP1 POP JUMP JUMPDEST PUSH32 0x416D6F756E74206D757374206265203E20300000000000000000000000000000 PUSH0 DUP3 ADD MSTORE POP JUMP JUMPDEST PUSH0 PUSH2 0x265F PUSH1 0x12 DUP4 PUSH2 0x1D89 JUMP JUMPDEST SWAP2 POP PUSH2 0x266A DUP3 PUSH2 0x262B JUMP JUMPDEST PUSH1 0x20 DUP3 ADD SWAP1 POP SWAP2 SWAP1 POP JUMP JUMPDEST PUSH0 PUSH1 0x20 DUP3 ADD SWAP1 POP DUP2 DUP2 SUB PUSH0 DUP4 ADD MSTORE PUSH2 0x268C DUP2 PUSH2 0x2653 JUMP JUMPDEST SWAP1 POP SWAP2 SWAP1 POP JUMP JUMPDEST PUSH32 0x496E73756666696369656E742062616C616E6365000000000000000000000000 PUSH0 DUP3 ADD MSTORE POP JUMP JUMPDEST PUSH0 PUSH2 0x26C7 PUSH1 0x14 DUP4 PUSH2 0x1D89 JUMP JUMPDEST SWAP2 POP PUSH2 0x26D2 DUP3 PUSH2 0x2693 JUMP JUMPDEST PUSH1 0x20 DUP3 ADD SWAP1 POP SWAP2 SWAP1 POP JUMP JUMPDEST PUSH0 PUSH1 0x20 DUP3 ADD SWAP1 POP DUP2 DUP2 SUB PUSH0 DUP4 ADD MSTORE PUSH2 0x26F4 DUP2 PUSH2 0x26BB JUMP JUMPDEST SWAP1 POP SWAP2 SWAP1 POP JUMP JUMPDEST PUSH32 0x416C6C6F77616E63652065786365656465640000000000000000000000000000 PUSH0 DUP3 ADD MSTORE POP JUMP JUMPDEST PUSH0 PUSH2 0x272F PUSH1 0x12 DUP4 PUSH2 0x1D89 JUMP JUMPDEST SWAP2 POP PUSH2 0x273A DUP3 PUSH2 0x26FB JUMP JUMPDEST PUSH1 0x20 DUP3 ADD SWAP1 POP SWAP2 SWAP1 POP JUMP JUMPDEST PUSH0 PUSH1 0x20 DUP3 ADD SWAP1 POP DUP2 DUP2 SUB PUSH0 DUP4 ADD MSTORE PUSH2 0x275C DUP2 PUSH2 0x2723 JUMP JUMPDEST SWAP1 POP SWAP2 SWAP1 POP JUMP JUMPDEST PUSH32 0x4E487B7100000000000000000000000000000000000000000000000000000000 PUSH0 MSTORE PUSH1 0x11 PUSH1 0x4 MSTORE PUSH1 0x24 PUSH0 REVERT JUMPDEST PUSH0 PUSH2 0x279A DUP3 PUSH2 0x1E7A JUMP JUMPDEST SWAP2 POP PUSH2 0x27A5 DUP4 PUSH2 0x1E7A JUMP JUMPDEST SWAP3 POP DUP3 DUP3 SUB SWAP1 POP DUP2 DUP2 GT ISZERO PUSH2 0x27BD JUMPI PUSH2 0x27BC PUSH2 0x2763 JUMP JUMPDEST JUMPDEST SWAP3 SWAP2 POP POP JUMP JUMPDEST PUSH0 PUSH2 0x27CD DUP3 PUSH2 0x1E7A JUMP JUMPDEST SWAP2 POP PUSH2 0x27D8 DUP4 PUSH2 0x1E7A JUMP JUMPDEST SWAP3 POP DUP3 DUP3 ADD SWAP1 POP DUP1 DUP3 GT ISZERO PUSH2 0x27F0 JUMPI PUSH2 0x27EF PUSH2 0x2763 JUMP JUMPDEST JUMPDEST SWAP3 SWAP2 POP POP JUMP JUMPDEST PUSH0 PUSH2 0x2808 PUSH2 0x2803 DUP5 PUSH2 0x2075 JUMP JUMPDEST PUSH2 0x205B JUMP JUMPDEST SWAP1 POP DUP3 DUP2 MSTORE PUSH1 0x20 DUP2 ADD DUP5 DUP5 DUP5 ADD GT ISZERO PUSH2 0x2824 JUMPI PUSH2 0x2823 PUSH2 0x1FF9 JUMP JUMPDEST JUMPDEST PUSH2 0x282F DUP5 DUP3 DUP6 PUSH2 0x1D99 JUMP JUMPDEST POP SWAP4 SWAP3 POP POP POP JUMP JUMPDEST PUSH0 DUP3 PUSH1 0x1F DUP4 ADD SLT PUSH2 0x284B JUMPI PUSH2 0x284A PUSH2 0x1FF5 JUMP JUMPDEST JUMPDEST DUP2 MLOAD PUSH2 0x285B DUP5 DUP3 PUSH1 0x20 DUP7 ADD PUSH2 0x27F6 JUMP JUMPDEST SWAP2 POP POP SWAP3 SWAP2 POP POP JUMP JUMPDEST PUSH0 PUSH1 0x20 DUP3 DUP5 SUB SLT ISZERO PUSH2 0x2879 JUMPI PUSH2 0x2878 PUSH2 0x1E18 JUMP JUMPDEST JUMPDEST PUSH0 DUP3 ADD MLOAD PUSH8 0xFFFFFFFFFFFFFFFF DUP2 GT ISZERO PUSH2 0x2896 JUMPI PUSH2 0x2895 PUSH2 0x1E1C JUMP JUMPDEST JUMPDEST PUSH2 0x28A2 DUP5 DUP3 DUP6 ADD PUSH2 0x2837 JUMP JUMPDEST SWAP2 POP POP SWAP3 SWAP2 POP POP JUMP JUMPDEST PUSH32 0x5570646174657320617265206C6F636B65640000000000000000000000000000 PUSH0 DUP3 ADD MSTORE POP JUMP JUMPDEST PUSH0 PUSH2 0x28DF PUSH1 0x12 DUP4 PUSH2 0x1D89 JUMP JUMPDEST SWAP2 POP PUSH2 0x28EA DUP3 PUSH2 0x28AB JUMP JUMPDEST PUSH1 0x20 DUP3 ADD SWAP1 POP SWAP2 SWAP1 POP JUMP JUMPDEST PUSH0 PUSH1 0x20 DUP3 ADD SWAP1 POP DUP2 DUP2 SUB PUSH0 DUP4 ADD MSTORE PUSH2 0x290C DUP2 PUSH2 0x28D3 JUMP JUMPDEST SWAP1 POP SWAP2 SWAP1 POP JUMP JUMPDEST PUSH0 DUP2 SWAP1 POP DUP2 PUSH0 MSTORE PUSH1 0x20 PUSH0 KECCAK256 SWAP1 POP SWAP2 SWAP1 POP JUMP JUMPDEST PUSH0 PUSH1 0x20 PUSH1 0x1F DUP4 ADD DIV SWAP1 POP SWAP2 SWAP1 POP JUMP JUMPDEST PUSH0 DUP3 DUP3 SHL SWAP1 POP SWAP3 SWAP2 POP POP JUMP JUMPDEST PUSH0 PUSH1 0x8 DUP4 MUL PUSH2 0x296F PUSH32 0xFFFFFFFFFFFFFFFFFFFFFFFFFFFFFFFFFFFFFFFFFFFFFFFFFFFFFFFFFFFFFFFF DUP3 PUSH2 0x2934 JUMP JUMPDEST PUSH2 0x2979 DUP7 DUP4 PUSH2 0x2934 JUMP JUMPDEST SWAP6 POP DUP1 NOT DUP5 AND SWAP4 POP DUP1 DUP7 AND DUP5 OR SWAP3 POP POP POP SWAP4 SWAP3 POP POP POP JUMP JUMPDEST PUSH0 PUSH2 0x29AB PUSH2 0x29A6 PUSH2 0x29A1 DUP5 PUSH2 0x1E7A JUMP JUMPDEST PUSH2 0x22DF JUMP JUMPDEST PUSH2 0x1E7A JUMP JUMPDEST SWAP1 POP SWAP2 SWAP1 POP JUMP JUMPDEST PUSH0 DUP2 SWAP1 POP SWAP2 SWAP1 POP JUMP JUMPDEST PUSH2 0x29C4 DUP4 PUSH2 0x2991 JUMP JUMPDEST PUSH2 0x29D8 PUSH2 0x29D0 DUP3 PUSH2 0x29B2 JUMP JUMPDEST DUP5 DUP5 SLOAD PUSH2 0x2940 JUMP JUMPDEST DUP3 SSTORE POP POP POP POP JUMP JUMPDEST PUSH0 PUSH0 SWAP1 POP SWAP1 JUMP JUMPDEST PUSH2 0x29EF PUSH2 0x29E0 JUMP JUMPDEST PUSH2 0x29FA DUP2 DUP5 DUP5 PUSH2 0x29BB JUMP JUMPDEST POP POP POP JUMP JUMPDEST JUMPDEST DUP2 DUP2 LT ISZERO PUSH2 0x2A1D JUMPI PUSH2 0x2A12 PUSH0 DUP3 PUSH2 0x29E7 JUMP JUMPDEST PUSH1 0x1 DUP2 ADD SWAP1 POP PUSH2 0x2A00 JUMP JUMPDEST POP POP JUMP JUMPDEST PUSH1 0x1F DUP3 GT ISZERO PUSH2 0x2A62 JUMPI PUSH2 0x2A33 DUP2 PUSH2 0x2913 JUMP JUMPDEST PUSH2 0x2A3C DUP5 PUSH2 0x2925 JUMP JUMPDEST DUP2 ADD PUSH1 0x20 DUP6 LT ISZERO PUSH2 0x2A4B JUMPI DUP2 SWAP1 POP JUMPDEST PUSH2 0x2A5F PUSH2 0x2A57 DUP6 PUSH2 0x2925 JUMP JUMPDEST DUP4 ADD DUP3 PUSH2 0x29FF JUMP JUMPDEST POP POP JUMPDEST POP POP POP JUMP JUMPDEST PUSH0 DUP3 DUP3 SHR SWAP1 POP SWAP3 SWAP2 POP POP JUMP JUMPDEST PUSH0 PUSH2 0x2A82 PUSH0 NOT DUP5 PUSH1 0x8 MUL PUSH2 0x2A67 JUMP JUMPDEST NOT DUP1 DUP4 AND SWAP2 POP POP SWAP3 SWAP2 POP POP JUMP JUMPDEST PUSH0 PUSH2 0x2A9A DUP4 DUP4 PUSH2 0x2A73 JUMP JUMPDEST SWAP2 POP DUP3 PUSH1 0x2 MUL DUP3 OR SWAP1 POP SWAP3 SWAP2 POP POP JUMP JUMPDEST PUSH2 0x2AB3 DUP3 PUSH2 0x1D7F JUMP JUMPDEST PUSH8 0xFFFFFFFFFFFFFFFF DUP2 GT ISZERO PUSH2 0x2ACC JUMPI PUSH2 0x2ACB PUSH2 0x1FFD JUMP JUMPDEST JUMPDEST PUSH2 0x2AD6 DUP3 SLOAD PUSH2 0x238E JUMP JUMPDEST PUSH2 0x2AE1 DUP3 DUP3 DUP6 PUSH2 0x2A21 JUMP JUMPDEST PUSH0 PUSH1 0x20 SWAP1 POP PUSH1 0x1F DUP4 GT PUSH1 0x1 DUP2 EQ PUSH2 0x2B12 JUMPI PUSH0 DUP5 ISZERO PUSH2 0x2B00 JUMPI DUP3 DUP8 ADD MLOAD SWAP1 POP JUMPDEST PUSH2 0x2B0A DUP6 DUP3 PUSH2 0x2A8F JUMP JUMPDEST DUP7 SSTORE POP PUSH2 0x2B71 JUMP JUMPDEST PUSH1 0x1F NOT DUP5 AND PUSH2 0x2B20 DUP7 PUSH2 0x2913 JUMP JUMPDEST PUSH0 JUMPDEST DUP3 DUP2 LT ISZERO PUSH2 0x2B47 JUMPI DUP5 DUP10 ADD MLOAD DUP3 SSTORE PUSH1 0x1 DUP3 ADD SWAP2 POP PUSH1 0x20 DUP6 ADD SWAP5 POP PUSH1 0x20 DUP2 ADD SWAP1 POP PUSH2 0x2B22 JUMP JUMPDEST DUP7 DUP4 LT ISZERO PUSH2 0x2B64 JUMPI DUP5 DUP10 ADD MLOAD PUSH2 0x2B60 PUSH1 0x1F DUP10 AND DUP3 PUSH2 0x2A73 JUMP JUMPDEST DUP4 SSTORE POP JUMPDEST PUSH1 0x1 PUSH1 0x2 DUP9 MUL ADD DUP9 SSTORE POP POP POP JUMPDEST POP POP POP POP POP POP JUMP JUMPDEST PUSH32 0x5472616E7366657220746F207A65726F20616464726573730000000000000000 PUSH0 DUP3 ADD MSTORE POP JUMP JUMPDEST PUSH0 PUSH2 0x2BAD PUSH1 0x18 DUP4 PUSH2 0x1D89 JUMP JUMPDEST SWAP2 POP PUSH2 0x2BB8 DUP3 PUSH2 0x2B79 JUMP JUMPDEST PUSH1 0x20 DUP3 ADD SWAP1 POP SWAP2 SWAP1 POP JUMP JUMPDEST PUSH0 PUSH1 0x20 DUP3 ADD SWAP1 POP DUP2 DUP2 SUB PUSH0 DUP4 ADD MSTORE PUSH2 0x2BDA DUP2 PUSH2 0x2BA1 JUMP JUMPDEST SWAP1 POP SWAP2 SWAP1 POP JUMP JUMPDEST PUSH32 0x4E6577206F776E657220697320746865207A65726F2061646472657373000000 PUSH0 DUP3 ADD MSTORE POP JUMP JUMPDEST PUSH0 PUSH2 0x2C15 PUSH1 0x1D DUP4 PUSH2 0x1D89 JUMP JUMPDEST SWAP2 POP PUSH2 0x2C20 DUP3 PUSH2 0x2BE1 JUMP JUMPDEST PUSH1 0x20 DUP3 ADD SWAP1 POP SWAP2 SWAP1 POP JUMP JUMPDEST PUSH0 PUSH1 0x20 DUP3 ADD SWAP1 POP DUP2 DUP2 SUB PUSH0 DUP4 ADD MSTORE PUSH2 0x2C42 DUP2 PUSH2 0x2C09 JUMP JUMPDEST SWAP1 POP SWAP2 SWAP1 POP JUMP JUMPDEST PUSH0 PUSH2 0x2C53 DUP3 PUSH2 0x1E7A JUMP JUMPDEST SWAP2 POP PUSH2 0x2C5E DUP4 PUSH2 0x1E7A JUMP JUMPDEST SWAP3 POP DUP3 DUP3 MUL PUSH2 0x2C6C DUP2 PUSH2 0x1E7A JUMP JUMPDEST SWAP2 POP DUP3 DUP3 DIV DUP5 EQ DUP4 ISZERO OR PUSH2 0x2C83 JUMPI PUSH2 0x2C82 PUSH2 0x2763 JUMP JUMPDEST JUMPDEST POP SWAP3 SWAP2 POP POP JUMP JUMPDEST PUSH32 0x496E73756666696369656E7420424E422073656E7420666F7220666565000000 PUSH0 DUP3 ADD MSTORE POP JUMP JUMPDEST PUSH0 PUSH2 0x2CBE PUSH1 0x1D DUP4 PUSH2 0x1D89 JUMP JUMPDEST SWAP2 POP PUSH2 0x2CC9 DUP3 PUSH2 0x2C8A JUMP JUMPDEST PUSH1 0x20 DUP3 ADD SWAP1 POP SWAP2 SWAP1 POP JUMP JUMPDEST PUSH0 PUSH1 0x20 DUP3 ADD SWAP1 POP DUP2 DUP2 SUB PUSH0 DUP4 ADD MSTORE PUSH2 0x2CEB DUP2 PUSH2 0x2CB2 JUMP JUMPDEST SWAP1 POP SWAP2 SWAP1 POP JUMP INVALID LOG2 PUSH5 0x6970667358 0x22 SLT KECCAK256 DUP14 SWAP2 SELFBALANCE PUSH13 0xB31C32224C38FF3E7300614C79 0x4E DUP9 BLOBBASEFEE 0xD8 0xD8 0xBC LOG0 SUB DUPN 0x5A SLT 0x4B PUSH25 0x716764736F6C634300081E0033000000000000000000000000 "
				},
				"gasEstimates": {
					"creation": {
						"codeDepositCost": "2312000",
						"executionCost": "infinite",
						"totalCost": "infinite"
					},
					"external": {
						"": "infinite",
						"allowance(address,address)": "infinite",
						"approve(address,uint256)": "infinite",
						"balanceOf(address)": "2896",
						"contractOwner()": "2596",
						"decimals()": "2533",
						"getOriginalBalance(address)": "infinite",
						"getOriginalName()": "infinite",
						"getOriginalSymbol()": "infinite",
						"getOriginalTotalSupply()": "infinite",
						"lockUpdates()": "26718",
						"lockedForUpdate()": "2628",
						"logoURI()": "infinite",
						"name()": "infinite",
						"pause()": "27900",
						"paused()": "2650",
						"symbol()": "infinite",
						"terminate()": "27857",
						"terminated()": "2629",
						"totalSupply()": "2515",
						"transfer(address,uint256)": "infinite",
						"transferFrom(address,address,uint256)": "infinite",
						"transferOwnership(address)": "30730",
						"unpause()": "27877",
						"updateSettings(string)": "infinite"
					},
					"internal": {
						"_chargeAndForwardFee(uint256)": "infinite",
						"_forwardDirectBNB()": "infinite"
					}
				},
				"methodIdentifiers": {
					"allowance(address,address)": "dd62ed3e",
					"approve(address,uint256)": "095ea7b3",
					"balanceOf(address)": "70a08231",
					"contractOwner()": "ce606ee0",
					"decimals()": "313ce567",
					"getOriginalBalance(address)": "5f1e015a",
					"getOriginalName()": "2513793f",
					"getOriginalSymbol()": "a3673981",
					"getOriginalTotalSupply()": "1a50fac4",
					"lockUpdates()": "81529ea0",
					"lockedForUpdate()": "428543bd",
					"logoURI()": "6bb38b28",
					"name()": "06fdde03",
					"pause()": "8456cb59",
					"paused()": "5c975abb",
					"symbol()": "95d89b41",
					"terminate()": "0c08bf88",
					"terminated()": "194307bf",
					"totalSupply()": "18160ddd",
					"transfer(address,uint256)": "a9059cbb",
					"transferFrom(address,address,uint256)": "23b872dd",
					"transferOwnership(address)": "f2fde38b",
					"unpause()": "3f4ba83a",
					"updateSettings(string)": "8ae8e025"
				}
			},
			"storageLayout": {
				"storage": [
					{
						"astId": 68,
						"contract": "YK Prime com tx.sol:YKPRIME",
						"label": "name",
						"offset": 0,
						"slot": "0",
						"type": "t_string_storage"
					},
					{
						"astId": 71,
						"contract": "YK Prime com tx.sol:YKPRIME",
						"label": "symbol",
						"offset": 0,
						"slot": "1",
						"type": "t_string_storage"
					},
					{
						"astId": 74,
						"contract": "YK Prime com tx.sol:YKPRIME",
						"label": "decimals",
						"offset": 0,
						"slot": "2",
						"type": "t_uint8"
					},
					{
						"astId": 85,
						"contract": "YK Prime com tx.sol:YKPRIME",
						"label": "totalSupply",
						"offset": 0,
						"slot": "3",
						"type": "t_uint256"
					},
					{
						"astId": 88,
						"contract": "YK Prime com tx.sol:YKPRIME",
						"label": "logoURI",
						"offset": 0,
						"slot": "4",
						"type": "t_string_storage"
					},
					{
						"astId": 91,
						"contract": "YK Prime com tx.sol:YKPRIME",
						"label": "contractOwner",
						"offset": 0,
						"slot": "5",
						"type": "t_address"
					},
					{
						"astId": 93,
						"contract": "YK Prime com tx.sol:YKPRIME",
						"label": "paused",
						"offset": 20,
						"slot": "5",
						"type": "t_bool"
					},
					{
						"astId": 95,
						"contract": "YK Prime com tx.sol:YKPRIME",
						"label": "terminated",
						"offset": 21,
						"slot": "5",
						"type": "t_bool"
					},
					{
						"astId": 97,
						"contract": "YK Prime com tx.sol:YKPRIME",
						"label": "lockedForUpdate",
						"offset": 22,
						"slot": "5",
						"type": "t_bool"
					},
					{
						"astId": 101,
						"contract": "YK Prime com tx.sol:YKPRIME",
						"label": "_balances",
						"offset": 0,
						"slot": "6",
						"type": "t_mapping(t_address,t_uint256)"
					},
					{
						"astId": 107,
						"contract": "YK Prime com tx.sol:YKPRIME",
						"label": "_allowances",
						"offset": 0,
						"slot": "7",
						"type": "t_mapping(t_address,t_mapping(t_address,t_uint256))"
					},
					{
						"astId": 113,
						"contract": "YK Prime com tx.sol:YKPRIME",
						"label": "btcbrOriginal",
						"offset": 0,
						"slot": "8",
						"type": "t_contract(IBTCBROriginal)65"
					}
				],
				"types": {
					"t_address": {
						"encoding": "inplace",
						"label": "address",
						"numberOfBytes": "20"
					},
					"t_bool": {
						"encoding": "inplace",
						"label": "bool",
						"numberOfBytes": "1"
					},
					"t_contract(IBTCBROriginal)65": {
						"encoding": "inplace",
						"label": "contract IBTCBROriginal",
						"numberOfBytes": "20"
					},
					"t_mapping(t_address,t_mapping(t_address,t_uint256))": {
						"encoding": "mapping",
						"key": "t_address",
						"label": "mapping(address => mapping(address => uint256))",
						"numberOfBytes": "32",
						"value": "t_mapping(t_address,t_uint256)"
					},
					"t_mapping(t_address,t_uint256)": {
						"encoding": "mapping",
						"key": "t_address",
						"label": "mapping(address => uint256)",
						"numberOfBytes": "32",
						"value": "t_uint256"
					},
					"t_string_storage": {
						"encoding": "bytes",
						"label": "string",
						"numberOfBytes": "32"
					},
					"t_uint256": {
						"encoding": "inplace",
						"label": "uint256",
						"numberOfBytes": "32"
					},
					"t_uint8": {
						"encoding": "inplace",
						"label": "uint8",
						"numberOfBytes": "1"
					}
				}
			},
			"userdoc": {
				"kind": "user",
				"methods": {},
				"version": 1
			}
		}
	}
}