{
	"YKPrime-Base.sol": {
		"YKPrimeBase": {
			"abi": [
				{
					"stateMutability": "payable",
					"type": "fallback"
				},
				{
					"inputs": [],
					"name": "TOKEN_DECIMALS",
					"outputs": [
						{
							"internalType": "uint8",
							"name": "",
							"type": "uint8"
						}
					],
					"stateMutability": "view",
					"type": "function"
				},
				{
					"inputs": [],
					"name": "TOKEN_NAME",
					"outputs": [
						{
							"internalType": "string",
							"name": "",
							"type": "string"
						}
					],
					"stateMutability": "view",
					"type": "function"
				},
				{
					"inputs": [],
					"name": "TOKEN_OWNER",
					"outputs": [
						{
							"internalType": "address",
							"name": "",
							"type": "address"
						}
					],
					"stateMutability": "view",
					"type": "function"
				},
				{
					"inputs": [],
					"name": "TOKEN_SUPPLY",
					"outputs": [
						{
							"internalType": "uint256",
							"name": "",
							"type": "uint256"
						}
					],
					"stateMutability": "view",
					"type": "function"
				},
				{
					"inputs": [],
					"name": "TOKEN_SYMBOL",
					"outputs": [
						{
							"internalType": "string",
							"name": "",
							"type": "string"
						}
					],
					"stateMutability": "view",
					"type": "function"
				},
				{
					"stateMutability": "payable",
					"type": "receive"
				}
			],
			"devdoc": {
				"kind": "dev",
				"methods": {},
				"title": "YKPrime-Base",
				"version": 1
			},
			"evm": {
				"assembly": "    /* \"YKPrime-Base.sol\":216:1004  contract YKPrimeBase {... */\n  mstore(0x40, 0x80)\n  callvalue\n  dup1\n  iszero\n  tag_1\n  jumpi\n  revert(0x00, 0x00)\ntag_1:\n  pop\n  dataSize(sub_0)\n  dup1\n  dataOffset(sub_0)\n  0x00\n  codecopy\n  0x00\n  return\nstop\n\nsub_0: assembly {\n        /* \"YKPrime-Base.sol\":216:1004  contract YKPrimeBase {... */\n      mstore(0x40, 0x80)\n      jumpi(tag_1, lt(calldatasize, 0x04))\n      shr(0xe0, calldataload(0x00))\n      dup1\n      0x18821400\n      eq\n      tag_3\n      jumpi\n      dup1\n      0x2a905318\n      eq\n      tag_4\n      jumpi\n      dup1\n      0x5b7f415c\n      eq\n      tag_5\n      jumpi\n      dup1\n      0xb152f6cf\n      eq\n      tag_6\n      jumpi\n      dup1\n      0xff6c33e6\n      eq\n      tag_7\n      jumpi\n      jump(tag_2)\n    tag_1:\n      jumpi(tag_2, calldatasize)\n        /* \"YKPrime-Base.sol\":942:993  revert(\"Do not send ETH directly to this contract\") */\n      mload(0x40)\n      0x08c379a000000000000000000000000000000000000000000000000000000000\n      dup2\n      mstore\n      0x04\n      add\n      tag_10\n      swap1\n      tag_11\n      jump\t// in\n    tag_10:\n      mload(0x40)\n      dup1\n      swap2\n      sub\n      swap1\n      revert\n        /* \"YKPrime-Base.sol\":216:1004  contract YKPrimeBase {... */\n    tag_2:\n        /* \"YKPrime-Base.sol\":831:888  revert(\"This contract is logic only, call through Proxy\") */\n      mload(0x40)\n      0x08c379a000000000000000000000000000000000000000000000000000000000\n      dup2\n      mstore\n      0x04\n      add\n      tag_14\n      swap1\n      tag_15\n      jump\t// in\n    tag_14:\n      mload(0x40)\n      dup1\n      swap2\n      sub\n      swap1\n      revert\n        /* \"YKPrime-Base.sol\":351:401  string public constant TOKEN_NAME = \"YKPrime Base\" */\n    tag_3:\n      callvalue\n      dup1\n      iszero\n      tag_16\n      jumpi\n      revert(0x00, 0x00)\n    tag_16:\n      pop\n      tag_17\n      tag_18\n      jump\t// in\n    tag_17:\n      mload(0x40)\n      tag_19\n      swap2\n      swap1\n      tag_20\n      jump\t// in\n    tag_19:\n      mload(0x40)\n      dup1\n      swap2\n      sub\n      swap1\n      return\n        /* \"YKPrime-Base.sol\":408:455  string public constant TOKEN_SYMBOL = \"YKPBASE\" */\n    tag_4:\n      callvalue\n      dup1\n      iszero\n      tag_21\n      jumpi\n      revert(0x00, 0x00)\n    tag_21:\n      pop\n      tag_22\n      tag_23\n      jump\t// in\n    tag_22:\n      mload(0x40)\n      tag_24\n      swap2\n      swap1\n      tag_20\n      jump\t// in\n    tag_24:\n      mload(0x40)\n      dup1\n      swap2\n      sub\n      swap1\n      return\n        /* \"YKPrime-Base.sol\":462:502  uint8 public constant TOKEN_DECIMALS = 4 */\n    tag_5:\n      callvalue\n      dup1\n      iszero\n      tag_25\n      jumpi\n      revert(0x00, 0x00)\n    tag_25:\n      pop\n      tag_26\n      tag_27\n      jump\t// in\n    tag_26:\n      mload(0x40)\n      tag_28\n      swap2\n      swap1\n      tag_29\n      jump\t// in\n    tag_28:\n      mload(0x40)\n      dup1\n      swap2\n      sub\n      swap1\n      return\n        /* \"YKPrime-Base.sol\":509:584  uint256 public constant TOKEN_SUPPLY = 50000000000 * (10 ** TOKEN_DECIMALS) */\n    tag_6:\n      callvalue\n      dup1\n      iszero\n      tag_30\n      jumpi\n      revert(0x00, 0x00)\n    tag_30:\n      pop\n      tag_31\n      tag_32\n      jump\t// in\n    tag_31:\n      mload(0x40)\n      tag_33\n      swap2\n      swap1\n      tag_34\n      jump\t// in\n    tag_33:\n      mload(0x40)\n      dup1\n      swap2\n      sub\n      swap1\n      return\n        /* \"YKPrime-Base.sol\":591:671  address public constant TOKEN_OWNER = 0x0b81337F18767565D2eA40913799317A25DC4bc5 */\n    tag_7:\n      callvalue\n      dup1\n      iszero\n      tag_35\n      jumpi\n      revert(0x00, 0x00)\n    tag_35:\n      pop\n      tag_36\n      tag_37\n      jump\t// in\n    tag_36:\n      mload(0x40)\n      tag_38\n      swap2\n      swap1\n      tag_39\n      jump\t// in\n    tag_38:\n      mload(0x40)\n      dup1\n      swap2\n      sub\n      swap1\n      return\n        /* \"YKPrime-Base.sol\":351:401  string public constant TOKEN_NAME = \"YKPrime Base\" */\n    tag_18:\n      mload(0x40)\n      dup1\n      0x40\n      add\n      0x40\n      mstore\n      dup1\n      0x0c\n      dup2\n      mstore\n      0x20\n      add\n      0x594b5072696d6520426173650000000000000000000000000000000000000000\n      dup2\n      mstore\n      pop\n      dup2\n      jump\t// out\n        /* \"YKPrime-Base.sol\":408:455  string public constant TOKEN_SYMBOL = \"YKPBASE\" */\n    tag_23:\n      mload(0x40)\n      dup1\n      0x40\n      add\n      0x40\n      mstore\n      dup1\n      0x07\n      dup2\n      mstore\n      0x20\n      add\n      0x594b504241534500000000000000000000000000000000000000000000000000\n      dup2\n      mstore\n      pop\n      dup2\n      jump\t// out\n        /* \"YKPrime-Base.sol\":462:502  uint8 public constant TOKEN_DECIMALS = 4 */\n    tag_27:\n        /* \"YKPrime-Base.sol\":501:502  4 */\n      0x04\n        /* \"YKPrime-Base.sol\":462:502  uint8 public constant TOKEN_DECIMALS = 4 */\n      dup2\n      jump\t// out\n        /* \"YKPrime-Base.sol\":509:584  uint256 public constant TOKEN_SUPPLY = 50000000000 * (10 ** TOKEN_DECIMALS) */\n    tag_32:\n        /* \"YKPrime-Base.sol\":501:502  4 */\n      0x04\n        /* \"YKPrime-Base.sol\":563:565  10 */\n      0x0a\n        /* \"YKPrime-Base.sol\":563:583  10 ** TOKEN_DECIMALS */\n      tag_40\n      swap2\n      swap1\n      tag_41\n      jump\t// in\n    tag_40:\n        /* \"YKPrime-Base.sol\":548:559  50000000000 */\n      0x0ba43b7400\n        /* \"YKPrime-Base.sol\":548:584  50000000000 * (10 ** TOKEN_DECIMALS) */\n      tag_42\n      swap2\n      swap1\n      tag_43\n      jump\t// in\n    tag_42:\n        /* \"YKPrime-Base.sol\":509:584  uint256 public constant TOKEN_SUPPLY = 50000000000 * (10 ** TOKEN_DECIMALS) */\n      dup2\n      jump\t// out\n        /* \"YKPrime-Base.sol\":591:671  address public constant TOKEN_OWNER = 0x0b81337F18767565D2eA40913799317A25DC4bc5 */\n    tag_37:\n        /* \"YKPrime-Base.sol\":629:671  0x0b81337F18767565D2eA40913799317A25DC4bc5 */\n      0x0b81337f18767565d2ea40913799317a25dc4bc5\n        /* \"YKPrime-Base.sol\":591:671  address public constant TOKEN_OWNER = 0x0b81337F18767565D2eA40913799317A25DC4bc5 */\n      dup2\n      jump\t// out\n        /* \"#utility.yul\":7:176   */\n    tag_44:\n        /* \"#utility.yul\":91:102   */\n      0x00\n        /* \"#utility.yul\":125:131   */\n      dup3\n        /* \"#utility.yul\":120:123   */\n      dup3\n        /* \"#utility.yul\":113:132   */\n      mstore\n        /* \"#utility.yul\":165:169   */\n      0x20\n        /* \"#utility.yul\":160:163   */\n      dup3\n        /* \"#utility.yul\":156:170   */\n      add\n        /* \"#utility.yul\":141:170   */\n      swap1\n      pop\n        /* \"#utility.yul\":7:176   */\n      swap3\n      swap2\n      pop\n      pop\n      jump\t// out\n        /* \"#utility.yul\":182:410   */\n    tag_45:\n        /* \"#utility.yul\":322:356   */\n      0x446f206e6f742073656e6420455448206469726563746c7920746f2074686973\n        /* \"#utility.yul\":318:319   */\n      0x00\n        /* \"#utility.yul\":310:316   */\n      dup3\n        /* \"#utility.yul\":306:320   */\n      add\n        /* \"#utility.yul\":299:357   */\n      mstore\n        /* \"#utility.yul\":391:402   */\n      0x20636f6e74726163740000000000000000000000000000000000000000000000\n        /* \"#utility.yul\":386:388   */\n      0x20\n        /* \"#utility.yul\":378:384   */\n      dup3\n        /* \"#utility.yul\":374:389   */\n      add\n        /* \"#utility.yul\":367:403   */\n      mstore\n        /* \"#utility.yul\":182:410   */\n      pop\n      jump\t// out\n        /* \"#utility.yul\":416:782   */\n    tag_46:\n        /* \"#utility.yul\":558:561   */\n      0x00\n        /* \"#utility.yul\":579:646   */\n      tag_68\n        /* \"#utility.yul\":643:645   */\n      0x29\n        /* \"#utility.yul\":638:641   */\n      dup4\n        /* \"#utility.yul\":579:646   */\n      tag_44\n      jump\t// in\n    tag_68:\n        /* \"#utility.yul\":572:646   */\n      swap2\n      pop\n        /* \"#utility.yul\":655:748   */\n      tag_69\n        /* \"#utility.yul\":744:747   */\n      dup3\n        /* \"#utility.yul\":655:748   */\n      tag_45\n      jump\t// in\n    tag_69:\n        /* \"#utility.yul\":773:775   */\n      0x40\n        /* \"#utility.yul\":768:771   */\n      dup3\n        /* \"#utility.yul\":764:776   */\n      add\n        /* \"#utility.yul\":757:776   */\n      swap1\n      pop\n        /* \"#utility.yul\":416:782   */\n      swap2\n      swap1\n      pop\n      jump\t// out\n        /* \"#utility.yul\":788:1207   */\n    tag_11:\n        /* \"#utility.yul\":954:958   */\n      0x00\n        /* \"#utility.yul\":992:994   */\n      0x20\n        /* \"#utility.yul\":981:990   */\n      dup3\n        /* \"#utility.yul\":977:995   */\n      add\n        /* \"#utility.yul\":969:995   */\n      swap1\n      pop\n        /* \"#utility.yul\":1041:1050   */\n      dup2\n        /* \"#utility.yul\":1035:1039   */\n      dup2\n        /* \"#utility.yul\":1031:1051   */\n      sub\n        /* \"#utility.yul\":1027:1028   */\n      0x00\n        /* \"#utility.yul\":1016:1025   */\n      dup4\n        /* \"#utility.yul\":1012:1029   */\n      add\n        /* \"#utility.yul\":1005:1052   */\n      mstore\n        /* \"#utility.yul\":1069:1200   */\n      tag_71\n        /* \"#utility.yul\":1195:1199   */\n      dup2\n        /* \"#utility.yul\":1069:1200   */\n      tag_46\n      jump\t// in\n    tag_71:\n        /* \"#utility.yul\":1061:1200   */\n      swap1\n      pop\n        /* \"#utility.yul\":788:1207   */\n      swap2\n      swap1\n      pop\n      jump\t// out\n        /* \"#utility.yul\":1213:1447   */\n    tag_47:\n        /* \"#utility.yul\":1353:1387   */\n      0x5468697320636f6e7472616374206973206c6f676963206f6e6c792c2063616c\n        /* \"#utility.yul\":1349:1350   */\n      0x00\n        /* \"#utility.yul\":1341:1347   */\n      dup3\n        /* \"#utility.yul\":1337:1351   */\n      add\n        /* \"#utility.yul\":1330:1388   */\n      mstore\n        /* \"#utility.yul\":1422:1439   */\n      0x6c207468726f7567682050726f78790000000000000000000000000000000000\n        /* \"#utility.yul\":1417:1419   */\n      0x20\n        /* \"#utility.yul\":1409:1415   */\n      dup3\n        /* \"#utility.yul\":1405:1420   */\n      add\n        /* \"#utility.yul\":1398:1440   */\n      mstore\n        /* \"#utility.yul\":1213:1447   */\n      pop\n      jump\t// out\n        /* \"#utility.yul\":1453:1819   */\n    tag_48:\n        /* \"#utility.yul\":1595:1598   */\n      0x00\n        /* \"#utility.yul\":1616:1683   */\n      tag_74\n        /* \"#utility.yul\":1680:1682   */\n      0x2f\n        /* \"#utility.yul\":1675:1678   */\n      dup4\n        /* \"#utility.yul\":1616:1683   */\n      tag_44\n      jump\t// in\n    tag_74:\n        /* \"#utility.yul\":1609:1683   */\n      swap2\n      pop\n        /* \"#utility.yul\":1692:1785   */\n      tag_75\n        /* \"#utility.yul\":1781:1784   */\n      dup3\n        /* \"#utility.yul\":1692:1785   */\n      tag_47\n      jump\t// in\n    tag_75:\n        /* \"#utility.yul\":1810:1812   */\n      0x40\n        /* \"#utility.yul\":1805:1808   */\n      dup3\n        /* \"#utility.yul\":1801:1813   */\n      add\n        /* \"#utility.yul\":1794:1813   */\n      swap1\n      pop\n        /* \"#utility.yul\":1453:1819   */\n      swap2\n      swap1\n      pop\n      jump\t// out\n        /* \"#utility.yul\":1825:2244   */\n    tag_15:\n        /* \"#utility.yul\":1991:1995   */\n      0x00\n        /* \"#utility.yul\":2029:2031   */\n      0x20\n        /* \"#utility.yul\":2018:2027   */\n      dup3\n        /* \"#utility.yul\":2014:2032   */\n      add\n        /* \"#utility.yul\":2006:2032   */\n      swap1\n      pop\n        /* \"#utility.yul\":2078:2087   */\n      dup2\n        /* \"#utility.yul\":2072:2076   */\n      dup2\n        /* \"#utility.yul\":2068:2088   */\n      sub\n        /* \"#utility.yul\":2064:2065   */\n      0x00\n        /* \"#utility.yul\":2053:2062   */\n      dup4\n        /* \"#utility.yul\":2049:2066   */\n      add\n        /* \"#utility.yul\":2042:2089   */\n      mstore\n        /* \"#utility.yul\":2106:2237   */\n      tag_77\n        /* \"#utility.yul\":2232:2236   */\n      dup2\n        /* \"#utility.yul\":2106:2237   */\n      tag_48\n      jump\t// in\n    tag_77:\n        /* \"#utility.yul\":2098:2237   */\n      swap1\n      pop\n        /* \"#utility.yul\":1825:2244   */\n      swap2\n      swap1\n      pop\n      jump\t// out\n        /* \"#utility.yul\":2250:2349   */\n    tag_49:\n        /* \"#utility.yul\":2302:2308   */\n      0x00\n        /* \"#utility.yul\":2336:2341   */\n      dup2\n        /* \"#utility.yul\":2330:2342   */\n      mload\n        /* \"#utility.yul\":2320:2342   */\n      swap1\n      pop\n        /* \"#utility.yul\":2250:2349   */\n      swap2\n      swap1\n      pop\n      jump\t// out\n        /* \"#utility.yul\":2355:2494   */\n    tag_50:\n        /* \"#utility.yul\":2444:2450   */\n      dup3\n        /* \"#utility.yul\":2439:2442   */\n      dup2\n        /* \"#utility.yul\":2434:2437   */\n      dup4\n        /* \"#utility.yul\":2428:2451   */\n      mcopy\n        /* \"#utility.yul\":2485:2486   */\n      0x00\n        /* \"#utility.yul\":2476:2482   */\n      dup4\n        /* \"#utility.yul\":2471:2474   */\n      dup4\n        /* \"#utility.yul\":2467:2483   */\n      add\n        /* \"#utility.yul\":2460:2487   */\n      mstore\n        /* \"#utility.yul\":2355:2494   */\n      pop\n      pop\n      pop\n      jump\t// out\n        /* \"#utility.yul\":2500:2602   */\n    tag_51:\n        /* \"#utility.yul\":2541:2547   */\n      0x00\n        /* \"#utility.yul\":2592:2594   */\n      0x1f\n        /* \"#utility.yul\":2588:2595   */\n      not\n        /* \"#utility.yul\":2583:2585   */\n      0x1f\n        /* \"#utility.yul\":2576:2581   */\n      dup4\n        /* \"#utility.yul\":2572:2586   */\n      add\n        /* \"#utility.yul\":2568:2596   */\n      and\n        /* \"#utility.yul\":2558:2596   */\n      swap1\n      pop\n        /* \"#utility.yul\":2500:2602   */\n      swap2\n      swap1\n      pop\n      jump\t// out\n        /* \"#utility.yul\":2608:2985   */\n    tag_52:\n        /* \"#utility.yul\":2696:2699   */\n      0x00\n        /* \"#utility.yul\":2724:2763   */\n      tag_82\n        /* \"#utility.yul\":2757:2762   */\n      dup3\n        /* \"#utility.yul\":2724:2763   */\n      tag_49\n      jump\t// in\n    tag_82:\n        /* \"#utility.yul\":2779:2850   */\n      tag_83\n        /* \"#utility.yul\":2843:2849   */\n      dup2\n        /* \"#utility.yul\":2838:2841   */\n      dup6\n        /* \"#utility.yul\":2779:2850   */\n      tag_44\n      jump\t// in\n    tag_83:\n        /* \"#utility.yul\":2772:2850   */\n      swap4\n      pop\n        /* \"#utility.yul\":2859:2924   */\n      tag_84\n        /* \"#utility.yul\":2917:2923   */\n      dup2\n        /* \"#utility.yul\":2912:2915   */\n      dup6\n        /* \"#utility.yul\":2905:2909   */\n      0x20\n        /* \"#utility.yul\":2898:2903   */\n      dup7\n        /* \"#utility.yul\":2894:2910   */\n      add\n        /* \"#utility.yul\":2859:2924   */\n      tag_50\n      jump\t// in\n    tag_84:\n        /* \"#utility.yul\":2949:2978   */\n      tag_85\n        /* \"#utility.yul\":2971:2977   */\n      dup2\n        /* \"#utility.yul\":2949:2978   */\n      tag_51\n      jump\t// in\n    tag_85:\n        /* \"#utility.yul\":2944:2947   */\n      dup5\n        /* \"#utility.yul\":2940:2979   */\n      add\n        /* \"#utility.yul\":2933:2979   */\n      swap2\n      pop\n        /* \"#utility.yul\":2700:2985   */\n      pop\n        /* \"#utility.yul\":2608:2985   */\n      swap3\n      swap2\n      pop\n      pop\n      jump\t// out\n        /* \"#utility.yul\":2991:3304   */\n    tag_20:\n        /* \"#utility.yul\":3104:3108   */\n      0x00\n        /* \"#utility.yul\":3142:3144   */\n      0x20\n        /* \"#utility.yul\":3131:3140   */\n      dup3\n        /* \"#utility.yul\":3127:3145   */\n      add\n        /* \"#utility.yul\":3119:3145   */\n      swap1\n      pop\n        /* \"#utility.yul\":3191:3200   */\n      dup2\n        /* \"#utility.yul\":3185:3189   */\n      dup2\n        /* \"#utility.yul\":3181:3201   */\n      sub\n        /* \"#utility.yul\":3177:3178   */\n      0x00\n        /* \"#utility.yul\":3166:3175   */\n      dup4\n        /* \"#utility.yul\":3162:3179   */\n      add\n        /* \"#utility.yul\":3155:3202   */\n      mstore\n        /* \"#utility.yul\":3219:3297   */\n      tag_87\n        /* \"#utility.yul\":3292:3296   */\n      dup2\n        /* \"#utility.yul\":3283:3289   */\n      dup5\n        /* \"#utility.yul\":3219:3297   */\n      tag_52\n      jump\t// in\n    tag_87:\n        /* \"#utility.yul\":3211:3297   */\n      swap1\n      pop\n        /* \"#utility.yul\":2991:3304   */\n      swap3\n      swap2\n      pop\n      pop\n      jump\t// out\n        /* \"#utility.yul\":3310:3396   */\n    tag_53:\n        /* \"#utility.yul\":3345:3352   */\n      0x00\n        /* \"#utility.yul\":3385:3389   */\n      0xff\n        /* \"#utility.yul\":3378:3383   */\n      dup3\n        /* \"#utility.yul\":3374:3390   */\n      and\n        /* \"#utility.yul\":3363:3390   */\n      swap1\n      pop\n        /* \"#utility.yul\":3310:3396   */\n      swap2\n      swap1\n      pop\n      jump\t// out\n        /* \"#utility.yul\":3402:3514   */\n    tag_54:\n        /* \"#utility.yul\":3485:3507   */\n      tag_90\n        /* \"#utility.yul\":3501:3506   */\n      dup2\n        /* \"#utility.yul\":3485:3507   */\n      tag_53\n      jump\t// in\n    tag_90:\n        /* \"#utility.yul\":3480:3483   */\n      dup3\n        /* \"#utility.yul\":3473:3508   */\n      mstore\n        /* \"#utility.yul\":3402:3514   */\n      pop\n      pop\n      jump\t// out\n        /* \"#utility.yul\":3520:3734   */\n    tag_29:\n        /* \"#utility.yul\":3609:3613   */\n      0x00\n        /* \"#utility.yul\":3647:3649   */\n      0x20\n        /* \"#utility.yul\":3636:3645   */\n      dup3\n        /* \"#utility.yul\":3632:3650   */\n      add\n        /* \"#utility.yul\":3624:3650   */\n      swap1\n      pop\n        /* \"#utility.yul\":3660:3727   */\n      tag_92\n        /* \"#utility.yul\":3724:3725   */\n      0x00\n        /* \"#utility.yul\":3713:3722   */\n      dup4\n        /* \"#utility.yul\":3709:3726   */\n      add\n        /* \"#utility.yul\":3700:3706   */\n      dup5\n        /* \"#utility.yul\":3660:3727   */\n      tag_54\n      jump\t// in\n    tag_92:\n        /* \"#utility.yul\":3520:3734   */\n      swap3\n      swap2\n      pop\n      pop\n      jump\t// out\n        /* \"#utility.yul\":3740:3817   */\n    tag_55:\n        /* \"#utility.yul\":3777:3784   */\n      0x00\n        /* \"#utility.yul\":3806:3811   */\n      dup2\n        /* \"#utility.yul\":3795:3811   */\n      swap1\n      pop\n        /* \"#utility.yul\":3740:3817   */\n      swap2\n      swap1\n      pop\n      jump\t// out\n        /* \"#utility.yul\":3823:3941   */\n    tag_56:\n        /* \"#utility.yul\":3910:3934   */\n      tag_95\n        /* \"#utility.yul\":3928:3933   */\n      dup2\n        /* \"#utility.yul\":3910:3934   */\n      tag_55\n      jump\t// in\n    tag_95:\n        /* \"#utility.yul\":3905:3908   */\n      dup3\n        /* \"#utility.yul\":3898:3935   */\n      mstore\n        /* \"#utility.yul\":3823:3941   */\n      pop\n      pop\n      jump\t// out\n        /* \"#utility.yul\":3947:4169   */\n    tag_34:\n        /* \"#utility.yul\":4040:4044   */\n      0x00\n        /* \"#utility.yul\":4078:4080   */\n      0x20\n        /* \"#utility.yul\":4067:4076   */\n      dup3\n        /* \"#utility.yul\":4063:4081   */\n      add\n        /* \"#utility.yul\":4055:4081   */\n      swap1\n      pop\n        /* \"#utility.yul\":4091:4162   */\n      tag_97\n        /* \"#utility.yul\":4159:4160   */\n      0x00\n        /* \"#utility.yul\":4148:4157   */\n      dup4\n        /* \"#utility.yul\":4144:4161   */\n      add\n        /* \"#utility.yul\":4135:4141   */\n      dup5\n        /* \"#utility.yul\":4091:4162   */\n      tag_56\n      jump\t// in\n    tag_97:\n        /* \"#utility.yul\":3947:4169   */\n      swap3\n      swap2\n      pop\n      pop\n      jump\t// out\n        /* \"#utility.yul\":4175:4301   */\n    tag_57:\n        /* \"#utility.yul\":4212:4219   */\n      0x00\n        /* \"#utility.yul\":4252:4294   */\n      0xffffffffffffffffffffffffffffffffffffffff\n        /* \"#utility.yul\":4245:4250   */\n      dup3\n        /* \"#utility.yul\":4241:4295   */\n      and\n        /* \"#utility.yul\":4230:4295   */\n      swap1\n      pop\n        /* \"#utility.yul\":4175:4301   */\n      swap2\n      swap1\n      pop\n      jump\t// out\n        /* \"#utility.yul\":4307:4403   */\n    tag_58:\n        /* \"#utility.yul\":4344:4351   */\n      0x00\n        /* \"#utility.yul\":4373:4397   */\n      tag_100\n        /* \"#utility.yul\":4391:4396   */\n      dup3\n        /* \"#utility.yul\":4373:4397   */\n      tag_57\n      jump\t// in\n    tag_100:\n        /* \"#utility.yul\":4362:4397   */\n      swap1\n      pop\n        /* \"#utility.yul\":4307:4403   */\n      swap2\n      swap1\n      pop\n      jump\t// out\n        /* \"#utility.yul\":4409:4527   */\n    tag_59:\n        /* \"#utility.yul\":4496:4520   */\n      tag_102\n        /* \"#utility.yul\":4514:4519   */\n      dup2\n        /* \"#utility.yul\":4496:4520   */\n      tag_58\n      jump\t// in\n    tag_102:\n        /* \"#utility.yul\":4491:4494   */\n      dup3\n        /* \"#utility.yul\":4484:4521   */\n      mstore\n        /* \"#utility.yul\":4409:4527   */\n      pop\n      pop\n      jump\t// out\n        /* \"#utility.yul\":4533:4755   */\n    tag_39:\n        /* \"#utility.yul\":4626:4630   */\n      0x00\n        /* \"#utility.yul\":4664:4666   */\n      0x20\n        /* \"#utility.yul\":4653:4662   */\n      dup3\n        /* \"#utility.yul\":4649:4667   */\n      add\n        /* \"#utility.yul\":4641:4667   */\n      swap1\n      pop\n        /* \"#utility.yul\":4677:4748   */\n      tag_104\n        /* \"#utility.yul\":4745:4746   */\n      0x00\n        /* \"#utility.yul\":4734:4743   */\n      dup4\n        /* \"#utility.yul\":4730:4747   */\n      add\n        /* \"#utility.yul\":4721:4727   */\n      dup5\n        /* \"#utility.yul\":4677:4748   */\n      tag_59\n      jump\t// in\n    tag_104:\n        /* \"#utility.yul\":4533:4755   */\n      swap3\n      swap2\n      pop\n      pop\n      jump\t// out\n        /* \"#utility.yul\":4761:4941   */\n    tag_60:\n        /* \"#utility.yul\":4809:4886   */\n      0x4e487b7100000000000000000000000000000000000000000000000000000000\n        /* \"#utility.yul\":4806:4807   */\n      0x00\n        /* \"#utility.yul\":4799:4887   */\n      mstore\n        /* \"#utility.yul\":4906:4910   */\n      0x11\n        /* \"#utility.yul\":4903:4904   */\n      0x04\n        /* \"#utility.yul\":4896:4911   */\n      mstore\n        /* \"#utility.yul\":4930:4934   */\n      0x24\n        /* \"#utility.yul\":4927:4928   */\n      0x00\n        /* \"#utility.yul\":4920:4935   */\n      revert\n        /* \"#utility.yul\":4947:5049   */\n    tag_61:\n        /* \"#utility.yul\":4989:4997   */\n      0x00\n        /* \"#utility.yul\":5036:5041   */\n      dup2\n        /* \"#utility.yul\":5033:5034   */\n      0x01\n        /* \"#utility.yul\":5029:5042   */\n      shr\n        /* \"#utility.yul\":5008:5042   */\n      swap1\n      pop\n        /* \"#utility.yul\":4947:5049   */\n      swap2\n      swap1\n      pop\n      jump\t// out\n        /* \"#utility.yul\":5055:5903   */\n    tag_62:\n        /* \"#utility.yul\":5116:5121   */\n      0x00\n        /* \"#utility.yul\":5123:5127   */\n      0x00\n        /* \"#utility.yul\":5147:5153   */\n      dup3\n        /* \"#utility.yul\":5138:5153   */\n      swap2\n      pop\n        /* \"#utility.yul\":5171:5176   */\n      dup4\n        /* \"#utility.yul\":5162:5176   */\n      swap1\n      pop\n        /* \"#utility.yul\":5185:5897   */\n    tag_108:\n        /* \"#utility.yul\":5206:5207   */\n      0x01\n        /* \"#utility.yul\":5196:5204   */\n      dup6\n        /* \"#utility.yul\":5193:5208   */\n      gt\n        /* \"#utility.yul\":5185:5897   */\n      iszero\n      tag_110\n      jumpi\n        /* \"#utility.yul\":5301:5305   */\n      dup1\n        /* \"#utility.yul\":5296:5299   */\n      dup7\n        /* \"#utility.yul\":5292:5306   */\n      div\n        /* \"#utility.yul\":5286:5290   */\n      dup2\n        /* \"#utility.yul\":5283:5307   */\n      gt\n        /* \"#utility.yul\":5280:5330   */\n      iszero\n      tag_111\n      jumpi\n        /* \"#utility.yul\":5310:5328   */\n      tag_112\n      tag_60\n      jump\t// in\n    tag_112:\n        /* \"#utility.yul\":5280:5330   */\n    tag_111:\n        /* \"#utility.yul\":5360:5361   */\n      0x01\n        /* \"#utility.yul\":5350:5358   */\n      dup6\n        /* \"#utility.yul\":5346:5362   */\n      and\n        /* \"#utility.yul\":5343:5794   */\n      iszero\n      tag_113\n      jumpi\n        /* \"#utility.yul\":5775:5779   */\n      dup1\n        /* \"#utility.yul\":5768:5773   */\n      dup3\n        /* \"#utility.yul\":5764:5780   */\n      mul\n        /* \"#utility.yul\":5755:5780   */\n      swap2\n      pop\n        /* \"#utility.yul\":5343:5794   */\n    tag_113:\n        /* \"#utility.yul\":5825:5829   */\n      dup1\n        /* \"#utility.yul\":5819:5823   */\n      dup2\n        /* \"#utility.yul\":5815:5830   */\n      mul\n        /* \"#utility.yul\":5807:5830   */\n      swap1\n      pop\n        /* \"#utility.yul\":5855:5887   */\n      tag_114\n        /* \"#utility.yul\":5878:5886   */\n      dup6\n        /* \"#utility.yul\":5855:5887   */\n      tag_61\n      jump\t// in\n    tag_114:\n        /* \"#utility.yul\":5843:5887   */\n      swap5\n      pop\n        /* \"#utility.yul\":5185:5897   */\n      jump(tag_108)\n    tag_110:\n        /* \"#utility.yul\":5055:5903   */\n      swap5\n      pop\n      swap5\n      swap3\n      pop\n      pop\n      pop\n      jump\t// out\n        /* \"#utility.yul\":5909:6982   */\n    tag_63:\n        /* \"#utility.yul\":5963:5968   */\n      0x00\n        /* \"#utility.yul\":6154:6162   */\n      dup3\n        /* \"#utility.yul\":6144:6184   */\n      tag_116\n      jumpi\n        /* \"#utility.yul\":6175:6176   */\n      0x01\n        /* \"#utility.yul\":6166:6176   */\n      swap1\n      pop\n        /* \"#utility.yul\":6177:6182   */\n      jump(tag_115)\n        /* \"#utility.yul\":6144:6184   */\n    tag_116:\n        /* \"#utility.yul\":6203:6207   */\n      dup2\n        /* \"#utility.yul\":6193:6229   */\n      tag_117\n      jumpi\n        /* \"#utility.yul\":6220:6221   */\n      0x00\n        /* \"#utility.yul\":6211:6221   */\n      swap1\n      pop\n        /* \"#utility.yul\":6222:6227   */\n      jump(tag_115)\n        /* \"#utility.yul\":6193:6229   */\n    tag_117:\n        /* \"#utility.yul\":6289:6293   */\n      dup2\n        /* \"#utility.yul\":6337:6338   */\n      0x01\n        /* \"#utility.yul\":6332:6359   */\n      dup2\n      eq\n      tag_119\n      jumpi\n        /* \"#utility.yul\":6373:6374   */\n      0x02\n        /* \"#utility.yul\":6368:6559   */\n      dup2\n      eq\n      tag_120\n      jumpi\n        /* \"#utility.yul\":6282:6559   */\n      jump(tag_118)\n        /* \"#utility.yul\":6332:6359   */\n    tag_119:\n        /* \"#utility.yul\":6350:6351   */\n      0x01\n        /* \"#utility.yul\":6341:6351   */\n      swap2\n      pop\n        /* \"#utility.yul\":6352:6357   */\n      pop\n      jump(tag_115)\n        /* \"#utility.yul\":6368:6559   */\n    tag_120:\n        /* \"#utility.yul\":6413:6416   */\n      0xff\n        /* \"#utility.yul\":6403:6411   */\n      dup5\n        /* \"#utility.yul\":6400:6417   */\n      gt\n        /* \"#utility.yul\":6397:6440   */\n      iszero\n      tag_121\n      jumpi\n        /* \"#utility.yul\":6420:6438   */\n      tag_122\n      tag_60\n      jump\t// in\n    tag_122:\n        /* \"#utility.yul\":6397:6440   */\n    tag_121:\n        /* \"#utility.yul\":6469:6477   */\n      dup4\n        /* \"#utility.yul\":6466:6467   */\n      0x02\n        /* \"#utility.yul\":6462:6478   */\n      exp\n        /* \"#utility.yul\":6453:6478   */\n      swap2\n      pop\n        /* \"#utility.yul\":6504:6507   */\n      dup5\n        /* \"#utility.yul\":6497:6502   */\n      dup3\n        /* \"#utility.yul\":6494:6508   */\n      gt\n        /* \"#utility.yul\":6491:6531   */\n      iszero\n      tag_123\n      jumpi\n        /* \"#utility.yul\":6511:6529   */\n      tag_124\n      tag_60\n      jump\t// in\n    tag_124:\n        /* \"#utility.yul\":6491:6531   */\n    tag_123:\n        /* \"#utility.yul\":6544:6549   */\n      pop\n      jump(tag_115)\n        /* \"#utility.yul\":6282:6559   */\n    tag_118:\n      pop\n        /* \"#utility.yul\":6668:6670   */\n      0x20\n        /* \"#utility.yul\":6658:6666   */\n      dup4\n        /* \"#utility.yul\":6655:6671   */\n      lt\n        /* \"#utility.yul\":6649:6652   */\n      0x0133\n        /* \"#utility.yul\":6643:6647   */\n      dup4\n        /* \"#utility.yul\":6640:6653   */\n      lt\n        /* \"#utility.yul\":6636:6672   */\n      and\n        /* \"#utility.yul\":6618:6620   */\n      0x4e\n        /* \"#utility.yul\":6608:6616   */\n      dup5\n        /* \"#utility.yul\":6605:6621   */\n      lt\n        /* \"#utility.yul\":6600:6602   */\n      0x0b\n        /* \"#utility.yul\":6594:6598   */\n      dup5\n        /* \"#utility.yul\":6591:6603   */\n      lt\n        /* \"#utility.yul\":6587:6622   */\n      and\n        /* \"#utility.yul\":6571:6682   */\n      or\n        /* \"#utility.yul\":6568:6814   */\n      iszero\n      tag_125\n      jumpi\n        /* \"#utility.yul\":6724:6732   */\n      dup3\n        /* \"#utility.yul\":6718:6722   */\n      dup3\n        /* \"#utility.yul\":6714:6733   */\n      exp\n        /* \"#utility.yul\":6705:6733   */\n      swap1\n      pop\n        /* \"#utility.yul\":6759:6762   */\n      dup4\n        /* \"#utility.yul\":6752:6757   */\n      dup2\n        /* \"#utility.yul\":6749:6763   */\n      gt\n        /* \"#utility.yul\":6746:6786   */\n      iszero\n      tag_126\n      jumpi\n        /* \"#utility.yul\":6766:6784   */\n      tag_127\n      tag_60\n      jump\t// in\n    tag_127:\n        /* \"#utility.yul\":6746:6786   */\n    tag_126:\n        /* \"#utility.yul\":6799:6804   */\n      jump(tag_115)\n        /* \"#utility.yul\":6568:6814   */\n    tag_125:\n        /* \"#utility.yul\":6839:6881   */\n      tag_128\n        /* \"#utility.yul\":6877:6880   */\n      dup5\n        /* \"#utility.yul\":6867:6875   */\n      dup5\n        /* \"#utility.yul\":6861:6865   */\n      dup5\n        /* \"#utility.yul\":6858:6859   */\n      0x01\n        /* \"#utility.yul\":6839:6881   */\n      tag_62\n      jump\t// in\n    tag_128:\n        /* \"#utility.yul\":6824:6881   */\n      swap3\n      pop\n      swap1\n      pop\n        /* \"#utility.yul\":6913:6917   */\n      dup2\n        /* \"#utility.yul\":6908:6911   */\n      dup5\n        /* \"#utility.yul\":6904:6918   */\n      div\n        /* \"#utility.yul\":6897:6902   */\n      dup2\n        /* \"#utility.yul\":6894:6919   */\n      gt\n        /* \"#utility.yul\":6891:6942   */\n      iszero\n      tag_129\n      jumpi\n        /* \"#utility.yul\":6922:6940   */\n      tag_130\n      tag_60\n      jump\t// in\n    tag_130:\n        /* \"#utility.yul\":6891:6942   */\n    tag_129:\n        /* \"#utility.yul\":6971:6975   */\n      dup2\n        /* \"#utility.yul\":6964:6969   */\n      dup2\n        /* \"#utility.yul\":6960:6976   */\n      mul\n        /* \"#utility.yul\":6951:6976   */\n      swap1\n      pop\n        /* \"#utility.yul\":5909:6982   */\n    tag_115:\n      swap4\n      swap3\n      pop\n      pop\n      pop\n      jump\t// out\n        /* \"#utility.yul\":6988:7269   */\n    tag_41:\n        /* \"#utility.yul\":7046:7051   */\n      0x00\n        /* \"#utility.yul\":7070:7093   */\n      tag_132\n        /* \"#utility.yul\":7088:7092   */\n      dup3\n        /* \"#utility.yul\":7070:7093   */\n      tag_55\n      jump\t// in\n    tag_132:\n        /* \"#utility.yul\":7062:7093   */\n      swap2\n      pop\n        /* \"#utility.yul\":7114:7139   */\n      tag_133\n        /* \"#utility.yul\":7130:7138   */\n      dup4\n        /* \"#utility.yul\":7114:7139   */\n      tag_53\n      jump\t// in\n    tag_133:\n        /* \"#utility.yul\":7102:7139   */\n      swap3\n      pop\n        /* \"#utility.yul\":7158:7262   */\n      tag_134\n        /* \"#utility.yul\":7195:7261   */\n      0xffffffffffffffffffffffffffffffffffffffffffffffffffffffffffffffff\n        /* \"#utility.yul\":7185:7193   */\n      dup5\n        /* \"#utility.yul\":7179:7183   */\n      dup5\n        /* \"#utility.yul\":7158:7262   */\n      tag_63\n      jump\t// in\n    tag_134:\n        /* \"#utility.yul\":7149:7262   */\n      swap1\n      pop\n        /* \"#utility.yul\":6988:7269   */\n      swap3\n      swap2\n      pop\n      pop\n      jump\t// out\n        /* \"#utility.yul\":7275:7685   */\n    tag_43:\n        /* \"#utility.yul\":7315:7322   */\n      0x00\n        /* \"#utility.yul\":7338:7358   */\n      tag_136\n        /* \"#utility.yul\":7356:7357   */\n      dup3\n        /* \"#utility.yul\":7338:7358   */\n      tag_55\n      jump\t// in\n    tag_136:\n        /* \"#utility.yul\":7333:7358   */\n      swap2\n      pop\n        /* \"#utility.yul\":7372:7392   */\n      tag_137\n        /* \"#utility.yul\":7390:7391   */\n      dup4\n        /* \"#utility.yul\":7372:7392   */\n      tag_55\n      jump\t// in\n    tag_137:\n        /* \"#utility.yul\":7367:7392   */\n      swap3\n      pop\n        /* \"#utility.yul\":7427:7428   */\n      dup3\n        /* \"#utility.yul\":7424:7425   */\n      dup3\n        /* \"#utility.yul\":7420:7429   */\n      mul\n        /* \"#utility.yul\":7449:7479   */\n      tag_138\n        /* \"#utility.yul\":7467:7478   */\n      dup2\n        /* \"#utility.yul\":7449:7479   */\n      tag_55\n      jump\t// in\n    tag_138:\n        /* \"#utility.yul\":7438:7479   */\n      swap2\n      pop\n        /* \"#utility.yul\":7628:7629   */\n      dup3\n        /* \"#utility.yul\":7619:7626   */\n      dup3\n        /* \"#utility.yul\":7615:7630   */\n      div\n        /* \"#utility.yul\":7612:7613   */\n      dup5\n        /* \"#utility.yul\":7609:7631   */\n      eq\n        /* \"#utility.yul\":7589:7590   */\n      dup4\n        /* \"#utility.yul\":7582:7591   */\n      iszero\n        /* \"#utility.yul\":7562:7645   */\n      or\n        /* \"#utility.yul\":7539:7678   */\n      tag_139\n      jumpi\n        /* \"#utility.yul\":7658:7676   */\n      tag_140\n      tag_60\n      jump\t// in\n    tag_140:\n        /* \"#utility.yul\":7539:7678   */\n    tag_139:\n        /* \"#utility.yul\":7323:7685   */\n      pop\n        /* \"#utility.yul\":7275:7685   */\n      swap3\n      swap2\n      pop\n      pop\n      jump\t// out\n\n    auxdata: 0xa264697066735822122098fc51e27a81a3a0185b9ad15731f405257ef9f01fff42e6e2f4ff728a80b36464736f6c634300081e0033\n}\n",
				"bytecode": {
					"linkReferences": {},
					"object": "6080604052348015600e575f5ffd5b506106d08061001c5f395ff3fe60806040526004361061004d575f3560e01c806318821400146100c85780632a905318146100f25780635b7f415c1461011c578063b152f6cf14610146578063ff6c33e6146101705761008d565b3661008d576040517f08c379a0000000000000000000000000000000000000000000000000000000008152600401610084906102ca565b60405180910390fd5b6040517f08c379a00000000000000000000000000000000000000000000000000000000081526004016100bf90610358565b60405180910390fd5b3480156100d3575f5ffd5b506100dc61019a565b6040516100e991906103d6565b60405180910390f35b3480156100fd575f5ffd5b506101066101d3565b60405161011391906103d6565b60405180910390f35b348015610127575f5ffd5b5061013061020c565b60405161013d9190610411565b60405180910390f35b348015610151575f5ffd5b5061015a610211565b6040516101679190610442565b60405180910390f35b34801561017b575f5ffd5b50610184610232565b604051610191919061049a565b60405180910390f35b6040518060400160405280600c81526020017f594b5072696d652042617365000000000000000000000000000000000000000081525081565b6040518060400160405280600781526020017f594b50424153450000000000000000000000000000000000000000000000000081525081565b600481565b6004600a61021f919061060f565b640ba43b740061022f9190610659565b81565b730b81337f18767565d2ea40913799317a25dc4bc581565b5f82825260208201905092915050565b7f446f206e6f742073656e6420455448206469726563746c7920746f20746869735f8201527f20636f6e74726163740000000000000000000000000000000000000000000000602082015250565b5f6102b460298361024a565b91506102bf8261025a565b604082019050919050565b5f6020820190508181035f8301526102e1816102a8565b9050919050565b7f5468697320636f6e7472616374206973206c6f676963206f6e6c792c2063616c5f8201527f6c207468726f7567682050726f78790000000000000000000000000000000000602082015250565b5f610342602f8361024a565b915061034d826102e8565b604082019050919050565b5f6020820190508181035f83015261036f81610336565b9050919050565b5f81519050919050565b8281835e5f83830152505050565b5f601f19601f8301169050919050565b5f6103a882610376565b6103b2818561024a565b93506103c2818560208601610380565b6103cb8161038e565b840191505092915050565b5f6020820190508181035f8301526103ee818461039e565b905092915050565b5f60ff82169050919050565b61040b816103f6565b82525050565b5f6020820190506104245f830184610402565b92915050565b5f819050919050565b61043c8161042a565b82525050565b5f6020820190506104555f830184610433565b92915050565b5f73ffffffffffffffffffffffffffffffffffffffff82169050919050565b5f6104848261045b565b9050919050565b6104948161047a565b82525050565b5f6020820190506104ad5f83018461048b565b92915050565b7f4e487b71000000000000000000000000000000000000000000000000000000005f52601160045260245ffd5b5f8160011c9050919050565b5f5f8291508390505b600185111561053557808604811115610511576105106104b3565b5b60018516156105205780820291505b808102905061052e856104e0565b94506104f5565b94509492505050565b5f8261054d5760019050610608565b8161055a575f9050610608565b8160018114610570576002811461057a576105a9565b6001915050610608565b60ff84111561058c5761058b6104b3565b5b8360020a9150848211156105a3576105a26104b3565b5b50610608565b5060208310610133831016604e8410600b84101617156105de5782820a9050838111156105d9576105d86104b3565b5b610608565b6105eb84848460016104ec565b92509050818404811115610602576106016104b3565b5b81810290505b9392505050565b5f6106198261042a565b9150610624836103f6565b92506106517fffffffffffffffffffffffffffffffffffffffffffffffffffffffffffffffff848461053e565b905092915050565b5f6106638261042a565b915061066e8361042a565b925082820261067c8161042a565b91508282048414831517610693576106926104b3565b5b509291505056fea264697066735822122098fc51e27a81a3a0185b9ad15731f405257ef9f01fff42e6e2f4ff728a80b36464736f6c634300081e0033",
					"opcodes": "PUSH1 0x80 PUSH1 0x40 MSTORE CALLVALUE DUP1 ISZERO PUSH1 0xE JUMPI PUSH0 PUSH0 REVERT JUMPDEST POP PUSH2 0x6D0 DUP1 PUSH2 0x1C PUSH0 CODECOPY PUSH0 RETURN INVALID PUSH1 0x80 PUSH1 0x40 MSTORE PUSH1 0x4 CALLDATASIZE LT PUSH2 0x4D JUMPI PUSH0 CALLDATALOAD PUSH1 0xE0 SHR DUP1 PUSH4 0x18821400 EQ PUSH2 0xC8 JUMPI DUP1 PUSH4 0x2A905318 EQ PUSH2 0xF2 JUMPI DUP1 PUSH4 0x5B7F415C EQ PUSH2 0x11C JUMPI DUP1 PUSH4 0xB152F6CF EQ PUSH2 0x146 JUMPI DUP1 PUSH4 0xFF6C33E6 EQ PUSH2 0x170 JUMPI PUSH2 0x8D JUMP JUMPDEST CALLDATASIZE PUSH2 0x8D JUMPI PUSH1 0x40 MLOAD PUSH32 0x8C379A000000000000000000000000000000000000000000000000000000000 DUP2 MSTORE PUSH1 0x4 ADD PUSH2 0x84 SWAP1 PUSH2 0x2CA JUMP JUMPDEST PUSH1 0x40 MLOAD DUP1 SWAP2 SUB SWAP1 REVERT JUMPDEST PUSH1 0x40 MLOAD PUSH32 0x8C379A000000000000000000000000000000000000000000000000000000000 DUP2 MSTORE PUSH1 0x4 ADD PUSH2 0xBF SWAP1 PUSH2 0x358 JUMP JUMPDEST PUSH1 0x40 MLOAD DUP1 SWAP2 SUB SWAP1 REVERT JUMPDEST CALLVALUE DUP1 ISZERO PUSH2 0xD3 JUMPI PUSH0 PUSH0 REVERT JUMPDEST POP PUSH2 0xDC PUSH2 0x19A JUMP JUMPDEST PUSH1 0x40 MLOAD PUSH2 0xE9 SWAP2 SWAP1 PUSH2 0x3D6 JUMP JUMPDEST PUSH1 0x40 MLOAD DUP1 SWAP2 SUB SWAP1 RETURN JUMPDEST CALLVALUE DUP1 ISZERO PUSH2 0xFD JUMPI PUSH0 PUSH0 REVERT JUMPDEST POP PUSH2 0x106 PUSH2 0x1D3 JUMP JUMPDEST PUSH1 0x40 MLOAD PUSH2 0x113 SWAP2 SWAP1 PUSH2 0x3D6 JUMP JUMPDEST PUSH1 0x40 MLOAD DUP1 SWAP2 SUB SWAP1 RETURN JUMPDEST CALLVALUE DUP1 ISZERO PUSH2 0x127 JUMPI PUSH0 PUSH0 REVERT JUMPDEST POP PUSH2 0x130 PUSH2 0x20C JUMP JUMPDEST PUSH1 0x40 MLOAD PUSH2 0x13D SWAP2 SWAP1 PUSH2 0x411 JUMP JUMPDEST PUSH1 0x40 MLOAD DUP1 SWAP2 SUB SWAP1 RETURN JUMPDEST CALLVALUE DUP1 ISZERO PUSH2 0x151 JUMPI PUSH0 PUSH0 REVERT JUMPDEST POP PUSH2 0x15A PUSH2 0x211 JUMP JUMPDEST PUSH1 0x40 MLOAD PUSH2 0x167 SWAP2 SWAP1 PUSH2 0x442 JUMP JUMPDEST PUSH1 0x40 MLOAD DUP1 SWAP2 SUB SWAP1 RETURN JUMPDEST CALLVALUE DUP1 ISZERO PUSH2 0x17B JUMPI PUSH0 PUSH0 REVERT JUMPDEST POP PUSH2 0x184 PUSH2 0x232 JUMP JUMPDEST PUSH1 0x40 MLOAD PUSH2 0x191 SWAP2 SWAP1 PUSH2 0x49A JUMP JUMPDEST PUSH1 0x40 MLOAD DUP1 SWAP2 SUB SWAP1 RETURN JUMPDEST PUSH1 0x40 MLOAD DUP1 PUSH1 0x40 ADD PUSH1 0x40 MSTORE DUP1 PUSH1 0xC DUP2 MSTORE PUSH1 0x20 ADD PUSH32 0x594B5072696D6520426173650000000000000000000000000000000000000000 DUP2 MSTORE POP DUP2 JUMP JUMPDEST PUSH1 0x40 MLOAD DUP1 PUSH1 0x40 ADD PUSH1 0x40 MSTORE DUP1 PUSH1 0x7 DUP2 MSTORE PUSH1 0x20 ADD PUSH32 0x594B504241534500000000000000000000000000000000000000000000000000 DUP2 MSTORE POP DUP2 JUMP JUMPDEST PUSH1 0x4 DUP2 JUMP JUMPDEST PUSH1 0x4 PUSH1 0xA PUSH2 0x21F SWAP2 SWAP1 PUSH2 0x60F JUMP JUMPDEST PUSH5 0xBA43B7400 PUSH2 0x22F SWAP2 SWAP1 PUSH2 0x659 JUMP JUMPDEST DUP2 JUMP JUMPDEST PUSH20 0xB81337F18767565D2EA40913799317A25DC4BC5 DUP2 JUMP JUMPDEST PUSH0 DUP3 DUP3 MSTORE PUSH1 0x20 DUP3 ADD SWAP1 POP SWAP3 SWAP2 POP POP JUMP JUMPDEST PUSH32 0x446F206E6F742073656E6420455448206469726563746C7920746F2074686973 PUSH0 DUP3 ADD MSTORE PUSH32 0x20636F6E74726163740000000000000000000000000000000000000000000000 PUSH1 0x20 DUP3 ADD MSTORE POP JUMP JUMPDEST PUSH0 PUSH2 0x2B4 PUSH1 0x29 DUP4 PUSH2 0x24A JUMP JUMPDEST SWAP2 POP PUSH2 0x2BF DUP3 PUSH2 0x25A JUMP JUMPDEST PUSH1 0x40 DUP3 ADD SWAP1 POP SWAP2 SWAP1 POP JUMP JUMPDEST PUSH0 PUSH1 0x20 DUP3 ADD SWAP1 POP DUP2 DUP2 SUB PUSH0 DUP4 ADD MSTORE PUSH2 0x2E1 DUP2 PUSH2 0x2A8 JUMP JUMPDEST SWAP1 POP SWAP2 SWAP1 POP JUMP JUMPDEST PUSH32 0x5468697320636F6E7472616374206973206C6F676963206F6E6C792C2063616C PUSH0 DUP3 ADD MSTORE PUSH32 0x6C207468726F7567682050726F78790000000000000000000000000000000000 PUSH1 0x20 DUP3 ADD MSTORE POP JUMP JUMPDEST PUSH0 PUSH2 0x342 PUSH1 0x2F DUP4 PUSH2 0x24A JUMP JUMPDEST SWAP2 POP PUSH2 0x34D DUP3 PUSH2 0x2E8 JUMP JUMPDEST PUSH1 0x40 DUP3 ADD SWAP1 POP SWAP2 SWAP1 POP JUMP JUMPDEST PUSH0 PUSH1 0x20 DUP3 ADD SWAP1 POP DUP2 DUP2 SUB PUSH0 DUP4 ADD MSTORE PUSH2 0x36F DUP2 PUSH2 0x336 JUMP JUMPDEST SWAP1 POP SWAP2 SWAP1 POP JUMP JUMPDEST PUSH0 DUP2 MLOAD SWAP1 POP SWAP2 SWAP1 POP JUMP JUMPDEST DUP3 DUP2 DUP4 MCOPY PUSH0 DUP4 DUP4 ADD MSTORE POP POP POP JUMP JUMPDEST PUSH0 PUSH1 0x1F NOT PUSH1 0x1F DUP4 ADD AND SWAP1 POP SWAP2 SWAP1 POP JUMP JUMPDEST PUSH0 PUSH2 0x3A8 DUP3 PUSH2 0x376 JUMP JUMPDEST PUSH2 0x3B2 DUP2 DUP6 PUSH2 0x24A JUMP JUMPDEST SWAP4 POP PUSH2 0x3C2 DUP2 DUP6 PUSH1 0x20 DUP7 ADD PUSH2 0x380 JUMP JUMPDEST PUSH2 0x3CB DUP2 PUSH2 0x38E JUMP JUMPDEST DUP5 ADD SWAP2 POP POP SWAP3 SWAP2 POP POP JUMP JUMPDEST PUSH0 PUSH1 0x20 DUP3 ADD SWAP1 POP DUP2 DUP2 SUB PUSH0 DUP4 ADD MSTORE PUSH2 0x3EE DUP2 DUP5 PUSH2 0x39E JUMP JUMPDEST SWAP1 POP SWAP3 SWAP2 POP POP JUMP JUMPDEST PUSH0 PUSH1 0xFF DUP3 AND SWAP1 POP SWAP2 SWAP1 POP JUMP JUMPDEST PUSH2 0x40B DUP2 PUSH2 0x3F6 JUMP JUMPDEST DUP3 MSTORE POP POP JUMP JUMPDEST PUSH0 PUSH1 0x20 DUP3 ADD SWAP1 POP PUSH2 0x424 PUSH0 DUP4 ADD DUP5 PUSH2 0x402 JUMP JUMPDEST SWAP3 SWAP2 POP POP JUMP JUMPDEST PUSH0 DUP2 SWAP1 POP SWAP2 SWAP1 POP JUMP JUMPDEST PUSH2 0x43C DUP2 PUSH2 0x42A JUMP JUMPDEST DUP3 MSTORE POP POP JUMP JUMPDEST PUSH0 PUSH1 0x20 DUP3 ADD SWAP1 POP PUSH2 0x455 PUSH0 DUP4 ADD DUP5 PUSH2 0x433 JUMP JUMPDEST SWAP3 SWAP2 POP POP JUMP JUMPDEST PUSH0 PUSH20 0xFFFFFFFFFFFFFFFFFFFFFFFFFFFFFFFFFFFFFFFF DUP3 AND SWAP1 POP SWAP2 SWAP1 POP JUMP JUMPDEST PUSH0 PUSH2 0x484 DUP3 PUSH2 0x45B JUMP JUMPDEST SWAP1 POP SWAP2 SWAP1 POP JUMP JUMPDEST PUSH2 0x494 DUP2 PUSH2 0x47A JUMP JUMPDEST DUP3 MSTORE POP POP JUMP JUMPDEST PUSH0 PUSH1 0x20 DUP3 ADD SWAP1 POP PUSH2 0x4AD PUSH0 DUP4 ADD DUP5 PUSH2 0x48B JUMP JUMPDEST SWAP3 SWAP2 POP POP JUMP JUMPDEST PUSH32 0x4E487B7100000000000000000000000000000000000000000000000000000000 PUSH0 MSTORE PUSH1 0x11 PUSH1 0x4 MSTORE PUSH1 0x24 PUSH0 REVERT JUMPDEST PUSH0 DUP2 PUSH1 0x1 SHR SWAP1 POP SWAP2 SWAP1 POP JUMP JUMPDEST PUSH0 PUSH0 DUP3 SWAP2 POP DUP4 SWAP1 POP JUMPDEST PUSH1 0x1 DUP6 GT ISZERO PUSH2 0x535 JUMPI DUP1 DUP7 DIV DUP2 GT ISZERO PUSH2 0x511 JUMPI PUSH2 0x510 PUSH2 0x4B3 JUMP JUMPDEST JUMPDEST PUSH1 0x1 DUP6 AND ISZERO PUSH2 0x520 JUMPI DUP1 DUP3 MUL SWAP2 POP JUMPDEST DUP1 DUP2 MUL SWAP1 POP PUSH2 0x52E DUP6 PUSH2 0x4E0 JUMP JUMPDEST SWAP5 POP PUSH2 0x4F5 JUMP JUMPDEST SWAP5 POP SWAP5 SWAP3 POP POP POP JUMP JUMPDEST PUSH0 DUP3 PUSH2 0x54D JUMPI PUSH1 0x1 SWAP1 POP PUSH2 0x608 JUMP JUMPDEST DUP2 PUSH2 0x55A JUMPI PUSH0 SWAP1 POP PUSH2 0x608 JUMP JUMPDEST DUP2 PUSH1 0x1 DUP2 EQ PUSH2 0x570 JUMPI PUSH1 0x2 DUP2 EQ PUSH2 0x57A JUMPI PUSH2 0x5A9 JUMP JUMPDEST PUSH1 0x1 SWAP2 POP POP PUSH2 0x608 JUMP JUMPDEST PUSH1 0xFF DUP5 GT ISZERO PUSH2 0x58C JUMPI PUSH2 0x58B PUSH2 0x4B3 JUMP JUMPDEST JUMPDEST DUP4 PUSH1 0x2 EXP SWAP2 POP DUP5 DUP3 GT ISZERO PUSH2 0x5A3 JUMPI PUSH2 0x5A2 PUSH2 0x4B3 JUMP JUMPDEST JUMPDEST POP PUSH2 0x608 JUMP JUMPDEST POP PUSH1 0x20 DUP4 LT PUSH2 0x133 DUP4 LT AND PUSH1 0x4E DUP5 LT PUSH1 0xB DUP5 LT AND OR ISZERO PUSH2 0x5DE JUMPI DUP3 DUP3 EXP SWAP1 POP DUP4 DUP2 GT ISZERO PUSH2 0x5D9 JUMPI PUSH2 0x5D8 PUSH2 0x4B3 JUMP JUMPDEST JUMPDEST PUSH2 0x608 JUMP JUMPDEST PUSH2 0x5EB DUP5 DUP5 DUP5 PUSH1 0x1 PUSH2 0x4EC JUMP JUMPDEST SWAP3 POP SWAP1 POP DUP2 DUP5 DIV DUP2 GT ISZERO PUSH2 0x602 JUMPI PUSH2 0x601 PUSH2 0x4B3 JUMP JUMPDEST JUMPDEST DUP2 DUP2 MUL SWAP1 POP JUMPDEST SWAP4 SWAP3 POP POP POP JUMP JUMPDEST PUSH0 PUSH2 0x619 DUP3 PUSH2 0x42A JUMP JUMPDEST SWAP2 POP PUSH2 0x624 DUP4 PUSH2 0x3F6 JUMP JUMPDEST SWAP3 POP PUSH2 0x651 PUSH32 0xFFFFFFFFFFFFFFFFFFFFFFFFFFFFFFFFFFFFFFFFFFFFFFFFFFFFFFFFFFFFFFFF DUP5 DUP5 PUSH2 0x53E JUMP JUMPDEST SWAP1 POP SWAP3 SWAP2 POP POP JUMP JUMPDEST PUSH0 PUSH2 0x663 DUP3 PUSH2 0x42A JUMP JUMPDEST SWAP2 POP PUSH2 0x66E DUP4 PUSH2 0x42A JUMP JUMPDEST SWAP3 POP DUP3 DUP3 MUL PUSH2 0x67C DUP2 PUSH2 0x42A JUMP JUMPDEST SWAP2 POP DUP3 DUP3 DIV DUP5 EQ DUP4 ISZERO OR PUSH2 0x693 JUMPI PUSH2 0x692 PUSH2 0x4B3 JUMP JUMPDEST JUMPDEST POP SWAP3 SWAP2 POP POP JUMP INVALID LOG2 PUSH5 0x6970667358 0x22 SLT KECCAK256 SWAP9 0xFC MLOAD 0xE2 PUSH27 0x81A3A0185B9AD15731F405257EF9F01FFF42E6E2F4FF728A80B364 PUSH5 0x736F6C6343 STOP ADDMOD 0x1E STOP CALLER "
				},
				"gasEstimates": {
					"creation": {
						"codeDepositCost": "348800",
						"executionCost": "384",
						"totalCost": "349184"
					},
					"external": {
						"": "484",
						"TOKEN_DECIMALS()": "353",
						"TOKEN_NAME()": "infinite",
						"TOKEN_OWNER()": "439",
						"TOKEN_SUPPLY()": "infinite",
						"TOKEN_SYMBOL()": "infinite"
					}
				},
				"methodIdentifiers": {
					"TOKEN_DECIMALS()": "5b7f415c",
					"TOKEN_NAME()": "18821400",
					"TOKEN_OWNER()": "ff6c33e6",
					"TOKEN_SUPPLY()": "b152f6cf",
					"TOKEN_SYMBOL()": "2a905318"
				}
			},
			"storageLayout": {
				"storage": [],
				"types": null
			},
			"userdoc": {
				"kind": "user",
				"methods": {},
				"notice": "Lógica fixa do token (não pode ser alterada)",
				"version": 1
			}
		}
	}
}