{
	"ifb-new.sol": {
		"IFBCoin": {
			"abi": [
				{
					"inputs": [],
					"stateMutability": "nonpayable",
					"type": "constructor"
				},
				{
					"anonymous": false,
					"inputs": [
						{
							"indexed": true,
							"internalType": "address",
							"name": "account",
							"type": "address"
						}
					],
					"name": "AddressBlacklisted",
					"type": "event"
				},
				{
					"anonymous": false,
					"inputs": [
						{
							"indexed": true,
							"internalType": "address",
							"name": "account",
							"type": "address"
						}
					],
					"name": "AddressUnblacklisted",
					"type": "event"
				},
				{
					"anonymous": false,
					"inputs": [
						{
							"indexed": true,
							"internalType": "address",
							"name": "previousOwner",
							"type": "address"
						},
						{
							"indexed": true,
							"internalType": "address",
							"name": "newOwner",
							"type": "address"
						}
					],
					"name": "OwnershipTransferred",
					"type": "event"
				},
				{
					"anonymous": false,
					"inputs": [
						{
							"indexed": false,
							"internalType": "address",
							"name": "account",
							"type": "address"
						}
					],
					"name": "Paused",
					"type": "event"
				},
				{
					"anonymous": false,
					"inputs": [
						{
							"indexed": true,
							"internalType": "address",
							"name": "from",
							"type": "address"
						},
						{
							"indexed": false,
							"internalType": "uint256",
							"name": "amountProjects",
							"type": "uint256"
						},
						{
							"indexed": false,
							"internalType": "uint256",
							"name": "amountOperations",
							"type": "uint256"
						}
					],
					"name": "TaxSocialApplied",
					"type": "event"
				},
				{
					"anonymous": false,
					"inputs": [
						{
							"indexed": false,
							"internalType": "uint256",
							"name": "amount",
							"type": "uint256"
						}
					],
					"name": "TokensBurned",
					"type": "event"
				},
				{
					"anonymous": false,
					"inputs": [
						{
							"indexed": false,
							"internalType": "address",
							"name": "account",
							"type": "address"
						}
					],
					"name": "Unpaused",
					"type": "event"
				},
				{
					"inputs": [],
					"name": "TOKEN_DECIMALS",
					"outputs": [
						{
							"internalType": "uint8",
							"name": "",
							"type": "uint8"
						}
					],
					"stateMutability": "view",
					"type": "function"
				},
				{
					"inputs": [],
					"name": "TOKEN_NAME",
					"outputs": [
						{
							"internalType": "string",
							"name": "",
							"type": "string"
						}
					],
					"stateMutability": "view",
					"type": "function"
				},
				{
					"inputs": [],
					"name": "TOKEN_SYMBOL",
					"outputs": [
						{
							"internalType": "string",
							"name": "",
							"type": "string"
						}
					],
					"stateMutability": "view",
					"type": "function"
				},
				{
					"inputs": [
						{
							"internalType": "address",
							"name": "owner",
							"type": "address"
						},
						{
							"internalType": "address",
							"name": "spender",
							"type": "address"
						}
					],
					"name": "allowance",
					"outputs": [
						{
							"internalType": "uint256",
							"name": "",
							"type": "uint256"
						}
					],
					"stateMutability": "view",
					"type": "function"
				},
				{
					"inputs": [
						{
							"internalType": "address",
							"name": "spender",
							"type": "address"
						},
						{
							"internalType": "uint256",
							"name": "amount",
							"type": "uint256"
						}
					],
					"name": "approve",
					"outputs": [
						{
							"internalType": "bool",
							"name": "",
							"type": "bool"
						}
					],
					"stateMutability": "nonpayable",
					"type": "function"
				},
				{
					"inputs": [
						{
							"internalType": "address",
							"name": "account",
							"type": "address"
						}
					],
					"name": "balanceOf",
					"outputs": [
						{
							"internalType": "uint256",
							"name": "",
							"type": "uint256"
						}
					],
					"stateMutability": "view",
					"type": "function"
				},
				{
					"inputs": [
						{
							"internalType": "address",
							"name": "account",
							"type": "address"
						}
					],
					"name": "blacklist",
					"outputs": [],
					"stateMutability": "nonpayable",
					"type": "function"
				},
				{
					"inputs": [
						{
							"internalType": "uint256",
							"name": "amount",
							"type": "uint256"
						}
					],
					"name": "burn",
					"outputs": [],
					"stateMutability": "nonpayable",
					"type": "function"
				},
				{
					"inputs": [
						{
							"internalType": "address",
							"name": "account",
							"type": "address"
						},
						{
							"internalType": "uint256",
							"name": "amount",
							"type": "uint256"
						}
					],
					"name": "burnFrom",
					"outputs": [],
					"stateMutability": "nonpayable",
					"type": "function"
				},
				{
					"inputs": [],
					"name": "burnMonthly",
					"outputs": [],
					"stateMutability": "nonpayable",
					"type": "function"
				},
				{
					"inputs": [],
					"name": "decimals",
					"outputs": [
						{
							"internalType": "uint8",
							"name": "",
							"type": "uint8"
						}
					],
					"stateMutability": "view",
					"type": "function"
				},
				{
					"inputs": [],
					"name": "extraBurnTriggerPercent",
					"outputs": [
						{
							"internalType": "uint256",
							"name": "",
							"type": "uint256"
						}
					],
					"stateMutability": "view",
					"type": "function"
				},
				{
					"inputs": [
						{
							"internalType": "address",
							"name": "_projectsWallet",
							"type": "address"
						},
						{
							"internalType": "address",
							"name": "_operationsWallet",
							"type": "address"
						}
					],
					"name": "initialize",
					"outputs": [],
					"stateMutability": "nonpayable",
					"type": "function"
				},
				{
					"inputs": [
						{
							"internalType": "address",
							"name": "",
							"type": "address"
						}
					],
					"name": "isBlacklisted",
					"outputs": [
						{
							"internalType": "bool",
							"name": "",
							"type": "bool"
						}
					],
					"stateMutability": "view",
					"type": "function"
				},
				{
					"inputs": [
						{
							"internalType": "address",
							"name": "",
							"type": "address"
						}
					],
					"name": "isExemptFromLimits",
					"outputs": [
						{
							"internalType": "bool",
							"name": "",
							"type": "bool"
						}
					],
					"stateMutability": "view",
					"type": "function"
				},
				{
					"inputs": [
						{
							"internalType": "address",
							"name": "",
							"type": "address"
						}
					],
					"name": "kycVerified",
					"outputs": [
						{
							"internalType": "bool",
							"name": "",
							"type": "bool"
						}
					],
					"stateMutability": "view",
					"type": "function"
				},
				{
					"inputs": [],
					"name": "maxDailyTransferPercent",
					"outputs": [
						{
							"internalType": "uint256",
							"name": "",
							"type": "uint256"
						}
					],
					"stateMutability": "view",
					"type": "function"
				},
				{
					"inputs": [],
					"name": "maxMonthlyTransferPercent",
					"outputs": [
						{
							"internalType": "uint256",
							"name": "",
							"type": "uint256"
						}
					],
					"stateMutability": "view",
					"type": "function"
				},
				{
					"inputs": [],
					"name": "monthlyBurnPercent",
					"outputs": [
						{
							"internalType": "uint256",
							"name": "",
							"type": "uint256"
						}
					],
					"stateMutability": "view",
					"type": "function"
				},
				{
					"inputs": [],
					"name": "name",
					"outputs": [
						{
							"internalType": "string",
							"name": "",
							"type": "string"
						}
					],
					"stateMutability": "view",
					"type": "function"
				},
				{
					"inputs": [],
					"name": "owner",
					"outputs": [
						{
							"internalType": "address",
							"name": "",
							"type": "address"
						}
					],
					"stateMutability": "view",
					"type": "function"
				},
				{
					"inputs": [],
					"name": "pause",
					"outputs": [],
					"stateMutability": "nonpayable",
					"type": "function"
				},
				{
					"inputs": [],
					"name": "paused",
					"outputs": [
						{
							"internalType": "bool",
							"name": "",
							"type": "bool"
						}
					],
					"stateMutability": "view",
					"type": "function"
				},
				{
					"inputs": [],
					"name": "quorumPercent",
					"outputs": [
						{
							"internalType": "uint256",
							"name": "",
							"type": "uint256"
						}
					],
					"stateMutability": "view",
					"type": "function"
				},
				{
					"inputs": [
						{
							"internalType": "address",
							"name": "account",
							"type": "address"
						},
						{
							"internalType": "bool",
							"name": "exempt",
							"type": "bool"
						}
					],
					"name": "setExemption",
					"outputs": [],
					"stateMutability": "nonpayable",
					"type": "function"
				},
				{
					"inputs": [
						{
							"internalType": "address",
							"name": "account",
							"type": "address"
						},
						{
							"internalType": "bool",
							"name": "verified",
							"type": "bool"
						}
					],
					"name": "setKycStatus",
					"outputs": [],
					"stateMutability": "nonpayable",
					"type": "function"
				},
				{
					"inputs": [
						{
							"internalType": "uint256",
							"name": "newPercent",
							"type": "uint256"
						}
					],
					"name": "setMonthlyBurnPercent",
					"outputs": [],
					"stateMutability": "nonpayable",
					"type": "function"
				},
				{
					"inputs": [
						{
							"internalType": "uint256",
							"name": "newPercent",
							"type": "uint256"
						}
					],
					"name": "setTaxSocialPercent",
					"outputs": [],
					"stateMutability": "nonpayable",
					"type": "function"
				},
				{
					"inputs": [],
					"name": "symbol",
					"outputs": [
						{
							"internalType": "string",
							"name": "",
							"type": "string"
						}
					],
					"stateMutability": "view",
					"type": "function"
				},
				{
					"inputs": [],
					"name": "taxSocialOperationsPercent",
					"outputs": [
						{
							"internalType": "uint256",
							"name": "",
							"type": "uint256"
						}
					],
					"stateMutability": "view",
					"type": "function"
				},
				{
					"inputs": [],
					"name": "taxSocialOperationsWallet",
					"outputs": [
						{
							"internalType": "address",
							"name": "",
							"type": "address"
						}
					],
					"stateMutability": "view",
					"type": "function"
				},
				{
					"inputs": [],
					"name": "taxSocialPercent",
					"outputs": [
						{
							"internalType": "uint256",
							"name": "",
							"type": "uint256"
						}
					],
					"stateMutability": "view",
					"type": "function"
				},
				{
					"inputs": [],
					"name": "taxSocialProjectsPercent",
					"outputs": [
						{
							"internalType": "uint256",
							"name": "",
							"type": "uint256"
						}
					],
					"stateMutability": "view",
					"type": "function"
				},
				{
					"inputs": [],
					"name": "taxSocialProjectsWallet",
					"outputs": [
						{
							"internalType": "address",
							"name": "",
							"type": "address"
						}
					],
					"stateMutability": "view",
					"type": "function"
				},
				{
					"inputs": [],
					"name": "totalSupply",
					"outputs": [
						{
							"internalType": "uint256",
							"name": "",
							"type": "uint256"
						}
					],
					"stateMutability": "view",
					"type": "function"
				},
				{
					"inputs": [
						{
							"internalType": "address",
							"name": "recipient",
							"type": "address"
						},
						{
							"internalType": "uint256",
							"name": "amount",
							"type": "uint256"
						}
					],
					"name": "transfer",
					"outputs": [
						{
							"internalType": "bool",
							"name": "",
							"type": "bool"
						}
					],
					"stateMutability": "nonpayable",
					"type": "function"
				},
				{
					"inputs": [
						{
							"internalType": "address",
							"name": "sender",
							"type": "address"
						},
						{
							"internalType": "address",
							"name": "recipient",
							"type": "address"
						},
						{
							"internalType": "uint256",
							"name": "amount",
							"type": "uint256"
						}
					],
					"name": "transferFrom",
					"outputs": [
						{
							"internalType": "bool",
							"name": "",
							"type": "bool"
						}
					],
					"stateMutability": "nonpayable",
					"type": "function"
				},
				{
					"inputs": [
						{
							"internalType": "address",
							"name": "newOwner",
							"type": "address"
						}
					],
					"name": "transferOwnership",
					"outputs": [],
					"stateMutability": "nonpayable",
					"type": "function"
				},
				{
					"inputs": [
						{
							"internalType": "address",
							"name": "account",
							"type": "address"
						}
					],
					"name": "unblacklist",
					"outputs": [],
					"stateMutability": "nonpayable",
					"type": "function"
				},
				{
					"inputs": [],
					"name": "unpause",
					"outputs": [],
					"stateMutability": "nonpayable",
					"type": "function"
				}
			],
			"devdoc": {
				"kind": "dev",
				"methods": {
					"constructor": {
						"custom:oz-upgrades-unsafe-allow": "constructor"
					}
				},
				"version": 1
			},
			"evm": {
				"assembly": "    /* \"ifb-new.sol\":7640:12103  contract IFBCoin is Initializable, ERC20Upgradeable, ERC20BurnableUpgradeable, PausableUpgradeable, OwnableUpgradeable, UUPSUpgradeable {... */\n  mstore(0x40, 0x80)\n    /* \"ifb-new.sol\":8050:8052  50 */\n  0x32\n    /* \"ifb-new.sol\":8016:8052  uint256 public taxSocialPercent = 50 */\n  0x07\n  sstore\n    /* \"ifb-new.sol\":8101:8103  30 */\n  0x1e\n    /* \"ifb-new.sol\":8059:8103  uint256 public taxSocialProjectsPercent = 30 */\n  0x08\n  sstore\n    /* \"ifb-new.sol\":8154:8156  20 */\n  0x14\n    /* \"ifb-new.sol\":8110:8156  uint256 public taxSocialOperationsPercent = 20 */\n  0x09\n  sstore\n    /* \"ifb-new.sol\":8293:8296  100 */\n  0x64\n    /* \"ifb-new.sol\":8257:8296  uint256 public monthlyBurnPercent = 100 */\n  0x0c\n  sstore\n    /* \"ifb-new.sol\":8344:8348  1500 */\n  0x05dc\n    /* \"ifb-new.sol\":8303:8348  uint256 public extraBurnTriggerPercent = 1500 */\n  0x0d\n  sstore\n    /* \"ifb-new.sol\":8398:8403  1_000 */\n  0x03e8\n    /* \"ifb-new.sol\":8357:8403  uint256 public maxDailyTransferPercent = 1_000 */\n  0x0e\n  sstore\n    /* \"ifb-new.sol\":8453:8459  20_000 */\n  0x4e20\n    /* \"ifb-new.sol\":8410:8459  uint256 public maxMonthlyTransferPercent = 20_000 */\n  0x0f\n  sstore\n    /* \"ifb-new.sol\":8556:8559  500 */\n  0x01f4\n    /* \"ifb-new.sol\":8525:8559  uint256 public quorumPercent = 500 */\n  0x11\n  sstore\n    /* \"ifb-new.sol\":8982:9037  constructor() {... */\n  callvalue\n  dup1\n  iszero\n  tag_1\n  jumpi\n  revert(0x00, 0x00)\ntag_1:\n  pop\n    /* \"ifb-new.sol\":9007:9029  _disableInitializers() */\n  tag_4\n    /* \"ifb-new.sol\":9007:9027  _disableInitializers */\n  shl(0x20, tag_5)\n    /* \"ifb-new.sol\":9007:9029  _disableInitializers() */\n  0x20\n  shr\n  jump\t// in\ntag_4:\n    /* \"ifb-new.sol\":7640:12103  contract IFBCoin is Initializable, ERC20Upgradeable, ERC20BurnableUpgradeable, PausableUpgradeable, OwnableUpgradeable, UUPSUpgradeable {... */\n  jump(tag_6)\n    /* \"ifb-new.sol\":861:948  function _disableInitializers() internal virtual {... */\ntag_5:\n    /* \"ifb-new.sol\":936:940  true */\n  0x01\n    /* \"ifb-new.sol\":921:933  _initialized */\n  0x00\n  0x00\n    /* \"ifb-new.sol\":921:940  _initialized = true */\n  0x0100\n  exp\n  dup2\n  sload\n  dup2\n  0xff\n  mul\n  not\n  and\n  swap1\n  dup4\n  iszero\n  iszero\n  mul\n  or\n  swap1\n  sstore\n  pop\n    /* \"ifb-new.sol\":861:948  function _disableInitializers() internal virtual {... */\n  jump\t// out\n    /* \"ifb-new.sol\":7640:12103  contract IFBCoin is Initializable, ERC20Upgradeable, ERC20BurnableUpgradeable, PausableUpgradeable, OwnableUpgradeable, UUPSUpgradeable {... */\ntag_6:\n  dataSize(sub_0)\n  dup1\n  dataOffset(sub_0)\n  0x00\n  codecopy\n  0x00\n  return\nstop\n\nsub_0: assembly {\n        /* \"ifb-new.sol\":7640:12103  contract IFBCoin is Initializable, ERC20Upgradeable, ERC20BurnableUpgradeable, PausableUpgradeable, OwnableUpgradeable, UUPSUpgradeable {... */\n      mstore(0x40, 0x80)\n      callvalue\n      dup1\n      iszero\n      tag_1\n      jumpi\n      revert(0x00, 0x00)\n    tag_1:\n      pop\n      jumpi(tag_2, lt(calldatasize, 0x04))\n      shr(0xe0, calldataload(0x00))\n      dup1\n      0x75e3661e\n      gt\n      tag_43\n      jumpi\n      dup1\n      0xa9059cbb\n      gt\n      tag_44\n      jumpi\n      dup1\n      0xf2fde38b\n      gt\n      tag_45\n      jumpi\n      dup1\n      0xf2fde38b\n      eq\n      tag_38\n      jumpi\n      dup1\n      0xf81cbd26\n      eq\n      tag_39\n      jumpi\n      dup1\n      0xf9f92be4\n      eq\n      tag_40\n      jumpi\n      dup1\n      0xfdb97901\n      eq\n      tag_41\n      jumpi\n      dup1\n      0xfe575a87\n      eq\n      tag_42\n      jumpi\n      jump(tag_2)\n    tag_45:\n      dup1\n      0xa9059cbb\n      eq\n      tag_33\n      jumpi\n      dup1\n      0xcd2c6a99\n      eq\n      tag_34\n      jumpi\n      dup1\n      0xd8a43b1f\n      eq\n      tag_35\n      jumpi\n      dup1\n      0xdd62ed3e\n      eq\n      tag_36\n      jumpi\n      dup1\n      0xe37a35c7\n      eq\n      tag_37\n      jumpi\n      jump(tag_2)\n    tag_44:\n      dup1\n      0x87b8645c\n      gt\n      tag_46\n      jumpi\n      dup1\n      0x87b8645c\n      eq\n      tag_28\n      jumpi\n      dup1\n      0x8da5cb5b\n      eq\n      tag_29\n      jumpi\n      dup1\n      0x95d89b41\n      eq\n      tag_30\n      jumpi\n      dup1\n      0xa2770731\n      eq\n      tag_31\n      jumpi\n      dup1\n      0xa5410a66\n      eq\n      tag_32\n      jumpi\n      jump(tag_2)\n    tag_46:\n      dup1\n      0x75e3661e\n      eq\n      tag_23\n      jumpi\n      dup1\n      0x79cc6790\n      eq\n      tag_24\n      jumpi\n      dup1\n      0x8456cb59\n      eq\n      tag_25\n      jumpi\n      dup1\n      0x8772e7d5\n      eq\n      tag_26\n      jumpi\n      dup1\n      0x878c7ca8\n      eq\n      tag_27\n      jumpi\n      jump(tag_2)\n    tag_43:\n      dup1\n      0x313ce567\n      gt\n      tag_47\n      jumpi\n      dup1\n      0x485cc955\n      gt\n      tag_48\n      jumpi\n      dup1\n      0x485cc955\n      eq\n      tag_18\n      jumpi\n      dup1\n      0x5b7f415c\n      eq\n      tag_19\n      jumpi\n      dup1\n      0x5c975abb\n      eq\n      tag_20\n      jumpi\n      dup1\n      0x6f5585b8\n      eq\n      tag_21\n      jumpi\n      dup1\n      0x70a08231\n      eq\n      tag_22\n      jumpi\n      jump(tag_2)\n    tag_48:\n      dup1\n      0x313ce567\n      eq\n      tag_13\n      jumpi\n      dup1\n      0x3ea6e071\n      eq\n      tag_14\n      jumpi\n      dup1\n      0x3f4ba83a\n      eq\n      tag_15\n      jumpi\n      dup1\n      0x42966c68\n      eq\n      tag_16\n      jumpi\n      dup1\n      0x4365d0fb\n      eq\n      tag_17\n      jumpi\n      jump(tag_2)\n    tag_47:\n      dup1\n      0x1a04a795\n      gt\n      tag_49\n      jumpi\n      dup1\n      0x1a04a795\n      eq\n      tag_8\n      jumpi\n      dup1\n      0x237bd28f\n      eq\n      tag_9\n      jumpi\n      dup1\n      0x23b872dd\n      eq\n      tag_10\n      jumpi\n      dup1\n      0x2a905318\n      eq\n      tag_11\n      jumpi\n      dup1\n      0x3005cb05\n      eq\n      tag_12\n      jumpi\n      jump(tag_2)\n    tag_49:\n      dup1\n      0x06fdde03\n      eq\n      tag_3\n      jumpi\n      dup1\n      0x082664c2\n      eq\n      tag_4\n      jumpi\n      dup1\n      0x095ea7b3\n      eq\n      tag_5\n      jumpi\n      dup1\n      0x18160ddd\n      eq\n      tag_6\n      jumpi\n      dup1\n      0x18821400\n      eq\n      tag_7\n      jumpi\n    tag_2:\n      revert(0x00, 0x00)\n        /* \"ifb-new.sol\":3838:3929  function name() public view virtual returns (string memory) {... */\n    tag_3:\n      tag_50\n      tag_51\n      jump\t// in\n    tag_50:\n      mload(0x40)\n      tag_52\n      swap2\n      swap1\n      tag_53\n      jump\t// in\n    tag_52:\n      mload(0x40)\n      dup1\n      swap2\n      sub\n      swap1\n      return\n        /* \"ifb-new.sol\":8410:8459  uint256 public maxMonthlyTransferPercent = 20_000 */\n    tag_4:\n      tag_54\n      tag_55\n      jump\t// in\n    tag_54:\n      mload(0x40)\n      tag_56\n      swap2\n      swap1\n      tag_57\n      jump\t// in\n    tag_56:\n      mload(0x40)\n      dup1\n      swap2\n      sub\n      swap1\n      return\n        /* \"ifb-new.sol\":4565:4725  function approve(address spender, uint256 amount) public virtual returns (bool) {... */\n    tag_5:\n      tag_58\n      0x04\n      dup1\n      calldatasize\n      sub\n      dup2\n      add\n      swap1\n      tag_59\n      swap2\n      swap1\n      tag_60\n      jump\t// in\n    tag_59:\n      tag_61\n      jump\t// in\n    tag_58:\n      mload(0x40)\n      tag_62\n      swap2\n      swap1\n      tag_63\n      jump\t// in\n    tag_62:\n      mload(0x40)\n      dup1\n      swap2\n      sub\n      swap1\n      return\n        /* \"ifb-new.sol\":4158:4257  function totalSupply() public view virtual returns (uint256) {... */\n    tag_6:\n      tag_64\n      tag_65\n      jump\t// in\n    tag_64:\n      mload(0x40)\n      tag_66\n      swap2\n      swap1\n      tag_57\n      jump\t// in\n    tag_66:\n      mload(0x40)\n      dup1\n      swap2\n      sub\n      swap1\n      return\n        /* \"ifb-new.sol\":7785:7831  string public constant TOKEN_NAME = \"IFB Coin\" */\n    tag_7:\n      tag_67\n      tag_68\n      jump\t// in\n    tag_67:\n      mload(0x40)\n      tag_69\n      swap2\n      swap1\n      tag_53\n      jump\t// in\n    tag_69:\n      mload(0x40)\n      dup1\n      swap2\n      sub\n      swap1\n      return\n        /* \"ifb-new.sol\":8257:8296  uint256 public monthlyBurnPercent = 100 */\n    tag_8:\n      tag_70\n      tag_71\n      jump\t// in\n    tag_70:\n      mload(0x40)\n      tag_72\n      swap2\n      swap1\n      tag_57\n      jump\t// in\n    tag_72:\n      mload(0x40)\n      dup1\n      swap2\n      sub\n      swap1\n      return\n        /* \"ifb-new.sol\":8303:8348  uint256 public extraBurnTriggerPercent = 1500 */\n    tag_9:\n      tag_73\n      tag_74\n      jump\t// in\n    tag_73:\n      mload(0x40)\n      tag_75\n      swap2\n      swap1\n      tag_57\n      jump\t// in\n    tag_75:\n      mload(0x40)\n      dup1\n      swap2\n      sub\n      swap1\n      return\n        /* \"ifb-new.sol\":4883:5328  function transferFrom(address sender, address recipient, uint256 amount) public virtual returns (bool) {... */\n    tag_10:\n      tag_76\n      0x04\n      dup1\n      calldatasize\n      sub\n      dup2\n      add\n      swap1\n      tag_77\n      swap2\n      swap1\n      tag_78\n      jump\t// in\n    tag_77:\n      tag_79\n      jump\t// in\n    tag_76:\n      mload(0x40)\n      tag_80\n      swap2\n      swap1\n      tag_63\n      jump\t// in\n    tag_80:\n      mload(0x40)\n      dup1\n      swap2\n      sub\n      swap1\n      return\n        /* \"ifb-new.sol\":7838:7881  string public constant TOKEN_SYMBOL = \"IFB\" */\n    tag_11:\n      tag_81\n      tag_82\n      jump\t// in\n    tag_81:\n      mload(0x40)\n      tag_83\n      swap2\n      swap1\n      tag_53\n      jump\t// in\n    tag_83:\n      mload(0x40)\n      dup1\n      swap2\n      sub\n      swap1\n      return\n        /* \"ifb-new.sol\":8110:8156  uint256 public taxSocialOperationsPercent = 20 */\n    tag_12:\n      tag_84\n      tag_85\n      jump\t// in\n    tag_84:\n      mload(0x40)\n      tag_86\n      swap2\n      swap1\n      tag_57\n      jump\t// in\n    tag_86:\n      mload(0x40)\n      dup1\n      swap2\n      sub\n      swap1\n      return\n        /* \"ifb-new.sol\":4040:4150  function decimals() public view virtual returns (uint8) {... */\n    tag_13:\n      tag_87\n      tag_88\n      jump\t// in\n    tag_87:\n      mload(0x40)\n      tag_89\n      swap2\n      swap1\n      tag_90\n      jump\t// in\n    tag_89:\n      mload(0x40)\n      dup1\n      swap2\n      sub\n      swap1\n      return\n        /* \"ifb-new.sol\":11847:11971  function setExemption(address account, bool exempt) public onlyOwner {... */\n    tag_14:\n      tag_91\n      0x04\n      dup1\n      calldatasize\n      sub\n      dup2\n      add\n      swap1\n      tag_92\n      swap2\n      swap1\n      tag_93\n      jump\t// in\n    tag_92:\n      tag_94\n      jump\t// in\n    tag_91:\n      stop\n        /* \"ifb-new.sol\":10952:11003  function unpause() public onlyOwner { _unpause(); } */\n    tag_15:\n      tag_95\n      tag_96\n      jump\t// in\n    tag_95:\n      stop\n        /* \"ifb-new.sol\":6947:7038  function burn(uint256 amount) public virtual {... */\n    tag_16:\n      tag_97\n      0x04\n      dup1\n      calldatasize\n      sub\n      dup2\n      add\n      swap1\n      tag_98\n      swap2\n      swap1\n      tag_99\n      jump\t// in\n    tag_98:\n      tag_100\n      jump\t// in\n    tag_97:\n      stop\n        /* \"ifb-new.sol\":8357:8403  uint256 public maxDailyTransferPercent = 1_000 */\n    tag_17:\n      tag_101\n      tag_102\n      jump\t// in\n    tag_101:\n      mload(0x40)\n      tag_103\n      swap2\n      swap1\n      tag_57\n      jump\t// in\n    tag_103:\n      mload(0x40)\n      dup1\n      swap2\n      sub\n      swap1\n      return\n        /* \"ifb-new.sol\":9045:9501  function initialize(address _projectsWallet, address _operationsWallet) public initializer {... */\n    tag_18:\n      tag_104\n      0x04\n      dup1\n      calldatasize\n      sub\n      dup2\n      add\n      swap1\n      tag_105\n      swap2\n      swap1\n      tag_106\n      jump\t// in\n    tag_105:\n      tag_107\n      jump\t// in\n    tag_104:\n      stop\n        /* \"ifb-new.sol\":7888:7928  uint8 public constant TOKEN_DECIMALS = 6 */\n    tag_19:\n      tag_108\n      tag_109\n      jump\t// in\n    tag_108:\n      mload(0x40)\n      tag_110\n      swap2\n      swap1\n      tag_90\n      jump\t// in\n    tag_110:\n      mload(0x40)\n      dup1\n      swap2\n      sub\n      swap1\n      return\n        /* \"ifb-new.sol\":2954:3040  function paused() public view virtual returns (bool) {... */\n    tag_20:\n      tag_111\n      tag_112\n      jump\t// in\n    tag_111:\n      mload(0x40)\n      tag_113\n      swap2\n      swap1\n      tag_63\n      jump\t// in\n    tag_113:\n      mload(0x40)\n      dup1\n      swap2\n      sub\n      swap1\n      return\n        /* \"ifb-new.sol\":8163:8201  address public taxSocialProjectsWallet */\n    tag_21:\n      tag_114\n      tag_115\n      jump\t// in\n    tag_114:\n      mload(0x40)\n      tag_116\n      swap2\n      swap1\n      tag_117\n      jump\t// in\n    tag_116:\n      mload(0x40)\n      dup1\n      swap2\n      sub\n      swap1\n      return\n        /* \"ifb-new.sol\":4265:4383  function balanceOf(address account) public view virtual returns (uint256) {... */\n    tag_22:\n      tag_118\n      0x04\n      dup1\n      calldatasize\n      sub\n      dup2\n      add\n      swap1\n      tag_119\n      swap2\n      swap1\n      tag_120\n      jump\t// in\n    tag_119:\n      tag_121\n      jump\t// in\n    tag_118:\n      mload(0x40)\n      tag_122\n      swap2\n      swap1\n      tag_57\n      jump\t// in\n    tag_122:\n      mload(0x40)\n      dup1\n      swap2\n      sub\n      swap1\n      return\n        /* \"ifb-new.sol\":11163:11312  function unblacklist(address account) public onlyOwner {... */\n    tag_23:\n      tag_123\n      0x04\n      dup1\n      calldatasize\n      sub\n      dup2\n      add\n      swap1\n      tag_124\n      swap2\n      swap1\n      tag_120\n      jump\t// in\n    tag_124:\n      tag_125\n      jump\t// in\n    tag_123:\n      stop\n        /* \"ifb-new.sol\":7046:7407  function burnFrom(address account, uint256 amount) public virtual {... */\n    tag_24:\n      tag_126\n      0x04\n      dup1\n      calldatasize\n      sub\n      dup2\n      add\n      swap1\n      tag_127\n      swap2\n      swap1\n      tag_60\n      jump\t// in\n    tag_127:\n      tag_128\n      jump\t// in\n    tag_126:\n      stop\n        /* \"ifb-new.sol\":10899:10946  function pause() public onlyOwner { _pause(); } */\n    tag_25:\n      tag_129\n      tag_130\n      jump\t// in\n    tag_129:\n      stop\n        /* \"ifb-new.sol\":11320:11487  function setTaxSocialPercent(uint256 newPercent) public onlyOwner {... */\n    tag_26:\n      tag_131\n      0x04\n      dup1\n      calldatasize\n      sub\n      dup2\n      add\n      swap1\n      tag_132\n      swap2\n      swap1\n      tag_99\n      jump\t// in\n    tag_132:\n      tag_133\n      jump\t// in\n    tag_131:\n      stop\n        /* \"ifb-new.sol\":8208:8248  address public taxSocialOperationsWallet */\n    tag_27:\n      tag_134\n      tag_135\n      jump\t// in\n    tag_134:\n      mload(0x40)\n      tag_136\n      swap2\n      swap1\n      tag_117\n      jump\t// in\n    tag_136:\n      mload(0x40)\n      dup1\n      swap2\n      sub\n      swap1\n      return\n        /* \"ifb-new.sol\":8059:8103  uint256 public taxSocialProjectsPercent = 30 */\n    tag_28:\n      tag_137\n      tag_138\n      jump\t// in\n    tag_137:\n      mload(0x40)\n      tag_139\n      swap2\n      swap1\n      tag_57\n      jump\t// in\n    tag_139:\n      mload(0x40)\n      dup1\n      swap2\n      sub\n      swap1\n      return\n        /* \"ifb-new.sol\":1886:1973  function owner() public view virtual returns (address) {... */\n    tag_29:\n      tag_140\n      tag_141\n      jump\t// in\n    tag_140:\n      mload(0x40)\n      tag_142\n      swap2\n      swap1\n      tag_117\n      jump\t// in\n    tag_142:\n      mload(0x40)\n      dup1\n      swap2\n      sub\n      swap1\n      return\n        /* \"ifb-new.sol\":3937:4032  function symbol() public view virtual returns (string memory) {... */\n    tag_30:\n      tag_143\n      tag_144\n      jump\t// in\n    tag_143:\n      mload(0x40)\n      tag_145\n      swap2\n      swap1\n      tag_53\n      jump\t// in\n    tag_145:\n      mload(0x40)\n      dup1\n      swap2\n      sub\n      swap1\n      return\n        /* \"ifb-new.sol\":8016:8052  uint256 public taxSocialPercent = 50 */\n    tag_31:\n      tag_146\n      tag_147\n      jump\t// in\n    tag_146:\n      mload(0x40)\n      tag_148\n      swap2\n      swap1\n      tag_57\n      jump\t// in\n    tag_148:\n      mload(0x40)\n      dup1\n      swap2\n      sub\n      swap1\n      return\n        /* \"ifb-new.sol\":8618:8661  mapping(address => bool) public kycVerified */\n    tag_32:\n      tag_149\n      0x04\n      dup1\n      calldatasize\n      sub\n      dup2\n      add\n      swap1\n      tag_150\n      swap2\n      swap1\n      tag_120\n      jump\t// in\n    tag_150:\n      tag_151\n      jump\t// in\n    tag_149:\n      mload(0x40)\n      tag_152\n      swap2\n      swap1\n      tag_63\n      jump\t// in\n    tag_152:\n      mload(0x40)\n      dup1\n      swap2\n      sub\n      swap1\n      return\n        /* \"ifb-new.sol\":4391:4557  function transfer(address recipient, uint256 amount) public virtual returns (bool) {... */\n    tag_33:\n      tag_153\n      0x04\n      dup1\n      calldatasize\n      sub\n      dup2\n      add\n      swap1\n      tag_154\n      swap2\n      swap1\n      tag_60\n      jump\t// in\n    tag_154:\n      tag_155\n      jump\t// in\n    tag_153:\n      mload(0x40)\n      tag_156\n      swap2\n      swap1\n      tag_63\n      jump\t// in\n    tag_156:\n      mload(0x40)\n      dup1\n      swap2\n      sub\n      swap1\n      return\n        /* \"ifb-new.sol\":8466:8516  mapping(address => bool) public isExemptFromLimits */\n    tag_34:\n      tag_157\n      0x04\n      dup1\n      calldatasize\n      sub\n      dup2\n      add\n      swap1\n      tag_158\n      swap2\n      swap1\n      tag_120\n      jump\t// in\n    tag_158:\n      tag_159\n      jump\t// in\n    tag_157:\n      mload(0x40)\n      tag_160\n      swap2\n      swap1\n      tag_63\n      jump\t// in\n    tag_160:\n      mload(0x40)\n      dup1\n      swap2\n      sub\n      swap1\n      return\n        /* \"ifb-new.sol\":11621:11839  function burnMonthly() public onlyOwner {... */\n    tag_35:\n      tag_161\n      tag_162\n      jump\t// in\n    tag_161:\n      stop\n        /* \"ifb-new.sol\":4733:4875  function allowance(address owner, address spender) public view virtual returns (uint256) {... */\n    tag_36:\n      tag_163\n      0x04\n      dup1\n      calldatasize\n      sub\n      dup2\n      add\n      swap1\n      tag_164\n      swap2\n      swap1\n      tag_106\n      jump\t// in\n    tag_164:\n      tag_165\n      jump\t// in\n    tag_163:\n      mload(0x40)\n      tag_166\n      swap2\n      swap1\n      tag_57\n      jump\t// in\n    tag_166:\n      mload(0x40)\n      dup1\n      swap2\n      sub\n      swap1\n      return\n        /* \"ifb-new.sol\":11979:12100  function setKycStatus(address account, bool verified) public onlyOwner {... */\n    tag_37:\n      tag_167\n      0x04\n      dup1\n      calldatasize\n      sub\n      dup2\n      add\n      swap1\n      tag_168\n      swap2\n      swap1\n      tag_93\n      jump\t// in\n    tag_168:\n      tag_169\n      jump\t// in\n    tag_167:\n      stop\n        /* \"ifb-new.sol\":1981:2182  function transferOwnership(address newOwner) public virtual onlyOwner {... */\n    tag_38:\n      tag_170\n      0x04\n      dup1\n      calldatasize\n      sub\n      dup2\n      add\n      swap1\n      tag_171\n      swap2\n      swap1\n      tag_120\n      jump\t// in\n    tag_171:\n      tag_172\n      jump\t// in\n    tag_170:\n      stop\n        /* \"ifb-new.sol\":8525:8559  uint256 public quorumPercent = 500 */\n    tag_39:\n      tag_173\n      tag_174\n      jump\t// in\n    tag_173:\n      mload(0x40)\n      tag_175\n      swap2\n      swap1\n      tag_57\n      jump\t// in\n    tag_175:\n      mload(0x40)\n      dup1\n      swap2\n      sub\n      swap1\n      return\n        /* \"ifb-new.sol\":11011:11155  function blacklist(address account) public onlyOwner {... */\n    tag_40:\n      tag_176\n      0x04\n      dup1\n      calldatasize\n      sub\n      dup2\n      add\n      swap1\n      tag_177\n      swap2\n      swap1\n      tag_120\n      jump\t// in\n    tag_177:\n      tag_178\n      jump\t// in\n    tag_176:\n      stop\n        /* \"ifb-new.sol\":11495:11613  function setMonthlyBurnPercent(uint256 newPercent) public onlyOwner {... */\n    tag_41:\n      tag_179\n      0x04\n      dup1\n      calldatasize\n      sub\n      dup2\n      add\n      swap1\n      tag_180\n      swap2\n      swap1\n      tag_99\n      jump\t// in\n    tag_180:\n      tag_181\n      jump\t// in\n    tag_179:\n      stop\n        /* \"ifb-new.sol\":8566:8611  mapping(address => bool) public isBlacklisted */\n    tag_42:\n      tag_182\n      0x04\n      dup1\n      calldatasize\n      sub\n      dup2\n      add\n      swap1\n      tag_183\n      swap2\n      swap1\n      tag_120\n      jump\t// in\n    tag_183:\n      tag_184\n      jump\t// in\n    tag_182:\n      mload(0x40)\n      tag_185\n      swap2\n      swap1\n      tag_63\n      jump\t// in\n    tag_185:\n      mload(0x40)\n      dup1\n      swap2\n      sub\n      swap1\n      return\n        /* \"ifb-new.sol\":3838:3929  function name() public view virtual returns (string memory) {... */\n    tag_51:\n        /* \"ifb-new.sol\":3883:3896  string memory */\n      0x60\n        /* \"ifb-new.sol\":3916:3921  _name */\n      0x04\n        /* \"ifb-new.sol\":3909:3921  return _name */\n      dup1\n      sload\n      tag_187\n      swap1\n      tag_188\n      jump\t// in\n    tag_187:\n      dup1\n      0x1f\n      add\n      0x20\n      dup1\n      swap2\n      div\n      mul\n      0x20\n      add\n      mload(0x40)\n      swap1\n      dup2\n      add\n      0x40\n      mstore\n      dup1\n      swap3\n      swap2\n      swap1\n      dup2\n      dup2\n      mstore\n      0x20\n      add\n      dup3\n      dup1\n      sload\n      tag_189\n      swap1\n      tag_188\n      jump\t// in\n    tag_189:\n      dup1\n      iszero\n      tag_190\n      jumpi\n      dup1\n      0x1f\n      lt\n      tag_191\n      jumpi\n      0x0100\n      dup1\n      dup4\n      sload\n      div\n      mul\n      dup4\n      mstore\n      swap2\n      0x20\n      add\n      swap2\n      jump(tag_190)\n    tag_191:\n      dup3\n      add\n      swap2\n      swap1\n      0x00\n      mstore\n      keccak256(0x00, 0x20)\n      swap1\n    tag_192:\n      dup2\n      sload\n      dup2\n      mstore\n      swap1\n      0x01\n      add\n      swap1\n      0x20\n      add\n      dup1\n      dup4\n      gt\n      tag_192\n      jumpi\n      dup3\n      swap1\n      sub\n      0x1f\n      and\n      dup3\n      add\n      swap2\n    tag_190:\n      pop\n      pop\n      pop\n      pop\n      pop\n      swap1\n      pop\n        /* \"ifb-new.sol\":3838:3929  function name() public view virtual returns (string memory) {... */\n      swap1\n      jump\t// out\n        /* \"ifb-new.sol\":8410:8459  uint256 public maxMonthlyTransferPercent = 20_000 */\n    tag_55:\n      sload(0x0f)\n      dup2\n      jump\t// out\n        /* \"ifb-new.sol\":4565:4725  function approve(address spender, uint256 amount) public virtual returns (bool) {... */\n    tag_61:\n        /* \"ifb-new.sol\":4639:4643  bool */\n      0x00\n        /* \"ifb-new.sol\":4656:4695  _approve(_msgSender(), spender, amount) */\n      tag_194\n        /* \"ifb-new.sol\":4665:4677  _msgSender() */\n      tag_195\n        /* \"ifb-new.sol\":4665:4675  _msgSender */\n      tag_196\n        /* \"ifb-new.sol\":4665:4677  _msgSender() */\n      jump\t// in\n    tag_195:\n        /* \"ifb-new.sol\":4679:4686  spender */\n      dup5\n        /* \"ifb-new.sol\":4688:4694  amount */\n      dup5\n        /* \"ifb-new.sol\":4656:4664  _approve */\n      tag_197\n        /* \"ifb-new.sol\":4656:4695  _approve(_msgSender(), spender, amount) */\n      jump\t// in\n    tag_194:\n        /* \"ifb-new.sol\":4713:4717  true */\n      0x01\n        /* \"ifb-new.sol\":4706:4717  return true */\n      swap1\n      pop\n        /* \"ifb-new.sol\":4565:4725  function approve(address spender, uint256 amount) public virtual returns (bool) {... */\n      swap3\n      swap2\n      pop\n      pop\n      jump\t// out\n        /* \"ifb-new.sol\":4158:4257  function totalSupply() public view virtual returns (uint256) {... */\n    tag_65:\n        /* \"ifb-new.sol\":4210:4217  uint256 */\n      0x00\n        /* \"ifb-new.sol\":4237:4249  _totalSupply */\n      sload(0x03)\n        /* \"ifb-new.sol\":4230:4249  return _totalSupply */\n      swap1\n      pop\n        /* \"ifb-new.sol\":4158:4257  function totalSupply() public view virtual returns (uint256) {... */\n      swap1\n      jump\t// out\n        /* \"ifb-new.sol\":7785:7831  string public constant TOKEN_NAME = \"IFB Coin\" */\n    tag_68:\n      mload(0x40)\n      dup1\n      0x40\n      add\n      0x40\n      mstore\n      dup1\n      0x08\n      dup2\n      mstore\n      0x20\n      add\n      0x49464220436f696e000000000000000000000000000000000000000000000000\n      dup2\n      mstore\n      pop\n      dup2\n      jump\t// out\n        /* \"ifb-new.sol\":8257:8296  uint256 public monthlyBurnPercent = 100 */\n    tag_71:\n      sload(0x0c)\n      dup2\n      jump\t// out\n        /* \"ifb-new.sol\":8303:8348  uint256 public extraBurnTriggerPercent = 1500 */\n    tag_74:\n      sload(0x0d)\n      dup2\n      jump\t// out\n        /* \"ifb-new.sol\":4883:5328  function transferFrom(address sender, address recipient, uint256 amount) public virtual returns (bool) {... */\n    tag_79:\n        /* \"ifb-new.sol\":4980:4984  bool */\n      0x00\n        /* \"ifb-new.sol\":4997:5021  uint256 currentAllowance */\n      0x00\n        /* \"ifb-new.sol\":5024:5035  _allowances */\n      0x02\n        /* \"ifb-new.sol\":5024:5043  _allowances[sender] */\n      0x00\n        /* \"ifb-new.sol\":5036:5042  sender */\n      dup7\n        /* \"ifb-new.sol\":5024:5043  _allowances[sender] */\n      0xffffffffffffffffffffffffffffffffffffffff\n      and\n      0xffffffffffffffffffffffffffffffffffffffff\n      and\n      dup2\n      mstore\n      0x20\n      add\n      swap1\n      dup2\n      mstore\n      0x20\n      add\n      0x00\n      keccak256\n        /* \"ifb-new.sol\":5024:5057  _allowances[sender][_msgSender()] */\n      0x00\n        /* \"ifb-new.sol\":5044:5056  _msgSender() */\n      tag_200\n        /* \"ifb-new.sol\":5044:5054  _msgSender */\n      tag_196\n        /* \"ifb-new.sol\":5044:5056  _msgSender() */\n      jump\t// in\n    tag_200:\n        /* \"ifb-new.sol\":5024:5057  _allowances[sender][_msgSender()] */\n      0xffffffffffffffffffffffffffffffffffffffff\n      and\n      0xffffffffffffffffffffffffffffffffffffffff\n      and\n      dup2\n      mstore\n      0x20\n      add\n      swap1\n      dup2\n      mstore\n      0x20\n      add\n      0x00\n      keccak256\n      sload\n        /* \"ifb-new.sol\":4997:5057  uint256 currentAllowance = _allowances[sender][_msgSender()] */\n      swap1\n      pop\n        /* \"ifb-new.sol\":5096:5102  amount */\n      dup3\n        /* \"ifb-new.sol\":5076:5092  currentAllowance */\n      dup2\n        /* \"ifb-new.sol\":5076:5102  currentAllowance >= amount */\n      lt\n      iszero\n        /* \"ifb-new.sol\":5068:5147  require(currentAllowance >= amount, \"ERC20: transfer amount exceeds allowance\") */\n      tag_201\n      jumpi\n      mload(0x40)\n      0x08c379a000000000000000000000000000000000000000000000000000000000\n      dup2\n      mstore\n      0x04\n      add\n      tag_202\n      swap1\n      tag_203\n      jump\t// in\n    tag_202:\n      mload(0x40)\n      dup1\n      swap2\n      sub\n      swap1\n      revert\n    tag_201:\n        /* \"ifb-new.sol\":5183:5240  _approve(sender, _msgSender(), currentAllowance - amount) */\n      tag_204\n        /* \"ifb-new.sol\":5192:5198  sender */\n      dup6\n        /* \"ifb-new.sol\":5200:5212  _msgSender() */\n      tag_205\n        /* \"ifb-new.sol\":5200:5210  _msgSender */\n      tag_196\n        /* \"ifb-new.sol\":5200:5212  _msgSender() */\n      jump\t// in\n    tag_205:\n        /* \"ifb-new.sol\":5233:5239  amount */\n      dup6\n        /* \"ifb-new.sol\":5214:5230  currentAllowance */\n      dup5\n        /* \"ifb-new.sol\":5214:5239  currentAllowance - amount */\n      sub\n        /* \"ifb-new.sol\":5183:5191  _approve */\n      tag_197\n        /* \"ifb-new.sol\":5183:5240  _approve(sender, _msgSender(), currentAllowance - amount) */\n      jump\t// in\n    tag_204:\n        /* \"ifb-new.sol\":5262:5298  _transfer(sender, recipient, amount) */\n      tag_206\n        /* \"ifb-new.sol\":5272:5278  sender */\n      dup6\n        /* \"ifb-new.sol\":5280:5289  recipient */\n      dup6\n        /* \"ifb-new.sol\":5291:5297  amount */\n      dup6\n        /* \"ifb-new.sol\":5262:5271  _transfer */\n      tag_207\n        /* \"ifb-new.sol\":5262:5298  _transfer(sender, recipient, amount) */\n      jump\t// in\n    tag_206:\n        /* \"ifb-new.sol\":5316:5320  true */\n      0x01\n        /* \"ifb-new.sol\":5309:5320  return true */\n      swap2\n      pop\n      pop\n        /* \"ifb-new.sol\":4883:5328  function transferFrom(address sender, address recipient, uint256 amount) public virtual returns (bool) {... */\n      swap4\n      swap3\n      pop\n      pop\n      pop\n      jump\t// out\n        /* \"ifb-new.sol\":7838:7881  string public constant TOKEN_SYMBOL = \"IFB\" */\n    tag_82:\n      mload(0x40)\n      dup1\n      0x40\n      add\n      0x40\n      mstore\n      dup1\n      0x03\n      dup2\n      mstore\n      0x20\n      add\n      0x4946420000000000000000000000000000000000000000000000000000000000\n      dup2\n      mstore\n      pop\n      dup2\n      jump\t// out\n        /* \"ifb-new.sol\":8110:8156  uint256 public taxSocialOperationsPercent = 20 */\n    tag_85:\n      sload(0x09)\n      dup2\n      jump\t// out\n        /* \"ifb-new.sol\":4040:4150  function decimals() public view virtual returns (uint8) {... */\n    tag_88:\n        /* \"ifb-new.sol\":4089:4094  uint8 */\n      0x00\n        /* \"ifb-new.sol\":4114:4115  6 */\n      0x06\n        /* \"ifb-new.sol\":4107:4115  return 6 */\n      swap1\n      pop\n        /* \"ifb-new.sol\":4040:4150  function decimals() public view virtual returns (uint8) {... */\n      swap1\n      jump\t// out\n        /* \"ifb-new.sol\":11847:11971  function setExemption(address account, bool exempt) public onlyOwner {... */\n    tag_94:\n        /* \"ifb-new.sol\":1809:1821  _msgSender() */\n      tag_210\n        /* \"ifb-new.sol\":1809:1819  _msgSender */\n      tag_196\n        /* \"ifb-new.sol\":1809:1821  _msgSender() */\n      jump\t// in\n    tag_210:\n        /* \"ifb-new.sol\":1798:1821  owner() == _msgSender() */\n      0xffffffffffffffffffffffffffffffffffffffff\n      and\n        /* \"ifb-new.sol\":1798:1805  owner() */\n      tag_211\n        /* \"ifb-new.sol\":1798:1803  owner */\n      tag_141\n        /* \"ifb-new.sol\":1798:1805  owner() */\n      jump\t// in\n    tag_211:\n        /* \"ifb-new.sol\":1798:1821  owner() == _msgSender() */\n      0xffffffffffffffffffffffffffffffffffffffff\n      and\n      eq\n        /* \"ifb-new.sol\":1790:1858  require(owner() == _msgSender(), \"Ownable: caller is not the owner\") */\n      tag_212\n      jumpi\n      mload(0x40)\n      0x08c379a000000000000000000000000000000000000000000000000000000000\n      dup2\n      mstore\n      0x04\n      add\n      tag_213\n      swap1\n      tag_214\n      jump\t// in\n    tag_213:\n      mload(0x40)\n      dup1\n      swap2\n      sub\n      swap1\n      revert\n    tag_212:\n        /* \"ifb-new.sol\":11957:11963  exempt */\n      dup1\n        /* \"ifb-new.sol\":11927:11945  isExemptFromLimits */\n      0x10\n        /* \"ifb-new.sol\":11927:11954  isExemptFromLimits[account] */\n      0x00\n        /* \"ifb-new.sol\":11946:11953  account */\n      dup5\n        /* \"ifb-new.sol\":11927:11954  isExemptFromLimits[account] */\n      0xffffffffffffffffffffffffffffffffffffffff\n      and\n      0xffffffffffffffffffffffffffffffffffffffff\n      and\n      dup2\n      mstore\n      0x20\n      add\n      swap1\n      dup2\n      mstore\n      0x20\n      add\n      0x00\n      keccak256\n      0x00\n        /* \"ifb-new.sol\":11927:11963  isExemptFromLimits[account] = exempt */\n      0x0100\n      exp\n      dup2\n      sload\n      dup2\n      0xff\n      mul\n      not\n      and\n      swap1\n      dup4\n      iszero\n      iszero\n      mul\n      or\n      swap1\n      sstore\n      pop\n        /* \"ifb-new.sol\":11847:11971  function setExemption(address account, bool exempt) public onlyOwner {... */\n      pop\n      pop\n      jump\t// out\n        /* \"ifb-new.sol\":10952:11003  function unpause() public onlyOwner { _unpause(); } */\n    tag_96:\n        /* \"ifb-new.sol\":1809:1821  _msgSender() */\n      tag_217\n        /* \"ifb-new.sol\":1809:1819  _msgSender */\n      tag_196\n        /* \"ifb-new.sol\":1809:1821  _msgSender() */\n      jump\t// in\n    tag_217:\n        /* \"ifb-new.sol\":1798:1821  owner() == _msgSender() */\n      0xffffffffffffffffffffffffffffffffffffffff\n      and\n        /* \"ifb-new.sol\":1798:1805  owner() */\n      tag_218\n        /* \"ifb-new.sol\":1798:1803  owner */\n      tag_141\n        /* \"ifb-new.sol\":1798:1805  owner() */\n      jump\t// in\n    tag_218:\n        /* \"ifb-new.sol\":1798:1821  owner() == _msgSender() */\n      0xffffffffffffffffffffffffffffffffffffffff\n      and\n      eq\n        /* \"ifb-new.sol\":1790:1858  require(owner() == _msgSender(), \"Ownable: caller is not the owner\") */\n      tag_219\n      jumpi\n      mload(0x40)\n      0x08c379a000000000000000000000000000000000000000000000000000000000\n      dup2\n      mstore\n      0x04\n      add\n      tag_220\n      swap1\n      tag_214\n      jump\t// in\n    tag_220:\n      mload(0x40)\n      dup1\n      swap2\n      sub\n      swap1\n      revert\n    tag_219:\n        /* \"ifb-new.sol\":10990:11000  _unpause() */\n      tag_222\n        /* \"ifb-new.sol\":10990:10998  _unpause */\n      tag_223\n        /* \"ifb-new.sol\":10990:11000  _unpause() */\n      jump\t// in\n    tag_222:\n        /* \"ifb-new.sol\":10952:11003  function unpause() public onlyOwner { _unpause(); } */\n      jump\t// out\n        /* \"ifb-new.sol\":6947:7038  function burn(uint256 amount) public virtual {... */\n    tag_100:\n        /* \"ifb-new.sol\":7003:7030  _burn(_msgSender(), amount) */\n      tag_225\n        /* \"ifb-new.sol\":7009:7021  _msgSender() */\n      tag_226\n        /* \"ifb-new.sol\":7009:7019  _msgSender */\n      tag_196\n        /* \"ifb-new.sol\":7009:7021  _msgSender() */\n      jump\t// in\n    tag_226:\n        /* \"ifb-new.sol\":7023:7029  amount */\n      dup3\n        /* \"ifb-new.sol\":7003:7008  _burn */\n      tag_227\n        /* \"ifb-new.sol\":7003:7030  _burn(_msgSender(), amount) */\n      jump\t// in\n    tag_225:\n        /* \"ifb-new.sol\":6947:7038  function burn(uint256 amount) public virtual {... */\n      pop\n      jump\t// out\n        /* \"ifb-new.sol\":8357:8403  uint256 public maxDailyTransferPercent = 1_000 */\n    tag_102:\n      sload(0x0e)\n      dup2\n      jump\t// out\n        /* \"ifb-new.sol\":9045:9501  function initialize(address _projectsWallet, address _operationsWallet) public initializer {... */\n    tag_107:\n        /* \"ifb-new.sol\":374:387  _initializing */\n      0x00\n      0x01\n      swap1\n      sload\n      swap1\n      0x0100\n      exp\n      swap1\n      div\n      0xff\n      and\n        /* \"ifb-new.sol\":374:404  _initializing || !_initialized */\n      dup1\n      tag_229\n      jumpi\n      pop\n        /* \"ifb-new.sol\":392:404  _initialized */\n      0x00\n      0x00\n      swap1\n      sload\n      swap1\n      0x0100\n      exp\n      swap1\n      div\n      0xff\n      and\n        /* \"ifb-new.sol\":391:404  !_initialized */\n      iszero\n        /* \"ifb-new.sol\":374:404  _initializing || !_initialized */\n    tag_229:\n        /* \"ifb-new.sol\":366:455  require(_initializing || !_initialized, \"Initializable: contract is already initialized\") */\n      tag_230\n      jumpi\n      mload(0x40)\n      0x08c379a000000000000000000000000000000000000000000000000000000000\n      dup2\n      mstore\n      0x04\n      add\n      tag_231\n      swap1\n      tag_232\n      jump\t// in\n    tag_231:\n      mload(0x40)\n      dup1\n      swap2\n      sub\n      swap1\n      revert\n    tag_230:\n        /* \"ifb-new.sol\":468:487  bool isTopLevelCall */\n      0x00\n        /* \"ifb-new.sol\":491:504  _initializing */\n      0x00\n      0x01\n      swap1\n      sload\n      swap1\n      0x0100\n      exp\n      swap1\n      div\n      0xff\n      and\n        /* \"ifb-new.sol\":490:504  !_initializing */\n      iszero\n        /* \"ifb-new.sol\":468:504  bool isTopLevelCall = !_initializing */\n      swap1\n      pop\n        /* \"ifb-new.sol\":519:533  isTopLevelCall */\n      dup1\n        /* \"ifb-new.sol\":515:616  if (isTopLevelCall) {... */\n      iszero\n      tag_233\n      jumpi\n        /* \"ifb-new.sol\":566:570  true */\n      0x01\n        /* \"ifb-new.sol\":550:563  _initializing */\n      0x00\n      0x01\n        /* \"ifb-new.sol\":550:570  _initializing = true */\n      0x0100\n      exp\n      dup2\n      sload\n      dup2\n      0xff\n      mul\n      not\n      and\n      swap1\n      dup4\n      iszero\n      iszero\n      mul\n      or\n      swap1\n      sstore\n      pop\n        /* \"ifb-new.sol\":600:604  true */\n      0x01\n        /* \"ifb-new.sol\":585:597  _initialized */\n      0x00\n      0x00\n        /* \"ifb-new.sol\":585:604  _initialized = true */\n      0x0100\n      exp\n      dup2\n      sload\n      dup2\n      0xff\n      mul\n      not\n      and\n      swap1\n      dup4\n      iszero\n      iszero\n      mul\n      or\n      swap1\n      sstore\n      pop\n        /* \"ifb-new.sol\":515:616  if (isTopLevelCall) {... */\n    tag_233:\n        /* \"ifb-new.sol\":9147:9185  __ERC20_init(TOKEN_NAME, TOKEN_SYMBOL) */\n      tag_235\n        /* \"ifb-new.sol\":9160:9170  TOKEN_NAME */\n      mload(0x40)\n      dup1\n      0x40\n      add\n      0x40\n      mstore\n      dup1\n      0x08\n      dup2\n      mstore\n      0x20\n      add\n      0x49464220436f696e000000000000000000000000000000000000000000000000\n      dup2\n      mstore\n      pop\n        /* \"ifb-new.sol\":9172:9184  TOKEN_SYMBOL */\n      mload(0x40)\n      dup1\n      0x40\n      add\n      0x40\n      mstore\n      dup1\n      0x03\n      dup2\n      mstore\n      0x20\n      add\n      0x4946420000000000000000000000000000000000000000000000000000000000\n      dup2\n      mstore\n      pop\n        /* \"ifb-new.sol\":9147:9159  __ERC20_init */\n      tag_236\n        /* \"ifb-new.sol\":9147:9185  __ERC20_init(TOKEN_NAME, TOKEN_SYMBOL) */\n      jump\t// in\n    tag_235:\n        /* \"ifb-new.sol\":9196:9218  __ERC20Burnable_init() */\n      tag_237\n        /* \"ifb-new.sol\":9196:9216  __ERC20Burnable_init */\n      tag_238\n        /* \"ifb-new.sol\":9196:9218  __ERC20Burnable_init() */\n      jump\t// in\n    tag_237:\n        /* \"ifb-new.sol\":9229:9246  __Pausable_init() */\n      tag_239\n        /* \"ifb-new.sol\":9229:9244  __Pausable_init */\n      tag_240\n        /* \"ifb-new.sol\":9229:9246  __Pausable_init() */\n      jump\t// in\n    tag_239:\n        /* \"ifb-new.sol\":9257:9283  __Ownable_init(msg.sender) */\n      tag_241\n        /* \"ifb-new.sol\":9272:9282  msg.sender */\n      caller\n        /* \"ifb-new.sol\":9257:9271  __Ownable_init */\n      tag_242\n        /* \"ifb-new.sol\":9257:9283  __Ownable_init(msg.sender) */\n      jump\t// in\n    tag_241:\n        /* \"ifb-new.sol\":9296:9335  _mint(msg.sender, INITIAL_TOTAL_SUPPLY) */\n      tag_243\n        /* \"ifb-new.sol\":9302:9312  msg.sender */\n      caller\n        /* \"ifb-new.sol\":7983:8007  10_000_000_000 * (10**6) */\n      0x2386f26fc10000\n        /* \"ifb-new.sol\":9296:9301  _mint */\n      tag_244\n        /* \"ifb-new.sol\":9296:9335  _mint(msg.sender, INITIAL_TOTAL_SUPPLY) */\n      jump\t// in\n    tag_243:\n        /* \"ifb-new.sol\":9374:9389  _projectsWallet */\n      dup3\n        /* \"ifb-new.sol\":9348:9371  taxSocialProjectsWallet */\n      0x0a\n      0x00\n        /* \"ifb-new.sol\":9348:9389  taxSocialProjectsWallet = _projectsWallet */\n      0x0100\n      exp\n      dup2\n      sload\n      dup2\n      0xffffffffffffffffffffffffffffffffffffffff\n      mul\n      not\n      and\n      swap1\n      dup4\n      0xffffffffffffffffffffffffffffffffffffffff\n      and\n      mul\n      or\n      swap1\n      sstore\n      pop\n        /* \"ifb-new.sol\":9428:9445  _operationsWallet */\n      dup2\n        /* \"ifb-new.sol\":9400:9425  taxSocialOperationsWallet */\n      0x0b\n      0x00\n        /* \"ifb-new.sol\":9400:9445  taxSocialOperationsWallet = _operationsWallet */\n      0x0100\n      exp\n      dup2\n      sload\n      dup2\n      0xffffffffffffffffffffffffffffffffffffffff\n      mul\n      not\n      and\n      swap1\n      dup4\n      0xffffffffffffffffffffffffffffffffffffffff\n      and\n      mul\n      or\n      swap1\n      sstore\n      pop\n        /* \"ifb-new.sol\":9489:9493  true */\n      0x01\n        /* \"ifb-new.sol\":9456:9474  isExemptFromLimits */\n      0x10\n        /* \"ifb-new.sol\":9456:9486  isExemptFromLimits[msg.sender] */\n      0x00\n        /* \"ifb-new.sol\":9475:9485  msg.sender */\n      caller\n        /* \"ifb-new.sol\":9456:9486  isExemptFromLimits[msg.sender] */\n      0xffffffffffffffffffffffffffffffffffffffff\n      and\n      0xffffffffffffffffffffffffffffffffffffffff\n      and\n      dup2\n      mstore\n      0x20\n      add\n      swap1\n      dup2\n      mstore\n      0x20\n      add\n      0x00\n      keccak256\n      0x00\n        /* \"ifb-new.sol\":9456:9493  isExemptFromLimits[msg.sender] = true */\n      0x0100\n      exp\n      dup2\n      sload\n      dup2\n      0xff\n      mul\n      not\n      and\n      swap1\n      dup4\n      iszero\n      iszero\n      mul\n      or\n      swap1\n      sstore\n      pop\n        /* \"ifb-new.sol\":646:660  isTopLevelCall */\n      dup1\n        /* \"ifb-new.sol\":642:710  if (isTopLevelCall) {... */\n      iszero\n      tag_245\n      jumpi\n        /* \"ifb-new.sol\":693:698  false */\n      0x00\n        /* \"ifb-new.sol\":677:690  _initializing */\n      0x00\n      0x01\n        /* \"ifb-new.sol\":677:698  _initializing = false */\n      0x0100\n      exp\n      dup2\n      sload\n      dup2\n      0xff\n      mul\n      not\n      and\n      swap1\n      dup4\n      iszero\n      iszero\n      mul\n      or\n      swap1\n      sstore\n      pop\n        /* \"ifb-new.sol\":642:710  if (isTopLevelCall) {... */\n    tag_245:\n        /* \"ifb-new.sol\":355:717  {... */\n      pop\n        /* \"ifb-new.sol\":9045:9501  function initialize(address _projectsWallet, address _operationsWallet) public initializer {... */\n      pop\n      pop\n      jump\t// out\n        /* \"ifb-new.sol\":7888:7928  uint8 public constant TOKEN_DECIMALS = 6 */\n    tag_109:\n        /* \"ifb-new.sol\":7927:7928  6 */\n      0x06\n        /* \"ifb-new.sol\":7888:7928  uint8 public constant TOKEN_DECIMALS = 6 */\n      dup2\n      jump\t// out\n        /* \"ifb-new.sol\":2954:3040  function paused() public view virtual returns (bool) {... */\n    tag_112:\n        /* \"ifb-new.sol\":3001:3005  bool */\n      0x00\n        /* \"ifb-new.sol\":3025:3032  _paused */\n      0x06\n      0x00\n      swap1\n      sload\n      swap1\n      0x0100\n      exp\n      swap1\n      div\n      0xff\n      and\n        /* \"ifb-new.sol\":3018:3032  return _paused */\n      swap1\n      pop\n        /* \"ifb-new.sol\":2954:3040  function paused() public view virtual returns (bool) {... */\n      swap1\n      jump\t// out\n        /* \"ifb-new.sol\":8163:8201  address public taxSocialProjectsWallet */\n    tag_115:\n      0x0a\n      0x00\n      swap1\n      sload\n      swap1\n      0x0100\n      exp\n      swap1\n      div\n      0xffffffffffffffffffffffffffffffffffffffff\n      and\n      dup2\n      jump\t// out\n        /* \"ifb-new.sol\":4265:4383  function balanceOf(address account) public view virtual returns (uint256) {... */\n    tag_121:\n        /* \"ifb-new.sol\":4330:4337  uint256 */\n      0x00\n        /* \"ifb-new.sol\":4357:4366  _balances */\n      0x01\n        /* \"ifb-new.sol\":4357:4375  _balances[account] */\n      0x00\n        /* \"ifb-new.sol\":4367:4374  account */\n      dup4\n        /* \"ifb-new.sol\":4357:4375  _balances[account] */\n      0xffffffffffffffffffffffffffffffffffffffff\n      and\n      0xffffffffffffffffffffffffffffffffffffffff\n      and\n      dup2\n      mstore\n      0x20\n      add\n      swap1\n      dup2\n      mstore\n      0x20\n      add\n      0x00\n      keccak256\n      sload\n        /* \"ifb-new.sol\":4350:4375  return _balances[account] */\n      swap1\n      pop\n        /* \"ifb-new.sol\":4265:4383  function balanceOf(address account) public view virtual returns (uint256) {... */\n      swap2\n      swap1\n      pop\n      jump\t// out\n        /* \"ifb-new.sol\":11163:11312  function unblacklist(address account) public onlyOwner {... */\n    tag_125:\n        /* \"ifb-new.sol\":1809:1821  _msgSender() */\n      tag_249\n        /* \"ifb-new.sol\":1809:1819  _msgSender */\n      tag_196\n        /* \"ifb-new.sol\":1809:1821  _msgSender() */\n      jump\t// in\n    tag_249:\n        /* \"ifb-new.sol\":1798:1821  owner() == _msgSender() */\n      0xffffffffffffffffffffffffffffffffffffffff\n      and\n        /* \"ifb-new.sol\":1798:1805  owner() */\n      tag_250\n        /* \"ifb-new.sol\":1798:1803  owner */\n      tag_141\n        /* \"ifb-new.sol\":1798:1805  owner() */\n      jump\t// in\n    tag_250:\n        /* \"ifb-new.sol\":1798:1821  owner() == _msgSender() */\n      0xffffffffffffffffffffffffffffffffffffffff\n      and\n      eq\n        /* \"ifb-new.sol\":1790:1858  require(owner() == _msgSender(), \"Ownable: caller is not the owner\") */\n      tag_251\n      jumpi\n      mload(0x40)\n      0x08c379a000000000000000000000000000000000000000000000000000000000\n      dup2\n      mstore\n      0x04\n      add\n      tag_252\n      swap1\n      tag_214\n      jump\t// in\n    tag_252:\n      mload(0x40)\n      dup1\n      swap2\n      sub\n      swap1\n      revert\n    tag_251:\n        /* \"ifb-new.sol\":11254:11259  false */\n      0x00\n        /* \"ifb-new.sol\":11229:11242  isBlacklisted */\n      0x12\n        /* \"ifb-new.sol\":11229:11251  isBlacklisted[account] */\n      0x00\n        /* \"ifb-new.sol\":11243:11250  account */\n      dup4\n        /* \"ifb-new.sol\":11229:11251  isBlacklisted[account] */\n      0xffffffffffffffffffffffffffffffffffffffff\n      and\n      0xffffffffffffffffffffffffffffffffffffffff\n      and\n      dup2\n      mstore\n      0x20\n      add\n      swap1\n      dup2\n      mstore\n      0x20\n      add\n      0x00\n      keccak256\n      0x00\n        /* \"ifb-new.sol\":11229:11259  isBlacklisted[account] = false */\n      0x0100\n      exp\n      dup2\n      sload\n      dup2\n      0xff\n      mul\n      not\n      and\n      swap1\n      dup4\n      iszero\n      iszero\n      mul\n      or\n      swap1\n      sstore\n      pop\n        /* \"ifb-new.sol\":11296:11303  account */\n      dup1\n        /* \"ifb-new.sol\":11275:11304  AddressUnblacklisted(account) */\n      0xffffffffffffffffffffffffffffffffffffffff\n      and\n      0xb2aa8f2cce614e8fceaca560dbaf2a8ed3083e4ab371b10bf6d02e359216767a\n      mload(0x40)\n      mload(0x40)\n      dup1\n      swap2\n      sub\n      swap1\n      log2\n        /* \"ifb-new.sol\":11163:11312  function unblacklist(address account) public onlyOwner {... */\n      pop\n      jump\t// out\n        /* \"ifb-new.sol\":7046:7407  function burnFrom(address account, uint256 amount) public virtual {... */\n    tag_128:\n        /* \"ifb-new.sol\":7123:7147  uint256 currentAllowance */\n      0x00\n        /* \"ifb-new.sol\":7150:7182  allowance(account, _msgSender()) */\n      tag_255\n        /* \"ifb-new.sol\":7160:7167  account */\n      dup4\n        /* \"ifb-new.sol\":7169:7181  _msgSender() */\n      tag_256\n        /* \"ifb-new.sol\":7169:7179  _msgSender */\n      tag_196\n        /* \"ifb-new.sol\":7169:7181  _msgSender() */\n      jump\t// in\n    tag_256:\n        /* \"ifb-new.sol\":7150:7159  allowance */\n      tag_165\n        /* \"ifb-new.sol\":7150:7182  allowance(account, _msgSender()) */\n      jump\t// in\n    tag_255:\n        /* \"ifb-new.sol\":7123:7182  uint256 currentAllowance = allowance(account, _msgSender()) */\n      swap1\n      pop\n        /* \"ifb-new.sol\":7221:7227  amount */\n      dup2\n        /* \"ifb-new.sol\":7201:7217  currentAllowance */\n      dup2\n        /* \"ifb-new.sol\":7201:7227  currentAllowance >= amount */\n      lt\n      iszero\n        /* \"ifb-new.sol\":7193:7261  require(currentAllowance >= amount, \"ERC20: burn exceeds allowance\") */\n      tag_257\n      jumpi\n      mload(0x40)\n      0x08c379a000000000000000000000000000000000000000000000000000000000\n      dup2\n      mstore\n      0x04\n      add\n      tag_258\n      swap1\n      tag_259\n      jump\t// in\n    tag_258:\n      mload(0x40)\n      dup1\n      swap2\n      sub\n      swap1\n      revert\n    tag_257:\n        /* \"ifb-new.sol\":7297:7355  _approve(account, _msgSender(), currentAllowance - amount) */\n      tag_260\n        /* \"ifb-new.sol\":7306:7313  account */\n      dup4\n        /* \"ifb-new.sol\":7315:7327  _msgSender() */\n      tag_261\n        /* \"ifb-new.sol\":7315:7325  _msgSender */\n      tag_196\n        /* \"ifb-new.sol\":7315:7327  _msgSender() */\n      jump\t// in\n    tag_261:\n        /* \"ifb-new.sol\":7348:7354  amount */\n      dup5\n        /* \"ifb-new.sol\":7329:7345  currentAllowance */\n      dup5\n        /* \"ifb-new.sol\":7329:7354  currentAllowance - amount */\n      sub\n        /* \"ifb-new.sol\":7297:7305  _approve */\n      tag_197\n        /* \"ifb-new.sol\":7297:7355  _approve(account, _msgSender(), currentAllowance - amount) */\n      jump\t// in\n    tag_260:\n        /* \"ifb-new.sol\":7377:7399  _burn(account, amount) */\n      tag_262\n        /* \"ifb-new.sol\":7383:7390  account */\n      dup4\n        /* \"ifb-new.sol\":7392:7398  amount */\n      dup4\n        /* \"ifb-new.sol\":7377:7382  _burn */\n      tag_227\n        /* \"ifb-new.sol\":7377:7399  _burn(account, amount) */\n      jump\t// in\n    tag_262:\n        /* \"ifb-new.sol\":7112:7407  {... */\n      pop\n        /* \"ifb-new.sol\":7046:7407  function burnFrom(address account, uint256 amount) public virtual {... */\n      pop\n      pop\n      jump\t// out\n        /* \"ifb-new.sol\":10899:10946  function pause() public onlyOwner { _pause(); } */\n    tag_130:\n        /* \"ifb-new.sol\":1809:1821  _msgSender() */\n      tag_264\n        /* \"ifb-new.sol\":1809:1819  _msgSender */\n      tag_196\n        /* \"ifb-new.sol\":1809:1821  _msgSender() */\n      jump\t// in\n    tag_264:\n        /* \"ifb-new.sol\":1798:1821  owner() == _msgSender() */\n      0xffffffffffffffffffffffffffffffffffffffff\n      and\n        /* \"ifb-new.sol\":1798:1805  owner() */\n      tag_265\n        /* \"ifb-new.sol\":1798:1803  owner */\n      tag_141\n        /* \"ifb-new.sol\":1798:1805  owner() */\n      jump\t// in\n    tag_265:\n        /* \"ifb-new.sol\":1798:1821  owner() == _msgSender() */\n      0xffffffffffffffffffffffffffffffffffffffff\n      and\n      eq\n        /* \"ifb-new.sol\":1790:1858  require(owner() == _msgSender(), \"Ownable: caller is not the owner\") */\n      tag_266\n      jumpi\n      mload(0x40)\n      0x08c379a000000000000000000000000000000000000000000000000000000000\n      dup2\n      mstore\n      0x04\n      add\n      tag_267\n      swap1\n      tag_214\n      jump\t// in\n    tag_267:\n      mload(0x40)\n      dup1\n      swap2\n      sub\n      swap1\n      revert\n    tag_266:\n        /* \"ifb-new.sol\":10935:10943  _pause() */\n      tag_269\n        /* \"ifb-new.sol\":10935:10941  _pause */\n      tag_270\n        /* \"ifb-new.sol\":10935:10943  _pause() */\n      jump\t// in\n    tag_269:\n        /* \"ifb-new.sol\":10899:10946  function pause() public onlyOwner { _pause(); } */\n      jump\t// out\n        /* \"ifb-new.sol\":11320:11487  function setTaxSocialPercent(uint256 newPercent) public onlyOwner {... */\n    tag_133:\n        /* \"ifb-new.sol\":1809:1821  _msgSender() */\n      tag_272\n        /* \"ifb-new.sol\":1809:1819  _msgSender */\n      tag_196\n        /* \"ifb-new.sol\":1809:1821  _msgSender() */\n      jump\t// in\n    tag_272:\n        /* \"ifb-new.sol\":1798:1821  owner() == _msgSender() */\n      0xffffffffffffffffffffffffffffffffffffffff\n      and\n        /* \"ifb-new.sol\":1798:1805  owner() */\n      tag_273\n        /* \"ifb-new.sol\":1798:1803  owner */\n      tag_141\n        /* \"ifb-new.sol\":1798:1805  owner() */\n      jump\t// in\n    tag_273:\n        /* \"ifb-new.sol\":1798:1821  owner() == _msgSender() */\n      0xffffffffffffffffffffffffffffffffffffffff\n      and\n      eq\n        /* \"ifb-new.sol\":1790:1858  require(owner() == _msgSender(), \"Ownable: caller is not the owner\") */\n      tag_274\n      jumpi\n      mload(0x40)\n      0x08c379a000000000000000000000000000000000000000000000000000000000\n      dup2\n      mstore\n      0x04\n      add\n      tag_275\n      swap1\n      tag_214\n      jump\t// in\n    tag_275:\n      mload(0x40)\n      dup1\n      swap2\n      sub\n      swap1\n      revert\n    tag_274:\n        /* \"ifb-new.sol\":11419:11422  500 */\n      0x01f4\n        /* \"ifb-new.sol\":11405:11415  newPercent */\n      dup2\n        /* \"ifb-new.sol\":11405:11422  newPercent <= 500 */\n      gt\n      iszero\n        /* \"ifb-new.sol\":11397:11439  require(newPercent <= 500, \"Tax too high\") */\n      tag_277\n      jumpi\n      mload(0x40)\n      0x08c379a000000000000000000000000000000000000000000000000000000000\n      dup2\n      mstore\n      0x04\n      add\n      tag_278\n      swap1\n      tag_279\n      jump\t// in\n    tag_278:\n      mload(0x40)\n      dup1\n      swap2\n      sub\n      swap1\n      revert\n    tag_277:\n        /* \"ifb-new.sol\":11469:11479  newPercent */\n      dup1\n        /* \"ifb-new.sol\":11450:11466  taxSocialPercent */\n      0x07\n        /* \"ifb-new.sol\":11450:11479  taxSocialPercent = newPercent */\n      dup2\n      swap1\n      sstore\n      pop\n        /* \"ifb-new.sol\":11320:11487  function setTaxSocialPercent(uint256 newPercent) public onlyOwner {... */\n      pop\n      jump\t// out\n        /* \"ifb-new.sol\":8208:8248  address public taxSocialOperationsWallet */\n    tag_135:\n      0x0b\n      0x00\n      swap1\n      sload\n      swap1\n      0x0100\n      exp\n      swap1\n      div\n      0xffffffffffffffffffffffffffffffffffffffff\n      and\n      dup2\n      jump\t// out\n        /* \"ifb-new.sol\":8059:8103  uint256 public taxSocialProjectsPercent = 30 */\n    tag_138:\n      sload(0x08)\n      dup2\n      jump\t// out\n        /* \"ifb-new.sol\":1886:1973  function owner() public view virtual returns (address) {... */\n    tag_141:\n        /* \"ifb-new.sol\":1932:1939  address */\n      0x00\n        /* \"ifb-new.sol\":1959:1965  _owner */\n      0x06\n      0x01\n      swap1\n      sload\n      swap1\n      0x0100\n      exp\n      swap1\n      div\n      0xffffffffffffffffffffffffffffffffffffffff\n      and\n        /* \"ifb-new.sol\":1952:1965  return _owner */\n      swap1\n      pop\n        /* \"ifb-new.sol\":1886:1973  function owner() public view virtual returns (address) {... */\n      swap1\n      jump\t// out\n        /* \"ifb-new.sol\":3937:4032  function symbol() public view virtual returns (string memory) {... */\n    tag_144:\n        /* \"ifb-new.sol\":3984:3997  string memory */\n      0x60\n        /* \"ifb-new.sol\":4017:4024  _symbol */\n      0x05\n        /* \"ifb-new.sol\":4010:4024  return _symbol */\n      dup1\n      sload\n      tag_282\n      swap1\n      tag_188\n      jump\t// in\n    tag_282:\n      dup1\n      0x1f\n      add\n      0x20\n      dup1\n      swap2\n      div\n      mul\n      0x20\n      add\n      mload(0x40)\n      swap1\n      dup2\n      add\n      0x40\n      mstore\n      dup1\n      swap3\n      swap2\n      swap1\n      dup2\n      dup2\n      mstore\n      0x20\n      add\n      dup3\n      dup1\n      sload\n      tag_283\n      swap1\n      tag_188\n      jump\t// in\n    tag_283:\n      dup1\n      iszero\n      tag_284\n      jumpi\n      dup1\n      0x1f\n      lt\n      tag_285\n      jumpi\n      0x0100\n      dup1\n      dup4\n      sload\n      div\n      mul\n      dup4\n      mstore\n      swap2\n      0x20\n      add\n      swap2\n      jump(tag_284)\n    tag_285:\n      dup3\n      add\n      swap2\n      swap1\n      0x00\n      mstore\n      keccak256(0x00, 0x20)\n      swap1\n    tag_286:\n      dup2\n      sload\n      dup2\n      mstore\n      swap1\n      0x01\n      add\n      swap1\n      0x20\n      add\n      dup1\n      dup4\n      gt\n      tag_286\n      jumpi\n      dup3\n      swap1\n      sub\n      0x1f\n      and\n      dup3\n      add\n      swap2\n    tag_284:\n      pop\n      pop\n      pop\n      pop\n      pop\n      swap1\n      pop\n        /* \"ifb-new.sol\":3937:4032  function symbol() public view virtual returns (string memory) {... */\n      swap1\n      jump\t// out\n        /* \"ifb-new.sol\":8016:8052  uint256 public taxSocialPercent = 50 */\n    tag_147:\n      sload(0x07)\n      dup2\n      jump\t// out\n        /* \"ifb-new.sol\":8618:8661  mapping(address => bool) public kycVerified */\n    tag_151:\n      mstore(0x20, 0x13)\n      dup1\n      0x00\n      mstore\n      keccak256(0x00, 0x40)\n      0x00\n      swap2\n      pop\n      sload\n      swap1\n      0x0100\n      exp\n      swap1\n      div\n      0xff\n      and\n      dup2\n      jump\t// out\n        /* \"ifb-new.sol\":4391:4557  function transfer(address recipient, uint256 amount) public virtual returns (bool) {... */\n    tag_155:\n        /* \"ifb-new.sol\":4468:4472  bool */\n      0x00\n        /* \"ifb-new.sol\":4485:4527  _transfer(_msgSender(), recipient, amount) */\n      tag_288\n        /* \"ifb-new.sol\":4495:4507  _msgSender() */\n      tag_289\n        /* \"ifb-new.sol\":4495:4505  _msgSender */\n      tag_196\n        /* \"ifb-new.sol\":4495:4507  _msgSender() */\n      jump\t// in\n    tag_289:\n        /* \"ifb-new.sol\":4509:4518  recipient */\n      dup5\n        /* \"ifb-new.sol\":4520:4526  amount */\n      dup5\n        /* \"ifb-new.sol\":4485:4494  _transfer */\n      tag_207\n        /* \"ifb-new.sol\":4485:4527  _transfer(_msgSender(), recipient, amount) */\n      jump\t// in\n    tag_288:\n        /* \"ifb-new.sol\":4545:4549  true */\n      0x01\n        /* \"ifb-new.sol\":4538:4549  return true */\n      swap1\n      pop\n        /* \"ifb-new.sol\":4391:4557  function transfer(address recipient, uint256 amount) public virtual returns (bool) {... */\n      swap3\n      swap2\n      pop\n      pop\n      jump\t// out\n        /* \"ifb-new.sol\":8466:8516  mapping(address => bool) public isExemptFromLimits */\n    tag_159:\n      mstore(0x20, 0x10)\n      dup1\n      0x00\n      mstore\n      keccak256(0x00, 0x40)\n      0x00\n      swap2\n      pop\n      sload\n      swap1\n      0x0100\n      exp\n      swap1\n      div\n      0xff\n      and\n      dup2\n      jump\t// out\n        /* \"ifb-new.sol\":11621:11839  function burnMonthly() public onlyOwner {... */\n    tag_162:\n        /* \"ifb-new.sol\":1809:1821  _msgSender() */\n      tag_291\n        /* \"ifb-new.sol\":1809:1819  _msgSender */\n      tag_196\n        /* \"ifb-new.sol\":1809:1821  _msgSender() */\n      jump\t// in\n    tag_291:\n        /* \"ifb-new.sol\":1798:1821  owner() == _msgSender() */\n      0xffffffffffffffffffffffffffffffffffffffff\n      and\n        /* \"ifb-new.sol\":1798:1805  owner() */\n      tag_292\n        /* \"ifb-new.sol\":1798:1803  owner */\n      tag_141\n        /* \"ifb-new.sol\":1798:1805  owner() */\n      jump\t// in\n    tag_292:\n        /* \"ifb-new.sol\":1798:1821  owner() == _msgSender() */\n      0xffffffffffffffffffffffffffffffffffffffff\n      and\n      eq\n        /* \"ifb-new.sol\":1790:1858  require(owner() == _msgSender(), \"Ownable: caller is not the owner\") */\n      tag_293\n      jumpi\n      mload(0x40)\n      0x08c379a000000000000000000000000000000000000000000000000000000000\n      dup2\n      mstore\n      0x04\n      add\n      tag_294\n      swap1\n      tag_214\n      jump\t// in\n    tag_294:\n      mload(0x40)\n      dup1\n      swap2\n      sub\n      swap1\n      revert\n    tag_293:\n        /* \"ifb-new.sol\":11672:11690  uint256 burnAmount */\n      0x00\n        /* \"ifb-new.sol\":11743:11748  10000 */\n      0x2710\n        /* \"ifb-new.sol\":11721:11739  monthlyBurnPercent */\n      sload(0x0c)\n        /* \"ifb-new.sol\":11694:11718  balanceOf(address(this)) */\n      tag_296\n        /* \"ifb-new.sol\":11712:11716  this */\n      address\n        /* \"ifb-new.sol\":11694:11703  balanceOf */\n      tag_121\n        /* \"ifb-new.sol\":11694:11718  balanceOf(address(this)) */\n      jump\t// in\n    tag_296:\n        /* \"ifb-new.sol\":11694:11739  balanceOf(address(this)) * monthlyBurnPercent */\n      tag_297\n      swap2\n      swap1\n      tag_298\n      jump\t// in\n    tag_297:\n        /* \"ifb-new.sol\":11693:11748  (balanceOf(address(this)) * monthlyBurnPercent) / 10000 */\n      tag_299\n      swap2\n      swap1\n      tag_300\n      jump\t// in\n    tag_299:\n        /* \"ifb-new.sol\":11672:11748  uint256 burnAmount = (balanceOf(address(this)) * monthlyBurnPercent) / 10000 */\n      swap1\n      pop\n        /* \"ifb-new.sol\":11759:11791  _burn(address(this), burnAmount) */\n      tag_301\n        /* \"ifb-new.sol\":11773:11777  this */\n      address\n        /* \"ifb-new.sol\":11780:11790  burnAmount */\n      dup3\n        /* \"ifb-new.sol\":11759:11764  _burn */\n      tag_227\n        /* \"ifb-new.sol\":11759:11791  _burn(address(this), burnAmount) */\n      jump\t// in\n    tag_301:\n        /* \"ifb-new.sol\":11807:11831  TokensBurned(burnAmount) */\n      0x6ef4855b666dcc7884561072e4358b28dfe01feb1b7f4dcebc00e62d50394ac7\n        /* \"ifb-new.sol\":11820:11830  burnAmount */\n      dup2\n        /* \"ifb-new.sol\":11807:11831  TokensBurned(burnAmount) */\n      mload(0x40)\n      tag_302\n      swap2\n      swap1\n      tag_57\n      jump\t// in\n    tag_302:\n      mload(0x40)\n      dup1\n      swap2\n      sub\n      swap1\n      log1\n        /* \"ifb-new.sol\":11661:11839  {... */\n      pop\n        /* \"ifb-new.sol\":11621:11839  function burnMonthly() public onlyOwner {... */\n      jump\t// out\n        /* \"ifb-new.sol\":4733:4875  function allowance(address owner, address spender) public view virtual returns (uint256) {... */\n    tag_165:\n        /* \"ifb-new.sol\":4813:4820  uint256 */\n      0x00\n        /* \"ifb-new.sol\":4840:4851  _allowances */\n      0x02\n        /* \"ifb-new.sol\":4840:4858  _allowances[owner] */\n      0x00\n        /* \"ifb-new.sol\":4852:4857  owner */\n      dup5\n        /* \"ifb-new.sol\":4840:4858  _allowances[owner] */\n      0xffffffffffffffffffffffffffffffffffffffff\n      and\n      0xffffffffffffffffffffffffffffffffffffffff\n      and\n      dup2\n      mstore\n      0x20\n      add\n      swap1\n      dup2\n      mstore\n      0x20\n      add\n      0x00\n      keccak256\n        /* \"ifb-new.sol\":4840:4867  _allowances[owner][spender] */\n      0x00\n        /* \"ifb-new.sol\":4859:4866  spender */\n      dup4\n        /* \"ifb-new.sol\":4840:4867  _allowances[owner][spender] */\n      0xffffffffffffffffffffffffffffffffffffffff\n      and\n      0xffffffffffffffffffffffffffffffffffffffff\n      and\n      dup2\n      mstore\n      0x20\n      add\n      swap1\n      dup2\n      mstore\n      0x20\n      add\n      0x00\n      keccak256\n      sload\n        /* \"ifb-new.sol\":4833:4867  return _allowances[owner][spender] */\n      swap1\n      pop\n        /* \"ifb-new.sol\":4733:4875  function allowance(address owner, address spender) public view virtual returns (uint256) {... */\n      swap3\n      swap2\n      pop\n      pop\n      jump\t// out\n        /* \"ifb-new.sol\":11979:12100  function setKycStatus(address account, bool verified) public onlyOwner {... */\n    tag_169:\n        /* \"ifb-new.sol\":1809:1821  _msgSender() */\n      tag_305\n        /* \"ifb-new.sol\":1809:1819  _msgSender */\n      tag_196\n        /* \"ifb-new.sol\":1809:1821  _msgSender() */\n      jump\t// in\n    tag_305:\n        /* \"ifb-new.sol\":1798:1821  owner() == _msgSender() */\n      0xffffffffffffffffffffffffffffffffffffffff\n      and\n        /* \"ifb-new.sol\":1798:1805  owner() */\n      tag_306\n        /* \"ifb-new.sol\":1798:1803  owner */\n      tag_141\n        /* \"ifb-new.sol\":1798:1805  owner() */\n      jump\t// in\n    tag_306:\n        /* \"ifb-new.sol\":1798:1821  owner() == _msgSender() */\n      0xffffffffffffffffffffffffffffffffffffffff\n      and\n      eq\n        /* \"ifb-new.sol\":1790:1858  require(owner() == _msgSender(), \"Ownable: caller is not the owner\") */\n      tag_307\n      jumpi\n      mload(0x40)\n      0x08c379a000000000000000000000000000000000000000000000000000000000\n      dup2\n      mstore\n      0x04\n      add\n      tag_308\n      swap1\n      tag_214\n      jump\t// in\n    tag_308:\n      mload(0x40)\n      dup1\n      swap2\n      sub\n      swap1\n      revert\n    tag_307:\n        /* \"ifb-new.sol\":12084:12092  verified */\n      dup1\n        /* \"ifb-new.sol\":12061:12072  kycVerified */\n      0x13\n        /* \"ifb-new.sol\":12061:12081  kycVerified[account] */\n      0x00\n        /* \"ifb-new.sol\":12073:12080  account */\n      dup5\n        /* \"ifb-new.sol\":12061:12081  kycVerified[account] */\n      0xffffffffffffffffffffffffffffffffffffffff\n      and\n      0xffffffffffffffffffffffffffffffffffffffff\n      and\n      dup2\n      mstore\n      0x20\n      add\n      swap1\n      dup2\n      mstore\n      0x20\n      add\n      0x00\n      keccak256\n      0x00\n        /* \"ifb-new.sol\":12061:12092  kycVerified[account] = verified */\n      0x0100\n      exp\n      dup2\n      sload\n      dup2\n      0xff\n      mul\n      not\n      and\n      swap1\n      dup4\n      iszero\n      iszero\n      mul\n      or\n      swap1\n      sstore\n      pop\n        /* \"ifb-new.sol\":11979:12100  function setKycStatus(address account, bool verified) public onlyOwner {... */\n      pop\n      pop\n      jump\t// out\n        /* \"ifb-new.sol\":1981:2182  function transferOwnership(address newOwner) public virtual onlyOwner {... */\n    tag_172:\n        /* \"ifb-new.sol\":1809:1821  _msgSender() */\n      tag_311\n        /* \"ifb-new.sol\":1809:1819  _msgSender */\n      tag_196\n        /* \"ifb-new.sol\":1809:1821  _msgSender() */\n      jump\t// in\n    tag_311:\n        /* \"ifb-new.sol\":1798:1821  owner() == _msgSender() */\n      0xffffffffffffffffffffffffffffffffffffffff\n      and\n        /* \"ifb-new.sol\":1798:1805  owner() */\n      tag_312\n        /* \"ifb-new.sol\":1798:1803  owner */\n      tag_141\n        /* \"ifb-new.sol\":1798:1805  owner() */\n      jump\t// in\n    tag_312:\n        /* \"ifb-new.sol\":1798:1821  owner() == _msgSender() */\n      0xffffffffffffffffffffffffffffffffffffffff\n      and\n      eq\n        /* \"ifb-new.sol\":1790:1858  require(owner() == _msgSender(), \"Ownable: caller is not the owner\") */\n      tag_313\n      jumpi\n      mload(0x40)\n      0x08c379a000000000000000000000000000000000000000000000000000000000\n      dup2\n      mstore\n      0x04\n      add\n      tag_314\n      swap1\n      tag_214\n      jump\t// in\n    tag_314:\n      mload(0x40)\n      dup1\n      swap2\n      sub\n      swap1\n      revert\n    tag_313:\n        /* \"ifb-new.sol\":2090:2091  0 */\n      0x00\n        /* \"ifb-new.sol\":2070:2092  newOwner != address(0) */\n      0xffffffffffffffffffffffffffffffffffffffff\n      and\n        /* \"ifb-new.sol\":2070:2078  newOwner */\n      dup2\n        /* \"ifb-new.sol\":2070:2092  newOwner != address(0) */\n      0xffffffffffffffffffffffffffffffffffffffff\n      and\n      sub\n        /* \"ifb-new.sol\":2062:2135  require(newOwner != address(0), \"Ownable: new owner is the zero address\") */\n      tag_316\n      jumpi\n      mload(0x40)\n      0x08c379a000000000000000000000000000000000000000000000000000000000\n      dup2\n      mstore\n      0x04\n      add\n      tag_317\n      swap1\n      tag_318\n      jump\t// in\n    tag_317:\n      mload(0x40)\n      dup1\n      swap2\n      sub\n      swap1\n      revert\n    tag_316:\n        /* \"ifb-new.sol\":2146:2174  _transferOwnership(newOwner) */\n      tag_319\n        /* \"ifb-new.sol\":2165:2173  newOwner */\n      dup2\n        /* \"ifb-new.sol\":2146:2164  _transferOwnership */\n      tag_320\n        /* \"ifb-new.sol\":2146:2174  _transferOwnership(newOwner) */\n      jump\t// in\n    tag_319:\n        /* \"ifb-new.sol\":1981:2182  function transferOwnership(address newOwner) public virtual onlyOwner {... */\n      pop\n      jump\t// out\n        /* \"ifb-new.sol\":8525:8559  uint256 public quorumPercent = 500 */\n    tag_174:\n      sload(0x11)\n      dup2\n      jump\t// out\n        /* \"ifb-new.sol\":11011:11155  function blacklist(address account) public onlyOwner {... */\n    tag_178:\n        /* \"ifb-new.sol\":1809:1821  _msgSender() */\n      tag_322\n        /* \"ifb-new.sol\":1809:1819  _msgSender */\n      tag_196\n        /* \"ifb-new.sol\":1809:1821  _msgSender() */\n      jump\t// in\n    tag_322:\n        /* \"ifb-new.sol\":1798:1821  owner() == _msgSender() */\n      0xffffffffffffffffffffffffffffffffffffffff\n      and\n        /* \"ifb-new.sol\":1798:1805  owner() */\n      tag_323\n        /* \"ifb-new.sol\":1798:1803  owner */\n      tag_141\n        /* \"ifb-new.sol\":1798:1805  owner() */\n      jump\t// in\n    tag_323:\n        /* \"ifb-new.sol\":1798:1821  owner() == _msgSender() */\n      0xffffffffffffffffffffffffffffffffffffffff\n      and\n      eq\n        /* \"ifb-new.sol\":1790:1858  require(owner() == _msgSender(), \"Ownable: caller is not the owner\") */\n      tag_324\n      jumpi\n      mload(0x40)\n      0x08c379a000000000000000000000000000000000000000000000000000000000\n      dup2\n      mstore\n      0x04\n      add\n      tag_325\n      swap1\n      tag_214\n      jump\t// in\n    tag_325:\n      mload(0x40)\n      dup1\n      swap2\n      sub\n      swap1\n      revert\n    tag_324:\n        /* \"ifb-new.sol\":11100:11104  true */\n      0x01\n        /* \"ifb-new.sol\":11075:11088  isBlacklisted */\n      0x12\n        /* \"ifb-new.sol\":11075:11097  isBlacklisted[account] */\n      0x00\n        /* \"ifb-new.sol\":11089:11096  account */\n      dup4\n        /* \"ifb-new.sol\":11075:11097  isBlacklisted[account] */\n      0xffffffffffffffffffffffffffffffffffffffff\n      and\n      0xffffffffffffffffffffffffffffffffffffffff\n      and\n      dup2\n      mstore\n      0x20\n      add\n      swap1\n      dup2\n      mstore\n      0x20\n      add\n      0x00\n      keccak256\n      0x00\n        /* \"ifb-new.sol\":11075:11104  isBlacklisted[account] = true */\n      0x0100\n      exp\n      dup2\n      sload\n      dup2\n      0xff\n      mul\n      not\n      and\n      swap1\n      dup4\n      iszero\n      iszero\n      mul\n      or\n      swap1\n      sstore\n      pop\n        /* \"ifb-new.sol\":11139:11146  account */\n      dup1\n        /* \"ifb-new.sol\":11120:11147  AddressBlacklisted(account) */\n      0xffffffffffffffffffffffffffffffffffffffff\n      and\n      0xdaf49ab9345b6cb75bcb5a7f726bff9183c34dcf5c098c385730f9fd893765f6\n      mload(0x40)\n      mload(0x40)\n      dup1\n      swap2\n      sub\n      swap1\n      log2\n        /* \"ifb-new.sol\":11011:11155  function blacklist(address account) public onlyOwner {... */\n      pop\n      jump\t// out\n        /* \"ifb-new.sol\":11495:11613  function setMonthlyBurnPercent(uint256 newPercent) public onlyOwner {... */\n    tag_181:\n        /* \"ifb-new.sol\":1809:1821  _msgSender() */\n      tag_328\n        /* \"ifb-new.sol\":1809:1819  _msgSender */\n      tag_196\n        /* \"ifb-new.sol\":1809:1821  _msgSender() */\n      jump\t// in\n    tag_328:\n        /* \"ifb-new.sol\":1798:1821  owner() == _msgSender() */\n      0xffffffffffffffffffffffffffffffffffffffff\n      and\n        /* \"ifb-new.sol\":1798:1805  owner() */\n      tag_329\n        /* \"ifb-new.sol\":1798:1803  owner */\n      tag_141\n        /* \"ifb-new.sol\":1798:1805  owner() */\n      jump\t// in\n    tag_329:\n        /* \"ifb-new.sol\":1798:1821  owner() == _msgSender() */\n      0xffffffffffffffffffffffffffffffffffffffff\n      and\n      eq\n        /* \"ifb-new.sol\":1790:1858  require(owner() == _msgSender(), \"Ownable: caller is not the owner\") */\n      tag_330\n      jumpi\n      mload(0x40)\n      0x08c379a000000000000000000000000000000000000000000000000000000000\n      dup2\n      mstore\n      0x04\n      add\n      tag_331\n      swap1\n      tag_214\n      jump\t// in\n    tag_331:\n      mload(0x40)\n      dup1\n      swap2\n      sub\n      swap1\n      revert\n    tag_330:\n        /* \"ifb-new.sol\":11595:11605  newPercent */\n      dup1\n        /* \"ifb-new.sol\":11574:11592  monthlyBurnPercent */\n      0x0c\n        /* \"ifb-new.sol\":11574:11605  monthlyBurnPercent = newPercent */\n      dup2\n      swap1\n      sstore\n      pop\n        /* \"ifb-new.sol\":11495:11613  function setMonthlyBurnPercent(uint256 newPercent) public onlyOwner {... */\n      pop\n      jump\t// out\n        /* \"ifb-new.sol\":8566:8611  mapping(address => bool) public isBlacklisted */\n    tag_184:\n      mstore(0x20, 0x12)\n      dup1\n      0x00\n      mstore\n      keccak256(0x00, 0x40)\n      0x00\n      swap2\n      pop\n      sload\n      swap1\n      0x0100\n      exp\n      swap1\n      div\n      0xff\n      and\n      dup2\n      jump\t// out\n        /* \"ifb-new.sol\":1130:1228  function _msgSender() internal view virtual returns (address) {... */\n    tag_196:\n        /* \"ifb-new.sol\":1183:1190  address */\n      0x00\n        /* \"ifb-new.sol\":1210:1220  msg.sender */\n      caller\n        /* \"ifb-new.sol\":1203:1220  return msg.sender */\n      swap1\n      pop\n        /* \"ifb-new.sol\":1130:1228  function _msgSender() internal view virtual returns (address) {... */\n      swap1\n      jump\t// out\n        /* \"ifb-new.sol\":6457:6729  function _approve(address owner, address spender, uint256 amount) internal virtual {... */\n    tag_197:\n        /* \"ifb-new.sol\":6576:6577  0 */\n      0x00\n        /* \"ifb-new.sol\":6559:6578  owner != address(0) */\n      0xffffffffffffffffffffffffffffffffffffffff\n      and\n        /* \"ifb-new.sol\":6559:6564  owner */\n      dup4\n        /* \"ifb-new.sol\":6559:6578  owner != address(0) */\n      0xffffffffffffffffffffffffffffffffffffffff\n      and\n      sub\n        /* \"ifb-new.sol\":6551:6607  require(owner != address(0), \"ERC20: approve from zero\") */\n      tag_335\n      jumpi\n      mload(0x40)\n      0x08c379a000000000000000000000000000000000000000000000000000000000\n      dup2\n      mstore\n      0x04\n      add\n      tag_336\n      swap1\n      tag_337\n      jump\t// in\n    tag_336:\n      mload(0x40)\n      dup1\n      swap2\n      sub\n      swap1\n      revert\n    tag_335:\n        /* \"ifb-new.sol\":6645:6646  0 */\n      0x00\n        /* \"ifb-new.sol\":6626:6647  spender != address(0) */\n      0xffffffffffffffffffffffffffffffffffffffff\n      and\n        /* \"ifb-new.sol\":6626:6633  spender */\n      dup3\n        /* \"ifb-new.sol\":6626:6647  spender != address(0) */\n      0xffffffffffffffffffffffffffffffffffffffff\n      and\n      sub\n        /* \"ifb-new.sol\":6618:6674  require(spender != address(0), \"ERC20: approve to zero\") */\n      tag_338\n      jumpi\n      mload(0x40)\n      0x08c379a000000000000000000000000000000000000000000000000000000000\n      dup2\n      mstore\n      0x04\n      add\n      tag_339\n      swap1\n      tag_340\n      jump\t// in\n    tag_339:\n      mload(0x40)\n      dup1\n      swap2\n      sub\n      swap1\n      revert\n    tag_338:\n        /* \"ifb-new.sol\":6715:6721  amount */\n      dup1\n        /* \"ifb-new.sol\":6685:6696  _allowances */\n      0x02\n        /* \"ifb-new.sol\":6685:6703  _allowances[owner] */\n      0x00\n        /* \"ifb-new.sol\":6697:6702  owner */\n      dup6\n        /* \"ifb-new.sol\":6685:6703  _allowances[owner] */\n      0xffffffffffffffffffffffffffffffffffffffff\n      and\n      0xffffffffffffffffffffffffffffffffffffffff\n      and\n      dup2\n      mstore\n      0x20\n      add\n      swap1\n      dup2\n      mstore\n      0x20\n      add\n      0x00\n      keccak256\n        /* \"ifb-new.sol\":6685:6712  _allowances[owner][spender] */\n      0x00\n        /* \"ifb-new.sol\":6704:6711  spender */\n      dup5\n        /* \"ifb-new.sol\":6685:6712  _allowances[owner][spender] */\n      0xffffffffffffffffffffffffffffffffffffffff\n      and\n      0xffffffffffffffffffffffffffffffffffffffff\n      and\n      dup2\n      mstore\n      0x20\n      add\n      swap1\n      dup2\n      mstore\n      0x20\n      add\n      0x00\n      keccak256\n        /* \"ifb-new.sol\":6685:6721  _allowances[owner][spender] = amount */\n      dup2\n      swap1\n      sstore\n      pop\n        /* \"ifb-new.sol\":6457:6729  function _approve(address owner, address spender, uint256 amount) internal virtual {... */\n      pop\n      pop\n      pop\n      jump\t// out\n        /* \"ifb-new.sol\":9509:9689  function _transfer(address from, address to, uint256 amount) internal override {... */\n    tag_207:\n        /* \"ifb-new.sol\":9599:9637  _beforeTokenTransfer(from, to, amount) */\n      tag_342\n        /* \"ifb-new.sol\":9620:9624  from */\n      dup4\n        /* \"ifb-new.sol\":9626:9628  to */\n      dup4\n        /* \"ifb-new.sol\":9630:9636  amount */\n      dup4\n        /* \"ifb-new.sol\":9599:9619  _beforeTokenTransfer */\n      tag_343\n        /* \"ifb-new.sol\":9599:9637  _beforeTokenTransfer(from, to, amount) */\n      jump\t// in\n    tag_342:\n        /* \"ifb-new.sol\":9648:9681  super._transfer(from, to, amount) */\n      tag_344\n        /* \"ifb-new.sol\":9664:9668  from */\n      dup4\n        /* \"ifb-new.sol\":9670:9672  to */\n      dup4\n        /* \"ifb-new.sol\":9674:9680  amount */\n      dup4\n        /* \"ifb-new.sol\":9648:9663  super._transfer */\n      tag_345\n        /* \"ifb-new.sol\":9648:9681  super._transfer(from, to, amount) */\n      jump\t// in\n    tag_344:\n        /* \"ifb-new.sol\":9509:9689  function _transfer(address from, address to, uint256 amount) internal override {... */\n      pop\n      pop\n      pop\n      jump\t// out\n        /* \"ifb-new.sol\":3174:3294  function _unpause() internal virtual whenPaused {... */\n    tag_223:\n        /* \"ifb-new.sol\":2893:2901  paused() */\n      tag_347\n        /* \"ifb-new.sol\":2893:2899  paused */\n      tag_112\n        /* \"ifb-new.sol\":2893:2901  paused() */\n      jump\t// in\n    tag_347:\n        /* \"ifb-new.sol\":2885:2926  require(paused(), \"Pausable: not paused\") */\n      tag_348\n      jumpi\n      mload(0x40)\n      0x08c379a000000000000000000000000000000000000000000000000000000000\n      dup2\n      mstore\n      0x04\n      add\n      tag_349\n      swap1\n      tag_350\n      jump\t// in\n    tag_349:\n      mload(0x40)\n      dup1\n      swap2\n      sub\n      swap1\n      revert\n    tag_348:\n        /* \"ifb-new.sol\":3243:3248  false */\n      0x00\n        /* \"ifb-new.sol\":3233:3240  _paused */\n      0x06\n      0x00\n        /* \"ifb-new.sol\":3233:3248  _paused = false */\n      0x0100\n      exp\n      dup2\n      sload\n      dup2\n      0xff\n      mul\n      not\n      and\n      swap1\n      dup4\n      iszero\n      iszero\n      mul\n      or\n      swap1\n      sstore\n      pop\n        /* \"ifb-new.sol\":3264:3286  Unpaused(_msgSender()) */\n      0x5db9ee0a495bf2e6ff9c91a7834c1ba4fdd244a5e8aa4e537bd38aeae4b073aa\n        /* \"ifb-new.sol\":3273:3285  _msgSender() */\n      tag_352\n        /* \"ifb-new.sol\":3273:3283  _msgSender */\n      tag_196\n        /* \"ifb-new.sol\":3273:3285  _msgSender() */\n      jump\t// in\n    tag_352:\n        /* \"ifb-new.sol\":3264:3286  Unpaused(_msgSender()) */\n      mload(0x40)\n      tag_353\n      swap2\n      swap1\n      tag_117\n      jump\t// in\n    tag_353:\n      mload(0x40)\n      dup1\n      swap2\n      sub\n      swap1\n      log1\n        /* \"ifb-new.sol\":3174:3294  function _unpause() internal virtual whenPaused {... */\n      jump\t// out\n        /* \"ifb-new.sol\":6057:6449  function _burn(address account, uint256 amount) internal virtual {... */\n    tag_227:\n        /* \"ifb-new.sol\":6160:6161  0 */\n      0x00\n        /* \"ifb-new.sol\":6141:6162  account != address(0) */\n      0xffffffffffffffffffffffffffffffffffffffff\n      and\n        /* \"ifb-new.sol\":6141:6148  account */\n      dup3\n        /* \"ifb-new.sol\":6141:6162  account != address(0) */\n      0xffffffffffffffffffffffffffffffffffffffff\n      and\n      sub\n        /* \"ifb-new.sol\":6133:6188  require(account != address(0), \"ERC20: burn from zero\") */\n      tag_355\n      jumpi\n      mload(0x40)\n      0x08c379a000000000000000000000000000000000000000000000000000000000\n      dup2\n      mstore\n      0x04\n      add\n      tag_356\n      swap1\n      tag_357\n      jump\t// in\n    tag_356:\n      mload(0x40)\n      dup1\n      swap2\n      sub\n      swap1\n      revert\n    tag_355:\n        /* \"ifb-new.sol\":6199:6221  uint256 accountBalance */\n      0x00\n        /* \"ifb-new.sol\":6224:6233  _balances */\n      0x01\n        /* \"ifb-new.sol\":6224:6242  _balances[account] */\n      0x00\n        /* \"ifb-new.sol\":6234:6241  account */\n      dup5\n        /* \"ifb-new.sol\":6224:6242  _balances[account] */\n      0xffffffffffffffffffffffffffffffffffffffff\n      and\n      0xffffffffffffffffffffffffffffffffffffffff\n      and\n      dup2\n      mstore\n      0x20\n      add\n      swap1\n      dup2\n      mstore\n      0x20\n      add\n      0x00\n      keccak256\n      sload\n        /* \"ifb-new.sol\":6199:6242  uint256 accountBalance = _balances[account] */\n      swap1\n      pop\n        /* \"ifb-new.sol\":6279:6285  amount */\n      dup2\n        /* \"ifb-new.sol\":6261:6275  accountBalance */\n      dup2\n        /* \"ifb-new.sol\":6261:6285  accountBalance >= amount */\n      lt\n      iszero\n        /* \"ifb-new.sol\":6253:6317  require(accountBalance >= amount, \"ERC20: burn exceeds balance\") */\n      tag_358\n      jumpi\n      mload(0x40)\n      0x08c379a000000000000000000000000000000000000000000000000000000000\n      dup2\n      mstore\n      0x04\n      add\n      tag_359\n      swap1\n      tag_360\n      jump\t// in\n    tag_359:\n      mload(0x40)\n      dup1\n      swap2\n      sub\n      swap1\n      revert\n    tag_358:\n        /* \"ifb-new.sol\":6391:6397  amount */\n      dup2\n        /* \"ifb-new.sol\":6374:6388  accountBalance */\n      dup2\n        /* \"ifb-new.sol\":6374:6397  accountBalance - amount */\n      sub\n        /* \"ifb-new.sol\":6353:6362  _balances */\n      0x01\n        /* \"ifb-new.sol\":6353:6371  _balances[account] */\n      0x00\n        /* \"ifb-new.sol\":6363:6370  account */\n      dup6\n        /* \"ifb-new.sol\":6353:6371  _balances[account] */\n      0xffffffffffffffffffffffffffffffffffffffff\n      and\n      0xffffffffffffffffffffffffffffffffffffffff\n      and\n      dup2\n      mstore\n      0x20\n      add\n      swap1\n      dup2\n      mstore\n      0x20\n      add\n      0x00\n      keccak256\n        /* \"ifb-new.sol\":6353:6397  _balances[account] = accountBalance - amount */\n      dup2\n      swap1\n      sstore\n      pop\n        /* \"ifb-new.sol\":6435:6441  amount */\n      dup2\n        /* \"ifb-new.sol\":6419:6431  _totalSupply */\n      0x03\n      0x00\n        /* \"ifb-new.sol\":6419:6441  _totalSupply -= amount */\n      dup3\n      dup3\n      sload\n      tag_361\n      swap2\n      swap1\n      tag_362\n      jump\t// in\n    tag_361:\n      swap3\n      pop\n      pop\n      dup2\n      swap1\n      sstore\n      pop\n        /* \"ifb-new.sol\":6122:6449  {... */\n      pop\n        /* \"ifb-new.sol\":6057:6449  function _burn(address account, uint256 amount) internal virtual {... */\n      pop\n      pop\n      jump\t// out\n        /* \"ifb-new.sol\":3651:3830  function __ERC20_init(string memory name_, string memory symbol_) internal onlyInitializing {... */\n    tag_236:\n        /* \"ifb-new.sol\":772:785  _initializing */\n      0x00\n      0x01\n      swap1\n      sload\n      swap1\n      0x0100\n      exp\n      swap1\n      div\n      0xff\n      and\n        /* \"ifb-new.sol\":764:833  require(_initializing, \"Initializable: contract is not initializing\") */\n      tag_364\n      jumpi\n      mload(0x40)\n      0x08c379a000000000000000000000000000000000000000000000000000000000\n      dup2\n      mstore\n      0x04\n      add\n      tag_365\n      swap1\n      tag_366\n      jump\t// in\n    tag_365:\n      mload(0x40)\n      dup1\n      swap2\n      sub\n      swap1\n      revert\n    tag_364:\n        /* \"ifb-new.sol\":3754:3770  __Context_init() */\n      tag_368\n        /* \"ifb-new.sol\":3754:3768  __Context_init */\n      tag_369\n        /* \"ifb-new.sol\":3754:3770  __Context_init() */\n      jump\t// in\n    tag_368:\n        /* \"ifb-new.sol\":3789:3794  name_ */\n      dup2\n        /* \"ifb-new.sol\":3781:3786  _name */\n      0x04\n        /* \"ifb-new.sol\":3781:3794  _name = name_ */\n      swap1\n      dup2\n      tag_370\n      swap2\n      swap1\n      tag_371\n      jump\t// in\n    tag_370:\n      pop\n        /* \"ifb-new.sol\":3815:3822  symbol_ */\n      dup1\n        /* \"ifb-new.sol\":3805:3812  _symbol */\n      0x05\n        /* \"ifb-new.sol\":3805:3822  _symbol = symbol_ */\n      swap1\n      dup2\n      tag_372\n      swap2\n      swap1\n      tag_371\n      jump\t// in\n    tag_372:\n      pop\n        /* \"ifb-new.sol\":3651:3830  function __ERC20_init(string memory name_, string memory symbol_) internal onlyInitializing {... */\n      pop\n      pop\n      jump\t// out\n        /* \"ifb-new.sol\":6879:6939  function __ERC20Burnable_init() internal onlyInitializing {} */\n    tag_238:\n        /* \"ifb-new.sol\":772:785  _initializing */\n      0x00\n      0x01\n      swap1\n      sload\n      swap1\n      0x0100\n      exp\n      swap1\n      div\n      0xff\n      and\n        /* \"ifb-new.sol\":764:833  require(_initializing, \"Initializable: contract is not initializing\") */\n      tag_374\n      jumpi\n      mload(0x40)\n      0x08c379a000000000000000000000000000000000000000000000000000000000\n      dup2\n      mstore\n      0x04\n      add\n      tag_375\n      swap1\n      tag_366\n      jump\t// in\n    tag_375:\n      mload(0x40)\n      dup1\n      swap2\n      sub\n      swap1\n      revert\n    tag_374:\n        /* \"ifb-new.sol\":6879:6939  function __ERC20Burnable_init() internal onlyInitializing {} */\n      jump\t// out\n        /* \"ifb-new.sol\":2628:2742  function __Pausable_init() internal onlyInitializing {... */\n    tag_240:\n        /* \"ifb-new.sol\":772:785  _initializing */\n      0x00\n      0x01\n      swap1\n      sload\n      swap1\n      0x0100\n      exp\n      swap1\n      div\n      0xff\n      and\n        /* \"ifb-new.sol\":764:833  require(_initializing, \"Initializable: contract is not initializing\") */\n      tag_378\n      jumpi\n      mload(0x40)\n      0x08c379a000000000000000000000000000000000000000000000000000000000\n      dup2\n      mstore\n      0x04\n      add\n      tag_379\n      swap1\n      tag_366\n      jump\t// in\n    tag_379:\n      mload(0x40)\n      dup1\n      swap2\n      sub\n      swap1\n      revert\n    tag_378:\n        /* \"ifb-new.sol\":2692:2708  __Context_init() */\n      tag_381\n        /* \"ifb-new.sol\":2692:2706  __Context_init */\n      tag_369\n        /* \"ifb-new.sol\":2692:2708  __Context_init() */\n      jump\t// in\n    tag_381:\n        /* \"ifb-new.sol\":2729:2734  false */\n      0x00\n        /* \"ifb-new.sol\":2719:2726  _paused */\n      0x06\n      0x00\n        /* \"ifb-new.sol\":2719:2734  _paused = false */\n      0x0100\n      exp\n      dup2\n      sload\n      dup2\n      0xff\n      mul\n      not\n      and\n      swap1\n      dup4\n      iszero\n      iszero\n      mul\n      or\n      swap1\n      sstore\n      pop\n        /* \"ifb-new.sol\":2628:2742  function __Pausable_init() internal onlyInitializing {... */\n      jump\t// out\n        /* \"ifb-new.sol\":1600:1750  function __Ownable_init(address initialOwner) internal onlyInitializing {... */\n    tag_242:\n        /* \"ifb-new.sol\":772:785  _initializing */\n      0x00\n      0x01\n      swap1\n      sload\n      swap1\n      0x0100\n      exp\n      swap1\n      div\n      0xff\n      and\n        /* \"ifb-new.sol\":764:833  require(_initializing, \"Initializable: contract is not initializing\") */\n      tag_383\n      jumpi\n      mload(0x40)\n      0x08c379a000000000000000000000000000000000000000000000000000000000\n      dup2\n      mstore\n      0x04\n      add\n      tag_384\n      swap1\n      tag_366\n      jump\t// in\n    tag_384:\n      mload(0x40)\n      dup1\n      swap2\n      sub\n      swap1\n      revert\n    tag_383:\n        /* \"ifb-new.sol\":1683:1699  __Context_init() */\n      tag_386\n        /* \"ifb-new.sol\":1683:1697  __Context_init */\n      tag_369\n        /* \"ifb-new.sol\":1683:1699  __Context_init() */\n      jump\t// in\n    tag_386:\n        /* \"ifb-new.sol\":1710:1742  _transferOwnership(initialOwner) */\n      tag_387\n        /* \"ifb-new.sol\":1729:1741  initialOwner */\n      dup2\n        /* \"ifb-new.sol\":1710:1728  _transferOwnership */\n      tag_320\n        /* \"ifb-new.sol\":1710:1742  _transferOwnership(initialOwner) */\n      jump\t// in\n    tag_387:\n        /* \"ifb-new.sol\":1600:1750  function __Ownable_init(address initialOwner) internal onlyInitializing {... */\n      pop\n      jump\t// out\n        /* \"ifb-new.sol\":5840:6049  function _mint(address account, uint256 amount) internal virtual {... */\n    tag_244:\n        /* \"ifb-new.sol\":5943:5944  0 */\n      0x00\n        /* \"ifb-new.sol\":5924:5945  account != address(0) */\n      0xffffffffffffffffffffffffffffffffffffffff\n      and\n        /* \"ifb-new.sol\":5924:5931  account */\n      dup3\n        /* \"ifb-new.sol\":5924:5945  account != address(0) */\n      0xffffffffffffffffffffffffffffffffffffffff\n      and\n      sub\n        /* \"ifb-new.sol\":5916:5969  require(account != address(0), \"ERC20: mint to zero\") */\n      tag_389\n      jumpi\n      mload(0x40)\n      0x08c379a000000000000000000000000000000000000000000000000000000000\n      dup2\n      mstore\n      0x04\n      add\n      tag_390\n      swap1\n      tag_391\n      jump\t// in\n    tag_390:\n      mload(0x40)\n      dup1\n      swap2\n      sub\n      swap1\n      revert\n    tag_389:\n        /* \"ifb-new.sol\":5996:6002  amount */\n      dup1\n        /* \"ifb-new.sol\":5980:5992  _totalSupply */\n      0x03\n      0x00\n        /* \"ifb-new.sol\":5980:6002  _totalSupply += amount */\n      dup3\n      dup3\n      sload\n      tag_392\n      swap2\n      swap1\n      tag_393\n      jump\t// in\n    tag_392:\n      swap3\n      pop\n      pop\n      dup2\n      swap1\n      sstore\n      pop\n        /* \"ifb-new.sol\":6035:6041  amount */\n      dup1\n        /* \"ifb-new.sol\":6013:6022  _balances */\n      0x01\n        /* \"ifb-new.sol\":6013:6031  _balances[account] */\n      0x00\n        /* \"ifb-new.sol\":6023:6030  account */\n      dup5\n        /* \"ifb-new.sol\":6013:6031  _balances[account] */\n      0xffffffffffffffffffffffffffffffffffffffff\n      and\n      0xffffffffffffffffffffffffffffffffffffffff\n      and\n      dup2\n      mstore\n      0x20\n      add\n      swap1\n      dup2\n      mstore\n      0x20\n      add\n      0x00\n      keccak256\n      0x00\n        /* \"ifb-new.sol\":6013:6041  _balances[account] += amount */\n      dup3\n      dup3\n      sload\n      tag_394\n      swap2\n      swap1\n      tag_393\n      jump\t// in\n    tag_394:\n      swap3\n      pop\n      pop\n      dup2\n      swap1\n      sstore\n      pop\n        /* \"ifb-new.sol\":5840:6049  function _mint(address account, uint256 amount) internal virtual {... */\n      pop\n      pop\n      jump\t// out\n        /* \"ifb-new.sol\":3048:3166  function _pause() internal virtual whenNotPaused {... */\n    tag_270:\n        /* \"ifb-new.sol\":2795:2803  paused() */\n      tag_396\n        /* \"ifb-new.sol\":2795:2801  paused */\n      tag_112\n        /* \"ifb-new.sol\":2795:2803  paused() */\n      jump\t// in\n    tag_396:\n        /* \"ifb-new.sol\":2794:2803  !paused() */\n      iszero\n        /* \"ifb-new.sol\":2786:2824  require(!paused(), \"Pausable: paused\") */\n      tag_397\n      jumpi\n      mload(0x40)\n      0x08c379a000000000000000000000000000000000000000000000000000000000\n      dup2\n      mstore\n      0x04\n      add\n      tag_398\n      swap1\n      tag_399\n      jump\t// in\n    tag_398:\n      mload(0x40)\n      dup1\n      swap2\n      sub\n      swap1\n      revert\n    tag_397:\n        /* \"ifb-new.sol\":3118:3122  true */\n      0x01\n        /* \"ifb-new.sol\":3108:3115  _paused */\n      0x06\n      0x00\n        /* \"ifb-new.sol\":3108:3122  _paused = true */\n      0x0100\n      exp\n      dup2\n      sload\n      dup2\n      0xff\n      mul\n      not\n      and\n      swap1\n      dup4\n      iszero\n      iszero\n      mul\n      or\n      swap1\n      sstore\n      pop\n        /* \"ifb-new.sol\":3138:3158  Paused(_msgSender()) */\n      0x62e78cea01bee320cd4e420270b5ea74000d11b0c9f74754ebdbfc544b05a258\n        /* \"ifb-new.sol\":3145:3157  _msgSender() */\n      tag_401\n        /* \"ifb-new.sol\":3145:3155  _msgSender */\n      tag_196\n        /* \"ifb-new.sol\":3145:3157  _msgSender() */\n      jump\t// in\n    tag_401:\n        /* \"ifb-new.sol\":3138:3158  Paused(_msgSender()) */\n      mload(0x40)\n      tag_402\n      swap2\n      swap1\n      tag_117\n      jump\t// in\n    tag_402:\n      mload(0x40)\n      dup1\n      swap2\n      sub\n      swap1\n      log1\n        /* \"ifb-new.sol\":3048:3166  function _pause() internal virtual whenNotPaused {... */\n      jump\t// out\n        /* \"ifb-new.sol\":2190:2381  function _transferOwnership(address newOwner) internal virtual {... */\n    tag_320:\n        /* \"ifb-new.sol\":2264:2280  address oldOwner */\n      0x00\n        /* \"ifb-new.sol\":2283:2289  _owner */\n      0x06\n      0x01\n      swap1\n      sload\n      swap1\n      0x0100\n      exp\n      swap1\n      div\n      0xffffffffffffffffffffffffffffffffffffffff\n      and\n        /* \"ifb-new.sol\":2264:2289  address oldOwner = _owner */\n      swap1\n      pop\n        /* \"ifb-new.sol\":2309:2317  newOwner */\n      dup2\n        /* \"ifb-new.sol\":2300:2306  _owner */\n      0x06\n      0x01\n        /* \"ifb-new.sol\":2300:2317  _owner = newOwner */\n      0x0100\n      exp\n      dup2\n      sload\n      dup2\n      0xffffffffffffffffffffffffffffffffffffffff\n      mul\n      not\n      and\n      swap1\n      dup4\n      0xffffffffffffffffffffffffffffffffffffffff\n      and\n      mul\n      or\n      swap1\n      sstore\n      pop\n        /* \"ifb-new.sol\":2364:2372  newOwner */\n      dup2\n        /* \"ifb-new.sol\":2333:2373  OwnershipTransferred(oldOwner, newOwner) */\n      0xffffffffffffffffffffffffffffffffffffffff\n      and\n        /* \"ifb-new.sol\":2354:2362  oldOwner */\n      dup2\n        /* \"ifb-new.sol\":2333:2373  OwnershipTransferred(oldOwner, newOwner) */\n      0xffffffffffffffffffffffffffffffffffffffff\n      and\n      0x8be0079c531659141344cd1fd0a4f28419497f9722a3daafe3b4186f6b6457e0\n      mload(0x40)\n      mload(0x40)\n      dup1\n      swap2\n      sub\n      swap1\n      log3\n        /* \"ifb-new.sol\":2253:2381  {... */\n      pop\n        /* \"ifb-new.sol\":2190:2381  function _transferOwnership(address newOwner) internal virtual {... */\n      pop\n      jump\t// out\n        /* \"ifb-new.sol\":9697:10799  function _beforeTokenTransfer(address from, address to, uint256 amount) internal virtual {... */\n    tag_343:\n        /* \"ifb-new.sol\":9806:9814  paused() */\n      tag_405\n        /* \"ifb-new.sol\":9806:9812  paused */\n      tag_112\n        /* \"ifb-new.sol\":9806:9814  paused() */\n      jump\t// in\n    tag_405:\n        /* \"ifb-new.sol\":9805:9814  !paused() */\n      iszero\n        /* \"ifb-new.sol\":9797:9846  require(!paused(), \"Token transfer while paused\") */\n      tag_406\n      jumpi\n      mload(0x40)\n      0x08c379a000000000000000000000000000000000000000000000000000000000\n      dup2\n      mstore\n      0x04\n      add\n      tag_407\n      swap1\n      tag_408\n      jump\t// in\n    tag_407:\n      mload(0x40)\n      dup1\n      swap2\n      sub\n      swap1\n      revert\n    tag_406:\n        /* \"ifb-new.sol\":9866:9879  isBlacklisted */\n      0x12\n        /* \"ifb-new.sol\":9866:9885  isBlacklisted[from] */\n      0x00\n        /* \"ifb-new.sol\":9880:9884  from */\n      dup5\n        /* \"ifb-new.sol\":9866:9885  isBlacklisted[from] */\n      0xffffffffffffffffffffffffffffffffffffffff\n      and\n      0xffffffffffffffffffffffffffffffffffffffff\n      and\n      dup2\n      mstore\n      0x20\n      add\n      swap1\n      dup2\n      mstore\n      0x20\n      add\n      0x00\n      keccak256\n      0x00\n      swap1\n      sload\n      swap1\n      0x0100\n      exp\n      swap1\n      div\n      0xff\n      and\n        /* \"ifb-new.sol\":9865:9885  !isBlacklisted[from] */\n      iszero\n        /* \"ifb-new.sol\":9865:9907  !isBlacklisted[from] && !isBlacklisted[to] */\n      dup1\n      iszero\n      tag_409\n      jumpi\n      pop\n        /* \"ifb-new.sol\":9890:9903  isBlacklisted */\n      0x12\n        /* \"ifb-new.sol\":9890:9907  isBlacklisted[to] */\n      0x00\n        /* \"ifb-new.sol\":9904:9906  to */\n      dup4\n        /* \"ifb-new.sol\":9890:9907  isBlacklisted[to] */\n      0xffffffffffffffffffffffffffffffffffffffff\n      and\n      0xffffffffffffffffffffffffffffffffffffffff\n      and\n      dup2\n      mstore\n      0x20\n      add\n      swap1\n      dup2\n      mstore\n      0x20\n      add\n      0x00\n      keccak256\n      0x00\n      swap1\n      sload\n      swap1\n      0x0100\n      exp\n      swap1\n      div\n      0xff\n      and\n        /* \"ifb-new.sol\":9889:9907  !isBlacklisted[to] */\n      iszero\n        /* \"ifb-new.sol\":9865:9907  !isBlacklisted[from] && !isBlacklisted[to] */\n    tag_409:\n        /* \"ifb-new.sol\":9857:9934  require(!isBlacklisted[from] && !isBlacklisted[to], \"Address is blacklisted\") */\n      tag_410\n      jumpi\n      mload(0x40)\n      0x08c379a000000000000000000000000000000000000000000000000000000000\n      dup2\n      mstore\n      0x04\n      add\n      tag_411\n      swap1\n      tag_412\n      jump\t// in\n    tag_411:\n      mload(0x40)\n      dup1\n      swap2\n      sub\n      swap1\n      revert\n    tag_410:\n        /* \"ifb-new.sol\":9952:9970  isExemptFromLimits */\n      0x10\n        /* \"ifb-new.sol\":9952:9976  isExemptFromLimits[from] */\n      0x00\n        /* \"ifb-new.sol\":9971:9975  from */\n      dup5\n        /* \"ifb-new.sol\":9952:9976  isExemptFromLimits[from] */\n      0xffffffffffffffffffffffffffffffffffffffff\n      and\n      0xffffffffffffffffffffffffffffffffffffffff\n      and\n      dup2\n      mstore\n      0x20\n      add\n      swap1\n      dup2\n      mstore\n      0x20\n      add\n      0x00\n      keccak256\n      0x00\n      swap1\n      sload\n      swap1\n      0x0100\n      exp\n      swap1\n      div\n      0xff\n      and\n        /* \"ifb-new.sol\":9947:10312  if (!isExemptFromLimits[from]) {... */\n      tag_413\n      jumpi\n        /* \"ifb-new.sol\":9993:10009  uint256 maxDaily */\n      0x00\n        /* \"ifb-new.sol\":10056:10061  10000 */\n      0x2710\n        /* \"ifb-new.sol\":10029:10052  maxDailyTransferPercent */\n      sload(0x0e)\n        /* \"ifb-new.sol\":10013:10026  totalSupply() */\n      tag_414\n        /* \"ifb-new.sol\":10013:10024  totalSupply */\n      tag_65\n        /* \"ifb-new.sol\":10013:10026  totalSupply() */\n      jump\t// in\n    tag_414:\n        /* \"ifb-new.sol\":10013:10052  totalSupply() * maxDailyTransferPercent */\n      tag_415\n      swap2\n      swap1\n      tag_298\n      jump\t// in\n    tag_415:\n        /* \"ifb-new.sol\":10012:10061  (totalSupply() * maxDailyTransferPercent) / 10000 */\n      tag_416\n      swap2\n      swap1\n      tag_300\n      jump\t// in\n    tag_416:\n        /* \"ifb-new.sol\":9993:10061  uint256 maxDaily = (totalSupply() * maxDailyTransferPercent) / 10000 */\n      swap1\n      pop\n        /* \"ifb-new.sol\":10076:10094  uint256 maxMonthly */\n      0x00\n        /* \"ifb-new.sol\":10143:10148  10000 */\n      0x2710\n        /* \"ifb-new.sol\":10114:10139  maxMonthlyTransferPercent */\n      sload(0x0f)\n        /* \"ifb-new.sol\":10098:10111  totalSupply() */\n      tag_417\n        /* \"ifb-new.sol\":10098:10109  totalSupply */\n      tag_65\n        /* \"ifb-new.sol\":10098:10111  totalSupply() */\n      jump\t// in\n    tag_417:\n        /* \"ifb-new.sol\":10098:10139  totalSupply() * maxMonthlyTransferPercent */\n      tag_418\n      swap2\n      swap1\n      tag_298\n      jump\t// in\n    tag_418:\n        /* \"ifb-new.sol\":10097:10148  (totalSupply() * maxMonthlyTransferPercent) / 10000 */\n      tag_419\n      swap2\n      swap1\n      tag_300\n      jump\t// in\n    tag_419:\n        /* \"ifb-new.sol\":10076:10148  uint256 maxMonthly = (totalSupply() * maxMonthlyTransferPercent) / 10000 */\n      swap1\n      pop\n        /* \"ifb-new.sol\":10181:10189  maxDaily */\n      dup2\n        /* \"ifb-new.sol\":10171:10177  amount */\n      dup4\n        /* \"ifb-new.sol\":10171:10189  amount <= maxDaily */\n      gt\n      iszero\n        /* \"ifb-new.sol\":10163:10222  require(amount <= maxDaily, \"Exceeds daily transfer limit\") */\n      tag_420\n      jumpi\n      mload(0x40)\n      0x08c379a000000000000000000000000000000000000000000000000000000000\n      dup2\n      mstore\n      0x04\n      add\n      tag_421\n      swap1\n      tag_422\n      jump\t// in\n    tag_421:\n      mload(0x40)\n      dup1\n      swap2\n      sub\n      swap1\n      revert\n    tag_420:\n        /* \"ifb-new.sol\":10255:10265  maxMonthly */\n      dup1\n        /* \"ifb-new.sol\":10245:10251  amount */\n      dup4\n        /* \"ifb-new.sol\":10245:10265  amount <= maxMonthly */\n      gt\n      iszero\n        /* \"ifb-new.sol\":10237:10300  require(amount <= maxMonthly, \"Exceeds monthly transfer limit\") */\n      tag_423\n      jumpi\n      mload(0x40)\n      0x08c379a000000000000000000000000000000000000000000000000000000000\n      dup2\n      mstore\n      0x04\n      add\n      tag_424\n      swap1\n      tag_425\n      jump\t// in\n    tag_424:\n      mload(0x40)\n      dup1\n      swap2\n      sub\n      swap1\n      revert\n    tag_423:\n        /* \"ifb-new.sol\":9978:10312  {... */\n      pop\n      pop\n        /* \"ifb-new.sol\":9947:10312  if (!isExemptFromLimits[from]) {... */\n    tag_413:\n        /* \"ifb-new.sol\":10324:10341  uint256 taxAmount */\n      0x00\n        /* \"ifb-new.sol\":10374:10379  10000 */\n      0x2710\n        /* \"ifb-new.sol\":10354:10370  taxSocialPercent */\n      sload(0x07)\n        /* \"ifb-new.sol\":10345:10351  amount */\n      dup4\n        /* \"ifb-new.sol\":10345:10370  amount * taxSocialPercent */\n      tag_426\n      swap2\n      swap1\n      tag_298\n      jump\t// in\n    tag_426:\n        /* \"ifb-new.sol\":10344:10379  (amount * taxSocialPercent) / 10000 */\n      tag_427\n      swap2\n      swap1\n      tag_300\n      jump\t// in\n    tag_427:\n        /* \"ifb-new.sol\":10324:10379  uint256 taxAmount = (amount * taxSocialPercent) / 10000 */\n      swap1\n      pop\n        /* \"ifb-new.sol\":10406:10407  0 */\n      0x00\n        /* \"ifb-new.sol\":10394:10403  taxAmount */\n      dup2\n        /* \"ifb-new.sol\":10394:10407  taxAmount > 0 */\n      gt\n        /* \"ifb-new.sol\":10390:10792  if (taxAmount > 0) {... */\n      iszero\n      tag_428\n      jumpi\n        /* \"ifb-new.sol\":10424:10442  uint256 toProjects */\n      0x00\n        /* \"ifb-new.sol\":10486:10502  taxSocialPercent */\n      sload(0x07)\n        /* \"ifb-new.sol\":10458:10482  taxSocialProjectsPercent */\n      sload(0x08)\n        /* \"ifb-new.sol\":10446:10455  taxAmount */\n      dup4\n        /* \"ifb-new.sol\":10446:10482  taxAmount * taxSocialProjectsPercent */\n      tag_429\n      swap2\n      swap1\n      tag_298\n      jump\t// in\n    tag_429:\n        /* \"ifb-new.sol\":10445:10502  (taxAmount * taxSocialProjectsPercent) / taxSocialPercent */\n      tag_430\n      swap2\n      swap1\n      tag_300\n      jump\t// in\n    tag_430:\n        /* \"ifb-new.sol\":10424:10502  uint256 toProjects = (taxAmount * taxSocialProjectsPercent) / taxSocialPercent */\n      swap1\n      pop\n        /* \"ifb-new.sol\":10517:10537  uint256 toOperations */\n      0x00\n        /* \"ifb-new.sol\":10552:10562  toProjects */\n      dup2\n        /* \"ifb-new.sol\":10540:10549  taxAmount */\n      dup4\n        /* \"ifb-new.sol\":10540:10562  taxAmount - toProjects */\n      tag_431\n      swap2\n      swap1\n      tag_362\n      jump\t// in\n    tag_431:\n        /* \"ifb-new.sol\":10517:10562  uint256 toOperations = taxAmount - toProjects */\n      swap1\n      pop\n        /* \"ifb-new.sol\":10577:10635  super._transfer(from, taxSocialProjectsWallet, toProjects) */\n      tag_432\n        /* \"ifb-new.sol\":10593:10597  from */\n      dup7\n        /* \"ifb-new.sol\":10599:10622  taxSocialProjectsWallet */\n      0x0a\n      0x00\n      swap1\n      sload\n      swap1\n      0x0100\n      exp\n      swap1\n      div\n      0xffffffffffffffffffffffffffffffffffffffff\n      and\n        /* \"ifb-new.sol\":10624:10634  toProjects */\n      dup5\n        /* \"ifb-new.sol\":10577:10592  super._transfer */\n      tag_345\n        /* \"ifb-new.sol\":10577:10635  super._transfer(from, taxSocialProjectsWallet, toProjects) */\n      jump\t// in\n    tag_432:\n        /* \"ifb-new.sol\":10650:10712  super._transfer(from, taxSocialOperationsWallet, toOperations) */\n      tag_433\n        /* \"ifb-new.sol\":10666:10670  from */\n      dup7\n        /* \"ifb-new.sol\":10672:10697  taxSocialOperationsWallet */\n      0x0b\n      0x00\n      swap1\n      sload\n      swap1\n      0x0100\n      exp\n      swap1\n      div\n      0xffffffffffffffffffffffffffffffffffffffff\n      and\n        /* \"ifb-new.sol\":10699:10711  toOperations */\n      dup4\n        /* \"ifb-new.sol\":10650:10665  super._transfer */\n      tag_345\n        /* \"ifb-new.sol\":10650:10712  super._transfer(from, taxSocialOperationsWallet, toOperations) */\n      jump\t// in\n    tag_433:\n        /* \"ifb-new.sol\":10749:10753  from */\n      dup6\n        /* \"ifb-new.sol\":10732:10780  TaxSocialApplied(from, toProjects, toOperations) */\n      0xffffffffffffffffffffffffffffffffffffffff\n      and\n      0xbab3290eaa73a56c42190fe1b7a571939db85ad067afb39b0b31adeb006eeef2\n        /* \"ifb-new.sol\":10755:10765  toProjects */\n      dup4\n        /* \"ifb-new.sol\":10767:10779  toOperations */\n      dup4\n        /* \"ifb-new.sol\":10732:10780  TaxSocialApplied(from, toProjects, toOperations) */\n      mload(0x40)\n      tag_434\n      swap3\n      swap2\n      swap1\n      tag_435\n      jump\t// in\n    tag_434:\n      mload(0x40)\n      dup1\n      swap2\n      sub\n      swap1\n      log2\n        /* \"ifb-new.sol\":10409:10792  {... */\n      pop\n      pop\n        /* \"ifb-new.sol\":10390:10792  if (taxAmount > 0) {... */\n    tag_428:\n        /* \"ifb-new.sol\":9786:10799  {... */\n      pop\n        /* \"ifb-new.sol\":9697:10799  function _beforeTokenTransfer(address from, address to, uint256 amount) internal virtual {... */\n      pop\n      pop\n      pop\n      jump\t// out\n        /* \"ifb-new.sol\":5336:5832  function _transfer(address sender, address recipient, uint256 amount) internal virtual {... */\n    tag_345:\n        /* \"ifb-new.sol\":5460:5461  0 */\n      0x00\n        /* \"ifb-new.sol\":5442:5462  sender != address(0) */\n      0xffffffffffffffffffffffffffffffffffffffff\n      and\n        /* \"ifb-new.sol\":5442:5448  sender */\n      dup4\n        /* \"ifb-new.sol\":5442:5462  sender != address(0) */\n      0xffffffffffffffffffffffffffffffffffffffff\n      and\n      sub\n        /* \"ifb-new.sol\":5434:5492  require(sender != address(0), \"ERC20: transfer from zero\") */\n      tag_437\n      jumpi\n      mload(0x40)\n      0x08c379a000000000000000000000000000000000000000000000000000000000\n      dup2\n      mstore\n      0x04\n      add\n      tag_438\n      swap1\n      tag_439\n      jump\t// in\n    tag_438:\n      mload(0x40)\n      dup1\n      swap2\n      sub\n      swap1\n      revert\n    tag_437:\n        /* \"ifb-new.sol\":5532:5533  0 */\n      0x00\n        /* \"ifb-new.sol\":5511:5534  recipient != address(0) */\n      0xffffffffffffffffffffffffffffffffffffffff\n      and\n        /* \"ifb-new.sol\":5511:5520  recipient */\n      dup3\n        /* \"ifb-new.sol\":5511:5534  recipient != address(0) */\n      0xffffffffffffffffffffffffffffffffffffffff\n      and\n      sub\n        /* \"ifb-new.sol\":5503:5562  require(recipient != address(0), \"ERC20: transfer to zero\") */\n      tag_440\n      jumpi\n      mload(0x40)\n      0x08c379a000000000000000000000000000000000000000000000000000000000\n      dup2\n      mstore\n      0x04\n      add\n      tag_441\n      swap1\n      tag_442\n      jump\t// in\n    tag_441:\n      mload(0x40)\n      dup1\n      swap2\n      sub\n      swap1\n      revert\n    tag_440:\n        /* \"ifb-new.sol\":5575:5596  uint256 senderBalance */\n      0x00\n        /* \"ifb-new.sol\":5599:5608  _balances */\n      0x01\n        /* \"ifb-new.sol\":5599:5616  _balances[sender] */\n      0x00\n        /* \"ifb-new.sol\":5609:5615  sender */\n      dup6\n        /* \"ifb-new.sol\":5599:5616  _balances[sender] */\n      0xffffffffffffffffffffffffffffffffffffffff\n      and\n      0xffffffffffffffffffffffffffffffffffffffff\n      and\n      dup2\n      mstore\n      0x20\n      add\n      swap1\n      dup2\n      mstore\n      0x20\n      add\n      0x00\n      keccak256\n      sload\n        /* \"ifb-new.sol\":5575:5616  uint256 senderBalance = _balances[sender] */\n      swap1\n      pop\n        /* \"ifb-new.sol\":5652:5658  amount */\n      dup2\n        /* \"ifb-new.sol\":5635:5648  senderBalance */\n      dup2\n        /* \"ifb-new.sol\":5635:5658  senderBalance >= amount */\n      lt\n      iszero\n        /* \"ifb-new.sol\":5627:5694  require(senderBalance >= amount, \"ERC20: transfer exceeds balance\") */\n      tag_443\n      jumpi\n      mload(0x40)\n      0x08c379a000000000000000000000000000000000000000000000000000000000\n      dup2\n      mstore\n      0x04\n      add\n      tag_444\n      swap1\n      tag_445\n      jump\t// in\n    tag_444:\n      mload(0x40)\n      dup1\n      swap2\n      sub\n      swap1\n      revert\n    tag_443:\n        /* \"ifb-new.sol\":5766:5772  amount */\n      dup2\n        /* \"ifb-new.sol\":5750:5763  senderBalance */\n      dup2\n        /* \"ifb-new.sol\":5750:5772  senderBalance - amount */\n      sub\n        /* \"ifb-new.sol\":5730:5739  _balances */\n      0x01\n        /* \"ifb-new.sol\":5730:5747  _balances[sender] */\n      0x00\n        /* \"ifb-new.sol\":5740:5746  sender */\n      dup7\n        /* \"ifb-new.sol\":5730:5747  _balances[sender] */\n      0xffffffffffffffffffffffffffffffffffffffff\n      and\n      0xffffffffffffffffffffffffffffffffffffffff\n      and\n      dup2\n      mstore\n      0x20\n      add\n      swap1\n      dup2\n      mstore\n      0x20\n      add\n      0x00\n      keccak256\n        /* \"ifb-new.sol\":5730:5772  _balances[sender] = senderBalance - amount */\n      dup2\n      swap1\n      sstore\n      pop\n        /* \"ifb-new.sol\":5818:5824  amount */\n      dup2\n        /* \"ifb-new.sol\":5794:5803  _balances */\n      0x01\n        /* \"ifb-new.sol\":5794:5814  _balances[recipient] */\n      0x00\n        /* \"ifb-new.sol\":5804:5813  recipient */\n      dup6\n        /* \"ifb-new.sol\":5794:5814  _balances[recipient] */\n      0xffffffffffffffffffffffffffffffffffffffff\n      and\n      0xffffffffffffffffffffffffffffffffffffffff\n      and\n      dup2\n      mstore\n      0x20\n      add\n      swap1\n      dup2\n      mstore\n      0x20\n      add\n      0x00\n      keccak256\n      0x00\n        /* \"ifb-new.sol\":5794:5824  _balances[recipient] += amount */\n      dup3\n      dup3\n      sload\n      tag_446\n      swap2\n      swap1\n      tag_393\n      jump\t// in\n    tag_446:\n      swap3\n      pop\n      pop\n      dup2\n      swap1\n      sstore\n      pop\n        /* \"ifb-new.sol\":5423:5832  {... */\n      pop\n        /* \"ifb-new.sol\":5336:5832  function _transfer(address sender, address recipient, uint256 amount) internal virtual {... */\n      pop\n      pop\n      pop\n      jump\t// out\n        /* \"ifb-new.sol\":1068:1122  function __Context_init() internal onlyInitializing {} */\n    tag_369:\n        /* \"ifb-new.sol\":772:785  _initializing */\n      0x00\n      0x01\n      swap1\n      sload\n      swap1\n      0x0100\n      exp\n      swap1\n      div\n      0xff\n      and\n        /* \"ifb-new.sol\":764:833  require(_initializing, \"Initializable: contract is not initializing\") */\n      tag_448\n      jumpi\n      mload(0x40)\n      0x08c379a000000000000000000000000000000000000000000000000000000000\n      dup2\n      mstore\n      0x04\n      add\n      tag_449\n      swap1\n      tag_366\n      jump\t// in\n    tag_449:\n      mload(0x40)\n      dup1\n      swap2\n      sub\n      swap1\n      revert\n    tag_448:\n        /* \"ifb-new.sol\":1068:1122  function __Context_init() internal onlyInitializing {} */\n      jump\t// out\n        /* \"#utility.yul\":7:106   */\n    tag_451:\n        /* \"#utility.yul\":59:65   */\n      0x00\n        /* \"#utility.yul\":93:98   */\n      dup2\n        /* \"#utility.yul\":87:99   */\n      mload\n        /* \"#utility.yul\":77:99   */\n      swap1\n      pop\n        /* \"#utility.yul\":7:106   */\n      swap2\n      swap1\n      pop\n      jump\t// out\n        /* \"#utility.yul\":112:281   */\n    tag_452:\n        /* \"#utility.yul\":196:207   */\n      0x00\n        /* \"#utility.yul\":230:236   */\n      dup3\n        /* \"#utility.yul\":225:228   */\n      dup3\n        /* \"#utility.yul\":218:237   */\n      mstore\n        /* \"#utility.yul\":270:274   */\n      0x20\n        /* \"#utility.yul\":265:268   */\n      dup3\n        /* \"#utility.yul\":261:275   */\n      add\n        /* \"#utility.yul\":246:275   */\n      swap1\n      pop\n        /* \"#utility.yul\":112:281   */\n      swap3\n      swap2\n      pop\n      pop\n      jump\t// out\n        /* \"#utility.yul\":287:426   */\n    tag_453:\n        /* \"#utility.yul\":376:382   */\n      dup3\n        /* \"#utility.yul\":371:374   */\n      dup2\n        /* \"#utility.yul\":366:369   */\n      dup4\n        /* \"#utility.yul\":360:383   */\n      mcopy\n        /* \"#utility.yul\":417:418   */\n      0x00\n        /* \"#utility.yul\":408:414   */\n      dup4\n        /* \"#utility.yul\":403:406   */\n      dup4\n        /* \"#utility.yul\":399:415   */\n      add\n        /* \"#utility.yul\":392:419   */\n      mstore\n        /* \"#utility.yul\":287:426   */\n      pop\n      pop\n      pop\n      jump\t// out\n        /* \"#utility.yul\":432:534   */\n    tag_454:\n        /* \"#utility.yul\":473:479   */\n      0x00\n        /* \"#utility.yul\":524:526   */\n      0x1f\n        /* \"#utility.yul\":520:527   */\n      not\n        /* \"#utility.yul\":515:517   */\n      0x1f\n        /* \"#utility.yul\":508:513   */\n      dup4\n        /* \"#utility.yul\":504:518   */\n      add\n        /* \"#utility.yul\":500:528   */\n      and\n        /* \"#utility.yul\":490:528   */\n      swap1\n      pop\n        /* \"#utility.yul\":432:534   */\n      swap2\n      swap1\n      pop\n      jump\t// out\n        /* \"#utility.yul\":540:917   */\n    tag_455:\n        /* \"#utility.yul\":628:631   */\n      0x00\n        /* \"#utility.yul\":656:695   */\n      tag_541\n        /* \"#utility.yul\":689:694   */\n      dup3\n        /* \"#utility.yul\":656:695   */\n      tag_451\n      jump\t// in\n    tag_541:\n        /* \"#utility.yul\":711:782   */\n      tag_542\n        /* \"#utility.yul\":775:781   */\n      dup2\n        /* \"#utility.yul\":770:773   */\n      dup6\n        /* \"#utility.yul\":711:782   */\n      tag_452\n      jump\t// in\n    tag_542:\n        /* \"#utility.yul\":704:782   */\n      swap4\n      pop\n        /* \"#utility.yul\":791:856   */\n      tag_543\n        /* \"#utility.yul\":849:855   */\n      dup2\n        /* \"#utility.yul\":844:847   */\n      dup6\n        /* \"#utility.yul\":837:841   */\n      0x20\n        /* \"#utility.yul\":830:835   */\n      dup7\n        /* \"#utility.yul\":826:842   */\n      add\n        /* \"#utility.yul\":791:856   */\n      tag_453\n      jump\t// in\n    tag_543:\n        /* \"#utility.yul\":881:910   */\n      tag_544\n        /* \"#utility.yul\":903:909   */\n      dup2\n        /* \"#utility.yul\":881:910   */\n      tag_454\n      jump\t// in\n    tag_544:\n        /* \"#utility.yul\":876:879   */\n      dup5\n        /* \"#utility.yul\":872:911   */\n      add\n        /* \"#utility.yul\":865:911   */\n      swap2\n      pop\n        /* \"#utility.yul\":632:917   */\n      pop\n        /* \"#utility.yul\":540:917   */\n      swap3\n      swap2\n      pop\n      pop\n      jump\t// out\n        /* \"#utility.yul\":923:1236   */\n    tag_53:\n        /* \"#utility.yul\":1036:1040   */\n      0x00\n        /* \"#utility.yul\":1074:1076   */\n      0x20\n        /* \"#utility.yul\":1063:1072   */\n      dup3\n        /* \"#utility.yul\":1059:1077   */\n      add\n        /* \"#utility.yul\":1051:1077   */\n      swap1\n      pop\n        /* \"#utility.yul\":1123:1132   */\n      dup2\n        /* \"#utility.yul\":1117:1121   */\n      dup2\n        /* \"#utility.yul\":1113:1133   */\n      sub\n        /* \"#utility.yul\":1109:1110   */\n      0x00\n        /* \"#utility.yul\":1098:1107   */\n      dup4\n        /* \"#utility.yul\":1094:1111   */\n      add\n        /* \"#utility.yul\":1087:1134   */\n      mstore\n        /* \"#utility.yul\":1151:1229   */\n      tag_546\n        /* \"#utility.yul\":1224:1228   */\n      dup2\n        /* \"#utility.yul\":1215:1221   */\n      dup5\n        /* \"#utility.yul\":1151:1229   */\n      tag_455\n      jump\t// in\n    tag_546:\n        /* \"#utility.yul\":1143:1229   */\n      swap1\n      pop\n        /* \"#utility.yul\":923:1236   */\n      swap3\n      swap2\n      pop\n      pop\n      jump\t// out\n        /* \"#utility.yul\":1242:1319   */\n    tag_456:\n        /* \"#utility.yul\":1279:1286   */\n      0x00\n        /* \"#utility.yul\":1308:1313   */\n      dup2\n        /* \"#utility.yul\":1297:1313   */\n      swap1\n      pop\n        /* \"#utility.yul\":1242:1319   */\n      swap2\n      swap1\n      pop\n      jump\t// out\n        /* \"#utility.yul\":1325:1443   */\n    tag_457:\n        /* \"#utility.yul\":1412:1436   */\n      tag_549\n        /* \"#utility.yul\":1430:1435   */\n      dup2\n        /* \"#utility.yul\":1412:1436   */\n      tag_456\n      jump\t// in\n    tag_549:\n        /* \"#utility.yul\":1407:1410   */\n      dup3\n        /* \"#utility.yul\":1400:1437   */\n      mstore\n        /* \"#utility.yul\":1325:1443   */\n      pop\n      pop\n      jump\t// out\n        /* \"#utility.yul\":1449:1671   */\n    tag_57:\n        /* \"#utility.yul\":1542:1546   */\n      0x00\n        /* \"#utility.yul\":1580:1582   */\n      0x20\n        /* \"#utility.yul\":1569:1578   */\n      dup3\n        /* \"#utility.yul\":1565:1583   */\n      add\n        /* \"#utility.yul\":1557:1583   */\n      swap1\n      pop\n        /* \"#utility.yul\":1593:1664   */\n      tag_551\n        /* \"#utility.yul\":1661:1662   */\n      0x00\n        /* \"#utility.yul\":1650:1659   */\n      dup4\n        /* \"#utility.yul\":1646:1663   */\n      add\n        /* \"#utility.yul\":1637:1643   */\n      dup5\n        /* \"#utility.yul\":1593:1664   */\n      tag_457\n      jump\t// in\n    tag_551:\n        /* \"#utility.yul\":1449:1671   */\n      swap3\n      swap2\n      pop\n      pop\n      jump\t// out\n        /* \"#utility.yul\":1758:1875   */\n    tag_459:\n        /* \"#utility.yul\":1867:1868   */\n      0x00\n        /* \"#utility.yul\":1864:1865   */\n      0x00\n        /* \"#utility.yul\":1857:1869   */\n      revert\n        /* \"#utility.yul\":2004:2130   */\n    tag_461:\n        /* \"#utility.yul\":2041:2048   */\n      0x00\n        /* \"#utility.yul\":2081:2123   */\n      0xffffffffffffffffffffffffffffffffffffffff\n        /* \"#utility.yul\":2074:2079   */\n      dup3\n        /* \"#utility.yul\":2070:2124   */\n      and\n        /* \"#utility.yul\":2059:2124   */\n      swap1\n      pop\n        /* \"#utility.yul\":2004:2130   */\n      swap2\n      swap1\n      pop\n      jump\t// out\n        /* \"#utility.yul\":2136:2232   */\n    tag_462:\n        /* \"#utility.yul\":2173:2180   */\n      0x00\n        /* \"#utility.yul\":2202:2226   */\n      tag_557\n        /* \"#utility.yul\":2220:2225   */\n      dup3\n        /* \"#utility.yul\":2202:2226   */\n      tag_461\n      jump\t// in\n    tag_557:\n        /* \"#utility.yul\":2191:2226   */\n      swap1\n      pop\n        /* \"#utility.yul\":2136:2232   */\n      swap2\n      swap1\n      pop\n      jump\t// out\n        /* \"#utility.yul\":2238:2360   */\n    tag_463:\n        /* \"#utility.yul\":2311:2335   */\n      tag_559\n        /* \"#utility.yul\":2329:2334   */\n      dup2\n        /* \"#utility.yul\":2311:2335   */\n      tag_462\n      jump\t// in\n    tag_559:\n        /* \"#utility.yul\":2304:2309   */\n      dup2\n        /* \"#utility.yul\":2301:2336   */\n      eq\n        /* \"#utility.yul\":2291:2354   */\n      tag_560\n      jumpi\n        /* \"#utility.yul\":2350:2351   */\n      0x00\n        /* \"#utility.yul\":2347:2348   */\n      0x00\n        /* \"#utility.yul\":2340:2352   */\n      revert\n        /* \"#utility.yul\":2291:2354   */\n    tag_560:\n        /* \"#utility.yul\":2238:2360   */\n      pop\n      jump\t// out\n        /* \"#utility.yul\":2366:2505   */\n    tag_464:\n        /* \"#utility.yul\":2412:2417   */\n      0x00\n        /* \"#utility.yul\":2450:2456   */\n      dup2\n        /* \"#utility.yul\":2437:2457   */\n      calldataload\n        /* \"#utility.yul\":2428:2457   */\n      swap1\n      pop\n        /* \"#utility.yul\":2466:2499   */\n      tag_562\n        /* \"#utility.yul\":2493:2498   */\n      dup2\n        /* \"#utility.yul\":2466:2499   */\n      tag_463\n      jump\t// in\n    tag_562:\n        /* \"#utility.yul\":2366:2505   */\n      swap3\n      swap2\n      pop\n      pop\n      jump\t// out\n        /* \"#utility.yul\":2511:2633   */\n    tag_465:\n        /* \"#utility.yul\":2584:2608   */\n      tag_564\n        /* \"#utility.yul\":2602:2607   */\n      dup2\n        /* \"#utility.yul\":2584:2608   */\n      tag_456\n      jump\t// in\n    tag_564:\n        /* \"#utility.yul\":2577:2582   */\n      dup2\n        /* \"#utility.yul\":2574:2609   */\n      eq\n        /* \"#utility.yul\":2564:2627   */\n      tag_565\n      jumpi\n        /* \"#utility.yul\":2623:2624   */\n      0x00\n        /* \"#utility.yul\":2620:2621   */\n      0x00\n        /* \"#utility.yul\":2613:2625   */\n      revert\n        /* \"#utility.yul\":2564:2627   */\n    tag_565:\n        /* \"#utility.yul\":2511:2633   */\n      pop\n      jump\t// out\n        /* \"#utility.yul\":2639:2778   */\n    tag_466:\n        /* \"#utility.yul\":2685:2690   */\n      0x00\n        /* \"#utility.yul\":2723:2729   */\n      dup2\n        /* \"#utility.yul\":2710:2730   */\n      calldataload\n        /* \"#utility.yul\":2701:2730   */\n      swap1\n      pop\n        /* \"#utility.yul\":2739:2772   */\n      tag_567\n        /* \"#utility.yul\":2766:2771   */\n      dup2\n        /* \"#utility.yul\":2739:2772   */\n      tag_465\n      jump\t// in\n    tag_567:\n        /* \"#utility.yul\":2639:2778   */\n      swap3\n      swap2\n      pop\n      pop\n      jump\t// out\n        /* \"#utility.yul\":2784:3258   */\n    tag_60:\n        /* \"#utility.yul\":2852:2858   */\n      0x00\n        /* \"#utility.yul\":2860:2866   */\n      0x00\n        /* \"#utility.yul\":2909:2911   */\n      0x40\n        /* \"#utility.yul\":2897:2906   */\n      dup4\n        /* \"#utility.yul\":2888:2895   */\n      dup6\n        /* \"#utility.yul\":2884:2907   */\n      sub\n        /* \"#utility.yul\":2880:2912   */\n      slt\n        /* \"#utility.yul\":2877:2996   */\n      iszero\n      tag_569\n      jumpi\n        /* \"#utility.yul\":2915:2994   */\n      tag_570\n      tag_459\n      jump\t// in\n    tag_570:\n        /* \"#utility.yul\":2877:2996   */\n    tag_569:\n        /* \"#utility.yul\":3035:3036   */\n      0x00\n        /* \"#utility.yul\":3060:3113   */\n      tag_571\n        /* \"#utility.yul\":3105:3112   */\n      dup6\n        /* \"#utility.yul\":3096:3102   */\n      dup3\n        /* \"#utility.yul\":3085:3094   */\n      dup7\n        /* \"#utility.yul\":3081:3103   */\n      add\n        /* \"#utility.yul\":3060:3113   */\n      tag_464\n      jump\t// in\n    tag_571:\n        /* \"#utility.yul\":3050:3113   */\n      swap3\n      pop\n        /* \"#utility.yul\":3006:3123   */\n      pop\n        /* \"#utility.yul\":3162:3164   */\n      0x20\n        /* \"#utility.yul\":3188:3241   */\n      tag_572\n        /* \"#utility.yul\":3233:3240   */\n      dup6\n        /* \"#utility.yul\":3224:3230   */\n      dup3\n        /* \"#utility.yul\":3213:3222   */\n      dup7\n        /* \"#utility.yul\":3209:3231   */\n      add\n        /* \"#utility.yul\":3188:3241   */\n      tag_466\n      jump\t// in\n    tag_572:\n        /* \"#utility.yul\":3178:3241   */\n      swap2\n      pop\n        /* \"#utility.yul\":3133:3251   */\n      pop\n        /* \"#utility.yul\":2784:3258   */\n      swap3\n      pop\n      swap3\n      swap1\n      pop\n      jump\t// out\n        /* \"#utility.yul\":3264:3354   */\n    tag_467:\n        /* \"#utility.yul\":3298:3305   */\n      0x00\n        /* \"#utility.yul\":3341:3346   */\n      dup2\n        /* \"#utility.yul\":3334:3347   */\n      iszero\n        /* \"#utility.yul\":3327:3348   */\n      iszero\n        /* \"#utility.yul\":3316:3348   */\n      swap1\n      pop\n        /* \"#utility.yul\":3264:3354   */\n      swap2\n      swap1\n      pop\n      jump\t// out\n        /* \"#utility.yul\":3360:3469   */\n    tag_468:\n        /* \"#utility.yul\":3441:3462   */\n      tag_575\n        /* \"#utility.yul\":3456:3461   */\n      dup2\n        /* \"#utility.yul\":3441:3462   */\n      tag_467\n      jump\t// in\n    tag_575:\n        /* \"#utility.yul\":3436:3439   */\n      dup3\n        /* \"#utility.yul\":3429:3463   */\n      mstore\n        /* \"#utility.yul\":3360:3469   */\n      pop\n      pop\n      jump\t// out\n        /* \"#utility.yul\":3475:3685   */\n    tag_63:\n        /* \"#utility.yul\":3562:3566   */\n      0x00\n        /* \"#utility.yul\":3600:3602   */\n      0x20\n        /* \"#utility.yul\":3589:3598   */\n      dup3\n        /* \"#utility.yul\":3585:3603   */\n      add\n        /* \"#utility.yul\":3577:3603   */\n      swap1\n      pop\n        /* \"#utility.yul\":3613:3678   */\n      tag_577\n        /* \"#utility.yul\":3675:3676   */\n      0x00\n        /* \"#utility.yul\":3664:3673   */\n      dup4\n        /* \"#utility.yul\":3660:3677   */\n      add\n        /* \"#utility.yul\":3651:3657   */\n      dup5\n        /* \"#utility.yul\":3613:3678   */\n      tag_468\n      jump\t// in\n    tag_577:\n        /* \"#utility.yul\":3475:3685   */\n      swap3\n      swap2\n      pop\n      pop\n      jump\t// out\n        /* \"#utility.yul\":3691:4310   */\n    tag_78:\n        /* \"#utility.yul\":3768:3774   */\n      0x00\n        /* \"#utility.yul\":3776:3782   */\n      0x00\n        /* \"#utility.yul\":3784:3790   */\n      0x00\n        /* \"#utility.yul\":3833:3835   */\n      0x60\n        /* \"#utility.yul\":3821:3830   */\n      dup5\n        /* \"#utility.yul\":3812:3819   */\n      dup7\n        /* \"#utility.yul\":3808:3831   */\n      sub\n        /* \"#utility.yul\":3804:3836   */\n      slt\n        /* \"#utility.yul\":3801:3920   */\n      iszero\n      tag_579\n      jumpi\n        /* \"#utility.yul\":3839:3918   */\n      tag_580\n      tag_459\n      jump\t// in\n    tag_580:\n        /* \"#utility.yul\":3801:3920   */\n    tag_579:\n        /* \"#utility.yul\":3959:3960   */\n      0x00\n        /* \"#utility.yul\":3984:4037   */\n      tag_581\n        /* \"#utility.yul\":4029:4036   */\n      dup7\n        /* \"#utility.yul\":4020:4026   */\n      dup3\n        /* \"#utility.yul\":4009:4018   */\n      dup8\n        /* \"#utility.yul\":4005:4027   */\n      add\n        /* \"#utility.yul\":3984:4037   */\n      tag_464\n      jump\t// in\n    tag_581:\n        /* \"#utility.yul\":3974:4037   */\n      swap4\n      pop\n        /* \"#utility.yul\":3930:4047   */\n      pop\n        /* \"#utility.yul\":4086:4088   */\n      0x20\n        /* \"#utility.yul\":4112:4165   */\n      tag_582\n        /* \"#utility.yul\":4157:4164   */\n      dup7\n        /* \"#utility.yul\":4148:4154   */\n      dup3\n        /* \"#utility.yul\":4137:4146   */\n      dup8\n        /* \"#utility.yul\":4133:4155   */\n      add\n        /* \"#utility.yul\":4112:4165   */\n      tag_464\n      jump\t// in\n    tag_582:\n        /* \"#utility.yul\":4102:4165   */\n      swap3\n      pop\n        /* \"#utility.yul\":4057:4175   */\n      pop\n        /* \"#utility.yul\":4214:4216   */\n      0x40\n        /* \"#utility.yul\":4240:4293   */\n      tag_583\n        /* \"#utility.yul\":4285:4292   */\n      dup7\n        /* \"#utility.yul\":4276:4282   */\n      dup3\n        /* \"#utility.yul\":4265:4274   */\n      dup8\n        /* \"#utility.yul\":4261:4283   */\n      add\n        /* \"#utility.yul\":4240:4293   */\n      tag_466\n      jump\t// in\n    tag_583:\n        /* \"#utility.yul\":4230:4293   */\n      swap2\n      pop\n        /* \"#utility.yul\":4185:4303   */\n      pop\n        /* \"#utility.yul\":3691:4310   */\n      swap3\n      pop\n      swap3\n      pop\n      swap3\n      jump\t// out\n        /* \"#utility.yul\":4316:4402   */\n    tag_469:\n        /* \"#utility.yul\":4351:4358   */\n      0x00\n        /* \"#utility.yul\":4391:4395   */\n      0xff\n        /* \"#utility.yul\":4384:4389   */\n      dup3\n        /* \"#utility.yul\":4380:4396   */\n      and\n        /* \"#utility.yul\":4369:4396   */\n      swap1\n      pop\n        /* \"#utility.yul\":4316:4402   */\n      swap2\n      swap1\n      pop\n      jump\t// out\n        /* \"#utility.yul\":4408:4520   */\n    tag_470:\n        /* \"#utility.yul\":4491:4513   */\n      tag_586\n        /* \"#utility.yul\":4507:4512   */\n      dup2\n        /* \"#utility.yul\":4491:4513   */\n      tag_469\n      jump\t// in\n    tag_586:\n        /* \"#utility.yul\":4486:4489   */\n      dup3\n        /* \"#utility.yul\":4479:4514   */\n      mstore\n        /* \"#utility.yul\":4408:4520   */\n      pop\n      pop\n      jump\t// out\n        /* \"#utility.yul\":4526:4740   */\n    tag_90:\n        /* \"#utility.yul\":4615:4619   */\n      0x00\n        /* \"#utility.yul\":4653:4655   */\n      0x20\n        /* \"#utility.yul\":4642:4651   */\n      dup3\n        /* \"#utility.yul\":4638:4656   */\n      add\n        /* \"#utility.yul\":4630:4656   */\n      swap1\n      pop\n        /* \"#utility.yul\":4666:4733   */\n      tag_588\n        /* \"#utility.yul\":4730:4731   */\n      0x00\n        /* \"#utility.yul\":4719:4728   */\n      dup4\n        /* \"#utility.yul\":4715:4732   */\n      add\n        /* \"#utility.yul\":4706:4712   */\n      dup5\n        /* \"#utility.yul\":4666:4733   */\n      tag_470\n      jump\t// in\n    tag_588:\n        /* \"#utility.yul\":4526:4740   */\n      swap3\n      swap2\n      pop\n      pop\n      jump\t// out\n        /* \"#utility.yul\":4746:4862   */\n    tag_471:\n        /* \"#utility.yul\":4816:4837   */\n      tag_590\n        /* \"#utility.yul\":4831:4836   */\n      dup2\n        /* \"#utility.yul\":4816:4837   */\n      tag_467\n      jump\t// in\n    tag_590:\n        /* \"#utility.yul\":4809:4814   */\n      dup2\n        /* \"#utility.yul\":4806:4838   */\n      eq\n        /* \"#utility.yul\":4796:4856   */\n      tag_591\n      jumpi\n        /* \"#utility.yul\":4852:4853   */\n      0x00\n        /* \"#utility.yul\":4849:4850   */\n      0x00\n        /* \"#utility.yul\":4842:4854   */\n      revert\n        /* \"#utility.yul\":4796:4856   */\n    tag_591:\n        /* \"#utility.yul\":4746:4862   */\n      pop\n      jump\t// out\n        /* \"#utility.yul\":4868:5001   */\n    tag_472:\n        /* \"#utility.yul\":4911:4916   */\n      0x00\n        /* \"#utility.yul\":4949:4955   */\n      dup2\n        /* \"#utility.yul\":4936:4956   */\n      calldataload\n        /* \"#utility.yul\":4927:4956   */\n      swap1\n      pop\n        /* \"#utility.yul\":4965:4995   */\n      tag_593\n        /* \"#utility.yul\":4989:4994   */\n      dup2\n        /* \"#utility.yul\":4965:4995   */\n      tag_471\n      jump\t// in\n    tag_593:\n        /* \"#utility.yul\":4868:5001   */\n      swap3\n      swap2\n      pop\n      pop\n      jump\t// out\n        /* \"#utility.yul\":5007:5475   */\n    tag_93:\n        /* \"#utility.yul\":5072:5078   */\n      0x00\n        /* \"#utility.yul\":5080:5086   */\n      0x00\n        /* \"#utility.yul\":5129:5131   */\n      0x40\n        /* \"#utility.yul\":5117:5126   */\n      dup4\n        /* \"#utility.yul\":5108:5115   */\n      dup6\n        /* \"#utility.yul\":5104:5127   */\n      sub\n        /* \"#utility.yul\":5100:5132   */\n      slt\n        /* \"#utility.yul\":5097:5216   */\n      iszero\n      tag_595\n      jumpi\n        /* \"#utility.yul\":5135:5214   */\n      tag_596\n      tag_459\n      jump\t// in\n    tag_596:\n        /* \"#utility.yul\":5097:5216   */\n    tag_595:\n        /* \"#utility.yul\":5255:5256   */\n      0x00\n        /* \"#utility.yul\":5280:5333   */\n      tag_597\n        /* \"#utility.yul\":5325:5332   */\n      dup6\n        /* \"#utility.yul\":5316:5322   */\n      dup3\n        /* \"#utility.yul\":5305:5314   */\n      dup7\n        /* \"#utility.yul\":5301:5323   */\n      add\n        /* \"#utility.yul\":5280:5333   */\n      tag_464\n      jump\t// in\n    tag_597:\n        /* \"#utility.yul\":5270:5333   */\n      swap3\n      pop\n        /* \"#utility.yul\":5226:5343   */\n      pop\n        /* \"#utility.yul\":5382:5384   */\n      0x20\n        /* \"#utility.yul\":5408:5458   */\n      tag_598\n        /* \"#utility.yul\":5450:5457   */\n      dup6\n        /* \"#utility.yul\":5441:5447   */\n      dup3\n        /* \"#utility.yul\":5430:5439   */\n      dup7\n        /* \"#utility.yul\":5426:5448   */\n      add\n        /* \"#utility.yul\":5408:5458   */\n      tag_472\n      jump\t// in\n    tag_598:\n        /* \"#utility.yul\":5398:5458   */\n      swap2\n      pop\n        /* \"#utility.yul\":5353:5468   */\n      pop\n        /* \"#utility.yul\":5007:5475   */\n      swap3\n      pop\n      swap3\n      swap1\n      pop\n      jump\t// out\n        /* \"#utility.yul\":5481:5810   */\n    tag_99:\n        /* \"#utility.yul\":5540:5546   */\n      0x00\n        /* \"#utility.yul\":5589:5591   */\n      0x20\n        /* \"#utility.yul\":5577:5586   */\n      dup3\n        /* \"#utility.yul\":5568:5575   */\n      dup5\n        /* \"#utility.yul\":5564:5587   */\n      sub\n        /* \"#utility.yul\":5560:5592   */\n      slt\n        /* \"#utility.yul\":5557:5676   */\n      iszero\n      tag_600\n      jumpi\n        /* \"#utility.yul\":5595:5674   */\n      tag_601\n      tag_459\n      jump\t// in\n    tag_601:\n        /* \"#utility.yul\":5557:5676   */\n    tag_600:\n        /* \"#utility.yul\":5715:5716   */\n      0x00\n        /* \"#utility.yul\":5740:5793   */\n      tag_602\n        /* \"#utility.yul\":5785:5792   */\n      dup5\n        /* \"#utility.yul\":5776:5782   */\n      dup3\n        /* \"#utility.yul\":5765:5774   */\n      dup6\n        /* \"#utility.yul\":5761:5783   */\n      add\n        /* \"#utility.yul\":5740:5793   */\n      tag_466\n      jump\t// in\n    tag_602:\n        /* \"#utility.yul\":5730:5793   */\n      swap2\n      pop\n        /* \"#utility.yul\":5686:5803   */\n      pop\n        /* \"#utility.yul\":5481:5810   */\n      swap3\n      swap2\n      pop\n      pop\n      jump\t// out\n        /* \"#utility.yul\":5816:6290   */\n    tag_106:\n        /* \"#utility.yul\":5884:5890   */\n      0x00\n        /* \"#utility.yul\":5892:5898   */\n      0x00\n        /* \"#utility.yul\":5941:5943   */\n      0x40\n        /* \"#utility.yul\":5929:5938   */\n      dup4\n        /* \"#utility.yul\":5920:5927   */\n      dup6\n        /* \"#utility.yul\":5916:5939   */\n      sub\n        /* \"#utility.yul\":5912:5944   */\n      slt\n        /* \"#utility.yul\":5909:6028   */\n      iszero\n      tag_604\n      jumpi\n        /* \"#utility.yul\":5947:6026   */\n      tag_605\n      tag_459\n      jump\t// in\n    tag_605:\n        /* \"#utility.yul\":5909:6028   */\n    tag_604:\n        /* \"#utility.yul\":6067:6068   */\n      0x00\n        /* \"#utility.yul\":6092:6145   */\n      tag_606\n        /* \"#utility.yul\":6137:6144   */\n      dup6\n        /* \"#utility.yul\":6128:6134   */\n      dup3\n        /* \"#utility.yul\":6117:6126   */\n      dup7\n        /* \"#utility.yul\":6113:6135   */\n      add\n        /* \"#utility.yul\":6092:6145   */\n      tag_464\n      jump\t// in\n    tag_606:\n        /* \"#utility.yul\":6082:6145   */\n      swap3\n      pop\n        /* \"#utility.yul\":6038:6155   */\n      pop\n        /* \"#utility.yul\":6194:6196   */\n      0x20\n        /* \"#utility.yul\":6220:6273   */\n      tag_607\n        /* \"#utility.yul\":6265:6272   */\n      dup6\n        /* \"#utility.yul\":6256:6262   */\n      dup3\n        /* \"#utility.yul\":6245:6254   */\n      dup7\n        /* \"#utility.yul\":6241:6263   */\n      add\n        /* \"#utility.yul\":6220:6273   */\n      tag_464\n      jump\t// in\n    tag_607:\n        /* \"#utility.yul\":6210:6273   */\n      swap2\n      pop\n        /* \"#utility.yul\":6165:6283   */\n      pop\n        /* \"#utility.yul\":5816:6290   */\n      swap3\n      pop\n      swap3\n      swap1\n      pop\n      jump\t// out\n        /* \"#utility.yul\":6296:6414   */\n    tag_473:\n        /* \"#utility.yul\":6383:6407   */\n      tag_609\n        /* \"#utility.yul\":6401:6406   */\n      dup2\n        /* \"#utility.yul\":6383:6407   */\n      tag_462\n      jump\t// in\n    tag_609:\n        /* \"#utility.yul\":6378:6381   */\n      dup3\n        /* \"#utility.yul\":6371:6408   */\n      mstore\n        /* \"#utility.yul\":6296:6414   */\n      pop\n      pop\n      jump\t// out\n        /* \"#utility.yul\":6420:6642   */\n    tag_117:\n        /* \"#utility.yul\":6513:6517   */\n      0x00\n        /* \"#utility.yul\":6551:6553   */\n      0x20\n        /* \"#utility.yul\":6540:6549   */\n      dup3\n        /* \"#utility.yul\":6536:6554   */\n      add\n        /* \"#utility.yul\":6528:6554   */\n      swap1\n      pop\n        /* \"#utility.yul\":6564:6635   */\n      tag_611\n        /* \"#utility.yul\":6632:6633   */\n      0x00\n        /* \"#utility.yul\":6621:6630   */\n      dup4\n        /* \"#utility.yul\":6617:6634   */\n      add\n        /* \"#utility.yul\":6608:6614   */\n      dup5\n        /* \"#utility.yul\":6564:6635   */\n      tag_473\n      jump\t// in\n    tag_611:\n        /* \"#utility.yul\":6420:6642   */\n      swap3\n      swap2\n      pop\n      pop\n      jump\t// out\n        /* \"#utility.yul\":6648:6977   */\n    tag_120:\n        /* \"#utility.yul\":6707:6713   */\n      0x00\n        /* \"#utility.yul\":6756:6758   */\n      0x20\n        /* \"#utility.yul\":6744:6753   */\n      dup3\n        /* \"#utility.yul\":6735:6742   */\n      dup5\n        /* \"#utility.yul\":6731:6754   */\n      sub\n        /* \"#utility.yul\":6727:6759   */\n      slt\n        /* \"#utility.yul\":6724:6843   */\n      iszero\n      tag_613\n      jumpi\n        /* \"#utility.yul\":6762:6841   */\n      tag_614\n      tag_459\n      jump\t// in\n    tag_614:\n        /* \"#utility.yul\":6724:6843   */\n    tag_613:\n        /* \"#utility.yul\":6882:6883   */\n      0x00\n        /* \"#utility.yul\":6907:6960   */\n      tag_615\n        /* \"#utility.yul\":6952:6959   */\n      dup5\n        /* \"#utility.yul\":6943:6949   */\n      dup3\n        /* \"#utility.yul\":6932:6941   */\n      dup6\n        /* \"#utility.yul\":6928:6950   */\n      add\n        /* \"#utility.yul\":6907:6960   */\n      tag_464\n      jump\t// in\n    tag_615:\n        /* \"#utility.yul\":6897:6960   */\n      swap2\n      pop\n        /* \"#utility.yul\":6853:6970   */\n      pop\n        /* \"#utility.yul\":6648:6977   */\n      swap3\n      swap2\n      pop\n      pop\n      jump\t// out\n        /* \"#utility.yul\":6983:7163   */\n    tag_474:\n        /* \"#utility.yul\":7031:7108   */\n      0x4e487b7100000000000000000000000000000000000000000000000000000000\n        /* \"#utility.yul\":7028:7029   */\n      0x00\n        /* \"#utility.yul\":7021:7109   */\n      mstore\n        /* \"#utility.yul\":7128:7132   */\n      0x22\n        /* \"#utility.yul\":7125:7126   */\n      0x04\n        /* \"#utility.yul\":7118:7133   */\n      mstore\n        /* \"#utility.yul\":7152:7156   */\n      0x24\n        /* \"#utility.yul\":7149:7150   */\n      0x00\n        /* \"#utility.yul\":7142:7157   */\n      revert\n        /* \"#utility.yul\":7169:7489   */\n    tag_188:\n        /* \"#utility.yul\":7213:7219   */\n      0x00\n        /* \"#utility.yul\":7250:7251   */\n      0x02\n        /* \"#utility.yul\":7244:7248   */\n      dup3\n        /* \"#utility.yul\":7240:7252   */\n      div\n        /* \"#utility.yul\":7230:7252   */\n      swap1\n      pop\n        /* \"#utility.yul\":7297:7298   */\n      0x01\n        /* \"#utility.yul\":7291:7295   */\n      dup3\n        /* \"#utility.yul\":7287:7299   */\n      and\n        /* \"#utility.yul\":7318:7336   */\n      dup1\n        /* \"#utility.yul\":7308:7389   */\n      tag_618\n      jumpi\n        /* \"#utility.yul\":7374:7378   */\n      0x7f\n        /* \"#utility.yul\":7366:7372   */\n      dup3\n        /* \"#utility.yul\":7362:7379   */\n      and\n        /* \"#utility.yul\":7352:7379   */\n      swap2\n      pop\n        /* \"#utility.yul\":7308:7389   */\n    tag_618:\n        /* \"#utility.yul\":7436:7438   */\n      0x20\n        /* \"#utility.yul\":7428:7434   */\n      dup3\n        /* \"#utility.yul\":7425:7439   */\n      lt\n        /* \"#utility.yul\":7405:7423   */\n      dup2\n        /* \"#utility.yul\":7402:7440   */\n      sub\n        /* \"#utility.yul\":7399:7483   */\n      tag_619\n      jumpi\n        /* \"#utility.yul\":7455:7473   */\n      tag_620\n      tag_474\n      jump\t// in\n    tag_620:\n        /* \"#utility.yul\":7399:7483   */\n    tag_619:\n        /* \"#utility.yul\":7220:7489   */\n      pop\n        /* \"#utility.yul\":7169:7489   */\n      swap2\n      swap1\n      pop\n      jump\t// out\n        /* \"#utility.yul\":7495:7722   */\n    tag_475:\n        /* \"#utility.yul\":7635:7669   */\n      0x45524332303a207472616e7366657220616d6f756e7420657863656564732061\n        /* \"#utility.yul\":7631:7632   */\n      0x00\n        /* \"#utility.yul\":7623:7629   */\n      dup3\n        /* \"#utility.yul\":7619:7633   */\n      add\n        /* \"#utility.yul\":7612:7670   */\n      mstore\n        /* \"#utility.yul\":7704:7714   */\n      0x6c6c6f77616e6365000000000000000000000000000000000000000000000000\n        /* \"#utility.yul\":7699:7701   */\n      0x20\n        /* \"#utility.yul\":7691:7697   */\n      dup3\n        /* \"#utility.yul\":7687:7702   */\n      add\n        /* \"#utility.yul\":7680:7715   */\n      mstore\n        /* \"#utility.yul\":7495:7722   */\n      pop\n      jump\t// out\n        /* \"#utility.yul\":7728:8094   */\n    tag_476:\n        /* \"#utility.yul\":7870:7873   */\n      0x00\n        /* \"#utility.yul\":7891:7958   */\n      tag_623\n        /* \"#utility.yul\":7955:7957   */\n      0x28\n        /* \"#utility.yul\":7950:7953   */\n      dup4\n        /* \"#utility.yul\":7891:7958   */\n      tag_452\n      jump\t// in\n    tag_623:\n        /* \"#utility.yul\":7884:7958   */\n      swap2\n      pop\n        /* \"#utility.yul\":7967:8060   */\n      tag_624\n        /* \"#utility.yul\":8056:8059   */\n      dup3\n        /* \"#utility.yul\":7967:8060   */\n      tag_475\n      jump\t// in\n    tag_624:\n        /* \"#utility.yul\":8085:8087   */\n      0x40\n        /* \"#utility.yul\":8080:8083   */\n      dup3\n        /* \"#utility.yul\":8076:8088   */\n      add\n        /* \"#utility.yul\":8069:8088   */\n      swap1\n      pop\n        /* \"#utility.yul\":7728:8094   */\n      swap2\n      swap1\n      pop\n      jump\t// out\n        /* \"#utility.yul\":8100:8519   */\n    tag_203:\n        /* \"#utility.yul\":8266:8270   */\n      0x00\n        /* \"#utility.yul\":8304:8306   */\n      0x20\n        /* \"#utility.yul\":8293:8302   */\n      dup3\n        /* \"#utility.yul\":8289:8307   */\n      add\n        /* \"#utility.yul\":8281:8307   */\n      swap1\n      pop\n        /* \"#utility.yul\":8353:8362   */\n      dup2\n        /* \"#utility.yul\":8347:8351   */\n      dup2\n        /* \"#utility.yul\":8343:8363   */\n      sub\n        /* \"#utility.yul\":8339:8340   */\n      0x00\n        /* \"#utility.yul\":8328:8337   */\n      dup4\n        /* \"#utility.yul\":8324:8341   */\n      add\n        /* \"#utility.yul\":8317:8364   */\n      mstore\n        /* \"#utility.yul\":8381:8512   */\n      tag_626\n        /* \"#utility.yul\":8507:8511   */\n      dup2\n        /* \"#utility.yul\":8381:8512   */\n      tag_476\n      jump\t// in\n    tag_626:\n        /* \"#utility.yul\":8373:8512   */\n      swap1\n      pop\n        /* \"#utility.yul\":8100:8519   */\n      swap2\n      swap1\n      pop\n      jump\t// out\n        /* \"#utility.yul\":8525:8707   */\n    tag_477:\n        /* \"#utility.yul\":8665:8699   */\n      0x4f776e61626c653a2063616c6c6572206973206e6f7420746865206f776e6572\n        /* \"#utility.yul\":8661:8662   */\n      0x00\n        /* \"#utility.yul\":8653:8659   */\n      dup3\n        /* \"#utility.yul\":8649:8663   */\n      add\n        /* \"#utility.yul\":8642:8700   */\n      mstore\n        /* \"#utility.yul\":8525:8707   */\n      pop\n      jump\t// out\n        /* \"#utility.yul\":8713:9079   */\n    tag_478:\n        /* \"#utility.yul\":8855:8858   */\n      0x00\n        /* \"#utility.yul\":8876:8943   */\n      tag_629\n        /* \"#utility.yul\":8940:8942   */\n      0x20\n        /* \"#utility.yul\":8935:8938   */\n      dup4\n        /* \"#utility.yul\":8876:8943   */\n      tag_452\n      jump\t// in\n    tag_629:\n        /* \"#utility.yul\":8869:8943   */\n      swap2\n      pop\n        /* \"#utility.yul\":8952:9045   */\n      tag_630\n        /* \"#utility.yul\":9041:9044   */\n      dup3\n        /* \"#utility.yul\":8952:9045   */\n      tag_477\n      jump\t// in\n    tag_630:\n        /* \"#utility.yul\":9070:9072   */\n      0x20\n        /* \"#utility.yul\":9065:9068   */\n      dup3\n        /* \"#utility.yul\":9061:9073   */\n      add\n        /* \"#utility.yul\":9054:9073   */\n      swap1\n      pop\n        /* \"#utility.yul\":8713:9079   */\n      swap2\n      swap1\n      pop\n      jump\t// out\n        /* \"#utility.yul\":9085:9504   */\n    tag_214:\n        /* \"#utility.yul\":9251:9255   */\n      0x00\n        /* \"#utility.yul\":9289:9291   */\n      0x20\n        /* \"#utility.yul\":9278:9287   */\n      dup3\n        /* \"#utility.yul\":9274:9292   */\n      add\n        /* \"#utility.yul\":9266:9292   */\n      swap1\n      pop\n        /* \"#utility.yul\":9338:9347   */\n      dup2\n        /* \"#utility.yul\":9332:9336   */\n      dup2\n        /* \"#utility.yul\":9328:9348   */\n      sub\n        /* \"#utility.yul\":9324:9325   */\n      0x00\n        /* \"#utility.yul\":9313:9322   */\n      dup4\n        /* \"#utility.yul\":9309:9326   */\n      add\n        /* \"#utility.yul\":9302:9349   */\n      mstore\n        /* \"#utility.yul\":9366:9497   */\n      tag_632\n        /* \"#utility.yul\":9492:9496   */\n      dup2\n        /* \"#utility.yul\":9366:9497   */\n      tag_478\n      jump\t// in\n    tag_632:\n        /* \"#utility.yul\":9358:9497   */\n      swap1\n      pop\n        /* \"#utility.yul\":9085:9504   */\n      swap2\n      swap1\n      pop\n      jump\t// out\n        /* \"#utility.yul\":9510:9743   */\n    tag_479:\n        /* \"#utility.yul\":9650:9684   */\n      0x496e697469616c697a61626c653a20636f6e747261637420697320616c726561\n        /* \"#utility.yul\":9646:9647   */\n      0x00\n        /* \"#utility.yul\":9638:9644   */\n      dup3\n        /* \"#utility.yul\":9634:9648   */\n      add\n        /* \"#utility.yul\":9627:9685   */\n      mstore\n        /* \"#utility.yul\":9719:9735   */\n      0x647920696e697469616c697a6564000000000000000000000000000000000000\n        /* \"#utility.yul\":9714:9716   */\n      0x20\n        /* \"#utility.yul\":9706:9712   */\n      dup3\n        /* \"#utility.yul\":9702:9717   */\n      add\n        /* \"#utility.yul\":9695:9736   */\n      mstore\n        /* \"#utility.yul\":9510:9743   */\n      pop\n      jump\t// out\n        /* \"#utility.yul\":9749:10115   */\n    tag_480:\n        /* \"#utility.yul\":9891:9894   */\n      0x00\n        /* \"#utility.yul\":9912:9979   */\n      tag_635\n        /* \"#utility.yul\":9976:9978   */\n      0x2e\n        /* \"#utility.yul\":9971:9974   */\n      dup4\n        /* \"#utility.yul\":9912:9979   */\n      tag_452\n      jump\t// in\n    tag_635:\n        /* \"#utility.yul\":9905:9979   */\n      swap2\n      pop\n        /* \"#utility.yul\":9988:10081   */\n      tag_636\n        /* \"#utility.yul\":10077:10080   */\n      dup3\n        /* \"#utility.yul\":9988:10081   */\n      tag_479\n      jump\t// in\n    tag_636:\n        /* \"#utility.yul\":10106:10108   */\n      0x40\n        /* \"#utility.yul\":10101:10104   */\n      dup3\n        /* \"#utility.yul\":10097:10109   */\n      add\n        /* \"#utility.yul\":10090:10109   */\n      swap1\n      pop\n        /* \"#utility.yul\":9749:10115   */\n      swap2\n      swap1\n      pop\n      jump\t// out\n        /* \"#utility.yul\":10121:10540   */\n    tag_232:\n        /* \"#utility.yul\":10287:10291   */\n      0x00\n        /* \"#utility.yul\":10325:10327   */\n      0x20\n        /* \"#utility.yul\":10314:10323   */\n      dup3\n        /* \"#utility.yul\":10310:10328   */\n      add\n        /* \"#utility.yul\":10302:10328   */\n      swap1\n      pop\n        /* \"#utility.yul\":10374:10383   */\n      dup2\n        /* \"#utility.yul\":10368:10372   */\n      dup2\n        /* \"#utility.yul\":10364:10384   */\n      sub\n        /* \"#utility.yul\":10360:10361   */\n      0x00\n        /* \"#utility.yul\":10349:10358   */\n      dup4\n        /* \"#utility.yul\":10345:10362   */\n      add\n        /* \"#utility.yul\":10338:10385   */\n      mstore\n        /* \"#utility.yul\":10402:10533   */\n      tag_638\n        /* \"#utility.yul\":10528:10532   */\n      dup2\n        /* \"#utility.yul\":10402:10533   */\n      tag_480\n      jump\t// in\n    tag_638:\n        /* \"#utility.yul\":10394:10533   */\n      swap1\n      pop\n        /* \"#utility.yul\":10121:10540   */\n      swap2\n      swap1\n      pop\n      jump\t// out\n        /* \"#utility.yul\":10546:10725   */\n    tag_481:\n        /* \"#utility.yul\":10686:10717   */\n      0x45524332303a206275726e206578636565647320616c6c6f77616e6365000000\n        /* \"#utility.yul\":10682:10683   */\n      0x00\n        /* \"#utility.yul\":10674:10680   */\n      dup3\n        /* \"#utility.yul\":10670:10684   */\n      add\n        /* \"#utility.yul\":10663:10718   */\n      mstore\n        /* \"#utility.yul\":10546:10725   */\n      pop\n      jump\t// out\n        /* \"#utility.yul\":10731:11097   */\n    tag_482:\n        /* \"#utility.yul\":10873:10876   */\n      0x00\n        /* \"#utility.yul\":10894:10961   */\n      tag_641\n        /* \"#utility.yul\":10958:10960   */\n      0x1d\n        /* \"#utility.yul\":10953:10956   */\n      dup4\n        /* \"#utility.yul\":10894:10961   */\n      tag_452\n      jump\t// in\n    tag_641:\n        /* \"#utility.yul\":10887:10961   */\n      swap2\n      pop\n        /* \"#utility.yul\":10970:11063   */\n      tag_642\n        /* \"#utility.yul\":11059:11062   */\n      dup3\n        /* \"#utility.yul\":10970:11063   */\n      tag_481\n      jump\t// in\n    tag_642:\n        /* \"#utility.yul\":11088:11090   */\n      0x20\n        /* \"#utility.yul\":11083:11086   */\n      dup3\n        /* \"#utility.yul\":11079:11091   */\n      add\n        /* \"#utility.yul\":11072:11091   */\n      swap1\n      pop\n        /* \"#utility.yul\":10731:11097   */\n      swap2\n      swap1\n      pop\n      jump\t// out\n        /* \"#utility.yul\":11103:11522   */\n    tag_259:\n        /* \"#utility.yul\":11269:11273   */\n      0x00\n        /* \"#utility.yul\":11307:11309   */\n      0x20\n        /* \"#utility.yul\":11296:11305   */\n      dup3\n        /* \"#utility.yul\":11292:11310   */\n      add\n        /* \"#utility.yul\":11284:11310   */\n      swap1\n      pop\n        /* \"#utility.yul\":11356:11365   */\n      dup2\n        /* \"#utility.yul\":11350:11354   */\n      dup2\n        /* \"#utility.yul\":11346:11366   */\n      sub\n        /* \"#utility.yul\":11342:11343   */\n      0x00\n        /* \"#utility.yul\":11331:11340   */\n      dup4\n        /* \"#utility.yul\":11327:11344   */\n      add\n        /* \"#utility.yul\":11320:11367   */\n      mstore\n        /* \"#utility.yul\":11384:11515   */\n      tag_644\n        /* \"#utility.yul\":11510:11514   */\n      dup2\n        /* \"#utility.yul\":11384:11515   */\n      tag_482\n      jump\t// in\n    tag_644:\n        /* \"#utility.yul\":11376:11515   */\n      swap1\n      pop\n        /* \"#utility.yul\":11103:11522   */\n      swap2\n      swap1\n      pop\n      jump\t// out\n        /* \"#utility.yul\":11528:11690   */\n    tag_483:\n        /* \"#utility.yul\":11668:11682   */\n      0x54617820746f6f20686967680000000000000000000000000000000000000000\n        /* \"#utility.yul\":11664:11665   */\n      0x00\n        /* \"#utility.yul\":11656:11662   */\n      dup3\n        /* \"#utility.yul\":11652:11666   */\n      add\n        /* \"#utility.yul\":11645:11683   */\n      mstore\n        /* \"#utility.yul\":11528:11690   */\n      pop\n      jump\t// out\n        /* \"#utility.yul\":11696:12062   */\n    tag_484:\n        /* \"#utility.yul\":11838:11841   */\n      0x00\n        /* \"#utility.yul\":11859:11926   */\n      tag_647\n        /* \"#utility.yul\":11923:11925   */\n      0x0c\n        /* \"#utility.yul\":11918:11921   */\n      dup4\n        /* \"#utility.yul\":11859:11926   */\n      tag_452\n      jump\t// in\n    tag_647:\n        /* \"#utility.yul\":11852:11926   */\n      swap2\n      pop\n        /* \"#utility.yul\":11935:12028   */\n      tag_648\n        /* \"#utility.yul\":12024:12027   */\n      dup3\n        /* \"#utility.yul\":11935:12028   */\n      tag_483\n      jump\t// in\n    tag_648:\n        /* \"#utility.yul\":12053:12055   */\n      0x20\n        /* \"#utility.yul\":12048:12051   */\n      dup3\n        /* \"#utility.yul\":12044:12056   */\n      add\n        /* \"#utility.yul\":12037:12056   */\n      swap1\n      pop\n        /* \"#utility.yul\":11696:12062   */\n      swap2\n      swap1\n      pop\n      jump\t// out\n        /* \"#utility.yul\":12068:12487   */\n    tag_279:\n        /* \"#utility.yul\":12234:12238   */\n      0x00\n        /* \"#utility.yul\":12272:12274   */\n      0x20\n        /* \"#utility.yul\":12261:12270   */\n      dup3\n        /* \"#utility.yul\":12257:12275   */\n      add\n        /* \"#utility.yul\":12249:12275   */\n      swap1\n      pop\n        /* \"#utility.yul\":12321:12330   */\n      dup2\n        /* \"#utility.yul\":12315:12319   */\n      dup2\n        /* \"#utility.yul\":12311:12331   */\n      sub\n        /* \"#utility.yul\":12307:12308   */\n      0x00\n        /* \"#utility.yul\":12296:12305   */\n      dup4\n        /* \"#utility.yul\":12292:12309   */\n      add\n        /* \"#utility.yul\":12285:12332   */\n      mstore\n        /* \"#utility.yul\":12349:12480   */\n      tag_650\n        /* \"#utility.yul\":12475:12479   */\n      dup2\n        /* \"#utility.yul\":12349:12480   */\n      tag_484\n      jump\t// in\n    tag_650:\n        /* \"#utility.yul\":12341:12480   */\n      swap1\n      pop\n        /* \"#utility.yul\":12068:12487   */\n      swap2\n      swap1\n      pop\n      jump\t// out\n        /* \"#utility.yul\":12493:12673   */\n    tag_485:\n        /* \"#utility.yul\":12541:12618   */\n      0x4e487b7100000000000000000000000000000000000000000000000000000000\n        /* \"#utility.yul\":12538:12539   */\n      0x00\n        /* \"#utility.yul\":12531:12619   */\n      mstore\n        /* \"#utility.yul\":12638:12642   */\n      0x11\n        /* \"#utility.yul\":12635:12636   */\n      0x04\n        /* \"#utility.yul\":12628:12643   */\n      mstore\n        /* \"#utility.yul\":12662:12666   */\n      0x24\n        /* \"#utility.yul\":12659:12660   */\n      0x00\n        /* \"#utility.yul\":12652:12667   */\n      revert\n        /* \"#utility.yul\":12679:13089   */\n    tag_298:\n        /* \"#utility.yul\":12719:12726   */\n      0x00\n        /* \"#utility.yul\":12742:12762   */\n      tag_653\n        /* \"#utility.yul\":12760:12761   */\n      dup3\n        /* \"#utility.yul\":12742:12762   */\n      tag_456\n      jump\t// in\n    tag_653:\n        /* \"#utility.yul\":12737:12762   */\n      swap2\n      pop\n        /* \"#utility.yul\":12776:12796   */\n      tag_654\n        /* \"#utility.yul\":12794:12795   */\n      dup4\n        /* \"#utility.yul\":12776:12796   */\n      tag_456\n      jump\t// in\n    tag_654:\n        /* \"#utility.yul\":12771:12796   */\n      swap3\n      pop\n        /* \"#utility.yul\":12831:12832   */\n      dup3\n        /* \"#utility.yul\":12828:12829   */\n      dup3\n        /* \"#utility.yul\":12824:12833   */\n      mul\n        /* \"#utility.yul\":12853:12883   */\n      tag_655\n        /* \"#utility.yul\":12871:12882   */\n      dup2\n        /* \"#utility.yul\":12853:12883   */\n      tag_456\n      jump\t// in\n    tag_655:\n        /* \"#utility.yul\":12842:12883   */\n      swap2\n      pop\n        /* \"#utility.yul\":13032:13033   */\n      dup3\n        /* \"#utility.yul\":13023:13030   */\n      dup3\n        /* \"#utility.yul\":13019:13034   */\n      div\n        /* \"#utility.yul\":13016:13017   */\n      dup5\n        /* \"#utility.yul\":13013:13035   */\n      eq\n        /* \"#utility.yul\":12993:12994   */\n      dup4\n        /* \"#utility.yul\":12986:12995   */\n      iszero\n        /* \"#utility.yul\":12966:13049   */\n      or\n        /* \"#utility.yul\":12943:13082   */\n      tag_656\n      jumpi\n        /* \"#utility.yul\":13062:13080   */\n      tag_657\n      tag_485\n      jump\t// in\n    tag_657:\n        /* \"#utility.yul\":12943:13082   */\n    tag_656:\n        /* \"#utility.yul\":12727:13089   */\n      pop\n        /* \"#utility.yul\":12679:13089   */\n      swap3\n      swap2\n      pop\n      pop\n      jump\t// out\n        /* \"#utility.yul\":13095:13275   */\n    tag_486:\n        /* \"#utility.yul\":13143:13220   */\n      0x4e487b7100000000000000000000000000000000000000000000000000000000\n        /* \"#utility.yul\":13140:13141   */\n      0x00\n        /* \"#utility.yul\":13133:13221   */\n      mstore\n        /* \"#utility.yul\":13240:13244   */\n      0x12\n        /* \"#utility.yul\":13237:13238   */\n      0x04\n        /* \"#utility.yul\":13230:13245   */\n      mstore\n        /* \"#utility.yul\":13264:13268   */\n      0x24\n        /* \"#utility.yul\":13261:13262   */\n      0x00\n        /* \"#utility.yul\":13254:13269   */\n      revert\n        /* \"#utility.yul\":13281:13466   */\n    tag_300:\n        /* \"#utility.yul\":13321:13322   */\n      0x00\n        /* \"#utility.yul\":13338:13358   */\n      tag_660\n        /* \"#utility.yul\":13356:13357   */\n      dup3\n        /* \"#utility.yul\":13338:13358   */\n      tag_456\n      jump\t// in\n    tag_660:\n        /* \"#utility.yul\":13333:13358   */\n      swap2\n      pop\n        /* \"#utility.yul\":13372:13392   */\n      tag_661\n        /* \"#utility.yul\":13390:13391   */\n      dup4\n        /* \"#utility.yul\":13372:13392   */\n      tag_456\n      jump\t// in\n    tag_661:\n        /* \"#utility.yul\":13367:13392   */\n      swap3\n      pop\n        /* \"#utility.yul\":13411:13412   */\n      dup3\n        /* \"#utility.yul\":13401:13436   */\n      tag_662\n      jumpi\n        /* \"#utility.yul\":13416:13434   */\n      tag_663\n      tag_486\n      jump\t// in\n    tag_663:\n        /* \"#utility.yul\":13401:13436   */\n    tag_662:\n        /* \"#utility.yul\":13458:13459   */\n      dup3\n        /* \"#utility.yul\":13455:13456   */\n      dup3\n        /* \"#utility.yul\":13451:13460   */\n      div\n        /* \"#utility.yul\":13446:13460   */\n      swap1\n      pop\n        /* \"#utility.yul\":13281:13466   */\n      swap3\n      swap2\n      pop\n      pop\n      jump\t// out\n        /* \"#utility.yul\":13472:13697   */\n    tag_487:\n        /* \"#utility.yul\":13612:13646   */\n      0x4f776e61626c653a206e6577206f776e657220697320746865207a65726f2061\n        /* \"#utility.yul\":13608:13609   */\n      0x00\n        /* \"#utility.yul\":13600:13606   */\n      dup3\n        /* \"#utility.yul\":13596:13610   */\n      add\n        /* \"#utility.yul\":13589:13647   */\n      mstore\n        /* \"#utility.yul\":13681:13689   */\n      0x6464726573730000000000000000000000000000000000000000000000000000\n        /* \"#utility.yul\":13676:13678   */\n      0x20\n        /* \"#utility.yul\":13668:13674   */\n      dup3\n        /* \"#utility.yul\":13664:13679   */\n      add\n        /* \"#utility.yul\":13657:13690   */\n      mstore\n        /* \"#utility.yul\":13472:13697   */\n      pop\n      jump\t// out\n        /* \"#utility.yul\":13703:14069   */\n    tag_488:\n        /* \"#utility.yul\":13845:13848   */\n      0x00\n        /* \"#utility.yul\":13866:13933   */\n      tag_666\n        /* \"#utility.yul\":13930:13932   */\n      0x26\n        /* \"#utility.yul\":13925:13928   */\n      dup4\n        /* \"#utility.yul\":13866:13933   */\n      tag_452\n      jump\t// in\n    tag_666:\n        /* \"#utility.yul\":13859:13933   */\n      swap2\n      pop\n        /* \"#utility.yul\":13942:14035   */\n      tag_667\n        /* \"#utility.yul\":14031:14034   */\n      dup3\n        /* \"#utility.yul\":13942:14035   */\n      tag_487\n      jump\t// in\n    tag_667:\n        /* \"#utility.yul\":14060:14062   */\n      0x40\n        /* \"#utility.yul\":14055:14058   */\n      dup3\n        /* \"#utility.yul\":14051:14063   */\n      add\n        /* \"#utility.yul\":14044:14063   */\n      swap1\n      pop\n        /* \"#utility.yul\":13703:14069   */\n      swap2\n      swap1\n      pop\n      jump\t// out\n        /* \"#utility.yul\":14075:14494   */\n    tag_318:\n        /* \"#utility.yul\":14241:14245   */\n      0x00\n        /* \"#utility.yul\":14279:14281   */\n      0x20\n        /* \"#utility.yul\":14268:14277   */\n      dup3\n        /* \"#utility.yul\":14264:14282   */\n      add\n        /* \"#utility.yul\":14256:14282   */\n      swap1\n      pop\n        /* \"#utility.yul\":14328:14337   */\n      dup2\n        /* \"#utility.yul\":14322:14326   */\n      dup2\n        /* \"#utility.yul\":14318:14338   */\n      sub\n        /* \"#utility.yul\":14314:14315   */\n      0x00\n        /* \"#utility.yul\":14303:14312   */\n      dup4\n        /* \"#utility.yul\":14299:14316   */\n      add\n        /* \"#utility.yul\":14292:14339   */\n      mstore\n        /* \"#utility.yul\":14356:14487   */\n      tag_669\n        /* \"#utility.yul\":14482:14486   */\n      dup2\n        /* \"#utility.yul\":14356:14487   */\n      tag_488\n      jump\t// in\n    tag_669:\n        /* \"#utility.yul\":14348:14487   */\n      swap1\n      pop\n        /* \"#utility.yul\":14075:14494   */\n      swap2\n      swap1\n      pop\n      jump\t// out\n        /* \"#utility.yul\":14500:14674   */\n    tag_489:\n        /* \"#utility.yul\":14640:14666   */\n      0x45524332303a20617070726f76652066726f6d207a65726f0000000000000000\n        /* \"#utility.yul\":14636:14637   */\n      0x00\n        /* \"#utility.yul\":14628:14634   */\n      dup3\n        /* \"#utility.yul\":14624:14638   */\n      add\n        /* \"#utility.yul\":14617:14667   */\n      mstore\n        /* \"#utility.yul\":14500:14674   */\n      pop\n      jump\t// out\n        /* \"#utility.yul\":14680:15046   */\n    tag_490:\n        /* \"#utility.yul\":14822:14825   */\n      0x00\n        /* \"#utility.yul\":14843:14910   */\n      tag_672\n        /* \"#utility.yul\":14907:14909   */\n      0x18\n        /* \"#utility.yul\":14902:14905   */\n      dup4\n        /* \"#utility.yul\":14843:14910   */\n      tag_452\n      jump\t// in\n    tag_672:\n        /* \"#utility.yul\":14836:14910   */\n      swap2\n      pop\n        /* \"#utility.yul\":14919:15012   */\n      tag_673\n        /* \"#utility.yul\":15008:15011   */\n      dup3\n        /* \"#utility.yul\":14919:15012   */\n      tag_489\n      jump\t// in\n    tag_673:\n        /* \"#utility.yul\":15037:15039   */\n      0x20\n        /* \"#utility.yul\":15032:15035   */\n      dup3\n        /* \"#utility.yul\":15028:15040   */\n      add\n        /* \"#utility.yul\":15021:15040   */\n      swap1\n      pop\n        /* \"#utility.yul\":14680:15046   */\n      swap2\n      swap1\n      pop\n      jump\t// out\n        /* \"#utility.yul\":15052:15471   */\n    tag_337:\n        /* \"#utility.yul\":15218:15222   */\n      0x00\n        /* \"#utility.yul\":15256:15258   */\n      0x20\n        /* \"#utility.yul\":15245:15254   */\n      dup3\n        /* \"#utility.yul\":15241:15259   */\n      add\n        /* \"#utility.yul\":15233:15259   */\n      swap1\n      pop\n        /* \"#utility.yul\":15305:15314   */\n      dup2\n        /* \"#utility.yul\":15299:15303   */\n      dup2\n        /* \"#utility.yul\":15295:15315   */\n      sub\n        /* \"#utility.yul\":15291:15292   */\n      0x00\n        /* \"#utility.yul\":15280:15289   */\n      dup4\n        /* \"#utility.yul\":15276:15293   */\n      add\n        /* \"#utility.yul\":15269:15316   */\n      mstore\n        /* \"#utility.yul\":15333:15464   */\n      tag_675\n        /* \"#utility.yul\":15459:15463   */\n      dup2\n        /* \"#utility.yul\":15333:15464   */\n      tag_490\n      jump\t// in\n    tag_675:\n        /* \"#utility.yul\":15325:15464   */\n      swap1\n      pop\n        /* \"#utility.yul\":15052:15471   */\n      swap2\n      swap1\n      pop\n      jump\t// out\n        /* \"#utility.yul\":15477:15649   */\n    tag_491:\n        /* \"#utility.yul\":15617:15641   */\n      0x45524332303a20617070726f766520746f207a65726f00000000000000000000\n        /* \"#utility.yul\":15613:15614   */\n      0x00\n        /* \"#utility.yul\":15605:15611   */\n      dup3\n        /* \"#utility.yul\":15601:15615   */\n      add\n        /* \"#utility.yul\":15594:15642   */\n      mstore\n        /* \"#utility.yul\":15477:15649   */\n      pop\n      jump\t// out\n        /* \"#utility.yul\":15655:16021   */\n    tag_492:\n        /* \"#utility.yul\":15797:15800   */\n      0x00\n        /* \"#utility.yul\":15818:15885   */\n      tag_678\n        /* \"#utility.yul\":15882:15884   */\n      0x16\n        /* \"#utility.yul\":15877:15880   */\n      dup4\n        /* \"#utility.yul\":15818:15885   */\n      tag_452\n      jump\t// in\n    tag_678:\n        /* \"#utility.yul\":15811:15885   */\n      swap2\n      pop\n        /* \"#utility.yul\":15894:15987   */\n      tag_679\n        /* \"#utility.yul\":15983:15986   */\n      dup3\n        /* \"#utility.yul\":15894:15987   */\n      tag_491\n      jump\t// in\n    tag_679:\n        /* \"#utility.yul\":16012:16014   */\n      0x20\n        /* \"#utility.yul\":16007:16010   */\n      dup3\n        /* \"#utility.yul\":16003:16015   */\n      add\n        /* \"#utility.yul\":15996:16015   */\n      swap1\n      pop\n        /* \"#utility.yul\":15655:16021   */\n      swap2\n      swap1\n      pop\n      jump\t// out\n        /* \"#utility.yul\":16027:16446   */\n    tag_340:\n        /* \"#utility.yul\":16193:16197   */\n      0x00\n        /* \"#utility.yul\":16231:16233   */\n      0x20\n        /* \"#utility.yul\":16220:16229   */\n      dup3\n        /* \"#utility.yul\":16216:16234   */\n      add\n        /* \"#utility.yul\":16208:16234   */\n      swap1\n      pop\n        /* \"#utility.yul\":16280:16289   */\n      dup2\n        /* \"#utility.yul\":16274:16278   */\n      dup2\n        /* \"#utility.yul\":16270:16290   */\n      sub\n        /* \"#utility.yul\":16266:16267   */\n      0x00\n        /* \"#utility.yul\":16255:16264   */\n      dup4\n        /* \"#utility.yul\":16251:16268   */\n      add\n        /* \"#utility.yul\":16244:16291   */\n      mstore\n        /* \"#utility.yul\":16308:16439   */\n      tag_681\n        /* \"#utility.yul\":16434:16438   */\n      dup2\n        /* \"#utility.yul\":16308:16439   */\n      tag_492\n      jump\t// in\n    tag_681:\n        /* \"#utility.yul\":16300:16439   */\n      swap1\n      pop\n        /* \"#utility.yul\":16027:16446   */\n      swap2\n      swap1\n      pop\n      jump\t// out\n        /* \"#utility.yul\":16452:16622   */\n    tag_493:\n        /* \"#utility.yul\":16592:16614   */\n      0x5061757361626c653a206e6f7420706175736564000000000000000000000000\n        /* \"#utility.yul\":16588:16589   */\n      0x00\n        /* \"#utility.yul\":16580:16586   */\n      dup3\n        /* \"#utility.yul\":16576:16590   */\n      add\n        /* \"#utility.yul\":16569:16615   */\n      mstore\n        /* \"#utility.yul\":16452:16622   */\n      pop\n      jump\t// out\n        /* \"#utility.yul\":16628:16994   */\n    tag_494:\n        /* \"#utility.yul\":16770:16773   */\n      0x00\n        /* \"#utility.yul\":16791:16858   */\n      tag_684\n        /* \"#utility.yul\":16855:16857   */\n      0x14\n        /* \"#utility.yul\":16850:16853   */\n      dup4\n        /* \"#utility.yul\":16791:16858   */\n      tag_452\n      jump\t// in\n    tag_684:\n        /* \"#utility.yul\":16784:16858   */\n      swap2\n      pop\n        /* \"#utility.yul\":16867:16960   */\n      tag_685\n        /* \"#utility.yul\":16956:16959   */\n      dup3\n        /* \"#utility.yul\":16867:16960   */\n      tag_493\n      jump\t// in\n    tag_685:\n        /* \"#utility.yul\":16985:16987   */\n      0x20\n        /* \"#utility.yul\":16980:16983   */\n      dup3\n        /* \"#utility.yul\":16976:16988   */\n      add\n        /* \"#utility.yul\":16969:16988   */\n      swap1\n      pop\n        /* \"#utility.yul\":16628:16994   */\n      swap2\n      swap1\n      pop\n      jump\t// out\n        /* \"#utility.yul\":17000:17419   */\n    tag_350:\n        /* \"#utility.yul\":17166:17170   */\n      0x00\n        /* \"#utility.yul\":17204:17206   */\n      0x20\n        /* \"#utility.yul\":17193:17202   */\n      dup3\n        /* \"#utility.yul\":17189:17207   */\n      add\n        /* \"#utility.yul\":17181:17207   */\n      swap1\n      pop\n        /* \"#utility.yul\":17253:17262   */\n      dup2\n        /* \"#utility.yul\":17247:17251   */\n      dup2\n        /* \"#utility.yul\":17243:17263   */\n      sub\n        /* \"#utility.yul\":17239:17240   */\n      0x00\n        /* \"#utility.yul\":17228:17237   */\n      dup4\n        /* \"#utility.yul\":17224:17241   */\n      add\n        /* \"#utility.yul\":17217:17264   */\n      mstore\n        /* \"#utility.yul\":17281:17412   */\n      tag_687\n        /* \"#utility.yul\":17407:17411   */\n      dup2\n        /* \"#utility.yul\":17281:17412   */\n      tag_494\n      jump\t// in\n    tag_687:\n        /* \"#utility.yul\":17273:17412   */\n      swap1\n      pop\n        /* \"#utility.yul\":17000:17419   */\n      swap2\n      swap1\n      pop\n      jump\t// out\n        /* \"#utility.yul\":17425:17596   */\n    tag_495:\n        /* \"#utility.yul\":17565:17588   */\n      0x45524332303a206275726e2066726f6d207a65726f0000000000000000000000\n        /* \"#utility.yul\":17561:17562   */\n      0x00\n        /* \"#utility.yul\":17553:17559   */\n      dup3\n        /* \"#utility.yul\":17549:17563   */\n      add\n        /* \"#utility.yul\":17542:17589   */\n      mstore\n        /* \"#utility.yul\":17425:17596   */\n      pop\n      jump\t// out\n        /* \"#utility.yul\":17602:17968   */\n    tag_496:\n        /* \"#utility.yul\":17744:17747   */\n      0x00\n        /* \"#utility.yul\":17765:17832   */\n      tag_690\n        /* \"#utility.yul\":17829:17831   */\n      0x15\n        /* \"#utility.yul\":17824:17827   */\n      dup4\n        /* \"#utility.yul\":17765:17832   */\n      tag_452\n      jump\t// in\n    tag_690:\n        /* \"#utility.yul\":17758:17832   */\n      swap2\n      pop\n        /* \"#utility.yul\":17841:17934   */\n      tag_691\n        /* \"#utility.yul\":17930:17933   */\n      dup3\n        /* \"#utility.yul\":17841:17934   */\n      tag_495\n      jump\t// in\n    tag_691:\n        /* \"#utility.yul\":17959:17961   */\n      0x20\n        /* \"#utility.yul\":17954:17957   */\n      dup3\n        /* \"#utility.yul\":17950:17962   */\n      add\n        /* \"#utility.yul\":17943:17962   */\n      swap1\n      pop\n        /* \"#utility.yul\":17602:17968   */\n      swap2\n      swap1\n      pop\n      jump\t// out\n        /* \"#utility.yul\":17974:18393   */\n    tag_357:\n        /* \"#utility.yul\":18140:18144   */\n      0x00\n        /* \"#utility.yul\":18178:18180   */\n      0x20\n        /* \"#utility.yul\":18167:18176   */\n      dup3\n        /* \"#utility.yul\":18163:18181   */\n      add\n        /* \"#utility.yul\":18155:18181   */\n      swap1\n      pop\n        /* \"#utility.yul\":18227:18236   */\n      dup2\n        /* \"#utility.yul\":18221:18225   */\n      dup2\n        /* \"#utility.yul\":18217:18237   */\n      sub\n        /* \"#utility.yul\":18213:18214   */\n      0x00\n        /* \"#utility.yul\":18202:18211   */\n      dup4\n        /* \"#utility.yul\":18198:18215   */\n      add\n        /* \"#utility.yul\":18191:18238   */\n      mstore\n        /* \"#utility.yul\":18255:18386   */\n      tag_693\n        /* \"#utility.yul\":18381:18385   */\n      dup2\n        /* \"#utility.yul\":18255:18386   */\n      tag_496\n      jump\t// in\n    tag_693:\n        /* \"#utility.yul\":18247:18386   */\n      swap1\n      pop\n        /* \"#utility.yul\":17974:18393   */\n      swap2\n      swap1\n      pop\n      jump\t// out\n        /* \"#utility.yul\":18399:18576   */\n    tag_497:\n        /* \"#utility.yul\":18539:18568   */\n      0x45524332303a206275726e20657863656564732062616c616e63650000000000\n        /* \"#utility.yul\":18535:18536   */\n      0x00\n        /* \"#utility.yul\":18527:18533   */\n      dup3\n        /* \"#utility.yul\":18523:18537   */\n      add\n        /* \"#utility.yul\":18516:18569   */\n      mstore\n        /* \"#utility.yul\":18399:18576   */\n      pop\n      jump\t// out\n        /* \"#utility.yul\":18582:18948   */\n    tag_498:\n        /* \"#utility.yul\":18724:18727   */\n      0x00\n        /* \"#utility.yul\":18745:18812   */\n      tag_696\n        /* \"#utility.yul\":18809:18811   */\n      0x1b\n        /* \"#utility.yul\":18804:18807   */\n      dup4\n        /* \"#utility.yul\":18745:18812   */\n      tag_452\n      jump\t// in\n    tag_696:\n        /* \"#utility.yul\":18738:18812   */\n      swap2\n      pop\n        /* \"#utility.yul\":18821:18914   */\n      tag_697\n        /* \"#utility.yul\":18910:18913   */\n      dup3\n        /* \"#utility.yul\":18821:18914   */\n      tag_497\n      jump\t// in\n    tag_697:\n        /* \"#utility.yul\":18939:18941   */\n      0x20\n        /* \"#utility.yul\":18934:18937   */\n      dup3\n        /* \"#utility.yul\":18930:18942   */\n      add\n        /* \"#utility.yul\":18923:18942   */\n      swap1\n      pop\n        /* \"#utility.yul\":18582:18948   */\n      swap2\n      swap1\n      pop\n      jump\t// out\n        /* \"#utility.yul\":18954:19373   */\n    tag_360:\n        /* \"#utility.yul\":19120:19124   */\n      0x00\n        /* \"#utility.yul\":19158:19160   */\n      0x20\n        /* \"#utility.yul\":19147:19156   */\n      dup3\n        /* \"#utility.yul\":19143:19161   */\n      add\n        /* \"#utility.yul\":19135:19161   */\n      swap1\n      pop\n        /* \"#utility.yul\":19207:19216   */\n      dup2\n        /* \"#utility.yul\":19201:19205   */\n      dup2\n        /* \"#utility.yul\":19197:19217   */\n      sub\n        /* \"#utility.yul\":19193:19194   */\n      0x00\n        /* \"#utility.yul\":19182:19191   */\n      dup4\n        /* \"#utility.yul\":19178:19195   */\n      add\n        /* \"#utility.yul\":19171:19218   */\n      mstore\n        /* \"#utility.yul\":19235:19366   */\n      tag_699\n        /* \"#utility.yul\":19361:19365   */\n      dup2\n        /* \"#utility.yul\":19235:19366   */\n      tag_498\n      jump\t// in\n    tag_699:\n        /* \"#utility.yul\":19227:19366   */\n      swap1\n      pop\n        /* \"#utility.yul\":18954:19373   */\n      swap2\n      swap1\n      pop\n      jump\t// out\n        /* \"#utility.yul\":19379:19573   */\n    tag_362:\n        /* \"#utility.yul\":19419:19423   */\n      0x00\n        /* \"#utility.yul\":19439:19459   */\n      tag_701\n        /* \"#utility.yul\":19457:19458   */\n      dup3\n        /* \"#utility.yul\":19439:19459   */\n      tag_456\n      jump\t// in\n    tag_701:\n        /* \"#utility.yul\":19434:19459   */\n      swap2\n      pop\n        /* \"#utility.yul\":19473:19493   */\n      tag_702\n        /* \"#utility.yul\":19491:19492   */\n      dup4\n        /* \"#utility.yul\":19473:19493   */\n      tag_456\n      jump\t// in\n    tag_702:\n        /* \"#utility.yul\":19468:19493   */\n      swap3\n      pop\n        /* \"#utility.yul\":19517:19518   */\n      dup3\n        /* \"#utility.yul\":19514:19515   */\n      dup3\n        /* \"#utility.yul\":19510:19519   */\n      sub\n        /* \"#utility.yul\":19502:19519   */\n      swap1\n      pop\n        /* \"#utility.yul\":19541:19542   */\n      dup2\n        /* \"#utility.yul\":19535:19539   */\n      dup2\n        /* \"#utility.yul\":19532:19543   */\n      gt\n        /* \"#utility.yul\":19529:19566   */\n      iszero\n      tag_703\n      jumpi\n        /* \"#utility.yul\":19546:19564   */\n      tag_704\n      tag_485\n      jump\t// in\n    tag_704:\n        /* \"#utility.yul\":19529:19566   */\n    tag_703:\n        /* \"#utility.yul\":19379:19573   */\n      swap3\n      swap2\n      pop\n      pop\n      jump\t// out\n        /* \"#utility.yul\":19579:19809   */\n    tag_499:\n        /* \"#utility.yul\":19719:19753   */\n      0x496e697469616c697a61626c653a20636f6e7472616374206973206e6f742069\n        /* \"#utility.yul\":19715:19716   */\n      0x00\n        /* \"#utility.yul\":19707:19713   */\n      dup3\n        /* \"#utility.yul\":19703:19717   */\n      add\n        /* \"#utility.yul\":19696:19754   */\n      mstore\n        /* \"#utility.yul\":19788:19801   */\n      0x6e697469616c697a696e67000000000000000000000000000000000000000000\n        /* \"#utility.yul\":19783:19785   */\n      0x20\n        /* \"#utility.yul\":19775:19781   */\n      dup3\n        /* \"#utility.yul\":19771:19786   */\n      add\n        /* \"#utility.yul\":19764:19802   */\n      mstore\n        /* \"#utility.yul\":19579:19809   */\n      pop\n      jump\t// out\n        /* \"#utility.yul\":19815:20181   */\n    tag_500:\n        /* \"#utility.yul\":19957:19960   */\n      0x00\n        /* \"#utility.yul\":19978:20045   */\n      tag_707\n        /* \"#utility.yul\":20042:20044   */\n      0x2b\n        /* \"#utility.yul\":20037:20040   */\n      dup4\n        /* \"#utility.yul\":19978:20045   */\n      tag_452\n      jump\t// in\n    tag_707:\n        /* \"#utility.yul\":19971:20045   */\n      swap2\n      pop\n        /* \"#utility.yul\":20054:20147   */\n      tag_708\n        /* \"#utility.yul\":20143:20146   */\n      dup3\n        /* \"#utility.yul\":20054:20147   */\n      tag_499\n      jump\t// in\n    tag_708:\n        /* \"#utility.yul\":20172:20174   */\n      0x40\n        /* \"#utility.yul\":20167:20170   */\n      dup3\n        /* \"#utility.yul\":20163:20175   */\n      add\n        /* \"#utility.yul\":20156:20175   */\n      swap1\n      pop\n        /* \"#utility.yul\":19815:20181   */\n      swap2\n      swap1\n      pop\n      jump\t// out\n        /* \"#utility.yul\":20187:20606   */\n    tag_366:\n        /* \"#utility.yul\":20353:20357   */\n      0x00\n        /* \"#utility.yul\":20391:20393   */\n      0x20\n        /* \"#utility.yul\":20380:20389   */\n      dup3\n        /* \"#utility.yul\":20376:20394   */\n      add\n        /* \"#utility.yul\":20368:20394   */\n      swap1\n      pop\n        /* \"#utility.yul\":20440:20449   */\n      dup2\n        /* \"#utility.yul\":20434:20438   */\n      dup2\n        /* \"#utility.yul\":20430:20450   */\n      sub\n        /* \"#utility.yul\":20426:20427   */\n      0x00\n        /* \"#utility.yul\":20415:20424   */\n      dup4\n        /* \"#utility.yul\":20411:20428   */\n      add\n        /* \"#utility.yul\":20404:20451   */\n      mstore\n        /* \"#utility.yul\":20468:20599   */\n      tag_710\n        /* \"#utility.yul\":20594:20598   */\n      dup2\n        /* \"#utility.yul\":20468:20599   */\n      tag_500\n      jump\t// in\n    tag_710:\n        /* \"#utility.yul\":20460:20599   */\n      swap1\n      pop\n        /* \"#utility.yul\":20187:20606   */\n      swap2\n      swap1\n      pop\n      jump\t// out\n        /* \"#utility.yul\":20612:20792   */\n    tag_501:\n        /* \"#utility.yul\":20660:20737   */\n      0x4e487b7100000000000000000000000000000000000000000000000000000000\n        /* \"#utility.yul\":20657:20658   */\n      0x00\n        /* \"#utility.yul\":20650:20738   */\n      mstore\n        /* \"#utility.yul\":20757:20761   */\n      0x41\n        /* \"#utility.yul\":20754:20755   */\n      0x04\n        /* \"#utility.yul\":20747:20762   */\n      mstore\n        /* \"#utility.yul\":20781:20785   */\n      0x24\n        /* \"#utility.yul\":20778:20779   */\n      0x00\n        /* \"#utility.yul\":20771:20786   */\n      revert\n        /* \"#utility.yul\":20798:20939   */\n    tag_502:\n        /* \"#utility.yul\":20847:20851   */\n      0x00\n        /* \"#utility.yul\":20870:20873   */\n      dup2\n        /* \"#utility.yul\":20862:20873   */\n      swap1\n      pop\n        /* \"#utility.yul\":20893:20896   */\n      dup2\n        /* \"#utility.yul\":20890:20891   */\n      0x00\n        /* \"#utility.yul\":20883:20897   */\n      mstore\n        /* \"#utility.yul\":20927:20931   */\n      0x20\n        /* \"#utility.yul\":20924:20925   */\n      0x00\n        /* \"#utility.yul\":20914:20932   */\n      keccak256\n        /* \"#utility.yul\":20906:20932   */\n      swap1\n      pop\n        /* \"#utility.yul\":20798:20939   */\n      swap2\n      swap1\n      pop\n      jump\t// out\n        /* \"#utility.yul\":20945:21038   */\n    tag_503:\n        /* \"#utility.yul\":20982:20988   */\n      0x00\n        /* \"#utility.yul\":21029:21031   */\n      0x20\n        /* \"#utility.yul\":21024:21026   */\n      0x1f\n        /* \"#utility.yul\":21017:21022   */\n      dup4\n        /* \"#utility.yul\":21013:21027   */\n      add\n        /* \"#utility.yul\":21009:21032   */\n      div\n        /* \"#utility.yul\":20999:21032   */\n      swap1\n      pop\n        /* \"#utility.yul\":20945:21038   */\n      swap2\n      swap1\n      pop\n      jump\t// out\n        /* \"#utility.yul\":21044:21151   */\n    tag_504:\n        /* \"#utility.yul\":21088:21096   */\n      0x00\n        /* \"#utility.yul\":21138:21143   */\n      dup3\n        /* \"#utility.yul\":21132:21136   */\n      dup3\n        /* \"#utility.yul\":21128:21144   */\n      shl\n        /* \"#utility.yul\":21107:21144   */\n      swap1\n      pop\n        /* \"#utility.yul\":21044:21151   */\n      swap3\n      swap2\n      pop\n      pop\n      jump\t// out\n        /* \"#utility.yul\":21157:21550   */\n    tag_505:\n        /* \"#utility.yul\":21226:21232   */\n      0x00\n        /* \"#utility.yul\":21276:21277   */\n      0x08\n        /* \"#utility.yul\":21264:21274   */\n      dup4\n        /* \"#utility.yul\":21260:21278   */\n      mul\n        /* \"#utility.yul\":21299:21396   */\n      tag_716\n        /* \"#utility.yul\":21329:21395   */\n      0xffffffffffffffffffffffffffffffffffffffffffffffffffffffffffffffff\n        /* \"#utility.yul\":21318:21327   */\n      dup3\n        /* \"#utility.yul\":21299:21396   */\n      tag_504\n      jump\t// in\n    tag_716:\n        /* \"#utility.yul\":21417:21456   */\n      tag_717\n        /* \"#utility.yul\":21447:21455   */\n      dup7\n        /* \"#utility.yul\":21436:21445   */\n      dup4\n        /* \"#utility.yul\":21417:21456   */\n      tag_504\n      jump\t// in\n    tag_717:\n        /* \"#utility.yul\":21405:21456   */\n      swap6\n      pop\n        /* \"#utility.yul\":21489:21493   */\n      dup1\n        /* \"#utility.yul\":21485:21494   */\n      not\n        /* \"#utility.yul\":21478:21483   */\n      dup5\n        /* \"#utility.yul\":21474:21495   */\n      and\n        /* \"#utility.yul\":21465:21495   */\n      swap4\n      pop\n        /* \"#utility.yul\":21538:21542   */\n      dup1\n        /* \"#utility.yul\":21528:21536   */\n      dup7\n        /* \"#utility.yul\":21524:21543   */\n      and\n        /* \"#utility.yul\":21517:21522   */\n      dup5\n        /* \"#utility.yul\":21514:21544   */\n      or\n        /* \"#utility.yul\":21504:21544   */\n      swap3\n      pop\n        /* \"#utility.yul\":21233:21550   */\n      pop\n      pop\n        /* \"#utility.yul\":21157:21550   */\n      swap4\n      swap3\n      pop\n      pop\n      pop\n      jump\t// out\n        /* \"#utility.yul\":21556:21616   */\n    tag_506:\n        /* \"#utility.yul\":21584:21587   */\n      0x00\n        /* \"#utility.yul\":21605:21610   */\n      dup2\n        /* \"#utility.yul\":21598:21610   */\n      swap1\n      pop\n        /* \"#utility.yul\":21556:21616   */\n      swap2\n      swap1\n      pop\n      jump\t// out\n        /* \"#utility.yul\":21622:21764   */\n    tag_507:\n        /* \"#utility.yul\":21672:21681   */\n      0x00\n        /* \"#utility.yul\":21705:21758   */\n      tag_720\n        /* \"#utility.yul\":21723:21757   */\n      tag_721\n        /* \"#utility.yul\":21732:21756   */\n      tag_722\n        /* \"#utility.yul\":21750:21755   */\n      dup5\n        /* \"#utility.yul\":21732:21756   */\n      tag_456\n      jump\t// in\n    tag_722:\n        /* \"#utility.yul\":21723:21757   */\n      tag_506\n      jump\t// in\n    tag_721:\n        /* \"#utility.yul\":21705:21758   */\n      tag_456\n      jump\t// in\n    tag_720:\n        /* \"#utility.yul\":21692:21758   */\n      swap1\n      pop\n        /* \"#utility.yul\":21622:21764   */\n      swap2\n      swap1\n      pop\n      jump\t// out\n        /* \"#utility.yul\":21770:21845   */\n    tag_508:\n        /* \"#utility.yul\":21813:21816   */\n      0x00\n        /* \"#utility.yul\":21834:21839   */\n      dup2\n        /* \"#utility.yul\":21827:21839   */\n      swap1\n      pop\n        /* \"#utility.yul\":21770:21845   */\n      swap2\n      swap1\n      pop\n      jump\t// out\n        /* \"#utility.yul\":21851:22120   */\n    tag_509:\n        /* \"#utility.yul\":21961:22000   */\n      tag_725\n        /* \"#utility.yul\":21992:21999   */\n      dup4\n        /* \"#utility.yul\":21961:22000   */\n      tag_507\n      jump\t// in\n    tag_725:\n        /* \"#utility.yul\":22022:22113   */\n      tag_726\n        /* \"#utility.yul\":22071:22112   */\n      tag_727\n        /* \"#utility.yul\":22095:22111   */\n      dup3\n        /* \"#utility.yul\":22071:22112   */\n      tag_508\n      jump\t// in\n    tag_727:\n        /* \"#utility.yul\":22063:22069   */\n      dup5\n        /* \"#utility.yul\":22056:22060   */\n      dup5\n        /* \"#utility.yul\":22050:22061   */\n      sload\n        /* \"#utility.yul\":22022:22113   */\n      tag_505\n      jump\t// in\n    tag_726:\n        /* \"#utility.yul\":22016:22020   */\n      dup3\n        /* \"#utility.yul\":22009:22114   */\n      sstore\n        /* \"#utility.yul\":21927:22120   */\n      pop\n        /* \"#utility.yul\":21851:22120   */\n      pop\n      pop\n      pop\n      jump\t// out\n        /* \"#utility.yul\":22126:22199   */\n    tag_510:\n        /* \"#utility.yul\":22171:22174   */\n      0x00\n        /* \"#utility.yul\":22192:22193   */\n      0x00\n        /* \"#utility.yul\":22185:22193   */\n      swap1\n      pop\n        /* \"#utility.yul\":22126:22199   */\n      swap1\n      jump\t// out\n        /* \"#utility.yul\":22205:22394   */\n    tag_511:\n        /* \"#utility.yul\":22282:22314   */\n      tag_730\n      tag_510\n      jump\t// in\n    tag_730:\n        /* \"#utility.yul\":22323:22388   */\n      tag_731\n        /* \"#utility.yul\":22381:22387   */\n      dup2\n        /* \"#utility.yul\":22373:22379   */\n      dup5\n        /* \"#utility.yul\":22367:22371   */\n      dup5\n        /* \"#utility.yul\":22323:22388   */\n      tag_509\n      jump\t// in\n    tag_731:\n        /* \"#utility.yul\":22258:22394   */\n      pop\n        /* \"#utility.yul\":22205:22394   */\n      pop\n      pop\n      jump\t// out\n        /* \"#utility.yul\":22400:22586   */\n    tag_512:\n        /* \"#utility.yul\":22460:22580   */\n    tag_733:\n        /* \"#utility.yul\":22477:22480   */\n      dup2\n        /* \"#utility.yul\":22470:22475   */\n      dup2\n        /* \"#utility.yul\":22467:22481   */\n      lt\n        /* \"#utility.yul\":22460:22580   */\n      iszero\n      tag_735\n      jumpi\n        /* \"#utility.yul\":22531:22570   */\n      tag_736\n        /* \"#utility.yul\":22568:22569   */\n      0x00\n        /* \"#utility.yul\":22561:22566   */\n      dup3\n        /* \"#utility.yul\":22531:22570   */\n      tag_511\n      jump\t// in\n    tag_736:\n        /* \"#utility.yul\":22504:22505   */\n      0x01\n        /* \"#utility.yul\":22497:22502   */\n      dup2\n        /* \"#utility.yul\":22493:22506   */\n      add\n        /* \"#utility.yul\":22484:22506   */\n      swap1\n      pop\n        /* \"#utility.yul\":22460:22580   */\n      jump(tag_733)\n    tag_735:\n        /* \"#utility.yul\":22400:22586   */\n      pop\n      pop\n      jump\t// out\n        /* \"#utility.yul\":22592:23135   */\n    tag_513:\n        /* \"#utility.yul\":22693:22695   */\n      0x1f\n        /* \"#utility.yul\":22688:22691   */\n      dup3\n        /* \"#utility.yul\":22685:22696   */\n      gt\n        /* \"#utility.yul\":22682:23128   */\n      iszero\n      tag_738\n      jumpi\n        /* \"#utility.yul\":22727:22765   */\n      tag_739\n        /* \"#utility.yul\":22759:22764   */\n      dup2\n        /* \"#utility.yul\":22727:22765   */\n      tag_502\n      jump\t// in\n    tag_739:\n        /* \"#utility.yul\":22811:22840   */\n      tag_740\n        /* \"#utility.yul\":22829:22839   */\n      dup5\n        /* \"#utility.yul\":22811:22840   */\n      tag_503\n      jump\t// in\n    tag_740:\n        /* \"#utility.yul\":22801:22809   */\n      dup2\n        /* \"#utility.yul\":22797:22841   */\n      add\n        /* \"#utility.yul\":22994:22996   */\n      0x20\n        /* \"#utility.yul\":22982:22992   */\n      dup6\n        /* \"#utility.yul\":22979:22997   */\n      lt\n        /* \"#utility.yul\":22976:23025   */\n      iszero\n      tag_741\n      jumpi\n        /* \"#utility.yul\":23015:23023   */\n      dup2\n        /* \"#utility.yul\":23000:23023   */\n      swap1\n      pop\n        /* \"#utility.yul\":22976:23025   */\n    tag_741:\n        /* \"#utility.yul\":23038:23118   */\n      tag_742\n        /* \"#utility.yul\":23094:23116   */\n      tag_743\n        /* \"#utility.yul\":23112:23115   */\n      dup6\n        /* \"#utility.yul\":23094:23116   */\n      tag_503\n      jump\t// in\n    tag_743:\n        /* \"#utility.yul\":23084:23092   */\n      dup4\n        /* \"#utility.yul\":23080:23117   */\n      add\n        /* \"#utility.yul\":23067:23078   */\n      dup3\n        /* \"#utility.yul\":23038:23118   */\n      tag_512\n      jump\t// in\n    tag_742:\n        /* \"#utility.yul\":22697:23128   */\n      pop\n      pop\n        /* \"#utility.yul\":22682:23128   */\n    tag_738:\n        /* \"#utility.yul\":22592:23135   */\n      pop\n      pop\n      pop\n      jump\t// out\n        /* \"#utility.yul\":23141:23258   */\n    tag_514:\n        /* \"#utility.yul\":23195:23203   */\n      0x00\n        /* \"#utility.yul\":23245:23250   */\n      dup3\n        /* \"#utility.yul\":23239:23243   */\n      dup3\n        /* \"#utility.yul\":23235:23251   */\n      shr\n        /* \"#utility.yul\":23214:23251   */\n      swap1\n      pop\n        /* \"#utility.yul\":23141:23258   */\n      swap3\n      swap2\n      pop\n      pop\n      jump\t// out\n        /* \"#utility.yul\":23264:23433   */\n    tag_515:\n        /* \"#utility.yul\":23308:23314   */\n      0x00\n        /* \"#utility.yul\":23341:23392   */\n      tag_746\n        /* \"#utility.yul\":23389:23390   */\n      0x00\n        /* \"#utility.yul\":23385:23391   */\n      not\n        /* \"#utility.yul\":23377:23382   */\n      dup5\n        /* \"#utility.yul\":23374:23375   */\n      0x08\n        /* \"#utility.yul\":23370:23383   */\n      mul\n        /* \"#utility.yul\":23341:23392   */\n      tag_514\n      jump\t// in\n    tag_746:\n        /* \"#utility.yul\":23337:23393   */\n      not\n        /* \"#utility.yul\":23422:23426   */\n      dup1\n        /* \"#utility.yul\":23416:23420   */\n      dup4\n        /* \"#utility.yul\":23412:23427   */\n      and\n        /* \"#utility.yul\":23402:23427   */\n      swap2\n      pop\n        /* \"#utility.yul\":23315:23433   */\n      pop\n        /* \"#utility.yul\":23264:23433   */\n      swap3\n      swap2\n      pop\n      pop\n      jump\t// out\n        /* \"#utility.yul\":23438:23733   */\n    tag_516:\n        /* \"#utility.yul\":23514:23518   */\n      0x00\n        /* \"#utility.yul\":23660:23689   */\n      tag_748\n        /* \"#utility.yul\":23685:23688   */\n      dup4\n        /* \"#utility.yul\":23679:23683   */\n      dup4\n        /* \"#utility.yul\":23660:23689   */\n      tag_515\n      jump\t// in\n    tag_748:\n        /* \"#utility.yul\":23652:23689   */\n      swap2\n      pop\n        /* \"#utility.yul\":23722:23725   */\n      dup3\n        /* \"#utility.yul\":23719:23720   */\n      0x02\n        /* \"#utility.yul\":23715:23726   */\n      mul\n        /* \"#utility.yul\":23709:23713   */\n      dup3\n        /* \"#utility.yul\":23706:23727   */\n      or\n        /* \"#utility.yul\":23698:23727   */\n      swap1\n      pop\n        /* \"#utility.yul\":23438:23733   */\n      swap3\n      swap2\n      pop\n      pop\n      jump\t// out\n        /* \"#utility.yul\":23738:25133   */\n    tag_371:\n        /* \"#utility.yul\":23855:23892   */\n      tag_750\n        /* \"#utility.yul\":23888:23891   */\n      dup3\n        /* \"#utility.yul\":23855:23892   */\n      tag_451\n      jump\t// in\n    tag_750:\n        /* \"#utility.yul\":23957:23975   */\n      0xffffffffffffffff\n        /* \"#utility.yul\":23949:23955   */\n      dup2\n        /* \"#utility.yul\":23946:23976   */\n      gt\n        /* \"#utility.yul\":23943:23999   */\n      iszero\n      tag_751\n      jumpi\n        /* \"#utility.yul\":23979:23997   */\n      tag_752\n      tag_501\n      jump\t// in\n    tag_752:\n        /* \"#utility.yul\":23943:23999   */\n    tag_751:\n        /* \"#utility.yul\":24023:24061   */\n      tag_753\n        /* \"#utility.yul\":24055:24059   */\n      dup3\n        /* \"#utility.yul\":24049:24060   */\n      sload\n        /* \"#utility.yul\":24023:24061   */\n      tag_188\n      jump\t// in\n    tag_753:\n        /* \"#utility.yul\":24108:24175   */\n      tag_754\n        /* \"#utility.yul\":24168:24174   */\n      dup3\n        /* \"#utility.yul\":24160:24166   */\n      dup3\n        /* \"#utility.yul\":24154:24158   */\n      dup6\n        /* \"#utility.yul\":24108:24175   */\n      tag_513\n      jump\t// in\n    tag_754:\n        /* \"#utility.yul\":24202:24203   */\n      0x00\n        /* \"#utility.yul\":24226:24230   */\n      0x20\n        /* \"#utility.yul\":24213:24230   */\n      swap1\n      pop\n        /* \"#utility.yul\":24258:24260   */\n      0x1f\n        /* \"#utility.yul\":24250:24256   */\n      dup4\n        /* \"#utility.yul\":24247:24261   */\n      gt\n        /* \"#utility.yul\":24275:24276   */\n      0x01\n        /* \"#utility.yul\":24270:24888   */\n      dup2\n      eq\n      tag_756\n      jumpi\n        /* \"#utility.yul\":24932:24933   */\n      0x00\n        /* \"#utility.yul\":24949:24955   */\n      dup5\n        /* \"#utility.yul\":24946:25023   */\n      iszero\n      tag_757\n      jumpi\n        /* \"#utility.yul\":24998:25007   */\n      dup3\n        /* \"#utility.yul\":24993:24996   */\n      dup8\n        /* \"#utility.yul\":24989:25008   */\n      add\n        /* \"#utility.yul\":24983:25009   */\n      mload\n        /* \"#utility.yul\":24974:25009   */\n      swap1\n      pop\n        /* \"#utility.yul\":24946:25023   */\n    tag_757:\n        /* \"#utility.yul\":25049:25116   */\n      tag_758\n        /* \"#utility.yul\":25109:25115   */\n      dup6\n        /* \"#utility.yul\":25102:25107   */\n      dup3\n        /* \"#utility.yul\":25049:25116   */\n      tag_516\n      jump\t// in\n    tag_758:\n        /* \"#utility.yul\":25043:25047   */\n      dup7\n        /* \"#utility.yul\":25036:25117   */\n      sstore\n        /* \"#utility.yul\":24905:25127   */\n      pop\n        /* \"#utility.yul\":24240:25127   */\n      jump(tag_755)\n        /* \"#utility.yul\":24270:24888   */\n    tag_756:\n        /* \"#utility.yul\":24322:24326   */\n      0x1f\n        /* \"#utility.yul\":24318:24327   */\n      not\n        /* \"#utility.yul\":24310:24316   */\n      dup5\n        /* \"#utility.yul\":24306:24328   */\n      and\n        /* \"#utility.yul\":24356:24393   */\n      tag_759\n        /* \"#utility.yul\":24388:24392   */\n      dup7\n        /* \"#utility.yul\":24356:24393   */\n      tag_502\n      jump\t// in\n    tag_759:\n        /* \"#utility.yul\":24415:24416   */\n      0x00\n        /* \"#utility.yul\":24429:24637   */\n    tag_760:\n        /* \"#utility.yul\":24443:24450   */\n      dup3\n        /* \"#utility.yul\":24440:24441   */\n      dup2\n        /* \"#utility.yul\":24437:24451   */\n      lt\n        /* \"#utility.yul\":24429:24637   */\n      iszero\n      tag_762\n      jumpi\n        /* \"#utility.yul\":24522:24531   */\n      dup5\n        /* \"#utility.yul\":24517:24520   */\n      dup10\n        /* \"#utility.yul\":24513:24532   */\n      add\n        /* \"#utility.yul\":24507:24533   */\n      mload\n        /* \"#utility.yul\":24499:24505   */\n      dup3\n        /* \"#utility.yul\":24492:24534   */\n      sstore\n        /* \"#utility.yul\":24573:24574   */\n      0x01\n        /* \"#utility.yul\":24565:24571   */\n      dup3\n        /* \"#utility.yul\":24561:24575   */\n      add\n        /* \"#utility.yul\":24551:24575   */\n      swap2\n      pop\n        /* \"#utility.yul\":24620:24622   */\n      0x20\n        /* \"#utility.yul\":24609:24618   */\n      dup6\n        /* \"#utility.yul\":24605:24623   */\n      add\n        /* \"#utility.yul\":24592:24623   */\n      swap5\n      pop\n        /* \"#utility.yul\":24466:24470   */\n      0x20\n        /* \"#utility.yul\":24463:24464   */\n      dup2\n        /* \"#utility.yul\":24459:24471   */\n      add\n        /* \"#utility.yul\":24454:24471   */\n      swap1\n      pop\n        /* \"#utility.yul\":24429:24637   */\n      jump(tag_760)\n    tag_762:\n        /* \"#utility.yul\":24665:24671   */\n      dup7\n        /* \"#utility.yul\":24656:24663   */\n      dup4\n        /* \"#utility.yul\":24653:24672   */\n      lt\n        /* \"#utility.yul\":24650:24829   */\n      iszero\n      tag_763\n      jumpi\n        /* \"#utility.yul\":24723:24732   */\n      dup5\n        /* \"#utility.yul\":24718:24721   */\n      dup10\n        /* \"#utility.yul\":24714:24733   */\n      add\n        /* \"#utility.yul\":24708:24734   */\n      mload\n        /* \"#utility.yul\":24766:24814   */\n      tag_764\n        /* \"#utility.yul\":24808:24812   */\n      0x1f\n        /* \"#utility.yul\":24800:24806   */\n      dup10\n        /* \"#utility.yul\":24796:24813   */\n      and\n        /* \"#utility.yul\":24785:24794   */\n      dup3\n        /* \"#utility.yul\":24766:24814   */\n      tag_515\n      jump\t// in\n    tag_764:\n        /* \"#utility.yul\":24758:24764   */\n      dup4\n        /* \"#utility.yul\":24751:24815   */\n      sstore\n        /* \"#utility.yul\":24673:24829   */\n      pop\n        /* \"#utility.yul\":24650:24829   */\n    tag_763:\n        /* \"#utility.yul\":24875:24876   */\n      0x01\n        /* \"#utility.yul\":24871:24872   */\n      0x02\n        /* \"#utility.yul\":24863:24869   */\n      dup9\n        /* \"#utility.yul\":24859:24873   */\n      mul\n        /* \"#utility.yul\":24855:24877   */\n      add\n        /* \"#utility.yul\":24849:24853   */\n      dup9\n        /* \"#utility.yul\":24842:24878   */\n      sstore\n        /* \"#utility.yul\":24277:24888   */\n      pop\n      pop\n      pop\n        /* \"#utility.yul\":24240:25127   */\n    tag_755:\n      pop\n        /* \"#utility.yul\":23830:25133   */\n      pop\n      pop\n      pop\n        /* \"#utility.yul\":23738:25133   */\n      pop\n      pop\n      jump\t// out\n        /* \"#utility.yul\":25139:25308   */\n    tag_517:\n        /* \"#utility.yul\":25279:25300   */\n      0x45524332303a206d696e7420746f207a65726f00000000000000000000000000\n        /* \"#utility.yul\":25275:25276   */\n      0x00\n        /* \"#utility.yul\":25267:25273   */\n      dup3\n        /* \"#utility.yul\":25263:25277   */\n      add\n        /* \"#utility.yul\":25256:25301   */\n      mstore\n        /* \"#utility.yul\":25139:25308   */\n      pop\n      jump\t// out\n        /* \"#utility.yul\":25314:25680   */\n    tag_518:\n        /* \"#utility.yul\":25456:25459   */\n      0x00\n        /* \"#utility.yul\":25477:25544   */\n      tag_767\n        /* \"#utility.yul\":25541:25543   */\n      0x13\n        /* \"#utility.yul\":25536:25539   */\n      dup4\n        /* \"#utility.yul\":25477:25544   */\n      tag_452\n      jump\t// in\n    tag_767:\n        /* \"#utility.yul\":25470:25544   */\n      swap2\n      pop\n        /* \"#utility.yul\":25553:25646   */\n      tag_768\n        /* \"#utility.yul\":25642:25645   */\n      dup3\n        /* \"#utility.yul\":25553:25646   */\n      tag_517\n      jump\t// in\n    tag_768:\n        /* \"#utility.yul\":25671:25673   */\n      0x20\n        /* \"#utility.yul\":25666:25669   */\n      dup3\n        /* \"#utility.yul\":25662:25674   */\n      add\n        /* \"#utility.yul\":25655:25674   */\n      swap1\n      pop\n        /* \"#utility.yul\":25314:25680   */\n      swap2\n      swap1\n      pop\n      jump\t// out\n        /* \"#utility.yul\":25686:26105   */\n    tag_391:\n        /* \"#utility.yul\":25852:25856   */\n      0x00\n        /* \"#utility.yul\":25890:25892   */\n      0x20\n        /* \"#utility.yul\":25879:25888   */\n      dup3\n        /* \"#utility.yul\":25875:25893   */\n      add\n        /* \"#utility.yul\":25867:25893   */\n      swap1\n      pop\n        /* \"#utility.yul\":25939:25948   */\n      dup2\n        /* \"#utility.yul\":25933:25937   */\n      dup2\n        /* \"#utility.yul\":25929:25949   */\n      sub\n        /* \"#utility.yul\":25925:25926   */\n      0x00\n        /* \"#utility.yul\":25914:25923   */\n      dup4\n        /* \"#utility.yul\":25910:25927   */\n      add\n        /* \"#utility.yul\":25903:25950   */\n      mstore\n        /* \"#utility.yul\":25967:26098   */\n      tag_770\n        /* \"#utility.yul\":26093:26097   */\n      dup2\n        /* \"#utility.yul\":25967:26098   */\n      tag_518\n      jump\t// in\n    tag_770:\n        /* \"#utility.yul\":25959:26098   */\n      swap1\n      pop\n        /* \"#utility.yul\":25686:26105   */\n      swap2\n      swap1\n      pop\n      jump\t// out\n        /* \"#utility.yul\":26111:26302   */\n    tag_393:\n        /* \"#utility.yul\":26151:26154   */\n      0x00\n        /* \"#utility.yul\":26170:26190   */\n      tag_772\n        /* \"#utility.yul\":26188:26189   */\n      dup3\n        /* \"#utility.yul\":26170:26190   */\n      tag_456\n      jump\t// in\n    tag_772:\n        /* \"#utility.yul\":26165:26190   */\n      swap2\n      pop\n        /* \"#utility.yul\":26204:26224   */\n      tag_773\n        /* \"#utility.yul\":26222:26223   */\n      dup4\n        /* \"#utility.yul\":26204:26224   */\n      tag_456\n      jump\t// in\n    tag_773:\n        /* \"#utility.yul\":26199:26224   */\n      swap3\n      pop\n        /* \"#utility.yul\":26247:26248   */\n      dup3\n        /* \"#utility.yul\":26244:26245   */\n      dup3\n        /* \"#utility.yul\":26240:26249   */\n      add\n        /* \"#utility.yul\":26233:26249   */\n      swap1\n      pop\n        /* \"#utility.yul\":26268:26271   */\n      dup1\n        /* \"#utility.yul\":26265:26266   */\n      dup3\n        /* \"#utility.yul\":26262:26272   */\n      gt\n        /* \"#utility.yul\":26259:26295   */\n      iszero\n      tag_774\n      jumpi\n        /* \"#utility.yul\":26275:26293   */\n      tag_775\n      tag_485\n      jump\t// in\n    tag_775:\n        /* \"#utility.yul\":26259:26295   */\n    tag_774:\n        /* \"#utility.yul\":26111:26302   */\n      swap3\n      swap2\n      pop\n      pop\n      jump\t// out\n        /* \"#utility.yul\":26308:26474   */\n    tag_519:\n        /* \"#utility.yul\":26448:26466   */\n      0x5061757361626c653a2070617573656400000000000000000000000000000000\n        /* \"#utility.yul\":26444:26445   */\n      0x00\n        /* \"#utility.yul\":26436:26442   */\n      dup3\n        /* \"#utility.yul\":26432:26446   */\n      add\n        /* \"#utility.yul\":26425:26467   */\n      mstore\n        /* \"#utility.yul\":26308:26474   */\n      pop\n      jump\t// out\n        /* \"#utility.yul\":26480:26846   */\n    tag_520:\n        /* \"#utility.yul\":26622:26625   */\n      0x00\n        /* \"#utility.yul\":26643:26710   */\n      tag_778\n        /* \"#utility.yul\":26707:26709   */\n      0x10\n        /* \"#utility.yul\":26702:26705   */\n      dup4\n        /* \"#utility.yul\":26643:26710   */\n      tag_452\n      jump\t// in\n    tag_778:\n        /* \"#utility.yul\":26636:26710   */\n      swap2\n      pop\n        /* \"#utility.yul\":26719:26812   */\n      tag_779\n        /* \"#utility.yul\":26808:26811   */\n      dup3\n        /* \"#utility.yul\":26719:26812   */\n      tag_519\n      jump\t// in\n    tag_779:\n        /* \"#utility.yul\":26837:26839   */\n      0x20\n        /* \"#utility.yul\":26832:26835   */\n      dup3\n        /* \"#utility.yul\":26828:26840   */\n      add\n        /* \"#utility.yul\":26821:26840   */\n      swap1\n      pop\n        /* \"#utility.yul\":26480:26846   */\n      swap2\n      swap1\n      pop\n      jump\t// out\n        /* \"#utility.yul\":26852:27271   */\n    tag_399:\n        /* \"#utility.yul\":27018:27022   */\n      0x00\n        /* \"#utility.yul\":27056:27058   */\n      0x20\n        /* \"#utility.yul\":27045:27054   */\n      dup3\n        /* \"#utility.yul\":27041:27059   */\n      add\n        /* \"#utility.yul\":27033:27059   */\n      swap1\n      pop\n        /* \"#utility.yul\":27105:27114   */\n      dup2\n        /* \"#utility.yul\":27099:27103   */\n      dup2\n        /* \"#utility.yul\":27095:27115   */\n      sub\n        /* \"#utility.yul\":27091:27092   */\n      0x00\n        /* \"#utility.yul\":27080:27089   */\n      dup4\n        /* \"#utility.yul\":27076:27093   */\n      add\n        /* \"#utility.yul\":27069:27116   */\n      mstore\n        /* \"#utility.yul\":27133:27264   */\n      tag_781\n        /* \"#utility.yul\":27259:27263   */\n      dup2\n        /* \"#utility.yul\":27133:27264   */\n      tag_520\n      jump\t// in\n    tag_781:\n        /* \"#utility.yul\":27125:27264   */\n      swap1\n      pop\n        /* \"#utility.yul\":26852:27271   */\n      swap2\n      swap1\n      pop\n      jump\t// out\n        /* \"#utility.yul\":27277:27454   */\n    tag_521:\n        /* \"#utility.yul\":27417:27446   */\n      0x546f6b656e207472616e73666572207768696c65207061757365640000000000\n        /* \"#utility.yul\":27413:27414   */\n      0x00\n        /* \"#utility.yul\":27405:27411   */\n      dup3\n        /* \"#utility.yul\":27401:27415   */\n      add\n        /* \"#utility.yul\":27394:27447   */\n      mstore\n        /* \"#utility.yul\":27277:27454   */\n      pop\n      jump\t// out\n        /* \"#utility.yul\":27460:27826   */\n    tag_522:\n        /* \"#utility.yul\":27602:27605   */\n      0x00\n        /* \"#utility.yul\":27623:27690   */\n      tag_784\n        /* \"#utility.yul\":27687:27689   */\n      0x1b\n        /* \"#utility.yul\":27682:27685   */\n      dup4\n        /* \"#utility.yul\":27623:27690   */\n      tag_452\n      jump\t// in\n    tag_784:\n        /* \"#utility.yul\":27616:27690   */\n      swap2\n      pop\n        /* \"#utility.yul\":27699:27792   */\n      tag_785\n        /* \"#utility.yul\":27788:27791   */\n      dup3\n        /* \"#utility.yul\":27699:27792   */\n      tag_521\n      jump\t// in\n    tag_785:\n        /* \"#utility.yul\":27817:27819   */\n      0x20\n        /* \"#utility.yul\":27812:27815   */\n      dup3\n        /* \"#utility.yul\":27808:27820   */\n      add\n        /* \"#utility.yul\":27801:27820   */\n      swap1\n      pop\n        /* \"#utility.yul\":27460:27826   */\n      swap2\n      swap1\n      pop\n      jump\t// out\n        /* \"#utility.yul\":27832:28251   */\n    tag_408:\n        /* \"#utility.yul\":27998:28002   */\n      0x00\n        /* \"#utility.yul\":28036:28038   */\n      0x20\n        /* \"#utility.yul\":28025:28034   */\n      dup3\n        /* \"#utility.yul\":28021:28039   */\n      add\n        /* \"#utility.yul\":28013:28039   */\n      swap1\n      pop\n        /* \"#utility.yul\":28085:28094   */\n      dup2\n        /* \"#utility.yul\":28079:28083   */\n      dup2\n        /* \"#utility.yul\":28075:28095   */\n      sub\n        /* \"#utility.yul\":28071:28072   */\n      0x00\n        /* \"#utility.yul\":28060:28069   */\n      dup4\n        /* \"#utility.yul\":28056:28073   */\n      add\n        /* \"#utility.yul\":28049:28096   */\n      mstore\n        /* \"#utility.yul\":28113:28244   */\n      tag_787\n        /* \"#utility.yul\":28239:28243   */\n      dup2\n        /* \"#utility.yul\":28113:28244   */\n      tag_522\n      jump\t// in\n    tag_787:\n        /* \"#utility.yul\":28105:28244   */\n      swap1\n      pop\n        /* \"#utility.yul\":27832:28251   */\n      swap2\n      swap1\n      pop\n      jump\t// out\n        /* \"#utility.yul\":28257:28429   */\n    tag_523:\n        /* \"#utility.yul\":28397:28421   */\n      0x4164647265737320697320626c61636b6c697374656400000000000000000000\n        /* \"#utility.yul\":28393:28394   */\n      0x00\n        /* \"#utility.yul\":28385:28391   */\n      dup3\n        /* \"#utility.yul\":28381:28395   */\n      add\n        /* \"#utility.yul\":28374:28422   */\n      mstore\n        /* \"#utility.yul\":28257:28429   */\n      pop\n      jump\t// out\n        /* \"#utility.yul\":28435:28801   */\n    tag_524:\n        /* \"#utility.yul\":28577:28580   */\n      0x00\n        /* \"#utility.yul\":28598:28665   */\n      tag_790\n        /* \"#utility.yul\":28662:28664   */\n      0x16\n        /* \"#utility.yul\":28657:28660   */\n      dup4\n        /* \"#utility.yul\":28598:28665   */\n      tag_452\n      jump\t// in\n    tag_790:\n        /* \"#utility.yul\":28591:28665   */\n      swap2\n      pop\n        /* \"#utility.yul\":28674:28767   */\n      tag_791\n        /* \"#utility.yul\":28763:28766   */\n      dup3\n        /* \"#utility.yul\":28674:28767   */\n      tag_523\n      jump\t// in\n    tag_791:\n        /* \"#utility.yul\":28792:28794   */\n      0x20\n        /* \"#utility.yul\":28787:28790   */\n      dup3\n        /* \"#utility.yul\":28783:28795   */\n      add\n        /* \"#utility.yul\":28776:28795   */\n      swap1\n      pop\n        /* \"#utility.yul\":28435:28801   */\n      swap2\n      swap1\n      pop\n      jump\t// out\n        /* \"#utility.yul\":28807:29226   */\n    tag_412:\n        /* \"#utility.yul\":28973:28977   */\n      0x00\n        /* \"#utility.yul\":29011:29013   */\n      0x20\n        /* \"#utility.yul\":29000:29009   */\n      dup3\n        /* \"#utility.yul\":28996:29014   */\n      add\n        /* \"#utility.yul\":28988:29014   */\n      swap1\n      pop\n        /* \"#utility.yul\":29060:29069   */\n      dup2\n        /* \"#utility.yul\":29054:29058   */\n      dup2\n        /* \"#utility.yul\":29050:29070   */\n      sub\n        /* \"#utility.yul\":29046:29047   */\n      0x00\n        /* \"#utility.yul\":29035:29044   */\n      dup4\n        /* \"#utility.yul\":29031:29048   */\n      add\n        /* \"#utility.yul\":29024:29071   */\n      mstore\n        /* \"#utility.yul\":29088:29219   */\n      tag_793\n        /* \"#utility.yul\":29214:29218   */\n      dup2\n        /* \"#utility.yul\":29088:29219   */\n      tag_524\n      jump\t// in\n    tag_793:\n        /* \"#utility.yul\":29080:29219   */\n      swap1\n      pop\n        /* \"#utility.yul\":28807:29226   */\n      swap2\n      swap1\n      pop\n      jump\t// out\n        /* \"#utility.yul\":29232:29410   */\n    tag_525:\n        /* \"#utility.yul\":29372:29402   */\n      0x45786365656473206461696c79207472616e73666572206c696d697400000000\n        /* \"#utility.yul\":29368:29369   */\n      0x00\n        /* \"#utility.yul\":29360:29366   */\n      dup3\n        /* \"#utility.yul\":29356:29370   */\n      add\n        /* \"#utility.yul\":29349:29403   */\n      mstore\n        /* \"#utility.yul\":29232:29410   */\n      pop\n      jump\t// out\n        /* \"#utility.yul\":29416:29782   */\n    tag_526:\n        /* \"#utility.yul\":29558:29561   */\n      0x00\n        /* \"#utility.yul\":29579:29646   */\n      tag_796\n        /* \"#utility.yul\":29643:29645   */\n      0x1c\n        /* \"#utility.yul\":29638:29641   */\n      dup4\n        /* \"#utility.yul\":29579:29646   */\n      tag_452\n      jump\t// in\n    tag_796:\n        /* \"#utility.yul\":29572:29646   */\n      swap2\n      pop\n        /* \"#utility.yul\":29655:29748   */\n      tag_797\n        /* \"#utility.yul\":29744:29747   */\n      dup3\n        /* \"#utility.yul\":29655:29748   */\n      tag_525\n      jump\t// in\n    tag_797:\n        /* \"#utility.yul\":29773:29775   */\n      0x20\n        /* \"#utility.yul\":29768:29771   */\n      dup3\n        /* \"#utility.yul\":29764:29776   */\n      add\n        /* \"#utility.yul\":29757:29776   */\n      swap1\n      pop\n        /* \"#utility.yul\":29416:29782   */\n      swap2\n      swap1\n      pop\n      jump\t// out\n        /* \"#utility.yul\":29788:30207   */\n    tag_422:\n        /* \"#utility.yul\":29954:29958   */\n      0x00\n        /* \"#utility.yul\":29992:29994   */\n      0x20\n        /* \"#utility.yul\":29981:29990   */\n      dup3\n        /* \"#utility.yul\":29977:29995   */\n      add\n        /* \"#utility.yul\":29969:29995   */\n      swap1\n      pop\n        /* \"#utility.yul\":30041:30050   */\n      dup2\n        /* \"#utility.yul\":30035:30039   */\n      dup2\n        /* \"#utility.yul\":30031:30051   */\n      sub\n        /* \"#utility.yul\":30027:30028   */\n      0x00\n        /* \"#utility.yul\":30016:30025   */\n      dup4\n        /* \"#utility.yul\":30012:30029   */\n      add\n        /* \"#utility.yul\":30005:30052   */\n      mstore\n        /* \"#utility.yul\":30069:30200   */\n      tag_799\n        /* \"#utility.yul\":30195:30199   */\n      dup2\n        /* \"#utility.yul\":30069:30200   */\n      tag_526\n      jump\t// in\n    tag_799:\n        /* \"#utility.yul\":30061:30200   */\n      swap1\n      pop\n        /* \"#utility.yul\":29788:30207   */\n      swap2\n      swap1\n      pop\n      jump\t// out\n        /* \"#utility.yul\":30213:30393   */\n    tag_527:\n        /* \"#utility.yul\":30353:30385   */\n      0x45786365656473206d6f6e74686c79207472616e73666572206c696d69740000\n        /* \"#utility.yul\":30349:30350   */\n      0x00\n        /* \"#utility.yul\":30341:30347   */\n      dup3\n        /* \"#utility.yul\":30337:30351   */\n      add\n        /* \"#utility.yul\":30330:30386   */\n      mstore\n        /* \"#utility.yul\":30213:30393   */\n      pop\n      jump\t// out\n        /* \"#utility.yul\":30399:30765   */\n    tag_528:\n        /* \"#utility.yul\":30541:30544   */\n      0x00\n        /* \"#utility.yul\":30562:30629   */\n      tag_802\n        /* \"#utility.yul\":30626:30628   */\n      0x1e\n        /* \"#utility.yul\":30621:30624   */\n      dup4\n        /* \"#utility.yul\":30562:30629   */\n      tag_452\n      jump\t// in\n    tag_802:\n        /* \"#utility.yul\":30555:30629   */\n      swap2\n      pop\n        /* \"#utility.yul\":30638:30731   */\n      tag_803\n        /* \"#utility.yul\":30727:30730   */\n      dup3\n        /* \"#utility.yul\":30638:30731   */\n      tag_527\n      jump\t// in\n    tag_803:\n        /* \"#utility.yul\":30756:30758   */\n      0x20\n        /* \"#utility.yul\":30751:30754   */\n      dup3\n        /* \"#utility.yul\":30747:30759   */\n      add\n        /* \"#utility.yul\":30740:30759   */\n      swap1\n      pop\n        /* \"#utility.yul\":30399:30765   */\n      swap2\n      swap1\n      pop\n      jump\t// out\n        /* \"#utility.yul\":30771:31190   */\n    tag_425:\n        /* \"#utility.yul\":30937:30941   */\n      0x00\n        /* \"#utility.yul\":30975:30977   */\n      0x20\n        /* \"#utility.yul\":30964:30973   */\n      dup3\n        /* \"#utility.yul\":30960:30978   */\n      add\n        /* \"#utility.yul\":30952:30978   */\n      swap1\n      pop\n        /* \"#utility.yul\":31024:31033   */\n      dup2\n        /* \"#utility.yul\":31018:31022   */\n      dup2\n        /* \"#utility.yul\":31014:31034   */\n      sub\n        /* \"#utility.yul\":31010:31011   */\n      0x00\n        /* \"#utility.yul\":30999:31008   */\n      dup4\n        /* \"#utility.yul\":30995:31012   */\n      add\n        /* \"#utility.yul\":30988:31035   */\n      mstore\n        /* \"#utility.yul\":31052:31183   */\n      tag_805\n        /* \"#utility.yul\":31178:31182   */\n      dup2\n        /* \"#utility.yul\":31052:31183   */\n      tag_528\n      jump\t// in\n    tag_805:\n        /* \"#utility.yul\":31044:31183   */\n      swap1\n      pop\n        /* \"#utility.yul\":30771:31190   */\n      swap2\n      swap1\n      pop\n      jump\t// out\n        /* \"#utility.yul\":31196:31528   */\n    tag_435:\n        /* \"#utility.yul\":31317:31321   */\n      0x00\n        /* \"#utility.yul\":31355:31357   */\n      0x40\n        /* \"#utility.yul\":31344:31353   */\n      dup3\n        /* \"#utility.yul\":31340:31358   */\n      add\n        /* \"#utility.yul\":31332:31358   */\n      swap1\n      pop\n        /* \"#utility.yul\":31368:31439   */\n      tag_807\n        /* \"#utility.yul\":31436:31437   */\n      0x00\n        /* \"#utility.yul\":31425:31434   */\n      dup4\n        /* \"#utility.yul\":31421:31438   */\n      add\n        /* \"#utility.yul\":31412:31418   */\n      dup6\n        /* \"#utility.yul\":31368:31439   */\n      tag_457\n      jump\t// in\n    tag_807:\n        /* \"#utility.yul\":31449:31521   */\n      tag_808\n        /* \"#utility.yul\":31517:31519   */\n      0x20\n        /* \"#utility.yul\":31506:31515   */\n      dup4\n        /* \"#utility.yul\":31502:31520   */\n      add\n        /* \"#utility.yul\":31493:31499   */\n      dup5\n        /* \"#utility.yul\":31449:31521   */\n      tag_457\n      jump\t// in\n    tag_808:\n        /* \"#utility.yul\":31196:31528   */\n      swap4\n      swap3\n      pop\n      pop\n      pop\n      jump\t// out\n        /* \"#utility.yul\":31534:31709   */\n    tag_529:\n        /* \"#utility.yul\":31674:31701   */\n      0x45524332303a207472616e736665722066726f6d207a65726f00000000000000\n        /* \"#utility.yul\":31670:31671   */\n      0x00\n        /* \"#utility.yul\":31662:31668   */\n      dup3\n        /* \"#utility.yul\":31658:31672   */\n      add\n        /* \"#utility.yul\":31651:31702   */\n      mstore\n        /* \"#utility.yul\":31534:31709   */\n      pop\n      jump\t// out\n        /* \"#utility.yul\":31715:32081   */\n    tag_530:\n        /* \"#utility.yul\":31857:31860   */\n      0x00\n        /* \"#utility.yul\":31878:31945   */\n      tag_811\n        /* \"#utility.yul\":31942:31944   */\n      0x19\n        /* \"#utility.yul\":31937:31940   */\n      dup4\n        /* \"#utility.yul\":31878:31945   */\n      tag_452\n      jump\t// in\n    tag_811:\n        /* \"#utility.yul\":31871:31945   */\n      swap2\n      pop\n        /* \"#utility.yul\":31954:32047   */\n      tag_812\n        /* \"#utility.yul\":32043:32046   */\n      dup3\n        /* \"#utility.yul\":31954:32047   */\n      tag_529\n      jump\t// in\n    tag_812:\n        /* \"#utility.yul\":32072:32074   */\n      0x20\n        /* \"#utility.yul\":32067:32070   */\n      dup3\n        /* \"#utility.yul\":32063:32075   */\n      add\n        /* \"#utility.yul\":32056:32075   */\n      swap1\n      pop\n        /* \"#utility.yul\":31715:32081   */\n      swap2\n      swap1\n      pop\n      jump\t// out\n        /* \"#utility.yul\":32087:32506   */\n    tag_439:\n        /* \"#utility.yul\":32253:32257   */\n      0x00\n        /* \"#utility.yul\":32291:32293   */\n      0x20\n        /* \"#utility.yul\":32280:32289   */\n      dup3\n        /* \"#utility.yul\":32276:32294   */\n      add\n        /* \"#utility.yul\":32268:32294   */\n      swap1\n      pop\n        /* \"#utility.yul\":32340:32349   */\n      dup2\n        /* \"#utility.yul\":32334:32338   */\n      dup2\n        /* \"#utility.yul\":32330:32350   */\n      sub\n        /* \"#utility.yul\":32326:32327   */\n      0x00\n        /* \"#utility.yul\":32315:32324   */\n      dup4\n        /* \"#utility.yul\":32311:32328   */\n      add\n        /* \"#utility.yul\":32304:32351   */\n      mstore\n        /* \"#utility.yul\":32368:32499   */\n      tag_814\n        /* \"#utility.yul\":32494:32498   */\n      dup2\n        /* \"#utility.yul\":32368:32499   */\n      tag_530\n      jump\t// in\n    tag_814:\n        /* \"#utility.yul\":32360:32499   */\n      swap1\n      pop\n        /* \"#utility.yul\":32087:32506   */\n      swap2\n      swap1\n      pop\n      jump\t// out\n        /* \"#utility.yul\":32512:32685   */\n    tag_531:\n        /* \"#utility.yul\":32652:32677   */\n      0x45524332303a207472616e7366657220746f207a65726f000000000000000000\n        /* \"#utility.yul\":32648:32649   */\n      0x00\n        /* \"#utility.yul\":32640:32646   */\n      dup3\n        /* \"#utility.yul\":32636:32650   */\n      add\n        /* \"#utility.yul\":32629:32678   */\n      mstore\n        /* \"#utility.yul\":32512:32685   */\n      pop\n      jump\t// out\n        /* \"#utility.yul\":32691:33057   */\n    tag_532:\n        /* \"#utility.yul\":32833:32836   */\n      0x00\n        /* \"#utility.yul\":32854:32921   */\n      tag_817\n        /* \"#utility.yul\":32918:32920   */\n      0x17\n        /* \"#utility.yul\":32913:32916   */\n      dup4\n        /* \"#utility.yul\":32854:32921   */\n      tag_452\n      jump\t// in\n    tag_817:\n        /* \"#utility.yul\":32847:32921   */\n      swap2\n      pop\n        /* \"#utility.yul\":32930:33023   */\n      tag_818\n        /* \"#utility.yul\":33019:33022   */\n      dup3\n        /* \"#utility.yul\":32930:33023   */\n      tag_531\n      jump\t// in\n    tag_818:\n        /* \"#utility.yul\":33048:33050   */\n      0x20\n        /* \"#utility.yul\":33043:33046   */\n      dup3\n        /* \"#utility.yul\":33039:33051   */\n      add\n        /* \"#utility.yul\":33032:33051   */\n      swap1\n      pop\n        /* \"#utility.yul\":32691:33057   */\n      swap2\n      swap1\n      pop\n      jump\t// out\n        /* \"#utility.yul\":33063:33482   */\n    tag_442:\n        /* \"#utility.yul\":33229:33233   */\n      0x00\n        /* \"#utility.yul\":33267:33269   */\n      0x20\n        /* \"#utility.yul\":33256:33265   */\n      dup3\n        /* \"#utility.yul\":33252:33270   */\n      add\n        /* \"#utility.yul\":33244:33270   */\n      swap1\n      pop\n        /* \"#utility.yul\":33316:33325   */\n      dup2\n        /* \"#utility.yul\":33310:33314   */\n      dup2\n        /* \"#utility.yul\":33306:33326   */\n      sub\n        /* \"#utility.yul\":33302:33303   */\n      0x00\n        /* \"#utility.yul\":33291:33300   */\n      dup4\n        /* \"#utility.yul\":33287:33304   */\n      add\n        /* \"#utility.yul\":33280:33327   */\n      mstore\n        /* \"#utility.yul\":33344:33475   */\n      tag_820\n        /* \"#utility.yul\":33470:33474   */\n      dup2\n        /* \"#utility.yul\":33344:33475   */\n      tag_532\n      jump\t// in\n    tag_820:\n        /* \"#utility.yul\":33336:33475   */\n      swap1\n      pop\n        /* \"#utility.yul\":33063:33482   */\n      swap2\n      swap1\n      pop\n      jump\t// out\n        /* \"#utility.yul\":33488:33669   */\n    tag_533:\n        /* \"#utility.yul\":33628:33661   */\n      0x45524332303a207472616e7366657220657863656564732062616c616e636500\n        /* \"#utility.yul\":33624:33625   */\n      0x00\n        /* \"#utility.yul\":33616:33622   */\n      dup3\n        /* \"#utility.yul\":33612:33626   */\n      add\n        /* \"#utility.yul\":33605:33662   */\n      mstore\n        /* \"#utility.yul\":33488:33669   */\n      pop\n      jump\t// out\n        /* \"#utility.yul\":33675:34041   */\n    tag_534:\n        /* \"#utility.yul\":33817:33820   */\n      0x00\n        /* \"#utility.yul\":33838:33905   */\n      tag_823\n        /* \"#utility.yul\":33902:33904   */\n      0x1f\n        /* \"#utility.yul\":33897:33900   */\n      dup4\n        /* \"#utility.yul\":33838:33905   */\n      tag_452\n      jump\t// in\n    tag_823:\n        /* \"#utility.yul\":33831:33905   */\n      swap2\n      pop\n        /* \"#utility.yul\":33914:34007   */\n      tag_824\n        /* \"#utility.yul\":34003:34006   */\n      dup3\n        /* \"#utility.yul\":33914:34007   */\n      tag_533\n      jump\t// in\n    tag_824:\n        /* \"#utility.yul\":34032:34034   */\n      0x20\n        /* \"#utility.yul\":34027:34030   */\n      dup3\n        /* \"#utility.yul\":34023:34035   */\n      add\n        /* \"#utility.yul\":34016:34035   */\n      swap1\n      pop\n        /* \"#utility.yul\":33675:34041   */\n      swap2\n      swap1\n      pop\n      jump\t// out\n        /* \"#utility.yul\":34047:34466   */\n    tag_445:\n        /* \"#utility.yul\":34213:34217   */\n      0x00\n        /* \"#utility.yul\":34251:34253   */\n      0x20\n        /* \"#utility.yul\":34240:34249   */\n      dup3\n        /* \"#utility.yul\":34236:34254   */\n      add\n        /* \"#utility.yul\":34228:34254   */\n      swap1\n      pop\n        /* \"#utility.yul\":34300:34309   */\n      dup2\n        /* \"#utility.yul\":34294:34298   */\n      dup2\n        /* \"#utility.yul\":34290:34310   */\n      sub\n        /* \"#utility.yul\":34286:34287   */\n      0x00\n        /* \"#utility.yul\":34275:34284   */\n      dup4\n        /* \"#utility.yul\":34271:34288   */\n      add\n        /* \"#utility.yul\":34264:34311   */\n      mstore\n        /* \"#utility.yul\":34328:34459   */\n      tag_826\n        /* \"#utility.yul\":34454:34458   */\n      dup2\n        /* \"#utility.yul\":34328:34459   */\n      tag_534\n      jump\t// in\n    tag_826:\n        /* \"#utility.yul\":34320:34459   */\n      swap1\n      pop\n        /* \"#utility.yul\":34047:34466   */\n      swap2\n      swap1\n      pop\n      jump\t// out\n\n    auxdata: 0xa26469706673582212200643279fe9be0fc449d7d462cd621edde671e8fa7f0bfd2832ed0e58457848b064736f6c634300081e0033\n}\n",
				"bytecode": {
					"linkReferences": {},
					"object": "60806040526032600755601e60085560146009556064600c556105dc600d556103e8600e55614e20600f556101f4601155348015603a575f5ffd5b506047604b60201b60201c565b6066565b60015f5f6101000a81548160ff021916908315150217905550565b6134be806100735f395ff3fe608060405234801561000f575f5ffd5b5060043610610246575f3560e01c806375e3661e11610139578063a9059cbb116100b6578063f2fde38b1161007a578063f2fde38b14610698578063f81cbd26146106b4578063f9f92be4146106d2578063fdb97901146106ee578063fe575a871461070a57610246565b8063a9059cbb146105e2578063cd2c6a9914610612578063d8a43b1f14610642578063dd62ed3e1461064c578063e37a35c71461067c57610246565b806387b8645c116100fd57806387b8645c1461053a5780638da5cb5b1461055857806395d89b4114610576578063a277073114610594578063a5410a66146105b257610246565b806375e3661e146104be57806379cc6790146104da5780638456cb59146104f65780638772e7d514610500578063878c7ca81461051c57610246565b8063313ce567116101c7578063485cc9551161018b578063485cc955146104185780635b7f415c146104345780635c975abb146104525780636f5585b81461047057806370a082311461048e57610246565b8063313ce5671461039a5780633ea6e071146103b85780633f4ba83a146103d457806342966c68146103de5780634365d0fb146103fa57610246565b80631a04a7951161020e5780631a04a795146102f2578063237bd28f1461031057806323b872dd1461032e5780632a9053181461035e5780633005cb051461037c57610246565b806306fdde031461024a578063082664c214610268578063095ea7b31461028657806318160ddd146102b657806318821400146102d4575b5f5ffd5b61025261073a565b60405161025f9190612425565b60405180910390f35b6102706107ca565b60405161027d919061245d565b60405180910390f35b6102a0600480360381019061029b91906124fe565b6107d0565b6040516102ad9190612556565b60405180910390f35b6102be6107ed565b6040516102cb919061245d565b60405180910390f35b6102dc6107f6565b6040516102e99190612425565b60405180910390f35b6102fa61082f565b604051610307919061245d565b60405180910390f35b610318610835565b604051610325919061245d565b60405180910390f35b6103486004803603810190610343919061256f565b61083b565b6040516103559190612556565b60405180910390f35b61036661092d565b6040516103739190612425565b60405180910390f35b610384610966565b604051610391919061245d565b60405180910390f35b6103a261096c565b6040516103af91906125da565b60405180910390f35b6103d260048036038101906103cd919061261d565b610974565b005b6103dc610a48565b005b6103f860048036038101906103f3919061265b565b610ace565b005b610402610ae2565b60405161040f919061245d565b60405180910390f35b610432600480360381019061042d9190612686565b610ae8565b005b61043c610d31565b60405161044991906125da565b60405180910390f35b61045a610d36565b6040516104679190612556565b60405180910390f35b610478610d4b565b60405161048591906126d3565b60405180910390f35b6104a860048036038101906104a391906126ec565b610d70565b6040516104b5919061245d565b60405180910390f35b6104d860048036038101906104d391906126ec565b610db6565b005b6104f460048036038101906104ef91906124fe565b610ecc565b005b6104fe610f46565b005b61051a6004803603810190610515919061265b565b610fcc565b005b610524611097565b60405161053191906126d3565b60405180910390f35b6105426110bc565b60405161054f919061245d565b60405180910390f35b6105606110c2565b60405161056d91906126d3565b60405180910390f35b61057e6110eb565b60405161058b9190612425565b60405180910390f35b61059c61117b565b6040516105a9919061245d565b60405180910390f35b6105cc60048036038101906105c791906126ec565b611181565b6040516105d99190612556565b60405180910390f35b6105fc60048036038101906105f791906124fe565b61119e565b6040516106099190612556565b60405180910390f35b61062c600480360381019061062791906126ec565b6111bb565b6040516106399190612556565b60405180910390f35b61064a6111d8565b005b61066660048036038101906106619190612686565b6112be565b604051610673919061245d565b60405180910390f35b6106966004803603810190610691919061261d565b611340565b005b6106b260048036038101906106ad91906126ec565b611414565b005b6106bc61150a565b6040516106c9919061245d565b60405180910390f35b6106ec60048036038101906106e791906126ec565b611510565b005b6107086004803603810190610703919061265b565b611627565b005b610724600480360381019061071f91906126ec565b6116ad565b6040516107319190612556565b60405180910390f35b60606004805461074990612744565b80601f016020809104026020016040519081016040528092919081815260200182805461077590612744565b80156107c05780601f10610797576101008083540402835291602001916107c0565b820191905f5260205f20905b8154815290600101906020018083116107a357829003601f168201915b5050505050905090565b600f5481565b5f6107e36107dc6116ca565b84846116d1565b6001905092915050565b5f600354905090565b6040518060400160405280600881526020017f49464220436f696e00000000000000000000000000000000000000000000000081525081565b600c5481565b600d5481565b5f5f60025f8673ffffffffffffffffffffffffffffffffffffffff1673ffffffffffffffffffffffffffffffffffffffff1681526020019081526020015f205f6108836116ca565b73ffffffffffffffffffffffffffffffffffffffff1673ffffffffffffffffffffffffffffffffffffffff1681526020019081526020015f2054905082811015610902576040517f08c379a00000000000000000000000000000000000000000000000000000000081526004016108f9906127e4565b60405180910390fd5b6109168561090e6116ca565b8584036116d1565b61092185858561182f565b60019150509392505050565b6040518060400160405280600381526020017f494642000000000000000000000000000000000000000000000000000000000081525081565b60095481565b5f6006905090565b61097c6116ca565b73ffffffffffffffffffffffffffffffffffffffff1661099a6110c2565b73ffffffffffffffffffffffffffffffffffffffff16146109f0576040517f08c379a00000000000000000000000000000000000000000000000000000000081526004016109e79061284c565b60405180910390fd5b8060105f8473ffffffffffffffffffffffffffffffffffffffff1673ffffffffffffffffffffffffffffffffffffffff1681526020019081526020015f205f6101000a81548160ff0219169083151502179055505050565b610a506116ca565b73ffffffffffffffffffffffffffffffffffffffff16610a6e6110c2565b73ffffffffffffffffffffffffffffffffffffffff1614610ac4576040517f08c379a0000000000000000000000000000000000000000000000000000000008152600401610abb9061284c565b60405180910390fd5b610acc61184a565b565b610adf610ad96116ca565b826118ea565b50565b600e5481565b5f60019054906101000a900460ff1680610b0d57505f5f9054906101000a900460ff16155b610b4c576040517f08c379a0000000000000000000000000000000000000000000000000000000008152600401610b43906128da565b60405180910390fd5b5f5f60019054906101000a900460ff161590508015610b995760015f60016101000a81548160ff02191690831515021790555060015f5f6101000a81548160ff0219169083151502179055505b610c0d6040518060400160405280600881526020017f49464220436f696e0000000000000000000000000000000000000000000000008152506040518060400160405280600381526020017f4946420000000000000000000000000000000000000000000000000000000000815250611a3d565b610c15611ab7565b610c1d611b07565b610c2633611b78565b610c3733662386f26fc10000611bda565b82600a5f6101000a81548173ffffffffffffffffffffffffffffffffffffffff021916908373ffffffffffffffffffffffffffffffffffffffff16021790555081600b5f6101000a81548173ffffffffffffffffffffffffffffffffffffffff021916908373ffffffffffffffffffffffffffffffffffffffff160217905550600160105f3373ffffffffffffffffffffffffffffffffffffffff1673ffffffffffffffffffffffffffffffffffffffff1681526020019081526020015f205f6101000a81548160ff0219169083151502179055508015610d2c575f5f60016101000a81548160ff0219169083151502179055505b505050565b600681565b5f60065f9054906101000a900460ff16905090565b600a5f9054906101000a900473ffffffffffffffffffffffffffffffffffffffff1681565b5f60015f8373ffffffffffffffffffffffffffffffffffffffff1673ffffffffffffffffffffffffffffffffffffffff1681526020019081526020015f20549050919050565b610dbe6116ca565b73ffffffffffffffffffffffffffffffffffffffff16610ddc6110c2565b73ffffffffffffffffffffffffffffffffffffffff1614610e32576040517f08c379a0000000000000000000000000000000000000000000000000000000008152600401610e299061284c565b60405180910390fd5b5f60125f8373ffffffffffffffffffffffffffffffffffffffff1673ffffffffffffffffffffffffffffffffffffffff1681526020019081526020015f205f6101000a81548160ff0219169083151502179055508073ffffffffffffffffffffffffffffffffffffffff167fb2aa8f2cce614e8fceaca560dbaf2a8ed3083e4ab371b10bf6d02e359216767a60405160405180910390a250565b5f610ede83610ed96116ca565b6112be565b905081811015610f23576040517f08c379a0000000000000000000000000000000000000000000000000000000008152600401610f1a90612942565b60405180910390fd5b610f3783610f2f6116ca565b8484036116d1565b610f4183836118ea565b505050565b610f4e6116ca565b73ffffffffffffffffffffffffffffffffffffffff16610f6c6110c2565b73ffffffffffffffffffffffffffffffffffffffff1614610fc2576040517f08c379a0000000000000000000000000000000000000000000000000000000008152600401610fb99061284c565b60405180910390fd5b610fca611cb7565b565b610fd46116ca565b73ffffffffffffffffffffffffffffffffffffffff16610ff26110c2565b73ffffffffffffffffffffffffffffffffffffffff1614611048576040517f08c379a000000000000000000000000000000000000000000000000000000000815260040161103f9061284c565b60405180910390fd5b6101f481111561108d576040517f08c379a0000000000000000000000000000000000000000000000000000000008152600401611084906129aa565b60405180910390fd5b8060078190555050565b600b5f9054906101000a900473ffffffffffffffffffffffffffffffffffffffff1681565b60085481565b5f600660019054906101000a900473ffffffffffffffffffffffffffffffffffffffff16905090565b6060600580546110fa90612744565b80601f016020809104026020016040519081016040528092919081815260200182805461112690612744565b80156111715780601f1061114857610100808354040283529160200191611171565b820191905f5260205f20905b81548152906001019060200180831161115457829003601f168201915b5050505050905090565b60075481565b6013602052805f5260405f205f915054906101000a900460ff1681565b5f6111b16111aa6116ca565b848461182f565b6001905092915050565b6010602052805f5260405f205f915054906101000a900460ff1681565b6111e06116ca565b73ffffffffffffffffffffffffffffffffffffffff166111fe6110c2565b73ffffffffffffffffffffffffffffffffffffffff1614611254576040517f08c379a000000000000000000000000000000000000000000000000000000000815260040161124b9061284c565b60405180910390fd5b5f612710600c5461126430610d70565b61126e91906129f5565b6112789190612a63565b905061128430826118ea565b7f6ef4855b666dcc7884561072e4358b28dfe01feb1b7f4dcebc00e62d50394ac7816040516112b3919061245d565b60405180910390a150565b5f60025f8473ffffffffffffffffffffffffffffffffffffffff1673ffffffffffffffffffffffffffffffffffffffff1681526020019081526020015f205f8373ffffffffffffffffffffffffffffffffffffffff1673ffffffffffffffffffffffffffffffffffffffff1681526020019081526020015f2054905092915050565b6113486116ca565b73ffffffffffffffffffffffffffffffffffffffff166113666110c2565b73ffffffffffffffffffffffffffffffffffffffff16146113bc576040517f08c379a00000000000000000000000000000000000000000000000000000000081526004016113b39061284c565b60405180910390fd5b8060135f8473ffffffffffffffffffffffffffffffffffffffff1673ffffffffffffffffffffffffffffffffffffffff1681526020019081526020015f205f6101000a81548160ff0219169083151502179055505050565b61141c6116ca565b73ffffffffffffffffffffffffffffffffffffffff1661143a6110c2565b73ffffffffffffffffffffffffffffffffffffffff1614611490576040517f08c379a00000000000000000000000000000000000000000000000000000000081526004016114879061284c565b60405180910390fd5b5f73ffffffffffffffffffffffffffffffffffffffff168173ffffffffffffffffffffffffffffffffffffffff16036114fe576040517f08c379a00000000000000000000000000000000000000000000000000000000081526004016114f590612b03565b60405180910390fd5b61150781611d59565b50565b60115481565b6115186116ca565b73ffffffffffffffffffffffffffffffffffffffff166115366110c2565b73ffffffffffffffffffffffffffffffffffffffff161461158c576040517f08c379a00000000000000000000000000000000000000000000000000000000081526004016115839061284c565b60405180910390fd5b600160125f8373ffffffffffffffffffffffffffffffffffffffff1673ffffffffffffffffffffffffffffffffffffffff1681526020019081526020015f205f6101000a81548160ff0219169083151502179055508073ffffffffffffffffffffffffffffffffffffffff167fdaf49ab9345b6cb75bcb5a7f726bff9183c34dcf5c098c385730f9fd893765f660405160405180910390a250565b61162f6116ca565b73ffffffffffffffffffffffffffffffffffffffff1661164d6110c2565b73ffffffffffffffffffffffffffffffffffffffff16146116a3576040517f08c379a000000000000000000000000000000000000000000000000000000000815260040161169a9061284c565b60405180910390fd5b80600c8190555050565b6012602052805f5260405f205f915054906101000a900460ff1681565b5f33905090565b5f73ffffffffffffffffffffffffffffffffffffffff168373ffffffffffffffffffffffffffffffffffffffff160361173f576040517f08c379a000000000000000000000000000000000000000000000000000000000815260040161173690612b6b565b60405180910390fd5b5f73ffffffffffffffffffffffffffffffffffffffff168273ffffffffffffffffffffffffffffffffffffffff16036117ad576040517f08c379a00000000000000000000000000000000000000000000000000000000081526004016117a490612bd3565b60405180910390fd5b8060025f8573ffffffffffffffffffffffffffffffffffffffff1673ffffffffffffffffffffffffffffffffffffffff1681526020019081526020015f205f8473ffffffffffffffffffffffffffffffffffffffff1673ffffffffffffffffffffffffffffffffffffffff1681526020019081526020015f2081905550505050565b61183a838383611e1e565b611845838383612168565b505050565b611852610d36565b611891576040517f08c379a000000000000000000000000000000000000000000000000000000000815260040161188890612c3b565b60405180910390fd5b5f60065f6101000a81548160ff0219169083151502179055507f5db9ee0a495bf2e6ff9c91a7834c1ba4fdd244a5e8aa4e537bd38aeae4b073aa6118d36116ca565b6040516118e091906126d3565b60405180910390a1565b5f73ffffffffffffffffffffffffffffffffffffffff168273ffffffffffffffffffffffffffffffffffffffff1603611958576040517f08c379a000000000000000000000000000000000000000000000000000000000815260040161194f90612ca3565b60405180910390fd5b5f60015f8473ffffffffffffffffffffffffffffffffffffffff1673ffffffffffffffffffffffffffffffffffffffff1681526020019081526020015f20549050818110156119dc576040517f08c379a00000000000000000000000000000000000000000000000000000000081526004016119d390612d0b565b60405180910390fd5b81810360015f8573ffffffffffffffffffffffffffffffffffffffff1673ffffffffffffffffffffffffffffffffffffffff1681526020019081526020015f20819055508160035f828254611a319190612d29565b92505081905550505050565b5f60019054906101000a900460ff16611a8b576040517f08c379a0000000000000000000000000000000000000000000000000000000008152600401611a8290612dcc565b60405180910390fd5b611a93612365565b8160049081611aa29190612fb7565b508060059081611ab29190612fb7565b505050565b5f60019054906101000a900460ff16611b05576040517f08c379a0000000000000000000000000000000000000000000000000000000008152600401611afc90612dcc565b60405180910390fd5b565b5f60019054906101000a900460ff16611b55576040517f08c379a0000000000000000000000000000000000000000000000000000000008152600401611b4c90612dcc565b60405180910390fd5b611b5d612365565b5f60065f6101000a81548160ff021916908315150217905550565b5f60019054906101000a900460ff16611bc6576040517f08c379a0000000000000000000000000000000000000000000000000000000008152600401611bbd90612dcc565b60405180910390fd5b611bce612365565b611bd781611d59565b50565b5f73ffffffffffffffffffffffffffffffffffffffff168273ffffffffffffffffffffffffffffffffffffffff1603611c48576040517f08c379a0000000000000000000000000000000000000000000000000000000008152600401611c3f906130d0565b60405180910390fd5b8060035f828254611c5991906130ee565b925050819055508060015f8473ffffffffffffffffffffffffffffffffffffffff1673ffffffffffffffffffffffffffffffffffffffff1681526020019081526020015f205f828254611cac91906130ee565b925050819055505050565b611cbf610d36565b15611cff576040517f08c379a0000000000000000000000000000000000000000000000000000000008152600401611cf69061316b565b60405180910390fd5b600160065f6101000a81548160ff0219169083151502179055507f62e78cea01bee320cd4e420270b5ea74000d11b0c9f74754ebdbfc544b05a258611d426116ca565b604051611d4f91906126d3565b60405180910390a1565b5f600660019054906101000a900473ffffffffffffffffffffffffffffffffffffffff16905081600660016101000a81548173ffffffffffffffffffffffffffffffffffffffff021916908373ffffffffffffffffffffffffffffffffffffffff1602179055508173ffffffffffffffffffffffffffffffffffffffff168173ffffffffffffffffffffffffffffffffffffffff167f8be0079c531659141344cd1fd0a4f28419497f9722a3daafe3b4186f6b6457e060405160405180910390a35050565b611e26610d36565b15611e66576040517f08c379a0000000000000000000000000000000000000000000000000000000008152600401611e5d906131d3565b60405180910390fd5b60125f8473ffffffffffffffffffffffffffffffffffffffff1673ffffffffffffffffffffffffffffffffffffffff1681526020019081526020015f205f9054906101000a900460ff16158015611f04575060125f8373ffffffffffffffffffffffffffffffffffffffff1673ffffffffffffffffffffffffffffffffffffffff1681526020019081526020015f205f9054906101000a900460ff16155b611f43576040517f08c379a0000000000000000000000000000000000000000000000000000000008152600401611f3a9061323b565b60405180910390fd5b60105f8473ffffffffffffffffffffffffffffffffffffffff1673ffffffffffffffffffffffffffffffffffffffff1681526020019081526020015f205f9054906101000a900460ff16612064575f612710600e54611fa06107ed565b611faa91906129f5565b611fb49190612a63565b90505f612710600f54611fc56107ed565b611fcf91906129f5565b611fd99190612a63565b90508183111561201e576040517f08c379a0000000000000000000000000000000000000000000000000000000008152600401612015906132a3565b60405180910390fd5b80831115612061576040517f08c379a00000000000000000000000000000000000000000000000000000000081526004016120589061330b565b60405180910390fd5b50505b5f6127106007548361207691906129f5565b6120809190612a63565b90505f811115612162575f6007546008548361209c91906129f5565b6120a69190612a63565b90505f81836120b59190612d29565b90506120e386600a5f9054906101000a900473ffffffffffffffffffffffffffffffffffffffff1684612168565b61210f86600b5f9054906101000a900473ffffffffffffffffffffffffffffffffffffffff1683612168565b8573ffffffffffffffffffffffffffffffffffffffff167fbab3290eaa73a56c42190fe1b7a571939db85ad067afb39b0b31adeb006eeef28383604051612157929190613329565b60405180910390a250505b50505050565b5f73ffffffffffffffffffffffffffffffffffffffff168373ffffffffffffffffffffffffffffffffffffffff16036121d6576040517f08c379a00000000000000000000000000000000000000000000000000000000081526004016121cd9061339a565b60405180910390fd5b5f73ffffffffffffffffffffffffffffffffffffffff168273ffffffffffffffffffffffffffffffffffffffff1603612244576040517f08c379a000000000000000000000000000000000000000000000000000000000815260040161223b90613402565b60405180910390fd5b5f60015f8573ffffffffffffffffffffffffffffffffffffffff1673ffffffffffffffffffffffffffffffffffffffff1681526020019081526020015f20549050818110156122c8576040517f08c379a00000000000000000000000000000000000000000000000000000000081526004016122bf9061346a565b60405180910390fd5b81810360015f8673ffffffffffffffffffffffffffffffffffffffff1673ffffffffffffffffffffffffffffffffffffffff1681526020019081526020015f20819055508160015f8573ffffffffffffffffffffffffffffffffffffffff1673ffffffffffffffffffffffffffffffffffffffff1681526020019081526020015f205f82825461235891906130ee565b9250508190555050505050565b5f60019054906101000a900460ff166123b3576040517f08c379a00000000000000000000000000000000000000000000000000000000081526004016123aa90612dcc565b60405180910390fd5b565b5f81519050919050565b5f82825260208201905092915050565b8281835e5f83830152505050565b5f601f19601f8301169050919050565b5f6123f7826123b5565b61240181856123bf565b93506124118185602086016123cf565b61241a816123dd565b840191505092915050565b5f6020820190508181035f83015261243d81846123ed565b905092915050565b5f819050919050565b61245781612445565b82525050565b5f6020820190506124705f83018461244e565b92915050565b5f5ffd5b5f73ffffffffffffffffffffffffffffffffffffffff82169050919050565b5f6124a38261247a565b9050919050565b6124b381612499565b81146124bd575f5ffd5b50565b5f813590506124ce816124aa565b92915050565b6124dd81612445565b81146124e7575f5ffd5b50565b5f813590506124f8816124d4565b92915050565b5f5f6040838503121561251457612513612476565b5b5f612521858286016124c0565b9250506020612532858286016124ea565b9150509250929050565b5f8115159050919050565b6125508161253c565b82525050565b5f6020820190506125695f830184612547565b92915050565b5f5f5f6060848603121561258657612585612476565b5b5f612593868287016124c0565b93505060206125a4868287016124c0565b92505060406125b5868287016124ea565b9150509250925092565b5f60ff82169050919050565b6125d4816125bf565b82525050565b5f6020820190506125ed5f8301846125cb565b92915050565b6125fc8161253c565b8114612606575f5ffd5b50565b5f81359050612617816125f3565b92915050565b5f5f6040838503121561263357612632612476565b5b5f612640858286016124c0565b925050602061265185828601612609565b9150509250929050565b5f602082840312156126705761266f612476565b5b5f61267d848285016124ea565b91505092915050565b5f5f6040838503121561269c5761269b612476565b5b5f6126a9858286016124c0565b92505060206126ba858286016124c0565b9150509250929050565b6126cd81612499565b82525050565b5f6020820190506126e65f8301846126c4565b92915050565b5f6020828403121561270157612700612476565b5b5f61270e848285016124c0565b91505092915050565b7f4e487b71000000000000000000000000000000000000000000000000000000005f52602260045260245ffd5b5f600282049050600182168061275b57607f821691505b60208210810361276e5761276d612717565b5b50919050565b7f45524332303a207472616e7366657220616d6f756e74206578636565647320615f8201527f6c6c6f77616e6365000000000000000000000000000000000000000000000000602082015250565b5f6127ce6028836123bf565b91506127d982612774565b604082019050919050565b5f6020820190508181035f8301526127fb816127c2565b9050919050565b7f4f776e61626c653a2063616c6c6572206973206e6f7420746865206f776e65725f82015250565b5f6128366020836123bf565b915061284182612802565b602082019050919050565b5f6020820190508181035f8301526128638161282a565b9050919050565b7f496e697469616c697a61626c653a20636f6e747261637420697320616c7265615f8201527f647920696e697469616c697a6564000000000000000000000000000000000000602082015250565b5f6128c4602e836123bf565b91506128cf8261286a565b604082019050919050565b5f6020820190508181035f8301526128f1816128b8565b9050919050565b7f45524332303a206275726e206578636565647320616c6c6f77616e63650000005f82015250565b5f61292c601d836123bf565b9150612937826128f8565b602082019050919050565b5f6020820190508181035f83015261295981612920565b9050919050565b7f54617820746f6f206869676800000000000000000000000000000000000000005f82015250565b5f612994600c836123bf565b915061299f82612960565b602082019050919050565b5f6020820190508181035f8301526129c181612988565b9050919050565b7f4e487b71000000000000000000000000000000000000000000000000000000005f52601160045260245ffd5b5f6129ff82612445565b9150612a0a83612445565b9250828202612a1881612445565b91508282048414831517612a2f57612a2e6129c8565b5b5092915050565b7f4e487b71000000000000000000000000000000000000000000000000000000005f52601260045260245ffd5b5f612a6d82612445565b9150612a7883612445565b925082612a8857612a87612a36565b5b828204905092915050565b7f4f776e61626c653a206e6577206f776e657220697320746865207a65726f20615f8201527f6464726573730000000000000000000000000000000000000000000000000000602082015250565b5f612aed6026836123bf565b9150612af882612a93565b604082019050919050565b5f6020820190508181035f830152612b1a81612ae1565b9050919050565b7f45524332303a20617070726f76652066726f6d207a65726f00000000000000005f82015250565b5f612b556018836123bf565b9150612b6082612b21565b602082019050919050565b5f6020820190508181035f830152612b8281612b49565b9050919050565b7f45524332303a20617070726f766520746f207a65726f000000000000000000005f82015250565b5f612bbd6016836123bf565b9150612bc882612b89565b602082019050919050565b5f6020820190508181035f830152612bea81612bb1565b9050919050565b7f5061757361626c653a206e6f74207061757365640000000000000000000000005f82015250565b5f612c256014836123bf565b9150612c3082612bf1565b602082019050919050565b5f6020820190508181035f830152612c5281612c19565b9050919050565b7f45524332303a206275726e2066726f6d207a65726f00000000000000000000005f82015250565b5f612c8d6015836123bf565b9150612c9882612c59565b602082019050919050565b5f6020820190508181035f830152612cba81612c81565b9050919050565b7f45524332303a206275726e20657863656564732062616c616e636500000000005f82015250565b5f612cf5601b836123bf565b9150612d0082612cc1565b602082019050919050565b5f6020820190508181035f830152612d2281612ce9565b9050919050565b5f612d3382612445565b9150612d3e83612445565b9250828203905081811115612d5657612d556129c8565b5b92915050565b7f496e697469616c697a61626c653a20636f6e7472616374206973206e6f7420695f8201527f6e697469616c697a696e67000000000000000000000000000000000000000000602082015250565b5f612db6602b836123bf565b9150612dc182612d5c565b604082019050919050565b5f6020820190508181035f830152612de381612daa565b9050919050565b7f4e487b71000000000000000000000000000000000000000000000000000000005f52604160045260245ffd5b5f819050815f5260205f209050919050565b5f6020601f8301049050919050565b5f82821b905092915050565b5f60088302612e737fffffffffffffffffffffffffffffffffffffffffffffffffffffffffffffffff82612e38565b612e7d8683612e38565b95508019841693508086168417925050509392505050565b5f819050919050565b5f612eb8612eb3612eae84612445565b612e95565b612445565b9050919050565b5f819050919050565b612ed183612e9e565b612ee5612edd82612ebf565b848454612e44565b825550505050565b5f5f905090565b612efc612eed565b612f07818484612ec8565b505050565b5b81811015612f2a57612f1f5f82612ef4565b600181019050612f0d565b5050565b601f821115612f6f57612f4081612e17565b612f4984612e29565b81016020851015612f58578190505b612f6c612f6485612e29565b830182612f0c565b50505b505050565b5f82821c905092915050565b5f612f8f5f1984600802612f74565b1980831691505092915050565b5f612fa78383612f80565b9150826002028217905092915050565b612fc0826123b5565b67ffffffffffffffff811115612fd957612fd8612dea565b5b612fe38254612744565b612fee828285612f2e565b5f60209050601f83116001811461301f575f841561300d578287015190505b6130178582612f9c565b86555061307e565b601f19841661302d86612e17565b5f5b828110156130545784890151825560018201915060208501945060208101905061302f565b86831015613071578489015161306d601f891682612f80565b8355505b6001600288020188555050505b505050505050565b7f45524332303a206d696e7420746f207a65726f000000000000000000000000005f82015250565b5f6130ba6013836123bf565b91506130c582613086565b602082019050919050565b5f6020820190508181035f8301526130e7816130ae565b9050919050565b5f6130f882612445565b915061310383612445565b925082820190508082111561311b5761311a6129c8565b5b92915050565b7f5061757361626c653a20706175736564000000000000000000000000000000005f82015250565b5f6131556010836123bf565b915061316082613121565b602082019050919050565b5f6020820190508181035f83015261318281613149565b9050919050565b7f546f6b656e207472616e73666572207768696c652070617573656400000000005f82015250565b5f6131bd601b836123bf565b91506131c882613189565b602082019050919050565b5f6020820190508181035f8301526131ea816131b1565b9050919050565b7f4164647265737320697320626c61636b6c6973746564000000000000000000005f82015250565b5f6132256016836123bf565b9150613230826131f1565b602082019050919050565b5f6020820190508181035f83015261325281613219565b9050919050565b7f45786365656473206461696c79207472616e73666572206c696d6974000000005f82015250565b5f61328d601c836123bf565b915061329882613259565b602082019050919050565b5f6020820190508181035f8301526132ba81613281565b9050919050565b7f45786365656473206d6f6e74686c79207472616e73666572206c696d697400005f82015250565b5f6132f5601e836123bf565b9150613300826132c1565b602082019050919050565b5f6020820190508181035f830152613322816132e9565b9050919050565b5f60408201905061333c5f83018561244e565b613349602083018461244e565b9392505050565b7f45524332303a207472616e736665722066726f6d207a65726f000000000000005f82015250565b5f6133846019836123bf565b915061338f82613350565b602082019050919050565b5f6020820190508181035f8301526133b181613378565b9050919050565b7f45524332303a207472616e7366657220746f207a65726f0000000000000000005f82015250565b5f6133ec6017836123bf565b91506133f7826133b8565b602082019050919050565b5f6020820190508181035f830152613419816133e0565b9050919050565b7f45524332303a207472616e7366657220657863656564732062616c616e6365005f82015250565b5f613454601f836123bf565b915061345f82613420565b602082019050919050565b5f6020820190508181035f83015261348181613448565b905091905056fea26469706673582212200643279fe9be0fc449d7d462cd621edde671e8fa7f0bfd2832ed0e58457848b064736f6c634300081e0033",
					"opcodes": "PUSH1 0x80 PUSH1 0x40 MSTORE PUSH1 0x32 PUSH1 0x7 SSTORE PUSH1 0x1E PUSH1 0x8 SSTORE PUSH1 0x14 PUSH1 0x9 SSTORE PUSH1 0x64 PUSH1 0xC SSTORE PUSH2 0x5DC PUSH1 0xD SSTORE PUSH2 0x3E8 PUSH1 0xE SSTORE PUSH2 0x4E20 PUSH1 0xF SSTORE PUSH2 0x1F4 PUSH1 0x11 SSTORE CALLVALUE DUP1 ISZERO PUSH1 0x3A JUMPI PUSH0 PUSH0 REVERT JUMPDEST POP PUSH1 0x47 PUSH1 0x4B PUSH1 0x20 SHL PUSH1 0x20 SHR JUMP JUMPDEST PUSH1 0x66 JUMP JUMPDEST PUSH1 0x1 PUSH0 PUSH0 PUSH2 0x100 EXP DUP2 SLOAD DUP2 PUSH1 0xFF MUL NOT AND SWAP1 DUP4 ISZERO ISZERO MUL OR SWAP1 SSTORE POP JUMP JUMPDEST PUSH2 0x34BE DUP1 PUSH2 0x73 PUSH0 CODECOPY PUSH0 RETURN INVALID PUSH1 0x80 PUSH1 0x40 MSTORE CALLVALUE DUP1 ISZERO PUSH2 0xF JUMPI PUSH0 PUSH0 REVERT JUMPDEST POP PUSH1 0x4 CALLDATASIZE LT PUSH2 0x246 JUMPI PUSH0 CALLDATALOAD PUSH1 0xE0 SHR DUP1 PUSH4 0x75E3661E GT PUSH2 0x139 JUMPI DUP1 PUSH4 0xA9059CBB GT PUSH2 0xB6 JUMPI DUP1 PUSH4 0xF2FDE38B GT PUSH2 0x7A JUMPI DUP1 PUSH4 0xF2FDE38B EQ PUSH2 0x698 JUMPI DUP1 PUSH4 0xF81CBD26 EQ PUSH2 0x6B4 JUMPI DUP1 PUSH4 0xF9F92BE4 EQ PUSH2 0x6D2 JUMPI DUP1 PUSH4 0xFDB97901 EQ PUSH2 0x6EE JUMPI DUP1 PUSH4 0xFE575A87 EQ PUSH2 0x70A JUMPI PUSH2 0x246 JUMP JUMPDEST DUP1 PUSH4 0xA9059CBB EQ PUSH2 0x5E2 JUMPI DUP1 PUSH4 0xCD2C6A99 EQ PUSH2 0x612 JUMPI DUP1 PUSH4 0xD8A43B1F EQ PUSH2 0x642 JUMPI DUP1 PUSH4 0xDD62ED3E EQ PUSH2 0x64C JUMPI DUP1 PUSH4 0xE37A35C7 EQ PUSH2 0x67C JUMPI PUSH2 0x246 JUMP JUMPDEST DUP1 PUSH4 0x87B8645C GT PUSH2 0xFD JUMPI DUP1 PUSH4 0x87B8645C EQ PUSH2 0x53A JUMPI DUP1 PUSH4 0x8DA5CB5B EQ PUSH2 0x558 JUMPI DUP1 PUSH4 0x95D89B41 EQ PUSH2 0x576 JUMPI DUP1 PUSH4 0xA2770731 EQ PUSH2 0x594 JUMPI DUP1 PUSH4 0xA5410A66 EQ PUSH2 0x5B2 JUMPI PUSH2 0x246 JUMP JUMPDEST DUP1 PUSH4 0x75E3661E EQ PUSH2 0x4BE JUMPI DUP1 PUSH4 0x79CC6790 EQ PUSH2 0x4DA JUMPI DUP1 PUSH4 0x8456CB59 EQ PUSH2 0x4F6 JUMPI DUP1 PUSH4 0x8772E7D5 EQ PUSH2 0x500 JUMPI DUP1 PUSH4 0x878C7CA8 EQ PUSH2 0x51C JUMPI PUSH2 0x246 JUMP JUMPDEST DUP1 PUSH4 0x313CE567 GT PUSH2 0x1C7 JUMPI DUP1 PUSH4 0x485CC955 GT PUSH2 0x18B JUMPI DUP1 PUSH4 0x485CC955 EQ PUSH2 0x418 JUMPI DUP1 PUSH4 0x5B7F415C EQ PUSH2 0x434 JUMPI DUP1 PUSH4 0x5C975ABB EQ PUSH2 0x452 JUMPI DUP1 PUSH4 0x6F5585B8 EQ PUSH2 0x470 JUMPI DUP1 PUSH4 0x70A08231 EQ PUSH2 0x48E JUMPI PUSH2 0x246 JUMP JUMPDEST DUP1 PUSH4 0x313CE567 EQ PUSH2 0x39A JUMPI DUP1 PUSH4 0x3EA6E071 EQ PUSH2 0x3B8 JUMPI DUP1 PUSH4 0x3F4BA83A EQ PUSH2 0x3D4 JUMPI DUP1 PUSH4 0x42966C68 EQ PUSH2 0x3DE JUMPI DUP1 PUSH4 0x4365D0FB EQ PUSH2 0x3FA JUMPI PUSH2 0x246 JUMP JUMPDEST DUP1 PUSH4 0x1A04A795 GT PUSH2 0x20E JUMPI DUP1 PUSH4 0x1A04A795 EQ PUSH2 0x2F2 JUMPI DUP1 PUSH4 0x237BD28F EQ PUSH2 0x310 JUMPI DUP1 PUSH4 0x23B872DD EQ PUSH2 0x32E JUMPI DUP1 PUSH4 0x2A905318 EQ PUSH2 0x35E JUMPI DUP1 PUSH4 0x3005CB05 EQ PUSH2 0x37C JUMPI PUSH2 0x246 JUMP JUMPDEST DUP1 PUSH4 0x6FDDE03 EQ PUSH2 0x24A JUMPI DUP1 PUSH4 0x82664C2 EQ PUSH2 0x268 JUMPI DUP1 PUSH4 0x95EA7B3 EQ PUSH2 0x286 JUMPI DUP1 PUSH4 0x18160DDD EQ PUSH2 0x2B6 JUMPI DUP1 PUSH4 0x18821400 EQ PUSH2 0x2D4 JUMPI JUMPDEST PUSH0 PUSH0 REVERT JUMPDEST PUSH2 0x252 PUSH2 0x73A JUMP JUMPDEST PUSH1 0x40 MLOAD PUSH2 0x25F SWAP2 SWAP1 PUSH2 0x2425 JUMP JUMPDEST PUSH1 0x40 MLOAD DUP1 SWAP2 SUB SWAP1 RETURN JUMPDEST PUSH2 0x270 PUSH2 0x7CA JUMP JUMPDEST PUSH1 0x40 MLOAD PUSH2 0x27D SWAP2 SWAP1 PUSH2 0x245D JUMP JUMPDEST PUSH1 0x40 MLOAD DUP1 SWAP2 SUB SWAP1 RETURN JUMPDEST PUSH2 0x2A0 PUSH1 0x4 DUP1 CALLDATASIZE SUB DUP2 ADD SWAP1 PUSH2 0x29B SWAP2 SWAP1 PUSH2 0x24FE JUMP JUMPDEST PUSH2 0x7D0 JUMP JUMPDEST PUSH1 0x40 MLOAD PUSH2 0x2AD SWAP2 SWAP1 PUSH2 0x2556 JUMP JUMPDEST PUSH1 0x40 MLOAD DUP1 SWAP2 SUB SWAP1 RETURN JUMPDEST PUSH2 0x2BE PUSH2 0x7ED JUMP JUMPDEST PUSH1 0x40 MLOAD PUSH2 0x2CB SWAP2 SWAP1 PUSH2 0x245D JUMP JUMPDEST PUSH1 0x40 MLOAD DUP1 SWAP2 SUB SWAP1 RETURN JUMPDEST PUSH2 0x2DC PUSH2 0x7F6 JUMP JUMPDEST PUSH1 0x40 MLOAD PUSH2 0x2E9 SWAP2 SWAP1 PUSH2 0x2425 JUMP JUMPDEST PUSH1 0x40 MLOAD DUP1 SWAP2 SUB SWAP1 RETURN JUMPDEST PUSH2 0x2FA PUSH2 0x82F JUMP JUMPDEST PUSH1 0x40 MLOAD PUSH2 0x307 SWAP2 SWAP1 PUSH2 0x245D JUMP JUMPDEST PUSH1 0x40 MLOAD DUP1 SWAP2 SUB SWAP1 RETURN JUMPDEST PUSH2 0x318 PUSH2 0x835 JUMP JUMPDEST PUSH1 0x40 MLOAD PUSH2 0x325 SWAP2 SWAP1 PUSH2 0x245D JUMP JUMPDEST PUSH1 0x40 MLOAD DUP1 SWAP2 SUB SWAP1 RETURN JUMPDEST PUSH2 0x348 PUSH1 0x4 DUP1 CALLDATASIZE SUB DUP2 ADD SWAP1 PUSH2 0x343 SWAP2 SWAP1 PUSH2 0x256F JUMP JUMPDEST PUSH2 0x83B JUMP JUMPDEST PUSH1 0x40 MLOAD PUSH2 0x355 SWAP2 SWAP1 PUSH2 0x2556 JUMP JUMPDEST PUSH1 0x40 MLOAD DUP1 SWAP2 SUB SWAP1 RETURN JUMPDEST PUSH2 0x366 PUSH2 0x92D JUMP JUMPDEST PUSH1 0x40 MLOAD PUSH2 0x373 SWAP2 SWAP1 PUSH2 0x2425 JUMP JUMPDEST PUSH1 0x40 MLOAD DUP1 SWAP2 SUB SWAP1 RETURN JUMPDEST PUSH2 0x384 PUSH2 0x966 JUMP JUMPDEST PUSH1 0x40 MLOAD PUSH2 0x391 SWAP2 SWAP1 PUSH2 0x245D JUMP JUMPDEST PUSH1 0x40 MLOAD DUP1 SWAP2 SUB SWAP1 RETURN JUMPDEST PUSH2 0x3A2 PUSH2 0x96C JUMP JUMPDEST PUSH1 0x40 MLOAD PUSH2 0x3AF SWAP2 SWAP1 PUSH2 0x25DA JUMP JUMPDEST PUSH1 0x40 MLOAD DUP1 SWAP2 SUB SWAP1 RETURN JUMPDEST PUSH2 0x3D2 PUSH1 0x4 DUP1 CALLDATASIZE SUB DUP2 ADD SWAP1 PUSH2 0x3CD SWAP2 SWAP1 PUSH2 0x261D JUMP JUMPDEST PUSH2 0x974 JUMP JUMPDEST STOP JUMPDEST PUSH2 0x3DC PUSH2 0xA48 JUMP JUMPDEST STOP JUMPDEST PUSH2 0x3F8 PUSH1 0x4 DUP1 CALLDATASIZE SUB DUP2 ADD SWAP1 PUSH2 0x3F3 SWAP2 SWAP1 PUSH2 0x265B JUMP JUMPDEST PUSH2 0xACE JUMP JUMPDEST STOP JUMPDEST PUSH2 0x402 PUSH2 0xAE2 JUMP JUMPDEST PUSH1 0x40 MLOAD PUSH2 0x40F SWAP2 SWAP1 PUSH2 0x245D JUMP JUMPDEST PUSH1 0x40 MLOAD DUP1 SWAP2 SUB SWAP1 RETURN JUMPDEST PUSH2 0x432 PUSH1 0x4 DUP1 CALLDATASIZE SUB DUP2 ADD SWAP1 PUSH2 0x42D SWAP2 SWAP1 PUSH2 0x2686 JUMP JUMPDEST PUSH2 0xAE8 JUMP JUMPDEST STOP JUMPDEST PUSH2 0x43C PUSH2 0xD31 JUMP JUMPDEST PUSH1 0x40 MLOAD PUSH2 0x449 SWAP2 SWAP1 PUSH2 0x25DA JUMP JUMPDEST PUSH1 0x40 MLOAD DUP1 SWAP2 SUB SWAP1 RETURN JUMPDEST PUSH2 0x45A PUSH2 0xD36 JUMP JUMPDEST PUSH1 0x40 MLOAD PUSH2 0x467 SWAP2 SWAP1 PUSH2 0x2556 JUMP JUMPDEST PUSH1 0x40 MLOAD DUP1 SWAP2 SUB SWAP1 RETURN JUMPDEST PUSH2 0x478 PUSH2 0xD4B JUMP JUMPDEST PUSH1 0x40 MLOAD PUSH2 0x485 SWAP2 SWAP1 PUSH2 0x26D3 JUMP JUMPDEST PUSH1 0x40 MLOAD DUP1 SWAP2 SUB SWAP1 RETURN JUMPDEST PUSH2 0x4A8 PUSH1 0x4 DUP1 CALLDATASIZE SUB DUP2 ADD SWAP1 PUSH2 0x4A3 SWAP2 SWAP1 PUSH2 0x26EC JUMP JUMPDEST PUSH2 0xD70 JUMP JUMPDEST PUSH1 0x40 MLOAD PUSH2 0x4B5 SWAP2 SWAP1 PUSH2 0x245D JUMP JUMPDEST PUSH1 0x40 MLOAD DUP1 SWAP2 SUB SWAP1 RETURN JUMPDEST PUSH2 0x4D8 PUSH1 0x4 DUP1 CALLDATASIZE SUB DUP2 ADD SWAP1 PUSH2 0x4D3 SWAP2 SWAP1 PUSH2 0x26EC JUMP JUMPDEST PUSH2 0xDB6 JUMP JUMPDEST STOP JUMPDEST PUSH2 0x4F4 PUSH1 0x4 DUP1 CALLDATASIZE SUB DUP2 ADD SWAP1 PUSH2 0x4EF SWAP2 SWAP1 PUSH2 0x24FE JUMP JUMPDEST PUSH2 0xECC JUMP JUMPDEST STOP JUMPDEST PUSH2 0x4FE PUSH2 0xF46 JUMP JUMPDEST STOP JUMPDEST PUSH2 0x51A PUSH1 0x4 DUP1 CALLDATASIZE SUB DUP2 ADD SWAP1 PUSH2 0x515 SWAP2 SWAP1 PUSH2 0x265B JUMP JUMPDEST PUSH2 0xFCC JUMP JUMPDEST STOP JUMPDEST PUSH2 0x524 PUSH2 0x1097 JUMP JUMPDEST PUSH1 0x40 MLOAD PUSH2 0x531 SWAP2 SWAP1 PUSH2 0x26D3 JUMP JUMPDEST PUSH1 0x40 MLOAD DUP1 SWAP2 SUB SWAP1 RETURN JUMPDEST PUSH2 0x542 PUSH2 0x10BC JUMP JUMPDEST PUSH1 0x40 MLOAD PUSH2 0x54F SWAP2 SWAP1 PUSH2 0x245D JUMP JUMPDEST PUSH1 0x40 MLOAD DUP1 SWAP2 SUB SWAP1 RETURN JUMPDEST PUSH2 0x560 PUSH2 0x10C2 JUMP JUMPDEST PUSH1 0x40 MLOAD PUSH2 0x56D SWAP2 SWAP1 PUSH2 0x26D3 JUMP JUMPDEST PUSH1 0x40 MLOAD DUP1 SWAP2 SUB SWAP1 RETURN JUMPDEST PUSH2 0x57E PUSH2 0x10EB JUMP JUMPDEST PUSH1 0x40 MLOAD PUSH2 0x58B SWAP2 SWAP1 PUSH2 0x2425 JUMP JUMPDEST PUSH1 0x40 MLOAD DUP1 SWAP2 SUB SWAP1 RETURN JUMPDEST PUSH2 0x59C PUSH2 0x117B JUMP JUMPDEST PUSH1 0x40 MLOAD PUSH2 0x5A9 SWAP2 SWAP1 PUSH2 0x245D JUMP JUMPDEST PUSH1 0x40 MLOAD DUP1 SWAP2 SUB SWAP1 RETURN JUMPDEST PUSH2 0x5CC PUSH1 0x4 DUP1 CALLDATASIZE SUB DUP2 ADD SWAP1 PUSH2 0x5C7 SWAP2 SWAP1 PUSH2 0x26EC JUMP JUMPDEST PUSH2 0x1181 JUMP JUMPDEST PUSH1 0x40 MLOAD PUSH2 0x5D9 SWAP2 SWAP1 PUSH2 0x2556 JUMP JUMPDEST PUSH1 0x40 MLOAD DUP1 SWAP2 SUB SWAP1 RETURN JUMPDEST PUSH2 0x5FC PUSH1 0x4 DUP1 CALLDATASIZE SUB DUP2 ADD SWAP1 PUSH2 0x5F7 SWAP2 SWAP1 PUSH2 0x24FE JUMP JUMPDEST PUSH2 0x119E JUMP JUMPDEST PUSH1 0x40 MLOAD PUSH2 0x609 SWAP2 SWAP1 PUSH2 0x2556 JUMP JUMPDEST PUSH1 0x40 MLOAD DUP1 SWAP2 SUB SWAP1 RETURN JUMPDEST PUSH2 0x62C PUSH1 0x4 DUP1 CALLDATASIZE SUB DUP2 ADD SWAP1 PUSH2 0x627 SWAP2 SWAP1 PUSH2 0x26EC JUMP JUMPDEST PUSH2 0x11BB JUMP JUMPDEST PUSH1 0x40 MLOAD PUSH2 0x639 SWAP2 SWAP1 PUSH2 0x2556 JUMP JUMPDEST PUSH1 0x40 MLOAD DUP1 SWAP2 SUB SWAP1 RETURN JUMPDEST PUSH2 0x64A PUSH2 0x11D8 JUMP JUMPDEST STOP JUMPDEST PUSH2 0x666 PUSH1 0x4 DUP1 CALLDATASIZE SUB DUP2 ADD SWAP1 PUSH2 0x661 SWAP2 SWAP1 PUSH2 0x2686 JUMP JUMPDEST PUSH2 0x12BE JUMP JUMPDEST PUSH1 0x40 MLOAD PUSH2 0x673 SWAP2 SWAP1 PUSH2 0x245D JUMP JUMPDEST PUSH1 0x40 MLOAD DUP1 SWAP2 SUB SWAP1 RETURN JUMPDEST PUSH2 0x696 PUSH1 0x4 DUP1 CALLDATASIZE SUB DUP2 ADD SWAP1 PUSH2 0x691 SWAP2 SWAP1 PUSH2 0x261D JUMP JUMPDEST PUSH2 0x1340 JUMP JUMPDEST STOP JUMPDEST PUSH2 0x6B2 PUSH1 0x4 DUP1 CALLDATASIZE SUB DUP2 ADD SWAP1 PUSH2 0x6AD SWAP2 SWAP1 PUSH2 0x26EC JUMP JUMPDEST PUSH2 0x1414 JUMP JUMPDEST STOP JUMPDEST PUSH2 0x6BC PUSH2 0x150A JUMP JUMPDEST PUSH1 0x40 MLOAD PUSH2 0x6C9 SWAP2 SWAP1 PUSH2 0x245D JUMP JUMPDEST PUSH1 0x40 MLOAD DUP1 SWAP2 SUB SWAP1 RETURN JUMPDEST PUSH2 0x6EC PUSH1 0x4 DUP1 CALLDATASIZE SUB DUP2 ADD SWAP1 PUSH2 0x6E7 SWAP2 SWAP1 PUSH2 0x26EC JUMP JUMPDEST PUSH2 0x1510 JUMP JUMPDEST STOP JUMPDEST PUSH2 0x708 PUSH1 0x4 DUP1 CALLDATASIZE SUB DUP2 ADD SWAP1 PUSH2 0x703 SWAP2 SWAP1 PUSH2 0x265B JUMP JUMPDEST PUSH2 0x1627 JUMP JUMPDEST STOP JUMPDEST PUSH2 0x724 PUSH1 0x4 DUP1 CALLDATASIZE SUB DUP2 ADD SWAP1 PUSH2 0x71F SWAP2 SWAP1 PUSH2 0x26EC JUMP JUMPDEST PUSH2 0x16AD JUMP JUMPDEST PUSH1 0x40 MLOAD PUSH2 0x731 SWAP2 SWAP1 PUSH2 0x2556 JUMP JUMPDEST PUSH1 0x40 MLOAD DUP1 SWAP2 SUB SWAP1 RETURN JUMPDEST PUSH1 0x60 PUSH1 0x4 DUP1 SLOAD PUSH2 0x749 SWAP1 PUSH2 0x2744 JUMP JUMPDEST DUP1 PUSH1 0x1F ADD PUSH1 0x20 DUP1 SWAP2 DIV MUL PUSH1 0x20 ADD PUSH1 0x40 MLOAD SWAP1 DUP2 ADD PUSH1 0x40 MSTORE DUP1 SWAP3 SWAP2 SWAP1 DUP2 DUP2 MSTORE PUSH1 0x20 ADD DUP3 DUP1 SLOAD PUSH2 0x775 SWAP1 PUSH2 0x2744 JUMP JUMPDEST DUP1 ISZERO PUSH2 0x7C0 JUMPI DUP1 PUSH1 0x1F LT PUSH2 0x797 JUMPI PUSH2 0x100 DUP1 DUP4 SLOAD DIV MUL DUP4 MSTORE SWAP2 PUSH1 0x20 ADD SWAP2 PUSH2 0x7C0 JUMP JUMPDEST DUP3 ADD SWAP2 SWAP1 PUSH0 MSTORE PUSH1 0x20 PUSH0 KECCAK256 SWAP1 JUMPDEST DUP2 SLOAD DUP2 MSTORE SWAP1 PUSH1 0x1 ADD SWAP1 PUSH1 0x20 ADD DUP1 DUP4 GT PUSH2 0x7A3 JUMPI DUP3 SWAP1 SUB PUSH1 0x1F AND DUP3 ADD SWAP2 JUMPDEST POP POP POP POP POP SWAP1 POP SWAP1 JUMP JUMPDEST PUSH1 0xF SLOAD DUP2 JUMP JUMPDEST PUSH0 PUSH2 0x7E3 PUSH2 0x7DC PUSH2 0x16CA JUMP JUMPDEST DUP5 DUP5 PUSH2 0x16D1 JUMP JUMPDEST PUSH1 0x1 SWAP1 POP SWAP3 SWAP2 POP POP JUMP JUMPDEST PUSH0 PUSH1 0x3 SLOAD SWAP1 POP SWAP1 JUMP JUMPDEST PUSH1 0x40 MLOAD DUP1 PUSH1 0x40 ADD PUSH1 0x40 MSTORE DUP1 PUSH1 0x8 DUP2 MSTORE PUSH1 0x20 ADD PUSH32 0x49464220436F696E000000000000000000000000000000000000000000000000 DUP2 MSTORE POP DUP2 JUMP JUMPDEST PUSH1 0xC SLOAD DUP2 JUMP JUMPDEST PUSH1 0xD SLOAD DUP2 JUMP JUMPDEST PUSH0 PUSH0 PUSH1 0x2 PUSH0 DUP7 PUSH20 0xFFFFFFFFFFFFFFFFFFFFFFFFFFFFFFFFFFFFFFFF AND PUSH20 0xFFFFFFFFFFFFFFFFFFFFFFFFFFFFFFFFFFFFFFFF AND DUP2 MSTORE PUSH1 0x20 ADD SWAP1 DUP2 MSTORE PUSH1 0x20 ADD PUSH0 KECCAK256 PUSH0 PUSH2 0x883 PUSH2 0x16CA JUMP JUMPDEST PUSH20 0xFFFFFFFFFFFFFFFFFFFFFFFFFFFFFFFFFFFFFFFF AND PUSH20 0xFFFFFFFFFFFFFFFFFFFFFFFFFFFFFFFFFFFFFFFF AND DUP2 MSTORE PUSH1 0x20 ADD SWAP1 DUP2 MSTORE PUSH1 0x20 ADD PUSH0 KECCAK256 SLOAD SWAP1 POP DUP3 DUP2 LT ISZERO PUSH2 0x902 JUMPI PUSH1 0x40 MLOAD PUSH32 0x8C379A000000000000000000000000000000000000000000000000000000000 DUP2 MSTORE PUSH1 0x4 ADD PUSH2 0x8F9 SWAP1 PUSH2 0x27E4 JUMP JUMPDEST PUSH1 0x40 MLOAD DUP1 SWAP2 SUB SWAP1 REVERT JUMPDEST PUSH2 0x916 DUP6 PUSH2 0x90E PUSH2 0x16CA JUMP JUMPDEST DUP6 DUP5 SUB PUSH2 0x16D1 JUMP JUMPDEST PUSH2 0x921 DUP6 DUP6 DUP6 PUSH2 0x182F JUMP JUMPDEST PUSH1 0x1 SWAP2 POP POP SWAP4 SWAP3 POP POP POP JUMP JUMPDEST PUSH1 0x40 MLOAD DUP1 PUSH1 0x40 ADD PUSH1 0x40 MSTORE DUP1 PUSH1 0x3 DUP2 MSTORE PUSH1 0x20 ADD PUSH32 0x4946420000000000000000000000000000000000000000000000000000000000 DUP2 MSTORE POP DUP2 JUMP JUMPDEST PUSH1 0x9 SLOAD DUP2 JUMP JUMPDEST PUSH0 PUSH1 0x6 SWAP1 POP SWAP1 JUMP JUMPDEST PUSH2 0x97C PUSH2 0x16CA JUMP JUMPDEST PUSH20 0xFFFFFFFFFFFFFFFFFFFFFFFFFFFFFFFFFFFFFFFF AND PUSH2 0x99A PUSH2 0x10C2 JUMP JUMPDEST PUSH20 0xFFFFFFFFFFFFFFFFFFFFFFFFFFFFFFFFFFFFFFFF AND EQ PUSH2 0x9F0 JUMPI PUSH1 0x40 MLOAD PUSH32 0x8C379A000000000000000000000000000000000000000000000000000000000 DUP2 MSTORE PUSH1 0x4 ADD PUSH2 0x9E7 SWAP1 PUSH2 0x284C JUMP JUMPDEST PUSH1 0x40 MLOAD DUP1 SWAP2 SUB SWAP1 REVERT JUMPDEST DUP1 PUSH1 0x10 PUSH0 DUP5 PUSH20 0xFFFFFFFFFFFFFFFFFFFFFFFFFFFFFFFFFFFFFFFF AND PUSH20 0xFFFFFFFFFFFFFFFFFFFFFFFFFFFFFFFFFFFFFFFF AND DUP2 MSTORE PUSH1 0x20 ADD SWAP1 DUP2 MSTORE PUSH1 0x20 ADD PUSH0 KECCAK256 PUSH0 PUSH2 0x100 EXP DUP2 SLOAD DUP2 PUSH1 0xFF MUL NOT AND SWAP1 DUP4 ISZERO ISZERO MUL OR SWAP1 SSTORE POP POP POP JUMP JUMPDEST PUSH2 0xA50 PUSH2 0x16CA JUMP JUMPDEST PUSH20 0xFFFFFFFFFFFFFFFFFFFFFFFFFFFFFFFFFFFFFFFF AND PUSH2 0xA6E PUSH2 0x10C2 JUMP JUMPDEST PUSH20 0xFFFFFFFFFFFFFFFFFFFFFFFFFFFFFFFFFFFFFFFF AND EQ PUSH2 0xAC4 JUMPI PUSH1 0x40 MLOAD PUSH32 0x8C379A000000000000000000000000000000000000000000000000000000000 DUP2 MSTORE PUSH1 0x4 ADD PUSH2 0xABB SWAP1 PUSH2 0x284C JUMP JUMPDEST PUSH1 0x40 MLOAD DUP1 SWAP2 SUB SWAP1 REVERT JUMPDEST PUSH2 0xACC PUSH2 0x184A JUMP JUMPDEST JUMP JUMPDEST PUSH2 0xADF PUSH2 0xAD9 PUSH2 0x16CA JUMP JUMPDEST DUP3 PUSH2 0x18EA JUMP JUMPDEST POP JUMP JUMPDEST PUSH1 0xE SLOAD DUP2 JUMP JUMPDEST PUSH0 PUSH1 0x1 SWAP1 SLOAD SWAP1 PUSH2 0x100 EXP SWAP1 DIV PUSH1 0xFF AND DUP1 PUSH2 0xB0D JUMPI POP PUSH0 PUSH0 SWAP1 SLOAD SWAP1 PUSH2 0x100 EXP SWAP1 DIV PUSH1 0xFF AND ISZERO JUMPDEST PUSH2 0xB4C JUMPI PUSH1 0x40 MLOAD PUSH32 0x8C379A000000000000000000000000000000000000000000000000000000000 DUP2 MSTORE PUSH1 0x4 ADD PUSH2 0xB43 SWAP1 PUSH2 0x28DA JUMP JUMPDEST PUSH1 0x40 MLOAD DUP1 SWAP2 SUB SWAP1 REVERT JUMPDEST PUSH0 PUSH0 PUSH1 0x1 SWAP1 SLOAD SWAP1 PUSH2 0x100 EXP SWAP1 DIV PUSH1 0xFF AND ISZERO SWAP1 POP DUP1 ISZERO PUSH2 0xB99 JUMPI PUSH1 0x1 PUSH0 PUSH1 0x1 PUSH2 0x100 EXP DUP2 SLOAD DUP2 PUSH1 0xFF MUL NOT AND SWAP1 DUP4 ISZERO ISZERO MUL OR SWAP1 SSTORE POP PUSH1 0x1 PUSH0 PUSH0 PUSH2 0x100 EXP DUP2 SLOAD DUP2 PUSH1 0xFF MUL NOT AND SWAP1 DUP4 ISZERO ISZERO MUL OR SWAP1 SSTORE POP JUMPDEST PUSH2 0xC0D PUSH1 0x40 MLOAD DUP1 PUSH1 0x40 ADD PUSH1 0x40 MSTORE DUP1 PUSH1 0x8 DUP2 MSTORE PUSH1 0x20 ADD PUSH32 0x49464220436F696E000000000000000000000000000000000000000000000000 DUP2 MSTORE POP PUSH1 0x40 MLOAD DUP1 PUSH1 0x40 ADD PUSH1 0x40 MSTORE DUP1 PUSH1 0x3 DUP2 MSTORE PUSH1 0x20 ADD PUSH32 0x4946420000000000000000000000000000000000000000000000000000000000 DUP2 MSTORE POP PUSH2 0x1A3D JUMP JUMPDEST PUSH2 0xC15 PUSH2 0x1AB7 JUMP JUMPDEST PUSH2 0xC1D PUSH2 0x1B07 JUMP JUMPDEST PUSH2 0xC26 CALLER PUSH2 0x1B78 JUMP JUMPDEST PUSH2 0xC37 CALLER PUSH7 0x2386F26FC10000 PUSH2 0x1BDA JUMP JUMPDEST DUP3 PUSH1 0xA PUSH0 PUSH2 0x100 EXP DUP2 SLOAD DUP2 PUSH20 0xFFFFFFFFFFFFFFFFFFFFFFFFFFFFFFFFFFFFFFFF MUL NOT AND SWAP1 DUP4 PUSH20 0xFFFFFFFFFFFFFFFFFFFFFFFFFFFFFFFFFFFFFFFF AND MUL OR SWAP1 SSTORE POP DUP2 PUSH1 0xB PUSH0 PUSH2 0x100 EXP DUP2 SLOAD DUP2 PUSH20 0xFFFFFFFFFFFFFFFFFFFFFFFFFFFFFFFFFFFFFFFF MUL NOT AND SWAP1 DUP4 PUSH20 0xFFFFFFFFFFFFFFFFFFFFFFFFFFFFFFFFFFFFFFFF AND MUL OR SWAP1 SSTORE POP PUSH1 0x1 PUSH1 0x10 PUSH0 CALLER PUSH20 0xFFFFFFFFFFFFFFFFFFFFFFFFFFFFFFFFFFFFFFFF AND PUSH20 0xFFFFFFFFFFFFFFFFFFFFFFFFFFFFFFFFFFFFFFFF AND DUP2 MSTORE PUSH1 0x20 ADD SWAP1 DUP2 MSTORE PUSH1 0x20 ADD PUSH0 KECCAK256 PUSH0 PUSH2 0x100 EXP DUP2 SLOAD DUP2 PUSH1 0xFF MUL NOT AND SWAP1 DUP4 ISZERO ISZERO MUL OR SWAP1 SSTORE POP DUP1 ISZERO PUSH2 0xD2C JUMPI PUSH0 PUSH0 PUSH1 0x1 PUSH2 0x100 EXP DUP2 SLOAD DUP2 PUSH1 0xFF MUL NOT AND SWAP1 DUP4 ISZERO ISZERO MUL OR SWAP1 SSTORE POP JUMPDEST POP POP POP JUMP JUMPDEST PUSH1 0x6 DUP2 JUMP JUMPDEST PUSH0 PUSH1 0x6 PUSH0 SWAP1 SLOAD SWAP1 PUSH2 0x100 EXP SWAP1 DIV PUSH1 0xFF AND SWAP1 POP SWAP1 JUMP JUMPDEST PUSH1 0xA PUSH0 SWAP1 SLOAD SWAP1 PUSH2 0x100 EXP SWAP1 DIV PUSH20 0xFFFFFFFFFFFFFFFFFFFFFFFFFFFFFFFFFFFFFFFF AND DUP2 JUMP JUMPDEST PUSH0 PUSH1 0x1 PUSH0 DUP4 PUSH20 0xFFFFFFFFFFFFFFFFFFFFFFFFFFFFFFFFFFFFFFFF AND PUSH20 0xFFFFFFFFFFFFFFFFFFFFFFFFFFFFFFFFFFFFFFFF AND DUP2 MSTORE PUSH1 0x20 ADD SWAP1 DUP2 MSTORE PUSH1 0x20 ADD PUSH0 KECCAK256 SLOAD SWAP1 POP SWAP2 SWAP1 POP JUMP JUMPDEST PUSH2 0xDBE PUSH2 0x16CA JUMP JUMPDEST PUSH20 0xFFFFFFFFFFFFFFFFFFFFFFFFFFFFFFFFFFFFFFFF AND PUSH2 0xDDC PUSH2 0x10C2 JUMP JUMPDEST PUSH20 0xFFFFFFFFFFFFFFFFFFFFFFFFFFFFFFFFFFFFFFFF AND EQ PUSH2 0xE32 JUMPI PUSH1 0x40 MLOAD PUSH32 0x8C379A000000000000000000000000000000000000000000000000000000000 DUP2 MSTORE PUSH1 0x4 ADD PUSH2 0xE29 SWAP1 PUSH2 0x284C JUMP JUMPDEST PUSH1 0x40 MLOAD DUP1 SWAP2 SUB SWAP1 REVERT JUMPDEST PUSH0 PUSH1 0x12 PUSH0 DUP4 PUSH20 0xFFFFFFFFFFFFFFFFFFFFFFFFFFFFFFFFFFFFFFFF AND PUSH20 0xFFFFFFFFFFFFFFFFFFFFFFFFFFFFFFFFFFFFFFFF AND DUP2 MSTORE PUSH1 0x20 ADD SWAP1 DUP2 MSTORE PUSH1 0x20 ADD PUSH0 KECCAK256 PUSH0 PUSH2 0x100 EXP DUP2 SLOAD DUP2 PUSH1 0xFF MUL NOT AND SWAP1 DUP4 ISZERO ISZERO MUL OR SWAP1 SSTORE POP DUP1 PUSH20 0xFFFFFFFFFFFFFFFFFFFFFFFFFFFFFFFFFFFFFFFF AND PUSH32 0xB2AA8F2CCE614E8FCEACA560DBAF2A8ED3083E4AB371B10BF6D02E359216767A PUSH1 0x40 MLOAD PUSH1 0x40 MLOAD DUP1 SWAP2 SUB SWAP1 LOG2 POP JUMP JUMPDEST PUSH0 PUSH2 0xEDE DUP4 PUSH2 0xED9 PUSH2 0x16CA JUMP JUMPDEST PUSH2 0x12BE JUMP JUMPDEST SWAP1 POP DUP2 DUP2 LT ISZERO PUSH2 0xF23 JUMPI PUSH1 0x40 MLOAD PUSH32 0x8C379A000000000000000000000000000000000000000000000000000000000 DUP2 MSTORE PUSH1 0x4 ADD PUSH2 0xF1A SWAP1 PUSH2 0x2942 JUMP JUMPDEST PUSH1 0x40 MLOAD DUP1 SWAP2 SUB SWAP1 REVERT JUMPDEST PUSH2 0xF37 DUP4 PUSH2 0xF2F PUSH2 0x16CA JUMP JUMPDEST DUP5 DUP5 SUB PUSH2 0x16D1 JUMP JUMPDEST PUSH2 0xF41 DUP4 DUP4 PUSH2 0x18EA JUMP JUMPDEST POP POP POP JUMP JUMPDEST PUSH2 0xF4E PUSH2 0x16CA JUMP JUMPDEST PUSH20 0xFFFFFFFFFFFFFFFFFFFFFFFFFFFFFFFFFFFFFFFF AND PUSH2 0xF6C PUSH2 0x10C2 JUMP JUMPDEST PUSH20 0xFFFFFFFFFFFFFFFFFFFFFFFFFFFFFFFFFFFFFFFF AND EQ PUSH2 0xFC2 JUMPI PUSH1 0x40 MLOAD PUSH32 0x8C379A000000000000000000000000000000000000000000000000000000000 DUP2 MSTORE PUSH1 0x4 ADD PUSH2 0xFB9 SWAP1 PUSH2 0x284C JUMP JUMPDEST PUSH1 0x40 MLOAD DUP1 SWAP2 SUB SWAP1 REVERT JUMPDEST PUSH2 0xFCA PUSH2 0x1CB7 JUMP JUMPDEST JUMP JUMPDEST PUSH2 0xFD4 PUSH2 0x16CA JUMP JUMPDEST PUSH20 0xFFFFFFFFFFFFFFFFFFFFFFFFFFFFFFFFFFFFFFFF AND PUSH2 0xFF2 PUSH2 0x10C2 JUMP JUMPDEST PUSH20 0xFFFFFFFFFFFFFFFFFFFFFFFFFFFFFFFFFFFFFFFF AND EQ PUSH2 0x1048 JUMPI PUSH1 0x40 MLOAD PUSH32 0x8C379A000000000000000000000000000000000000000000000000000000000 DUP2 MSTORE PUSH1 0x4 ADD PUSH2 0x103F SWAP1 PUSH2 0x284C JUMP JUMPDEST PUSH1 0x40 MLOAD DUP1 SWAP2 SUB SWAP1 REVERT JUMPDEST PUSH2 0x1F4 DUP2 GT ISZERO PUSH2 0x108D JUMPI PUSH1 0x40 MLOAD PUSH32 0x8C379A000000000000000000000000000000000000000000000000000000000 DUP2 MSTORE PUSH1 0x4 ADD PUSH2 0x1084 SWAP1 PUSH2 0x29AA JUMP JUMPDEST PUSH1 0x40 MLOAD DUP1 SWAP2 SUB SWAP1 REVERT JUMPDEST DUP1 PUSH1 0x7 DUP2 SWAP1 SSTORE POP POP JUMP JUMPDEST PUSH1 0xB PUSH0 SWAP1 SLOAD SWAP1 PUSH2 0x100 EXP SWAP1 DIV PUSH20 0xFFFFFFFFFFFFFFFFFFFFFFFFFFFFFFFFFFFFFFFF AND DUP2 JUMP JUMPDEST PUSH1 0x8 SLOAD DUP2 JUMP JUMPDEST PUSH0 PUSH1 0x6 PUSH1 0x1 SWAP1 SLOAD SWAP1 PUSH2 0x100 EXP SWAP1 DIV PUSH20 0xFFFFFFFFFFFFFFFFFFFFFFFFFFFFFFFFFFFFFFFF AND SWAP1 POP SWAP1 JUMP JUMPDEST PUSH1 0x60 PUSH1 0x5 DUP1 SLOAD PUSH2 0x10FA SWAP1 PUSH2 0x2744 JUMP JUMPDEST DUP1 PUSH1 0x1F ADD PUSH1 0x20 DUP1 SWAP2 DIV MUL PUSH1 0x20 ADD PUSH1 0x40 MLOAD SWAP1 DUP2 ADD PUSH1 0x40 MSTORE DUP1 SWAP3 SWAP2 SWAP1 DUP2 DUP2 MSTORE PUSH1 0x20 ADD DUP3 DUP1 SLOAD PUSH2 0x1126 SWAP1 PUSH2 0x2744 JUMP JUMPDEST DUP1 ISZERO PUSH2 0x1171 JUMPI DUP1 PUSH1 0x1F LT PUSH2 0x1148 JUMPI PUSH2 0x100 DUP1 DUP4 SLOAD DIV MUL DUP4 MSTORE SWAP2 PUSH1 0x20 ADD SWAP2 PUSH2 0x1171 JUMP JUMPDEST DUP3 ADD SWAP2 SWAP1 PUSH0 MSTORE PUSH1 0x20 PUSH0 KECCAK256 SWAP1 JUMPDEST DUP2 SLOAD DUP2 MSTORE SWAP1 PUSH1 0x1 ADD SWAP1 PUSH1 0x20 ADD DUP1 DUP4 GT PUSH2 0x1154 JUMPI DUP3 SWAP1 SUB PUSH1 0x1F AND DUP3 ADD SWAP2 JUMPDEST POP POP POP POP POP SWAP1 POP SWAP1 JUMP JUMPDEST PUSH1 0x7 SLOAD DUP2 JUMP JUMPDEST PUSH1 0x13 PUSH1 0x20 MSTORE DUP1 PUSH0 MSTORE PUSH1 0x40 PUSH0 KECCAK256 PUSH0 SWAP2 POP SLOAD SWAP1 PUSH2 0x100 EXP SWAP1 DIV PUSH1 0xFF AND DUP2 JUMP JUMPDEST PUSH0 PUSH2 0x11B1 PUSH2 0x11AA PUSH2 0x16CA JUMP JUMPDEST DUP5 DUP5 PUSH2 0x182F JUMP JUMPDEST PUSH1 0x1 SWAP1 POP SWAP3 SWAP2 POP POP JUMP JUMPDEST PUSH1 0x10 PUSH1 0x20 MSTORE DUP1 PUSH0 MSTORE PUSH1 0x40 PUSH0 KECCAK256 PUSH0 SWAP2 POP SLOAD SWAP1 PUSH2 0x100 EXP SWAP1 DIV PUSH1 0xFF AND DUP2 JUMP JUMPDEST PUSH2 0x11E0 PUSH2 0x16CA JUMP JUMPDEST PUSH20 0xFFFFFFFFFFFFFFFFFFFFFFFFFFFFFFFFFFFFFFFF AND PUSH2 0x11FE PUSH2 0x10C2 JUMP JUMPDEST PUSH20 0xFFFFFFFFFFFFFFFFFFFFFFFFFFFFFFFFFFFFFFFF AND EQ PUSH2 0x1254 JUMPI PUSH1 0x40 MLOAD PUSH32 0x8C379A000000000000000000000000000000000000000000000000000000000 DUP2 MSTORE PUSH1 0x4 ADD PUSH2 0x124B SWAP1 PUSH2 0x284C JUMP JUMPDEST PUSH1 0x40 MLOAD DUP1 SWAP2 SUB SWAP1 REVERT JUMPDEST PUSH0 PUSH2 0x2710 PUSH1 0xC SLOAD PUSH2 0x1264 ADDRESS PUSH2 0xD70 JUMP JUMPDEST PUSH2 0x126E SWAP2 SWAP1 PUSH2 0x29F5 JUMP JUMPDEST PUSH2 0x1278 SWAP2 SWAP1 PUSH2 0x2A63 JUMP JUMPDEST SWAP1 POP PUSH2 0x1284 ADDRESS DUP3 PUSH2 0x18EA JUMP JUMPDEST PUSH32 0x6EF4855B666DCC7884561072E4358B28DFE01FEB1B7F4DCEBC00E62D50394AC7 DUP2 PUSH1 0x40 MLOAD PUSH2 0x12B3 SWAP2 SWAP1 PUSH2 0x245D JUMP JUMPDEST PUSH1 0x40 MLOAD DUP1 SWAP2 SUB SWAP1 LOG1 POP JUMP JUMPDEST PUSH0 PUSH1 0x2 PUSH0 DUP5 PUSH20 0xFFFFFFFFFFFFFFFFFFFFFFFFFFFFFFFFFFFFFFFF AND PUSH20 0xFFFFFFFFFFFFFFFFFFFFFFFFFFFFFFFFFFFFFFFF AND DUP2 MSTORE PUSH1 0x20 ADD SWAP1 DUP2 MSTORE PUSH1 0x20 ADD PUSH0 KECCAK256 PUSH0 DUP4 PUSH20 0xFFFFFFFFFFFFFFFFFFFFFFFFFFFFFFFFFFFFFFFF AND PUSH20 0xFFFFFFFFFFFFFFFFFFFFFFFFFFFFFFFFFFFFFFFF AND DUP2 MSTORE PUSH1 0x20 ADD SWAP1 DUP2 MSTORE PUSH1 0x20 ADD PUSH0 KECCAK256 SLOAD SWAP1 POP SWAP3 SWAP2 POP POP JUMP JUMPDEST PUSH2 0x1348 PUSH2 0x16CA JUMP JUMPDEST PUSH20 0xFFFFFFFFFFFFFFFFFFFFFFFFFFFFFFFFFFFFFFFF AND PUSH2 0x1366 PUSH2 0x10C2 JUMP JUMPDEST PUSH20 0xFFFFFFFFFFFFFFFFFFFFFFFFFFFFFFFFFFFFFFFF AND EQ PUSH2 0x13BC JUMPI PUSH1 0x40 MLOAD PUSH32 0x8C379A000000000000000000000000000000000000000000000000000000000 DUP2 MSTORE PUSH1 0x4 ADD PUSH2 0x13B3 SWAP1 PUSH2 0x284C JUMP JUMPDEST PUSH1 0x40 MLOAD DUP1 SWAP2 SUB SWAP1 REVERT JUMPDEST DUP1 PUSH1 0x13 PUSH0 DUP5 PUSH20 0xFFFFFFFFFFFFFFFFFFFFFFFFFFFFFFFFFFFFFFFF AND PUSH20 0xFFFFFFFFFFFFFFFFFFFFFFFFFFFFFFFFFFFFFFFF AND DUP2 MSTORE PUSH1 0x20 ADD SWAP1 DUP2 MSTORE PUSH1 0x20 ADD PUSH0 KECCAK256 PUSH0 PUSH2 0x100 EXP DUP2 SLOAD DUP2 PUSH1 0xFF MUL NOT AND SWAP1 DUP4 ISZERO ISZERO MUL OR SWAP1 SSTORE POP POP POP JUMP JUMPDEST PUSH2 0x141C PUSH2 0x16CA JUMP JUMPDEST PUSH20 0xFFFFFFFFFFFFFFFFFFFFFFFFFFFFFFFFFFFFFFFF AND PUSH2 0x143A PUSH2 0x10C2 JUMP JUMPDEST PUSH20 0xFFFFFFFFFFFFFFFFFFFFFFFFFFFFFFFFFFFFFFFF AND EQ PUSH2 0x1490 JUMPI PUSH1 0x40 MLOAD PUSH32 0x8C379A000000000000000000000000000000000000000000000000000000000 DUP2 MSTORE PUSH1 0x4 ADD PUSH2 0x1487 SWAP1 PUSH2 0x284C JUMP JUMPDEST PUSH1 0x40 MLOAD DUP1 SWAP2 SUB SWAP1 REVERT JUMPDEST PUSH0 PUSH20 0xFFFFFFFFFFFFFFFFFFFFFFFFFFFFFFFFFFFFFFFF AND DUP2 PUSH20 0xFFFFFFFFFFFFFFFFFFFFFFFFFFFFFFFFFFFFFFFF AND SUB PUSH2 0x14FE JUMPI PUSH1 0x40 MLOAD PUSH32 0x8C379A000000000000000000000000000000000000000000000000000000000 DUP2 MSTORE PUSH1 0x4 ADD PUSH2 0x14F5 SWAP1 PUSH2 0x2B03 JUMP JUMPDEST PUSH1 0x40 MLOAD DUP1 SWAP2 SUB SWAP1 REVERT JUMPDEST PUSH2 0x1507 DUP2 PUSH2 0x1D59 JUMP JUMPDEST POP JUMP JUMPDEST PUSH1 0x11 SLOAD DUP2 JUMP JUMPDEST PUSH2 0x1518 PUSH2 0x16CA JUMP JUMPDEST PUSH20 0xFFFFFFFFFFFFFFFFFFFFFFFFFFFFFFFFFFFFFFFF AND PUSH2 0x1536 PUSH2 0x10C2 JUMP JUMPDEST PUSH20 0xFFFFFFFFFFFFFFFFFFFFFFFFFFFFFFFFFFFFFFFF AND EQ PUSH2 0x158C JUMPI PUSH1 0x40 MLOAD PUSH32 0x8C379A000000000000000000000000000000000000000000000000000000000 DUP2 MSTORE PUSH1 0x4 ADD PUSH2 0x1583 SWAP1 PUSH2 0x284C JUMP JUMPDEST PUSH1 0x40 MLOAD DUP1 SWAP2 SUB SWAP1 REVERT JUMPDEST PUSH1 0x1 PUSH1 0x12 PUSH0 DUP4 PUSH20 0xFFFFFFFFFFFFFFFFFFFFFFFFFFFFFFFFFFFFFFFF AND PUSH20 0xFFFFFFFFFFFFFFFFFFFFFFFFFFFFFFFFFFFFFFFF AND DUP2 MSTORE PUSH1 0x20 ADD SWAP1 DUP2 MSTORE PUSH1 0x20 ADD PUSH0 KECCAK256 PUSH0 PUSH2 0x100 EXP DUP2 SLOAD DUP2 PUSH1 0xFF MUL NOT AND SWAP1 DUP4 ISZERO ISZERO MUL OR SWAP1 SSTORE POP DUP1 PUSH20 0xFFFFFFFFFFFFFFFFFFFFFFFFFFFFFFFFFFFFFFFF AND PUSH32 0xDAF49AB9345B6CB75BCB5A7F726BFF9183C34DCF5C098C385730F9FD893765F6 PUSH1 0x40 MLOAD PUSH1 0x40 MLOAD DUP1 SWAP2 SUB SWAP1 LOG2 POP JUMP JUMPDEST PUSH2 0x162F PUSH2 0x16CA JUMP JUMPDEST PUSH20 0xFFFFFFFFFFFFFFFFFFFFFFFFFFFFFFFFFFFFFFFF AND PUSH2 0x164D PUSH2 0x10C2 JUMP JUMPDEST PUSH20 0xFFFFFFFFFFFFFFFFFFFFFFFFFFFFFFFFFFFFFFFF AND EQ PUSH2 0x16A3 JUMPI PUSH1 0x40 MLOAD PUSH32 0x8C379A000000000000000000000000000000000000000000000000000000000 DUP2 MSTORE PUSH1 0x4 ADD PUSH2 0x169A SWAP1 PUSH2 0x284C JUMP JUMPDEST PUSH1 0x40 MLOAD DUP1 SWAP2 SUB SWAP1 REVERT JUMPDEST DUP1 PUSH1 0xC DUP2 SWAP1 SSTORE POP POP JUMP JUMPDEST PUSH1 0x12 PUSH1 0x20 MSTORE DUP1 PUSH0 MSTORE PUSH1 0x40 PUSH0 KECCAK256 PUSH0 SWAP2 POP SLOAD SWAP1 PUSH2 0x100 EXP SWAP1 DIV PUSH1 0xFF AND DUP2 JUMP JUMPDEST PUSH0 CALLER SWAP1 POP SWAP1 JUMP JUMPDEST PUSH0 PUSH20 0xFFFFFFFFFFFFFFFFFFFFFFFFFFFFFFFFFFFFFFFF AND DUP4 PUSH20 0xFFFFFFFFFFFFFFFFFFFFFFFFFFFFFFFFFFFFFFFF AND SUB PUSH2 0x173F JUMPI PUSH1 0x40 MLOAD PUSH32 0x8C379A000000000000000000000000000000000000000000000000000000000 DUP2 MSTORE PUSH1 0x4 ADD PUSH2 0x1736 SWAP1 PUSH2 0x2B6B JUMP JUMPDEST PUSH1 0x40 MLOAD DUP1 SWAP2 SUB SWAP1 REVERT JUMPDEST PUSH0 PUSH20 0xFFFFFFFFFFFFFFFFFFFFFFFFFFFFFFFFFFFFFFFF AND DUP3 PUSH20 0xFFFFFFFFFFFFFFFFFFFFFFFFFFFFFFFFFFFFFFFF AND SUB PUSH2 0x17AD JUMPI PUSH1 0x40 MLOAD PUSH32 0x8C379A000000000000000000000000000000000000000000000000000000000 DUP2 MSTORE PUSH1 0x4 ADD PUSH2 0x17A4 SWAP1 PUSH2 0x2BD3 JUMP JUMPDEST PUSH1 0x40 MLOAD DUP1 SWAP2 SUB SWAP1 REVERT JUMPDEST DUP1 PUSH1 0x2 PUSH0 DUP6 PUSH20 0xFFFFFFFFFFFFFFFFFFFFFFFFFFFFFFFFFFFFFFFF AND PUSH20 0xFFFFFFFFFFFFFFFFFFFFFFFFFFFFFFFFFFFFFFFF AND DUP2 MSTORE PUSH1 0x20 ADD SWAP1 DUP2 MSTORE PUSH1 0x20 ADD PUSH0 KECCAK256 PUSH0 DUP5 PUSH20 0xFFFFFFFFFFFFFFFFFFFFFFFFFFFFFFFFFFFFFFFF AND PUSH20 0xFFFFFFFFFFFFFFFFFFFFFFFFFFFFFFFFFFFFFFFF AND DUP2 MSTORE PUSH1 0x20 ADD SWAP1 DUP2 MSTORE PUSH1 0x20 ADD PUSH0 KECCAK256 DUP2 SWAP1 SSTORE POP POP POP POP JUMP JUMPDEST PUSH2 0x183A DUP4 DUP4 DUP4 PUSH2 0x1E1E JUMP JUMPDEST PUSH2 0x1845 DUP4 DUP4 DUP4 PUSH2 0x2168 JUMP JUMPDEST POP POP POP JUMP JUMPDEST PUSH2 0x1852 PUSH2 0xD36 JUMP JUMPDEST PUSH2 0x1891 JUMPI PUSH1 0x40 MLOAD PUSH32 0x8C379A000000000000000000000000000000000000000000000000000000000 DUP2 MSTORE PUSH1 0x4 ADD PUSH2 0x1888 SWAP1 PUSH2 0x2C3B JUMP JUMPDEST PUSH1 0x40 MLOAD DUP1 SWAP2 SUB SWAP1 REVERT JUMPDEST PUSH0 PUSH1 0x6 PUSH0 PUSH2 0x100 EXP DUP2 SLOAD DUP2 PUSH1 0xFF MUL NOT AND SWAP1 DUP4 ISZERO ISZERO MUL OR SWAP1 SSTORE POP PUSH32 0x5DB9EE0A495BF2E6FF9C91A7834C1BA4FDD244A5E8AA4E537BD38AEAE4B073AA PUSH2 0x18D3 PUSH2 0x16CA JUMP JUMPDEST PUSH1 0x40 MLOAD PUSH2 0x18E0 SWAP2 SWAP1 PUSH2 0x26D3 JUMP JUMPDEST PUSH1 0x40 MLOAD DUP1 SWAP2 SUB SWAP1 LOG1 JUMP JUMPDEST PUSH0 PUSH20 0xFFFFFFFFFFFFFFFFFFFFFFFFFFFFFFFFFFFFFFFF AND DUP3 PUSH20 0xFFFFFFFFFFFFFFFFFFFFFFFFFFFFFFFFFFFFFFFF AND SUB PUSH2 0x1958 JUMPI PUSH1 0x40 MLOAD PUSH32 0x8C379A000000000000000000000000000000000000000000000000000000000 DUP2 MSTORE PUSH1 0x4 ADD PUSH2 0x194F SWAP1 PUSH2 0x2CA3 JUMP JUMPDEST PUSH1 0x40 MLOAD DUP1 SWAP2 SUB SWAP1 REVERT JUMPDEST PUSH0 PUSH1 0x1 PUSH0 DUP5 PUSH20 0xFFFFFFFFFFFFFFFFFFFFFFFFFFFFFFFFFFFFFFFF AND PUSH20 0xFFFFFFFFFFFFFFFFFFFFFFFFFFFFFFFFFFFFFFFF AND DUP2 MSTORE PUSH1 0x20 ADD SWAP1 DUP2 MSTORE PUSH1 0x20 ADD PUSH0 KECCAK256 SLOAD SWAP1 POP DUP2 DUP2 LT ISZERO PUSH2 0x19DC JUMPI PUSH1 0x40 MLOAD PUSH32 0x8C379A000000000000000000000000000000000000000000000000000000000 DUP2 MSTORE PUSH1 0x4 ADD PUSH2 0x19D3 SWAP1 PUSH2 0x2D0B JUMP JUMPDEST PUSH1 0x40 MLOAD DUP1 SWAP2 SUB SWAP1 REVERT JUMPDEST DUP2 DUP2 SUB PUSH1 0x1 PUSH0 DUP6 PUSH20 0xFFFFFFFFFFFFFFFFFFFFFFFFFFFFFFFFFFFFFFFF AND PUSH20 0xFFFFFFFFFFFFFFFFFFFFFFFFFFFFFFFFFFFFFFFF AND DUP2 MSTORE PUSH1 0x20 ADD SWAP1 DUP2 MSTORE PUSH1 0x20 ADD PUSH0 KECCAK256 DUP2 SWAP1 SSTORE POP DUP2 PUSH1 0x3 PUSH0 DUP3 DUP3 SLOAD PUSH2 0x1A31 SWAP2 SWAP1 PUSH2 0x2D29 JUMP JUMPDEST SWAP3 POP POP DUP2 SWAP1 SSTORE POP POP POP POP JUMP JUMPDEST PUSH0 PUSH1 0x1 SWAP1 SLOAD SWAP1 PUSH2 0x100 EXP SWAP1 DIV PUSH1 0xFF AND PUSH2 0x1A8B JUMPI PUSH1 0x40 MLOAD PUSH32 0x8C379A000000000000000000000000000000000000000000000000000000000 DUP2 MSTORE PUSH1 0x4 ADD PUSH2 0x1A82 SWAP1 PUSH2 0x2DCC JUMP JUMPDEST PUSH1 0x40 MLOAD DUP1 SWAP2 SUB SWAP1 REVERT JUMPDEST PUSH2 0x1A93 PUSH2 0x2365 JUMP JUMPDEST DUP2 PUSH1 0x4 SWAP1 DUP2 PUSH2 0x1AA2 SWAP2 SWAP1 PUSH2 0x2FB7 JUMP JUMPDEST POP DUP1 PUSH1 0x5 SWAP1 DUP2 PUSH2 0x1AB2 SWAP2 SWAP1 PUSH2 0x2FB7 JUMP JUMPDEST POP POP POP JUMP JUMPDEST PUSH0 PUSH1 0x1 SWAP1 SLOAD SWAP1 PUSH2 0x100 EXP SWAP1 DIV PUSH1 0xFF AND PUSH2 0x1B05 JUMPI PUSH1 0x40 MLOAD PUSH32 0x8C379A000000000000000000000000000000000000000000000000000000000 DUP2 MSTORE PUSH1 0x4 ADD PUSH2 0x1AFC SWAP1 PUSH2 0x2DCC JUMP JUMPDEST PUSH1 0x40 MLOAD DUP1 SWAP2 SUB SWAP1 REVERT JUMPDEST JUMP JUMPDEST PUSH0 PUSH1 0x1 SWAP1 SLOAD SWAP1 PUSH2 0x100 EXP SWAP1 DIV PUSH1 0xFF AND PUSH2 0x1B55 JUMPI PUSH1 0x40 MLOAD PUSH32 0x8C379A000000000000000000000000000000000000000000000000000000000 DUP2 MSTORE PUSH1 0x4 ADD PUSH2 0x1B4C SWAP1 PUSH2 0x2DCC JUMP JUMPDEST PUSH1 0x40 MLOAD DUP1 SWAP2 SUB SWAP1 REVERT JUMPDEST PUSH2 0x1B5D PUSH2 0x2365 JUMP JUMPDEST PUSH0 PUSH1 0x6 PUSH0 PUSH2 0x100 EXP DUP2 SLOAD DUP2 PUSH1 0xFF MUL NOT AND SWAP1 DUP4 ISZERO ISZERO MUL OR SWAP1 SSTORE POP JUMP JUMPDEST PUSH0 PUSH1 0x1 SWAP1 SLOAD SWAP1 PUSH2 0x100 EXP SWAP1 DIV PUSH1 0xFF AND PUSH2 0x1BC6 JUMPI PUSH1 0x40 MLOAD PUSH32 0x8C379A000000000000000000000000000000000000000000000000000000000 DUP2 MSTORE PUSH1 0x4 ADD PUSH2 0x1BBD SWAP1 PUSH2 0x2DCC JUMP JUMPDEST PUSH1 0x40 MLOAD DUP1 SWAP2 SUB SWAP1 REVERT JUMPDEST PUSH2 0x1BCE PUSH2 0x2365 JUMP JUMPDEST PUSH2 0x1BD7 DUP2 PUSH2 0x1D59 JUMP JUMPDEST POP JUMP JUMPDEST PUSH0 PUSH20 0xFFFFFFFFFFFFFFFFFFFFFFFFFFFFFFFFFFFFFFFF AND DUP3 PUSH20 0xFFFFFFFFFFFFFFFFFFFFFFFFFFFFFFFFFFFFFFFF AND SUB PUSH2 0x1C48 JUMPI PUSH1 0x40 MLOAD PUSH32 0x8C379A000000000000000000000000000000000000000000000000000000000 DUP2 MSTORE PUSH1 0x4 ADD PUSH2 0x1C3F SWAP1 PUSH2 0x30D0 JUMP JUMPDEST PUSH1 0x40 MLOAD DUP1 SWAP2 SUB SWAP1 REVERT JUMPDEST DUP1 PUSH1 0x3 PUSH0 DUP3 DUP3 SLOAD PUSH2 0x1C59 SWAP2 SWAP1 PUSH2 0x30EE JUMP JUMPDEST SWAP3 POP POP DUP2 SWAP1 SSTORE POP DUP1 PUSH1 0x1 PUSH0 DUP5 PUSH20 0xFFFFFFFFFFFFFFFFFFFFFFFFFFFFFFFFFFFFFFFF AND PUSH20 0xFFFFFFFFFFFFFFFFFFFFFFFFFFFFFFFFFFFFFFFF AND DUP2 MSTORE PUSH1 0x20 ADD SWAP1 DUP2 MSTORE PUSH1 0x20 ADD PUSH0 KECCAK256 PUSH0 DUP3 DUP3 SLOAD PUSH2 0x1CAC SWAP2 SWAP1 PUSH2 0x30EE JUMP JUMPDEST SWAP3 POP POP DUP2 SWAP1 SSTORE POP POP POP JUMP JUMPDEST PUSH2 0x1CBF PUSH2 0xD36 JUMP JUMPDEST ISZERO PUSH2 0x1CFF JUMPI PUSH1 0x40 MLOAD PUSH32 0x8C379A000000000000000000000000000000000000000000000000000000000 DUP2 MSTORE PUSH1 0x4 ADD PUSH2 0x1CF6 SWAP1 PUSH2 0x316B JUMP JUMPDEST PUSH1 0x40 MLOAD DUP1 SWAP2 SUB SWAP1 REVERT JUMPDEST PUSH1 0x1 PUSH1 0x6 PUSH0 PUSH2 0x100 EXP DUP2 SLOAD DUP2 PUSH1 0xFF MUL NOT AND SWAP1 DUP4 ISZERO ISZERO MUL OR SWAP1 SSTORE POP PUSH32 0x62E78CEA01BEE320CD4E420270B5EA74000D11B0C9F74754EBDBFC544B05A258 PUSH2 0x1D42 PUSH2 0x16CA JUMP JUMPDEST PUSH1 0x40 MLOAD PUSH2 0x1D4F SWAP2 SWAP1 PUSH2 0x26D3 JUMP JUMPDEST PUSH1 0x40 MLOAD DUP1 SWAP2 SUB SWAP1 LOG1 JUMP JUMPDEST PUSH0 PUSH1 0x6 PUSH1 0x1 SWAP1 SLOAD SWAP1 PUSH2 0x100 EXP SWAP1 DIV PUSH20 0xFFFFFFFFFFFFFFFFFFFFFFFFFFFFFFFFFFFFFFFF AND SWAP1 POP DUP2 PUSH1 0x6 PUSH1 0x1 PUSH2 0x100 EXP DUP2 SLOAD DUP2 PUSH20 0xFFFFFFFFFFFFFFFFFFFFFFFFFFFFFFFFFFFFFFFF MUL NOT AND SWAP1 DUP4 PUSH20 0xFFFFFFFFFFFFFFFFFFFFFFFFFFFFFFFFFFFFFFFF AND MUL OR SWAP1 SSTORE POP DUP2 PUSH20 0xFFFFFFFFFFFFFFFFFFFFFFFFFFFFFFFFFFFFFFFF AND DUP2 PUSH20 0xFFFFFFFFFFFFFFFFFFFFFFFFFFFFFFFFFFFFFFFF AND PUSH32 0x8BE0079C531659141344CD1FD0A4F28419497F9722A3DAAFE3B4186F6B6457E0 PUSH1 0x40 MLOAD PUSH1 0x40 MLOAD DUP1 SWAP2 SUB SWAP1 LOG3 POP POP JUMP JUMPDEST PUSH2 0x1E26 PUSH2 0xD36 JUMP JUMPDEST ISZERO PUSH2 0x1E66 JUMPI PUSH1 0x40 MLOAD PUSH32 0x8C379A000000000000000000000000000000000000000000000000000000000 DUP2 MSTORE PUSH1 0x4 ADD PUSH2 0x1E5D SWAP1 PUSH2 0x31D3 JUMP JUMPDEST PUSH1 0x40 MLOAD DUP1 SWAP2 SUB SWAP1 REVERT JUMPDEST PUSH1 0x12 PUSH0 DUP5 PUSH20 0xFFFFFFFFFFFFFFFFFFFFFFFFFFFFFFFFFFFFFFFF AND PUSH20 0xFFFFFFFFFFFFFFFFFFFFFFFFFFFFFFFFFFFFFFFF AND DUP2 MSTORE PUSH1 0x20 ADD SWAP1 DUP2 MSTORE PUSH1 0x20 ADD PUSH0 KECCAK256 PUSH0 SWAP1 SLOAD SWAP1 PUSH2 0x100 EXP SWAP1 DIV PUSH1 0xFF AND ISZERO DUP1 ISZERO PUSH2 0x1F04 JUMPI POP PUSH1 0x12 PUSH0 DUP4 PUSH20 0xFFFFFFFFFFFFFFFFFFFFFFFFFFFFFFFFFFFFFFFF AND PUSH20 0xFFFFFFFFFFFFFFFFFFFFFFFFFFFFFFFFFFFFFFFF AND DUP2 MSTORE PUSH1 0x20 ADD SWAP1 DUP2 MSTORE PUSH1 0x20 ADD PUSH0 KECCAK256 PUSH0 SWAP1 SLOAD SWAP1 PUSH2 0x100 EXP SWAP1 DIV PUSH1 0xFF AND ISZERO JUMPDEST PUSH2 0x1F43 JUMPI PUSH1 0x40 MLOAD PUSH32 0x8C379A000000000000000000000000000000000000000000000000000000000 DUP2 MSTORE PUSH1 0x4 ADD PUSH2 0x1F3A SWAP1 PUSH2 0x323B JUMP JUMPDEST PUSH1 0x40 MLOAD DUP1 SWAP2 SUB SWAP1 REVERT JUMPDEST PUSH1 0x10 PUSH0 DUP5 PUSH20 0xFFFFFFFFFFFFFFFFFFFFFFFFFFFFFFFFFFFFFFFF AND PUSH20 0xFFFFFFFFFFFFFFFFFFFFFFFFFFFFFFFFFFFFFFFF AND DUP2 MSTORE PUSH1 0x20 ADD SWAP1 DUP2 MSTORE PUSH1 0x20 ADD PUSH0 KECCAK256 PUSH0 SWAP1 SLOAD SWAP1 PUSH2 0x100 EXP SWAP1 DIV PUSH1 0xFF AND PUSH2 0x2064 JUMPI PUSH0 PUSH2 0x2710 PUSH1 0xE SLOAD PUSH2 0x1FA0 PUSH2 0x7ED JUMP JUMPDEST PUSH2 0x1FAA SWAP2 SWAP1 PUSH2 0x29F5 JUMP JUMPDEST PUSH2 0x1FB4 SWAP2 SWAP1 PUSH2 0x2A63 JUMP JUMPDEST SWAP1 POP PUSH0 PUSH2 0x2710 PUSH1 0xF SLOAD PUSH2 0x1FC5 PUSH2 0x7ED JUMP JUMPDEST PUSH2 0x1FCF SWAP2 SWAP1 PUSH2 0x29F5 JUMP JUMPDEST PUSH2 0x1FD9 SWAP2 SWAP1 PUSH2 0x2A63 JUMP JUMPDEST SWAP1 POP DUP2 DUP4 GT ISZERO PUSH2 0x201E JUMPI PUSH1 0x40 MLOAD PUSH32 0x8C379A000000000000000000000000000000000000000000000000000000000 DUP2 MSTORE PUSH1 0x4 ADD PUSH2 0x2015 SWAP1 PUSH2 0x32A3 JUMP JUMPDEST PUSH1 0x40 MLOAD DUP1 SWAP2 SUB SWAP1 REVERT JUMPDEST DUP1 DUP4 GT ISZERO PUSH2 0x2061 JUMPI PUSH1 0x40 MLOAD PUSH32 0x8C379A000000000000000000000000000000000000000000000000000000000 DUP2 MSTORE PUSH1 0x4 ADD PUSH2 0x2058 SWAP1 PUSH2 0x330B JUMP JUMPDEST PUSH1 0x40 MLOAD DUP1 SWAP2 SUB SWAP1 REVERT JUMPDEST POP POP JUMPDEST PUSH0 PUSH2 0x2710 PUSH1 0x7 SLOAD DUP4 PUSH2 0x2076 SWAP2 SWAP1 PUSH2 0x29F5 JUMP JUMPDEST PUSH2 0x2080 SWAP2 SWAP1 PUSH2 0x2A63 JUMP JUMPDEST SWAP1 POP PUSH0 DUP2 GT ISZERO PUSH2 0x2162 JUMPI PUSH0 PUSH1 0x7 SLOAD PUSH1 0x8 SLOAD DUP4 PUSH2 0x209C SWAP2 SWAP1 PUSH2 0x29F5 JUMP JUMPDEST PUSH2 0x20A6 SWAP2 SWAP1 PUSH2 0x2A63 JUMP JUMPDEST SWAP1 POP PUSH0 DUP2 DUP4 PUSH2 0x20B5 SWAP2 SWAP1 PUSH2 0x2D29 JUMP JUMPDEST SWAP1 POP PUSH2 0x20E3 DUP7 PUSH1 0xA PUSH0 SWAP1 SLOAD SWAP1 PUSH2 0x100 EXP SWAP1 DIV PUSH20 0xFFFFFFFFFFFFFFFFFFFFFFFFFFFFFFFFFFFFFFFF AND DUP5 PUSH2 0x2168 JUMP JUMPDEST PUSH2 0x210F DUP7 PUSH1 0xB PUSH0 SWAP1 SLOAD SWAP1 PUSH2 0x100 EXP SWAP1 DIV PUSH20 0xFFFFFFFFFFFFFFFFFFFFFFFFFFFFFFFFFFFFFFFF AND DUP4 PUSH2 0x2168 JUMP JUMPDEST DUP6 PUSH20 0xFFFFFFFFFFFFFFFFFFFFFFFFFFFFFFFFFFFFFFFF AND PUSH32 0xBAB3290EAA73A56C42190FE1B7A571939DB85AD067AFB39B0B31ADEB006EEEF2 DUP4 DUP4 PUSH1 0x40 MLOAD PUSH2 0x2157 SWAP3 SWAP2 SWAP1 PUSH2 0x3329 JUMP JUMPDEST PUSH1 0x40 MLOAD DUP1 SWAP2 SUB SWAP1 LOG2 POP POP JUMPDEST POP POP POP POP JUMP JUMPDEST PUSH0 PUSH20 0xFFFFFFFFFFFFFFFFFFFFFFFFFFFFFFFFFFFFFFFF AND DUP4 PUSH20 0xFFFFFFFFFFFFFFFFFFFFFFFFFFFFFFFFFFFFFFFF AND SUB PUSH2 0x21D6 JUMPI PUSH1 0x40 MLOAD PUSH32 0x8C379A000000000000000000000000000000000000000000000000000000000 DUP2 MSTORE PUSH1 0x4 ADD PUSH2 0x21CD SWAP1 PUSH2 0x339A JUMP JUMPDEST PUSH1 0x40 MLOAD DUP1 SWAP2 SUB SWAP1 REVERT JUMPDEST PUSH0 PUSH20 0xFFFFFFFFFFFFFFFFFFFFFFFFFFFFFFFFFFFFFFFF AND DUP3 PUSH20 0xFFFFFFFFFFFFFFFFFFFFFFFFFFFFFFFFFFFFFFFF AND SUB PUSH2 0x2244 JUMPI PUSH1 0x40 MLOAD PUSH32 0x8C379A000000000000000000000000000000000000000000000000000000000 DUP2 MSTORE PUSH1 0x4 ADD PUSH2 0x223B SWAP1 PUSH2 0x3402 JUMP JUMPDEST PUSH1 0x40 MLOAD DUP1 SWAP2 SUB SWAP1 REVERT JUMPDEST PUSH0 PUSH1 0x1 PUSH0 DUP6 PUSH20 0xFFFFFFFFFFFFFFFFFFFFFFFFFFFFFFFFFFFFFFFF AND PUSH20 0xFFFFFFFFFFFFFFFFFFFFFFFFFFFFFFFFFFFFFFFF AND DUP2 MSTORE PUSH1 0x20 ADD SWAP1 DUP2 MSTORE PUSH1 0x20 ADD PUSH0 KECCAK256 SLOAD SWAP1 POP DUP2 DUP2 LT ISZERO PUSH2 0x22C8 JUMPI PUSH1 0x40 MLOAD PUSH32 0x8C379A000000000000000000000000000000000000000000000000000000000 DUP2 MSTORE PUSH1 0x4 ADD PUSH2 0x22BF SWAP1 PUSH2 0x346A JUMP JUMPDEST PUSH1 0x40 MLOAD DUP1 SWAP2 SUB SWAP1 REVERT JUMPDEST DUP2 DUP2 SUB PUSH1 0x1 PUSH0 DUP7 PUSH20 0xFFFFFFFFFFFFFFFFFFFFFFFFFFFFFFFFFFFFFFFF AND PUSH20 0xFFFFFFFFFFFFFFFFFFFFFFFFFFFFFFFFFFFFFFFF AND DUP2 MSTORE PUSH1 0x20 ADD SWAP1 DUP2 MSTORE PUSH1 0x20 ADD PUSH0 KECCAK256 DUP2 SWAP1 SSTORE POP DUP2 PUSH1 0x1 PUSH0 DUP6 PUSH20 0xFFFFFFFFFFFFFFFFFFFFFFFFFFFFFFFFFFFFFFFF AND PUSH20 0xFFFFFFFFFFFFFFFFFFFFFFFFFFFFFFFFFFFFFFFF AND DUP2 MSTORE PUSH1 0x20 ADD SWAP1 DUP2 MSTORE PUSH1 0x20 ADD PUSH0 KECCAK256 PUSH0 DUP3 DUP3 SLOAD PUSH2 0x2358 SWAP2 SWAP1 PUSH2 0x30EE JUMP JUMPDEST SWAP3 POP POP DUP2 SWAP1 SSTORE POP POP POP POP POP JUMP JUMPDEST PUSH0 PUSH1 0x1 SWAP1 SLOAD SWAP1 PUSH2 0x100 EXP SWAP1 DIV PUSH1 0xFF AND PUSH2 0x23B3 JUMPI PUSH1 0x40 MLOAD PUSH32 0x8C379A000000000000000000000000000000000000000000000000000000000 DUP2 MSTORE PUSH1 0x4 ADD PUSH2 0x23AA SWAP1 PUSH2 0x2DCC JUMP JUMPDEST PUSH1 0x40 MLOAD DUP1 SWAP2 SUB SWAP1 REVERT JUMPDEST JUMP JUMPDEST PUSH0 DUP2 MLOAD SWAP1 POP SWAP2 SWAP1 POP JUMP JUMPDEST PUSH0 DUP3 DUP3 MSTORE PUSH1 0x20 DUP3 ADD SWAP1 POP SWAP3 SWAP2 POP POP JUMP JUMPDEST DUP3 DUP2 DUP4 MCOPY PUSH0 DUP4 DUP4 ADD MSTORE POP POP POP JUMP JUMPDEST PUSH0 PUSH1 0x1F NOT PUSH1 0x1F DUP4 ADD AND SWAP1 POP SWAP2 SWAP1 POP JUMP JUMPDEST PUSH0 PUSH2 0x23F7 DUP3 PUSH2 0x23B5 JUMP JUMPDEST PUSH2 0x2401 DUP2 DUP6 PUSH2 0x23BF JUMP JUMPDEST SWAP4 POP PUSH2 0x2411 DUP2 DUP6 PUSH1 0x20 DUP7 ADD PUSH2 0x23CF JUMP JUMPDEST PUSH2 0x241A DUP2 PUSH2 0x23DD JUMP JUMPDEST DUP5 ADD SWAP2 POP POP SWAP3 SWAP2 POP POP JUMP JUMPDEST PUSH0 PUSH1 0x20 DUP3 ADD SWAP1 POP DUP2 DUP2 SUB PUSH0 DUP4 ADD MSTORE PUSH2 0x243D DUP2 DUP5 PUSH2 0x23ED JUMP JUMPDEST SWAP1 POP SWAP3 SWAP2 POP POP JUMP JUMPDEST PUSH0 DUP2 SWAP1 POP SWAP2 SWAP1 POP JUMP JUMPDEST PUSH2 0x2457 DUP2 PUSH2 0x2445 JUMP JUMPDEST DUP3 MSTORE POP POP JUMP JUMPDEST PUSH0 PUSH1 0x20 DUP3 ADD SWAP1 POP PUSH2 0x2470 PUSH0 DUP4 ADD DUP5 PUSH2 0x244E JUMP JUMPDEST SWAP3 SWAP2 POP POP JUMP JUMPDEST PUSH0 PUSH0 REVERT JUMPDEST PUSH0 PUSH20 0xFFFFFFFFFFFFFFFFFFFFFFFFFFFFFFFFFFFFFFFF DUP3 AND SWAP1 POP SWAP2 SWAP1 POP JUMP JUMPDEST PUSH0 PUSH2 0x24A3 DUP3 PUSH2 0x247A JUMP JUMPDEST SWAP1 POP SWAP2 SWAP1 POP JUMP JUMPDEST PUSH2 0x24B3 DUP2 PUSH2 0x2499 JUMP JUMPDEST DUP2 EQ PUSH2 0x24BD JUMPI PUSH0 PUSH0 REVERT JUMPDEST POP JUMP JUMPDEST PUSH0 DUP2 CALLDATALOAD SWAP1 POP PUSH2 0x24CE DUP2 PUSH2 0x24AA JUMP JUMPDEST SWAP3 SWAP2 POP POP JUMP JUMPDEST PUSH2 0x24DD DUP2 PUSH2 0x2445 JUMP JUMPDEST DUP2 EQ PUSH2 0x24E7 JUMPI PUSH0 PUSH0 REVERT JUMPDEST POP JUMP JUMPDEST PUSH0 DUP2 CALLDATALOAD SWAP1 POP PUSH2 0x24F8 DUP2 PUSH2 0x24D4 JUMP JUMPDEST SWAP3 SWAP2 POP POP JUMP JUMPDEST PUSH0 PUSH0 PUSH1 0x40 DUP4 DUP6 SUB SLT ISZERO PUSH2 0x2514 JUMPI PUSH2 0x2513 PUSH2 0x2476 JUMP JUMPDEST JUMPDEST PUSH0 PUSH2 0x2521 DUP6 DUP3 DUP7 ADD PUSH2 0x24C0 JUMP JUMPDEST SWAP3 POP POP PUSH1 0x20 PUSH2 0x2532 DUP6 DUP3 DUP7 ADD PUSH2 0x24EA JUMP JUMPDEST SWAP2 POP POP SWAP3 POP SWAP3 SWAP1 POP JUMP JUMPDEST PUSH0 DUP2 ISZERO ISZERO SWAP1 POP SWAP2 SWAP1 POP JUMP JUMPDEST PUSH2 0x2550 DUP2 PUSH2 0x253C JUMP JUMPDEST DUP3 MSTORE POP POP JUMP JUMPDEST PUSH0 PUSH1 0x20 DUP3 ADD SWAP1 POP PUSH2 0x2569 PUSH0 DUP4 ADD DUP5 PUSH2 0x2547 JUMP JUMPDEST SWAP3 SWAP2 POP POP JUMP JUMPDEST PUSH0 PUSH0 PUSH0 PUSH1 0x60 DUP5 DUP7 SUB SLT ISZERO PUSH2 0x2586 JUMPI PUSH2 0x2585 PUSH2 0x2476 JUMP JUMPDEST JUMPDEST PUSH0 PUSH2 0x2593 DUP7 DUP3 DUP8 ADD PUSH2 0x24C0 JUMP JUMPDEST SWAP4 POP POP PUSH1 0x20 PUSH2 0x25A4 DUP7 DUP3 DUP8 ADD PUSH2 0x24C0 JUMP JUMPDEST SWAP3 POP POP PUSH1 0x40 PUSH2 0x25B5 DUP7 DUP3 DUP8 ADD PUSH2 0x24EA JUMP JUMPDEST SWAP2 POP POP SWAP3 POP SWAP3 POP SWAP3 JUMP JUMPDEST PUSH0 PUSH1 0xFF DUP3 AND SWAP1 POP SWAP2 SWAP1 POP JUMP JUMPDEST PUSH2 0x25D4 DUP2 PUSH2 0x25BF JUMP JUMPDEST DUP3 MSTORE POP POP JUMP JUMPDEST PUSH0 PUSH1 0x20 DUP3 ADD SWAP1 POP PUSH2 0x25ED PUSH0 DUP4 ADD DUP5 PUSH2 0x25CB JUMP JUMPDEST SWAP3 SWAP2 POP POP JUMP JUMPDEST PUSH2 0x25FC DUP2 PUSH2 0x253C JUMP JUMPDEST DUP2 EQ PUSH2 0x2606 JUMPI PUSH0 PUSH0 REVERT JUMPDEST POP JUMP JUMPDEST PUSH0 DUP2 CALLDATALOAD SWAP1 POP PUSH2 0x2617 DUP2 PUSH2 0x25F3 JUMP JUMPDEST SWAP3 SWAP2 POP POP JUMP JUMPDEST PUSH0 PUSH0 PUSH1 0x40 DUP4 DUP6 SUB SLT ISZERO PUSH2 0x2633 JUMPI PUSH2 0x2632 PUSH2 0x2476 JUMP JUMPDEST JUMPDEST PUSH0 PUSH2 0x2640 DUP6 DUP3 DUP7 ADD PUSH2 0x24C0 JUMP JUMPDEST SWAP3 POP POP PUSH1 0x20 PUSH2 0x2651 DUP6 DUP3 DUP7 ADD PUSH2 0x2609 JUMP JUMPDEST SWAP2 POP POP SWAP3 POP SWAP3 SWAP1 POP JUMP JUMPDEST PUSH0 PUSH1 0x20 DUP3 DUP5 SUB SLT ISZERO PUSH2 0x2670 JUMPI PUSH2 0x266F PUSH2 0x2476 JUMP JUMPDEST JUMPDEST PUSH0 PUSH2 0x267D DUP5 DUP3 DUP6 ADD PUSH2 0x24EA JUMP JUMPDEST SWAP2 POP POP SWAP3 SWAP2 POP POP JUMP JUMPDEST PUSH0 PUSH0 PUSH1 0x40 DUP4 DUP6 SUB SLT ISZERO PUSH2 0x269C JUMPI PUSH2 0x269B PUSH2 0x2476 JUMP JUMPDEST JUMPDEST PUSH0 PUSH2 0x26A9 DUP6 DUP3 DUP7 ADD PUSH2 0x24C0 JUMP JUMPDEST SWAP3 POP POP PUSH1 0x20 PUSH2 0x26BA DUP6 DUP3 DUP7 ADD PUSH2 0x24C0 JUMP JUMPDEST SWAP2 POP POP SWAP3 POP SWAP3 SWAP1 POP JUMP JUMPDEST PUSH2 0x26CD DUP2 PUSH2 0x2499 JUMP JUMPDEST DUP3 MSTORE POP POP JUMP JUMPDEST PUSH0 PUSH1 0x20 DUP3 ADD SWAP1 POP PUSH2 0x26E6 PUSH0 DUP4 ADD DUP5 PUSH2 0x26C4 JUMP JUMPDEST SWAP3 SWAP2 POP POP JUMP JUMPDEST PUSH0 PUSH1 0x20 DUP3 DUP5 SUB SLT ISZERO PUSH2 0x2701 JUMPI PUSH2 0x2700 PUSH2 0x2476 JUMP JUMPDEST JUMPDEST PUSH0 PUSH2 0x270E DUP5 DUP3 DUP6 ADD PUSH2 0x24C0 JUMP JUMPDEST SWAP2 POP POP SWAP3 SWAP2 POP POP JUMP JUMPDEST PUSH32 0x4E487B7100000000000000000000000000000000000000000000000000000000 PUSH0 MSTORE PUSH1 0x22 PUSH1 0x4 MSTORE PUSH1 0x24 PUSH0 REVERT JUMPDEST PUSH0 PUSH1 0x2 DUP3 DIV SWAP1 POP PUSH1 0x1 DUP3 AND DUP1 PUSH2 0x275B JUMPI PUSH1 0x7F DUP3 AND SWAP2 POP JUMPDEST PUSH1 0x20 DUP3 LT DUP2 SUB PUSH2 0x276E JUMPI PUSH2 0x276D PUSH2 0x2717 JUMP JUMPDEST JUMPDEST POP SWAP2 SWAP1 POP JUMP JUMPDEST PUSH32 0x45524332303A207472616E7366657220616D6F756E7420657863656564732061 PUSH0 DUP3 ADD MSTORE PUSH32 0x6C6C6F77616E6365000000000000000000000000000000000000000000000000 PUSH1 0x20 DUP3 ADD MSTORE POP JUMP JUMPDEST PUSH0 PUSH2 0x27CE PUSH1 0x28 DUP4 PUSH2 0x23BF JUMP JUMPDEST SWAP2 POP PUSH2 0x27D9 DUP3 PUSH2 0x2774 JUMP JUMPDEST PUSH1 0x40 DUP3 ADD SWAP1 POP SWAP2 SWAP1 POP JUMP JUMPDEST PUSH0 PUSH1 0x20 DUP3 ADD SWAP1 POP DUP2 DUP2 SUB PUSH0 DUP4 ADD MSTORE PUSH2 0x27FB DUP2 PUSH2 0x27C2 JUMP JUMPDEST SWAP1 POP SWAP2 SWAP1 POP JUMP JUMPDEST PUSH32 0x4F776E61626C653A2063616C6C6572206973206E6F7420746865206F776E6572 PUSH0 DUP3 ADD MSTORE POP JUMP JUMPDEST PUSH0 PUSH2 0x2836 PUSH1 0x20 DUP4 PUSH2 0x23BF JUMP JUMPDEST SWAP2 POP PUSH2 0x2841 DUP3 PUSH2 0x2802 JUMP JUMPDEST PUSH1 0x20 DUP3 ADD SWAP1 POP SWAP2 SWAP1 POP JUMP JUMPDEST PUSH0 PUSH1 0x20 DUP3 ADD SWAP1 POP DUP2 DUP2 SUB PUSH0 DUP4 ADD MSTORE PUSH2 0x2863 DUP2 PUSH2 0x282A JUMP JUMPDEST SWAP1 POP SWAP2 SWAP1 POP JUMP JUMPDEST PUSH32 0x496E697469616C697A61626C653A20636F6E747261637420697320616C726561 PUSH0 DUP3 ADD MSTORE PUSH32 0x647920696E697469616C697A6564000000000000000000000000000000000000 PUSH1 0x20 DUP3 ADD MSTORE POP JUMP JUMPDEST PUSH0 PUSH2 0x28C4 PUSH1 0x2E DUP4 PUSH2 0x23BF JUMP JUMPDEST SWAP2 POP PUSH2 0x28CF DUP3 PUSH2 0x286A JUMP JUMPDEST PUSH1 0x40 DUP3 ADD SWAP1 POP SWAP2 SWAP1 POP JUMP JUMPDEST PUSH0 PUSH1 0x20 DUP3 ADD SWAP1 POP DUP2 DUP2 SUB PUSH0 DUP4 ADD MSTORE PUSH2 0x28F1 DUP2 PUSH2 0x28B8 JUMP JUMPDEST SWAP1 POP SWAP2 SWAP1 POP JUMP JUMPDEST PUSH32 0x45524332303A206275726E206578636565647320616C6C6F77616E6365000000 PUSH0 DUP3 ADD MSTORE POP JUMP JUMPDEST PUSH0 PUSH2 0x292C PUSH1 0x1D DUP4 PUSH2 0x23BF JUMP JUMPDEST SWAP2 POP PUSH2 0x2937 DUP3 PUSH2 0x28F8 JUMP JUMPDEST PUSH1 0x20 DUP3 ADD SWAP1 POP SWAP2 SWAP1 POP JUMP JUMPDEST PUSH0 PUSH1 0x20 DUP3 ADD SWAP1 POP DUP2 DUP2 SUB PUSH0 DUP4 ADD MSTORE PUSH2 0x2959 DUP2 PUSH2 0x2920 JUMP JUMPDEST SWAP1 POP SWAP2 SWAP1 POP JUMP JUMPDEST PUSH32 0x54617820746F6F20686967680000000000000000000000000000000000000000 PUSH0 DUP3 ADD MSTORE POP JUMP JUMPDEST PUSH0 PUSH2 0x2994 PUSH1 0xC DUP4 PUSH2 0x23BF JUMP JUMPDEST SWAP2 POP PUSH2 0x299F DUP3 PUSH2 0x2960 JUMP JUMPDEST PUSH1 0x20 DUP3 ADD SWAP1 POP SWAP2 SWAP1 POP JUMP JUMPDEST PUSH0 PUSH1 0x20 DUP3 ADD SWAP1 POP DUP2 DUP2 SUB PUSH0 DUP4 ADD MSTORE PUSH2 0x29C1 DUP2 PUSH2 0x2988 JUMP JUMPDEST SWAP1 POP SWAP2 SWAP1 POP JUMP JUMPDEST PUSH32 0x4E487B7100000000000000000000000000000000000000000000000000000000 PUSH0 MSTORE PUSH1 0x11 PUSH1 0x4 MSTORE PUSH1 0x24 PUSH0 REVERT JUMPDEST PUSH0 PUSH2 0x29FF DUP3 PUSH2 0x2445 JUMP JUMPDEST SWAP2 POP PUSH2 0x2A0A DUP4 PUSH2 0x2445 JUMP JUMPDEST SWAP3 POP DUP3 DUP3 MUL PUSH2 0x2A18 DUP2 PUSH2 0x2445 JUMP JUMPDEST SWAP2 POP DUP3 DUP3 DIV DUP5 EQ DUP4 ISZERO OR PUSH2 0x2A2F JUMPI PUSH2 0x2A2E PUSH2 0x29C8 JUMP JUMPDEST JUMPDEST POP SWAP3 SWAP2 POP POP JUMP JUMPDEST PUSH32 0x4E487B7100000000000000000000000000000000000000000000000000000000 PUSH0 MSTORE PUSH1 0x12 PUSH1 0x4 MSTORE PUSH1 0x24 PUSH0 REVERT JUMPDEST PUSH0 PUSH2 0x2A6D DUP3 PUSH2 0x2445 JUMP JUMPDEST SWAP2 POP PUSH2 0x2A78 DUP4 PUSH2 0x2445 JUMP JUMPDEST SWAP3 POP DUP3 PUSH2 0x2A88 JUMPI PUSH2 0x2A87 PUSH2 0x2A36 JUMP JUMPDEST JUMPDEST DUP3 DUP3 DIV SWAP1 POP SWAP3 SWAP2 POP POP JUMP JUMPDEST PUSH32 0x4F776E61626C653A206E6577206F776E657220697320746865207A65726F2061 PUSH0 DUP3 ADD MSTORE PUSH32 0x6464726573730000000000000000000000000000000000000000000000000000 PUSH1 0x20 DUP3 ADD MSTORE POP JUMP JUMPDEST PUSH0 PUSH2 0x2AED PUSH1 0x26 DUP4 PUSH2 0x23BF JUMP JUMPDEST SWAP2 POP PUSH2 0x2AF8 DUP3 PUSH2 0x2A93 JUMP JUMPDEST PUSH1 0x40 DUP3 ADD SWAP1 POP SWAP2 SWAP1 POP JUMP JUMPDEST PUSH0 PUSH1 0x20 DUP3 ADD SWAP1 POP DUP2 DUP2 SUB PUSH0 DUP4 ADD MSTORE PUSH2 0x2B1A DUP2 PUSH2 0x2AE1 JUMP JUMPDEST SWAP1 POP SWAP2 SWAP1 POP JUMP JUMPDEST PUSH32 0x45524332303A20617070726F76652066726F6D207A65726F0000000000000000 PUSH0 DUP3 ADD MSTORE POP JUMP JUMPDEST PUSH0 PUSH2 0x2B55 PUSH1 0x18 DUP4 PUSH2 0x23BF JUMP JUMPDEST SWAP2 POP PUSH2 0x2B60 DUP3 PUSH2 0x2B21 JUMP JUMPDEST PUSH1 0x20 DUP3 ADD SWAP1 POP SWAP2 SWAP1 POP JUMP JUMPDEST PUSH0 PUSH1 0x20 DUP3 ADD SWAP1 POP DUP2 DUP2 SUB PUSH0 DUP4 ADD MSTORE PUSH2 0x2B82 DUP2 PUSH2 0x2B49 JUMP JUMPDEST SWAP1 POP SWAP2 SWAP1 POP JUMP JUMPDEST PUSH32 0x45524332303A20617070726F766520746F207A65726F00000000000000000000 PUSH0 DUP3 ADD MSTORE POP JUMP JUMPDEST PUSH0 PUSH2 0x2BBD PUSH1 0x16 DUP4 PUSH2 0x23BF JUMP JUMPDEST SWAP2 POP PUSH2 0x2BC8 DUP3 PUSH2 0x2B89 JUMP JUMPDEST PUSH1 0x20 DUP3 ADD SWAP1 POP SWAP2 SWAP1 POP JUMP JUMPDEST PUSH0 PUSH1 0x20 DUP3 ADD SWAP1 POP DUP2 DUP2 SUB PUSH0 DUP4 ADD MSTORE PUSH2 0x2BEA DUP2 PUSH2 0x2BB1 JUMP JUMPDEST SWAP1 POP SWAP2 SWAP1 POP JUMP JUMPDEST PUSH32 0x5061757361626C653A206E6F7420706175736564000000000000000000000000 PUSH0 DUP3 ADD MSTORE POP JUMP JUMPDEST PUSH0 PUSH2 0x2C25 PUSH1 0x14 DUP4 PUSH2 0x23BF JUMP JUMPDEST SWAP2 POP PUSH2 0x2C30 DUP3 PUSH2 0x2BF1 JUMP JUMPDEST PUSH1 0x20 DUP3 ADD SWAP1 POP SWAP2 SWAP1 POP JUMP JUMPDEST PUSH0 PUSH1 0x20 DUP3 ADD SWAP1 POP DUP2 DUP2 SUB PUSH0 DUP4 ADD MSTORE PUSH2 0x2C52 DUP2 PUSH2 0x2C19 JUMP JUMPDEST SWAP1 POP SWAP2 SWAP1 POP JUMP JUMPDEST PUSH32 0x45524332303A206275726E2066726F6D207A65726F0000000000000000000000 PUSH0 DUP3 ADD MSTORE POP JUMP JUMPDEST PUSH0 PUSH2 0x2C8D PUSH1 0x15 DUP4 PUSH2 0x23BF JUMP JUMPDEST SWAP2 POP PUSH2 0x2C98 DUP3 PUSH2 0x2C59 JUMP JUMPDEST PUSH1 0x20 DUP3 ADD SWAP1 POP SWAP2 SWAP1 POP JUMP JUMPDEST PUSH0 PUSH1 0x20 DUP3 ADD SWAP1 POP DUP2 DUP2 SUB PUSH0 DUP4 ADD MSTORE PUSH2 0x2CBA DUP2 PUSH2 0x2C81 JUMP JUMPDEST SWAP1 POP SWAP2 SWAP1 POP JUMP JUMPDEST PUSH32 0x45524332303A206275726E20657863656564732062616C616E63650000000000 PUSH0 DUP3 ADD MSTORE POP JUMP JUMPDEST PUSH0 PUSH2 0x2CF5 PUSH1 0x1B DUP4 PUSH2 0x23BF JUMP JUMPDEST SWAP2 POP PUSH2 0x2D00 DUP3 PUSH2 0x2CC1 JUMP JUMPDEST PUSH1 0x20 DUP3 ADD SWAP1 POP SWAP2 SWAP1 POP JUMP JUMPDEST PUSH0 PUSH1 0x20 DUP3 ADD SWAP1 POP DUP2 DUP2 SUB PUSH0 DUP4 ADD MSTORE PUSH2 0x2D22 DUP2 PUSH2 0x2CE9 JUMP JUMPDEST SWAP1 POP SWAP2 SWAP1 POP JUMP JUMPDEST PUSH0 PUSH2 0x2D33 DUP3 PUSH2 0x2445 JUMP JUMPDEST SWAP2 POP PUSH2 0x2D3E DUP4 PUSH2 0x2445 JUMP JUMPDEST SWAP3 POP DUP3 DUP3 SUB SWAP1 POP DUP2 DUP2 GT ISZERO PUSH2 0x2D56 JUMPI PUSH2 0x2D55 PUSH2 0x29C8 JUMP JUMPDEST JUMPDEST SWAP3 SWAP2 POP POP JUMP JUMPDEST PUSH32 0x496E697469616C697A61626C653A20636F6E7472616374206973206E6F742069 PUSH0 DUP3 ADD MSTORE PUSH32 0x6E697469616C697A696E67000000000000000000000000000000000000000000 PUSH1 0x20 DUP3 ADD MSTORE POP JUMP JUMPDEST PUSH0 PUSH2 0x2DB6 PUSH1 0x2B DUP4 PUSH2 0x23BF JUMP JUMPDEST SWAP2 POP PUSH2 0x2DC1 DUP3 PUSH2 0x2D5C JUMP JUMPDEST PUSH1 0x40 DUP3 ADD SWAP1 POP SWAP2 SWAP1 POP JUMP JUMPDEST PUSH0 PUSH1 0x20 DUP3 ADD SWAP1 POP DUP2 DUP2 SUB PUSH0 DUP4 ADD MSTORE PUSH2 0x2DE3 DUP2 PUSH2 0x2DAA JUMP JUMPDEST SWAP1 POP SWAP2 SWAP1 POP JUMP JUMPDEST PUSH32 0x4E487B7100000000000000000000000000000000000000000000000000000000 PUSH0 MSTORE PUSH1 0x41 PUSH1 0x4 MSTORE PUSH1 0x24 PUSH0 REVERT JUMPDEST PUSH0 DUP2 SWAP1 POP DUP2 PUSH0 MSTORE PUSH1 0x20 PUSH0 KECCAK256 SWAP1 POP SWAP2 SWAP1 POP JUMP JUMPDEST PUSH0 PUSH1 0x20 PUSH1 0x1F DUP4 ADD DIV SWAP1 POP SWAP2 SWAP1 POP JUMP JUMPDEST PUSH0 DUP3 DUP3 SHL SWAP1 POP SWAP3 SWAP2 POP POP JUMP JUMPDEST PUSH0 PUSH1 0x8 DUP4 MUL PUSH2 0x2E73 PUSH32 0xFFFFFFFFFFFFFFFFFFFFFFFFFFFFFFFFFFFFFFFFFFFFFFFFFFFFFFFFFFFFFFFF DUP3 PUSH2 0x2E38 JUMP JUMPDEST PUSH2 0x2E7D DUP7 DUP4 PUSH2 0x2E38 JUMP JUMPDEST SWAP6 POP DUP1 NOT DUP5 AND SWAP4 POP DUP1 DUP7 AND DUP5 OR SWAP3 POP POP POP SWAP4 SWAP3 POP POP POP JUMP JUMPDEST PUSH0 DUP2 SWAP1 POP SWAP2 SWAP1 POP JUMP JUMPDEST PUSH0 PUSH2 0x2EB8 PUSH2 0x2EB3 PUSH2 0x2EAE DUP5 PUSH2 0x2445 JUMP JUMPDEST PUSH2 0x2E95 JUMP JUMPDEST PUSH2 0x2445 JUMP JUMPDEST SWAP1 POP SWAP2 SWAP1 POP JUMP JUMPDEST PUSH0 DUP2 SWAP1 POP SWAP2 SWAP1 POP JUMP JUMPDEST PUSH2 0x2ED1 DUP4 PUSH2 0x2E9E JUMP JUMPDEST PUSH2 0x2EE5 PUSH2 0x2EDD DUP3 PUSH2 0x2EBF JUMP JUMPDEST DUP5 DUP5 SLOAD PUSH2 0x2E44 JUMP JUMPDEST DUP3 SSTORE POP POP POP POP JUMP JUMPDEST PUSH0 PUSH0 SWAP1 POP SWAP1 JUMP JUMPDEST PUSH2 0x2EFC PUSH2 0x2EED JUMP JUMPDEST PUSH2 0x2F07 DUP2 DUP5 DUP5 PUSH2 0x2EC8 JUMP JUMPDEST POP POP POP JUMP JUMPDEST JUMPDEST DUP2 DUP2 LT ISZERO PUSH2 0x2F2A JUMPI PUSH2 0x2F1F PUSH0 DUP3 PUSH2 0x2EF4 JUMP JUMPDEST PUSH1 0x1 DUP2 ADD SWAP1 POP PUSH2 0x2F0D JUMP JUMPDEST POP POP JUMP JUMPDEST PUSH1 0x1F DUP3 GT ISZERO PUSH2 0x2F6F JUMPI PUSH2 0x2F40 DUP2 PUSH2 0x2E17 JUMP JUMPDEST PUSH2 0x2F49 DUP5 PUSH2 0x2E29 JUMP JUMPDEST DUP2 ADD PUSH1 0x20 DUP6 LT ISZERO PUSH2 0x2F58 JUMPI DUP2 SWAP1 POP JUMPDEST PUSH2 0x2F6C PUSH2 0x2F64 DUP6 PUSH2 0x2E29 JUMP JUMPDEST DUP4 ADD DUP3 PUSH2 0x2F0C JUMP JUMPDEST POP POP JUMPDEST POP POP POP JUMP JUMPDEST PUSH0 DUP3 DUP3 SHR SWAP1 POP SWAP3 SWAP2 POP POP JUMP JUMPDEST PUSH0 PUSH2 0x2F8F PUSH0 NOT DUP5 PUSH1 0x8 MUL PUSH2 0x2F74 JUMP JUMPDEST NOT DUP1 DUP4 AND SWAP2 POP POP SWAP3 SWAP2 POP POP JUMP JUMPDEST PUSH0 PUSH2 0x2FA7 DUP4 DUP4 PUSH2 0x2F80 JUMP JUMPDEST SWAP2 POP DUP3 PUSH1 0x2 MUL DUP3 OR SWAP1 POP SWAP3 SWAP2 POP POP JUMP JUMPDEST PUSH2 0x2FC0 DUP3 PUSH2 0x23B5 JUMP JUMPDEST PUSH8 0xFFFFFFFFFFFFFFFF DUP2 GT ISZERO PUSH2 0x2FD9 JUMPI PUSH2 0x2FD8 PUSH2 0x2DEA JUMP JUMPDEST JUMPDEST PUSH2 0x2FE3 DUP3 SLOAD PUSH2 0x2744 JUMP JUMPDEST PUSH2 0x2FEE DUP3 DUP3 DUP6 PUSH2 0x2F2E JUMP JUMPDEST PUSH0 PUSH1 0x20 SWAP1 POP PUSH1 0x1F DUP4 GT PUSH1 0x1 DUP2 EQ PUSH2 0x301F JUMPI PUSH0 DUP5 ISZERO PUSH2 0x300D JUMPI DUP3 DUP8 ADD MLOAD SWAP1 POP JUMPDEST PUSH2 0x3017 DUP6 DUP3 PUSH2 0x2F9C JUMP JUMPDEST DUP7 SSTORE POP PUSH2 0x307E JUMP JUMPDEST PUSH1 0x1F NOT DUP5 AND PUSH2 0x302D DUP7 PUSH2 0x2E17 JUMP JUMPDEST PUSH0 JUMPDEST DUP3 DUP2 LT ISZERO PUSH2 0x3054 JUMPI DUP5 DUP10 ADD MLOAD DUP3 SSTORE PUSH1 0x1 DUP3 ADD SWAP2 POP PUSH1 0x20 DUP6 ADD SWAP5 POP PUSH1 0x20 DUP2 ADD SWAP1 POP PUSH2 0x302F JUMP JUMPDEST DUP7 DUP4 LT ISZERO PUSH2 0x3071 JUMPI DUP5 DUP10 ADD MLOAD PUSH2 0x306D PUSH1 0x1F DUP10 AND DUP3 PUSH2 0x2F80 JUMP JUMPDEST DUP4 SSTORE POP JUMPDEST PUSH1 0x1 PUSH1 0x2 DUP9 MUL ADD DUP9 SSTORE POP POP POP JUMPDEST POP POP POP POP POP POP JUMP JUMPDEST PUSH32 0x45524332303A206D696E7420746F207A65726F00000000000000000000000000 PUSH0 DUP3 ADD MSTORE POP JUMP JUMPDEST PUSH0 PUSH2 0x30BA PUSH1 0x13 DUP4 PUSH2 0x23BF JUMP JUMPDEST SWAP2 POP PUSH2 0x30C5 DUP3 PUSH2 0x3086 JUMP JUMPDEST PUSH1 0x20 DUP3 ADD SWAP1 POP SWAP2 SWAP1 POP JUMP JUMPDEST PUSH0 PUSH1 0x20 DUP3 ADD SWAP1 POP DUP2 DUP2 SUB PUSH0 DUP4 ADD MSTORE PUSH2 0x30E7 DUP2 PUSH2 0x30AE JUMP JUMPDEST SWAP1 POP SWAP2 SWAP1 POP JUMP JUMPDEST PUSH0 PUSH2 0x30F8 DUP3 PUSH2 0x2445 JUMP JUMPDEST SWAP2 POP PUSH2 0x3103 DUP4 PUSH2 0x2445 JUMP JUMPDEST SWAP3 POP DUP3 DUP3 ADD SWAP1 POP DUP1 DUP3 GT ISZERO PUSH2 0x311B JUMPI PUSH2 0x311A PUSH2 0x29C8 JUMP JUMPDEST JUMPDEST SWAP3 SWAP2 POP POP JUMP JUMPDEST PUSH32 0x5061757361626C653A2070617573656400000000000000000000000000000000 PUSH0 DUP3 ADD MSTORE POP JUMP JUMPDEST PUSH0 PUSH2 0x3155 PUSH1 0x10 DUP4 PUSH2 0x23BF JUMP JUMPDEST SWAP2 POP PUSH2 0x3160 DUP3 PUSH2 0x3121 JUMP JUMPDEST PUSH1 0x20 DUP3 ADD SWAP1 POP SWAP2 SWAP1 POP JUMP JUMPDEST PUSH0 PUSH1 0x20 DUP3 ADD SWAP1 POP DUP2 DUP2 SUB PUSH0 DUP4 ADD MSTORE PUSH2 0x3182 DUP2 PUSH2 0x3149 JUMP JUMPDEST SWAP1 POP SWAP2 SWAP1 POP JUMP JUMPDEST PUSH32 0x546F6B656E207472616E73666572207768696C65207061757365640000000000 PUSH0 DUP3 ADD MSTORE POP JUMP JUMPDEST PUSH0 PUSH2 0x31BD PUSH1 0x1B DUP4 PUSH2 0x23BF JUMP JUMPDEST SWAP2 POP PUSH2 0x31C8 DUP3 PUSH2 0x3189 JUMP JUMPDEST PUSH1 0x20 DUP3 ADD SWAP1 POP SWAP2 SWAP1 POP JUMP JUMPDEST PUSH0 PUSH1 0x20 DUP3 ADD SWAP1 POP DUP2 DUP2 SUB PUSH0 DUP4 ADD MSTORE PUSH2 0x31EA DUP2 PUSH2 0x31B1 JUMP JUMPDEST SWAP1 POP SWAP2 SWAP1 POP JUMP JUMPDEST PUSH32 0x4164647265737320697320626C61636B6C697374656400000000000000000000 PUSH0 DUP3 ADD MSTORE POP JUMP JUMPDEST PUSH0 PUSH2 0x3225 PUSH1 0x16 DUP4 PUSH2 0x23BF JUMP JUMPDEST SWAP2 POP PUSH2 0x3230 DUP3 PUSH2 0x31F1 JUMP JUMPDEST PUSH1 0x20 DUP3 ADD SWAP1 POP SWAP2 SWAP1 POP JUMP JUMPDEST PUSH0 PUSH1 0x20 DUP3 ADD SWAP1 POP DUP2 DUP2 SUB PUSH0 DUP4 ADD MSTORE PUSH2 0x3252 DUP2 PUSH2 0x3219 JUMP JUMPDEST SWAP1 POP SWAP2 SWAP1 POP JUMP JUMPDEST PUSH32 0x45786365656473206461696C79207472616E73666572206C696D697400000000 PUSH0 DUP3 ADD MSTORE POP JUMP JUMPDEST PUSH0 PUSH2 0x328D PUSH1 0x1C DUP4 PUSH2 0x23BF JUMP JUMPDEST SWAP2 POP PUSH2 0x3298 DUP3 PUSH2 0x3259 JUMP JUMPDEST PUSH1 0x20 DUP3 ADD SWAP1 POP SWAP2 SWAP1 POP JUMP JUMPDEST PUSH0 PUSH1 0x20 DUP3 ADD SWAP1 POP DUP2 DUP2 SUB PUSH0 DUP4 ADD MSTORE PUSH2 0x32BA DUP2 PUSH2 0x3281 JUMP JUMPDEST SWAP1 POP SWAP2 SWAP1 POP JUMP JUMPDEST PUSH32 0x45786365656473206D6F6E74686C79207472616E73666572206C696D69740000 PUSH0 DUP3 ADD MSTORE POP JUMP JUMPDEST PUSH0 PUSH2 0x32F5 PUSH1 0x1E DUP4 PUSH2 0x23BF JUMP JUMPDEST SWAP2 POP PUSH2 0x3300 DUP3 PUSH2 0x32C1 JUMP JUMPDEST PUSH1 0x20 DUP3 ADD SWAP1 POP SWAP2 SWAP1 POP JUMP JUMPDEST PUSH0 PUSH1 0x20 DUP3 ADD SWAP1 POP DUP2 DUP2 SUB PUSH0 DUP4 ADD MSTORE PUSH2 0x3322 DUP2 PUSH2 0x32E9 JUMP JUMPDEST SWAP1 POP SWAP2 SWAP1 POP JUMP JUMPDEST PUSH0 PUSH1 0x40 DUP3 ADD SWAP1 POP PUSH2 0x333C PUSH0 DUP4 ADD DUP6 PUSH2 0x244E JUMP JUMPDEST PUSH2 0x3349 PUSH1 0x20 DUP4 ADD DUP5 PUSH2 0x244E JUMP JUMPDEST SWAP4 SWAP3 POP POP POP JUMP JUMPDEST PUSH32 0x45524332303A207472616E736665722066726F6D207A65726F00000000000000 PUSH0 DUP3 ADD MSTORE POP JUMP JUMPDEST PUSH0 PUSH2 0x3384 PUSH1 0x19 DUP4 PUSH2 0x23BF JUMP JUMPDEST SWAP2 POP PUSH2 0x338F DUP3 PUSH2 0x3350 JUMP JUMPDEST PUSH1 0x20 DUP3 ADD SWAP1 POP SWAP2 SWAP1 POP JUMP JUMPDEST PUSH0 PUSH1 0x20 DUP3 ADD SWAP1 POP DUP2 DUP2 SUB PUSH0 DUP4 ADD MSTORE PUSH2 0x33B1 DUP2 PUSH2 0x3378 JUMP JUMPDEST SWAP1 POP SWAP2 SWAP1 POP JUMP JUMPDEST PUSH32 0x45524332303A207472616E7366657220746F207A65726F000000000000000000 PUSH0 DUP3 ADD MSTORE POP JUMP JUMPDEST PUSH0 PUSH2 0x33EC PUSH1 0x17 DUP4 PUSH2 0x23BF JUMP JUMPDEST SWAP2 POP PUSH2 0x33F7 DUP3 PUSH2 0x33B8 JUMP JUMPDEST PUSH1 0x20 DUP3 ADD SWAP1 POP SWAP2 SWAP1 POP JUMP JUMPDEST PUSH0 PUSH1 0x20 DUP3 ADD SWAP1 POP DUP2 DUP2 SUB PUSH0 DUP4 ADD MSTORE PUSH2 0x3419 DUP2 PUSH2 0x33E0 JUMP JUMPDEST SWAP1 POP SWAP2 SWAP1 POP JUMP JUMPDEST PUSH32 0x45524332303A207472616E7366657220657863656564732062616C616E636500 PUSH0 DUP3 ADD MSTORE POP JUMP JUMPDEST PUSH0 PUSH2 0x3454 PUSH1 0x1F DUP4 PUSH2 0x23BF JUMP JUMPDEST SWAP2 POP PUSH2 0x345F DUP3 PUSH2 0x3420 JUMP JUMPDEST PUSH1 0x20 DUP3 ADD SWAP1 POP SWAP2 SWAP1 POP JUMP JUMPDEST PUSH0 PUSH1 0x20 DUP3 ADD SWAP1 POP DUP2 DUP2 SUB PUSH0 DUP4 ADD MSTORE PUSH2 0x3481 DUP2 PUSH2 0x3448 JUMP JUMPDEST SWAP1 POP SWAP2 SWAP1 POP JUMP INVALID LOG2 PUSH5 0x6970667358 0x22 SLT KECCAK256 MOD NUMBER 0x27 SWAP16 0xE9 0xBE 0xF 0xC4 BLOBHASH 0xD7 0xD4 PUSH3 0xCD621E 0xDD DUPN 0x71 0xE8 STATICCALL PUSH32 0xBFD2832ED0E58457848B064736F6C634300081E003300000000000000000000 "
				},
				"gasEstimates": {
					"creation": {
						"codeDepositCost": "2700400",
						"executionCost": "infinite",
						"totalCost": "infinite"
					},
					"external": {
						"TOKEN_DECIMALS()": "398",
						"TOKEN_NAME()": "infinite",
						"TOKEN_SYMBOL()": "infinite",
						"allowance(address,address)": "infinite",
						"approve(address,uint256)": "23338",
						"balanceOf(address)": "2962",
						"blacklist(address)": "28340",
						"burn(uint256)": "infinite",
						"burnFrom(address,uint256)": "infinite",
						"burnMonthly()": "infinite",
						"decimals()": "384",
						"extraBurnTriggerPercent()": "2493",
						"initialize(address,address)": "infinite",
						"isBlacklisted(address)": "2965",
						"isExemptFromLimits(address)": "2900",
						"kycVerified(address)": "2966",
						"maxDailyTransferPercent()": "2559",
						"maxMonthlyTransferPercent()": "2494",
						"monthlyBurnPercent()": "2471",
						"name()": "infinite",
						"owner()": "2633",
						"pause()": "infinite",
						"paused()": "2562",
						"quorumPercent()": "2491",
						"setExemption(address,bool)": "27335",
						"setKycStatus(address,bool)": "27400",
						"setMonthlyBurnPercent(uint256)": "24913",
						"setTaxSocialPercent(uint256)": "24941",
						"symbol()": "infinite",
						"taxSocialOperationsPercent()": "2559",
						"taxSocialOperationsWallet()": "2642",
						"taxSocialPercent()": "2536",
						"taxSocialProjectsPercent()": "2470",
						"taxSocialProjectsWallet()": "2619",
						"totalSupply()": "2545",
						"transfer(address,uint256)": "infinite",
						"transferFrom(address,address,uint256)": "infinite",
						"transferOwnership(address)": "30904",
						"unblacklist(address)": "28297",
						"unpause()": "infinite"
					},
					"internal": {
						"_authorizeUpgrade(address)": "infinite",
						"_beforeTokenTransfer(address,address,uint256)": "infinite",
						"_transfer(address,address,uint256)": "infinite"
					}
				},
				"methodIdentifiers": {
					"TOKEN_DECIMALS()": "5b7f415c",
					"TOKEN_NAME()": "18821400",
					"TOKEN_SYMBOL()": "2a905318",
					"allowance(address,address)": "dd62ed3e",
					"approve(address,uint256)": "095ea7b3",
					"balanceOf(address)": "70a08231",
					"blacklist(address)": "f9f92be4",
					"burn(uint256)": "42966c68",
					"burnFrom(address,uint256)": "79cc6790",
					"burnMonthly()": "d8a43b1f",
					"decimals()": "313ce567",
					"extraBurnTriggerPercent()": "237bd28f",
					"initialize(address,address)": "485cc955",
					"isBlacklisted(address)": "fe575a87",
					"isExemptFromLimits(address)": "cd2c6a99",
					"kycVerified(address)": "a5410a66",
					"maxDailyTransferPercent()": "4365d0fb",
					"maxMonthlyTransferPercent()": "082664c2",
					"monthlyBurnPercent()": "1a04a795",
					"name()": "06fdde03",
					"owner()": "8da5cb5b",
					"pause()": "8456cb59",
					"paused()": "5c975abb",
					"quorumPercent()": "f81cbd26",
					"setExemption(address,bool)": "3ea6e071",
					"setKycStatus(address,bool)": "e37a35c7",
					"setMonthlyBurnPercent(uint256)": "fdb97901",
					"setTaxSocialPercent(uint256)": "8772e7d5",
					"symbol()": "95d89b41",
					"taxSocialOperationsPercent()": "3005cb05",
					"taxSocialOperationsWallet()": "878c7ca8",
					"taxSocialPercent()": "a2770731",
					"taxSocialProjectsPercent()": "87b8645c",
					"taxSocialProjectsWallet()": "6f5585b8",
					"totalSupply()": "18160ddd",
					"transfer(address,uint256)": "a9059cbb",
					"transferFrom(address,address,uint256)": "23b872dd",
					"transferOwnership(address)": "f2fde38b",
					"unblacklist(address)": "75e3661e",
					"unpause()": "3f4ba83a"
				}
			},
			"storageLayout": {
				"storage": [
					{
						"astId": 4,
						"contract": "ifb-new.sol:IFBCoin",
						"label": "_initialized",
						"offset": 0,
						"slot": "0",
						"type": "t_bool"
					},
					{
						"astId": 6,
						"contract": "ifb-new.sol:IFBCoin",
						"label": "_initializing",
						"offset": 1,
						"slot": "0",
						"type": "t_bool"
					},
					{
						"astId": 271,
						"contract": "ifb-new.sol:IFBCoin",
						"label": "_balances",
						"offset": 0,
						"slot": "1",
						"type": "t_mapping(t_address,t_uint256)"
					},
					{
						"astId": 277,
						"contract": "ifb-new.sol:IFBCoin",
						"label": "_allowances",
						"offset": 0,
						"slot": "2",
						"type": "t_mapping(t_address,t_mapping(t_address,t_uint256))"
					},
					{
						"astId": 279,
						"contract": "ifb-new.sol:IFBCoin",
						"label": "_totalSupply",
						"offset": 0,
						"slot": "3",
						"type": "t_uint256"
					},
					{
						"astId": 281,
						"contract": "ifb-new.sol:IFBCoin",
						"label": "_name",
						"offset": 0,
						"slot": "4",
						"type": "t_string_storage"
					},
					{
						"astId": 283,
						"contract": "ifb-new.sol:IFBCoin",
						"label": "_symbol",
						"offset": 0,
						"slot": "5",
						"type": "t_string_storage"
					},
					{
						"astId": 182,
						"contract": "ifb-new.sol:IFBCoin",
						"label": "_paused",
						"offset": 0,
						"slot": "6",
						"type": "t_bool"
					},
					{
						"astId": 92,
						"contract": "ifb-new.sol:IFBCoin",
						"label": "_owner",
						"offset": 1,
						"slot": "6",
						"type": "t_address"
					},
					{
						"astId": 718,
						"contract": "ifb-new.sol:IFBCoin",
						"label": "taxSocialPercent",
						"offset": 0,
						"slot": "7",
						"type": "t_uint256"
					},
					{
						"astId": 721,
						"contract": "ifb-new.sol:IFBCoin",
						"label": "taxSocialProjectsPercent",
						"offset": 0,
						"slot": "8",
						"type": "t_uint256"
					},
					{
						"astId": 724,
						"contract": "ifb-new.sol:IFBCoin",
						"label": "taxSocialOperationsPercent",
						"offset": 0,
						"slot": "9",
						"type": "t_uint256"
					},
					{
						"astId": 726,
						"contract": "ifb-new.sol:IFBCoin",
						"label": "taxSocialProjectsWallet",
						"offset": 0,
						"slot": "10",
						"type": "t_address"
					},
					{
						"astId": 728,
						"contract": "ifb-new.sol:IFBCoin",
						"label": "taxSocialOperationsWallet",
						"offset": 0,
						"slot": "11",
						"type": "t_address"
					},
					{
						"astId": 731,
						"contract": "ifb-new.sol:IFBCoin",
						"label": "monthlyBurnPercent",
						"offset": 0,
						"slot": "12",
						"type": "t_uint256"
					},
					{
						"astId": 734,
						"contract": "ifb-new.sol:IFBCoin",
						"label": "extraBurnTriggerPercent",
						"offset": 0,
						"slot": "13",
						"type": "t_uint256"
					},
					{
						"astId": 737,
						"contract": "ifb-new.sol:IFBCoin",
						"label": "maxDailyTransferPercent",
						"offset": 0,
						"slot": "14",
						"type": "t_uint256"
					},
					{
						"astId": 740,
						"contract": "ifb-new.sol:IFBCoin",
						"label": "maxMonthlyTransferPercent",
						"offset": 0,
						"slot": "15",
						"type": "t_uint256"
					},
					{
						"astId": 744,
						"contract": "ifb-new.sol:IFBCoin",
						"label": "isExemptFromLimits",
						"offset": 0,
						"slot": "16",
						"type": "t_mapping(t_address,t_bool)"
					},
					{
						"astId": 747,
						"contract": "ifb-new.sol:IFBCoin",
						"label": "quorumPercent",
						"offset": 0,
						"slot": "17",
						"type": "t_uint256"
					},
					{
						"astId": 751,
						"contract": "ifb-new.sol:IFBCoin",
						"label": "isBlacklisted",
						"offset": 0,
						"slot": "18",
						"type": "t_mapping(t_address,t_bool)"
					},
					{
						"astId": 755,
						"contract": "ifb-new.sol:IFBCoin",
						"label": "kycVerified",
						"offset": 0,
						"slot": "19",
						"type": "t_mapping(t_address,t_bool)"
					}
				],
				"types": {
					"t_address": {
						"encoding": "inplace",
						"label": "address",
						"numberOfBytes": "20"
					},
					"t_bool": {
						"encoding": "inplace",
						"label": "bool",
						"numberOfBytes": "1"
					},
					"t_mapping(t_address,t_bool)": {
						"encoding": "mapping",
						"key": "t_address",
						"label": "mapping(address => bool)",
						"numberOfBytes": "32",
						"value": "t_bool"
					},
					"t_mapping(t_address,t_mapping(t_address,t_uint256))": {
						"encoding": "mapping",
						"key": "t_address",
						"label": "mapping(address => mapping(address => uint256))",
						"numberOfBytes": "32",
						"value": "t_mapping(t_address,t_uint256)"
					},
					"t_mapping(t_address,t_uint256)": {
						"encoding": "mapping",
						"key": "t_address",
						"label": "mapping(address => uint256)",
						"numberOfBytes": "32",
						"value": "t_uint256"
					},
					"t_string_storage": {
						"encoding": "bytes",
						"label": "string",
						"numberOfBytes": "32"
					},
					"t_uint256": {
						"encoding": "inplace",
						"label": "uint256",
						"numberOfBytes": "32"
					}
				}
			},
			"userdoc": {
				"kind": "user",
				"methods": {},
				"version": 1
			}
		}
	}
}