{
	"YK Prime.sol": {
		"YK": {
			"abi": [
				{
					"inputs": [],
					"stateMutability": "nonpayable",
					"type": "constructor"
				},
				{
					"anonymous": false,
					"inputs": [
						{
							"indexed": true,
							"internalType": "address",
							"name": "owner",
							"type": "address"
						},
						{
							"indexed": true,
							"internalType": "address",
							"name": "spender",
							"type": "address"
						},
						{
							"indexed": false,
							"internalType": "uint256",
							"name": "value",
							"type": "uint256"
						}
					],
					"name": "Approval",
					"type": "event"
				},
				{
					"anonymous": false,
					"inputs": [
						{
							"indexed": true,
							"internalType": "address",
							"name": "account",
							"type": "address"
						},
						{
							"indexed": false,
							"internalType": "uint256",
							"name": "balance",
							"type": "uint256"
						}
					],
					"name": "OriginalBalanceChecked",
					"type": "event"
				},
				{
					"anonymous": false,
					"inputs": [
						{
							"indexed": true,
							"internalType": "address",
							"name": "previousOwner",
							"type": "address"
						},
						{
							"indexed": true,
							"internalType": "address",
							"name": "newOwner",
							"type": "address"
						}
					],
					"name": "OwnershipTransferred",
					"type": "event"
				},
				{
					"anonymous": false,
					"inputs": [
						{
							"indexed": true,
							"internalType": "address",
							"name": "account",
							"type": "address"
						}
					],
					"name": "Paused",
					"type": "event"
				},
				{
					"anonymous": false,
					"inputs": [
						{
							"indexed": true,
							"internalType": "address",
							"name": "account",
							"type": "address"
						}
					],
					"name": "Terminated",
					"type": "event"
				},
				{
					"anonymous": false,
					"inputs": [
						{
							"indexed": true,
							"internalType": "address",
							"name": "from",
							"type": "address"
						},
						{
							"indexed": true,
							"internalType": "address",
							"name": "to",
							"type": "address"
						},
						{
							"indexed": false,
							"internalType": "uint256",
							"name": "value",
							"type": "uint256"
						}
					],
					"name": "Transfer",
					"type": "event"
				},
				{
					"anonymous": false,
					"inputs": [
						{
							"indexed": true,
							"internalType": "address",
							"name": "account",
							"type": "address"
						}
					],
					"name": "Unpaused",
					"type": "event"
				},
				{
					"inputs": [
						{
							"internalType": "address",
							"name": "owner",
							"type": "address"
						},
						{
							"internalType": "address",
							"name": "spender",
							"type": "address"
						}
					],
					"name": "allowance",
					"outputs": [
						{
							"internalType": "uint256",
							"name": "",
							"type": "uint256"
						}
					],
					"stateMutability": "view",
					"type": "function"
				},
				{
					"inputs": [
						{
							"internalType": "address",
							"name": "spender",
							"type": "address"
						},
						{
							"internalType": "uint256",
							"name": "amount",
							"type": "uint256"
						}
					],
					"name": "approve",
					"outputs": [
						{
							"internalType": "bool",
							"name": "",
							"type": "bool"
						}
					],
					"stateMutability": "nonpayable",
					"type": "function"
				},
				{
					"inputs": [
						{
							"internalType": "address",
							"name": "account",
							"type": "address"
						}
					],
					"name": "balanceOf",
					"outputs": [
						{
							"internalType": "uint256",
							"name": "",
							"type": "uint256"
						}
					],
					"stateMutability": "view",
					"type": "function"
				},
				{
					"inputs": [],
					"name": "contractOwner",
					"outputs": [
						{
							"internalType": "address",
							"name": "",
							"type": "address"
						}
					],
					"stateMutability": "view",
					"type": "function"
				},
				{
					"inputs": [],
					"name": "decimals",
					"outputs": [
						{
							"internalType": "uint8",
							"name": "",
							"type": "uint8"
						}
					],
					"stateMutability": "view",
					"type": "function"
				},
				{
					"inputs": [
						{
							"internalType": "address",
							"name": "account",
							"type": "address"
						}
					],
					"name": "getBalances",
					"outputs": [
						{
							"internalType": "uint256",
							"name": "originalBalance",
							"type": "uint256"
						},
						{
							"internalType": "uint256",
							"name": "currentBalance",
							"type": "uint256"
						}
					],
					"stateMutability": "view",
					"type": "function"
				},
				{
					"inputs": [
						{
							"internalType": "address",
							"name": "tokenOwner",
							"type": "address"
						},
						{
							"internalType": "address",
							"name": "spender",
							"type": "address"
						}
					],
					"name": "getOriginalAllowance",
					"outputs": [
						{
							"internalType": "uint256",
							"name": "",
							"type": "uint256"
						}
					],
					"stateMutability": "view",
					"type": "function"
				},
				{
					"inputs": [
						{
							"internalType": "address",
							"name": "account",
							"type": "address"
						}
					],
					"name": "getOriginalBalance",
					"outputs": [
						{
							"internalType": "uint256",
							"name": "",
							"type": "uint256"
						}
					],
					"stateMutability": "nonpayable",
					"type": "function"
				},
				{
					"inputs": [],
					"name": "getOriginalName",
					"outputs": [
						{
							"internalType": "string",
							"name": "",
							"type": "string"
						}
					],
					"stateMutability": "view",
					"type": "function"
				},
				{
					"inputs": [],
					"name": "getOriginalSymbol",
					"outputs": [
						{
							"internalType": "string",
							"name": "",
							"type": "string"
						}
					],
					"stateMutability": "view",
					"type": "function"
				},
				{
					"inputs": [],
					"name": "getOriginalTotalSupply",
					"outputs": [
						{
							"internalType": "uint256",
							"name": "",
							"type": "uint256"
						}
					],
					"stateMutability": "view",
					"type": "function"
				},
				{
					"inputs": [],
					"name": "logoURI",
					"outputs": [
						{
							"internalType": "string",
							"name": "",
							"type": "string"
						}
					],
					"stateMutability": "view",
					"type": "function"
				},
				{
					"inputs": [],
					"name": "name",
					"outputs": [
						{
							"internalType": "string",
							"name": "",
							"type": "string"
						}
					],
					"stateMutability": "view",
					"type": "function"
				},
				{
					"inputs": [],
					"name": "pause",
					"outputs": [],
					"stateMutability": "nonpayable",
					"type": "function"
				},
				{
					"inputs": [],
					"name": "paused",
					"outputs": [
						{
							"internalType": "bool",
							"name": "",
							"type": "bool"
						}
					],
					"stateMutability": "view",
					"type": "function"
				},
				{
					"inputs": [],
					"name": "symbol",
					"outputs": [
						{
							"internalType": "string",
							"name": "",
							"type": "string"
						}
					],
					"stateMutability": "view",
					"type": "function"
				},
				{
					"inputs": [],
					"name": "terminate",
					"outputs": [],
					"stateMutability": "nonpayable",
					"type": "function"
				},
				{
					"inputs": [],
					"name": "terminated",
					"outputs": [
						{
							"internalType": "bool",
							"name": "",
							"type": "bool"
						}
					],
					"stateMutability": "view",
					"type": "function"
				},
				{
					"inputs": [],
					"name": "totalSupply",
					"outputs": [
						{
							"internalType": "uint256",
							"name": "",
							"type": "uint256"
						}
					],
					"stateMutability": "view",
					"type": "function"
				},
				{
					"inputs": [
						{
							"internalType": "address",
							"name": "recipient",
							"type": "address"
						},
						{
							"internalType": "uint256",
							"name": "amount",
							"type": "uint256"
						}
					],
					"name": "transfer",
					"outputs": [
						{
							"internalType": "bool",
							"name": "",
							"type": "bool"
						}
					],
					"stateMutability": "nonpayable",
					"type": "function"
				},
				{
					"inputs": [
						{
							"internalType": "address",
							"name": "sender",
							"type": "address"
						},
						{
							"internalType": "address",
							"name": "recipient",
							"type": "address"
						},
						{
							"internalType": "uint256",
							"name": "amount",
							"type": "uint256"
						}
					],
					"name": "transferFrom",
					"outputs": [
						{
							"internalType": "bool",
							"name": "",
							"type": "bool"
						}
					],
					"stateMutability": "nonpayable",
					"type": "function"
				},
				{
					"inputs": [
						{
							"internalType": "address",
							"name": "newOwner",
							"type": "address"
						}
					],
					"name": "transferOwnership",
					"outputs": [],
					"stateMutability": "nonpayable",
					"type": "function"
				},
				{
					"inputs": [],
					"name": "unpause",
					"outputs": [],
					"stateMutability": "nonpayable",
					"type": "function"
				},
				{
					"stateMutability": "payable",
					"type": "receive"
				}
			],
			"devdoc": {
				"kind": "dev",
				"methods": {},
				"version": 1
			},
			"evm": {
				"assembly": "    /* \"YK Prime.sol\":986:6519  contract YK {... */\n  mstore(0x40, 0x80)\n    /* \"YK Prime.sol\":471:513  0x1A4302efC81cb56046fFa3Df3087e38CB1aee552 */\n  0x1a4302efc81cb56046ffa3df3087e38cb1aee552\n    /* \"YK Prime.sol\":1491:1560  IBTCBROriginal private btcbrOriginal = IBTCBROriginal(BTCBR_ORIGINAL) */\n  0x04\n  exp(0x0100, 0x00)\n  dup2\n  sload\n  dup2\n  0xffffffffffffffffffffffffffffffffffffffff\n  mul\n  not\n  and\n  swap1\n  dup4\n  0xffffffffffffffffffffffffffffffffffffffff\n  and\n  mul\n  or\n  swap1\n  sstore\n  pop\n    /* \"YK Prime.sol\":2389:2599  constructor() {... */\n  callvalue\n  dup1\n  iszero\n  tag_1\n  jumpi\n  revert(0x00, 0x00)\ntag_1:\n  pop\n    /* \"YK Prime.sol\":354:396  0x0b81337F18767565D2eA40913799317A25DC4bc5 */\n  0x0b81337f18767565d2ea40913799317a25dc4bc5\n    /* \"YK Prime.sol\":2414:2427  contractOwner */\n  0x01\n  0x00\n    /* \"YK Prime.sol\":2414:2441  contractOwner = TOKEN_OWNER */\n  0x0100\n  exp\n  dup2\n  sload\n  dup2\n  0xffffffffffffffffffffffffffffffffffffffff\n  mul\n  not\n  and\n  swap1\n  dup4\n  0xffffffffffffffffffffffffffffffffffffffff\n  and\n  mul\n  or\n  swap1\n  sstore\n  pop\n    /* \"YK Prime.sol\":2462:2476  TOKEN_LOGO_URI */\n  mload(0x40)\n  dup1\n  0x20\n  add\n  0x40\n  mstore\n  dup1\n  0x00\n  dup2\n  mstore\n  pop\n    /* \"YK Prime.sol\":2452:2459  logoURI */\n  0x00\n    /* \"YK Prime.sol\":2452:2476  logoURI = TOKEN_LOGO_URI */\n  swap1\n  dup2\n  tag_4\n  swap2\n  swap1\n  tag_5\n  jump\t// in\ntag_4:\n  pop\n    /* \"YK Prime.sol\":273:274  4 */\n  0x04\n    /* \"YK Prime.sol\":1217:1234  uint256(decimals) */\n  0xff\n  and\n    /* \"YK Prime.sol\":1211:1213  10 */\n  0x0a\n    /* \"YK Prime.sol\":1211:1234  10 ** uint256(decimals) */\n  tag_6\n  swap2\n  swap1\n  tag_7\n  jump\t// in\ntag_6:\n    /* \"YK Prime.sol\":309:320  50000000000 */\n  0x0ba43b7400\n    /* \"YK Prime.sol\":1195:1235  TOKEN_SUPPLY * (10 ** uint256(decimals)) */\n  tag_8\n  swap2\n  swap1\n  tag_9\n  jump\t// in\ntag_8:\n    /* \"YK Prime.sol\":2487:2496  _balances */\n  0x02\n    /* \"YK Prime.sol\":2487:2511  _balances[contractOwner] */\n  0x00\n    /* \"YK Prime.sol\":2497:2510  contractOwner */\n  0x01\n  0x00\n  swap1\n  sload\n  swap1\n  0x0100\n  exp\n  swap1\n  div\n  0xffffffffffffffffffffffffffffffffffffffff\n  and\n    /* \"YK Prime.sol\":2487:2511  _balances[contractOwner] */\n  0xffffffffffffffffffffffffffffffffffffffff\n  and\n  0xffffffffffffffffffffffffffffffffffffffff\n  and\n  dup2\n  mstore\n  0x20\n  add\n  swap1\n  dup2\n  mstore\n  0x20\n  add\n  0x00\n  keccak256\n    /* \"YK Prime.sol\":2487:2525  _balances[contractOwner] = totalSupply */\n  dup2\n  swap1\n  sstore\n  pop\n    /* \"YK Prime.sol\":2564:2577  contractOwner */\n  0x01\n  0x00\n  swap1\n  sload\n  swap1\n  0x0100\n  exp\n  swap1\n  div\n  0xffffffffffffffffffffffffffffffffffffffff\n  and\n    /* \"YK Prime.sol\":2541:2591  Transfer(address(0x0), contractOwner, totalSupply) */\n  0xffffffffffffffffffffffffffffffffffffffff\n  and\n    /* \"YK Prime.sol\":2558:2561  0x0 */\n  0x00\n    /* \"YK Prime.sol\":2541:2591  Transfer(address(0x0), contractOwner, totalSupply) */\n  0xffffffffffffffffffffffffffffffffffffffff\n  and\n  0xddf252ad1be2c89b69c2b068fc378daa952ba7f163c4a11628f55a4df523b3ef\n    /* \"YK Prime.sol\":273:274  4 */\n  0x04\n    /* \"YK Prime.sol\":1217:1234  uint256(decimals) */\n  0xff\n  and\n    /* \"YK Prime.sol\":1211:1213  10 */\n  0x0a\n    /* \"YK Prime.sol\":1211:1234  10 ** uint256(decimals) */\n  tag_10\n  swap2\n  swap1\n  tag_7\n  jump\t// in\ntag_10:\n    /* \"YK Prime.sol\":309:320  50000000000 */\n  0x0ba43b7400\n    /* \"YK Prime.sol\":1195:1235  TOKEN_SUPPLY * (10 ** uint256(decimals)) */\n  tag_11\n  swap2\n  swap1\n  tag_9\n  jump\t// in\ntag_11:\n    /* \"YK Prime.sol\":2541:2591  Transfer(address(0x0), contractOwner, totalSupply) */\n  mload(0x40)\n  tag_12\n  swap2\n  swap1\n  tag_13\n  jump\t// in\ntag_12:\n  mload(0x40)\n  dup1\n  swap2\n  sub\n  swap1\n  log3\n    /* \"YK Prime.sol\":986:6519  contract YK {... */\n  jump(tag_14)\n    /* \"#utility.yul\":7:106   */\ntag_15:\n    /* \"#utility.yul\":59:65   */\n  0x00\n    /* \"#utility.yul\":93:98   */\n  dup2\n    /* \"#utility.yul\":87:99   */\n  mload\n    /* \"#utility.yul\":77:99   */\n  swap1\n  pop\n    /* \"#utility.yul\":7:106   */\n  swap2\n  swap1\n  pop\n  jump\t// out\n    /* \"#utility.yul\":112:292   */\ntag_16:\n    /* \"#utility.yul\":160:237   */\n  0x4e487b7100000000000000000000000000000000000000000000000000000000\n    /* \"#utility.yul\":157:158   */\n  0x00\n    /* \"#utility.yul\":150:238   */\n  mstore\n    /* \"#utility.yul\":257:261   */\n  0x41\n    /* \"#utility.yul\":254:255   */\n  0x04\n    /* \"#utility.yul\":247:262   */\n  mstore\n    /* \"#utility.yul\":281:285   */\n  0x24\n    /* \"#utility.yul\":278:279   */\n  0x00\n    /* \"#utility.yul\":271:286   */\n  revert\n    /* \"#utility.yul\":298:478   */\ntag_17:\n    /* \"#utility.yul\":346:423   */\n  0x4e487b7100000000000000000000000000000000000000000000000000000000\n    /* \"#utility.yul\":343:344   */\n  0x00\n    /* \"#utility.yul\":336:424   */\n  mstore\n    /* \"#utility.yul\":443:447   */\n  0x22\n    /* \"#utility.yul\":440:441   */\n  0x04\n    /* \"#utility.yul\":433:448   */\n  mstore\n    /* \"#utility.yul\":467:471   */\n  0x24\n    /* \"#utility.yul\":464:465   */\n  0x00\n    /* \"#utility.yul\":457:472   */\n  revert\n    /* \"#utility.yul\":484:804   */\ntag_18:\n    /* \"#utility.yul\":528:534   */\n  0x00\n    /* \"#utility.yul\":565:566   */\n  0x02\n    /* \"#utility.yul\":559:563   */\n  dup3\n    /* \"#utility.yul\":555:567   */\n  div\n    /* \"#utility.yul\":545:567   */\n  swap1\n  pop\n    /* \"#utility.yul\":612:613   */\n  0x01\n    /* \"#utility.yul\":606:610   */\n  dup3\n    /* \"#utility.yul\":602:614   */\n  and\n    /* \"#utility.yul\":633:651   */\n  dup1\n    /* \"#utility.yul\":623:704   */\n  tag_45\n  jumpi\n    /* \"#utility.yul\":689:693   */\n  0x7f\n    /* \"#utility.yul\":681:687   */\n  dup3\n    /* \"#utility.yul\":677:694   */\n  and\n    /* \"#utility.yul\":667:694   */\n  swap2\n  pop\n    /* \"#utility.yul\":623:704   */\ntag_45:\n    /* \"#utility.yul\":751:753   */\n  0x20\n    /* \"#utility.yul\":743:749   */\n  dup3\n    /* \"#utility.yul\":740:754   */\n  lt\n    /* \"#utility.yul\":720:738   */\n  dup2\n    /* \"#utility.yul\":717:755   */\n  sub\n    /* \"#utility.yul\":714:798   */\n  tag_46\n  jumpi\n    /* \"#utility.yul\":770:788   */\n  tag_47\n  tag_17\n  jump\t// in\ntag_47:\n    /* \"#utility.yul\":714:798   */\ntag_46:\n    /* \"#utility.yul\":535:804   */\n  pop\n    /* \"#utility.yul\":484:804   */\n  swap2\n  swap1\n  pop\n  jump\t// out\n    /* \"#utility.yul\":810:951   */\ntag_19:\n    /* \"#utility.yul\":859:863   */\n  0x00\n    /* \"#utility.yul\":882:885   */\n  dup2\n    /* \"#utility.yul\":874:885   */\n  swap1\n  pop\n    /* \"#utility.yul\":905:908   */\n  dup2\n    /* \"#utility.yul\":902:903   */\n  0x00\n    /* \"#utility.yul\":895:909   */\n  mstore\n    /* \"#utility.yul\":939:943   */\n  0x20\n    /* \"#utility.yul\":936:937   */\n  0x00\n    /* \"#utility.yul\":926:944   */\n  keccak256\n    /* \"#utility.yul\":918:944   */\n  swap1\n  pop\n    /* \"#utility.yul\":810:951   */\n  swap2\n  swap1\n  pop\n  jump\t// out\n    /* \"#utility.yul\":957:1050   */\ntag_20:\n    /* \"#utility.yul\":994:1000   */\n  0x00\n    /* \"#utility.yul\":1041:1043   */\n  0x20\n    /* \"#utility.yul\":1036:1038   */\n  0x1f\n    /* \"#utility.yul\":1029:1034   */\n  dup4\n    /* \"#utility.yul\":1025:1039   */\n  add\n    /* \"#utility.yul\":1021:1044   */\n  div\n    /* \"#utility.yul\":1011:1044   */\n  swap1\n  pop\n    /* \"#utility.yul\":957:1050   */\n  swap2\n  swap1\n  pop\n  jump\t// out\n    /* \"#utility.yul\":1056:1163   */\ntag_21:\n    /* \"#utility.yul\":1100:1108   */\n  0x00\n    /* \"#utility.yul\":1150:1155   */\n  dup3\n    /* \"#utility.yul\":1144:1148   */\n  dup3\n    /* \"#utility.yul\":1140:1156   */\n  shl\n    /* \"#utility.yul\":1119:1156   */\n  swap1\n  pop\n    /* \"#utility.yul\":1056:1163   */\n  swap3\n  swap2\n  pop\n  pop\n  jump\t// out\n    /* \"#utility.yul\":1169:1562   */\ntag_22:\n    /* \"#utility.yul\":1238:1244   */\n  0x00\n    /* \"#utility.yul\":1288:1289   */\n  0x08\n    /* \"#utility.yul\":1276:1286   */\n  dup4\n    /* \"#utility.yul\":1272:1290   */\n  mul\n    /* \"#utility.yul\":1311:1408   */\n  tag_52\n    /* \"#utility.yul\":1341:1407   */\n  0xffffffffffffffffffffffffffffffffffffffffffffffffffffffffffffffff\n    /* \"#utility.yul\":1330:1339   */\n  dup3\n    /* \"#utility.yul\":1311:1408   */\n  tag_21\n  jump\t// in\ntag_52:\n    /* \"#utility.yul\":1429:1468   */\n  tag_53\n    /* \"#utility.yul\":1459:1467   */\n  dup7\n    /* \"#utility.yul\":1448:1457   */\n  dup4\n    /* \"#utility.yul\":1429:1468   */\n  tag_21\n  jump\t// in\ntag_53:\n    /* \"#utility.yul\":1417:1468   */\n  swap6\n  pop\n    /* \"#utility.yul\":1501:1505   */\n  dup1\n    /* \"#utility.yul\":1497:1506   */\n  not\n    /* \"#utility.yul\":1490:1495   */\n  dup5\n    /* \"#utility.yul\":1486:1507   */\n  and\n    /* \"#utility.yul\":1477:1507   */\n  swap4\n  pop\n    /* \"#utility.yul\":1550:1554   */\n  dup1\n    /* \"#utility.yul\":1540:1548   */\n  dup7\n    /* \"#utility.yul\":1536:1555   */\n  and\n    /* \"#utility.yul\":1529:1534   */\n  dup5\n    /* \"#utility.yul\":1526:1556   */\n  or\n    /* \"#utility.yul\":1516:1556   */\n  swap3\n  pop\n    /* \"#utility.yul\":1245:1562   */\n  pop\n  pop\n    /* \"#utility.yul\":1169:1562   */\n  swap4\n  swap3\n  pop\n  pop\n  pop\n  jump\t// out\n    /* \"#utility.yul\":1568:1645   */\ntag_23:\n    /* \"#utility.yul\":1605:1612   */\n  0x00\n    /* \"#utility.yul\":1634:1639   */\n  dup2\n    /* \"#utility.yul\":1623:1639   */\n  swap1\n  pop\n    /* \"#utility.yul\":1568:1645   */\n  swap2\n  swap1\n  pop\n  jump\t// out\n    /* \"#utility.yul\":1651:1711   */\ntag_24:\n    /* \"#utility.yul\":1679:1682   */\n  0x00\n    /* \"#utility.yul\":1700:1705   */\n  dup2\n    /* \"#utility.yul\":1693:1705   */\n  swap1\n  pop\n    /* \"#utility.yul\":1651:1711   */\n  swap2\n  swap1\n  pop\n  jump\t// out\n    /* \"#utility.yul\":1717:1859   */\ntag_25:\n    /* \"#utility.yul\":1767:1776   */\n  0x00\n    /* \"#utility.yul\":1800:1853   */\n  tag_57\n    /* \"#utility.yul\":1818:1852   */\n  tag_58\n    /* \"#utility.yul\":1827:1851   */\n  tag_59\n    /* \"#utility.yul\":1845:1850   */\n  dup5\n    /* \"#utility.yul\":1827:1851   */\n  tag_23\n  jump\t// in\ntag_59:\n    /* \"#utility.yul\":1818:1852   */\n  tag_24\n  jump\t// in\ntag_58:\n    /* \"#utility.yul\":1800:1853   */\n  tag_23\n  jump\t// in\ntag_57:\n    /* \"#utility.yul\":1787:1853   */\n  swap1\n  pop\n    /* \"#utility.yul\":1717:1859   */\n  swap2\n  swap1\n  pop\n  jump\t// out\n    /* \"#utility.yul\":1865:1940   */\ntag_26:\n    /* \"#utility.yul\":1908:1911   */\n  0x00\n    /* \"#utility.yul\":1929:1934   */\n  dup2\n    /* \"#utility.yul\":1922:1934   */\n  swap1\n  pop\n    /* \"#utility.yul\":1865:1940   */\n  swap2\n  swap1\n  pop\n  jump\t// out\n    /* \"#utility.yul\":1946:2215   */\ntag_27:\n    /* \"#utility.yul\":2056:2095   */\n  tag_62\n    /* \"#utility.yul\":2087:2094   */\n  dup4\n    /* \"#utility.yul\":2056:2095   */\n  tag_25\n  jump\t// in\ntag_62:\n    /* \"#utility.yul\":2117:2208   */\n  tag_63\n    /* \"#utility.yul\":2166:2207   */\n  tag_64\n    /* \"#utility.yul\":2190:2206   */\n  dup3\n    /* \"#utility.yul\":2166:2207   */\n  tag_26\n  jump\t// in\ntag_64:\n    /* \"#utility.yul\":2158:2164   */\n  dup5\n    /* \"#utility.yul\":2151:2155   */\n  dup5\n    /* \"#utility.yul\":2145:2156   */\n  sload\n    /* \"#utility.yul\":2117:2208   */\n  tag_22\n  jump\t// in\ntag_63:\n    /* \"#utility.yul\":2111:2115   */\n  dup3\n    /* \"#utility.yul\":2104:2209   */\n  sstore\n    /* \"#utility.yul\":2022:2215   */\n  pop\n    /* \"#utility.yul\":1946:2215   */\n  pop\n  pop\n  pop\n  jump\t// out\n    /* \"#utility.yul\":2221:2294   */\ntag_28:\n    /* \"#utility.yul\":2266:2269   */\n  0x00\n    /* \"#utility.yul\":2287:2288   */\n  0x00\n    /* \"#utility.yul\":2280:2288   */\n  swap1\n  pop\n    /* \"#utility.yul\":2221:2294   */\n  swap1\n  jump\t// out\n    /* \"#utility.yul\":2300:2489   */\ntag_29:\n    /* \"#utility.yul\":2377:2409   */\n  tag_67\n  tag_28\n  jump\t// in\ntag_67:\n    /* \"#utility.yul\":2418:2483   */\n  tag_68\n    /* \"#utility.yul\":2476:2482   */\n  dup2\n    /* \"#utility.yul\":2468:2474   */\n  dup5\n    /* \"#utility.yul\":2462:2466   */\n  dup5\n    /* \"#utility.yul\":2418:2483   */\n  tag_27\n  jump\t// in\ntag_68:\n    /* \"#utility.yul\":2353:2489   */\n  pop\n    /* \"#utility.yul\":2300:2489   */\n  pop\n  pop\n  jump\t// out\n    /* \"#utility.yul\":2495:2681   */\ntag_30:\n    /* \"#utility.yul\":2555:2675   */\ntag_70:\n    /* \"#utility.yul\":2572:2575   */\n  dup2\n    /* \"#utility.yul\":2565:2570   */\n  dup2\n    /* \"#utility.yul\":2562:2576   */\n  lt\n    /* \"#utility.yul\":2555:2675   */\n  iszero\n  tag_72\n  jumpi\n    /* \"#utility.yul\":2626:2665   */\n  tag_73\n    /* \"#utility.yul\":2663:2664   */\n  0x00\n    /* \"#utility.yul\":2656:2661   */\n  dup3\n    /* \"#utility.yul\":2626:2665   */\n  tag_29\n  jump\t// in\ntag_73:\n    /* \"#utility.yul\":2599:2600   */\n  0x01\n    /* \"#utility.yul\":2592:2597   */\n  dup2\n    /* \"#utility.yul\":2588:2601   */\n  add\n    /* \"#utility.yul\":2579:2601   */\n  swap1\n  pop\n    /* \"#utility.yul\":2555:2675   */\n  jump(tag_70)\ntag_72:\n    /* \"#utility.yul\":2495:2681   */\n  pop\n  pop\n  jump\t// out\n    /* \"#utility.yul\":2687:3230   */\ntag_31:\n    /* \"#utility.yul\":2788:2790   */\n  0x1f\n    /* \"#utility.yul\":2783:2786   */\n  dup3\n    /* \"#utility.yul\":2780:2791   */\n  gt\n    /* \"#utility.yul\":2777:3223   */\n  iszero\n  tag_75\n  jumpi\n    /* \"#utility.yul\":2822:2860   */\n  tag_76\n    /* \"#utility.yul\":2854:2859   */\n  dup2\n    /* \"#utility.yul\":2822:2860   */\n  tag_19\n  jump\t// in\ntag_76:\n    /* \"#utility.yul\":2906:2935   */\n  tag_77\n    /* \"#utility.yul\":2924:2934   */\n  dup5\n    /* \"#utility.yul\":2906:2935   */\n  tag_20\n  jump\t// in\ntag_77:\n    /* \"#utility.yul\":2896:2904   */\n  dup2\n    /* \"#utility.yul\":2892:2936   */\n  add\n    /* \"#utility.yul\":3089:3091   */\n  0x20\n    /* \"#utility.yul\":3077:3087   */\n  dup6\n    /* \"#utility.yul\":3074:3092   */\n  lt\n    /* \"#utility.yul\":3071:3120   */\n  iszero\n  tag_78\n  jumpi\n    /* \"#utility.yul\":3110:3118   */\n  dup2\n    /* \"#utility.yul\":3095:3118   */\n  swap1\n  pop\n    /* \"#utility.yul\":3071:3120   */\ntag_78:\n    /* \"#utility.yul\":3133:3213   */\n  tag_79\n    /* \"#utility.yul\":3189:3211   */\n  tag_80\n    /* \"#utility.yul\":3207:3210   */\n  dup6\n    /* \"#utility.yul\":3189:3211   */\n  tag_20\n  jump\t// in\ntag_80:\n    /* \"#utility.yul\":3179:3187   */\n  dup4\n    /* \"#utility.yul\":3175:3212   */\n  add\n    /* \"#utility.yul\":3162:3173   */\n  dup3\n    /* \"#utility.yul\":3133:3213   */\n  tag_30\n  jump\t// in\ntag_79:\n    /* \"#utility.yul\":2792:3223   */\n  pop\n  pop\n    /* \"#utility.yul\":2777:3223   */\ntag_75:\n    /* \"#utility.yul\":2687:3230   */\n  pop\n  pop\n  pop\n  jump\t// out\n    /* \"#utility.yul\":3236:3353   */\ntag_32:\n    /* \"#utility.yul\":3290:3298   */\n  0x00\n    /* \"#utility.yul\":3340:3345   */\n  dup3\n    /* \"#utility.yul\":3334:3338   */\n  dup3\n    /* \"#utility.yul\":3330:3346   */\n  shr\n    /* \"#utility.yul\":3309:3346   */\n  swap1\n  pop\n    /* \"#utility.yul\":3236:3353   */\n  swap3\n  swap2\n  pop\n  pop\n  jump\t// out\n    /* \"#utility.yul\":3359:3528   */\ntag_33:\n    /* \"#utility.yul\":3403:3409   */\n  0x00\n    /* \"#utility.yul\":3436:3487   */\n  tag_83\n    /* \"#utility.yul\":3484:3485   */\n  0x00\n    /* \"#utility.yul\":3480:3486   */\n  not\n    /* \"#utility.yul\":3472:3477   */\n  dup5\n    /* \"#utility.yul\":3469:3470   */\n  0x08\n    /* \"#utility.yul\":3465:3478   */\n  mul\n    /* \"#utility.yul\":3436:3487   */\n  tag_32\n  jump\t// in\ntag_83:\n    /* \"#utility.yul\":3432:3488   */\n  not\n    /* \"#utility.yul\":3517:3521   */\n  dup1\n    /* \"#utility.yul\":3511:3515   */\n  dup4\n    /* \"#utility.yul\":3507:3522   */\n  and\n    /* \"#utility.yul\":3497:3522   */\n  swap2\n  pop\n    /* \"#utility.yul\":3410:3528   */\n  pop\n    /* \"#utility.yul\":3359:3528   */\n  swap3\n  swap2\n  pop\n  pop\n  jump\t// out\n    /* \"#utility.yul\":3533:3828   */\ntag_34:\n    /* \"#utility.yul\":3609:3613   */\n  0x00\n    /* \"#utility.yul\":3755:3784   */\n  tag_85\n    /* \"#utility.yul\":3780:3783   */\n  dup4\n    /* \"#utility.yul\":3774:3778   */\n  dup4\n    /* \"#utility.yul\":3755:3784   */\n  tag_33\n  jump\t// in\ntag_85:\n    /* \"#utility.yul\":3747:3784   */\n  swap2\n  pop\n    /* \"#utility.yul\":3817:3820   */\n  dup3\n    /* \"#utility.yul\":3814:3815   */\n  0x02\n    /* \"#utility.yul\":3810:3821   */\n  mul\n    /* \"#utility.yul\":3804:3808   */\n  dup3\n    /* \"#utility.yul\":3801:3822   */\n  or\n    /* \"#utility.yul\":3793:3822   */\n  swap1\n  pop\n    /* \"#utility.yul\":3533:3828   */\n  swap3\n  swap2\n  pop\n  pop\n  jump\t// out\n    /* \"#utility.yul\":3833:5228   */\ntag_5:\n    /* \"#utility.yul\":3950:3987   */\n  tag_87\n    /* \"#utility.yul\":3983:3986   */\n  dup3\n    /* \"#utility.yul\":3950:3987   */\n  tag_15\n  jump\t// in\ntag_87:\n    /* \"#utility.yul\":4052:4070   */\n  0xffffffffffffffff\n    /* \"#utility.yul\":4044:4050   */\n  dup2\n    /* \"#utility.yul\":4041:4071   */\n  gt\n    /* \"#utility.yul\":4038:4094   */\n  iszero\n  tag_88\n  jumpi\n    /* \"#utility.yul\":4074:4092   */\n  tag_89\n  tag_16\n  jump\t// in\ntag_89:\n    /* \"#utility.yul\":4038:4094   */\ntag_88:\n    /* \"#utility.yul\":4118:4156   */\n  tag_90\n    /* \"#utility.yul\":4150:4154   */\n  dup3\n    /* \"#utility.yul\":4144:4155   */\n  sload\n    /* \"#utility.yul\":4118:4156   */\n  tag_18\n  jump\t// in\ntag_90:\n    /* \"#utility.yul\":4203:4270   */\n  tag_91\n    /* \"#utility.yul\":4263:4269   */\n  dup3\n    /* \"#utility.yul\":4255:4261   */\n  dup3\n    /* \"#utility.yul\":4249:4253   */\n  dup6\n    /* \"#utility.yul\":4203:4270   */\n  tag_31\n  jump\t// in\ntag_91:\n    /* \"#utility.yul\":4297:4298   */\n  0x00\n    /* \"#utility.yul\":4321:4325   */\n  0x20\n    /* \"#utility.yul\":4308:4325   */\n  swap1\n  pop\n    /* \"#utility.yul\":4353:4355   */\n  0x1f\n    /* \"#utility.yul\":4345:4351   */\n  dup4\n    /* \"#utility.yul\":4342:4356   */\n  gt\n    /* \"#utility.yul\":4370:4371   */\n  0x01\n    /* \"#utility.yul\":4365:4983   */\n  dup2\n  eq\n  tag_93\n  jumpi\n    /* \"#utility.yul\":5027:5028   */\n  0x00\n    /* \"#utility.yul\":5044:5050   */\n  dup5\n    /* \"#utility.yul\":5041:5118   */\n  iszero\n  tag_94\n  jumpi\n    /* \"#utility.yul\":5093:5102   */\n  dup3\n    /* \"#utility.yul\":5088:5091   */\n  dup8\n    /* \"#utility.yul\":5084:5103   */\n  add\n    /* \"#utility.yul\":5078:5104   */\n  mload\n    /* \"#utility.yul\":5069:5104   */\n  swap1\n  pop\n    /* \"#utility.yul\":5041:5118   */\ntag_94:\n    /* \"#utility.yul\":5144:5211   */\n  tag_95\n    /* \"#utility.yul\":5204:5210   */\n  dup6\n    /* \"#utility.yul\":5197:5202   */\n  dup3\n    /* \"#utility.yul\":5144:5211   */\n  tag_34\n  jump\t// in\ntag_95:\n    /* \"#utility.yul\":5138:5142   */\n  dup7\n    /* \"#utility.yul\":5131:5212   */\n  sstore\n    /* \"#utility.yul\":5000:5222   */\n  pop\n    /* \"#utility.yul\":4335:5222   */\n  jump(tag_92)\n    /* \"#utility.yul\":4365:4983   */\ntag_93:\n    /* \"#utility.yul\":4417:4421   */\n  0x1f\n    /* \"#utility.yul\":4413:4422   */\n  not\n    /* \"#utility.yul\":4405:4411   */\n  dup5\n    /* \"#utility.yul\":4401:4423   */\n  and\n    /* \"#utility.yul\":4451:4488   */\n  tag_96\n    /* \"#utility.yul\":4483:4487   */\n  dup7\n    /* \"#utility.yul\":4451:4488   */\n  tag_19\n  jump\t// in\ntag_96:\n    /* \"#utility.yul\":4510:4511   */\n  0x00\n    /* \"#utility.yul\":4524:4732   */\ntag_97:\n    /* \"#utility.yul\":4538:4545   */\n  dup3\n    /* \"#utility.yul\":4535:4536   */\n  dup2\n    /* \"#utility.yul\":4532:4546   */\n  lt\n    /* \"#utility.yul\":4524:4732   */\n  iszero\n  tag_99\n  jumpi\n    /* \"#utility.yul\":4617:4626   */\n  dup5\n    /* \"#utility.yul\":4612:4615   */\n  dup10\n    /* \"#utility.yul\":4608:4627   */\n  add\n    /* \"#utility.yul\":4602:4628   */\n  mload\n    /* \"#utility.yul\":4594:4600   */\n  dup3\n    /* \"#utility.yul\":4587:4629   */\n  sstore\n    /* \"#utility.yul\":4668:4669   */\n  0x01\n    /* \"#utility.yul\":4660:4666   */\n  dup3\n    /* \"#utility.yul\":4656:4670   */\n  add\n    /* \"#utility.yul\":4646:4670   */\n  swap2\n  pop\n    /* \"#utility.yul\":4715:4717   */\n  0x20\n    /* \"#utility.yul\":4704:4713   */\n  dup6\n    /* \"#utility.yul\":4700:4718   */\n  add\n    /* \"#utility.yul\":4687:4718   */\n  swap5\n  pop\n    /* \"#utility.yul\":4561:4565   */\n  0x20\n    /* \"#utility.yul\":4558:4559   */\n  dup2\n    /* \"#utility.yul\":4554:4566   */\n  add\n    /* \"#utility.yul\":4549:4566   */\n  swap1\n  pop\n    /* \"#utility.yul\":4524:4732   */\n  jump(tag_97)\ntag_99:\n    /* \"#utility.yul\":4760:4766   */\n  dup7\n    /* \"#utility.yul\":4751:4758   */\n  dup4\n    /* \"#utility.yul\":4748:4767   */\n  lt\n    /* \"#utility.yul\":4745:4924   */\n  iszero\n  tag_100\n  jumpi\n    /* \"#utility.yul\":4818:4827   */\n  dup5\n    /* \"#utility.yul\":4813:4816   */\n  dup10\n    /* \"#utility.yul\":4809:4828   */\n  add\n    /* \"#utility.yul\":4803:4829   */\n  mload\n    /* \"#utility.yul\":4861:4909   */\n  tag_101\n    /* \"#utility.yul\":4903:4907   */\n  0x1f\n    /* \"#utility.yul\":4895:4901   */\n  dup10\n    /* \"#utility.yul\":4891:4908   */\n  and\n    /* \"#utility.yul\":4880:4889   */\n  dup3\n    /* \"#utility.yul\":4861:4909   */\n  tag_33\n  jump\t// in\ntag_101:\n    /* \"#utility.yul\":4853:4859   */\n  dup4\n    /* \"#utility.yul\":4846:4910   */\n  sstore\n    /* \"#utility.yul\":4768:4924   */\n  pop\n    /* \"#utility.yul\":4745:4924   */\ntag_100:\n    /* \"#utility.yul\":4970:4971   */\n  0x01\n    /* \"#utility.yul\":4966:4967   */\n  0x02\n    /* \"#utility.yul\":4958:4964   */\n  dup9\n    /* \"#utility.yul\":4954:4968   */\n  mul\n    /* \"#utility.yul\":4950:4972   */\n  add\n    /* \"#utility.yul\":4944:4948   */\n  dup9\n    /* \"#utility.yul\":4937:4973   */\n  sstore\n    /* \"#utility.yul\":4372:4983   */\n  pop\n  pop\n  pop\n    /* \"#utility.yul\":4335:5222   */\ntag_92:\n  pop\n    /* \"#utility.yul\":3925:5228   */\n  pop\n  pop\n  pop\n    /* \"#utility.yul\":3833:5228   */\n  pop\n  pop\n  jump\t// out\n    /* \"#utility.yul\":5234:5414   */\ntag_35:\n    /* \"#utility.yul\":5282:5359   */\n  0x4e487b7100000000000000000000000000000000000000000000000000000000\n    /* \"#utility.yul\":5279:5280   */\n  0x00\n    /* \"#utility.yul\":5272:5360   */\n  mstore\n    /* \"#utility.yul\":5379:5383   */\n  0x11\n    /* \"#utility.yul\":5376:5377   */\n  0x04\n    /* \"#utility.yul\":5369:5384   */\n  mstore\n    /* \"#utility.yul\":5403:5407   */\n  0x24\n    /* \"#utility.yul\":5400:5401   */\n  0x00\n    /* \"#utility.yul\":5393:5408   */\n  revert\n    /* \"#utility.yul\":5420:5522   */\ntag_36:\n    /* \"#utility.yul\":5462:5470   */\n  0x00\n    /* \"#utility.yul\":5509:5514   */\n  dup2\n    /* \"#utility.yul\":5506:5507   */\n  0x01\n    /* \"#utility.yul\":5502:5515   */\n  shr\n    /* \"#utility.yul\":5481:5515   */\n  swap1\n  pop\n    /* \"#utility.yul\":5420:5522   */\n  swap2\n  swap1\n  pop\n  jump\t// out\n    /* \"#utility.yul\":5528:6376   */\ntag_37:\n    /* \"#utility.yul\":5589:5594   */\n  0x00\n    /* \"#utility.yul\":5596:5600   */\n  0x00\n    /* \"#utility.yul\":5620:5626   */\n  dup3\n    /* \"#utility.yul\":5611:5626   */\n  swap2\n  pop\n    /* \"#utility.yul\":5644:5649   */\n  dup4\n    /* \"#utility.yul\":5635:5649   */\n  swap1\n  pop\n    /* \"#utility.yul\":5658:6370   */\ntag_105:\n    /* \"#utility.yul\":5679:5680   */\n  0x01\n    /* \"#utility.yul\":5669:5677   */\n  dup6\n    /* \"#utility.yul\":5666:5681   */\n  gt\n    /* \"#utility.yul\":5658:6370   */\n  iszero\n  tag_107\n  jumpi\n    /* \"#utility.yul\":5774:5778   */\n  dup1\n    /* \"#utility.yul\":5769:5772   */\n  dup7\n    /* \"#utility.yul\":5765:5779   */\n  div\n    /* \"#utility.yul\":5759:5763   */\n  dup2\n    /* \"#utility.yul\":5756:5780   */\n  gt\n    /* \"#utility.yul\":5753:5803   */\n  iszero\n  tag_108\n  jumpi\n    /* \"#utility.yul\":5783:5801   */\n  tag_109\n  tag_35\n  jump\t// in\ntag_109:\n    /* \"#utility.yul\":5753:5803   */\ntag_108:\n    /* \"#utility.yul\":5833:5834   */\n  0x01\n    /* \"#utility.yul\":5823:5831   */\n  dup6\n    /* \"#utility.yul\":5819:5835   */\n  and\n    /* \"#utility.yul\":5816:6267   */\n  iszero\n  tag_110\n  jumpi\n    /* \"#utility.yul\":6248:6252   */\n  dup1\n    /* \"#utility.yul\":6241:6246   */\n  dup3\n    /* \"#utility.yul\":6237:6253   */\n  mul\n    /* \"#utility.yul\":6228:6253   */\n  swap2\n  pop\n    /* \"#utility.yul\":5816:6267   */\ntag_110:\n    /* \"#utility.yul\":6298:6302   */\n  dup1\n    /* \"#utility.yul\":6292:6296   */\n  dup2\n    /* \"#utility.yul\":6288:6303   */\n  mul\n    /* \"#utility.yul\":6280:6303   */\n  swap1\n  pop\n    /* \"#utility.yul\":6328:6360   */\n  tag_111\n    /* \"#utility.yul\":6351:6359   */\n  dup6\n    /* \"#utility.yul\":6328:6360   */\n  tag_36\n  jump\t// in\ntag_111:\n    /* \"#utility.yul\":6316:6360   */\n  swap5\n  pop\n    /* \"#utility.yul\":5658:6370   */\n  jump(tag_105)\ntag_107:\n    /* \"#utility.yul\":5528:6376   */\n  swap5\n  pop\n  swap5\n  swap3\n  pop\n  pop\n  pop\n  jump\t// out\n    /* \"#utility.yul\":6382:7455   */\ntag_38:\n    /* \"#utility.yul\":6436:6441   */\n  0x00\n    /* \"#utility.yul\":6627:6635   */\n  dup3\n    /* \"#utility.yul\":6617:6657   */\n  tag_113\n  jumpi\n    /* \"#utility.yul\":6648:6649   */\n  0x01\n    /* \"#utility.yul\":6639:6649   */\n  swap1\n  pop\n    /* \"#utility.yul\":6650:6655   */\n  jump(tag_112)\n    /* \"#utility.yul\":6617:6657   */\ntag_113:\n    /* \"#utility.yul\":6676:6680   */\n  dup2\n    /* \"#utility.yul\":6666:6702   */\n  tag_114\n  jumpi\n    /* \"#utility.yul\":6693:6694   */\n  0x00\n    /* \"#utility.yul\":6684:6694   */\n  swap1\n  pop\n    /* \"#utility.yul\":6695:6700   */\n  jump(tag_112)\n    /* \"#utility.yul\":6666:6702   */\ntag_114:\n    /* \"#utility.yul\":6762:6766   */\n  dup2\n    /* \"#utility.yul\":6810:6811   */\n  0x01\n    /* \"#utility.yul\":6805:6832   */\n  dup2\n  eq\n  tag_116\n  jumpi\n    /* \"#utility.yul\":6846:6847   */\n  0x02\n    /* \"#utility.yul\":6841:7032   */\n  dup2\n  eq\n  tag_117\n  jumpi\n    /* \"#utility.yul\":6755:7032   */\n  jump(tag_115)\n    /* \"#utility.yul\":6805:6832   */\ntag_116:\n    /* \"#utility.yul\":6823:6824   */\n  0x01\n    /* \"#utility.yul\":6814:6824   */\n  swap2\n  pop\n    /* \"#utility.yul\":6825:6830   */\n  pop\n  jump(tag_112)\n    /* \"#utility.yul\":6841:7032   */\ntag_117:\n    /* \"#utility.yul\":6886:6889   */\n  0xff\n    /* \"#utility.yul\":6876:6884   */\n  dup5\n    /* \"#utility.yul\":6873:6890   */\n  gt\n    /* \"#utility.yul\":6870:6913   */\n  iszero\n  tag_118\n  jumpi\n    /* \"#utility.yul\":6893:6911   */\n  tag_119\n  tag_35\n  jump\t// in\ntag_119:\n    /* \"#utility.yul\":6870:6913   */\ntag_118:\n    /* \"#utility.yul\":6942:6950   */\n  dup4\n    /* \"#utility.yul\":6939:6940   */\n  0x02\n    /* \"#utility.yul\":6935:6951   */\n  exp\n    /* \"#utility.yul\":6926:6951   */\n  swap2\n  pop\n    /* \"#utility.yul\":6977:6980   */\n  dup5\n    /* \"#utility.yul\":6970:6975   */\n  dup3\n    /* \"#utility.yul\":6967:6981   */\n  gt\n    /* \"#utility.yul\":6964:7004   */\n  iszero\n  tag_120\n  jumpi\n    /* \"#utility.yul\":6984:7002   */\n  tag_121\n  tag_35\n  jump\t// in\ntag_121:\n    /* \"#utility.yul\":6964:7004   */\ntag_120:\n    /* \"#utility.yul\":7017:7022   */\n  pop\n  jump(tag_112)\n    /* \"#utility.yul\":6755:7032   */\ntag_115:\n  pop\n    /* \"#utility.yul\":7141:7143   */\n  0x20\n    /* \"#utility.yul\":7131:7139   */\n  dup4\n    /* \"#utility.yul\":7128:7144   */\n  lt\n    /* \"#utility.yul\":7122:7125   */\n  0x0133\n    /* \"#utility.yul\":7116:7120   */\n  dup4\n    /* \"#utility.yul\":7113:7126   */\n  lt\n    /* \"#utility.yul\":7109:7145   */\n  and\n    /* \"#utility.yul\":7091:7093   */\n  0x4e\n    /* \"#utility.yul\":7081:7089   */\n  dup5\n    /* \"#utility.yul\":7078:7094   */\n  lt\n    /* \"#utility.yul\":7073:7075   */\n  0x0b\n    /* \"#utility.yul\":7067:7071   */\n  dup5\n    /* \"#utility.yul\":7064:7076   */\n  lt\n    /* \"#utility.yul\":7060:7095   */\n  and\n    /* \"#utility.yul\":7044:7155   */\n  or\n    /* \"#utility.yul\":7041:7287   */\n  iszero\n  tag_122\n  jumpi\n    /* \"#utility.yul\":7197:7205   */\n  dup3\n    /* \"#utility.yul\":7191:7195   */\n  dup3\n    /* \"#utility.yul\":7187:7206   */\n  exp\n    /* \"#utility.yul\":7178:7206   */\n  swap1\n  pop\n    /* \"#utility.yul\":7232:7235   */\n  dup4\n    /* \"#utility.yul\":7225:7230   */\n  dup2\n    /* \"#utility.yul\":7222:7236   */\n  gt\n    /* \"#utility.yul\":7219:7259   */\n  iszero\n  tag_123\n  jumpi\n    /* \"#utility.yul\":7239:7257   */\n  tag_124\n  tag_35\n  jump\t// in\ntag_124:\n    /* \"#utility.yul\":7219:7259   */\ntag_123:\n    /* \"#utility.yul\":7272:7277   */\n  jump(tag_112)\n    /* \"#utility.yul\":7041:7287   */\ntag_122:\n    /* \"#utility.yul\":7312:7354   */\n  tag_125\n    /* \"#utility.yul\":7350:7353   */\n  dup5\n    /* \"#utility.yul\":7340:7348   */\n  dup5\n    /* \"#utility.yul\":7334:7338   */\n  dup5\n    /* \"#utility.yul\":7331:7332   */\n  0x01\n    /* \"#utility.yul\":7312:7354   */\n  tag_37\n  jump\t// in\ntag_125:\n    /* \"#utility.yul\":7297:7354   */\n  swap3\n  pop\n  swap1\n  pop\n    /* \"#utility.yul\":7386:7390   */\n  dup2\n    /* \"#utility.yul\":7381:7384   */\n  dup5\n    /* \"#utility.yul\":7377:7391   */\n  div\n    /* \"#utility.yul\":7370:7375   */\n  dup2\n    /* \"#utility.yul\":7367:7392   */\n  gt\n    /* \"#utility.yul\":7364:7415   */\n  iszero\n  tag_126\n  jumpi\n    /* \"#utility.yul\":7395:7413   */\n  tag_127\n  tag_35\n  jump\t// in\ntag_127:\n    /* \"#utility.yul\":7364:7415   */\ntag_126:\n    /* \"#utility.yul\":7444:7448   */\n  dup2\n    /* \"#utility.yul\":7437:7442   */\n  dup2\n    /* \"#utility.yul\":7433:7449   */\n  mul\n    /* \"#utility.yul\":7424:7449   */\n  swap1\n  pop\n    /* \"#utility.yul\":6382:7455   */\ntag_112:\n  swap4\n  swap3\n  pop\n  pop\n  pop\n  jump\t// out\n    /* \"#utility.yul\":7461:7746   */\ntag_7:\n    /* \"#utility.yul\":7521:7526   */\n  0x00\n    /* \"#utility.yul\":7545:7568   */\n  tag_129\n    /* \"#utility.yul\":7563:7567   */\n  dup3\n    /* \"#utility.yul\":7545:7568   */\n  tag_23\n  jump\t// in\ntag_129:\n    /* \"#utility.yul\":7537:7568   */\n  swap2\n  pop\n    /* \"#utility.yul\":7589:7616   */\n  tag_130\n    /* \"#utility.yul\":7607:7615   */\n  dup4\n    /* \"#utility.yul\":7589:7616   */\n  tag_23\n  jump\t// in\ntag_130:\n    /* \"#utility.yul\":7577:7616   */\n  swap3\n  pop\n    /* \"#utility.yul\":7635:7739   */\n  tag_131\n    /* \"#utility.yul\":7672:7738   */\n  0xffffffffffffffffffffffffffffffffffffffffffffffffffffffffffffffff\n    /* \"#utility.yul\":7662:7670   */\n  dup5\n    /* \"#utility.yul\":7656:7660   */\n  dup5\n    /* \"#utility.yul\":7635:7739   */\n  tag_38\n  jump\t// in\ntag_131:\n    /* \"#utility.yul\":7626:7739   */\n  swap1\n  pop\n    /* \"#utility.yul\":7461:7746   */\n  swap3\n  swap2\n  pop\n  pop\n  jump\t// out\n    /* \"#utility.yul\":7752:8162   */\ntag_9:\n    /* \"#utility.yul\":7792:7799   */\n  0x00\n    /* \"#utility.yul\":7815:7835   */\n  tag_133\n    /* \"#utility.yul\":7833:7834   */\n  dup3\n    /* \"#utility.yul\":7815:7835   */\n  tag_23\n  jump\t// in\ntag_133:\n    /* \"#utility.yul\":7810:7835   */\n  swap2\n  pop\n    /* \"#utility.yul\":7849:7869   */\n  tag_134\n    /* \"#utility.yul\":7867:7868   */\n  dup4\n    /* \"#utility.yul\":7849:7869   */\n  tag_23\n  jump\t// in\ntag_134:\n    /* \"#utility.yul\":7844:7869   */\n  swap3\n  pop\n    /* \"#utility.yul\":7904:7905   */\n  dup3\n    /* \"#utility.yul\":7901:7902   */\n  dup3\n    /* \"#utility.yul\":7897:7906   */\n  mul\n    /* \"#utility.yul\":7926:7956   */\n  tag_135\n    /* \"#utility.yul\":7944:7955   */\n  dup2\n    /* \"#utility.yul\":7926:7956   */\n  tag_23\n  jump\t// in\ntag_135:\n    /* \"#utility.yul\":7915:7956   */\n  swap2\n  pop\n    /* \"#utility.yul\":8105:8106   */\n  dup3\n    /* \"#utility.yul\":8096:8103   */\n  dup3\n    /* \"#utility.yul\":8092:8107   */\n  div\n    /* \"#utility.yul\":8089:8090   */\n  dup5\n    /* \"#utility.yul\":8086:8108   */\n  eq\n    /* \"#utility.yul\":8066:8067   */\n  dup4\n    /* \"#utility.yul\":8059:8068   */\n  iszero\n    /* \"#utility.yul\":8039:8122   */\n  or\n    /* \"#utility.yul\":8016:8155   */\n  tag_136\n  jumpi\n    /* \"#utility.yul\":8135:8153   */\n  tag_137\n  tag_35\n  jump\t// in\ntag_137:\n    /* \"#utility.yul\":8016:8155   */\ntag_136:\n    /* \"#utility.yul\":7800:8162   */\n  pop\n    /* \"#utility.yul\":7752:8162   */\n  swap3\n  swap2\n  pop\n  pop\n  jump\t// out\n    /* \"#utility.yul\":8168:8286   */\ntag_39:\n    /* \"#utility.yul\":8255:8279   */\n  tag_139\n    /* \"#utility.yul\":8273:8278   */\n  dup2\n    /* \"#utility.yul\":8255:8279   */\n  tag_23\n  jump\t// in\ntag_139:\n    /* \"#utility.yul\":8250:8253   */\n  dup3\n    /* \"#utility.yul\":8243:8280   */\n  mstore\n    /* \"#utility.yul\":8168:8286   */\n  pop\n  pop\n  jump\t// out\n    /* \"#utility.yul\":8292:8514   */\ntag_13:\n    /* \"#utility.yul\":8385:8389   */\n  0x00\n    /* \"#utility.yul\":8423:8425   */\n  0x20\n    /* \"#utility.yul\":8412:8421   */\n  dup3\n    /* \"#utility.yul\":8408:8426   */\n  add\n    /* \"#utility.yul\":8400:8426   */\n  swap1\n  pop\n    /* \"#utility.yul\":8436:8507   */\n  tag_141\n    /* \"#utility.yul\":8504:8505   */\n  0x00\n    /* \"#utility.yul\":8493:8502   */\n  dup4\n    /* \"#utility.yul\":8489:8506   */\n  add\n    /* \"#utility.yul\":8480:8486   */\n  dup5\n    /* \"#utility.yul\":8436:8507   */\n  tag_39\n  jump\t// in\ntag_141:\n    /* \"#utility.yul\":8292:8514   */\n  swap3\n  swap2\n  pop\n  pop\n  jump\t// out\n    /* \"YK Prime.sol\":986:6519  contract YK {... */\ntag_14:\n  dataSize(sub_0)\n  dup1\n  dataOffset(sub_0)\n  0x00\n  codecopy\n  0x00\n  return\nstop\n\nsub_0: assembly {\n        /* \"YK Prime.sol\":986:6519  contract YK {... */\n      mstore(0x40, 0x80)\n      jumpi(tag_1, lt(calldatasize, 0x04))\n      shr(0xe0, calldataload(0x00))\n      dup1\n      0x5c975abb\n      gt\n      tag_26\n      jumpi\n      dup1\n      0xa3673981\n      gt\n      tag_27\n      jumpi\n      dup1\n      0xa3673981\n      eq\n      tag_20\n      jumpi\n      dup1\n      0xa9059cbb\n      eq\n      tag_21\n      jumpi\n      dup1\n      0xc84aae17\n      eq\n      tag_22\n      jumpi\n      dup1\n      0xce606ee0\n      eq\n      tag_23\n      jumpi\n      dup1\n      0xdd62ed3e\n      eq\n      tag_24\n      jumpi\n      dup1\n      0xf2fde38b\n      eq\n      tag_25\n      jumpi\n      jump(tag_2)\n    tag_27:\n      dup1\n      0x5c975abb\n      eq\n      tag_14\n      jumpi\n      dup1\n      0x5f1e015a\n      eq\n      tag_15\n      jumpi\n      dup1\n      0x6bb38b28\n      eq\n      tag_16\n      jumpi\n      dup1\n      0x70a08231\n      eq\n      tag_17\n      jumpi\n      dup1\n      0x8456cb59\n      eq\n      tag_18\n      jumpi\n      dup1\n      0x95d89b41\n      eq\n      tag_19\n      jumpi\n      jump(tag_2)\n    tag_26:\n      dup1\n      0x194307bf\n      gt\n      tag_28\n      jumpi\n      dup1\n      0x194307bf\n      eq\n      tag_8\n      jumpi\n      dup1\n      0x1a50fac4\n      eq\n      tag_9\n      jumpi\n      dup1\n      0x23b872dd\n      eq\n      tag_10\n      jumpi\n      dup1\n      0x2513793f\n      eq\n      tag_11\n      jumpi\n      dup1\n      0x313ce567\n      eq\n      tag_12\n      jumpi\n      dup1\n      0x3f4ba83a\n      eq\n      tag_13\n      jumpi\n      jump(tag_2)\n    tag_28:\n      dup1\n      0x06fdde03\n      eq\n      tag_3\n      jumpi\n      dup1\n      0x095ea7b3\n      eq\n      tag_4\n      jumpi\n      dup1\n      0x0c08bf88\n      eq\n      tag_5\n      jumpi\n      dup1\n      0x12b659bb\n      eq\n      tag_6\n      jumpi\n      dup1\n      0x18160ddd\n      eq\n      tag_7\n      jumpi\n      jump(tag_2)\n    tag_1:\n      jumpi(tag_2, calldatasize)\n        /* \"YK Prime.sol\":6482:6508  revert(\"ETH not accepted\") */\n      mload(0x40)\n      0x08c379a000000000000000000000000000000000000000000000000000000000\n      dup2\n      mstore\n      0x04\n      add\n      tag_31\n      swap1\n      tag_32\n      jump\t// in\n    tag_31:\n      mload(0x40)\n      dup1\n      swap2\n      sub\n      swap1\n      revert\n        /* \"YK Prime.sol\":986:6519  contract YK {... */\n    tag_2:\n      revert(0x00, 0x00)\n        /* \"YK Prime.sol\":1005:1045  string public constant name = TOKEN_NAME */\n    tag_3:\n      callvalue\n      dup1\n      iszero\n      tag_33\n      jumpi\n      revert(0x00, 0x00)\n    tag_33:\n      pop\n      tag_34\n      tag_35\n      jump\t// in\n    tag_34:\n      mload(0x40)\n      tag_36\n      swap2\n      swap1\n      tag_37\n      jump\t// in\n    tag_36:\n      mload(0x40)\n      dup1\n      swap2\n      sub\n      swap1\n      return\n        /* \"YK Prime.sol\":3940:4314  function approve(address spender, uint256 amount) public whenNotPaused whenActive returns (bool) {... */\n    tag_4:\n      callvalue\n      dup1\n      iszero\n      tag_38\n      jumpi\n      revert(0x00, 0x00)\n    tag_38:\n      pop\n      tag_39\n      0x04\n      dup1\n      calldatasize\n      sub\n      dup2\n      add\n      swap1\n      tag_40\n      swap2\n      swap1\n      tag_41\n      jump\t// in\n    tag_40:\n      tag_42\n      jump\t// in\n    tag_39:\n      mload(0x40)\n      tag_43\n      swap2\n      swap1\n      tag_44\n      jump\t// in\n    tag_43:\n      mload(0x40)\n      dup1\n      swap2\n      sub\n      swap1\n      return\n        /* \"YK Prime.sol\":2950:3062  function terminate() public onlyOwner {... */\n    tag_5:\n      callvalue\n      dup1\n      iszero\n      tag_45\n      jumpi\n      revert(0x00, 0x00)\n    tag_45:\n      pop\n      tag_46\n      tag_47\n      jump\t// in\n    tag_46:\n      stop\n        /* \"YK Prime.sol\":6018:6185  function getOriginalAllowance(address tokenOwner, address spender) public view returns (uint256) {... */\n    tag_6:\n      callvalue\n      dup1\n      iszero\n      tag_48\n      jumpi\n      revert(0x00, 0x00)\n    tag_48:\n      pop\n      tag_49\n      0x04\n      dup1\n      calldatasize\n      sub\n      dup2\n      add\n      swap1\n      tag_50\n      swap2\n      swap1\n      tag_51\n      jump\t// in\n    tag_50:\n      tag_52\n      jump\t// in\n    tag_49:\n      mload(0x40)\n      tag_53\n      swap2\n      swap1\n      tag_54\n      jump\t// in\n    tag_53:\n      mload(0x40)\n      dup1\n      swap2\n      sub\n      swap1\n      return\n        /* \"YK Prime.sol\":1157:1235  uint256 public constant totalSupply = TOKEN_SUPPLY * (10 ** uint256(decimals)) */\n    tag_7:\n      callvalue\n      dup1\n      iszero\n      tag_55\n      jumpi\n      revert(0x00, 0x00)\n    tag_55:\n      pop\n      tag_56\n      tag_57\n      jump\t// in\n    tag_56:\n      mload(0x40)\n      tag_58\n      swap2\n      swap1\n      tag_54\n      jump\t// in\n    tag_58:\n      mload(0x40)\n      dup1\n      swap2\n      sub\n      swap1\n      return\n        /* \"YK Prime.sol\":1332:1354  bool public terminated */\n    tag_8:\n      callvalue\n      dup1\n      iszero\n      tag_59\n      jumpi\n      revert(0x00, 0x00)\n    tag_59:\n      pop\n      tag_60\n      tag_61\n      jump\t// in\n    tag_60:\n      mload(0x40)\n      tag_62\n      swap2\n      swap1\n      tag_44\n      jump\t// in\n    tag_62:\n      mload(0x40)\n      dup1\n      swap2\n      sub\n      swap1\n      return\n        /* \"YK Prime.sol\":5665:5782  function getOriginalTotalSupply() public view returns (uint256) {... */\n    tag_9:\n      callvalue\n      dup1\n      iszero\n      tag_63\n      jumpi\n      revert(0x00, 0x00)\n    tag_63:\n      pop\n      tag_64\n      tag_65\n      jump\t// in\n    tag_64:\n      mload(0x40)\n      tag_66\n      swap2\n      swap1\n      tag_54\n      jump\t// in\n    tag_66:\n      mload(0x40)\n      dup1\n      swap2\n      sub\n      swap1\n      return\n        /* \"YK Prime.sol\":4322:5014  function transferFrom(address sender, address recipient, uint256 amount) public whenNotPaused whenActive returns (bool) {... */\n    tag_10:\n      callvalue\n      dup1\n      iszero\n      tag_67\n      jumpi\n      revert(0x00, 0x00)\n    tag_67:\n      pop\n      tag_68\n      0x04\n      dup1\n      calldatasize\n      sub\n      dup2\n      add\n      swap1\n      tag_69\n      swap2\n      swap1\n      tag_70\n      jump\t// in\n    tag_69:\n      tag_71\n      jump\t// in\n    tag_68:\n      mload(0x40)\n      tag_72\n      swap2\n      swap1\n      tag_44\n      jump\t// in\n    tag_72:\n      mload(0x40)\n      dup1\n      swap2\n      sub\n      swap1\n      return\n        /* \"YK Prime.sol\":5427:5536  function getOriginalName() public view returns (string memory) {... */\n    tag_11:\n      callvalue\n      dup1\n      iszero\n      tag_73\n      jumpi\n      revert(0x00, 0x00)\n    tag_73:\n      pop\n      tag_74\n      tag_75\n      jump\t// in\n    tag_74:\n      mload(0x40)\n      tag_76\n      swap2\n      swap1\n      tag_37\n      jump\t// in\n    tag_76:\n      mload(0x40)\n      dup1\n      swap2\n      sub\n      swap1\n      return\n        /* \"YK Prime.sol\":1103:1150  uint8 public constant decimals = TOKEN_DECIMALS */\n    tag_12:\n      callvalue\n      dup1\n      iszero\n      tag_77\n      jumpi\n      revert(0x00, 0x00)\n    tag_77:\n      pop\n      tag_78\n      tag_79\n      jump\t// in\n    tag_78:\n      mload(0x40)\n      tag_80\n      swap2\n      swap1\n      tag_81\n      jump\t// in\n    tag_80:\n      mload(0x40)\n      dup1\n      swap2\n      sub\n      swap1\n      return\n        /* \"YK Prime.sol\":2761:2866  function unpause() public onlyOwner {... */\n    tag_13:\n      callvalue\n      dup1\n      iszero\n      tag_82\n      jumpi\n      revert(0x00, 0x00)\n    tag_82:\n      pop\n      tag_83\n      tag_84\n      jump\t// in\n    tag_83:\n      stop\n        /* \"YK Prime.sol\":1307:1325  bool public paused */\n    tag_14:\n      callvalue\n      dup1\n      iszero\n      tag_85\n      jumpi\n      revert(0x00, 0x00)\n    tag_85:\n      pop\n      tag_86\n      tag_87\n      jump\t// in\n    tag_86:\n      mload(0x40)\n      tag_88\n      swap2\n      swap1\n      tag_44\n      jump\t// in\n    tag_88:\n      mload(0x40)\n      dup1\n      swap2\n      sub\n      swap1\n      return\n        /* \"YK Prime.sol\":5790:6010  function getOriginalBalance(address account) public returns (uint256) {... */\n    tag_15:\n      callvalue\n      dup1\n      iszero\n      tag_89\n      jumpi\n      revert(0x00, 0x00)\n    tag_89:\n      pop\n      tag_90\n      0x04\n      dup1\n      calldatasize\n      sub\n      dup2\n      add\n      swap1\n      tag_91\n      swap2\n      swap1\n      tag_92\n      jump\t// in\n    tag_91:\n      tag_93\n      jump\t// in\n    tag_90:\n      mload(0x40)\n      tag_94\n      swap2\n      swap1\n      tag_54\n      jump\t// in\n    tag_94:\n      mload(0x40)\n      dup1\n      swap2\n      sub\n      swap1\n      return\n        /* \"YK Prime.sol\":1242:1263  string public logoURI */\n    tag_16:\n      callvalue\n      dup1\n      iszero\n      tag_95\n      jumpi\n      revert(0x00, 0x00)\n    tag_95:\n      pop\n      tag_96\n      tag_97\n      jump\t// in\n    tag_96:\n      mload(0x40)\n      tag_98\n      swap2\n      swap1\n      tag_37\n      jump\t// in\n    tag_98:\n      mload(0x40)\n      dup1\n      swap2\n      sub\n      swap1\n      return\n        /* \"YK Prime.sol\":5053:5163  function balanceOf(address account) public view returns (uint256) {... */\n    tag_17:\n      callvalue\n      dup1\n      iszero\n      tag_99\n      jumpi\n      revert(0x00, 0x00)\n    tag_99:\n      pop\n      tag_100\n      0x04\n      dup1\n      calldatasize\n      sub\n      dup2\n      add\n      swap1\n      tag_101\n      swap2\n      swap1\n      tag_92\n      jump\t// in\n    tag_101:\n      tag_102\n      jump\t// in\n    tag_100:\n      mload(0x40)\n      tag_103\n      swap2\n      swap1\n      tag_54\n      jump\t// in\n    tag_103:\n      mload(0x40)\n      dup1\n      swap2\n      sub\n      swap1\n      return\n        /* \"YK Prime.sol\":2653:2753  function pause() public onlyOwner {... */\n    tag_18:\n      callvalue\n      dup1\n      iszero\n      tag_104\n      jumpi\n      revert(0x00, 0x00)\n    tag_104:\n      pop\n      tag_105\n      tag_106\n      jump\t// in\n    tag_105:\n      stop\n        /* \"YK Prime.sol\":1052:1096  string public constant symbol = TOKEN_SYMBOL */\n    tag_19:\n      callvalue\n      dup1\n      iszero\n      tag_107\n      jumpi\n      revert(0x00, 0x00)\n    tag_107:\n      pop\n      tag_108\n      tag_109\n      jump\t// in\n    tag_108:\n      mload(0x40)\n      tag_110\n      swap2\n      swap1\n      tag_37\n      jump\t// in\n    tag_110:\n      mload(0x40)\n      dup1\n      swap2\n      sub\n      swap1\n      return\n        /* \"YK Prime.sol\":5544:5657  function getOriginalSymbol() public view returns (string memory) {... */\n    tag_20:\n      callvalue\n      dup1\n      iszero\n      tag_111\n      jumpi\n      revert(0x00, 0x00)\n    tag_111:\n      pop\n      tag_112\n      tag_113\n      jump\t// in\n    tag_112:\n      mload(0x40)\n      tag_114\n      swap2\n      swap1\n      tag_37\n      jump\t// in\n    tag_114:\n      mload(0x40)\n      dup1\n      swap2\n      sub\n      swap1\n      return\n        /* \"YK Prime.sol\":3396:3932  function transfer(address recipient, uint256 amount) public whenNotPaused whenActive returns (bool) {... */\n    tag_21:\n      callvalue\n      dup1\n      iszero\n      tag_115\n      jumpi\n      revert(0x00, 0x00)\n    tag_115:\n      pop\n      tag_116\n      0x04\n      dup1\n      calldatasize\n      sub\n      dup2\n      add\n      swap1\n      tag_117\n      swap2\n      swap1\n      tag_41\n      jump\t// in\n    tag_117:\n      tag_118\n      jump\t// in\n    tag_116:\n      mload(0x40)\n      tag_119\n      swap2\n      swap1\n      tag_44\n      jump\t// in\n    tag_119:\n      mload(0x40)\n      dup1\n      swap2\n      sub\n      swap1\n      return\n        /* \"YK Prime.sol\":6193:6381  function getBalances(address account) public view returns (uint256 originalBalance, uint256 currentBalance) {... */\n    tag_22:\n      callvalue\n      dup1\n      iszero\n      tag_120\n      jumpi\n      revert(0x00, 0x00)\n    tag_120:\n      pop\n      tag_121\n      0x04\n      dup1\n      calldatasize\n      sub\n      dup2\n      add\n      swap1\n      tag_122\n      swap2\n      swap1\n      tag_92\n      jump\t// in\n    tag_122:\n      tag_123\n      jump\t// in\n    tag_121:\n      mload(0x40)\n      tag_124\n      swap3\n      swap2\n      swap1\n      tag_125\n      jump\t// in\n    tag_124:\n      mload(0x40)\n      dup1\n      swap2\n      sub\n      swap1\n      return\n        /* \"YK Prime.sol\":1272:1300  address public contractOwner */\n    tag_23:\n      callvalue\n      dup1\n      iszero\n      tag_126\n      jumpi\n      revert(0x00, 0x00)\n    tag_126:\n      pop\n      tag_127\n      tag_128\n      jump\t// in\n    tag_127:\n      mload(0x40)\n      tag_129\n      swap2\n      swap1\n      tag_130\n      jump\t// in\n    tag_129:\n      mload(0x40)\n      dup1\n      swap2\n      sub\n      swap1\n      return\n        /* \"YK Prime.sol\":5210:5344  function allowance(address owner, address spender) public view returns (uint256) {... */\n    tag_24:\n      callvalue\n      dup1\n      iszero\n      tag_131\n      jumpi\n      revert(0x00, 0x00)\n    tag_131:\n      pop\n      tag_132\n      0x04\n      dup1\n      calldatasize\n      sub\n      dup2\n      add\n      swap1\n      tag_133\n      swap2\n      swap1\n      tag_51\n      jump\t// in\n    tag_133:\n      tag_134\n      jump\t// in\n    tag_132:\n      mload(0x40)\n      tag_135\n      swap2\n      swap1\n      tag_54\n      jump\t// in\n    tag_135:\n      mload(0x40)\n      dup1\n      swap2\n      sub\n      swap1\n      return\n        /* \"YK Prime.sol\":3145:3388  function transferOwnership(address newOwner) public onlyOwner {... */\n    tag_25:\n      callvalue\n      dup1\n      iszero\n      tag_136\n      jumpi\n      revert(0x00, 0x00)\n    tag_136:\n      pop\n      tag_137\n      0x04\n      dup1\n      calldatasize\n      sub\n      dup2\n      add\n      swap1\n      tag_138\n      swap2\n      swap1\n      tag_92\n      jump\t// in\n    tag_138:\n      tag_139\n      jump\t// in\n    tag_137:\n      stop\n        /* \"YK Prime.sol\":1005:1045  string public constant name = TOKEN_NAME */\n    tag_35:\n        /* \"YK Prime.sol\":1035:1045  TOKEN_NAME */\n      mload(0x40)\n      dup1\n      0x40\n      add\n      0x40\n      mstore\n      dup1\n      0x08\n      dup2\n      mstore\n      0x20\n      add\n      0x594b205072696d65000000000000000000000000000000000000000000000000\n      dup2\n      mstore\n      pop\n        /* \"YK Prime.sol\":1005:1045  string public constant name = TOKEN_NAME */\n      dup2\n      jump\t// out\n        /* \"YK Prime.sol\":3940:4314  function approve(address spender, uint256 amount) public whenNotPaused whenActive returns (bool) {... */\n    tag_42:\n        /* \"YK Prime.sol\":4031:4035  bool */\n      0x00\n        /* \"YK Prime.sol\":2216:2222  paused */\n      0x01\n      0x14\n      swap1\n      sload\n      swap1\n      0x0100\n      exp\n      swap1\n      div\n      0xff\n      and\n        /* \"YK Prime.sol\":2215:2222  !paused */\n      iszero\n        /* \"YK Prime.sol\":2207:2245  require(!paused, \"Contract is paused\") */\n      tag_141\n      jumpi\n      mload(0x40)\n      0x08c379a000000000000000000000000000000000000000000000000000000000\n      dup2\n      mstore\n      0x04\n      add\n      tag_142\n      swap1\n      tag_143\n      jump\t// in\n    tag_142:\n      mload(0x40)\n      dup1\n      swap2\n      sub\n      swap1\n      revert\n    tag_141:\n        /* \"YK Prime.sol\":2315:2325  terminated */\n      0x01\n      0x15\n      swap1\n      sload\n      swap1\n      0x0100\n      exp\n      swap1\n      div\n      0xff\n      and\n        /* \"YK Prime.sol\":2314:2325  !terminated */\n      iszero\n        /* \"YK Prime.sol\":2306:2361  require(!terminated, \"Contract permanently terminated\") */\n      tag_145\n      jumpi\n      mload(0x40)\n      0x08c379a000000000000000000000000000000000000000000000000000000000\n      dup2\n      mstore\n      0x04\n      add\n      tag_146\n      swap1\n      tag_147\n      jump\t// in\n    tag_146:\n      mload(0x40)\n      dup1\n      swap2\n      sub\n      swap1\n      revert\n    tag_145:\n        /* \"YK Prime.sol\":4075:4078  0x0 */\n      0x00\n        /* \"YK Prime.sol\":4056:4079  spender != address(0x0) */\n      0xffffffffffffffffffffffffffffffffffffffff\n      and\n        /* \"YK Prime.sol\":4056:4063  spender */\n      dup4\n        /* \"YK Prime.sol\":4056:4079  spender != address(0x0) */\n      0xffffffffffffffffffffffffffffffffffffffff\n      and\n      sub\n        /* \"YK Prime.sol\":4048:4111  require(spender != address(0x0), \"Approve to the zero address\") */\n      tag_149\n      jumpi\n      mload(0x40)\n      0x08c379a000000000000000000000000000000000000000000000000000000000\n      dup2\n      mstore\n      0x04\n      add\n      tag_150\n      swap1\n      tag_151\n      jump\t// in\n    tag_150:\n      mload(0x40)\n      dup1\n      swap2\n      sub\n      swap1\n      revert\n    tag_149:\n        /* \"YK Prime.sol\":4139:4140  0 */\n      0x00\n        /* \"YK Prime.sol\":4130:4136  amount */\n      dup3\n        /* \"YK Prime.sol\":4130:4140  amount > 0 */\n      gt\n        /* \"YK Prime.sol\":4122:4177  require(amount > 0, \"Amount must be greater than zero\") */\n      tag_152\n      jumpi\n      mload(0x40)\n      0x08c379a000000000000000000000000000000000000000000000000000000000\n      dup2\n      mstore\n      0x04\n      add\n      tag_153\n      swap1\n      tag_154\n      jump\t// in\n    tag_153:\n      mload(0x40)\n      dup1\n      swap2\n      sub\n      swap1\n      revert\n    tag_152:\n        /* \"YK Prime.sol\":4225:4231  amount */\n      dup2\n        /* \"YK Prime.sol\":4190:4201  _allowances */\n      0x03\n        /* \"YK Prime.sol\":4190:4213  _allowances[msg.sender] */\n      0x00\n        /* \"YK Prime.sol\":4202:4212  msg.sender */\n      caller\n        /* \"YK Prime.sol\":4190:4213  _allowances[msg.sender] */\n      0xffffffffffffffffffffffffffffffffffffffff\n      and\n      0xffffffffffffffffffffffffffffffffffffffff\n      and\n      dup2\n      mstore\n      0x20\n      add\n      swap1\n      dup2\n      mstore\n      0x20\n      add\n      0x00\n      keccak256\n        /* \"YK Prime.sol\":4190:4222  _allowances[msg.sender][spender] */\n      0x00\n        /* \"YK Prime.sol\":4214:4221  spender */\n      dup6\n        /* \"YK Prime.sol\":4190:4222  _allowances[msg.sender][spender] */\n      0xffffffffffffffffffffffffffffffffffffffff\n      and\n      0xffffffffffffffffffffffffffffffffffffffff\n      and\n      dup2\n      mstore\n      0x20\n      add\n      swap1\n      dup2\n      mstore\n      0x20\n      add\n      0x00\n      keccak256\n        /* \"YK Prime.sol\":4190:4231  _allowances[msg.sender][spender] = amount */\n      dup2\n      swap1\n      sstore\n      pop\n        /* \"YK Prime.sol\":4268:4275  spender */\n      dup3\n        /* \"YK Prime.sol\":4247:4284  Approval(msg.sender, spender, amount) */\n      0xffffffffffffffffffffffffffffffffffffffff\n      and\n        /* \"YK Prime.sol\":4256:4266  msg.sender */\n      caller\n        /* \"YK Prime.sol\":4247:4284  Approval(msg.sender, spender, amount) */\n      0xffffffffffffffffffffffffffffffffffffffff\n      and\n      0x8c5be1e5ebec7d5bd14f71427d1e84f3dd0314c0f7b2291e5b200ac8c7c3b925\n        /* \"YK Prime.sol\":4277:4283  amount */\n      dup5\n        /* \"YK Prime.sol\":4247:4284  Approval(msg.sender, spender, amount) */\n      mload(0x40)\n      tag_155\n      swap2\n      swap1\n      tag_54\n      jump\t// in\n    tag_155:\n      mload(0x40)\n      dup1\n      swap2\n      sub\n      swap1\n      log3\n        /* \"YK Prime.sol\":4302:4306  true */\n      0x01\n        /* \"YK Prime.sol\":4295:4306  return true */\n      swap1\n      pop\n        /* \"YK Prime.sol\":3940:4314  function approve(address spender, uint256 amount) public whenNotPaused whenActive returns (bool) {... */\n      swap3\n      swap2\n      pop\n      pop\n      jump\t// out\n        /* \"YK Prime.sol\":2950:3062  function terminate() public onlyOwner {... */\n    tag_47:\n        /* \"YK Prime.sol\":2092:2105  contractOwner */\n      0x01\n      0x00\n      swap1\n      sload\n      swap1\n      0x0100\n      exp\n      swap1\n      div\n      0xffffffffffffffffffffffffffffffffffffffff\n      and\n        /* \"YK Prime.sol\":2078:2105  msg.sender == contractOwner */\n      0xffffffffffffffffffffffffffffffffffffffff\n      and\n        /* \"YK Prime.sol\":2078:2088  msg.sender */\n      caller\n        /* \"YK Prime.sol\":2078:2105  msg.sender == contractOwner */\n      0xffffffffffffffffffffffffffffffffffffffff\n      and\n      eq\n        /* \"YK Prime.sol\":2070:2143  require(msg.sender == contractOwner, \"Only owner can call this function\") */\n      tag_157\n      jumpi\n      mload(0x40)\n      0x08c379a000000000000000000000000000000000000000000000000000000000\n      dup2\n      mstore\n      0x04\n      add\n      tag_158\n      swap1\n      tag_159\n      jump\t// in\n    tag_158:\n      mload(0x40)\n      dup1\n      swap2\n      sub\n      swap1\n      revert\n    tag_157:\n        /* \"YK Prime.sol\":3012:3016  true */\n      0x01\n        /* \"YK Prime.sol\":2999:3009  terminated */\n      dup1\n      0x15\n        /* \"YK Prime.sol\":2999:3016  terminated = true */\n      0x0100\n      exp\n      dup2\n      sload\n      dup2\n      0xff\n      mul\n      not\n      and\n      swap1\n      dup4\n      iszero\n      iszero\n      mul\n      or\n      swap1\n      sstore\n      pop\n        /* \"YK Prime.sol\":3043:3053  msg.sender */\n      caller\n        /* \"YK Prime.sol\":3032:3054  Terminated(msg.sender) */\n      0xffffffffffffffffffffffffffffffffffffffff\n      and\n      0x98cd97fc1a1cc958cbd729b1bb531d4f3ea4925470bf23ea9af386640cbd07be\n      mload(0x40)\n      mload(0x40)\n      dup1\n      swap2\n      sub\n      swap1\n      log2\n        /* \"YK Prime.sol\":2950:3062  function terminate() public onlyOwner {... */\n      jump\t// out\n        /* \"YK Prime.sol\":6018:6185  function getOriginalAllowance(address tokenOwner, address spender) public view returns (uint256) {... */\n    tag_52:\n        /* \"YK Prime.sol\":6106:6113  uint256 */\n      0x00\n        /* \"YK Prime.sol\":6133:6146  btcbrOriginal */\n      0x04\n      0x00\n      swap1\n      sload\n      swap1\n      0x0100\n      exp\n      swap1\n      div\n      0xffffffffffffffffffffffffffffffffffffffff\n      and\n        /* \"YK Prime.sol\":6133:6156  btcbrOriginal.allowance */\n      0xffffffffffffffffffffffffffffffffffffffff\n      and\n      0xdd62ed3e\n        /* \"YK Prime.sol\":6157:6167  tokenOwner */\n      dup5\n        /* \"YK Prime.sol\":6169:6176  spender */\n      dup5\n        /* \"YK Prime.sol\":6133:6177  btcbrOriginal.allowance(tokenOwner, spender) */\n      mload(0x40)\n      dup4\n      0xffffffff\n      and\n      0xe0\n      shl\n      dup2\n      mstore\n      0x04\n      add\n      tag_162\n      swap3\n      swap2\n      swap1\n      tag_163\n      jump\t// in\n    tag_162:\n      0x20\n      mload(0x40)\n      dup1\n      dup4\n      sub\n      dup2\n      dup7\n      gas\n      staticcall\n      iszero\n      dup1\n      iszero\n      tag_165\n      jumpi\n      returndatacopy(0x00, 0x00, returndatasize)\n      revert(0x00, returndatasize)\n    tag_165:\n      pop\n      pop\n      pop\n      pop\n      mload(0x40)\n      returndatasize\n      not(0x1f)\n      0x1f\n      dup3\n      add\n      and\n      dup3\n      add\n      dup1\n      0x40\n      mstore\n      pop\n      dup2\n      add\n      swap1\n      tag_166\n      swap2\n      swap1\n      tag_167\n      jump\t// in\n    tag_166:\n        /* \"YK Prime.sol\":6126:6177  return btcbrOriginal.allowance(tokenOwner, spender) */\n      swap1\n      pop\n        /* \"YK Prime.sol\":6018:6185  function getOriginalAllowance(address tokenOwner, address spender) public view returns (uint256) {... */\n      swap3\n      swap2\n      pop\n      pop\n      jump\t// out\n        /* \"YK Prime.sol\":1157:1235  uint256 public constant totalSupply = TOKEN_SUPPLY * (10 ** uint256(decimals)) */\n    tag_57:\n        /* \"YK Prime.sol\":273:274  4 */\n      0x04\n        /* \"YK Prime.sol\":1217:1234  uint256(decimals) */\n      0xff\n      and\n        /* \"YK Prime.sol\":1211:1213  10 */\n      0x0a\n        /* \"YK Prime.sol\":1211:1234  10 ** uint256(decimals) */\n      tag_168\n      swap2\n      swap1\n      tag_169\n      jump\t// in\n    tag_168:\n        /* \"YK Prime.sol\":309:320  50000000000 */\n      0x0ba43b7400\n        /* \"YK Prime.sol\":1195:1235  TOKEN_SUPPLY * (10 ** uint256(decimals)) */\n      tag_170\n      swap2\n      swap1\n      tag_171\n      jump\t// in\n    tag_170:\n        /* \"YK Prime.sol\":1157:1235  uint256 public constant totalSupply = TOKEN_SUPPLY * (10 ** uint256(decimals)) */\n      dup2\n      jump\t// out\n        /* \"YK Prime.sol\":1332:1354  bool public terminated */\n    tag_61:\n      0x01\n      0x15\n      swap1\n      sload\n      swap1\n      0x0100\n      exp\n      swap1\n      div\n      0xff\n      and\n      dup2\n      jump\t// out\n        /* \"YK Prime.sol\":5665:5782  function getOriginalTotalSupply() public view returns (uint256) {... */\n    tag_65:\n        /* \"YK Prime.sol\":5720:5727  uint256 */\n      0x00\n        /* \"YK Prime.sol\":5747:5760  btcbrOriginal */\n      0x04\n      0x00\n      swap1\n      sload\n      swap1\n      0x0100\n      exp\n      swap1\n      div\n      0xffffffffffffffffffffffffffffffffffffffff\n      and\n        /* \"YK Prime.sol\":5747:5772  btcbrOriginal.totalSupply */\n      0xffffffffffffffffffffffffffffffffffffffff\n      and\n      0x18160ddd\n        /* \"YK Prime.sol\":5747:5774  btcbrOriginal.totalSupply() */\n      mload(0x40)\n      dup2\n      0xffffffff\n      and\n      0xe0\n      shl\n      dup2\n      mstore\n      0x04\n      add\n      0x20\n      mload(0x40)\n      dup1\n      dup4\n      sub\n      dup2\n      dup7\n      gas\n      staticcall\n      iszero\n      dup1\n      iszero\n      tag_174\n      jumpi\n      returndatacopy(0x00, 0x00, returndatasize)\n      revert(0x00, returndatasize)\n    tag_174:\n      pop\n      pop\n      pop\n      pop\n      mload(0x40)\n      returndatasize\n      not(0x1f)\n      0x1f\n      dup3\n      add\n      and\n      dup3\n      add\n      dup1\n      0x40\n      mstore\n      pop\n      dup2\n      add\n      swap1\n      tag_175\n      swap2\n      swap1\n      tag_167\n      jump\t// in\n    tag_175:\n        /* \"YK Prime.sol\":5740:5774  return btcbrOriginal.totalSupply() */\n      swap1\n      pop\n        /* \"YK Prime.sol\":5665:5782  function getOriginalTotalSupply() public view returns (uint256) {... */\n      swap1\n      jump\t// out\n        /* \"YK Prime.sol\":4322:5014  function transferFrom(address sender, address recipient, uint256 amount) public whenNotPaused whenActive returns (bool) {... */\n    tag_71:\n        /* \"YK Prime.sol\":4436:4440  bool */\n      0x00\n        /* \"YK Prime.sol\":2216:2222  paused */\n      0x01\n      0x14\n      swap1\n      sload\n      swap1\n      0x0100\n      exp\n      swap1\n      div\n      0xff\n      and\n        /* \"YK Prime.sol\":2215:2222  !paused */\n      iszero\n        /* \"YK Prime.sol\":2207:2245  require(!paused, \"Contract is paused\") */\n      tag_177\n      jumpi\n      mload(0x40)\n      0x08c379a000000000000000000000000000000000000000000000000000000000\n      dup2\n      mstore\n      0x04\n      add\n      tag_178\n      swap1\n      tag_143\n      jump\t// in\n    tag_178:\n      mload(0x40)\n      dup1\n      swap2\n      sub\n      swap1\n      revert\n    tag_177:\n        /* \"YK Prime.sol\":2315:2325  terminated */\n      0x01\n      0x15\n      swap1\n      sload\n      swap1\n      0x0100\n      exp\n      swap1\n      div\n      0xff\n      and\n        /* \"YK Prime.sol\":2314:2325  !terminated */\n      iszero\n        /* \"YK Prime.sol\":2306:2361  require(!terminated, \"Contract permanently terminated\") */\n      tag_180\n      jumpi\n      mload(0x40)\n      0x08c379a000000000000000000000000000000000000000000000000000000000\n      dup2\n      mstore\n      0x04\n      add\n      tag_181\n      swap1\n      tag_147\n      jump\t// in\n    tag_181:\n      mload(0x40)\n      dup1\n      swap2\n      sub\n      swap1\n      revert\n    tag_180:\n        /* \"YK Prime.sol\":4479:4482  0x0 */\n      0x00\n        /* \"YK Prime.sol\":4461:4483  sender != address(0x0) */\n      0xffffffffffffffffffffffffffffffffffffffff\n      and\n        /* \"YK Prime.sol\":4461:4467  sender */\n      dup5\n        /* \"YK Prime.sol\":4461:4483  sender != address(0x0) */\n      0xffffffffffffffffffffffffffffffffffffffff\n      and\n      eq\n      iszero\n        /* \"YK Prime.sol\":4461:4512  sender != address(0x0) && recipient != address(0x0) */\n      dup1\n      iszero\n      tag_183\n      jumpi\n      pop\n        /* \"YK Prime.sol\":4508:4511  0x0 */\n      0x00\n        /* \"YK Prime.sol\":4487:4512  recipient != address(0x0) */\n      0xffffffffffffffffffffffffffffffffffffffff\n      and\n        /* \"YK Prime.sol\":4487:4496  recipient */\n      dup4\n        /* \"YK Prime.sol\":4487:4512  recipient != address(0x0) */\n      0xffffffffffffffffffffffffffffffffffffffff\n      and\n      eq\n      iszero\n        /* \"YK Prime.sol\":4461:4512  sender != address(0x0) && recipient != address(0x0) */\n    tag_183:\n        /* \"YK Prime.sol\":4453:4532  require(sender != address(0x0) && recipient != address(0x0), \"Invalid address\") */\n      tag_184\n      jumpi\n      mload(0x40)\n      0x08c379a000000000000000000000000000000000000000000000000000000000\n      dup2\n      mstore\n      0x04\n      add\n      tag_185\n      swap1\n      tag_186\n      jump\t// in\n    tag_185:\n      mload(0x40)\n      dup1\n      swap2\n      sub\n      swap1\n      revert\n    tag_184:\n        /* \"YK Prime.sol\":4560:4561  0 */\n      0x00\n        /* \"YK Prime.sol\":4551:4557  amount */\n      dup3\n        /* \"YK Prime.sol\":4551:4561  amount > 0 */\n      gt\n        /* \"YK Prime.sol\":4543:4598  require(amount > 0, \"Amount must be greater than zero\") */\n      tag_187\n      jumpi\n      mload(0x40)\n      0x08c379a000000000000000000000000000000000000000000000000000000000\n      dup2\n      mstore\n      0x04\n      add\n      tag_188\n      swap1\n      tag_154\n      jump\t// in\n    tag_188:\n      mload(0x40)\n      dup1\n      swap2\n      sub\n      swap1\n      revert\n    tag_187:\n        /* \"YK Prime.sol\":4638:4644  amount */\n      dup2\n        /* \"YK Prime.sol\":4617:4626  _balances */\n      0x02\n        /* \"YK Prime.sol\":4617:4634  _balances[sender] */\n      0x00\n        /* \"YK Prime.sol\":4627:4633  sender */\n      dup7\n        /* \"YK Prime.sol\":4617:4634  _balances[sender] */\n      0xffffffffffffffffffffffffffffffffffffffff\n      and\n      0xffffffffffffffffffffffffffffffffffffffff\n      and\n      dup2\n      mstore\n      0x20\n      add\n      swap1\n      dup2\n      mstore\n      0x20\n      add\n      0x00\n      keccak256\n      sload\n        /* \"YK Prime.sol\":4617:4644  _balances[sender] >= amount */\n      lt\n      iszero\n        /* \"YK Prime.sol\":4609:4669  require(_balances[sender] >= amount, \"Insufficient balance\") */\n      tag_189\n      jumpi\n      mload(0x40)\n      0x08c379a000000000000000000000000000000000000000000000000000000000\n      dup2\n      mstore\n      0x04\n      add\n      tag_190\n      swap1\n      tag_191\n      jump\t// in\n    tag_190:\n      mload(0x40)\n      dup1\n      swap2\n      sub\n      swap1\n      revert\n    tag_189:\n        /* \"YK Prime.sol\":4723:4729  amount */\n      dup2\n        /* \"YK Prime.sol\":4688:4699  _allowances */\n      0x03\n        /* \"YK Prime.sol\":4688:4707  _allowances[sender] */\n      0x00\n        /* \"YK Prime.sol\":4700:4706  sender */\n      dup7\n        /* \"YK Prime.sol\":4688:4707  _allowances[sender] */\n      0xffffffffffffffffffffffffffffffffffffffff\n      and\n      0xffffffffffffffffffffffffffffffffffffffff\n      and\n      dup2\n      mstore\n      0x20\n      add\n      swap1\n      dup2\n      mstore\n      0x20\n      add\n      0x00\n      keccak256\n        /* \"YK Prime.sol\":4688:4719  _allowances[sender][msg.sender] */\n      0x00\n        /* \"YK Prime.sol\":4708:4718  msg.sender */\n      caller\n        /* \"YK Prime.sol\":4688:4719  _allowances[sender][msg.sender] */\n      0xffffffffffffffffffffffffffffffffffffffff\n      and\n      0xffffffffffffffffffffffffffffffffffffffff\n      and\n      dup2\n      mstore\n      0x20\n      add\n      swap1\n      dup2\n      mstore\n      0x20\n      add\n      0x00\n      keccak256\n      sload\n        /* \"YK Prime.sol\":4688:4729  _allowances[sender][msg.sender] >= amount */\n      lt\n      iszero\n        /* \"YK Prime.sol\":4680:4752  require(_allowances[sender][msg.sender] >= amount, \"Allowance exceeded\") */\n      tag_192\n      jumpi\n      mload(0x40)\n      0x08c379a000000000000000000000000000000000000000000000000000000000\n      dup2\n      mstore\n      0x04\n      add\n      tag_193\n      swap1\n      tag_194\n      jump\t// in\n    tag_193:\n      mload(0x40)\n      dup1\n      swap2\n      sub\n      swap1\n      revert\n    tag_192:\n        /* \"YK Prime.sol\":4832:4838  amount */\n      dup2\n        /* \"YK Prime.sol\":4811:4820  _balances */\n      0x02\n        /* \"YK Prime.sol\":4811:4828  _balances[sender] */\n      0x00\n        /* \"YK Prime.sol\":4821:4827  sender */\n      dup7\n        /* \"YK Prime.sol\":4811:4828  _balances[sender] */\n      0xffffffffffffffffffffffffffffffffffffffff\n      and\n      0xffffffffffffffffffffffffffffffffffffffff\n      and\n      dup2\n      mstore\n      0x20\n      add\n      swap1\n      dup2\n      mstore\n      0x20\n      add\n      0x00\n      keccak256\n      0x00\n        /* \"YK Prime.sol\":4811:4838  _balances[sender] -= amount */\n      dup3\n      dup3\n      sload\n      tag_195\n      swap2\n      swap1\n      tag_196\n      jump\t// in\n    tag_195:\n      swap3\n      pop\n      pop\n      dup2\n      swap1\n      sstore\n      pop\n        /* \"YK Prime.sol\":4873:4879  amount */\n      dup2\n        /* \"YK Prime.sol\":4849:4858  _balances */\n      0x02\n        /* \"YK Prime.sol\":4849:4869  _balances[recipient] */\n      0x00\n        /* \"YK Prime.sol\":4859:4868  recipient */\n      dup6\n        /* \"YK Prime.sol\":4849:4869  _balances[recipient] */\n      0xffffffffffffffffffffffffffffffffffffffff\n      and\n      0xffffffffffffffffffffffffffffffffffffffff\n      and\n      dup2\n      mstore\n      0x20\n      add\n      swap1\n      dup2\n      mstore\n      0x20\n      add\n      0x00\n      keccak256\n      0x00\n        /* \"YK Prime.sol\":4849:4879  _balances[recipient] += amount */\n      dup3\n      dup3\n      sload\n      tag_197\n      swap2\n      swap1\n      tag_198\n      jump\t// in\n    tag_197:\n      swap3\n      pop\n      pop\n      dup2\n      swap1\n      sstore\n      pop\n        /* \"YK Prime.sol\":4925:4931  amount */\n      dup2\n        /* \"YK Prime.sol\":4890:4901  _allowances */\n      0x03\n        /* \"YK Prime.sol\":4890:4909  _allowances[sender] */\n      0x00\n        /* \"YK Prime.sol\":4902:4908  sender */\n      dup7\n        /* \"YK Prime.sol\":4890:4909  _allowances[sender] */\n      0xffffffffffffffffffffffffffffffffffffffff\n      and\n      0xffffffffffffffffffffffffffffffffffffffff\n      and\n      dup2\n      mstore\n      0x20\n      add\n      swap1\n      dup2\n      mstore\n      0x20\n      add\n      0x00\n      keccak256\n        /* \"YK Prime.sol\":4890:4921  _allowances[sender][msg.sender] */\n      0x00\n        /* \"YK Prime.sol\":4910:4920  msg.sender */\n      caller\n        /* \"YK Prime.sol\":4890:4921  _allowances[sender][msg.sender] */\n      0xffffffffffffffffffffffffffffffffffffffff\n      and\n      0xffffffffffffffffffffffffffffffffffffffff\n      and\n      dup2\n      mstore\n      0x20\n      add\n      swap1\n      dup2\n      mstore\n      0x20\n      add\n      0x00\n      keccak256\n      0x00\n        /* \"YK Prime.sol\":4890:4931  _allowances[sender][msg.sender] -= amount */\n      dup3\n      dup3\n      sload\n      tag_199\n      swap2\n      swap1\n      tag_196\n      jump\t// in\n    tag_199:\n      swap3\n      pop\n      pop\n      dup2\n      swap1\n      sstore\n      pop\n        /* \"YK Prime.sol\":4966:4975  recipient */\n      dup3\n        /* \"YK Prime.sol\":4949:4984  Transfer(sender, recipient, amount) */\n      0xffffffffffffffffffffffffffffffffffffffff\n      and\n        /* \"YK Prime.sol\":4958:4964  sender */\n      dup5\n        /* \"YK Prime.sol\":4949:4984  Transfer(sender, recipient, amount) */\n      0xffffffffffffffffffffffffffffffffffffffff\n      and\n      0xddf252ad1be2c89b69c2b068fc378daa952ba7f163c4a11628f55a4df523b3ef\n        /* \"YK Prime.sol\":4977:4983  amount */\n      dup5\n        /* \"YK Prime.sol\":4949:4984  Transfer(sender, recipient, amount) */\n      mload(0x40)\n      tag_200\n      swap2\n      swap1\n      tag_54\n      jump\t// in\n    tag_200:\n      mload(0x40)\n      dup1\n      swap2\n      sub\n      swap1\n      log3\n        /* \"YK Prime.sol\":5002:5006  true */\n      0x01\n        /* \"YK Prime.sol\":4995:5006  return true */\n      swap1\n      pop\n        /* \"YK Prime.sol\":4322:5014  function transferFrom(address sender, address recipient, uint256 amount) public whenNotPaused whenActive returns (bool) {... */\n      swap4\n      swap3\n      pop\n      pop\n      pop\n      jump\t// out\n        /* \"YK Prime.sol\":5427:5536  function getOriginalName() public view returns (string memory) {... */\n    tag_75:\n        /* \"YK Prime.sol\":5475:5488  string memory */\n      0x60\n        /* \"YK Prime.sol\":5508:5521  btcbrOriginal */\n      0x04\n      0x00\n      swap1\n      sload\n      swap1\n      0x0100\n      exp\n      swap1\n      div\n      0xffffffffffffffffffffffffffffffffffffffff\n      and\n        /* \"YK Prime.sol\":5508:5526  btcbrOriginal.name */\n      0xffffffffffffffffffffffffffffffffffffffff\n      and\n      0x06fdde03\n        /* \"YK Prime.sol\":5508:5528  btcbrOriginal.name() */\n      mload(0x40)\n      dup2\n      0xffffffff\n      and\n      0xe0\n      shl\n      dup2\n      mstore\n      0x04\n      add\n      0x00\n      mload(0x40)\n      dup1\n      dup4\n      sub\n      dup2\n      dup7\n      gas\n      staticcall\n      iszero\n      dup1\n      iszero\n      tag_203\n      jumpi\n      returndatacopy(0x00, 0x00, returndatasize)\n      revert(0x00, returndatasize)\n    tag_203:\n      pop\n      pop\n      pop\n      pop\n      mload(0x40)\n      returndatasize\n      0x00\n      dup3\n      returndatacopy\n      returndatasize\n      not(0x1f)\n      0x1f\n      dup3\n      add\n      and\n      dup3\n      add\n      dup1\n      0x40\n      mstore\n      pop\n      dup2\n      add\n      swap1\n      tag_204\n      swap2\n      swap1\n      tag_205\n      jump\t// in\n    tag_204:\n        /* \"YK Prime.sol\":5501:5528  return btcbrOriginal.name() */\n      swap1\n      pop\n        /* \"YK Prime.sol\":5427:5536  function getOriginalName() public view returns (string memory) {... */\n      swap1\n      jump\t// out\n        /* \"YK Prime.sol\":1103:1150  uint8 public constant decimals = TOKEN_DECIMALS */\n    tag_79:\n        /* \"YK Prime.sol\":273:274  4 */\n      0x04\n        /* \"YK Prime.sol\":1103:1150  uint8 public constant decimals = TOKEN_DECIMALS */\n      dup2\n      jump\t// out\n        /* \"YK Prime.sol\":2761:2866  function unpause() public onlyOwner {... */\n    tag_84:\n        /* \"YK Prime.sol\":2092:2105  contractOwner */\n      0x01\n      0x00\n      swap1\n      sload\n      swap1\n      0x0100\n      exp\n      swap1\n      div\n      0xffffffffffffffffffffffffffffffffffffffff\n      and\n        /* \"YK Prime.sol\":2078:2105  msg.sender == contractOwner */\n      0xffffffffffffffffffffffffffffffffffffffff\n      and\n        /* \"YK Prime.sol\":2078:2088  msg.sender */\n      caller\n        /* \"YK Prime.sol\":2078:2105  msg.sender == contractOwner */\n      0xffffffffffffffffffffffffffffffffffffffff\n      and\n      eq\n        /* \"YK Prime.sol\":2070:2143  require(msg.sender == contractOwner, \"Only owner can call this function\") */\n      tag_207\n      jumpi\n      mload(0x40)\n      0x08c379a000000000000000000000000000000000000000000000000000000000\n      dup2\n      mstore\n      0x04\n      add\n      tag_208\n      swap1\n      tag_159\n      jump\t// in\n    tag_208:\n      mload(0x40)\n      dup1\n      swap2\n      sub\n      swap1\n      revert\n    tag_207:\n        /* \"YK Prime.sol\":2817:2822  false */\n      0x00\n        /* \"YK Prime.sol\":2808:2814  paused */\n      0x01\n      0x14\n        /* \"YK Prime.sol\":2808:2822  paused = false */\n      0x0100\n      exp\n      dup2\n      sload\n      dup2\n      0xff\n      mul\n      not\n      and\n      swap1\n      dup4\n      iszero\n      iszero\n      mul\n      or\n      swap1\n      sstore\n      pop\n        /* \"YK Prime.sol\":2847:2857  msg.sender */\n      caller\n        /* \"YK Prime.sol\":2838:2858  Unpaused(msg.sender) */\n      0xffffffffffffffffffffffffffffffffffffffff\n      and\n      0x5db9ee0a495bf2e6ff9c91a7834c1ba4fdd244a5e8aa4e537bd38aeae4b073aa\n      mload(0x40)\n      mload(0x40)\n      dup1\n      swap2\n      sub\n      swap1\n      log2\n        /* \"YK Prime.sol\":2761:2866  function unpause() public onlyOwner {... */\n      jump\t// out\n        /* \"YK Prime.sol\":1307:1325  bool public paused */\n    tag_87:\n      0x01\n      0x14\n      swap1\n      sload\n      swap1\n      0x0100\n      exp\n      swap1\n      div\n      0xff\n      and\n      dup2\n      jump\t// out\n        /* \"YK Prime.sol\":5790:6010  function getOriginalBalance(address account) public returns (uint256) {... */\n    tag_93:\n        /* \"YK Prime.sol\":5851:5858  uint256 */\n      0x00\n        /* \"YK Prime.sol\":5871:5886  uint256 balance */\n      0x00\n        /* \"YK Prime.sol\":5889:5902  btcbrOriginal */\n      0x04\n      0x00\n      swap1\n      sload\n      swap1\n      0x0100\n      exp\n      swap1\n      div\n      0xffffffffffffffffffffffffffffffffffffffff\n      and\n        /* \"YK Prime.sol\":5889:5912  btcbrOriginal.balanceOf */\n      0xffffffffffffffffffffffffffffffffffffffff\n      and\n      0x70a08231\n        /* \"YK Prime.sol\":5913:5920  account */\n      dup5\n        /* \"YK Prime.sol\":5889:5921  btcbrOriginal.balanceOf(account) */\n      mload(0x40)\n      dup3\n      0xffffffff\n      and\n      0xe0\n      shl\n      dup2\n      mstore\n      0x04\n      add\n      tag_211\n      swap2\n      swap1\n      tag_130\n      jump\t// in\n    tag_211:\n      0x20\n      mload(0x40)\n      dup1\n      dup4\n      sub\n      dup2\n      dup7\n      gas\n      staticcall\n      iszero\n      dup1\n      iszero\n      tag_213\n      jumpi\n      returndatacopy(0x00, 0x00, returndatasize)\n      revert(0x00, returndatasize)\n    tag_213:\n      pop\n      pop\n      pop\n      pop\n      mload(0x40)\n      returndatasize\n      not(0x1f)\n      0x1f\n      dup3\n      add\n      and\n      dup3\n      add\n      dup1\n      0x40\n      mstore\n      pop\n      dup2\n      add\n      swap1\n      tag_214\n      swap2\n      swap1\n      tag_167\n      jump\t// in\n    tag_214:\n        /* \"YK Prime.sol\":5871:5921  uint256 balance = btcbrOriginal.balanceOf(account) */\n      swap1\n      pop\n        /* \"YK Prime.sol\":5960:5967  account */\n      dup3\n        /* \"YK Prime.sol\":5937:5977  OriginalBalanceChecked(account, balance) */\n      0xffffffffffffffffffffffffffffffffffffffff\n      and\n      0xdbd71032b7681ee8e00cb6f187d955fdfc8cfb5302b98a717b033ab45bf21e64\n        /* \"YK Prime.sol\":5969:5976  balance */\n      dup3\n        /* \"YK Prime.sol\":5937:5977  OriginalBalanceChecked(account, balance) */\n      mload(0x40)\n      tag_215\n      swap2\n      swap1\n      tag_54\n      jump\t// in\n    tag_215:\n      mload(0x40)\n      dup1\n      swap2\n      sub\n      swap1\n      log2\n        /* \"YK Prime.sol\":5995:6002  balance */\n      dup1\n        /* \"YK Prime.sol\":5988:6002  return balance */\n      swap2\n      pop\n      pop\n        /* \"YK Prime.sol\":5790:6010  function getOriginalBalance(address account) public returns (uint256) {... */\n      swap2\n      swap1\n      pop\n      jump\t// out\n        /* \"YK Prime.sol\":1242:1263  string public logoURI */\n    tag_97:\n      0x00\n      dup1\n      sload\n      tag_216\n      swap1\n      tag_217\n      jump\t// in\n    tag_216:\n      dup1\n      0x1f\n      add\n      0x20\n      dup1\n      swap2\n      div\n      mul\n      0x20\n      add\n      mload(0x40)\n      swap1\n      dup2\n      add\n      0x40\n      mstore\n      dup1\n      swap3\n      swap2\n      swap1\n      dup2\n      dup2\n      mstore\n      0x20\n      add\n      dup3\n      dup1\n      sload\n      tag_218\n      swap1\n      tag_217\n      jump\t// in\n    tag_218:\n      dup1\n      iszero\n      tag_219\n      jumpi\n      dup1\n      0x1f\n      lt\n      tag_220\n      jumpi\n      0x0100\n      dup1\n      dup4\n      sload\n      div\n      mul\n      dup4\n      mstore\n      swap2\n      0x20\n      add\n      swap2\n      jump(tag_219)\n    tag_220:\n      dup3\n      add\n      swap2\n      swap1\n      0x00\n      mstore\n      keccak256(0x00, 0x20)\n      swap1\n    tag_221:\n      dup2\n      sload\n      dup2\n      mstore\n      swap1\n      0x01\n      add\n      swap1\n      0x20\n      add\n      dup1\n      dup4\n      gt\n      tag_221\n      jumpi\n      dup3\n      swap1\n      sub\n      0x1f\n      and\n      dup3\n      add\n      swap2\n    tag_219:\n      pop\n      pop\n      pop\n      pop\n      pop\n      dup2\n      jump\t// out\n        /* \"YK Prime.sol\":5053:5163  function balanceOf(address account) public view returns (uint256) {... */\n    tag_102:\n        /* \"YK Prime.sol\":5110:5117  uint256 */\n      0x00\n        /* \"YK Prime.sol\":5137:5146  _balances */\n      0x02\n        /* \"YK Prime.sol\":5137:5155  _balances[account] */\n      0x00\n        /* \"YK Prime.sol\":5147:5154  account */\n      dup4\n        /* \"YK Prime.sol\":5137:5155  _balances[account] */\n      0xffffffffffffffffffffffffffffffffffffffff\n      and\n      0xffffffffffffffffffffffffffffffffffffffff\n      and\n      dup2\n      mstore\n      0x20\n      add\n      swap1\n      dup2\n      mstore\n      0x20\n      add\n      0x00\n      keccak256\n      sload\n        /* \"YK Prime.sol\":5130:5155  return _balances[account] */\n      swap1\n      pop\n        /* \"YK Prime.sol\":5053:5163  function balanceOf(address account) public view returns (uint256) {... */\n      swap2\n      swap1\n      pop\n      jump\t// out\n        /* \"YK Prime.sol\":2653:2753  function pause() public onlyOwner {... */\n    tag_106:\n        /* \"YK Prime.sol\":2092:2105  contractOwner */\n      0x01\n      0x00\n      swap1\n      sload\n      swap1\n      0x0100\n      exp\n      swap1\n      div\n      0xffffffffffffffffffffffffffffffffffffffff\n      and\n        /* \"YK Prime.sol\":2078:2105  msg.sender == contractOwner */\n      0xffffffffffffffffffffffffffffffffffffffff\n      and\n        /* \"YK Prime.sol\":2078:2088  msg.sender */\n      caller\n        /* \"YK Prime.sol\":2078:2105  msg.sender == contractOwner */\n      0xffffffffffffffffffffffffffffffffffffffff\n      and\n      eq\n        /* \"YK Prime.sol\":2070:2143  require(msg.sender == contractOwner, \"Only owner can call this function\") */\n      tag_224\n      jumpi\n      mload(0x40)\n      0x08c379a000000000000000000000000000000000000000000000000000000000\n      dup2\n      mstore\n      0x04\n      add\n      tag_225\n      swap1\n      tag_159\n      jump\t// in\n    tag_225:\n      mload(0x40)\n      dup1\n      swap2\n      sub\n      swap1\n      revert\n    tag_224:\n        /* \"YK Prime.sol\":2707:2711  true */\n      0x01\n        /* \"YK Prime.sol\":2698:2704  paused */\n      dup1\n      0x14\n        /* \"YK Prime.sol\":2698:2711  paused = true */\n      0x0100\n      exp\n      dup2\n      sload\n      dup2\n      0xff\n      mul\n      not\n      and\n      swap1\n      dup4\n      iszero\n      iszero\n      mul\n      or\n      swap1\n      sstore\n      pop\n        /* \"YK Prime.sol\":2734:2744  msg.sender */\n      caller\n        /* \"YK Prime.sol\":2727:2745  Paused(msg.sender) */\n      0xffffffffffffffffffffffffffffffffffffffff\n      and\n      0x62e78cea01bee320cd4e420270b5ea74000d11b0c9f74754ebdbfc544b05a258\n      mload(0x40)\n      mload(0x40)\n      dup1\n      swap2\n      sub\n      swap1\n      log2\n        /* \"YK Prime.sol\":2653:2753  function pause() public onlyOwner {... */\n      jump\t// out\n        /* \"YK Prime.sol\":1052:1096  string public constant symbol = TOKEN_SYMBOL */\n    tag_109:\n        /* \"YK Prime.sol\":1084:1096  TOKEN_SYMBOL */\n      mload(0x40)\n      dup1\n      0x40\n      add\n      0x40\n      mstore\n      dup1\n      0x02\n      dup2\n      mstore\n      0x20\n      add\n      0x594b000000000000000000000000000000000000000000000000000000000000\n      dup2\n      mstore\n      pop\n        /* \"YK Prime.sol\":1052:1096  string public constant symbol = TOKEN_SYMBOL */\n      dup2\n      jump\t// out\n        /* \"YK Prime.sol\":5544:5657  function getOriginalSymbol() public view returns (string memory) {... */\n    tag_113:\n        /* \"YK Prime.sol\":5594:5607  string memory */\n      0x60\n        /* \"YK Prime.sol\":5627:5640  btcbrOriginal */\n      0x04\n      0x00\n      swap1\n      sload\n      swap1\n      0x0100\n      exp\n      swap1\n      div\n      0xffffffffffffffffffffffffffffffffffffffff\n      and\n        /* \"YK Prime.sol\":5627:5647  btcbrOriginal.symbol */\n      0xffffffffffffffffffffffffffffffffffffffff\n      and\n      0x95d89b41\n        /* \"YK Prime.sol\":5627:5649  btcbrOriginal.symbol() */\n      mload(0x40)\n      dup2\n      0xffffffff\n      and\n      0xe0\n      shl\n      dup2\n      mstore\n      0x04\n      add\n      0x00\n      mload(0x40)\n      dup1\n      dup4\n      sub\n      dup2\n      dup7\n      gas\n      staticcall\n      iszero\n      dup1\n      iszero\n      tag_229\n      jumpi\n      returndatacopy(0x00, 0x00, returndatasize)\n      revert(0x00, returndatasize)\n    tag_229:\n      pop\n      pop\n      pop\n      pop\n      mload(0x40)\n      returndatasize\n      0x00\n      dup3\n      returndatacopy\n      returndatasize\n      not(0x1f)\n      0x1f\n      dup3\n      add\n      and\n      dup3\n      add\n      dup1\n      0x40\n      mstore\n      pop\n      dup2\n      add\n      swap1\n      tag_230\n      swap2\n      swap1\n      tag_205\n      jump\t// in\n    tag_230:\n        /* \"YK Prime.sol\":5620:5649  return btcbrOriginal.symbol() */\n      swap1\n      pop\n        /* \"YK Prime.sol\":5544:5657  function getOriginalSymbol() public view returns (string memory) {... */\n      swap1\n      jump\t// out\n        /* \"YK Prime.sol\":3396:3932  function transfer(address recipient, uint256 amount) public whenNotPaused whenActive returns (bool) {... */\n    tag_118:\n        /* \"YK Prime.sol\":3490:3494  bool */\n      0x00\n        /* \"YK Prime.sol\":2216:2222  paused */\n      0x01\n      0x14\n      swap1\n      sload\n      swap1\n      0x0100\n      exp\n      swap1\n      div\n      0xff\n      and\n        /* \"YK Prime.sol\":2215:2222  !paused */\n      iszero\n        /* \"YK Prime.sol\":2207:2245  require(!paused, \"Contract is paused\") */\n      tag_232\n      jumpi\n      mload(0x40)\n      0x08c379a000000000000000000000000000000000000000000000000000000000\n      dup2\n      mstore\n      0x04\n      add\n      tag_233\n      swap1\n      tag_143\n      jump\t// in\n    tag_233:\n      mload(0x40)\n      dup1\n      swap2\n      sub\n      swap1\n      revert\n    tag_232:\n        /* \"YK Prime.sol\":2315:2325  terminated */\n      0x01\n      0x15\n      swap1\n      sload\n      swap1\n      0x0100\n      exp\n      swap1\n      div\n      0xff\n      and\n        /* \"YK Prime.sol\":2314:2325  !terminated */\n      iszero\n        /* \"YK Prime.sol\":2306:2361  require(!terminated, \"Contract permanently terminated\") */\n      tag_235\n      jumpi\n      mload(0x40)\n      0x08c379a000000000000000000000000000000000000000000000000000000000\n      dup2\n      mstore\n      0x04\n      add\n      tag_236\n      swap1\n      tag_147\n      jump\t// in\n    tag_236:\n      mload(0x40)\n      dup1\n      swap2\n      sub\n      swap1\n      revert\n    tag_235:\n        /* \"YK Prime.sol\":3536:3539  0x0 */\n      0x00\n        /* \"YK Prime.sol\":3515:3540  recipient != address(0x0) */\n      0xffffffffffffffffffffffffffffffffffffffff\n      and\n        /* \"YK Prime.sol\":3515:3524  recipient */\n      dup4\n        /* \"YK Prime.sol\":3515:3540  recipient != address(0x0) */\n      0xffffffffffffffffffffffffffffffffffffffff\n      and\n      sub\n        /* \"YK Prime.sol\":3507:3573  require(recipient != address(0x0), \"Transfer to the zero address\") */\n      tag_238\n      jumpi\n      mload(0x40)\n      0x08c379a000000000000000000000000000000000000000000000000000000000\n      dup2\n      mstore\n      0x04\n      add\n      tag_239\n      swap1\n      tag_240\n      jump\t// in\n    tag_239:\n      mload(0x40)\n      dup1\n      swap2\n      sub\n      swap1\n      revert\n    tag_238:\n        /* \"YK Prime.sol\":3601:3602  0 */\n      0x00\n        /* \"YK Prime.sol\":3592:3598  amount */\n      dup3\n        /* \"YK Prime.sol\":3592:3602  amount > 0 */\n      gt\n        /* \"YK Prime.sol\":3584:3639  require(amount > 0, \"Amount must be greater than zero\") */\n      tag_241\n      jumpi\n      mload(0x40)\n      0x08c379a000000000000000000000000000000000000000000000000000000000\n      dup2\n      mstore\n      0x04\n      add\n      tag_242\n      swap1\n      tag_154\n      jump\t// in\n    tag_242:\n      mload(0x40)\n      dup1\n      swap2\n      sub\n      swap1\n      revert\n    tag_241:\n        /* \"YK Prime.sol\":3683:3689  amount */\n      dup2\n        /* \"YK Prime.sol\":3658:3667  _balances */\n      0x02\n        /* \"YK Prime.sol\":3658:3679  _balances[msg.sender] */\n      0x00\n        /* \"YK Prime.sol\":3668:3678  msg.sender */\n      caller\n        /* \"YK Prime.sol\":3658:3679  _balances[msg.sender] */\n      0xffffffffffffffffffffffffffffffffffffffff\n      and\n      0xffffffffffffffffffffffffffffffffffffffff\n      and\n      dup2\n      mstore\n      0x20\n      add\n      swap1\n      dup2\n      mstore\n      0x20\n      add\n      0x00\n      keccak256\n      sload\n        /* \"YK Prime.sol\":3658:3689  _balances[msg.sender] >= amount */\n      lt\n      iszero\n        /* \"YK Prime.sol\":3650:3714  require(_balances[msg.sender] >= amount, \"Insufficient balance\") */\n      tag_243\n      jumpi\n      mload(0x40)\n      0x08c379a000000000000000000000000000000000000000000000000000000000\n      dup2\n      mstore\n      0x04\n      add\n      tag_244\n      swap1\n      tag_191\n      jump\t// in\n    tag_244:\n      mload(0x40)\n      dup1\n      swap2\n      sub\n      swap1\n      revert\n    tag_243:\n        /* \"YK Prime.sol\":3798:3804  amount */\n      dup2\n        /* \"YK Prime.sol\":3773:3782  _balances */\n      0x02\n        /* \"YK Prime.sol\":3773:3794  _balances[msg.sender] */\n      0x00\n        /* \"YK Prime.sol\":3783:3793  msg.sender */\n      caller\n        /* \"YK Prime.sol\":3773:3794  _balances[msg.sender] */\n      0xffffffffffffffffffffffffffffffffffffffff\n      and\n      0xffffffffffffffffffffffffffffffffffffffff\n      and\n      dup2\n      mstore\n      0x20\n      add\n      swap1\n      dup2\n      mstore\n      0x20\n      add\n      0x00\n      keccak256\n      0x00\n        /* \"YK Prime.sol\":3773:3804  _balances[msg.sender] -= amount */\n      dup3\n      dup3\n      sload\n      tag_245\n      swap2\n      swap1\n      tag_196\n      jump\t// in\n    tag_245:\n      swap3\n      pop\n      pop\n      dup2\n      swap1\n      sstore\n      pop\n        /* \"YK Prime.sol\":3839:3845  amount */\n      dup2\n        /* \"YK Prime.sol\":3815:3824  _balances */\n      0x02\n        /* \"YK Prime.sol\":3815:3835  _balances[recipient] */\n      0x00\n        /* \"YK Prime.sol\":3825:3834  recipient */\n      dup6\n        /* \"YK Prime.sol\":3815:3835  _balances[recipient] */\n      0xffffffffffffffffffffffffffffffffffffffff\n      and\n      0xffffffffffffffffffffffffffffffffffffffff\n      and\n      dup2\n      mstore\n      0x20\n      add\n      swap1\n      dup2\n      mstore\n      0x20\n      add\n      0x00\n      keccak256\n      0x00\n        /* \"YK Prime.sol\":3815:3845  _balances[recipient] += amount */\n      dup3\n      dup3\n      sload\n      tag_246\n      swap2\n      swap1\n      tag_198\n      jump\t// in\n    tag_246:\n      swap3\n      pop\n      pop\n      dup2\n      swap1\n      sstore\n      pop\n        /* \"YK Prime.sol\":3884:3893  recipient */\n      dup3\n        /* \"YK Prime.sol\":3863:3902  Transfer(msg.sender, recipient, amount) */\n      0xffffffffffffffffffffffffffffffffffffffff\n      and\n        /* \"YK Prime.sol\":3872:3882  msg.sender */\n      caller\n        /* \"YK Prime.sol\":3863:3902  Transfer(msg.sender, recipient, amount) */\n      0xffffffffffffffffffffffffffffffffffffffff\n      and\n      0xddf252ad1be2c89b69c2b068fc378daa952ba7f163c4a11628f55a4df523b3ef\n        /* \"YK Prime.sol\":3895:3901  amount */\n      dup5\n        /* \"YK Prime.sol\":3863:3902  Transfer(msg.sender, recipient, amount) */\n      mload(0x40)\n      tag_247\n      swap2\n      swap1\n      tag_54\n      jump\t// in\n    tag_247:\n      mload(0x40)\n      dup1\n      swap2\n      sub\n      swap1\n      log3\n        /* \"YK Prime.sol\":3920:3924  true */\n      0x01\n        /* \"YK Prime.sol\":3913:3924  return true */\n      swap1\n      pop\n        /* \"YK Prime.sol\":3396:3932  function transfer(address recipient, uint256 amount) public whenNotPaused whenActive returns (bool) {... */\n      swap3\n      swap2\n      pop\n      pop\n      jump\t// out\n        /* \"YK Prime.sol\":6193:6381  function getBalances(address account) public view returns (uint256 originalBalance, uint256 currentBalance) {... */\n    tag_123:\n        /* \"YK Prime.sol\":6252:6275  uint256 originalBalance */\n      0x00\n        /* \"YK Prime.sol\":6277:6299  uint256 currentBalance */\n      0x00\n        /* \"YK Prime.sol\":6320:6333  btcbrOriginal */\n      0x04\n      0x00\n      swap1\n      sload\n      swap1\n      0x0100\n      exp\n      swap1\n      div\n      0xffffffffffffffffffffffffffffffffffffffff\n      and\n        /* \"YK Prime.sol\":6320:6343  btcbrOriginal.balanceOf */\n      0xffffffffffffffffffffffffffffffffffffffff\n      and\n      0x70a08231\n        /* \"YK Prime.sol\":6344:6351  account */\n      dup5\n        /* \"YK Prime.sol\":6320:6352  btcbrOriginal.balanceOf(account) */\n      mload(0x40)\n      dup3\n      0xffffffff\n      and\n      0xe0\n      shl\n      dup2\n      mstore\n      0x04\n      add\n      tag_249\n      swap2\n      swap1\n      tag_130\n      jump\t// in\n    tag_249:\n      0x20\n      mload(0x40)\n      dup1\n      dup4\n      sub\n      dup2\n      dup7\n      gas\n      staticcall\n      iszero\n      dup1\n      iszero\n      tag_251\n      jumpi\n      returndatacopy(0x00, 0x00, returndatasize)\n      revert(0x00, returndatasize)\n    tag_251:\n      pop\n      pop\n      pop\n      pop\n      mload(0x40)\n      returndatasize\n      not(0x1f)\n      0x1f\n      dup3\n      add\n      and\n      dup3\n      add\n      dup1\n      0x40\n      mstore\n      pop\n      dup2\n      add\n      swap1\n      tag_252\n      swap2\n      swap1\n      tag_167\n      jump\t// in\n    tag_252:\n        /* \"YK Prime.sol\":6354:6363  _balances */\n      0x02\n        /* \"YK Prime.sol\":6354:6372  _balances[account] */\n      0x00\n        /* \"YK Prime.sol\":6364:6371  account */\n      dup6\n        /* \"YK Prime.sol\":6354:6372  _balances[account] */\n      0xffffffffffffffffffffffffffffffffffffffff\n      and\n      0xffffffffffffffffffffffffffffffffffffffff\n      and\n      dup2\n      mstore\n      0x20\n      add\n      swap1\n      dup2\n      mstore\n      0x20\n      add\n      0x00\n      keccak256\n      sload\n        /* \"YK Prime.sol\":6312:6373  return (btcbrOriginal.balanceOf(account), _balances[account]) */\n      swap2\n      pop\n      swap2\n      pop\n        /* \"YK Prime.sol\":6193:6381  function getBalances(address account) public view returns (uint256 originalBalance, uint256 currentBalance) {... */\n      swap2\n      pop\n      swap2\n      jump\t// out\n        /* \"YK Prime.sol\":1272:1300  address public contractOwner */\n    tag_128:\n      0x01\n      0x00\n      swap1\n      sload\n      swap1\n      0x0100\n      exp\n      swap1\n      div\n      0xffffffffffffffffffffffffffffffffffffffff\n      and\n      dup2\n      jump\t// out\n        /* \"YK Prime.sol\":5210:5344  function allowance(address owner, address spender) public view returns (uint256) {... */\n    tag_134:\n        /* \"YK Prime.sol\":5282:5289  uint256 */\n      0x00\n        /* \"YK Prime.sol\":5309:5320  _allowances */\n      0x03\n        /* \"YK Prime.sol\":5309:5327  _allowances[owner] */\n      0x00\n        /* \"YK Prime.sol\":5321:5326  owner */\n      dup5\n        /* \"YK Prime.sol\":5309:5327  _allowances[owner] */\n      0xffffffffffffffffffffffffffffffffffffffff\n      and\n      0xffffffffffffffffffffffffffffffffffffffff\n      and\n      dup2\n      mstore\n      0x20\n      add\n      swap1\n      dup2\n      mstore\n      0x20\n      add\n      0x00\n      keccak256\n        /* \"YK Prime.sol\":5309:5336  _allowances[owner][spender] */\n      0x00\n        /* \"YK Prime.sol\":5328:5335  spender */\n      dup4\n        /* \"YK Prime.sol\":5309:5336  _allowances[owner][spender] */\n      0xffffffffffffffffffffffffffffffffffffffff\n      and\n      0xffffffffffffffffffffffffffffffffffffffff\n      and\n      dup2\n      mstore\n      0x20\n      add\n      swap1\n      dup2\n      mstore\n      0x20\n      add\n      0x00\n      keccak256\n      sload\n        /* \"YK Prime.sol\":5302:5336  return _allowances[owner][spender] */\n      swap1\n      pop\n        /* \"YK Prime.sol\":5210:5344  function allowance(address owner, address spender) public view returns (uint256) {... */\n      swap3\n      swap2\n      pop\n      pop\n      jump\t// out\n        /* \"YK Prime.sol\":3145:3388  function transferOwnership(address newOwner) public onlyOwner {... */\n    tag_139:\n        /* \"YK Prime.sol\":2092:2105  contractOwner */\n      0x01\n      0x00\n      swap1\n      sload\n      swap1\n      0x0100\n      exp\n      swap1\n      div\n      0xffffffffffffffffffffffffffffffffffffffff\n      and\n        /* \"YK Prime.sol\":2078:2105  msg.sender == contractOwner */\n      0xffffffffffffffffffffffffffffffffffffffff\n      and\n        /* \"YK Prime.sol\":2078:2088  msg.sender */\n      caller\n        /* \"YK Prime.sol\":2078:2105  msg.sender == contractOwner */\n      0xffffffffffffffffffffffffffffffffffffffff\n      and\n      eq\n        /* \"YK Prime.sol\":2070:2143  require(msg.sender == contractOwner, \"Only owner can call this function\") */\n      tag_255\n      jumpi\n      mload(0x40)\n      0x08c379a000000000000000000000000000000000000000000000000000000000\n      dup2\n      mstore\n      0x04\n      add\n      tag_256\n      swap1\n      tag_159\n      jump\t// in\n    tag_256:\n      mload(0x40)\n      dup1\n      swap2\n      sub\n      swap1\n      revert\n    tag_255:\n        /* \"YK Prime.sol\":3246:3249  0x0 */\n      0x00\n        /* \"YK Prime.sol\":3226:3250  newOwner != address(0x0) */\n      0xffffffffffffffffffffffffffffffffffffffff\n      and\n        /* \"YK Prime.sol\":3226:3234  newOwner */\n      dup2\n        /* \"YK Prime.sol\":3226:3250  newOwner != address(0x0) */\n      0xffffffffffffffffffffffffffffffffffffffff\n      and\n      sub\n        /* \"YK Prime.sol\":3218:3284  require(newOwner != address(0x0), \"New owner is the zero address\") */\n      tag_258\n      jumpi\n      mload(0x40)\n      0x08c379a000000000000000000000000000000000000000000000000000000000\n      dup2\n      mstore\n      0x04\n      add\n      tag_259\n      swap1\n      tag_260\n      jump\t// in\n    tag_259:\n      mload(0x40)\n      dup1\n      swap2\n      sub\n      swap1\n      revert\n    tag_258:\n        /* \"YK Prime.sol\":3336:3344  newOwner */\n      dup1\n        /* \"YK Prime.sol\":3300:3345  OwnershipTransferred(contractOwner, newOwner) */\n      0xffffffffffffffffffffffffffffffffffffffff\n      and\n        /* \"YK Prime.sol\":3321:3334  contractOwner */\n      0x01\n      0x00\n      swap1\n      sload\n      swap1\n      0x0100\n      exp\n      swap1\n      div\n      0xffffffffffffffffffffffffffffffffffffffff\n      and\n        /* \"YK Prime.sol\":3300:3345  OwnershipTransferred(contractOwner, newOwner) */\n      0xffffffffffffffffffffffffffffffffffffffff\n      and\n      0x8be0079c531659141344cd1fd0a4f28419497f9722a3daafe3b4186f6b6457e0\n      mload(0x40)\n      mload(0x40)\n      dup1\n      swap2\n      sub\n      swap1\n      log3\n        /* \"YK Prime.sol\":3372:3380  newOwner */\n      dup1\n        /* \"YK Prime.sol\":3356:3369  contractOwner */\n      0x01\n      0x00\n        /* \"YK Prime.sol\":3356:3380  contractOwner = newOwner */\n      0x0100\n      exp\n      dup2\n      sload\n      dup2\n      0xffffffffffffffffffffffffffffffffffffffff\n      mul\n      not\n      and\n      swap1\n      dup4\n      0xffffffffffffffffffffffffffffffffffffffff\n      and\n      mul\n      or\n      swap1\n      sstore\n      pop\n        /* \"YK Prime.sol\":3145:3388  function transferOwnership(address newOwner) public onlyOwner {... */\n      pop\n      jump\t// out\n        /* \"#utility.yul\":7:176   */\n    tag_261:\n        /* \"#utility.yul\":91:102   */\n      0x00\n        /* \"#utility.yul\":125:131   */\n      dup3\n        /* \"#utility.yul\":120:123   */\n      dup3\n        /* \"#utility.yul\":113:132   */\n      mstore\n        /* \"#utility.yul\":165:169   */\n      0x20\n        /* \"#utility.yul\":160:163   */\n      dup3\n        /* \"#utility.yul\":156:170   */\n      add\n        /* \"#utility.yul\":141:170   */\n      swap1\n      pop\n        /* \"#utility.yul\":7:176   */\n      swap3\n      swap2\n      pop\n      pop\n      jump\t// out\n        /* \"#utility.yul\":182:348   */\n    tag_262:\n        /* \"#utility.yul\":322:340   */\n      0x455448206e6f7420616363657074656400000000000000000000000000000000\n        /* \"#utility.yul\":318:319   */\n      0x00\n        /* \"#utility.yul\":310:316   */\n      dup3\n        /* \"#utility.yul\":306:320   */\n      add\n        /* \"#utility.yul\":299:341   */\n      mstore\n        /* \"#utility.yul\":182:348   */\n      pop\n      jump\t// out\n        /* \"#utility.yul\":354:720   */\n    tag_263:\n        /* \"#utility.yul\":496:499   */\n      0x00\n        /* \"#utility.yul\":517:584   */\n      tag_322\n        /* \"#utility.yul\":581:583   */\n      0x10\n        /* \"#utility.yul\":576:579   */\n      dup4\n        /* \"#utility.yul\":517:584   */\n      tag_261\n      jump\t// in\n    tag_322:\n        /* \"#utility.yul\":510:584   */\n      swap2\n      pop\n        /* \"#utility.yul\":593:686   */\n      tag_323\n        /* \"#utility.yul\":682:685   */\n      dup3\n        /* \"#utility.yul\":593:686   */\n      tag_262\n      jump\t// in\n    tag_323:\n        /* \"#utility.yul\":711:713   */\n      0x20\n        /* \"#utility.yul\":706:709   */\n      dup3\n        /* \"#utility.yul\":702:714   */\n      add\n        /* \"#utility.yul\":695:714   */\n      swap1\n      pop\n        /* \"#utility.yul\":354:720   */\n      swap2\n      swap1\n      pop\n      jump\t// out\n        /* \"#utility.yul\":726:1145   */\n    tag_32:\n        /* \"#utility.yul\":892:896   */\n      0x00\n        /* \"#utility.yul\":930:932   */\n      0x20\n        /* \"#utility.yul\":919:928   */\n      dup3\n        /* \"#utility.yul\":915:933   */\n      add\n        /* \"#utility.yul\":907:933   */\n      swap1\n      pop\n        /* \"#utility.yul\":979:988   */\n      dup2\n        /* \"#utility.yul\":973:977   */\n      dup2\n        /* \"#utility.yul\":969:989   */\n      sub\n        /* \"#utility.yul\":965:966   */\n      0x00\n        /* \"#utility.yul\":954:963   */\n      dup4\n        /* \"#utility.yul\":950:967   */\n      add\n        /* \"#utility.yul\":943:990   */\n      mstore\n        /* \"#utility.yul\":1007:1138   */\n      tag_325\n        /* \"#utility.yul\":1133:1137   */\n      dup2\n        /* \"#utility.yul\":1007:1138   */\n      tag_263\n      jump\t// in\n    tag_325:\n        /* \"#utility.yul\":999:1138   */\n      swap1\n      pop\n        /* \"#utility.yul\":726:1145   */\n      swap2\n      swap1\n      pop\n      jump\t// out\n        /* \"#utility.yul\":1151:1250   */\n    tag_264:\n        /* \"#utility.yul\":1203:1209   */\n      0x00\n        /* \"#utility.yul\":1237:1242   */\n      dup2\n        /* \"#utility.yul\":1231:1243   */\n      mload\n        /* \"#utility.yul\":1221:1243   */\n      swap1\n      pop\n        /* \"#utility.yul\":1151:1250   */\n      swap2\n      swap1\n      pop\n      jump\t// out\n        /* \"#utility.yul\":1256:1395   */\n    tag_265:\n        /* \"#utility.yul\":1345:1351   */\n      dup3\n        /* \"#utility.yul\":1340:1343   */\n      dup2\n        /* \"#utility.yul\":1335:1338   */\n      dup4\n        /* \"#utility.yul\":1329:1352   */\n      mcopy\n        /* \"#utility.yul\":1386:1387   */\n      0x00\n        /* \"#utility.yul\":1377:1383   */\n      dup4\n        /* \"#utility.yul\":1372:1375   */\n      dup4\n        /* \"#utility.yul\":1368:1384   */\n      add\n        /* \"#utility.yul\":1361:1388   */\n      mstore\n        /* \"#utility.yul\":1256:1395   */\n      pop\n      pop\n      pop\n      jump\t// out\n        /* \"#utility.yul\":1401:1503   */\n    tag_266:\n        /* \"#utility.yul\":1442:1448   */\n      0x00\n        /* \"#utility.yul\":1493:1495   */\n      0x1f\n        /* \"#utility.yul\":1489:1496   */\n      not\n        /* \"#utility.yul\":1484:1486   */\n      0x1f\n        /* \"#utility.yul\":1477:1482   */\n      dup4\n        /* \"#utility.yul\":1473:1487   */\n      add\n        /* \"#utility.yul\":1469:1497   */\n      and\n        /* \"#utility.yul\":1459:1497   */\n      swap1\n      pop\n        /* \"#utility.yul\":1401:1503   */\n      swap2\n      swap1\n      pop\n      jump\t// out\n        /* \"#utility.yul\":1509:1886   */\n    tag_267:\n        /* \"#utility.yul\":1597:1600   */\n      0x00\n        /* \"#utility.yul\":1625:1664   */\n      tag_330\n        /* \"#utility.yul\":1658:1663   */\n      dup3\n        /* \"#utility.yul\":1625:1664   */\n      tag_264\n      jump\t// in\n    tag_330:\n        /* \"#utility.yul\":1680:1751   */\n      tag_331\n        /* \"#utility.yul\":1744:1750   */\n      dup2\n        /* \"#utility.yul\":1739:1742   */\n      dup6\n        /* \"#utility.yul\":1680:1751   */\n      tag_261\n      jump\t// in\n    tag_331:\n        /* \"#utility.yul\":1673:1751   */\n      swap4\n      pop\n        /* \"#utility.yul\":1760:1825   */\n      tag_332\n        /* \"#utility.yul\":1818:1824   */\n      dup2\n        /* \"#utility.yul\":1813:1816   */\n      dup6\n        /* \"#utility.yul\":1806:1810   */\n      0x20\n        /* \"#utility.yul\":1799:1804   */\n      dup7\n        /* \"#utility.yul\":1795:1811   */\n      add\n        /* \"#utility.yul\":1760:1825   */\n      tag_265\n      jump\t// in\n    tag_332:\n        /* \"#utility.yul\":1850:1879   */\n      tag_333\n        /* \"#utility.yul\":1872:1878   */\n      dup2\n        /* \"#utility.yul\":1850:1879   */\n      tag_266\n      jump\t// in\n    tag_333:\n        /* \"#utility.yul\":1845:1848   */\n      dup5\n        /* \"#utility.yul\":1841:1880   */\n      add\n        /* \"#utility.yul\":1834:1880   */\n      swap2\n      pop\n        /* \"#utility.yul\":1601:1886   */\n      pop\n        /* \"#utility.yul\":1509:1886   */\n      swap3\n      swap2\n      pop\n      pop\n      jump\t// out\n        /* \"#utility.yul\":1892:2205   */\n    tag_37:\n        /* \"#utility.yul\":2005:2009   */\n      0x00\n        /* \"#utility.yul\":2043:2045   */\n      0x20\n        /* \"#utility.yul\":2032:2041   */\n      dup3\n        /* \"#utility.yul\":2028:2046   */\n      add\n        /* \"#utility.yul\":2020:2046   */\n      swap1\n      pop\n        /* \"#utility.yul\":2092:2101   */\n      dup2\n        /* \"#utility.yul\":2086:2090   */\n      dup2\n        /* \"#utility.yul\":2082:2102   */\n      sub\n        /* \"#utility.yul\":2078:2079   */\n      0x00\n        /* \"#utility.yul\":2067:2076   */\n      dup4\n        /* \"#utility.yul\":2063:2080   */\n      add\n        /* \"#utility.yul\":2056:2103   */\n      mstore\n        /* \"#utility.yul\":2120:2198   */\n      tag_335\n        /* \"#utility.yul\":2193:2197   */\n      dup2\n        /* \"#utility.yul\":2184:2190   */\n      dup5\n        /* \"#utility.yul\":2120:2198   */\n      tag_267\n      jump\t// in\n    tag_335:\n        /* \"#utility.yul\":2112:2198   */\n      swap1\n      pop\n        /* \"#utility.yul\":1892:2205   */\n      swap3\n      swap2\n      pop\n      pop\n      jump\t// out\n        /* \"#utility.yul\":2211:2286   */\n    tag_268:\n        /* \"#utility.yul\":2244:2250   */\n      0x00\n        /* \"#utility.yul\":2277:2279   */\n      0x40\n        /* \"#utility.yul\":2271:2280   */\n      mload\n        /* \"#utility.yul\":2261:2280   */\n      swap1\n      pop\n        /* \"#utility.yul\":2211:2286   */\n      swap1\n      jump\t// out\n        /* \"#utility.yul\":2292:2409   */\n    tag_269:\n        /* \"#utility.yul\":2401:2402   */\n      0x00\n        /* \"#utility.yul\":2398:2399   */\n      0x00\n        /* \"#utility.yul\":2391:2403   */\n      revert\n        /* \"#utility.yul\":2415:2532   */\n    tag_270:\n        /* \"#utility.yul\":2524:2525   */\n      0x00\n        /* \"#utility.yul\":2521:2522   */\n      0x00\n        /* \"#utility.yul\":2514:2526   */\n      revert\n        /* \"#utility.yul\":2538:2664   */\n    tag_271:\n        /* \"#utility.yul\":2575:2582   */\n      0x00\n        /* \"#utility.yul\":2615:2657   */\n      0xffffffffffffffffffffffffffffffffffffffff\n        /* \"#utility.yul\":2608:2613   */\n      dup3\n        /* \"#utility.yul\":2604:2658   */\n      and\n        /* \"#utility.yul\":2593:2658   */\n      swap1\n      pop\n        /* \"#utility.yul\":2538:2664   */\n      swap2\n      swap1\n      pop\n      jump\t// out\n        /* \"#utility.yul\":2670:2766   */\n    tag_272:\n        /* \"#utility.yul\":2707:2714   */\n      0x00\n        /* \"#utility.yul\":2736:2760   */\n      tag_341\n        /* \"#utility.yul\":2754:2759   */\n      dup3\n        /* \"#utility.yul\":2736:2760   */\n      tag_271\n      jump\t// in\n    tag_341:\n        /* \"#utility.yul\":2725:2760   */\n      swap1\n      pop\n        /* \"#utility.yul\":2670:2766   */\n      swap2\n      swap1\n      pop\n      jump\t// out\n        /* \"#utility.yul\":2772:2894   */\n    tag_273:\n        /* \"#utility.yul\":2845:2869   */\n      tag_343\n        /* \"#utility.yul\":2863:2868   */\n      dup2\n        /* \"#utility.yul\":2845:2869   */\n      tag_272\n      jump\t// in\n    tag_343:\n        /* \"#utility.yul\":2838:2843   */\n      dup2\n        /* \"#utility.yul\":2835:2870   */\n      eq\n        /* \"#utility.yul\":2825:2888   */\n      tag_344\n      jumpi\n        /* \"#utility.yul\":2884:2885   */\n      0x00\n        /* \"#utility.yul\":2881:2882   */\n      0x00\n        /* \"#utility.yul\":2874:2886   */\n      revert\n        /* \"#utility.yul\":2825:2888   */\n    tag_344:\n        /* \"#utility.yul\":2772:2894   */\n      pop\n      jump\t// out\n        /* \"#utility.yul\":2900:3039   */\n    tag_274:\n        /* \"#utility.yul\":2946:2951   */\n      0x00\n        /* \"#utility.yul\":2984:2990   */\n      dup2\n        /* \"#utility.yul\":2971:2991   */\n      calldataload\n        /* \"#utility.yul\":2962:2991   */\n      swap1\n      pop\n        /* \"#utility.yul\":3000:3033   */\n      tag_346\n        /* \"#utility.yul\":3027:3032   */\n      dup2\n        /* \"#utility.yul\":3000:3033   */\n      tag_273\n      jump\t// in\n    tag_346:\n        /* \"#utility.yul\":2900:3039   */\n      swap3\n      swap2\n      pop\n      pop\n      jump\t// out\n        /* \"#utility.yul\":3045:3122   */\n    tag_275:\n        /* \"#utility.yul\":3082:3089   */\n      0x00\n        /* \"#utility.yul\":3111:3116   */\n      dup2\n        /* \"#utility.yul\":3100:3116   */\n      swap1\n      pop\n        /* \"#utility.yul\":3045:3122   */\n      swap2\n      swap1\n      pop\n      jump\t// out\n        /* \"#utility.yul\":3128:3250   */\n    tag_276:\n        /* \"#utility.yul\":3201:3225   */\n      tag_349\n        /* \"#utility.yul\":3219:3224   */\n      dup2\n        /* \"#utility.yul\":3201:3225   */\n      tag_275\n      jump\t// in\n    tag_349:\n        /* \"#utility.yul\":3194:3199   */\n      dup2\n        /* \"#utility.yul\":3191:3226   */\n      eq\n        /* \"#utility.yul\":3181:3244   */\n      tag_350\n      jumpi\n        /* \"#utility.yul\":3240:3241   */\n      0x00\n        /* \"#utility.yul\":3237:3238   */\n      0x00\n        /* \"#utility.yul\":3230:3242   */\n      revert\n        /* \"#utility.yul\":3181:3244   */\n    tag_350:\n        /* \"#utility.yul\":3128:3250   */\n      pop\n      jump\t// out\n        /* \"#utility.yul\":3256:3395   */\n    tag_277:\n        /* \"#utility.yul\":3302:3307   */\n      0x00\n        /* \"#utility.yul\":3340:3346   */\n      dup2\n        /* \"#utility.yul\":3327:3347   */\n      calldataload\n        /* \"#utility.yul\":3318:3347   */\n      swap1\n      pop\n        /* \"#utility.yul\":3356:3389   */\n      tag_352\n        /* \"#utility.yul\":3383:3388   */\n      dup2\n        /* \"#utility.yul\":3356:3389   */\n      tag_276\n      jump\t// in\n    tag_352:\n        /* \"#utility.yul\":3256:3395   */\n      swap3\n      swap2\n      pop\n      pop\n      jump\t// out\n        /* \"#utility.yul\":3401:3875   */\n    tag_41:\n        /* \"#utility.yul\":3469:3475   */\n      0x00\n        /* \"#utility.yul\":3477:3483   */\n      0x00\n        /* \"#utility.yul\":3526:3528   */\n      0x40\n        /* \"#utility.yul\":3514:3523   */\n      dup4\n        /* \"#utility.yul\":3505:3512   */\n      dup6\n        /* \"#utility.yul\":3501:3524   */\n      sub\n        /* \"#utility.yul\":3497:3529   */\n      slt\n        /* \"#utility.yul\":3494:3613   */\n      iszero\n      tag_354\n      jumpi\n        /* \"#utility.yul\":3532:3611   */\n      tag_355\n      tag_269\n      jump\t// in\n    tag_355:\n        /* \"#utility.yul\":3494:3613   */\n    tag_354:\n        /* \"#utility.yul\":3652:3653   */\n      0x00\n        /* \"#utility.yul\":3677:3730   */\n      tag_356\n        /* \"#utility.yul\":3722:3729   */\n      dup6\n        /* \"#utility.yul\":3713:3719   */\n      dup3\n        /* \"#utility.yul\":3702:3711   */\n      dup7\n        /* \"#utility.yul\":3698:3720   */\n      add\n        /* \"#utility.yul\":3677:3730   */\n      tag_274\n      jump\t// in\n    tag_356:\n        /* \"#utility.yul\":3667:3730   */\n      swap3\n      pop\n        /* \"#utility.yul\":3623:3740   */\n      pop\n        /* \"#utility.yul\":3779:3781   */\n      0x20\n        /* \"#utility.yul\":3805:3858   */\n      tag_357\n        /* \"#utility.yul\":3850:3857   */\n      dup6\n        /* \"#utility.yul\":3841:3847   */\n      dup3\n        /* \"#utility.yul\":3830:3839   */\n      dup7\n        /* \"#utility.yul\":3826:3848   */\n      add\n        /* \"#utility.yul\":3805:3858   */\n      tag_277\n      jump\t// in\n    tag_357:\n        /* \"#utility.yul\":3795:3858   */\n      swap2\n      pop\n        /* \"#utility.yul\":3750:3868   */\n      pop\n        /* \"#utility.yul\":3401:3875   */\n      swap3\n      pop\n      swap3\n      swap1\n      pop\n      jump\t// out\n        /* \"#utility.yul\":3881:3971   */\n    tag_278:\n        /* \"#utility.yul\":3915:3922   */\n      0x00\n        /* \"#utility.yul\":3958:3963   */\n      dup2\n        /* \"#utility.yul\":3951:3964   */\n      iszero\n        /* \"#utility.yul\":3944:3965   */\n      iszero\n        /* \"#utility.yul\":3933:3965   */\n      swap1\n      pop\n        /* \"#utility.yul\":3881:3971   */\n      swap2\n      swap1\n      pop\n      jump\t// out\n        /* \"#utility.yul\":3977:4086   */\n    tag_279:\n        /* \"#utility.yul\":4058:4079   */\n      tag_360\n        /* \"#utility.yul\":4073:4078   */\n      dup2\n        /* \"#utility.yul\":4058:4079   */\n      tag_278\n      jump\t// in\n    tag_360:\n        /* \"#utility.yul\":4053:4056   */\n      dup3\n        /* \"#utility.yul\":4046:4080   */\n      mstore\n        /* \"#utility.yul\":3977:4086   */\n      pop\n      pop\n      jump\t// out\n        /* \"#utility.yul\":4092:4302   */\n    tag_44:\n        /* \"#utility.yul\":4179:4183   */\n      0x00\n        /* \"#utility.yul\":4217:4219   */\n      0x20\n        /* \"#utility.yul\":4206:4215   */\n      dup3\n        /* \"#utility.yul\":4202:4220   */\n      add\n        /* \"#utility.yul\":4194:4220   */\n      swap1\n      pop\n        /* \"#utility.yul\":4230:4295   */\n      tag_362\n        /* \"#utility.yul\":4292:4293   */\n      0x00\n        /* \"#utility.yul\":4281:4290   */\n      dup4\n        /* \"#utility.yul\":4277:4294   */\n      add\n        /* \"#utility.yul\":4268:4274   */\n      dup5\n        /* \"#utility.yul\":4230:4295   */\n      tag_279\n      jump\t// in\n    tag_362:\n        /* \"#utility.yul\":4092:4302   */\n      swap3\n      swap2\n      pop\n      pop\n      jump\t// out\n        /* \"#utility.yul\":4308:4782   */\n    tag_51:\n        /* \"#utility.yul\":4376:4382   */\n      0x00\n        /* \"#utility.yul\":4384:4390   */\n      0x00\n        /* \"#utility.yul\":4433:4435   */\n      0x40\n        /* \"#utility.yul\":4421:4430   */\n      dup4\n        /* \"#utility.yul\":4412:4419   */\n      dup6\n        /* \"#utility.yul\":4408:4431   */\n      sub\n        /* \"#utility.yul\":4404:4436   */\n      slt\n        /* \"#utility.yul\":4401:4520   */\n      iszero\n      tag_364\n      jumpi\n        /* \"#utility.yul\":4439:4518   */\n      tag_365\n      tag_269\n      jump\t// in\n    tag_365:\n        /* \"#utility.yul\":4401:4520   */\n    tag_364:\n        /* \"#utility.yul\":4559:4560   */\n      0x00\n        /* \"#utility.yul\":4584:4637   */\n      tag_366\n        /* \"#utility.yul\":4629:4636   */\n      dup6\n        /* \"#utility.yul\":4620:4626   */\n      dup3\n        /* \"#utility.yul\":4609:4618   */\n      dup7\n        /* \"#utility.yul\":4605:4627   */\n      add\n        /* \"#utility.yul\":4584:4637   */\n      tag_274\n      jump\t// in\n    tag_366:\n        /* \"#utility.yul\":4574:4637   */\n      swap3\n      pop\n        /* \"#utility.yul\":4530:4647   */\n      pop\n        /* \"#utility.yul\":4686:4688   */\n      0x20\n        /* \"#utility.yul\":4712:4765   */\n      tag_367\n        /* \"#utility.yul\":4757:4764   */\n      dup6\n        /* \"#utility.yul\":4748:4754   */\n      dup3\n        /* \"#utility.yul\":4737:4746   */\n      dup7\n        /* \"#utility.yul\":4733:4755   */\n      add\n        /* \"#utility.yul\":4712:4765   */\n      tag_274\n      jump\t// in\n    tag_367:\n        /* \"#utility.yul\":4702:4765   */\n      swap2\n      pop\n        /* \"#utility.yul\":4657:4775   */\n      pop\n        /* \"#utility.yul\":4308:4782   */\n      swap3\n      pop\n      swap3\n      swap1\n      pop\n      jump\t// out\n        /* \"#utility.yul\":4788:4906   */\n    tag_280:\n        /* \"#utility.yul\":4875:4899   */\n      tag_369\n        /* \"#utility.yul\":4893:4898   */\n      dup2\n        /* \"#utility.yul\":4875:4899   */\n      tag_275\n      jump\t// in\n    tag_369:\n        /* \"#utility.yul\":4870:4873   */\n      dup3\n        /* \"#utility.yul\":4863:4900   */\n      mstore\n        /* \"#utility.yul\":4788:4906   */\n      pop\n      pop\n      jump\t// out\n        /* \"#utility.yul\":4912:5134   */\n    tag_54:\n        /* \"#utility.yul\":5005:5009   */\n      0x00\n        /* \"#utility.yul\":5043:5045   */\n      0x20\n        /* \"#utility.yul\":5032:5041   */\n      dup3\n        /* \"#utility.yul\":5028:5046   */\n      add\n        /* \"#utility.yul\":5020:5046   */\n      swap1\n      pop\n        /* \"#utility.yul\":5056:5127   */\n      tag_371\n        /* \"#utility.yul\":5124:5125   */\n      0x00\n        /* \"#utility.yul\":5113:5122   */\n      dup4\n        /* \"#utility.yul\":5109:5126   */\n      add\n        /* \"#utility.yul\":5100:5106   */\n      dup5\n        /* \"#utility.yul\":5056:5127   */\n      tag_280\n      jump\t// in\n    tag_371:\n        /* \"#utility.yul\":4912:5134   */\n      swap3\n      swap2\n      pop\n      pop\n      jump\t// out\n        /* \"#utility.yul\":5140:5759   */\n    tag_70:\n        /* \"#utility.yul\":5217:5223   */\n      0x00\n        /* \"#utility.yul\":5225:5231   */\n      0x00\n        /* \"#utility.yul\":5233:5239   */\n      0x00\n        /* \"#utility.yul\":5282:5284   */\n      0x60\n        /* \"#utility.yul\":5270:5279   */\n      dup5\n        /* \"#utility.yul\":5261:5268   */\n      dup7\n        /* \"#utility.yul\":5257:5280   */\n      sub\n        /* \"#utility.yul\":5253:5285   */\n      slt\n        /* \"#utility.yul\":5250:5369   */\n      iszero\n      tag_373\n      jumpi\n        /* \"#utility.yul\":5288:5367   */\n      tag_374\n      tag_269\n      jump\t// in\n    tag_374:\n        /* \"#utility.yul\":5250:5369   */\n    tag_373:\n        /* \"#utility.yul\":5408:5409   */\n      0x00\n        /* \"#utility.yul\":5433:5486   */\n      tag_375\n        /* \"#utility.yul\":5478:5485   */\n      dup7\n        /* \"#utility.yul\":5469:5475   */\n      dup3\n        /* \"#utility.yul\":5458:5467   */\n      dup8\n        /* \"#utility.yul\":5454:5476   */\n      add\n        /* \"#utility.yul\":5433:5486   */\n      tag_274\n      jump\t// in\n    tag_375:\n        /* \"#utility.yul\":5423:5486   */\n      swap4\n      pop\n        /* \"#utility.yul\":5379:5496   */\n      pop\n        /* \"#utility.yul\":5535:5537   */\n      0x20\n        /* \"#utility.yul\":5561:5614   */\n      tag_376\n        /* \"#utility.yul\":5606:5613   */\n      dup7\n        /* \"#utility.yul\":5597:5603   */\n      dup3\n        /* \"#utility.yul\":5586:5595   */\n      dup8\n        /* \"#utility.yul\":5582:5604   */\n      add\n        /* \"#utility.yul\":5561:5614   */\n      tag_274\n      jump\t// in\n    tag_376:\n        /* \"#utility.yul\":5551:5614   */\n      swap3\n      pop\n        /* \"#utility.yul\":5506:5624   */\n      pop\n        /* \"#utility.yul\":5663:5665   */\n      0x40\n        /* \"#utility.yul\":5689:5742   */\n      tag_377\n        /* \"#utility.yul\":5734:5741   */\n      dup7\n        /* \"#utility.yul\":5725:5731   */\n      dup3\n        /* \"#utility.yul\":5714:5723   */\n      dup8\n        /* \"#utility.yul\":5710:5732   */\n      add\n        /* \"#utility.yul\":5689:5742   */\n      tag_277\n      jump\t// in\n    tag_377:\n        /* \"#utility.yul\":5679:5742   */\n      swap2\n      pop\n        /* \"#utility.yul\":5634:5752   */\n      pop\n        /* \"#utility.yul\":5140:5759   */\n      swap3\n      pop\n      swap3\n      pop\n      swap3\n      jump\t// out\n        /* \"#utility.yul\":5765:5851   */\n    tag_281:\n        /* \"#utility.yul\":5800:5807   */\n      0x00\n        /* \"#utility.yul\":5840:5844   */\n      0xff\n        /* \"#utility.yul\":5833:5838   */\n      dup3\n        /* \"#utility.yul\":5829:5845   */\n      and\n        /* \"#utility.yul\":5818:5845   */\n      swap1\n      pop\n        /* \"#utility.yul\":5765:5851   */\n      swap2\n      swap1\n      pop\n      jump\t// out\n        /* \"#utility.yul\":5857:5969   */\n    tag_282:\n        /* \"#utility.yul\":5940:5962   */\n      tag_380\n        /* \"#utility.yul\":5956:5961   */\n      dup2\n        /* \"#utility.yul\":5940:5962   */\n      tag_281\n      jump\t// in\n    tag_380:\n        /* \"#utility.yul\":5935:5938   */\n      dup3\n        /* \"#utility.yul\":5928:5963   */\n      mstore\n        /* \"#utility.yul\":5857:5969   */\n      pop\n      pop\n      jump\t// out\n        /* \"#utility.yul\":5975:6189   */\n    tag_81:\n        /* \"#utility.yul\":6064:6068   */\n      0x00\n        /* \"#utility.yul\":6102:6104   */\n      0x20\n        /* \"#utility.yul\":6091:6100   */\n      dup3\n        /* \"#utility.yul\":6087:6105   */\n      add\n        /* \"#utility.yul\":6079:6105   */\n      swap1\n      pop\n        /* \"#utility.yul\":6115:6182   */\n      tag_382\n        /* \"#utility.yul\":6179:6180   */\n      0x00\n        /* \"#utility.yul\":6168:6177   */\n      dup4\n        /* \"#utility.yul\":6164:6181   */\n      add\n        /* \"#utility.yul\":6155:6161   */\n      dup5\n        /* \"#utility.yul\":6115:6182   */\n      tag_282\n      jump\t// in\n    tag_382:\n        /* \"#utility.yul\":5975:6189   */\n      swap3\n      swap2\n      pop\n      pop\n      jump\t// out\n        /* \"#utility.yul\":6195:6524   */\n    tag_92:\n        /* \"#utility.yul\":6254:6260   */\n      0x00\n        /* \"#utility.yul\":6303:6305   */\n      0x20\n        /* \"#utility.yul\":6291:6300   */\n      dup3\n        /* \"#utility.yul\":6282:6289   */\n      dup5\n        /* \"#utility.yul\":6278:6301   */\n      sub\n        /* \"#utility.yul\":6274:6306   */\n      slt\n        /* \"#utility.yul\":6271:6390   */\n      iszero\n      tag_384\n      jumpi\n        /* \"#utility.yul\":6309:6388   */\n      tag_385\n      tag_269\n      jump\t// in\n    tag_385:\n        /* \"#utility.yul\":6271:6390   */\n    tag_384:\n        /* \"#utility.yul\":6429:6430   */\n      0x00\n        /* \"#utility.yul\":6454:6507   */\n      tag_386\n        /* \"#utility.yul\":6499:6506   */\n      dup5\n        /* \"#utility.yul\":6490:6496   */\n      dup3\n        /* \"#utility.yul\":6479:6488   */\n      dup6\n        /* \"#utility.yul\":6475:6497   */\n      add\n        /* \"#utility.yul\":6454:6507   */\n      tag_274\n      jump\t// in\n    tag_386:\n        /* \"#utility.yul\":6444:6507   */\n      swap2\n      pop\n        /* \"#utility.yul\":6400:6517   */\n      pop\n        /* \"#utility.yul\":6195:6524   */\n      swap3\n      swap2\n      pop\n      pop\n      jump\t// out\n        /* \"#utility.yul\":6530:6862   */\n    tag_125:\n        /* \"#utility.yul\":6651:6655   */\n      0x00\n        /* \"#utility.yul\":6689:6691   */\n      0x40\n        /* \"#utility.yul\":6678:6687   */\n      dup3\n        /* \"#utility.yul\":6674:6692   */\n      add\n        /* \"#utility.yul\":6666:6692   */\n      swap1\n      pop\n        /* \"#utility.yul\":6702:6773   */\n      tag_388\n        /* \"#utility.yul\":6770:6771   */\n      0x00\n        /* \"#utility.yul\":6759:6768   */\n      dup4\n        /* \"#utility.yul\":6755:6772   */\n      add\n        /* \"#utility.yul\":6746:6752   */\n      dup6\n        /* \"#utility.yul\":6702:6773   */\n      tag_280\n      jump\t// in\n    tag_388:\n        /* \"#utility.yul\":6783:6855   */\n      tag_389\n        /* \"#utility.yul\":6851:6853   */\n      0x20\n        /* \"#utility.yul\":6840:6849   */\n      dup4\n        /* \"#utility.yul\":6836:6854   */\n      add\n        /* \"#utility.yul\":6827:6833   */\n      dup5\n        /* \"#utility.yul\":6783:6855   */\n      tag_280\n      jump\t// in\n    tag_389:\n        /* \"#utility.yul\":6530:6862   */\n      swap4\n      swap3\n      pop\n      pop\n      pop\n      jump\t// out\n        /* \"#utility.yul\":6868:6986   */\n    tag_283:\n        /* \"#utility.yul\":6955:6979   */\n      tag_391\n        /* \"#utility.yul\":6973:6978   */\n      dup2\n        /* \"#utility.yul\":6955:6979   */\n      tag_272\n      jump\t// in\n    tag_391:\n        /* \"#utility.yul\":6950:6953   */\n      dup3\n        /* \"#utility.yul\":6943:6980   */\n      mstore\n        /* \"#utility.yul\":6868:6986   */\n      pop\n      pop\n      jump\t// out\n        /* \"#utility.yul\":6992:7214   */\n    tag_130:\n        /* \"#utility.yul\":7085:7089   */\n      0x00\n        /* \"#utility.yul\":7123:7125   */\n      0x20\n        /* \"#utility.yul\":7112:7121   */\n      dup3\n        /* \"#utility.yul\":7108:7126   */\n      add\n        /* \"#utility.yul\":7100:7126   */\n      swap1\n      pop\n        /* \"#utility.yul\":7136:7207   */\n      tag_393\n        /* \"#utility.yul\":7204:7205   */\n      0x00\n        /* \"#utility.yul\":7193:7202   */\n      dup4\n        /* \"#utility.yul\":7189:7206   */\n      add\n        /* \"#utility.yul\":7180:7186   */\n      dup5\n        /* \"#utility.yul\":7136:7207   */\n      tag_283\n      jump\t// in\n    tag_393:\n        /* \"#utility.yul\":6992:7214   */\n      swap3\n      swap2\n      pop\n      pop\n      jump\t// out\n        /* \"#utility.yul\":7220:7388   */\n    tag_284:\n        /* \"#utility.yul\":7360:7380   */\n      0x436f6e7472616374206973207061757365640000000000000000000000000000\n        /* \"#utility.yul\":7356:7357   */\n      0x00\n        /* \"#utility.yul\":7348:7354   */\n      dup3\n        /* \"#utility.yul\":7344:7358   */\n      add\n        /* \"#utility.yul\":7337:7381   */\n      mstore\n        /* \"#utility.yul\":7220:7388   */\n      pop\n      jump\t// out\n        /* \"#utility.yul\":7394:7760   */\n    tag_285:\n        /* \"#utility.yul\":7536:7539   */\n      0x00\n        /* \"#utility.yul\":7557:7624   */\n      tag_396\n        /* \"#utility.yul\":7621:7623   */\n      0x12\n        /* \"#utility.yul\":7616:7619   */\n      dup4\n        /* \"#utility.yul\":7557:7624   */\n      tag_261\n      jump\t// in\n    tag_396:\n        /* \"#utility.yul\":7550:7624   */\n      swap2\n      pop\n        /* \"#utility.yul\":7633:7726   */\n      tag_397\n        /* \"#utility.yul\":7722:7725   */\n      dup3\n        /* \"#utility.yul\":7633:7726   */\n      tag_284\n      jump\t// in\n    tag_397:\n        /* \"#utility.yul\":7751:7753   */\n      0x20\n        /* \"#utility.yul\":7746:7749   */\n      dup3\n        /* \"#utility.yul\":7742:7754   */\n      add\n        /* \"#utility.yul\":7735:7754   */\n      swap1\n      pop\n        /* \"#utility.yul\":7394:7760   */\n      swap2\n      swap1\n      pop\n      jump\t// out\n        /* \"#utility.yul\":7766:8185   */\n    tag_143:\n        /* \"#utility.yul\":7932:7936   */\n      0x00\n        /* \"#utility.yul\":7970:7972   */\n      0x20\n        /* \"#utility.yul\":7959:7968   */\n      dup3\n        /* \"#utility.yul\":7955:7973   */\n      add\n        /* \"#utility.yul\":7947:7973   */\n      swap1\n      pop\n        /* \"#utility.yul\":8019:8028   */\n      dup2\n        /* \"#utility.yul\":8013:8017   */\n      dup2\n        /* \"#utility.yul\":8009:8029   */\n      sub\n        /* \"#utility.yul\":8005:8006   */\n      0x00\n        /* \"#utility.yul\":7994:8003   */\n      dup4\n        /* \"#utility.yul\":7990:8007   */\n      add\n        /* \"#utility.yul\":7983:8030   */\n      mstore\n        /* \"#utility.yul\":8047:8178   */\n      tag_399\n        /* \"#utility.yul\":8173:8177   */\n      dup2\n        /* \"#utility.yul\":8047:8178   */\n      tag_285\n      jump\t// in\n    tag_399:\n        /* \"#utility.yul\":8039:8178   */\n      swap1\n      pop\n        /* \"#utility.yul\":7766:8185   */\n      swap2\n      swap1\n      pop\n      jump\t// out\n        /* \"#utility.yul\":8191:8372   */\n    tag_286:\n        /* \"#utility.yul\":8331:8364   */\n      0x436f6e7472616374207065726d616e656e746c79207465726d696e6174656400\n        /* \"#utility.yul\":8327:8328   */\n      0x00\n        /* \"#utility.yul\":8319:8325   */\n      dup3\n        /* \"#utility.yul\":8315:8329   */\n      add\n        /* \"#utility.yul\":8308:8365   */\n      mstore\n        /* \"#utility.yul\":8191:8372   */\n      pop\n      jump\t// out\n        /* \"#utility.yul\":8378:8744   */\n    tag_287:\n        /* \"#utility.yul\":8520:8523   */\n      0x00\n        /* \"#utility.yul\":8541:8608   */\n      tag_402\n        /* \"#utility.yul\":8605:8607   */\n      0x1f\n        /* \"#utility.yul\":8600:8603   */\n      dup4\n        /* \"#utility.yul\":8541:8608   */\n      tag_261\n      jump\t// in\n    tag_402:\n        /* \"#utility.yul\":8534:8608   */\n      swap2\n      pop\n        /* \"#utility.yul\":8617:8710   */\n      tag_403\n        /* \"#utility.yul\":8706:8709   */\n      dup3\n        /* \"#utility.yul\":8617:8710   */\n      tag_286\n      jump\t// in\n    tag_403:\n        /* \"#utility.yul\":8735:8737   */\n      0x20\n        /* \"#utility.yul\":8730:8733   */\n      dup3\n        /* \"#utility.yul\":8726:8738   */\n      add\n        /* \"#utility.yul\":8719:8738   */\n      swap1\n      pop\n        /* \"#utility.yul\":8378:8744   */\n      swap2\n      swap1\n      pop\n      jump\t// out\n        /* \"#utility.yul\":8750:9169   */\n    tag_147:\n        /* \"#utility.yul\":8916:8920   */\n      0x00\n        /* \"#utility.yul\":8954:8956   */\n      0x20\n        /* \"#utility.yul\":8943:8952   */\n      dup3\n        /* \"#utility.yul\":8939:8957   */\n      add\n        /* \"#utility.yul\":8931:8957   */\n      swap1\n      pop\n        /* \"#utility.yul\":9003:9012   */\n      dup2\n        /* \"#utility.yul\":8997:9001   */\n      dup2\n        /* \"#utility.yul\":8993:9013   */\n      sub\n        /* \"#utility.yul\":8989:8990   */\n      0x00\n        /* \"#utility.yul\":8978:8987   */\n      dup4\n        /* \"#utility.yul\":8974:8991   */\n      add\n        /* \"#utility.yul\":8967:9014   */\n      mstore\n        /* \"#utility.yul\":9031:9162   */\n      tag_405\n        /* \"#utility.yul\":9157:9161   */\n      dup2\n        /* \"#utility.yul\":9031:9162   */\n      tag_287\n      jump\t// in\n    tag_405:\n        /* \"#utility.yul\":9023:9162   */\n      swap1\n      pop\n        /* \"#utility.yul\":8750:9169   */\n      swap2\n      swap1\n      pop\n      jump\t// out\n        /* \"#utility.yul\":9175:9352   */\n    tag_288:\n        /* \"#utility.yul\":9315:9344   */\n      0x417070726f766520746f20746865207a65726f20616464726573730000000000\n        /* \"#utility.yul\":9311:9312   */\n      0x00\n        /* \"#utility.yul\":9303:9309   */\n      dup3\n        /* \"#utility.yul\":9299:9313   */\n      add\n        /* \"#utility.yul\":9292:9345   */\n      mstore\n        /* \"#utility.yul\":9175:9352   */\n      pop\n      jump\t// out\n        /* \"#utility.yul\":9358:9724   */\n    tag_289:\n        /* \"#utility.yul\":9500:9503   */\n      0x00\n        /* \"#utility.yul\":9521:9588   */\n      tag_408\n        /* \"#utility.yul\":9585:9587   */\n      0x1b\n        /* \"#utility.yul\":9580:9583   */\n      dup4\n        /* \"#utility.yul\":9521:9588   */\n      tag_261\n      jump\t// in\n    tag_408:\n        /* \"#utility.yul\":9514:9588   */\n      swap2\n      pop\n        /* \"#utility.yul\":9597:9690   */\n      tag_409\n        /* \"#utility.yul\":9686:9689   */\n      dup3\n        /* \"#utility.yul\":9597:9690   */\n      tag_288\n      jump\t// in\n    tag_409:\n        /* \"#utility.yul\":9715:9717   */\n      0x20\n        /* \"#utility.yul\":9710:9713   */\n      dup3\n        /* \"#utility.yul\":9706:9718   */\n      add\n        /* \"#utility.yul\":9699:9718   */\n      swap1\n      pop\n        /* \"#utility.yul\":9358:9724   */\n      swap2\n      swap1\n      pop\n      jump\t// out\n        /* \"#utility.yul\":9730:10149   */\n    tag_151:\n        /* \"#utility.yul\":9896:9900   */\n      0x00\n        /* \"#utility.yul\":9934:9936   */\n      0x20\n        /* \"#utility.yul\":9923:9932   */\n      dup3\n        /* \"#utility.yul\":9919:9937   */\n      add\n        /* \"#utility.yul\":9911:9937   */\n      swap1\n      pop\n        /* \"#utility.yul\":9983:9992   */\n      dup2\n        /* \"#utility.yul\":9977:9981   */\n      dup2\n        /* \"#utility.yul\":9973:9993   */\n      sub\n        /* \"#utility.yul\":9969:9970   */\n      0x00\n        /* \"#utility.yul\":9958:9967   */\n      dup4\n        /* \"#utility.yul\":9954:9971   */\n      add\n        /* \"#utility.yul\":9947:9994   */\n      mstore\n        /* \"#utility.yul\":10011:10142   */\n      tag_411\n        /* \"#utility.yul\":10137:10141   */\n      dup2\n        /* \"#utility.yul\":10011:10142   */\n      tag_289\n      jump\t// in\n    tag_411:\n        /* \"#utility.yul\":10003:10142   */\n      swap1\n      pop\n        /* \"#utility.yul\":9730:10149   */\n      swap2\n      swap1\n      pop\n      jump\t// out\n        /* \"#utility.yul\":10155:10337   */\n    tag_290:\n        /* \"#utility.yul\":10295:10329   */\n      0x416d6f756e74206d7573742062652067726561746572207468616e207a65726f\n        /* \"#utility.yul\":10291:10292   */\n      0x00\n        /* \"#utility.yul\":10283:10289   */\n      dup3\n        /* \"#utility.yul\":10279:10293   */\n      add\n        /* \"#utility.yul\":10272:10330   */\n      mstore\n        /* \"#utility.yul\":10155:10337   */\n      pop\n      jump\t// out\n        /* \"#utility.yul\":10343:10709   */\n    tag_291:\n        /* \"#utility.yul\":10485:10488   */\n      0x00\n        /* \"#utility.yul\":10506:10573   */\n      tag_414\n        /* \"#utility.yul\":10570:10572   */\n      0x20\n        /* \"#utility.yul\":10565:10568   */\n      dup4\n        /* \"#utility.yul\":10506:10573   */\n      tag_261\n      jump\t// in\n    tag_414:\n        /* \"#utility.yul\":10499:10573   */\n      swap2\n      pop\n        /* \"#utility.yul\":10582:10675   */\n      tag_415\n        /* \"#utility.yul\":10671:10674   */\n      dup3\n        /* \"#utility.yul\":10582:10675   */\n      tag_290\n      jump\t// in\n    tag_415:\n        /* \"#utility.yul\":10700:10702   */\n      0x20\n        /* \"#utility.yul\":10695:10698   */\n      dup3\n        /* \"#utility.yul\":10691:10703   */\n      add\n        /* \"#utility.yul\":10684:10703   */\n      swap1\n      pop\n        /* \"#utility.yul\":10343:10709   */\n      swap2\n      swap1\n      pop\n      jump\t// out\n        /* \"#utility.yul\":10715:11134   */\n    tag_154:\n        /* \"#utility.yul\":10881:10885   */\n      0x00\n        /* \"#utility.yul\":10919:10921   */\n      0x20\n        /* \"#utility.yul\":10908:10917   */\n      dup3\n        /* \"#utility.yul\":10904:10922   */\n      add\n        /* \"#utility.yul\":10896:10922   */\n      swap1\n      pop\n        /* \"#utility.yul\":10968:10977   */\n      dup2\n        /* \"#utility.yul\":10962:10966   */\n      dup2\n        /* \"#utility.yul\":10958:10978   */\n      sub\n        /* \"#utility.yul\":10954:10955   */\n      0x00\n        /* \"#utility.yul\":10943:10952   */\n      dup4\n        /* \"#utility.yul\":10939:10956   */\n      add\n        /* \"#utility.yul\":10932:10979   */\n      mstore\n        /* \"#utility.yul\":10996:11127   */\n      tag_417\n        /* \"#utility.yul\":11122:11126   */\n      dup2\n        /* \"#utility.yul\":10996:11127   */\n      tag_291\n      jump\t// in\n    tag_417:\n        /* \"#utility.yul\":10988:11127   */\n      swap1\n      pop\n        /* \"#utility.yul\":10715:11134   */\n      swap2\n      swap1\n      pop\n      jump\t// out\n        /* \"#utility.yul\":11140:11360   */\n    tag_292:\n        /* \"#utility.yul\":11280:11314   */\n      0x4f6e6c79206f776e65722063616e2063616c6c20746869732066756e6374696f\n        /* \"#utility.yul\":11276:11277   */\n      0x00\n        /* \"#utility.yul\":11268:11274   */\n      dup3\n        /* \"#utility.yul\":11264:11278   */\n      add\n        /* \"#utility.yul\":11257:11315   */\n      mstore\n        /* \"#utility.yul\":11349:11352   */\n      0x6e00000000000000000000000000000000000000000000000000000000000000\n        /* \"#utility.yul\":11344:11346   */\n      0x20\n        /* \"#utility.yul\":11336:11342   */\n      dup3\n        /* \"#utility.yul\":11332:11347   */\n      add\n        /* \"#utility.yul\":11325:11353   */\n      mstore\n        /* \"#utility.yul\":11140:11360   */\n      pop\n      jump\t// out\n        /* \"#utility.yul\":11366:11732   */\n    tag_293:\n        /* \"#utility.yul\":11508:11511   */\n      0x00\n        /* \"#utility.yul\":11529:11596   */\n      tag_420\n        /* \"#utility.yul\":11593:11595   */\n      0x21\n        /* \"#utility.yul\":11588:11591   */\n      dup4\n        /* \"#utility.yul\":11529:11596   */\n      tag_261\n      jump\t// in\n    tag_420:\n        /* \"#utility.yul\":11522:11596   */\n      swap2\n      pop\n        /* \"#utility.yul\":11605:11698   */\n      tag_421\n        /* \"#utility.yul\":11694:11697   */\n      dup3\n        /* \"#utility.yul\":11605:11698   */\n      tag_292\n      jump\t// in\n    tag_421:\n        /* \"#utility.yul\":11723:11725   */\n      0x40\n        /* \"#utility.yul\":11718:11721   */\n      dup3\n        /* \"#utility.yul\":11714:11726   */\n      add\n        /* \"#utility.yul\":11707:11726   */\n      swap1\n      pop\n        /* \"#utility.yul\":11366:11732   */\n      swap2\n      swap1\n      pop\n      jump\t// out\n        /* \"#utility.yul\":11738:12157   */\n    tag_159:\n        /* \"#utility.yul\":11904:11908   */\n      0x00\n        /* \"#utility.yul\":11942:11944   */\n      0x20\n        /* \"#utility.yul\":11931:11940   */\n      dup3\n        /* \"#utility.yul\":11927:11945   */\n      add\n        /* \"#utility.yul\":11919:11945   */\n      swap1\n      pop\n        /* \"#utility.yul\":11991:12000   */\n      dup2\n        /* \"#utility.yul\":11985:11989   */\n      dup2\n        /* \"#utility.yul\":11981:12001   */\n      sub\n        /* \"#utility.yul\":11977:11978   */\n      0x00\n        /* \"#utility.yul\":11966:11975   */\n      dup4\n        /* \"#utility.yul\":11962:11979   */\n      add\n        /* \"#utility.yul\":11955:12002   */\n      mstore\n        /* \"#utility.yul\":12019:12150   */\n      tag_423\n        /* \"#utility.yul\":12145:12149   */\n      dup2\n        /* \"#utility.yul\":12019:12150   */\n      tag_293\n      jump\t// in\n    tag_423:\n        /* \"#utility.yul\":12011:12150   */\n      swap1\n      pop\n        /* \"#utility.yul\":11738:12157   */\n      swap2\n      swap1\n      pop\n      jump\t// out\n        /* \"#utility.yul\":12163:12495   */\n    tag_163:\n        /* \"#utility.yul\":12284:12288   */\n      0x00\n        /* \"#utility.yul\":12322:12324   */\n      0x40\n        /* \"#utility.yul\":12311:12320   */\n      dup3\n        /* \"#utility.yul\":12307:12325   */\n      add\n        /* \"#utility.yul\":12299:12325   */\n      swap1\n      pop\n        /* \"#utility.yul\":12335:12406   */\n      tag_425\n        /* \"#utility.yul\":12403:12404   */\n      0x00\n        /* \"#utility.yul\":12392:12401   */\n      dup4\n        /* \"#utility.yul\":12388:12405   */\n      add\n        /* \"#utility.yul\":12379:12385   */\n      dup6\n        /* \"#utility.yul\":12335:12406   */\n      tag_283\n      jump\t// in\n    tag_425:\n        /* \"#utility.yul\":12416:12488   */\n      tag_426\n        /* \"#utility.yul\":12484:12486   */\n      0x20\n        /* \"#utility.yul\":12473:12482   */\n      dup4\n        /* \"#utility.yul\":12469:12487   */\n      add\n        /* \"#utility.yul\":12460:12466   */\n      dup5\n        /* \"#utility.yul\":12416:12488   */\n      tag_283\n      jump\t// in\n    tag_426:\n        /* \"#utility.yul\":12163:12495   */\n      swap4\n      swap3\n      pop\n      pop\n      pop\n      jump\t// out\n        /* \"#utility.yul\":12501:12644   */\n    tag_294:\n        /* \"#utility.yul\":12558:12563   */\n      0x00\n        /* \"#utility.yul\":12589:12595   */\n      dup2\n        /* \"#utility.yul\":12583:12596   */\n      mload\n        /* \"#utility.yul\":12574:12596   */\n      swap1\n      pop\n        /* \"#utility.yul\":12605:12638   */\n      tag_428\n        /* \"#utility.yul\":12632:12637   */\n      dup2\n        /* \"#utility.yul\":12605:12638   */\n      tag_276\n      jump\t// in\n    tag_428:\n        /* \"#utility.yul\":12501:12644   */\n      swap3\n      swap2\n      pop\n      pop\n      jump\t// out\n        /* \"#utility.yul\":12650:13001   */\n    tag_167:\n        /* \"#utility.yul\":12720:12726   */\n      0x00\n        /* \"#utility.yul\":12769:12771   */\n      0x20\n        /* \"#utility.yul\":12757:12766   */\n      dup3\n        /* \"#utility.yul\":12748:12755   */\n      dup5\n        /* \"#utility.yul\":12744:12767   */\n      sub\n        /* \"#utility.yul\":12740:12772   */\n      slt\n        /* \"#utility.yul\":12737:12856   */\n      iszero\n      tag_430\n      jumpi\n        /* \"#utility.yul\":12775:12854   */\n      tag_431\n      tag_269\n      jump\t// in\n    tag_431:\n        /* \"#utility.yul\":12737:12856   */\n    tag_430:\n        /* \"#utility.yul\":12895:12896   */\n      0x00\n        /* \"#utility.yul\":12920:12984   */\n      tag_432\n        /* \"#utility.yul\":12976:12983   */\n      dup5\n        /* \"#utility.yul\":12967:12973   */\n      dup3\n        /* \"#utility.yul\":12956:12965   */\n      dup6\n        /* \"#utility.yul\":12952:12974   */\n      add\n        /* \"#utility.yul\":12920:12984   */\n      tag_294\n      jump\t// in\n    tag_432:\n        /* \"#utility.yul\":12910:12984   */\n      swap2\n      pop\n        /* \"#utility.yul\":12866:12994   */\n      pop\n        /* \"#utility.yul\":12650:13001   */\n      swap3\n      swap2\n      pop\n      pop\n      jump\t// out\n        /* \"#utility.yul\":13007:13187   */\n    tag_295:\n        /* \"#utility.yul\":13055:13132   */\n      0x4e487b7100000000000000000000000000000000000000000000000000000000\n        /* \"#utility.yul\":13052:13053   */\n      0x00\n        /* \"#utility.yul\":13045:13133   */\n      mstore\n        /* \"#utility.yul\":13152:13156   */\n      0x11\n        /* \"#utility.yul\":13149:13150   */\n      0x04\n        /* \"#utility.yul\":13142:13157   */\n      mstore\n        /* \"#utility.yul\":13176:13180   */\n      0x24\n        /* \"#utility.yul\":13173:13174   */\n      0x00\n        /* \"#utility.yul\":13166:13181   */\n      revert\n        /* \"#utility.yul\":13193:13295   */\n    tag_296:\n        /* \"#utility.yul\":13235:13243   */\n      0x00\n        /* \"#utility.yul\":13282:13287   */\n      dup2\n        /* \"#utility.yul\":13279:13280   */\n      0x01\n        /* \"#utility.yul\":13275:13288   */\n      shr\n        /* \"#utility.yul\":13254:13288   */\n      swap1\n      pop\n        /* \"#utility.yul\":13193:13295   */\n      swap2\n      swap1\n      pop\n      jump\t// out\n        /* \"#utility.yul\":13301:14149   */\n    tag_297:\n        /* \"#utility.yul\":13362:13367   */\n      0x00\n        /* \"#utility.yul\":13369:13373   */\n      0x00\n        /* \"#utility.yul\":13393:13399   */\n      dup3\n        /* \"#utility.yul\":13384:13399   */\n      swap2\n      pop\n        /* \"#utility.yul\":13417:13422   */\n      dup4\n        /* \"#utility.yul\":13408:13422   */\n      swap1\n      pop\n        /* \"#utility.yul\":13431:14143   */\n    tag_436:\n        /* \"#utility.yul\":13452:13453   */\n      0x01\n        /* \"#utility.yul\":13442:13450   */\n      dup6\n        /* \"#utility.yul\":13439:13454   */\n      gt\n        /* \"#utility.yul\":13431:14143   */\n      iszero\n      tag_438\n      jumpi\n        /* \"#utility.yul\":13547:13551   */\n      dup1\n        /* \"#utility.yul\":13542:13545   */\n      dup7\n        /* \"#utility.yul\":13538:13552   */\n      div\n        /* \"#utility.yul\":13532:13536   */\n      dup2\n        /* \"#utility.yul\":13529:13553   */\n      gt\n        /* \"#utility.yul\":13526:13576   */\n      iszero\n      tag_439\n      jumpi\n        /* \"#utility.yul\":13556:13574   */\n      tag_440\n      tag_295\n      jump\t// in\n    tag_440:\n        /* \"#utility.yul\":13526:13576   */\n    tag_439:\n        /* \"#utility.yul\":13606:13607   */\n      0x01\n        /* \"#utility.yul\":13596:13604   */\n      dup6\n        /* \"#utility.yul\":13592:13608   */\n      and\n        /* \"#utility.yul\":13589:14040   */\n      iszero\n      tag_441\n      jumpi\n        /* \"#utility.yul\":14021:14025   */\n      dup1\n        /* \"#utility.yul\":14014:14019   */\n      dup3\n        /* \"#utility.yul\":14010:14026   */\n      mul\n        /* \"#utility.yul\":14001:14026   */\n      swap2\n      pop\n        /* \"#utility.yul\":13589:14040   */\n    tag_441:\n        /* \"#utility.yul\":14071:14075   */\n      dup1\n        /* \"#utility.yul\":14065:14069   */\n      dup2\n        /* \"#utility.yul\":14061:14076   */\n      mul\n        /* \"#utility.yul\":14053:14076   */\n      swap1\n      pop\n        /* \"#utility.yul\":14101:14133   */\n      tag_442\n        /* \"#utility.yul\":14124:14132   */\n      dup6\n        /* \"#utility.yul\":14101:14133   */\n      tag_296\n      jump\t// in\n    tag_442:\n        /* \"#utility.yul\":14089:14133   */\n      swap5\n      pop\n        /* \"#utility.yul\":13431:14143   */\n      jump(tag_436)\n    tag_438:\n        /* \"#utility.yul\":13301:14149   */\n      swap5\n      pop\n      swap5\n      swap3\n      pop\n      pop\n      pop\n      jump\t// out\n        /* \"#utility.yul\":14155:15228   */\n    tag_298:\n        /* \"#utility.yul\":14209:14214   */\n      0x00\n        /* \"#utility.yul\":14400:14408   */\n      dup3\n        /* \"#utility.yul\":14390:14430   */\n      tag_444\n      jumpi\n        /* \"#utility.yul\":14421:14422   */\n      0x01\n        /* \"#utility.yul\":14412:14422   */\n      swap1\n      pop\n        /* \"#utility.yul\":14423:14428   */\n      jump(tag_443)\n        /* \"#utility.yul\":14390:14430   */\n    tag_444:\n        /* \"#utility.yul\":14449:14453   */\n      dup2\n        /* \"#utility.yul\":14439:14475   */\n      tag_445\n      jumpi\n        /* \"#utility.yul\":14466:14467   */\n      0x00\n        /* \"#utility.yul\":14457:14467   */\n      swap1\n      pop\n        /* \"#utility.yul\":14468:14473   */\n      jump(tag_443)\n        /* \"#utility.yul\":14439:14475   */\n    tag_445:\n        /* \"#utility.yul\":14535:14539   */\n      dup2\n        /* \"#utility.yul\":14583:14584   */\n      0x01\n        /* \"#utility.yul\":14578:14605   */\n      dup2\n      eq\n      tag_447\n      jumpi\n        /* \"#utility.yul\":14619:14620   */\n      0x02\n        /* \"#utility.yul\":14614:14805   */\n      dup2\n      eq\n      tag_448\n      jumpi\n        /* \"#utility.yul\":14528:14805   */\n      jump(tag_446)\n        /* \"#utility.yul\":14578:14605   */\n    tag_447:\n        /* \"#utility.yul\":14596:14597   */\n      0x01\n        /* \"#utility.yul\":14587:14597   */\n      swap2\n      pop\n        /* \"#utility.yul\":14598:14603   */\n      pop\n      jump(tag_443)\n        /* \"#utility.yul\":14614:14805   */\n    tag_448:\n        /* \"#utility.yul\":14659:14662   */\n      0xff\n        /* \"#utility.yul\":14649:14657   */\n      dup5\n        /* \"#utility.yul\":14646:14663   */\n      gt\n        /* \"#utility.yul\":14643:14686   */\n      iszero\n      tag_449\n      jumpi\n        /* \"#utility.yul\":14666:14684   */\n      tag_450\n      tag_295\n      jump\t// in\n    tag_450:\n        /* \"#utility.yul\":14643:14686   */\n    tag_449:\n        /* \"#utility.yul\":14715:14723   */\n      dup4\n        /* \"#utility.yul\":14712:14713   */\n      0x02\n        /* \"#utility.yul\":14708:14724   */\n      exp\n        /* \"#utility.yul\":14699:14724   */\n      swap2\n      pop\n        /* \"#utility.yul\":14750:14753   */\n      dup5\n        /* \"#utility.yul\":14743:14748   */\n      dup3\n        /* \"#utility.yul\":14740:14754   */\n      gt\n        /* \"#utility.yul\":14737:14777   */\n      iszero\n      tag_451\n      jumpi\n        /* \"#utility.yul\":14757:14775   */\n      tag_452\n      tag_295\n      jump\t// in\n    tag_452:\n        /* \"#utility.yul\":14737:14777   */\n    tag_451:\n        /* \"#utility.yul\":14790:14795   */\n      pop\n      jump(tag_443)\n        /* \"#utility.yul\":14528:14805   */\n    tag_446:\n      pop\n        /* \"#utility.yul\":14914:14916   */\n      0x20\n        /* \"#utility.yul\":14904:14912   */\n      dup4\n        /* \"#utility.yul\":14901:14917   */\n      lt\n        /* \"#utility.yul\":14895:14898   */\n      0x0133\n        /* \"#utility.yul\":14889:14893   */\n      dup4\n        /* \"#utility.yul\":14886:14899   */\n      lt\n        /* \"#utility.yul\":14882:14918   */\n      and\n        /* \"#utility.yul\":14864:14866   */\n      0x4e\n        /* \"#utility.yul\":14854:14862   */\n      dup5\n        /* \"#utility.yul\":14851:14867   */\n      lt\n        /* \"#utility.yul\":14846:14848   */\n      0x0b\n        /* \"#utility.yul\":14840:14844   */\n      dup5\n        /* \"#utility.yul\":14837:14849   */\n      lt\n        /* \"#utility.yul\":14833:14868   */\n      and\n        /* \"#utility.yul\":14817:14928   */\n      or\n        /* \"#utility.yul\":14814:15060   */\n      iszero\n      tag_453\n      jumpi\n        /* \"#utility.yul\":14970:14978   */\n      dup3\n        /* \"#utility.yul\":14964:14968   */\n      dup3\n        /* \"#utility.yul\":14960:14979   */\n      exp\n        /* \"#utility.yul\":14951:14979   */\n      swap1\n      pop\n        /* \"#utility.yul\":15005:15008   */\n      dup4\n        /* \"#utility.yul\":14998:15003   */\n      dup2\n        /* \"#utility.yul\":14995:15009   */\n      gt\n        /* \"#utility.yul\":14992:15032   */\n      iszero\n      tag_454\n      jumpi\n        /* \"#utility.yul\":15012:15030   */\n      tag_455\n      tag_295\n      jump\t// in\n    tag_455:\n        /* \"#utility.yul\":14992:15032   */\n    tag_454:\n        /* \"#utility.yul\":15045:15050   */\n      jump(tag_443)\n        /* \"#utility.yul\":14814:15060   */\n    tag_453:\n        /* \"#utility.yul\":15085:15127   */\n      tag_456\n        /* \"#utility.yul\":15123:15126   */\n      dup5\n        /* \"#utility.yul\":15113:15121   */\n      dup5\n        /* \"#utility.yul\":15107:15111   */\n      dup5\n        /* \"#utility.yul\":15104:15105   */\n      0x01\n        /* \"#utility.yul\":15085:15127   */\n      tag_297\n      jump\t// in\n    tag_456:\n        /* \"#utility.yul\":15070:15127   */\n      swap3\n      pop\n      swap1\n      pop\n        /* \"#utility.yul\":15159:15163   */\n      dup2\n        /* \"#utility.yul\":15154:15157   */\n      dup5\n        /* \"#utility.yul\":15150:15164   */\n      div\n        /* \"#utility.yul\":15143:15148   */\n      dup2\n        /* \"#utility.yul\":15140:15165   */\n      gt\n        /* \"#utility.yul\":15137:15188   */\n      iszero\n      tag_457\n      jumpi\n        /* \"#utility.yul\":15168:15186   */\n      tag_458\n      tag_295\n      jump\t// in\n    tag_458:\n        /* \"#utility.yul\":15137:15188   */\n    tag_457:\n        /* \"#utility.yul\":15217:15221   */\n      dup2\n        /* \"#utility.yul\":15210:15215   */\n      dup2\n        /* \"#utility.yul\":15206:15222   */\n      mul\n        /* \"#utility.yul\":15197:15222   */\n      swap1\n      pop\n        /* \"#utility.yul\":14155:15228   */\n    tag_443:\n      swap4\n      swap3\n      pop\n      pop\n      pop\n      jump\t// out\n        /* \"#utility.yul\":15234:15519   */\n    tag_169:\n        /* \"#utility.yul\":15294:15299   */\n      0x00\n        /* \"#utility.yul\":15318:15341   */\n      tag_460\n        /* \"#utility.yul\":15336:15340   */\n      dup3\n        /* \"#utility.yul\":15318:15341   */\n      tag_275\n      jump\t// in\n    tag_460:\n        /* \"#utility.yul\":15310:15341   */\n      swap2\n      pop\n        /* \"#utility.yul\":15362:15389   */\n      tag_461\n        /* \"#utility.yul\":15380:15388   */\n      dup4\n        /* \"#utility.yul\":15362:15389   */\n      tag_275\n      jump\t// in\n    tag_461:\n        /* \"#utility.yul\":15350:15389   */\n      swap3\n      pop\n        /* \"#utility.yul\":15408:15512   */\n      tag_462\n        /* \"#utility.yul\":15445:15511   */\n      0xffffffffffffffffffffffffffffffffffffffffffffffffffffffffffffffff\n        /* \"#utility.yul\":15435:15443   */\n      dup5\n        /* \"#utility.yul\":15429:15433   */\n      dup5\n        /* \"#utility.yul\":15408:15512   */\n      tag_298\n      jump\t// in\n    tag_462:\n        /* \"#utility.yul\":15399:15512   */\n      swap1\n      pop\n        /* \"#utility.yul\":15234:15519   */\n      swap3\n      swap2\n      pop\n      pop\n      jump\t// out\n        /* \"#utility.yul\":15525:15935   */\n    tag_171:\n        /* \"#utility.yul\":15565:15572   */\n      0x00\n        /* \"#utility.yul\":15588:15608   */\n      tag_464\n        /* \"#utility.yul\":15606:15607   */\n      dup3\n        /* \"#utility.yul\":15588:15608   */\n      tag_275\n      jump\t// in\n    tag_464:\n        /* \"#utility.yul\":15583:15608   */\n      swap2\n      pop\n        /* \"#utility.yul\":15622:15642   */\n      tag_465\n        /* \"#utility.yul\":15640:15641   */\n      dup4\n        /* \"#utility.yul\":15622:15642   */\n      tag_275\n      jump\t// in\n    tag_465:\n        /* \"#utility.yul\":15617:15642   */\n      swap3\n      pop\n        /* \"#utility.yul\":15677:15678   */\n      dup3\n        /* \"#utility.yul\":15674:15675   */\n      dup3\n        /* \"#utility.yul\":15670:15679   */\n      mul\n        /* \"#utility.yul\":15699:15729   */\n      tag_466\n        /* \"#utility.yul\":15717:15728   */\n      dup2\n        /* \"#utility.yul\":15699:15729   */\n      tag_275\n      jump\t// in\n    tag_466:\n        /* \"#utility.yul\":15688:15729   */\n      swap2\n      pop\n        /* \"#utility.yul\":15878:15879   */\n      dup3\n        /* \"#utility.yul\":15869:15876   */\n      dup3\n        /* \"#utility.yul\":15865:15880   */\n      div\n        /* \"#utility.yul\":15862:15863   */\n      dup5\n        /* \"#utility.yul\":15859:15881   */\n      eq\n        /* \"#utility.yul\":15839:15840   */\n      dup4\n        /* \"#utility.yul\":15832:15841   */\n      iszero\n        /* \"#utility.yul\":15812:15895   */\n      or\n        /* \"#utility.yul\":15789:15928   */\n      tag_467\n      jumpi\n        /* \"#utility.yul\":15908:15926   */\n      tag_468\n      tag_295\n      jump\t// in\n    tag_468:\n        /* \"#utility.yul\":15789:15928   */\n    tag_467:\n        /* \"#utility.yul\":15573:15935   */\n      pop\n        /* \"#utility.yul\":15525:15935   */\n      swap3\n      swap2\n      pop\n      pop\n      jump\t// out\n        /* \"#utility.yul\":15941:16106   */\n    tag_299:\n        /* \"#utility.yul\":16081:16098   */\n      0x496e76616c696420616464726573730000000000000000000000000000000000\n        /* \"#utility.yul\":16077:16078   */\n      0x00\n        /* \"#utility.yul\":16069:16075   */\n      dup3\n        /* \"#utility.yul\":16065:16079   */\n      add\n        /* \"#utility.yul\":16058:16099   */\n      mstore\n        /* \"#utility.yul\":15941:16106   */\n      pop\n      jump\t// out\n        /* \"#utility.yul\":16112:16478   */\n    tag_300:\n        /* \"#utility.yul\":16254:16257   */\n      0x00\n        /* \"#utility.yul\":16275:16342   */\n      tag_471\n        /* \"#utility.yul\":16339:16341   */\n      0x0f\n        /* \"#utility.yul\":16334:16337   */\n      dup4\n        /* \"#utility.yul\":16275:16342   */\n      tag_261\n      jump\t// in\n    tag_471:\n        /* \"#utility.yul\":16268:16342   */\n      swap2\n      pop\n        /* \"#utility.yul\":16351:16444   */\n      tag_472\n        /* \"#utility.yul\":16440:16443   */\n      dup3\n        /* \"#utility.yul\":16351:16444   */\n      tag_299\n      jump\t// in\n    tag_472:\n        /* \"#utility.yul\":16469:16471   */\n      0x20\n        /* \"#utility.yul\":16464:16467   */\n      dup3\n        /* \"#utility.yul\":16460:16472   */\n      add\n        /* \"#utility.yul\":16453:16472   */\n      swap1\n      pop\n        /* \"#utility.yul\":16112:16478   */\n      swap2\n      swap1\n      pop\n      jump\t// out\n        /* \"#utility.yul\":16484:16903   */\n    tag_186:\n        /* \"#utility.yul\":16650:16654   */\n      0x00\n        /* \"#utility.yul\":16688:16690   */\n      0x20\n        /* \"#utility.yul\":16677:16686   */\n      dup3\n        /* \"#utility.yul\":16673:16691   */\n      add\n        /* \"#utility.yul\":16665:16691   */\n      swap1\n      pop\n        /* \"#utility.yul\":16737:16746   */\n      dup2\n        /* \"#utility.yul\":16731:16735   */\n      dup2\n        /* \"#utility.yul\":16727:16747   */\n      sub\n        /* \"#utility.yul\":16723:16724   */\n      0x00\n        /* \"#utility.yul\":16712:16721   */\n      dup4\n        /* \"#utility.yul\":16708:16725   */\n      add\n        /* \"#utility.yul\":16701:16748   */\n      mstore\n        /* \"#utility.yul\":16765:16896   */\n      tag_474\n        /* \"#utility.yul\":16891:16895   */\n      dup2\n        /* \"#utility.yul\":16765:16896   */\n      tag_300\n      jump\t// in\n    tag_474:\n        /* \"#utility.yul\":16757:16896   */\n      swap1\n      pop\n        /* \"#utility.yul\":16484:16903   */\n      swap2\n      swap1\n      pop\n      jump\t// out\n        /* \"#utility.yul\":16909:17079   */\n    tag_301:\n        /* \"#utility.yul\":17049:17071   */\n      0x496e73756666696369656e742062616c616e6365000000000000000000000000\n        /* \"#utility.yul\":17045:17046   */\n      0x00\n        /* \"#utility.yul\":17037:17043   */\n      dup3\n        /* \"#utility.yul\":17033:17047   */\n      add\n        /* \"#utility.yul\":17026:17072   */\n      mstore\n        /* \"#utility.yul\":16909:17079   */\n      pop\n      jump\t// out\n        /* \"#utility.yul\":17085:17451   */\n    tag_302:\n        /* \"#utility.yul\":17227:17230   */\n      0x00\n        /* \"#utility.yul\":17248:17315   */\n      tag_477\n        /* \"#utility.yul\":17312:17314   */\n      0x14\n        /* \"#utility.yul\":17307:17310   */\n      dup4\n        /* \"#utility.yul\":17248:17315   */\n      tag_261\n      jump\t// in\n    tag_477:\n        /* \"#utility.yul\":17241:17315   */\n      swap2\n      pop\n        /* \"#utility.yul\":17324:17417   */\n      tag_478\n        /* \"#utility.yul\":17413:17416   */\n      dup3\n        /* \"#utility.yul\":17324:17417   */\n      tag_301\n      jump\t// in\n    tag_478:\n        /* \"#utility.yul\":17442:17444   */\n      0x20\n        /* \"#utility.yul\":17437:17440   */\n      dup3\n        /* \"#utility.yul\":17433:17445   */\n      add\n        /* \"#utility.yul\":17426:17445   */\n      swap1\n      pop\n        /* \"#utility.yul\":17085:17451   */\n      swap2\n      swap1\n      pop\n      jump\t// out\n        /* \"#utility.yul\":17457:17876   */\n    tag_191:\n        /* \"#utility.yul\":17623:17627   */\n      0x00\n        /* \"#utility.yul\":17661:17663   */\n      0x20\n        /* \"#utility.yul\":17650:17659   */\n      dup3\n        /* \"#utility.yul\":17646:17664   */\n      add\n        /* \"#utility.yul\":17638:17664   */\n      swap1\n      pop\n        /* \"#utility.yul\":17710:17719   */\n      dup2\n        /* \"#utility.yul\":17704:17708   */\n      dup2\n        /* \"#utility.yul\":17700:17720   */\n      sub\n        /* \"#utility.yul\":17696:17697   */\n      0x00\n        /* \"#utility.yul\":17685:17694   */\n      dup4\n        /* \"#utility.yul\":17681:17698   */\n      add\n        /* \"#utility.yul\":17674:17721   */\n      mstore\n        /* \"#utility.yul\":17738:17869   */\n      tag_480\n        /* \"#utility.yul\":17864:17868   */\n      dup2\n        /* \"#utility.yul\":17738:17869   */\n      tag_302\n      jump\t// in\n    tag_480:\n        /* \"#utility.yul\":17730:17869   */\n      swap1\n      pop\n        /* \"#utility.yul\":17457:17876   */\n      swap2\n      swap1\n      pop\n      jump\t// out\n        /* \"#utility.yul\":17882:18050   */\n    tag_303:\n        /* \"#utility.yul\":18022:18042   */\n      0x416c6c6f77616e63652065786365656465640000000000000000000000000000\n        /* \"#utility.yul\":18018:18019   */\n      0x00\n        /* \"#utility.yul\":18010:18016   */\n      dup3\n        /* \"#utility.yul\":18006:18020   */\n      add\n        /* \"#utility.yul\":17999:18043   */\n      mstore\n        /* \"#utility.yul\":17882:18050   */\n      pop\n      jump\t// out\n        /* \"#utility.yul\":18056:18422   */\n    tag_304:\n        /* \"#utility.yul\":18198:18201   */\n      0x00\n        /* \"#utility.yul\":18219:18286   */\n      tag_483\n        /* \"#utility.yul\":18283:18285   */\n      0x12\n        /* \"#utility.yul\":18278:18281   */\n      dup4\n        /* \"#utility.yul\":18219:18286   */\n      tag_261\n      jump\t// in\n    tag_483:\n        /* \"#utility.yul\":18212:18286   */\n      swap2\n      pop\n        /* \"#utility.yul\":18295:18388   */\n      tag_484\n        /* \"#utility.yul\":18384:18387   */\n      dup3\n        /* \"#utility.yul\":18295:18388   */\n      tag_303\n      jump\t// in\n    tag_484:\n        /* \"#utility.yul\":18413:18415   */\n      0x20\n        /* \"#utility.yul\":18408:18411   */\n      dup3\n        /* \"#utility.yul\":18404:18416   */\n      add\n        /* \"#utility.yul\":18397:18416   */\n      swap1\n      pop\n        /* \"#utility.yul\":18056:18422   */\n      swap2\n      swap1\n      pop\n      jump\t// out\n        /* \"#utility.yul\":18428:18847   */\n    tag_194:\n        /* \"#utility.yul\":18594:18598   */\n      0x00\n        /* \"#utility.yul\":18632:18634   */\n      0x20\n        /* \"#utility.yul\":18621:18630   */\n      dup3\n        /* \"#utility.yul\":18617:18635   */\n      add\n        /* \"#utility.yul\":18609:18635   */\n      swap1\n      pop\n        /* \"#utility.yul\":18681:18690   */\n      dup2\n        /* \"#utility.yul\":18675:18679   */\n      dup2\n        /* \"#utility.yul\":18671:18691   */\n      sub\n        /* \"#utility.yul\":18667:18668   */\n      0x00\n        /* \"#utility.yul\":18656:18665   */\n      dup4\n        /* \"#utility.yul\":18652:18669   */\n      add\n        /* \"#utility.yul\":18645:18692   */\n      mstore\n        /* \"#utility.yul\":18709:18840   */\n      tag_486\n        /* \"#utility.yul\":18835:18839   */\n      dup2\n        /* \"#utility.yul\":18709:18840   */\n      tag_304\n      jump\t// in\n    tag_486:\n        /* \"#utility.yul\":18701:18840   */\n      swap1\n      pop\n        /* \"#utility.yul\":18428:18847   */\n      swap2\n      swap1\n      pop\n      jump\t// out\n        /* \"#utility.yul\":18853:19047   */\n    tag_196:\n        /* \"#utility.yul\":18893:18897   */\n      0x00\n        /* \"#utility.yul\":18913:18933   */\n      tag_488\n        /* \"#utility.yul\":18931:18932   */\n      dup3\n        /* \"#utility.yul\":18913:18933   */\n      tag_275\n      jump\t// in\n    tag_488:\n        /* \"#utility.yul\":18908:18933   */\n      swap2\n      pop\n        /* \"#utility.yul\":18947:18967   */\n      tag_489\n        /* \"#utility.yul\":18965:18966   */\n      dup4\n        /* \"#utility.yul\":18947:18967   */\n      tag_275\n      jump\t// in\n    tag_489:\n        /* \"#utility.yul\":18942:18967   */\n      swap3\n      pop\n        /* \"#utility.yul\":18991:18992   */\n      dup3\n        /* \"#utility.yul\":18988:18989   */\n      dup3\n        /* \"#utility.yul\":18984:18993   */\n      sub\n        /* \"#utility.yul\":18976:18993   */\n      swap1\n      pop\n        /* \"#utility.yul\":19015:19016   */\n      dup2\n        /* \"#utility.yul\":19009:19013   */\n      dup2\n        /* \"#utility.yul\":19006:19017   */\n      gt\n        /* \"#utility.yul\":19003:19040   */\n      iszero\n      tag_490\n      jumpi\n        /* \"#utility.yul\":19020:19038   */\n      tag_491\n      tag_295\n      jump\t// in\n    tag_491:\n        /* \"#utility.yul\":19003:19040   */\n    tag_490:\n        /* \"#utility.yul\":18853:19047   */\n      swap3\n      swap2\n      pop\n      pop\n      jump\t// out\n        /* \"#utility.yul\":19053:19244   */\n    tag_198:\n        /* \"#utility.yul\":19093:19096   */\n      0x00\n        /* \"#utility.yul\":19112:19132   */\n      tag_493\n        /* \"#utility.yul\":19130:19131   */\n      dup3\n        /* \"#utility.yul\":19112:19132   */\n      tag_275\n      jump\t// in\n    tag_493:\n        /* \"#utility.yul\":19107:19132   */\n      swap2\n      pop\n        /* \"#utility.yul\":19146:19166   */\n      tag_494\n        /* \"#utility.yul\":19164:19165   */\n      dup4\n        /* \"#utility.yul\":19146:19166   */\n      tag_275\n      jump\t// in\n    tag_494:\n        /* \"#utility.yul\":19141:19166   */\n      swap3\n      pop\n        /* \"#utility.yul\":19189:19190   */\n      dup3\n        /* \"#utility.yul\":19186:19187   */\n      dup3\n        /* \"#utility.yul\":19182:19191   */\n      add\n        /* \"#utility.yul\":19175:19191   */\n      swap1\n      pop\n        /* \"#utility.yul\":19210:19213   */\n      dup1\n        /* \"#utility.yul\":19207:19208   */\n      dup3\n        /* \"#utility.yul\":19204:19214   */\n      gt\n        /* \"#utility.yul\":19201:19237   */\n      iszero\n      tag_495\n      jumpi\n        /* \"#utility.yul\":19217:19235   */\n      tag_496\n      tag_295\n      jump\t// in\n    tag_496:\n        /* \"#utility.yul\":19201:19237   */\n    tag_495:\n        /* \"#utility.yul\":19053:19244   */\n      swap3\n      swap2\n      pop\n      pop\n      jump\t// out\n        /* \"#utility.yul\":19250:19367   */\n    tag_305:\n        /* \"#utility.yul\":19359:19360   */\n      0x00\n        /* \"#utility.yul\":19356:19357   */\n      0x00\n        /* \"#utility.yul\":19349:19361   */\n      revert\n        /* \"#utility.yul\":19373:19490   */\n    tag_306:\n        /* \"#utility.yul\":19482:19483   */\n      0x00\n        /* \"#utility.yul\":19479:19480   */\n      0x00\n        /* \"#utility.yul\":19472:19484   */\n      revert\n        /* \"#utility.yul\":19496:19676   */\n    tag_307:\n        /* \"#utility.yul\":19544:19621   */\n      0x4e487b7100000000000000000000000000000000000000000000000000000000\n        /* \"#utility.yul\":19541:19542   */\n      0x00\n        /* \"#utility.yul\":19534:19622   */\n      mstore\n        /* \"#utility.yul\":19641:19645   */\n      0x41\n        /* \"#utility.yul\":19638:19639   */\n      0x04\n        /* \"#utility.yul\":19631:19646   */\n      mstore\n        /* \"#utility.yul\":19665:19669   */\n      0x24\n        /* \"#utility.yul\":19662:19663   */\n      0x00\n        /* \"#utility.yul\":19655:19670   */\n      revert\n        /* \"#utility.yul\":19682:19963   */\n    tag_308:\n        /* \"#utility.yul\":19765:19792   */\n      tag_501\n        /* \"#utility.yul\":19787:19791   */\n      dup3\n        /* \"#utility.yul\":19765:19792   */\n      tag_266\n      jump\t// in\n    tag_501:\n        /* \"#utility.yul\":19757:19763   */\n      dup2\n        /* \"#utility.yul\":19753:19793   */\n      add\n        /* \"#utility.yul\":19895:19901   */\n      dup2\n        /* \"#utility.yul\":19883:19893   */\n      dup2\n        /* \"#utility.yul\":19880:19902   */\n      lt\n        /* \"#utility.yul\":19859:19877   */\n      0xffffffffffffffff\n        /* \"#utility.yul\":19847:19857   */\n      dup3\n        /* \"#utility.yul\":19844:19878   */\n      gt\n        /* \"#utility.yul\":19841:19903   */\n      or\n        /* \"#utility.yul\":19838:19926   */\n      iszero\n      tag_502\n      jumpi\n        /* \"#utility.yul\":19906:19924   */\n      tag_503\n      tag_307\n      jump\t// in\n    tag_503:\n        /* \"#utility.yul\":19838:19926   */\n    tag_502:\n        /* \"#utility.yul\":19946:19956   */\n      dup1\n        /* \"#utility.yul\":19942:19944   */\n      0x40\n        /* \"#utility.yul\":19935:19957   */\n      mstore\n        /* \"#utility.yul\":19725:19963   */\n      pop\n        /* \"#utility.yul\":19682:19963   */\n      pop\n      pop\n      jump\t// out\n        /* \"#utility.yul\":19969:20098   */\n    tag_309:\n        /* \"#utility.yul\":20003:20009   */\n      0x00\n        /* \"#utility.yul\":20030:20050   */\n      tag_505\n      tag_268\n      jump\t// in\n    tag_505:\n        /* \"#utility.yul\":20020:20050   */\n      swap1\n      pop\n        /* \"#utility.yul\":20059:20092   */\n      tag_506\n        /* \"#utility.yul\":20087:20091   */\n      dup3\n        /* \"#utility.yul\":20079:20085   */\n      dup3\n        /* \"#utility.yul\":20059:20092   */\n      tag_308\n      jump\t// in\n    tag_506:\n        /* \"#utility.yul\":19969:20098   */\n      swap2\n      swap1\n      pop\n      jump\t// out\n        /* \"#utility.yul\":20104:20412   */\n    tag_310:\n        /* \"#utility.yul\":20166:20170   */\n      0x00\n        /* \"#utility.yul\":20256:20274   */\n      0xffffffffffffffff\n        /* \"#utility.yul\":20248:20254   */\n      dup3\n        /* \"#utility.yul\":20245:20275   */\n      gt\n        /* \"#utility.yul\":20242:20298   */\n      iszero\n      tag_508\n      jumpi\n        /* \"#utility.yul\":20278:20296   */\n      tag_509\n      tag_307\n      jump\t// in\n    tag_509:\n        /* \"#utility.yul\":20242:20298   */\n    tag_508:\n        /* \"#utility.yul\":20316:20345   */\n      tag_510\n        /* \"#utility.yul\":20338:20344   */\n      dup3\n        /* \"#utility.yul\":20316:20345   */\n      tag_266\n      jump\t// in\n    tag_510:\n        /* \"#utility.yul\":20308:20345   */\n      swap1\n      pop\n        /* \"#utility.yul\":20400:20404   */\n      0x20\n        /* \"#utility.yul\":20394:20398   */\n      dup2\n        /* \"#utility.yul\":20390:20405   */\n      add\n        /* \"#utility.yul\":20382:20405   */\n      swap1\n      pop\n        /* \"#utility.yul\":20104:20412   */\n      swap2\n      swap1\n      pop\n      jump\t// out\n        /* \"#utility.yul\":20418:20852   */\n    tag_311:\n        /* \"#utility.yul\":20507:20512   */\n      0x00\n        /* \"#utility.yul\":20532:20598   */\n      tag_512\n        /* \"#utility.yul\":20548:20597   */\n      tag_513\n        /* \"#utility.yul\":20590:20596   */\n      dup5\n        /* \"#utility.yul\":20548:20597   */\n      tag_310\n      jump\t// in\n    tag_513:\n        /* \"#utility.yul\":20532:20598   */\n      tag_309\n      jump\t// in\n    tag_512:\n        /* \"#utility.yul\":20523:20598   */\n      swap1\n      pop\n        /* \"#utility.yul\":20621:20627   */\n      dup3\n        /* \"#utility.yul\":20614:20619   */\n      dup2\n        /* \"#utility.yul\":20607:20628   */\n      mstore\n        /* \"#utility.yul\":20659:20663   */\n      0x20\n        /* \"#utility.yul\":20652:20657   */\n      dup2\n        /* \"#utility.yul\":20648:20664   */\n      add\n        /* \"#utility.yul\":20697:20700   */\n      dup5\n        /* \"#utility.yul\":20688:20694   */\n      dup5\n        /* \"#utility.yul\":20683:20686   */\n      dup5\n        /* \"#utility.yul\":20679:20695   */\n      add\n        /* \"#utility.yul\":20676:20701   */\n      gt\n        /* \"#utility.yul\":20673:20785   */\n      iszero\n      tag_514\n      jumpi\n        /* \"#utility.yul\":20704:20783   */\n      tag_515\n      tag_306\n      jump\t// in\n    tag_515:\n        /* \"#utility.yul\":20673:20785   */\n    tag_514:\n        /* \"#utility.yul\":20794:20846   */\n      tag_516\n        /* \"#utility.yul\":20839:20845   */\n      dup5\n        /* \"#utility.yul\":20834:20837   */\n      dup3\n        /* \"#utility.yul\":20829:20832   */\n      dup6\n        /* \"#utility.yul\":20794:20846   */\n      tag_265\n      jump\t// in\n    tag_516:\n        /* \"#utility.yul\":20513:20852   */\n      pop\n        /* \"#utility.yul\":20418:20852   */\n      swap4\n      swap3\n      pop\n      pop\n      pop\n      jump\t// out\n        /* \"#utility.yul\":20872:21227   */\n    tag_312:\n        /* \"#utility.yul\":20939:20944   */\n      0x00\n        /* \"#utility.yul\":20988:20991   */\n      dup3\n        /* \"#utility.yul\":20981:20985   */\n      0x1f\n        /* \"#utility.yul\":20973:20979   */\n      dup4\n        /* \"#utility.yul\":20969:20986   */\n      add\n        /* \"#utility.yul\":20965:20992   */\n      slt\n        /* \"#utility.yul\":20955:21077   */\n      tag_518\n      jumpi\n        /* \"#utility.yul\":20996:21075   */\n      tag_519\n      tag_305\n      jump\t// in\n    tag_519:\n        /* \"#utility.yul\":20955:21077   */\n    tag_518:\n        /* \"#utility.yul\":21106:21112   */\n      dup2\n        /* \"#utility.yul\":21100:21113   */\n      mload\n        /* \"#utility.yul\":21131:21221   */\n      tag_520\n        /* \"#utility.yul\":21217:21220   */\n      dup5\n        /* \"#utility.yul\":21209:21215   */\n      dup3\n        /* \"#utility.yul\":21202:21206   */\n      0x20\n        /* \"#utility.yul\":21194:21200   */\n      dup7\n        /* \"#utility.yul\":21190:21207   */\n      add\n        /* \"#utility.yul\":21131:21221   */\n      tag_311\n      jump\t// in\n    tag_520:\n        /* \"#utility.yul\":21122:21221   */\n      swap2\n      pop\n        /* \"#utility.yul\":20945:21227   */\n      pop\n        /* \"#utility.yul\":20872:21227   */\n      swap3\n      swap2\n      pop\n      pop\n      jump\t// out\n        /* \"#utility.yul\":21233:21757   */\n    tag_205:\n        /* \"#utility.yul\":21313:21319   */\n      0x00\n        /* \"#utility.yul\":21362:21364   */\n      0x20\n        /* \"#utility.yul\":21350:21359   */\n      dup3\n        /* \"#utility.yul\":21341:21348   */\n      dup5\n        /* \"#utility.yul\":21337:21360   */\n      sub\n        /* \"#utility.yul\":21333:21365   */\n      slt\n        /* \"#utility.yul\":21330:21449   */\n      iszero\n      tag_522\n      jumpi\n        /* \"#utility.yul\":21368:21447   */\n      tag_523\n      tag_269\n      jump\t// in\n    tag_523:\n        /* \"#utility.yul\":21330:21449   */\n    tag_522:\n        /* \"#utility.yul\":21509:21510   */\n      0x00\n        /* \"#utility.yul\":21498:21507   */\n      dup3\n        /* \"#utility.yul\":21494:21511   */\n      add\n        /* \"#utility.yul\":21488:21512   */\n      mload\n        /* \"#utility.yul\":21539:21557   */\n      0xffffffffffffffff\n        /* \"#utility.yul\":21531:21537   */\n      dup2\n        /* \"#utility.yul\":21528:21558   */\n      gt\n        /* \"#utility.yul\":21525:21642   */\n      iszero\n      tag_524\n      jumpi\n        /* \"#utility.yul\":21561:21640   */\n      tag_525\n      tag_270\n      jump\t// in\n    tag_525:\n        /* \"#utility.yul\":21525:21642   */\n    tag_524:\n        /* \"#utility.yul\":21666:21740   */\n      tag_526\n        /* \"#utility.yul\":21732:21739   */\n      dup5\n        /* \"#utility.yul\":21723:21729   */\n      dup3\n        /* \"#utility.yul\":21712:21721   */\n      dup6\n        /* \"#utility.yul\":21708:21730   */\n      add\n        /* \"#utility.yul\":21666:21740   */\n      tag_312\n      jump\t// in\n    tag_526:\n        /* \"#utility.yul\":21656:21740   */\n      swap2\n      pop\n        /* \"#utility.yul\":21459:21750   */\n      pop\n        /* \"#utility.yul\":21233:21757   */\n      swap3\n      swap2\n      pop\n      pop\n      jump\t// out\n        /* \"#utility.yul\":21763:21943   */\n    tag_313:\n        /* \"#utility.yul\":21811:21888   */\n      0x4e487b7100000000000000000000000000000000000000000000000000000000\n        /* \"#utility.yul\":21808:21809   */\n      0x00\n        /* \"#utility.yul\":21801:21889   */\n      mstore\n        /* \"#utility.yul\":21908:21912   */\n      0x22\n        /* \"#utility.yul\":21905:21906   */\n      0x04\n        /* \"#utility.yul\":21898:21913   */\n      mstore\n        /* \"#utility.yul\":21932:21936   */\n      0x24\n        /* \"#utility.yul\":21929:21930   */\n      0x00\n        /* \"#utility.yul\":21922:21937   */\n      revert\n        /* \"#utility.yul\":21949:22269   */\n    tag_217:\n        /* \"#utility.yul\":21993:21999   */\n      0x00\n        /* \"#utility.yul\":22030:22031   */\n      0x02\n        /* \"#utility.yul\":22024:22028   */\n      dup3\n        /* \"#utility.yul\":22020:22032   */\n      div\n        /* \"#utility.yul\":22010:22032   */\n      swap1\n      pop\n        /* \"#utility.yul\":22077:22078   */\n      0x01\n        /* \"#utility.yul\":22071:22075   */\n      dup3\n        /* \"#utility.yul\":22067:22079   */\n      and\n        /* \"#utility.yul\":22098:22116   */\n      dup1\n        /* \"#utility.yul\":22088:22169   */\n      tag_529\n      jumpi\n        /* \"#utility.yul\":22154:22158   */\n      0x7f\n        /* \"#utility.yul\":22146:22152   */\n      dup3\n        /* \"#utility.yul\":22142:22159   */\n      and\n        /* \"#utility.yul\":22132:22159   */\n      swap2\n      pop\n        /* \"#utility.yul\":22088:22169   */\n    tag_529:\n        /* \"#utility.yul\":22216:22218   */\n      0x20\n        /* \"#utility.yul\":22208:22214   */\n      dup3\n        /* \"#utility.yul\":22205:22219   */\n      lt\n        /* \"#utility.yul\":22185:22203   */\n      dup2\n        /* \"#utility.yul\":22182:22220   */\n      sub\n        /* \"#utility.yul\":22179:22263   */\n      tag_530\n      jumpi\n        /* \"#utility.yul\":22235:22253   */\n      tag_531\n      tag_313\n      jump\t// in\n    tag_531:\n        /* \"#utility.yul\":22179:22263   */\n    tag_530:\n        /* \"#utility.yul\":22000:22269   */\n      pop\n        /* \"#utility.yul\":21949:22269   */\n      swap2\n      swap1\n      pop\n      jump\t// out\n        /* \"#utility.yul\":22275:22453   */\n    tag_314:\n        /* \"#utility.yul\":22415:22445   */\n      0x5472616e7366657220746f20746865207a65726f206164647265737300000000\n        /* \"#utility.yul\":22411:22412   */\n      0x00\n        /* \"#utility.yul\":22403:22409   */\n      dup3\n        /* \"#utility.yul\":22399:22413   */\n      add\n        /* \"#utility.yul\":22392:22446   */\n      mstore\n        /* \"#utility.yul\":22275:22453   */\n      pop\n      jump\t// out\n        /* \"#utility.yul\":22459:22825   */\n    tag_315:\n        /* \"#utility.yul\":22601:22604   */\n      0x00\n        /* \"#utility.yul\":22622:22689   */\n      tag_534\n        /* \"#utility.yul\":22686:22688   */\n      0x1c\n        /* \"#utility.yul\":22681:22684   */\n      dup4\n        /* \"#utility.yul\":22622:22689   */\n      tag_261\n      jump\t// in\n    tag_534:\n        /* \"#utility.yul\":22615:22689   */\n      swap2\n      pop\n        /* \"#utility.yul\":22698:22791   */\n      tag_535\n        /* \"#utility.yul\":22787:22790   */\n      dup3\n        /* \"#utility.yul\":22698:22791   */\n      tag_314\n      jump\t// in\n    tag_535:\n        /* \"#utility.yul\":22816:22818   */\n      0x20\n        /* \"#utility.yul\":22811:22814   */\n      dup3\n        /* \"#utility.yul\":22807:22819   */\n      add\n        /* \"#utility.yul\":22800:22819   */\n      swap1\n      pop\n        /* \"#utility.yul\":22459:22825   */\n      swap2\n      swap1\n      pop\n      jump\t// out\n        /* \"#utility.yul\":22831:23250   */\n    tag_240:\n        /* \"#utility.yul\":22997:23001   */\n      0x00\n        /* \"#utility.yul\":23035:23037   */\n      0x20\n        /* \"#utility.yul\":23024:23033   */\n      dup3\n        /* \"#utility.yul\":23020:23038   */\n      add\n        /* \"#utility.yul\":23012:23038   */\n      swap1\n      pop\n        /* \"#utility.yul\":23084:23093   */\n      dup2\n        /* \"#utility.yul\":23078:23082   */\n      dup2\n        /* \"#utility.yul\":23074:23094   */\n      sub\n        /* \"#utility.yul\":23070:23071   */\n      0x00\n        /* \"#utility.yul\":23059:23068   */\n      dup4\n        /* \"#utility.yul\":23055:23072   */\n      add\n        /* \"#utility.yul\":23048:23095   */\n      mstore\n        /* \"#utility.yul\":23112:23243   */\n      tag_537\n        /* \"#utility.yul\":23238:23242   */\n      dup2\n        /* \"#utility.yul\":23112:23243   */\n      tag_315\n      jump\t// in\n    tag_537:\n        /* \"#utility.yul\":23104:23243   */\n      swap1\n      pop\n        /* \"#utility.yul\":22831:23250   */\n      swap2\n      swap1\n      pop\n      jump\t// out\n        /* \"#utility.yul\":23256:23435   */\n    tag_316:\n        /* \"#utility.yul\":23396:23427   */\n      0x4e6577206f776e657220697320746865207a65726f2061646472657373000000\n        /* \"#utility.yul\":23392:23393   */\n      0x00\n        /* \"#utility.yul\":23384:23390   */\n      dup3\n        /* \"#utility.yul\":23380:23394   */\n      add\n        /* \"#utility.yul\":23373:23428   */\n      mstore\n        /* \"#utility.yul\":23256:23435   */\n      pop\n      jump\t// out\n        /* \"#utility.yul\":23441:23807   */\n    tag_317:\n        /* \"#utility.yul\":23583:23586   */\n      0x00\n        /* \"#utility.yul\":23604:23671   */\n      tag_540\n        /* \"#utility.yul\":23668:23670   */\n      0x1d\n        /* \"#utility.yul\":23663:23666   */\n      dup4\n        /* \"#utility.yul\":23604:23671   */\n      tag_261\n      jump\t// in\n    tag_540:\n        /* \"#utility.yul\":23597:23671   */\n      swap2\n      pop\n        /* \"#utility.yul\":23680:23773   */\n      tag_541\n        /* \"#utility.yul\":23769:23772   */\n      dup3\n        /* \"#utility.yul\":23680:23773   */\n      tag_316\n      jump\t// in\n    tag_541:\n        /* \"#utility.yul\":23798:23800   */\n      0x20\n        /* \"#utility.yul\":23793:23796   */\n      dup3\n        /* \"#utility.yul\":23789:23801   */\n      add\n        /* \"#utility.yul\":23782:23801   */\n      swap1\n      pop\n        /* \"#utility.yul\":23441:23807   */\n      swap2\n      swap1\n      pop\n      jump\t// out\n        /* \"#utility.yul\":23813:24232   */\n    tag_260:\n        /* \"#utility.yul\":23979:23983   */\n      0x00\n        /* \"#utility.yul\":24017:24019   */\n      0x20\n        /* \"#utility.yul\":24006:24015   */\n      dup3\n        /* \"#utility.yul\":24002:24020   */\n      add\n        /* \"#utility.yul\":23994:24020   */\n      swap1\n      pop\n        /* \"#utility.yul\":24066:24075   */\n      dup2\n        /* \"#utility.yul\":24060:24064   */\n      dup2\n        /* \"#utility.yul\":24056:24076   */\n      sub\n        /* \"#utility.yul\":24052:24053   */\n      0x00\n        /* \"#utility.yul\":24041:24050   */\n      dup4\n        /* \"#utility.yul\":24037:24054   */\n      add\n        /* \"#utility.yul\":24030:24077   */\n      mstore\n        /* \"#utility.yul\":24094:24225   */\n      tag_543\n        /* \"#utility.yul\":24220:24224   */\n      dup2\n        /* \"#utility.yul\":24094:24225   */\n      tag_317\n      jump\t// in\n    tag_543:\n        /* \"#utility.yul\":24086:24225   */\n      swap1\n      pop\n        /* \"#utility.yul\":23813:24232   */\n      swap2\n      swap1\n      pop\n      jump\t// out\n\n    auxdata: 0xa2646970667358221220664cf17498e57a9b43dae8064bb61848074cc9362009a0f2bb287144f8201ae864736f6c634300081e0033\n}\n",
				"bytecode": {
					"linkReferences": {},
					"object": "6080604052731a4302efc81cb56046ffa3df3087e38cb1aee55260045f6101000a81548173ffffffffffffffffffffffffffffffffffffffff021916908373ffffffffffffffffffffffffffffffffffffffff160217905550348015610063575f5ffd5b50730b81337f18767565d2ea40913799317a25dc4bc560015f6101000a81548173ffffffffffffffffffffffffffffffffffffffff021916908373ffffffffffffffffffffffffffffffffffffffff16021790555060405180602001604052805f8152505f90816100d49190610440565b50600460ff16600a6100e6919061066b565b640ba43b74006100f691906106b5565b60025f60015f9054906101000a900473ffffffffffffffffffffffffffffffffffffffff1673ffffffffffffffffffffffffffffffffffffffff1673ffffffffffffffffffffffffffffffffffffffff1681526020019081526020015f208190555060015f9054906101000a900473ffffffffffffffffffffffffffffffffffffffff1673ffffffffffffffffffffffffffffffffffffffff165f73ffffffffffffffffffffffffffffffffffffffff167fddf252ad1be2c89b69c2b068fc378daa952ba7f163c4a11628f55a4df523b3ef600460ff16600a6101d9919061066b565b640ba43b74006101e991906106b5565b6040516101f69190610705565b60405180910390a361071e565b5f81519050919050565b7f4e487b71000000000000000000000000000000000000000000000000000000005f52604160045260245ffd5b7f4e487b71000000000000000000000000000000000000000000000000000000005f52602260045260245ffd5b5f600282049050600182168061027e57607f821691505b6020821081036102915761029061023a565b5b50919050565b5f819050815f5260205f209050919050565b5f6020601f8301049050919050565b5f82821b905092915050565b5f600883026102f37fffffffffffffffffffffffffffffffffffffffffffffffffffffffffffffffff826102b8565b6102fd86836102b8565b95508019841693508086168417925050509392505050565b5f819050919050565b5f819050919050565b5f61034161033c61033784610315565b61031e565b610315565b9050919050565b5f819050919050565b61035a83610327565b61036e61036682610348565b8484546102c4565b825550505050565b5f5f905090565b610385610376565b610390818484610351565b505050565b5b818110156103b3576103a85f8261037d565b600181019050610396565b5050565b601f8211156103f8576103c981610297565b6103d2846102a9565b810160208510156103e1578190505b6103f56103ed856102a9565b830182610395565b50505b505050565b5f82821c905092915050565b5f6104185f19846008026103fd565b1980831691505092915050565b5f6104308383610409565b9150826002028217905092915050565b61044982610203565b67ffffffffffffffff8111156104625761046161020d565b5b61046c8254610267565b6104778282856103b7565b5f60209050601f8311600181146104a8575f8415610496578287015190505b6104a08582610425565b865550610507565b601f1984166104b686610297565b5f5b828110156104dd578489015182556001820191506020850194506020810190506104b8565b868310156104fa57848901516104f6601f891682610409565b8355505b6001600288020188555050505b505050505050565b7f4e487b71000000000000000000000000000000000000000000000000000000005f52601160045260245ffd5b5f8160011c9050919050565b5f5f8291508390505b60018511156105915780860481111561056d5761056c61050f565b5b600185161561057c5780820291505b808102905061058a8561053c565b9450610551565b94509492505050565b5f826105a95760019050610664565b816105b6575f9050610664565b81600181146105cc57600281146105d657610605565b6001915050610664565b60ff8411156105e8576105e761050f565b5b8360020a9150848211156105ff576105fe61050f565b5b50610664565b5060208310610133831016604e8410600b841016171561063a5782820a9050838111156106355761063461050f565b5b610664565b6106478484846001610548565b9250905081840481111561065e5761065d61050f565b5b81810290505b9392505050565b5f61067582610315565b915061068083610315565b92506106ad7fffffffffffffffffffffffffffffffffffffffffffffffffffffffffffffffff848461059a565b905092915050565b5f6106bf82610315565b91506106ca83610315565b92508282026106d881610315565b915082820484148315176106ef576106ee61050f565b5b5092915050565b6106ff81610315565b82525050565b5f6020820190506107185f8301846106f6565b92915050565b6126748061072b5f395ff3fe608060405260043610610143575f3560e01c80635c975abb116100b5578063a36739811161006e578063a36739811461046f578063a9059cbb14610499578063c84aae17146104d5578063ce606ee014610512578063dd62ed3e1461053c578063f2fde38b1461057857610183565b80635c975abb146103635780635f1e015a1461038d5780636bb38b28146103c957806370a08231146103f35780638456cb591461042f57806395d89b411461044557610183565b8063194307bf11610107578063194307bf146102695780631a50fac41461029357806323b872dd146102bd5780632513793f146102f9578063313ce567146103235780633f4ba83a1461034d57610183565b806306fdde0314610187578063095ea7b3146101b15780630c08bf88146101ed57806312b659bb1461020357806318160ddd1461023f57610183565b36610183576040517f08c379a000000000000000000000000000000000000000000000000000000000815260040161017a90611a82565b60405180910390fd5b5f5ffd5b348015610192575f5ffd5b5061019b6105a0565b6040516101a89190611b00565b60405180910390f35b3480156101bc575f5ffd5b506101d760048036038101906101d29190611bbe565b6105d9565b6040516101e49190611c16565b60405180910390f35b3480156101f8575f5ffd5b50610201610816565b005b34801561020e575f5ffd5b5061022960048036038101906102249190611c2f565b610904565b6040516102369190611c7c565b60405180910390f35b34801561024a575f5ffd5b506102536109a8565b6040516102609190611c7c565b60405180910390f35b348015610274575f5ffd5b5061027d6109cc565b60405161028a9190611c16565b60405180910390f35b34801561029e575f5ffd5b506102a76109df565b6040516102b49190611c7c565b60405180910390f35b3480156102c8575f5ffd5b506102e360048036038101906102de9190611c95565b610a73565b6040516102f09190611c16565b60405180910390f35b348015610304575f5ffd5b5061030d610edc565b60405161031a9190611b00565b60405180910390f35b34801561032e575f5ffd5b50610337610f74565b6040516103449190611d00565b60405180910390f35b348015610358575f5ffd5b50610361610f79565b005b34801561036e575f5ffd5b50610377611067565b6040516103849190611c16565b60405180910390f35b348015610398575f5ffd5b506103b360048036038101906103ae9190611d19565b61107a565b6040516103c09190611c7c565b60405180910390f35b3480156103d4575f5ffd5b506103dd61116e565b6040516103ea9190611b00565b60405180910390f35b3480156103fe575f5ffd5b5061041960048036038101906104149190611d19565b6111f9565b6040516104269190611c7c565b60405180910390f35b34801561043a575f5ffd5b5061044361123f565b005b348015610450575f5ffd5b5061045961132d565b6040516104669190611b00565b60405180910390f35b34801561047a575f5ffd5b50610483611366565b6040516104909190611b00565b60405180910390f35b3480156104a4575f5ffd5b506104bf60048036038101906104ba9190611bbe565b6113fe565b6040516104cc9190611c16565b60405180910390f35b3480156104e0575f5ffd5b506104fb60048036038101906104f69190611d19565b6116e4565b604051610509929190611d44565b60405180910390f35b34801561051d575f5ffd5b506105266117c6565b6040516105339190611d7a565b60405180910390f35b348015610547575f5ffd5b50610562600480360381019061055d9190611c2f565b6117eb565b60405161056f9190611c7c565b60405180910390f35b348015610583575f5ffd5b5061059e60048036038101906105999190611d19565b61186d565b005b6040518060400160405280600881526020017f594b205072696d6500000000000000000000000000000000000000000000000081525081565b5f600160149054906101000a900460ff161561062a576040517f08c379a000000000000000000000000000000000000000000000000000000000815260040161062190611ddd565b60405180910390fd5b600160159054906101000a900460ff161561067a576040517f08c379a000000000000000000000000000000000000000000000000000000000815260040161067190611e45565b60405180910390fd5b5f73ffffffffffffffffffffffffffffffffffffffff168373ffffffffffffffffffffffffffffffffffffffff16036106e8576040517f08c379a00000000000000000000000000000000000000000000000000000000081526004016106df90611ead565b60405180910390fd5b5f821161072a576040517f08c379a000000000000000000000000000000000000000000000000000000000815260040161072190611f15565b60405180910390fd5b8160035f3373ffffffffffffffffffffffffffffffffffffffff1673ffffffffffffffffffffffffffffffffffffffff1681526020019081526020015f205f8573ffffffffffffffffffffffffffffffffffffffff1673ffffffffffffffffffffffffffffffffffffffff1681526020019081526020015f20819055508273ffffffffffffffffffffffffffffffffffffffff163373ffffffffffffffffffffffffffffffffffffffff167f8c5be1e5ebec7d5bd14f71427d1e84f3dd0314c0f7b2291e5b200ac8c7c3b925846040516108049190611c7c565b60405180910390a36001905092915050565b60015f9054906101000a900473ffffffffffffffffffffffffffffffffffffffff1673ffffffffffffffffffffffffffffffffffffffff163373ffffffffffffffffffffffffffffffffffffffff16146108a5576040517f08c379a000000000000000000000000000000000000000000000000000000000815260040161089c90611fa3565b60405180910390fd5b60018060156101000a81548160ff0219169083151502179055503373ffffffffffffffffffffffffffffffffffffffff167f98cd97fc1a1cc958cbd729b1bb531d4f3ea4925470bf23ea9af386640cbd07be60405160405180910390a2565b5f60045f9054906101000a900473ffffffffffffffffffffffffffffffffffffffff1673ffffffffffffffffffffffffffffffffffffffff1663dd62ed3e84846040518363ffffffff1660e01b8152600401610961929190611fc1565b602060405180830381865afa15801561097c573d5f5f3e3d5ffd5b505050506040513d601f19601f820116820180604052508101906109a09190611ffc565b905092915050565b600460ff16600a6109b99190612183565b640ba43b74006109c991906121cd565b81565b600160159054906101000a900460ff1681565b5f60045f9054906101000a900473ffffffffffffffffffffffffffffffffffffffff1673ffffffffffffffffffffffffffffffffffffffff166318160ddd6040518163ffffffff1660e01b8152600401602060405180830381865afa158015610a4a573d5f5f3e3d5ffd5b505050506040513d601f19601f82011682018060405250810190610a6e9190611ffc565b905090565b5f600160149054906101000a900460ff1615610ac4576040517f08c379a0000000000000000000000000000000000000000000000000000000008152600401610abb90611ddd565b60405180910390fd5b600160159054906101000a900460ff1615610b14576040517f08c379a0000000000000000000000000000000000000000000000000000000008152600401610b0b90611e45565b60405180910390fd5b5f73ffffffffffffffffffffffffffffffffffffffff168473ffffffffffffffffffffffffffffffffffffffff1614158015610b7c57505f73ffffffffffffffffffffffffffffffffffffffff168373ffffffffffffffffffffffffffffffffffffffff1614155b610bbb576040517f08c379a0000000000000000000000000000000000000000000000000000000008152600401610bb290612258565b60405180910390fd5b5f8211610bfd576040517f08c379a0000000000000000000000000000000000000000000000000000000008152600401610bf490611f15565b60405180910390fd5b8160025f8673ffffffffffffffffffffffffffffffffffffffff1673ffffffffffffffffffffffffffffffffffffffff1681526020019081526020015f20541015610c7d576040517f08c379a0000000000000000000000000000000000000000000000000000000008152600401610c74906122c0565b60405180910390fd5b8160035f8673ffffffffffffffffffffffffffffffffffffffff1673ffffffffffffffffffffffffffffffffffffffff1681526020019081526020015f205f3373ffffffffffffffffffffffffffffffffffffffff1673ffffffffffffffffffffffffffffffffffffffff1681526020019081526020015f20541015610d38576040517f08c379a0000000000000000000000000000000000000000000000000000000008152600401610d2f90612328565b60405180910390fd5b8160025f8673ffffffffffffffffffffffffffffffffffffffff1673ffffffffffffffffffffffffffffffffffffffff1681526020019081526020015f205f828254610d849190612346565b925050819055508160025f8573ffffffffffffffffffffffffffffffffffffffff1673ffffffffffffffffffffffffffffffffffffffff1681526020019081526020015f205f828254610dd79190612379565b925050819055508160035f8673ffffffffffffffffffffffffffffffffffffffff1673ffffffffffffffffffffffffffffffffffffffff1681526020019081526020015f205f3373ffffffffffffffffffffffffffffffffffffffff1673ffffffffffffffffffffffffffffffffffffffff1681526020019081526020015f205f828254610e659190612346565b925050819055508273ffffffffffffffffffffffffffffffffffffffff168473ffffffffffffffffffffffffffffffffffffffff167fddf252ad1be2c89b69c2b068fc378daa952ba7f163c4a11628f55a4df523b3ef84604051610ec99190611c7c565b60405180910390a3600190509392505050565b606060045f9054906101000a900473ffffffffffffffffffffffffffffffffffffffff1673ffffffffffffffffffffffffffffffffffffffff166306fdde036040518163ffffffff1660e01b81526004015f60405180830381865afa158015610f47573d5f5f3e3d5ffd5b505050506040513d5f823e3d601f19601f82011682018060405250810190610f6f91906124ca565b905090565b600481565b60015f9054906101000a900473ffffffffffffffffffffffffffffffffffffffff1673ffffffffffffffffffffffffffffffffffffffff163373ffffffffffffffffffffffffffffffffffffffff1614611008576040517f08c379a0000000000000000000000000000000000000000000000000000000008152600401610fff90611fa3565b60405180910390fd5b5f600160146101000a81548160ff0219169083151502179055503373ffffffffffffffffffffffffffffffffffffffff167f5db9ee0a495bf2e6ff9c91a7834c1ba4fdd244a5e8aa4e537bd38aeae4b073aa60405160405180910390a2565b600160149054906101000a900460ff1681565b5f5f60045f9054906101000a900473ffffffffffffffffffffffffffffffffffffffff1673ffffffffffffffffffffffffffffffffffffffff166370a08231846040518263ffffffff1660e01b81526004016110d69190611d7a565b602060405180830381865afa1580156110f1573d5f5f3e3d5ffd5b505050506040513d601f19601f820116820180604052508101906111159190611ffc565b90508273ffffffffffffffffffffffffffffffffffffffff167fdbd71032b7681ee8e00cb6f187d955fdfc8cfb5302b98a717b033ab45bf21e648260405161115d9190611c7c565b60405180910390a280915050919050565b5f805461117a9061253e565b80601f01602080910402602001604051908101604052809291908181526020018280546111a69061253e565b80156111f15780601f106111c8576101008083540402835291602001916111f1565b820191905f5260205f20905b8154815290600101906020018083116111d457829003601f168201915b505050505081565b5f60025f8373ffffffffffffffffffffffffffffffffffffffff1673ffffffffffffffffffffffffffffffffffffffff1681526020019081526020015f20549050919050565b60015f9054906101000a900473ffffffffffffffffffffffffffffffffffffffff1673ffffffffffffffffffffffffffffffffffffffff163373ffffffffffffffffffffffffffffffffffffffff16146112ce576040517f08c379a00000000000000000000000000000000000000000000000000000000081526004016112c590611fa3565b60405180910390fd5b60018060146101000a81548160ff0219169083151502179055503373ffffffffffffffffffffffffffffffffffffffff167f62e78cea01bee320cd4e420270b5ea74000d11b0c9f74754ebdbfc544b05a25860405160405180910390a2565b6040518060400160405280600281526020017f594b00000000000000000000000000000000000000000000000000000000000081525081565b606060045f9054906101000a900473ffffffffffffffffffffffffffffffffffffffff1673ffffffffffffffffffffffffffffffffffffffff166395d89b416040518163ffffffff1660e01b81526004015f60405180830381865afa1580156113d1573d5f5f3e3d5ffd5b505050506040513d5f823e3d601f19601f820116820180604052508101906113f991906124ca565b905090565b5f600160149054906101000a900460ff161561144f576040517f08c379a000000000000000000000000000000000000000000000000000000000815260040161144690611ddd565b60405180910390fd5b600160159054906101000a900460ff161561149f576040517f08c379a000000000000000000000000000000000000000000000000000000000815260040161149690611e45565b60405180910390fd5b5f73ffffffffffffffffffffffffffffffffffffffff168373ffffffffffffffffffffffffffffffffffffffff160361150d576040517f08c379a0000000000000000000000000000000000000000000000000000000008152600401611504906125b8565b60405180910390fd5b5f821161154f576040517f08c379a000000000000000000000000000000000000000000000000000000000815260040161154690611f15565b60405180910390fd5b8160025f3373ffffffffffffffffffffffffffffffffffffffff1673ffffffffffffffffffffffffffffffffffffffff1681526020019081526020015f205410156115cf576040517f08c379a00000000000000000000000000000000000000000000000000000000081526004016115c6906122c0565b60405180910390fd5b8160025f3373ffffffffffffffffffffffffffffffffffffffff1673ffffffffffffffffffffffffffffffffffffffff1681526020019081526020015f205f82825461161b9190612346565b925050819055508160025f8573ffffffffffffffffffffffffffffffffffffffff1673ffffffffffffffffffffffffffffffffffffffff1681526020019081526020015f205f82825461166e9190612379565b925050819055508273ffffffffffffffffffffffffffffffffffffffff163373ffffffffffffffffffffffffffffffffffffffff167fddf252ad1be2c89b69c2b068fc378daa952ba7f163c4a11628f55a4df523b3ef846040516116d29190611c7c565b60405180910390a36001905092915050565b5f5f60045f9054906101000a900473ffffffffffffffffffffffffffffffffffffffff1673ffffffffffffffffffffffffffffffffffffffff166370a08231846040518263ffffffff1660e01b81526004016117409190611d7a565b602060405180830381865afa15801561175b573d5f5f3e3d5ffd5b505050506040513d601f19601f8201168201806040525081019061177f9190611ffc565b60025f8573ffffffffffffffffffffffffffffffffffffffff1673ffffffffffffffffffffffffffffffffffffffff1681526020019081526020015f205491509150915091565b60015f9054906101000a900473ffffffffffffffffffffffffffffffffffffffff1681565b5f60035f8473ffffffffffffffffffffffffffffffffffffffff1673ffffffffffffffffffffffffffffffffffffffff1681526020019081526020015f205f8373ffffffffffffffffffffffffffffffffffffffff1673ffffffffffffffffffffffffffffffffffffffff1681526020019081526020015f2054905092915050565b60015f9054906101000a900473ffffffffffffffffffffffffffffffffffffffff1673ffffffffffffffffffffffffffffffffffffffff163373ffffffffffffffffffffffffffffffffffffffff16146118fc576040517f08c379a00000000000000000000000000000000000000000000000000000000081526004016118f390611fa3565b60405180910390fd5b5f73ffffffffffffffffffffffffffffffffffffffff168173ffffffffffffffffffffffffffffffffffffffff160361196a576040517f08c379a000000000000000000000000000000000000000000000000000000000815260040161196190612620565b60405180910390fd5b8073ffffffffffffffffffffffffffffffffffffffff1660015f9054906101000a900473ffffffffffffffffffffffffffffffffffffffff1673ffffffffffffffffffffffffffffffffffffffff167f8be0079c531659141344cd1fd0a4f28419497f9722a3daafe3b4186f6b6457e060405160405180910390a38060015f6101000a81548173ffffffffffffffffffffffffffffffffffffffff021916908373ffffffffffffffffffffffffffffffffffffffff16021790555050565b5f82825260208201905092915050565b7f455448206e6f74206163636570746564000000000000000000000000000000005f82015250565b5f611a6c601083611a28565b9150611a7782611a38565b602082019050919050565b5f6020820190508181035f830152611a9981611a60565b9050919050565b5f81519050919050565b8281835e5f83830152505050565b5f601f19601f8301169050919050565b5f611ad282611aa0565b611adc8185611a28565b9350611aec818560208601611aaa565b611af581611ab8565b840191505092915050565b5f6020820190508181035f830152611b188184611ac8565b905092915050565b5f604051905090565b5f5ffd5b5f5ffd5b5f73ffffffffffffffffffffffffffffffffffffffff82169050919050565b5f611b5a82611b31565b9050919050565b611b6a81611b50565b8114611b74575f5ffd5b50565b5f81359050611b8581611b61565b92915050565b5f819050919050565b611b9d81611b8b565b8114611ba7575f5ffd5b50565b5f81359050611bb881611b94565b92915050565b5f5f60408385031215611bd457611bd3611b29565b5b5f611be185828601611b77565b9250506020611bf285828601611baa565b9150509250929050565b5f8115159050919050565b611c1081611bfc565b82525050565b5f602082019050611c295f830184611c07565b92915050565b5f5f60408385031215611c4557611c44611b29565b5b5f611c5285828601611b77565b9250506020611c6385828601611b77565b9150509250929050565b611c7681611b8b565b82525050565b5f602082019050611c8f5f830184611c6d565b92915050565b5f5f5f60608486031215611cac57611cab611b29565b5b5f611cb986828701611b77565b9350506020611cca86828701611b77565b9250506040611cdb86828701611baa565b9150509250925092565b5f60ff82169050919050565b611cfa81611ce5565b82525050565b5f602082019050611d135f830184611cf1565b92915050565b5f60208284031215611d2e57611d2d611b29565b5b5f611d3b84828501611b77565b91505092915050565b5f604082019050611d575f830185611c6d565b611d646020830184611c6d565b9392505050565b611d7481611b50565b82525050565b5f602082019050611d8d5f830184611d6b565b92915050565b7f436f6e74726163742069732070617573656400000000000000000000000000005f82015250565b5f611dc7601283611a28565b9150611dd282611d93565b602082019050919050565b5f6020820190508181035f830152611df481611dbb565b9050919050565b7f436f6e7472616374207065726d616e656e746c79207465726d696e61746564005f82015250565b5f611e2f601f83611a28565b9150611e3a82611dfb565b602082019050919050565b5f6020820190508181035f830152611e5c81611e23565b9050919050565b7f417070726f766520746f20746865207a65726f206164647265737300000000005f82015250565b5f611e97601b83611a28565b9150611ea282611e63565b602082019050919050565b5f6020820190508181035f830152611ec481611e8b565b9050919050565b7f416d6f756e74206d7573742062652067726561746572207468616e207a65726f5f82015250565b5f611eff602083611a28565b9150611f0a82611ecb565b602082019050919050565b5f6020820190508181035f830152611f2c81611ef3565b9050919050565b7f4f6e6c79206f776e65722063616e2063616c6c20746869732066756e6374696f5f8201527f6e00000000000000000000000000000000000000000000000000000000000000602082015250565b5f611f8d602183611a28565b9150611f9882611f33565b604082019050919050565b5f6020820190508181035f830152611fba81611f81565b9050919050565b5f604082019050611fd45f830185611d6b565b611fe16020830184611d6b565b9392505050565b5f81519050611ff681611b94565b92915050565b5f6020828403121561201157612010611b29565b5b5f61201e84828501611fe8565b91505092915050565b7f4e487b71000000000000000000000000000000000000000000000000000000005f52601160045260245ffd5b5f8160011c9050919050565b5f5f8291508390505b60018511156120a95780860481111561208557612084612027565b5b60018516156120945780820291505b80810290506120a285612054565b9450612069565b94509492505050565b5f826120c1576001905061217c565b816120ce575f905061217c565b81600181146120e457600281146120ee5761211d565b600191505061217c565b60ff841115612100576120ff612027565b5b8360020a91508482111561211757612116612027565b5b5061217c565b5060208310610133831016604e8410600b84101617156121525782820a90508381111561214d5761214c612027565b5b61217c565b61215f8484846001612060565b9250905081840481111561217657612175612027565b5b81810290505b9392505050565b5f61218d82611b8b565b915061219883611b8b565b92506121c57fffffffffffffffffffffffffffffffffffffffffffffffffffffffffffffffff84846120b2565b905092915050565b5f6121d782611b8b565b91506121e283611b8b565b92508282026121f081611b8b565b9150828204841483151761220757612206612027565b5b5092915050565b7f496e76616c6964206164647265737300000000000000000000000000000000005f82015250565b5f612242600f83611a28565b915061224d8261220e565b602082019050919050565b5f6020820190508181035f83015261226f81612236565b9050919050565b7f496e73756666696369656e742062616c616e63650000000000000000000000005f82015250565b5f6122aa601483611a28565b91506122b582612276565b602082019050919050565b5f6020820190508181035f8301526122d78161229e565b9050919050565b7f416c6c6f77616e636520657863656564656400000000000000000000000000005f82015250565b5f612312601283611a28565b915061231d826122de565b602082019050919050565b5f6020820190508181035f83015261233f81612306565b9050919050565b5f61235082611b8b565b915061235b83611b8b565b925082820390508181111561237357612372612027565b5b92915050565b5f61238382611b8b565b915061238e83611b8b565b92508282019050808211156123a6576123a5612027565b5b92915050565b5f5ffd5b5f5ffd5b7f4e487b71000000000000000000000000000000000000000000000000000000005f52604160045260245ffd5b6123ea82611ab8565b810181811067ffffffffffffffff82111715612409576124086123b4565b5b80604052505050565b5f61241b611b20565b905061242782826123e1565b919050565b5f67ffffffffffffffff821115612446576124456123b4565b5b61244f82611ab8565b9050602081019050919050565b5f61246e6124698461242c565b612412565b90508281526020810184848401111561248a576124896123b0565b5b612495848285611aaa565b509392505050565b5f82601f8301126124b1576124b06123ac565b5b81516124c184826020860161245c565b91505092915050565b5f602082840312156124df576124de611b29565b5b5f82015167ffffffffffffffff8111156124fc576124fb611b2d565b5b6125088482850161249d565b91505092915050565b7f4e487b71000000000000000000000000000000000000000000000000000000005f52602260045260245ffd5b5f600282049050600182168061255557607f821691505b60208210810361256857612567612511565b5b50919050565b7f5472616e7366657220746f20746865207a65726f2061646472657373000000005f82015250565b5f6125a2601c83611a28565b91506125ad8261256e565b602082019050919050565b5f6020820190508181035f8301526125cf81612596565b9050919050565b7f4e6577206f776e657220697320746865207a65726f20616464726573730000005f82015250565b5f61260a601d83611a28565b9150612615826125d6565b602082019050919050565b5f6020820190508181035f830152612637816125fe565b905091905056fea2646970667358221220664cf17498e57a9b43dae8064bb61848074cc9362009a0f2bb287144f8201ae864736f6c634300081e0033",
					"opcodes": "PUSH1 0x80 PUSH1 0x40 MSTORE PUSH20 0x1A4302EFC81CB56046FFA3DF3087E38CB1AEE552 PUSH1 0x4 PUSH0 PUSH2 0x100 EXP DUP2 SLOAD DUP2 PUSH20 0xFFFFFFFFFFFFFFFFFFFFFFFFFFFFFFFFFFFFFFFF MUL NOT AND SWAP1 DUP4 PUSH20 0xFFFFFFFFFFFFFFFFFFFFFFFFFFFFFFFFFFFFFFFF AND MUL OR SWAP1 SSTORE POP CALLVALUE DUP1 ISZERO PUSH2 0x63 JUMPI PUSH0 PUSH0 REVERT JUMPDEST POP PUSH20 0xB81337F18767565D2EA40913799317A25DC4BC5 PUSH1 0x1 PUSH0 PUSH2 0x100 EXP DUP2 SLOAD DUP2 PUSH20 0xFFFFFFFFFFFFFFFFFFFFFFFFFFFFFFFFFFFFFFFF MUL NOT AND SWAP1 DUP4 PUSH20 0xFFFFFFFFFFFFFFFFFFFFFFFFFFFFFFFFFFFFFFFF AND MUL OR SWAP1 SSTORE POP PUSH1 0x40 MLOAD DUP1 PUSH1 0x20 ADD PUSH1 0x40 MSTORE DUP1 PUSH0 DUP2 MSTORE POP PUSH0 SWAP1 DUP2 PUSH2 0xD4 SWAP2 SWAP1 PUSH2 0x440 JUMP JUMPDEST POP PUSH1 0x4 PUSH1 0xFF AND PUSH1 0xA PUSH2 0xE6 SWAP2 SWAP1 PUSH2 0x66B JUMP JUMPDEST PUSH5 0xBA43B7400 PUSH2 0xF6 SWAP2 SWAP1 PUSH2 0x6B5 JUMP JUMPDEST PUSH1 0x2 PUSH0 PUSH1 0x1 PUSH0 SWAP1 SLOAD SWAP1 PUSH2 0x100 EXP SWAP1 DIV PUSH20 0xFFFFFFFFFFFFFFFFFFFFFFFFFFFFFFFFFFFFFFFF AND PUSH20 0xFFFFFFFFFFFFFFFFFFFFFFFFFFFFFFFFFFFFFFFF AND PUSH20 0xFFFFFFFFFFFFFFFFFFFFFFFFFFFFFFFFFFFFFFFF AND DUP2 MSTORE PUSH1 0x20 ADD SWAP1 DUP2 MSTORE PUSH1 0x20 ADD PUSH0 KECCAK256 DUP2 SWAP1 SSTORE POP PUSH1 0x1 PUSH0 SWAP1 SLOAD SWAP1 PUSH2 0x100 EXP SWAP1 DIV PUSH20 0xFFFFFFFFFFFFFFFFFFFFFFFFFFFFFFFFFFFFFFFF AND PUSH20 0xFFFFFFFFFFFFFFFFFFFFFFFFFFFFFFFFFFFFFFFF AND PUSH0 PUSH20 0xFFFFFFFFFFFFFFFFFFFFFFFFFFFFFFFFFFFFFFFF AND PUSH32 0xDDF252AD1BE2C89B69C2B068FC378DAA952BA7F163C4A11628F55A4DF523B3EF PUSH1 0x4 PUSH1 0xFF AND PUSH1 0xA PUSH2 0x1D9 SWAP2 SWAP1 PUSH2 0x66B JUMP JUMPDEST PUSH5 0xBA43B7400 PUSH2 0x1E9 SWAP2 SWAP1 PUSH2 0x6B5 JUMP JUMPDEST PUSH1 0x40 MLOAD PUSH2 0x1F6 SWAP2 SWAP1 PUSH2 0x705 JUMP JUMPDEST PUSH1 0x40 MLOAD DUP1 SWAP2 SUB SWAP1 LOG3 PUSH2 0x71E JUMP JUMPDEST PUSH0 DUP2 MLOAD SWAP1 POP SWAP2 SWAP1 POP JUMP JUMPDEST PUSH32 0x4E487B7100000000000000000000000000000000000000000000000000000000 PUSH0 MSTORE PUSH1 0x41 PUSH1 0x4 MSTORE PUSH1 0x24 PUSH0 REVERT JUMPDEST PUSH32 0x4E487B7100000000000000000000000000000000000000000000000000000000 PUSH0 MSTORE PUSH1 0x22 PUSH1 0x4 MSTORE PUSH1 0x24 PUSH0 REVERT JUMPDEST PUSH0 PUSH1 0x2 DUP3 DIV SWAP1 POP PUSH1 0x1 DUP3 AND DUP1 PUSH2 0x27E JUMPI PUSH1 0x7F DUP3 AND SWAP2 POP JUMPDEST PUSH1 0x20 DUP3 LT DUP2 SUB PUSH2 0x291 JUMPI PUSH2 0x290 PUSH2 0x23A JUMP JUMPDEST JUMPDEST POP SWAP2 SWAP1 POP JUMP JUMPDEST PUSH0 DUP2 SWAP1 POP DUP2 PUSH0 MSTORE PUSH1 0x20 PUSH0 KECCAK256 SWAP1 POP SWAP2 SWAP1 POP JUMP JUMPDEST PUSH0 PUSH1 0x20 PUSH1 0x1F DUP4 ADD DIV SWAP1 POP SWAP2 SWAP1 POP JUMP JUMPDEST PUSH0 DUP3 DUP3 SHL SWAP1 POP SWAP3 SWAP2 POP POP JUMP JUMPDEST PUSH0 PUSH1 0x8 DUP4 MUL PUSH2 0x2F3 PUSH32 0xFFFFFFFFFFFFFFFFFFFFFFFFFFFFFFFFFFFFFFFFFFFFFFFFFFFFFFFFFFFFFFFF DUP3 PUSH2 0x2B8 JUMP JUMPDEST PUSH2 0x2FD DUP7 DUP4 PUSH2 0x2B8 JUMP JUMPDEST SWAP6 POP DUP1 NOT DUP5 AND SWAP4 POP DUP1 DUP7 AND DUP5 OR SWAP3 POP POP POP SWAP4 SWAP3 POP POP POP JUMP JUMPDEST PUSH0 DUP2 SWAP1 POP SWAP2 SWAP1 POP JUMP JUMPDEST PUSH0 DUP2 SWAP1 POP SWAP2 SWAP1 POP JUMP JUMPDEST PUSH0 PUSH2 0x341 PUSH2 0x33C PUSH2 0x337 DUP5 PUSH2 0x315 JUMP JUMPDEST PUSH2 0x31E JUMP JUMPDEST PUSH2 0x315 JUMP JUMPDEST SWAP1 POP SWAP2 SWAP1 POP JUMP JUMPDEST PUSH0 DUP2 SWAP1 POP SWAP2 SWAP1 POP JUMP JUMPDEST PUSH2 0x35A DUP4 PUSH2 0x327 JUMP JUMPDEST PUSH2 0x36E PUSH2 0x366 DUP3 PUSH2 0x348 JUMP JUMPDEST DUP5 DUP5 SLOAD PUSH2 0x2C4 JUMP JUMPDEST DUP3 SSTORE POP POP POP POP JUMP JUMPDEST PUSH0 PUSH0 SWAP1 POP SWAP1 JUMP JUMPDEST PUSH2 0x385 PUSH2 0x376 JUMP JUMPDEST PUSH2 0x390 DUP2 DUP5 DUP5 PUSH2 0x351 JUMP JUMPDEST POP POP POP JUMP JUMPDEST JUMPDEST DUP2 DUP2 LT ISZERO PUSH2 0x3B3 JUMPI PUSH2 0x3A8 PUSH0 DUP3 PUSH2 0x37D JUMP JUMPDEST PUSH1 0x1 DUP2 ADD SWAP1 POP PUSH2 0x396 JUMP JUMPDEST POP POP JUMP JUMPDEST PUSH1 0x1F DUP3 GT ISZERO PUSH2 0x3F8 JUMPI PUSH2 0x3C9 DUP2 PUSH2 0x297 JUMP JUMPDEST PUSH2 0x3D2 DUP5 PUSH2 0x2A9 JUMP JUMPDEST DUP2 ADD PUSH1 0x20 DUP6 LT ISZERO PUSH2 0x3E1 JUMPI DUP2 SWAP1 POP JUMPDEST PUSH2 0x3F5 PUSH2 0x3ED DUP6 PUSH2 0x2A9 JUMP JUMPDEST DUP4 ADD DUP3 PUSH2 0x395 JUMP JUMPDEST POP POP JUMPDEST POP POP POP JUMP JUMPDEST PUSH0 DUP3 DUP3 SHR SWAP1 POP SWAP3 SWAP2 POP POP JUMP JUMPDEST PUSH0 PUSH2 0x418 PUSH0 NOT DUP5 PUSH1 0x8 MUL PUSH2 0x3FD JUMP JUMPDEST NOT DUP1 DUP4 AND SWAP2 POP POP SWAP3 SWAP2 POP POP JUMP JUMPDEST PUSH0 PUSH2 0x430 DUP4 DUP4 PUSH2 0x409 JUMP JUMPDEST SWAP2 POP DUP3 PUSH1 0x2 MUL DUP3 OR SWAP1 POP SWAP3 SWAP2 POP POP JUMP JUMPDEST PUSH2 0x449 DUP3 PUSH2 0x203 JUMP JUMPDEST PUSH8 0xFFFFFFFFFFFFFFFF DUP2 GT ISZERO PUSH2 0x462 JUMPI PUSH2 0x461 PUSH2 0x20D JUMP JUMPDEST JUMPDEST PUSH2 0x46C DUP3 SLOAD PUSH2 0x267 JUMP JUMPDEST PUSH2 0x477 DUP3 DUP3 DUP6 PUSH2 0x3B7 JUMP JUMPDEST PUSH0 PUSH1 0x20 SWAP1 POP PUSH1 0x1F DUP4 GT PUSH1 0x1 DUP2 EQ PUSH2 0x4A8 JUMPI PUSH0 DUP5 ISZERO PUSH2 0x496 JUMPI DUP3 DUP8 ADD MLOAD SWAP1 POP JUMPDEST PUSH2 0x4A0 DUP6 DUP3 PUSH2 0x425 JUMP JUMPDEST DUP7 SSTORE POP PUSH2 0x507 JUMP JUMPDEST PUSH1 0x1F NOT DUP5 AND PUSH2 0x4B6 DUP7 PUSH2 0x297 JUMP JUMPDEST PUSH0 JUMPDEST DUP3 DUP2 LT ISZERO PUSH2 0x4DD JUMPI DUP5 DUP10 ADD MLOAD DUP3 SSTORE PUSH1 0x1 DUP3 ADD SWAP2 POP PUSH1 0x20 DUP6 ADD SWAP5 POP PUSH1 0x20 DUP2 ADD SWAP1 POP PUSH2 0x4B8 JUMP JUMPDEST DUP7 DUP4 LT ISZERO PUSH2 0x4FA JUMPI DUP5 DUP10 ADD MLOAD PUSH2 0x4F6 PUSH1 0x1F DUP10 AND DUP3 PUSH2 0x409 JUMP JUMPDEST DUP4 SSTORE POP JUMPDEST PUSH1 0x1 PUSH1 0x2 DUP9 MUL ADD DUP9 SSTORE POP POP POP JUMPDEST POP POP POP POP POP POP JUMP JUMPDEST PUSH32 0x4E487B7100000000000000000000000000000000000000000000000000000000 PUSH0 MSTORE PUSH1 0x11 PUSH1 0x4 MSTORE PUSH1 0x24 PUSH0 REVERT JUMPDEST PUSH0 DUP2 PUSH1 0x1 SHR SWAP1 POP SWAP2 SWAP1 POP JUMP JUMPDEST PUSH0 PUSH0 DUP3 SWAP2 POP DUP4 SWAP1 POP JUMPDEST PUSH1 0x1 DUP6 GT ISZERO PUSH2 0x591 JUMPI DUP1 DUP7 DIV DUP2 GT ISZERO PUSH2 0x56D JUMPI PUSH2 0x56C PUSH2 0x50F JUMP JUMPDEST JUMPDEST PUSH1 0x1 DUP6 AND ISZERO PUSH2 0x57C JUMPI DUP1 DUP3 MUL SWAP2 POP JUMPDEST DUP1 DUP2 MUL SWAP1 POP PUSH2 0x58A DUP6 PUSH2 0x53C JUMP JUMPDEST SWAP5 POP PUSH2 0x551 JUMP JUMPDEST SWAP5 POP SWAP5 SWAP3 POP POP POP JUMP JUMPDEST PUSH0 DUP3 PUSH2 0x5A9 JUMPI PUSH1 0x1 SWAP1 POP PUSH2 0x664 JUMP JUMPDEST DUP2 PUSH2 0x5B6 JUMPI PUSH0 SWAP1 POP PUSH2 0x664 JUMP JUMPDEST DUP2 PUSH1 0x1 DUP2 EQ PUSH2 0x5CC JUMPI PUSH1 0x2 DUP2 EQ PUSH2 0x5D6 JUMPI PUSH2 0x605 JUMP JUMPDEST PUSH1 0x1 SWAP2 POP POP PUSH2 0x664 JUMP JUMPDEST PUSH1 0xFF DUP5 GT ISZERO PUSH2 0x5E8 JUMPI PUSH2 0x5E7 PUSH2 0x50F JUMP JUMPDEST JUMPDEST DUP4 PUSH1 0x2 EXP SWAP2 POP DUP5 DUP3 GT ISZERO PUSH2 0x5FF JUMPI PUSH2 0x5FE PUSH2 0x50F JUMP JUMPDEST JUMPDEST POP PUSH2 0x664 JUMP JUMPDEST POP PUSH1 0x20 DUP4 LT PUSH2 0x133 DUP4 LT AND PUSH1 0x4E DUP5 LT PUSH1 0xB DUP5 LT AND OR ISZERO PUSH2 0x63A JUMPI DUP3 DUP3 EXP SWAP1 POP DUP4 DUP2 GT ISZERO PUSH2 0x635 JUMPI PUSH2 0x634 PUSH2 0x50F JUMP JUMPDEST JUMPDEST PUSH2 0x664 JUMP JUMPDEST PUSH2 0x647 DUP5 DUP5 DUP5 PUSH1 0x1 PUSH2 0x548 JUMP JUMPDEST SWAP3 POP SWAP1 POP DUP2 DUP5 DIV DUP2 GT ISZERO PUSH2 0x65E JUMPI PUSH2 0x65D PUSH2 0x50F JUMP JUMPDEST JUMPDEST DUP2 DUP2 MUL SWAP1 POP JUMPDEST SWAP4 SWAP3 POP POP POP JUMP JUMPDEST PUSH0 PUSH2 0x675 DUP3 PUSH2 0x315 JUMP JUMPDEST SWAP2 POP PUSH2 0x680 DUP4 PUSH2 0x315 JUMP JUMPDEST SWAP3 POP PUSH2 0x6AD PUSH32 0xFFFFFFFFFFFFFFFFFFFFFFFFFFFFFFFFFFFFFFFFFFFFFFFFFFFFFFFFFFFFFFFF DUP5 DUP5 PUSH2 0x59A JUMP JUMPDEST SWAP1 POP SWAP3 SWAP2 POP POP JUMP JUMPDEST PUSH0 PUSH2 0x6BF DUP3 PUSH2 0x315 JUMP JUMPDEST SWAP2 POP PUSH2 0x6CA DUP4 PUSH2 0x315 JUMP JUMPDEST SWAP3 POP DUP3 DUP3 MUL PUSH2 0x6D8 DUP2 PUSH2 0x315 JUMP JUMPDEST SWAP2 POP DUP3 DUP3 DIV DUP5 EQ DUP4 ISZERO OR PUSH2 0x6EF JUMPI PUSH2 0x6EE PUSH2 0x50F JUMP JUMPDEST JUMPDEST POP SWAP3 SWAP2 POP POP JUMP JUMPDEST PUSH2 0x6FF DUP2 PUSH2 0x315 JUMP JUMPDEST DUP3 MSTORE POP POP JUMP JUMPDEST PUSH0 PUSH1 0x20 DUP3 ADD SWAP1 POP PUSH2 0x718 PUSH0 DUP4 ADD DUP5 PUSH2 0x6F6 JUMP JUMPDEST SWAP3 SWAP2 POP POP JUMP JUMPDEST PUSH2 0x2674 DUP1 PUSH2 0x72B PUSH0 CODECOPY PUSH0 RETURN INVALID PUSH1 0x80 PUSH1 0x40 MSTORE PUSH1 0x4 CALLDATASIZE LT PUSH2 0x143 JUMPI PUSH0 CALLDATALOAD PUSH1 0xE0 SHR DUP1 PUSH4 0x5C975ABB GT PUSH2 0xB5 JUMPI DUP1 PUSH4 0xA3673981 GT PUSH2 0x6E JUMPI DUP1 PUSH4 0xA3673981 EQ PUSH2 0x46F JUMPI DUP1 PUSH4 0xA9059CBB EQ PUSH2 0x499 JUMPI DUP1 PUSH4 0xC84AAE17 EQ PUSH2 0x4D5 JUMPI DUP1 PUSH4 0xCE606EE0 EQ PUSH2 0x512 JUMPI DUP1 PUSH4 0xDD62ED3E EQ PUSH2 0x53C JUMPI DUP1 PUSH4 0xF2FDE38B EQ PUSH2 0x578 JUMPI PUSH2 0x183 JUMP JUMPDEST DUP1 PUSH4 0x5C975ABB EQ PUSH2 0x363 JUMPI DUP1 PUSH4 0x5F1E015A EQ PUSH2 0x38D JUMPI DUP1 PUSH4 0x6BB38B28 EQ PUSH2 0x3C9 JUMPI DUP1 PUSH4 0x70A08231 EQ PUSH2 0x3F3 JUMPI DUP1 PUSH4 0x8456CB59 EQ PUSH2 0x42F JUMPI DUP1 PUSH4 0x95D89B41 EQ PUSH2 0x445 JUMPI PUSH2 0x183 JUMP JUMPDEST DUP1 PUSH4 0x194307BF GT PUSH2 0x107 JUMPI DUP1 PUSH4 0x194307BF EQ PUSH2 0x269 JUMPI DUP1 PUSH4 0x1A50FAC4 EQ PUSH2 0x293 JUMPI DUP1 PUSH4 0x23B872DD EQ PUSH2 0x2BD JUMPI DUP1 PUSH4 0x2513793F EQ PUSH2 0x2F9 JUMPI DUP1 PUSH4 0x313CE567 EQ PUSH2 0x323 JUMPI DUP1 PUSH4 0x3F4BA83A EQ PUSH2 0x34D JUMPI PUSH2 0x183 JUMP JUMPDEST DUP1 PUSH4 0x6FDDE03 EQ PUSH2 0x187 JUMPI DUP1 PUSH4 0x95EA7B3 EQ PUSH2 0x1B1 JUMPI DUP1 PUSH4 0xC08BF88 EQ PUSH2 0x1ED JUMPI DUP1 PUSH4 0x12B659BB EQ PUSH2 0x203 JUMPI DUP1 PUSH4 0x18160DDD EQ PUSH2 0x23F JUMPI PUSH2 0x183 JUMP JUMPDEST CALLDATASIZE PUSH2 0x183 JUMPI PUSH1 0x40 MLOAD PUSH32 0x8C379A000000000000000000000000000000000000000000000000000000000 DUP2 MSTORE PUSH1 0x4 ADD PUSH2 0x17A SWAP1 PUSH2 0x1A82 JUMP JUMPDEST PUSH1 0x40 MLOAD DUP1 SWAP2 SUB SWAP1 REVERT JUMPDEST PUSH0 PUSH0 REVERT JUMPDEST CALLVALUE DUP1 ISZERO PUSH2 0x192 JUMPI PUSH0 PUSH0 REVERT JUMPDEST POP PUSH2 0x19B PUSH2 0x5A0 JUMP JUMPDEST PUSH1 0x40 MLOAD PUSH2 0x1A8 SWAP2 SWAP1 PUSH2 0x1B00 JUMP JUMPDEST PUSH1 0x40 MLOAD DUP1 SWAP2 SUB SWAP1 RETURN JUMPDEST CALLVALUE DUP1 ISZERO PUSH2 0x1BC JUMPI PUSH0 PUSH0 REVERT JUMPDEST POP PUSH2 0x1D7 PUSH1 0x4 DUP1 CALLDATASIZE SUB DUP2 ADD SWAP1 PUSH2 0x1D2 SWAP2 SWAP1 PUSH2 0x1BBE JUMP JUMPDEST PUSH2 0x5D9 JUMP JUMPDEST PUSH1 0x40 MLOAD PUSH2 0x1E4 SWAP2 SWAP1 PUSH2 0x1C16 JUMP JUMPDEST PUSH1 0x40 MLOAD DUP1 SWAP2 SUB SWAP1 RETURN JUMPDEST CALLVALUE DUP1 ISZERO PUSH2 0x1F8 JUMPI PUSH0 PUSH0 REVERT JUMPDEST POP PUSH2 0x201 PUSH2 0x816 JUMP JUMPDEST STOP JUMPDEST CALLVALUE DUP1 ISZERO PUSH2 0x20E JUMPI PUSH0 PUSH0 REVERT JUMPDEST POP PUSH2 0x229 PUSH1 0x4 DUP1 CALLDATASIZE SUB DUP2 ADD SWAP1 PUSH2 0x224 SWAP2 SWAP1 PUSH2 0x1C2F JUMP JUMPDEST PUSH2 0x904 JUMP JUMPDEST PUSH1 0x40 MLOAD PUSH2 0x236 SWAP2 SWAP1 PUSH2 0x1C7C JUMP JUMPDEST PUSH1 0x40 MLOAD DUP1 SWAP2 SUB SWAP1 RETURN JUMPDEST CALLVALUE DUP1 ISZERO PUSH2 0x24A JUMPI PUSH0 PUSH0 REVERT JUMPDEST POP PUSH2 0x253 PUSH2 0x9A8 JUMP JUMPDEST PUSH1 0x40 MLOAD PUSH2 0x260 SWAP2 SWAP1 PUSH2 0x1C7C JUMP JUMPDEST PUSH1 0x40 MLOAD DUP1 SWAP2 SUB SWAP1 RETURN JUMPDEST CALLVALUE DUP1 ISZERO PUSH2 0x274 JUMPI PUSH0 PUSH0 REVERT JUMPDEST POP PUSH2 0x27D PUSH2 0x9CC JUMP JUMPDEST PUSH1 0x40 MLOAD PUSH2 0x28A SWAP2 SWAP1 PUSH2 0x1C16 JUMP JUMPDEST PUSH1 0x40 MLOAD DUP1 SWAP2 SUB SWAP1 RETURN JUMPDEST CALLVALUE DUP1 ISZERO PUSH2 0x29E JUMPI PUSH0 PUSH0 REVERT JUMPDEST POP PUSH2 0x2A7 PUSH2 0x9DF JUMP JUMPDEST PUSH1 0x40 MLOAD PUSH2 0x2B4 SWAP2 SWAP1 PUSH2 0x1C7C JUMP JUMPDEST PUSH1 0x40 MLOAD DUP1 SWAP2 SUB SWAP1 RETURN JUMPDEST CALLVALUE DUP1 ISZERO PUSH2 0x2C8 JUMPI PUSH0 PUSH0 REVERT JUMPDEST POP PUSH2 0x2E3 PUSH1 0x4 DUP1 CALLDATASIZE SUB DUP2 ADD SWAP1 PUSH2 0x2DE SWAP2 SWAP1 PUSH2 0x1C95 JUMP JUMPDEST PUSH2 0xA73 JUMP JUMPDEST PUSH1 0x40 MLOAD PUSH2 0x2F0 SWAP2 SWAP1 PUSH2 0x1C16 JUMP JUMPDEST PUSH1 0x40 MLOAD DUP1 SWAP2 SUB SWAP1 RETURN JUMPDEST CALLVALUE DUP1 ISZERO PUSH2 0x304 JUMPI PUSH0 PUSH0 REVERT JUMPDEST POP PUSH2 0x30D PUSH2 0xEDC JUMP JUMPDEST PUSH1 0x40 MLOAD PUSH2 0x31A SWAP2 SWAP1 PUSH2 0x1B00 JUMP JUMPDEST PUSH1 0x40 MLOAD DUP1 SWAP2 SUB SWAP1 RETURN JUMPDEST CALLVALUE DUP1 ISZERO PUSH2 0x32E JUMPI PUSH0 PUSH0 REVERT JUMPDEST POP PUSH2 0x337 PUSH2 0xF74 JUMP JUMPDEST PUSH1 0x40 MLOAD PUSH2 0x344 SWAP2 SWAP1 PUSH2 0x1D00 JUMP JUMPDEST PUSH1 0x40 MLOAD DUP1 SWAP2 SUB SWAP1 RETURN JUMPDEST CALLVALUE DUP1 ISZERO PUSH2 0x358 JUMPI PUSH0 PUSH0 REVERT JUMPDEST POP PUSH2 0x361 PUSH2 0xF79 JUMP JUMPDEST STOP JUMPDEST CALLVALUE DUP1 ISZERO PUSH2 0x36E JUMPI PUSH0 PUSH0 REVERT JUMPDEST POP PUSH2 0x377 PUSH2 0x1067 JUMP JUMPDEST PUSH1 0x40 MLOAD PUSH2 0x384 SWAP2 SWAP1 PUSH2 0x1C16 JUMP JUMPDEST PUSH1 0x40 MLOAD DUP1 SWAP2 SUB SWAP1 RETURN JUMPDEST CALLVALUE DUP1 ISZERO PUSH2 0x398 JUMPI PUSH0 PUSH0 REVERT JUMPDEST POP PUSH2 0x3B3 PUSH1 0x4 DUP1 CALLDATASIZE SUB DUP2 ADD SWAP1 PUSH2 0x3AE SWAP2 SWAP1 PUSH2 0x1D19 JUMP JUMPDEST PUSH2 0x107A JUMP JUMPDEST PUSH1 0x40 MLOAD PUSH2 0x3C0 SWAP2 SWAP1 PUSH2 0x1C7C JUMP JUMPDEST PUSH1 0x40 MLOAD DUP1 SWAP2 SUB SWAP1 RETURN JUMPDEST CALLVALUE DUP1 ISZERO PUSH2 0x3D4 JUMPI PUSH0 PUSH0 REVERT JUMPDEST POP PUSH2 0x3DD PUSH2 0x116E JUMP JUMPDEST PUSH1 0x40 MLOAD PUSH2 0x3EA SWAP2 SWAP1 PUSH2 0x1B00 JUMP JUMPDEST PUSH1 0x40 MLOAD DUP1 SWAP2 SUB SWAP1 RETURN JUMPDEST CALLVALUE DUP1 ISZERO PUSH2 0x3FE JUMPI PUSH0 PUSH0 REVERT JUMPDEST POP PUSH2 0x419 PUSH1 0x4 DUP1 CALLDATASIZE SUB DUP2 ADD SWAP1 PUSH2 0x414 SWAP2 SWAP1 PUSH2 0x1D19 JUMP JUMPDEST PUSH2 0x11F9 JUMP JUMPDEST PUSH1 0x40 MLOAD PUSH2 0x426 SWAP2 SWAP1 PUSH2 0x1C7C JUMP JUMPDEST PUSH1 0x40 MLOAD DUP1 SWAP2 SUB SWAP1 RETURN JUMPDEST CALLVALUE DUP1 ISZERO PUSH2 0x43A JUMPI PUSH0 PUSH0 REVERT JUMPDEST POP PUSH2 0x443 PUSH2 0x123F JUMP JUMPDEST STOP JUMPDEST CALLVALUE DUP1 ISZERO PUSH2 0x450 JUMPI PUSH0 PUSH0 REVERT JUMPDEST POP PUSH2 0x459 PUSH2 0x132D JUMP JUMPDEST PUSH1 0x40 MLOAD PUSH2 0x466 SWAP2 SWAP1 PUSH2 0x1B00 JUMP JUMPDEST PUSH1 0x40 MLOAD DUP1 SWAP2 SUB SWAP1 RETURN JUMPDEST CALLVALUE DUP1 ISZERO PUSH2 0x47A JUMPI PUSH0 PUSH0 REVERT JUMPDEST POP PUSH2 0x483 PUSH2 0x1366 JUMP JUMPDEST PUSH1 0x40 MLOAD PUSH2 0x490 SWAP2 SWAP1 PUSH2 0x1B00 JUMP JUMPDEST PUSH1 0x40 MLOAD DUP1 SWAP2 SUB SWAP1 RETURN JUMPDEST CALLVALUE DUP1 ISZERO PUSH2 0x4A4 JUMPI PUSH0 PUSH0 REVERT JUMPDEST POP PUSH2 0x4BF PUSH1 0x4 DUP1 CALLDATASIZE SUB DUP2 ADD SWAP1 PUSH2 0x4BA SWAP2 SWAP1 PUSH2 0x1BBE JUMP JUMPDEST PUSH2 0x13FE JUMP JUMPDEST PUSH1 0x40 MLOAD PUSH2 0x4CC SWAP2 SWAP1 PUSH2 0x1C16 JUMP JUMPDEST PUSH1 0x40 MLOAD DUP1 SWAP2 SUB SWAP1 RETURN JUMPDEST CALLVALUE DUP1 ISZERO PUSH2 0x4E0 JUMPI PUSH0 PUSH0 REVERT JUMPDEST POP PUSH2 0x4FB PUSH1 0x4 DUP1 CALLDATASIZE SUB DUP2 ADD SWAP1 PUSH2 0x4F6 SWAP2 SWAP1 PUSH2 0x1D19 JUMP JUMPDEST PUSH2 0x16E4 JUMP JUMPDEST PUSH1 0x40 MLOAD PUSH2 0x509 SWAP3 SWAP2 SWAP1 PUSH2 0x1D44 JUMP JUMPDEST PUSH1 0x40 MLOAD DUP1 SWAP2 SUB SWAP1 RETURN JUMPDEST CALLVALUE DUP1 ISZERO PUSH2 0x51D JUMPI PUSH0 PUSH0 REVERT JUMPDEST POP PUSH2 0x526 PUSH2 0x17C6 JUMP JUMPDEST PUSH1 0x40 MLOAD PUSH2 0x533 SWAP2 SWAP1 PUSH2 0x1D7A JUMP JUMPDEST PUSH1 0x40 MLOAD DUP1 SWAP2 SUB SWAP1 RETURN JUMPDEST CALLVALUE DUP1 ISZERO PUSH2 0x547 JUMPI PUSH0 PUSH0 REVERT JUMPDEST POP PUSH2 0x562 PUSH1 0x4 DUP1 CALLDATASIZE SUB DUP2 ADD SWAP1 PUSH2 0x55D SWAP2 SWAP1 PUSH2 0x1C2F JUMP JUMPDEST PUSH2 0x17EB JUMP JUMPDEST PUSH1 0x40 MLOAD PUSH2 0x56F SWAP2 SWAP1 PUSH2 0x1C7C JUMP JUMPDEST PUSH1 0x40 MLOAD DUP1 SWAP2 SUB SWAP1 RETURN JUMPDEST CALLVALUE DUP1 ISZERO PUSH2 0x583 JUMPI PUSH0 PUSH0 REVERT JUMPDEST POP PUSH2 0x59E PUSH1 0x4 DUP1 CALLDATASIZE SUB DUP2 ADD SWAP1 PUSH2 0x599 SWAP2 SWAP1 PUSH2 0x1D19 JUMP JUMPDEST PUSH2 0x186D JUMP JUMPDEST STOP JUMPDEST PUSH1 0x40 MLOAD DUP1 PUSH1 0x40 ADD PUSH1 0x40 MSTORE DUP1 PUSH1 0x8 DUP2 MSTORE PUSH1 0x20 ADD PUSH32 0x594B205072696D65000000000000000000000000000000000000000000000000 DUP2 MSTORE POP DUP2 JUMP JUMPDEST PUSH0 PUSH1 0x1 PUSH1 0x14 SWAP1 SLOAD SWAP1 PUSH2 0x100 EXP SWAP1 DIV PUSH1 0xFF AND ISZERO PUSH2 0x62A JUMPI PUSH1 0x40 MLOAD PUSH32 0x8C379A000000000000000000000000000000000000000000000000000000000 DUP2 MSTORE PUSH1 0x4 ADD PUSH2 0x621 SWAP1 PUSH2 0x1DDD JUMP JUMPDEST PUSH1 0x40 MLOAD DUP1 SWAP2 SUB SWAP1 REVERT JUMPDEST PUSH1 0x1 PUSH1 0x15 SWAP1 SLOAD SWAP1 PUSH2 0x100 EXP SWAP1 DIV PUSH1 0xFF AND ISZERO PUSH2 0x67A JUMPI PUSH1 0x40 MLOAD PUSH32 0x8C379A000000000000000000000000000000000000000000000000000000000 DUP2 MSTORE PUSH1 0x4 ADD PUSH2 0x671 SWAP1 PUSH2 0x1E45 JUMP JUMPDEST PUSH1 0x40 MLOAD DUP1 SWAP2 SUB SWAP1 REVERT JUMPDEST PUSH0 PUSH20 0xFFFFFFFFFFFFFFFFFFFFFFFFFFFFFFFFFFFFFFFF AND DUP4 PUSH20 0xFFFFFFFFFFFFFFFFFFFFFFFFFFFFFFFFFFFFFFFF AND SUB PUSH2 0x6E8 JUMPI PUSH1 0x40 MLOAD PUSH32 0x8C379A000000000000000000000000000000000000000000000000000000000 DUP2 MSTORE PUSH1 0x4 ADD PUSH2 0x6DF SWAP1 PUSH2 0x1EAD JUMP JUMPDEST PUSH1 0x40 MLOAD DUP1 SWAP2 SUB SWAP1 REVERT JUMPDEST PUSH0 DUP3 GT PUSH2 0x72A JUMPI PUSH1 0x40 MLOAD PUSH32 0x8C379A000000000000000000000000000000000000000000000000000000000 DUP2 MSTORE PUSH1 0x4 ADD PUSH2 0x721 SWAP1 PUSH2 0x1F15 JUMP JUMPDEST PUSH1 0x40 MLOAD DUP1 SWAP2 SUB SWAP1 REVERT JUMPDEST DUP2 PUSH1 0x3 PUSH0 CALLER PUSH20 0xFFFFFFFFFFFFFFFFFFFFFFFFFFFFFFFFFFFFFFFF AND PUSH20 0xFFFFFFFFFFFFFFFFFFFFFFFFFFFFFFFFFFFFFFFF AND DUP2 MSTORE PUSH1 0x20 ADD SWAP1 DUP2 MSTORE PUSH1 0x20 ADD PUSH0 KECCAK256 PUSH0 DUP6 PUSH20 0xFFFFFFFFFFFFFFFFFFFFFFFFFFFFFFFFFFFFFFFF AND PUSH20 0xFFFFFFFFFFFFFFFFFFFFFFFFFFFFFFFFFFFFFFFF AND DUP2 MSTORE PUSH1 0x20 ADD SWAP1 DUP2 MSTORE PUSH1 0x20 ADD PUSH0 KECCAK256 DUP2 SWAP1 SSTORE POP DUP3 PUSH20 0xFFFFFFFFFFFFFFFFFFFFFFFFFFFFFFFFFFFFFFFF AND CALLER PUSH20 0xFFFFFFFFFFFFFFFFFFFFFFFFFFFFFFFFFFFFFFFF AND PUSH32 0x8C5BE1E5EBEC7D5BD14F71427D1E84F3DD0314C0F7B2291E5B200AC8C7C3B925 DUP5 PUSH1 0x40 MLOAD PUSH2 0x804 SWAP2 SWAP1 PUSH2 0x1C7C JUMP JUMPDEST PUSH1 0x40 MLOAD DUP1 SWAP2 SUB SWAP1 LOG3 PUSH1 0x1 SWAP1 POP SWAP3 SWAP2 POP POP JUMP JUMPDEST PUSH1 0x1 PUSH0 SWAP1 SLOAD SWAP1 PUSH2 0x100 EXP SWAP1 DIV PUSH20 0xFFFFFFFFFFFFFFFFFFFFFFFFFFFFFFFFFFFFFFFF AND PUSH20 0xFFFFFFFFFFFFFFFFFFFFFFFFFFFFFFFFFFFFFFFF AND CALLER PUSH20 0xFFFFFFFFFFFFFFFFFFFFFFFFFFFFFFFFFFFFFFFF AND EQ PUSH2 0x8A5 JUMPI PUSH1 0x40 MLOAD PUSH32 0x8C379A000000000000000000000000000000000000000000000000000000000 DUP2 MSTORE PUSH1 0x4 ADD PUSH2 0x89C SWAP1 PUSH2 0x1FA3 JUMP JUMPDEST PUSH1 0x40 MLOAD DUP1 SWAP2 SUB SWAP1 REVERT JUMPDEST PUSH1 0x1 DUP1 PUSH1 0x15 PUSH2 0x100 EXP DUP2 SLOAD DUP2 PUSH1 0xFF MUL NOT AND SWAP1 DUP4 ISZERO ISZERO MUL OR SWAP1 SSTORE POP CALLER PUSH20 0xFFFFFFFFFFFFFFFFFFFFFFFFFFFFFFFFFFFFFFFF AND PUSH32 0x98CD97FC1A1CC958CBD729B1BB531D4F3EA4925470BF23EA9AF386640CBD07BE PUSH1 0x40 MLOAD PUSH1 0x40 MLOAD DUP1 SWAP2 SUB SWAP1 LOG2 JUMP JUMPDEST PUSH0 PUSH1 0x4 PUSH0 SWAP1 SLOAD SWAP1 PUSH2 0x100 EXP SWAP1 DIV PUSH20 0xFFFFFFFFFFFFFFFFFFFFFFFFFFFFFFFFFFFFFFFF AND PUSH20 0xFFFFFFFFFFFFFFFFFFFFFFFFFFFFFFFFFFFFFFFF AND PUSH4 0xDD62ED3E DUP5 DUP5 PUSH1 0x40 MLOAD DUP4 PUSH4 0xFFFFFFFF AND PUSH1 0xE0 SHL DUP2 MSTORE PUSH1 0x4 ADD PUSH2 0x961 SWAP3 SWAP2 SWAP1 PUSH2 0x1FC1 JUMP JUMPDEST PUSH1 0x20 PUSH1 0x40 MLOAD DUP1 DUP4 SUB DUP2 DUP7 GAS STATICCALL ISZERO DUP1 ISZERO PUSH2 0x97C JUMPI RETURNDATASIZE PUSH0 PUSH0 RETURNDATACOPY RETURNDATASIZE PUSH0 REVERT JUMPDEST POP POP POP POP PUSH1 0x40 MLOAD RETURNDATASIZE PUSH1 0x1F NOT PUSH1 0x1F DUP3 ADD AND DUP3 ADD DUP1 PUSH1 0x40 MSTORE POP DUP2 ADD SWAP1 PUSH2 0x9A0 SWAP2 SWAP1 PUSH2 0x1FFC JUMP JUMPDEST SWAP1 POP SWAP3 SWAP2 POP POP JUMP JUMPDEST PUSH1 0x4 PUSH1 0xFF AND PUSH1 0xA PUSH2 0x9B9 SWAP2 SWAP1 PUSH2 0x2183 JUMP JUMPDEST PUSH5 0xBA43B7400 PUSH2 0x9C9 SWAP2 SWAP1 PUSH2 0x21CD JUMP JUMPDEST DUP2 JUMP JUMPDEST PUSH1 0x1 PUSH1 0x15 SWAP1 SLOAD SWAP1 PUSH2 0x100 EXP SWAP1 DIV PUSH1 0xFF AND DUP2 JUMP JUMPDEST PUSH0 PUSH1 0x4 PUSH0 SWAP1 SLOAD SWAP1 PUSH2 0x100 EXP SWAP1 DIV PUSH20 0xFFFFFFFFFFFFFFFFFFFFFFFFFFFFFFFFFFFFFFFF AND PUSH20 0xFFFFFFFFFFFFFFFFFFFFFFFFFFFFFFFFFFFFFFFF AND PUSH4 0x18160DDD PUSH1 0x40 MLOAD DUP2 PUSH4 0xFFFFFFFF AND PUSH1 0xE0 SHL DUP2 MSTORE PUSH1 0x4 ADD PUSH1 0x20 PUSH1 0x40 MLOAD DUP1 DUP4 SUB DUP2 DUP7 GAS STATICCALL ISZERO DUP1 ISZERO PUSH2 0xA4A JUMPI RETURNDATASIZE PUSH0 PUSH0 RETURNDATACOPY RETURNDATASIZE PUSH0 REVERT JUMPDEST POP POP POP POP PUSH1 0x40 MLOAD RETURNDATASIZE PUSH1 0x1F NOT PUSH1 0x1F DUP3 ADD AND DUP3 ADD DUP1 PUSH1 0x40 MSTORE POP DUP2 ADD SWAP1 PUSH2 0xA6E SWAP2 SWAP1 PUSH2 0x1FFC JUMP JUMPDEST SWAP1 POP SWAP1 JUMP JUMPDEST PUSH0 PUSH1 0x1 PUSH1 0x14 SWAP1 SLOAD SWAP1 PUSH2 0x100 EXP SWAP1 DIV PUSH1 0xFF AND ISZERO PUSH2 0xAC4 JUMPI PUSH1 0x40 MLOAD PUSH32 0x8C379A000000000000000000000000000000000000000000000000000000000 DUP2 MSTORE PUSH1 0x4 ADD PUSH2 0xABB SWAP1 PUSH2 0x1DDD JUMP JUMPDEST PUSH1 0x40 MLOAD DUP1 SWAP2 SUB SWAP1 REVERT JUMPDEST PUSH1 0x1 PUSH1 0x15 SWAP1 SLOAD SWAP1 PUSH2 0x100 EXP SWAP1 DIV PUSH1 0xFF AND ISZERO PUSH2 0xB14 JUMPI PUSH1 0x40 MLOAD PUSH32 0x8C379A000000000000000000000000000000000000000000000000000000000 DUP2 MSTORE PUSH1 0x4 ADD PUSH2 0xB0B SWAP1 PUSH2 0x1E45 JUMP JUMPDEST PUSH1 0x40 MLOAD DUP1 SWAP2 SUB SWAP1 REVERT JUMPDEST PUSH0 PUSH20 0xFFFFFFFFFFFFFFFFFFFFFFFFFFFFFFFFFFFFFFFF AND DUP5 PUSH20 0xFFFFFFFFFFFFFFFFFFFFFFFFFFFFFFFFFFFFFFFF AND EQ ISZERO DUP1 ISZERO PUSH2 0xB7C JUMPI POP PUSH0 PUSH20 0xFFFFFFFFFFFFFFFFFFFFFFFFFFFFFFFFFFFFFFFF AND DUP4 PUSH20 0xFFFFFFFFFFFFFFFFFFFFFFFFFFFFFFFFFFFFFFFF AND EQ ISZERO JUMPDEST PUSH2 0xBBB JUMPI PUSH1 0x40 MLOAD PUSH32 0x8C379A000000000000000000000000000000000000000000000000000000000 DUP2 MSTORE PUSH1 0x4 ADD PUSH2 0xBB2 SWAP1 PUSH2 0x2258 JUMP JUMPDEST PUSH1 0x40 MLOAD DUP1 SWAP2 SUB SWAP1 REVERT JUMPDEST PUSH0 DUP3 GT PUSH2 0xBFD JUMPI PUSH1 0x40 MLOAD PUSH32 0x8C379A000000000000000000000000000000000000000000000000000000000 DUP2 MSTORE PUSH1 0x4 ADD PUSH2 0xBF4 SWAP1 PUSH2 0x1F15 JUMP JUMPDEST PUSH1 0x40 MLOAD DUP1 SWAP2 SUB SWAP1 REVERT JUMPDEST DUP2 PUSH1 0x2 PUSH0 DUP7 PUSH20 0xFFFFFFFFFFFFFFFFFFFFFFFFFFFFFFFFFFFFFFFF AND PUSH20 0xFFFFFFFFFFFFFFFFFFFFFFFFFFFFFFFFFFFFFFFF AND DUP2 MSTORE PUSH1 0x20 ADD SWAP1 DUP2 MSTORE PUSH1 0x20 ADD PUSH0 KECCAK256 SLOAD LT ISZERO PUSH2 0xC7D JUMPI PUSH1 0x40 MLOAD PUSH32 0x8C379A000000000000000000000000000000000000000000000000000000000 DUP2 MSTORE PUSH1 0x4 ADD PUSH2 0xC74 SWAP1 PUSH2 0x22C0 JUMP JUMPDEST PUSH1 0x40 MLOAD DUP1 SWAP2 SUB SWAP1 REVERT JUMPDEST DUP2 PUSH1 0x3 PUSH0 DUP7 PUSH20 0xFFFFFFFFFFFFFFFFFFFFFFFFFFFFFFFFFFFFFFFF AND PUSH20 0xFFFFFFFFFFFFFFFFFFFFFFFFFFFFFFFFFFFFFFFF AND DUP2 MSTORE PUSH1 0x20 ADD SWAP1 DUP2 MSTORE PUSH1 0x20 ADD PUSH0 KECCAK256 PUSH0 CALLER PUSH20 0xFFFFFFFFFFFFFFFFFFFFFFFFFFFFFFFFFFFFFFFF AND PUSH20 0xFFFFFFFFFFFFFFFFFFFFFFFFFFFFFFFFFFFFFFFF AND DUP2 MSTORE PUSH1 0x20 ADD SWAP1 DUP2 MSTORE PUSH1 0x20 ADD PUSH0 KECCAK256 SLOAD LT ISZERO PUSH2 0xD38 JUMPI PUSH1 0x40 MLOAD PUSH32 0x8C379A000000000000000000000000000000000000000000000000000000000 DUP2 MSTORE PUSH1 0x4 ADD PUSH2 0xD2F SWAP1 PUSH2 0x2328 JUMP JUMPDEST PUSH1 0x40 MLOAD DUP1 SWAP2 SUB SWAP1 REVERT JUMPDEST DUP2 PUSH1 0x2 PUSH0 DUP7 PUSH20 0xFFFFFFFFFFFFFFFFFFFFFFFFFFFFFFFFFFFFFFFF AND PUSH20 0xFFFFFFFFFFFFFFFFFFFFFFFFFFFFFFFFFFFFFFFF AND DUP2 MSTORE PUSH1 0x20 ADD SWAP1 DUP2 MSTORE PUSH1 0x20 ADD PUSH0 KECCAK256 PUSH0 DUP3 DUP3 SLOAD PUSH2 0xD84 SWAP2 SWAP1 PUSH2 0x2346 JUMP JUMPDEST SWAP3 POP POP DUP2 SWAP1 SSTORE POP DUP2 PUSH1 0x2 PUSH0 DUP6 PUSH20 0xFFFFFFFFFFFFFFFFFFFFFFFFFFFFFFFFFFFFFFFF AND PUSH20 0xFFFFFFFFFFFFFFFFFFFFFFFFFFFFFFFFFFFFFFFF AND DUP2 MSTORE PUSH1 0x20 ADD SWAP1 DUP2 MSTORE PUSH1 0x20 ADD PUSH0 KECCAK256 PUSH0 DUP3 DUP3 SLOAD PUSH2 0xDD7 SWAP2 SWAP1 PUSH2 0x2379 JUMP JUMPDEST SWAP3 POP POP DUP2 SWAP1 SSTORE POP DUP2 PUSH1 0x3 PUSH0 DUP7 PUSH20 0xFFFFFFFFFFFFFFFFFFFFFFFFFFFFFFFFFFFFFFFF AND PUSH20 0xFFFFFFFFFFFFFFFFFFFFFFFFFFFFFFFFFFFFFFFF AND DUP2 MSTORE PUSH1 0x20 ADD SWAP1 DUP2 MSTORE PUSH1 0x20 ADD PUSH0 KECCAK256 PUSH0 CALLER PUSH20 0xFFFFFFFFFFFFFFFFFFFFFFFFFFFFFFFFFFFFFFFF AND PUSH20 0xFFFFFFFFFFFFFFFFFFFFFFFFFFFFFFFFFFFFFFFF AND DUP2 MSTORE PUSH1 0x20 ADD SWAP1 DUP2 MSTORE PUSH1 0x20 ADD PUSH0 KECCAK256 PUSH0 DUP3 DUP3 SLOAD PUSH2 0xE65 SWAP2 SWAP1 PUSH2 0x2346 JUMP JUMPDEST SWAP3 POP POP DUP2 SWAP1 SSTORE POP DUP3 PUSH20 0xFFFFFFFFFFFFFFFFFFFFFFFFFFFFFFFFFFFFFFFF AND DUP5 PUSH20 0xFFFFFFFFFFFFFFFFFFFFFFFFFFFFFFFFFFFFFFFF AND PUSH32 0xDDF252AD1BE2C89B69C2B068FC378DAA952BA7F163C4A11628F55A4DF523B3EF DUP5 PUSH1 0x40 MLOAD PUSH2 0xEC9 SWAP2 SWAP1 PUSH2 0x1C7C JUMP JUMPDEST PUSH1 0x40 MLOAD DUP1 SWAP2 SUB SWAP1 LOG3 PUSH1 0x1 SWAP1 POP SWAP4 SWAP3 POP POP POP JUMP JUMPDEST PUSH1 0x60 PUSH1 0x4 PUSH0 SWAP1 SLOAD SWAP1 PUSH2 0x100 EXP SWAP1 DIV PUSH20 0xFFFFFFFFFFFFFFFFFFFFFFFFFFFFFFFFFFFFFFFF AND PUSH20 0xFFFFFFFFFFFFFFFFFFFFFFFFFFFFFFFFFFFFFFFF AND PUSH4 0x6FDDE03 PUSH1 0x40 MLOAD DUP2 PUSH4 0xFFFFFFFF AND PUSH1 0xE0 SHL DUP2 MSTORE PUSH1 0x4 ADD PUSH0 PUSH1 0x40 MLOAD DUP1 DUP4 SUB DUP2 DUP7 GAS STATICCALL ISZERO DUP1 ISZERO PUSH2 0xF47 JUMPI RETURNDATASIZE PUSH0 PUSH0 RETURNDATACOPY RETURNDATASIZE PUSH0 REVERT JUMPDEST POP POP POP POP PUSH1 0x40 MLOAD RETURNDATASIZE PUSH0 DUP3 RETURNDATACOPY RETURNDATASIZE PUSH1 0x1F NOT PUSH1 0x1F DUP3 ADD AND DUP3 ADD DUP1 PUSH1 0x40 MSTORE POP DUP2 ADD SWAP1 PUSH2 0xF6F SWAP2 SWAP1 PUSH2 0x24CA JUMP JUMPDEST SWAP1 POP SWAP1 JUMP JUMPDEST PUSH1 0x4 DUP2 JUMP JUMPDEST PUSH1 0x1 PUSH0 SWAP1 SLOAD SWAP1 PUSH2 0x100 EXP SWAP1 DIV PUSH20 0xFFFFFFFFFFFFFFFFFFFFFFFFFFFFFFFFFFFFFFFF AND PUSH20 0xFFFFFFFFFFFFFFFFFFFFFFFFFFFFFFFFFFFFFFFF AND CALLER PUSH20 0xFFFFFFFFFFFFFFFFFFFFFFFFFFFFFFFFFFFFFFFF AND EQ PUSH2 0x1008 JUMPI PUSH1 0x40 MLOAD PUSH32 0x8C379A000000000000000000000000000000000000000000000000000000000 DUP2 MSTORE PUSH1 0x4 ADD PUSH2 0xFFF SWAP1 PUSH2 0x1FA3 JUMP JUMPDEST PUSH1 0x40 MLOAD DUP1 SWAP2 SUB SWAP1 REVERT JUMPDEST PUSH0 PUSH1 0x1 PUSH1 0x14 PUSH2 0x100 EXP DUP2 SLOAD DUP2 PUSH1 0xFF MUL NOT AND SWAP1 DUP4 ISZERO ISZERO MUL OR SWAP1 SSTORE POP CALLER PUSH20 0xFFFFFFFFFFFFFFFFFFFFFFFFFFFFFFFFFFFFFFFF AND PUSH32 0x5DB9EE0A495BF2E6FF9C91A7834C1BA4FDD244A5E8AA4E537BD38AEAE4B073AA PUSH1 0x40 MLOAD PUSH1 0x40 MLOAD DUP1 SWAP2 SUB SWAP1 LOG2 JUMP JUMPDEST PUSH1 0x1 PUSH1 0x14 SWAP1 SLOAD SWAP1 PUSH2 0x100 EXP SWAP1 DIV PUSH1 0xFF AND DUP2 JUMP JUMPDEST PUSH0 PUSH0 PUSH1 0x4 PUSH0 SWAP1 SLOAD SWAP1 PUSH2 0x100 EXP SWAP1 DIV PUSH20 0xFFFFFFFFFFFFFFFFFFFFFFFFFFFFFFFFFFFFFFFF AND PUSH20 0xFFFFFFFFFFFFFFFFFFFFFFFFFFFFFFFFFFFFFFFF AND PUSH4 0x70A08231 DUP5 PUSH1 0x40 MLOAD DUP3 PUSH4 0xFFFFFFFF AND PUSH1 0xE0 SHL DUP2 MSTORE PUSH1 0x4 ADD PUSH2 0x10D6 SWAP2 SWAP1 PUSH2 0x1D7A JUMP JUMPDEST PUSH1 0x20 PUSH1 0x40 MLOAD DUP1 DUP4 SUB DUP2 DUP7 GAS STATICCALL ISZERO DUP1 ISZERO PUSH2 0x10F1 JUMPI RETURNDATASIZE PUSH0 PUSH0 RETURNDATACOPY RETURNDATASIZE PUSH0 REVERT JUMPDEST POP POP POP POP PUSH1 0x40 MLOAD RETURNDATASIZE PUSH1 0x1F NOT PUSH1 0x1F DUP3 ADD AND DUP3 ADD DUP1 PUSH1 0x40 MSTORE POP DUP2 ADD SWAP1 PUSH2 0x1115 SWAP2 SWAP1 PUSH2 0x1FFC JUMP JUMPDEST SWAP1 POP DUP3 PUSH20 0xFFFFFFFFFFFFFFFFFFFFFFFFFFFFFFFFFFFFFFFF AND PUSH32 0xDBD71032B7681EE8E00CB6F187D955FDFC8CFB5302B98A717B033AB45BF21E64 DUP3 PUSH1 0x40 MLOAD PUSH2 0x115D SWAP2 SWAP1 PUSH2 0x1C7C JUMP JUMPDEST PUSH1 0x40 MLOAD DUP1 SWAP2 SUB SWAP1 LOG2 DUP1 SWAP2 POP POP SWAP2 SWAP1 POP JUMP JUMPDEST PUSH0 DUP1 SLOAD PUSH2 0x117A SWAP1 PUSH2 0x253E JUMP JUMPDEST DUP1 PUSH1 0x1F ADD PUSH1 0x20 DUP1 SWAP2 DIV MUL PUSH1 0x20 ADD PUSH1 0x40 MLOAD SWAP1 DUP2 ADD PUSH1 0x40 MSTORE DUP1 SWAP3 SWAP2 SWAP1 DUP2 DUP2 MSTORE PUSH1 0x20 ADD DUP3 DUP1 SLOAD PUSH2 0x11A6 SWAP1 PUSH2 0x253E JUMP JUMPDEST DUP1 ISZERO PUSH2 0x11F1 JUMPI DUP1 PUSH1 0x1F LT PUSH2 0x11C8 JUMPI PUSH2 0x100 DUP1 DUP4 SLOAD DIV MUL DUP4 MSTORE SWAP2 PUSH1 0x20 ADD SWAP2 PUSH2 0x11F1 JUMP JUMPDEST DUP3 ADD SWAP2 SWAP1 PUSH0 MSTORE PUSH1 0x20 PUSH0 KECCAK256 SWAP1 JUMPDEST DUP2 SLOAD DUP2 MSTORE SWAP1 PUSH1 0x1 ADD SWAP1 PUSH1 0x20 ADD DUP1 DUP4 GT PUSH2 0x11D4 JUMPI DUP3 SWAP1 SUB PUSH1 0x1F AND DUP3 ADD SWAP2 JUMPDEST POP POP POP POP POP DUP2 JUMP JUMPDEST PUSH0 PUSH1 0x2 PUSH0 DUP4 PUSH20 0xFFFFFFFFFFFFFFFFFFFFFFFFFFFFFFFFFFFFFFFF AND PUSH20 0xFFFFFFFFFFFFFFFFFFFFFFFFFFFFFFFFFFFFFFFF AND DUP2 MSTORE PUSH1 0x20 ADD SWAP1 DUP2 MSTORE PUSH1 0x20 ADD PUSH0 KECCAK256 SLOAD SWAP1 POP SWAP2 SWAP1 POP JUMP JUMPDEST PUSH1 0x1 PUSH0 SWAP1 SLOAD SWAP1 PUSH2 0x100 EXP SWAP1 DIV PUSH20 0xFFFFFFFFFFFFFFFFFFFFFFFFFFFFFFFFFFFFFFFF AND PUSH20 0xFFFFFFFFFFFFFFFFFFFFFFFFFFFFFFFFFFFFFFFF AND CALLER PUSH20 0xFFFFFFFFFFFFFFFFFFFFFFFFFFFFFFFFFFFFFFFF AND EQ PUSH2 0x12CE JUMPI PUSH1 0x40 MLOAD PUSH32 0x8C379A000000000000000000000000000000000000000000000000000000000 DUP2 MSTORE PUSH1 0x4 ADD PUSH2 0x12C5 SWAP1 PUSH2 0x1FA3 JUMP JUMPDEST PUSH1 0x40 MLOAD DUP1 SWAP2 SUB SWAP1 REVERT JUMPDEST PUSH1 0x1 DUP1 PUSH1 0x14 PUSH2 0x100 EXP DUP2 SLOAD DUP2 PUSH1 0xFF MUL NOT AND SWAP1 DUP4 ISZERO ISZERO MUL OR SWAP1 SSTORE POP CALLER PUSH20 0xFFFFFFFFFFFFFFFFFFFFFFFFFFFFFFFFFFFFFFFF AND PUSH32 0x62E78CEA01BEE320CD4E420270B5EA74000D11B0C9F74754EBDBFC544B05A258 PUSH1 0x40 MLOAD PUSH1 0x40 MLOAD DUP1 SWAP2 SUB SWAP1 LOG2 JUMP JUMPDEST PUSH1 0x40 MLOAD DUP1 PUSH1 0x40 ADD PUSH1 0x40 MSTORE DUP1 PUSH1 0x2 DUP2 MSTORE PUSH1 0x20 ADD PUSH32 0x594B000000000000000000000000000000000000000000000000000000000000 DUP2 MSTORE POP DUP2 JUMP JUMPDEST PUSH1 0x60 PUSH1 0x4 PUSH0 SWAP1 SLOAD SWAP1 PUSH2 0x100 EXP SWAP1 DIV PUSH20 0xFFFFFFFFFFFFFFFFFFFFFFFFFFFFFFFFFFFFFFFF AND PUSH20 0xFFFFFFFFFFFFFFFFFFFFFFFFFFFFFFFFFFFFFFFF AND PUSH4 0x95D89B41 PUSH1 0x40 MLOAD DUP2 PUSH4 0xFFFFFFFF AND PUSH1 0xE0 SHL DUP2 MSTORE PUSH1 0x4 ADD PUSH0 PUSH1 0x40 MLOAD DUP1 DUP4 SUB DUP2 DUP7 GAS STATICCALL ISZERO DUP1 ISZERO PUSH2 0x13D1 JUMPI RETURNDATASIZE PUSH0 PUSH0 RETURNDATACOPY RETURNDATASIZE PUSH0 REVERT JUMPDEST POP POP POP POP PUSH1 0x40 MLOAD RETURNDATASIZE PUSH0 DUP3 RETURNDATACOPY RETURNDATASIZE PUSH1 0x1F NOT PUSH1 0x1F DUP3 ADD AND DUP3 ADD DUP1 PUSH1 0x40 MSTORE POP DUP2 ADD SWAP1 PUSH2 0x13F9 SWAP2 SWAP1 PUSH2 0x24CA JUMP JUMPDEST SWAP1 POP SWAP1 JUMP JUMPDEST PUSH0 PUSH1 0x1 PUSH1 0x14 SWAP1 SLOAD SWAP1 PUSH2 0x100 EXP SWAP1 DIV PUSH1 0xFF AND ISZERO PUSH2 0x144F JUMPI PUSH1 0x40 MLOAD PUSH32 0x8C379A000000000000000000000000000000000000000000000000000000000 DUP2 MSTORE PUSH1 0x4 ADD PUSH2 0x1446 SWAP1 PUSH2 0x1DDD JUMP JUMPDEST PUSH1 0x40 MLOAD DUP1 SWAP2 SUB SWAP1 REVERT JUMPDEST PUSH1 0x1 PUSH1 0x15 SWAP1 SLOAD SWAP1 PUSH2 0x100 EXP SWAP1 DIV PUSH1 0xFF AND ISZERO PUSH2 0x149F JUMPI PUSH1 0x40 MLOAD PUSH32 0x8C379A000000000000000000000000000000000000000000000000000000000 DUP2 MSTORE PUSH1 0x4 ADD PUSH2 0x1496 SWAP1 PUSH2 0x1E45 JUMP JUMPDEST PUSH1 0x40 MLOAD DUP1 SWAP2 SUB SWAP1 REVERT JUMPDEST PUSH0 PUSH20 0xFFFFFFFFFFFFFFFFFFFFFFFFFFFFFFFFFFFFFFFF AND DUP4 PUSH20 0xFFFFFFFFFFFFFFFFFFFFFFFFFFFFFFFFFFFFFFFF AND SUB PUSH2 0x150D JUMPI PUSH1 0x40 MLOAD PUSH32 0x8C379A000000000000000000000000000000000000000000000000000000000 DUP2 MSTORE PUSH1 0x4 ADD PUSH2 0x1504 SWAP1 PUSH2 0x25B8 JUMP JUMPDEST PUSH1 0x40 MLOAD DUP1 SWAP2 SUB SWAP1 REVERT JUMPDEST PUSH0 DUP3 GT PUSH2 0x154F JUMPI PUSH1 0x40 MLOAD PUSH32 0x8C379A000000000000000000000000000000000000000000000000000000000 DUP2 MSTORE PUSH1 0x4 ADD PUSH2 0x1546 SWAP1 PUSH2 0x1F15 JUMP JUMPDEST PUSH1 0x40 MLOAD DUP1 SWAP2 SUB SWAP1 REVERT JUMPDEST DUP2 PUSH1 0x2 PUSH0 CALLER PUSH20 0xFFFFFFFFFFFFFFFFFFFFFFFFFFFFFFFFFFFFFFFF AND PUSH20 0xFFFFFFFFFFFFFFFFFFFFFFFFFFFFFFFFFFFFFFFF AND DUP2 MSTORE PUSH1 0x20 ADD SWAP1 DUP2 MSTORE PUSH1 0x20 ADD PUSH0 KECCAK256 SLOAD LT ISZERO PUSH2 0x15CF JUMPI PUSH1 0x40 MLOAD PUSH32 0x8C379A000000000000000000000000000000000000000000000000000000000 DUP2 MSTORE PUSH1 0x4 ADD PUSH2 0x15C6 SWAP1 PUSH2 0x22C0 JUMP JUMPDEST PUSH1 0x40 MLOAD DUP1 SWAP2 SUB SWAP1 REVERT JUMPDEST DUP2 PUSH1 0x2 PUSH0 CALLER PUSH20 0xFFFFFFFFFFFFFFFFFFFFFFFFFFFFFFFFFFFFFFFF AND PUSH20 0xFFFFFFFFFFFFFFFFFFFFFFFFFFFFFFFFFFFFFFFF AND DUP2 MSTORE PUSH1 0x20 ADD SWAP1 DUP2 MSTORE PUSH1 0x20 ADD PUSH0 KECCAK256 PUSH0 DUP3 DUP3 SLOAD PUSH2 0x161B SWAP2 SWAP1 PUSH2 0x2346 JUMP JUMPDEST SWAP3 POP POP DUP2 SWAP1 SSTORE POP DUP2 PUSH1 0x2 PUSH0 DUP6 PUSH20 0xFFFFFFFFFFFFFFFFFFFFFFFFFFFFFFFFFFFFFFFF AND PUSH20 0xFFFFFFFFFFFFFFFFFFFFFFFFFFFFFFFFFFFFFFFF AND DUP2 MSTORE PUSH1 0x20 ADD SWAP1 DUP2 MSTORE PUSH1 0x20 ADD PUSH0 KECCAK256 PUSH0 DUP3 DUP3 SLOAD PUSH2 0x166E SWAP2 SWAP1 PUSH2 0x2379 JUMP JUMPDEST SWAP3 POP POP DUP2 SWAP1 SSTORE POP DUP3 PUSH20 0xFFFFFFFFFFFFFFFFFFFFFFFFFFFFFFFFFFFFFFFF AND CALLER PUSH20 0xFFFFFFFFFFFFFFFFFFFFFFFFFFFFFFFFFFFFFFFF AND PUSH32 0xDDF252AD1BE2C89B69C2B068FC378DAA952BA7F163C4A11628F55A4DF523B3EF DUP5 PUSH1 0x40 MLOAD PUSH2 0x16D2 SWAP2 SWAP1 PUSH2 0x1C7C JUMP JUMPDEST PUSH1 0x40 MLOAD DUP1 SWAP2 SUB SWAP1 LOG3 PUSH1 0x1 SWAP1 POP SWAP3 SWAP2 POP POP JUMP JUMPDEST PUSH0 PUSH0 PUSH1 0x4 PUSH0 SWAP1 SLOAD SWAP1 PUSH2 0x100 EXP SWAP1 DIV PUSH20 0xFFFFFFFFFFFFFFFFFFFFFFFFFFFFFFFFFFFFFFFF AND PUSH20 0xFFFFFFFFFFFFFFFFFFFFFFFFFFFFFFFFFFFFFFFF AND PUSH4 0x70A08231 DUP5 PUSH1 0x40 MLOAD DUP3 PUSH4 0xFFFFFFFF AND PUSH1 0xE0 SHL DUP2 MSTORE PUSH1 0x4 ADD PUSH2 0x1740 SWAP2 SWAP1 PUSH2 0x1D7A JUMP JUMPDEST PUSH1 0x20 PUSH1 0x40 MLOAD DUP1 DUP4 SUB DUP2 DUP7 GAS STATICCALL ISZERO DUP1 ISZERO PUSH2 0x175B JUMPI RETURNDATASIZE PUSH0 PUSH0 RETURNDATACOPY RETURNDATASIZE PUSH0 REVERT JUMPDEST POP POP POP POP PUSH1 0x40 MLOAD RETURNDATASIZE PUSH1 0x1F NOT PUSH1 0x1F DUP3 ADD AND DUP3 ADD DUP1 PUSH1 0x40 MSTORE POP DUP2 ADD SWAP1 PUSH2 0x177F SWAP2 SWAP1 PUSH2 0x1FFC JUMP JUMPDEST PUSH1 0x2 PUSH0 DUP6 PUSH20 0xFFFFFFFFFFFFFFFFFFFFFFFFFFFFFFFFFFFFFFFF AND PUSH20 0xFFFFFFFFFFFFFFFFFFFFFFFFFFFFFFFFFFFFFFFF AND DUP2 MSTORE PUSH1 0x20 ADD SWAP1 DUP2 MSTORE PUSH1 0x20 ADD PUSH0 KECCAK256 SLOAD SWAP2 POP SWAP2 POP SWAP2 POP SWAP2 JUMP JUMPDEST PUSH1 0x1 PUSH0 SWAP1 SLOAD SWAP1 PUSH2 0x100 EXP SWAP1 DIV PUSH20 0xFFFFFFFFFFFFFFFFFFFFFFFFFFFFFFFFFFFFFFFF AND DUP2 JUMP JUMPDEST PUSH0 PUSH1 0x3 PUSH0 DUP5 PUSH20 0xFFFFFFFFFFFFFFFFFFFFFFFFFFFFFFFFFFFFFFFF AND PUSH20 0xFFFFFFFFFFFFFFFFFFFFFFFFFFFFFFFFFFFFFFFF AND DUP2 MSTORE PUSH1 0x20 ADD SWAP1 DUP2 MSTORE PUSH1 0x20 ADD PUSH0 KECCAK256 PUSH0 DUP4 PUSH20 0xFFFFFFFFFFFFFFFFFFFFFFFFFFFFFFFFFFFFFFFF AND PUSH20 0xFFFFFFFFFFFFFFFFFFFFFFFFFFFFFFFFFFFFFFFF AND DUP2 MSTORE PUSH1 0x20 ADD SWAP1 DUP2 MSTORE PUSH1 0x20 ADD PUSH0 KECCAK256 SLOAD SWAP1 POP SWAP3 SWAP2 POP POP JUMP JUMPDEST PUSH1 0x1 PUSH0 SWAP1 SLOAD SWAP1 PUSH2 0x100 EXP SWAP1 DIV PUSH20 0xFFFFFFFFFFFFFFFFFFFFFFFFFFFFFFFFFFFFFFFF AND PUSH20 0xFFFFFFFFFFFFFFFFFFFFFFFFFFFFFFFFFFFFFFFF AND CALLER PUSH20 0xFFFFFFFFFFFFFFFFFFFFFFFFFFFFFFFFFFFFFFFF AND EQ PUSH2 0x18FC JUMPI PUSH1 0x40 MLOAD PUSH32 0x8C379A000000000000000000000000000000000000000000000000000000000 DUP2 MSTORE PUSH1 0x4 ADD PUSH2 0x18F3 SWAP1 PUSH2 0x1FA3 JUMP JUMPDEST PUSH1 0x40 MLOAD DUP1 SWAP2 SUB SWAP1 REVERT JUMPDEST PUSH0 PUSH20 0xFFFFFFFFFFFFFFFFFFFFFFFFFFFFFFFFFFFFFFFF AND DUP2 PUSH20 0xFFFFFFFFFFFFFFFFFFFFFFFFFFFFFFFFFFFFFFFF AND SUB PUSH2 0x196A JUMPI PUSH1 0x40 MLOAD PUSH32 0x8C379A000000000000000000000000000000000000000000000000000000000 DUP2 MSTORE PUSH1 0x4 ADD PUSH2 0x1961 SWAP1 PUSH2 0x2620 JUMP JUMPDEST PUSH1 0x40 MLOAD DUP1 SWAP2 SUB SWAP1 REVERT JUMPDEST DUP1 PUSH20 0xFFFFFFFFFFFFFFFFFFFFFFFFFFFFFFFFFFFFFFFF AND PUSH1 0x1 PUSH0 SWAP1 SLOAD SWAP1 PUSH2 0x100 EXP SWAP1 DIV PUSH20 0xFFFFFFFFFFFFFFFFFFFFFFFFFFFFFFFFFFFFFFFF AND PUSH20 0xFFFFFFFFFFFFFFFFFFFFFFFFFFFFFFFFFFFFFFFF AND PUSH32 0x8BE0079C531659141344CD1FD0A4F28419497F9722A3DAAFE3B4186F6B6457E0 PUSH1 0x40 MLOAD PUSH1 0x40 MLOAD DUP1 SWAP2 SUB SWAP1 LOG3 DUP1 PUSH1 0x1 PUSH0 PUSH2 0x100 EXP DUP2 SLOAD DUP2 PUSH20 0xFFFFFFFFFFFFFFFFFFFFFFFFFFFFFFFFFFFFFFFF MUL NOT AND SWAP1 DUP4 PUSH20 0xFFFFFFFFFFFFFFFFFFFFFFFFFFFFFFFFFFFFFFFF AND MUL OR SWAP1 SSTORE POP POP JUMP JUMPDEST PUSH0 DUP3 DUP3 MSTORE PUSH1 0x20 DUP3 ADD SWAP1 POP SWAP3 SWAP2 POP POP JUMP JUMPDEST PUSH32 0x455448206E6F7420616363657074656400000000000000000000000000000000 PUSH0 DUP3 ADD MSTORE POP JUMP JUMPDEST PUSH0 PUSH2 0x1A6C PUSH1 0x10 DUP4 PUSH2 0x1A28 JUMP JUMPDEST SWAP2 POP PUSH2 0x1A77 DUP3 PUSH2 0x1A38 JUMP JUMPDEST PUSH1 0x20 DUP3 ADD SWAP1 POP SWAP2 SWAP1 POP JUMP JUMPDEST PUSH0 PUSH1 0x20 DUP3 ADD SWAP1 POP DUP2 DUP2 SUB PUSH0 DUP4 ADD MSTORE PUSH2 0x1A99 DUP2 PUSH2 0x1A60 JUMP JUMPDEST SWAP1 POP SWAP2 SWAP1 POP JUMP JUMPDEST PUSH0 DUP2 MLOAD SWAP1 POP SWAP2 SWAP1 POP JUMP JUMPDEST DUP3 DUP2 DUP4 MCOPY PUSH0 DUP4 DUP4 ADD MSTORE POP POP POP JUMP JUMPDEST PUSH0 PUSH1 0x1F NOT PUSH1 0x1F DUP4 ADD AND SWAP1 POP SWAP2 SWAP1 POP JUMP JUMPDEST PUSH0 PUSH2 0x1AD2 DUP3 PUSH2 0x1AA0 JUMP JUMPDEST PUSH2 0x1ADC DUP2 DUP6 PUSH2 0x1A28 JUMP JUMPDEST SWAP4 POP PUSH2 0x1AEC DUP2 DUP6 PUSH1 0x20 DUP7 ADD PUSH2 0x1AAA JUMP JUMPDEST PUSH2 0x1AF5 DUP2 PUSH2 0x1AB8 JUMP JUMPDEST DUP5 ADD SWAP2 POP POP SWAP3 SWAP2 POP POP JUMP JUMPDEST PUSH0 PUSH1 0x20 DUP3 ADD SWAP1 POP DUP2 DUP2 SUB PUSH0 DUP4 ADD MSTORE PUSH2 0x1B18 DUP2 DUP5 PUSH2 0x1AC8 JUMP JUMPDEST SWAP1 POP SWAP3 SWAP2 POP POP JUMP JUMPDEST PUSH0 PUSH1 0x40 MLOAD SWAP1 POP SWAP1 JUMP JUMPDEST PUSH0 PUSH0 REVERT JUMPDEST PUSH0 PUSH0 REVERT JUMPDEST PUSH0 PUSH20 0xFFFFFFFFFFFFFFFFFFFFFFFFFFFFFFFFFFFFFFFF DUP3 AND SWAP1 POP SWAP2 SWAP1 POP JUMP JUMPDEST PUSH0 PUSH2 0x1B5A DUP3 PUSH2 0x1B31 JUMP JUMPDEST SWAP1 POP SWAP2 SWAP1 POP JUMP JUMPDEST PUSH2 0x1B6A DUP2 PUSH2 0x1B50 JUMP JUMPDEST DUP2 EQ PUSH2 0x1B74 JUMPI PUSH0 PUSH0 REVERT JUMPDEST POP JUMP JUMPDEST PUSH0 DUP2 CALLDATALOAD SWAP1 POP PUSH2 0x1B85 DUP2 PUSH2 0x1B61 JUMP JUMPDEST SWAP3 SWAP2 POP POP JUMP JUMPDEST PUSH0 DUP2 SWAP1 POP SWAP2 SWAP1 POP JUMP JUMPDEST PUSH2 0x1B9D DUP2 PUSH2 0x1B8B JUMP JUMPDEST DUP2 EQ PUSH2 0x1BA7 JUMPI PUSH0 PUSH0 REVERT JUMPDEST POP JUMP JUMPDEST PUSH0 DUP2 CALLDATALOAD SWAP1 POP PUSH2 0x1BB8 DUP2 PUSH2 0x1B94 JUMP JUMPDEST SWAP3 SWAP2 POP POP JUMP JUMPDEST PUSH0 PUSH0 PUSH1 0x40 DUP4 DUP6 SUB SLT ISZERO PUSH2 0x1BD4 JUMPI PUSH2 0x1BD3 PUSH2 0x1B29 JUMP JUMPDEST JUMPDEST PUSH0 PUSH2 0x1BE1 DUP6 DUP3 DUP7 ADD PUSH2 0x1B77 JUMP JUMPDEST SWAP3 POP POP PUSH1 0x20 PUSH2 0x1BF2 DUP6 DUP3 DUP7 ADD PUSH2 0x1BAA JUMP JUMPDEST SWAP2 POP POP SWAP3 POP SWAP3 SWAP1 POP JUMP JUMPDEST PUSH0 DUP2 ISZERO ISZERO SWAP1 POP SWAP2 SWAP1 POP JUMP JUMPDEST PUSH2 0x1C10 DUP2 PUSH2 0x1BFC JUMP JUMPDEST DUP3 MSTORE POP POP JUMP JUMPDEST PUSH0 PUSH1 0x20 DUP3 ADD SWAP1 POP PUSH2 0x1C29 PUSH0 DUP4 ADD DUP5 PUSH2 0x1C07 JUMP JUMPDEST SWAP3 SWAP2 POP POP JUMP JUMPDEST PUSH0 PUSH0 PUSH1 0x40 DUP4 DUP6 SUB SLT ISZERO PUSH2 0x1C45 JUMPI PUSH2 0x1C44 PUSH2 0x1B29 JUMP JUMPDEST JUMPDEST PUSH0 PUSH2 0x1C52 DUP6 DUP3 DUP7 ADD PUSH2 0x1B77 JUMP JUMPDEST SWAP3 POP POP PUSH1 0x20 PUSH2 0x1C63 DUP6 DUP3 DUP7 ADD PUSH2 0x1B77 JUMP JUMPDEST SWAP2 POP POP SWAP3 POP SWAP3 SWAP1 POP JUMP JUMPDEST PUSH2 0x1C76 DUP2 PUSH2 0x1B8B JUMP JUMPDEST DUP3 MSTORE POP POP JUMP JUMPDEST PUSH0 PUSH1 0x20 DUP3 ADD SWAP1 POP PUSH2 0x1C8F PUSH0 DUP4 ADD DUP5 PUSH2 0x1C6D JUMP JUMPDEST SWAP3 SWAP2 POP POP JUMP JUMPDEST PUSH0 PUSH0 PUSH0 PUSH1 0x60 DUP5 DUP7 SUB SLT ISZERO PUSH2 0x1CAC JUMPI PUSH2 0x1CAB PUSH2 0x1B29 JUMP JUMPDEST JUMPDEST PUSH0 PUSH2 0x1CB9 DUP7 DUP3 DUP8 ADD PUSH2 0x1B77 JUMP JUMPDEST SWAP4 POP POP PUSH1 0x20 PUSH2 0x1CCA DUP7 DUP3 DUP8 ADD PUSH2 0x1B77 JUMP JUMPDEST SWAP3 POP POP PUSH1 0x40 PUSH2 0x1CDB DUP7 DUP3 DUP8 ADD PUSH2 0x1BAA JUMP JUMPDEST SWAP2 POP POP SWAP3 POP SWAP3 POP SWAP3 JUMP JUMPDEST PUSH0 PUSH1 0xFF DUP3 AND SWAP1 POP SWAP2 SWAP1 POP JUMP JUMPDEST PUSH2 0x1CFA DUP2 PUSH2 0x1CE5 JUMP JUMPDEST DUP3 MSTORE POP POP JUMP JUMPDEST PUSH0 PUSH1 0x20 DUP3 ADD SWAP1 POP PUSH2 0x1D13 PUSH0 DUP4 ADD DUP5 PUSH2 0x1CF1 JUMP JUMPDEST SWAP3 SWAP2 POP POP JUMP JUMPDEST PUSH0 PUSH1 0x20 DUP3 DUP5 SUB SLT ISZERO PUSH2 0x1D2E JUMPI PUSH2 0x1D2D PUSH2 0x1B29 JUMP JUMPDEST JUMPDEST PUSH0 PUSH2 0x1D3B DUP5 DUP3 DUP6 ADD PUSH2 0x1B77 JUMP JUMPDEST SWAP2 POP POP SWAP3 SWAP2 POP POP JUMP JUMPDEST PUSH0 PUSH1 0x40 DUP3 ADD SWAP1 POP PUSH2 0x1D57 PUSH0 DUP4 ADD DUP6 PUSH2 0x1C6D JUMP JUMPDEST PUSH2 0x1D64 PUSH1 0x20 DUP4 ADD DUP5 PUSH2 0x1C6D JUMP JUMPDEST SWAP4 SWAP3 POP POP POP JUMP JUMPDEST PUSH2 0x1D74 DUP2 PUSH2 0x1B50 JUMP JUMPDEST DUP3 MSTORE POP POP JUMP JUMPDEST PUSH0 PUSH1 0x20 DUP3 ADD SWAP1 POP PUSH2 0x1D8D PUSH0 DUP4 ADD DUP5 PUSH2 0x1D6B JUMP JUMPDEST SWAP3 SWAP2 POP POP JUMP JUMPDEST PUSH32 0x436F6E7472616374206973207061757365640000000000000000000000000000 PUSH0 DUP3 ADD MSTORE POP JUMP JUMPDEST PUSH0 PUSH2 0x1DC7 PUSH1 0x12 DUP4 PUSH2 0x1A28 JUMP JUMPDEST SWAP2 POP PUSH2 0x1DD2 DUP3 PUSH2 0x1D93 JUMP JUMPDEST PUSH1 0x20 DUP3 ADD SWAP1 POP SWAP2 SWAP1 POP JUMP JUMPDEST PUSH0 PUSH1 0x20 DUP3 ADD SWAP1 POP DUP2 DUP2 SUB PUSH0 DUP4 ADD MSTORE PUSH2 0x1DF4 DUP2 PUSH2 0x1DBB JUMP JUMPDEST SWAP1 POP SWAP2 SWAP1 POP JUMP JUMPDEST PUSH32 0x436F6E7472616374207065726D616E656E746C79207465726D696E6174656400 PUSH0 DUP3 ADD MSTORE POP JUMP JUMPDEST PUSH0 PUSH2 0x1E2F PUSH1 0x1F DUP4 PUSH2 0x1A28 JUMP JUMPDEST SWAP2 POP PUSH2 0x1E3A DUP3 PUSH2 0x1DFB JUMP JUMPDEST PUSH1 0x20 DUP3 ADD SWAP1 POP SWAP2 SWAP1 POP JUMP JUMPDEST PUSH0 PUSH1 0x20 DUP3 ADD SWAP1 POP DUP2 DUP2 SUB PUSH0 DUP4 ADD MSTORE PUSH2 0x1E5C DUP2 PUSH2 0x1E23 JUMP JUMPDEST SWAP1 POP SWAP2 SWAP1 POP JUMP JUMPDEST PUSH32 0x417070726F766520746F20746865207A65726F20616464726573730000000000 PUSH0 DUP3 ADD MSTORE POP JUMP JUMPDEST PUSH0 PUSH2 0x1E97 PUSH1 0x1B DUP4 PUSH2 0x1A28 JUMP JUMPDEST SWAP2 POP PUSH2 0x1EA2 DUP3 PUSH2 0x1E63 JUMP JUMPDEST PUSH1 0x20 DUP3 ADD SWAP1 POP SWAP2 SWAP1 POP JUMP JUMPDEST PUSH0 PUSH1 0x20 DUP3 ADD SWAP1 POP DUP2 DUP2 SUB PUSH0 DUP4 ADD MSTORE PUSH2 0x1EC4 DUP2 PUSH2 0x1E8B JUMP JUMPDEST SWAP1 POP SWAP2 SWAP1 POP JUMP JUMPDEST PUSH32 0x416D6F756E74206D7573742062652067726561746572207468616E207A65726F PUSH0 DUP3 ADD MSTORE POP JUMP JUMPDEST PUSH0 PUSH2 0x1EFF PUSH1 0x20 DUP4 PUSH2 0x1A28 JUMP JUMPDEST SWAP2 POP PUSH2 0x1F0A DUP3 PUSH2 0x1ECB JUMP JUMPDEST PUSH1 0x20 DUP3 ADD SWAP1 POP SWAP2 SWAP1 POP JUMP JUMPDEST PUSH0 PUSH1 0x20 DUP3 ADD SWAP1 POP DUP2 DUP2 SUB PUSH0 DUP4 ADD MSTORE PUSH2 0x1F2C DUP2 PUSH2 0x1EF3 JUMP JUMPDEST SWAP1 POP SWAP2 SWAP1 POP JUMP JUMPDEST PUSH32 0x4F6E6C79206F776E65722063616E2063616C6C20746869732066756E6374696F PUSH0 DUP3 ADD MSTORE PUSH32 0x6E00000000000000000000000000000000000000000000000000000000000000 PUSH1 0x20 DUP3 ADD MSTORE POP JUMP JUMPDEST PUSH0 PUSH2 0x1F8D PUSH1 0x21 DUP4 PUSH2 0x1A28 JUMP JUMPDEST SWAP2 POP PUSH2 0x1F98 DUP3 PUSH2 0x1F33 JUMP JUMPDEST PUSH1 0x40 DUP3 ADD SWAP1 POP SWAP2 SWAP1 POP JUMP JUMPDEST PUSH0 PUSH1 0x20 DUP3 ADD SWAP1 POP DUP2 DUP2 SUB PUSH0 DUP4 ADD MSTORE PUSH2 0x1FBA DUP2 PUSH2 0x1F81 JUMP JUMPDEST SWAP1 POP SWAP2 SWAP1 POP JUMP JUMPDEST PUSH0 PUSH1 0x40 DUP3 ADD SWAP1 POP PUSH2 0x1FD4 PUSH0 DUP4 ADD DUP6 PUSH2 0x1D6B JUMP JUMPDEST PUSH2 0x1FE1 PUSH1 0x20 DUP4 ADD DUP5 PUSH2 0x1D6B JUMP JUMPDEST SWAP4 SWAP3 POP POP POP JUMP JUMPDEST PUSH0 DUP2 MLOAD SWAP1 POP PUSH2 0x1FF6 DUP2 PUSH2 0x1B94 JUMP JUMPDEST SWAP3 SWAP2 POP POP JUMP JUMPDEST PUSH0 PUSH1 0x20 DUP3 DUP5 SUB SLT ISZERO PUSH2 0x2011 JUMPI PUSH2 0x2010 PUSH2 0x1B29 JUMP JUMPDEST JUMPDEST PUSH0 PUSH2 0x201E DUP5 DUP3 DUP6 ADD PUSH2 0x1FE8 JUMP JUMPDEST SWAP2 POP POP SWAP3 SWAP2 POP POP JUMP JUMPDEST PUSH32 0x4E487B7100000000000000000000000000000000000000000000000000000000 PUSH0 MSTORE PUSH1 0x11 PUSH1 0x4 MSTORE PUSH1 0x24 PUSH0 REVERT JUMPDEST PUSH0 DUP2 PUSH1 0x1 SHR SWAP1 POP SWAP2 SWAP1 POP JUMP JUMPDEST PUSH0 PUSH0 DUP3 SWAP2 POP DUP4 SWAP1 POP JUMPDEST PUSH1 0x1 DUP6 GT ISZERO PUSH2 0x20A9 JUMPI DUP1 DUP7 DIV DUP2 GT ISZERO PUSH2 0x2085 JUMPI PUSH2 0x2084 PUSH2 0x2027 JUMP JUMPDEST JUMPDEST PUSH1 0x1 DUP6 AND ISZERO PUSH2 0x2094 JUMPI DUP1 DUP3 MUL SWAP2 POP JUMPDEST DUP1 DUP2 MUL SWAP1 POP PUSH2 0x20A2 DUP6 PUSH2 0x2054 JUMP JUMPDEST SWAP5 POP PUSH2 0x2069 JUMP JUMPDEST SWAP5 POP SWAP5 SWAP3 POP POP POP JUMP JUMPDEST PUSH0 DUP3 PUSH2 0x20C1 JUMPI PUSH1 0x1 SWAP1 POP PUSH2 0x217C JUMP JUMPDEST DUP2 PUSH2 0x20CE JUMPI PUSH0 SWAP1 POP PUSH2 0x217C JUMP JUMPDEST DUP2 PUSH1 0x1 DUP2 EQ PUSH2 0x20E4 JUMPI PUSH1 0x2 DUP2 EQ PUSH2 0x20EE JUMPI PUSH2 0x211D JUMP JUMPDEST PUSH1 0x1 SWAP2 POP POP PUSH2 0x217C JUMP JUMPDEST PUSH1 0xFF DUP5 GT ISZERO PUSH2 0x2100 JUMPI PUSH2 0x20FF PUSH2 0x2027 JUMP JUMPDEST JUMPDEST DUP4 PUSH1 0x2 EXP SWAP2 POP DUP5 DUP3 GT ISZERO PUSH2 0x2117 JUMPI PUSH2 0x2116 PUSH2 0x2027 JUMP JUMPDEST JUMPDEST POP PUSH2 0x217C JUMP JUMPDEST POP PUSH1 0x20 DUP4 LT PUSH2 0x133 DUP4 LT AND PUSH1 0x4E DUP5 LT PUSH1 0xB DUP5 LT AND OR ISZERO PUSH2 0x2152 JUMPI DUP3 DUP3 EXP SWAP1 POP DUP4 DUP2 GT ISZERO PUSH2 0x214D JUMPI PUSH2 0x214C PUSH2 0x2027 JUMP JUMPDEST JUMPDEST PUSH2 0x217C JUMP JUMPDEST PUSH2 0x215F DUP5 DUP5 DUP5 PUSH1 0x1 PUSH2 0x2060 JUMP JUMPDEST SWAP3 POP SWAP1 POP DUP2 DUP5 DIV DUP2 GT ISZERO PUSH2 0x2176 JUMPI PUSH2 0x2175 PUSH2 0x2027 JUMP JUMPDEST JUMPDEST DUP2 DUP2 MUL SWAP1 POP JUMPDEST SWAP4 SWAP3 POP POP POP JUMP JUMPDEST PUSH0 PUSH2 0x218D DUP3 PUSH2 0x1B8B JUMP JUMPDEST SWAP2 POP PUSH2 0x2198 DUP4 PUSH2 0x1B8B JUMP JUMPDEST SWAP3 POP PUSH2 0x21C5 PUSH32 0xFFFFFFFFFFFFFFFFFFFFFFFFFFFFFFFFFFFFFFFFFFFFFFFFFFFFFFFFFFFFFFFF DUP5 DUP5 PUSH2 0x20B2 JUMP JUMPDEST SWAP1 POP SWAP3 SWAP2 POP POP JUMP JUMPDEST PUSH0 PUSH2 0x21D7 DUP3 PUSH2 0x1B8B JUMP JUMPDEST SWAP2 POP PUSH2 0x21E2 DUP4 PUSH2 0x1B8B JUMP JUMPDEST SWAP3 POP DUP3 DUP3 MUL PUSH2 0x21F0 DUP2 PUSH2 0x1B8B JUMP JUMPDEST SWAP2 POP DUP3 DUP3 DIV DUP5 EQ DUP4 ISZERO OR PUSH2 0x2207 JUMPI PUSH2 0x2206 PUSH2 0x2027 JUMP JUMPDEST JUMPDEST POP SWAP3 SWAP2 POP POP JUMP JUMPDEST PUSH32 0x496E76616C696420616464726573730000000000000000000000000000000000 PUSH0 DUP3 ADD MSTORE POP JUMP JUMPDEST PUSH0 PUSH2 0x2242 PUSH1 0xF DUP4 PUSH2 0x1A28 JUMP JUMPDEST SWAP2 POP PUSH2 0x224D DUP3 PUSH2 0x220E JUMP JUMPDEST PUSH1 0x20 DUP3 ADD SWAP1 POP SWAP2 SWAP1 POP JUMP JUMPDEST PUSH0 PUSH1 0x20 DUP3 ADD SWAP1 POP DUP2 DUP2 SUB PUSH0 DUP4 ADD MSTORE PUSH2 0x226F DUP2 PUSH2 0x2236 JUMP JUMPDEST SWAP1 POP SWAP2 SWAP1 POP JUMP JUMPDEST PUSH32 0x496E73756666696369656E742062616C616E6365000000000000000000000000 PUSH0 DUP3 ADD MSTORE POP JUMP JUMPDEST PUSH0 PUSH2 0x22AA PUSH1 0x14 DUP4 PUSH2 0x1A28 JUMP JUMPDEST SWAP2 POP PUSH2 0x22B5 DUP3 PUSH2 0x2276 JUMP JUMPDEST PUSH1 0x20 DUP3 ADD SWAP1 POP SWAP2 SWAP1 POP JUMP JUMPDEST PUSH0 PUSH1 0x20 DUP3 ADD SWAP1 POP DUP2 DUP2 SUB PUSH0 DUP4 ADD MSTORE PUSH2 0x22D7 DUP2 PUSH2 0x229E JUMP JUMPDEST SWAP1 POP SWAP2 SWAP1 POP JUMP JUMPDEST PUSH32 0x416C6C6F77616E63652065786365656465640000000000000000000000000000 PUSH0 DUP3 ADD MSTORE POP JUMP JUMPDEST PUSH0 PUSH2 0x2312 PUSH1 0x12 DUP4 PUSH2 0x1A28 JUMP JUMPDEST SWAP2 POP PUSH2 0x231D DUP3 PUSH2 0x22DE JUMP JUMPDEST PUSH1 0x20 DUP3 ADD SWAP1 POP SWAP2 SWAP1 POP JUMP JUMPDEST PUSH0 PUSH1 0x20 DUP3 ADD SWAP1 POP DUP2 DUP2 SUB PUSH0 DUP4 ADD MSTORE PUSH2 0x233F DUP2 PUSH2 0x2306 JUMP JUMPDEST SWAP1 POP SWAP2 SWAP1 POP JUMP JUMPDEST PUSH0 PUSH2 0x2350 DUP3 PUSH2 0x1B8B JUMP JUMPDEST SWAP2 POP PUSH2 0x235B DUP4 PUSH2 0x1B8B JUMP JUMPDEST SWAP3 POP DUP3 DUP3 SUB SWAP1 POP DUP2 DUP2 GT ISZERO PUSH2 0x2373 JUMPI PUSH2 0x2372 PUSH2 0x2027 JUMP JUMPDEST JUMPDEST SWAP3 SWAP2 POP POP JUMP JUMPDEST PUSH0 PUSH2 0x2383 DUP3 PUSH2 0x1B8B JUMP JUMPDEST SWAP2 POP PUSH2 0x238E DUP4 PUSH2 0x1B8B JUMP JUMPDEST SWAP3 POP DUP3 DUP3 ADD SWAP1 POP DUP1 DUP3 GT ISZERO PUSH2 0x23A6 JUMPI PUSH2 0x23A5 PUSH2 0x2027 JUMP JUMPDEST JUMPDEST SWAP3 SWAP2 POP POP JUMP JUMPDEST PUSH0 PUSH0 REVERT JUMPDEST PUSH0 PUSH0 REVERT JUMPDEST PUSH32 0x4E487B7100000000000000000000000000000000000000000000000000000000 PUSH0 MSTORE PUSH1 0x41 PUSH1 0x4 MSTORE PUSH1 0x24 PUSH0 REVERT JUMPDEST PUSH2 0x23EA DUP3 PUSH2 0x1AB8 JUMP JUMPDEST DUP2 ADD DUP2 DUP2 LT PUSH8 0xFFFFFFFFFFFFFFFF DUP3 GT OR ISZERO PUSH2 0x2409 JUMPI PUSH2 0x2408 PUSH2 0x23B4 JUMP JUMPDEST JUMPDEST DUP1 PUSH1 0x40 MSTORE POP POP POP JUMP JUMPDEST PUSH0 PUSH2 0x241B PUSH2 0x1B20 JUMP JUMPDEST SWAP1 POP PUSH2 0x2427 DUP3 DUP3 PUSH2 0x23E1 JUMP JUMPDEST SWAP2 SWAP1 POP JUMP JUMPDEST PUSH0 PUSH8 0xFFFFFFFFFFFFFFFF DUP3 GT ISZERO PUSH2 0x2446 JUMPI PUSH2 0x2445 PUSH2 0x23B4 JUMP JUMPDEST JUMPDEST PUSH2 0x244F DUP3 PUSH2 0x1AB8 JUMP JUMPDEST SWAP1 POP PUSH1 0x20 DUP2 ADD SWAP1 POP SWAP2 SWAP1 POP JUMP JUMPDEST PUSH0 PUSH2 0x246E PUSH2 0x2469 DUP5 PUSH2 0x242C JUMP JUMPDEST PUSH2 0x2412 JUMP JUMPDEST SWAP1 POP DUP3 DUP2 MSTORE PUSH1 0x20 DUP2 ADD DUP5 DUP5 DUP5 ADD GT ISZERO PUSH2 0x248A JUMPI PUSH2 0x2489 PUSH2 0x23B0 JUMP JUMPDEST JUMPDEST PUSH2 0x2495 DUP5 DUP3 DUP6 PUSH2 0x1AAA JUMP JUMPDEST POP SWAP4 SWAP3 POP POP POP JUMP JUMPDEST PUSH0 DUP3 PUSH1 0x1F DUP4 ADD SLT PUSH2 0x24B1 JUMPI PUSH2 0x24B0 PUSH2 0x23AC JUMP JUMPDEST JUMPDEST DUP2 MLOAD PUSH2 0x24C1 DUP5 DUP3 PUSH1 0x20 DUP7 ADD PUSH2 0x245C JUMP JUMPDEST SWAP2 POP POP SWAP3 SWAP2 POP POP JUMP JUMPDEST PUSH0 PUSH1 0x20 DUP3 DUP5 SUB SLT ISZERO PUSH2 0x24DF JUMPI PUSH2 0x24DE PUSH2 0x1B29 JUMP JUMPDEST JUMPDEST PUSH0 DUP3 ADD MLOAD PUSH8 0xFFFFFFFFFFFFFFFF DUP2 GT ISZERO PUSH2 0x24FC JUMPI PUSH2 0x24FB PUSH2 0x1B2D JUMP JUMPDEST JUMPDEST PUSH2 0x2508 DUP5 DUP3 DUP6 ADD PUSH2 0x249D JUMP JUMPDEST SWAP2 POP POP SWAP3 SWAP2 POP POP JUMP JUMPDEST PUSH32 0x4E487B7100000000000000000000000000000000000000000000000000000000 PUSH0 MSTORE PUSH1 0x22 PUSH1 0x4 MSTORE PUSH1 0x24 PUSH0 REVERT JUMPDEST PUSH0 PUSH1 0x2 DUP3 DIV SWAP1 POP PUSH1 0x1 DUP3 AND DUP1 PUSH2 0x2555 JUMPI PUSH1 0x7F DUP3 AND SWAP2 POP JUMPDEST PUSH1 0x20 DUP3 LT DUP2 SUB PUSH2 0x2568 JUMPI PUSH2 0x2567 PUSH2 0x2511 JUMP JUMPDEST JUMPDEST POP SWAP2 SWAP1 POP JUMP JUMPDEST PUSH32 0x5472616E7366657220746F20746865207A65726F206164647265737300000000 PUSH0 DUP3 ADD MSTORE POP JUMP JUMPDEST PUSH0 PUSH2 0x25A2 PUSH1 0x1C DUP4 PUSH2 0x1A28 JUMP JUMPDEST SWAP2 POP PUSH2 0x25AD DUP3 PUSH2 0x256E JUMP JUMPDEST PUSH1 0x20 DUP3 ADD SWAP1 POP SWAP2 SWAP1 POP JUMP JUMPDEST PUSH0 PUSH1 0x20 DUP3 ADD SWAP1 POP DUP2 DUP2 SUB PUSH0 DUP4 ADD MSTORE PUSH2 0x25CF DUP2 PUSH2 0x2596 JUMP JUMPDEST SWAP1 POP SWAP2 SWAP1 POP JUMP JUMPDEST PUSH32 0x4E6577206F776E657220697320746865207A65726F2061646472657373000000 PUSH0 DUP3 ADD MSTORE POP JUMP JUMPDEST PUSH0 PUSH2 0x260A PUSH1 0x1D DUP4 PUSH2 0x1A28 JUMP JUMPDEST SWAP2 POP PUSH2 0x2615 DUP3 PUSH2 0x25D6 JUMP JUMPDEST PUSH1 0x20 DUP3 ADD SWAP1 POP SWAP2 SWAP1 POP JUMP JUMPDEST PUSH0 PUSH1 0x20 DUP3 ADD SWAP1 POP DUP2 DUP2 SUB PUSH0 DUP4 ADD MSTORE PUSH2 0x2637 DUP2 PUSH2 0x25FE JUMP JUMPDEST SWAP1 POP SWAP2 SWAP1 POP JUMP INVALID LOG2 PUSH5 0x6970667358 0x22 SLT KECCAK256 PUSH7 0x4CF17498E57A9B NUMBER 0xDA 0xE8 MOD 0x4B 0xB6 XOR BASEFEE SMOD 0x4C 0xC9 CALLDATASIZE KECCAK256 MULMOD LOG0 CALLCODE 0xBB 0x28 PUSH18 0x44F8201AE864736F6C634300081E00330000 "
				},
				"gasEstimates": {
					"creation": {
						"codeDepositCost": "1968800",
						"executionCost": "infinite",
						"totalCost": "infinite"
					},
					"external": {
						"allowance(address,address)": "infinite",
						"approve(address,uint256)": "infinite",
						"balanceOf(address)": "2918",
						"contractOwner()": "2596",
						"decimals()": "442",
						"getBalances(address)": "infinite",
						"getOriginalAllowance(address,address)": "infinite",
						"getOriginalBalance(address)": "infinite",
						"getOriginalName()": "infinite",
						"getOriginalSymbol()": "infinite",
						"getOriginalTotalSupply()": "infinite",
						"logoURI()": "infinite",
						"name()": "infinite",
						"pause()": "27900",
						"paused()": "2540",
						"symbol()": "infinite",
						"terminate()": "27857",
						"terminated()": "2540",
						"totalSupply()": "infinite",
						"transfer(address,uint256)": "infinite",
						"transferFrom(address,address,uint256)": "infinite",
						"transferOwnership(address)": "30730",
						"unpause()": "27921"
					}
				},
				"methodIdentifiers": {
					"allowance(address,address)": "dd62ed3e",
					"approve(address,uint256)": "095ea7b3",
					"balanceOf(address)": "70a08231",
					"contractOwner()": "ce606ee0",
					"decimals()": "313ce567",
					"getBalances(address)": "c84aae17",
					"getOriginalAllowance(address,address)": "12b659bb",
					"getOriginalBalance(address)": "5f1e015a",
					"getOriginalName()": "2513793f",
					"getOriginalSymbol()": "a3673981",
					"getOriginalTotalSupply()": "1a50fac4",
					"logoURI()": "6bb38b28",
					"name()": "06fdde03",
					"pause()": "8456cb59",
					"paused()": "5c975abb",
					"symbol()": "95d89b41",
					"terminate()": "0c08bf88",
					"terminated()": "194307bf",
					"totalSupply()": "18160ddd",
					"transfer(address,uint256)": "a9059cbb",
					"transferFrom(address,address,uint256)": "23b872dd",
					"transferOwnership(address)": "f2fde38b",
					"unpause()": "3f4ba83a"
				}
			},
			"storageLayout": {
				"storage": [
					{
						"astId": 81,
						"contract": "YK Prime.sol:YK",
						"label": "logoURI",
						"offset": 0,
						"slot": "0",
						"type": "t_string_storage"
					},
					{
						"astId": 83,
						"contract": "YK Prime.sol:YK",
						"label": "contractOwner",
						"offset": 0,
						"slot": "1",
						"type": "t_address"
					},
					{
						"astId": 85,
						"contract": "YK Prime.sol:YK",
						"label": "paused",
						"offset": 20,
						"slot": "1",
						"type": "t_bool"
					},
					{
						"astId": 87,
						"contract": "YK Prime.sol:YK",
						"label": "terminated",
						"offset": 21,
						"slot": "1",
						"type": "t_bool"
					},
					{
						"astId": 91,
						"contract": "YK Prime.sol:YK",
						"label": "_balances",
						"offset": 0,
						"slot": "2",
						"type": "t_mapping(t_address,t_uint256)"
					},
					{
						"astId": 97,
						"contract": "YK Prime.sol:YK",
						"label": "_allowances",
						"offset": 0,
						"slot": "3",
						"type": "t_mapping(t_address,t_mapping(t_address,t_uint256))"
					},
					{
						"astId": 103,
						"contract": "YK Prime.sol:YK",
						"label": "btcbrOriginal",
						"offset": 0,
						"slot": "4",
						"type": "t_contract(IBTCBROriginal)59"
					}
				],
				"types": {
					"t_address": {
						"encoding": "inplace",
						"label": "address",
						"numberOfBytes": "20"
					},
					"t_bool": {
						"encoding": "inplace",
						"label": "bool",
						"numberOfBytes": "1"
					},
					"t_contract(IBTCBROriginal)59": {
						"encoding": "inplace",
						"label": "contract IBTCBROriginal",
						"numberOfBytes": "20"
					},
					"t_mapping(t_address,t_mapping(t_address,t_uint256))": {
						"encoding": "mapping",
						"key": "t_address",
						"label": "mapping(address => mapping(address => uint256))",
						"numberOfBytes": "32",
						"value": "t_mapping(t_address,t_uint256)"
					},
					"t_mapping(t_address,t_uint256)": {
						"encoding": "mapping",
						"key": "t_address",
						"label": "mapping(address => uint256)",
						"numberOfBytes": "32",
						"value": "t_uint256"
					},
					"t_string_storage": {
						"encoding": "bytes",
						"label": "string",
						"numberOfBytes": "32"
					},
					"t_uint256": {
						"encoding": "inplace",
						"label": "uint256",
						"numberOfBytes": "32"
					}
				}
			},
			"userdoc": {
				"kind": "user",
				"methods": {},
				"version": 1
			}
		}
	}
}