{
	"SCafe.sol": {
		"SCCAFE": {
			"abi": [
				{
					"inputs": [],
					"stateMutability": "nonpayable",
					"type": "constructor"
				},
				{
					"anonymous": false,
					"inputs": [
						{
							"indexed": true,
							"internalType": "address",
							"name": "owner",
							"type": "address"
						},
						{
							"indexed": true,
							"internalType": "address",
							"name": "spender",
							"type": "address"
						},
						{
							"indexed": false,
							"internalType": "uint256",
							"name": "value",
							"type": "uint256"
						}
					],
					"name": "Approval",
					"type": "event"
				},
				{
					"anonymous": false,
					"inputs": [
						{
							"indexed": true,
							"internalType": "address",
							"name": "account",
							"type": "address"
						},
						{
							"indexed": false,
							"internalType": "uint256",
							"name": "balance",
							"type": "uint256"
						}
					],
					"name": "OriginalBalanceChecked",
					"type": "event"
				},
				{
					"anonymous": false,
					"inputs": [
						{
							"indexed": true,
							"internalType": "address",
							"name": "previousOwner",
							"type": "address"
						},
						{
							"indexed": true,
							"internalType": "address",
							"name": "newOwner",
							"type": "address"
						}
					],
					"name": "OwnershipTransferred",
					"type": "event"
				},
				{
					"anonymous": false,
					"inputs": [
						{
							"indexed": true,
							"internalType": "address",
							"name": "account",
							"type": "address"
						}
					],
					"name": "Paused",
					"type": "event"
				},
				{
					"anonymous": false,
					"inputs": [
						{
							"indexed": false,
							"internalType": "string",
							"name": "logoURI",
							"type": "string"
						}
					],
					"name": "SettingsUpdated",
					"type": "event"
				},
				{
					"anonymous": false,
					"inputs": [
						{
							"indexed": true,
							"internalType": "address",
							"name": "account",
							"type": "address"
						}
					],
					"name": "Terminated",
					"type": "event"
				},
				{
					"anonymous": false,
					"inputs": [
						{
							"indexed": true,
							"internalType": "address",
							"name": "from",
							"type": "address"
						},
						{
							"indexed": true,
							"internalType": "address",
							"name": "to",
							"type": "address"
						},
						{
							"indexed": false,
							"internalType": "uint256",
							"name": "value",
							"type": "uint256"
						}
					],
					"name": "Transfer",
					"type": "event"
				},
				{
					"anonymous": false,
					"inputs": [
						{
							"indexed": true,
							"internalType": "address",
							"name": "account",
							"type": "address"
						}
					],
					"name": "Unpaused",
					"type": "event"
				},
				{
					"inputs": [
						{
							"internalType": "address",
							"name": "owner",
							"type": "address"
						},
						{
							"internalType": "address",
							"name": "spender",
							"type": "address"
						}
					],
					"name": "allowance",
					"outputs": [
						{
							"internalType": "uint256",
							"name": "",
							"type": "uint256"
						}
					],
					"stateMutability": "view",
					"type": "function"
				},
				{
					"inputs": [
						{
							"internalType": "address",
							"name": "spender",
							"type": "address"
						},
						{
							"internalType": "uint256",
							"name": "amount",
							"type": "uint256"
						}
					],
					"name": "approve",
					"outputs": [
						{
							"internalType": "bool",
							"name": "",
							"type": "bool"
						}
					],
					"stateMutability": "nonpayable",
					"type": "function"
				},
				{
					"inputs": [
						{
							"internalType": "address",
							"name": "account",
							"type": "address"
						}
					],
					"name": "balanceOf",
					"outputs": [
						{
							"internalType": "uint256",
							"name": "",
							"type": "uint256"
						}
					],
					"stateMutability": "view",
					"type": "function"
				},
				{
					"inputs": [],
					"name": "contractOwner",
					"outputs": [
						{
							"internalType": "address",
							"name": "",
							"type": "address"
						}
					],
					"stateMutability": "view",
					"type": "function"
				},
				{
					"inputs": [],
					"name": "decimals",
					"outputs": [
						{
							"internalType": "uint8",
							"name": "",
							"type": "uint8"
						}
					],
					"stateMutability": "view",
					"type": "function"
				},
				{
					"inputs": [
						{
							"internalType": "address",
							"name": "account",
							"type": "address"
						}
					],
					"name": "getOriginalBalance",
					"outputs": [
						{
							"internalType": "uint256",
							"name": "",
							"type": "uint256"
						}
					],
					"stateMutability": "nonpayable",
					"type": "function"
				},
				{
					"inputs": [],
					"name": "getOriginalName",
					"outputs": [
						{
							"internalType": "string",
							"name": "",
							"type": "string"
						}
					],
					"stateMutability": "view",
					"type": "function"
				},
				{
					"inputs": [],
					"name": "getOriginalSymbol",
					"outputs": [
						{
							"internalType": "string",
							"name": "",
							"type": "string"
						}
					],
					"stateMutability": "view",
					"type": "function"
				},
				{
					"inputs": [],
					"name": "getOriginalTotalSupply",
					"outputs": [
						{
							"internalType": "uint256",
							"name": "",
							"type": "uint256"
						}
					],
					"stateMutability": "view",
					"type": "function"
				},
				{
					"inputs": [],
					"name": "lockUpdates",
					"outputs": [],
					"stateMutability": "nonpayable",
					"type": "function"
				},
				{
					"inputs": [],
					"name": "lockedForUpdate",
					"outputs": [
						{
							"internalType": "bool",
							"name": "",
							"type": "bool"
						}
					],
					"stateMutability": "view",
					"type": "function"
				},
				{
					"inputs": [],
					"name": "logoURI",
					"outputs": [
						{
							"internalType": "string",
							"name": "",
							"type": "string"
						}
					],
					"stateMutability": "view",
					"type": "function"
				},
				{
					"inputs": [],
					"name": "name",
					"outputs": [
						{
							"internalType": "string",
							"name": "",
							"type": "string"
						}
					],
					"stateMutability": "view",
					"type": "function"
				},
				{
					"inputs": [],
					"name": "pause",
					"outputs": [],
					"stateMutability": "nonpayable",
					"type": "function"
				},
				{
					"inputs": [],
					"name": "paused",
					"outputs": [
						{
							"internalType": "bool",
							"name": "",
							"type": "bool"
						}
					],
					"stateMutability": "view",
					"type": "function"
				},
				{
					"inputs": [],
					"name": "symbol",
					"outputs": [
						{
							"internalType": "string",
							"name": "",
							"type": "string"
						}
					],
					"stateMutability": "view",
					"type": "function"
				},
				{
					"inputs": [],
					"name": "terminate",
					"outputs": [],
					"stateMutability": "nonpayable",
					"type": "function"
				},
				{
					"inputs": [],
					"name": "terminated",
					"outputs": [
						{
							"internalType": "bool",
							"name": "",
							"type": "bool"
						}
					],
					"stateMutability": "view",
					"type": "function"
				},
				{
					"inputs": [],
					"name": "totalSupply",
					"outputs": [
						{
							"internalType": "uint256",
							"name": "",
							"type": "uint256"
						}
					],
					"stateMutability": "view",
					"type": "function"
				},
				{
					"inputs": [
						{
							"internalType": "address",
							"name": "recipient",
							"type": "address"
						},
						{
							"internalType": "uint256",
							"name": "amount",
							"type": "uint256"
						}
					],
					"name": "transfer",
					"outputs": [
						{
							"internalType": "bool",
							"name": "",
							"type": "bool"
						}
					],
					"stateMutability": "nonpayable",
					"type": "function"
				},
				{
					"inputs": [
						{
							"internalType": "address",
							"name": "sender",
							"type": "address"
						},
						{
							"internalType": "address",
							"name": "recipient",
							"type": "address"
						},
						{
							"internalType": "uint256",
							"name": "amount",
							"type": "uint256"
						}
					],
					"name": "transferFrom",
					"outputs": [
						{
							"internalType": "bool",
							"name": "",
							"type": "bool"
						}
					],
					"stateMutability": "nonpayable",
					"type": "function"
				},
				{
					"inputs": [
						{
							"internalType": "address",
							"name": "newOwner",
							"type": "address"
						}
					],
					"name": "transferOwnership",
					"outputs": [],
					"stateMutability": "nonpayable",
					"type": "function"
				},
				{
					"inputs": [],
					"name": "unpause",
					"outputs": [],
					"stateMutability": "nonpayable",
					"type": "function"
				},
				{
					"inputs": [
						{
							"internalType": "string",
							"name": "newLogoURI",
							"type": "string"
						}
					],
					"name": "updateSettings",
					"outputs": [],
					"stateMutability": "nonpayable",
					"type": "function"
				},
				{
					"stateMutability": "payable",
					"type": "receive"
				}
			],
			"devdoc": {
				"kind": "dev",
				"methods": {},
				"version": 1
			},
			"evm": {
				"assembly": "    /* \"SCafe.sol\":1025:6376  contract SCCAFE {... */\n  mstore(0x40, 0x80)\n    /* \"SCafe.sol\":1099:1109  TOKEN_NAME */\n  mload(0x40)\n  dup1\n  0x40\n  add\n  0x40\n  mstore\n  dup1\n  0x13\n  dup2\n  mstore\n  0x20\n  add\n  0x536d61727420436f6e7472616374204361666500000000000000000000000000\n  dup2\n  mstore\n  pop\n    /* \"SCafe.sol\":1078:1109  string public name = TOKEN_NAME */\n  0x00\n  swap1\n  dup2\n  tag_1\n  swap2\n  swap1\n  tag_2\n  jump\t// in\ntag_1:\n  pop\n    /* \"SCafe.sol\":1139:1151  TOKEN_SYMBOL */\n  mload(0x40)\n  dup1\n  0x40\n  add\n  0x40\n  mstore\n  dup1\n  0x06\n  dup2\n  mstore\n  0x20\n  add\n  0x5343434146450000000000000000000000000000000000000000000000000000\n  dup2\n  mstore\n  pop\n    /* \"SCafe.sol\":1116:1151  string public symbol = TOKEN_SYMBOL */\n  0x01\n  swap1\n  dup2\n  tag_3\n  swap2\n  swap1\n  tag_2\n  jump\t// in\ntag_3:\n  pop\n    /* \"SCafe.sol\":289:290  8 */\n  0x08\n    /* \"SCafe.sol\":1158:1196  uint8 public decimals = TOKEN_DECIMALS */\n  0x02\n  exp(0x0100, 0x00)\n  dup2\n  sload\n  dup2\n  0xff\n  mul\n  not\n  and\n  swap1\n  dup4\n  0xff\n  and\n  mul\n  or\n  swap1\n  sstore\n  pop\n    /* \"SCafe.sol\":1262:1270  decimals */\n  0x02\n  0x00\n  swap1\n  sload\n  swap1\n  0x0100\n  exp\n  swap1\n  div\n  0xff\n  and\n    /* \"SCafe.sol\":1254:1271  uint256(decimals) */\n  0xff\n  and\n    /* \"SCafe.sol\":1248:1250  10 */\n  0x0a\n    /* \"SCafe.sol\":1248:1271  10 ** uint256(decimals) */\n  tag_4\n  swap2\n  swap1\n  tag_5\n  jump\t// in\ntag_4:\n    /* \"SCafe.sol\":325:354  29000000000000000000000000000 */\n  0x5db43cde1a9e86e648000000\n    /* \"SCafe.sol\":1232:1272  TOKEN_SUPPLY * (10 ** uint256(decimals)) */\n  tag_6\n  swap2\n  swap1\n  tag_7\n  jump\t// in\ntag_6:\n    /* \"SCafe.sol\":1203:1272  uint256 public totalSupply = TOKEN_SUPPLY * (10 ** uint256(decimals)) */\n  0x03\n  sstore\n    /* \"SCafe.sol\":1303:1317  TOKEN_LOGO_URI */\n  mload(0x40)\n  dup1\n  0x20\n  add\n  0x40\n  mstore\n  dup1\n  0x00\n  dup2\n  mstore\n  pop\n    /* \"SCafe.sol\":1279:1317  string public logoURI = TOKEN_LOGO_URI */\n  0x04\n  swap1\n  dup2\n  tag_8\n  swap2\n  swap1\n  tag_2\n  jump\t// in\ntag_8:\n  pop\n    /* \"SCafe.sol\":388:430  0x0b81337F18767565D2eA40913799317A25DC4bc5 */\n  0x0b81337f18767565d2ea40913799317a25dc4bc5\n    /* \"SCafe.sol\":1326:1368  address public contractOwner = TOKEN_OWNER */\n  0x05\n  exp(0x0100, 0x00)\n  dup2\n  sload\n  dup2\n  0xffffffffffffffffffffffffffffffffffffffff\n  mul\n  not\n  and\n  swap1\n  dup4\n  0xffffffffffffffffffffffffffffffffffffffff\n  and\n  mul\n  or\n  swap1\n  sstore\n  pop\n    /* \"SCafe.sol\":505:547  0x80c09daC9dC95669B03C2d82967Af62e93d0Fe84 */\n  0x80c09dac9dc95669b03c2d82967af62e93d0fe84\n    /* \"SCafe.sol\":1633:1702  IBTCBROriginal private btcbrOriginal = IBTCBROriginal(BTCBR_ORIGINAL) */\n  0x08\n  exp(0x0100, 0x00)\n  dup2\n  sload\n  dup2\n  0xffffffffffffffffffffffffffffffffffffffff\n  mul\n  not\n  and\n  swap1\n  dup4\n  0xffffffffffffffffffffffffffffffffffffffff\n  and\n  mul\n  or\n  swap1\n  sstore\n  pop\n    /* \"SCafe.sol\":2749:2886  constructor() {... */\n  callvalue\n  dup1\n  iszero\n  tag_9\n  jumpi\n  revert(0x00, 0x00)\ntag_9:\n  pop\n    /* \"SCafe.sol\":2801:2812  totalSupply */\n  sload(0x03)\n    /* \"SCafe.sol\":2774:2783  _balances */\n  0x06\n    /* \"SCafe.sol\":2774:2798  _balances[contractOwner] */\n  0x00\n    /* \"SCafe.sol\":2784:2797  contractOwner */\n  0x05\n  0x00\n  swap1\n  sload\n  swap1\n  0x0100\n  exp\n  swap1\n  div\n  0xffffffffffffffffffffffffffffffffffffffff\n  and\n    /* \"SCafe.sol\":2774:2798  _balances[contractOwner] */\n  0xffffffffffffffffffffffffffffffffffffffff\n  and\n  0xffffffffffffffffffffffffffffffffffffffff\n  and\n  dup2\n  mstore\n  0x20\n  add\n  swap1\n  dup2\n  mstore\n  0x20\n  add\n  0x00\n  keccak256\n    /* \"SCafe.sol\":2774:2812  _balances[contractOwner] = totalSupply */\n  dup2\n  swap1\n  sstore\n  pop\n    /* \"SCafe.sol\":2851:2864  contractOwner */\n  0x05\n  0x00\n  swap1\n  sload\n  swap1\n  0x0100\n  exp\n  swap1\n  div\n  0xffffffffffffffffffffffffffffffffffffffff\n  and\n    /* \"SCafe.sol\":2828:2878  Transfer(address(0x0), contractOwner, totalSupply) */\n  0xffffffffffffffffffffffffffffffffffffffff\n  and\n    /* \"SCafe.sol\":2845:2848  0x0 */\n  0x00\n    /* \"SCafe.sol\":2828:2878  Transfer(address(0x0), contractOwner, totalSupply) */\n  0xffffffffffffffffffffffffffffffffffffffff\n  and\n  0xddf252ad1be2c89b69c2b068fc378daa952ba7f163c4a11628f55a4df523b3ef\n    /* \"SCafe.sol\":2866:2877  totalSupply */\n  sload(0x03)\n    /* \"SCafe.sol\":2828:2878  Transfer(address(0x0), contractOwner, totalSupply) */\n  mload(0x40)\n  tag_12\n  swap2\n  swap1\n  tag_13\n  jump\t// in\ntag_12:\n  mload(0x40)\n  dup1\n  swap2\n  sub\n  swap1\n  log3\n    /* \"SCafe.sol\":1025:6376  contract SCCAFE {... */\n  jump(tag_14)\n    /* \"#utility.yul\":7:106   */\ntag_15:\n    /* \"#utility.yul\":59:65   */\n  0x00\n    /* \"#utility.yul\":93:98   */\n  dup2\n    /* \"#utility.yul\":87:99   */\n  mload\n    /* \"#utility.yul\":77:99   */\n  swap1\n  pop\n    /* \"#utility.yul\":7:106   */\n  swap2\n  swap1\n  pop\n  jump\t// out\n    /* \"#utility.yul\":112:292   */\ntag_16:\n    /* \"#utility.yul\":160:237   */\n  0x4e487b7100000000000000000000000000000000000000000000000000000000\n    /* \"#utility.yul\":157:158   */\n  0x00\n    /* \"#utility.yul\":150:238   */\n  mstore\n    /* \"#utility.yul\":257:261   */\n  0x41\n    /* \"#utility.yul\":254:255   */\n  0x04\n    /* \"#utility.yul\":247:262   */\n  mstore\n    /* \"#utility.yul\":281:285   */\n  0x24\n    /* \"#utility.yul\":278:279   */\n  0x00\n    /* \"#utility.yul\":271:286   */\n  revert\n    /* \"#utility.yul\":298:478   */\ntag_17:\n    /* \"#utility.yul\":346:423   */\n  0x4e487b7100000000000000000000000000000000000000000000000000000000\n    /* \"#utility.yul\":343:344   */\n  0x00\n    /* \"#utility.yul\":336:424   */\n  mstore\n    /* \"#utility.yul\":443:447   */\n  0x22\n    /* \"#utility.yul\":440:441   */\n  0x04\n    /* \"#utility.yul\":433:448   */\n  mstore\n    /* \"#utility.yul\":467:471   */\n  0x24\n    /* \"#utility.yul\":464:465   */\n  0x00\n    /* \"#utility.yul\":457:472   */\n  revert\n    /* \"#utility.yul\":484:804   */\ntag_18:\n    /* \"#utility.yul\":528:534   */\n  0x00\n    /* \"#utility.yul\":565:566   */\n  0x02\n    /* \"#utility.yul\":559:563   */\n  dup3\n    /* \"#utility.yul\":555:567   */\n  div\n    /* \"#utility.yul\":545:567   */\n  swap1\n  pop\n    /* \"#utility.yul\":612:613   */\n  0x01\n    /* \"#utility.yul\":606:610   */\n  dup3\n    /* \"#utility.yul\":602:614   */\n  and\n    /* \"#utility.yul\":633:651   */\n  dup1\n    /* \"#utility.yul\":623:704   */\n  tag_45\n  jumpi\n    /* \"#utility.yul\":689:693   */\n  0x7f\n    /* \"#utility.yul\":681:687   */\n  dup3\n    /* \"#utility.yul\":677:694   */\n  and\n    /* \"#utility.yul\":667:694   */\n  swap2\n  pop\n    /* \"#utility.yul\":623:704   */\ntag_45:\n    /* \"#utility.yul\":751:753   */\n  0x20\n    /* \"#utility.yul\":743:749   */\n  dup3\n    /* \"#utility.yul\":740:754   */\n  lt\n    /* \"#utility.yul\":720:738   */\n  dup2\n    /* \"#utility.yul\":717:755   */\n  sub\n    /* \"#utility.yul\":714:798   */\n  tag_46\n  jumpi\n    /* \"#utility.yul\":770:788   */\n  tag_47\n  tag_17\n  jump\t// in\ntag_47:\n    /* \"#utility.yul\":714:798   */\ntag_46:\n    /* \"#utility.yul\":535:804   */\n  pop\n    /* \"#utility.yul\":484:804   */\n  swap2\n  swap1\n  pop\n  jump\t// out\n    /* \"#utility.yul\":810:951   */\ntag_19:\n    /* \"#utility.yul\":859:863   */\n  0x00\n    /* \"#utility.yul\":882:885   */\n  dup2\n    /* \"#utility.yul\":874:885   */\n  swap1\n  pop\n    /* \"#utility.yul\":905:908   */\n  dup2\n    /* \"#utility.yul\":902:903   */\n  0x00\n    /* \"#utility.yul\":895:909   */\n  mstore\n    /* \"#utility.yul\":939:943   */\n  0x20\n    /* \"#utility.yul\":936:937   */\n  0x00\n    /* \"#utility.yul\":926:944   */\n  keccak256\n    /* \"#utility.yul\":918:944   */\n  swap1\n  pop\n    /* \"#utility.yul\":810:951   */\n  swap2\n  swap1\n  pop\n  jump\t// out\n    /* \"#utility.yul\":957:1050   */\ntag_20:\n    /* \"#utility.yul\":994:1000   */\n  0x00\n    /* \"#utility.yul\":1041:1043   */\n  0x20\n    /* \"#utility.yul\":1036:1038   */\n  0x1f\n    /* \"#utility.yul\":1029:1034   */\n  dup4\n    /* \"#utility.yul\":1025:1039   */\n  add\n    /* \"#utility.yul\":1021:1044   */\n  div\n    /* \"#utility.yul\":1011:1044   */\n  swap1\n  pop\n    /* \"#utility.yul\":957:1050   */\n  swap2\n  swap1\n  pop\n  jump\t// out\n    /* \"#utility.yul\":1056:1163   */\ntag_21:\n    /* \"#utility.yul\":1100:1108   */\n  0x00\n    /* \"#utility.yul\":1150:1155   */\n  dup3\n    /* \"#utility.yul\":1144:1148   */\n  dup3\n    /* \"#utility.yul\":1140:1156   */\n  shl\n    /* \"#utility.yul\":1119:1156   */\n  swap1\n  pop\n    /* \"#utility.yul\":1056:1163   */\n  swap3\n  swap2\n  pop\n  pop\n  jump\t// out\n    /* \"#utility.yul\":1169:1562   */\ntag_22:\n    /* \"#utility.yul\":1238:1244   */\n  0x00\n    /* \"#utility.yul\":1288:1289   */\n  0x08\n    /* \"#utility.yul\":1276:1286   */\n  dup4\n    /* \"#utility.yul\":1272:1290   */\n  mul\n    /* \"#utility.yul\":1311:1408   */\n  tag_52\n    /* \"#utility.yul\":1341:1407   */\n  0xffffffffffffffffffffffffffffffffffffffffffffffffffffffffffffffff\n    /* \"#utility.yul\":1330:1339   */\n  dup3\n    /* \"#utility.yul\":1311:1408   */\n  tag_21\n  jump\t// in\ntag_52:\n    /* \"#utility.yul\":1429:1468   */\n  tag_53\n    /* \"#utility.yul\":1459:1467   */\n  dup7\n    /* \"#utility.yul\":1448:1457   */\n  dup4\n    /* \"#utility.yul\":1429:1468   */\n  tag_21\n  jump\t// in\ntag_53:\n    /* \"#utility.yul\":1417:1468   */\n  swap6\n  pop\n    /* \"#utility.yul\":1501:1505   */\n  dup1\n    /* \"#utility.yul\":1497:1506   */\n  not\n    /* \"#utility.yul\":1490:1495   */\n  dup5\n    /* \"#utility.yul\":1486:1507   */\n  and\n    /* \"#utility.yul\":1477:1507   */\n  swap4\n  pop\n    /* \"#utility.yul\":1550:1554   */\n  dup1\n    /* \"#utility.yul\":1540:1548   */\n  dup7\n    /* \"#utility.yul\":1536:1555   */\n  and\n    /* \"#utility.yul\":1529:1534   */\n  dup5\n    /* \"#utility.yul\":1526:1556   */\n  or\n    /* \"#utility.yul\":1516:1556   */\n  swap3\n  pop\n    /* \"#utility.yul\":1245:1562   */\n  pop\n  pop\n    /* \"#utility.yul\":1169:1562   */\n  swap4\n  swap3\n  pop\n  pop\n  pop\n  jump\t// out\n    /* \"#utility.yul\":1568:1645   */\ntag_23:\n    /* \"#utility.yul\":1605:1612   */\n  0x00\n    /* \"#utility.yul\":1634:1639   */\n  dup2\n    /* \"#utility.yul\":1623:1639   */\n  swap1\n  pop\n    /* \"#utility.yul\":1568:1645   */\n  swap2\n  swap1\n  pop\n  jump\t// out\n    /* \"#utility.yul\":1651:1711   */\ntag_24:\n    /* \"#utility.yul\":1679:1682   */\n  0x00\n    /* \"#utility.yul\":1700:1705   */\n  dup2\n    /* \"#utility.yul\":1693:1705   */\n  swap1\n  pop\n    /* \"#utility.yul\":1651:1711   */\n  swap2\n  swap1\n  pop\n  jump\t// out\n    /* \"#utility.yul\":1717:1859   */\ntag_25:\n    /* \"#utility.yul\":1767:1776   */\n  0x00\n    /* \"#utility.yul\":1800:1853   */\n  tag_57\n    /* \"#utility.yul\":1818:1852   */\n  tag_58\n    /* \"#utility.yul\":1827:1851   */\n  tag_59\n    /* \"#utility.yul\":1845:1850   */\n  dup5\n    /* \"#utility.yul\":1827:1851   */\n  tag_23\n  jump\t// in\ntag_59:\n    /* \"#utility.yul\":1818:1852   */\n  tag_24\n  jump\t// in\ntag_58:\n    /* \"#utility.yul\":1800:1853   */\n  tag_23\n  jump\t// in\ntag_57:\n    /* \"#utility.yul\":1787:1853   */\n  swap1\n  pop\n    /* \"#utility.yul\":1717:1859   */\n  swap2\n  swap1\n  pop\n  jump\t// out\n    /* \"#utility.yul\":1865:1940   */\ntag_26:\n    /* \"#utility.yul\":1908:1911   */\n  0x00\n    /* \"#utility.yul\":1929:1934   */\n  dup2\n    /* \"#utility.yul\":1922:1934   */\n  swap1\n  pop\n    /* \"#utility.yul\":1865:1940   */\n  swap2\n  swap1\n  pop\n  jump\t// out\n    /* \"#utility.yul\":1946:2215   */\ntag_27:\n    /* \"#utility.yul\":2056:2095   */\n  tag_62\n    /* \"#utility.yul\":2087:2094   */\n  dup4\n    /* \"#utility.yul\":2056:2095   */\n  tag_25\n  jump\t// in\ntag_62:\n    /* \"#utility.yul\":2117:2208   */\n  tag_63\n    /* \"#utility.yul\":2166:2207   */\n  tag_64\n    /* \"#utility.yul\":2190:2206   */\n  dup3\n    /* \"#utility.yul\":2166:2207   */\n  tag_26\n  jump\t// in\ntag_64:\n    /* \"#utility.yul\":2158:2164   */\n  dup5\n    /* \"#utility.yul\":2151:2155   */\n  dup5\n    /* \"#utility.yul\":2145:2156   */\n  sload\n    /* \"#utility.yul\":2117:2208   */\n  tag_22\n  jump\t// in\ntag_63:\n    /* \"#utility.yul\":2111:2115   */\n  dup3\n    /* \"#utility.yul\":2104:2209   */\n  sstore\n    /* \"#utility.yul\":2022:2215   */\n  pop\n    /* \"#utility.yul\":1946:2215   */\n  pop\n  pop\n  pop\n  jump\t// out\n    /* \"#utility.yul\":2221:2294   */\ntag_28:\n    /* \"#utility.yul\":2266:2269   */\n  0x00\n    /* \"#utility.yul\":2287:2288   */\n  0x00\n    /* \"#utility.yul\":2280:2288   */\n  swap1\n  pop\n    /* \"#utility.yul\":2221:2294   */\n  swap1\n  jump\t// out\n    /* \"#utility.yul\":2300:2489   */\ntag_29:\n    /* \"#utility.yul\":2377:2409   */\n  tag_67\n  tag_28\n  jump\t// in\ntag_67:\n    /* \"#utility.yul\":2418:2483   */\n  tag_68\n    /* \"#utility.yul\":2476:2482   */\n  dup2\n    /* \"#utility.yul\":2468:2474   */\n  dup5\n    /* \"#utility.yul\":2462:2466   */\n  dup5\n    /* \"#utility.yul\":2418:2483   */\n  tag_27\n  jump\t// in\ntag_68:\n    /* \"#utility.yul\":2353:2489   */\n  pop\n    /* \"#utility.yul\":2300:2489   */\n  pop\n  pop\n  jump\t// out\n    /* \"#utility.yul\":2495:2681   */\ntag_30:\n    /* \"#utility.yul\":2555:2675   */\ntag_70:\n    /* \"#utility.yul\":2572:2575   */\n  dup2\n    /* \"#utility.yul\":2565:2570   */\n  dup2\n    /* \"#utility.yul\":2562:2576   */\n  lt\n    /* \"#utility.yul\":2555:2675   */\n  iszero\n  tag_72\n  jumpi\n    /* \"#utility.yul\":2626:2665   */\n  tag_73\n    /* \"#utility.yul\":2663:2664   */\n  0x00\n    /* \"#utility.yul\":2656:2661   */\n  dup3\n    /* \"#utility.yul\":2626:2665   */\n  tag_29\n  jump\t// in\ntag_73:\n    /* \"#utility.yul\":2599:2600   */\n  0x01\n    /* \"#utility.yul\":2592:2597   */\n  dup2\n    /* \"#utility.yul\":2588:2601   */\n  add\n    /* \"#utility.yul\":2579:2601   */\n  swap1\n  pop\n    /* \"#utility.yul\":2555:2675   */\n  jump(tag_70)\ntag_72:\n    /* \"#utility.yul\":2495:2681   */\n  pop\n  pop\n  jump\t// out\n    /* \"#utility.yul\":2687:3230   */\ntag_31:\n    /* \"#utility.yul\":2788:2790   */\n  0x1f\n    /* \"#utility.yul\":2783:2786   */\n  dup3\n    /* \"#utility.yul\":2780:2791   */\n  gt\n    /* \"#utility.yul\":2777:3223   */\n  iszero\n  tag_75\n  jumpi\n    /* \"#utility.yul\":2822:2860   */\n  tag_76\n    /* \"#utility.yul\":2854:2859   */\n  dup2\n    /* \"#utility.yul\":2822:2860   */\n  tag_19\n  jump\t// in\ntag_76:\n    /* \"#utility.yul\":2906:2935   */\n  tag_77\n    /* \"#utility.yul\":2924:2934   */\n  dup5\n    /* \"#utility.yul\":2906:2935   */\n  tag_20\n  jump\t// in\ntag_77:\n    /* \"#utility.yul\":2896:2904   */\n  dup2\n    /* \"#utility.yul\":2892:2936   */\n  add\n    /* \"#utility.yul\":3089:3091   */\n  0x20\n    /* \"#utility.yul\":3077:3087   */\n  dup6\n    /* \"#utility.yul\":3074:3092   */\n  lt\n    /* \"#utility.yul\":3071:3120   */\n  iszero\n  tag_78\n  jumpi\n    /* \"#utility.yul\":3110:3118   */\n  dup2\n    /* \"#utility.yul\":3095:3118   */\n  swap1\n  pop\n    /* \"#utility.yul\":3071:3120   */\ntag_78:\n    /* \"#utility.yul\":3133:3213   */\n  tag_79\n    /* \"#utility.yul\":3189:3211   */\n  tag_80\n    /* \"#utility.yul\":3207:3210   */\n  dup6\n    /* \"#utility.yul\":3189:3211   */\n  tag_20\n  jump\t// in\ntag_80:\n    /* \"#utility.yul\":3179:3187   */\n  dup4\n    /* \"#utility.yul\":3175:3212   */\n  add\n    /* \"#utility.yul\":3162:3173   */\n  dup3\n    /* \"#utility.yul\":3133:3213   */\n  tag_30\n  jump\t// in\ntag_79:\n    /* \"#utility.yul\":2792:3223   */\n  pop\n  pop\n    /* \"#utility.yul\":2777:3223   */\ntag_75:\n    /* \"#utility.yul\":2687:3230   */\n  pop\n  pop\n  pop\n  jump\t// out\n    /* \"#utility.yul\":3236:3353   */\ntag_32:\n    /* \"#utility.yul\":3290:3298   */\n  0x00\n    /* \"#utility.yul\":3340:3345   */\n  dup3\n    /* \"#utility.yul\":3334:3338   */\n  dup3\n    /* \"#utility.yul\":3330:3346   */\n  shr\n    /* \"#utility.yul\":3309:3346   */\n  swap1\n  pop\n    /* \"#utility.yul\":3236:3353   */\n  swap3\n  swap2\n  pop\n  pop\n  jump\t// out\n    /* \"#utility.yul\":3359:3528   */\ntag_33:\n    /* \"#utility.yul\":3403:3409   */\n  0x00\n    /* \"#utility.yul\":3436:3487   */\n  tag_83\n    /* \"#utility.yul\":3484:3485   */\n  0x00\n    /* \"#utility.yul\":3480:3486   */\n  not\n    /* \"#utility.yul\":3472:3477   */\n  dup5\n    /* \"#utility.yul\":3469:3470   */\n  0x08\n    /* \"#utility.yul\":3465:3478   */\n  mul\n    /* \"#utility.yul\":3436:3487   */\n  tag_32\n  jump\t// in\ntag_83:\n    /* \"#utility.yul\":3432:3488   */\n  not\n    /* \"#utility.yul\":3517:3521   */\n  dup1\n    /* \"#utility.yul\":3511:3515   */\n  dup4\n    /* \"#utility.yul\":3507:3522   */\n  and\n    /* \"#utility.yul\":3497:3522   */\n  swap2\n  pop\n    /* \"#utility.yul\":3410:3528   */\n  pop\n    /* \"#utility.yul\":3359:3528   */\n  swap3\n  swap2\n  pop\n  pop\n  jump\t// out\n    /* \"#utility.yul\":3533:3828   */\ntag_34:\n    /* \"#utility.yul\":3609:3613   */\n  0x00\n    /* \"#utility.yul\":3755:3784   */\n  tag_85\n    /* \"#utility.yul\":3780:3783   */\n  dup4\n    /* \"#utility.yul\":3774:3778   */\n  dup4\n    /* \"#utility.yul\":3755:3784   */\n  tag_33\n  jump\t// in\ntag_85:\n    /* \"#utility.yul\":3747:3784   */\n  swap2\n  pop\n    /* \"#utility.yul\":3817:3820   */\n  dup3\n    /* \"#utility.yul\":3814:3815   */\n  0x02\n    /* \"#utility.yul\":3810:3821   */\n  mul\n    /* \"#utility.yul\":3804:3808   */\n  dup3\n    /* \"#utility.yul\":3801:3822   */\n  or\n    /* \"#utility.yul\":3793:3822   */\n  swap1\n  pop\n    /* \"#utility.yul\":3533:3828   */\n  swap3\n  swap2\n  pop\n  pop\n  jump\t// out\n    /* \"#utility.yul\":3833:5228   */\ntag_2:\n    /* \"#utility.yul\":3950:3987   */\n  tag_87\n    /* \"#utility.yul\":3983:3986   */\n  dup3\n    /* \"#utility.yul\":3950:3987   */\n  tag_15\n  jump\t// in\ntag_87:\n    /* \"#utility.yul\":4052:4070   */\n  0xffffffffffffffff\n    /* \"#utility.yul\":4044:4050   */\n  dup2\n    /* \"#utility.yul\":4041:4071   */\n  gt\n    /* \"#utility.yul\":4038:4094   */\n  iszero\n  tag_88\n  jumpi\n    /* \"#utility.yul\":4074:4092   */\n  tag_89\n  tag_16\n  jump\t// in\ntag_89:\n    /* \"#utility.yul\":4038:4094   */\ntag_88:\n    /* \"#utility.yul\":4118:4156   */\n  tag_90\n    /* \"#utility.yul\":4150:4154   */\n  dup3\n    /* \"#utility.yul\":4144:4155   */\n  sload\n    /* \"#utility.yul\":4118:4156   */\n  tag_18\n  jump\t// in\ntag_90:\n    /* \"#utility.yul\":4203:4270   */\n  tag_91\n    /* \"#utility.yul\":4263:4269   */\n  dup3\n    /* \"#utility.yul\":4255:4261   */\n  dup3\n    /* \"#utility.yul\":4249:4253   */\n  dup6\n    /* \"#utility.yul\":4203:4270   */\n  tag_31\n  jump\t// in\ntag_91:\n    /* \"#utility.yul\":4297:4298   */\n  0x00\n    /* \"#utility.yul\":4321:4325   */\n  0x20\n    /* \"#utility.yul\":4308:4325   */\n  swap1\n  pop\n    /* \"#utility.yul\":4353:4355   */\n  0x1f\n    /* \"#utility.yul\":4345:4351   */\n  dup4\n    /* \"#utility.yul\":4342:4356   */\n  gt\n    /* \"#utility.yul\":4370:4371   */\n  0x01\n    /* \"#utility.yul\":4365:4983   */\n  dup2\n  eq\n  tag_93\n  jumpi\n    /* \"#utility.yul\":5027:5028   */\n  0x00\n    /* \"#utility.yul\":5044:5050   */\n  dup5\n    /* \"#utility.yul\":5041:5118   */\n  iszero\n  tag_94\n  jumpi\n    /* \"#utility.yul\":5093:5102   */\n  dup3\n    /* \"#utility.yul\":5088:5091   */\n  dup8\n    /* \"#utility.yul\":5084:5103   */\n  add\n    /* \"#utility.yul\":5078:5104   */\n  mload\n    /* \"#utility.yul\":5069:5104   */\n  swap1\n  pop\n    /* \"#utility.yul\":5041:5118   */\ntag_94:\n    /* \"#utility.yul\":5144:5211   */\n  tag_95\n    /* \"#utility.yul\":5204:5210   */\n  dup6\n    /* \"#utility.yul\":5197:5202   */\n  dup3\n    /* \"#utility.yul\":5144:5211   */\n  tag_34\n  jump\t// in\ntag_95:\n    /* \"#utility.yul\":5138:5142   */\n  dup7\n    /* \"#utility.yul\":5131:5212   */\n  sstore\n    /* \"#utility.yul\":5000:5222   */\n  pop\n    /* \"#utility.yul\":4335:5222   */\n  jump(tag_92)\n    /* \"#utility.yul\":4365:4983   */\ntag_93:\n    /* \"#utility.yul\":4417:4421   */\n  0x1f\n    /* \"#utility.yul\":4413:4422   */\n  not\n    /* \"#utility.yul\":4405:4411   */\n  dup5\n    /* \"#utility.yul\":4401:4423   */\n  and\n    /* \"#utility.yul\":4451:4488   */\n  tag_96\n    /* \"#utility.yul\":4483:4487   */\n  dup7\n    /* \"#utility.yul\":4451:4488   */\n  tag_19\n  jump\t// in\ntag_96:\n    /* \"#utility.yul\":4510:4511   */\n  0x00\n    /* \"#utility.yul\":4524:4732   */\ntag_97:\n    /* \"#utility.yul\":4538:4545   */\n  dup3\n    /* \"#utility.yul\":4535:4536   */\n  dup2\n    /* \"#utility.yul\":4532:4546   */\n  lt\n    /* \"#utility.yul\":4524:4732   */\n  iszero\n  tag_99\n  jumpi\n    /* \"#utility.yul\":4617:4626   */\n  dup5\n    /* \"#utility.yul\":4612:4615   */\n  dup10\n    /* \"#utility.yul\":4608:4627   */\n  add\n    /* \"#utility.yul\":4602:4628   */\n  mload\n    /* \"#utility.yul\":4594:4600   */\n  dup3\n    /* \"#utility.yul\":4587:4629   */\n  sstore\n    /* \"#utility.yul\":4668:4669   */\n  0x01\n    /* \"#utility.yul\":4660:4666   */\n  dup3\n    /* \"#utility.yul\":4656:4670   */\n  add\n    /* \"#utility.yul\":4646:4670   */\n  swap2\n  pop\n    /* \"#utility.yul\":4715:4717   */\n  0x20\n    /* \"#utility.yul\":4704:4713   */\n  dup6\n    /* \"#utility.yul\":4700:4718   */\n  add\n    /* \"#utility.yul\":4687:4718   */\n  swap5\n  pop\n    /* \"#utility.yul\":4561:4565   */\n  0x20\n    /* \"#utility.yul\":4558:4559   */\n  dup2\n    /* \"#utility.yul\":4554:4566   */\n  add\n    /* \"#utility.yul\":4549:4566   */\n  swap1\n  pop\n    /* \"#utility.yul\":4524:4732   */\n  jump(tag_97)\ntag_99:\n    /* \"#utility.yul\":4760:4766   */\n  dup7\n    /* \"#utility.yul\":4751:4758   */\n  dup4\n    /* \"#utility.yul\":4748:4767   */\n  lt\n    /* \"#utility.yul\":4745:4924   */\n  iszero\n  tag_100\n  jumpi\n    /* \"#utility.yul\":4818:4827   */\n  dup5\n    /* \"#utility.yul\":4813:4816   */\n  dup10\n    /* \"#utility.yul\":4809:4828   */\n  add\n    /* \"#utility.yul\":4803:4829   */\n  mload\n    /* \"#utility.yul\":4861:4909   */\n  tag_101\n    /* \"#utility.yul\":4903:4907   */\n  0x1f\n    /* \"#utility.yul\":4895:4901   */\n  dup10\n    /* \"#utility.yul\":4891:4908   */\n  and\n    /* \"#utility.yul\":4880:4889   */\n  dup3\n    /* \"#utility.yul\":4861:4909   */\n  tag_33\n  jump\t// in\ntag_101:\n    /* \"#utility.yul\":4853:4859   */\n  dup4\n    /* \"#utility.yul\":4846:4910   */\n  sstore\n    /* \"#utility.yul\":4768:4924   */\n  pop\n    /* \"#utility.yul\":4745:4924   */\ntag_100:\n    /* \"#utility.yul\":4970:4971   */\n  0x01\n    /* \"#utility.yul\":4966:4967   */\n  0x02\n    /* \"#utility.yul\":4958:4964   */\n  dup9\n    /* \"#utility.yul\":4954:4968   */\n  mul\n    /* \"#utility.yul\":4950:4972   */\n  add\n    /* \"#utility.yul\":4944:4948   */\n  dup9\n    /* \"#utility.yul\":4937:4973   */\n  sstore\n    /* \"#utility.yul\":4372:4983   */\n  pop\n  pop\n  pop\n    /* \"#utility.yul\":4335:5222   */\ntag_92:\n  pop\n    /* \"#utility.yul\":3925:5228   */\n  pop\n  pop\n  pop\n    /* \"#utility.yul\":3833:5228   */\n  pop\n  pop\n  jump\t// out\n    /* \"#utility.yul\":5234:5414   */\ntag_35:\n    /* \"#utility.yul\":5282:5359   */\n  0x4e487b7100000000000000000000000000000000000000000000000000000000\n    /* \"#utility.yul\":5279:5280   */\n  0x00\n    /* \"#utility.yul\":5272:5360   */\n  mstore\n    /* \"#utility.yul\":5379:5383   */\n  0x11\n    /* \"#utility.yul\":5376:5377   */\n  0x04\n    /* \"#utility.yul\":5369:5384   */\n  mstore\n    /* \"#utility.yul\":5403:5407   */\n  0x24\n    /* \"#utility.yul\":5400:5401   */\n  0x00\n    /* \"#utility.yul\":5393:5408   */\n  revert\n    /* \"#utility.yul\":5420:5522   */\ntag_36:\n    /* \"#utility.yul\":5462:5470   */\n  0x00\n    /* \"#utility.yul\":5509:5514   */\n  dup2\n    /* \"#utility.yul\":5506:5507   */\n  0x01\n    /* \"#utility.yul\":5502:5515   */\n  shr\n    /* \"#utility.yul\":5481:5515   */\n  swap1\n  pop\n    /* \"#utility.yul\":5420:5522   */\n  swap2\n  swap1\n  pop\n  jump\t// out\n    /* \"#utility.yul\":5528:6376   */\ntag_37:\n    /* \"#utility.yul\":5589:5594   */\n  0x00\n    /* \"#utility.yul\":5596:5600   */\n  0x00\n    /* \"#utility.yul\":5620:5626   */\n  dup3\n    /* \"#utility.yul\":5611:5626   */\n  swap2\n  pop\n    /* \"#utility.yul\":5644:5649   */\n  dup4\n    /* \"#utility.yul\":5635:5649   */\n  swap1\n  pop\n    /* \"#utility.yul\":5658:6370   */\ntag_105:\n    /* \"#utility.yul\":5679:5680   */\n  0x01\n    /* \"#utility.yul\":5669:5677   */\n  dup6\n    /* \"#utility.yul\":5666:5681   */\n  gt\n    /* \"#utility.yul\":5658:6370   */\n  iszero\n  tag_107\n  jumpi\n    /* \"#utility.yul\":5774:5778   */\n  dup1\n    /* \"#utility.yul\":5769:5772   */\n  dup7\n    /* \"#utility.yul\":5765:5779   */\n  div\n    /* \"#utility.yul\":5759:5763   */\n  dup2\n    /* \"#utility.yul\":5756:5780   */\n  gt\n    /* \"#utility.yul\":5753:5803   */\n  iszero\n  tag_108\n  jumpi\n    /* \"#utility.yul\":5783:5801   */\n  tag_109\n  tag_35\n  jump\t// in\ntag_109:\n    /* \"#utility.yul\":5753:5803   */\ntag_108:\n    /* \"#utility.yul\":5833:5834   */\n  0x01\n    /* \"#utility.yul\":5823:5831   */\n  dup6\n    /* \"#utility.yul\":5819:5835   */\n  and\n    /* \"#utility.yul\":5816:6267   */\n  iszero\n  tag_110\n  jumpi\n    /* \"#utility.yul\":6248:6252   */\n  dup1\n    /* \"#utility.yul\":6241:6246   */\n  dup3\n    /* \"#utility.yul\":6237:6253   */\n  mul\n    /* \"#utility.yul\":6228:6253   */\n  swap2\n  pop\n    /* \"#utility.yul\":5816:6267   */\ntag_110:\n    /* \"#utility.yul\":6298:6302   */\n  dup1\n    /* \"#utility.yul\":6292:6296   */\n  dup2\n    /* \"#utility.yul\":6288:6303   */\n  mul\n    /* \"#utility.yul\":6280:6303   */\n  swap1\n  pop\n    /* \"#utility.yul\":6328:6360   */\n  tag_111\n    /* \"#utility.yul\":6351:6359   */\n  dup6\n    /* \"#utility.yul\":6328:6360   */\n  tag_36\n  jump\t// in\ntag_111:\n    /* \"#utility.yul\":6316:6360   */\n  swap5\n  pop\n    /* \"#utility.yul\":5658:6370   */\n  jump(tag_105)\ntag_107:\n    /* \"#utility.yul\":5528:6376   */\n  swap5\n  pop\n  swap5\n  swap3\n  pop\n  pop\n  pop\n  jump\t// out\n    /* \"#utility.yul\":6382:7455   */\ntag_38:\n    /* \"#utility.yul\":6436:6441   */\n  0x00\n    /* \"#utility.yul\":6627:6635   */\n  dup3\n    /* \"#utility.yul\":6617:6657   */\n  tag_113\n  jumpi\n    /* \"#utility.yul\":6648:6649   */\n  0x01\n    /* \"#utility.yul\":6639:6649   */\n  swap1\n  pop\n    /* \"#utility.yul\":6650:6655   */\n  jump(tag_112)\n    /* \"#utility.yul\":6617:6657   */\ntag_113:\n    /* \"#utility.yul\":6676:6680   */\n  dup2\n    /* \"#utility.yul\":6666:6702   */\n  tag_114\n  jumpi\n    /* \"#utility.yul\":6693:6694   */\n  0x00\n    /* \"#utility.yul\":6684:6694   */\n  swap1\n  pop\n    /* \"#utility.yul\":6695:6700   */\n  jump(tag_112)\n    /* \"#utility.yul\":6666:6702   */\ntag_114:\n    /* \"#utility.yul\":6762:6766   */\n  dup2\n    /* \"#utility.yul\":6810:6811   */\n  0x01\n    /* \"#utility.yul\":6805:6832   */\n  dup2\n  eq\n  tag_116\n  jumpi\n    /* \"#utility.yul\":6846:6847   */\n  0x02\n    /* \"#utility.yul\":6841:7032   */\n  dup2\n  eq\n  tag_117\n  jumpi\n    /* \"#utility.yul\":6755:7032   */\n  jump(tag_115)\n    /* \"#utility.yul\":6805:6832   */\ntag_116:\n    /* \"#utility.yul\":6823:6824   */\n  0x01\n    /* \"#utility.yul\":6814:6824   */\n  swap2\n  pop\n    /* \"#utility.yul\":6825:6830   */\n  pop\n  jump(tag_112)\n    /* \"#utility.yul\":6841:7032   */\ntag_117:\n    /* \"#utility.yul\":6886:6889   */\n  0xff\n    /* \"#utility.yul\":6876:6884   */\n  dup5\n    /* \"#utility.yul\":6873:6890   */\n  gt\n    /* \"#utility.yul\":6870:6913   */\n  iszero\n  tag_118\n  jumpi\n    /* \"#utility.yul\":6893:6911   */\n  tag_119\n  tag_35\n  jump\t// in\ntag_119:\n    /* \"#utility.yul\":6870:6913   */\ntag_118:\n    /* \"#utility.yul\":6942:6950   */\n  dup4\n    /* \"#utility.yul\":6939:6940   */\n  0x02\n    /* \"#utility.yul\":6935:6951   */\n  exp\n    /* \"#utility.yul\":6926:6951   */\n  swap2\n  pop\n    /* \"#utility.yul\":6977:6980   */\n  dup5\n    /* \"#utility.yul\":6970:6975   */\n  dup3\n    /* \"#utility.yul\":6967:6981   */\n  gt\n    /* \"#utility.yul\":6964:7004   */\n  iszero\n  tag_120\n  jumpi\n    /* \"#utility.yul\":6984:7002   */\n  tag_121\n  tag_35\n  jump\t// in\ntag_121:\n    /* \"#utility.yul\":6964:7004   */\ntag_120:\n    /* \"#utility.yul\":7017:7022   */\n  pop\n  jump(tag_112)\n    /* \"#utility.yul\":6755:7032   */\ntag_115:\n  pop\n    /* \"#utility.yul\":7141:7143   */\n  0x20\n    /* \"#utility.yul\":7131:7139   */\n  dup4\n    /* \"#utility.yul\":7128:7144   */\n  lt\n    /* \"#utility.yul\":7122:7125   */\n  0x0133\n    /* \"#utility.yul\":7116:7120   */\n  dup4\n    /* \"#utility.yul\":7113:7126   */\n  lt\n    /* \"#utility.yul\":7109:7145   */\n  and\n    /* \"#utility.yul\":7091:7093   */\n  0x4e\n    /* \"#utility.yul\":7081:7089   */\n  dup5\n    /* \"#utility.yul\":7078:7094   */\n  lt\n    /* \"#utility.yul\":7073:7075   */\n  0x0b\n    /* \"#utility.yul\":7067:7071   */\n  dup5\n    /* \"#utility.yul\":7064:7076   */\n  lt\n    /* \"#utility.yul\":7060:7095   */\n  and\n    /* \"#utility.yul\":7044:7155   */\n  or\n    /* \"#utility.yul\":7041:7287   */\n  iszero\n  tag_122\n  jumpi\n    /* \"#utility.yul\":7197:7205   */\n  dup3\n    /* \"#utility.yul\":7191:7195   */\n  dup3\n    /* \"#utility.yul\":7187:7206   */\n  exp\n    /* \"#utility.yul\":7178:7206   */\n  swap1\n  pop\n    /* \"#utility.yul\":7232:7235   */\n  dup4\n    /* \"#utility.yul\":7225:7230   */\n  dup2\n    /* \"#utility.yul\":7222:7236   */\n  gt\n    /* \"#utility.yul\":7219:7259   */\n  iszero\n  tag_123\n  jumpi\n    /* \"#utility.yul\":7239:7257   */\n  tag_124\n  tag_35\n  jump\t// in\ntag_124:\n    /* \"#utility.yul\":7219:7259   */\ntag_123:\n    /* \"#utility.yul\":7272:7277   */\n  jump(tag_112)\n    /* \"#utility.yul\":7041:7287   */\ntag_122:\n    /* \"#utility.yul\":7312:7354   */\n  tag_125\n    /* \"#utility.yul\":7350:7353   */\n  dup5\n    /* \"#utility.yul\":7340:7348   */\n  dup5\n    /* \"#utility.yul\":7334:7338   */\n  dup5\n    /* \"#utility.yul\":7331:7332   */\n  0x01\n    /* \"#utility.yul\":7312:7354   */\n  tag_37\n  jump\t// in\ntag_125:\n    /* \"#utility.yul\":7297:7354   */\n  swap3\n  pop\n  swap1\n  pop\n    /* \"#utility.yul\":7386:7390   */\n  dup2\n    /* \"#utility.yul\":7381:7384   */\n  dup5\n    /* \"#utility.yul\":7377:7391   */\n  div\n    /* \"#utility.yul\":7370:7375   */\n  dup2\n    /* \"#utility.yul\":7367:7392   */\n  gt\n    /* \"#utility.yul\":7364:7415   */\n  iszero\n  tag_126\n  jumpi\n    /* \"#utility.yul\":7395:7413   */\n  tag_127\n  tag_35\n  jump\t// in\ntag_127:\n    /* \"#utility.yul\":7364:7415   */\ntag_126:\n    /* \"#utility.yul\":7444:7448   */\n  dup2\n    /* \"#utility.yul\":7437:7442   */\n  dup2\n    /* \"#utility.yul\":7433:7449   */\n  mul\n    /* \"#utility.yul\":7424:7449   */\n  swap1\n  pop\n    /* \"#utility.yul\":6382:7455   */\ntag_112:\n  swap4\n  swap3\n  pop\n  pop\n  pop\n  jump\t// out\n    /* \"#utility.yul\":7461:7746   */\ntag_5:\n    /* \"#utility.yul\":7521:7526   */\n  0x00\n    /* \"#utility.yul\":7545:7568   */\n  tag_129\n    /* \"#utility.yul\":7563:7567   */\n  dup3\n    /* \"#utility.yul\":7545:7568   */\n  tag_23\n  jump\t// in\ntag_129:\n    /* \"#utility.yul\":7537:7568   */\n  swap2\n  pop\n    /* \"#utility.yul\":7589:7616   */\n  tag_130\n    /* \"#utility.yul\":7607:7615   */\n  dup4\n    /* \"#utility.yul\":7589:7616   */\n  tag_23\n  jump\t// in\ntag_130:\n    /* \"#utility.yul\":7577:7616   */\n  swap3\n  pop\n    /* \"#utility.yul\":7635:7739   */\n  tag_131\n    /* \"#utility.yul\":7672:7738   */\n  0xffffffffffffffffffffffffffffffffffffffffffffffffffffffffffffffff\n    /* \"#utility.yul\":7662:7670   */\n  dup5\n    /* \"#utility.yul\":7656:7660   */\n  dup5\n    /* \"#utility.yul\":7635:7739   */\n  tag_38\n  jump\t// in\ntag_131:\n    /* \"#utility.yul\":7626:7739   */\n  swap1\n  pop\n    /* \"#utility.yul\":7461:7746   */\n  swap3\n  swap2\n  pop\n  pop\n  jump\t// out\n    /* \"#utility.yul\":7752:8162   */\ntag_7:\n    /* \"#utility.yul\":7792:7799   */\n  0x00\n    /* \"#utility.yul\":7815:7835   */\n  tag_133\n    /* \"#utility.yul\":7833:7834   */\n  dup3\n    /* \"#utility.yul\":7815:7835   */\n  tag_23\n  jump\t// in\ntag_133:\n    /* \"#utility.yul\":7810:7835   */\n  swap2\n  pop\n    /* \"#utility.yul\":7849:7869   */\n  tag_134\n    /* \"#utility.yul\":7867:7868   */\n  dup4\n    /* \"#utility.yul\":7849:7869   */\n  tag_23\n  jump\t// in\ntag_134:\n    /* \"#utility.yul\":7844:7869   */\n  swap3\n  pop\n    /* \"#utility.yul\":7904:7905   */\n  dup3\n    /* \"#utility.yul\":7901:7902   */\n  dup3\n    /* \"#utility.yul\":7897:7906   */\n  mul\n    /* \"#utility.yul\":7926:7956   */\n  tag_135\n    /* \"#utility.yul\":7944:7955   */\n  dup2\n    /* \"#utility.yul\":7926:7956   */\n  tag_23\n  jump\t// in\ntag_135:\n    /* \"#utility.yul\":7915:7956   */\n  swap2\n  pop\n    /* \"#utility.yul\":8105:8106   */\n  dup3\n    /* \"#utility.yul\":8096:8103   */\n  dup3\n    /* \"#utility.yul\":8092:8107   */\n  div\n    /* \"#utility.yul\":8089:8090   */\n  dup5\n    /* \"#utility.yul\":8086:8108   */\n  eq\n    /* \"#utility.yul\":8066:8067   */\n  dup4\n    /* \"#utility.yul\":8059:8068   */\n  iszero\n    /* \"#utility.yul\":8039:8122   */\n  or\n    /* \"#utility.yul\":8016:8155   */\n  tag_136\n  jumpi\n    /* \"#utility.yul\":8135:8153   */\n  tag_137\n  tag_35\n  jump\t// in\ntag_137:\n    /* \"#utility.yul\":8016:8155   */\ntag_136:\n    /* \"#utility.yul\":7800:8162   */\n  pop\n    /* \"#utility.yul\":7752:8162   */\n  swap3\n  swap2\n  pop\n  pop\n  jump\t// out\n    /* \"#utility.yul\":8168:8286   */\ntag_39:\n    /* \"#utility.yul\":8255:8279   */\n  tag_139\n    /* \"#utility.yul\":8273:8278   */\n  dup2\n    /* \"#utility.yul\":8255:8279   */\n  tag_23\n  jump\t// in\ntag_139:\n    /* \"#utility.yul\":8250:8253   */\n  dup3\n    /* \"#utility.yul\":8243:8280   */\n  mstore\n    /* \"#utility.yul\":8168:8286   */\n  pop\n  pop\n  jump\t// out\n    /* \"#utility.yul\":8292:8514   */\ntag_13:\n    /* \"#utility.yul\":8385:8389   */\n  0x00\n    /* \"#utility.yul\":8423:8425   */\n  0x20\n    /* \"#utility.yul\":8412:8421   */\n  dup3\n    /* \"#utility.yul\":8408:8426   */\n  add\n    /* \"#utility.yul\":8400:8426   */\n  swap1\n  pop\n    /* \"#utility.yul\":8436:8507   */\n  tag_141\n    /* \"#utility.yul\":8504:8505   */\n  0x00\n    /* \"#utility.yul\":8493:8502   */\n  dup4\n    /* \"#utility.yul\":8489:8506   */\n  add\n    /* \"#utility.yul\":8480:8486   */\n  dup5\n    /* \"#utility.yul\":8436:8507   */\n  tag_39\n  jump\t// in\ntag_141:\n    /* \"#utility.yul\":8292:8514   */\n  swap3\n  swap2\n  pop\n  pop\n  jump\t// out\n    /* \"SCafe.sol\":1025:6376  contract SCCAFE {... */\ntag_14:\n  dataSize(sub_0)\n  dup1\n  dataOffset(sub_0)\n  0x00\n  codecopy\n  0x00\n  return\nstop\n\nsub_0: assembly {\n        /* \"SCafe.sol\":1025:6376  contract SCCAFE {... */\n      mstore(0x40, 0x80)\n      jumpi(tag_1, lt(calldatasize, 0x04))\n      shr(0xe0, calldataload(0x00))\n      dup1\n      0x5f1e015a\n      gt\n      tag_27\n      jumpi\n      dup1\n      0x95d89b41\n      gt\n      tag_28\n      jumpi\n      dup1\n      0x95d89b41\n      eq\n      tag_21\n      jumpi\n      dup1\n      0xa3673981\n      eq\n      tag_22\n      jumpi\n      dup1\n      0xa9059cbb\n      eq\n      tag_23\n      jumpi\n      dup1\n      0xce606ee0\n      eq\n      tag_24\n      jumpi\n      dup1\n      0xdd62ed3e\n      eq\n      tag_25\n      jumpi\n      dup1\n      0xf2fde38b\n      eq\n      tag_26\n      jumpi\n      jump(tag_2)\n    tag_28:\n      dup1\n      0x5f1e015a\n      eq\n      tag_15\n      jumpi\n      dup1\n      0x6bb38b28\n      eq\n      tag_16\n      jumpi\n      dup1\n      0x70a08231\n      eq\n      tag_17\n      jumpi\n      dup1\n      0x81529ea0\n      eq\n      tag_18\n      jumpi\n      dup1\n      0x8456cb59\n      eq\n      tag_19\n      jumpi\n      dup1\n      0x8ae8e025\n      eq\n      tag_20\n      jumpi\n      jump(tag_2)\n    tag_27:\n      dup1\n      0x23b872dd\n      gt\n      tag_29\n      jumpi\n      dup1\n      0x23b872dd\n      eq\n      tag_9\n      jumpi\n      dup1\n      0x2513793f\n      eq\n      tag_10\n      jumpi\n      dup1\n      0x313ce567\n      eq\n      tag_11\n      jumpi\n      dup1\n      0x3f4ba83a\n      eq\n      tag_12\n      jumpi\n      dup1\n      0x428543bd\n      eq\n      tag_13\n      jumpi\n      dup1\n      0x5c975abb\n      eq\n      tag_14\n      jumpi\n      jump(tag_2)\n    tag_29:\n      dup1\n      0x06fdde03\n      eq\n      tag_3\n      jumpi\n      dup1\n      0x095ea7b3\n      eq\n      tag_4\n      jumpi\n      dup1\n      0x0c08bf88\n      eq\n      tag_5\n      jumpi\n      dup1\n      0x18160ddd\n      eq\n      tag_6\n      jumpi\n      dup1\n      0x194307bf\n      eq\n      tag_7\n      jumpi\n      dup1\n      0x1a50fac4\n      eq\n      tag_8\n      jumpi\n      jump(tag_2)\n    tag_1:\n      jumpi(tag_2, calldatasize)\n        /* \"SCafe.sol\":6339:6365  revert(\"ETH not accepted\") */\n      mload(0x40)\n      0x08c379a000000000000000000000000000000000000000000000000000000000\n      dup2\n      mstore\n      0x04\n      add\n      tag_32\n      swap1\n      tag_33\n      jump\t// in\n    tag_32:\n      mload(0x40)\n      dup1\n      swap2\n      sub\n      swap1\n      revert\n        /* \"SCafe.sol\":1025:6376  contract SCCAFE {... */\n    tag_2:\n      revert(0x00, 0x00)\n        /* \"SCafe.sol\":1078:1109  string public name = TOKEN_NAME */\n    tag_3:\n      callvalue\n      dup1\n      iszero\n      tag_34\n      jumpi\n      revert(0x00, 0x00)\n    tag_34:\n      pop\n      tag_35\n      tag_36\n      jump\t// in\n    tag_35:\n      mload(0x40)\n      tag_37\n      swap2\n      swap1\n      tag_38\n      jump\t// in\n    tag_37:\n      mload(0x40)\n      dup1\n      swap2\n      sub\n      swap1\n      return\n        /* \"SCafe.sol\":4461:4765  function approve(address spender, uint256 amount) public whenNotPaused whenActive returns (bool) {... */\n    tag_4:\n      callvalue\n      dup1\n      iszero\n      tag_39\n      jumpi\n      revert(0x00, 0x00)\n    tag_39:\n      pop\n      tag_40\n      0x04\n      dup1\n      calldatasize\n      sub\n      dup2\n      add\n      swap1\n      tag_41\n      swap2\n      swap1\n      tag_42\n      jump\t// in\n    tag_41:\n      tag_43\n      jump\t// in\n    tag_40:\n      mload(0x40)\n      tag_44\n      swap2\n      swap1\n      tag_45\n      jump\t// in\n    tag_44:\n      mload(0x40)\n      dup1\n      swap2\n      sub\n      swap1\n      return\n        /* \"SCafe.sol\":3149:3261  function terminate() public onlyOwner {... */\n    tag_5:\n      callvalue\n      dup1\n      iszero\n      tag_46\n      jumpi\n      revert(0x00, 0x00)\n    tag_46:\n      pop\n      tag_47\n      tag_48\n      jump\t// in\n    tag_47:\n      stop\n        /* \"SCafe.sol\":1203:1272  uint256 public totalSupply = TOKEN_SUPPLY * (10 ** uint256(decimals)) */\n    tag_6:\n      callvalue\n      dup1\n      iszero\n      tag_49\n      jumpi\n      revert(0x00, 0x00)\n    tag_49:\n      pop\n      tag_50\n      tag_51\n      jump\t// in\n    tag_50:\n      mload(0x40)\n      tag_52\n      swap2\n      swap1\n      tag_53\n      jump\t// in\n    tag_52:\n      mload(0x40)\n      dup1\n      swap2\n      sub\n      swap1\n      return\n        /* \"SCafe.sol\":1400:1422  bool public terminated */\n    tag_7:\n      callvalue\n      dup1\n      iszero\n      tag_54\n      jumpi\n      revert(0x00, 0x00)\n    tag_54:\n      pop\n      tag_55\n      tag_56\n      jump\t// in\n    tag_55:\n      mload(0x40)\n      tag_57\n      swap2\n      swap1\n      tag_45\n      jump\t// in\n    tag_57:\n      mload(0x40)\n      dup1\n      swap2\n      sub\n      swap1\n      return\n        /* \"SCafe.sol\":5948:6065  function getOriginalTotalSupply() public view returns (uint256) {... */\n    tag_8:\n      callvalue\n      dup1\n      iszero\n      tag_58\n      jumpi\n      revert(0x00, 0x00)\n    tag_58:\n      pop\n      tag_59\n      tag_60\n      jump\t// in\n    tag_59:\n      mload(0x40)\n      tag_61\n      swap2\n      swap1\n      tag_53\n      jump\t// in\n    tag_61:\n      mload(0x40)\n      dup1\n      swap2\n      sub\n      swap1\n      return\n        /* \"SCafe.sol\":4773:5405  function transferFrom(address sender, address recipient, uint256 amount) public whenNotPaused whenActive returns (bool) {... */\n    tag_9:\n      callvalue\n      dup1\n      iszero\n      tag_62\n      jumpi\n      revert(0x00, 0x00)\n    tag_62:\n      pop\n      tag_63\n      0x04\n      dup1\n      calldatasize\n      sub\n      dup2\n      add\n      swap1\n      tag_64\n      swap2\n      swap1\n      tag_65\n      jump\t// in\n    tag_64:\n      tag_66\n      jump\t// in\n    tag_63:\n      mload(0x40)\n      tag_67\n      swap2\n      swap1\n      tag_45\n      jump\t// in\n    tag_67:\n      mload(0x40)\n      dup1\n      swap2\n      sub\n      swap1\n      return\n        /* \"SCafe.sol\":5710:5819  function getOriginalName() public view returns (string memory) {... */\n    tag_10:\n      callvalue\n      dup1\n      iszero\n      tag_68\n      jumpi\n      revert(0x00, 0x00)\n    tag_68:\n      pop\n      tag_69\n      tag_70\n      jump\t// in\n    tag_69:\n      mload(0x40)\n      tag_71\n      swap2\n      swap1\n      tag_38\n      jump\t// in\n    tag_71:\n      mload(0x40)\n      dup1\n      swap2\n      sub\n      swap1\n      return\n        /* \"SCafe.sol\":1158:1196  uint8 public decimals = TOKEN_DECIMALS */\n    tag_11:\n      callvalue\n      dup1\n      iszero\n      tag_72\n      jumpi\n      revert(0x00, 0x00)\n    tag_72:\n      pop\n      tag_73\n      tag_74\n      jump\t// in\n    tag_73:\n      mload(0x40)\n      tag_75\n      swap2\n      swap1\n      tag_76\n      jump\t// in\n    tag_75:\n      mload(0x40)\n      dup1\n      swap2\n      sub\n      swap1\n      return\n        /* \"SCafe.sol\":3036:3141  function unpause() public onlyOwner {... */\n    tag_12:\n      callvalue\n      dup1\n      iszero\n      tag_77\n      jumpi\n      revert(0x00, 0x00)\n    tag_77:\n      pop\n      tag_78\n      tag_79\n      jump\t// in\n    tag_78:\n      stop\n        /* \"SCafe.sol\":1429:1456  bool public lockedForUpdate */\n    tag_13:\n      callvalue\n      dup1\n      iszero\n      tag_80\n      jumpi\n      revert(0x00, 0x00)\n    tag_80:\n      pop\n      tag_81\n      tag_82\n      jump\t// in\n    tag_81:\n      mload(0x40)\n      tag_83\n      swap2\n      swap1\n      tag_45\n      jump\t// in\n    tag_83:\n      mload(0x40)\n      dup1\n      swap2\n      sub\n      swap1\n      return\n        /* \"SCafe.sol\":1375:1393  bool public paused */\n    tag_14:\n      callvalue\n      dup1\n      iszero\n      tag_84\n      jumpi\n      revert(0x00, 0x00)\n    tag_84:\n      pop\n      tag_85\n      tag_86\n      jump\t// in\n    tag_85:\n      mload(0x40)\n      tag_87\n      swap2\n      swap1\n      tag_45\n      jump\t// in\n    tag_87:\n      mload(0x40)\n      dup1\n      swap2\n      sub\n      swap1\n      return\n        /* \"SCafe.sol\":6073:6293  function getOriginalBalance(address account) public returns (uint256) {... */\n    tag_15:\n      callvalue\n      dup1\n      iszero\n      tag_88\n      jumpi\n      revert(0x00, 0x00)\n    tag_88:\n      pop\n      tag_89\n      0x04\n      dup1\n      calldatasize\n      sub\n      dup2\n      add\n      swap1\n      tag_90\n      swap2\n      swap1\n      tag_91\n      jump\t// in\n    tag_90:\n      tag_92\n      jump\t// in\n    tag_89:\n      mload(0x40)\n      tag_93\n      swap2\n      swap1\n      tag_53\n      jump\t// in\n    tag_93:\n      mload(0x40)\n      dup1\n      swap2\n      sub\n      swap1\n      return\n        /* \"SCafe.sol\":1279:1317  string public logoURI = TOKEN_LOGO_URI */\n    tag_16:\n      callvalue\n      dup1\n      iszero\n      tag_94\n      jumpi\n      revert(0x00, 0x00)\n    tag_94:\n      pop\n      tag_95\n      tag_96\n      jump\t// in\n    tag_95:\n      mload(0x40)\n      tag_97\n      swap2\n      swap1\n      tag_38\n      jump\t// in\n    tag_97:\n      mload(0x40)\n      dup1\n      swap2\n      sub\n      swap1\n      return\n        /* \"SCafe.sol\":5413:5523  function balanceOf(address account) public view returns (uint256) {... */\n    tag_17:\n      callvalue\n      dup1\n      iszero\n      tag_98\n      jumpi\n      revert(0x00, 0x00)\n    tag_98:\n      pop\n      tag_99\n      0x04\n      dup1\n      calldatasize\n      sub\n      dup2\n      add\n      swap1\n      tag_100\n      swap2\n      swap1\n      tag_91\n      jump\t// in\n    tag_100:\n      tag_101\n      jump\t// in\n    tag_99:\n      mload(0x40)\n      tag_102\n      swap2\n      swap1\n      tag_53\n      jump\t// in\n    tag_102:\n      mload(0x40)\n      dup1\n      swap2\n      sub\n      swap1\n      return\n        /* \"SCafe.sol\":3859:3940  function lockUpdates() public onlyOwner {... */\n    tag_18:\n      callvalue\n      dup1\n      iszero\n      tag_103\n      jumpi\n      revert(0x00, 0x00)\n    tag_103:\n      pop\n      tag_104\n      tag_105\n      jump\t// in\n    tag_104:\n      stop\n        /* \"SCafe.sol\":2928:3028  function pause() public onlyOwner {... */\n    tag_19:\n      callvalue\n      dup1\n      iszero\n      tag_106\n      jumpi\n      revert(0x00, 0x00)\n    tag_106:\n      pop\n      tag_107\n      tag_108\n      jump\t// in\n    tag_107:\n      stop\n        /* \"SCafe.sol\":3605:3767  function updateSettings(string memory newLogoURI) public onlyOwner whenUnlocked {... */\n    tag_20:\n      callvalue\n      dup1\n      iszero\n      tag_109\n      jumpi\n      revert(0x00, 0x00)\n    tag_109:\n      pop\n      tag_110\n      0x04\n      dup1\n      calldatasize\n      sub\n      dup2\n      add\n      swap1\n      tag_111\n      swap2\n      swap1\n      tag_112\n      jump\t// in\n    tag_111:\n      tag_113\n      jump\t// in\n    tag_110:\n      stop\n        /* \"SCafe.sol\":1116:1151  string public symbol = TOKEN_SYMBOL */\n    tag_21:\n      callvalue\n      dup1\n      iszero\n      tag_114\n      jumpi\n      revert(0x00, 0x00)\n    tag_114:\n      pop\n      tag_115\n      tag_116\n      jump\t// in\n    tag_115:\n      mload(0x40)\n      tag_117\n      swap2\n      swap1\n      tag_38\n      jump\t// in\n    tag_117:\n      mload(0x40)\n      dup1\n      swap2\n      sub\n      swap1\n      return\n        /* \"SCafe.sol\":5827:5940  function getOriginalSymbol() public view returns (string memory) {... */\n    tag_22:\n      callvalue\n      dup1\n      iszero\n      tag_118\n      jumpi\n      revert(0x00, 0x00)\n    tag_118:\n      pop\n      tag_119\n      tag_120\n      jump\t// in\n    tag_119:\n      mload(0x40)\n      tag_121\n      swap2\n      swap1\n      tag_38\n      jump\t// in\n    tag_121:\n      mload(0x40)\n      dup1\n      swap2\n      sub\n      swap1\n      return\n        /* \"SCafe.sol\":3981:4453  function transfer(address recipient, uint256 amount) public whenNotPaused whenActive returns (bool) {... */\n    tag_23:\n      callvalue\n      dup1\n      iszero\n      tag_122\n      jumpi\n      revert(0x00, 0x00)\n    tag_122:\n      pop\n      tag_123\n      0x04\n      dup1\n      calldatasize\n      sub\n      dup2\n      add\n      swap1\n      tag_124\n      swap2\n      swap1\n      tag_42\n      jump\t// in\n    tag_124:\n      tag_125\n      jump\t// in\n    tag_123:\n      mload(0x40)\n      tag_126\n      swap2\n      swap1\n      tag_45\n      jump\t// in\n    tag_126:\n      mload(0x40)\n      dup1\n      swap2\n      sub\n      swap1\n      return\n        /* \"SCafe.sol\":1326:1368  address public contractOwner = TOKEN_OWNER */\n    tag_24:\n      callvalue\n      dup1\n      iszero\n      tag_127\n      jumpi\n      revert(0x00, 0x00)\n    tag_127:\n      pop\n      tag_128\n      tag_129\n      jump\t// in\n    tag_128:\n      mload(0x40)\n      tag_130\n      swap2\n      swap1\n      tag_131\n      jump\t// in\n    tag_130:\n      mload(0x40)\n      dup1\n      swap2\n      sub\n      swap1\n      return\n        /* \"SCafe.sol\":5531:5665  function allowance(address owner, address spender) public view returns (uint256) {... */\n    tag_25:\n      callvalue\n      dup1\n      iszero\n      tag_132\n      jumpi\n      revert(0x00, 0x00)\n    tag_132:\n      pop\n      tag_133\n      0x04\n      dup1\n      calldatasize\n      sub\n      dup2\n      add\n      swap1\n      tag_134\n      swap2\n      swap1\n      tag_135\n      jump\t// in\n    tag_134:\n      tag_136\n      jump\t// in\n    tag_133:\n      mload(0x40)\n      tag_137\n      swap2\n      swap1\n      tag_53\n      jump\t// in\n    tag_137:\n      mload(0x40)\n      dup1\n      swap2\n      sub\n      swap1\n      return\n        /* \"SCafe.sol\":3269:3512  function transferOwnership(address newOwner) public onlyOwner {... */\n    tag_26:\n      callvalue\n      dup1\n      iszero\n      tag_138\n      jumpi\n      revert(0x00, 0x00)\n    tag_138:\n      pop\n      tag_139\n      0x04\n      dup1\n      calldatasize\n      sub\n      dup2\n      add\n      swap1\n      tag_140\n      swap2\n      swap1\n      tag_91\n      jump\t// in\n    tag_140:\n      tag_141\n      jump\t// in\n    tag_139:\n      stop\n        /* \"SCafe.sol\":1078:1109  string public name = TOKEN_NAME */\n    tag_36:\n      0x00\n      dup1\n      sload\n      tag_142\n      swap1\n      tag_143\n      jump\t// in\n    tag_142:\n      dup1\n      0x1f\n      add\n      0x20\n      dup1\n      swap2\n      div\n      mul\n      0x20\n      add\n      mload(0x40)\n      swap1\n      dup2\n      add\n      0x40\n      mstore\n      dup1\n      swap3\n      swap2\n      swap1\n      dup2\n      dup2\n      mstore\n      0x20\n      add\n      dup3\n      dup1\n      sload\n      tag_144\n      swap1\n      tag_143\n      jump\t// in\n    tag_144:\n      dup1\n      iszero\n      tag_145\n      jumpi\n      dup1\n      0x1f\n      lt\n      tag_146\n      jumpi\n      0x0100\n      dup1\n      dup4\n      sload\n      div\n      mul\n      dup4\n      mstore\n      swap2\n      0x20\n      add\n      swap2\n      jump(tag_145)\n    tag_146:\n      dup3\n      add\n      swap2\n      swap1\n      0x00\n      mstore\n      keccak256(0x00, 0x20)\n      swap1\n    tag_147:\n      dup2\n      sload\n      dup2\n      mstore\n      swap1\n      0x01\n      add\n      swap1\n      0x20\n      add\n      dup1\n      dup4\n      gt\n      tag_147\n      jumpi\n      dup3\n      swap1\n      sub\n      0x1f\n      and\n      dup3\n      add\n      swap2\n    tag_145:\n      pop\n      pop\n      pop\n      pop\n      pop\n      dup2\n      jump\t// out\n        /* \"SCafe.sol\":4461:4765  function approve(address spender, uint256 amount) public whenNotPaused whenActive returns (bool) {... */\n    tag_43:\n        /* \"SCafe.sol\":4552:4556  bool */\n      0x00\n        /* \"SCafe.sol\":2466:2472  paused */\n      0x05\n      0x14\n      swap1\n      sload\n      swap1\n      0x0100\n      exp\n      swap1\n      div\n      0xff\n      and\n        /* \"SCafe.sol\":2465:2472  !paused */\n      iszero\n        /* \"SCafe.sol\":2457:2495  require(!paused, \"Contract is paused\") */\n      tag_149\n      jumpi\n      mload(0x40)\n      0x08c379a000000000000000000000000000000000000000000000000000000000\n      dup2\n      mstore\n      0x04\n      add\n      tag_150\n      swap1\n      tag_151\n      jump\t// in\n    tag_150:\n      mload(0x40)\n      dup1\n      swap2\n      sub\n      swap1\n      revert\n    tag_149:\n        /* \"SCafe.sol\":2565:2575  terminated */\n      0x05\n      0x15\n      swap1\n      sload\n      swap1\n      0x0100\n      exp\n      swap1\n      div\n      0xff\n      and\n        /* \"SCafe.sol\":2564:2575  !terminated */\n      iszero\n        /* \"SCafe.sol\":2556:2611  require(!terminated, \"Contract permanently terminated\") */\n      tag_153\n      jumpi\n      mload(0x40)\n      0x08c379a000000000000000000000000000000000000000000000000000000000\n      dup2\n      mstore\n      0x04\n      add\n      tag_154\n      swap1\n      tag_155\n      jump\t// in\n    tag_154:\n      mload(0x40)\n      dup1\n      swap2\n      sub\n      swap1\n      revert\n    tag_153:\n        /* \"SCafe.sol\":4596:4599  0x0 */\n      0x00\n        /* \"SCafe.sol\":4577:4600  spender != address(0x0) */\n      0xffffffffffffffffffffffffffffffffffffffff\n      and\n        /* \"SCafe.sol\":4577:4584  spender */\n      dup4\n        /* \"SCafe.sol\":4577:4600  spender != address(0x0) */\n      0xffffffffffffffffffffffffffffffffffffffff\n      and\n      sub\n        /* \"SCafe.sol\":4569:4628  require(spender != address(0x0), \"Approve to zero address\") */\n      tag_157\n      jumpi\n      mload(0x40)\n      0x08c379a000000000000000000000000000000000000000000000000000000000\n      dup2\n      mstore\n      0x04\n      add\n      tag_158\n      swap1\n      tag_159\n      jump\t// in\n    tag_158:\n      mload(0x40)\n      dup1\n      swap2\n      sub\n      swap1\n      revert\n    tag_157:\n        /* \"SCafe.sol\":4674:4680  amount */\n      dup2\n        /* \"SCafe.sol\":4639:4650  _allowances */\n      0x07\n        /* \"SCafe.sol\":4639:4662  _allowances[msg.sender] */\n      0x00\n        /* \"SCafe.sol\":4651:4661  msg.sender */\n      caller\n        /* \"SCafe.sol\":4639:4662  _allowances[msg.sender] */\n      0xffffffffffffffffffffffffffffffffffffffff\n      and\n      0xffffffffffffffffffffffffffffffffffffffff\n      and\n      dup2\n      mstore\n      0x20\n      add\n      swap1\n      dup2\n      mstore\n      0x20\n      add\n      0x00\n      keccak256\n        /* \"SCafe.sol\":4639:4671  _allowances[msg.sender][spender] */\n      0x00\n        /* \"SCafe.sol\":4663:4670  spender */\n      dup6\n        /* \"SCafe.sol\":4639:4671  _allowances[msg.sender][spender] */\n      0xffffffffffffffffffffffffffffffffffffffff\n      and\n      0xffffffffffffffffffffffffffffffffffffffff\n      and\n      dup2\n      mstore\n      0x20\n      add\n      swap1\n      dup2\n      mstore\n      0x20\n      add\n      0x00\n      keccak256\n        /* \"SCafe.sol\":4639:4680  _allowances[msg.sender][spender] = amount */\n      dup2\n      swap1\n      sstore\n      pop\n        /* \"SCafe.sol\":4719:4726  spender */\n      dup3\n        /* \"SCafe.sol\":4698:4735  Approval(msg.sender, spender, amount) */\n      0xffffffffffffffffffffffffffffffffffffffff\n      and\n        /* \"SCafe.sol\":4707:4717  msg.sender */\n      caller\n        /* \"SCafe.sol\":4698:4735  Approval(msg.sender, spender, amount) */\n      0xffffffffffffffffffffffffffffffffffffffff\n      and\n      0x8c5be1e5ebec7d5bd14f71427d1e84f3dd0314c0f7b2291e5b200ac8c7c3b925\n        /* \"SCafe.sol\":4728:4734  amount */\n      dup5\n        /* \"SCafe.sol\":4698:4735  Approval(msg.sender, spender, amount) */\n      mload(0x40)\n      tag_160\n      swap2\n      swap1\n      tag_53\n      jump\t// in\n    tag_160:\n      mload(0x40)\n      dup1\n      swap2\n      sub\n      swap1\n      log3\n        /* \"SCafe.sol\":4753:4757  true */\n      0x01\n        /* \"SCafe.sol\":4746:4757  return true */\n      swap1\n      pop\n        /* \"SCafe.sol\":4461:4765  function approve(address spender, uint256 amount) public whenNotPaused whenActive returns (bool) {... */\n      swap3\n      swap2\n      pop\n      pop\n      jump\t// out\n        /* \"SCafe.sol\":3149:3261  function terminate() public onlyOwner {... */\n    tag_48:\n        /* \"SCafe.sol\":2342:2355  contractOwner */\n      0x05\n      0x00\n      swap1\n      sload\n      swap1\n      0x0100\n      exp\n      swap1\n      div\n      0xffffffffffffffffffffffffffffffffffffffff\n      and\n        /* \"SCafe.sol\":2328:2355  msg.sender == contractOwner */\n      0xffffffffffffffffffffffffffffffffffffffff\n      and\n        /* \"SCafe.sol\":2328:2338  msg.sender */\n      caller\n        /* \"SCafe.sol\":2328:2355  msg.sender == contractOwner */\n      0xffffffffffffffffffffffffffffffffffffffff\n      and\n      eq\n        /* \"SCafe.sol\":2320:2393  require(msg.sender == contractOwner, \"Only owner can call this function\") */\n      tag_162\n      jumpi\n      mload(0x40)\n      0x08c379a000000000000000000000000000000000000000000000000000000000\n      dup2\n      mstore\n      0x04\n      add\n      tag_163\n      swap1\n      tag_164\n      jump\t// in\n    tag_163:\n      mload(0x40)\n      dup1\n      swap2\n      sub\n      swap1\n      revert\n    tag_162:\n        /* \"SCafe.sol\":3211:3215  true */\n      0x01\n        /* \"SCafe.sol\":3198:3208  terminated */\n      0x05\n      0x15\n        /* \"SCafe.sol\":3198:3215  terminated = true */\n      0x0100\n      exp\n      dup2\n      sload\n      dup2\n      0xff\n      mul\n      not\n      and\n      swap1\n      dup4\n      iszero\n      iszero\n      mul\n      or\n      swap1\n      sstore\n      pop\n        /* \"SCafe.sol\":3242:3252  msg.sender */\n      caller\n        /* \"SCafe.sol\":3231:3253  Terminated(msg.sender) */\n      0xffffffffffffffffffffffffffffffffffffffff\n      and\n      0x98cd97fc1a1cc958cbd729b1bb531d4f3ea4925470bf23ea9af386640cbd07be\n      mload(0x40)\n      mload(0x40)\n      dup1\n      swap2\n      sub\n      swap1\n      log2\n        /* \"SCafe.sol\":3149:3261  function terminate() public onlyOwner {... */\n      jump\t// out\n        /* \"SCafe.sol\":1203:1272  uint256 public totalSupply = TOKEN_SUPPLY * (10 ** uint256(decimals)) */\n    tag_51:\n      sload(0x03)\n      dup2\n      jump\t// out\n        /* \"SCafe.sol\":1400:1422  bool public terminated */\n    tag_56:\n      0x05\n      0x15\n      swap1\n      sload\n      swap1\n      0x0100\n      exp\n      swap1\n      div\n      0xff\n      and\n      dup2\n      jump\t// out\n        /* \"SCafe.sol\":5948:6065  function getOriginalTotalSupply() public view returns (uint256) {... */\n    tag_60:\n        /* \"SCafe.sol\":6003:6010  uint256 */\n      0x00\n        /* \"SCafe.sol\":6030:6043  btcbrOriginal */\n      0x08\n      0x00\n      swap1\n      sload\n      swap1\n      0x0100\n      exp\n      swap1\n      div\n      0xffffffffffffffffffffffffffffffffffffffff\n      and\n        /* \"SCafe.sol\":6030:6055  btcbrOriginal.totalSupply */\n      0xffffffffffffffffffffffffffffffffffffffff\n      and\n      0x18160ddd\n        /* \"SCafe.sol\":6030:6057  btcbrOriginal.totalSupply() */\n      mload(0x40)\n      dup2\n      0xffffffff\n      and\n      0xe0\n      shl\n      dup2\n      mstore\n      0x04\n      add\n      0x20\n      mload(0x40)\n      dup1\n      dup4\n      sub\n      dup2\n      dup7\n      gas\n      staticcall\n      iszero\n      dup1\n      iszero\n      tag_168\n      jumpi\n      returndatacopy(0x00, 0x00, returndatasize)\n      revert(0x00, returndatasize)\n    tag_168:\n      pop\n      pop\n      pop\n      pop\n      mload(0x40)\n      returndatasize\n      not(0x1f)\n      0x1f\n      dup3\n      add\n      and\n      dup3\n      add\n      dup1\n      0x40\n      mstore\n      pop\n      dup2\n      add\n      swap1\n      tag_169\n      swap2\n      swap1\n      tag_170\n      jump\t// in\n    tag_169:\n        /* \"SCafe.sol\":6023:6057  return btcbrOriginal.totalSupply() */\n      swap1\n      pop\n        /* \"SCafe.sol\":5948:6065  function getOriginalTotalSupply() public view returns (uint256) {... */\n      swap1\n      jump\t// out\n        /* \"SCafe.sol\":4773:5405  function transferFrom(address sender, address recipient, uint256 amount) public whenNotPaused whenActive returns (bool) {... */\n    tag_66:\n        /* \"SCafe.sol\":4887:4891  bool */\n      0x00\n        /* \"SCafe.sol\":2466:2472  paused */\n      0x05\n      0x14\n      swap1\n      sload\n      swap1\n      0x0100\n      exp\n      swap1\n      div\n      0xff\n      and\n        /* \"SCafe.sol\":2465:2472  !paused */\n      iszero\n        /* \"SCafe.sol\":2457:2495  require(!paused, \"Contract is paused\") */\n      tag_172\n      jumpi\n      mload(0x40)\n      0x08c379a000000000000000000000000000000000000000000000000000000000\n      dup2\n      mstore\n      0x04\n      add\n      tag_173\n      swap1\n      tag_151\n      jump\t// in\n    tag_173:\n      mload(0x40)\n      dup1\n      swap2\n      sub\n      swap1\n      revert\n    tag_172:\n        /* \"SCafe.sol\":2565:2575  terminated */\n      0x05\n      0x15\n      swap1\n      sload\n      swap1\n      0x0100\n      exp\n      swap1\n      div\n      0xff\n      and\n        /* \"SCafe.sol\":2564:2575  !terminated */\n      iszero\n        /* \"SCafe.sol\":2556:2611  require(!terminated, \"Contract permanently terminated\") */\n      tag_175\n      jumpi\n      mload(0x40)\n      0x08c379a000000000000000000000000000000000000000000000000000000000\n      dup2\n      mstore\n      0x04\n      add\n      tag_176\n      swap1\n      tag_155\n      jump\t// in\n    tag_176:\n      mload(0x40)\n      dup1\n      swap2\n      sub\n      swap1\n      revert\n    tag_175:\n        /* \"SCafe.sol\":4930:4933  0x0 */\n      0x00\n        /* \"SCafe.sol\":4912:4934  sender != address(0x0) */\n      0xffffffffffffffffffffffffffffffffffffffff\n      and\n        /* \"SCafe.sol\":4912:4918  sender */\n      dup5\n        /* \"SCafe.sol\":4912:4934  sender != address(0x0) */\n      0xffffffffffffffffffffffffffffffffffffffff\n      and\n      eq\n      iszero\n        /* \"SCafe.sol\":4912:4963  sender != address(0x0) && recipient != address(0x0) */\n      dup1\n      iszero\n      tag_178\n      jumpi\n      pop\n        /* \"SCafe.sol\":4959:4962  0x0 */\n      0x00\n        /* \"SCafe.sol\":4938:4963  recipient != address(0x0) */\n      0xffffffffffffffffffffffffffffffffffffffff\n      and\n        /* \"SCafe.sol\":4938:4947  recipient */\n      dup4\n        /* \"SCafe.sol\":4938:4963  recipient != address(0x0) */\n      0xffffffffffffffffffffffffffffffffffffffff\n      and\n      eq\n      iszero\n        /* \"SCafe.sol\":4912:4963  sender != address(0x0) && recipient != address(0x0) */\n    tag_178:\n        /* \"SCafe.sol\":4904:4983  require(sender != address(0x0) && recipient != address(0x0), \"Invalid address\") */\n      tag_179\n      jumpi\n      mload(0x40)\n      0x08c379a000000000000000000000000000000000000000000000000000000000\n      dup2\n      mstore\n      0x04\n      add\n      tag_180\n      swap1\n      tag_181\n      jump\t// in\n    tag_180:\n      mload(0x40)\n      dup1\n      swap2\n      sub\n      swap1\n      revert\n    tag_179:\n        /* \"SCafe.sol\":5011:5012  0 */\n      0x00\n        /* \"SCafe.sol\":5002:5008  amount */\n      dup3\n        /* \"SCafe.sol\":5002:5012  amount > 0 */\n      gt\n        /* \"SCafe.sol\":4994:5035  require(amount > 0, \"Amount must be > 0\") */\n      tag_182\n      jumpi\n      mload(0x40)\n      0x08c379a000000000000000000000000000000000000000000000000000000000\n      dup2\n      mstore\n      0x04\n      add\n      tag_183\n      swap1\n      tag_184\n      jump\t// in\n    tag_183:\n      mload(0x40)\n      dup1\n      swap2\n      sub\n      swap1\n      revert\n    tag_182:\n        /* \"SCafe.sol\":5075:5081  amount */\n      dup2\n        /* \"SCafe.sol\":5054:5063  _balances */\n      0x06\n        /* \"SCafe.sol\":5054:5071  _balances[sender] */\n      0x00\n        /* \"SCafe.sol\":5064:5070  sender */\n      dup7\n        /* \"SCafe.sol\":5054:5071  _balances[sender] */\n      0xffffffffffffffffffffffffffffffffffffffff\n      and\n      0xffffffffffffffffffffffffffffffffffffffff\n      and\n      dup2\n      mstore\n      0x20\n      add\n      swap1\n      dup2\n      mstore\n      0x20\n      add\n      0x00\n      keccak256\n      sload\n        /* \"SCafe.sol\":5054:5081  _balances[sender] >= amount */\n      lt\n      iszero\n        /* \"SCafe.sol\":5046:5106  require(_balances[sender] >= amount, \"Insufficient balance\") */\n      tag_185\n      jumpi\n      mload(0x40)\n      0x08c379a000000000000000000000000000000000000000000000000000000000\n      dup2\n      mstore\n      0x04\n      add\n      tag_186\n      swap1\n      tag_187\n      jump\t// in\n    tag_186:\n      mload(0x40)\n      dup1\n      swap2\n      sub\n      swap1\n      revert\n    tag_185:\n        /* \"SCafe.sol\":5160:5166  amount */\n      dup2\n        /* \"SCafe.sol\":5125:5136  _allowances */\n      0x07\n        /* \"SCafe.sol\":5125:5144  _allowances[sender] */\n      0x00\n        /* \"SCafe.sol\":5137:5143  sender */\n      dup7\n        /* \"SCafe.sol\":5125:5144  _allowances[sender] */\n      0xffffffffffffffffffffffffffffffffffffffff\n      and\n      0xffffffffffffffffffffffffffffffffffffffff\n      and\n      dup2\n      mstore\n      0x20\n      add\n      swap1\n      dup2\n      mstore\n      0x20\n      add\n      0x00\n      keccak256\n        /* \"SCafe.sol\":5125:5156  _allowances[sender][msg.sender] */\n      0x00\n        /* \"SCafe.sol\":5145:5155  msg.sender */\n      caller\n        /* \"SCafe.sol\":5125:5156  _allowances[sender][msg.sender] */\n      0xffffffffffffffffffffffffffffffffffffffff\n      and\n      0xffffffffffffffffffffffffffffffffffffffff\n      and\n      dup2\n      mstore\n      0x20\n      add\n      swap1\n      dup2\n      mstore\n      0x20\n      add\n      0x00\n      keccak256\n      sload\n        /* \"SCafe.sol\":5125:5166  _allowances[sender][msg.sender] >= amount */\n      lt\n      iszero\n        /* \"SCafe.sol\":5117:5189  require(_allowances[sender][msg.sender] >= amount, \"Allowance exceeded\") */\n      tag_188\n      jumpi\n      mload(0x40)\n      0x08c379a000000000000000000000000000000000000000000000000000000000\n      dup2\n      mstore\n      0x04\n      add\n      tag_189\n      swap1\n      tag_190\n      jump\t// in\n    tag_189:\n      mload(0x40)\n      dup1\n      swap2\n      sub\n      swap1\n      revert\n    tag_188:\n        /* \"SCafe.sol\":5223:5229  amount */\n      dup2\n        /* \"SCafe.sol\":5202:5211  _balances */\n      0x06\n        /* \"SCafe.sol\":5202:5219  _balances[sender] */\n      0x00\n        /* \"SCafe.sol\":5212:5218  sender */\n      dup7\n        /* \"SCafe.sol\":5202:5219  _balances[sender] */\n      0xffffffffffffffffffffffffffffffffffffffff\n      and\n      0xffffffffffffffffffffffffffffffffffffffff\n      and\n      dup2\n      mstore\n      0x20\n      add\n      swap1\n      dup2\n      mstore\n      0x20\n      add\n      0x00\n      keccak256\n      0x00\n        /* \"SCafe.sol\":5202:5229  _balances[sender] -= amount */\n      dup3\n      dup3\n      sload\n      tag_191\n      swap2\n      swap1\n      tag_192\n      jump\t// in\n    tag_191:\n      swap3\n      pop\n      pop\n      dup2\n      swap1\n      sstore\n      pop\n        /* \"SCafe.sol\":5264:5270  amount */\n      dup2\n        /* \"SCafe.sol\":5240:5249  _balances */\n      0x06\n        /* \"SCafe.sol\":5240:5260  _balances[recipient] */\n      0x00\n        /* \"SCafe.sol\":5250:5259  recipient */\n      dup6\n        /* \"SCafe.sol\":5240:5260  _balances[recipient] */\n      0xffffffffffffffffffffffffffffffffffffffff\n      and\n      0xffffffffffffffffffffffffffffffffffffffff\n      and\n      dup2\n      mstore\n      0x20\n      add\n      swap1\n      dup2\n      mstore\n      0x20\n      add\n      0x00\n      keccak256\n      0x00\n        /* \"SCafe.sol\":5240:5270  _balances[recipient] += amount */\n      dup3\n      dup3\n      sload\n      tag_193\n      swap2\n      swap1\n      tag_194\n      jump\t// in\n    tag_193:\n      swap3\n      pop\n      pop\n      dup2\n      swap1\n      sstore\n      pop\n        /* \"SCafe.sol\":5316:5322  amount */\n      dup2\n        /* \"SCafe.sol\":5281:5292  _allowances */\n      0x07\n        /* \"SCafe.sol\":5281:5300  _allowances[sender] */\n      0x00\n        /* \"SCafe.sol\":5293:5299  sender */\n      dup7\n        /* \"SCafe.sol\":5281:5300  _allowances[sender] */\n      0xffffffffffffffffffffffffffffffffffffffff\n      and\n      0xffffffffffffffffffffffffffffffffffffffff\n      and\n      dup2\n      mstore\n      0x20\n      add\n      swap1\n      dup2\n      mstore\n      0x20\n      add\n      0x00\n      keccak256\n        /* \"SCafe.sol\":5281:5312  _allowances[sender][msg.sender] */\n      0x00\n        /* \"SCafe.sol\":5301:5311  msg.sender */\n      caller\n        /* \"SCafe.sol\":5281:5312  _allowances[sender][msg.sender] */\n      0xffffffffffffffffffffffffffffffffffffffff\n      and\n      0xffffffffffffffffffffffffffffffffffffffff\n      and\n      dup2\n      mstore\n      0x20\n      add\n      swap1\n      dup2\n      mstore\n      0x20\n      add\n      0x00\n      keccak256\n      0x00\n        /* \"SCafe.sol\":5281:5322  _allowances[sender][msg.sender] -= amount */\n      dup3\n      dup3\n      sload\n      tag_195\n      swap2\n      swap1\n      tag_192\n      jump\t// in\n    tag_195:\n      swap3\n      pop\n      pop\n      dup2\n      swap1\n      sstore\n      pop\n        /* \"SCafe.sol\":5357:5366  recipient */\n      dup3\n        /* \"SCafe.sol\":5340:5375  Transfer(sender, recipient, amount) */\n      0xffffffffffffffffffffffffffffffffffffffff\n      and\n        /* \"SCafe.sol\":5349:5355  sender */\n      dup5\n        /* \"SCafe.sol\":5340:5375  Transfer(sender, recipient, amount) */\n      0xffffffffffffffffffffffffffffffffffffffff\n      and\n      0xddf252ad1be2c89b69c2b068fc378daa952ba7f163c4a11628f55a4df523b3ef\n        /* \"SCafe.sol\":5368:5374  amount */\n      dup5\n        /* \"SCafe.sol\":5340:5375  Transfer(sender, recipient, amount) */\n      mload(0x40)\n      tag_196\n      swap2\n      swap1\n      tag_53\n      jump\t// in\n    tag_196:\n      mload(0x40)\n      dup1\n      swap2\n      sub\n      swap1\n      log3\n        /* \"SCafe.sol\":5393:5397  true */\n      0x01\n        /* \"SCafe.sol\":5386:5397  return true */\n      swap1\n      pop\n        /* \"SCafe.sol\":4773:5405  function transferFrom(address sender, address recipient, uint256 amount) public whenNotPaused whenActive returns (bool) {... */\n      swap4\n      swap3\n      pop\n      pop\n      pop\n      jump\t// out\n        /* \"SCafe.sol\":5710:5819  function getOriginalName() public view returns (string memory) {... */\n    tag_70:\n        /* \"SCafe.sol\":5758:5771  string memory */\n      0x60\n        /* \"SCafe.sol\":5791:5804  btcbrOriginal */\n      0x08\n      0x00\n      swap1\n      sload\n      swap1\n      0x0100\n      exp\n      swap1\n      div\n      0xffffffffffffffffffffffffffffffffffffffff\n      and\n        /* \"SCafe.sol\":5791:5809  btcbrOriginal.name */\n      0xffffffffffffffffffffffffffffffffffffffff\n      and\n      0x06fdde03\n        /* \"SCafe.sol\":5791:5811  btcbrOriginal.name() */\n      mload(0x40)\n      dup2\n      0xffffffff\n      and\n      0xe0\n      shl\n      dup2\n      mstore\n      0x04\n      add\n      0x00\n      mload(0x40)\n      dup1\n      dup4\n      sub\n      dup2\n      dup7\n      gas\n      staticcall\n      iszero\n      dup1\n      iszero\n      tag_199\n      jumpi\n      returndatacopy(0x00, 0x00, returndatasize)\n      revert(0x00, returndatasize)\n    tag_199:\n      pop\n      pop\n      pop\n      pop\n      mload(0x40)\n      returndatasize\n      0x00\n      dup3\n      returndatacopy\n      returndatasize\n      not(0x1f)\n      0x1f\n      dup3\n      add\n      and\n      dup3\n      add\n      dup1\n      0x40\n      mstore\n      pop\n      dup2\n      add\n      swap1\n      tag_200\n      swap2\n      swap1\n      tag_201\n      jump\t// in\n    tag_200:\n        /* \"SCafe.sol\":5784:5811  return btcbrOriginal.name() */\n      swap1\n      pop\n        /* \"SCafe.sol\":5710:5819  function getOriginalName() public view returns (string memory) {... */\n      swap1\n      jump\t// out\n        /* \"SCafe.sol\":1158:1196  uint8 public decimals = TOKEN_DECIMALS */\n    tag_74:\n      0x02\n      0x00\n      swap1\n      sload\n      swap1\n      0x0100\n      exp\n      swap1\n      div\n      0xff\n      and\n      dup2\n      jump\t// out\n        /* \"SCafe.sol\":3036:3141  function unpause() public onlyOwner {... */\n    tag_79:\n        /* \"SCafe.sol\":2342:2355  contractOwner */\n      0x05\n      0x00\n      swap1\n      sload\n      swap1\n      0x0100\n      exp\n      swap1\n      div\n      0xffffffffffffffffffffffffffffffffffffffff\n      and\n        /* \"SCafe.sol\":2328:2355  msg.sender == contractOwner */\n      0xffffffffffffffffffffffffffffffffffffffff\n      and\n        /* \"SCafe.sol\":2328:2338  msg.sender */\n      caller\n        /* \"SCafe.sol\":2328:2355  msg.sender == contractOwner */\n      0xffffffffffffffffffffffffffffffffffffffff\n      and\n      eq\n        /* \"SCafe.sol\":2320:2393  require(msg.sender == contractOwner, \"Only owner can call this function\") */\n      tag_203\n      jumpi\n      mload(0x40)\n      0x08c379a000000000000000000000000000000000000000000000000000000000\n      dup2\n      mstore\n      0x04\n      add\n      tag_204\n      swap1\n      tag_164\n      jump\t// in\n    tag_204:\n      mload(0x40)\n      dup1\n      swap2\n      sub\n      swap1\n      revert\n    tag_203:\n        /* \"SCafe.sol\":3092:3097  false */\n      0x00\n        /* \"SCafe.sol\":3083:3089  paused */\n      0x05\n      0x14\n        /* \"SCafe.sol\":3083:3097  paused = false */\n      0x0100\n      exp\n      dup2\n      sload\n      dup2\n      0xff\n      mul\n      not\n      and\n      swap1\n      dup4\n      iszero\n      iszero\n      mul\n      or\n      swap1\n      sstore\n      pop\n        /* \"SCafe.sol\":3122:3132  msg.sender */\n      caller\n        /* \"SCafe.sol\":3113:3133  Unpaused(msg.sender) */\n      0xffffffffffffffffffffffffffffffffffffffff\n      and\n      0x5db9ee0a495bf2e6ff9c91a7834c1ba4fdd244a5e8aa4e537bd38aeae4b073aa\n      mload(0x40)\n      mload(0x40)\n      dup1\n      swap2\n      sub\n      swap1\n      log2\n        /* \"SCafe.sol\":3036:3141  function unpause() public onlyOwner {... */\n      jump\t// out\n        /* \"SCafe.sol\":1429:1456  bool public lockedForUpdate */\n    tag_82:\n      0x05\n      0x16\n      swap1\n      sload\n      swap1\n      0x0100\n      exp\n      swap1\n      div\n      0xff\n      and\n      dup2\n      jump\t// out\n        /* \"SCafe.sol\":1375:1393  bool public paused */\n    tag_86:\n      0x05\n      0x14\n      swap1\n      sload\n      swap1\n      0x0100\n      exp\n      swap1\n      div\n      0xff\n      and\n      dup2\n      jump\t// out\n        /* \"SCafe.sol\":6073:6293  function getOriginalBalance(address account) public returns (uint256) {... */\n    tag_92:\n        /* \"SCafe.sol\":6134:6141  uint256 */\n      0x00\n        /* \"SCafe.sol\":6154:6169  uint256 balance */\n      0x00\n        /* \"SCafe.sol\":6172:6185  btcbrOriginal */\n      0x08\n      0x00\n      swap1\n      sload\n      swap1\n      0x0100\n      exp\n      swap1\n      div\n      0xffffffffffffffffffffffffffffffffffffffff\n      and\n        /* \"SCafe.sol\":6172:6195  btcbrOriginal.balanceOf */\n      0xffffffffffffffffffffffffffffffffffffffff\n      and\n      0x70a08231\n        /* \"SCafe.sol\":6196:6203  account */\n      dup5\n        /* \"SCafe.sol\":6172:6204  btcbrOriginal.balanceOf(account) */\n      mload(0x40)\n      dup3\n      0xffffffff\n      and\n      0xe0\n      shl\n      dup2\n      mstore\n      0x04\n      add\n      tag_207\n      swap2\n      swap1\n      tag_131\n      jump\t// in\n    tag_207:\n      0x20\n      mload(0x40)\n      dup1\n      dup4\n      sub\n      dup2\n      dup7\n      gas\n      staticcall\n      iszero\n      dup1\n      iszero\n      tag_209\n      jumpi\n      returndatacopy(0x00, 0x00, returndatasize)\n      revert(0x00, returndatasize)\n    tag_209:\n      pop\n      pop\n      pop\n      pop\n      mload(0x40)\n      returndatasize\n      not(0x1f)\n      0x1f\n      dup3\n      add\n      and\n      dup3\n      add\n      dup1\n      0x40\n      mstore\n      pop\n      dup2\n      add\n      swap1\n      tag_210\n      swap2\n      swap1\n      tag_170\n      jump\t// in\n    tag_210:\n        /* \"SCafe.sol\":6154:6204  uint256 balance = btcbrOriginal.balanceOf(account) */\n      swap1\n      pop\n        /* \"SCafe.sol\":6243:6250  account */\n      dup3\n        /* \"SCafe.sol\":6220:6260  OriginalBalanceChecked(account, balance) */\n      0xffffffffffffffffffffffffffffffffffffffff\n      and\n      0xdbd71032b7681ee8e00cb6f187d955fdfc8cfb5302b98a717b033ab45bf21e64\n        /* \"SCafe.sol\":6252:6259  balance */\n      dup3\n        /* \"SCafe.sol\":6220:6260  OriginalBalanceChecked(account, balance) */\n      mload(0x40)\n      tag_211\n      swap2\n      swap1\n      tag_53\n      jump\t// in\n    tag_211:\n      mload(0x40)\n      dup1\n      swap2\n      sub\n      swap1\n      log2\n        /* \"SCafe.sol\":6278:6285  balance */\n      dup1\n        /* \"SCafe.sol\":6271:6285  return balance */\n      swap2\n      pop\n      pop\n        /* \"SCafe.sol\":6073:6293  function getOriginalBalance(address account) public returns (uint256) {... */\n      swap2\n      swap1\n      pop\n      jump\t// out\n        /* \"SCafe.sol\":1279:1317  string public logoURI = TOKEN_LOGO_URI */\n    tag_96:\n      0x04\n      dup1\n      sload\n      tag_212\n      swap1\n      tag_143\n      jump\t// in\n    tag_212:\n      dup1\n      0x1f\n      add\n      0x20\n      dup1\n      swap2\n      div\n      mul\n      0x20\n      add\n      mload(0x40)\n      swap1\n      dup2\n      add\n      0x40\n      mstore\n      dup1\n      swap3\n      swap2\n      swap1\n      dup2\n      dup2\n      mstore\n      0x20\n      add\n      dup3\n      dup1\n      sload\n      tag_213\n      swap1\n      tag_143\n      jump\t// in\n    tag_213:\n      dup1\n      iszero\n      tag_214\n      jumpi\n      dup1\n      0x1f\n      lt\n      tag_215\n      jumpi\n      0x0100\n      dup1\n      dup4\n      sload\n      div\n      mul\n      dup4\n      mstore\n      swap2\n      0x20\n      add\n      swap2\n      jump(tag_214)\n    tag_215:\n      dup3\n      add\n      swap2\n      swap1\n      0x00\n      mstore\n      keccak256(0x00, 0x20)\n      swap1\n    tag_216:\n      dup2\n      sload\n      dup2\n      mstore\n      swap1\n      0x01\n      add\n      swap1\n      0x20\n      add\n      dup1\n      dup4\n      gt\n      tag_216\n      jumpi\n      dup3\n      swap1\n      sub\n      0x1f\n      and\n      dup3\n      add\n      swap2\n    tag_214:\n      pop\n      pop\n      pop\n      pop\n      pop\n      dup2\n      jump\t// out\n        /* \"SCafe.sol\":5413:5523  function balanceOf(address account) public view returns (uint256) {... */\n    tag_101:\n        /* \"SCafe.sol\":5470:5477  uint256 */\n      0x00\n        /* \"SCafe.sol\":5497:5506  _balances */\n      0x06\n        /* \"SCafe.sol\":5497:5515  _balances[account] */\n      0x00\n        /* \"SCafe.sol\":5507:5514  account */\n      dup4\n        /* \"SCafe.sol\":5497:5515  _balances[account] */\n      0xffffffffffffffffffffffffffffffffffffffff\n      and\n      0xffffffffffffffffffffffffffffffffffffffff\n      and\n      dup2\n      mstore\n      0x20\n      add\n      swap1\n      dup2\n      mstore\n      0x20\n      add\n      0x00\n      keccak256\n      sload\n        /* \"SCafe.sol\":5490:5515  return _balances[account] */\n      swap1\n      pop\n        /* \"SCafe.sol\":5413:5523  function balanceOf(address account) public view returns (uint256) {... */\n      swap2\n      swap1\n      pop\n      jump\t// out\n        /* \"SCafe.sol\":3859:3940  function lockUpdates() public onlyOwner {... */\n    tag_105:\n        /* \"SCafe.sol\":2342:2355  contractOwner */\n      0x05\n      0x00\n      swap1\n      sload\n      swap1\n      0x0100\n      exp\n      swap1\n      div\n      0xffffffffffffffffffffffffffffffffffffffff\n      and\n        /* \"SCafe.sol\":2328:2355  msg.sender == contractOwner */\n      0xffffffffffffffffffffffffffffffffffffffff\n      and\n        /* \"SCafe.sol\":2328:2338  msg.sender */\n      caller\n        /* \"SCafe.sol\":2328:2355  msg.sender == contractOwner */\n      0xffffffffffffffffffffffffffffffffffffffff\n      and\n      eq\n        /* \"SCafe.sol\":2320:2393  require(msg.sender == contractOwner, \"Only owner can call this function\") */\n      tag_219\n      jumpi\n      mload(0x40)\n      0x08c379a000000000000000000000000000000000000000000000000000000000\n      dup2\n      mstore\n      0x04\n      add\n      tag_220\n      swap1\n      tag_164\n      jump\t// in\n    tag_220:\n      mload(0x40)\n      dup1\n      swap2\n      sub\n      swap1\n      revert\n    tag_219:\n        /* \"SCafe.sol\":3928:3932  true */\n      0x01\n        /* \"SCafe.sol\":3910:3925  lockedForUpdate */\n      0x05\n      0x16\n        /* \"SCafe.sol\":3910:3932  lockedForUpdate = true */\n      0x0100\n      exp\n      dup2\n      sload\n      dup2\n      0xff\n      mul\n      not\n      and\n      swap1\n      dup4\n      iszero\n      iszero\n      mul\n      or\n      swap1\n      sstore\n      pop\n        /* \"SCafe.sol\":3859:3940  function lockUpdates() public onlyOwner {... */\n      jump\t// out\n        /* \"SCafe.sol\":2928:3028  function pause() public onlyOwner {... */\n    tag_108:\n        /* \"SCafe.sol\":2342:2355  contractOwner */\n      0x05\n      0x00\n      swap1\n      sload\n      swap1\n      0x0100\n      exp\n      swap1\n      div\n      0xffffffffffffffffffffffffffffffffffffffff\n      and\n        /* \"SCafe.sol\":2328:2355  msg.sender == contractOwner */\n      0xffffffffffffffffffffffffffffffffffffffff\n      and\n        /* \"SCafe.sol\":2328:2338  msg.sender */\n      caller\n        /* \"SCafe.sol\":2328:2355  msg.sender == contractOwner */\n      0xffffffffffffffffffffffffffffffffffffffff\n      and\n      eq\n        /* \"SCafe.sol\":2320:2393  require(msg.sender == contractOwner, \"Only owner can call this function\") */\n      tag_223\n      jumpi\n      mload(0x40)\n      0x08c379a000000000000000000000000000000000000000000000000000000000\n      dup2\n      mstore\n      0x04\n      add\n      tag_224\n      swap1\n      tag_164\n      jump\t// in\n    tag_224:\n      mload(0x40)\n      dup1\n      swap2\n      sub\n      swap1\n      revert\n    tag_223:\n        /* \"SCafe.sol\":2982:2986  true */\n      0x01\n        /* \"SCafe.sol\":2973:2979  paused */\n      0x05\n      0x14\n        /* \"SCafe.sol\":2973:2986  paused = true */\n      0x0100\n      exp\n      dup2\n      sload\n      dup2\n      0xff\n      mul\n      not\n      and\n      swap1\n      dup4\n      iszero\n      iszero\n      mul\n      or\n      swap1\n      sstore\n      pop\n        /* \"SCafe.sol\":3009:3019  msg.sender */\n      caller\n        /* \"SCafe.sol\":3002:3020  Paused(msg.sender) */\n      0xffffffffffffffffffffffffffffffffffffffff\n      and\n      0x62e78cea01bee320cd4e420270b5ea74000d11b0c9f74754ebdbfc544b05a258\n      mload(0x40)\n      mload(0x40)\n      dup1\n      swap2\n      sub\n      swap1\n      log2\n        /* \"SCafe.sol\":2928:3028  function pause() public onlyOwner {... */\n      jump\t// out\n        /* \"SCafe.sol\":3605:3767  function updateSettings(string memory newLogoURI) public onlyOwner whenUnlocked {... */\n    tag_113:\n        /* \"SCafe.sol\":2342:2355  contractOwner */\n      0x05\n      0x00\n      swap1\n      sload\n      swap1\n      0x0100\n      exp\n      swap1\n      div\n      0xffffffffffffffffffffffffffffffffffffffff\n      and\n        /* \"SCafe.sol\":2328:2355  msg.sender == contractOwner */\n      0xffffffffffffffffffffffffffffffffffffffff\n      and\n        /* \"SCafe.sol\":2328:2338  msg.sender */\n      caller\n        /* \"SCafe.sol\":2328:2355  msg.sender == contractOwner */\n      0xffffffffffffffffffffffffffffffffffffffff\n      and\n      eq\n        /* \"SCafe.sol\":2320:2393  require(msg.sender == contractOwner, \"Only owner can call this function\") */\n      tag_227\n      jumpi\n      mload(0x40)\n      0x08c379a000000000000000000000000000000000000000000000000000000000\n      dup2\n      mstore\n      0x04\n      add\n      tag_228\n      swap1\n      tag_164\n      jump\t// in\n    tag_228:\n      mload(0x40)\n      dup1\n      swap2\n      sub\n      swap1\n      revert\n    tag_227:\n        /* \"SCafe.sol\":2683:2698  lockedForUpdate */\n      0x05\n      0x16\n      swap1\n      sload\n      swap1\n      0x0100\n      exp\n      swap1\n      div\n      0xff\n      and\n        /* \"SCafe.sol\":2682:2698  !lockedForUpdate */\n      iszero\n        /* \"SCafe.sol\":2674:2721  require(!lockedForUpdate, \"Updates are locked\") */\n      tag_230\n      jumpi\n      mload(0x40)\n      0x08c379a000000000000000000000000000000000000000000000000000000000\n      dup2\n      mstore\n      0x04\n      add\n      tag_231\n      swap1\n      tag_232\n      jump\t// in\n    tag_231:\n      mload(0x40)\n      dup1\n      swap2\n      sub\n      swap1\n      revert\n    tag_230:\n        /* \"SCafe.sol\":3706:3716  newLogoURI */\n      dup1\n        /* \"SCafe.sol\":3696:3703  logoURI */\n      0x04\n        /* \"SCafe.sol\":3696:3716  logoURI = newLogoURI */\n      swap1\n      dup2\n      tag_234\n      swap2\n      swap1\n      tag_235\n      jump\t// in\n    tag_234:\n      pop\n        /* \"SCafe.sol\":3732:3759  SettingsUpdated(newLogoURI) */\n      0xc059db0a2349eaa5d107d9598d56ad83aa565bd7c132ac1fbfe8f86f0ee4ea76\n        /* \"SCafe.sol\":3748:3758  newLogoURI */\n      dup2\n        /* \"SCafe.sol\":3732:3759  SettingsUpdated(newLogoURI) */\n      mload(0x40)\n      tag_236\n      swap2\n      swap1\n      tag_38\n      jump\t// in\n    tag_236:\n      mload(0x40)\n      dup1\n      swap2\n      sub\n      swap1\n      log1\n        /* \"SCafe.sol\":3605:3767  function updateSettings(string memory newLogoURI) public onlyOwner whenUnlocked {... */\n      pop\n      jump\t// out\n        /* \"SCafe.sol\":1116:1151  string public symbol = TOKEN_SYMBOL */\n    tag_116:\n      0x01\n      dup1\n      sload\n      tag_237\n      swap1\n      tag_143\n      jump\t// in\n    tag_237:\n      dup1\n      0x1f\n      add\n      0x20\n      dup1\n      swap2\n      div\n      mul\n      0x20\n      add\n      mload(0x40)\n      swap1\n      dup2\n      add\n      0x40\n      mstore\n      dup1\n      swap3\n      swap2\n      swap1\n      dup2\n      dup2\n      mstore\n      0x20\n      add\n      dup3\n      dup1\n      sload\n      tag_238\n      swap1\n      tag_143\n      jump\t// in\n    tag_238:\n      dup1\n      iszero\n      tag_239\n      jumpi\n      dup1\n      0x1f\n      lt\n      tag_240\n      jumpi\n      0x0100\n      dup1\n      dup4\n      sload\n      div\n      mul\n      dup4\n      mstore\n      swap2\n      0x20\n      add\n      swap2\n      jump(tag_239)\n    tag_240:\n      dup3\n      add\n      swap2\n      swap1\n      0x00\n      mstore\n      keccak256(0x00, 0x20)\n      swap1\n    tag_241:\n      dup2\n      sload\n      dup2\n      mstore\n      swap1\n      0x01\n      add\n      swap1\n      0x20\n      add\n      dup1\n      dup4\n      gt\n      tag_241\n      jumpi\n      dup3\n      swap1\n      sub\n      0x1f\n      and\n      dup3\n      add\n      swap2\n    tag_239:\n      pop\n      pop\n      pop\n      pop\n      pop\n      dup2\n      jump\t// out\n        /* \"SCafe.sol\":5827:5940  function getOriginalSymbol() public view returns (string memory) {... */\n    tag_120:\n        /* \"SCafe.sol\":5877:5890  string memory */\n      0x60\n        /* \"SCafe.sol\":5910:5923  btcbrOriginal */\n      0x08\n      0x00\n      swap1\n      sload\n      swap1\n      0x0100\n      exp\n      swap1\n      div\n      0xffffffffffffffffffffffffffffffffffffffff\n      and\n        /* \"SCafe.sol\":5910:5930  btcbrOriginal.symbol */\n      0xffffffffffffffffffffffffffffffffffffffff\n      and\n      0x95d89b41\n        /* \"SCafe.sol\":5910:5932  btcbrOriginal.symbol() */\n      mload(0x40)\n      dup2\n      0xffffffff\n      and\n      0xe0\n      shl\n      dup2\n      mstore\n      0x04\n      add\n      0x00\n      mload(0x40)\n      dup1\n      dup4\n      sub\n      dup2\n      dup7\n      gas\n      staticcall\n      iszero\n      dup1\n      iszero\n      tag_244\n      jumpi\n      returndatacopy(0x00, 0x00, returndatasize)\n      revert(0x00, returndatasize)\n    tag_244:\n      pop\n      pop\n      pop\n      pop\n      mload(0x40)\n      returndatasize\n      0x00\n      dup3\n      returndatacopy\n      returndatasize\n      not(0x1f)\n      0x1f\n      dup3\n      add\n      and\n      dup3\n      add\n      dup1\n      0x40\n      mstore\n      pop\n      dup2\n      add\n      swap1\n      tag_245\n      swap2\n      swap1\n      tag_201\n      jump\t// in\n    tag_245:\n        /* \"SCafe.sol\":5903:5932  return btcbrOriginal.symbol() */\n      swap1\n      pop\n        /* \"SCafe.sol\":5827:5940  function getOriginalSymbol() public view returns (string memory) {... */\n      swap1\n      jump\t// out\n        /* \"SCafe.sol\":3981:4453  function transfer(address recipient, uint256 amount) public whenNotPaused whenActive returns (bool) {... */\n    tag_125:\n        /* \"SCafe.sol\":4075:4079  bool */\n      0x00\n        /* \"SCafe.sol\":2466:2472  paused */\n      0x05\n      0x14\n      swap1\n      sload\n      swap1\n      0x0100\n      exp\n      swap1\n      div\n      0xff\n      and\n        /* \"SCafe.sol\":2465:2472  !paused */\n      iszero\n        /* \"SCafe.sol\":2457:2495  require(!paused, \"Contract is paused\") */\n      tag_247\n      jumpi\n      mload(0x40)\n      0x08c379a000000000000000000000000000000000000000000000000000000000\n      dup2\n      mstore\n      0x04\n      add\n      tag_248\n      swap1\n      tag_151\n      jump\t// in\n    tag_248:\n      mload(0x40)\n      dup1\n      swap2\n      sub\n      swap1\n      revert\n    tag_247:\n        /* \"SCafe.sol\":2565:2575  terminated */\n      0x05\n      0x15\n      swap1\n      sload\n      swap1\n      0x0100\n      exp\n      swap1\n      div\n      0xff\n      and\n        /* \"SCafe.sol\":2564:2575  !terminated */\n      iszero\n        /* \"SCafe.sol\":2556:2611  require(!terminated, \"Contract permanently terminated\") */\n      tag_250\n      jumpi\n      mload(0x40)\n      0x08c379a000000000000000000000000000000000000000000000000000000000\n      dup2\n      mstore\n      0x04\n      add\n      tag_251\n      swap1\n      tag_155\n      jump\t// in\n    tag_251:\n      mload(0x40)\n      dup1\n      swap2\n      sub\n      swap1\n      revert\n    tag_250:\n        /* \"SCafe.sol\":4121:4124  0x0 */\n      0x00\n        /* \"SCafe.sol\":4100:4125  recipient != address(0x0) */\n      0xffffffffffffffffffffffffffffffffffffffff\n      and\n        /* \"SCafe.sol\":4100:4109  recipient */\n      dup4\n        /* \"SCafe.sol\":4100:4125  recipient != address(0x0) */\n      0xffffffffffffffffffffffffffffffffffffffff\n      and\n      sub\n        /* \"SCafe.sol\":4092:4154  require(recipient != address(0x0), \"Transfer to zero address\") */\n      tag_253\n      jumpi\n      mload(0x40)\n      0x08c379a000000000000000000000000000000000000000000000000000000000\n      dup2\n      mstore\n      0x04\n      add\n      tag_254\n      swap1\n      tag_255\n      jump\t// in\n    tag_254:\n      mload(0x40)\n      dup1\n      swap2\n      sub\n      swap1\n      revert\n    tag_253:\n        /* \"SCafe.sol\":4182:4183  0 */\n      0x00\n        /* \"SCafe.sol\":4173:4179  amount */\n      dup3\n        /* \"SCafe.sol\":4173:4183  amount > 0 */\n      gt\n        /* \"SCafe.sol\":4165:4206  require(amount > 0, \"Amount must be > 0\") */\n      tag_256\n      jumpi\n      mload(0x40)\n      0x08c379a000000000000000000000000000000000000000000000000000000000\n      dup2\n      mstore\n      0x04\n      add\n      tag_257\n      swap1\n      tag_184\n      jump\t// in\n    tag_257:\n      mload(0x40)\n      dup1\n      swap2\n      sub\n      swap1\n      revert\n    tag_256:\n        /* \"SCafe.sol\":4250:4256  amount */\n      dup2\n        /* \"SCafe.sol\":4225:4234  _balances */\n      0x06\n        /* \"SCafe.sol\":4225:4246  _balances[msg.sender] */\n      0x00\n        /* \"SCafe.sol\":4235:4245  msg.sender */\n      caller\n        /* \"SCafe.sol\":4225:4246  _balances[msg.sender] */\n      0xffffffffffffffffffffffffffffffffffffffff\n      and\n      0xffffffffffffffffffffffffffffffffffffffff\n      and\n      dup2\n      mstore\n      0x20\n      add\n      swap1\n      dup2\n      mstore\n      0x20\n      add\n      0x00\n      keccak256\n      sload\n        /* \"SCafe.sol\":4225:4256  _balances[msg.sender] >= amount */\n      lt\n      iszero\n        /* \"SCafe.sol\":4217:4281  require(_balances[msg.sender] >= amount, \"Insufficient balance\") */\n      tag_258\n      jumpi\n      mload(0x40)\n      0x08c379a000000000000000000000000000000000000000000000000000000000\n      dup2\n      mstore\n      0x04\n      add\n      tag_259\n      swap1\n      tag_187\n      jump\t// in\n    tag_259:\n      mload(0x40)\n      dup1\n      swap2\n      sub\n      swap1\n      revert\n    tag_258:\n        /* \"SCafe.sol\":4319:4325  amount */\n      dup2\n        /* \"SCafe.sol\":4294:4303  _balances */\n      0x06\n        /* \"SCafe.sol\":4294:4315  _balances[msg.sender] */\n      0x00\n        /* \"SCafe.sol\":4304:4314  msg.sender */\n      caller\n        /* \"SCafe.sol\":4294:4315  _balances[msg.sender] */\n      0xffffffffffffffffffffffffffffffffffffffff\n      and\n      0xffffffffffffffffffffffffffffffffffffffff\n      and\n      dup2\n      mstore\n      0x20\n      add\n      swap1\n      dup2\n      mstore\n      0x20\n      add\n      0x00\n      keccak256\n      0x00\n        /* \"SCafe.sol\":4294:4325  _balances[msg.sender] -= amount */\n      dup3\n      dup3\n      sload\n      tag_260\n      swap2\n      swap1\n      tag_192\n      jump\t// in\n    tag_260:\n      swap3\n      pop\n      pop\n      dup2\n      swap1\n      sstore\n      pop\n        /* \"SCafe.sol\":4360:4366  amount */\n      dup2\n        /* \"SCafe.sol\":4336:4345  _balances */\n      0x06\n        /* \"SCafe.sol\":4336:4356  _balances[recipient] */\n      0x00\n        /* \"SCafe.sol\":4346:4355  recipient */\n      dup6\n        /* \"SCafe.sol\":4336:4356  _balances[recipient] */\n      0xffffffffffffffffffffffffffffffffffffffff\n      and\n      0xffffffffffffffffffffffffffffffffffffffff\n      and\n      dup2\n      mstore\n      0x20\n      add\n      swap1\n      dup2\n      mstore\n      0x20\n      add\n      0x00\n      keccak256\n      0x00\n        /* \"SCafe.sol\":4336:4366  _balances[recipient] += amount */\n      dup3\n      dup3\n      sload\n      tag_261\n      swap2\n      swap1\n      tag_194\n      jump\t// in\n    tag_261:\n      swap3\n      pop\n      pop\n      dup2\n      swap1\n      sstore\n      pop\n        /* \"SCafe.sol\":4405:4414  recipient */\n      dup3\n        /* \"SCafe.sol\":4384:4423  Transfer(msg.sender, recipient, amount) */\n      0xffffffffffffffffffffffffffffffffffffffff\n      and\n        /* \"SCafe.sol\":4393:4403  msg.sender */\n      caller\n        /* \"SCafe.sol\":4384:4423  Transfer(msg.sender, recipient, amount) */\n      0xffffffffffffffffffffffffffffffffffffffff\n      and\n      0xddf252ad1be2c89b69c2b068fc378daa952ba7f163c4a11628f55a4df523b3ef\n        /* \"SCafe.sol\":4416:4422  amount */\n      dup5\n        /* \"SCafe.sol\":4384:4423  Transfer(msg.sender, recipient, amount) */\n      mload(0x40)\n      tag_262\n      swap2\n      swap1\n      tag_53\n      jump\t// in\n    tag_262:\n      mload(0x40)\n      dup1\n      swap2\n      sub\n      swap1\n      log3\n        /* \"SCafe.sol\":4441:4445  true */\n      0x01\n        /* \"SCafe.sol\":4434:4445  return true */\n      swap1\n      pop\n        /* \"SCafe.sol\":3981:4453  function transfer(address recipient, uint256 amount) public whenNotPaused whenActive returns (bool) {... */\n      swap3\n      swap2\n      pop\n      pop\n      jump\t// out\n        /* \"SCafe.sol\":1326:1368  address public contractOwner = TOKEN_OWNER */\n    tag_129:\n      0x05\n      0x00\n      swap1\n      sload\n      swap1\n      0x0100\n      exp\n      swap1\n      div\n      0xffffffffffffffffffffffffffffffffffffffff\n      and\n      dup2\n      jump\t// out\n        /* \"SCafe.sol\":5531:5665  function allowance(address owner, address spender) public view returns (uint256) {... */\n    tag_136:\n        /* \"SCafe.sol\":5603:5610  uint256 */\n      0x00\n        /* \"SCafe.sol\":5630:5641  _allowances */\n      0x07\n        /* \"SCafe.sol\":5630:5648  _allowances[owner] */\n      0x00\n        /* \"SCafe.sol\":5642:5647  owner */\n      dup5\n        /* \"SCafe.sol\":5630:5648  _allowances[owner] */\n      0xffffffffffffffffffffffffffffffffffffffff\n      and\n      0xffffffffffffffffffffffffffffffffffffffff\n      and\n      dup2\n      mstore\n      0x20\n      add\n      swap1\n      dup2\n      mstore\n      0x20\n      add\n      0x00\n      keccak256\n        /* \"SCafe.sol\":5630:5657  _allowances[owner][spender] */\n      0x00\n        /* \"SCafe.sol\":5649:5656  spender */\n      dup4\n        /* \"SCafe.sol\":5630:5657  _allowances[owner][spender] */\n      0xffffffffffffffffffffffffffffffffffffffff\n      and\n      0xffffffffffffffffffffffffffffffffffffffff\n      and\n      dup2\n      mstore\n      0x20\n      add\n      swap1\n      dup2\n      mstore\n      0x20\n      add\n      0x00\n      keccak256\n      sload\n        /* \"SCafe.sol\":5623:5657  return _allowances[owner][spender] */\n      swap1\n      pop\n        /* \"SCafe.sol\":5531:5665  function allowance(address owner, address spender) public view returns (uint256) {... */\n      swap3\n      swap2\n      pop\n      pop\n      jump\t// out\n        /* \"SCafe.sol\":3269:3512  function transferOwnership(address newOwner) public onlyOwner {... */\n    tag_141:\n        /* \"SCafe.sol\":2342:2355  contractOwner */\n      0x05\n      0x00\n      swap1\n      sload\n      swap1\n      0x0100\n      exp\n      swap1\n      div\n      0xffffffffffffffffffffffffffffffffffffffff\n      and\n        /* \"SCafe.sol\":2328:2355  msg.sender == contractOwner */\n      0xffffffffffffffffffffffffffffffffffffffff\n      and\n        /* \"SCafe.sol\":2328:2338  msg.sender */\n      caller\n        /* \"SCafe.sol\":2328:2355  msg.sender == contractOwner */\n      0xffffffffffffffffffffffffffffffffffffffff\n      and\n      eq\n        /* \"SCafe.sol\":2320:2393  require(msg.sender == contractOwner, \"Only owner can call this function\") */\n      tag_265\n      jumpi\n      mload(0x40)\n      0x08c379a000000000000000000000000000000000000000000000000000000000\n      dup2\n      mstore\n      0x04\n      add\n      tag_266\n      swap1\n      tag_164\n      jump\t// in\n    tag_266:\n      mload(0x40)\n      dup1\n      swap2\n      sub\n      swap1\n      revert\n    tag_265:\n        /* \"SCafe.sol\":3370:3373  0x0 */\n      0x00\n        /* \"SCafe.sol\":3350:3374  newOwner != address(0x0) */\n      0xffffffffffffffffffffffffffffffffffffffff\n      and\n        /* \"SCafe.sol\":3350:3358  newOwner */\n      dup2\n        /* \"SCafe.sol\":3350:3374  newOwner != address(0x0) */\n      0xffffffffffffffffffffffffffffffffffffffff\n      and\n      sub\n        /* \"SCafe.sol\":3342:3408  require(newOwner != address(0x0), \"New owner is the zero address\") */\n      tag_268\n      jumpi\n      mload(0x40)\n      0x08c379a000000000000000000000000000000000000000000000000000000000\n      dup2\n      mstore\n      0x04\n      add\n      tag_269\n      swap1\n      tag_270\n      jump\t// in\n    tag_269:\n      mload(0x40)\n      dup1\n      swap2\n      sub\n      swap1\n      revert\n    tag_268:\n        /* \"SCafe.sol\":3460:3468  newOwner */\n      dup1\n        /* \"SCafe.sol\":3424:3469  OwnershipTransferred(contractOwner, newOwner) */\n      0xffffffffffffffffffffffffffffffffffffffff\n      and\n        /* \"SCafe.sol\":3445:3458  contractOwner */\n      0x05\n      0x00\n      swap1\n      sload\n      swap1\n      0x0100\n      exp\n      swap1\n      div\n      0xffffffffffffffffffffffffffffffffffffffff\n      and\n        /* \"SCafe.sol\":3424:3469  OwnershipTransferred(contractOwner, newOwner) */\n      0xffffffffffffffffffffffffffffffffffffffff\n      and\n      0x8be0079c531659141344cd1fd0a4f28419497f9722a3daafe3b4186f6b6457e0\n      mload(0x40)\n      mload(0x40)\n      dup1\n      swap2\n      sub\n      swap1\n      log3\n        /* \"SCafe.sol\":3496:3504  newOwner */\n      dup1\n        /* \"SCafe.sol\":3480:3493  contractOwner */\n      0x05\n      0x00\n        /* \"SCafe.sol\":3480:3504  contractOwner = newOwner */\n      0x0100\n      exp\n      dup2\n      sload\n      dup2\n      0xffffffffffffffffffffffffffffffffffffffff\n      mul\n      not\n      and\n      swap1\n      dup4\n      0xffffffffffffffffffffffffffffffffffffffff\n      and\n      mul\n      or\n      swap1\n      sstore\n      pop\n        /* \"SCafe.sol\":3269:3512  function transferOwnership(address newOwner) public onlyOwner {... */\n      pop\n      jump\t// out\n        /* \"#utility.yul\":7:176   */\n    tag_271:\n        /* \"#utility.yul\":91:102   */\n      0x00\n        /* \"#utility.yul\":125:131   */\n      dup3\n        /* \"#utility.yul\":120:123   */\n      dup3\n        /* \"#utility.yul\":113:132   */\n      mstore\n        /* \"#utility.yul\":165:169   */\n      0x20\n        /* \"#utility.yul\":160:163   */\n      dup3\n        /* \"#utility.yul\":156:170   */\n      add\n        /* \"#utility.yul\":141:170   */\n      swap1\n      pop\n        /* \"#utility.yul\":7:176   */\n      swap3\n      swap2\n      pop\n      pop\n      jump\t// out\n        /* \"#utility.yul\":182:348   */\n    tag_272:\n        /* \"#utility.yul\":322:340   */\n      0x455448206e6f7420616363657074656400000000000000000000000000000000\n        /* \"#utility.yul\":318:319   */\n      0x00\n        /* \"#utility.yul\":310:316   */\n      dup3\n        /* \"#utility.yul\":306:320   */\n      add\n        /* \"#utility.yul\":299:341   */\n      mstore\n        /* \"#utility.yul\":182:348   */\n      pop\n      jump\t// out\n        /* \"#utility.yul\":354:720   */\n    tag_273:\n        /* \"#utility.yul\":496:499   */\n      0x00\n        /* \"#utility.yul\":517:584   */\n      tag_349\n        /* \"#utility.yul\":581:583   */\n      0x10\n        /* \"#utility.yul\":576:579   */\n      dup4\n        /* \"#utility.yul\":517:584   */\n      tag_271\n      jump\t// in\n    tag_349:\n        /* \"#utility.yul\":510:584   */\n      swap2\n      pop\n        /* \"#utility.yul\":593:686   */\n      tag_350\n        /* \"#utility.yul\":682:685   */\n      dup3\n        /* \"#utility.yul\":593:686   */\n      tag_272\n      jump\t// in\n    tag_350:\n        /* \"#utility.yul\":711:713   */\n      0x20\n        /* \"#utility.yul\":706:709   */\n      dup3\n        /* \"#utility.yul\":702:714   */\n      add\n        /* \"#utility.yul\":695:714   */\n      swap1\n      pop\n        /* \"#utility.yul\":354:720   */\n      swap2\n      swap1\n      pop\n      jump\t// out\n        /* \"#utility.yul\":726:1145   */\n    tag_33:\n        /* \"#utility.yul\":892:896   */\n      0x00\n        /* \"#utility.yul\":930:932   */\n      0x20\n        /* \"#utility.yul\":919:928   */\n      dup3\n        /* \"#utility.yul\":915:933   */\n      add\n        /* \"#utility.yul\":907:933   */\n      swap1\n      pop\n        /* \"#utility.yul\":979:988   */\n      dup2\n        /* \"#utility.yul\":973:977   */\n      dup2\n        /* \"#utility.yul\":969:989   */\n      sub\n        /* \"#utility.yul\":965:966   */\n      0x00\n        /* \"#utility.yul\":954:963   */\n      dup4\n        /* \"#utility.yul\":950:967   */\n      add\n        /* \"#utility.yul\":943:990   */\n      mstore\n        /* \"#utility.yul\":1007:1138   */\n      tag_352\n        /* \"#utility.yul\":1133:1137   */\n      dup2\n        /* \"#utility.yul\":1007:1138   */\n      tag_273\n      jump\t// in\n    tag_352:\n        /* \"#utility.yul\":999:1138   */\n      swap1\n      pop\n        /* \"#utility.yul\":726:1145   */\n      swap2\n      swap1\n      pop\n      jump\t// out\n        /* \"#utility.yul\":1151:1250   */\n    tag_274:\n        /* \"#utility.yul\":1203:1209   */\n      0x00\n        /* \"#utility.yul\":1237:1242   */\n      dup2\n        /* \"#utility.yul\":1231:1243   */\n      mload\n        /* \"#utility.yul\":1221:1243   */\n      swap1\n      pop\n        /* \"#utility.yul\":1151:1250   */\n      swap2\n      swap1\n      pop\n      jump\t// out\n        /* \"#utility.yul\":1256:1395   */\n    tag_275:\n        /* \"#utility.yul\":1345:1351   */\n      dup3\n        /* \"#utility.yul\":1340:1343   */\n      dup2\n        /* \"#utility.yul\":1335:1338   */\n      dup4\n        /* \"#utility.yul\":1329:1352   */\n      mcopy\n        /* \"#utility.yul\":1386:1387   */\n      0x00\n        /* \"#utility.yul\":1377:1383   */\n      dup4\n        /* \"#utility.yul\":1372:1375   */\n      dup4\n        /* \"#utility.yul\":1368:1384   */\n      add\n        /* \"#utility.yul\":1361:1388   */\n      mstore\n        /* \"#utility.yul\":1256:1395   */\n      pop\n      pop\n      pop\n      jump\t// out\n        /* \"#utility.yul\":1401:1503   */\n    tag_276:\n        /* \"#utility.yul\":1442:1448   */\n      0x00\n        /* \"#utility.yul\":1493:1495   */\n      0x1f\n        /* \"#utility.yul\":1489:1496   */\n      not\n        /* \"#utility.yul\":1484:1486   */\n      0x1f\n        /* \"#utility.yul\":1477:1482   */\n      dup4\n        /* \"#utility.yul\":1473:1487   */\n      add\n        /* \"#utility.yul\":1469:1497   */\n      and\n        /* \"#utility.yul\":1459:1497   */\n      swap1\n      pop\n        /* \"#utility.yul\":1401:1503   */\n      swap2\n      swap1\n      pop\n      jump\t// out\n        /* \"#utility.yul\":1509:1886   */\n    tag_277:\n        /* \"#utility.yul\":1597:1600   */\n      0x00\n        /* \"#utility.yul\":1625:1664   */\n      tag_357\n        /* \"#utility.yul\":1658:1663   */\n      dup3\n        /* \"#utility.yul\":1625:1664   */\n      tag_274\n      jump\t// in\n    tag_357:\n        /* \"#utility.yul\":1680:1751   */\n      tag_358\n        /* \"#utility.yul\":1744:1750   */\n      dup2\n        /* \"#utility.yul\":1739:1742   */\n      dup6\n        /* \"#utility.yul\":1680:1751   */\n      tag_271\n      jump\t// in\n    tag_358:\n        /* \"#utility.yul\":1673:1751   */\n      swap4\n      pop\n        /* \"#utility.yul\":1760:1825   */\n      tag_359\n        /* \"#utility.yul\":1818:1824   */\n      dup2\n        /* \"#utility.yul\":1813:1816   */\n      dup6\n        /* \"#utility.yul\":1806:1810   */\n      0x20\n        /* \"#utility.yul\":1799:1804   */\n      dup7\n        /* \"#utility.yul\":1795:1811   */\n      add\n        /* \"#utility.yul\":1760:1825   */\n      tag_275\n      jump\t// in\n    tag_359:\n        /* \"#utility.yul\":1850:1879   */\n      tag_360\n        /* \"#utility.yul\":1872:1878   */\n      dup2\n        /* \"#utility.yul\":1850:1879   */\n      tag_276\n      jump\t// in\n    tag_360:\n        /* \"#utility.yul\":1845:1848   */\n      dup5\n        /* \"#utility.yul\":1841:1880   */\n      add\n        /* \"#utility.yul\":1834:1880   */\n      swap2\n      pop\n        /* \"#utility.yul\":1601:1886   */\n      pop\n        /* \"#utility.yul\":1509:1886   */\n      swap3\n      swap2\n      pop\n      pop\n      jump\t// out\n        /* \"#utility.yul\":1892:2205   */\n    tag_38:\n        /* \"#utility.yul\":2005:2009   */\n      0x00\n        /* \"#utility.yul\":2043:2045   */\n      0x20\n        /* \"#utility.yul\":2032:2041   */\n      dup3\n        /* \"#utility.yul\":2028:2046   */\n      add\n        /* \"#utility.yul\":2020:2046   */\n      swap1\n      pop\n        /* \"#utility.yul\":2092:2101   */\n      dup2\n        /* \"#utility.yul\":2086:2090   */\n      dup2\n        /* \"#utility.yul\":2082:2102   */\n      sub\n        /* \"#utility.yul\":2078:2079   */\n      0x00\n        /* \"#utility.yul\":2067:2076   */\n      dup4\n        /* \"#utility.yul\":2063:2080   */\n      add\n        /* \"#utility.yul\":2056:2103   */\n      mstore\n        /* \"#utility.yul\":2120:2198   */\n      tag_362\n        /* \"#utility.yul\":2193:2197   */\n      dup2\n        /* \"#utility.yul\":2184:2190   */\n      dup5\n        /* \"#utility.yul\":2120:2198   */\n      tag_277\n      jump\t// in\n    tag_362:\n        /* \"#utility.yul\":2112:2198   */\n      swap1\n      pop\n        /* \"#utility.yul\":1892:2205   */\n      swap3\n      swap2\n      pop\n      pop\n      jump\t// out\n        /* \"#utility.yul\":2211:2286   */\n    tag_278:\n        /* \"#utility.yul\":2244:2250   */\n      0x00\n        /* \"#utility.yul\":2277:2279   */\n      0x40\n        /* \"#utility.yul\":2271:2280   */\n      mload\n        /* \"#utility.yul\":2261:2280   */\n      swap1\n      pop\n        /* \"#utility.yul\":2211:2286   */\n      swap1\n      jump\t// out\n        /* \"#utility.yul\":2292:2409   */\n    tag_279:\n        /* \"#utility.yul\":2401:2402   */\n      0x00\n        /* \"#utility.yul\":2398:2399   */\n      0x00\n        /* \"#utility.yul\":2391:2403   */\n      revert\n        /* \"#utility.yul\":2415:2532   */\n    tag_280:\n        /* \"#utility.yul\":2524:2525   */\n      0x00\n        /* \"#utility.yul\":2521:2522   */\n      0x00\n        /* \"#utility.yul\":2514:2526   */\n      revert\n        /* \"#utility.yul\":2538:2664   */\n    tag_281:\n        /* \"#utility.yul\":2575:2582   */\n      0x00\n        /* \"#utility.yul\":2615:2657   */\n      0xffffffffffffffffffffffffffffffffffffffff\n        /* \"#utility.yul\":2608:2613   */\n      dup3\n        /* \"#utility.yul\":2604:2658   */\n      and\n        /* \"#utility.yul\":2593:2658   */\n      swap1\n      pop\n        /* \"#utility.yul\":2538:2664   */\n      swap2\n      swap1\n      pop\n      jump\t// out\n        /* \"#utility.yul\":2670:2766   */\n    tag_282:\n        /* \"#utility.yul\":2707:2714   */\n      0x00\n        /* \"#utility.yul\":2736:2760   */\n      tag_368\n        /* \"#utility.yul\":2754:2759   */\n      dup3\n        /* \"#utility.yul\":2736:2760   */\n      tag_281\n      jump\t// in\n    tag_368:\n        /* \"#utility.yul\":2725:2760   */\n      swap1\n      pop\n        /* \"#utility.yul\":2670:2766   */\n      swap2\n      swap1\n      pop\n      jump\t// out\n        /* \"#utility.yul\":2772:2894   */\n    tag_283:\n        /* \"#utility.yul\":2845:2869   */\n      tag_370\n        /* \"#utility.yul\":2863:2868   */\n      dup2\n        /* \"#utility.yul\":2845:2869   */\n      tag_282\n      jump\t// in\n    tag_370:\n        /* \"#utility.yul\":2838:2843   */\n      dup2\n        /* \"#utility.yul\":2835:2870   */\n      eq\n        /* \"#utility.yul\":2825:2888   */\n      tag_371\n      jumpi\n        /* \"#utility.yul\":2884:2885   */\n      0x00\n        /* \"#utility.yul\":2881:2882   */\n      0x00\n        /* \"#utility.yul\":2874:2886   */\n      revert\n        /* \"#utility.yul\":2825:2888   */\n    tag_371:\n        /* \"#utility.yul\":2772:2894   */\n      pop\n      jump\t// out\n        /* \"#utility.yul\":2900:3039   */\n    tag_284:\n        /* \"#utility.yul\":2946:2951   */\n      0x00\n        /* \"#utility.yul\":2984:2990   */\n      dup2\n        /* \"#utility.yul\":2971:2991   */\n      calldataload\n        /* \"#utility.yul\":2962:2991   */\n      swap1\n      pop\n        /* \"#utility.yul\":3000:3033   */\n      tag_373\n        /* \"#utility.yul\":3027:3032   */\n      dup2\n        /* \"#utility.yul\":3000:3033   */\n      tag_283\n      jump\t// in\n    tag_373:\n        /* \"#utility.yul\":2900:3039   */\n      swap3\n      swap2\n      pop\n      pop\n      jump\t// out\n        /* \"#utility.yul\":3045:3122   */\n    tag_285:\n        /* \"#utility.yul\":3082:3089   */\n      0x00\n        /* \"#utility.yul\":3111:3116   */\n      dup2\n        /* \"#utility.yul\":3100:3116   */\n      swap1\n      pop\n        /* \"#utility.yul\":3045:3122   */\n      swap2\n      swap1\n      pop\n      jump\t// out\n        /* \"#utility.yul\":3128:3250   */\n    tag_286:\n        /* \"#utility.yul\":3201:3225   */\n      tag_376\n        /* \"#utility.yul\":3219:3224   */\n      dup2\n        /* \"#utility.yul\":3201:3225   */\n      tag_285\n      jump\t// in\n    tag_376:\n        /* \"#utility.yul\":3194:3199   */\n      dup2\n        /* \"#utility.yul\":3191:3226   */\n      eq\n        /* \"#utility.yul\":3181:3244   */\n      tag_377\n      jumpi\n        /* \"#utility.yul\":3240:3241   */\n      0x00\n        /* \"#utility.yul\":3237:3238   */\n      0x00\n        /* \"#utility.yul\":3230:3242   */\n      revert\n        /* \"#utility.yul\":3181:3244   */\n    tag_377:\n        /* \"#utility.yul\":3128:3250   */\n      pop\n      jump\t// out\n        /* \"#utility.yul\":3256:3395   */\n    tag_287:\n        /* \"#utility.yul\":3302:3307   */\n      0x00\n        /* \"#utility.yul\":3340:3346   */\n      dup2\n        /* \"#utility.yul\":3327:3347   */\n      calldataload\n        /* \"#utility.yul\":3318:3347   */\n      swap1\n      pop\n        /* \"#utility.yul\":3356:3389   */\n      tag_379\n        /* \"#utility.yul\":3383:3388   */\n      dup2\n        /* \"#utility.yul\":3356:3389   */\n      tag_286\n      jump\t// in\n    tag_379:\n        /* \"#utility.yul\":3256:3395   */\n      swap3\n      swap2\n      pop\n      pop\n      jump\t// out\n        /* \"#utility.yul\":3401:3875   */\n    tag_42:\n        /* \"#utility.yul\":3469:3475   */\n      0x00\n        /* \"#utility.yul\":3477:3483   */\n      0x00\n        /* \"#utility.yul\":3526:3528   */\n      0x40\n        /* \"#utility.yul\":3514:3523   */\n      dup4\n        /* \"#utility.yul\":3505:3512   */\n      dup6\n        /* \"#utility.yul\":3501:3524   */\n      sub\n        /* \"#utility.yul\":3497:3529   */\n      slt\n        /* \"#utility.yul\":3494:3613   */\n      iszero\n      tag_381\n      jumpi\n        /* \"#utility.yul\":3532:3611   */\n      tag_382\n      tag_279\n      jump\t// in\n    tag_382:\n        /* \"#utility.yul\":3494:3613   */\n    tag_381:\n        /* \"#utility.yul\":3652:3653   */\n      0x00\n        /* \"#utility.yul\":3677:3730   */\n      tag_383\n        /* \"#utility.yul\":3722:3729   */\n      dup6\n        /* \"#utility.yul\":3713:3719   */\n      dup3\n        /* \"#utility.yul\":3702:3711   */\n      dup7\n        /* \"#utility.yul\":3698:3720   */\n      add\n        /* \"#utility.yul\":3677:3730   */\n      tag_284\n      jump\t// in\n    tag_383:\n        /* \"#utility.yul\":3667:3730   */\n      swap3\n      pop\n        /* \"#utility.yul\":3623:3740   */\n      pop\n        /* \"#utility.yul\":3779:3781   */\n      0x20\n        /* \"#utility.yul\":3805:3858   */\n      tag_384\n        /* \"#utility.yul\":3850:3857   */\n      dup6\n        /* \"#utility.yul\":3841:3847   */\n      dup3\n        /* \"#utility.yul\":3830:3839   */\n      dup7\n        /* \"#utility.yul\":3826:3848   */\n      add\n        /* \"#utility.yul\":3805:3858   */\n      tag_287\n      jump\t// in\n    tag_384:\n        /* \"#utility.yul\":3795:3858   */\n      swap2\n      pop\n        /* \"#utility.yul\":3750:3868   */\n      pop\n        /* \"#utility.yul\":3401:3875   */\n      swap3\n      pop\n      swap3\n      swap1\n      pop\n      jump\t// out\n        /* \"#utility.yul\":3881:3971   */\n    tag_288:\n        /* \"#utility.yul\":3915:3922   */\n      0x00\n        /* \"#utility.yul\":3958:3963   */\n      dup2\n        /* \"#utility.yul\":3951:3964   */\n      iszero\n        /* \"#utility.yul\":3944:3965   */\n      iszero\n        /* \"#utility.yul\":3933:3965   */\n      swap1\n      pop\n        /* \"#utility.yul\":3881:3971   */\n      swap2\n      swap1\n      pop\n      jump\t// out\n        /* \"#utility.yul\":3977:4086   */\n    tag_289:\n        /* \"#utility.yul\":4058:4079   */\n      tag_387\n        /* \"#utility.yul\":4073:4078   */\n      dup2\n        /* \"#utility.yul\":4058:4079   */\n      tag_288\n      jump\t// in\n    tag_387:\n        /* \"#utility.yul\":4053:4056   */\n      dup3\n        /* \"#utility.yul\":4046:4080   */\n      mstore\n        /* \"#utility.yul\":3977:4086   */\n      pop\n      pop\n      jump\t// out\n        /* \"#utility.yul\":4092:4302   */\n    tag_45:\n        /* \"#utility.yul\":4179:4183   */\n      0x00\n        /* \"#utility.yul\":4217:4219   */\n      0x20\n        /* \"#utility.yul\":4206:4215   */\n      dup3\n        /* \"#utility.yul\":4202:4220   */\n      add\n        /* \"#utility.yul\":4194:4220   */\n      swap1\n      pop\n        /* \"#utility.yul\":4230:4295   */\n      tag_389\n        /* \"#utility.yul\":4292:4293   */\n      0x00\n        /* \"#utility.yul\":4281:4290   */\n      dup4\n        /* \"#utility.yul\":4277:4294   */\n      add\n        /* \"#utility.yul\":4268:4274   */\n      dup5\n        /* \"#utility.yul\":4230:4295   */\n      tag_289\n      jump\t// in\n    tag_389:\n        /* \"#utility.yul\":4092:4302   */\n      swap3\n      swap2\n      pop\n      pop\n      jump\t// out\n        /* \"#utility.yul\":4308:4426   */\n    tag_290:\n        /* \"#utility.yul\":4395:4419   */\n      tag_391\n        /* \"#utility.yul\":4413:4418   */\n      dup2\n        /* \"#utility.yul\":4395:4419   */\n      tag_285\n      jump\t// in\n    tag_391:\n        /* \"#utility.yul\":4390:4393   */\n      dup3\n        /* \"#utility.yul\":4383:4420   */\n      mstore\n        /* \"#utility.yul\":4308:4426   */\n      pop\n      pop\n      jump\t// out\n        /* \"#utility.yul\":4432:4654   */\n    tag_53:\n        /* \"#utility.yul\":4525:4529   */\n      0x00\n        /* \"#utility.yul\":4563:4565   */\n      0x20\n        /* \"#utility.yul\":4552:4561   */\n      dup3\n        /* \"#utility.yul\":4548:4566   */\n      add\n        /* \"#utility.yul\":4540:4566   */\n      swap1\n      pop\n        /* \"#utility.yul\":4576:4647   */\n      tag_393\n        /* \"#utility.yul\":4644:4645   */\n      0x00\n        /* \"#utility.yul\":4633:4642   */\n      dup4\n        /* \"#utility.yul\":4629:4646   */\n      add\n        /* \"#utility.yul\":4620:4626   */\n      dup5\n        /* \"#utility.yul\":4576:4647   */\n      tag_290\n      jump\t// in\n    tag_393:\n        /* \"#utility.yul\":4432:4654   */\n      swap3\n      swap2\n      pop\n      pop\n      jump\t// out\n        /* \"#utility.yul\":4660:5279   */\n    tag_65:\n        /* \"#utility.yul\":4737:4743   */\n      0x00\n        /* \"#utility.yul\":4745:4751   */\n      0x00\n        /* \"#utility.yul\":4753:4759   */\n      0x00\n        /* \"#utility.yul\":4802:4804   */\n      0x60\n        /* \"#utility.yul\":4790:4799   */\n      dup5\n        /* \"#utility.yul\":4781:4788   */\n      dup7\n        /* \"#utility.yul\":4777:4800   */\n      sub\n        /* \"#utility.yul\":4773:4805   */\n      slt\n        /* \"#utility.yul\":4770:4889   */\n      iszero\n      tag_395\n      jumpi\n        /* \"#utility.yul\":4808:4887   */\n      tag_396\n      tag_279\n      jump\t// in\n    tag_396:\n        /* \"#utility.yul\":4770:4889   */\n    tag_395:\n        /* \"#utility.yul\":4928:4929   */\n      0x00\n        /* \"#utility.yul\":4953:5006   */\n      tag_397\n        /* \"#utility.yul\":4998:5005   */\n      dup7\n        /* \"#utility.yul\":4989:4995   */\n      dup3\n        /* \"#utility.yul\":4978:4987   */\n      dup8\n        /* \"#utility.yul\":4974:4996   */\n      add\n        /* \"#utility.yul\":4953:5006   */\n      tag_284\n      jump\t// in\n    tag_397:\n        /* \"#utility.yul\":4943:5006   */\n      swap4\n      pop\n        /* \"#utility.yul\":4899:5016   */\n      pop\n        /* \"#utility.yul\":5055:5057   */\n      0x20\n        /* \"#utility.yul\":5081:5134   */\n      tag_398\n        /* \"#utility.yul\":5126:5133   */\n      dup7\n        /* \"#utility.yul\":5117:5123   */\n      dup3\n        /* \"#utility.yul\":5106:5115   */\n      dup8\n        /* \"#utility.yul\":5102:5124   */\n      add\n        /* \"#utility.yul\":5081:5134   */\n      tag_284\n      jump\t// in\n    tag_398:\n        /* \"#utility.yul\":5071:5134   */\n      swap3\n      pop\n        /* \"#utility.yul\":5026:5144   */\n      pop\n        /* \"#utility.yul\":5183:5185   */\n      0x40\n        /* \"#utility.yul\":5209:5262   */\n      tag_399\n        /* \"#utility.yul\":5254:5261   */\n      dup7\n        /* \"#utility.yul\":5245:5251   */\n      dup3\n        /* \"#utility.yul\":5234:5243   */\n      dup8\n        /* \"#utility.yul\":5230:5252   */\n      add\n        /* \"#utility.yul\":5209:5262   */\n      tag_287\n      jump\t// in\n    tag_399:\n        /* \"#utility.yul\":5199:5262   */\n      swap2\n      pop\n        /* \"#utility.yul\":5154:5272   */\n      pop\n        /* \"#utility.yul\":4660:5279   */\n      swap3\n      pop\n      swap3\n      pop\n      swap3\n      jump\t// out\n        /* \"#utility.yul\":5285:5371   */\n    tag_291:\n        /* \"#utility.yul\":5320:5327   */\n      0x00\n        /* \"#utility.yul\":5360:5364   */\n      0xff\n        /* \"#utility.yul\":5353:5358   */\n      dup3\n        /* \"#utility.yul\":5349:5365   */\n      and\n        /* \"#utility.yul\":5338:5365   */\n      swap1\n      pop\n        /* \"#utility.yul\":5285:5371   */\n      swap2\n      swap1\n      pop\n      jump\t// out\n        /* \"#utility.yul\":5377:5489   */\n    tag_292:\n        /* \"#utility.yul\":5460:5482   */\n      tag_402\n        /* \"#utility.yul\":5476:5481   */\n      dup2\n        /* \"#utility.yul\":5460:5482   */\n      tag_291\n      jump\t// in\n    tag_402:\n        /* \"#utility.yul\":5455:5458   */\n      dup3\n        /* \"#utility.yul\":5448:5483   */\n      mstore\n        /* \"#utility.yul\":5377:5489   */\n      pop\n      pop\n      jump\t// out\n        /* \"#utility.yul\":5495:5709   */\n    tag_76:\n        /* \"#utility.yul\":5584:5588   */\n      0x00\n        /* \"#utility.yul\":5622:5624   */\n      0x20\n        /* \"#utility.yul\":5611:5620   */\n      dup3\n        /* \"#utility.yul\":5607:5625   */\n      add\n        /* \"#utility.yul\":5599:5625   */\n      swap1\n      pop\n        /* \"#utility.yul\":5635:5702   */\n      tag_404\n        /* \"#utility.yul\":5699:5700   */\n      0x00\n        /* \"#utility.yul\":5688:5697   */\n      dup4\n        /* \"#utility.yul\":5684:5701   */\n      add\n        /* \"#utility.yul\":5675:5681   */\n      dup5\n        /* \"#utility.yul\":5635:5702   */\n      tag_292\n      jump\t// in\n    tag_404:\n        /* \"#utility.yul\":5495:5709   */\n      swap3\n      swap2\n      pop\n      pop\n      jump\t// out\n        /* \"#utility.yul\":5715:6044   */\n    tag_91:\n        /* \"#utility.yul\":5774:5780   */\n      0x00\n        /* \"#utility.yul\":5823:5825   */\n      0x20\n        /* \"#utility.yul\":5811:5820   */\n      dup3\n        /* \"#utility.yul\":5802:5809   */\n      dup5\n        /* \"#utility.yul\":5798:5821   */\n      sub\n        /* \"#utility.yul\":5794:5826   */\n      slt\n        /* \"#utility.yul\":5791:5910   */\n      iszero\n      tag_406\n      jumpi\n        /* \"#utility.yul\":5829:5908   */\n      tag_407\n      tag_279\n      jump\t// in\n    tag_407:\n        /* \"#utility.yul\":5791:5910   */\n    tag_406:\n        /* \"#utility.yul\":5949:5950   */\n      0x00\n        /* \"#utility.yul\":5974:6027   */\n      tag_408\n        /* \"#utility.yul\":6019:6026   */\n      dup5\n        /* \"#utility.yul\":6010:6016   */\n      dup3\n        /* \"#utility.yul\":5999:6008   */\n      dup6\n        /* \"#utility.yul\":5995:6017   */\n      add\n        /* \"#utility.yul\":5974:6027   */\n      tag_284\n      jump\t// in\n    tag_408:\n        /* \"#utility.yul\":5964:6027   */\n      swap2\n      pop\n        /* \"#utility.yul\":5920:6037   */\n      pop\n        /* \"#utility.yul\":5715:6044   */\n      swap3\n      swap2\n      pop\n      pop\n      jump\t// out\n        /* \"#utility.yul\":6050:6167   */\n    tag_293:\n        /* \"#utility.yul\":6159:6160   */\n      0x00\n        /* \"#utility.yul\":6156:6157   */\n      0x00\n        /* \"#utility.yul\":6149:6161   */\n      revert\n        /* \"#utility.yul\":6173:6290   */\n    tag_294:\n        /* \"#utility.yul\":6282:6283   */\n      0x00\n        /* \"#utility.yul\":6279:6280   */\n      0x00\n        /* \"#utility.yul\":6272:6284   */\n      revert\n        /* \"#utility.yul\":6296:6476   */\n    tag_295:\n        /* \"#utility.yul\":6344:6421   */\n      0x4e487b7100000000000000000000000000000000000000000000000000000000\n        /* \"#utility.yul\":6341:6342   */\n      0x00\n        /* \"#utility.yul\":6334:6422   */\n      mstore\n        /* \"#utility.yul\":6441:6445   */\n      0x41\n        /* \"#utility.yul\":6438:6439   */\n      0x04\n        /* \"#utility.yul\":6431:6446   */\n      mstore\n        /* \"#utility.yul\":6465:6469   */\n      0x24\n        /* \"#utility.yul\":6462:6463   */\n      0x00\n        /* \"#utility.yul\":6455:6470   */\n      revert\n        /* \"#utility.yul\":6482:6763   */\n    tag_296:\n        /* \"#utility.yul\":6565:6592   */\n      tag_413\n        /* \"#utility.yul\":6587:6591   */\n      dup3\n        /* \"#utility.yul\":6565:6592   */\n      tag_276\n      jump\t// in\n    tag_413:\n        /* \"#utility.yul\":6557:6563   */\n      dup2\n        /* \"#utility.yul\":6553:6593   */\n      add\n        /* \"#utility.yul\":6695:6701   */\n      dup2\n        /* \"#utility.yul\":6683:6693   */\n      dup2\n        /* \"#utility.yul\":6680:6702   */\n      lt\n        /* \"#utility.yul\":6659:6677   */\n      0xffffffffffffffff\n        /* \"#utility.yul\":6647:6657   */\n      dup3\n        /* \"#utility.yul\":6644:6678   */\n      gt\n        /* \"#utility.yul\":6641:6703   */\n      or\n        /* \"#utility.yul\":6638:6726   */\n      iszero\n      tag_414\n      jumpi\n        /* \"#utility.yul\":6706:6724   */\n      tag_415\n      tag_295\n      jump\t// in\n    tag_415:\n        /* \"#utility.yul\":6638:6726   */\n    tag_414:\n        /* \"#utility.yul\":6746:6756   */\n      dup1\n        /* \"#utility.yul\":6742:6744   */\n      0x40\n        /* \"#utility.yul\":6735:6757   */\n      mstore\n        /* \"#utility.yul\":6525:6763   */\n      pop\n        /* \"#utility.yul\":6482:6763   */\n      pop\n      pop\n      jump\t// out\n        /* \"#utility.yul\":6769:6898   */\n    tag_297:\n        /* \"#utility.yul\":6803:6809   */\n      0x00\n        /* \"#utility.yul\":6830:6850   */\n      tag_417\n      tag_278\n      jump\t// in\n    tag_417:\n        /* \"#utility.yul\":6820:6850   */\n      swap1\n      pop\n        /* \"#utility.yul\":6859:6892   */\n      tag_418\n        /* \"#utility.yul\":6887:6891   */\n      dup3\n        /* \"#utility.yul\":6879:6885   */\n      dup3\n        /* \"#utility.yul\":6859:6892   */\n      tag_296\n      jump\t// in\n    tag_418:\n        /* \"#utility.yul\":6769:6898   */\n      swap2\n      swap1\n      pop\n      jump\t// out\n        /* \"#utility.yul\":6904:7212   */\n    tag_298:\n        /* \"#utility.yul\":6966:6970   */\n      0x00\n        /* \"#utility.yul\":7056:7074   */\n      0xffffffffffffffff\n        /* \"#utility.yul\":7048:7054   */\n      dup3\n        /* \"#utility.yul\":7045:7075   */\n      gt\n        /* \"#utility.yul\":7042:7098   */\n      iszero\n      tag_420\n      jumpi\n        /* \"#utility.yul\":7078:7096   */\n      tag_421\n      tag_295\n      jump\t// in\n    tag_421:\n        /* \"#utility.yul\":7042:7098   */\n    tag_420:\n        /* \"#utility.yul\":7116:7145   */\n      tag_422\n        /* \"#utility.yul\":7138:7144   */\n      dup3\n        /* \"#utility.yul\":7116:7145   */\n      tag_276\n      jump\t// in\n    tag_422:\n        /* \"#utility.yul\":7108:7145   */\n      swap1\n      pop\n        /* \"#utility.yul\":7200:7204   */\n      0x20\n        /* \"#utility.yul\":7194:7198   */\n      dup2\n        /* \"#utility.yul\":7190:7205   */\n      add\n        /* \"#utility.yul\":7182:7205   */\n      swap1\n      pop\n        /* \"#utility.yul\":6904:7212   */\n      swap2\n      swap1\n      pop\n      jump\t// out\n        /* \"#utility.yul\":7218:7366   */\n    tag_299:\n        /* \"#utility.yul\":7316:7322   */\n      dup3\n        /* \"#utility.yul\":7311:7314   */\n      dup2\n        /* \"#utility.yul\":7306:7309   */\n      dup4\n        /* \"#utility.yul\":7293:7323   */\n      calldatacopy\n        /* \"#utility.yul\":7357:7358   */\n      0x00\n        /* \"#utility.yul\":7348:7354   */\n      dup4\n        /* \"#utility.yul\":7343:7346   */\n      dup4\n        /* \"#utility.yul\":7339:7355   */\n      add\n        /* \"#utility.yul\":7332:7359   */\n      mstore\n        /* \"#utility.yul\":7218:7366   */\n      pop\n      pop\n      pop\n      jump\t// out\n        /* \"#utility.yul\":7372:7797   */\n    tag_300:\n        /* \"#utility.yul\":7450:7455   */\n      0x00\n        /* \"#utility.yul\":7475:7541   */\n      tag_425\n        /* \"#utility.yul\":7491:7540   */\n      tag_426\n        /* \"#utility.yul\":7533:7539   */\n      dup5\n        /* \"#utility.yul\":7491:7540   */\n      tag_298\n      jump\t// in\n    tag_426:\n        /* \"#utility.yul\":7475:7541   */\n      tag_297\n      jump\t// in\n    tag_425:\n        /* \"#utility.yul\":7466:7541   */\n      swap1\n      pop\n        /* \"#utility.yul\":7564:7570   */\n      dup3\n        /* \"#utility.yul\":7557:7562   */\n      dup2\n        /* \"#utility.yul\":7550:7571   */\n      mstore\n        /* \"#utility.yul\":7602:7606   */\n      0x20\n        /* \"#utility.yul\":7595:7600   */\n      dup2\n        /* \"#utility.yul\":7591:7607   */\n      add\n        /* \"#utility.yul\":7640:7643   */\n      dup5\n        /* \"#utility.yul\":7631:7637   */\n      dup5\n        /* \"#utility.yul\":7626:7629   */\n      dup5\n        /* \"#utility.yul\":7622:7638   */\n      add\n        /* \"#utility.yul\":7619:7644   */\n      gt\n        /* \"#utility.yul\":7616:7728   */\n      iszero\n      tag_427\n      jumpi\n        /* \"#utility.yul\":7647:7726   */\n      tag_428\n      tag_294\n      jump\t// in\n    tag_428:\n        /* \"#utility.yul\":7616:7728   */\n    tag_427:\n        /* \"#utility.yul\":7737:7791   */\n      tag_429\n        /* \"#utility.yul\":7784:7790   */\n      dup5\n        /* \"#utility.yul\":7779:7782   */\n      dup3\n        /* \"#utility.yul\":7774:7777   */\n      dup6\n        /* \"#utility.yul\":7737:7791   */\n      tag_299\n      jump\t// in\n    tag_429:\n        /* \"#utility.yul\":7456:7797   */\n      pop\n        /* \"#utility.yul\":7372:7797   */\n      swap4\n      swap3\n      pop\n      pop\n      pop\n      jump\t// out\n        /* \"#utility.yul\":7817:8157   */\n    tag_301:\n        /* \"#utility.yul\":7873:7878   */\n      0x00\n        /* \"#utility.yul\":7922:7925   */\n      dup3\n        /* \"#utility.yul\":7915:7919   */\n      0x1f\n        /* \"#utility.yul\":7907:7913   */\n      dup4\n        /* \"#utility.yul\":7903:7920   */\n      add\n        /* \"#utility.yul\":7899:7926   */\n      slt\n        /* \"#utility.yul\":7889:8011   */\n      tag_431\n      jumpi\n        /* \"#utility.yul\":7930:8009   */\n      tag_432\n      tag_293\n      jump\t// in\n    tag_432:\n        /* \"#utility.yul\":7889:8011   */\n    tag_431:\n        /* \"#utility.yul\":8047:8053   */\n      dup2\n        /* \"#utility.yul\":8034:8054   */\n      calldataload\n        /* \"#utility.yul\":8072:8151   */\n      tag_433\n        /* \"#utility.yul\":8147:8150   */\n      dup5\n        /* \"#utility.yul\":8139:8145   */\n      dup3\n        /* \"#utility.yul\":8132:8136   */\n      0x20\n        /* \"#utility.yul\":8124:8130   */\n      dup7\n        /* \"#utility.yul\":8120:8137   */\n      add\n        /* \"#utility.yul\":8072:8151   */\n      tag_300\n      jump\t// in\n    tag_433:\n        /* \"#utility.yul\":8063:8151   */\n      swap2\n      pop\n        /* \"#utility.yul\":7879:8157   */\n      pop\n        /* \"#utility.yul\":7817:8157   */\n      swap3\n      swap2\n      pop\n      pop\n      jump\t// out\n        /* \"#utility.yul\":8163:8672   */\n    tag_112:\n        /* \"#utility.yul\":8232:8238   */\n      0x00\n        /* \"#utility.yul\":8281:8283   */\n      0x20\n        /* \"#utility.yul\":8269:8278   */\n      dup3\n        /* \"#utility.yul\":8260:8267   */\n      dup5\n        /* \"#utility.yul\":8256:8279   */\n      sub\n        /* \"#utility.yul\":8252:8284   */\n      slt\n        /* \"#utility.yul\":8249:8368   */\n      iszero\n      tag_435\n      jumpi\n        /* \"#utility.yul\":8287:8366   */\n      tag_436\n      tag_279\n      jump\t// in\n    tag_436:\n        /* \"#utility.yul\":8249:8368   */\n    tag_435:\n        /* \"#utility.yul\":8435:8436   */\n      0x00\n        /* \"#utility.yul\":8424:8433   */\n      dup3\n        /* \"#utility.yul\":8420:8437   */\n      add\n        /* \"#utility.yul\":8407:8438   */\n      calldataload\n        /* \"#utility.yul\":8465:8483   */\n      0xffffffffffffffff\n        /* \"#utility.yul\":8457:8463   */\n      dup2\n        /* \"#utility.yul\":8454:8484   */\n      gt\n        /* \"#utility.yul\":8451:8568   */\n      iszero\n      tag_437\n      jumpi\n        /* \"#utility.yul\":8487:8566   */\n      tag_438\n      tag_280\n      jump\t// in\n    tag_438:\n        /* \"#utility.yul\":8451:8568   */\n    tag_437:\n        /* \"#utility.yul\":8592:8655   */\n      tag_439\n        /* \"#utility.yul\":8647:8654   */\n      dup5\n        /* \"#utility.yul\":8638:8644   */\n      dup3\n        /* \"#utility.yul\":8627:8636   */\n      dup6\n        /* \"#utility.yul\":8623:8645   */\n      add\n        /* \"#utility.yul\":8592:8655   */\n      tag_301\n      jump\t// in\n    tag_439:\n        /* \"#utility.yul\":8582:8655   */\n      swap2\n      pop\n        /* \"#utility.yul\":8378:8665   */\n      pop\n        /* \"#utility.yul\":8163:8672   */\n      swap3\n      swap2\n      pop\n      pop\n      jump\t// out\n        /* \"#utility.yul\":8678:8796   */\n    tag_302:\n        /* \"#utility.yul\":8765:8789   */\n      tag_441\n        /* \"#utility.yul\":8783:8788   */\n      dup2\n        /* \"#utility.yul\":8765:8789   */\n      tag_282\n      jump\t// in\n    tag_441:\n        /* \"#utility.yul\":8760:8763   */\n      dup3\n        /* \"#utility.yul\":8753:8790   */\n      mstore\n        /* \"#utility.yul\":8678:8796   */\n      pop\n      pop\n      jump\t// out\n        /* \"#utility.yul\":8802:9024   */\n    tag_131:\n        /* \"#utility.yul\":8895:8899   */\n      0x00\n        /* \"#utility.yul\":8933:8935   */\n      0x20\n        /* \"#utility.yul\":8922:8931   */\n      dup3\n        /* \"#utility.yul\":8918:8936   */\n      add\n        /* \"#utility.yul\":8910:8936   */\n      swap1\n      pop\n        /* \"#utility.yul\":8946:9017   */\n      tag_443\n        /* \"#utility.yul\":9014:9015   */\n      0x00\n        /* \"#utility.yul\":9003:9012   */\n      dup4\n        /* \"#utility.yul\":8999:9016   */\n      add\n        /* \"#utility.yul\":8990:8996   */\n      dup5\n        /* \"#utility.yul\":8946:9017   */\n      tag_302\n      jump\t// in\n    tag_443:\n        /* \"#utility.yul\":8802:9024   */\n      swap3\n      swap2\n      pop\n      pop\n      jump\t// out\n        /* \"#utility.yul\":9030:9504   */\n    tag_135:\n        /* \"#utility.yul\":9098:9104   */\n      0x00\n        /* \"#utility.yul\":9106:9112   */\n      0x00\n        /* \"#utility.yul\":9155:9157   */\n      0x40\n        /* \"#utility.yul\":9143:9152   */\n      dup4\n        /* \"#utility.yul\":9134:9141   */\n      dup6\n        /* \"#utility.yul\":9130:9153   */\n      sub\n        /* \"#utility.yul\":9126:9158   */\n      slt\n        /* \"#utility.yul\":9123:9242   */\n      iszero\n      tag_445\n      jumpi\n        /* \"#utility.yul\":9161:9240   */\n      tag_446\n      tag_279\n      jump\t// in\n    tag_446:\n        /* \"#utility.yul\":9123:9242   */\n    tag_445:\n        /* \"#utility.yul\":9281:9282   */\n      0x00\n        /* \"#utility.yul\":9306:9359   */\n      tag_447\n        /* \"#utility.yul\":9351:9358   */\n      dup6\n        /* \"#utility.yul\":9342:9348   */\n      dup3\n        /* \"#utility.yul\":9331:9340   */\n      dup7\n        /* \"#utility.yul\":9327:9349   */\n      add\n        /* \"#utility.yul\":9306:9359   */\n      tag_284\n      jump\t// in\n    tag_447:\n        /* \"#utility.yul\":9296:9359   */\n      swap3\n      pop\n        /* \"#utility.yul\":9252:9369   */\n      pop\n        /* \"#utility.yul\":9408:9410   */\n      0x20\n        /* \"#utility.yul\":9434:9487   */\n      tag_448\n        /* \"#utility.yul\":9479:9486   */\n      dup6\n        /* \"#utility.yul\":9470:9476   */\n      dup3\n        /* \"#utility.yul\":9459:9468   */\n      dup7\n        /* \"#utility.yul\":9455:9477   */\n      add\n        /* \"#utility.yul\":9434:9487   */\n      tag_284\n      jump\t// in\n    tag_448:\n        /* \"#utility.yul\":9424:9487   */\n      swap2\n      pop\n        /* \"#utility.yul\":9379:9497   */\n      pop\n        /* \"#utility.yul\":9030:9504   */\n      swap3\n      pop\n      swap3\n      swap1\n      pop\n      jump\t// out\n        /* \"#utility.yul\":9510:9690   */\n    tag_303:\n        /* \"#utility.yul\":9558:9635   */\n      0x4e487b7100000000000000000000000000000000000000000000000000000000\n        /* \"#utility.yul\":9555:9556   */\n      0x00\n        /* \"#utility.yul\":9548:9636   */\n      mstore\n        /* \"#utility.yul\":9655:9659   */\n      0x22\n        /* \"#utility.yul\":9652:9653   */\n      0x04\n        /* \"#utility.yul\":9645:9660   */\n      mstore\n        /* \"#utility.yul\":9679:9683   */\n      0x24\n        /* \"#utility.yul\":9676:9677   */\n      0x00\n        /* \"#utility.yul\":9669:9684   */\n      revert\n        /* \"#utility.yul\":9696:10016   */\n    tag_143:\n        /* \"#utility.yul\":9740:9746   */\n      0x00\n        /* \"#utility.yul\":9777:9778   */\n      0x02\n        /* \"#utility.yul\":9771:9775   */\n      dup3\n        /* \"#utility.yul\":9767:9779   */\n      div\n        /* \"#utility.yul\":9757:9779   */\n      swap1\n      pop\n        /* \"#utility.yul\":9824:9825   */\n      0x01\n        /* \"#utility.yul\":9818:9822   */\n      dup3\n        /* \"#utility.yul\":9814:9826   */\n      and\n        /* \"#utility.yul\":9845:9863   */\n      dup1\n        /* \"#utility.yul\":9835:9916   */\n      tag_451\n      jumpi\n        /* \"#utility.yul\":9901:9905   */\n      0x7f\n        /* \"#utility.yul\":9893:9899   */\n      dup3\n        /* \"#utility.yul\":9889:9906   */\n      and\n        /* \"#utility.yul\":9879:9906   */\n      swap2\n      pop\n        /* \"#utility.yul\":9835:9916   */\n    tag_451:\n        /* \"#utility.yul\":9963:9965   */\n      0x20\n        /* \"#utility.yul\":9955:9961   */\n      dup3\n        /* \"#utility.yul\":9952:9966   */\n      lt\n        /* \"#utility.yul\":9932:9950   */\n      dup2\n        /* \"#utility.yul\":9929:9967   */\n      sub\n        /* \"#utility.yul\":9926:10010   */\n      tag_452\n      jumpi\n        /* \"#utility.yul\":9982:10000   */\n      tag_453\n      tag_303\n      jump\t// in\n    tag_453:\n        /* \"#utility.yul\":9926:10010   */\n    tag_452:\n        /* \"#utility.yul\":9747:10016   */\n      pop\n        /* \"#utility.yul\":9696:10016   */\n      swap2\n      swap1\n      pop\n      jump\t// out\n        /* \"#utility.yul\":10022:10190   */\n    tag_304:\n        /* \"#utility.yul\":10162:10182   */\n      0x436f6e7472616374206973207061757365640000000000000000000000000000\n        /* \"#utility.yul\":10158:10159   */\n      0x00\n        /* \"#utility.yul\":10150:10156   */\n      dup3\n        /* \"#utility.yul\":10146:10160   */\n      add\n        /* \"#utility.yul\":10139:10183   */\n      mstore\n        /* \"#utility.yul\":10022:10190   */\n      pop\n      jump\t// out\n        /* \"#utility.yul\":10196:10562   */\n    tag_305:\n        /* \"#utility.yul\":10338:10341   */\n      0x00\n        /* \"#utility.yul\":10359:10426   */\n      tag_456\n        /* \"#utility.yul\":10423:10425   */\n      0x12\n        /* \"#utility.yul\":10418:10421   */\n      dup4\n        /* \"#utility.yul\":10359:10426   */\n      tag_271\n      jump\t// in\n    tag_456:\n        /* \"#utility.yul\":10352:10426   */\n      swap2\n      pop\n        /* \"#utility.yul\":10435:10528   */\n      tag_457\n        /* \"#utility.yul\":10524:10527   */\n      dup3\n        /* \"#utility.yul\":10435:10528   */\n      tag_304\n      jump\t// in\n    tag_457:\n        /* \"#utility.yul\":10553:10555   */\n      0x20\n        /* \"#utility.yul\":10548:10551   */\n      dup3\n        /* \"#utility.yul\":10544:10556   */\n      add\n        /* \"#utility.yul\":10537:10556   */\n      swap1\n      pop\n        /* \"#utility.yul\":10196:10562   */\n      swap2\n      swap1\n      pop\n      jump\t// out\n        /* \"#utility.yul\":10568:10987   */\n    tag_151:\n        /* \"#utility.yul\":10734:10738   */\n      0x00\n        /* \"#utility.yul\":10772:10774   */\n      0x20\n        /* \"#utility.yul\":10761:10770   */\n      dup3\n        /* \"#utility.yul\":10757:10775   */\n      add\n        /* \"#utility.yul\":10749:10775   */\n      swap1\n      pop\n        /* \"#utility.yul\":10821:10830   */\n      dup2\n        /* \"#utility.yul\":10815:10819   */\n      dup2\n        /* \"#utility.yul\":10811:10831   */\n      sub\n        /* \"#utility.yul\":10807:10808   */\n      0x00\n        /* \"#utility.yul\":10796:10805   */\n      dup4\n        /* \"#utility.yul\":10792:10809   */\n      add\n        /* \"#utility.yul\":10785:10832   */\n      mstore\n        /* \"#utility.yul\":10849:10980   */\n      tag_459\n        /* \"#utility.yul\":10975:10979   */\n      dup2\n        /* \"#utility.yul\":10849:10980   */\n      tag_305\n      jump\t// in\n    tag_459:\n        /* \"#utility.yul\":10841:10980   */\n      swap1\n      pop\n        /* \"#utility.yul\":10568:10987   */\n      swap2\n      swap1\n      pop\n      jump\t// out\n        /* \"#utility.yul\":10993:11174   */\n    tag_306:\n        /* \"#utility.yul\":11133:11166   */\n      0x436f6e7472616374207065726d616e656e746c79207465726d696e6174656400\n        /* \"#utility.yul\":11129:11130   */\n      0x00\n        /* \"#utility.yul\":11121:11127   */\n      dup3\n        /* \"#utility.yul\":11117:11131   */\n      add\n        /* \"#utility.yul\":11110:11167   */\n      mstore\n        /* \"#utility.yul\":10993:11174   */\n      pop\n      jump\t// out\n        /* \"#utility.yul\":11180:11546   */\n    tag_307:\n        /* \"#utility.yul\":11322:11325   */\n      0x00\n        /* \"#utility.yul\":11343:11410   */\n      tag_462\n        /* \"#utility.yul\":11407:11409   */\n      0x1f\n        /* \"#utility.yul\":11402:11405   */\n      dup4\n        /* \"#utility.yul\":11343:11410   */\n      tag_271\n      jump\t// in\n    tag_462:\n        /* \"#utility.yul\":11336:11410   */\n      swap2\n      pop\n        /* \"#utility.yul\":11419:11512   */\n      tag_463\n        /* \"#utility.yul\":11508:11511   */\n      dup3\n        /* \"#utility.yul\":11419:11512   */\n      tag_306\n      jump\t// in\n    tag_463:\n        /* \"#utility.yul\":11537:11539   */\n      0x20\n        /* \"#utility.yul\":11532:11535   */\n      dup3\n        /* \"#utility.yul\":11528:11540   */\n      add\n        /* \"#utility.yul\":11521:11540   */\n      swap1\n      pop\n        /* \"#utility.yul\":11180:11546   */\n      swap2\n      swap1\n      pop\n      jump\t// out\n        /* \"#utility.yul\":11552:11971   */\n    tag_155:\n        /* \"#utility.yul\":11718:11722   */\n      0x00\n        /* \"#utility.yul\":11756:11758   */\n      0x20\n        /* \"#utility.yul\":11745:11754   */\n      dup3\n        /* \"#utility.yul\":11741:11759   */\n      add\n        /* \"#utility.yul\":11733:11759   */\n      swap1\n      pop\n        /* \"#utility.yul\":11805:11814   */\n      dup2\n        /* \"#utility.yul\":11799:11803   */\n      dup2\n        /* \"#utility.yul\":11795:11815   */\n      sub\n        /* \"#utility.yul\":11791:11792   */\n      0x00\n        /* \"#utility.yul\":11780:11789   */\n      dup4\n        /* \"#utility.yul\":11776:11793   */\n      add\n        /* \"#utility.yul\":11769:11816   */\n      mstore\n        /* \"#utility.yul\":11833:11964   */\n      tag_465\n        /* \"#utility.yul\":11959:11963   */\n      dup2\n        /* \"#utility.yul\":11833:11964   */\n      tag_307\n      jump\t// in\n    tag_465:\n        /* \"#utility.yul\":11825:11964   */\n      swap1\n      pop\n        /* \"#utility.yul\":11552:11971   */\n      swap2\n      swap1\n      pop\n      jump\t// out\n        /* \"#utility.yul\":11977:12150   */\n    tag_308:\n        /* \"#utility.yul\":12117:12142   */\n      0x417070726f766520746f207a65726f2061646472657373000000000000000000\n        /* \"#utility.yul\":12113:12114   */\n      0x00\n        /* \"#utility.yul\":12105:12111   */\n      dup3\n        /* \"#utility.yul\":12101:12115   */\n      add\n        /* \"#utility.yul\":12094:12143   */\n      mstore\n        /* \"#utility.yul\":11977:12150   */\n      pop\n      jump\t// out\n        /* \"#utility.yul\":12156:12522   */\n    tag_309:\n        /* \"#utility.yul\":12298:12301   */\n      0x00\n        /* \"#utility.yul\":12319:12386   */\n      tag_468\n        /* \"#utility.yul\":12383:12385   */\n      0x17\n        /* \"#utility.yul\":12378:12381   */\n      dup4\n        /* \"#utility.yul\":12319:12386   */\n      tag_271\n      jump\t// in\n    tag_468:\n        /* \"#utility.yul\":12312:12386   */\n      swap2\n      pop\n        /* \"#utility.yul\":12395:12488   */\n      tag_469\n        /* \"#utility.yul\":12484:12487   */\n      dup3\n        /* \"#utility.yul\":12395:12488   */\n      tag_308\n      jump\t// in\n    tag_469:\n        /* \"#utility.yul\":12513:12515   */\n      0x20\n        /* \"#utility.yul\":12508:12511   */\n      dup3\n        /* \"#utility.yul\":12504:12516   */\n      add\n        /* \"#utility.yul\":12497:12516   */\n      swap1\n      pop\n        /* \"#utility.yul\":12156:12522   */\n      swap2\n      swap1\n      pop\n      jump\t// out\n        /* \"#utility.yul\":12528:12947   */\n    tag_159:\n        /* \"#utility.yul\":12694:12698   */\n      0x00\n        /* \"#utility.yul\":12732:12734   */\n      0x20\n        /* \"#utility.yul\":12721:12730   */\n      dup3\n        /* \"#utility.yul\":12717:12735   */\n      add\n        /* \"#utility.yul\":12709:12735   */\n      swap1\n      pop\n        /* \"#utility.yul\":12781:12790   */\n      dup2\n        /* \"#utility.yul\":12775:12779   */\n      dup2\n        /* \"#utility.yul\":12771:12791   */\n      sub\n        /* \"#utility.yul\":12767:12768   */\n      0x00\n        /* \"#utility.yul\":12756:12765   */\n      dup4\n        /* \"#utility.yul\":12752:12769   */\n      add\n        /* \"#utility.yul\":12745:12792   */\n      mstore\n        /* \"#utility.yul\":12809:12940   */\n      tag_471\n        /* \"#utility.yul\":12935:12939   */\n      dup2\n        /* \"#utility.yul\":12809:12940   */\n      tag_309\n      jump\t// in\n    tag_471:\n        /* \"#utility.yul\":12801:12940   */\n      swap1\n      pop\n        /* \"#utility.yul\":12528:12947   */\n      swap2\n      swap1\n      pop\n      jump\t// out\n        /* \"#utility.yul\":12953:13173   */\n    tag_310:\n        /* \"#utility.yul\":13093:13127   */\n      0x4f6e6c79206f776e65722063616e2063616c6c20746869732066756e6374696f\n        /* \"#utility.yul\":13089:13090   */\n      0x00\n        /* \"#utility.yul\":13081:13087   */\n      dup3\n        /* \"#utility.yul\":13077:13091   */\n      add\n        /* \"#utility.yul\":13070:13128   */\n      mstore\n        /* \"#utility.yul\":13162:13165   */\n      0x6e00000000000000000000000000000000000000000000000000000000000000\n        /* \"#utility.yul\":13157:13159   */\n      0x20\n        /* \"#utility.yul\":13149:13155   */\n      dup3\n        /* \"#utility.yul\":13145:13160   */\n      add\n        /* \"#utility.yul\":13138:13166   */\n      mstore\n        /* \"#utility.yul\":12953:13173   */\n      pop\n      jump\t// out\n        /* \"#utility.yul\":13179:13545   */\n    tag_311:\n        /* \"#utility.yul\":13321:13324   */\n      0x00\n        /* \"#utility.yul\":13342:13409   */\n      tag_474\n        /* \"#utility.yul\":13406:13408   */\n      0x21\n        /* \"#utility.yul\":13401:13404   */\n      dup4\n        /* \"#utility.yul\":13342:13409   */\n      tag_271\n      jump\t// in\n    tag_474:\n        /* \"#utility.yul\":13335:13409   */\n      swap2\n      pop\n        /* \"#utility.yul\":13418:13511   */\n      tag_475\n        /* \"#utility.yul\":13507:13510   */\n      dup3\n        /* \"#utility.yul\":13418:13511   */\n      tag_310\n      jump\t// in\n    tag_475:\n        /* \"#utility.yul\":13536:13538   */\n      0x40\n        /* \"#utility.yul\":13531:13534   */\n      dup3\n        /* \"#utility.yul\":13527:13539   */\n      add\n        /* \"#utility.yul\":13520:13539   */\n      swap1\n      pop\n        /* \"#utility.yul\":13179:13545   */\n      swap2\n      swap1\n      pop\n      jump\t// out\n        /* \"#utility.yul\":13551:13970   */\n    tag_164:\n        /* \"#utility.yul\":13717:13721   */\n      0x00\n        /* \"#utility.yul\":13755:13757   */\n      0x20\n        /* \"#utility.yul\":13744:13753   */\n      dup3\n        /* \"#utility.yul\":13740:13758   */\n      add\n        /* \"#utility.yul\":13732:13758   */\n      swap1\n      pop\n        /* \"#utility.yul\":13804:13813   */\n      dup2\n        /* \"#utility.yul\":13798:13802   */\n      dup2\n        /* \"#utility.yul\":13794:13814   */\n      sub\n        /* \"#utility.yul\":13790:13791   */\n      0x00\n        /* \"#utility.yul\":13779:13788   */\n      dup4\n        /* \"#utility.yul\":13775:13792   */\n      add\n        /* \"#utility.yul\":13768:13815   */\n      mstore\n        /* \"#utility.yul\":13832:13963   */\n      tag_477\n        /* \"#utility.yul\":13958:13962   */\n      dup2\n        /* \"#utility.yul\":13832:13963   */\n      tag_311\n      jump\t// in\n    tag_477:\n        /* \"#utility.yul\":13824:13963   */\n      swap1\n      pop\n        /* \"#utility.yul\":13551:13970   */\n      swap2\n      swap1\n      pop\n      jump\t// out\n        /* \"#utility.yul\":13976:14119   */\n    tag_312:\n        /* \"#utility.yul\":14033:14038   */\n      0x00\n        /* \"#utility.yul\":14064:14070   */\n      dup2\n        /* \"#utility.yul\":14058:14071   */\n      mload\n        /* \"#utility.yul\":14049:14071   */\n      swap1\n      pop\n        /* \"#utility.yul\":14080:14113   */\n      tag_479\n        /* \"#utility.yul\":14107:14112   */\n      dup2\n        /* \"#utility.yul\":14080:14113   */\n      tag_286\n      jump\t// in\n    tag_479:\n        /* \"#utility.yul\":13976:14119   */\n      swap3\n      swap2\n      pop\n      pop\n      jump\t// out\n        /* \"#utility.yul\":14125:14476   */\n    tag_170:\n        /* \"#utility.yul\":14195:14201   */\n      0x00\n        /* \"#utility.yul\":14244:14246   */\n      0x20\n        /* \"#utility.yul\":14232:14241   */\n      dup3\n        /* \"#utility.yul\":14223:14230   */\n      dup5\n        /* \"#utility.yul\":14219:14242   */\n      sub\n        /* \"#utility.yul\":14215:14247   */\n      slt\n        /* \"#utility.yul\":14212:14331   */\n      iszero\n      tag_481\n      jumpi\n        /* \"#utility.yul\":14250:14329   */\n      tag_482\n      tag_279\n      jump\t// in\n    tag_482:\n        /* \"#utility.yul\":14212:14331   */\n    tag_481:\n        /* \"#utility.yul\":14370:14371   */\n      0x00\n        /* \"#utility.yul\":14395:14459   */\n      tag_483\n        /* \"#utility.yul\":14451:14458   */\n      dup5\n        /* \"#utility.yul\":14442:14448   */\n      dup3\n        /* \"#utility.yul\":14431:14440   */\n      dup6\n        /* \"#utility.yul\":14427:14449   */\n      add\n        /* \"#utility.yul\":14395:14459   */\n      tag_312\n      jump\t// in\n    tag_483:\n        /* \"#utility.yul\":14385:14459   */\n      swap2\n      pop\n        /* \"#utility.yul\":14341:14469   */\n      pop\n        /* \"#utility.yul\":14125:14476   */\n      swap3\n      swap2\n      pop\n      pop\n      jump\t// out\n        /* \"#utility.yul\":14482:14647   */\n    tag_313:\n        /* \"#utility.yul\":14622:14639   */\n      0x496e76616c696420616464726573730000000000000000000000000000000000\n        /* \"#utility.yul\":14618:14619   */\n      0x00\n        /* \"#utility.yul\":14610:14616   */\n      dup3\n        /* \"#utility.yul\":14606:14620   */\n      add\n        /* \"#utility.yul\":14599:14640   */\n      mstore\n        /* \"#utility.yul\":14482:14647   */\n      pop\n      jump\t// out\n        /* \"#utility.yul\":14653:15019   */\n    tag_314:\n        /* \"#utility.yul\":14795:14798   */\n      0x00\n        /* \"#utility.yul\":14816:14883   */\n      tag_486\n        /* \"#utility.yul\":14880:14882   */\n      0x0f\n        /* \"#utility.yul\":14875:14878   */\n      dup4\n        /* \"#utility.yul\":14816:14883   */\n      tag_271\n      jump\t// in\n    tag_486:\n        /* \"#utility.yul\":14809:14883   */\n      swap2\n      pop\n        /* \"#utility.yul\":14892:14985   */\n      tag_487\n        /* \"#utility.yul\":14981:14984   */\n      dup3\n        /* \"#utility.yul\":14892:14985   */\n      tag_313\n      jump\t// in\n    tag_487:\n        /* \"#utility.yul\":15010:15012   */\n      0x20\n        /* \"#utility.yul\":15005:15008   */\n      dup3\n        /* \"#utility.yul\":15001:15013   */\n      add\n        /* \"#utility.yul\":14994:15013   */\n      swap1\n      pop\n        /* \"#utility.yul\":14653:15019   */\n      swap2\n      swap1\n      pop\n      jump\t// out\n        /* \"#utility.yul\":15025:15444   */\n    tag_181:\n        /* \"#utility.yul\":15191:15195   */\n      0x00\n        /* \"#utility.yul\":15229:15231   */\n      0x20\n        /* \"#utility.yul\":15218:15227   */\n      dup3\n        /* \"#utility.yul\":15214:15232   */\n      add\n        /* \"#utility.yul\":15206:15232   */\n      swap1\n      pop\n        /* \"#utility.yul\":15278:15287   */\n      dup2\n        /* \"#utility.yul\":15272:15276   */\n      dup2\n        /* \"#utility.yul\":15268:15288   */\n      sub\n        /* \"#utility.yul\":15264:15265   */\n      0x00\n        /* \"#utility.yul\":15253:15262   */\n      dup4\n        /* \"#utility.yul\":15249:15266   */\n      add\n        /* \"#utility.yul\":15242:15289   */\n      mstore\n        /* \"#utility.yul\":15306:15437   */\n      tag_489\n        /* \"#utility.yul\":15432:15436   */\n      dup2\n        /* \"#utility.yul\":15306:15437   */\n      tag_314\n      jump\t// in\n    tag_489:\n        /* \"#utility.yul\":15298:15437   */\n      swap1\n      pop\n        /* \"#utility.yul\":15025:15444   */\n      swap2\n      swap1\n      pop\n      jump\t// out\n        /* \"#utility.yul\":15450:15618   */\n    tag_315:\n        /* \"#utility.yul\":15590:15610   */\n      0x416d6f756e74206d757374206265203e20300000000000000000000000000000\n        /* \"#utility.yul\":15586:15587   */\n      0x00\n        /* \"#utility.yul\":15578:15584   */\n      dup3\n        /* \"#utility.yul\":15574:15588   */\n      add\n        /* \"#utility.yul\":15567:15611   */\n      mstore\n        /* \"#utility.yul\":15450:15618   */\n      pop\n      jump\t// out\n        /* \"#utility.yul\":15624:15990   */\n    tag_316:\n        /* \"#utility.yul\":15766:15769   */\n      0x00\n        /* \"#utility.yul\":15787:15854   */\n      tag_492\n        /* \"#utility.yul\":15851:15853   */\n      0x12\n        /* \"#utility.yul\":15846:15849   */\n      dup4\n        /* \"#utility.yul\":15787:15854   */\n      tag_271\n      jump\t// in\n    tag_492:\n        /* \"#utility.yul\":15780:15854   */\n      swap2\n      pop\n        /* \"#utility.yul\":15863:15956   */\n      tag_493\n        /* \"#utility.yul\":15952:15955   */\n      dup3\n        /* \"#utility.yul\":15863:15956   */\n      tag_315\n      jump\t// in\n    tag_493:\n        /* \"#utility.yul\":15981:15983   */\n      0x20\n        /* \"#utility.yul\":15976:15979   */\n      dup3\n        /* \"#utility.yul\":15972:15984   */\n      add\n        /* \"#utility.yul\":15965:15984   */\n      swap1\n      pop\n        /* \"#utility.yul\":15624:15990   */\n      swap2\n      swap1\n      pop\n      jump\t// out\n        /* \"#utility.yul\":15996:16415   */\n    tag_184:\n        /* \"#utility.yul\":16162:16166   */\n      0x00\n        /* \"#utility.yul\":16200:16202   */\n      0x20\n        /* \"#utility.yul\":16189:16198   */\n      dup3\n        /* \"#utility.yul\":16185:16203   */\n      add\n        /* \"#utility.yul\":16177:16203   */\n      swap1\n      pop\n        /* \"#utility.yul\":16249:16258   */\n      dup2\n        /* \"#utility.yul\":16243:16247   */\n      dup2\n        /* \"#utility.yul\":16239:16259   */\n      sub\n        /* \"#utility.yul\":16235:16236   */\n      0x00\n        /* \"#utility.yul\":16224:16233   */\n      dup4\n        /* \"#utility.yul\":16220:16237   */\n      add\n        /* \"#utility.yul\":16213:16260   */\n      mstore\n        /* \"#utility.yul\":16277:16408   */\n      tag_495\n        /* \"#utility.yul\":16403:16407   */\n      dup2\n        /* \"#utility.yul\":16277:16408   */\n      tag_316\n      jump\t// in\n    tag_495:\n        /* \"#utility.yul\":16269:16408   */\n      swap1\n      pop\n        /* \"#utility.yul\":15996:16415   */\n      swap2\n      swap1\n      pop\n      jump\t// out\n        /* \"#utility.yul\":16421:16591   */\n    tag_317:\n        /* \"#utility.yul\":16561:16583   */\n      0x496e73756666696369656e742062616c616e6365000000000000000000000000\n        /* \"#utility.yul\":16557:16558   */\n      0x00\n        /* \"#utility.yul\":16549:16555   */\n      dup3\n        /* \"#utility.yul\":16545:16559   */\n      add\n        /* \"#utility.yul\":16538:16584   */\n      mstore\n        /* \"#utility.yul\":16421:16591   */\n      pop\n      jump\t// out\n        /* \"#utility.yul\":16597:16963   */\n    tag_318:\n        /* \"#utility.yul\":16739:16742   */\n      0x00\n        /* \"#utility.yul\":16760:16827   */\n      tag_498\n        /* \"#utility.yul\":16824:16826   */\n      0x14\n        /* \"#utility.yul\":16819:16822   */\n      dup4\n        /* \"#utility.yul\":16760:16827   */\n      tag_271\n      jump\t// in\n    tag_498:\n        /* \"#utility.yul\":16753:16827   */\n      swap2\n      pop\n        /* \"#utility.yul\":16836:16929   */\n      tag_499\n        /* \"#utility.yul\":16925:16928   */\n      dup3\n        /* \"#utility.yul\":16836:16929   */\n      tag_317\n      jump\t// in\n    tag_499:\n        /* \"#utility.yul\":16954:16956   */\n      0x20\n        /* \"#utility.yul\":16949:16952   */\n      dup3\n        /* \"#utility.yul\":16945:16957   */\n      add\n        /* \"#utility.yul\":16938:16957   */\n      swap1\n      pop\n        /* \"#utility.yul\":16597:16963   */\n      swap2\n      swap1\n      pop\n      jump\t// out\n        /* \"#utility.yul\":16969:17388   */\n    tag_187:\n        /* \"#utility.yul\":17135:17139   */\n      0x00\n        /* \"#utility.yul\":17173:17175   */\n      0x20\n        /* \"#utility.yul\":17162:17171   */\n      dup3\n        /* \"#utility.yul\":17158:17176   */\n      add\n        /* \"#utility.yul\":17150:17176   */\n      swap1\n      pop\n        /* \"#utility.yul\":17222:17231   */\n      dup2\n        /* \"#utility.yul\":17216:17220   */\n      dup2\n        /* \"#utility.yul\":17212:17232   */\n      sub\n        /* \"#utility.yul\":17208:17209   */\n      0x00\n        /* \"#utility.yul\":17197:17206   */\n      dup4\n        /* \"#utility.yul\":17193:17210   */\n      add\n        /* \"#utility.yul\":17186:17233   */\n      mstore\n        /* \"#utility.yul\":17250:17381   */\n      tag_501\n        /* \"#utility.yul\":17376:17380   */\n      dup2\n        /* \"#utility.yul\":17250:17381   */\n      tag_318\n      jump\t// in\n    tag_501:\n        /* \"#utility.yul\":17242:17381   */\n      swap1\n      pop\n        /* \"#utility.yul\":16969:17388   */\n      swap2\n      swap1\n      pop\n      jump\t// out\n        /* \"#utility.yul\":17394:17562   */\n    tag_319:\n        /* \"#utility.yul\":17534:17554   */\n      0x416c6c6f77616e63652065786365656465640000000000000000000000000000\n        /* \"#utility.yul\":17530:17531   */\n      0x00\n        /* \"#utility.yul\":17522:17528   */\n      dup3\n        /* \"#utility.yul\":17518:17532   */\n      add\n        /* \"#utility.yul\":17511:17555   */\n      mstore\n        /* \"#utility.yul\":17394:17562   */\n      pop\n      jump\t// out\n        /* \"#utility.yul\":17568:17934   */\n    tag_320:\n        /* \"#utility.yul\":17710:17713   */\n      0x00\n        /* \"#utility.yul\":17731:17798   */\n      tag_504\n        /* \"#utility.yul\":17795:17797   */\n      0x12\n        /* \"#utility.yul\":17790:17793   */\n      dup4\n        /* \"#utility.yul\":17731:17798   */\n      tag_271\n      jump\t// in\n    tag_504:\n        /* \"#utility.yul\":17724:17798   */\n      swap2\n      pop\n        /* \"#utility.yul\":17807:17900   */\n      tag_505\n        /* \"#utility.yul\":17896:17899   */\n      dup3\n        /* \"#utility.yul\":17807:17900   */\n      tag_319\n      jump\t// in\n    tag_505:\n        /* \"#utility.yul\":17925:17927   */\n      0x20\n        /* \"#utility.yul\":17920:17923   */\n      dup3\n        /* \"#utility.yul\":17916:17928   */\n      add\n        /* \"#utility.yul\":17909:17928   */\n      swap1\n      pop\n        /* \"#utility.yul\":17568:17934   */\n      swap2\n      swap1\n      pop\n      jump\t// out\n        /* \"#utility.yul\":17940:18359   */\n    tag_190:\n        /* \"#utility.yul\":18106:18110   */\n      0x00\n        /* \"#utility.yul\":18144:18146   */\n      0x20\n        /* \"#utility.yul\":18133:18142   */\n      dup3\n        /* \"#utility.yul\":18129:18147   */\n      add\n        /* \"#utility.yul\":18121:18147   */\n      swap1\n      pop\n        /* \"#utility.yul\":18193:18202   */\n      dup2\n        /* \"#utility.yul\":18187:18191   */\n      dup2\n        /* \"#utility.yul\":18183:18203   */\n      sub\n        /* \"#utility.yul\":18179:18180   */\n      0x00\n        /* \"#utility.yul\":18168:18177   */\n      dup4\n        /* \"#utility.yul\":18164:18181   */\n      add\n        /* \"#utility.yul\":18157:18204   */\n      mstore\n        /* \"#utility.yul\":18221:18352   */\n      tag_507\n        /* \"#utility.yul\":18347:18351   */\n      dup2\n        /* \"#utility.yul\":18221:18352   */\n      tag_320\n      jump\t// in\n    tag_507:\n        /* \"#utility.yul\":18213:18352   */\n      swap1\n      pop\n        /* \"#utility.yul\":17940:18359   */\n      swap2\n      swap1\n      pop\n      jump\t// out\n        /* \"#utility.yul\":18365:18545   */\n    tag_321:\n        /* \"#utility.yul\":18413:18490   */\n      0x4e487b7100000000000000000000000000000000000000000000000000000000\n        /* \"#utility.yul\":18410:18411   */\n      0x00\n        /* \"#utility.yul\":18403:18491   */\n      mstore\n        /* \"#utility.yul\":18510:18514   */\n      0x11\n        /* \"#utility.yul\":18507:18508   */\n      0x04\n        /* \"#utility.yul\":18500:18515   */\n      mstore\n        /* \"#utility.yul\":18534:18538   */\n      0x24\n        /* \"#utility.yul\":18531:18532   */\n      0x00\n        /* \"#utility.yul\":18524:18539   */\n      revert\n        /* \"#utility.yul\":18551:18745   */\n    tag_192:\n        /* \"#utility.yul\":18591:18595   */\n      0x00\n        /* \"#utility.yul\":18611:18631   */\n      tag_510\n        /* \"#utility.yul\":18629:18630   */\n      dup3\n        /* \"#utility.yul\":18611:18631   */\n      tag_285\n      jump\t// in\n    tag_510:\n        /* \"#utility.yul\":18606:18631   */\n      swap2\n      pop\n        /* \"#utility.yul\":18645:18665   */\n      tag_511\n        /* \"#utility.yul\":18663:18664   */\n      dup4\n        /* \"#utility.yul\":18645:18665   */\n      tag_285\n      jump\t// in\n    tag_511:\n        /* \"#utility.yul\":18640:18665   */\n      swap3\n      pop\n        /* \"#utility.yul\":18689:18690   */\n      dup3\n        /* \"#utility.yul\":18686:18687   */\n      dup3\n        /* \"#utility.yul\":18682:18691   */\n      sub\n        /* \"#utility.yul\":18674:18691   */\n      swap1\n      pop\n        /* \"#utility.yul\":18713:18714   */\n      dup2\n        /* \"#utility.yul\":18707:18711   */\n      dup2\n        /* \"#utility.yul\":18704:18715   */\n      gt\n        /* \"#utility.yul\":18701:18738   */\n      iszero\n      tag_512\n      jumpi\n        /* \"#utility.yul\":18718:18736   */\n      tag_513\n      tag_321\n      jump\t// in\n    tag_513:\n        /* \"#utility.yul\":18701:18738   */\n    tag_512:\n        /* \"#utility.yul\":18551:18745   */\n      swap3\n      swap2\n      pop\n      pop\n      jump\t// out\n        /* \"#utility.yul\":18751:18942   */\n    tag_194:\n        /* \"#utility.yul\":18791:18794   */\n      0x00\n        /* \"#utility.yul\":18810:18830   */\n      tag_515\n        /* \"#utility.yul\":18828:18829   */\n      dup3\n        /* \"#utility.yul\":18810:18830   */\n      tag_285\n      jump\t// in\n    tag_515:\n        /* \"#utility.yul\":18805:18830   */\n      swap2\n      pop\n        /* \"#utility.yul\":18844:18864   */\n      tag_516\n        /* \"#utility.yul\":18862:18863   */\n      dup4\n        /* \"#utility.yul\":18844:18864   */\n      tag_285\n      jump\t// in\n    tag_516:\n        /* \"#utility.yul\":18839:18864   */\n      swap3\n      pop\n        /* \"#utility.yul\":18887:18888   */\n      dup3\n        /* \"#utility.yul\":18884:18885   */\n      dup3\n        /* \"#utility.yul\":18880:18889   */\n      add\n        /* \"#utility.yul\":18873:18889   */\n      swap1\n      pop\n        /* \"#utility.yul\":18908:18911   */\n      dup1\n        /* \"#utility.yul\":18905:18906   */\n      dup3\n        /* \"#utility.yul\":18902:18912   */\n      gt\n        /* \"#utility.yul\":18899:18935   */\n      iszero\n      tag_517\n      jumpi\n        /* \"#utility.yul\":18915:18933   */\n      tag_518\n      tag_321\n      jump\t// in\n    tag_518:\n        /* \"#utility.yul\":18899:18935   */\n    tag_517:\n        /* \"#utility.yul\":18751:18942   */\n      swap3\n      swap2\n      pop\n      pop\n      jump\t// out\n        /* \"#utility.yul\":18948:19382   */\n    tag_322:\n        /* \"#utility.yul\":19037:19042   */\n      0x00\n        /* \"#utility.yul\":19062:19128   */\n      tag_520\n        /* \"#utility.yul\":19078:19127   */\n      tag_521\n        /* \"#utility.yul\":19120:19126   */\n      dup5\n        /* \"#utility.yul\":19078:19127   */\n      tag_298\n      jump\t// in\n    tag_521:\n        /* \"#utility.yul\":19062:19128   */\n      tag_297\n      jump\t// in\n    tag_520:\n        /* \"#utility.yul\":19053:19128   */\n      swap1\n      pop\n        /* \"#utility.yul\":19151:19157   */\n      dup3\n        /* \"#utility.yul\":19144:19149   */\n      dup2\n        /* \"#utility.yul\":19137:19158   */\n      mstore\n        /* \"#utility.yul\":19189:19193   */\n      0x20\n        /* \"#utility.yul\":19182:19187   */\n      dup2\n        /* \"#utility.yul\":19178:19194   */\n      add\n        /* \"#utility.yul\":19227:19230   */\n      dup5\n        /* \"#utility.yul\":19218:19224   */\n      dup5\n        /* \"#utility.yul\":19213:19216   */\n      dup5\n        /* \"#utility.yul\":19209:19225   */\n      add\n        /* \"#utility.yul\":19206:19231   */\n      gt\n        /* \"#utility.yul\":19203:19315   */\n      iszero\n      tag_522\n      jumpi\n        /* \"#utility.yul\":19234:19313   */\n      tag_523\n      tag_294\n      jump\t// in\n    tag_523:\n        /* \"#utility.yul\":19203:19315   */\n    tag_522:\n        /* \"#utility.yul\":19324:19376   */\n      tag_524\n        /* \"#utility.yul\":19369:19375   */\n      dup5\n        /* \"#utility.yul\":19364:19367   */\n      dup3\n        /* \"#utility.yul\":19359:19362   */\n      dup6\n        /* \"#utility.yul\":19324:19376   */\n      tag_275\n      jump\t// in\n    tag_524:\n        /* \"#utility.yul\":19043:19382   */\n      pop\n        /* \"#utility.yul\":18948:19382   */\n      swap4\n      swap3\n      pop\n      pop\n      pop\n      jump\t// out\n        /* \"#utility.yul\":19402:19757   */\n    tag_323:\n        /* \"#utility.yul\":19469:19474   */\n      0x00\n        /* \"#utility.yul\":19518:19521   */\n      dup3\n        /* \"#utility.yul\":19511:19515   */\n      0x1f\n        /* \"#utility.yul\":19503:19509   */\n      dup4\n        /* \"#utility.yul\":19499:19516   */\n      add\n        /* \"#utility.yul\":19495:19522   */\n      slt\n        /* \"#utility.yul\":19485:19607   */\n      tag_526\n      jumpi\n        /* \"#utility.yul\":19526:19605   */\n      tag_527\n      tag_293\n      jump\t// in\n    tag_527:\n        /* \"#utility.yul\":19485:19607   */\n    tag_526:\n        /* \"#utility.yul\":19636:19642   */\n      dup2\n        /* \"#utility.yul\":19630:19643   */\n      mload\n        /* \"#utility.yul\":19661:19751   */\n      tag_528\n        /* \"#utility.yul\":19747:19750   */\n      dup5\n        /* \"#utility.yul\":19739:19745   */\n      dup3\n        /* \"#utility.yul\":19732:19736   */\n      0x20\n        /* \"#utility.yul\":19724:19730   */\n      dup7\n        /* \"#utility.yul\":19720:19737   */\n      add\n        /* \"#utility.yul\":19661:19751   */\n      tag_322\n      jump\t// in\n    tag_528:\n        /* \"#utility.yul\":19652:19751   */\n      swap2\n      pop\n        /* \"#utility.yul\":19475:19757   */\n      pop\n        /* \"#utility.yul\":19402:19757   */\n      swap3\n      swap2\n      pop\n      pop\n      jump\t// out\n        /* \"#utility.yul\":19763:20287   */\n    tag_201:\n        /* \"#utility.yul\":19843:19849   */\n      0x00\n        /* \"#utility.yul\":19892:19894   */\n      0x20\n        /* \"#utility.yul\":19880:19889   */\n      dup3\n        /* \"#utility.yul\":19871:19878   */\n      dup5\n        /* \"#utility.yul\":19867:19890   */\n      sub\n        /* \"#utility.yul\":19863:19895   */\n      slt\n        /* \"#utility.yul\":19860:19979   */\n      iszero\n      tag_530\n      jumpi\n        /* \"#utility.yul\":19898:19977   */\n      tag_531\n      tag_279\n      jump\t// in\n    tag_531:\n        /* \"#utility.yul\":19860:19979   */\n    tag_530:\n        /* \"#utility.yul\":20039:20040   */\n      0x00\n        /* \"#utility.yul\":20028:20037   */\n      dup3\n        /* \"#utility.yul\":20024:20041   */\n      add\n        /* \"#utility.yul\":20018:20042   */\n      mload\n        /* \"#utility.yul\":20069:20087   */\n      0xffffffffffffffff\n        /* \"#utility.yul\":20061:20067   */\n      dup2\n        /* \"#utility.yul\":20058:20088   */\n      gt\n        /* \"#utility.yul\":20055:20172   */\n      iszero\n      tag_532\n      jumpi\n        /* \"#utility.yul\":20091:20170   */\n      tag_533\n      tag_280\n      jump\t// in\n    tag_533:\n        /* \"#utility.yul\":20055:20172   */\n    tag_532:\n        /* \"#utility.yul\":20196:20270   */\n      tag_534\n        /* \"#utility.yul\":20262:20269   */\n      dup5\n        /* \"#utility.yul\":20253:20259   */\n      dup3\n        /* \"#utility.yul\":20242:20251   */\n      dup6\n        /* \"#utility.yul\":20238:20260   */\n      add\n        /* \"#utility.yul\":20196:20270   */\n      tag_323\n      jump\t// in\n    tag_534:\n        /* \"#utility.yul\":20186:20270   */\n      swap2\n      pop\n        /* \"#utility.yul\":19989:20280   */\n      pop\n        /* \"#utility.yul\":19763:20287   */\n      swap3\n      swap2\n      pop\n      pop\n      jump\t// out\n        /* \"#utility.yul\":20293:20461   */\n    tag_324:\n        /* \"#utility.yul\":20433:20453   */\n      0x5570646174657320617265206c6f636b65640000000000000000000000000000\n        /* \"#utility.yul\":20429:20430   */\n      0x00\n        /* \"#utility.yul\":20421:20427   */\n      dup3\n        /* \"#utility.yul\":20417:20431   */\n      add\n        /* \"#utility.yul\":20410:20454   */\n      mstore\n        /* \"#utility.yul\":20293:20461   */\n      pop\n      jump\t// out\n        /* \"#utility.yul\":20467:20833   */\n    tag_325:\n        /* \"#utility.yul\":20609:20612   */\n      0x00\n        /* \"#utility.yul\":20630:20697   */\n      tag_537\n        /* \"#utility.yul\":20694:20696   */\n      0x12\n        /* \"#utility.yul\":20689:20692   */\n      dup4\n        /* \"#utility.yul\":20630:20697   */\n      tag_271\n      jump\t// in\n    tag_537:\n        /* \"#utility.yul\":20623:20697   */\n      swap2\n      pop\n        /* \"#utility.yul\":20706:20799   */\n      tag_538\n        /* \"#utility.yul\":20795:20798   */\n      dup3\n        /* \"#utility.yul\":20706:20799   */\n      tag_324\n      jump\t// in\n    tag_538:\n        /* \"#utility.yul\":20824:20826   */\n      0x20\n        /* \"#utility.yul\":20819:20822   */\n      dup3\n        /* \"#utility.yul\":20815:20827   */\n      add\n        /* \"#utility.yul\":20808:20827   */\n      swap1\n      pop\n        /* \"#utility.yul\":20467:20833   */\n      swap2\n      swap1\n      pop\n      jump\t// out\n        /* \"#utility.yul\":20839:21258   */\n    tag_232:\n        /* \"#utility.yul\":21005:21009   */\n      0x00\n        /* \"#utility.yul\":21043:21045   */\n      0x20\n        /* \"#utility.yul\":21032:21041   */\n      dup3\n        /* \"#utility.yul\":21028:21046   */\n      add\n        /* \"#utility.yul\":21020:21046   */\n      swap1\n      pop\n        /* \"#utility.yul\":21092:21101   */\n      dup2\n        /* \"#utility.yul\":21086:21090   */\n      dup2\n        /* \"#utility.yul\":21082:21102   */\n      sub\n        /* \"#utility.yul\":21078:21079   */\n      0x00\n        /* \"#utility.yul\":21067:21076   */\n      dup4\n        /* \"#utility.yul\":21063:21080   */\n      add\n        /* \"#utility.yul\":21056:21103   */\n      mstore\n        /* \"#utility.yul\":21120:21251   */\n      tag_540\n        /* \"#utility.yul\":21246:21250   */\n      dup2\n        /* \"#utility.yul\":21120:21251   */\n      tag_325\n      jump\t// in\n    tag_540:\n        /* \"#utility.yul\":21112:21251   */\n      swap1\n      pop\n        /* \"#utility.yul\":20839:21258   */\n      swap2\n      swap1\n      pop\n      jump\t// out\n        /* \"#utility.yul\":21264:21405   */\n    tag_326:\n        /* \"#utility.yul\":21313:21317   */\n      0x00\n        /* \"#utility.yul\":21336:21339   */\n      dup2\n        /* \"#utility.yul\":21328:21339   */\n      swap1\n      pop\n        /* \"#utility.yul\":21359:21362   */\n      dup2\n        /* \"#utility.yul\":21356:21357   */\n      0x00\n        /* \"#utility.yul\":21349:21363   */\n      mstore\n        /* \"#utility.yul\":21393:21397   */\n      0x20\n        /* \"#utility.yul\":21390:21391   */\n      0x00\n        /* \"#utility.yul\":21380:21398   */\n      keccak256\n        /* \"#utility.yul\":21372:21398   */\n      swap1\n      pop\n        /* \"#utility.yul\":21264:21405   */\n      swap2\n      swap1\n      pop\n      jump\t// out\n        /* \"#utility.yul\":21411:21504   */\n    tag_327:\n        /* \"#utility.yul\":21448:21454   */\n      0x00\n        /* \"#utility.yul\":21495:21497   */\n      0x20\n        /* \"#utility.yul\":21490:21492   */\n      0x1f\n        /* \"#utility.yul\":21483:21488   */\n      dup4\n        /* \"#utility.yul\":21479:21493   */\n      add\n        /* \"#utility.yul\":21475:21498   */\n      div\n        /* \"#utility.yul\":21465:21498   */\n      swap1\n      pop\n        /* \"#utility.yul\":21411:21504   */\n      swap2\n      swap1\n      pop\n      jump\t// out\n        /* \"#utility.yul\":21510:21617   */\n    tag_328:\n        /* \"#utility.yul\":21554:21562   */\n      0x00\n        /* \"#utility.yul\":21604:21609   */\n      dup3\n        /* \"#utility.yul\":21598:21602   */\n      dup3\n        /* \"#utility.yul\":21594:21610   */\n      shl\n        /* \"#utility.yul\":21573:21610   */\n      swap1\n      pop\n        /* \"#utility.yul\":21510:21617   */\n      swap3\n      swap2\n      pop\n      pop\n      jump\t// out\n        /* \"#utility.yul\":21623:22016   */\n    tag_329:\n        /* \"#utility.yul\":21692:21698   */\n      0x00\n        /* \"#utility.yul\":21742:21743   */\n      0x08\n        /* \"#utility.yul\":21730:21740   */\n      dup4\n        /* \"#utility.yul\":21726:21744   */\n      mul\n        /* \"#utility.yul\":21765:21862   */\n      tag_545\n        /* \"#utility.yul\":21795:21861   */\n      0xffffffffffffffffffffffffffffffffffffffffffffffffffffffffffffffff\n        /* \"#utility.yul\":21784:21793   */\n      dup3\n        /* \"#utility.yul\":21765:21862   */\n      tag_328\n      jump\t// in\n    tag_545:\n        /* \"#utility.yul\":21883:21922   */\n      tag_546\n        /* \"#utility.yul\":21913:21921   */\n      dup7\n        /* \"#utility.yul\":21902:21911   */\n      dup4\n        /* \"#utility.yul\":21883:21922   */\n      tag_328\n      jump\t// in\n    tag_546:\n        /* \"#utility.yul\":21871:21922   */\n      swap6\n      pop\n        /* \"#utility.yul\":21955:21959   */\n      dup1\n        /* \"#utility.yul\":21951:21960   */\n      not\n        /* \"#utility.yul\":21944:21949   */\n      dup5\n        /* \"#utility.yul\":21940:21961   */\n      and\n        /* \"#utility.yul\":21931:21961   */\n      swap4\n      pop\n        /* \"#utility.yul\":22004:22008   */\n      dup1\n        /* \"#utility.yul\":21994:22002   */\n      dup7\n        /* \"#utility.yul\":21990:22009   */\n      and\n        /* \"#utility.yul\":21983:21988   */\n      dup5\n        /* \"#utility.yul\":21980:22010   */\n      or\n        /* \"#utility.yul\":21970:22010   */\n      swap3\n      pop\n        /* \"#utility.yul\":21699:22016   */\n      pop\n      pop\n        /* \"#utility.yul\":21623:22016   */\n      swap4\n      swap3\n      pop\n      pop\n      pop\n      jump\t// out\n        /* \"#utility.yul\":22022:22082   */\n    tag_330:\n        /* \"#utility.yul\":22050:22053   */\n      0x00\n        /* \"#utility.yul\":22071:22076   */\n      dup2\n        /* \"#utility.yul\":22064:22076   */\n      swap1\n      pop\n        /* \"#utility.yul\":22022:22082   */\n      swap2\n      swap1\n      pop\n      jump\t// out\n        /* \"#utility.yul\":22088:22230   */\n    tag_331:\n        /* \"#utility.yul\":22138:22147   */\n      0x00\n        /* \"#utility.yul\":22171:22224   */\n      tag_549\n        /* \"#utility.yul\":22189:22223   */\n      tag_550\n        /* \"#utility.yul\":22198:22222   */\n      tag_551\n        /* \"#utility.yul\":22216:22221   */\n      dup5\n        /* \"#utility.yul\":22198:22222   */\n      tag_285\n      jump\t// in\n    tag_551:\n        /* \"#utility.yul\":22189:22223   */\n      tag_330\n      jump\t// in\n    tag_550:\n        /* \"#utility.yul\":22171:22224   */\n      tag_285\n      jump\t// in\n    tag_549:\n        /* \"#utility.yul\":22158:22224   */\n      swap1\n      pop\n        /* \"#utility.yul\":22088:22230   */\n      swap2\n      swap1\n      pop\n      jump\t// out\n        /* \"#utility.yul\":22236:22311   */\n    tag_332:\n        /* \"#utility.yul\":22279:22282   */\n      0x00\n        /* \"#utility.yul\":22300:22305   */\n      dup2\n        /* \"#utility.yul\":22293:22305   */\n      swap1\n      pop\n        /* \"#utility.yul\":22236:22311   */\n      swap2\n      swap1\n      pop\n      jump\t// out\n        /* \"#utility.yul\":22317:22586   */\n    tag_333:\n        /* \"#utility.yul\":22427:22466   */\n      tag_554\n        /* \"#utility.yul\":22458:22465   */\n      dup4\n        /* \"#utility.yul\":22427:22466   */\n      tag_331\n      jump\t// in\n    tag_554:\n        /* \"#utility.yul\":22488:22579   */\n      tag_555\n        /* \"#utility.yul\":22537:22578   */\n      tag_556\n        /* \"#utility.yul\":22561:22577   */\n      dup3\n        /* \"#utility.yul\":22537:22578   */\n      tag_332\n      jump\t// in\n    tag_556:\n        /* \"#utility.yul\":22529:22535   */\n      dup5\n        /* \"#utility.yul\":22522:22526   */\n      dup5\n        /* \"#utility.yul\":22516:22527   */\n      sload\n        /* \"#utility.yul\":22488:22579   */\n      tag_329\n      jump\t// in\n    tag_555:\n        /* \"#utility.yul\":22482:22486   */\n      dup3\n        /* \"#utility.yul\":22475:22580   */\n      sstore\n        /* \"#utility.yul\":22393:22586   */\n      pop\n        /* \"#utility.yul\":22317:22586   */\n      pop\n      pop\n      pop\n      jump\t// out\n        /* \"#utility.yul\":22592:22665   */\n    tag_334:\n        /* \"#utility.yul\":22637:22640   */\n      0x00\n        /* \"#utility.yul\":22658:22659   */\n      0x00\n        /* \"#utility.yul\":22651:22659   */\n      swap1\n      pop\n        /* \"#utility.yul\":22592:22665   */\n      swap1\n      jump\t// out\n        /* \"#utility.yul\":22671:22860   */\n    tag_335:\n        /* \"#utility.yul\":22748:22780   */\n      tag_559\n      tag_334\n      jump\t// in\n    tag_559:\n        /* \"#utility.yul\":22789:22854   */\n      tag_560\n        /* \"#utility.yul\":22847:22853   */\n      dup2\n        /* \"#utility.yul\":22839:22845   */\n      dup5\n        /* \"#utility.yul\":22833:22837   */\n      dup5\n        /* \"#utility.yul\":22789:22854   */\n      tag_333\n      jump\t// in\n    tag_560:\n        /* \"#utility.yul\":22724:22860   */\n      pop\n        /* \"#utility.yul\":22671:22860   */\n      pop\n      pop\n      jump\t// out\n        /* \"#utility.yul\":22866:23052   */\n    tag_336:\n        /* \"#utility.yul\":22926:23046   */\n    tag_562:\n        /* \"#utility.yul\":22943:22946   */\n      dup2\n        /* \"#utility.yul\":22936:22941   */\n      dup2\n        /* \"#utility.yul\":22933:22947   */\n      lt\n        /* \"#utility.yul\":22926:23046   */\n      iszero\n      tag_564\n      jumpi\n        /* \"#utility.yul\":22997:23036   */\n      tag_565\n        /* \"#utility.yul\":23034:23035   */\n      0x00\n        /* \"#utility.yul\":23027:23032   */\n      dup3\n        /* \"#utility.yul\":22997:23036   */\n      tag_335\n      jump\t// in\n    tag_565:\n        /* \"#utility.yul\":22970:22971   */\n      0x01\n        /* \"#utility.yul\":22963:22968   */\n      dup2\n        /* \"#utility.yul\":22959:22972   */\n      add\n        /* \"#utility.yul\":22950:22972   */\n      swap1\n      pop\n        /* \"#utility.yul\":22926:23046   */\n      jump(tag_562)\n    tag_564:\n        /* \"#utility.yul\":22866:23052   */\n      pop\n      pop\n      jump\t// out\n        /* \"#utility.yul\":23058:23601   */\n    tag_337:\n        /* \"#utility.yul\":23159:23161   */\n      0x1f\n        /* \"#utility.yul\":23154:23157   */\n      dup3\n        /* \"#utility.yul\":23151:23162   */\n      gt\n        /* \"#utility.yul\":23148:23594   */\n      iszero\n      tag_567\n      jumpi\n        /* \"#utility.yul\":23193:23231   */\n      tag_568\n        /* \"#utility.yul\":23225:23230   */\n      dup2\n        /* \"#utility.yul\":23193:23231   */\n      tag_326\n      jump\t// in\n    tag_568:\n        /* \"#utility.yul\":23277:23306   */\n      tag_569\n        /* \"#utility.yul\":23295:23305   */\n      dup5\n        /* \"#utility.yul\":23277:23306   */\n      tag_327\n      jump\t// in\n    tag_569:\n        /* \"#utility.yul\":23267:23275   */\n      dup2\n        /* \"#utility.yul\":23263:23307   */\n      add\n        /* \"#utility.yul\":23460:23462   */\n      0x20\n        /* \"#utility.yul\":23448:23458   */\n      dup6\n        /* \"#utility.yul\":23445:23463   */\n      lt\n        /* \"#utility.yul\":23442:23491   */\n      iszero\n      tag_570\n      jumpi\n        /* \"#utility.yul\":23481:23489   */\n      dup2\n        /* \"#utility.yul\":23466:23489   */\n      swap1\n      pop\n        /* \"#utility.yul\":23442:23491   */\n    tag_570:\n        /* \"#utility.yul\":23504:23584   */\n      tag_571\n        /* \"#utility.yul\":23560:23582   */\n      tag_572\n        /* \"#utility.yul\":23578:23581   */\n      dup6\n        /* \"#utility.yul\":23560:23582   */\n      tag_327\n      jump\t// in\n    tag_572:\n        /* \"#utility.yul\":23550:23558   */\n      dup4\n        /* \"#utility.yul\":23546:23583   */\n      add\n        /* \"#utility.yul\":23533:23544   */\n      dup3\n        /* \"#utility.yul\":23504:23584   */\n      tag_336\n      jump\t// in\n    tag_571:\n        /* \"#utility.yul\":23163:23594   */\n      pop\n      pop\n        /* \"#utility.yul\":23148:23594   */\n    tag_567:\n        /* \"#utility.yul\":23058:23601   */\n      pop\n      pop\n      pop\n      jump\t// out\n        /* \"#utility.yul\":23607:23724   */\n    tag_338:\n        /* \"#utility.yul\":23661:23669   */\n      0x00\n        /* \"#utility.yul\":23711:23716   */\n      dup3\n        /* \"#utility.yul\":23705:23709   */\n      dup3\n        /* \"#utility.yul\":23701:23717   */\n      shr\n        /* \"#utility.yul\":23680:23717   */\n      swap1\n      pop\n        /* \"#utility.yul\":23607:23724   */\n      swap3\n      swap2\n      pop\n      pop\n      jump\t// out\n        /* \"#utility.yul\":23730:23899   */\n    tag_339:\n        /* \"#utility.yul\":23774:23780   */\n      0x00\n        /* \"#utility.yul\":23807:23858   */\n      tag_575\n        /* \"#utility.yul\":23855:23856   */\n      0x00\n        /* \"#utility.yul\":23851:23857   */\n      not\n        /* \"#utility.yul\":23843:23848   */\n      dup5\n        /* \"#utility.yul\":23840:23841   */\n      0x08\n        /* \"#utility.yul\":23836:23849   */\n      mul\n        /* \"#utility.yul\":23807:23858   */\n      tag_338\n      jump\t// in\n    tag_575:\n        /* \"#utility.yul\":23803:23859   */\n      not\n        /* \"#utility.yul\":23888:23892   */\n      dup1\n        /* \"#utility.yul\":23882:23886   */\n      dup4\n        /* \"#utility.yul\":23878:23893   */\n      and\n        /* \"#utility.yul\":23868:23893   */\n      swap2\n      pop\n        /* \"#utility.yul\":23781:23899   */\n      pop\n        /* \"#utility.yul\":23730:23899   */\n      swap3\n      swap2\n      pop\n      pop\n      jump\t// out\n        /* \"#utility.yul\":23904:24199   */\n    tag_340:\n        /* \"#utility.yul\":23980:23984   */\n      0x00\n        /* \"#utility.yul\":24126:24155   */\n      tag_577\n        /* \"#utility.yul\":24151:24154   */\n      dup4\n        /* \"#utility.yul\":24145:24149   */\n      dup4\n        /* \"#utility.yul\":24126:24155   */\n      tag_339\n      jump\t// in\n    tag_577:\n        /* \"#utility.yul\":24118:24155   */\n      swap2\n      pop\n        /* \"#utility.yul\":24188:24191   */\n      dup3\n        /* \"#utility.yul\":24185:24186   */\n      0x02\n        /* \"#utility.yul\":24181:24192   */\n      mul\n        /* \"#utility.yul\":24175:24179   */\n      dup3\n        /* \"#utility.yul\":24172:24193   */\n      or\n        /* \"#utility.yul\":24164:24193   */\n      swap1\n      pop\n        /* \"#utility.yul\":23904:24199   */\n      swap3\n      swap2\n      pop\n      pop\n      jump\t// out\n        /* \"#utility.yul\":24204:25599   */\n    tag_235:\n        /* \"#utility.yul\":24321:24358   */\n      tag_579\n        /* \"#utility.yul\":24354:24357   */\n      dup3\n        /* \"#utility.yul\":24321:24358   */\n      tag_274\n      jump\t// in\n    tag_579:\n        /* \"#utility.yul\":24423:24441   */\n      0xffffffffffffffff\n        /* \"#utility.yul\":24415:24421   */\n      dup2\n        /* \"#utility.yul\":24412:24442   */\n      gt\n        /* \"#utility.yul\":24409:24465   */\n      iszero\n      tag_580\n      jumpi\n        /* \"#utility.yul\":24445:24463   */\n      tag_581\n      tag_295\n      jump\t// in\n    tag_581:\n        /* \"#utility.yul\":24409:24465   */\n    tag_580:\n        /* \"#utility.yul\":24489:24527   */\n      tag_582\n        /* \"#utility.yul\":24521:24525   */\n      dup3\n        /* \"#utility.yul\":24515:24526   */\n      sload\n        /* \"#utility.yul\":24489:24527   */\n      tag_143\n      jump\t// in\n    tag_582:\n        /* \"#utility.yul\":24574:24641   */\n      tag_583\n        /* \"#utility.yul\":24634:24640   */\n      dup3\n        /* \"#utility.yul\":24626:24632   */\n      dup3\n        /* \"#utility.yul\":24620:24624   */\n      dup6\n        /* \"#utility.yul\":24574:24641   */\n      tag_337\n      jump\t// in\n    tag_583:\n        /* \"#utility.yul\":24668:24669   */\n      0x00\n        /* \"#utility.yul\":24692:24696   */\n      0x20\n        /* \"#utility.yul\":24679:24696   */\n      swap1\n      pop\n        /* \"#utility.yul\":24724:24726   */\n      0x1f\n        /* \"#utility.yul\":24716:24722   */\n      dup4\n        /* \"#utility.yul\":24713:24727   */\n      gt\n        /* \"#utility.yul\":24741:24742   */\n      0x01\n        /* \"#utility.yul\":24736:25354   */\n      dup2\n      eq\n      tag_585\n      jumpi\n        /* \"#utility.yul\":25398:25399   */\n      0x00\n        /* \"#utility.yul\":25415:25421   */\n      dup5\n        /* \"#utility.yul\":25412:25489   */\n      iszero\n      tag_586\n      jumpi\n        /* \"#utility.yul\":25464:25473   */\n      dup3\n        /* \"#utility.yul\":25459:25462   */\n      dup8\n        /* \"#utility.yul\":25455:25474   */\n      add\n        /* \"#utility.yul\":25449:25475   */\n      mload\n        /* \"#utility.yul\":25440:25475   */\n      swap1\n      pop\n        /* \"#utility.yul\":25412:25489   */\n    tag_586:\n        /* \"#utility.yul\":25515:25582   */\n      tag_587\n        /* \"#utility.yul\":25575:25581   */\n      dup6\n        /* \"#utility.yul\":25568:25573   */\n      dup3\n        /* \"#utility.yul\":25515:25582   */\n      tag_340\n      jump\t// in\n    tag_587:\n        /* \"#utility.yul\":25509:25513   */\n      dup7\n        /* \"#utility.yul\":25502:25583   */\n      sstore\n        /* \"#utility.yul\":25371:25593   */\n      pop\n        /* \"#utility.yul\":24706:25593   */\n      jump(tag_584)\n        /* \"#utility.yul\":24736:25354   */\n    tag_585:\n        /* \"#utility.yul\":24788:24792   */\n      0x1f\n        /* \"#utility.yul\":24784:24793   */\n      not\n        /* \"#utility.yul\":24776:24782   */\n      dup5\n        /* \"#utility.yul\":24772:24794   */\n      and\n        /* \"#utility.yul\":24822:24859   */\n      tag_588\n        /* \"#utility.yul\":24854:24858   */\n      dup7\n        /* \"#utility.yul\":24822:24859   */\n      tag_326\n      jump\t// in\n    tag_588:\n        /* \"#utility.yul\":24881:24882   */\n      0x00\n        /* \"#utility.yul\":24895:25103   */\n    tag_589:\n        /* \"#utility.yul\":24909:24916   */\n      dup3\n        /* \"#utility.yul\":24906:24907   */\n      dup2\n        /* \"#utility.yul\":24903:24917   */\n      lt\n        /* \"#utility.yul\":24895:25103   */\n      iszero\n      tag_591\n      jumpi\n        /* \"#utility.yul\":24988:24997   */\n      dup5\n        /* \"#utility.yul\":24983:24986   */\n      dup10\n        /* \"#utility.yul\":24979:24998   */\n      add\n        /* \"#utility.yul\":24973:24999   */\n      mload\n        /* \"#utility.yul\":24965:24971   */\n      dup3\n        /* \"#utility.yul\":24958:25000   */\n      sstore\n        /* \"#utility.yul\":25039:25040   */\n      0x01\n        /* \"#utility.yul\":25031:25037   */\n      dup3\n        /* \"#utility.yul\":25027:25041   */\n      add\n        /* \"#utility.yul\":25017:25041   */\n      swap2\n      pop\n        /* \"#utility.yul\":25086:25088   */\n      0x20\n        /* \"#utility.yul\":25075:25084   */\n      dup6\n        /* \"#utility.yul\":25071:25089   */\n      add\n        /* \"#utility.yul\":25058:25089   */\n      swap5\n      pop\n        /* \"#utility.yul\":24932:24936   */\n      0x20\n        /* \"#utility.yul\":24929:24930   */\n      dup2\n        /* \"#utility.yul\":24925:24937   */\n      add\n        /* \"#utility.yul\":24920:24937   */\n      swap1\n      pop\n        /* \"#utility.yul\":24895:25103   */\n      jump(tag_589)\n    tag_591:\n        /* \"#utility.yul\":25131:25137   */\n      dup7\n        /* \"#utility.yul\":25122:25129   */\n      dup4\n        /* \"#utility.yul\":25119:25138   */\n      lt\n        /* \"#utility.yul\":25116:25295   */\n      iszero\n      tag_592\n      jumpi\n        /* \"#utility.yul\":25189:25198   */\n      dup5\n        /* \"#utility.yul\":25184:25187   */\n      dup10\n        /* \"#utility.yul\":25180:25199   */\n      add\n        /* \"#utility.yul\":25174:25200   */\n      mload\n        /* \"#utility.yul\":25232:25280   */\n      tag_593\n        /* \"#utility.yul\":25274:25278   */\n      0x1f\n        /* \"#utility.yul\":25266:25272   */\n      dup10\n        /* \"#utility.yul\":25262:25279   */\n      and\n        /* \"#utility.yul\":25251:25260   */\n      dup3\n        /* \"#utility.yul\":25232:25280   */\n      tag_339\n      jump\t// in\n    tag_593:\n        /* \"#utility.yul\":25224:25230   */\n      dup4\n        /* \"#utility.yul\":25217:25281   */\n      sstore\n        /* \"#utility.yul\":25139:25295   */\n      pop\n        /* \"#utility.yul\":25116:25295   */\n    tag_592:\n        /* \"#utility.yul\":25341:25342   */\n      0x01\n        /* \"#utility.yul\":25337:25338   */\n      0x02\n        /* \"#utility.yul\":25329:25335   */\n      dup9\n        /* \"#utility.yul\":25325:25339   */\n      mul\n        /* \"#utility.yul\":25321:25343   */\n      add\n        /* \"#utility.yul\":25315:25319   */\n      dup9\n        /* \"#utility.yul\":25308:25344   */\n      sstore\n        /* \"#utility.yul\":24743:25354   */\n      pop\n      pop\n      pop\n        /* \"#utility.yul\":24706:25593   */\n    tag_584:\n      pop\n        /* \"#utility.yul\":24296:25599   */\n      pop\n      pop\n      pop\n        /* \"#utility.yul\":24204:25599   */\n      pop\n      pop\n      jump\t// out\n        /* \"#utility.yul\":25605:25779   */\n    tag_341:\n        /* \"#utility.yul\":25745:25771   */\n      0x5472616e7366657220746f207a65726f20616464726573730000000000000000\n        /* \"#utility.yul\":25741:25742   */\n      0x00\n        /* \"#utility.yul\":25733:25739   */\n      dup3\n        /* \"#utility.yul\":25729:25743   */\n      add\n        /* \"#utility.yul\":25722:25772   */\n      mstore\n        /* \"#utility.yul\":25605:25779   */\n      pop\n      jump\t// out\n        /* \"#utility.yul\":25785:26151   */\n    tag_342:\n        /* \"#utility.yul\":25927:25930   */\n      0x00\n        /* \"#utility.yul\":25948:26015   */\n      tag_596\n        /* \"#utility.yul\":26012:26014   */\n      0x18\n        /* \"#utility.yul\":26007:26010   */\n      dup4\n        /* \"#utility.yul\":25948:26015   */\n      tag_271\n      jump\t// in\n    tag_596:\n        /* \"#utility.yul\":25941:26015   */\n      swap2\n      pop\n        /* \"#utility.yul\":26024:26117   */\n      tag_597\n        /* \"#utility.yul\":26113:26116   */\n      dup3\n        /* \"#utility.yul\":26024:26117   */\n      tag_341\n      jump\t// in\n    tag_597:\n        /* \"#utility.yul\":26142:26144   */\n      0x20\n        /* \"#utility.yul\":26137:26140   */\n      dup3\n        /* \"#utility.yul\":26133:26145   */\n      add\n        /* \"#utility.yul\":26126:26145   */\n      swap1\n      pop\n        /* \"#utility.yul\":25785:26151   */\n      swap2\n      swap1\n      pop\n      jump\t// out\n        /* \"#utility.yul\":26157:26576   */\n    tag_255:\n        /* \"#utility.yul\":26323:26327   */\n      0x00\n        /* \"#utility.yul\":26361:26363   */\n      0x20\n        /* \"#utility.yul\":26350:26359   */\n      dup3\n        /* \"#utility.yul\":26346:26364   */\n      add\n        /* \"#utility.yul\":26338:26364   */\n      swap1\n      pop\n        /* \"#utility.yul\":26410:26419   */\n      dup2\n        /* \"#utility.yul\":26404:26408   */\n      dup2\n        /* \"#utility.yul\":26400:26420   */\n      sub\n        /* \"#utility.yul\":26396:26397   */\n      0x00\n        /* \"#utility.yul\":26385:26394   */\n      dup4\n        /* \"#utility.yul\":26381:26398   */\n      add\n        /* \"#utility.yul\":26374:26421   */\n      mstore\n        /* \"#utility.yul\":26438:26569   */\n      tag_599\n        /* \"#utility.yul\":26564:26568   */\n      dup2\n        /* \"#utility.yul\":26438:26569   */\n      tag_342\n      jump\t// in\n    tag_599:\n        /* \"#utility.yul\":26430:26569   */\n      swap1\n      pop\n        /* \"#utility.yul\":26157:26576   */\n      swap2\n      swap1\n      pop\n      jump\t// out\n        /* \"#utility.yul\":26582:26761   */\n    tag_343:\n        /* \"#utility.yul\":26722:26753   */\n      0x4e6577206f776e657220697320746865207a65726f2061646472657373000000\n        /* \"#utility.yul\":26718:26719   */\n      0x00\n        /* \"#utility.yul\":26710:26716   */\n      dup3\n        /* \"#utility.yul\":26706:26720   */\n      add\n        /* \"#utility.yul\":26699:26754   */\n      mstore\n        /* \"#utility.yul\":26582:26761   */\n      pop\n      jump\t// out\n        /* \"#utility.yul\":26767:27133   */\n    tag_344:\n        /* \"#utility.yul\":26909:26912   */\n      0x00\n        /* \"#utility.yul\":26930:26997   */\n      tag_602\n        /* \"#utility.yul\":26994:26996   */\n      0x1d\n        /* \"#utility.yul\":26989:26992   */\n      dup4\n        /* \"#utility.yul\":26930:26997   */\n      tag_271\n      jump\t// in\n    tag_602:\n        /* \"#utility.yul\":26923:26997   */\n      swap2\n      pop\n        /* \"#utility.yul\":27006:27099   */\n      tag_603\n        /* \"#utility.yul\":27095:27098   */\n      dup3\n        /* \"#utility.yul\":27006:27099   */\n      tag_343\n      jump\t// in\n    tag_603:\n        /* \"#utility.yul\":27124:27126   */\n      0x20\n        /* \"#utility.yul\":27119:27122   */\n      dup3\n        /* \"#utility.yul\":27115:27127   */\n      add\n        /* \"#utility.yul\":27108:27127   */\n      swap1\n      pop\n        /* \"#utility.yul\":26767:27133   */\n      swap2\n      swap1\n      pop\n      jump\t// out\n        /* \"#utility.yul\":27139:27558   */\n    tag_270:\n        /* \"#utility.yul\":27305:27309   */\n      0x00\n        /* \"#utility.yul\":27343:27345   */\n      0x20\n        /* \"#utility.yul\":27332:27341   */\n      dup3\n        /* \"#utility.yul\":27328:27346   */\n      add\n        /* \"#utility.yul\":27320:27346   */\n      swap1\n      pop\n        /* \"#utility.yul\":27392:27401   */\n      dup2\n        /* \"#utility.yul\":27386:27390   */\n      dup2\n        /* \"#utility.yul\":27382:27402   */\n      sub\n        /* \"#utility.yul\":27378:27379   */\n      0x00\n        /* \"#utility.yul\":27367:27376   */\n      dup4\n        /* \"#utility.yul\":27363:27380   */\n      add\n        /* \"#utility.yul\":27356:27403   */\n      mstore\n        /* \"#utility.yul\":27420:27551   */\n      tag_605\n        /* \"#utility.yul\":27546:27550   */\n      dup2\n        /* \"#utility.yul\":27420:27551   */\n      tag_344\n      jump\t// in\n    tag_605:\n        /* \"#utility.yul\":27412:27551   */\n      swap1\n      pop\n        /* \"#utility.yul\":27139:27558   */\n      swap2\n      swap1\n      pop\n      jump\t// out\n\n    auxdata: 0xa26469706673582212206ea9cfeca0d913ab49b0ccd3d19bb30dad0711d70268ef9fa4a7608f3fb547a664736f6c634300081e0033\n}\n",
				"bytecode": {
					"linkReferences": {},
					"object": "60806040526040518060400160405280601381526020017f536d61727420436f6e74726163742043616665000000000000000000000000008152505f908161004791906104e1565b506040518060400160405280600681526020017f53434341464500000000000000000000000000000000000000000000000000008152506001908161008c91906104e1565b50600860025f6101000a81548160ff021916908360ff16021790555060025f9054906101000a900460ff1660ff16600a6100c6919061070c565b6b5db43cde1a9e86e6480000006100dd9190610756565b60035560405180602001604052805f815250600490816100fd91906104e1565b50730b81337f18767565d2ea40913799317a25dc4bc560055f6101000a81548173ffffffffffffffffffffffffffffffffffffffff021916908373ffffffffffffffffffffffffffffffffffffffff1602179055507380c09dac9dc95669b03c2d82967af62e93d0fe8460085f6101000a81548173ffffffffffffffffffffffffffffffffffffffff021916908373ffffffffffffffffffffffffffffffffffffffff1602179055503480156101b1575f5ffd5b5060035460065f60055f9054906101000a900473ffffffffffffffffffffffffffffffffffffffff1673ffffffffffffffffffffffffffffffffffffffff1673ffffffffffffffffffffffffffffffffffffffff1681526020019081526020015f208190555060055f9054906101000a900473ffffffffffffffffffffffffffffffffffffffff1673ffffffffffffffffffffffffffffffffffffffff165f73ffffffffffffffffffffffffffffffffffffffff167fddf252ad1be2c89b69c2b068fc378daa952ba7f163c4a11628f55a4df523b3ef60035460405161029791906107a6565b60405180910390a36107bf565b5f81519050919050565b7f4e487b71000000000000000000000000000000000000000000000000000000005f52604160045260245ffd5b7f4e487b71000000000000000000000000000000000000000000000000000000005f52602260045260245ffd5b5f600282049050600182168061031f57607f821691505b602082108103610332576103316102db565b5b50919050565b5f819050815f5260205f209050919050565b5f6020601f8301049050919050565b5f82821b905092915050565b5f600883026103947fffffffffffffffffffffffffffffffffffffffffffffffffffffffffffffffff82610359565b61039e8683610359565b95508019841693508086168417925050509392505050565b5f819050919050565b5f819050919050565b5f6103e26103dd6103d8846103b6565b6103bf565b6103b6565b9050919050565b5f819050919050565b6103fb836103c8565b61040f610407826103e9565b848454610365565b825550505050565b5f5f905090565b610426610417565b6104318184846103f2565b505050565b5b81811015610454576104495f8261041e565b600181019050610437565b5050565b601f8211156104995761046a81610338565b6104738461034a565b81016020851015610482578190505b61049661048e8561034a565b830182610436565b50505b505050565b5f82821c905092915050565b5f6104b95f198460080261049e565b1980831691505092915050565b5f6104d183836104aa565b9150826002028217905092915050565b6104ea826102a4565b67ffffffffffffffff811115610503576105026102ae565b5b61050d8254610308565b610518828285610458565b5f60209050601f831160018114610549575f8415610537578287015190505b61054185826104c6565b8655506105a8565b601f19841661055786610338565b5f5b8281101561057e57848901518255600182019150602085019450602081019050610559565b8683101561059b5784890151610597601f8916826104aa565b8355505b6001600288020188555050505b505050505050565b7f4e487b71000000000000000000000000000000000000000000000000000000005f52601160045260245ffd5b5f8160011c9050919050565b5f5f8291508390505b60018511156106325780860481111561060e5761060d6105b0565b5b600185161561061d5780820291505b808102905061062b856105dd565b94506105f2565b94509492505050565b5f8261064a5760019050610705565b81610657575f9050610705565b816001811461066d5760028114610677576106a6565b6001915050610705565b60ff841115610689576106886105b0565b5b8360020a9150848211156106a05761069f6105b0565b5b50610705565b5060208310610133831016604e8410600b84101617156106db5782820a9050838111156106d6576106d56105b0565b5b610705565b6106e884848460016105e9565b925090508184048111156106ff576106fe6105b0565b5b81810290505b9392505050565b5f610716826103b6565b9150610721836103b6565b925061074e7fffffffffffffffffffffffffffffffffffffffffffffffffffffffffffffffff848461063b565b905092915050565b5f610760826103b6565b915061076b836103b6565b9250828202610779816103b6565b915082820484148315176107905761078f6105b0565b5b5092915050565b6107a0816103b6565b82525050565b5f6020820190506107b95f830184610797565b92915050565b6128b7806107cc5f395ff3fe60806040526004361061014e575f3560e01c80635f1e015a116100b557806395d89b411161006e57806395d89b411461047c578063a3673981146104a6578063a9059cbb146104d0578063ce606ee01461050c578063dd62ed3e14610536578063f2fde38b146105725761018e565b80635f1e015a146103865780636bb38b28146103c257806370a08231146103ec57806381529ea0146104285780638456cb591461043e5780638ae8e025146104545761018e565b806323b872dd1161010757806323b872dd1461028c5780632513793f146102c8578063313ce567146102f25780633f4ba83a1461031c578063428543bd146103325780635c975abb1461035c5761018e565b806306fdde0314610192578063095ea7b3146101bc5780630c08bf88146101f857806318160ddd1461020e578063194307bf146102385780631a50fac4146102625761018e565b3661018e576040517f08c379a000000000000000000000000000000000000000000000000000000000815260040161018590611b33565b60405180910390fd5b5f5ffd5b34801561019d575f5ffd5b506101a661059a565b6040516101b39190611bb1565b60405180910390f35b3480156101c7575f5ffd5b506101e260048036038101906101dd9190611c6f565b610625565b6040516101ef9190611cc7565b60405180910390f35b348015610203575f5ffd5b5061020c610820565b005b348015610219575f5ffd5b5061022261090f565b60405161022f9190611cef565b60405180910390f35b348015610243575f5ffd5b5061024c610915565b6040516102599190611cc7565b60405180910390f35b34801561026d575f5ffd5b50610276610928565b6040516102839190611cef565b60405180910390f35b348015610297575f5ffd5b506102b260048036038101906102ad9190611d08565b6109bc565b6040516102bf9190611cc7565b60405180910390f35b3480156102d3575f5ffd5b506102dc610e25565b6040516102e99190611bb1565b60405180910390f35b3480156102fd575f5ffd5b50610306610ebd565b6040516103139190611d73565b60405180910390f35b348015610327575f5ffd5b50610330610ecf565b005b34801561033d575f5ffd5b50610346610fbd565b6040516103539190611cc7565b60405180910390f35b348015610367575f5ffd5b50610370610fd0565b60405161037d9190611cc7565b60405180910390f35b348015610391575f5ffd5b506103ac60048036038101906103a79190611d8c565b610fe3565b6040516103b99190611cef565b60405180910390f35b3480156103cd575f5ffd5b506103d66110d7565b6040516103e39190611bb1565b60405180910390f35b3480156103f7575f5ffd5b50610412600480360381019061040d9190611d8c565b611163565b60405161041f9190611cef565b60405180910390f35b348015610433575f5ffd5b5061043c6111a9565b005b348015610449575f5ffd5b50610452611255565b005b34801561045f575f5ffd5b5061047a60048036038101906104759190611ee3565b611344565b005b348015610487575f5ffd5b5061049061146d565b60405161049d9190611bb1565b60405180910390f35b3480156104b1575f5ffd5b506104ba6114f9565b6040516104c79190611bb1565b60405180910390f35b3480156104db575f5ffd5b506104f660048036038101906104f19190611c6f565b611591565b6040516105039190611cc7565b60405180910390f35b348015610517575f5ffd5b50610520611877565b60405161052d9190611f39565b60405180910390f35b348015610541575f5ffd5b5061055c60048036038101906105579190611f52565b61189c565b6040516105699190611cef565b60405180910390f35b34801561057d575f5ffd5b5061059860048036038101906105939190611d8c565b61191e565b005b5f80546105a690611fbd565b80601f01602080910402602001604051908101604052809291908181526020018280546105d290611fbd565b801561061d5780601f106105f45761010080835404028352916020019161061d565b820191905f5260205f20905b81548152906001019060200180831161060057829003601f168201915b505050505081565b5f600560149054906101000a900460ff1615610676576040517f08c379a000000000000000000000000000000000000000000000000000000000815260040161066d90612037565b60405180910390fd5b600560159054906101000a900460ff16156106c6576040517f08c379a00000000000000000000000000000000000000000000000000000000081526004016106bd9061209f565b60405180910390fd5b5f73ffffffffffffffffffffffffffffffffffffffff168373ffffffffffffffffffffffffffffffffffffffff1603610734576040517f08c379a000000000000000000000000000000000000000000000000000000000815260040161072b90612107565b60405180910390fd5b8160075f3373ffffffffffffffffffffffffffffffffffffffff1673ffffffffffffffffffffffffffffffffffffffff1681526020019081526020015f205f8573ffffffffffffffffffffffffffffffffffffffff1673ffffffffffffffffffffffffffffffffffffffff1681526020019081526020015f20819055508273ffffffffffffffffffffffffffffffffffffffff163373ffffffffffffffffffffffffffffffffffffffff167f8c5be1e5ebec7d5bd14f71427d1e84f3dd0314c0f7b2291e5b200ac8c7c3b9258460405161080e9190611cef565b60405180910390a36001905092915050565b60055f9054906101000a900473ffffffffffffffffffffffffffffffffffffffff1673ffffffffffffffffffffffffffffffffffffffff163373ffffffffffffffffffffffffffffffffffffffff16146108af576040517f08c379a00000000000000000000000000000000000000000000000000000000081526004016108a690612195565b60405180910390fd5b6001600560156101000a81548160ff0219169083151502179055503373ffffffffffffffffffffffffffffffffffffffff167f98cd97fc1a1cc958cbd729b1bb531d4f3ea4925470bf23ea9af386640cbd07be60405160405180910390a2565b60035481565b600560159054906101000a900460ff1681565b5f60085f9054906101000a900473ffffffffffffffffffffffffffffffffffffffff1673ffffffffffffffffffffffffffffffffffffffff166318160ddd6040518163ffffffff1660e01b8152600401602060405180830381865afa158015610993573d5f5f3e3d5ffd5b505050506040513d601f19601f820116820180604052508101906109b791906121c7565b905090565b5f600560149054906101000a900460ff1615610a0d576040517f08c379a0000000000000000000000000000000000000000000000000000000008152600401610a0490612037565b60405180910390fd5b600560159054906101000a900460ff1615610a5d576040517f08c379a0000000000000000000000000000000000000000000000000000000008152600401610a549061209f565b60405180910390fd5b5f73ffffffffffffffffffffffffffffffffffffffff168473ffffffffffffffffffffffffffffffffffffffff1614158015610ac557505f73ffffffffffffffffffffffffffffffffffffffff168373ffffffffffffffffffffffffffffffffffffffff1614155b610b04576040517f08c379a0000000000000000000000000000000000000000000000000000000008152600401610afb9061223c565b60405180910390fd5b5f8211610b46576040517f08c379a0000000000000000000000000000000000000000000000000000000008152600401610b3d906122a4565b60405180910390fd5b8160065f8673ffffffffffffffffffffffffffffffffffffffff1673ffffffffffffffffffffffffffffffffffffffff1681526020019081526020015f20541015610bc6576040517f08c379a0000000000000000000000000000000000000000000000000000000008152600401610bbd9061230c565b60405180910390fd5b8160075f8673ffffffffffffffffffffffffffffffffffffffff1673ffffffffffffffffffffffffffffffffffffffff1681526020019081526020015f205f3373ffffffffffffffffffffffffffffffffffffffff1673ffffffffffffffffffffffffffffffffffffffff1681526020019081526020015f20541015610c81576040517f08c379a0000000000000000000000000000000000000000000000000000000008152600401610c7890612374565b60405180910390fd5b8160065f8673ffffffffffffffffffffffffffffffffffffffff1673ffffffffffffffffffffffffffffffffffffffff1681526020019081526020015f205f828254610ccd91906123bf565b925050819055508160065f8573ffffffffffffffffffffffffffffffffffffffff1673ffffffffffffffffffffffffffffffffffffffff1681526020019081526020015f205f828254610d2091906123f2565b925050819055508160075f8673ffffffffffffffffffffffffffffffffffffffff1673ffffffffffffffffffffffffffffffffffffffff1681526020019081526020015f205f3373ffffffffffffffffffffffffffffffffffffffff1673ffffffffffffffffffffffffffffffffffffffff1681526020019081526020015f205f828254610dae91906123bf565b925050819055508273ffffffffffffffffffffffffffffffffffffffff168473ffffffffffffffffffffffffffffffffffffffff167fddf252ad1be2c89b69c2b068fc378daa952ba7f163c4a11628f55a4df523b3ef84604051610e129190611cef565b60405180910390a3600190509392505050565b606060085f9054906101000a900473ffffffffffffffffffffffffffffffffffffffff1673ffffffffffffffffffffffffffffffffffffffff166306fdde036040518163ffffffff1660e01b81526004015f60405180830381865afa158015610e90573d5f5f3e3d5ffd5b505050506040513d5f823e3d601f19601f82011682018060405250810190610eb89190612493565b905090565b60025f9054906101000a900460ff1681565b60055f9054906101000a900473ffffffffffffffffffffffffffffffffffffffff1673ffffffffffffffffffffffffffffffffffffffff163373ffffffffffffffffffffffffffffffffffffffff1614610f5e576040517f08c379a0000000000000000000000000000000000000000000000000000000008152600401610f5590612195565b60405180910390fd5b5f600560146101000a81548160ff0219169083151502179055503373ffffffffffffffffffffffffffffffffffffffff167f5db9ee0a495bf2e6ff9c91a7834c1ba4fdd244a5e8aa4e537bd38aeae4b073aa60405160405180910390a2565b600560169054906101000a900460ff1681565b600560149054906101000a900460ff1681565b5f5f60085f9054906101000a900473ffffffffffffffffffffffffffffffffffffffff1673ffffffffffffffffffffffffffffffffffffffff166370a08231846040518263ffffffff1660e01b815260040161103f9190611f39565b602060405180830381865afa15801561105a573d5f5f3e3d5ffd5b505050506040513d601f19601f8201168201806040525081019061107e91906121c7565b90508273ffffffffffffffffffffffffffffffffffffffff167fdbd71032b7681ee8e00cb6f187d955fdfc8cfb5302b98a717b033ab45bf21e64826040516110c69190611cef565b60405180910390a280915050919050565b600480546110e490611fbd565b80601f016020809104026020016040519081016040528092919081815260200182805461111090611fbd565b801561115b5780601f106111325761010080835404028352916020019161115b565b820191905f5260205f20905b81548152906001019060200180831161113e57829003601f168201915b505050505081565b5f60065f8373ffffffffffffffffffffffffffffffffffffffff1673ffffffffffffffffffffffffffffffffffffffff1681526020019081526020015f20549050919050565b60055f9054906101000a900473ffffffffffffffffffffffffffffffffffffffff1673ffffffffffffffffffffffffffffffffffffffff163373ffffffffffffffffffffffffffffffffffffffff1614611238576040517f08c379a000000000000000000000000000000000000000000000000000000000815260040161122f90612195565b60405180910390fd5b6001600560166101000a81548160ff021916908315150217905550565b60055f9054906101000a900473ffffffffffffffffffffffffffffffffffffffff1673ffffffffffffffffffffffffffffffffffffffff163373ffffffffffffffffffffffffffffffffffffffff16146112e4576040517f08c379a00000000000000000000000000000000000000000000000000000000081526004016112db90612195565b60405180910390fd5b6001600560146101000a81548160ff0219169083151502179055503373ffffffffffffffffffffffffffffffffffffffff167f62e78cea01bee320cd4e420270b5ea74000d11b0c9f74754ebdbfc544b05a25860405160405180910390a2565b60055f9054906101000a900473ffffffffffffffffffffffffffffffffffffffff1673ffffffffffffffffffffffffffffffffffffffff163373ffffffffffffffffffffffffffffffffffffffff16146113d3576040517f08c379a00000000000000000000000000000000000000000000000000000000081526004016113ca90612195565b60405180910390fd5b600560169054906101000a900460ff1615611423576040517f08c379a000000000000000000000000000000000000000000000000000000000815260040161141a90612524565b60405180910390fd5b806004908161143291906126e2565b507fc059db0a2349eaa5d107d9598d56ad83aa565bd7c132ac1fbfe8f86f0ee4ea76816040516114629190611bb1565b60405180910390a150565b6001805461147a90611fbd565b80601f01602080910402602001604051908101604052809291908181526020018280546114a690611fbd565b80156114f15780601f106114c8576101008083540402835291602001916114f1565b820191905f5260205f20905b8154815290600101906020018083116114d457829003601f168201915b505050505081565b606060085f9054906101000a900473ffffffffffffffffffffffffffffffffffffffff1673ffffffffffffffffffffffffffffffffffffffff166395d89b416040518163ffffffff1660e01b81526004015f60405180830381865afa158015611564573d5f5f3e3d5ffd5b505050506040513d5f823e3d601f19601f8201168201806040525081019061158c9190612493565b905090565b5f600560149054906101000a900460ff16156115e2576040517f08c379a00000000000000000000000000000000000000000000000000000000081526004016115d990612037565b60405180910390fd5b600560159054906101000a900460ff1615611632576040517f08c379a00000000000000000000000000000000000000000000000000000000081526004016116299061209f565b60405180910390fd5b5f73ffffffffffffffffffffffffffffffffffffffff168373ffffffffffffffffffffffffffffffffffffffff16036116a0576040517f08c379a0000000000000000000000000000000000000000000000000000000008152600401611697906127fb565b60405180910390fd5b5f82116116e2576040517f08c379a00000000000000000000000000000000000000000000000000000000081526004016116d9906122a4565b60405180910390fd5b8160065f3373ffffffffffffffffffffffffffffffffffffffff1673ffffffffffffffffffffffffffffffffffffffff1681526020019081526020015f20541015611762576040517f08c379a00000000000000000000000000000000000000000000000000000000081526004016117599061230c565b60405180910390fd5b8160065f3373ffffffffffffffffffffffffffffffffffffffff1673ffffffffffffffffffffffffffffffffffffffff1681526020019081526020015f205f8282546117ae91906123bf565b925050819055508160065f8573ffffffffffffffffffffffffffffffffffffffff1673ffffffffffffffffffffffffffffffffffffffff1681526020019081526020015f205f82825461180191906123f2565b925050819055508273ffffffffffffffffffffffffffffffffffffffff163373ffffffffffffffffffffffffffffffffffffffff167fddf252ad1be2c89b69c2b068fc378daa952ba7f163c4a11628f55a4df523b3ef846040516118659190611cef565b60405180910390a36001905092915050565b60055f9054906101000a900473ffffffffffffffffffffffffffffffffffffffff1681565b5f60075f8473ffffffffffffffffffffffffffffffffffffffff1673ffffffffffffffffffffffffffffffffffffffff1681526020019081526020015f205f8373ffffffffffffffffffffffffffffffffffffffff1673ffffffffffffffffffffffffffffffffffffffff1681526020019081526020015f2054905092915050565b60055f9054906101000a900473ffffffffffffffffffffffffffffffffffffffff1673ffffffffffffffffffffffffffffffffffffffff163373ffffffffffffffffffffffffffffffffffffffff16146119ad576040517f08c379a00000000000000000000000000000000000000000000000000000000081526004016119a490612195565b60405180910390fd5b5f73ffffffffffffffffffffffffffffffffffffffff168173ffffffffffffffffffffffffffffffffffffffff1603611a1b576040517f08c379a0000000000000000000000000000000000000000000000000000000008152600401611a1290612863565b60405180910390fd5b8073ffffffffffffffffffffffffffffffffffffffff1660055f9054906101000a900473ffffffffffffffffffffffffffffffffffffffff1673ffffffffffffffffffffffffffffffffffffffff167f8be0079c531659141344cd1fd0a4f28419497f9722a3daafe3b4186f6b6457e060405160405180910390a38060055f6101000a81548173ffffffffffffffffffffffffffffffffffffffff021916908373ffffffffffffffffffffffffffffffffffffffff16021790555050565b5f82825260208201905092915050565b7f455448206e6f74206163636570746564000000000000000000000000000000005f82015250565b5f611b1d601083611ad9565b9150611b2882611ae9565b602082019050919050565b5f6020820190508181035f830152611b4a81611b11565b9050919050565b5f81519050919050565b8281835e5f83830152505050565b5f601f19601f8301169050919050565b5f611b8382611b51565b611b8d8185611ad9565b9350611b9d818560208601611b5b565b611ba681611b69565b840191505092915050565b5f6020820190508181035f830152611bc98184611b79565b905092915050565b5f604051905090565b5f5ffd5b5f5ffd5b5f73ffffffffffffffffffffffffffffffffffffffff82169050919050565b5f611c0b82611be2565b9050919050565b611c1b81611c01565b8114611c25575f5ffd5b50565b5f81359050611c3681611c12565b92915050565b5f819050919050565b611c4e81611c3c565b8114611c58575f5ffd5b50565b5f81359050611c6981611c45565b92915050565b5f5f60408385031215611c8557611c84611bda565b5b5f611c9285828601611c28565b9250506020611ca385828601611c5b565b9150509250929050565b5f8115159050919050565b611cc181611cad565b82525050565b5f602082019050611cda5f830184611cb8565b92915050565b611ce981611c3c565b82525050565b5f602082019050611d025f830184611ce0565b92915050565b5f5f5f60608486031215611d1f57611d1e611bda565b5b5f611d2c86828701611c28565b9350506020611d3d86828701611c28565b9250506040611d4e86828701611c5b565b9150509250925092565b5f60ff82169050919050565b611d6d81611d58565b82525050565b5f602082019050611d865f830184611d64565b92915050565b5f60208284031215611da157611da0611bda565b5b5f611dae84828501611c28565b91505092915050565b5f5ffd5b5f5ffd5b7f4e487b71000000000000000000000000000000000000000000000000000000005f52604160045260245ffd5b611df582611b69565b810181811067ffffffffffffffff82111715611e1457611e13611dbf565b5b80604052505050565b5f611e26611bd1565b9050611e328282611dec565b919050565b5f67ffffffffffffffff821115611e5157611e50611dbf565b5b611e5a82611b69565b9050602081019050919050565b828183375f83830152505050565b5f611e87611e8284611e37565b611e1d565b905082815260208101848484011115611ea357611ea2611dbb565b5b611eae848285611e67565b509392505050565b5f82601f830112611eca57611ec9611db7565b5b8135611eda848260208601611e75565b91505092915050565b5f60208284031215611ef857611ef7611bda565b5b5f82013567ffffffffffffffff811115611f1557611f14611bde565b5b611f2184828501611eb6565b91505092915050565b611f3381611c01565b82525050565b5f602082019050611f4c5f830184611f2a565b92915050565b5f5f60408385031215611f6857611f67611bda565b5b5f611f7585828601611c28565b9250506020611f8685828601611c28565b9150509250929050565b7f4e487b71000000000000000000000000000000000000000000000000000000005f52602260045260245ffd5b5f6002820490506001821680611fd457607f821691505b602082108103611fe757611fe6611f90565b5b50919050565b7f436f6e74726163742069732070617573656400000000000000000000000000005f82015250565b5f612021601283611ad9565b915061202c82611fed565b602082019050919050565b5f6020820190508181035f83015261204e81612015565b9050919050565b7f436f6e7472616374207065726d616e656e746c79207465726d696e61746564005f82015250565b5f612089601f83611ad9565b915061209482612055565b602082019050919050565b5f6020820190508181035f8301526120b68161207d565b9050919050565b7f417070726f766520746f207a65726f20616464726573730000000000000000005f82015250565b5f6120f1601783611ad9565b91506120fc826120bd565b602082019050919050565b5f6020820190508181035f83015261211e816120e5565b9050919050565b7f4f6e6c79206f776e65722063616e2063616c6c20746869732066756e6374696f5f8201527f6e00000000000000000000000000000000000000000000000000000000000000602082015250565b5f61217f602183611ad9565b915061218a82612125565b604082019050919050565b5f6020820190508181035f8301526121ac81612173565b9050919050565b5f815190506121c181611c45565b92915050565b5f602082840312156121dc576121db611bda565b5b5f6121e9848285016121b3565b91505092915050565b7f496e76616c6964206164647265737300000000000000000000000000000000005f82015250565b5f612226600f83611ad9565b9150612231826121f2565b602082019050919050565b5f6020820190508181035f8301526122538161221a565b9050919050565b7f416d6f756e74206d757374206265203e203000000000000000000000000000005f82015250565b5f61228e601283611ad9565b91506122998261225a565b602082019050919050565b5f6020820190508181035f8301526122bb81612282565b9050919050565b7f496e73756666696369656e742062616c616e63650000000000000000000000005f82015250565b5f6122f6601483611ad9565b9150612301826122c2565b602082019050919050565b5f6020820190508181035f830152612323816122ea565b9050919050565b7f416c6c6f77616e636520657863656564656400000000000000000000000000005f82015250565b5f61235e601283611ad9565b91506123698261232a565b602082019050919050565b5f6020820190508181035f83015261238b81612352565b9050919050565b7f4e487b71000000000000000000000000000000000000000000000000000000005f52601160045260245ffd5b5f6123c982611c3c565b91506123d483611c3c565b92508282039050818111156123ec576123eb612392565b5b92915050565b5f6123fc82611c3c565b915061240783611c3c565b925082820190508082111561241f5761241e612392565b5b92915050565b5f61243761243284611e37565b611e1d565b90508281526020810184848401111561245357612452611dbb565b5b61245e848285611b5b565b509392505050565b5f82601f83011261247a57612479611db7565b5b815161248a848260208601612425565b91505092915050565b5f602082840312156124a8576124a7611bda565b5b5f82015167ffffffffffffffff8111156124c5576124c4611bde565b5b6124d184828501612466565b91505092915050565b7f5570646174657320617265206c6f636b656400000000000000000000000000005f82015250565b5f61250e601283611ad9565b9150612519826124da565b602082019050919050565b5f6020820190508181035f83015261253b81612502565b9050919050565b5f819050815f5260205f209050919050565b5f6020601f8301049050919050565b5f82821b905092915050565b5f6008830261259e7fffffffffffffffffffffffffffffffffffffffffffffffffffffffffffffffff82612563565b6125a88683612563565b95508019841693508086168417925050509392505050565b5f819050919050565b5f6125e36125de6125d984611c3c565b6125c0565b611c3c565b9050919050565b5f819050919050565b6125fc836125c9565b612610612608826125ea565b84845461256f565b825550505050565b5f5f905090565b612627612618565b6126328184846125f3565b505050565b5b818110156126555761264a5f8261261f565b600181019050612638565b5050565b601f82111561269a5761266b81612542565b61267484612554565b81016020851015612683578190505b61269761268f85612554565b830182612637565b50505b505050565b5f82821c905092915050565b5f6126ba5f198460080261269f565b1980831691505092915050565b5f6126d283836126ab565b9150826002028217905092915050565b6126eb82611b51565b67ffffffffffffffff81111561270457612703611dbf565b5b61270e8254611fbd565b612719828285612659565b5f60209050601f83116001811461274a575f8415612738578287015190505b61274285826126c7565b8655506127a9565b601f19841661275886612542565b5f5b8281101561277f5784890151825560018201915060208501945060208101905061275a565b8683101561279c5784890151612798601f8916826126ab565b8355505b6001600288020188555050505b505050505050565b7f5472616e7366657220746f207a65726f206164647265737300000000000000005f82015250565b5f6127e5601883611ad9565b91506127f0826127b1565b602082019050919050565b5f6020820190508181035f830152612812816127d9565b9050919050565b7f4e6577206f776e657220697320746865207a65726f20616464726573730000005f82015250565b5f61284d601d83611ad9565b915061285882612819565b602082019050919050565b5f6020820190508181035f83015261287a81612841565b905091905056fea26469706673582212206ea9cfeca0d913ab49b0ccd3d19bb30dad0711d70268ef9fa4a7608f3fb547a664736f6c634300081e0033",
					"opcodes": "PUSH1 0x80 PUSH1 0x40 MSTORE PUSH1 0x40 MLOAD DUP1 PUSH1 0x40 ADD PUSH1 0x40 MSTORE DUP1 PUSH1 0x13 DUP2 MSTORE PUSH1 0x20 ADD PUSH32 0x536D61727420436F6E7472616374204361666500000000000000000000000000 DUP2 MSTORE POP PUSH0 SWAP1 DUP2 PUSH2 0x47 SWAP2 SWAP1 PUSH2 0x4E1 JUMP JUMPDEST POP PUSH1 0x40 MLOAD DUP1 PUSH1 0x40 ADD PUSH1 0x40 MSTORE DUP1 PUSH1 0x6 DUP2 MSTORE PUSH1 0x20 ADD PUSH32 0x5343434146450000000000000000000000000000000000000000000000000000 DUP2 MSTORE POP PUSH1 0x1 SWAP1 DUP2 PUSH2 0x8C SWAP2 SWAP1 PUSH2 0x4E1 JUMP JUMPDEST POP PUSH1 0x8 PUSH1 0x2 PUSH0 PUSH2 0x100 EXP DUP2 SLOAD DUP2 PUSH1 0xFF MUL NOT AND SWAP1 DUP4 PUSH1 0xFF AND MUL OR SWAP1 SSTORE POP PUSH1 0x2 PUSH0 SWAP1 SLOAD SWAP1 PUSH2 0x100 EXP SWAP1 DIV PUSH1 0xFF AND PUSH1 0xFF AND PUSH1 0xA PUSH2 0xC6 SWAP2 SWAP1 PUSH2 0x70C JUMP JUMPDEST PUSH12 0x5DB43CDE1A9E86E648000000 PUSH2 0xDD SWAP2 SWAP1 PUSH2 0x756 JUMP JUMPDEST PUSH1 0x3 SSTORE PUSH1 0x40 MLOAD DUP1 PUSH1 0x20 ADD PUSH1 0x40 MSTORE DUP1 PUSH0 DUP2 MSTORE POP PUSH1 0x4 SWAP1 DUP2 PUSH2 0xFD SWAP2 SWAP1 PUSH2 0x4E1 JUMP JUMPDEST POP PUSH20 0xB81337F18767565D2EA40913799317A25DC4BC5 PUSH1 0x5 PUSH0 PUSH2 0x100 EXP DUP2 SLOAD DUP2 PUSH20 0xFFFFFFFFFFFFFFFFFFFFFFFFFFFFFFFFFFFFFFFF MUL NOT AND SWAP1 DUP4 PUSH20 0xFFFFFFFFFFFFFFFFFFFFFFFFFFFFFFFFFFFFFFFF AND MUL OR SWAP1 SSTORE POP PUSH20 0x80C09DAC9DC95669B03C2D82967AF62E93D0FE84 PUSH1 0x8 PUSH0 PUSH2 0x100 EXP DUP2 SLOAD DUP2 PUSH20 0xFFFFFFFFFFFFFFFFFFFFFFFFFFFFFFFFFFFFFFFF MUL NOT AND SWAP1 DUP4 PUSH20 0xFFFFFFFFFFFFFFFFFFFFFFFFFFFFFFFFFFFFFFFF AND MUL OR SWAP1 SSTORE POP CALLVALUE DUP1 ISZERO PUSH2 0x1B1 JUMPI PUSH0 PUSH0 REVERT JUMPDEST POP PUSH1 0x3 SLOAD PUSH1 0x6 PUSH0 PUSH1 0x5 PUSH0 SWAP1 SLOAD SWAP1 PUSH2 0x100 EXP SWAP1 DIV PUSH20 0xFFFFFFFFFFFFFFFFFFFFFFFFFFFFFFFFFFFFFFFF AND PUSH20 0xFFFFFFFFFFFFFFFFFFFFFFFFFFFFFFFFFFFFFFFF AND PUSH20 0xFFFFFFFFFFFFFFFFFFFFFFFFFFFFFFFFFFFFFFFF AND DUP2 MSTORE PUSH1 0x20 ADD SWAP1 DUP2 MSTORE PUSH1 0x20 ADD PUSH0 KECCAK256 DUP2 SWAP1 SSTORE POP PUSH1 0x5 PUSH0 SWAP1 SLOAD SWAP1 PUSH2 0x100 EXP SWAP1 DIV PUSH20 0xFFFFFFFFFFFFFFFFFFFFFFFFFFFFFFFFFFFFFFFF AND PUSH20 0xFFFFFFFFFFFFFFFFFFFFFFFFFFFFFFFFFFFFFFFF AND PUSH0 PUSH20 0xFFFFFFFFFFFFFFFFFFFFFFFFFFFFFFFFFFFFFFFF AND PUSH32 0xDDF252AD1BE2C89B69C2B068FC378DAA952BA7F163C4A11628F55A4DF523B3EF PUSH1 0x3 SLOAD PUSH1 0x40 MLOAD PUSH2 0x297 SWAP2 SWAP1 PUSH2 0x7A6 JUMP JUMPDEST PUSH1 0x40 MLOAD DUP1 SWAP2 SUB SWAP1 LOG3 PUSH2 0x7BF JUMP JUMPDEST PUSH0 DUP2 MLOAD SWAP1 POP SWAP2 SWAP1 POP JUMP JUMPDEST PUSH32 0x4E487B7100000000000000000000000000000000000000000000000000000000 PUSH0 MSTORE PUSH1 0x41 PUSH1 0x4 MSTORE PUSH1 0x24 PUSH0 REVERT JUMPDEST PUSH32 0x4E487B7100000000000000000000000000000000000000000000000000000000 PUSH0 MSTORE PUSH1 0x22 PUSH1 0x4 MSTORE PUSH1 0x24 PUSH0 REVERT JUMPDEST PUSH0 PUSH1 0x2 DUP3 DIV SWAP1 POP PUSH1 0x1 DUP3 AND DUP1 PUSH2 0x31F JUMPI PUSH1 0x7F DUP3 AND SWAP2 POP JUMPDEST PUSH1 0x20 DUP3 LT DUP2 SUB PUSH2 0x332 JUMPI PUSH2 0x331 PUSH2 0x2DB JUMP JUMPDEST JUMPDEST POP SWAP2 SWAP1 POP JUMP JUMPDEST PUSH0 DUP2 SWAP1 POP DUP2 PUSH0 MSTORE PUSH1 0x20 PUSH0 KECCAK256 SWAP1 POP SWAP2 SWAP1 POP JUMP JUMPDEST PUSH0 PUSH1 0x20 PUSH1 0x1F DUP4 ADD DIV SWAP1 POP SWAP2 SWAP1 POP JUMP JUMPDEST PUSH0 DUP3 DUP3 SHL SWAP1 POP SWAP3 SWAP2 POP POP JUMP JUMPDEST PUSH0 PUSH1 0x8 DUP4 MUL PUSH2 0x394 PUSH32 0xFFFFFFFFFFFFFFFFFFFFFFFFFFFFFFFFFFFFFFFFFFFFFFFFFFFFFFFFFFFFFFFF DUP3 PUSH2 0x359 JUMP JUMPDEST PUSH2 0x39E DUP7 DUP4 PUSH2 0x359 JUMP JUMPDEST SWAP6 POP DUP1 NOT DUP5 AND SWAP4 POP DUP1 DUP7 AND DUP5 OR SWAP3 POP POP POP SWAP4 SWAP3 POP POP POP JUMP JUMPDEST PUSH0 DUP2 SWAP1 POP SWAP2 SWAP1 POP JUMP JUMPDEST PUSH0 DUP2 SWAP1 POP SWAP2 SWAP1 POP JUMP JUMPDEST PUSH0 PUSH2 0x3E2 PUSH2 0x3DD PUSH2 0x3D8 DUP5 PUSH2 0x3B6 JUMP JUMPDEST PUSH2 0x3BF JUMP JUMPDEST PUSH2 0x3B6 JUMP JUMPDEST SWAP1 POP SWAP2 SWAP1 POP JUMP JUMPDEST PUSH0 DUP2 SWAP1 POP SWAP2 SWAP1 POP JUMP JUMPDEST PUSH2 0x3FB DUP4 PUSH2 0x3C8 JUMP JUMPDEST PUSH2 0x40F PUSH2 0x407 DUP3 PUSH2 0x3E9 JUMP JUMPDEST DUP5 DUP5 SLOAD PUSH2 0x365 JUMP JUMPDEST DUP3 SSTORE POP POP POP POP JUMP JUMPDEST PUSH0 PUSH0 SWAP1 POP SWAP1 JUMP JUMPDEST PUSH2 0x426 PUSH2 0x417 JUMP JUMPDEST PUSH2 0x431 DUP2 DUP5 DUP5 PUSH2 0x3F2 JUMP JUMPDEST POP POP POP JUMP JUMPDEST JUMPDEST DUP2 DUP2 LT ISZERO PUSH2 0x454 JUMPI PUSH2 0x449 PUSH0 DUP3 PUSH2 0x41E JUMP JUMPDEST PUSH1 0x1 DUP2 ADD SWAP1 POP PUSH2 0x437 JUMP JUMPDEST POP POP JUMP JUMPDEST PUSH1 0x1F DUP3 GT ISZERO PUSH2 0x499 JUMPI PUSH2 0x46A DUP2 PUSH2 0x338 JUMP JUMPDEST PUSH2 0x473 DUP5 PUSH2 0x34A JUMP JUMPDEST DUP2 ADD PUSH1 0x20 DUP6 LT ISZERO PUSH2 0x482 JUMPI DUP2 SWAP1 POP JUMPDEST PUSH2 0x496 PUSH2 0x48E DUP6 PUSH2 0x34A JUMP JUMPDEST DUP4 ADD DUP3 PUSH2 0x436 JUMP JUMPDEST POP POP JUMPDEST POP POP POP JUMP JUMPDEST PUSH0 DUP3 DUP3 SHR SWAP1 POP SWAP3 SWAP2 POP POP JUMP JUMPDEST PUSH0 PUSH2 0x4B9 PUSH0 NOT DUP5 PUSH1 0x8 MUL PUSH2 0x49E JUMP JUMPDEST NOT DUP1 DUP4 AND SWAP2 POP POP SWAP3 SWAP2 POP POP JUMP JUMPDEST PUSH0 PUSH2 0x4D1 DUP4 DUP4 PUSH2 0x4AA JUMP JUMPDEST SWAP2 POP DUP3 PUSH1 0x2 MUL DUP3 OR SWAP1 POP SWAP3 SWAP2 POP POP JUMP JUMPDEST PUSH2 0x4EA DUP3 PUSH2 0x2A4 JUMP JUMPDEST PUSH8 0xFFFFFFFFFFFFFFFF DUP2 GT ISZERO PUSH2 0x503 JUMPI PUSH2 0x502 PUSH2 0x2AE JUMP JUMPDEST JUMPDEST PUSH2 0x50D DUP3 SLOAD PUSH2 0x308 JUMP JUMPDEST PUSH2 0x518 DUP3 DUP3 DUP6 PUSH2 0x458 JUMP JUMPDEST PUSH0 PUSH1 0x20 SWAP1 POP PUSH1 0x1F DUP4 GT PUSH1 0x1 DUP2 EQ PUSH2 0x549 JUMPI PUSH0 DUP5 ISZERO PUSH2 0x537 JUMPI DUP3 DUP8 ADD MLOAD SWAP1 POP JUMPDEST PUSH2 0x541 DUP6 DUP3 PUSH2 0x4C6 JUMP JUMPDEST DUP7 SSTORE POP PUSH2 0x5A8 JUMP JUMPDEST PUSH1 0x1F NOT DUP5 AND PUSH2 0x557 DUP7 PUSH2 0x338 JUMP JUMPDEST PUSH0 JUMPDEST DUP3 DUP2 LT ISZERO PUSH2 0x57E JUMPI DUP5 DUP10 ADD MLOAD DUP3 SSTORE PUSH1 0x1 DUP3 ADD SWAP2 POP PUSH1 0x20 DUP6 ADD SWAP5 POP PUSH1 0x20 DUP2 ADD SWAP1 POP PUSH2 0x559 JUMP JUMPDEST DUP7 DUP4 LT ISZERO PUSH2 0x59B JUMPI DUP5 DUP10 ADD MLOAD PUSH2 0x597 PUSH1 0x1F DUP10 AND DUP3 PUSH2 0x4AA JUMP JUMPDEST DUP4 SSTORE POP JUMPDEST PUSH1 0x1 PUSH1 0x2 DUP9 MUL ADD DUP9 SSTORE POP POP POP JUMPDEST POP POP POP POP POP POP JUMP JUMPDEST PUSH32 0x4E487B7100000000000000000000000000000000000000000000000000000000 PUSH0 MSTORE PUSH1 0x11 PUSH1 0x4 MSTORE PUSH1 0x24 PUSH0 REVERT JUMPDEST PUSH0 DUP2 PUSH1 0x1 SHR SWAP1 POP SWAP2 SWAP1 POP JUMP JUMPDEST PUSH0 PUSH0 DUP3 SWAP2 POP DUP4 SWAP1 POP JUMPDEST PUSH1 0x1 DUP6 GT ISZERO PUSH2 0x632 JUMPI DUP1 DUP7 DIV DUP2 GT ISZERO PUSH2 0x60E JUMPI PUSH2 0x60D PUSH2 0x5B0 JUMP JUMPDEST JUMPDEST PUSH1 0x1 DUP6 AND ISZERO PUSH2 0x61D JUMPI DUP1 DUP3 MUL SWAP2 POP JUMPDEST DUP1 DUP2 MUL SWAP1 POP PUSH2 0x62B DUP6 PUSH2 0x5DD JUMP JUMPDEST SWAP5 POP PUSH2 0x5F2 JUMP JUMPDEST SWAP5 POP SWAP5 SWAP3 POP POP POP JUMP JUMPDEST PUSH0 DUP3 PUSH2 0x64A JUMPI PUSH1 0x1 SWAP1 POP PUSH2 0x705 JUMP JUMPDEST DUP2 PUSH2 0x657 JUMPI PUSH0 SWAP1 POP PUSH2 0x705 JUMP JUMPDEST DUP2 PUSH1 0x1 DUP2 EQ PUSH2 0x66D JUMPI PUSH1 0x2 DUP2 EQ PUSH2 0x677 JUMPI PUSH2 0x6A6 JUMP JUMPDEST PUSH1 0x1 SWAP2 POP POP PUSH2 0x705 JUMP JUMPDEST PUSH1 0xFF DUP5 GT ISZERO PUSH2 0x689 JUMPI PUSH2 0x688 PUSH2 0x5B0 JUMP JUMPDEST JUMPDEST DUP4 PUSH1 0x2 EXP SWAP2 POP DUP5 DUP3 GT ISZERO PUSH2 0x6A0 JUMPI PUSH2 0x69F PUSH2 0x5B0 JUMP JUMPDEST JUMPDEST POP PUSH2 0x705 JUMP JUMPDEST POP PUSH1 0x20 DUP4 LT PUSH2 0x133 DUP4 LT AND PUSH1 0x4E DUP5 LT PUSH1 0xB DUP5 LT AND OR ISZERO PUSH2 0x6DB JUMPI DUP3 DUP3 EXP SWAP1 POP DUP4 DUP2 GT ISZERO PUSH2 0x6D6 JUMPI PUSH2 0x6D5 PUSH2 0x5B0 JUMP JUMPDEST JUMPDEST PUSH2 0x705 JUMP JUMPDEST PUSH2 0x6E8 DUP5 DUP5 DUP5 PUSH1 0x1 PUSH2 0x5E9 JUMP JUMPDEST SWAP3 POP SWAP1 POP DUP2 DUP5 DIV DUP2 GT ISZERO PUSH2 0x6FF JUMPI PUSH2 0x6FE PUSH2 0x5B0 JUMP JUMPDEST JUMPDEST DUP2 DUP2 MUL SWAP1 POP JUMPDEST SWAP4 SWAP3 POP POP POP JUMP JUMPDEST PUSH0 PUSH2 0x716 DUP3 PUSH2 0x3B6 JUMP JUMPDEST SWAP2 POP PUSH2 0x721 DUP4 PUSH2 0x3B6 JUMP JUMPDEST SWAP3 POP PUSH2 0x74E PUSH32 0xFFFFFFFFFFFFFFFFFFFFFFFFFFFFFFFFFFFFFFFFFFFFFFFFFFFFFFFFFFFFFFFF DUP5 DUP5 PUSH2 0x63B JUMP JUMPDEST SWAP1 POP SWAP3 SWAP2 POP POP JUMP JUMPDEST PUSH0 PUSH2 0x760 DUP3 PUSH2 0x3B6 JUMP JUMPDEST SWAP2 POP PUSH2 0x76B DUP4 PUSH2 0x3B6 JUMP JUMPDEST SWAP3 POP DUP3 DUP3 MUL PUSH2 0x779 DUP2 PUSH2 0x3B6 JUMP JUMPDEST SWAP2 POP DUP3 DUP3 DIV DUP5 EQ DUP4 ISZERO OR PUSH2 0x790 JUMPI PUSH2 0x78F PUSH2 0x5B0 JUMP JUMPDEST JUMPDEST POP SWAP3 SWAP2 POP POP JUMP JUMPDEST PUSH2 0x7A0 DUP2 PUSH2 0x3B6 JUMP JUMPDEST DUP3 MSTORE POP POP JUMP JUMPDEST PUSH0 PUSH1 0x20 DUP3 ADD SWAP1 POP PUSH2 0x7B9 PUSH0 DUP4 ADD DUP5 PUSH2 0x797 JUMP JUMPDEST SWAP3 SWAP2 POP POP JUMP JUMPDEST PUSH2 0x28B7 DUP1 PUSH2 0x7CC PUSH0 CODECOPY PUSH0 RETURN INVALID PUSH1 0x80 PUSH1 0x40 MSTORE PUSH1 0x4 CALLDATASIZE LT PUSH2 0x14E JUMPI PUSH0 CALLDATALOAD PUSH1 0xE0 SHR DUP1 PUSH4 0x5F1E015A GT PUSH2 0xB5 JUMPI DUP1 PUSH4 0x95D89B41 GT PUSH2 0x6E JUMPI DUP1 PUSH4 0x95D89B41 EQ PUSH2 0x47C JUMPI DUP1 PUSH4 0xA3673981 EQ PUSH2 0x4A6 JUMPI DUP1 PUSH4 0xA9059CBB EQ PUSH2 0x4D0 JUMPI DUP1 PUSH4 0xCE606EE0 EQ PUSH2 0x50C JUMPI DUP1 PUSH4 0xDD62ED3E EQ PUSH2 0x536 JUMPI DUP1 PUSH4 0xF2FDE38B EQ PUSH2 0x572 JUMPI PUSH2 0x18E JUMP JUMPDEST DUP1 PUSH4 0x5F1E015A EQ PUSH2 0x386 JUMPI DUP1 PUSH4 0x6BB38B28 EQ PUSH2 0x3C2 JUMPI DUP1 PUSH4 0x70A08231 EQ PUSH2 0x3EC JUMPI DUP1 PUSH4 0x81529EA0 EQ PUSH2 0x428 JUMPI DUP1 PUSH4 0x8456CB59 EQ PUSH2 0x43E JUMPI DUP1 PUSH4 0x8AE8E025 EQ PUSH2 0x454 JUMPI PUSH2 0x18E JUMP JUMPDEST DUP1 PUSH4 0x23B872DD GT PUSH2 0x107 JUMPI DUP1 PUSH4 0x23B872DD EQ PUSH2 0x28C JUMPI DUP1 PUSH4 0x2513793F EQ PUSH2 0x2C8 JUMPI DUP1 PUSH4 0x313CE567 EQ PUSH2 0x2F2 JUMPI DUP1 PUSH4 0x3F4BA83A EQ PUSH2 0x31C JUMPI DUP1 PUSH4 0x428543BD EQ PUSH2 0x332 JUMPI DUP1 PUSH4 0x5C975ABB EQ PUSH2 0x35C JUMPI PUSH2 0x18E JUMP JUMPDEST DUP1 PUSH4 0x6FDDE03 EQ PUSH2 0x192 JUMPI DUP1 PUSH4 0x95EA7B3 EQ PUSH2 0x1BC JUMPI DUP1 PUSH4 0xC08BF88 EQ PUSH2 0x1F8 JUMPI DUP1 PUSH4 0x18160DDD EQ PUSH2 0x20E JUMPI DUP1 PUSH4 0x194307BF EQ PUSH2 0x238 JUMPI DUP1 PUSH4 0x1A50FAC4 EQ PUSH2 0x262 JUMPI PUSH2 0x18E JUMP JUMPDEST CALLDATASIZE PUSH2 0x18E JUMPI PUSH1 0x40 MLOAD PUSH32 0x8C379A000000000000000000000000000000000000000000000000000000000 DUP2 MSTORE PUSH1 0x4 ADD PUSH2 0x185 SWAP1 PUSH2 0x1B33 JUMP JUMPDEST PUSH1 0x40 MLOAD DUP1 SWAP2 SUB SWAP1 REVERT JUMPDEST PUSH0 PUSH0 REVERT JUMPDEST CALLVALUE DUP1 ISZERO PUSH2 0x19D JUMPI PUSH0 PUSH0 REVERT JUMPDEST POP PUSH2 0x1A6 PUSH2 0x59A JUMP JUMPDEST PUSH1 0x40 MLOAD PUSH2 0x1B3 SWAP2 SWAP1 PUSH2 0x1BB1 JUMP JUMPDEST PUSH1 0x40 MLOAD DUP1 SWAP2 SUB SWAP1 RETURN JUMPDEST CALLVALUE DUP1 ISZERO PUSH2 0x1C7 JUMPI PUSH0 PUSH0 REVERT JUMPDEST POP PUSH2 0x1E2 PUSH1 0x4 DUP1 CALLDATASIZE SUB DUP2 ADD SWAP1 PUSH2 0x1DD SWAP2 SWAP1 PUSH2 0x1C6F JUMP JUMPDEST PUSH2 0x625 JUMP JUMPDEST PUSH1 0x40 MLOAD PUSH2 0x1EF SWAP2 SWAP1 PUSH2 0x1CC7 JUMP JUMPDEST PUSH1 0x40 MLOAD DUP1 SWAP2 SUB SWAP1 RETURN JUMPDEST CALLVALUE DUP1 ISZERO PUSH2 0x203 JUMPI PUSH0 PUSH0 REVERT JUMPDEST POP PUSH2 0x20C PUSH2 0x820 JUMP JUMPDEST STOP JUMPDEST CALLVALUE DUP1 ISZERO PUSH2 0x219 JUMPI PUSH0 PUSH0 REVERT JUMPDEST POP PUSH2 0x222 PUSH2 0x90F JUMP JUMPDEST PUSH1 0x40 MLOAD PUSH2 0x22F SWAP2 SWAP1 PUSH2 0x1CEF JUMP JUMPDEST PUSH1 0x40 MLOAD DUP1 SWAP2 SUB SWAP1 RETURN JUMPDEST CALLVALUE DUP1 ISZERO PUSH2 0x243 JUMPI PUSH0 PUSH0 REVERT JUMPDEST POP PUSH2 0x24C PUSH2 0x915 JUMP JUMPDEST PUSH1 0x40 MLOAD PUSH2 0x259 SWAP2 SWAP1 PUSH2 0x1CC7 JUMP JUMPDEST PUSH1 0x40 MLOAD DUP1 SWAP2 SUB SWAP1 RETURN JUMPDEST CALLVALUE DUP1 ISZERO PUSH2 0x26D JUMPI PUSH0 PUSH0 REVERT JUMPDEST POP PUSH2 0x276 PUSH2 0x928 JUMP JUMPDEST PUSH1 0x40 MLOAD PUSH2 0x283 SWAP2 SWAP1 PUSH2 0x1CEF JUMP JUMPDEST PUSH1 0x40 MLOAD DUP1 SWAP2 SUB SWAP1 RETURN JUMPDEST CALLVALUE DUP1 ISZERO PUSH2 0x297 JUMPI PUSH0 PUSH0 REVERT JUMPDEST POP PUSH2 0x2B2 PUSH1 0x4 DUP1 CALLDATASIZE SUB DUP2 ADD SWAP1 PUSH2 0x2AD SWAP2 SWAP1 PUSH2 0x1D08 JUMP JUMPDEST PUSH2 0x9BC JUMP JUMPDEST PUSH1 0x40 MLOAD PUSH2 0x2BF SWAP2 SWAP1 PUSH2 0x1CC7 JUMP JUMPDEST PUSH1 0x40 MLOAD DUP1 SWAP2 SUB SWAP1 RETURN JUMPDEST CALLVALUE DUP1 ISZERO PUSH2 0x2D3 JUMPI PUSH0 PUSH0 REVERT JUMPDEST POP PUSH2 0x2DC PUSH2 0xE25 JUMP JUMPDEST PUSH1 0x40 MLOAD PUSH2 0x2E9 SWAP2 SWAP1 PUSH2 0x1BB1 JUMP JUMPDEST PUSH1 0x40 MLOAD DUP1 SWAP2 SUB SWAP1 RETURN JUMPDEST CALLVALUE DUP1 ISZERO PUSH2 0x2FD JUMPI PUSH0 PUSH0 REVERT JUMPDEST POP PUSH2 0x306 PUSH2 0xEBD JUMP JUMPDEST PUSH1 0x40 MLOAD PUSH2 0x313 SWAP2 SWAP1 PUSH2 0x1D73 JUMP JUMPDEST PUSH1 0x40 MLOAD DUP1 SWAP2 SUB SWAP1 RETURN JUMPDEST CALLVALUE DUP1 ISZERO PUSH2 0x327 JUMPI PUSH0 PUSH0 REVERT JUMPDEST POP PUSH2 0x330 PUSH2 0xECF JUMP JUMPDEST STOP JUMPDEST CALLVALUE DUP1 ISZERO PUSH2 0x33D JUMPI PUSH0 PUSH0 REVERT JUMPDEST POP PUSH2 0x346 PUSH2 0xFBD JUMP JUMPDEST PUSH1 0x40 MLOAD PUSH2 0x353 SWAP2 SWAP1 PUSH2 0x1CC7 JUMP JUMPDEST PUSH1 0x40 MLOAD DUP1 SWAP2 SUB SWAP1 RETURN JUMPDEST CALLVALUE DUP1 ISZERO PUSH2 0x367 JUMPI PUSH0 PUSH0 REVERT JUMPDEST POP PUSH2 0x370 PUSH2 0xFD0 JUMP JUMPDEST PUSH1 0x40 MLOAD PUSH2 0x37D SWAP2 SWAP1 PUSH2 0x1CC7 JUMP JUMPDEST PUSH1 0x40 MLOAD DUP1 SWAP2 SUB SWAP1 RETURN JUMPDEST CALLVALUE DUP1 ISZERO PUSH2 0x391 JUMPI PUSH0 PUSH0 REVERT JUMPDEST POP PUSH2 0x3AC PUSH1 0x4 DUP1 CALLDATASIZE SUB DUP2 ADD SWAP1 PUSH2 0x3A7 SWAP2 SWAP1 PUSH2 0x1D8C JUMP JUMPDEST PUSH2 0xFE3 JUMP JUMPDEST PUSH1 0x40 MLOAD PUSH2 0x3B9 SWAP2 SWAP1 PUSH2 0x1CEF JUMP JUMPDEST PUSH1 0x40 MLOAD DUP1 SWAP2 SUB SWAP1 RETURN JUMPDEST CALLVALUE DUP1 ISZERO PUSH2 0x3CD JUMPI PUSH0 PUSH0 REVERT JUMPDEST POP PUSH2 0x3D6 PUSH2 0x10D7 JUMP JUMPDEST PUSH1 0x40 MLOAD PUSH2 0x3E3 SWAP2 SWAP1 PUSH2 0x1BB1 JUMP JUMPDEST PUSH1 0x40 MLOAD DUP1 SWAP2 SUB SWAP1 RETURN JUMPDEST CALLVALUE DUP1 ISZERO PUSH2 0x3F7 JUMPI PUSH0 PUSH0 REVERT JUMPDEST POP PUSH2 0x412 PUSH1 0x4 DUP1 CALLDATASIZE SUB DUP2 ADD SWAP1 PUSH2 0x40D SWAP2 SWAP1 PUSH2 0x1D8C JUMP JUMPDEST PUSH2 0x1163 JUMP JUMPDEST PUSH1 0x40 MLOAD PUSH2 0x41F SWAP2 SWAP1 PUSH2 0x1CEF JUMP JUMPDEST PUSH1 0x40 MLOAD DUP1 SWAP2 SUB SWAP1 RETURN JUMPDEST CALLVALUE DUP1 ISZERO PUSH2 0x433 JUMPI PUSH0 PUSH0 REVERT JUMPDEST POP PUSH2 0x43C PUSH2 0x11A9 JUMP JUMPDEST STOP JUMPDEST CALLVALUE DUP1 ISZERO PUSH2 0x449 JUMPI PUSH0 PUSH0 REVERT JUMPDEST POP PUSH2 0x452 PUSH2 0x1255 JUMP JUMPDEST STOP JUMPDEST CALLVALUE DUP1 ISZERO PUSH2 0x45F JUMPI PUSH0 PUSH0 REVERT JUMPDEST POP PUSH2 0x47A PUSH1 0x4 DUP1 CALLDATASIZE SUB DUP2 ADD SWAP1 PUSH2 0x475 SWAP2 SWAP1 PUSH2 0x1EE3 JUMP JUMPDEST PUSH2 0x1344 JUMP JUMPDEST STOP JUMPDEST CALLVALUE DUP1 ISZERO PUSH2 0x487 JUMPI PUSH0 PUSH0 REVERT JUMPDEST POP PUSH2 0x490 PUSH2 0x146D JUMP JUMPDEST PUSH1 0x40 MLOAD PUSH2 0x49D SWAP2 SWAP1 PUSH2 0x1BB1 JUMP JUMPDEST PUSH1 0x40 MLOAD DUP1 SWAP2 SUB SWAP1 RETURN JUMPDEST CALLVALUE DUP1 ISZERO PUSH2 0x4B1 JUMPI PUSH0 PUSH0 REVERT JUMPDEST POP PUSH2 0x4BA PUSH2 0x14F9 JUMP JUMPDEST PUSH1 0x40 MLOAD PUSH2 0x4C7 SWAP2 SWAP1 PUSH2 0x1BB1 JUMP JUMPDEST PUSH1 0x40 MLOAD DUP1 SWAP2 SUB SWAP1 RETURN JUMPDEST CALLVALUE DUP1 ISZERO PUSH2 0x4DB JUMPI PUSH0 PUSH0 REVERT JUMPDEST POP PUSH2 0x4F6 PUSH1 0x4 DUP1 CALLDATASIZE SUB DUP2 ADD SWAP1 PUSH2 0x4F1 SWAP2 SWAP1 PUSH2 0x1C6F JUMP JUMPDEST PUSH2 0x1591 JUMP JUMPDEST PUSH1 0x40 MLOAD PUSH2 0x503 SWAP2 SWAP1 PUSH2 0x1CC7 JUMP JUMPDEST PUSH1 0x40 MLOAD DUP1 SWAP2 SUB SWAP1 RETURN JUMPDEST CALLVALUE DUP1 ISZERO PUSH2 0x517 JUMPI PUSH0 PUSH0 REVERT JUMPDEST POP PUSH2 0x520 PUSH2 0x1877 JUMP JUMPDEST PUSH1 0x40 MLOAD PUSH2 0x52D SWAP2 SWAP1 PUSH2 0x1F39 JUMP JUMPDEST PUSH1 0x40 MLOAD DUP1 SWAP2 SUB SWAP1 RETURN JUMPDEST CALLVALUE DUP1 ISZERO PUSH2 0x541 JUMPI PUSH0 PUSH0 REVERT JUMPDEST POP PUSH2 0x55C PUSH1 0x4 DUP1 CALLDATASIZE SUB DUP2 ADD SWAP1 PUSH2 0x557 SWAP2 SWAP1 PUSH2 0x1F52 JUMP JUMPDEST PUSH2 0x189C JUMP JUMPDEST PUSH1 0x40 MLOAD PUSH2 0x569 SWAP2 SWAP1 PUSH2 0x1CEF JUMP JUMPDEST PUSH1 0x40 MLOAD DUP1 SWAP2 SUB SWAP1 RETURN JUMPDEST CALLVALUE DUP1 ISZERO PUSH2 0x57D JUMPI PUSH0 PUSH0 REVERT JUMPDEST POP PUSH2 0x598 PUSH1 0x4 DUP1 CALLDATASIZE SUB DUP2 ADD SWAP1 PUSH2 0x593 SWAP2 SWAP1 PUSH2 0x1D8C JUMP JUMPDEST PUSH2 0x191E JUMP JUMPDEST STOP JUMPDEST PUSH0 DUP1 SLOAD PUSH2 0x5A6 SWAP1 PUSH2 0x1FBD JUMP JUMPDEST DUP1 PUSH1 0x1F ADD PUSH1 0x20 DUP1 SWAP2 DIV MUL PUSH1 0x20 ADD PUSH1 0x40 MLOAD SWAP1 DUP2 ADD PUSH1 0x40 MSTORE DUP1 SWAP3 SWAP2 SWAP1 DUP2 DUP2 MSTORE PUSH1 0x20 ADD DUP3 DUP1 SLOAD PUSH2 0x5D2 SWAP1 PUSH2 0x1FBD JUMP JUMPDEST DUP1 ISZERO PUSH2 0x61D JUMPI DUP1 PUSH1 0x1F LT PUSH2 0x5F4 JUMPI PUSH2 0x100 DUP1 DUP4 SLOAD DIV MUL DUP4 MSTORE SWAP2 PUSH1 0x20 ADD SWAP2 PUSH2 0x61D JUMP JUMPDEST DUP3 ADD SWAP2 SWAP1 PUSH0 MSTORE PUSH1 0x20 PUSH0 KECCAK256 SWAP1 JUMPDEST DUP2 SLOAD DUP2 MSTORE SWAP1 PUSH1 0x1 ADD SWAP1 PUSH1 0x20 ADD DUP1 DUP4 GT PUSH2 0x600 JUMPI DUP3 SWAP1 SUB PUSH1 0x1F AND DUP3 ADD SWAP2 JUMPDEST POP POP POP POP POP DUP2 JUMP JUMPDEST PUSH0 PUSH1 0x5 PUSH1 0x14 SWAP1 SLOAD SWAP1 PUSH2 0x100 EXP SWAP1 DIV PUSH1 0xFF AND ISZERO PUSH2 0x676 JUMPI PUSH1 0x40 MLOAD PUSH32 0x8C379A000000000000000000000000000000000000000000000000000000000 DUP2 MSTORE PUSH1 0x4 ADD PUSH2 0x66D SWAP1 PUSH2 0x2037 JUMP JUMPDEST PUSH1 0x40 MLOAD DUP1 SWAP2 SUB SWAP1 REVERT JUMPDEST PUSH1 0x5 PUSH1 0x15 SWAP1 SLOAD SWAP1 PUSH2 0x100 EXP SWAP1 DIV PUSH1 0xFF AND ISZERO PUSH2 0x6C6 JUMPI PUSH1 0x40 MLOAD PUSH32 0x8C379A000000000000000000000000000000000000000000000000000000000 DUP2 MSTORE PUSH1 0x4 ADD PUSH2 0x6BD SWAP1 PUSH2 0x209F JUMP JUMPDEST PUSH1 0x40 MLOAD DUP1 SWAP2 SUB SWAP1 REVERT JUMPDEST PUSH0 PUSH20 0xFFFFFFFFFFFFFFFFFFFFFFFFFFFFFFFFFFFFFFFF AND DUP4 PUSH20 0xFFFFFFFFFFFFFFFFFFFFFFFFFFFFFFFFFFFFFFFF AND SUB PUSH2 0x734 JUMPI PUSH1 0x40 MLOAD PUSH32 0x8C379A000000000000000000000000000000000000000000000000000000000 DUP2 MSTORE PUSH1 0x4 ADD PUSH2 0x72B SWAP1 PUSH2 0x2107 JUMP JUMPDEST PUSH1 0x40 MLOAD DUP1 SWAP2 SUB SWAP1 REVERT JUMPDEST DUP2 PUSH1 0x7 PUSH0 CALLER PUSH20 0xFFFFFFFFFFFFFFFFFFFFFFFFFFFFFFFFFFFFFFFF AND PUSH20 0xFFFFFFFFFFFFFFFFFFFFFFFFFFFFFFFFFFFFFFFF AND DUP2 MSTORE PUSH1 0x20 ADD SWAP1 DUP2 MSTORE PUSH1 0x20 ADD PUSH0 KECCAK256 PUSH0 DUP6 PUSH20 0xFFFFFFFFFFFFFFFFFFFFFFFFFFFFFFFFFFFFFFFF AND PUSH20 0xFFFFFFFFFFFFFFFFFFFFFFFFFFFFFFFFFFFFFFFF AND DUP2 MSTORE PUSH1 0x20 ADD SWAP1 DUP2 MSTORE PUSH1 0x20 ADD PUSH0 KECCAK256 DUP2 SWAP1 SSTORE POP DUP3 PUSH20 0xFFFFFFFFFFFFFFFFFFFFFFFFFFFFFFFFFFFFFFFF AND CALLER PUSH20 0xFFFFFFFFFFFFFFFFFFFFFFFFFFFFFFFFFFFFFFFF AND PUSH32 0x8C5BE1E5EBEC7D5BD14F71427D1E84F3DD0314C0F7B2291E5B200AC8C7C3B925 DUP5 PUSH1 0x40 MLOAD PUSH2 0x80E SWAP2 SWAP1 PUSH2 0x1CEF JUMP JUMPDEST PUSH1 0x40 MLOAD DUP1 SWAP2 SUB SWAP1 LOG3 PUSH1 0x1 SWAP1 POP SWAP3 SWAP2 POP POP JUMP JUMPDEST PUSH1 0x5 PUSH0 SWAP1 SLOAD SWAP1 PUSH2 0x100 EXP SWAP1 DIV PUSH20 0xFFFFFFFFFFFFFFFFFFFFFFFFFFFFFFFFFFFFFFFF AND PUSH20 0xFFFFFFFFFFFFFFFFFFFFFFFFFFFFFFFFFFFFFFFF AND CALLER PUSH20 0xFFFFFFFFFFFFFFFFFFFFFFFFFFFFFFFFFFFFFFFF AND EQ PUSH2 0x8AF JUMPI PUSH1 0x40 MLOAD PUSH32 0x8C379A000000000000000000000000000000000000000000000000000000000 DUP2 MSTORE PUSH1 0x4 ADD PUSH2 0x8A6 SWAP1 PUSH2 0x2195 JUMP JUMPDEST PUSH1 0x40 MLOAD DUP1 SWAP2 SUB SWAP1 REVERT JUMPDEST PUSH1 0x1 PUSH1 0x5 PUSH1 0x15 PUSH2 0x100 EXP DUP2 SLOAD DUP2 PUSH1 0xFF MUL NOT AND SWAP1 DUP4 ISZERO ISZERO MUL OR SWAP1 SSTORE POP CALLER PUSH20 0xFFFFFFFFFFFFFFFFFFFFFFFFFFFFFFFFFFFFFFFF AND PUSH32 0x98CD97FC1A1CC958CBD729B1BB531D4F3EA4925470BF23EA9AF386640CBD07BE PUSH1 0x40 MLOAD PUSH1 0x40 MLOAD DUP1 SWAP2 SUB SWAP1 LOG2 JUMP JUMPDEST PUSH1 0x3 SLOAD DUP2 JUMP JUMPDEST PUSH1 0x5 PUSH1 0x15 SWAP1 SLOAD SWAP1 PUSH2 0x100 EXP SWAP1 DIV PUSH1 0xFF AND DUP2 JUMP JUMPDEST PUSH0 PUSH1 0x8 PUSH0 SWAP1 SLOAD SWAP1 PUSH2 0x100 EXP SWAP1 DIV PUSH20 0xFFFFFFFFFFFFFFFFFFFFFFFFFFFFFFFFFFFFFFFF AND PUSH20 0xFFFFFFFFFFFFFFFFFFFFFFFFFFFFFFFFFFFFFFFF AND PUSH4 0x18160DDD PUSH1 0x40 MLOAD DUP2 PUSH4 0xFFFFFFFF AND PUSH1 0xE0 SHL DUP2 MSTORE PUSH1 0x4 ADD PUSH1 0x20 PUSH1 0x40 MLOAD DUP1 DUP4 SUB DUP2 DUP7 GAS STATICCALL ISZERO DUP1 ISZERO PUSH2 0x993 JUMPI RETURNDATASIZE PUSH0 PUSH0 RETURNDATACOPY RETURNDATASIZE PUSH0 REVERT JUMPDEST POP POP POP POP PUSH1 0x40 MLOAD RETURNDATASIZE PUSH1 0x1F NOT PUSH1 0x1F DUP3 ADD AND DUP3 ADD DUP1 PUSH1 0x40 MSTORE POP DUP2 ADD SWAP1 PUSH2 0x9B7 SWAP2 SWAP1 PUSH2 0x21C7 JUMP JUMPDEST SWAP1 POP SWAP1 JUMP JUMPDEST PUSH0 PUSH1 0x5 PUSH1 0x14 SWAP1 SLOAD SWAP1 PUSH2 0x100 EXP SWAP1 DIV PUSH1 0xFF AND ISZERO PUSH2 0xA0D JUMPI PUSH1 0x40 MLOAD PUSH32 0x8C379A000000000000000000000000000000000000000000000000000000000 DUP2 MSTORE PUSH1 0x4 ADD PUSH2 0xA04 SWAP1 PUSH2 0x2037 JUMP JUMPDEST PUSH1 0x40 MLOAD DUP1 SWAP2 SUB SWAP1 REVERT JUMPDEST PUSH1 0x5 PUSH1 0x15 SWAP1 SLOAD SWAP1 PUSH2 0x100 EXP SWAP1 DIV PUSH1 0xFF AND ISZERO PUSH2 0xA5D JUMPI PUSH1 0x40 MLOAD PUSH32 0x8C379A000000000000000000000000000000000000000000000000000000000 DUP2 MSTORE PUSH1 0x4 ADD PUSH2 0xA54 SWAP1 PUSH2 0x209F JUMP JUMPDEST PUSH1 0x40 MLOAD DUP1 SWAP2 SUB SWAP1 REVERT JUMPDEST PUSH0 PUSH20 0xFFFFFFFFFFFFFFFFFFFFFFFFFFFFFFFFFFFFFFFF AND DUP5 PUSH20 0xFFFFFFFFFFFFFFFFFFFFFFFFFFFFFFFFFFFFFFFF AND EQ ISZERO DUP1 ISZERO PUSH2 0xAC5 JUMPI POP PUSH0 PUSH20 0xFFFFFFFFFFFFFFFFFFFFFFFFFFFFFFFFFFFFFFFF AND DUP4 PUSH20 0xFFFFFFFFFFFFFFFFFFFFFFFFFFFFFFFFFFFFFFFF AND EQ ISZERO JUMPDEST PUSH2 0xB04 JUMPI PUSH1 0x40 MLOAD PUSH32 0x8C379A000000000000000000000000000000000000000000000000000000000 DUP2 MSTORE PUSH1 0x4 ADD PUSH2 0xAFB SWAP1 PUSH2 0x223C JUMP JUMPDEST PUSH1 0x40 MLOAD DUP1 SWAP2 SUB SWAP1 REVERT JUMPDEST PUSH0 DUP3 GT PUSH2 0xB46 JUMPI PUSH1 0x40 MLOAD PUSH32 0x8C379A000000000000000000000000000000000000000000000000000000000 DUP2 MSTORE PUSH1 0x4 ADD PUSH2 0xB3D SWAP1 PUSH2 0x22A4 JUMP JUMPDEST PUSH1 0x40 MLOAD DUP1 SWAP2 SUB SWAP1 REVERT JUMPDEST DUP2 PUSH1 0x6 PUSH0 DUP7 PUSH20 0xFFFFFFFFFFFFFFFFFFFFFFFFFFFFFFFFFFFFFFFF AND PUSH20 0xFFFFFFFFFFFFFFFFFFFFFFFFFFFFFFFFFFFFFFFF AND DUP2 MSTORE PUSH1 0x20 ADD SWAP1 DUP2 MSTORE PUSH1 0x20 ADD PUSH0 KECCAK256 SLOAD LT ISZERO PUSH2 0xBC6 JUMPI PUSH1 0x40 MLOAD PUSH32 0x8C379A000000000000000000000000000000000000000000000000000000000 DUP2 MSTORE PUSH1 0x4 ADD PUSH2 0xBBD SWAP1 PUSH2 0x230C JUMP JUMPDEST PUSH1 0x40 MLOAD DUP1 SWAP2 SUB SWAP1 REVERT JUMPDEST DUP2 PUSH1 0x7 PUSH0 DUP7 PUSH20 0xFFFFFFFFFFFFFFFFFFFFFFFFFFFFFFFFFFFFFFFF AND PUSH20 0xFFFFFFFFFFFFFFFFFFFFFFFFFFFFFFFFFFFFFFFF AND DUP2 MSTORE PUSH1 0x20 ADD SWAP1 DUP2 MSTORE PUSH1 0x20 ADD PUSH0 KECCAK256 PUSH0 CALLER PUSH20 0xFFFFFFFFFFFFFFFFFFFFFFFFFFFFFFFFFFFFFFFF AND PUSH20 0xFFFFFFFFFFFFFFFFFFFFFFFFFFFFFFFFFFFFFFFF AND DUP2 MSTORE PUSH1 0x20 ADD SWAP1 DUP2 MSTORE PUSH1 0x20 ADD PUSH0 KECCAK256 SLOAD LT ISZERO PUSH2 0xC81 JUMPI PUSH1 0x40 MLOAD PUSH32 0x8C379A000000000000000000000000000000000000000000000000000000000 DUP2 MSTORE PUSH1 0x4 ADD PUSH2 0xC78 SWAP1 PUSH2 0x2374 JUMP JUMPDEST PUSH1 0x40 MLOAD DUP1 SWAP2 SUB SWAP1 REVERT JUMPDEST DUP2 PUSH1 0x6 PUSH0 DUP7 PUSH20 0xFFFFFFFFFFFFFFFFFFFFFFFFFFFFFFFFFFFFFFFF AND PUSH20 0xFFFFFFFFFFFFFFFFFFFFFFFFFFFFFFFFFFFFFFFF AND DUP2 MSTORE PUSH1 0x20 ADD SWAP1 DUP2 MSTORE PUSH1 0x20 ADD PUSH0 KECCAK256 PUSH0 DUP3 DUP3 SLOAD PUSH2 0xCCD SWAP2 SWAP1 PUSH2 0x23BF JUMP JUMPDEST SWAP3 POP POP DUP2 SWAP1 SSTORE POP DUP2 PUSH1 0x6 PUSH0 DUP6 PUSH20 0xFFFFFFFFFFFFFFFFFFFFFFFFFFFFFFFFFFFFFFFF AND PUSH20 0xFFFFFFFFFFFFFFFFFFFFFFFFFFFFFFFFFFFFFFFF AND DUP2 MSTORE PUSH1 0x20 ADD SWAP1 DUP2 MSTORE PUSH1 0x20 ADD PUSH0 KECCAK256 PUSH0 DUP3 DUP3 SLOAD PUSH2 0xD20 SWAP2 SWAP1 PUSH2 0x23F2 JUMP JUMPDEST SWAP3 POP POP DUP2 SWAP1 SSTORE POP DUP2 PUSH1 0x7 PUSH0 DUP7 PUSH20 0xFFFFFFFFFFFFFFFFFFFFFFFFFFFFFFFFFFFFFFFF AND PUSH20 0xFFFFFFFFFFFFFFFFFFFFFFFFFFFFFFFFFFFFFFFF AND DUP2 MSTORE PUSH1 0x20 ADD SWAP1 DUP2 MSTORE PUSH1 0x20 ADD PUSH0 KECCAK256 PUSH0 CALLER PUSH20 0xFFFFFFFFFFFFFFFFFFFFFFFFFFFFFFFFFFFFFFFF AND PUSH20 0xFFFFFFFFFFFFFFFFFFFFFFFFFFFFFFFFFFFFFFFF AND DUP2 MSTORE PUSH1 0x20 ADD SWAP1 DUP2 MSTORE PUSH1 0x20 ADD PUSH0 KECCAK256 PUSH0 DUP3 DUP3 SLOAD PUSH2 0xDAE SWAP2 SWAP1 PUSH2 0x23BF JUMP JUMPDEST SWAP3 POP POP DUP2 SWAP1 SSTORE POP DUP3 PUSH20 0xFFFFFFFFFFFFFFFFFFFFFFFFFFFFFFFFFFFFFFFF AND DUP5 PUSH20 0xFFFFFFFFFFFFFFFFFFFFFFFFFFFFFFFFFFFFFFFF AND PUSH32 0xDDF252AD1BE2C89B69C2B068FC378DAA952BA7F163C4A11628F55A4DF523B3EF DUP5 PUSH1 0x40 MLOAD PUSH2 0xE12 SWAP2 SWAP1 PUSH2 0x1CEF JUMP JUMPDEST PUSH1 0x40 MLOAD DUP1 SWAP2 SUB SWAP1 LOG3 PUSH1 0x1 SWAP1 POP SWAP4 SWAP3 POP POP POP JUMP JUMPDEST PUSH1 0x60 PUSH1 0x8 PUSH0 SWAP1 SLOAD SWAP1 PUSH2 0x100 EXP SWAP1 DIV PUSH20 0xFFFFFFFFFFFFFFFFFFFFFFFFFFFFFFFFFFFFFFFF AND PUSH20 0xFFFFFFFFFFFFFFFFFFFFFFFFFFFFFFFFFFFFFFFF AND PUSH4 0x6FDDE03 PUSH1 0x40 MLOAD DUP2 PUSH4 0xFFFFFFFF AND PUSH1 0xE0 SHL DUP2 MSTORE PUSH1 0x4 ADD PUSH0 PUSH1 0x40 MLOAD DUP1 DUP4 SUB DUP2 DUP7 GAS STATICCALL ISZERO DUP1 ISZERO PUSH2 0xE90 JUMPI RETURNDATASIZE PUSH0 PUSH0 RETURNDATACOPY RETURNDATASIZE PUSH0 REVERT JUMPDEST POP POP POP POP PUSH1 0x40 MLOAD RETURNDATASIZE PUSH0 DUP3 RETURNDATACOPY RETURNDATASIZE PUSH1 0x1F NOT PUSH1 0x1F DUP3 ADD AND DUP3 ADD DUP1 PUSH1 0x40 MSTORE POP DUP2 ADD SWAP1 PUSH2 0xEB8 SWAP2 SWAP1 PUSH2 0x2493 JUMP JUMPDEST SWAP1 POP SWAP1 JUMP JUMPDEST PUSH1 0x2 PUSH0 SWAP1 SLOAD SWAP1 PUSH2 0x100 EXP SWAP1 DIV PUSH1 0xFF AND DUP2 JUMP JUMPDEST PUSH1 0x5 PUSH0 SWAP1 SLOAD SWAP1 PUSH2 0x100 EXP SWAP1 DIV PUSH20 0xFFFFFFFFFFFFFFFFFFFFFFFFFFFFFFFFFFFFFFFF AND PUSH20 0xFFFFFFFFFFFFFFFFFFFFFFFFFFFFFFFFFFFFFFFF AND CALLER PUSH20 0xFFFFFFFFFFFFFFFFFFFFFFFFFFFFFFFFFFFFFFFF AND EQ PUSH2 0xF5E JUMPI PUSH1 0x40 MLOAD PUSH32 0x8C379A000000000000000000000000000000000000000000000000000000000 DUP2 MSTORE PUSH1 0x4 ADD PUSH2 0xF55 SWAP1 PUSH2 0x2195 JUMP JUMPDEST PUSH1 0x40 MLOAD DUP1 SWAP2 SUB SWAP1 REVERT JUMPDEST PUSH0 PUSH1 0x5 PUSH1 0x14 PUSH2 0x100 EXP DUP2 SLOAD DUP2 PUSH1 0xFF MUL NOT AND SWAP1 DUP4 ISZERO ISZERO MUL OR SWAP1 SSTORE POP CALLER PUSH20 0xFFFFFFFFFFFFFFFFFFFFFFFFFFFFFFFFFFFFFFFF AND PUSH32 0x5DB9EE0A495BF2E6FF9C91A7834C1BA4FDD244A5E8AA4E537BD38AEAE4B073AA PUSH1 0x40 MLOAD PUSH1 0x40 MLOAD DUP1 SWAP2 SUB SWAP1 LOG2 JUMP JUMPDEST PUSH1 0x5 PUSH1 0x16 SWAP1 SLOAD SWAP1 PUSH2 0x100 EXP SWAP1 DIV PUSH1 0xFF AND DUP2 JUMP JUMPDEST PUSH1 0x5 PUSH1 0x14 SWAP1 SLOAD SWAP1 PUSH2 0x100 EXP SWAP1 DIV PUSH1 0xFF AND DUP2 JUMP JUMPDEST PUSH0 PUSH0 PUSH1 0x8 PUSH0 SWAP1 SLOAD SWAP1 PUSH2 0x100 EXP SWAP1 DIV PUSH20 0xFFFFFFFFFFFFFFFFFFFFFFFFFFFFFFFFFFFFFFFF AND PUSH20 0xFFFFFFFFFFFFFFFFFFFFFFFFFFFFFFFFFFFFFFFF AND PUSH4 0x70A08231 DUP5 PUSH1 0x40 MLOAD DUP3 PUSH4 0xFFFFFFFF AND PUSH1 0xE0 SHL DUP2 MSTORE PUSH1 0x4 ADD PUSH2 0x103F SWAP2 SWAP1 PUSH2 0x1F39 JUMP JUMPDEST PUSH1 0x20 PUSH1 0x40 MLOAD DUP1 DUP4 SUB DUP2 DUP7 GAS STATICCALL ISZERO DUP1 ISZERO PUSH2 0x105A JUMPI RETURNDATASIZE PUSH0 PUSH0 RETURNDATACOPY RETURNDATASIZE PUSH0 REVERT JUMPDEST POP POP POP POP PUSH1 0x40 MLOAD RETURNDATASIZE PUSH1 0x1F NOT PUSH1 0x1F DUP3 ADD AND DUP3 ADD DUP1 PUSH1 0x40 MSTORE POP DUP2 ADD SWAP1 PUSH2 0x107E SWAP2 SWAP1 PUSH2 0x21C7 JUMP JUMPDEST SWAP1 POP DUP3 PUSH20 0xFFFFFFFFFFFFFFFFFFFFFFFFFFFFFFFFFFFFFFFF AND PUSH32 0xDBD71032B7681EE8E00CB6F187D955FDFC8CFB5302B98A717B033AB45BF21E64 DUP3 PUSH1 0x40 MLOAD PUSH2 0x10C6 SWAP2 SWAP1 PUSH2 0x1CEF JUMP JUMPDEST PUSH1 0x40 MLOAD DUP1 SWAP2 SUB SWAP1 LOG2 DUP1 SWAP2 POP POP SWAP2 SWAP1 POP JUMP JUMPDEST PUSH1 0x4 DUP1 SLOAD PUSH2 0x10E4 SWAP1 PUSH2 0x1FBD JUMP JUMPDEST DUP1 PUSH1 0x1F ADD PUSH1 0x20 DUP1 SWAP2 DIV MUL PUSH1 0x20 ADD PUSH1 0x40 MLOAD SWAP1 DUP2 ADD PUSH1 0x40 MSTORE DUP1 SWAP3 SWAP2 SWAP1 DUP2 DUP2 MSTORE PUSH1 0x20 ADD DUP3 DUP1 SLOAD PUSH2 0x1110 SWAP1 PUSH2 0x1FBD JUMP JUMPDEST DUP1 ISZERO PUSH2 0x115B JUMPI DUP1 PUSH1 0x1F LT PUSH2 0x1132 JUMPI PUSH2 0x100 DUP1 DUP4 SLOAD DIV MUL DUP4 MSTORE SWAP2 PUSH1 0x20 ADD SWAP2 PUSH2 0x115B JUMP JUMPDEST DUP3 ADD SWAP2 SWAP1 PUSH0 MSTORE PUSH1 0x20 PUSH0 KECCAK256 SWAP1 JUMPDEST DUP2 SLOAD DUP2 MSTORE SWAP1 PUSH1 0x1 ADD SWAP1 PUSH1 0x20 ADD DUP1 DUP4 GT PUSH2 0x113E JUMPI DUP3 SWAP1 SUB PUSH1 0x1F AND DUP3 ADD SWAP2 JUMPDEST POP POP POP POP POP DUP2 JUMP JUMPDEST PUSH0 PUSH1 0x6 PUSH0 DUP4 PUSH20 0xFFFFFFFFFFFFFFFFFFFFFFFFFFFFFFFFFFFFFFFF AND PUSH20 0xFFFFFFFFFFFFFFFFFFFFFFFFFFFFFFFFFFFFFFFF AND DUP2 MSTORE PUSH1 0x20 ADD SWAP1 DUP2 MSTORE PUSH1 0x20 ADD PUSH0 KECCAK256 SLOAD SWAP1 POP SWAP2 SWAP1 POP JUMP JUMPDEST PUSH1 0x5 PUSH0 SWAP1 SLOAD SWAP1 PUSH2 0x100 EXP SWAP1 DIV PUSH20 0xFFFFFFFFFFFFFFFFFFFFFFFFFFFFFFFFFFFFFFFF AND PUSH20 0xFFFFFFFFFFFFFFFFFFFFFFFFFFFFFFFFFFFFFFFF AND CALLER PUSH20 0xFFFFFFFFFFFFFFFFFFFFFFFFFFFFFFFFFFFFFFFF AND EQ PUSH2 0x1238 JUMPI PUSH1 0x40 MLOAD PUSH32 0x8C379A000000000000000000000000000000000000000000000000000000000 DUP2 MSTORE PUSH1 0x4 ADD PUSH2 0x122F SWAP1 PUSH2 0x2195 JUMP JUMPDEST PUSH1 0x40 MLOAD DUP1 SWAP2 SUB SWAP1 REVERT JUMPDEST PUSH1 0x1 PUSH1 0x5 PUSH1 0x16 PUSH2 0x100 EXP DUP2 SLOAD DUP2 PUSH1 0xFF MUL NOT AND SWAP1 DUP4 ISZERO ISZERO MUL OR SWAP1 SSTORE POP JUMP JUMPDEST PUSH1 0x5 PUSH0 SWAP1 SLOAD SWAP1 PUSH2 0x100 EXP SWAP1 DIV PUSH20 0xFFFFFFFFFFFFFFFFFFFFFFFFFFFFFFFFFFFFFFFF AND PUSH20 0xFFFFFFFFFFFFFFFFFFFFFFFFFFFFFFFFFFFFFFFF AND CALLER PUSH20 0xFFFFFFFFFFFFFFFFFFFFFFFFFFFFFFFFFFFFFFFF AND EQ PUSH2 0x12E4 JUMPI PUSH1 0x40 MLOAD PUSH32 0x8C379A000000000000000000000000000000000000000000000000000000000 DUP2 MSTORE PUSH1 0x4 ADD PUSH2 0x12DB SWAP1 PUSH2 0x2195 JUMP JUMPDEST PUSH1 0x40 MLOAD DUP1 SWAP2 SUB SWAP1 REVERT JUMPDEST PUSH1 0x1 PUSH1 0x5 PUSH1 0x14 PUSH2 0x100 EXP DUP2 SLOAD DUP2 PUSH1 0xFF MUL NOT AND SWAP1 DUP4 ISZERO ISZERO MUL OR SWAP1 SSTORE POP CALLER PUSH20 0xFFFFFFFFFFFFFFFFFFFFFFFFFFFFFFFFFFFFFFFF AND PUSH32 0x62E78CEA01BEE320CD4E420270B5EA74000D11B0C9F74754EBDBFC544B05A258 PUSH1 0x40 MLOAD PUSH1 0x40 MLOAD DUP1 SWAP2 SUB SWAP1 LOG2 JUMP JUMPDEST PUSH1 0x5 PUSH0 SWAP1 SLOAD SWAP1 PUSH2 0x100 EXP SWAP1 DIV PUSH20 0xFFFFFFFFFFFFFFFFFFFFFFFFFFFFFFFFFFFFFFFF AND PUSH20 0xFFFFFFFFFFFFFFFFFFFFFFFFFFFFFFFFFFFFFFFF AND CALLER PUSH20 0xFFFFFFFFFFFFFFFFFFFFFFFFFFFFFFFFFFFFFFFF AND EQ PUSH2 0x13D3 JUMPI PUSH1 0x40 MLOAD PUSH32 0x8C379A000000000000000000000000000000000000000000000000000000000 DUP2 MSTORE PUSH1 0x4 ADD PUSH2 0x13CA SWAP1 PUSH2 0x2195 JUMP JUMPDEST PUSH1 0x40 MLOAD DUP1 SWAP2 SUB SWAP1 REVERT JUMPDEST PUSH1 0x5 PUSH1 0x16 SWAP1 SLOAD SWAP1 PUSH2 0x100 EXP SWAP1 DIV PUSH1 0xFF AND ISZERO PUSH2 0x1423 JUMPI PUSH1 0x40 MLOAD PUSH32 0x8C379A000000000000000000000000000000000000000000000000000000000 DUP2 MSTORE PUSH1 0x4 ADD PUSH2 0x141A SWAP1 PUSH2 0x2524 JUMP JUMPDEST PUSH1 0x40 MLOAD DUP1 SWAP2 SUB SWAP1 REVERT JUMPDEST DUP1 PUSH1 0x4 SWAP1 DUP2 PUSH2 0x1432 SWAP2 SWAP1 PUSH2 0x26E2 JUMP JUMPDEST POP PUSH32 0xC059DB0A2349EAA5D107D9598D56AD83AA565BD7C132AC1FBFE8F86F0EE4EA76 DUP2 PUSH1 0x40 MLOAD PUSH2 0x1462 SWAP2 SWAP1 PUSH2 0x1BB1 JUMP JUMPDEST PUSH1 0x40 MLOAD DUP1 SWAP2 SUB SWAP1 LOG1 POP JUMP JUMPDEST PUSH1 0x1 DUP1 SLOAD PUSH2 0x147A SWAP1 PUSH2 0x1FBD JUMP JUMPDEST DUP1 PUSH1 0x1F ADD PUSH1 0x20 DUP1 SWAP2 DIV MUL PUSH1 0x20 ADD PUSH1 0x40 MLOAD SWAP1 DUP2 ADD PUSH1 0x40 MSTORE DUP1 SWAP3 SWAP2 SWAP1 DUP2 DUP2 MSTORE PUSH1 0x20 ADD DUP3 DUP1 SLOAD PUSH2 0x14A6 SWAP1 PUSH2 0x1FBD JUMP JUMPDEST DUP1 ISZERO PUSH2 0x14F1 JUMPI DUP1 PUSH1 0x1F LT PUSH2 0x14C8 JUMPI PUSH2 0x100 DUP1 DUP4 SLOAD DIV MUL DUP4 MSTORE SWAP2 PUSH1 0x20 ADD SWAP2 PUSH2 0x14F1 JUMP JUMPDEST DUP3 ADD SWAP2 SWAP1 PUSH0 MSTORE PUSH1 0x20 PUSH0 KECCAK256 SWAP1 JUMPDEST DUP2 SLOAD DUP2 MSTORE SWAP1 PUSH1 0x1 ADD SWAP1 PUSH1 0x20 ADD DUP1 DUP4 GT PUSH2 0x14D4 JUMPI DUP3 SWAP1 SUB PUSH1 0x1F AND DUP3 ADD SWAP2 JUMPDEST POP POP POP POP POP DUP2 JUMP JUMPDEST PUSH1 0x60 PUSH1 0x8 PUSH0 SWAP1 SLOAD SWAP1 PUSH2 0x100 EXP SWAP1 DIV PUSH20 0xFFFFFFFFFFFFFFFFFFFFFFFFFFFFFFFFFFFFFFFF AND PUSH20 0xFFFFFFFFFFFFFFFFFFFFFFFFFFFFFFFFFFFFFFFF AND PUSH4 0x95D89B41 PUSH1 0x40 MLOAD DUP2 PUSH4 0xFFFFFFFF AND PUSH1 0xE0 SHL DUP2 MSTORE PUSH1 0x4 ADD PUSH0 PUSH1 0x40 MLOAD DUP1 DUP4 SUB DUP2 DUP7 GAS STATICCALL ISZERO DUP1 ISZERO PUSH2 0x1564 JUMPI RETURNDATASIZE PUSH0 PUSH0 RETURNDATACOPY RETURNDATASIZE PUSH0 REVERT JUMPDEST POP POP POP POP PUSH1 0x40 MLOAD RETURNDATASIZE PUSH0 DUP3 RETURNDATACOPY RETURNDATASIZE PUSH1 0x1F NOT PUSH1 0x1F DUP3 ADD AND DUP3 ADD DUP1 PUSH1 0x40 MSTORE POP DUP2 ADD SWAP1 PUSH2 0x158C SWAP2 SWAP1 PUSH2 0x2493 JUMP JUMPDEST SWAP1 POP SWAP1 JUMP JUMPDEST PUSH0 PUSH1 0x5 PUSH1 0x14 SWAP1 SLOAD SWAP1 PUSH2 0x100 EXP SWAP1 DIV PUSH1 0xFF AND ISZERO PUSH2 0x15E2 JUMPI PUSH1 0x40 MLOAD PUSH32 0x8C379A000000000000000000000000000000000000000000000000000000000 DUP2 MSTORE PUSH1 0x4 ADD PUSH2 0x15D9 SWAP1 PUSH2 0x2037 JUMP JUMPDEST PUSH1 0x40 MLOAD DUP1 SWAP2 SUB SWAP1 REVERT JUMPDEST PUSH1 0x5 PUSH1 0x15 SWAP1 SLOAD SWAP1 PUSH2 0x100 EXP SWAP1 DIV PUSH1 0xFF AND ISZERO PUSH2 0x1632 JUMPI PUSH1 0x40 MLOAD PUSH32 0x8C379A000000000000000000000000000000000000000000000000000000000 DUP2 MSTORE PUSH1 0x4 ADD PUSH2 0x1629 SWAP1 PUSH2 0x209F JUMP JUMPDEST PUSH1 0x40 MLOAD DUP1 SWAP2 SUB SWAP1 REVERT JUMPDEST PUSH0 PUSH20 0xFFFFFFFFFFFFFFFFFFFFFFFFFFFFFFFFFFFFFFFF AND DUP4 PUSH20 0xFFFFFFFFFFFFFFFFFFFFFFFFFFFFFFFFFFFFFFFF AND SUB PUSH2 0x16A0 JUMPI PUSH1 0x40 MLOAD PUSH32 0x8C379A000000000000000000000000000000000000000000000000000000000 DUP2 MSTORE PUSH1 0x4 ADD PUSH2 0x1697 SWAP1 PUSH2 0x27FB JUMP JUMPDEST PUSH1 0x40 MLOAD DUP1 SWAP2 SUB SWAP1 REVERT JUMPDEST PUSH0 DUP3 GT PUSH2 0x16E2 JUMPI PUSH1 0x40 MLOAD PUSH32 0x8C379A000000000000000000000000000000000000000000000000000000000 DUP2 MSTORE PUSH1 0x4 ADD PUSH2 0x16D9 SWAP1 PUSH2 0x22A4 JUMP JUMPDEST PUSH1 0x40 MLOAD DUP1 SWAP2 SUB SWAP1 REVERT JUMPDEST DUP2 PUSH1 0x6 PUSH0 CALLER PUSH20 0xFFFFFFFFFFFFFFFFFFFFFFFFFFFFFFFFFFFFFFFF AND PUSH20 0xFFFFFFFFFFFFFFFFFFFFFFFFFFFFFFFFFFFFFFFF AND DUP2 MSTORE PUSH1 0x20 ADD SWAP1 DUP2 MSTORE PUSH1 0x20 ADD PUSH0 KECCAK256 SLOAD LT ISZERO PUSH2 0x1762 JUMPI PUSH1 0x40 MLOAD PUSH32 0x8C379A000000000000000000000000000000000000000000000000000000000 DUP2 MSTORE PUSH1 0x4 ADD PUSH2 0x1759 SWAP1 PUSH2 0x230C JUMP JUMPDEST PUSH1 0x40 MLOAD DUP1 SWAP2 SUB SWAP1 REVERT JUMPDEST DUP2 PUSH1 0x6 PUSH0 CALLER PUSH20 0xFFFFFFFFFFFFFFFFFFFFFFFFFFFFFFFFFFFFFFFF AND PUSH20 0xFFFFFFFFFFFFFFFFFFFFFFFFFFFFFFFFFFFFFFFF AND DUP2 MSTORE PUSH1 0x20 ADD SWAP1 DUP2 MSTORE PUSH1 0x20 ADD PUSH0 KECCAK256 PUSH0 DUP3 DUP3 SLOAD PUSH2 0x17AE SWAP2 SWAP1 PUSH2 0x23BF JUMP JUMPDEST SWAP3 POP POP DUP2 SWAP1 SSTORE POP DUP2 PUSH1 0x6 PUSH0 DUP6 PUSH20 0xFFFFFFFFFFFFFFFFFFFFFFFFFFFFFFFFFFFFFFFF AND PUSH20 0xFFFFFFFFFFFFFFFFFFFFFFFFFFFFFFFFFFFFFFFF AND DUP2 MSTORE PUSH1 0x20 ADD SWAP1 DUP2 MSTORE PUSH1 0x20 ADD PUSH0 KECCAK256 PUSH0 DUP3 DUP3 SLOAD PUSH2 0x1801 SWAP2 SWAP1 PUSH2 0x23F2 JUMP JUMPDEST SWAP3 POP POP DUP2 SWAP1 SSTORE POP DUP3 PUSH20 0xFFFFFFFFFFFFFFFFFFFFFFFFFFFFFFFFFFFFFFFF AND CALLER PUSH20 0xFFFFFFFFFFFFFFFFFFFFFFFFFFFFFFFFFFFFFFFF AND PUSH32 0xDDF252AD1BE2C89B69C2B068FC378DAA952BA7F163C4A11628F55A4DF523B3EF DUP5 PUSH1 0x40 MLOAD PUSH2 0x1865 SWAP2 SWAP1 PUSH2 0x1CEF JUMP JUMPDEST PUSH1 0x40 MLOAD DUP1 SWAP2 SUB SWAP1 LOG3 PUSH1 0x1 SWAP1 POP SWAP3 SWAP2 POP POP JUMP JUMPDEST PUSH1 0x5 PUSH0 SWAP1 SLOAD SWAP1 PUSH2 0x100 EXP SWAP1 DIV PUSH20 0xFFFFFFFFFFFFFFFFFFFFFFFFFFFFFFFFFFFFFFFF AND DUP2 JUMP JUMPDEST PUSH0 PUSH1 0x7 PUSH0 DUP5 PUSH20 0xFFFFFFFFFFFFFFFFFFFFFFFFFFFFFFFFFFFFFFFF AND PUSH20 0xFFFFFFFFFFFFFFFFFFFFFFFFFFFFFFFFFFFFFFFF AND DUP2 MSTORE PUSH1 0x20 ADD SWAP1 DUP2 MSTORE PUSH1 0x20 ADD PUSH0 KECCAK256 PUSH0 DUP4 PUSH20 0xFFFFFFFFFFFFFFFFFFFFFFFFFFFFFFFFFFFFFFFF AND PUSH20 0xFFFFFFFFFFFFFFFFFFFFFFFFFFFFFFFFFFFFFFFF AND DUP2 MSTORE PUSH1 0x20 ADD SWAP1 DUP2 MSTORE PUSH1 0x20 ADD PUSH0 KECCAK256 SLOAD SWAP1 POP SWAP3 SWAP2 POP POP JUMP JUMPDEST PUSH1 0x5 PUSH0 SWAP1 SLOAD SWAP1 PUSH2 0x100 EXP SWAP1 DIV PUSH20 0xFFFFFFFFFFFFFFFFFFFFFFFFFFFFFFFFFFFFFFFF AND PUSH20 0xFFFFFFFFFFFFFFFFFFFFFFFFFFFFFFFFFFFFFFFF AND CALLER PUSH20 0xFFFFFFFFFFFFFFFFFFFFFFFFFFFFFFFFFFFFFFFF AND EQ PUSH2 0x19AD JUMPI PUSH1 0x40 MLOAD PUSH32 0x8C379A000000000000000000000000000000000000000000000000000000000 DUP2 MSTORE PUSH1 0x4 ADD PUSH2 0x19A4 SWAP1 PUSH2 0x2195 JUMP JUMPDEST PUSH1 0x40 MLOAD DUP1 SWAP2 SUB SWAP1 REVERT JUMPDEST PUSH0 PUSH20 0xFFFFFFFFFFFFFFFFFFFFFFFFFFFFFFFFFFFFFFFF AND DUP2 PUSH20 0xFFFFFFFFFFFFFFFFFFFFFFFFFFFFFFFFFFFFFFFF AND SUB PUSH2 0x1A1B JUMPI PUSH1 0x40 MLOAD PUSH32 0x8C379A000000000000000000000000000000000000000000000000000000000 DUP2 MSTORE PUSH1 0x4 ADD PUSH2 0x1A12 SWAP1 PUSH2 0x2863 JUMP JUMPDEST PUSH1 0x40 MLOAD DUP1 SWAP2 SUB SWAP1 REVERT JUMPDEST DUP1 PUSH20 0xFFFFFFFFFFFFFFFFFFFFFFFFFFFFFFFFFFFFFFFF AND PUSH1 0x5 PUSH0 SWAP1 SLOAD SWAP1 PUSH2 0x100 EXP SWAP1 DIV PUSH20 0xFFFFFFFFFFFFFFFFFFFFFFFFFFFFFFFFFFFFFFFF AND PUSH20 0xFFFFFFFFFFFFFFFFFFFFFFFFFFFFFFFFFFFFFFFF AND PUSH32 0x8BE0079C531659141344CD1FD0A4F28419497F9722A3DAAFE3B4186F6B6457E0 PUSH1 0x40 MLOAD PUSH1 0x40 MLOAD DUP1 SWAP2 SUB SWAP1 LOG3 DUP1 PUSH1 0x5 PUSH0 PUSH2 0x100 EXP DUP2 SLOAD DUP2 PUSH20 0xFFFFFFFFFFFFFFFFFFFFFFFFFFFFFFFFFFFFFFFF MUL NOT AND SWAP1 DUP4 PUSH20 0xFFFFFFFFFFFFFFFFFFFFFFFFFFFFFFFFFFFFFFFF AND MUL OR SWAP1 SSTORE POP POP JUMP JUMPDEST PUSH0 DUP3 DUP3 MSTORE PUSH1 0x20 DUP3 ADD SWAP1 POP SWAP3 SWAP2 POP POP JUMP JUMPDEST PUSH32 0x455448206E6F7420616363657074656400000000000000000000000000000000 PUSH0 DUP3 ADD MSTORE POP JUMP JUMPDEST PUSH0 PUSH2 0x1B1D PUSH1 0x10 DUP4 PUSH2 0x1AD9 JUMP JUMPDEST SWAP2 POP PUSH2 0x1B28 DUP3 PUSH2 0x1AE9 JUMP JUMPDEST PUSH1 0x20 DUP3 ADD SWAP1 POP SWAP2 SWAP1 POP JUMP JUMPDEST PUSH0 PUSH1 0x20 DUP3 ADD SWAP1 POP DUP2 DUP2 SUB PUSH0 DUP4 ADD MSTORE PUSH2 0x1B4A DUP2 PUSH2 0x1B11 JUMP JUMPDEST SWAP1 POP SWAP2 SWAP1 POP JUMP JUMPDEST PUSH0 DUP2 MLOAD SWAP1 POP SWAP2 SWAP1 POP JUMP JUMPDEST DUP3 DUP2 DUP4 MCOPY PUSH0 DUP4 DUP4 ADD MSTORE POP POP POP JUMP JUMPDEST PUSH0 PUSH1 0x1F NOT PUSH1 0x1F DUP4 ADD AND SWAP1 POP SWAP2 SWAP1 POP JUMP JUMPDEST PUSH0 PUSH2 0x1B83 DUP3 PUSH2 0x1B51 JUMP JUMPDEST PUSH2 0x1B8D DUP2 DUP6 PUSH2 0x1AD9 JUMP JUMPDEST SWAP4 POP PUSH2 0x1B9D DUP2 DUP6 PUSH1 0x20 DUP7 ADD PUSH2 0x1B5B JUMP JUMPDEST PUSH2 0x1BA6 DUP2 PUSH2 0x1B69 JUMP JUMPDEST DUP5 ADD SWAP2 POP POP SWAP3 SWAP2 POP POP JUMP JUMPDEST PUSH0 PUSH1 0x20 DUP3 ADD SWAP1 POP DUP2 DUP2 SUB PUSH0 DUP4 ADD MSTORE PUSH2 0x1BC9 DUP2 DUP5 PUSH2 0x1B79 JUMP JUMPDEST SWAP1 POP SWAP3 SWAP2 POP POP JUMP JUMPDEST PUSH0 PUSH1 0x40 MLOAD SWAP1 POP SWAP1 JUMP JUMPDEST PUSH0 PUSH0 REVERT JUMPDEST PUSH0 PUSH0 REVERT JUMPDEST PUSH0 PUSH20 0xFFFFFFFFFFFFFFFFFFFFFFFFFFFFFFFFFFFFFFFF DUP3 AND SWAP1 POP SWAP2 SWAP1 POP JUMP JUMPDEST PUSH0 PUSH2 0x1C0B DUP3 PUSH2 0x1BE2 JUMP JUMPDEST SWAP1 POP SWAP2 SWAP1 POP JUMP JUMPDEST PUSH2 0x1C1B DUP2 PUSH2 0x1C01 JUMP JUMPDEST DUP2 EQ PUSH2 0x1C25 JUMPI PUSH0 PUSH0 REVERT JUMPDEST POP JUMP JUMPDEST PUSH0 DUP2 CALLDATALOAD SWAP1 POP PUSH2 0x1C36 DUP2 PUSH2 0x1C12 JUMP JUMPDEST SWAP3 SWAP2 POP POP JUMP JUMPDEST PUSH0 DUP2 SWAP1 POP SWAP2 SWAP1 POP JUMP JUMPDEST PUSH2 0x1C4E DUP2 PUSH2 0x1C3C JUMP JUMPDEST DUP2 EQ PUSH2 0x1C58 JUMPI PUSH0 PUSH0 REVERT JUMPDEST POP JUMP JUMPDEST PUSH0 DUP2 CALLDATALOAD SWAP1 POP PUSH2 0x1C69 DUP2 PUSH2 0x1C45 JUMP JUMPDEST SWAP3 SWAP2 POP POP JUMP JUMPDEST PUSH0 PUSH0 PUSH1 0x40 DUP4 DUP6 SUB SLT ISZERO PUSH2 0x1C85 JUMPI PUSH2 0x1C84 PUSH2 0x1BDA JUMP JUMPDEST JUMPDEST PUSH0 PUSH2 0x1C92 DUP6 DUP3 DUP7 ADD PUSH2 0x1C28 JUMP JUMPDEST SWAP3 POP POP PUSH1 0x20 PUSH2 0x1CA3 DUP6 DUP3 DUP7 ADD PUSH2 0x1C5B JUMP JUMPDEST SWAP2 POP POP SWAP3 POP SWAP3 SWAP1 POP JUMP JUMPDEST PUSH0 DUP2 ISZERO ISZERO SWAP1 POP SWAP2 SWAP1 POP JUMP JUMPDEST PUSH2 0x1CC1 DUP2 PUSH2 0x1CAD JUMP JUMPDEST DUP3 MSTORE POP POP JUMP JUMPDEST PUSH0 PUSH1 0x20 DUP3 ADD SWAP1 POP PUSH2 0x1CDA PUSH0 DUP4 ADD DUP5 PUSH2 0x1CB8 JUMP JUMPDEST SWAP3 SWAP2 POP POP JUMP JUMPDEST PUSH2 0x1CE9 DUP2 PUSH2 0x1C3C JUMP JUMPDEST DUP3 MSTORE POP POP JUMP JUMPDEST PUSH0 PUSH1 0x20 DUP3 ADD SWAP1 POP PUSH2 0x1D02 PUSH0 DUP4 ADD DUP5 PUSH2 0x1CE0 JUMP JUMPDEST SWAP3 SWAP2 POP POP JUMP JUMPDEST PUSH0 PUSH0 PUSH0 PUSH1 0x60 DUP5 DUP7 SUB SLT ISZERO PUSH2 0x1D1F JUMPI PUSH2 0x1D1E PUSH2 0x1BDA JUMP JUMPDEST JUMPDEST PUSH0 PUSH2 0x1D2C DUP7 DUP3 DUP8 ADD PUSH2 0x1C28 JUMP JUMPDEST SWAP4 POP POP PUSH1 0x20 PUSH2 0x1D3D DUP7 DUP3 DUP8 ADD PUSH2 0x1C28 JUMP JUMPDEST SWAP3 POP POP PUSH1 0x40 PUSH2 0x1D4E DUP7 DUP3 DUP8 ADD PUSH2 0x1C5B JUMP JUMPDEST SWAP2 POP POP SWAP3 POP SWAP3 POP SWAP3 JUMP JUMPDEST PUSH0 PUSH1 0xFF DUP3 AND SWAP1 POP SWAP2 SWAP1 POP JUMP JUMPDEST PUSH2 0x1D6D DUP2 PUSH2 0x1D58 JUMP JUMPDEST DUP3 MSTORE POP POP JUMP JUMPDEST PUSH0 PUSH1 0x20 DUP3 ADD SWAP1 POP PUSH2 0x1D86 PUSH0 DUP4 ADD DUP5 PUSH2 0x1D64 JUMP JUMPDEST SWAP3 SWAP2 POP POP JUMP JUMPDEST PUSH0 PUSH1 0x20 DUP3 DUP5 SUB SLT ISZERO PUSH2 0x1DA1 JUMPI PUSH2 0x1DA0 PUSH2 0x1BDA JUMP JUMPDEST JUMPDEST PUSH0 PUSH2 0x1DAE DUP5 DUP3 DUP6 ADD PUSH2 0x1C28 JUMP JUMPDEST SWAP2 POP POP SWAP3 SWAP2 POP POP JUMP JUMPDEST PUSH0 PUSH0 REVERT JUMPDEST PUSH0 PUSH0 REVERT JUMPDEST PUSH32 0x4E487B7100000000000000000000000000000000000000000000000000000000 PUSH0 MSTORE PUSH1 0x41 PUSH1 0x4 MSTORE PUSH1 0x24 PUSH0 REVERT JUMPDEST PUSH2 0x1DF5 DUP3 PUSH2 0x1B69 JUMP JUMPDEST DUP2 ADD DUP2 DUP2 LT PUSH8 0xFFFFFFFFFFFFFFFF DUP3 GT OR ISZERO PUSH2 0x1E14 JUMPI PUSH2 0x1E13 PUSH2 0x1DBF JUMP JUMPDEST JUMPDEST DUP1 PUSH1 0x40 MSTORE POP POP POP JUMP JUMPDEST PUSH0 PUSH2 0x1E26 PUSH2 0x1BD1 JUMP JUMPDEST SWAP1 POP PUSH2 0x1E32 DUP3 DUP3 PUSH2 0x1DEC JUMP JUMPDEST SWAP2 SWAP1 POP JUMP JUMPDEST PUSH0 PUSH8 0xFFFFFFFFFFFFFFFF DUP3 GT ISZERO PUSH2 0x1E51 JUMPI PUSH2 0x1E50 PUSH2 0x1DBF JUMP JUMPDEST JUMPDEST PUSH2 0x1E5A DUP3 PUSH2 0x1B69 JUMP JUMPDEST SWAP1 POP PUSH1 0x20 DUP2 ADD SWAP1 POP SWAP2 SWAP1 POP JUMP JUMPDEST DUP3 DUP2 DUP4 CALLDATACOPY PUSH0 DUP4 DUP4 ADD MSTORE POP POP POP JUMP JUMPDEST PUSH0 PUSH2 0x1E87 PUSH2 0x1E82 DUP5 PUSH2 0x1E37 JUMP JUMPDEST PUSH2 0x1E1D JUMP JUMPDEST SWAP1 POP DUP3 DUP2 MSTORE PUSH1 0x20 DUP2 ADD DUP5 DUP5 DUP5 ADD GT ISZERO PUSH2 0x1EA3 JUMPI PUSH2 0x1EA2 PUSH2 0x1DBB JUMP JUMPDEST JUMPDEST PUSH2 0x1EAE DUP5 DUP3 DUP6 PUSH2 0x1E67 JUMP JUMPDEST POP SWAP4 SWAP3 POP POP POP JUMP JUMPDEST PUSH0 DUP3 PUSH1 0x1F DUP4 ADD SLT PUSH2 0x1ECA JUMPI PUSH2 0x1EC9 PUSH2 0x1DB7 JUMP JUMPDEST JUMPDEST DUP2 CALLDATALOAD PUSH2 0x1EDA DUP5 DUP3 PUSH1 0x20 DUP7 ADD PUSH2 0x1E75 JUMP JUMPDEST SWAP2 POP POP SWAP3 SWAP2 POP POP JUMP JUMPDEST PUSH0 PUSH1 0x20 DUP3 DUP5 SUB SLT ISZERO PUSH2 0x1EF8 JUMPI PUSH2 0x1EF7 PUSH2 0x1BDA JUMP JUMPDEST JUMPDEST PUSH0 DUP3 ADD CALLDATALOAD PUSH8 0xFFFFFFFFFFFFFFFF DUP2 GT ISZERO PUSH2 0x1F15 JUMPI PUSH2 0x1F14 PUSH2 0x1BDE JUMP JUMPDEST JUMPDEST PUSH2 0x1F21 DUP5 DUP3 DUP6 ADD PUSH2 0x1EB6 JUMP JUMPDEST SWAP2 POP POP SWAP3 SWAP2 POP POP JUMP JUMPDEST PUSH2 0x1F33 DUP2 PUSH2 0x1C01 JUMP JUMPDEST DUP3 MSTORE POP POP JUMP JUMPDEST PUSH0 PUSH1 0x20 DUP3 ADD SWAP1 POP PUSH2 0x1F4C PUSH0 DUP4 ADD DUP5 PUSH2 0x1F2A JUMP JUMPDEST SWAP3 SWAP2 POP POP JUMP JUMPDEST PUSH0 PUSH0 PUSH1 0x40 DUP4 DUP6 SUB SLT ISZERO PUSH2 0x1F68 JUMPI PUSH2 0x1F67 PUSH2 0x1BDA JUMP JUMPDEST JUMPDEST PUSH0 PUSH2 0x1F75 DUP6 DUP3 DUP7 ADD PUSH2 0x1C28 JUMP JUMPDEST SWAP3 POP POP PUSH1 0x20 PUSH2 0x1F86 DUP6 DUP3 DUP7 ADD PUSH2 0x1C28 JUMP JUMPDEST SWAP2 POP POP SWAP3 POP SWAP3 SWAP1 POP JUMP JUMPDEST PUSH32 0x4E487B7100000000000000000000000000000000000000000000000000000000 PUSH0 MSTORE PUSH1 0x22 PUSH1 0x4 MSTORE PUSH1 0x24 PUSH0 REVERT JUMPDEST PUSH0 PUSH1 0x2 DUP3 DIV SWAP1 POP PUSH1 0x1 DUP3 AND DUP1 PUSH2 0x1FD4 JUMPI PUSH1 0x7F DUP3 AND SWAP2 POP JUMPDEST PUSH1 0x20 DUP3 LT DUP2 SUB PUSH2 0x1FE7 JUMPI PUSH2 0x1FE6 PUSH2 0x1F90 JUMP JUMPDEST JUMPDEST POP SWAP2 SWAP1 POP JUMP JUMPDEST PUSH32 0x436F6E7472616374206973207061757365640000000000000000000000000000 PUSH0 DUP3 ADD MSTORE POP JUMP JUMPDEST PUSH0 PUSH2 0x2021 PUSH1 0x12 DUP4 PUSH2 0x1AD9 JUMP JUMPDEST SWAP2 POP PUSH2 0x202C DUP3 PUSH2 0x1FED JUMP JUMPDEST PUSH1 0x20 DUP3 ADD SWAP1 POP SWAP2 SWAP1 POP JUMP JUMPDEST PUSH0 PUSH1 0x20 DUP3 ADD SWAP1 POP DUP2 DUP2 SUB PUSH0 DUP4 ADD MSTORE PUSH2 0x204E DUP2 PUSH2 0x2015 JUMP JUMPDEST SWAP1 POP SWAP2 SWAP1 POP JUMP JUMPDEST PUSH32 0x436F6E7472616374207065726D616E656E746C79207465726D696E6174656400 PUSH0 DUP3 ADD MSTORE POP JUMP JUMPDEST PUSH0 PUSH2 0x2089 PUSH1 0x1F DUP4 PUSH2 0x1AD9 JUMP JUMPDEST SWAP2 POP PUSH2 0x2094 DUP3 PUSH2 0x2055 JUMP JUMPDEST PUSH1 0x20 DUP3 ADD SWAP1 POP SWAP2 SWAP1 POP JUMP JUMPDEST PUSH0 PUSH1 0x20 DUP3 ADD SWAP1 POP DUP2 DUP2 SUB PUSH0 DUP4 ADD MSTORE PUSH2 0x20B6 DUP2 PUSH2 0x207D JUMP JUMPDEST SWAP1 POP SWAP2 SWAP1 POP JUMP JUMPDEST PUSH32 0x417070726F766520746F207A65726F2061646472657373000000000000000000 PUSH0 DUP3 ADD MSTORE POP JUMP JUMPDEST PUSH0 PUSH2 0x20F1 PUSH1 0x17 DUP4 PUSH2 0x1AD9 JUMP JUMPDEST SWAP2 POP PUSH2 0x20FC DUP3 PUSH2 0x20BD JUMP JUMPDEST PUSH1 0x20 DUP3 ADD SWAP1 POP SWAP2 SWAP1 POP JUMP JUMPDEST PUSH0 PUSH1 0x20 DUP3 ADD SWAP1 POP DUP2 DUP2 SUB PUSH0 DUP4 ADD MSTORE PUSH2 0x211E DUP2 PUSH2 0x20E5 JUMP JUMPDEST SWAP1 POP SWAP2 SWAP1 POP JUMP JUMPDEST PUSH32 0x4F6E6C79206F776E65722063616E2063616C6C20746869732066756E6374696F PUSH0 DUP3 ADD MSTORE PUSH32 0x6E00000000000000000000000000000000000000000000000000000000000000 PUSH1 0x20 DUP3 ADD MSTORE POP JUMP JUMPDEST PUSH0 PUSH2 0x217F PUSH1 0x21 DUP4 PUSH2 0x1AD9 JUMP JUMPDEST SWAP2 POP PUSH2 0x218A DUP3 PUSH2 0x2125 JUMP JUMPDEST PUSH1 0x40 DUP3 ADD SWAP1 POP SWAP2 SWAP1 POP JUMP JUMPDEST PUSH0 PUSH1 0x20 DUP3 ADD SWAP1 POP DUP2 DUP2 SUB PUSH0 DUP4 ADD MSTORE PUSH2 0x21AC DUP2 PUSH2 0x2173 JUMP JUMPDEST SWAP1 POP SWAP2 SWAP1 POP JUMP JUMPDEST PUSH0 DUP2 MLOAD SWAP1 POP PUSH2 0x21C1 DUP2 PUSH2 0x1C45 JUMP JUMPDEST SWAP3 SWAP2 POP POP JUMP JUMPDEST PUSH0 PUSH1 0x20 DUP3 DUP5 SUB SLT ISZERO PUSH2 0x21DC JUMPI PUSH2 0x21DB PUSH2 0x1BDA JUMP JUMPDEST JUMPDEST PUSH0 PUSH2 0x21E9 DUP5 DUP3 DUP6 ADD PUSH2 0x21B3 JUMP JUMPDEST SWAP2 POP POP SWAP3 SWAP2 POP POP JUMP JUMPDEST PUSH32 0x496E76616C696420616464726573730000000000000000000000000000000000 PUSH0 DUP3 ADD MSTORE POP JUMP JUMPDEST PUSH0 PUSH2 0x2226 PUSH1 0xF DUP4 PUSH2 0x1AD9 JUMP JUMPDEST SWAP2 POP PUSH2 0x2231 DUP3 PUSH2 0x21F2 JUMP JUMPDEST PUSH1 0x20 DUP3 ADD SWAP1 POP SWAP2 SWAP1 POP JUMP JUMPDEST PUSH0 PUSH1 0x20 DUP3 ADD SWAP1 POP DUP2 DUP2 SUB PUSH0 DUP4 ADD MSTORE PUSH2 0x2253 DUP2 PUSH2 0x221A JUMP JUMPDEST SWAP1 POP SWAP2 SWAP1 POP JUMP JUMPDEST PUSH32 0x416D6F756E74206D757374206265203E20300000000000000000000000000000 PUSH0 DUP3 ADD MSTORE POP JUMP JUMPDEST PUSH0 PUSH2 0x228E PUSH1 0x12 DUP4 PUSH2 0x1AD9 JUMP JUMPDEST SWAP2 POP PUSH2 0x2299 DUP3 PUSH2 0x225A JUMP JUMPDEST PUSH1 0x20 DUP3 ADD SWAP1 POP SWAP2 SWAP1 POP JUMP JUMPDEST PUSH0 PUSH1 0x20 DUP3 ADD SWAP1 POP DUP2 DUP2 SUB PUSH0 DUP4 ADD MSTORE PUSH2 0x22BB DUP2 PUSH2 0x2282 JUMP JUMPDEST SWAP1 POP SWAP2 SWAP1 POP JUMP JUMPDEST PUSH32 0x496E73756666696369656E742062616C616E6365000000000000000000000000 PUSH0 DUP3 ADD MSTORE POP JUMP JUMPDEST PUSH0 PUSH2 0x22F6 PUSH1 0x14 DUP4 PUSH2 0x1AD9 JUMP JUMPDEST SWAP2 POP PUSH2 0x2301 DUP3 PUSH2 0x22C2 JUMP JUMPDEST PUSH1 0x20 DUP3 ADD SWAP1 POP SWAP2 SWAP1 POP JUMP JUMPDEST PUSH0 PUSH1 0x20 DUP3 ADD SWAP1 POP DUP2 DUP2 SUB PUSH0 DUP4 ADD MSTORE PUSH2 0x2323 DUP2 PUSH2 0x22EA JUMP JUMPDEST SWAP1 POP SWAP2 SWAP1 POP JUMP JUMPDEST PUSH32 0x416C6C6F77616E63652065786365656465640000000000000000000000000000 PUSH0 DUP3 ADD MSTORE POP JUMP JUMPDEST PUSH0 PUSH2 0x235E PUSH1 0x12 DUP4 PUSH2 0x1AD9 JUMP JUMPDEST SWAP2 POP PUSH2 0x2369 DUP3 PUSH2 0x232A JUMP JUMPDEST PUSH1 0x20 DUP3 ADD SWAP1 POP SWAP2 SWAP1 POP JUMP JUMPDEST PUSH0 PUSH1 0x20 DUP3 ADD SWAP1 POP DUP2 DUP2 SUB PUSH0 DUP4 ADD MSTORE PUSH2 0x238B DUP2 PUSH2 0x2352 JUMP JUMPDEST SWAP1 POP SWAP2 SWAP1 POP JUMP JUMPDEST PUSH32 0x4E487B7100000000000000000000000000000000000000000000000000000000 PUSH0 MSTORE PUSH1 0x11 PUSH1 0x4 MSTORE PUSH1 0x24 PUSH0 REVERT JUMPDEST PUSH0 PUSH2 0x23C9 DUP3 PUSH2 0x1C3C JUMP JUMPDEST SWAP2 POP PUSH2 0x23D4 DUP4 PUSH2 0x1C3C JUMP JUMPDEST SWAP3 POP DUP3 DUP3 SUB SWAP1 POP DUP2 DUP2 GT ISZERO PUSH2 0x23EC JUMPI PUSH2 0x23EB PUSH2 0x2392 JUMP JUMPDEST JUMPDEST SWAP3 SWAP2 POP POP JUMP JUMPDEST PUSH0 PUSH2 0x23FC DUP3 PUSH2 0x1C3C JUMP JUMPDEST SWAP2 POP PUSH2 0x2407 DUP4 PUSH2 0x1C3C JUMP JUMPDEST SWAP3 POP DUP3 DUP3 ADD SWAP1 POP DUP1 DUP3 GT ISZERO PUSH2 0x241F JUMPI PUSH2 0x241E PUSH2 0x2392 JUMP JUMPDEST JUMPDEST SWAP3 SWAP2 POP POP JUMP JUMPDEST PUSH0 PUSH2 0x2437 PUSH2 0x2432 DUP5 PUSH2 0x1E37 JUMP JUMPDEST PUSH2 0x1E1D JUMP JUMPDEST SWAP1 POP DUP3 DUP2 MSTORE PUSH1 0x20 DUP2 ADD DUP5 DUP5 DUP5 ADD GT ISZERO PUSH2 0x2453 JUMPI PUSH2 0x2452 PUSH2 0x1DBB JUMP JUMPDEST JUMPDEST PUSH2 0x245E DUP5 DUP3 DUP6 PUSH2 0x1B5B JUMP JUMPDEST POP SWAP4 SWAP3 POP POP POP JUMP JUMPDEST PUSH0 DUP3 PUSH1 0x1F DUP4 ADD SLT PUSH2 0x247A JUMPI PUSH2 0x2479 PUSH2 0x1DB7 JUMP JUMPDEST JUMPDEST DUP2 MLOAD PUSH2 0x248A DUP5 DUP3 PUSH1 0x20 DUP7 ADD PUSH2 0x2425 JUMP JUMPDEST SWAP2 POP POP SWAP3 SWAP2 POP POP JUMP JUMPDEST PUSH0 PUSH1 0x20 DUP3 DUP5 SUB SLT ISZERO PUSH2 0x24A8 JUMPI PUSH2 0x24A7 PUSH2 0x1BDA JUMP JUMPDEST JUMPDEST PUSH0 DUP3 ADD MLOAD PUSH8 0xFFFFFFFFFFFFFFFF DUP2 GT ISZERO PUSH2 0x24C5 JUMPI PUSH2 0x24C4 PUSH2 0x1BDE JUMP JUMPDEST JUMPDEST PUSH2 0x24D1 DUP5 DUP3 DUP6 ADD PUSH2 0x2466 JUMP JUMPDEST SWAP2 POP POP SWAP3 SWAP2 POP POP JUMP JUMPDEST PUSH32 0x5570646174657320617265206C6F636B65640000000000000000000000000000 PUSH0 DUP3 ADD MSTORE POP JUMP JUMPDEST PUSH0 PUSH2 0x250E PUSH1 0x12 DUP4 PUSH2 0x1AD9 JUMP JUMPDEST SWAP2 POP PUSH2 0x2519 DUP3 PUSH2 0x24DA JUMP JUMPDEST PUSH1 0x20 DUP3 ADD SWAP1 POP SWAP2 SWAP1 POP JUMP JUMPDEST PUSH0 PUSH1 0x20 DUP3 ADD SWAP1 POP DUP2 DUP2 SUB PUSH0 DUP4 ADD MSTORE PUSH2 0x253B DUP2 PUSH2 0x2502 JUMP JUMPDEST SWAP1 POP SWAP2 SWAP1 POP JUMP JUMPDEST PUSH0 DUP2 SWAP1 POP DUP2 PUSH0 MSTORE PUSH1 0x20 PUSH0 KECCAK256 SWAP1 POP SWAP2 SWAP1 POP JUMP JUMPDEST PUSH0 PUSH1 0x20 PUSH1 0x1F DUP4 ADD DIV SWAP1 POP SWAP2 SWAP1 POP JUMP JUMPDEST PUSH0 DUP3 DUP3 SHL SWAP1 POP SWAP3 SWAP2 POP POP JUMP JUMPDEST PUSH0 PUSH1 0x8 DUP4 MUL PUSH2 0x259E PUSH32 0xFFFFFFFFFFFFFFFFFFFFFFFFFFFFFFFFFFFFFFFFFFFFFFFFFFFFFFFFFFFFFFFF DUP3 PUSH2 0x2563 JUMP JUMPDEST PUSH2 0x25A8 DUP7 DUP4 PUSH2 0x2563 JUMP JUMPDEST SWAP6 POP DUP1 NOT DUP5 AND SWAP4 POP DUP1 DUP7 AND DUP5 OR SWAP3 POP POP POP SWAP4 SWAP3 POP POP POP JUMP JUMPDEST PUSH0 DUP2 SWAP1 POP SWAP2 SWAP1 POP JUMP JUMPDEST PUSH0 PUSH2 0x25E3 PUSH2 0x25DE PUSH2 0x25D9 DUP5 PUSH2 0x1C3C JUMP JUMPDEST PUSH2 0x25C0 JUMP JUMPDEST PUSH2 0x1C3C JUMP JUMPDEST SWAP1 POP SWAP2 SWAP1 POP JUMP JUMPDEST PUSH0 DUP2 SWAP1 POP SWAP2 SWAP1 POP JUMP JUMPDEST PUSH2 0x25FC DUP4 PUSH2 0x25C9 JUMP JUMPDEST PUSH2 0x2610 PUSH2 0x2608 DUP3 PUSH2 0x25EA JUMP JUMPDEST DUP5 DUP5 SLOAD PUSH2 0x256F JUMP JUMPDEST DUP3 SSTORE POP POP POP POP JUMP JUMPDEST PUSH0 PUSH0 SWAP1 POP SWAP1 JUMP JUMPDEST PUSH2 0x2627 PUSH2 0x2618 JUMP JUMPDEST PUSH2 0x2632 DUP2 DUP5 DUP5 PUSH2 0x25F3 JUMP JUMPDEST POP POP POP JUMP JUMPDEST JUMPDEST DUP2 DUP2 LT ISZERO PUSH2 0x2655 JUMPI PUSH2 0x264A PUSH0 DUP3 PUSH2 0x261F JUMP JUMPDEST PUSH1 0x1 DUP2 ADD SWAP1 POP PUSH2 0x2638 JUMP JUMPDEST POP POP JUMP JUMPDEST PUSH1 0x1F DUP3 GT ISZERO PUSH2 0x269A JUMPI PUSH2 0x266B DUP2 PUSH2 0x2542 JUMP JUMPDEST PUSH2 0x2674 DUP5 PUSH2 0x2554 JUMP JUMPDEST DUP2 ADD PUSH1 0x20 DUP6 LT ISZERO PUSH2 0x2683 JUMPI DUP2 SWAP1 POP JUMPDEST PUSH2 0x2697 PUSH2 0x268F DUP6 PUSH2 0x2554 JUMP JUMPDEST DUP4 ADD DUP3 PUSH2 0x2637 JUMP JUMPDEST POP POP JUMPDEST POP POP POP JUMP JUMPDEST PUSH0 DUP3 DUP3 SHR SWAP1 POP SWAP3 SWAP2 POP POP JUMP JUMPDEST PUSH0 PUSH2 0x26BA PUSH0 NOT DUP5 PUSH1 0x8 MUL PUSH2 0x269F JUMP JUMPDEST NOT DUP1 DUP4 AND SWAP2 POP POP SWAP3 SWAP2 POP POP JUMP JUMPDEST PUSH0 PUSH2 0x26D2 DUP4 DUP4 PUSH2 0x26AB JUMP JUMPDEST SWAP2 POP DUP3 PUSH1 0x2 MUL DUP3 OR SWAP1 POP SWAP3 SWAP2 POP POP JUMP JUMPDEST PUSH2 0x26EB DUP3 PUSH2 0x1B51 JUMP JUMPDEST PUSH8 0xFFFFFFFFFFFFFFFF DUP2 GT ISZERO PUSH2 0x2704 JUMPI PUSH2 0x2703 PUSH2 0x1DBF JUMP JUMPDEST JUMPDEST PUSH2 0x270E DUP3 SLOAD PUSH2 0x1FBD JUMP JUMPDEST PUSH2 0x2719 DUP3 DUP3 DUP6 PUSH2 0x2659 JUMP JUMPDEST PUSH0 PUSH1 0x20 SWAP1 POP PUSH1 0x1F DUP4 GT PUSH1 0x1 DUP2 EQ PUSH2 0x274A JUMPI PUSH0 DUP5 ISZERO PUSH2 0x2738 JUMPI DUP3 DUP8 ADD MLOAD SWAP1 POP JUMPDEST PUSH2 0x2742 DUP6 DUP3 PUSH2 0x26C7 JUMP JUMPDEST DUP7 SSTORE POP PUSH2 0x27A9 JUMP JUMPDEST PUSH1 0x1F NOT DUP5 AND PUSH2 0x2758 DUP7 PUSH2 0x2542 JUMP JUMPDEST PUSH0 JUMPDEST DUP3 DUP2 LT ISZERO PUSH2 0x277F JUMPI DUP5 DUP10 ADD MLOAD DUP3 SSTORE PUSH1 0x1 DUP3 ADD SWAP2 POP PUSH1 0x20 DUP6 ADD SWAP5 POP PUSH1 0x20 DUP2 ADD SWAP1 POP PUSH2 0x275A JUMP JUMPDEST DUP7 DUP4 LT ISZERO PUSH2 0x279C JUMPI DUP5 DUP10 ADD MLOAD PUSH2 0x2798 PUSH1 0x1F DUP10 AND DUP3 PUSH2 0x26AB JUMP JUMPDEST DUP4 SSTORE POP JUMPDEST PUSH1 0x1 PUSH1 0x2 DUP9 MUL ADD DUP9 SSTORE POP POP POP JUMPDEST POP POP POP POP POP POP JUMP JUMPDEST PUSH32 0x5472616E7366657220746F207A65726F20616464726573730000000000000000 PUSH0 DUP3 ADD MSTORE POP JUMP JUMPDEST PUSH0 PUSH2 0x27E5 PUSH1 0x18 DUP4 PUSH2 0x1AD9 JUMP JUMPDEST SWAP2 POP PUSH2 0x27F0 DUP3 PUSH2 0x27B1 JUMP JUMPDEST PUSH1 0x20 DUP3 ADD SWAP1 POP SWAP2 SWAP1 POP JUMP JUMPDEST PUSH0 PUSH1 0x20 DUP3 ADD SWAP1 POP DUP2 DUP2 SUB PUSH0 DUP4 ADD MSTORE PUSH2 0x2812 DUP2 PUSH2 0x27D9 JUMP JUMPDEST SWAP1 POP SWAP2 SWAP1 POP JUMP JUMPDEST PUSH32 0x4E6577206F776E657220697320746865207A65726F2061646472657373000000 PUSH0 DUP3 ADD MSTORE POP JUMP JUMPDEST PUSH0 PUSH2 0x284D PUSH1 0x1D DUP4 PUSH2 0x1AD9 JUMP JUMPDEST SWAP2 POP PUSH2 0x2858 DUP3 PUSH2 0x2819 JUMP JUMPDEST PUSH1 0x20 DUP3 ADD SWAP1 POP SWAP2 SWAP1 POP JUMP JUMPDEST PUSH0 PUSH1 0x20 DUP3 ADD SWAP1 POP DUP2 DUP2 SUB PUSH0 DUP4 ADD MSTORE PUSH2 0x287A DUP2 PUSH2 0x2841 JUMP JUMPDEST SWAP1 POP SWAP2 SWAP1 POP JUMP INVALID LOG2 PUSH5 0x6970667358 0x22 SLT KECCAK256 PUSH15 0xA9CFECA0D913AB49B0CCD3D19BB30D 0xAD SMOD GT 0xD7 MUL PUSH9 0xEF9FA4A7608F3FB547 0xA6 PUSH5 0x736F6C6343 STOP ADDMOD 0x1E STOP CALLER "
				},
				"gasEstimates": {
					"creation": {
						"codeDepositCost": "2084600",
						"executionCost": "infinite",
						"totalCost": "infinite"
					},
					"external": {
						"allowance(address,address)": "infinite",
						"approve(address,uint256)": "infinite",
						"balanceOf(address)": "2896",
						"contractOwner()": "2596",
						"decimals()": "2533",
						"getOriginalBalance(address)": "infinite",
						"getOriginalName()": "infinite",
						"getOriginalSymbol()": "infinite",
						"getOriginalTotalSupply()": "infinite",
						"lockUpdates()": "26718",
						"lockedForUpdate()": "2628",
						"logoURI()": "infinite",
						"name()": "infinite",
						"pause()": "27900",
						"paused()": "2650",
						"symbol()": "infinite",
						"terminate()": "27857",
						"terminated()": "2629",
						"totalSupply()": "2515",
						"transfer(address,uint256)": "infinite",
						"transferFrom(address,address,uint256)": "infinite",
						"transferOwnership(address)": "30730",
						"unpause()": "27877",
						"updateSettings(string)": "infinite"
					}
				},
				"methodIdentifiers": {
					"allowance(address,address)": "dd62ed3e",
					"approve(address,uint256)": "095ea7b3",
					"balanceOf(address)": "70a08231",
					"contractOwner()": "ce606ee0",
					"decimals()": "313ce567",
					"getOriginalBalance(address)": "5f1e015a",
					"getOriginalName()": "2513793f",
					"getOriginalSymbol()": "a3673981",
					"getOriginalTotalSupply()": "1a50fac4",
					"lockUpdates()": "81529ea0",
					"lockedForUpdate()": "428543bd",
					"logoURI()": "6bb38b28",
					"name()": "06fdde03",
					"pause()": "8456cb59",
					"paused()": "5c975abb",
					"symbol()": "95d89b41",
					"terminate()": "0c08bf88",
					"terminated()": "194307bf",
					"totalSupply()": "18160ddd",
					"transfer(address,uint256)": "a9059cbb",
					"transferFrom(address,address,uint256)": "23b872dd",
					"transferOwnership(address)": "f2fde38b",
					"unpause()": "3f4ba83a",
					"updateSettings(string)": "8ae8e025"
				}
			},
			"storageLayout": {
				"storage": [
					{
						"astId": 62,
						"contract": "SCafe.sol:SCCAFE",
						"label": "name",
						"offset": 0,
						"slot": "0",
						"type": "t_string_storage"
					},
					{
						"astId": 65,
						"contract": "SCafe.sol:SCCAFE",
						"label": "symbol",
						"offset": 0,
						"slot": "1",
						"type": "t_string_storage"
					},
					{
						"astId": 68,
						"contract": "SCafe.sol:SCCAFE",
						"label": "decimals",
						"offset": 0,
						"slot": "2",
						"type": "t_uint8"
					},
					{
						"astId": 79,
						"contract": "SCafe.sol:SCCAFE",
						"label": "totalSupply",
						"offset": 0,
						"slot": "3",
						"type": "t_uint256"
					},
					{
						"astId": 82,
						"contract": "SCafe.sol:SCCAFE",
						"label": "logoURI",
						"offset": 0,
						"slot": "4",
						"type": "t_string_storage"
					},
					{
						"astId": 85,
						"contract": "SCafe.sol:SCCAFE",
						"label": "contractOwner",
						"offset": 0,
						"slot": "5",
						"type": "t_address"
					},
					{
						"astId": 87,
						"contract": "SCafe.sol:SCCAFE",
						"label": "paused",
						"offset": 20,
						"slot": "5",
						"type": "t_bool"
					},
					{
						"astId": 89,
						"contract": "SCafe.sol:SCCAFE",
						"label": "terminated",
						"offset": 21,
						"slot": "5",
						"type": "t_bool"
					},
					{
						"astId": 91,
						"contract": "SCafe.sol:SCCAFE",
						"label": "lockedForUpdate",
						"offset": 22,
						"slot": "5",
						"type": "t_bool"
					},
					{
						"astId": 95,
						"contract": "SCafe.sol:SCCAFE",
						"label": "_balances",
						"offset": 0,
						"slot": "6",
						"type": "t_mapping(t_address,t_uint256)"
					},
					{
						"astId": 101,
						"contract": "SCafe.sol:SCCAFE",
						"label": "_allowances",
						"offset": 0,
						"slot": "7",
						"type": "t_mapping(t_address,t_mapping(t_address,t_uint256))"
					},
					{
						"astId": 107,
						"contract": "SCafe.sol:SCCAFE",
						"label": "btcbrOriginal",
						"offset": 0,
						"slot": "8",
						"type": "t_contract(IBTCBROriginal)59"
					}
				],
				"types": {
					"t_address": {
						"encoding": "inplace",
						"label": "address",
						"numberOfBytes": "20"
					},
					"t_bool": {
						"encoding": "inplace",
						"label": "bool",
						"numberOfBytes": "1"
					},
					"t_contract(IBTCBROriginal)59": {
						"encoding": "inplace",
						"label": "contract IBTCBROriginal",
						"numberOfBytes": "20"
					},
					"t_mapping(t_address,t_mapping(t_address,t_uint256))": {
						"encoding": "mapping",
						"key": "t_address",
						"label": "mapping(address => mapping(address => uint256))",
						"numberOfBytes": "32",
						"value": "t_mapping(t_address,t_uint256)"
					},
					"t_mapping(t_address,t_uint256)": {
						"encoding": "mapping",
						"key": "t_address",
						"label": "mapping(address => uint256)",
						"numberOfBytes": "32",
						"value": "t_uint256"
					},
					"t_string_storage": {
						"encoding": "bytes",
						"label": "string",
						"numberOfBytes": "32"
					},
					"t_uint256": {
						"encoding": "inplace",
						"label": "uint256",
						"numberOfBytes": "32"
					},
					"t_uint8": {
						"encoding": "inplace",
						"label": "uint8",
						"numberOfBytes": "1"
					}
				}
			},
			"userdoc": {
				"kind": "user",
				"methods": {},
				"version": 1
			}
		}
	}
}