{
	"data": {
		"bytecode": {
			"linkReferences": {},
			"object": "60a06040523073ffffffffffffffffffffffffffffffffffffffff1660809073ffffffffffffffffffffffffffffffffffffffff1681525064e8d4a510006032556512309ce5400060335560c86034556101f460355564a2fb405800603655610258603855610320603955610bb8603a5561016e603b55348015610081575f5ffd5b5061009061009560201b60201c565b610210565b5f6100a461019360201b60201c565b9050805f0160089054906101000a900460ff16156100ee576040517ff92ee8a900000000000000000000000000000000000000000000000000000000815260040160405180910390fd5b67ffffffffffffffff8016815f015f9054906101000a900467ffffffffffffffff1667ffffffffffffffff16146101905767ffffffffffffffff815f015f6101000a81548167ffffffffffffffff021916908367ffffffffffffffff1602179055507fc7f505b2f371ae2175ee4913f4499e1f2633a7b5936321eed1cdaeb6115181d267ffffffffffffffff60405161018791906101f7565b60405180910390a15b50565b5f5f6101a36101ac60201b60201c565b90508091505090565b5f7ff0c57e16840df040f15088dc2f81fe391c3923bec73e23a9662efc9c229c6a005f1b905090565b5f67ffffffffffffffff82169050919050565b6101f1816101d5565b82525050565b5f60208201905061020a5f8301846101e8565b92915050565b608051614b166102365f395f8181612596015281816125eb01526127a50152614b165ff3fe6080604052600436106103e2575f3560e01c80637bcc2d4711610207578063bed9d86111610117578063df592f7d116100aa578063f2fde38b11610079578063f2fde38b14610e5c578063f528d6ce14610e84578063f998c3a014610eae578063f9f92be414610ed6578063fe575a8714610efe576103e2565b8063df592f7d14610da6578063e0f4e01e14610de2578063e37a35c714610e0a578063f25f4b5614610e32576103e2565b8063d3246b34116100e6578063d3246b3414610cec578063d7701f7914610d16578063dd62ed3e14610d40578063de195e0b14610d7c576103e2565b8063bed9d86114610c48578063cd2c6a9914610c5e578063cec10c1114610c9a578063d21b5f5b14610cc2576103e2565b8063987ea3111161019a578063aa9a423411610169578063aa9a423414610b52578063ad3cb1cc14610b7c578063b776c4d614610ba6578063ba6ab52914610be2578063bb4d443614610c0c576103e2565b8063987ea31114610a76578063a2086bb014610ab2578063a5410a6614610ada578063a9059cbb14610b16576103e2565b80638da5cb5b116101d65780638da5cb5b146109d057806390d49b9d146109fa57806395d89b4114610a22578063974b65d514610a4c576103e2565b80637bcc2d47146109545780638129fc1c1461097c5780638456cb59146109925780638a2e98f3146109a8576103e2565b8063364428df116103025780635b7f415c1161029557806370a082311161026457806370a082311461088a578063715018a6146108c657806375e3661e146108dc57806379cc6790146109045780637b0472f01461092c576103e2565b80635b7f415c146107e45780635c975abb1461080e57806364732dc7146108385780636542dc0f14610860576103e2565b80634f1ef286116102d15780634f1ef2861461074a5780635286b59d1461076657806352d1902d146107905780635b2a1b30146107ba576103e2565b8063364428df146106ba5780633f4ba83a146106e457806340c10f19146106fa57806342966c6814610722576103e2565b8063188214001161037a578063291a3d9e11610349578063291a3d9e146106125780632a9053181461063c5780632b9da1f714610666578063313ce56714610690576103e2565b806318821400146105585780631d6bd8191461058257806323b872dd146105ac57806327e50c65146105e8576103e2565b806316469e7a116103b657806316469e7a1461049e57806316934fc4146104c857806318160ddd14610506578063187881b714610530576103e2565b8062676dcc146103e657806306fdde031461040e578063095ea7b31461043857806314f7eb8714610474575b5f5ffd5b3480156103f1575f5ffd5b5061040c60048036038101906104079190613b22565b610f3a565b005b348015610419575f5ffd5b50610422610f88565b60405161042f9190613bd0565b60405180910390f35b348015610443575f5ffd5b5061045e60048036038101906104599190613b22565b611026565b60405161046b9190613c0a565b60405180910390f35b34801561047f575f5ffd5b50610488611048565b6040516104959190613c32565b60405180910390f35b3480156104a9575f5ffd5b506104b261104e565b6040516104bf9190613c32565b60405180910390f35b3480156104d3575f5ffd5b506104ee60048036038101906104e99190613c4b565b611054565b6040516104fd93929190613c76565b60405180910390f35b348015610511575f5ffd5b5061051a61107a565b6040516105279190613c32565b60405180910390f35b34801561053b575f5ffd5b5061055660048036038101906105519190613cd5565b611091565b005b348015610563575f5ffd5b5061056c6110f1565b6040516105799190613bd0565b60405180910390f35b34801561058d575f5ffd5b5061059661112a565b6040516105a39190613c32565b60405180910390f35b3480156105b7575f5ffd5b506105d260048036038101906105cd9190613d13565b611130565b6040516105df9190613c0a565b60405180910390f35b3480156105f3575f5ffd5b506105fc61115e565b6040516106099190613c32565b60405180910390f35b34801561061d575f5ffd5b50610626611164565b6040516106339190613c32565b60405180910390f35b348015610647575f5ffd5b5061065061116a565b60405161065d9190613bd0565b60405180910390f35b348015610671575f5ffd5b5061067a6111a3565b6040516106879190613c32565b60405180910390f35b34801561069b575f5ffd5b506106a46111a9565b6040516106b19190613d7e565b60405180910390f35b3480156106c5575f5ffd5b506106ce6111b1565b6040516106db9190613c32565b60405180910390f35b3480156106ef575f5ffd5b506106f86111b7565b005b348015610705575f5ffd5b50610720600480360381019061071b9190613b22565b6111c9565b005b34801561072d575f5ffd5b5061074860048036038101906107439190613d97565b6111df565b005b610764600480360381019061075f9190613eee565b6111f3565b005b348015610771575f5ffd5b5061077a611212565b6040516107879190613c32565b60405180910390f35b34801561079b575f5ffd5b506107a4611218565b6040516107b19190613f60565b60405180910390f35b3480156107c5575f5ffd5b506107ce611249565b6040516107db9190613c32565b60405180910390f35b3480156107ef575f5ffd5b506107f861124f565b6040516108059190613d7e565b60405180910390f35b348015610819575f5ffd5b50610822611254565b60405161082f9190613c0a565b60405180910390f35b348015610843575f5ffd5b5061085e60048036038101906108599190613f79565b611268565b005b34801561086b575f5ffd5b50610874611282565b6040516108819190613fc6565b60405180910390f35b348015610895575f5ffd5b506108b060048036038101906108ab9190613c4b565b6112a7565b6040516108bd9190613c32565b60405180910390f35b3480156108d1575f5ffd5b506108da6112fa565b005b3480156108e7575f5ffd5b5061090260048036038101906108fd9190613c4b565b61130d565b005b34801561090f575f5ffd5b5061092a60048036038101906109259190613b22565b6113af565b005b348015610937575f5ffd5b50610952600480360381019061094d9190613f79565b6113cf565b005b34801561095f575f5ffd5b5061097a60048036038101906109759190613d97565b6115d3565b005b348015610987575f5ffd5b506109906115e5565b005b34801561099d575f5ffd5b506109a66118df565b005b3480156109b3575f5ffd5b506109ce60048036038101906109c99190613d97565b6118f1565b005b3480156109db575f5ffd5b506109e4611903565b6040516109f19190613fc6565b60405180910390f35b348015610a05575f5ffd5b50610a206004803603810190610a1b9190613c4b565b611938565b005b348015610a2d575f5ffd5b50610a36611983565b604051610a439190613bd0565b60405180910390f35b348015610a57575f5ffd5b50610a60611a21565b604051610a6d9190613c32565b60405180910390f35b348015610a81575f5ffd5b50610a9c6004803603810190610a979190613c4b565b611a27565b604051610aa99190613c32565b60405180910390f35b348015610abd575f5ffd5b50610ad86004803603810190610ad39190613b22565b611a3c565b005b348015610ae5575f5ffd5b50610b006004803603810190610afb9190613c4b565b611a8a565b604051610b0d9190613c0a565b60405180910390f35b348015610b21575f5ffd5b50610b3c6004803603810190610b379190613b22565b611aa7565b604051610b499190613c0a565b60405180910390f35b348015610b5d575f5ffd5b50610b66611ac9565b604051610b739190613c32565b60405180910390f35b348015610b87575f5ffd5b50610b90611acf565b604051610b9d9190613bd0565b60405180910390f35b348015610bb1575f5ffd5b50610bcc6004803603810190610bc79190613c4b565b611b08565b604051610bd99190613c32565b60405180910390f35b348015610bed575f5ffd5b50610bf6611b1d565b604051610c039190613c32565b60405180910390f35b348015610c17575f5ffd5b50610c326004803603810190610c2d9190613c4b565b611b23565b604051610c3f9190613c32565b60405180910390f35b348015610c53575f5ffd5b50610c5c611c04565b005b348015610c69575f5ffd5b50610c846004803603810190610c7f9190613c4b565b611ea7565b604051610c919190613c0a565b60405180910390f35b348015610ca5575f5ffd5b50610cc06004803603810190610cbb9190613fdf565b611ec4565b005b348015610ccd575f5ffd5b50610cd6611ee6565b604051610ce39190613c32565b60405180910390f35b348015610cf7575f5ffd5b50610d00611eec565b604051610d0d9190613c32565b60405180910390f35b348015610d21575f5ffd5b50610d2a611ef2565b604051610d379190613c32565b60405180910390f35b348015610d4b575f5ffd5b50610d666004803603810190610d61919061402f565b611ef8565b604051610d739190613c32565b60405180910390f35b348015610d87575f5ffd5b50610d90611f88565b604051610d9d9190613c32565b60405180910390f35b348015610db1575f5ffd5b50610dcc6004803603810190610dc79190613c4b565b611f8e565b604051610dd99190613c0a565b60405180910390f35b348015610ded575f5ffd5b50610e086004803603810190610e039190613d97565b611fab565b005b348015610e15575f5ffd5b50610e306004803603810190610e2b9190613cd5565b611fbd565b005b348015610e3d575f5ffd5b50610e4661201d565b604051610e539190613fc6565b60405180910390f35b348015610e67575f5ffd5b50610e826004803603810190610e7d9190613c4b565b612042565b005b348015610e8f575f5ffd5b50610e986120c6565b604051610ea59190613c32565b60405180910390f35b348015610eb9575f5ffd5b50610ed46004803603810190610ecf9190613cd5565b6120cc565b005b348015610ee1575f5ffd5b50610efc6004803603810190610ef79190613c4b565b61212c565b005b348015610f09575f5ffd5b50610f246004803603810190610f1f9190613c4b565b6121cf565b604051610f319190613c0a565b60405180910390f35b610f426121ec565b80604d5f8473ffffffffffffffffffffffffffffffffffffffff1673ffffffffffffffffffffffffffffffffffffffff1681526020019081526020015f20819055505050565b60605f610f93612273565b9050806003018054610fa49061409a565b80601f0160208091040260200160405190810160405280929190818152602001828054610fd09061409a565b801561101b5780601f10610ff25761010080835404028352916020019161101b565b820191905f5260205f20905b815481529060010190602001808311610ffe57829003601f168201915b505050505091505090565b5f5f61103061229a565b905061103d8185856122a1565b600191505092915050565b603a5481565b60445481565b6048602052805f5260405f205f91509050805f0154908060010154908060020154905083565b5f5f611084612273565b9050806002015491505090565b6110996121ec565b80603f5f8473ffffffffffffffffffffffffffffffffffffffff1673ffffffffffffffffffffffffffffffffffffffff1681526020019081526020015f205f6101000a81548160ff0219169083151502179055505050565b6040518060400160405280600881526020017f49464220436f696e00000000000000000000000000000000000000000000000081525081565b60355481565b5f5f61113a61229a565b90506111478582856122b3565b611152858585612346565b60019150509392505050565b60335481565b604b5481565b6040518060400160405280600381526020017f494642000000000000000000000000000000000000000000000000000000000081525081565b60385481565b5f6006905090565b604a5481565b6111bf6121ec565b6111c7612436565b565b6111d16121ec565b6111db8282612496565b5050565b6111f06111ea61229a565b82612515565b50565b6111fb612594565b6112048261267a565b61120e8282612685565b5050565b60325481565b5f6112216127a3565b7f360894a13ba1a3210667c828492db98dca3e2076cc3735a920a3ca505d382bbc5f1b905090565b603e5481565b600681565b5f5f5f9054906101000a900460ff16905090565b6112706121ec565b8160498190555080604a819055505050565b60375f9054906101000a900473ffffffffffffffffffffffffffffffffffffffff1681565b5f5f6112b1612273565b9050805f015f8473ffffffffffffffffffffffffffffffffffffffff1673ffffffffffffffffffffffffffffffffffffffff1681526020019081526020015f2054915050919050565b6113026121ec565b61130b5f61282a565b565b6113156121ec565b5f603c5f8373ffffffffffffffffffffffffffffffffffffffff1673ffffffffffffffffffffffffffffffffffffffff1681526020019081526020015f205f6101000a81548160ff0219169083151502179055508073ffffffffffffffffffffffffffffffffffffffff167fb2aa8f2cce614e8fceaca560dbaf2a8ed3083e4ab371b10bf6d02e359216767a60405160405180910390a250565b6113c1826113bb61229a565b836122b3565b6113cb8282612515565b5050565b600c8114806113de5750601881145b61141d576040517f08c379a000000000000000000000000000000000000000000000000000000000815260040161141490614114565b60405180910390fd5b5f60485f3373ffffffffffffffffffffffffffffffffffffffff1673ffffffffffffffffffffffffffffffffffffffff1681526020019081526020015f205f01541461149e576040517f08c379a00000000000000000000000000000000000000000000000000000000081526004016114959061417c565b60405180910390fd5b5f82116114e0576040517f08c379a00000000000000000000000000000000000000000000000000000000081526004016114d7906141e4565b60405180910390fd5b6040518060600160405280838152602001428152602001600c8314611509576303c2670061150f565b6301e133805b63ffffffff1681525060485f3373ffffffffffffffffffffffffffffffffffffffff1673ffffffffffffffffffffffffffffffffffffffff1681526020019081526020015f205f820151815f0155602082015181600101556040820151816002015590505061157f333084612346565b3373ffffffffffffffffffffffffffffffffffffffff167f1449c6dd7851abc30abf37f57715f492010519147cc2652fbc38202c18a6ee9083836040516115c7929190614202565b60405180910390a25050565b6115db6121ec565b80603e8190555050565b5f6115ee6128fb565b90505f815f0160089054906101000a900460ff161590505f825f015f9054906101000a900467ffffffffffffffff1690505f5f8267ffffffffffffffff161480156116365750825b90505f60018367ffffffffffffffff1614801561166957505f3073ffffffffffffffffffffffffffffffffffffffff163b145b905081158015611677575080155b156116ae576040517ff92ee8a900000000000000000000000000000000000000000000000000000000815260040160405180910390fd5b6001855f015f6101000a81548167ffffffffffffffff021916908367ffffffffffffffff16021790555083156116fb576001855f0160086101000a81548160ff0219169083151502179055505b61176f6040518060400160405280600881526020017f49464220436f696e0000000000000000000000000000000000000000000000008152506040518060400160405280600381526020017f494642000000000000000000000000000000000000000000000000000000000081525061290e565b611777612924565b61177f61292e565b61178833612940565b611790612954565b6117a13366038d7ea4c68000612496565b603254603d81905550603354603e819055506001603f5f3373ffffffffffffffffffffffffffffffffffffffff1673ffffffffffffffffffffffffffffffffffffffff1681526020019081526020015f205f6101000a81548160ff0219169083151502179055506034546044819055506035546045819055506036546046819055503360475f6101000a81548173ffffffffffffffffffffffffffffffffffffffff021916908373ffffffffffffffffffffffffffffffffffffffff160217905550603854604981905550603954604a81905550603a54604b8190555083156118d8575f855f0160086101000a81548160ff0219169083151502179055507fc7f505b2f371ae2175ee4913f4499e1f2633a7b5936321eed1cdaeb6115181d260016040516118cf919061427e565b60405180910390a15b5050505050565b6118e76121ec565b6118ef61295e565b565b6118f96121ec565b80604b8190555050565b5f5f61190d6129bf565b9050805f015f9054906101000a900473ffffffffffffffffffffffffffffffffffffffff1691505090565b6119406121ec565b8060475f6101000a81548173ffffffffffffffffffffffffffffffffffffffff021916908373ffffffffffffffffffffffffffffffffffffffff16021790555050565b60605f61198e612273565b905080600401805461199f9061409a565b80601f01602080910402602001604051908101604052809291908181526020018280546119cb9061409a565b8015611a165780601f106119ed57610100808354040283529160200191611a16565b820191905f5260205f20905b8154815290600101906020018083116119f957829003601f168201915b505050505091505090565b603b5481565b604c602052805f5260405f205f915090505481565b611a446121ec565b80604c5f8473ffffffffffffffffffffffffffffffffffffffff1673ffffffffffffffffffffffffffffffffffffffff1681526020019081526020015f20819055505050565b604e602052805f5260405f205f915054906101000a900460ff1681565b5f5f611ab161229a565b9050611abe818585612346565b600191505092915050565b60495481565b6040518060400160405280600581526020017f352e302e3000000000000000000000000000000000000000000000000000000081525081565b604d602052805f5260405f205f915090505481565b60465481565b5f5f604c5f8473ffffffffffffffffffffffffffffffffffffffff1673ffffffffffffffffffffffffffffffffffffffff1681526020019081526020015f20541115611bdd575f604c5f8473ffffffffffffffffffffffffffffffffffffffff1673ffffffffffffffffffffffffffffffffffffffff1681526020019081526020015f20549050652d79883d2000611bba846112a7565b10611bd457600181611bcc91906142c4565b915050611bff565b80915050611bff565b652d79883d2000611bed836112a7565b10611bfb5760019050611bff565b5f90505b919050565b5f60485f3373ffffffffffffffffffffffffffffffffffffffff1673ffffffffffffffffffffffffffffffffffffffff1681526020019081526020015f2090505f815f015411611c89576040517f08c379a0000000000000000000000000000000000000000000000000000000008152600401611c8090614341565b60405180910390fd5b5f815f015490505f5f905082600201548360010154611ca891906142c4565b4210611dc5575f6301e13380846002015414611cc657604a54611cca565b6049545b90506237b1d0620151808560020154611ce3919061438c565b8285611cef91906143bc565b611cf991906143bc565b611d03919061438c565b915060485f3373ffffffffffffffffffffffffffffffffffffffff1673ffffffffffffffffffffffffffffffffffffffff1681526020019081526020015f205f5f82015f9055600182015f9055600282015f90555050611d6f30338486611d6a91906142c4565b612346565b3373ffffffffffffffffffffffffffffffffffffffff167f92ccf450a286a957af52509bc1c9939d1a6a481783e142e41e2499f0bb66ebc68484604051611db7929190614202565b60405180910390a250611ea2565b5f612710604b5484611dd791906143bc565b611de1919061438c565b90505f8184611df091906143fd565b905060485f3373ffffffffffffffffffffffffffffffffffffffff1673ffffffffffffffffffffffffffffffffffffffff1681526020019081526020015f205f5f82015f9055600182015f9055600282015f90555050611e51303383612346565b3373ffffffffffffffffffffffffffffffffffffffff167fa01872b0085bbaa15bf32794778b2571b2adc9f0a20850653ee9f094f8e9c09682604051611e979190613c32565b60405180910390a250505b505050565b603f602052805f5260405f205f915054906101000a900460ff1681565b611ecc6121ec565b826044819055508160458190555080604681905550505050565b603d5481565b60455481565b60345481565b5f5f611f02612273565b9050806001015f8573ffffffffffffffffffffffffffffffffffffffff1673ffffffffffffffffffffffffffffffffffffffff1681526020019081526020015f205f8473ffffffffffffffffffffffffffffffffffffffff1673ffffffffffffffffffffffffffffffffffffffff1681526020019081526020015f205491505092915050565b60365481565b604f602052805f5260405f205f915054906101000a900460ff1681565b611fb36121ec565b80603d8190555050565b611fc56121ec565b80604e5f8473ffffffffffffffffffffffffffffffffffffffff1673ffffffffffffffffffffffffffffffffffffffff1681526020019081526020015f205f6101000a81548160ff0219169083151502179055505050565b60475f9054906101000a900473ffffffffffffffffffffffffffffffffffffffff1681565b61204a6121ec565b5f73ffffffffffffffffffffffffffffffffffffffff168173ffffffffffffffffffffffffffffffffffffffff16036120ba575f6040517f1e4fbdf70000000000000000000000000000000000000000000000000000000081526004016120b19190613fc6565b60405180910390fd5b6120c38161282a565b50565b60395481565b6120d46121ec565b80604f5f8473ffffffffffffffffffffffffffffffffffffffff1673ffffffffffffffffffffffffffffffffffffffff1681526020019081526020015f205f6101000a81548160ff0219169083151502179055505050565b6121346121ec565b6001603c5f8373ffffffffffffffffffffffffffffffffffffffff1673ffffffffffffffffffffffffffffffffffffffff1681526020019081526020015f205f6101000a81548160ff0219169083151502179055508073ffffffffffffffffffffffffffffffffffffffff167fdaf49ab9345b6cb75bcb5a7f726bff9183c34dcf5c098c385730f9fd893765f660405160405180910390a250565b603c602052805f5260405f205f915054906101000a900460ff1681565b6121f461229a565b73ffffffffffffffffffffffffffffffffffffffff16612212611903565b73ffffffffffffffffffffffffffffffffffffffff16146122715761223561229a565b6040517f118cdaa70000000000000000000000000000000000000000000000000000000081526004016122689190613fc6565b60405180910390fd5b565b5f7f52c63247e1f47db19d5ce0460030c497f067ca4cebf71ba98eeadabe20bace00905090565b5f33905090565b6122ae83838360016129e6565b505050565b5f6122be8484611ef8565b90507fffffffffffffffffffffffffffffffffffffffffffffffffffffffffffffffff8110156123405781811015612331578281836040517ffb8f41b200000000000000000000000000000000000000000000000000000000815260040161232893929190614430565b60405180910390fd5b61233f84848484035f6129e6565b5b50505050565b5f73ffffffffffffffffffffffffffffffffffffffff168373ffffffffffffffffffffffffffffffffffffffff16036123b6575f6040517f96c6fd1e0000000000000000000000000000000000000000000000000000000081526004016123ad9190613fc6565b60405180910390fd5b5f73ffffffffffffffffffffffffffffffffffffffff168273ffffffffffffffffffffffffffffffffffffffff1603612426575f6040517fec442f0500000000000000000000000000000000000000000000000000000000815260040161241d9190613fc6565b60405180910390fd5b612431838383612bc3565b505050565b61243e612bde565b5f5f5f6101000a81548160ff0219169083151502179055507f5db9ee0a495bf2e6ff9c91a7834c1ba4fdd244a5e8aa4e537bd38aeae4b073aa61247f61229a565b60405161248c9190613fc6565b60405180910390a1565b5f73ffffffffffffffffffffffffffffffffffffffff168273ffffffffffffffffffffffffffffffffffffffff1603612506575f6040517fec442f050000000000000000000000000000000000000000000000000000000081526004016124fd9190613fc6565b60405180910390fd5b6125115f8383612bc3565b5050565b5f73ffffffffffffffffffffffffffffffffffffffff168273ffffffffffffffffffffffffffffffffffffffff1603612585575f6040517f96c6fd1e00000000000000000000000000000000000000000000000000000000815260040161257c9190613fc6565b60405180910390fd5b612590825f83612bc3565b5050565b7f000000000000000000000000000000000000000000000000000000000000000073ffffffffffffffffffffffffffffffffffffffff163073ffffffffffffffffffffffffffffffffffffffff16148061264157507f000000000000000000000000000000000000000000000000000000000000000073ffffffffffffffffffffffffffffffffffffffff16612628612c27565b73ffffffffffffffffffffffffffffffffffffffff1614155b15612678576040517fe07c8dba00000000000000000000000000000000000000000000000000000000815260040160405180910390fd5b565b6126826121ec565b50565b8173ffffffffffffffffffffffffffffffffffffffff166352d1902d6040518163ffffffff1660e01b8152600401602060405180830381865afa9250505080156126ed57506040513d601f19601f820116820180604052508101906126ea919061448f565b60015b61272e57816040517f4c9c8ce30000000000000000000000000000000000000000000000000000000081526004016127259190613fc6565b60405180910390fd5b7f360894a13ba1a3210667c828492db98dca3e2076cc3735a920a3ca505d382bbc5f1b811461279457806040517faa1d49a400000000000000000000000000000000000000000000000000000000815260040161278b9190613f60565b60405180910390fd5b61279e8383612c7a565b505050565b7f000000000000000000000000000000000000000000000000000000000000000073ffffffffffffffffffffffffffffffffffffffff163073ffffffffffffffffffffffffffffffffffffffff1614612828576040517fe07c8dba00000000000000000000000000000000000000000000000000000000815260040160405180910390fd5b565b5f6128336129bf565b90505f815f015f9054906101000a900473ffffffffffffffffffffffffffffffffffffffff16905082825f015f6101000a81548173ffffffffffffffffffffffffffffffffffffffff021916908373ffffffffffffffffffffffffffffffffffffffff1602179055508273ffffffffffffffffffffffffffffffffffffffff168173ffffffffffffffffffffffffffffffffffffffff167f8be0079c531659141344cd1fd0a4f28419497f9722a3daafe3b4186f6b6457e060405160405180910390a3505050565b5f5f612905612cec565b90508091505090565b612916612d15565b6129208282612d55565b5050565b61292c612d15565b565b612936612d15565b61293e612d91565b565b612948612d15565b61295181612db3565b50565b61295c612d15565b565b612966612e37565b60015f5f6101000a81548160ff0219169083151502179055507f62e78cea01bee320cd4e420270b5ea74000d11b0c9f74754ebdbfc544b05a2586129a861229a565b6040516129b59190613fc6565b60405180910390a1565b5f7f9016d09d72d40fdae2fd8ceac6b6234c7706214fd39c1cd1e609a0528c199300905090565b5f6129ef612273565b90505f73ffffffffffffffffffffffffffffffffffffffff168573ffffffffffffffffffffffffffffffffffffffff1603612a61575f6040517fe602df05000000000000000000000000000000000000000000000000000000008152600401612a589190613fc6565b60405180910390fd5b5f73ffffffffffffffffffffffffffffffffffffffff168473ffffffffffffffffffffffffffffffffffffffff1603612ad1575f6040517f94280d62000000000000000000000000000000000000000000000000000000008152600401612ac89190613fc6565b60405180910390fd5b82816001015f8773ffffffffffffffffffffffffffffffffffffffff1673ffffffffffffffffffffffffffffffffffffffff1681526020019081526020015f205f8673ffffffffffffffffffffffffffffffffffffffff1673ffffffffffffffffffffffffffffffffffffffff1681526020019081526020015f20819055508115612bbc578373ffffffffffffffffffffffffffffffffffffffff168573ffffffffffffffffffffffffffffffffffffffff167f8c5be1e5ebec7d5bd14f71427d1e84f3dd0314c0f7b2291e5b200ac8c7c3b92585604051612bb39190613c32565b60405180910390a35b5050505050565b612bce838383612e81565b612bd98383836131be565b505050565b612be6611254565b612c25576040517f08c379a0000000000000000000000000000000000000000000000000000000008152600401612c1c90614504565b60405180910390fd5b565b5f612c537f360894a13ba1a3210667c828492db98dca3e2076cc3735a920a3ca505d382bbc5f1b6133ed565b5f015f9054906101000a900473ffffffffffffffffffffffffffffffffffffffff16905090565b612c83826133f6565b8173ffffffffffffffffffffffffffffffffffffffff167fbc7cd75a20ee27fd9adebab32041f755214dbc6bffa90cc0225b39da2e5c2d3b60405160405180910390a25f81511115612cdf57612cd982826134bf565b50612ce8565b612ce761353f565b5b5050565b5f7ff0c57e16840df040f15088dc2f81fe391c3923bec73e23a9662efc9c229c6a005f1b905090565b612d1d61357b565b612d53576040517fd7e6bcf800000000000000000000000000000000000000000000000000000000815260040160405180910390fd5b565b612d5d612d15565b5f612d66612273565b905082816003019081612d7991906146b9565b5081816004019081612d8b91906146b9565b50505050565b612d99612d15565b5f5f5f6101000a81548160ff021916908315150217905550565b612dbb612d15565b5f73ffffffffffffffffffffffffffffffffffffffff168173ffffffffffffffffffffffffffffffffffffffff1603612e2b575f6040517f1e4fbdf7000000000000000000000000000000000000000000000000000000008152600401612e229190613fc6565b60405180910390fd5b612e348161282a565b50565b612e3f611254565b15612e7f576040517f08c379a0000000000000000000000000000000000000000000000000000000008152600401612e76906147d2565b60405180910390fd5b565b612e89611254565b15612ec9576040517f08c379a0000000000000000000000000000000000000000000000000000000008152600401612ec090614860565b60405180910390fd5b603c5f8473ffffffffffffffffffffffffffffffffffffffff1673ffffffffffffffffffffffffffffffffffffffff1681526020019081526020015f205f9054906101000a900460ff16158015612f675750603c5f8373ffffffffffffffffffffffffffffffffffffffff1673ffffffffffffffffffffffffffffffffffffffff1681526020019081526020015f205f9054906101000a900460ff16155b612fa6576040517f08c379a0000000000000000000000000000000000000000000000000000000008152600401612f9d906148c8565b60405180910390fd5b604f5f8473ffffffffffffffffffffffffffffffffffffffff1673ffffffffffffffffffffffffffffffffffffffff1681526020019081526020015f205f9054906101000a900460ff161580156130445750604f5f8373ffffffffffffffffffffffffffffffffffffffff1673ffffffffffffffffffffffffffffffffffffffff1681526020019081526020015f205f9054906101000a900460ff16155b613083576040517f08c379a000000000000000000000000000000000000000000000000000000000815260040161307a90614930565b60405180910390fd5b5f73ffffffffffffffffffffffffffffffffffffffff168373ffffffffffffffffffffffffffffffffffffffff1614806130e857505f73ffffffffffffffffffffffffffffffffffffffff168273ffffffffffffffffffffffffffffffffffffffff16145b6131b95742604d5f8573ffffffffffffffffffffffffffffffffffffffff1673ffffffffffffffffffffffffffffffffffffffff1681526020019081526020015f2054111561316c576040517f08c379a000000000000000000000000000000000000000000000000000000000815260040161316390614998565b60405180910390fd5b6131768382613599565b5f61318082613964565b90505f8111156131b7576131b68460475f9054906101000a900473ffffffffffffffffffffffffffffffffffffffff16836131be565b5b505b505050565b5f6131c7612273565b90505f73ffffffffffffffffffffffffffffffffffffffff168473ffffffffffffffffffffffffffffffffffffffff160361321b5781816002015f82825461320f91906142c4565b925050819055506132ed565b5f815f015f8673ffffffffffffffffffffffffffffffffffffffff1673ffffffffffffffffffffffffffffffffffffffff1681526020019081526020015f20549050828110156132a6578481846040517fe450d38c00000000000000000000000000000000000000000000000000000000815260040161329d93929190614430565b60405180910390fd5b828103825f015f8773ffffffffffffffffffffffffffffffffffffffff1673ffffffffffffffffffffffffffffffffffffffff1681526020019081526020015f2081905550505b5f73ffffffffffffffffffffffffffffffffffffffff168373ffffffffffffffffffffffffffffffffffffffff16036133365781816002015f8282540392505081905550613382565b81815f015f8573ffffffffffffffffffffffffffffffffffffffff1673ffffffffffffffffffffffffffffffffffffffff1681526020019081526020015f205f82825401925050819055505b8273ffffffffffffffffffffffffffffffffffffffff168473ffffffffffffffffffffffffffffffffffffffff167fddf252ad1be2c89b69c2b068fc378daa952ba7f163c4a11628f55a4df523b3ef846040516133df9190613c32565b60405180910390a350505050565b5f819050919050565b5f8173ffffffffffffffffffffffffffffffffffffffff163b0361345157806040517f4c9c8ce30000000000000000000000000000000000000000000000000000000081526004016134489190613fc6565b60405180910390fd5b8061347d7f360894a13ba1a3210667c828492db98dca3e2076cc3735a920a3ca505d382bbc5f1b6133ed565b5f015f6101000a81548173ffffffffffffffffffffffffffffffffffffffff021916908373ffffffffffffffffffffffffffffffffffffffff16021790555050565b60605f5f8473ffffffffffffffffffffffffffffffffffffffff16846040516134e891906149fa565b5f60405180830381855af49150503d805f8114613520576040519150601f19603f3d011682016040523d82523d5f602084013e613525565b606091505b50915091506135358583836139b3565b9250505092915050565b5f341115613579576040517fb398979f00000000000000000000000000000000000000000000000000000000815260040160405180910390fd5b565b5f6135846128fb565b5f0160089054906101000a900460ff16905090565b603f5f8373ffffffffffffffffffffffffffffffffffffffff1673ffffffffffffffffffffffffffffffffffffffff1681526020019081526020015f205f9054906101000a900460ff16613960575f62015180426135f7919061438c565b90505f62278d0042613609919061438c565b90508160425f8673ffffffffffffffffffffffffffffffffffffffff1673ffffffffffffffffffffffffffffffffffffffff1681526020019081526020015f2054146136d4575f60405f8673ffffffffffffffffffffffffffffffffffffffff1673ffffffffffffffffffffffffffffffffffffffff1681526020019081526020015f20819055508160425f8673ffffffffffffffffffffffffffffffffffffffff1673ffffffffffffffffffffffffffffffffffffffff1681526020019081526020015f20819055505b8060435f8673ffffffffffffffffffffffffffffffffffffffff1673ffffffffffffffffffffffffffffffffffffffff1681526020019081526020015f20541461379d575f60415f8673ffffffffffffffffffffffffffffffffffffffff1673ffffffffffffffffffffffffffffffffffffffff1681526020019081526020015f20819055508060435f8673ffffffffffffffffffffffffffffffffffffffff1673ffffffffffffffffffffffffffffffffffffffff1681526020019081526020015f20819055505b603d548360405f8773ffffffffffffffffffffffffffffffffffffffff1673ffffffffffffffffffffffffffffffffffffffff1681526020019081526020015f20546137e991906142c4565b111561382a576040517f08c379a000000000000000000000000000000000000000000000000000000000815260040161382190614a5a565b60405180910390fd5b603e548360415f8773ffffffffffffffffffffffffffffffffffffffff1673ffffffffffffffffffffffffffffffffffffffff1681526020019081526020015f205461387691906142c4565b11156138b7576040517f08c379a00000000000000000000000000000000000000000000000000000000081526004016138ae90614ac2565b60405180910390fd5b8260405f8673ffffffffffffffffffffffffffffffffffffffff1673ffffffffffffffffffffffffffffffffffffffff1681526020019081526020015f205f82825461390391906142c4565b925050819055508260415f8673ffffffffffffffffffffffffffffffffffffffff1673ffffffffffffffffffffffffffffffffffffffff1681526020019081526020015f205f82825461395691906142c4565b9250508190555050505b5050565b5f6046548210613990576127106045548361397f91906143bc565b613989919061438c565b90506139ae565b612710604454836139a191906143bc565b6139ab919061438c565b90505b919050565b6060826139c8576139c382613a40565b613a38565b5f82511480156139ee57505f8473ffffffffffffffffffffffffffffffffffffffff163b145b15613a3057836040517f9996b315000000000000000000000000000000000000000000000000000000008152600401613a279190613fc6565b60405180910390fd5b819050613a39565b5b9392505050565b5f81511115613a525780518082602001fd5b6040517fd6bda27500000000000000000000000000000000000000000000000000000000815260040160405180910390fd5b5f604051905090565b5f5ffd5b5f5ffd5b5f73ffffffffffffffffffffffffffffffffffffffff82169050919050565b5f613abe82613a95565b9050919050565b613ace81613ab4565b8114613ad8575f5ffd5b50565b5f81359050613ae981613ac5565b92915050565b5f819050919050565b613b0181613aef565b8114613b0b575f5ffd5b50565b5f81359050613b1c81613af8565b92915050565b5f5f60408385031215613b3857613b37613a8d565b5b5f613b4585828601613adb565b9250506020613b5685828601613b0e565b9150509250929050565b5f81519050919050565b5f82825260208201905092915050565b8281835e5f83830152505050565b5f601f19601f8301169050919050565b5f613ba282613b60565b613bac8185613b6a565b9350613bbc818560208601613b7a565b613bc581613b88565b840191505092915050565b5f6020820190508181035f830152613be88184613b98565b905092915050565b5f8115159050919050565b613c0481613bf0565b82525050565b5f602082019050613c1d5f830184613bfb565b92915050565b613c2c81613aef565b82525050565b5f602082019050613c455f830184613c23565b92915050565b5f60208284031215613c6057613c5f613a8d565b5b5f613c6d84828501613adb565b91505092915050565b5f606082019050613c895f830186613c23565b613c966020830185613c23565b613ca36040830184613c23565b949350505050565b613cb481613bf0565b8114613cbe575f5ffd5b50565b5f81359050613ccf81613cab565b92915050565b5f5f60408385031215613ceb57613cea613a8d565b5b5f613cf885828601613adb565b9250506020613d0985828601613cc1565b9150509250929050565b5f5f5f60608486031215613d2a57613d29613a8d565b5b5f613d3786828701613adb565b9350506020613d4886828701613adb565b9250506040613d5986828701613b0e565b9150509250925092565b5f60ff82169050919050565b613d7881613d63565b82525050565b5f602082019050613d915f830184613d6f565b92915050565b5f60208284031215613dac57613dab613a8d565b5b5f613db984828501613b0e565b91505092915050565b5f5ffd5b5f5ffd5b7f4e487b71000000000000000000000000000000000000000000000000000000005f52604160045260245ffd5b613e0082613b88565b810181811067ffffffffffffffff82111715613e1f57613e1e613dca565b5b80604052505050565b5f613e31613a84565b9050613e3d8282613df7565b919050565b5f67ffffffffffffffff821115613e5c57613e5b613dca565b5b613e6582613b88565b9050602081019050919050565b828183375f83830152505050565b5f613e92613e8d84613e42565b613e28565b905082815260208101848484011115613eae57613ead613dc6565b5b613eb9848285613e72565b509392505050565b5f82601f830112613ed557613ed4613dc2565b5b8135613ee5848260208601613e80565b91505092915050565b5f5f60408385031215613f0457613f03613a8d565b5b5f613f1185828601613adb565b925050602083013567ffffffffffffffff811115613f3257613f31613a91565b5b613f3e85828601613ec1565b9150509250929050565b5f819050919050565b613f5a81613f48565b82525050565b5f602082019050613f735f830184613f51565b92915050565b5f5f60408385031215613f8f57613f8e613a8d565b5b5f613f9c85828601613b0e565b9250506020613fad85828601613b0e565b9150509250929050565b613fc081613ab4565b82525050565b5f602082019050613fd95f830184613fb7565b92915050565b5f5f5f60608486031215613ff657613ff5613a8d565b5b5f61400386828701613b0e565b935050602061401486828701613b0e565b925050604061402586828701613b0e565b9150509250925092565b5f5f6040838503121561404557614044613a8d565b5b5f61405285828601613adb565b925050602061406385828601613adb565b9150509250929050565b7f4e487b71000000000000000000000000000000000000000000000000000000005f52602260045260245ffd5b5f60028204905060018216806140b157607f821691505b6020821081036140c4576140c361406d565b5b50919050565b7f496e76616c6964207374616b696e67206475726174696f6e00000000000000005f82015250565b5f6140fe601883613b6a565b9150614109826140ca565b602082019050919050565b5f6020820190508181035f83015261412b816140f2565b9050919050565b7f416c7265616479207374616b696e6700000000000000000000000000000000005f82015250565b5f614166600f83613b6a565b915061417182614132565b602082019050919050565b5f6020820190508181035f8301526141938161415a565b9050919050565b7f43616e6e6f74207374616b6520300000000000000000000000000000000000005f82015250565b5f6141ce600e83613b6a565b91506141d98261419a565b602082019050919050565b5f6020820190508181035f8301526141fb816141c2565b9050919050565b5f6040820190506142155f830185613c23565b6142226020830184613c23565b9392505050565b5f819050919050565b5f67ffffffffffffffff82169050919050565b5f819050919050565b5f61426861426361425e84614229565b614245565b614232565b9050919050565b6142788161424e565b82525050565b5f6020820190506142915f83018461426f565b92915050565b7f4e487b71000000000000000000000000000000000000000000000000000000005f52601160045260245ffd5b5f6142ce82613aef565b91506142d983613aef565b92508282019050808211156142f1576142f0614297565b5b92915050565b7f4e6f207374616b6520666f756e640000000000000000000000000000000000005f82015250565b5f61432b600e83613b6a565b9150614336826142f7565b602082019050919050565b5f6020820190508181035f8301526143588161431f565b9050919050565b7f4e487b71000000000000000000000000000000000000000000000000000000005f52601260045260245ffd5b5f61439682613aef565b91506143a183613aef565b9250826143b1576143b061435f565b5b828204905092915050565b5f6143c682613aef565b91506143d183613aef565b92508282026143df81613aef565b915082820484148315176143f6576143f5614297565b5b5092915050565b5f61440782613aef565b915061441283613aef565b925082820390508181111561442a57614429614297565b5b92915050565b5f6060820190506144435f830186613fb7565b6144506020830185613c23565b61445d6040830184613c23565b949350505050565b61446e81613f48565b8114614478575f5ffd5b50565b5f8151905061448981614465565b92915050565b5f602082840312156144a4576144a3613a8d565b5b5f6144b18482850161447b565b91505092915050565b7f5061757361626c653a206e6f74207061757365640000000000000000000000005f82015250565b5f6144ee601483613b6a565b91506144f9826144ba565b602082019050919050565b5f6020820190508181035f83015261451b816144e2565b9050919050565b5f819050815f5260205f209050919050565b5f6020601f8301049050919050565b5f82821b905092915050565b5f6008830261457e7fffffffffffffffffffffffffffffffffffffffffffffffffffffffffffffffff82614543565b6145888683614543565b95508019841693508086168417925050509392505050565b5f6145ba6145b56145b084613aef565b614245565b613aef565b9050919050565b5f819050919050565b6145d3836145a0565b6145e76145df826145c1565b84845461454f565b825550505050565b5f5f905090565b6145fe6145ef565b6146098184846145ca565b505050565b5b8181101561462c576146215f826145f6565b60018101905061460f565b5050565b601f8211156146715761464281614522565b61464b84614534565b8101602085101561465a578190505b61466e61466685614534565b83018261460e565b50505b505050565b5f82821c905092915050565b5f6146915f1984600802614676565b1980831691505092915050565b5f6146a98383614682565b9150826002028217905092915050565b6146c282613b60565b67ffffffffffffffff8111156146db576146da613dca565b5b6146e5825461409a565b6146f0828285614630565b5f60209050601f831160018114614721575f841561470f578287015190505b614719858261469e565b865550614780565b601f19841661472f86614522565b5f5b8281101561475657848901518255600182019150602085019450602081019050614731565b86831015614773578489015161476f601f891682614682565b8355505b6001600288020188555050505b505050505050565b7f5061757361626c653a20706175736564000000000000000000000000000000005f82015250565b5f6147bc601083613b6a565b91506147c782614788565b602082019050919050565b5f6020820190508181035f8301526147e9816147b0565b9050919050565b7f5061757361626c653a20746f6b656e207472616e73666572207768696c6520705f8201527f6175736564000000000000000000000000000000000000000000000000000000602082015250565b5f61484a602583613b6a565b9150614855826147f0565b604082019050919050565b5f6020820190508181035f8301526148778161483e565b9050919050565b7f4164647265737320697320626c61636b6c6973746564000000000000000000005f82015250565b5f6148b2601683613b6a565b91506148bd8261487e565b602082019050919050565b5f6020820190508181035f8301526148df816148a6565b9050919050565b7f4164647265737320697320756e6465722073616e6374696f6e730000000000005f82015250565b5f61491a601a83613b6a565b9150614925826148e6565b602082019050919050565b5f6020820190508181035f8301526149478161490e565b9050919050565b7f5465616d20746f6b656e7320617265206c6f636b6564000000000000000000005f82015250565b5f614982601683613b6a565b915061498d8261494e565b602082019050919050565b5f6020820190508181035f8301526149af81614976565b9050919050565b5f81519050919050565b5f81905092915050565b5f6149d4826149b6565b6149de81856149c0565b93506149ee818560208601613b7a565b80840191505092915050565b5f614a0582846149ca565b915081905092915050565b7f45786365656473206461696c79207472616e73666572206c696d6974000000005f82015250565b5f614a44601c83613b6a565b9150614a4f82614a10565b602082019050919050565b5f6020820190508181035f830152614a7181614a38565b9050919050565b7f45786365656473206d6f6e74686c79207472616e73666572206c696d697400005f82015250565b5f614aac601e83613b6a565b9150614ab782614a78565b602082019050919050565b5f6020820190508181035f830152614ad981614aa0565b905091905056fea264697066735822122080f2aaf7f7ef339dc92b011efe6b25bee83c4ffcf76cbcaafbdf5c944e254fe064736f6c634300081e0033",
			"opcodes": "PUSH1 0xA0 PUSH1 0x40 MSTORE ADDRESS PUSH20 0xFFFFFFFFFFFFFFFFFFFFFFFFFFFFFFFFFFFFFFFF AND PUSH1 0x80 SWAP1 PUSH20 0xFFFFFFFFFFFFFFFFFFFFFFFFFFFFFFFFFFFFFFFF AND DUP2 MSTORE POP PUSH5 0xE8D4A51000 PUSH1 0x32 SSTORE PUSH6 0x12309CE54000 PUSH1 0x33 SSTORE PUSH1 0xC8 PUSH1 0x34 SSTORE PUSH2 0x1F4 PUSH1 0x35 SSTORE PUSH5 0xA2FB405800 PUSH1 0x36 SSTORE PUSH2 0x258 PUSH1 0x38 SSTORE PUSH2 0x320 PUSH1 0x39 SSTORE PUSH2 0xBB8 PUSH1 0x3A SSTORE PUSH2 0x16E PUSH1 0x3B SSTORE CALLVALUE DUP1 ISZERO PUSH2 0x81 JUMPI PUSH0 PUSH0 REVERT JUMPDEST POP PUSH2 0x90 PUSH2 0x95 PUSH1 0x20 SHL PUSH1 0x20 SHR JUMP JUMPDEST PUSH2 0x210 JUMP JUMPDEST PUSH0 PUSH2 0xA4 PUSH2 0x193 PUSH1 0x20 SHL PUSH1 0x20 SHR JUMP JUMPDEST SWAP1 POP DUP1 PUSH0 ADD PUSH1 0x8 SWAP1 SLOAD SWAP1 PUSH2 0x100 EXP SWAP1 DIV PUSH1 0xFF AND ISZERO PUSH2 0xEE JUMPI PUSH1 0x40 MLOAD PUSH32 0xF92EE8A900000000000000000000000000000000000000000000000000000000 DUP2 MSTORE PUSH1 0x4 ADD PUSH1 0x40 MLOAD DUP1 SWAP2 SUB SWAP1 REVERT JUMPDEST PUSH8 0xFFFFFFFFFFFFFFFF DUP1 AND DUP2 PUSH0 ADD PUSH0 SWAP1 SLOAD SWAP1 PUSH2 0x100 EXP SWAP1 DIV PUSH8 0xFFFFFFFFFFFFFFFF AND PUSH8 0xFFFFFFFFFFFFFFFF AND EQ PUSH2 0x190 JUMPI PUSH8 0xFFFFFFFFFFFFFFFF DUP2 PUSH0 ADD PUSH0 PUSH2 0x100 EXP DUP2 SLOAD DUP2 PUSH8 0xFFFFFFFFFFFFFFFF MUL NOT AND SWAP1 DUP4 PUSH8 0xFFFFFFFFFFFFFFFF AND MUL OR SWAP1 SSTORE POP PUSH32 0xC7F505B2F371AE2175EE4913F4499E1F2633A7B5936321EED1CDAEB6115181D2 PUSH8 0xFFFFFFFFFFFFFFFF PUSH1 0x40 MLOAD PUSH2 0x187 SWAP2 SWAP1 PUSH2 0x1F7 JUMP JUMPDEST PUSH1 0x40 MLOAD DUP1 SWAP2 SUB SWAP1 LOG1 JUMPDEST POP JUMP JUMPDEST PUSH0 PUSH0 PUSH2 0x1A3 PUSH2 0x1AC PUSH1 0x20 SHL PUSH1 0x20 SHR JUMP JUMPDEST SWAP1 POP DUP1 SWAP2 POP POP SWAP1 JUMP JUMPDEST PUSH0 PUSH32 0xF0C57E16840DF040F15088DC2F81FE391C3923BEC73E23A9662EFC9C229C6A00 PUSH0 SHL SWAP1 POP SWAP1 JUMP JUMPDEST PUSH0 PUSH8 0xFFFFFFFFFFFFFFFF DUP3 AND SWAP1 POP SWAP2 SWAP1 POP JUMP JUMPDEST PUSH2 0x1F1 DUP2 PUSH2 0x1D5 JUMP JUMPDEST DUP3 MSTORE POP POP JUMP JUMPDEST PUSH0 PUSH1 0x20 DUP3 ADD SWAP1 POP PUSH2 0x20A PUSH0 DUP4 ADD DUP5 PUSH2 0x1E8 JUMP JUMPDEST SWAP3 SWAP2 POP POP JUMP JUMPDEST PUSH1 0x80 MLOAD PUSH2 0x4B16 PUSH2 0x236 PUSH0 CODECOPY PUSH0 DUP2 DUP2 PUSH2 0x2596 ADD MSTORE DUP2 DUP2 PUSH2 0x25EB ADD MSTORE PUSH2 0x27A5 ADD MSTORE PUSH2 0x4B16 PUSH0 RETURN INVALID PUSH1 0x80 PUSH1 0x40 MSTORE PUSH1 0x4 CALLDATASIZE LT PUSH2 0x3E2 JUMPI PUSH0 CALLDATALOAD PUSH1 0xE0 SHR DUP1 PUSH4 0x7BCC2D47 GT PUSH2 0x207 JUMPI DUP1 PUSH4 0xBED9D861 GT PUSH2 0x117 JUMPI DUP1 PUSH4 0xDF592F7D GT PUSH2 0xAA JUMPI DUP1 PUSH4 0xF2FDE38B GT PUSH2 0x79 JUMPI DUP1 PUSH4 0xF2FDE38B EQ PUSH2 0xE5C JUMPI DUP1 PUSH4 0xF528D6CE EQ PUSH2 0xE84 JUMPI DUP1 PUSH4 0xF998C3A0 EQ PUSH2 0xEAE JUMPI DUP1 PUSH4 0xF9F92BE4 EQ PUSH2 0xED6 JUMPI DUP1 PUSH4 0xFE575A87 EQ PUSH2 0xEFE JUMPI PUSH2 0x3E2 JUMP JUMPDEST DUP1 PUSH4 0xDF592F7D EQ PUSH2 0xDA6 JUMPI DUP1 PUSH4 0xE0F4E01E EQ PUSH2 0xDE2 JUMPI DUP1 PUSH4 0xE37A35C7 EQ PUSH2 0xE0A JUMPI DUP1 PUSH4 0xF25F4B56 EQ PUSH2 0xE32 JUMPI PUSH2 0x3E2 JUMP JUMPDEST DUP1 PUSH4 0xD3246B34 GT PUSH2 0xE6 JUMPI DUP1 PUSH4 0xD3246B34 EQ PUSH2 0xCEC JUMPI DUP1 PUSH4 0xD7701F79 EQ PUSH2 0xD16 JUMPI DUP1 PUSH4 0xDD62ED3E EQ PUSH2 0xD40 JUMPI DUP1 PUSH4 0xDE195E0B EQ PUSH2 0xD7C JUMPI PUSH2 0x3E2 JUMP JUMPDEST DUP1 PUSH4 0xBED9D861 EQ PUSH2 0xC48 JUMPI DUP1 PUSH4 0xCD2C6A99 EQ PUSH2 0xC5E JUMPI DUP1 PUSH4 0xCEC10C11 EQ PUSH2 0xC9A JUMPI DUP1 PUSH4 0xD21B5F5B EQ PUSH2 0xCC2 JUMPI PUSH2 0x3E2 JUMP JUMPDEST DUP1 PUSH4 0x987EA311 GT PUSH2 0x19A JUMPI DUP1 PUSH4 0xAA9A4234 GT PUSH2 0x169 JUMPI DUP1 PUSH4 0xAA9A4234 EQ PUSH2 0xB52 JUMPI DUP1 PUSH4 0xAD3CB1CC EQ PUSH2 0xB7C JUMPI DUP1 PUSH4 0xB776C4D6 EQ PUSH2 0xBA6 JUMPI DUP1 PUSH4 0xBA6AB529 EQ PUSH2 0xBE2 JUMPI DUP1 PUSH4 0xBB4D4436 EQ PUSH2 0xC0C JUMPI PUSH2 0x3E2 JUMP JUMPDEST DUP1 PUSH4 0x987EA311 EQ PUSH2 0xA76 JUMPI DUP1 PUSH4 0xA2086BB0 EQ PUSH2 0xAB2 JUMPI DUP1 PUSH4 0xA5410A66 EQ PUSH2 0xADA JUMPI DUP1 PUSH4 0xA9059CBB EQ PUSH2 0xB16 JUMPI PUSH2 0x3E2 JUMP JUMPDEST DUP1 PUSH4 0x8DA5CB5B GT PUSH2 0x1D6 JUMPI DUP1 PUSH4 0x8DA5CB5B EQ PUSH2 0x9D0 JUMPI DUP1 PUSH4 0x90D49B9D EQ PUSH2 0x9FA JUMPI DUP1 PUSH4 0x95D89B41 EQ PUSH2 0xA22 JUMPI DUP1 PUSH4 0x974B65D5 EQ PUSH2 0xA4C JUMPI PUSH2 0x3E2 JUMP JUMPDEST DUP1 PUSH4 0x7BCC2D47 EQ PUSH2 0x954 JUMPI DUP1 PUSH4 0x8129FC1C EQ PUSH2 0x97C JUMPI DUP1 PUSH4 0x8456CB59 EQ PUSH2 0x992 JUMPI DUP1 PUSH4 0x8A2E98F3 EQ PUSH2 0x9A8 JUMPI PUSH2 0x3E2 JUMP JUMPDEST DUP1 PUSH4 0x364428DF GT PUSH2 0x302 JUMPI DUP1 PUSH4 0x5B7F415C GT PUSH2 0x295 JUMPI DUP1 PUSH4 0x70A08231 GT PUSH2 0x264 JUMPI DUP1 PUSH4 0x70A08231 EQ PUSH2 0x88A JUMPI DUP1 PUSH4 0x715018A6 EQ PUSH2 0x8C6 JUMPI DUP1 PUSH4 0x75E3661E EQ PUSH2 0x8DC JUMPI DUP1 PUSH4 0x79CC6790 EQ PUSH2 0x904 JUMPI DUP1 PUSH4 0x7B0472F0 EQ PUSH2 0x92C JUMPI PUSH2 0x3E2 JUMP JUMPDEST DUP1 PUSH4 0x5B7F415C EQ PUSH2 0x7E4 JUMPI DUP1 PUSH4 0x5C975ABB EQ PUSH2 0x80E JUMPI DUP1 PUSH4 0x64732DC7 EQ PUSH2 0x838 JUMPI DUP1 PUSH4 0x6542DC0F EQ PUSH2 0x860 JUMPI PUSH2 0x3E2 JUMP JUMPDEST DUP1 PUSH4 0x4F1EF286 GT PUSH2 0x2D1 JUMPI DUP1 PUSH4 0x4F1EF286 EQ PUSH2 0x74A JUMPI DUP1 PUSH4 0x5286B59D EQ PUSH2 0x766 JUMPI DUP1 PUSH4 0x52D1902D EQ PUSH2 0x790 JUMPI DUP1 PUSH4 0x5B2A1B30 EQ PUSH2 0x7BA JUMPI PUSH2 0x3E2 JUMP JUMPDEST DUP1 PUSH4 0x364428DF EQ PUSH2 0x6BA JUMPI DUP1 PUSH4 0x3F4BA83A EQ PUSH2 0x6E4 JUMPI DUP1 PUSH4 0x40C10F19 EQ PUSH2 0x6FA JUMPI DUP1 PUSH4 0x42966C68 EQ PUSH2 0x722 JUMPI PUSH2 0x3E2 JUMP JUMPDEST DUP1 PUSH4 0x18821400 GT PUSH2 0x37A JUMPI DUP1 PUSH4 0x291A3D9E GT PUSH2 0x349 JUMPI DUP1 PUSH4 0x291A3D9E EQ PUSH2 0x612 JUMPI DUP1 PUSH4 0x2A905318 EQ PUSH2 0x63C JUMPI DUP1 PUSH4 0x2B9DA1F7 EQ PUSH2 0x666 JUMPI DUP1 PUSH4 0x313CE567 EQ PUSH2 0x690 JUMPI PUSH2 0x3E2 JUMP JUMPDEST DUP1 PUSH4 0x18821400 EQ PUSH2 0x558 JUMPI DUP1 PUSH4 0x1D6BD819 EQ PUSH2 0x582 JUMPI DUP1 PUSH4 0x23B872DD EQ PUSH2 0x5AC JUMPI DUP1 PUSH4 0x27E50C65 EQ PUSH2 0x5E8 JUMPI PUSH2 0x3E2 JUMP JUMPDEST DUP1 PUSH4 0x16469E7A GT PUSH2 0x3B6 JUMPI DUP1 PUSH4 0x16469E7A EQ PUSH2 0x49E JUMPI DUP1 PUSH4 0x16934FC4 EQ PUSH2 0x4C8 JUMPI DUP1 PUSH4 0x18160DDD EQ PUSH2 0x506 JUMPI DUP1 PUSH4 0x187881B7 EQ PUSH2 0x530 JUMPI PUSH2 0x3E2 JUMP JUMPDEST DUP1 PUSH3 0x676DCC EQ PUSH2 0x3E6 JUMPI DUP1 PUSH4 0x6FDDE03 EQ PUSH2 0x40E JUMPI DUP1 PUSH4 0x95EA7B3 EQ PUSH2 0x438 JUMPI DUP1 PUSH4 0x14F7EB87 EQ PUSH2 0x474 JUMPI JUMPDEST PUSH0 PUSH0 REVERT JUMPDEST CALLVALUE DUP1 ISZERO PUSH2 0x3F1 JUMPI PUSH0 PUSH0 REVERT JUMPDEST POP PUSH2 0x40C PUSH1 0x4 DUP1 CALLDATASIZE SUB DUP2 ADD SWAP1 PUSH2 0x407 SWAP2 SWAP1 PUSH2 0x3B22 JUMP JUMPDEST PUSH2 0xF3A JUMP JUMPDEST STOP JUMPDEST CALLVALUE DUP1 ISZERO PUSH2 0x419 JUMPI PUSH0 PUSH0 REVERT JUMPDEST POP PUSH2 0x422 PUSH2 0xF88 JUMP JUMPDEST PUSH1 0x40 MLOAD PUSH2 0x42F SWAP2 SWAP1 PUSH2 0x3BD0 JUMP JUMPDEST PUSH1 0x40 MLOAD DUP1 SWAP2 SUB SWAP1 RETURN JUMPDEST CALLVALUE DUP1 ISZERO PUSH2 0x443 JUMPI PUSH0 PUSH0 REVERT JUMPDEST POP PUSH2 0x45E PUSH1 0x4 DUP1 CALLDATASIZE SUB DUP2 ADD SWAP1 PUSH2 0x459 SWAP2 SWAP1 PUSH2 0x3B22 JUMP JUMPDEST PUSH2 0x1026 JUMP JUMPDEST PUSH1 0x40 MLOAD PUSH2 0x46B SWAP2 SWAP1 PUSH2 0x3C0A JUMP JUMPDEST PUSH1 0x40 MLOAD DUP1 SWAP2 SUB SWAP1 RETURN JUMPDEST CALLVALUE DUP1 ISZERO PUSH2 0x47F JUMPI PUSH0 PUSH0 REVERT JUMPDEST POP PUSH2 0x488 PUSH2 0x1048 JUMP JUMPDEST PUSH1 0x40 MLOAD PUSH2 0x495 SWAP2 SWAP1 PUSH2 0x3C32 JUMP JUMPDEST PUSH1 0x40 MLOAD DUP1 SWAP2 SUB SWAP1 RETURN JUMPDEST CALLVALUE DUP1 ISZERO PUSH2 0x4A9 JUMPI PUSH0 PUSH0 REVERT JUMPDEST POP PUSH2 0x4B2 PUSH2 0x104E JUMP JUMPDEST PUSH1 0x40 MLOAD PUSH2 0x4BF SWAP2 SWAP1 PUSH2 0x3C32 JUMP JUMPDEST PUSH1 0x40 MLOAD DUP1 SWAP2 SUB SWAP1 RETURN JUMPDEST CALLVALUE DUP1 ISZERO PUSH2 0x4D3 JUMPI PUSH0 PUSH0 REVERT JUMPDEST POP PUSH2 0x4EE PUSH1 0x4 DUP1 CALLDATASIZE SUB DUP2 ADD SWAP1 PUSH2 0x4E9 SWAP2 SWAP1 PUSH2 0x3C4B JUMP JUMPDEST PUSH2 0x1054 JUMP JUMPDEST PUSH1 0x40 MLOAD PUSH2 0x4FD SWAP4 SWAP3 SWAP2 SWAP1 PUSH2 0x3C76 JUMP JUMPDEST PUSH1 0x40 MLOAD DUP1 SWAP2 SUB SWAP1 RETURN JUMPDEST CALLVALUE DUP1 ISZERO PUSH2 0x511 JUMPI PUSH0 PUSH0 REVERT JUMPDEST POP PUSH2 0x51A PUSH2 0x107A JUMP JUMPDEST PUSH1 0x40 MLOAD PUSH2 0x527 SWAP2 SWAP1 PUSH2 0x3C32 JUMP JUMPDEST PUSH1 0x40 MLOAD DUP1 SWAP2 SUB SWAP1 RETURN JUMPDEST CALLVALUE DUP1 ISZERO PUSH2 0x53B JUMPI PUSH0 PUSH0 REVERT JUMPDEST POP PUSH2 0x556 PUSH1 0x4 DUP1 CALLDATASIZE SUB DUP2 ADD SWAP1 PUSH2 0x551 SWAP2 SWAP1 PUSH2 0x3CD5 JUMP JUMPDEST PUSH2 0x1091 JUMP JUMPDEST STOP JUMPDEST CALLVALUE DUP1 ISZERO PUSH2 0x563 JUMPI PUSH0 PUSH0 REVERT JUMPDEST POP PUSH2 0x56C PUSH2 0x10F1 JUMP JUMPDEST PUSH1 0x40 MLOAD PUSH2 0x579 SWAP2 SWAP1 PUSH2 0x3BD0 JUMP JUMPDEST PUSH1 0x40 MLOAD DUP1 SWAP2 SUB SWAP1 RETURN JUMPDEST CALLVALUE DUP1 ISZERO PUSH2 0x58D JUMPI PUSH0 PUSH0 REVERT JUMPDEST POP PUSH2 0x596 PUSH2 0x112A JUMP JUMPDEST PUSH1 0x40 MLOAD PUSH2 0x5A3 SWAP2 SWAP1 PUSH2 0x3C32 JUMP JUMPDEST PUSH1 0x40 MLOAD DUP1 SWAP2 SUB SWAP1 RETURN JUMPDEST CALLVALUE DUP1 ISZERO PUSH2 0x5B7 JUMPI PUSH0 PUSH0 REVERT JUMPDEST POP PUSH2 0x5D2 PUSH1 0x4 DUP1 CALLDATASIZE SUB DUP2 ADD SWAP1 PUSH2 0x5CD SWAP2 SWAP1 PUSH2 0x3D13 JUMP JUMPDEST PUSH2 0x1130 JUMP JUMPDEST PUSH1 0x40 MLOAD PUSH2 0x5DF SWAP2 SWAP1 PUSH2 0x3C0A JUMP JUMPDEST PUSH1 0x40 MLOAD DUP1 SWAP2 SUB SWAP1 RETURN JUMPDEST CALLVALUE DUP1 ISZERO PUSH2 0x5F3 JUMPI PUSH0 PUSH0 REVERT JUMPDEST POP PUSH2 0x5FC PUSH2 0x115E JUMP JUMPDEST PUSH1 0x40 MLOAD PUSH2 0x609 SWAP2 SWAP1 PUSH2 0x3C32 JUMP JUMPDEST PUSH1 0x40 MLOAD DUP1 SWAP2 SUB SWAP1 RETURN JUMPDEST CALLVALUE DUP1 ISZERO PUSH2 0x61D JUMPI PUSH0 PUSH0 REVERT JUMPDEST POP PUSH2 0x626 PUSH2 0x1164 JUMP JUMPDEST PUSH1 0x40 MLOAD PUSH2 0x633 SWAP2 SWAP1 PUSH2 0x3C32 JUMP JUMPDEST PUSH1 0x40 MLOAD DUP1 SWAP2 SUB SWAP1 RETURN JUMPDEST CALLVALUE DUP1 ISZERO PUSH2 0x647 JUMPI PUSH0 PUSH0 REVERT JUMPDEST POP PUSH2 0x650 PUSH2 0x116A JUMP JUMPDEST PUSH1 0x40 MLOAD PUSH2 0x65D SWAP2 SWAP1 PUSH2 0x3BD0 JUMP JUMPDEST PUSH1 0x40 MLOAD DUP1 SWAP2 SUB SWAP1 RETURN JUMPDEST CALLVALUE DUP1 ISZERO PUSH2 0x671 JUMPI PUSH0 PUSH0 REVERT JUMPDEST POP PUSH2 0x67A PUSH2 0x11A3 JUMP JUMPDEST PUSH1 0x40 MLOAD PUSH2 0x687 SWAP2 SWAP1 PUSH2 0x3C32 JUMP JUMPDEST PUSH1 0x40 MLOAD DUP1 SWAP2 SUB SWAP1 RETURN JUMPDEST CALLVALUE DUP1 ISZERO PUSH2 0x69B JUMPI PUSH0 PUSH0 REVERT JUMPDEST POP PUSH2 0x6A4 PUSH2 0x11A9 JUMP JUMPDEST PUSH1 0x40 MLOAD PUSH2 0x6B1 SWAP2 SWAP1 PUSH2 0x3D7E JUMP JUMPDEST PUSH1 0x40 MLOAD DUP1 SWAP2 SUB SWAP1 RETURN JUMPDEST CALLVALUE DUP1 ISZERO PUSH2 0x6C5 JUMPI PUSH0 PUSH0 REVERT JUMPDEST POP PUSH2 0x6CE PUSH2 0x11B1 JUMP JUMPDEST PUSH1 0x40 MLOAD PUSH2 0x6DB SWAP2 SWAP1 PUSH2 0x3C32 JUMP JUMPDEST PUSH1 0x40 MLOAD DUP1 SWAP2 SUB SWAP1 RETURN JUMPDEST CALLVALUE DUP1 ISZERO PUSH2 0x6EF JUMPI PUSH0 PUSH0 REVERT JUMPDEST POP PUSH2 0x6F8 PUSH2 0x11B7 JUMP JUMPDEST STOP JUMPDEST CALLVALUE DUP1 ISZERO PUSH2 0x705 JUMPI PUSH0 PUSH0 REVERT JUMPDEST POP PUSH2 0x720 PUSH1 0x4 DUP1 CALLDATASIZE SUB DUP2 ADD SWAP1 PUSH2 0x71B SWAP2 SWAP1 PUSH2 0x3B22 JUMP JUMPDEST PUSH2 0x11C9 JUMP JUMPDEST STOP JUMPDEST CALLVALUE DUP1 ISZERO PUSH2 0x72D JUMPI PUSH0 PUSH0 REVERT JUMPDEST POP PUSH2 0x748 PUSH1 0x4 DUP1 CALLDATASIZE SUB DUP2 ADD SWAP1 PUSH2 0x743 SWAP2 SWAP1 PUSH2 0x3D97 JUMP JUMPDEST PUSH2 0x11DF JUMP JUMPDEST STOP JUMPDEST PUSH2 0x764 PUSH1 0x4 DUP1 CALLDATASIZE SUB DUP2 ADD SWAP1 PUSH2 0x75F SWAP2 SWAP1 PUSH2 0x3EEE JUMP JUMPDEST PUSH2 0x11F3 JUMP JUMPDEST STOP JUMPDEST CALLVALUE DUP1 ISZERO PUSH2 0x771 JUMPI PUSH0 PUSH0 REVERT JUMPDEST POP PUSH2 0x77A PUSH2 0x1212 JUMP JUMPDEST PUSH1 0x40 MLOAD PUSH2 0x787 SWAP2 SWAP1 PUSH2 0x3C32 JUMP JUMPDEST PUSH1 0x40 MLOAD DUP1 SWAP2 SUB SWAP1 RETURN JUMPDEST CALLVALUE DUP1 ISZERO PUSH2 0x79B JUMPI PUSH0 PUSH0 REVERT JUMPDEST POP PUSH2 0x7A4 PUSH2 0x1218 JUMP JUMPDEST PUSH1 0x40 MLOAD PUSH2 0x7B1 SWAP2 SWAP1 PUSH2 0x3F60 JUMP JUMPDEST PUSH1 0x40 MLOAD DUP1 SWAP2 SUB SWAP1 RETURN JUMPDEST CALLVALUE DUP1 ISZERO PUSH2 0x7C5 JUMPI PUSH0 PUSH0 REVERT JUMPDEST POP PUSH2 0x7CE PUSH2 0x1249 JUMP JUMPDEST PUSH1 0x40 MLOAD PUSH2 0x7DB SWAP2 SWAP1 PUSH2 0x3C32 JUMP JUMPDEST PUSH1 0x40 MLOAD DUP1 SWAP2 SUB SWAP1 RETURN JUMPDEST CALLVALUE DUP1 ISZERO PUSH2 0x7EF JUMPI PUSH0 PUSH0 REVERT JUMPDEST POP PUSH2 0x7F8 PUSH2 0x124F JUMP JUMPDEST PUSH1 0x40 MLOAD PUSH2 0x805 SWAP2 SWAP1 PUSH2 0x3D7E JUMP JUMPDEST PUSH1 0x40 MLOAD DUP1 SWAP2 SUB SWAP1 RETURN JUMPDEST CALLVALUE DUP1 ISZERO PUSH2 0x819 JUMPI PUSH0 PUSH0 REVERT JUMPDEST POP PUSH2 0x822 PUSH2 0x1254 JUMP JUMPDEST PUSH1 0x40 MLOAD PUSH2 0x82F SWAP2 SWAP1 PUSH2 0x3C0A JUMP JUMPDEST PUSH1 0x40 MLOAD DUP1 SWAP2 SUB SWAP1 RETURN JUMPDEST CALLVALUE DUP1 ISZERO PUSH2 0x843 JUMPI PUSH0 PUSH0 REVERT JUMPDEST POP PUSH2 0x85E PUSH1 0x4 DUP1 CALLDATASIZE SUB DUP2 ADD SWAP1 PUSH2 0x859 SWAP2 SWAP1 PUSH2 0x3F79 JUMP JUMPDEST PUSH2 0x1268 JUMP JUMPDEST STOP JUMPDEST CALLVALUE DUP1 ISZERO PUSH2 0x86B JUMPI PUSH0 PUSH0 REVERT JUMPDEST POP PUSH2 0x874 PUSH2 0x1282 JUMP JUMPDEST PUSH1 0x40 MLOAD PUSH2 0x881 SWAP2 SWAP1 PUSH2 0x3FC6 JUMP JUMPDEST PUSH1 0x40 MLOAD DUP1 SWAP2 SUB SWAP1 RETURN JUMPDEST CALLVALUE DUP1 ISZERO PUSH2 0x895 JUMPI PUSH0 PUSH0 REVERT JUMPDEST POP PUSH2 0x8B0 PUSH1 0x4 DUP1 CALLDATASIZE SUB DUP2 ADD SWAP1 PUSH2 0x8AB SWAP2 SWAP1 PUSH2 0x3C4B JUMP JUMPDEST PUSH2 0x12A7 JUMP JUMPDEST PUSH1 0x40 MLOAD PUSH2 0x8BD SWAP2 SWAP1 PUSH2 0x3C32 JUMP JUMPDEST PUSH1 0x40 MLOAD DUP1 SWAP2 SUB SWAP1 RETURN JUMPDEST CALLVALUE DUP1 ISZERO PUSH2 0x8D1 JUMPI PUSH0 PUSH0 REVERT JUMPDEST POP PUSH2 0x8DA PUSH2 0x12FA JUMP JUMPDEST STOP JUMPDEST CALLVALUE DUP1 ISZERO PUSH2 0x8E7 JUMPI PUSH0 PUSH0 REVERT JUMPDEST POP PUSH2 0x902 PUSH1 0x4 DUP1 CALLDATASIZE SUB DUP2 ADD SWAP1 PUSH2 0x8FD SWAP2 SWAP1 PUSH2 0x3C4B JUMP JUMPDEST PUSH2 0x130D JUMP JUMPDEST STOP JUMPDEST CALLVALUE DUP1 ISZERO PUSH2 0x90F JUMPI PUSH0 PUSH0 REVERT JUMPDEST POP PUSH2 0x92A PUSH1 0x4 DUP1 CALLDATASIZE SUB DUP2 ADD SWAP1 PUSH2 0x925 SWAP2 SWAP1 PUSH2 0x3B22 JUMP JUMPDEST PUSH2 0x13AF JUMP JUMPDEST STOP JUMPDEST CALLVALUE DUP1 ISZERO PUSH2 0x937 JUMPI PUSH0 PUSH0 REVERT JUMPDEST POP PUSH2 0x952 PUSH1 0x4 DUP1 CALLDATASIZE SUB DUP2 ADD SWAP1 PUSH2 0x94D SWAP2 SWAP1 PUSH2 0x3F79 JUMP JUMPDEST PUSH2 0x13CF JUMP JUMPDEST STOP JUMPDEST CALLVALUE DUP1 ISZERO PUSH2 0x95F JUMPI PUSH0 PUSH0 REVERT JUMPDEST POP PUSH2 0x97A PUSH1 0x4 DUP1 CALLDATASIZE SUB DUP2 ADD SWAP1 PUSH2 0x975 SWAP2 SWAP1 PUSH2 0x3D97 JUMP JUMPDEST PUSH2 0x15D3 JUMP JUMPDEST STOP JUMPDEST CALLVALUE DUP1 ISZERO PUSH2 0x987 JUMPI PUSH0 PUSH0 REVERT JUMPDEST POP PUSH2 0x990 PUSH2 0x15E5 JUMP JUMPDEST STOP JUMPDEST CALLVALUE DUP1 ISZERO PUSH2 0x99D JUMPI PUSH0 PUSH0 REVERT JUMPDEST POP PUSH2 0x9A6 PUSH2 0x18DF JUMP JUMPDEST STOP JUMPDEST CALLVALUE DUP1 ISZERO PUSH2 0x9B3 JUMPI PUSH0 PUSH0 REVERT JUMPDEST POP PUSH2 0x9CE PUSH1 0x4 DUP1 CALLDATASIZE SUB DUP2 ADD SWAP1 PUSH2 0x9C9 SWAP2 SWAP1 PUSH2 0x3D97 JUMP JUMPDEST PUSH2 0x18F1 JUMP JUMPDEST STOP JUMPDEST CALLVALUE DUP1 ISZERO PUSH2 0x9DB JUMPI PUSH0 PUSH0 REVERT JUMPDEST POP PUSH2 0x9E4 PUSH2 0x1903 JUMP JUMPDEST PUSH1 0x40 MLOAD PUSH2 0x9F1 SWAP2 SWAP1 PUSH2 0x3FC6 JUMP JUMPDEST PUSH1 0x40 MLOAD DUP1 SWAP2 SUB SWAP1 RETURN JUMPDEST CALLVALUE DUP1 ISZERO PUSH2 0xA05 JUMPI PUSH0 PUSH0 REVERT JUMPDEST POP PUSH2 0xA20 PUSH1 0x4 DUP1 CALLDATASIZE SUB DUP2 ADD SWAP1 PUSH2 0xA1B SWAP2 SWAP1 PUSH2 0x3C4B JUMP JUMPDEST PUSH2 0x1938 JUMP JUMPDEST STOP JUMPDEST CALLVALUE DUP1 ISZERO PUSH2 0xA2D JUMPI PUSH0 PUSH0 REVERT JUMPDEST POP PUSH2 0xA36 PUSH2 0x1983 JUMP JUMPDEST PUSH1 0x40 MLOAD PUSH2 0xA43 SWAP2 SWAP1 PUSH2 0x3BD0 JUMP JUMPDEST PUSH1 0x40 MLOAD DUP1 SWAP2 SUB SWAP1 RETURN JUMPDEST CALLVALUE DUP1 ISZERO PUSH2 0xA57 JUMPI PUSH0 PUSH0 REVERT JUMPDEST POP PUSH2 0xA60 PUSH2 0x1A21 JUMP JUMPDEST PUSH1 0x40 MLOAD PUSH2 0xA6D SWAP2 SWAP1 PUSH2 0x3C32 JUMP JUMPDEST PUSH1 0x40 MLOAD DUP1 SWAP2 SUB SWAP1 RETURN JUMPDEST CALLVALUE DUP1 ISZERO PUSH2 0xA81 JUMPI PUSH0 PUSH0 REVERT JUMPDEST POP PUSH2 0xA9C PUSH1 0x4 DUP1 CALLDATASIZE SUB DUP2 ADD SWAP1 PUSH2 0xA97 SWAP2 SWAP1 PUSH2 0x3C4B JUMP JUMPDEST PUSH2 0x1A27 JUMP JUMPDEST PUSH1 0x40 MLOAD PUSH2 0xAA9 SWAP2 SWAP1 PUSH2 0x3C32 JUMP JUMPDEST PUSH1 0x40 MLOAD DUP1 SWAP2 SUB SWAP1 RETURN JUMPDEST CALLVALUE DUP1 ISZERO PUSH2 0xABD JUMPI PUSH0 PUSH0 REVERT JUMPDEST POP PUSH2 0xAD8 PUSH1 0x4 DUP1 CALLDATASIZE SUB DUP2 ADD SWAP1 PUSH2 0xAD3 SWAP2 SWAP1 PUSH2 0x3B22 JUMP JUMPDEST PUSH2 0x1A3C JUMP JUMPDEST STOP JUMPDEST CALLVALUE DUP1 ISZERO PUSH2 0xAE5 JUMPI PUSH0 PUSH0 REVERT JUMPDEST POP PUSH2 0xB00 PUSH1 0x4 DUP1 CALLDATASIZE SUB DUP2 ADD SWAP1 PUSH2 0xAFB SWAP2 SWAP1 PUSH2 0x3C4B JUMP JUMPDEST PUSH2 0x1A8A JUMP JUMPDEST PUSH1 0x40 MLOAD PUSH2 0xB0D SWAP2 SWAP1 PUSH2 0x3C0A JUMP JUMPDEST PUSH1 0x40 MLOAD DUP1 SWAP2 SUB SWAP1 RETURN JUMPDEST CALLVALUE DUP1 ISZERO PUSH2 0xB21 JUMPI PUSH0 PUSH0 REVERT JUMPDEST POP PUSH2 0xB3C PUSH1 0x4 DUP1 CALLDATASIZE SUB DUP2 ADD SWAP1 PUSH2 0xB37 SWAP2 SWAP1 PUSH2 0x3B22 JUMP JUMPDEST PUSH2 0x1AA7 JUMP JUMPDEST PUSH1 0x40 MLOAD PUSH2 0xB49 SWAP2 SWAP1 PUSH2 0x3C0A JUMP JUMPDEST PUSH1 0x40 MLOAD DUP1 SWAP2 SUB SWAP1 RETURN JUMPDEST CALLVALUE DUP1 ISZERO PUSH2 0xB5D JUMPI PUSH0 PUSH0 REVERT JUMPDEST POP PUSH2 0xB66 PUSH2 0x1AC9 JUMP JUMPDEST PUSH1 0x40 MLOAD PUSH2 0xB73 SWAP2 SWAP1 PUSH2 0x3C32 JUMP JUMPDEST PUSH1 0x40 MLOAD DUP1 SWAP2 SUB SWAP1 RETURN JUMPDEST CALLVALUE DUP1 ISZERO PUSH2 0xB87 JUMPI PUSH0 PUSH0 REVERT JUMPDEST POP PUSH2 0xB90 PUSH2 0x1ACF JUMP JUMPDEST PUSH1 0x40 MLOAD PUSH2 0xB9D SWAP2 SWAP1 PUSH2 0x3BD0 JUMP JUMPDEST PUSH1 0x40 MLOAD DUP1 SWAP2 SUB SWAP1 RETURN JUMPDEST CALLVALUE DUP1 ISZERO PUSH2 0xBB1 JUMPI PUSH0 PUSH0 REVERT JUMPDEST POP PUSH2 0xBCC PUSH1 0x4 DUP1 CALLDATASIZE SUB DUP2 ADD SWAP1 PUSH2 0xBC7 SWAP2 SWAP1 PUSH2 0x3C4B JUMP JUMPDEST PUSH2 0x1B08 JUMP JUMPDEST PUSH1 0x40 MLOAD PUSH2 0xBD9 SWAP2 SWAP1 PUSH2 0x3C32 JUMP JUMPDEST PUSH1 0x40 MLOAD DUP1 SWAP2 SUB SWAP1 RETURN JUMPDEST CALLVALUE DUP1 ISZERO PUSH2 0xBED JUMPI PUSH0 PUSH0 REVERT JUMPDEST POP PUSH2 0xBF6 PUSH2 0x1B1D JUMP JUMPDEST PUSH1 0x40 MLOAD PUSH2 0xC03 SWAP2 SWAP1 PUSH2 0x3C32 JUMP JUMPDEST PUSH1 0x40 MLOAD DUP1 SWAP2 SUB SWAP1 RETURN JUMPDEST CALLVALUE DUP1 ISZERO PUSH2 0xC17 JUMPI PUSH0 PUSH0 REVERT JUMPDEST POP PUSH2 0xC32 PUSH1 0x4 DUP1 CALLDATASIZE SUB DUP2 ADD SWAP1 PUSH2 0xC2D SWAP2 SWAP1 PUSH2 0x3C4B JUMP JUMPDEST PUSH2 0x1B23 JUMP JUMPDEST PUSH1 0x40 MLOAD PUSH2 0xC3F SWAP2 SWAP1 PUSH2 0x3C32 JUMP JUMPDEST PUSH1 0x40 MLOAD DUP1 SWAP2 SUB SWAP1 RETURN JUMPDEST CALLVALUE DUP1 ISZERO PUSH2 0xC53 JUMPI PUSH0 PUSH0 REVERT JUMPDEST POP PUSH2 0xC5C PUSH2 0x1C04 JUMP JUMPDEST STOP JUMPDEST CALLVALUE DUP1 ISZERO PUSH2 0xC69 JUMPI PUSH0 PUSH0 REVERT JUMPDEST POP PUSH2 0xC84 PUSH1 0x4 DUP1 CALLDATASIZE SUB DUP2 ADD SWAP1 PUSH2 0xC7F SWAP2 SWAP1 PUSH2 0x3C4B JUMP JUMPDEST PUSH2 0x1EA7 JUMP JUMPDEST PUSH1 0x40 MLOAD PUSH2 0xC91 SWAP2 SWAP1 PUSH2 0x3C0A JUMP JUMPDEST PUSH1 0x40 MLOAD DUP1 SWAP2 SUB SWAP1 RETURN JUMPDEST CALLVALUE DUP1 ISZERO PUSH2 0xCA5 JUMPI PUSH0 PUSH0 REVERT JUMPDEST POP PUSH2 0xCC0 PUSH1 0x4 DUP1 CALLDATASIZE SUB DUP2 ADD SWAP1 PUSH2 0xCBB SWAP2 SWAP1 PUSH2 0x3FDF JUMP JUMPDEST PUSH2 0x1EC4 JUMP JUMPDEST STOP JUMPDEST CALLVALUE DUP1 ISZERO PUSH2 0xCCD JUMPI PUSH0 PUSH0 REVERT JUMPDEST POP PUSH2 0xCD6 PUSH2 0x1EE6 JUMP JUMPDEST PUSH1 0x40 MLOAD PUSH2 0xCE3 SWAP2 SWAP1 PUSH2 0x3C32 JUMP JUMPDEST PUSH1 0x40 MLOAD DUP1 SWAP2 SUB SWAP1 RETURN JUMPDEST CALLVALUE DUP1 ISZERO PUSH2 0xCF7 JUMPI PUSH0 PUSH0 REVERT JUMPDEST POP PUSH2 0xD00 PUSH2 0x1EEC JUMP JUMPDEST PUSH1 0x40 MLOAD PUSH2 0xD0D SWAP2 SWAP1 PUSH2 0x3C32 JUMP JUMPDEST PUSH1 0x40 MLOAD DUP1 SWAP2 SUB SWAP1 RETURN JUMPDEST CALLVALUE DUP1 ISZERO PUSH2 0xD21 JUMPI PUSH0 PUSH0 REVERT JUMPDEST POP PUSH2 0xD2A PUSH2 0x1EF2 JUMP JUMPDEST PUSH1 0x40 MLOAD PUSH2 0xD37 SWAP2 SWAP1 PUSH2 0x3C32 JUMP JUMPDEST PUSH1 0x40 MLOAD DUP1 SWAP2 SUB SWAP1 RETURN JUMPDEST CALLVALUE DUP1 ISZERO PUSH2 0xD4B JUMPI PUSH0 PUSH0 REVERT JUMPDEST POP PUSH2 0xD66 PUSH1 0x4 DUP1 CALLDATASIZE SUB DUP2 ADD SWAP1 PUSH2 0xD61 SWAP2 SWAP1 PUSH2 0x402F JUMP JUMPDEST PUSH2 0x1EF8 JUMP JUMPDEST PUSH1 0x40 MLOAD PUSH2 0xD73 SWAP2 SWAP1 PUSH2 0x3C32 JUMP JUMPDEST PUSH1 0x40 MLOAD DUP1 SWAP2 SUB SWAP1 RETURN JUMPDEST CALLVALUE DUP1 ISZERO PUSH2 0xD87 JUMPI PUSH0 PUSH0 REVERT JUMPDEST POP PUSH2 0xD90 PUSH2 0x1F88 JUMP JUMPDEST PUSH1 0x40 MLOAD PUSH2 0xD9D SWAP2 SWAP1 PUSH2 0x3C32 JUMP JUMPDEST PUSH1 0x40 MLOAD DUP1 SWAP2 SUB SWAP1 RETURN JUMPDEST CALLVALUE DUP1 ISZERO PUSH2 0xDB1 JUMPI PUSH0 PUSH0 REVERT JUMPDEST POP PUSH2 0xDCC PUSH1 0x4 DUP1 CALLDATASIZE SUB DUP2 ADD SWAP1 PUSH2 0xDC7 SWAP2 SWAP1 PUSH2 0x3C4B JUMP JUMPDEST PUSH2 0x1F8E JUMP JUMPDEST PUSH1 0x40 MLOAD PUSH2 0xDD9 SWAP2 SWAP1 PUSH2 0x3C0A JUMP JUMPDEST PUSH1 0x40 MLOAD DUP1 SWAP2 SUB SWAP1 RETURN JUMPDEST CALLVALUE DUP1 ISZERO PUSH2 0xDED JUMPI PUSH0 PUSH0 REVERT JUMPDEST POP PUSH2 0xE08 PUSH1 0x4 DUP1 CALLDATASIZE SUB DUP2 ADD SWAP1 PUSH2 0xE03 SWAP2 SWAP1 PUSH2 0x3D97 JUMP JUMPDEST PUSH2 0x1FAB JUMP JUMPDEST STOP JUMPDEST CALLVALUE DUP1 ISZERO PUSH2 0xE15 JUMPI PUSH0 PUSH0 REVERT JUMPDEST POP PUSH2 0xE30 PUSH1 0x4 DUP1 CALLDATASIZE SUB DUP2 ADD SWAP1 PUSH2 0xE2B SWAP2 SWAP1 PUSH2 0x3CD5 JUMP JUMPDEST PUSH2 0x1FBD JUMP JUMPDEST STOP JUMPDEST CALLVALUE DUP1 ISZERO PUSH2 0xE3D JUMPI PUSH0 PUSH0 REVERT JUMPDEST POP PUSH2 0xE46 PUSH2 0x201D JUMP JUMPDEST PUSH1 0x40 MLOAD PUSH2 0xE53 SWAP2 SWAP1 PUSH2 0x3FC6 JUMP JUMPDEST PUSH1 0x40 MLOAD DUP1 SWAP2 SUB SWAP1 RETURN JUMPDEST CALLVALUE DUP1 ISZERO PUSH2 0xE67 JUMPI PUSH0 PUSH0 REVERT JUMPDEST POP PUSH2 0xE82 PUSH1 0x4 DUP1 CALLDATASIZE SUB DUP2 ADD SWAP1 PUSH2 0xE7D SWAP2 SWAP1 PUSH2 0x3C4B JUMP JUMPDEST PUSH2 0x2042 JUMP JUMPDEST STOP JUMPDEST CALLVALUE DUP1 ISZERO PUSH2 0xE8F JUMPI PUSH0 PUSH0 REVERT JUMPDEST POP PUSH2 0xE98 PUSH2 0x20C6 JUMP JUMPDEST PUSH1 0x40 MLOAD PUSH2 0xEA5 SWAP2 SWAP1 PUSH2 0x3C32 JUMP JUMPDEST PUSH1 0x40 MLOAD DUP1 SWAP2 SUB SWAP1 RETURN JUMPDEST CALLVALUE DUP1 ISZERO PUSH2 0xEB9 JUMPI PUSH0 PUSH0 REVERT JUMPDEST POP PUSH2 0xED4 PUSH1 0x4 DUP1 CALLDATASIZE SUB DUP2 ADD SWAP1 PUSH2 0xECF SWAP2 SWAP1 PUSH2 0x3CD5 JUMP JUMPDEST PUSH2 0x20CC JUMP JUMPDEST STOP JUMPDEST CALLVALUE DUP1 ISZERO PUSH2 0xEE1 JUMPI PUSH0 PUSH0 REVERT JUMPDEST POP PUSH2 0xEFC PUSH1 0x4 DUP1 CALLDATASIZE SUB DUP2 ADD SWAP1 PUSH2 0xEF7 SWAP2 SWAP1 PUSH2 0x3C4B JUMP JUMPDEST PUSH2 0x212C JUMP JUMPDEST STOP JUMPDEST CALLVALUE DUP1 ISZERO PUSH2 0xF09 JUMPI PUSH0 PUSH0 REVERT JUMPDEST POP PUSH2 0xF24 PUSH1 0x4 DUP1 CALLDATASIZE SUB DUP2 ADD SWAP1 PUSH2 0xF1F SWAP2 SWAP1 PUSH2 0x3C4B JUMP JUMPDEST PUSH2 0x21CF JUMP JUMPDEST PUSH1 0x40 MLOAD PUSH2 0xF31 SWAP2 SWAP1 PUSH2 0x3C0A JUMP JUMPDEST PUSH1 0x40 MLOAD DUP1 SWAP2 SUB SWAP1 RETURN JUMPDEST PUSH2 0xF42 PUSH2 0x21EC JUMP JUMPDEST DUP1 PUSH1 0x4D PUSH0 DUP5 PUSH20 0xFFFFFFFFFFFFFFFFFFFFFFFFFFFFFFFFFFFFFFFF AND PUSH20 0xFFFFFFFFFFFFFFFFFFFFFFFFFFFFFFFFFFFFFFFF AND DUP2 MSTORE PUSH1 0x20 ADD SWAP1 DUP2 MSTORE PUSH1 0x20 ADD PUSH0 KECCAK256 DUP2 SWAP1 SSTORE POP POP POP JUMP JUMPDEST PUSH1 0x60 PUSH0 PUSH2 0xF93 PUSH2 0x2273 JUMP JUMPDEST SWAP1 POP DUP1 PUSH1 0x3 ADD DUP1 SLOAD PUSH2 0xFA4 SWAP1 PUSH2 0x409A JUMP JUMPDEST DUP1 PUSH1 0x1F ADD PUSH1 0x20 DUP1 SWAP2 DIV MUL PUSH1 0x20 ADD PUSH1 0x40 MLOAD SWAP1 DUP2 ADD PUSH1 0x40 MSTORE DUP1 SWAP3 SWAP2 SWAP1 DUP2 DUP2 MSTORE PUSH1 0x20 ADD DUP3 DUP1 SLOAD PUSH2 0xFD0 SWAP1 PUSH2 0x409A JUMP JUMPDEST DUP1 ISZERO PUSH2 0x101B JUMPI DUP1 PUSH1 0x1F LT PUSH2 0xFF2 JUMPI PUSH2 0x100 DUP1 DUP4 SLOAD DIV MUL DUP4 MSTORE SWAP2 PUSH1 0x20 ADD SWAP2 PUSH2 0x101B JUMP JUMPDEST DUP3 ADD SWAP2 SWAP1 PUSH0 MSTORE PUSH1 0x20 PUSH0 KECCAK256 SWAP1 JUMPDEST DUP2 SLOAD DUP2 MSTORE SWAP1 PUSH1 0x1 ADD SWAP1 PUSH1 0x20 ADD DUP1 DUP4 GT PUSH2 0xFFE JUMPI DUP3 SWAP1 SUB PUSH1 0x1F AND DUP3 ADD SWAP2 JUMPDEST POP POP POP POP POP SWAP2 POP POP SWAP1 JUMP JUMPDEST PUSH0 PUSH0 PUSH2 0x1030 PUSH2 0x229A JUMP JUMPDEST SWAP1 POP PUSH2 0x103D DUP2 DUP6 DUP6 PUSH2 0x22A1 JUMP JUMPDEST PUSH1 0x1 SWAP2 POP POP SWAP3 SWAP2 POP POP JUMP JUMPDEST PUSH1 0x3A SLOAD DUP2 JUMP JUMPDEST PUSH1 0x44 SLOAD DUP2 JUMP JUMPDEST PUSH1 0x48 PUSH1 0x20 MSTORE DUP1 PUSH0 MSTORE PUSH1 0x40 PUSH0 KECCAK256 PUSH0 SWAP2 POP SWAP1 POP DUP1 PUSH0 ADD SLOAD SWAP1 DUP1 PUSH1 0x1 ADD SLOAD SWAP1 DUP1 PUSH1 0x2 ADD SLOAD SWAP1 POP DUP4 JUMP JUMPDEST PUSH0 PUSH0 PUSH2 0x1084 PUSH2 0x2273 JUMP JUMPDEST SWAP1 POP DUP1 PUSH1 0x2 ADD SLOAD SWAP2 POP POP SWAP1 JUMP JUMPDEST PUSH2 0x1099 PUSH2 0x21EC JUMP JUMPDEST DUP1 PUSH1 0x3F PUSH0 DUP5 PUSH20 0xFFFFFFFFFFFFFFFFFFFFFFFFFFFFFFFFFFFFFFFF AND PUSH20 0xFFFFFFFFFFFFFFFFFFFFFFFFFFFFFFFFFFFFFFFF AND DUP2 MSTORE PUSH1 0x20 ADD SWAP1 DUP2 MSTORE PUSH1 0x20 ADD PUSH0 KECCAK256 PUSH0 PUSH2 0x100 EXP DUP2 SLOAD DUP2 PUSH1 0xFF MUL NOT AND SWAP1 DUP4 ISZERO ISZERO MUL OR SWAP1 SSTORE POP POP POP JUMP JUMPDEST PUSH1 0x40 MLOAD DUP1 PUSH1 0x40 ADD PUSH1 0x40 MSTORE DUP1 PUSH1 0x8 DUP2 MSTORE PUSH1 0x20 ADD PUSH32 0x49464220436F696E000000000000000000000000000000000000000000000000 DUP2 MSTORE POP DUP2 JUMP JUMPDEST PUSH1 0x35 SLOAD DUP2 JUMP JUMPDEST PUSH0 PUSH0 PUSH2 0x113A PUSH2 0x229A JUMP JUMPDEST SWAP1 POP PUSH2 0x1147 DUP6 DUP3 DUP6 PUSH2 0x22B3 JUMP JUMPDEST PUSH2 0x1152 DUP6 DUP6 DUP6 PUSH2 0x2346 JUMP JUMPDEST PUSH1 0x1 SWAP2 POP POP SWAP4 SWAP3 POP POP POP JUMP JUMPDEST PUSH1 0x33 SLOAD DUP2 JUMP JUMPDEST PUSH1 0x4B SLOAD DUP2 JUMP JUMPDEST PUSH1 0x40 MLOAD DUP1 PUSH1 0x40 ADD PUSH1 0x40 MSTORE DUP1 PUSH1 0x3 DUP2 MSTORE PUSH1 0x20 ADD PUSH32 0x4946420000000000000000000000000000000000000000000000000000000000 DUP2 MSTORE POP DUP2 JUMP JUMPDEST PUSH1 0x38 SLOAD DUP2 JUMP JUMPDEST PUSH0 PUSH1 0x6 SWAP1 POP SWAP1 JUMP JUMPDEST PUSH1 0x4A SLOAD DUP2 JUMP JUMPDEST PUSH2 0x11BF PUSH2 0x21EC JUMP JUMPDEST PUSH2 0x11C7 PUSH2 0x2436 JUMP JUMPDEST JUMP JUMPDEST PUSH2 0x11D1 PUSH2 0x21EC JUMP JUMPDEST PUSH2 0x11DB DUP3 DUP3 PUSH2 0x2496 JUMP JUMPDEST POP POP JUMP JUMPDEST PUSH2 0x11F0 PUSH2 0x11EA PUSH2 0x229A JUMP JUMPDEST DUP3 PUSH2 0x2515 JUMP JUMPDEST POP JUMP JUMPDEST PUSH2 0x11FB PUSH2 0x2594 JUMP JUMPDEST PUSH2 0x1204 DUP3 PUSH2 0x267A JUMP JUMPDEST PUSH2 0x120E DUP3 DUP3 PUSH2 0x2685 JUMP JUMPDEST POP POP JUMP JUMPDEST PUSH1 0x32 SLOAD DUP2 JUMP JUMPDEST PUSH0 PUSH2 0x1221 PUSH2 0x27A3 JUMP JUMPDEST PUSH32 0x360894A13BA1A3210667C828492DB98DCA3E2076CC3735A920A3CA505D382BBC PUSH0 SHL SWAP1 POP SWAP1 JUMP JUMPDEST PUSH1 0x3E SLOAD DUP2 JUMP JUMPDEST PUSH1 0x6 DUP2 JUMP JUMPDEST PUSH0 PUSH0 PUSH0 SWAP1 SLOAD SWAP1 PUSH2 0x100 EXP SWAP1 DIV PUSH1 0xFF AND SWAP1 POP SWAP1 JUMP JUMPDEST PUSH2 0x1270 PUSH2 0x21EC JUMP JUMPDEST DUP2 PUSH1 0x49 DUP2 SWAP1 SSTORE POP DUP1 PUSH1 0x4A DUP2 SWAP1 SSTORE POP POP POP JUMP JUMPDEST PUSH1 0x37 PUSH0 SWAP1 SLOAD SWAP1 PUSH2 0x100 EXP SWAP1 DIV PUSH20 0xFFFFFFFFFFFFFFFFFFFFFFFFFFFFFFFFFFFFFFFF AND DUP2 JUMP JUMPDEST PUSH0 PUSH0 PUSH2 0x12B1 PUSH2 0x2273 JUMP JUMPDEST SWAP1 POP DUP1 PUSH0 ADD PUSH0 DUP5 PUSH20 0xFFFFFFFFFFFFFFFFFFFFFFFFFFFFFFFFFFFFFFFF AND PUSH20 0xFFFFFFFFFFFFFFFFFFFFFFFFFFFFFFFFFFFFFFFF AND DUP2 MSTORE PUSH1 0x20 ADD SWAP1 DUP2 MSTORE PUSH1 0x20 ADD PUSH0 KECCAK256 SLOAD SWAP2 POP POP SWAP2 SWAP1 POP JUMP JUMPDEST PUSH2 0x1302 PUSH2 0x21EC JUMP JUMPDEST PUSH2 0x130B PUSH0 PUSH2 0x282A JUMP JUMPDEST JUMP JUMPDEST PUSH2 0x1315 PUSH2 0x21EC JUMP JUMPDEST PUSH0 PUSH1 0x3C PUSH0 DUP4 PUSH20 0xFFFFFFFFFFFFFFFFFFFFFFFFFFFFFFFFFFFFFFFF AND PUSH20 0xFFFFFFFFFFFFFFFFFFFFFFFFFFFFFFFFFFFFFFFF AND DUP2 MSTORE PUSH1 0x20 ADD SWAP1 DUP2 MSTORE PUSH1 0x20 ADD PUSH0 KECCAK256 PUSH0 PUSH2 0x100 EXP DUP2 SLOAD DUP2 PUSH1 0xFF MUL NOT AND SWAP1 DUP4 ISZERO ISZERO MUL OR SWAP1 SSTORE POP DUP1 PUSH20 0xFFFFFFFFFFFFFFFFFFFFFFFFFFFFFFFFFFFFFFFF AND PUSH32 0xB2AA8F2CCE614E8FCEACA560DBAF2A8ED3083E4AB371B10BF6D02E359216767A PUSH1 0x40 MLOAD PUSH1 0x40 MLOAD DUP1 SWAP2 SUB SWAP1 LOG2 POP JUMP JUMPDEST PUSH2 0x13C1 DUP3 PUSH2 0x13BB PUSH2 0x229A JUMP JUMPDEST DUP4 PUSH2 0x22B3 JUMP JUMPDEST PUSH2 0x13CB DUP3 DUP3 PUSH2 0x2515 JUMP JUMPDEST POP POP JUMP JUMPDEST PUSH1 0xC DUP2 EQ DUP1 PUSH2 0x13DE JUMPI POP PUSH1 0x18 DUP2 EQ JUMPDEST PUSH2 0x141D JUMPI PUSH1 0x40 MLOAD PUSH32 0x8C379A000000000000000000000000000000000000000000000000000000000 DUP2 MSTORE PUSH1 0x4 ADD PUSH2 0x1414 SWAP1 PUSH2 0x4114 JUMP JUMPDEST PUSH1 0x40 MLOAD DUP1 SWAP2 SUB SWAP1 REVERT JUMPDEST PUSH0 PUSH1 0x48 PUSH0 CALLER PUSH20 0xFFFFFFFFFFFFFFFFFFFFFFFFFFFFFFFFFFFFFFFF AND PUSH20 0xFFFFFFFFFFFFFFFFFFFFFFFFFFFFFFFFFFFFFFFF AND DUP2 MSTORE PUSH1 0x20 ADD SWAP1 DUP2 MSTORE PUSH1 0x20 ADD PUSH0 KECCAK256 PUSH0 ADD SLOAD EQ PUSH2 0x149E JUMPI PUSH1 0x40 MLOAD PUSH32 0x8C379A000000000000000000000000000000000000000000000000000000000 DUP2 MSTORE PUSH1 0x4 ADD PUSH2 0x1495 SWAP1 PUSH2 0x417C JUMP JUMPDEST PUSH1 0x40 MLOAD DUP1 SWAP2 SUB SWAP1 REVERT JUMPDEST PUSH0 DUP3 GT PUSH2 0x14E0 JUMPI PUSH1 0x40 MLOAD PUSH32 0x8C379A000000000000000000000000000000000000000000000000000000000 DUP2 MSTORE PUSH1 0x4 ADD PUSH2 0x14D7 SWAP1 PUSH2 0x41E4 JUMP JUMPDEST PUSH1 0x40 MLOAD DUP1 SWAP2 SUB SWAP1 REVERT JUMPDEST PUSH1 0x40 MLOAD DUP1 PUSH1 0x60 ADD PUSH1 0x40 MSTORE DUP1 DUP4 DUP2 MSTORE PUSH1 0x20 ADD TIMESTAMP DUP2 MSTORE PUSH1 0x20 ADD PUSH1 0xC DUP4 EQ PUSH2 0x1509 JUMPI PUSH4 0x3C26700 PUSH2 0x150F JUMP JUMPDEST PUSH4 0x1E13380 JUMPDEST PUSH4 0xFFFFFFFF AND DUP2 MSTORE POP PUSH1 0x48 PUSH0 CALLER PUSH20 0xFFFFFFFFFFFFFFFFFFFFFFFFFFFFFFFFFFFFFFFF AND PUSH20 0xFFFFFFFFFFFFFFFFFFFFFFFFFFFFFFFFFFFFFFFF AND DUP2 MSTORE PUSH1 0x20 ADD SWAP1 DUP2 MSTORE PUSH1 0x20 ADD PUSH0 KECCAK256 PUSH0 DUP3 ADD MLOAD DUP2 PUSH0 ADD SSTORE PUSH1 0x20 DUP3 ADD MLOAD DUP2 PUSH1 0x1 ADD SSTORE PUSH1 0x40 DUP3 ADD MLOAD DUP2 PUSH1 0x2 ADD SSTORE SWAP1 POP POP PUSH2 0x157F CALLER ADDRESS DUP5 PUSH2 0x2346 JUMP JUMPDEST CALLER PUSH20 0xFFFFFFFFFFFFFFFFFFFFFFFFFFFFFFFFFFFFFFFF AND PUSH32 0x1449C6DD7851ABC30ABF37F57715F492010519147CC2652FBC38202C18A6EE90 DUP4 DUP4 PUSH1 0x40 MLOAD PUSH2 0x15C7 SWAP3 SWAP2 SWAP1 PUSH2 0x4202 JUMP JUMPDEST PUSH1 0x40 MLOAD DUP1 SWAP2 SUB SWAP1 LOG2 POP POP JUMP JUMPDEST PUSH2 0x15DB PUSH2 0x21EC JUMP JUMPDEST DUP1 PUSH1 0x3E DUP2 SWAP1 SSTORE POP POP JUMP JUMPDEST PUSH0 PUSH2 0x15EE PUSH2 0x28FB JUMP JUMPDEST SWAP1 POP PUSH0 DUP2 PUSH0 ADD PUSH1 0x8 SWAP1 SLOAD SWAP1 PUSH2 0x100 EXP SWAP1 DIV PUSH1 0xFF AND ISZERO SWAP1 POP PUSH0 DUP3 PUSH0 ADD PUSH0 SWAP1 SLOAD SWAP1 PUSH2 0x100 EXP SWAP1 DIV PUSH8 0xFFFFFFFFFFFFFFFF AND SWAP1 POP PUSH0 PUSH0 DUP3 PUSH8 0xFFFFFFFFFFFFFFFF AND EQ DUP1 ISZERO PUSH2 0x1636 JUMPI POP DUP3 JUMPDEST SWAP1 POP PUSH0 PUSH1 0x1 DUP4 PUSH8 0xFFFFFFFFFFFFFFFF AND EQ DUP1 ISZERO PUSH2 0x1669 JUMPI POP PUSH0 ADDRESS PUSH20 0xFFFFFFFFFFFFFFFFFFFFFFFFFFFFFFFFFFFFFFFF AND EXTCODESIZE EQ JUMPDEST SWAP1 POP DUP2 ISZERO DUP1 ISZERO PUSH2 0x1677 JUMPI POP DUP1 ISZERO JUMPDEST ISZERO PUSH2 0x16AE JUMPI PUSH1 0x40 MLOAD PUSH32 0xF92EE8A900000000000000000000000000000000000000000000000000000000 DUP2 MSTORE PUSH1 0x4 ADD PUSH1 0x40 MLOAD DUP1 SWAP2 SUB SWAP1 REVERT JUMPDEST PUSH1 0x1 DUP6 PUSH0 ADD PUSH0 PUSH2 0x100 EXP DUP2 SLOAD DUP2 PUSH8 0xFFFFFFFFFFFFFFFF MUL NOT AND SWAP1 DUP4 PUSH8 0xFFFFFFFFFFFFFFFF AND MUL OR SWAP1 SSTORE POP DUP4 ISZERO PUSH2 0x16FB JUMPI PUSH1 0x1 DUP6 PUSH0 ADD PUSH1 0x8 PUSH2 0x100 EXP DUP2 SLOAD DUP2 PUSH1 0xFF MUL NOT AND SWAP1 DUP4 ISZERO ISZERO MUL OR SWAP1 SSTORE POP JUMPDEST PUSH2 0x176F PUSH1 0x40 MLOAD DUP1 PUSH1 0x40 ADD PUSH1 0x40 MSTORE DUP1 PUSH1 0x8 DUP2 MSTORE PUSH1 0x20 ADD PUSH32 0x49464220436F696E000000000000000000000000000000000000000000000000 DUP2 MSTORE POP PUSH1 0x40 MLOAD DUP1 PUSH1 0x40 ADD PUSH1 0x40 MSTORE DUP1 PUSH1 0x3 DUP2 MSTORE PUSH1 0x20 ADD PUSH32 0x4946420000000000000000000000000000000000000000000000000000000000 DUP2 MSTORE POP PUSH2 0x290E JUMP JUMPDEST PUSH2 0x1777 PUSH2 0x2924 JUMP JUMPDEST PUSH2 0x177F PUSH2 0x292E JUMP JUMPDEST PUSH2 0x1788 CALLER PUSH2 0x2940 JUMP JUMPDEST PUSH2 0x1790 PUSH2 0x2954 JUMP JUMPDEST PUSH2 0x17A1 CALLER PUSH7 0x38D7EA4C68000 PUSH2 0x2496 JUMP JUMPDEST PUSH1 0x32 SLOAD PUSH1 0x3D DUP2 SWAP1 SSTORE POP PUSH1 0x33 SLOAD PUSH1 0x3E DUP2 SWAP1 SSTORE POP PUSH1 0x1 PUSH1 0x3F PUSH0 CALLER PUSH20 0xFFFFFFFFFFFFFFFFFFFFFFFFFFFFFFFFFFFFFFFF AND PUSH20 0xFFFFFFFFFFFFFFFFFFFFFFFFFFFFFFFFFFFFFFFF AND DUP2 MSTORE PUSH1 0x20 ADD SWAP1 DUP2 MSTORE PUSH1 0x20 ADD PUSH0 KECCAK256 PUSH0 PUSH2 0x100 EXP DUP2 SLOAD DUP2 PUSH1 0xFF MUL NOT AND SWAP1 DUP4 ISZERO ISZERO MUL OR SWAP1 SSTORE POP PUSH1 0x34 SLOAD PUSH1 0x44 DUP2 SWAP1 SSTORE POP PUSH1 0x35 SLOAD PUSH1 0x45 DUP2 SWAP1 SSTORE POP PUSH1 0x36 SLOAD PUSH1 0x46 DUP2 SWAP1 SSTORE POP CALLER PUSH1 0x47 PUSH0 PUSH2 0x100 EXP DUP2 SLOAD DUP2 PUSH20 0xFFFFFFFFFFFFFFFFFFFFFFFFFFFFFFFFFFFFFFFF MUL NOT AND SWAP1 DUP4 PUSH20 0xFFFFFFFFFFFFFFFFFFFFFFFFFFFFFFFFFFFFFFFF AND MUL OR SWAP1 SSTORE POP PUSH1 0x38 SLOAD PUSH1 0x49 DUP2 SWAP1 SSTORE POP PUSH1 0x39 SLOAD PUSH1 0x4A DUP2 SWAP1 SSTORE POP PUSH1 0x3A SLOAD PUSH1 0x4B DUP2 SWAP1 SSTORE POP DUP4 ISZERO PUSH2 0x18D8 JUMPI PUSH0 DUP6 PUSH0 ADD PUSH1 0x8 PUSH2 0x100 EXP DUP2 SLOAD DUP2 PUSH1 0xFF MUL NOT AND SWAP1 DUP4 ISZERO ISZERO MUL OR SWAP1 SSTORE POP PUSH32 0xC7F505B2F371AE2175EE4913F4499E1F2633A7B5936321EED1CDAEB6115181D2 PUSH1 0x1 PUSH1 0x40 MLOAD PUSH2 0x18CF SWAP2 SWAP1 PUSH2 0x427E JUMP JUMPDEST PUSH1 0x40 MLOAD DUP1 SWAP2 SUB SWAP1 LOG1 JUMPDEST POP POP POP POP POP JUMP JUMPDEST PUSH2 0x18E7 PUSH2 0x21EC JUMP JUMPDEST PUSH2 0x18EF PUSH2 0x295E JUMP JUMPDEST JUMP JUMPDEST PUSH2 0x18F9 PUSH2 0x21EC JUMP JUMPDEST DUP1 PUSH1 0x4B DUP2 SWAP1 SSTORE POP POP JUMP JUMPDEST PUSH0 PUSH0 PUSH2 0x190D PUSH2 0x29BF JUMP JUMPDEST SWAP1 POP DUP1 PUSH0 ADD PUSH0 SWAP1 SLOAD SWAP1 PUSH2 0x100 EXP SWAP1 DIV PUSH20 0xFFFFFFFFFFFFFFFFFFFFFFFFFFFFFFFFFFFFFFFF AND SWAP2 POP POP SWAP1 JUMP JUMPDEST PUSH2 0x1940 PUSH2 0x21EC JUMP JUMPDEST DUP1 PUSH1 0x47 PUSH0 PUSH2 0x100 EXP DUP2 SLOAD DUP2 PUSH20 0xFFFFFFFFFFFFFFFFFFFFFFFFFFFFFFFFFFFFFFFF MUL NOT AND SWAP1 DUP4 PUSH20 0xFFFFFFFFFFFFFFFFFFFFFFFFFFFFFFFFFFFFFFFF AND MUL OR SWAP1 SSTORE POP POP JUMP JUMPDEST PUSH1 0x60 PUSH0 PUSH2 0x198E PUSH2 0x2273 JUMP JUMPDEST SWAP1 POP DUP1 PUSH1 0x4 ADD DUP1 SLOAD PUSH2 0x199F SWAP1 PUSH2 0x409A JUMP JUMPDEST DUP1 PUSH1 0x1F ADD PUSH1 0x20 DUP1 SWAP2 DIV MUL PUSH1 0x20 ADD PUSH1 0x40 MLOAD SWAP1 DUP2 ADD PUSH1 0x40 MSTORE DUP1 SWAP3 SWAP2 SWAP1 DUP2 DUP2 MSTORE PUSH1 0x20 ADD DUP3 DUP1 SLOAD PUSH2 0x19CB SWAP1 PUSH2 0x409A JUMP JUMPDEST DUP1 ISZERO PUSH2 0x1A16 JUMPI DUP1 PUSH1 0x1F LT PUSH2 0x19ED JUMPI PUSH2 0x100 DUP1 DUP4 SLOAD DIV MUL DUP4 MSTORE SWAP2 PUSH1 0x20 ADD SWAP2 PUSH2 0x1A16 JUMP JUMPDEST DUP3 ADD SWAP2 SWAP1 PUSH0 MSTORE PUSH1 0x20 PUSH0 KECCAK256 SWAP1 JUMPDEST DUP2 SLOAD DUP2 MSTORE SWAP1 PUSH1 0x1 ADD SWAP1 PUSH1 0x20 ADD DUP1 DUP4 GT PUSH2 0x19F9 JUMPI DUP3 SWAP1 SUB PUSH1 0x1F AND DUP3 ADD SWAP2 JUMPDEST POP POP POP POP POP SWAP2 POP POP SWAP1 JUMP JUMPDEST PUSH1 0x3B SLOAD DUP2 JUMP JUMPDEST PUSH1 0x4C PUSH1 0x20 MSTORE DUP1 PUSH0 MSTORE PUSH1 0x40 PUSH0 KECCAK256 PUSH0 SWAP2 POP SWAP1 POP SLOAD DUP2 JUMP JUMPDEST PUSH2 0x1A44 PUSH2 0x21EC JUMP JUMPDEST DUP1 PUSH1 0x4C PUSH0 DUP5 PUSH20 0xFFFFFFFFFFFFFFFFFFFFFFFFFFFFFFFFFFFFFFFF AND PUSH20 0xFFFFFFFFFFFFFFFFFFFFFFFFFFFFFFFFFFFFFFFF AND DUP2 MSTORE PUSH1 0x20 ADD SWAP1 DUP2 MSTORE PUSH1 0x20 ADD PUSH0 KECCAK256 DUP2 SWAP1 SSTORE POP POP POP JUMP JUMPDEST PUSH1 0x4E PUSH1 0x20 MSTORE DUP1 PUSH0 MSTORE PUSH1 0x40 PUSH0 KECCAK256 PUSH0 SWAP2 POP SLOAD SWAP1 PUSH2 0x100 EXP SWAP1 DIV PUSH1 0xFF AND DUP2 JUMP JUMPDEST PUSH0 PUSH0 PUSH2 0x1AB1 PUSH2 0x229A JUMP JUMPDEST SWAP1 POP PUSH2 0x1ABE DUP2 DUP6 DUP6 PUSH2 0x2346 JUMP JUMPDEST PUSH1 0x1 SWAP2 POP POP SWAP3 SWAP2 POP POP JUMP JUMPDEST PUSH1 0x49 SLOAD DUP2 JUMP JUMPDEST PUSH1 0x40 MLOAD DUP1 PUSH1 0x40 ADD PUSH1 0x40 MSTORE DUP1 PUSH1 0x5 DUP2 MSTORE PUSH1 0x20 ADD PUSH32 0x352E302E30000000000000000000000000000000000000000000000000000000 DUP2 MSTORE POP DUP2 JUMP JUMPDEST PUSH1 0x4D PUSH1 0x20 MSTORE DUP1 PUSH0 MSTORE PUSH1 0x40 PUSH0 KECCAK256 PUSH0 SWAP2 POP SWAP1 POP SLOAD DUP2 JUMP JUMPDEST PUSH1 0x46 SLOAD DUP2 JUMP JUMPDEST PUSH0 PUSH0 PUSH1 0x4C PUSH0 DUP5 PUSH20 0xFFFFFFFFFFFFFFFFFFFFFFFFFFFFFFFFFFFFFFFF AND PUSH20 0xFFFFFFFFFFFFFFFFFFFFFFFFFFFFFFFFFFFFFFFF AND DUP2 MSTORE PUSH1 0x20 ADD SWAP1 DUP2 MSTORE PUSH1 0x20 ADD PUSH0 KECCAK256 SLOAD GT ISZERO PUSH2 0x1BDD JUMPI PUSH0 PUSH1 0x4C PUSH0 DUP5 PUSH20 0xFFFFFFFFFFFFFFFFFFFFFFFFFFFFFFFFFFFFFFFF AND PUSH20 0xFFFFFFFFFFFFFFFFFFFFFFFFFFFFFFFFFFFFFFFF AND DUP2 MSTORE PUSH1 0x20 ADD SWAP1 DUP2 MSTORE PUSH1 0x20 ADD PUSH0 KECCAK256 SLOAD SWAP1 POP PUSH6 0x2D79883D2000 PUSH2 0x1BBA DUP5 PUSH2 0x12A7 JUMP JUMPDEST LT PUSH2 0x1BD4 JUMPI PUSH1 0x1 DUP2 PUSH2 0x1BCC SWAP2 SWAP1 PUSH2 0x42C4 JUMP JUMPDEST SWAP2 POP POP PUSH2 0x1BFF JUMP JUMPDEST DUP1 SWAP2 POP POP PUSH2 0x1BFF JUMP JUMPDEST PUSH6 0x2D79883D2000 PUSH2 0x1BED DUP4 PUSH2 0x12A7 JUMP JUMPDEST LT PUSH2 0x1BFB JUMPI PUSH1 0x1 SWAP1 POP PUSH2 0x1BFF JUMP JUMPDEST PUSH0 SWAP1 POP JUMPDEST SWAP2 SWAP1 POP JUMP JUMPDEST PUSH0 PUSH1 0x48 PUSH0 CALLER PUSH20 0xFFFFFFFFFFFFFFFFFFFFFFFFFFFFFFFFFFFFFFFF AND PUSH20 0xFFFFFFFFFFFFFFFFFFFFFFFFFFFFFFFFFFFFFFFF AND DUP2 MSTORE PUSH1 0x20 ADD SWAP1 DUP2 MSTORE PUSH1 0x20 ADD PUSH0 KECCAK256 SWAP1 POP PUSH0 DUP2 PUSH0 ADD SLOAD GT PUSH2 0x1C89 JUMPI PUSH1 0x40 MLOAD PUSH32 0x8C379A000000000000000000000000000000000000000000000000000000000 DUP2 MSTORE PUSH1 0x4 ADD PUSH2 0x1C80 SWAP1 PUSH2 0x4341 JUMP JUMPDEST PUSH1 0x40 MLOAD DUP1 SWAP2 SUB SWAP1 REVERT JUMPDEST PUSH0 DUP2 PUSH0 ADD SLOAD SWAP1 POP PUSH0 PUSH0 SWAP1 POP DUP3 PUSH1 0x2 ADD SLOAD DUP4 PUSH1 0x1 ADD SLOAD PUSH2 0x1CA8 SWAP2 SWAP1 PUSH2 0x42C4 JUMP JUMPDEST TIMESTAMP LT PUSH2 0x1DC5 JUMPI PUSH0 PUSH4 0x1E13380 DUP5 PUSH1 0x2 ADD SLOAD EQ PUSH2 0x1CC6 JUMPI PUSH1 0x4A SLOAD PUSH2 0x1CCA JUMP JUMPDEST PUSH1 0x49 SLOAD JUMPDEST SWAP1 POP PUSH3 0x37B1D0 PUSH3 0x15180 DUP6 PUSH1 0x2 ADD SLOAD PUSH2 0x1CE3 SWAP2 SWAP1 PUSH2 0x438C JUMP JUMPDEST DUP3 DUP6 PUSH2 0x1CEF SWAP2 SWAP1 PUSH2 0x43BC JUMP JUMPDEST PUSH2 0x1CF9 SWAP2 SWAP1 PUSH2 0x43BC JUMP JUMPDEST PUSH2 0x1D03 SWAP2 SWAP1 PUSH2 0x438C JUMP JUMPDEST SWAP2 POP PUSH1 0x48 PUSH0 CALLER PUSH20 0xFFFFFFFFFFFFFFFFFFFFFFFFFFFFFFFFFFFFFFFF AND PUSH20 0xFFFFFFFFFFFFFFFFFFFFFFFFFFFFFFFFFFFFFFFF AND DUP2 MSTORE PUSH1 0x20 ADD SWAP1 DUP2 MSTORE PUSH1 0x20 ADD PUSH0 KECCAK256 PUSH0 PUSH0 DUP3 ADD PUSH0 SWAP1 SSTORE PUSH1 0x1 DUP3 ADD PUSH0 SWAP1 SSTORE PUSH1 0x2 DUP3 ADD PUSH0 SWAP1 SSTORE POP POP PUSH2 0x1D6F ADDRESS CALLER DUP5 DUP7 PUSH2 0x1D6A SWAP2 SWAP1 PUSH2 0x42C4 JUMP JUMPDEST PUSH2 0x2346 JUMP JUMPDEST CALLER PUSH20 0xFFFFFFFFFFFFFFFFFFFFFFFFFFFFFFFFFFFFFFFF AND PUSH32 0x92CCF450A286A957AF52509BC1C9939D1A6A481783E142E41E2499F0BB66EBC6 DUP5 DUP5 PUSH1 0x40 MLOAD PUSH2 0x1DB7 SWAP3 SWAP2 SWAP1 PUSH2 0x4202 JUMP JUMPDEST PUSH1 0x40 MLOAD DUP1 SWAP2 SUB SWAP1 LOG2 POP PUSH2 0x1EA2 JUMP JUMPDEST PUSH0 PUSH2 0x2710 PUSH1 0x4B SLOAD DUP5 PUSH2 0x1DD7 SWAP2 SWAP1 PUSH2 0x43BC JUMP JUMPDEST PUSH2 0x1DE1 SWAP2 SWAP1 PUSH2 0x438C JUMP JUMPDEST SWAP1 POP PUSH0 DUP2 DUP5 PUSH2 0x1DF0 SWAP2 SWAP1 PUSH2 0x43FD JUMP JUMPDEST SWAP1 POP PUSH1 0x48 PUSH0 CALLER PUSH20 0xFFFFFFFFFFFFFFFFFFFFFFFFFFFFFFFFFFFFFFFF AND PUSH20 0xFFFFFFFFFFFFFFFFFFFFFFFFFFFFFFFFFFFFFFFF AND DUP2 MSTORE PUSH1 0x20 ADD SWAP1 DUP2 MSTORE PUSH1 0x20 ADD PUSH0 KECCAK256 PUSH0 PUSH0 DUP3 ADD PUSH0 SWAP1 SSTORE PUSH1 0x1 DUP3 ADD PUSH0 SWAP1 SSTORE PUSH1 0x2 DUP3 ADD PUSH0 SWAP1 SSTORE POP POP PUSH2 0x1E51 ADDRESS CALLER DUP4 PUSH2 0x2346 JUMP JUMPDEST CALLER PUSH20 0xFFFFFFFFFFFFFFFFFFFFFFFFFFFFFFFFFFFFFFFF AND PUSH32 0xA01872B0085BBAA15BF32794778B2571B2ADC9F0A20850653EE9F094F8E9C096 DUP3 PUSH1 0x40 MLOAD PUSH2 0x1E97 SWAP2 SWAP1 PUSH2 0x3C32 JUMP JUMPDEST PUSH1 0x40 MLOAD DUP1 SWAP2 SUB SWAP1 LOG2 POP POP JUMPDEST POP POP POP JUMP JUMPDEST PUSH1 0x3F PUSH1 0x20 MSTORE DUP1 PUSH0 MSTORE PUSH1 0x40 PUSH0 KECCAK256 PUSH0 SWAP2 POP SLOAD SWAP1 PUSH2 0x100 EXP SWAP1 DIV PUSH1 0xFF AND DUP2 JUMP JUMPDEST PUSH2 0x1ECC PUSH2 0x21EC JUMP JUMPDEST DUP3 PUSH1 0x44 DUP2 SWAP1 SSTORE POP DUP2 PUSH1 0x45 DUP2 SWAP1 SSTORE POP DUP1 PUSH1 0x46 DUP2 SWAP1 SSTORE POP POP POP POP JUMP JUMPDEST PUSH1 0x3D SLOAD DUP2 JUMP JUMPDEST PUSH1 0x45 SLOAD DUP2 JUMP JUMPDEST PUSH1 0x34 SLOAD DUP2 JUMP JUMPDEST PUSH0 PUSH0 PUSH2 0x1F02 PUSH2 0x2273 JUMP JUMPDEST SWAP1 POP DUP1 PUSH1 0x1 ADD PUSH0 DUP6 PUSH20 0xFFFFFFFFFFFFFFFFFFFFFFFFFFFFFFFFFFFFFFFF AND PUSH20 0xFFFFFFFFFFFFFFFFFFFFFFFFFFFFFFFFFFFFFFFF AND DUP2 MSTORE PUSH1 0x20 ADD SWAP1 DUP2 MSTORE PUSH1 0x20 ADD PUSH0 KECCAK256 PUSH0 DUP5 PUSH20 0xFFFFFFFFFFFFFFFFFFFFFFFFFFFFFFFFFFFFFFFF AND PUSH20 0xFFFFFFFFFFFFFFFFFFFFFFFFFFFFFFFFFFFFFFFF AND DUP2 MSTORE PUSH1 0x20 ADD SWAP1 DUP2 MSTORE PUSH1 0x20 ADD PUSH0 KECCAK256 SLOAD SWAP2 POP POP SWAP3 SWAP2 POP POP JUMP JUMPDEST PUSH1 0x36 SLOAD DUP2 JUMP JUMPDEST PUSH1 0x4F PUSH1 0x20 MSTORE DUP1 PUSH0 MSTORE PUSH1 0x40 PUSH0 KECCAK256 PUSH0 SWAP2 POP SLOAD SWAP1 PUSH2 0x100 EXP SWAP1 DIV PUSH1 0xFF AND DUP2 JUMP JUMPDEST PUSH2 0x1FB3 PUSH2 0x21EC JUMP JUMPDEST DUP1 PUSH1 0x3D DUP2 SWAP1 SSTORE POP POP JUMP JUMPDEST PUSH2 0x1FC5 PUSH2 0x21EC JUMP JUMPDEST DUP1 PUSH1 0x4E PUSH0 DUP5 PUSH20 0xFFFFFFFFFFFFFFFFFFFFFFFFFFFFFFFFFFFFFFFF AND PUSH20 0xFFFFFFFFFFFFFFFFFFFFFFFFFFFFFFFFFFFFFFFF AND DUP2 MSTORE PUSH1 0x20 ADD SWAP1 DUP2 MSTORE PUSH1 0x20 ADD PUSH0 KECCAK256 PUSH0 PUSH2 0x100 EXP DUP2 SLOAD DUP2 PUSH1 0xFF MUL NOT AND SWAP1 DUP4 ISZERO ISZERO MUL OR SWAP1 SSTORE POP POP POP JUMP JUMPDEST PUSH1 0x47 PUSH0 SWAP1 SLOAD SWAP1 PUSH2 0x100 EXP SWAP1 DIV PUSH20 0xFFFFFFFFFFFFFFFFFFFFFFFFFFFFFFFFFFFFFFFF AND DUP2 JUMP JUMPDEST PUSH2 0x204A PUSH2 0x21EC JUMP JUMPDEST PUSH0 PUSH20 0xFFFFFFFFFFFFFFFFFFFFFFFFFFFFFFFFFFFFFFFF AND DUP2 PUSH20 0xFFFFFFFFFFFFFFFFFFFFFFFFFFFFFFFFFFFFFFFF AND SUB PUSH2 0x20BA JUMPI PUSH0 PUSH1 0x40 MLOAD PUSH32 0x1E4FBDF700000000000000000000000000000000000000000000000000000000 DUP2 MSTORE PUSH1 0x4 ADD PUSH2 0x20B1 SWAP2 SWAP1 PUSH2 0x3FC6 JUMP JUMPDEST PUSH1 0x40 MLOAD DUP1 SWAP2 SUB SWAP1 REVERT JUMPDEST PUSH2 0x20C3 DUP2 PUSH2 0x282A JUMP JUMPDEST POP JUMP JUMPDEST PUSH1 0x39 SLOAD DUP2 JUMP JUMPDEST PUSH2 0x20D4 PUSH2 0x21EC JUMP JUMPDEST DUP1 PUSH1 0x4F PUSH0 DUP5 PUSH20 0xFFFFFFFFFFFFFFFFFFFFFFFFFFFFFFFFFFFFFFFF AND PUSH20 0xFFFFFFFFFFFFFFFFFFFFFFFFFFFFFFFFFFFFFFFF AND DUP2 MSTORE PUSH1 0x20 ADD SWAP1 DUP2 MSTORE PUSH1 0x20 ADD PUSH0 KECCAK256 PUSH0 PUSH2 0x100 EXP DUP2 SLOAD DUP2 PUSH1 0xFF MUL NOT AND SWAP1 DUP4 ISZERO ISZERO MUL OR SWAP1 SSTORE POP POP POP JUMP JUMPDEST PUSH2 0x2134 PUSH2 0x21EC JUMP JUMPDEST PUSH1 0x1 PUSH1 0x3C PUSH0 DUP4 PUSH20 0xFFFFFFFFFFFFFFFFFFFFFFFFFFFFFFFFFFFFFFFF AND PUSH20 0xFFFFFFFFFFFFFFFFFFFFFFFFFFFFFFFFFFFFFFFF AND DUP2 MSTORE PUSH1 0x20 ADD SWAP1 DUP2 MSTORE PUSH1 0x20 ADD PUSH0 KECCAK256 PUSH0 PUSH2 0x100 EXP DUP2 SLOAD DUP2 PUSH1 0xFF MUL NOT AND SWAP1 DUP4 ISZERO ISZERO MUL OR SWAP1 SSTORE POP DUP1 PUSH20 0xFFFFFFFFFFFFFFFFFFFFFFFFFFFFFFFFFFFFFFFF AND PUSH32 0xDAF49AB9345B6CB75BCB5A7F726BFF9183C34DCF5C098C385730F9FD893765F6 PUSH1 0x40 MLOAD PUSH1 0x40 MLOAD DUP1 SWAP2 SUB SWAP1 LOG2 POP JUMP JUMPDEST PUSH1 0x3C PUSH1 0x20 MSTORE DUP1 PUSH0 MSTORE PUSH1 0x40 PUSH0 KECCAK256 PUSH0 SWAP2 POP SLOAD SWAP1 PUSH2 0x100 EXP SWAP1 DIV PUSH1 0xFF AND DUP2 JUMP JUMPDEST PUSH2 0x21F4 PUSH2 0x229A JUMP JUMPDEST PUSH20 0xFFFFFFFFFFFFFFFFFFFFFFFFFFFFFFFFFFFFFFFF AND PUSH2 0x2212 PUSH2 0x1903 JUMP JUMPDEST PUSH20 0xFFFFFFFFFFFFFFFFFFFFFFFFFFFFFFFFFFFFFFFF AND EQ PUSH2 0x2271 JUMPI PUSH2 0x2235 PUSH2 0x229A JUMP JUMPDEST PUSH1 0x40 MLOAD PUSH32 0x118CDAA700000000000000000000000000000000000000000000000000000000 DUP2 MSTORE PUSH1 0x4 ADD PUSH2 0x2268 SWAP2 SWAP1 PUSH2 0x3FC6 JUMP JUMPDEST PUSH1 0x40 MLOAD DUP1 SWAP2 SUB SWAP1 REVERT JUMPDEST JUMP JUMPDEST PUSH0 PUSH32 0x52C63247E1F47DB19D5CE0460030C497F067CA4CEBF71BA98EEADABE20BACE00 SWAP1 POP SWAP1 JUMP JUMPDEST PUSH0 CALLER SWAP1 POP SWAP1 JUMP JUMPDEST PUSH2 0x22AE DUP4 DUP4 DUP4 PUSH1 0x1 PUSH2 0x29E6 JUMP JUMPDEST POP POP POP JUMP JUMPDEST PUSH0 PUSH2 0x22BE DUP5 DUP5 PUSH2 0x1EF8 JUMP JUMPDEST SWAP1 POP PUSH32 0xFFFFFFFFFFFFFFFFFFFFFFFFFFFFFFFFFFFFFFFFFFFFFFFFFFFFFFFFFFFFFFFF DUP2 LT ISZERO PUSH2 0x2340 JUMPI DUP2 DUP2 LT ISZERO PUSH2 0x2331 JUMPI DUP3 DUP2 DUP4 PUSH1 0x40 MLOAD PUSH32 0xFB8F41B200000000000000000000000000000000000000000000000000000000 DUP2 MSTORE PUSH1 0x4 ADD PUSH2 0x2328 SWAP4 SWAP3 SWAP2 SWAP1 PUSH2 0x4430 JUMP JUMPDEST PUSH1 0x40 MLOAD DUP1 SWAP2 SUB SWAP1 REVERT JUMPDEST PUSH2 0x233F DUP5 DUP5 DUP5 DUP5 SUB PUSH0 PUSH2 0x29E6 JUMP JUMPDEST JUMPDEST POP POP POP POP JUMP JUMPDEST PUSH0 PUSH20 0xFFFFFFFFFFFFFFFFFFFFFFFFFFFFFFFFFFFFFFFF AND DUP4 PUSH20 0xFFFFFFFFFFFFFFFFFFFFFFFFFFFFFFFFFFFFFFFF AND SUB PUSH2 0x23B6 JUMPI PUSH0 PUSH1 0x40 MLOAD PUSH32 0x96C6FD1E00000000000000000000000000000000000000000000000000000000 DUP2 MSTORE PUSH1 0x4 ADD PUSH2 0x23AD SWAP2 SWAP1 PUSH2 0x3FC6 JUMP JUMPDEST PUSH1 0x40 MLOAD DUP1 SWAP2 SUB SWAP1 REVERT JUMPDEST PUSH0 PUSH20 0xFFFFFFFFFFFFFFFFFFFFFFFFFFFFFFFFFFFFFFFF AND DUP3 PUSH20 0xFFFFFFFFFFFFFFFFFFFFFFFFFFFFFFFFFFFFFFFF AND SUB PUSH2 0x2426 JUMPI PUSH0 PUSH1 0x40 MLOAD PUSH32 0xEC442F0500000000000000000000000000000000000000000000000000000000 DUP2 MSTORE PUSH1 0x4 ADD PUSH2 0x241D SWAP2 SWAP1 PUSH2 0x3FC6 JUMP JUMPDEST PUSH1 0x40 MLOAD DUP1 SWAP2 SUB SWAP1 REVERT JUMPDEST PUSH2 0x2431 DUP4 DUP4 DUP4 PUSH2 0x2BC3 JUMP JUMPDEST POP POP POP JUMP JUMPDEST PUSH2 0x243E PUSH2 0x2BDE JUMP JUMPDEST PUSH0 PUSH0 PUSH0 PUSH2 0x100 EXP DUP2 SLOAD DUP2 PUSH1 0xFF MUL NOT AND SWAP1 DUP4 ISZERO ISZERO MUL OR SWAP1 SSTORE POP PUSH32 0x5DB9EE0A495BF2E6FF9C91A7834C1BA4FDD244A5E8AA4E537BD38AEAE4B073AA PUSH2 0x247F PUSH2 0x229A JUMP JUMPDEST PUSH1 0x40 MLOAD PUSH2 0x248C SWAP2 SWAP1 PUSH2 0x3FC6 JUMP JUMPDEST PUSH1 0x40 MLOAD DUP1 SWAP2 SUB SWAP1 LOG1 JUMP JUMPDEST PUSH0 PUSH20 0xFFFFFFFFFFFFFFFFFFFFFFFFFFFFFFFFFFFFFFFF AND DUP3 PUSH20 0xFFFFFFFFFFFFFFFFFFFFFFFFFFFFFFFFFFFFFFFF AND SUB PUSH2 0x2506 JUMPI PUSH0 PUSH1 0x40 MLOAD PUSH32 0xEC442F0500000000000000000000000000000000000000000000000000000000 DUP2 MSTORE PUSH1 0x4 ADD PUSH2 0x24FD SWAP2 SWAP1 PUSH2 0x3FC6 JUMP JUMPDEST PUSH1 0x40 MLOAD DUP1 SWAP2 SUB SWAP1 REVERT JUMPDEST PUSH2 0x2511 PUSH0 DUP4 DUP4 PUSH2 0x2BC3 JUMP JUMPDEST POP POP JUMP JUMPDEST PUSH0 PUSH20 0xFFFFFFFFFFFFFFFFFFFFFFFFFFFFFFFFFFFFFFFF AND DUP3 PUSH20 0xFFFFFFFFFFFFFFFFFFFFFFFFFFFFFFFFFFFFFFFF AND SUB PUSH2 0x2585 JUMPI PUSH0 PUSH1 0x40 MLOAD PUSH32 0x96C6FD1E00000000000000000000000000000000000000000000000000000000 DUP2 MSTORE PUSH1 0x4 ADD PUSH2 0x257C SWAP2 SWAP1 PUSH2 0x3FC6 JUMP JUMPDEST PUSH1 0x40 MLOAD DUP1 SWAP2 SUB SWAP1 REVERT JUMPDEST PUSH2 0x2590 DUP3 PUSH0 DUP4 PUSH2 0x2BC3 JUMP JUMPDEST POP POP JUMP JUMPDEST PUSH32 0x0 PUSH20 0xFFFFFFFFFFFFFFFFFFFFFFFFFFFFFFFFFFFFFFFF AND ADDRESS PUSH20 0xFFFFFFFFFFFFFFFFFFFFFFFFFFFFFFFFFFFFFFFF AND EQ DUP1 PUSH2 0x2641 JUMPI POP PUSH32 0x0 PUSH20 0xFFFFFFFFFFFFFFFFFFFFFFFFFFFFFFFFFFFFFFFF AND PUSH2 0x2628 PUSH2 0x2C27 JUMP JUMPDEST PUSH20 0xFFFFFFFFFFFFFFFFFFFFFFFFFFFFFFFFFFFFFFFF AND EQ ISZERO JUMPDEST ISZERO PUSH2 0x2678 JUMPI PUSH1 0x40 MLOAD PUSH32 0xE07C8DBA00000000000000000000000000000000000000000000000000000000 DUP2 MSTORE PUSH1 0x4 ADD PUSH1 0x40 MLOAD DUP1 SWAP2 SUB SWAP1 REVERT JUMPDEST JUMP JUMPDEST PUSH2 0x2682 PUSH2 0x21EC JUMP JUMPDEST POP JUMP JUMPDEST DUP2 PUSH20 0xFFFFFFFFFFFFFFFFFFFFFFFFFFFFFFFFFFFFFFFF AND PUSH4 0x52D1902D PUSH1 0x40 MLOAD DUP2 PUSH4 0xFFFFFFFF AND PUSH1 0xE0 SHL DUP2 MSTORE PUSH1 0x4 ADD PUSH1 0x20 PUSH1 0x40 MLOAD DUP1 DUP4 SUB DUP2 DUP7 GAS STATICCALL SWAP3 POP POP POP DUP1 ISZERO PUSH2 0x26ED JUMPI POP PUSH1 0x40 MLOAD RETURNDATASIZE PUSH1 0x1F NOT PUSH1 0x1F DUP3 ADD AND DUP3 ADD DUP1 PUSH1 0x40 MSTORE POP DUP2 ADD SWAP1 PUSH2 0x26EA SWAP2 SWAP1 PUSH2 0x448F JUMP JUMPDEST PUSH1 0x1 JUMPDEST PUSH2 0x272E JUMPI DUP2 PUSH1 0x40 MLOAD PUSH32 0x4C9C8CE300000000000000000000000000000000000000000000000000000000 DUP2 MSTORE PUSH1 0x4 ADD PUSH2 0x2725 SWAP2 SWAP1 PUSH2 0x3FC6 JUMP JUMPDEST PUSH1 0x40 MLOAD DUP1 SWAP2 SUB SWAP1 REVERT JUMPDEST PUSH32 0x360894A13BA1A3210667C828492DB98DCA3E2076CC3735A920A3CA505D382BBC PUSH0 SHL DUP2 EQ PUSH2 0x2794 JUMPI DUP1 PUSH1 0x40 MLOAD PUSH32 0xAA1D49A400000000000000000000000000000000000000000000000000000000 DUP2 MSTORE PUSH1 0x4 ADD PUSH2 0x278B SWAP2 SWAP1 PUSH2 0x3F60 JUMP JUMPDEST PUSH1 0x40 MLOAD DUP1 SWAP2 SUB SWAP1 REVERT JUMPDEST PUSH2 0x279E DUP4 DUP4 PUSH2 0x2C7A JUMP JUMPDEST POP POP POP JUMP JUMPDEST PUSH32 0x0 PUSH20 0xFFFFFFFFFFFFFFFFFFFFFFFFFFFFFFFFFFFFFFFF AND ADDRESS PUSH20 0xFFFFFFFFFFFFFFFFFFFFFFFFFFFFFFFFFFFFFFFF AND EQ PUSH2 0x2828 JUMPI PUSH1 0x40 MLOAD PUSH32 0xE07C8DBA00000000000000000000000000000000000000000000000000000000 DUP2 MSTORE PUSH1 0x4 ADD PUSH1 0x40 MLOAD DUP1 SWAP2 SUB SWAP1 REVERT JUMPDEST JUMP JUMPDEST PUSH0 PUSH2 0x2833 PUSH2 0x29BF JUMP JUMPDEST SWAP1 POP PUSH0 DUP2 PUSH0 ADD PUSH0 SWAP1 SLOAD SWAP1 PUSH2 0x100 EXP SWAP1 DIV PUSH20 0xFFFFFFFFFFFFFFFFFFFFFFFFFFFFFFFFFFFFFFFF AND SWAP1 POP DUP3 DUP3 PUSH0 ADD PUSH0 PUSH2 0x100 EXP DUP2 SLOAD DUP2 PUSH20 0xFFFFFFFFFFFFFFFFFFFFFFFFFFFFFFFFFFFFFFFF MUL NOT AND SWAP1 DUP4 PUSH20 0xFFFFFFFFFFFFFFFFFFFFFFFFFFFFFFFFFFFFFFFF AND MUL OR SWAP1 SSTORE POP DUP3 PUSH20 0xFFFFFFFFFFFFFFFFFFFFFFFFFFFFFFFFFFFFFFFF AND DUP2 PUSH20 0xFFFFFFFFFFFFFFFFFFFFFFFFFFFFFFFFFFFFFFFF AND PUSH32 0x8BE0079C531659141344CD1FD0A4F28419497F9722A3DAAFE3B4186F6B6457E0 PUSH1 0x40 MLOAD PUSH1 0x40 MLOAD DUP1 SWAP2 SUB SWAP1 LOG3 POP POP POP JUMP JUMPDEST PUSH0 PUSH0 PUSH2 0x2905 PUSH2 0x2CEC JUMP JUMPDEST SWAP1 POP DUP1 SWAP2 POP POP SWAP1 JUMP JUMPDEST PUSH2 0x2916 PUSH2 0x2D15 JUMP JUMPDEST PUSH2 0x2920 DUP3 DUP3 PUSH2 0x2D55 JUMP JUMPDEST POP POP JUMP JUMPDEST PUSH2 0x292C PUSH2 0x2D15 JUMP JUMPDEST JUMP JUMPDEST PUSH2 0x2936 PUSH2 0x2D15 JUMP JUMPDEST PUSH2 0x293E PUSH2 0x2D91 JUMP JUMPDEST JUMP JUMPDEST PUSH2 0x2948 PUSH2 0x2D15 JUMP JUMPDEST PUSH2 0x2951 DUP2 PUSH2 0x2DB3 JUMP JUMPDEST POP JUMP JUMPDEST PUSH2 0x295C PUSH2 0x2D15 JUMP JUMPDEST JUMP JUMPDEST PUSH2 0x2966 PUSH2 0x2E37 JUMP JUMPDEST PUSH1 0x1 PUSH0 PUSH0 PUSH2 0x100 EXP DUP2 SLOAD DUP2 PUSH1 0xFF MUL NOT AND SWAP1 DUP4 ISZERO ISZERO MUL OR SWAP1 SSTORE POP PUSH32 0x62E78CEA01BEE320CD4E420270B5EA74000D11B0C9F74754EBDBFC544B05A258 PUSH2 0x29A8 PUSH2 0x229A JUMP JUMPDEST PUSH1 0x40 MLOAD PUSH2 0x29B5 SWAP2 SWAP1 PUSH2 0x3FC6 JUMP JUMPDEST PUSH1 0x40 MLOAD DUP1 SWAP2 SUB SWAP1 LOG1 JUMP JUMPDEST PUSH0 PUSH32 0x9016D09D72D40FDAE2FD8CEAC6B6234C7706214FD39C1CD1E609A0528C199300 SWAP1 POP SWAP1 JUMP JUMPDEST PUSH0 PUSH2 0x29EF PUSH2 0x2273 JUMP JUMPDEST SWAP1 POP PUSH0 PUSH20 0xFFFFFFFFFFFFFFFFFFFFFFFFFFFFFFFFFFFFFFFF AND DUP6 PUSH20 0xFFFFFFFFFFFFFFFFFFFFFFFFFFFFFFFFFFFFFFFF AND SUB PUSH2 0x2A61 JUMPI PUSH0 PUSH1 0x40 MLOAD PUSH32 0xE602DF0500000000000000000000000000000000000000000000000000000000 DUP2 MSTORE PUSH1 0x4 ADD PUSH2 0x2A58 SWAP2 SWAP1 PUSH2 0x3FC6 JUMP JUMPDEST PUSH1 0x40 MLOAD DUP1 SWAP2 SUB SWAP1 REVERT JUMPDEST PUSH0 PUSH20 0xFFFFFFFFFFFFFFFFFFFFFFFFFFFFFFFFFFFFFFFF AND DUP5 PUSH20 0xFFFFFFFFFFFFFFFFFFFFFFFFFFFFFFFFFFFFFFFF AND SUB PUSH2 0x2AD1 JUMPI PUSH0 PUSH1 0x40 MLOAD PUSH32 0x94280D6200000000000000000000000000000000000000000000000000000000 DUP2 MSTORE PUSH1 0x4 ADD PUSH2 0x2AC8 SWAP2 SWAP1 PUSH2 0x3FC6 JUMP JUMPDEST PUSH1 0x40 MLOAD DUP1 SWAP2 SUB SWAP1 REVERT JUMPDEST DUP3 DUP2 PUSH1 0x1 ADD PUSH0 DUP8 PUSH20 0xFFFFFFFFFFFFFFFFFFFFFFFFFFFFFFFFFFFFFFFF AND PUSH20 0xFFFFFFFFFFFFFFFFFFFFFFFFFFFFFFFFFFFFFFFF AND DUP2 MSTORE PUSH1 0x20 ADD SWAP1 DUP2 MSTORE PUSH1 0x20 ADD PUSH0 KECCAK256 PUSH0 DUP7 PUSH20 0xFFFFFFFFFFFFFFFFFFFFFFFFFFFFFFFFFFFFFFFF AND PUSH20 0xFFFFFFFFFFFFFFFFFFFFFFFFFFFFFFFFFFFFFFFF AND DUP2 MSTORE PUSH1 0x20 ADD SWAP1 DUP2 MSTORE PUSH1 0x20 ADD PUSH0 KECCAK256 DUP2 SWAP1 SSTORE POP DUP2 ISZERO PUSH2 0x2BBC JUMPI DUP4 PUSH20 0xFFFFFFFFFFFFFFFFFFFFFFFFFFFFFFFFFFFFFFFF AND DUP6 PUSH20 0xFFFFFFFFFFFFFFFFFFFFFFFFFFFFFFFFFFFFFFFF AND PUSH32 0x8C5BE1E5EBEC7D5BD14F71427D1E84F3DD0314C0F7B2291E5B200AC8C7C3B925 DUP6 PUSH1 0x40 MLOAD PUSH2 0x2BB3 SWAP2 SWAP1 PUSH2 0x3C32 JUMP JUMPDEST PUSH1 0x40 MLOAD DUP1 SWAP2 SUB SWAP1 LOG3 JUMPDEST POP POP POP POP POP JUMP JUMPDEST PUSH2 0x2BCE DUP4 DUP4 DUP4 PUSH2 0x2E81 JUMP JUMPDEST PUSH2 0x2BD9 DUP4 DUP4 DUP4 PUSH2 0x31BE JUMP JUMPDEST POP POP POP JUMP JUMPDEST PUSH2 0x2BE6 PUSH2 0x1254 JUMP JUMPDEST PUSH2 0x2C25 JUMPI PUSH1 0x40 MLOAD PUSH32 0x8C379A000000000000000000000000000000000000000000000000000000000 DUP2 MSTORE PUSH1 0x4 ADD PUSH2 0x2C1C SWAP1 PUSH2 0x4504 JUMP JUMPDEST PUSH1 0x40 MLOAD DUP1 SWAP2 SUB SWAP1 REVERT JUMPDEST JUMP JUMPDEST PUSH0 PUSH2 0x2C53 PUSH32 0x360894A13BA1A3210667C828492DB98DCA3E2076CC3735A920A3CA505D382BBC PUSH0 SHL PUSH2 0x33ED JUMP JUMPDEST PUSH0 ADD PUSH0 SWAP1 SLOAD SWAP1 PUSH2 0x100 EXP SWAP1 DIV PUSH20 0xFFFFFFFFFFFFFFFFFFFFFFFFFFFFFFFFFFFFFFFF AND SWAP1 POP SWAP1 JUMP JUMPDEST PUSH2 0x2C83 DUP3 PUSH2 0x33F6 JUMP JUMPDEST DUP2 PUSH20 0xFFFFFFFFFFFFFFFFFFFFFFFFFFFFFFFFFFFFFFFF AND PUSH32 0xBC7CD75A20EE27FD9ADEBAB32041F755214DBC6BFFA90CC0225B39DA2E5C2D3B PUSH1 0x40 MLOAD PUSH1 0x40 MLOAD DUP1 SWAP2 SUB SWAP1 LOG2 PUSH0 DUP2 MLOAD GT ISZERO PUSH2 0x2CDF JUMPI PUSH2 0x2CD9 DUP3 DUP3 PUSH2 0x34BF JUMP JUMPDEST POP PUSH2 0x2CE8 JUMP JUMPDEST PUSH2 0x2CE7 PUSH2 0x353F JUMP JUMPDEST JUMPDEST POP POP JUMP JUMPDEST PUSH0 PUSH32 0xF0C57E16840DF040F15088DC2F81FE391C3923BEC73E23A9662EFC9C229C6A00 PUSH0 SHL SWAP1 POP SWAP1 JUMP JUMPDEST PUSH2 0x2D1D PUSH2 0x357B JUMP JUMPDEST PUSH2 0x2D53 JUMPI PUSH1 0x40 MLOAD PUSH32 0xD7E6BCF800000000000000000000000000000000000000000000000000000000 DUP2 MSTORE PUSH1 0x4 ADD PUSH1 0x40 MLOAD DUP1 SWAP2 SUB SWAP1 REVERT JUMPDEST JUMP JUMPDEST PUSH2 0x2D5D PUSH2 0x2D15 JUMP JUMPDEST PUSH0 PUSH2 0x2D66 PUSH2 0x2273 JUMP JUMPDEST SWAP1 POP DUP3 DUP2 PUSH1 0x3 ADD SWAP1 DUP2 PUSH2 0x2D79 SWAP2 SWAP1 PUSH2 0x46B9 JUMP JUMPDEST POP DUP2 DUP2 PUSH1 0x4 ADD SWAP1 DUP2 PUSH2 0x2D8B SWAP2 SWAP1 PUSH2 0x46B9 JUMP JUMPDEST POP POP POP POP JUMP JUMPDEST PUSH2 0x2D99 PUSH2 0x2D15 JUMP JUMPDEST PUSH0 PUSH0 PUSH0 PUSH2 0x100 EXP DUP2 SLOAD DUP2 PUSH1 0xFF MUL NOT AND SWAP1 DUP4 ISZERO ISZERO MUL OR SWAP1 SSTORE POP JUMP JUMPDEST PUSH2 0x2DBB PUSH2 0x2D15 JUMP JUMPDEST PUSH0 PUSH20 0xFFFFFFFFFFFFFFFFFFFFFFFFFFFFFFFFFFFFFFFF AND DUP2 PUSH20 0xFFFFFFFFFFFFFFFFFFFFFFFFFFFFFFFFFFFFFFFF AND SUB PUSH2 0x2E2B JUMPI PUSH0 PUSH1 0x40 MLOAD PUSH32 0x1E4FBDF700000000000000000000000000000000000000000000000000000000 DUP2 MSTORE PUSH1 0x4 ADD PUSH2 0x2E22 SWAP2 SWAP1 PUSH2 0x3FC6 JUMP JUMPDEST PUSH1 0x40 MLOAD DUP1 SWAP2 SUB SWAP1 REVERT JUMPDEST PUSH2 0x2E34 DUP2 PUSH2 0x282A JUMP JUMPDEST POP JUMP JUMPDEST PUSH2 0x2E3F PUSH2 0x1254 JUMP JUMPDEST ISZERO PUSH2 0x2E7F JUMPI PUSH1 0x40 MLOAD PUSH32 0x8C379A000000000000000000000000000000000000000000000000000000000 DUP2 MSTORE PUSH1 0x4 ADD PUSH2 0x2E76 SWAP1 PUSH2 0x47D2 JUMP JUMPDEST PUSH1 0x40 MLOAD DUP1 SWAP2 SUB SWAP1 REVERT JUMPDEST JUMP JUMPDEST PUSH2 0x2E89 PUSH2 0x1254 JUMP JUMPDEST ISZERO PUSH2 0x2EC9 JUMPI PUSH1 0x40 MLOAD PUSH32 0x8C379A000000000000000000000000000000000000000000000000000000000 DUP2 MSTORE PUSH1 0x4 ADD PUSH2 0x2EC0 SWAP1 PUSH2 0x4860 JUMP JUMPDEST PUSH1 0x40 MLOAD DUP1 SWAP2 SUB SWAP1 REVERT JUMPDEST PUSH1 0x3C PUSH0 DUP5 PUSH20 0xFFFFFFFFFFFFFFFFFFFFFFFFFFFFFFFFFFFFFFFF AND PUSH20 0xFFFFFFFFFFFFFFFFFFFFFFFFFFFFFFFFFFFFFFFF AND DUP2 MSTORE PUSH1 0x20 ADD SWAP1 DUP2 MSTORE PUSH1 0x20 ADD PUSH0 KECCAK256 PUSH0 SWAP1 SLOAD SWAP1 PUSH2 0x100 EXP SWAP1 DIV PUSH1 0xFF AND ISZERO DUP1 ISZERO PUSH2 0x2F67 JUMPI POP PUSH1 0x3C PUSH0 DUP4 PUSH20 0xFFFFFFFFFFFFFFFFFFFFFFFFFFFFFFFFFFFFFFFF AND PUSH20 0xFFFFFFFFFFFFFFFFFFFFFFFFFFFFFFFFFFFFFFFF AND DUP2 MSTORE PUSH1 0x20 ADD SWAP1 DUP2 MSTORE PUSH1 0x20 ADD PUSH0 KECCAK256 PUSH0 SWAP1 SLOAD SWAP1 PUSH2 0x100 EXP SWAP1 DIV PUSH1 0xFF AND ISZERO JUMPDEST PUSH2 0x2FA6 JUMPI PUSH1 0x40 MLOAD PUSH32 0x8C379A000000000000000000000000000000000000000000000000000000000 DUP2 MSTORE PUSH1 0x4 ADD PUSH2 0x2F9D SWAP1 PUSH2 0x48C8 JUMP JUMPDEST PUSH1 0x40 MLOAD DUP1 SWAP2 SUB SWAP1 REVERT JUMPDEST PUSH1 0x4F PUSH0 DUP5 PUSH20 0xFFFFFFFFFFFFFFFFFFFFFFFFFFFFFFFFFFFFFFFF AND PUSH20 0xFFFFFFFFFFFFFFFFFFFFFFFFFFFFFFFFFFFFFFFF AND DUP2 MSTORE PUSH1 0x20 ADD SWAP1 DUP2 MSTORE PUSH1 0x20 ADD PUSH0 KECCAK256 PUSH0 SWAP1 SLOAD SWAP1 PUSH2 0x100 EXP SWAP1 DIV PUSH1 0xFF AND ISZERO DUP1 ISZERO PUSH2 0x3044 JUMPI POP PUSH1 0x4F PUSH0 DUP4 PUSH20 0xFFFFFFFFFFFFFFFFFFFFFFFFFFFFFFFFFFFFFFFF AND PUSH20 0xFFFFFFFFFFFFFFFFFFFFFFFFFFFFFFFFFFFFFFFF AND DUP2 MSTORE PUSH1 0x20 ADD SWAP1 DUP2 MSTORE PUSH1 0x20 ADD PUSH0 KECCAK256 PUSH0 SWAP1 SLOAD SWAP1 PUSH2 0x100 EXP SWAP1 DIV PUSH1 0xFF AND ISZERO JUMPDEST PUSH2 0x3083 JUMPI PUSH1 0x40 MLOAD PUSH32 0x8C379A000000000000000000000000000000000000000000000000000000000 DUP2 MSTORE PUSH1 0x4 ADD PUSH2 0x307A SWAP1 PUSH2 0x4930 JUMP JUMPDEST PUSH1 0x40 MLOAD DUP1 SWAP2 SUB SWAP1 REVERT JUMPDEST PUSH0 PUSH20 0xFFFFFFFFFFFFFFFFFFFFFFFFFFFFFFFFFFFFFFFF AND DUP4 PUSH20 0xFFFFFFFFFFFFFFFFFFFFFFFFFFFFFFFFFFFFFFFF AND EQ DUP1 PUSH2 0x30E8 JUMPI POP PUSH0 PUSH20 0xFFFFFFFFFFFFFFFFFFFFFFFFFFFFFFFFFFFFFFFF AND DUP3 PUSH20 0xFFFFFFFFFFFFFFFFFFFFFFFFFFFFFFFFFFFFFFFF AND EQ JUMPDEST PUSH2 0x31B9 JUMPI TIMESTAMP PUSH1 0x4D PUSH0 DUP6 PUSH20 0xFFFFFFFFFFFFFFFFFFFFFFFFFFFFFFFFFFFFFFFF AND PUSH20 0xFFFFFFFFFFFFFFFFFFFFFFFFFFFFFFFFFFFFFFFF AND DUP2 MSTORE PUSH1 0x20 ADD SWAP1 DUP2 MSTORE PUSH1 0x20 ADD PUSH0 KECCAK256 SLOAD GT ISZERO PUSH2 0x316C JUMPI PUSH1 0x40 MLOAD PUSH32 0x8C379A000000000000000000000000000000000000000000000000000000000 DUP2 MSTORE PUSH1 0x4 ADD PUSH2 0x3163 SWAP1 PUSH2 0x4998 JUMP JUMPDEST PUSH1 0x40 MLOAD DUP1 SWAP2 SUB SWAP1 REVERT JUMPDEST PUSH2 0x3176 DUP4 DUP3 PUSH2 0x3599 JUMP JUMPDEST PUSH0 PUSH2 0x3180 DUP3 PUSH2 0x3964 JUMP JUMPDEST SWAP1 POP PUSH0 DUP2 GT ISZERO PUSH2 0x31B7 JUMPI PUSH2 0x31B6 DUP5 PUSH1 0x47 PUSH0 SWAP1 SLOAD SWAP1 PUSH2 0x100 EXP SWAP1 DIV PUSH20 0xFFFFFFFFFFFFFFFFFFFFFFFFFFFFFFFFFFFFFFFF AND DUP4 PUSH2 0x31BE JUMP JUMPDEST JUMPDEST POP JUMPDEST POP POP POP JUMP JUMPDEST PUSH0 PUSH2 0x31C7 PUSH2 0x2273 JUMP JUMPDEST SWAP1 POP PUSH0 PUSH20 0xFFFFFFFFFFFFFFFFFFFFFFFFFFFFFFFFFFFFFFFF AND DUP5 PUSH20 0xFFFFFFFFFFFFFFFFFFFFFFFFFFFFFFFFFFFFFFFF AND SUB PUSH2 0x321B JUMPI DUP2 DUP2 PUSH1 0x2 ADD PUSH0 DUP3 DUP3 SLOAD PUSH2 0x320F SWAP2 SWAP1 PUSH2 0x42C4 JUMP JUMPDEST SWAP3 POP POP DUP2 SWAP1 SSTORE POP PUSH2 0x32ED JUMP JUMPDEST PUSH0 DUP2 PUSH0 ADD PUSH0 DUP7 PUSH20 0xFFFFFFFFFFFFFFFFFFFFFFFFFFFFFFFFFFFFFFFF AND PUSH20 0xFFFFFFFFFFFFFFFFFFFFFFFFFFFFFFFFFFFFFFFF AND DUP2 MSTORE PUSH1 0x20 ADD SWAP1 DUP2 MSTORE PUSH1 0x20 ADD PUSH0 KECCAK256 SLOAD SWAP1 POP DUP3 DUP2 LT ISZERO PUSH2 0x32A6 JUMPI DUP5 DUP2 DUP5 PUSH1 0x40 MLOAD PUSH32 0xE450D38C00000000000000000000000000000000000000000000000000000000 DUP2 MSTORE PUSH1 0x4 ADD PUSH2 0x329D SWAP4 SWAP3 SWAP2 SWAP1 PUSH2 0x4430 JUMP JUMPDEST PUSH1 0x40 MLOAD DUP1 SWAP2 SUB SWAP1 REVERT JUMPDEST DUP3 DUP2 SUB DUP3 PUSH0 ADD PUSH0 DUP8 PUSH20 0xFFFFFFFFFFFFFFFFFFFFFFFFFFFFFFFFFFFFFFFF AND PUSH20 0xFFFFFFFFFFFFFFFFFFFFFFFFFFFFFFFFFFFFFFFF AND DUP2 MSTORE PUSH1 0x20 ADD SWAP1 DUP2 MSTORE PUSH1 0x20 ADD PUSH0 KECCAK256 DUP2 SWAP1 SSTORE POP POP JUMPDEST PUSH0 PUSH20 0xFFFFFFFFFFFFFFFFFFFFFFFFFFFFFFFFFFFFFFFF AND DUP4 PUSH20 0xFFFFFFFFFFFFFFFFFFFFFFFFFFFFFFFFFFFFFFFF AND SUB PUSH2 0x3336 JUMPI DUP2 DUP2 PUSH1 0x2 ADD PUSH0 DUP3 DUP3 SLOAD SUB SWAP3 POP POP DUP2 SWAP1 SSTORE POP PUSH2 0x3382 JUMP JUMPDEST DUP2 DUP2 PUSH0 ADD PUSH0 DUP6 PUSH20 0xFFFFFFFFFFFFFFFFFFFFFFFFFFFFFFFFFFFFFFFF AND PUSH20 0xFFFFFFFFFFFFFFFFFFFFFFFFFFFFFFFFFFFFFFFF AND DUP2 MSTORE PUSH1 0x20 ADD SWAP1 DUP2 MSTORE PUSH1 0x20 ADD PUSH0 KECCAK256 PUSH0 DUP3 DUP3 SLOAD ADD SWAP3 POP POP DUP2 SWAP1 SSTORE POP JUMPDEST DUP3 PUSH20 0xFFFFFFFFFFFFFFFFFFFFFFFFFFFFFFFFFFFFFFFF AND DUP5 PUSH20 0xFFFFFFFFFFFFFFFFFFFFFFFFFFFFFFFFFFFFFFFF AND PUSH32 0xDDF252AD1BE2C89B69C2B068FC378DAA952BA7F163C4A11628F55A4DF523B3EF DUP5 PUSH1 0x40 MLOAD PUSH2 0x33DF SWAP2 SWAP1 PUSH2 0x3C32 JUMP JUMPDEST PUSH1 0x40 MLOAD DUP1 SWAP2 SUB SWAP1 LOG3 POP POP POP POP JUMP JUMPDEST PUSH0 DUP2 SWAP1 POP SWAP2 SWAP1 POP JUMP JUMPDEST PUSH0 DUP2 PUSH20 0xFFFFFFFFFFFFFFFFFFFFFFFFFFFFFFFFFFFFFFFF AND EXTCODESIZE SUB PUSH2 0x3451 JUMPI DUP1 PUSH1 0x40 MLOAD PUSH32 0x4C9C8CE300000000000000000000000000000000000000000000000000000000 DUP2 MSTORE PUSH1 0x4 ADD PUSH2 0x3448 SWAP2 SWAP1 PUSH2 0x3FC6 JUMP JUMPDEST PUSH1 0x40 MLOAD DUP1 SWAP2 SUB SWAP1 REVERT JUMPDEST DUP1 PUSH2 0x347D PUSH32 0x360894A13BA1A3210667C828492DB98DCA3E2076CC3735A920A3CA505D382BBC PUSH0 SHL PUSH2 0x33ED JUMP JUMPDEST PUSH0 ADD PUSH0 PUSH2 0x100 EXP DUP2 SLOAD DUP2 PUSH20 0xFFFFFFFFFFFFFFFFFFFFFFFFFFFFFFFFFFFFFFFF MUL NOT AND SWAP1 DUP4 PUSH20 0xFFFFFFFFFFFFFFFFFFFFFFFFFFFFFFFFFFFFFFFF AND MUL OR SWAP1 SSTORE POP POP JUMP JUMPDEST PUSH1 0x60 PUSH0 PUSH0 DUP5 PUSH20 0xFFFFFFFFFFFFFFFFFFFFFFFFFFFFFFFFFFFFFFFF AND DUP5 PUSH1 0x40 MLOAD PUSH2 0x34E8 SWAP2 SWAP1 PUSH2 0x49FA JUMP JUMPDEST PUSH0 PUSH1 0x40 MLOAD DUP1 DUP4 SUB DUP2 DUP6 GAS DELEGATECALL SWAP2 POP POP RETURNDATASIZE DUP1 PUSH0 DUP2 EQ PUSH2 0x3520 JUMPI PUSH1 0x40 MLOAD SWAP2 POP PUSH1 0x1F NOT PUSH1 0x3F RETURNDATASIZE ADD AND DUP3 ADD PUSH1 0x40 MSTORE RETURNDATASIZE DUP3 MSTORE RETURNDATASIZE PUSH0 PUSH1 0x20 DUP5 ADD RETURNDATACOPY PUSH2 0x3525 JUMP JUMPDEST PUSH1 0x60 SWAP2 POP JUMPDEST POP SWAP2 POP SWAP2 POP PUSH2 0x3535 DUP6 DUP4 DUP4 PUSH2 0x39B3 JUMP JUMPDEST SWAP3 POP POP POP SWAP3 SWAP2 POP POP JUMP JUMPDEST PUSH0 CALLVALUE GT ISZERO PUSH2 0x3579 JUMPI PUSH1 0x40 MLOAD PUSH32 0xB398979F00000000000000000000000000000000000000000000000000000000 DUP2 MSTORE PUSH1 0x4 ADD PUSH1 0x40 MLOAD DUP1 SWAP2 SUB SWAP1 REVERT JUMPDEST JUMP JUMPDEST PUSH0 PUSH2 0x3584 PUSH2 0x28FB JUMP JUMPDEST PUSH0 ADD PUSH1 0x8 SWAP1 SLOAD SWAP1 PUSH2 0x100 EXP SWAP1 DIV PUSH1 0xFF AND SWAP1 POP SWAP1 JUMP JUMPDEST PUSH1 0x3F PUSH0 DUP4 PUSH20 0xFFFFFFFFFFFFFFFFFFFFFFFFFFFFFFFFFFFFFFFF AND PUSH20 0xFFFFFFFFFFFFFFFFFFFFFFFFFFFFFFFFFFFFFFFF AND DUP2 MSTORE PUSH1 0x20 ADD SWAP1 DUP2 MSTORE PUSH1 0x20 ADD PUSH0 KECCAK256 PUSH0 SWAP1 SLOAD SWAP1 PUSH2 0x100 EXP SWAP1 DIV PUSH1 0xFF AND PUSH2 0x3960 JUMPI PUSH0 PUSH3 0x15180 TIMESTAMP PUSH2 0x35F7 SWAP2 SWAP1 PUSH2 0x438C JUMP JUMPDEST SWAP1 POP PUSH0 PUSH3 0x278D00 TIMESTAMP PUSH2 0x3609 SWAP2 SWAP1 PUSH2 0x438C JUMP JUMPDEST SWAP1 POP DUP2 PUSH1 0x42 PUSH0 DUP7 PUSH20 0xFFFFFFFFFFFFFFFFFFFFFFFFFFFFFFFFFFFFFFFF AND PUSH20 0xFFFFFFFFFFFFFFFFFFFFFFFFFFFFFFFFFFFFFFFF AND DUP2 MSTORE PUSH1 0x20 ADD SWAP1 DUP2 MSTORE PUSH1 0x20 ADD PUSH0 KECCAK256 SLOAD EQ PUSH2 0x36D4 JUMPI PUSH0 PUSH1 0x40 PUSH0 DUP7 PUSH20 0xFFFFFFFFFFFFFFFFFFFFFFFFFFFFFFFFFFFFFFFF AND PUSH20 0xFFFFFFFFFFFFFFFFFFFFFFFFFFFFFFFFFFFFFFFF AND DUP2 MSTORE PUSH1 0x20 ADD SWAP1 DUP2 MSTORE PUSH1 0x20 ADD PUSH0 KECCAK256 DUP2 SWAP1 SSTORE POP DUP2 PUSH1 0x42 PUSH0 DUP7 PUSH20 0xFFFFFFFFFFFFFFFFFFFFFFFFFFFFFFFFFFFFFFFF AND PUSH20 0xFFFFFFFFFFFFFFFFFFFFFFFFFFFFFFFFFFFFFFFF AND DUP2 MSTORE PUSH1 0x20 ADD SWAP1 DUP2 MSTORE PUSH1 0x20 ADD PUSH0 KECCAK256 DUP2 SWAP1 SSTORE POP JUMPDEST DUP1 PUSH1 0x43 PUSH0 DUP7 PUSH20 0xFFFFFFFFFFFFFFFFFFFFFFFFFFFFFFFFFFFFFFFF AND PUSH20 0xFFFFFFFFFFFFFFFFFFFFFFFFFFFFFFFFFFFFFFFF AND DUP2 MSTORE PUSH1 0x20 ADD SWAP1 DUP2 MSTORE PUSH1 0x20 ADD PUSH0 KECCAK256 SLOAD EQ PUSH2 0x379D JUMPI PUSH0 PUSH1 0x41 PUSH0 DUP7 PUSH20 0xFFFFFFFFFFFFFFFFFFFFFFFFFFFFFFFFFFFFFFFF AND PUSH20 0xFFFFFFFFFFFFFFFFFFFFFFFFFFFFFFFFFFFFFFFF AND DUP2 MSTORE PUSH1 0x20 ADD SWAP1 DUP2 MSTORE PUSH1 0x20 ADD PUSH0 KECCAK256 DUP2 SWAP1 SSTORE POP DUP1 PUSH1 0x43 PUSH0 DUP7 PUSH20 0xFFFFFFFFFFFFFFFFFFFFFFFFFFFFFFFFFFFFFFFF AND PUSH20 0xFFFFFFFFFFFFFFFFFFFFFFFFFFFFFFFFFFFFFFFF AND DUP2 MSTORE PUSH1 0x20 ADD SWAP1 DUP2 MSTORE PUSH1 0x20 ADD PUSH0 KECCAK256 DUP2 SWAP1 SSTORE POP JUMPDEST PUSH1 0x3D SLOAD DUP4 PUSH1 0x40 PUSH0 DUP8 PUSH20 0xFFFFFFFFFFFFFFFFFFFFFFFFFFFFFFFFFFFFFFFF AND PUSH20 0xFFFFFFFFFFFFFFFFFFFFFFFFFFFFFFFFFFFFFFFF AND DUP2 MSTORE PUSH1 0x20 ADD SWAP1 DUP2 MSTORE PUSH1 0x20 ADD PUSH0 KECCAK256 SLOAD PUSH2 0x37E9 SWAP2 SWAP1 PUSH2 0x42C4 JUMP JUMPDEST GT ISZERO PUSH2 0x382A JUMPI PUSH1 0x40 MLOAD PUSH32 0x8C379A000000000000000000000000000000000000000000000000000000000 DUP2 MSTORE PUSH1 0x4 ADD PUSH2 0x3821 SWAP1 PUSH2 0x4A5A JUMP JUMPDEST PUSH1 0x40 MLOAD DUP1 SWAP2 SUB SWAP1 REVERT JUMPDEST PUSH1 0x3E SLOAD DUP4 PUSH1 0x41 PUSH0 DUP8 PUSH20 0xFFFFFFFFFFFFFFFFFFFFFFFFFFFFFFFFFFFFFFFF AND PUSH20 0xFFFFFFFFFFFFFFFFFFFFFFFFFFFFFFFFFFFFFFFF AND DUP2 MSTORE PUSH1 0x20 ADD SWAP1 DUP2 MSTORE PUSH1 0x20 ADD PUSH0 KECCAK256 SLOAD PUSH2 0x3876 SWAP2 SWAP1 PUSH2 0x42C4 JUMP JUMPDEST GT ISZERO PUSH2 0x38B7 JUMPI PUSH1 0x40 MLOAD PUSH32 0x8C379A000000000000000000000000000000000000000000000000000000000 DUP2 MSTORE PUSH1 0x4 ADD PUSH2 0x38AE SWAP1 PUSH2 0x4AC2 JUMP JUMPDEST PUSH1 0x40 MLOAD DUP1 SWAP2 SUB SWAP1 REVERT JUMPDEST DUP3 PUSH1 0x40 PUSH0 DUP7 PUSH20 0xFFFFFFFFFFFFFFFFFFFFFFFFFFFFFFFFFFFFFFFF AND PUSH20 0xFFFFFFFFFFFFFFFFFFFFFFFFFFFFFFFFFFFFFFFF AND DUP2 MSTORE PUSH1 0x20 ADD SWAP1 DUP2 MSTORE PUSH1 0x20 ADD PUSH0 KECCAK256 PUSH0 DUP3 DUP3 SLOAD PUSH2 0x3903 SWAP2 SWAP1 PUSH2 0x42C4 JUMP JUMPDEST SWAP3 POP POP DUP2 SWAP1 SSTORE POP DUP3 PUSH1 0x41 PUSH0 DUP7 PUSH20 0xFFFFFFFFFFFFFFFFFFFFFFFFFFFFFFFFFFFFFFFF AND PUSH20 0xFFFFFFFFFFFFFFFFFFFFFFFFFFFFFFFFFFFFFFFF AND DUP2 MSTORE PUSH1 0x20 ADD SWAP1 DUP2 MSTORE PUSH1 0x20 ADD PUSH0 KECCAK256 PUSH0 DUP3 DUP3 SLOAD PUSH2 0x3956 SWAP2 SWAP1 PUSH2 0x42C4 JUMP JUMPDEST SWAP3 POP POP DUP2 SWAP1 SSTORE POP POP POP JUMPDEST POP POP JUMP JUMPDEST PUSH0 PUSH1 0x46 SLOAD DUP3 LT PUSH2 0x3990 JUMPI PUSH2 0x2710 PUSH1 0x45 SLOAD DUP4 PUSH2 0x397F SWAP2 SWAP1 PUSH2 0x43BC JUMP JUMPDEST PUSH2 0x3989 SWAP2 SWAP1 PUSH2 0x438C JUMP JUMPDEST SWAP1 POP PUSH2 0x39AE JUMP JUMPDEST PUSH2 0x2710 PUSH1 0x44 SLOAD DUP4 PUSH2 0x39A1 SWAP2 SWAP1 PUSH2 0x43BC JUMP JUMPDEST PUSH2 0x39AB SWAP2 SWAP1 PUSH2 0x438C JUMP JUMPDEST SWAP1 POP JUMPDEST SWAP2 SWAP1 POP JUMP JUMPDEST PUSH1 0x60 DUP3 PUSH2 0x39C8 JUMPI PUSH2 0x39C3 DUP3 PUSH2 0x3A40 JUMP JUMPDEST PUSH2 0x3A38 JUMP JUMPDEST PUSH0 DUP3 MLOAD EQ DUP1 ISZERO PUSH2 0x39EE JUMPI POP PUSH0 DUP5 PUSH20 0xFFFFFFFFFFFFFFFFFFFFFFFFFFFFFFFFFFFFFFFF AND EXTCODESIZE EQ JUMPDEST ISZERO PUSH2 0x3A30 JUMPI DUP4 PUSH1 0x40 MLOAD PUSH32 0x9996B31500000000000000000000000000000000000000000000000000000000 DUP2 MSTORE PUSH1 0x4 ADD PUSH2 0x3A27 SWAP2 SWAP1 PUSH2 0x3FC6 JUMP JUMPDEST PUSH1 0x40 MLOAD DUP1 SWAP2 SUB SWAP1 REVERT JUMPDEST DUP2 SWAP1 POP PUSH2 0x3A39 JUMP JUMPDEST JUMPDEST SWAP4 SWAP3 POP POP POP JUMP JUMPDEST PUSH0 DUP2 MLOAD GT ISZERO PUSH2 0x3A52 JUMPI DUP1 MLOAD DUP1 DUP3 PUSH1 0x20 ADD REVERT JUMPDEST PUSH1 0x40 MLOAD PUSH32 0xD6BDA27500000000000000000000000000000000000000000000000000000000 DUP2 MSTORE PUSH1 0x4 ADD PUSH1 0x40 MLOAD DUP1 SWAP2 SUB SWAP1 REVERT JUMPDEST PUSH0 PUSH1 0x40 MLOAD SWAP1 POP SWAP1 JUMP JUMPDEST PUSH0 PUSH0 REVERT JUMPDEST PUSH0 PUSH0 REVERT JUMPDEST PUSH0 PUSH20 0xFFFFFFFFFFFFFFFFFFFFFFFFFFFFFFFFFFFFFFFF DUP3 AND SWAP1 POP SWAP2 SWAP1 POP JUMP JUMPDEST PUSH0 PUSH2 0x3ABE DUP3 PUSH2 0x3A95 JUMP JUMPDEST SWAP1 POP SWAP2 SWAP1 POP JUMP JUMPDEST PUSH2 0x3ACE DUP2 PUSH2 0x3AB4 JUMP JUMPDEST DUP2 EQ PUSH2 0x3AD8 JUMPI PUSH0 PUSH0 REVERT JUMPDEST POP JUMP JUMPDEST PUSH0 DUP2 CALLDATALOAD SWAP1 POP PUSH2 0x3AE9 DUP2 PUSH2 0x3AC5 JUMP JUMPDEST SWAP3 SWAP2 POP POP JUMP JUMPDEST PUSH0 DUP2 SWAP1 POP SWAP2 SWAP1 POP JUMP JUMPDEST PUSH2 0x3B01 DUP2 PUSH2 0x3AEF JUMP JUMPDEST DUP2 EQ PUSH2 0x3B0B JUMPI PUSH0 PUSH0 REVERT JUMPDEST POP JUMP JUMPDEST PUSH0 DUP2 CALLDATALOAD SWAP1 POP PUSH2 0x3B1C DUP2 PUSH2 0x3AF8 JUMP JUMPDEST SWAP3 SWAP2 POP POP JUMP JUMPDEST PUSH0 PUSH0 PUSH1 0x40 DUP4 DUP6 SUB SLT ISZERO PUSH2 0x3B38 JUMPI PUSH2 0x3B37 PUSH2 0x3A8D JUMP JUMPDEST JUMPDEST PUSH0 PUSH2 0x3B45 DUP6 DUP3 DUP7 ADD PUSH2 0x3ADB JUMP JUMPDEST SWAP3 POP POP PUSH1 0x20 PUSH2 0x3B56 DUP6 DUP3 DUP7 ADD PUSH2 0x3B0E JUMP JUMPDEST SWAP2 POP POP SWAP3 POP SWAP3 SWAP1 POP JUMP JUMPDEST PUSH0 DUP2 MLOAD SWAP1 POP SWAP2 SWAP1 POP JUMP JUMPDEST PUSH0 DUP3 DUP3 MSTORE PUSH1 0x20 DUP3 ADD SWAP1 POP SWAP3 SWAP2 POP POP JUMP JUMPDEST DUP3 DUP2 DUP4 MCOPY PUSH0 DUP4 DUP4 ADD MSTORE POP POP POP JUMP JUMPDEST PUSH0 PUSH1 0x1F NOT PUSH1 0x1F DUP4 ADD AND SWAP1 POP SWAP2 SWAP1 POP JUMP JUMPDEST PUSH0 PUSH2 0x3BA2 DUP3 PUSH2 0x3B60 JUMP JUMPDEST PUSH2 0x3BAC DUP2 DUP6 PUSH2 0x3B6A JUMP JUMPDEST SWAP4 POP PUSH2 0x3BBC DUP2 DUP6 PUSH1 0x20 DUP7 ADD PUSH2 0x3B7A JUMP JUMPDEST PUSH2 0x3BC5 DUP2 PUSH2 0x3B88 JUMP JUMPDEST DUP5 ADD SWAP2 POP POP SWAP3 SWAP2 POP POP JUMP JUMPDEST PUSH0 PUSH1 0x20 DUP3 ADD SWAP1 POP DUP2 DUP2 SUB PUSH0 DUP4 ADD MSTORE PUSH2 0x3BE8 DUP2 DUP5 PUSH2 0x3B98 JUMP JUMPDEST SWAP1 POP SWAP3 SWAP2 POP POP JUMP JUMPDEST PUSH0 DUP2 ISZERO ISZERO SWAP1 POP SWAP2 SWAP1 POP JUMP JUMPDEST PUSH2 0x3C04 DUP2 PUSH2 0x3BF0 JUMP JUMPDEST DUP3 MSTORE POP POP JUMP JUMPDEST PUSH0 PUSH1 0x20 DUP3 ADD SWAP1 POP PUSH2 0x3C1D PUSH0 DUP4 ADD DUP5 PUSH2 0x3BFB JUMP JUMPDEST SWAP3 SWAP2 POP POP JUMP JUMPDEST PUSH2 0x3C2C DUP2 PUSH2 0x3AEF JUMP JUMPDEST DUP3 MSTORE POP POP JUMP JUMPDEST PUSH0 PUSH1 0x20 DUP3 ADD SWAP1 POP PUSH2 0x3C45 PUSH0 DUP4 ADD DUP5 PUSH2 0x3C23 JUMP JUMPDEST SWAP3 SWAP2 POP POP JUMP JUMPDEST PUSH0 PUSH1 0x20 DUP3 DUP5 SUB SLT ISZERO PUSH2 0x3C60 JUMPI PUSH2 0x3C5F PUSH2 0x3A8D JUMP JUMPDEST JUMPDEST PUSH0 PUSH2 0x3C6D DUP5 DUP3 DUP6 ADD PUSH2 0x3ADB JUMP JUMPDEST SWAP2 POP POP SWAP3 SWAP2 POP POP JUMP JUMPDEST PUSH0 PUSH1 0x60 DUP3 ADD SWAP1 POP PUSH2 0x3C89 PUSH0 DUP4 ADD DUP7 PUSH2 0x3C23 JUMP JUMPDEST PUSH2 0x3C96 PUSH1 0x20 DUP4 ADD DUP6 PUSH2 0x3C23 JUMP JUMPDEST PUSH2 0x3CA3 PUSH1 0x40 DUP4 ADD DUP5 PUSH2 0x3C23 JUMP JUMPDEST SWAP5 SWAP4 POP POP POP POP JUMP JUMPDEST PUSH2 0x3CB4 DUP2 PUSH2 0x3BF0 JUMP JUMPDEST DUP2 EQ PUSH2 0x3CBE JUMPI PUSH0 PUSH0 REVERT JUMPDEST POP JUMP JUMPDEST PUSH0 DUP2 CALLDATALOAD SWAP1 POP PUSH2 0x3CCF DUP2 PUSH2 0x3CAB JUMP JUMPDEST SWAP3 SWAP2 POP POP JUMP JUMPDEST PUSH0 PUSH0 PUSH1 0x40 DUP4 DUP6 SUB SLT ISZERO PUSH2 0x3CEB JUMPI PUSH2 0x3CEA PUSH2 0x3A8D JUMP JUMPDEST JUMPDEST PUSH0 PUSH2 0x3CF8 DUP6 DUP3 DUP7 ADD PUSH2 0x3ADB JUMP JUMPDEST SWAP3 POP POP PUSH1 0x20 PUSH2 0x3D09 DUP6 DUP3 DUP7 ADD PUSH2 0x3CC1 JUMP JUMPDEST SWAP2 POP POP SWAP3 POP SWAP3 SWAP1 POP JUMP JUMPDEST PUSH0 PUSH0 PUSH0 PUSH1 0x60 DUP5 DUP7 SUB SLT ISZERO PUSH2 0x3D2A JUMPI PUSH2 0x3D29 PUSH2 0x3A8D JUMP JUMPDEST JUMPDEST PUSH0 PUSH2 0x3D37 DUP7 DUP3 DUP8 ADD PUSH2 0x3ADB JUMP JUMPDEST SWAP4 POP POP PUSH1 0x20 PUSH2 0x3D48 DUP7 DUP3 DUP8 ADD PUSH2 0x3ADB JUMP JUMPDEST SWAP3 POP POP PUSH1 0x40 PUSH2 0x3D59 DUP7 DUP3 DUP8 ADD PUSH2 0x3B0E JUMP JUMPDEST SWAP2 POP POP SWAP3 POP SWAP3 POP SWAP3 JUMP JUMPDEST PUSH0 PUSH1 0xFF DUP3 AND SWAP1 POP SWAP2 SWAP1 POP JUMP JUMPDEST PUSH2 0x3D78 DUP2 PUSH2 0x3D63 JUMP JUMPDEST DUP3 MSTORE POP POP JUMP JUMPDEST PUSH0 PUSH1 0x20 DUP3 ADD SWAP1 POP PUSH2 0x3D91 PUSH0 DUP4 ADD DUP5 PUSH2 0x3D6F JUMP JUMPDEST SWAP3 SWAP2 POP POP JUMP JUMPDEST PUSH0 PUSH1 0x20 DUP3 DUP5 SUB SLT ISZERO PUSH2 0x3DAC JUMPI PUSH2 0x3DAB PUSH2 0x3A8D JUMP JUMPDEST JUMPDEST PUSH0 PUSH2 0x3DB9 DUP5 DUP3 DUP6 ADD PUSH2 0x3B0E JUMP JUMPDEST SWAP2 POP POP SWAP3 SWAP2 POP POP JUMP JUMPDEST PUSH0 PUSH0 REVERT JUMPDEST PUSH0 PUSH0 REVERT JUMPDEST PUSH32 0x4E487B7100000000000000000000000000000000000000000000000000000000 PUSH0 MSTORE PUSH1 0x41 PUSH1 0x4 MSTORE PUSH1 0x24 PUSH0 REVERT JUMPDEST PUSH2 0x3E00 DUP3 PUSH2 0x3B88 JUMP JUMPDEST DUP2 ADD DUP2 DUP2 LT PUSH8 0xFFFFFFFFFFFFFFFF DUP3 GT OR ISZERO PUSH2 0x3E1F JUMPI PUSH2 0x3E1E PUSH2 0x3DCA JUMP JUMPDEST JUMPDEST DUP1 PUSH1 0x40 MSTORE POP POP POP JUMP JUMPDEST PUSH0 PUSH2 0x3E31 PUSH2 0x3A84 JUMP JUMPDEST SWAP1 POP PUSH2 0x3E3D DUP3 DUP3 PUSH2 0x3DF7 JUMP JUMPDEST SWAP2 SWAP1 POP JUMP JUMPDEST PUSH0 PUSH8 0xFFFFFFFFFFFFFFFF DUP3 GT ISZERO PUSH2 0x3E5C JUMPI PUSH2 0x3E5B PUSH2 0x3DCA JUMP JUMPDEST JUMPDEST PUSH2 0x3E65 DUP3 PUSH2 0x3B88 JUMP JUMPDEST SWAP1 POP PUSH1 0x20 DUP2 ADD SWAP1 POP SWAP2 SWAP1 POP JUMP JUMPDEST DUP3 DUP2 DUP4 CALLDATACOPY PUSH0 DUP4 DUP4 ADD MSTORE POP POP POP JUMP JUMPDEST PUSH0 PUSH2 0x3E92 PUSH2 0x3E8D DUP5 PUSH2 0x3E42 JUMP JUMPDEST PUSH2 0x3E28 JUMP JUMPDEST SWAP1 POP DUP3 DUP2 MSTORE PUSH1 0x20 DUP2 ADD DUP5 DUP5 DUP5 ADD GT ISZERO PUSH2 0x3EAE JUMPI PUSH2 0x3EAD PUSH2 0x3DC6 JUMP JUMPDEST JUMPDEST PUSH2 0x3EB9 DUP5 DUP3 DUP6 PUSH2 0x3E72 JUMP JUMPDEST POP SWAP4 SWAP3 POP POP POP JUMP JUMPDEST PUSH0 DUP3 PUSH1 0x1F DUP4 ADD SLT PUSH2 0x3ED5 JUMPI PUSH2 0x3ED4 PUSH2 0x3DC2 JUMP JUMPDEST JUMPDEST DUP2 CALLDATALOAD PUSH2 0x3EE5 DUP5 DUP3 PUSH1 0x20 DUP7 ADD PUSH2 0x3E80 JUMP JUMPDEST SWAP2 POP POP SWAP3 SWAP2 POP POP JUMP JUMPDEST PUSH0 PUSH0 PUSH1 0x40 DUP4 DUP6 SUB SLT ISZERO PUSH2 0x3F04 JUMPI PUSH2 0x3F03 PUSH2 0x3A8D JUMP JUMPDEST JUMPDEST PUSH0 PUSH2 0x3F11 DUP6 DUP3 DUP7 ADD PUSH2 0x3ADB JUMP JUMPDEST SWAP3 POP POP PUSH1 0x20 DUP4 ADD CALLDATALOAD PUSH8 0xFFFFFFFFFFFFFFFF DUP2 GT ISZERO PUSH2 0x3F32 JUMPI PUSH2 0x3F31 PUSH2 0x3A91 JUMP JUMPDEST JUMPDEST PUSH2 0x3F3E DUP6 DUP3 DUP7 ADD PUSH2 0x3EC1 JUMP JUMPDEST SWAP2 POP POP SWAP3 POP SWAP3 SWAP1 POP JUMP JUMPDEST PUSH0 DUP2 SWAP1 POP SWAP2 SWAP1 POP JUMP JUMPDEST PUSH2 0x3F5A DUP2 PUSH2 0x3F48 JUMP JUMPDEST DUP3 MSTORE POP POP JUMP JUMPDEST PUSH0 PUSH1 0x20 DUP3 ADD SWAP1 POP PUSH2 0x3F73 PUSH0 DUP4 ADD DUP5 PUSH2 0x3F51 JUMP JUMPDEST SWAP3 SWAP2 POP POP JUMP JUMPDEST PUSH0 PUSH0 PUSH1 0x40 DUP4 DUP6 SUB SLT ISZERO PUSH2 0x3F8F JUMPI PUSH2 0x3F8E PUSH2 0x3A8D JUMP JUMPDEST JUMPDEST PUSH0 PUSH2 0x3F9C DUP6 DUP3 DUP7 ADD PUSH2 0x3B0E JUMP JUMPDEST SWAP3 POP POP PUSH1 0x20 PUSH2 0x3FAD DUP6 DUP3 DUP7 ADD PUSH2 0x3B0E JUMP JUMPDEST SWAP2 POP POP SWAP3 POP SWAP3 SWAP1 POP JUMP JUMPDEST PUSH2 0x3FC0 DUP2 PUSH2 0x3AB4 JUMP JUMPDEST DUP3 MSTORE POP POP JUMP JUMPDEST PUSH0 PUSH1 0x20 DUP3 ADD SWAP1 POP PUSH2 0x3FD9 PUSH0 DUP4 ADD DUP5 PUSH2 0x3FB7 JUMP JUMPDEST SWAP3 SWAP2 POP POP JUMP JUMPDEST PUSH0 PUSH0 PUSH0 PUSH1 0x60 DUP5 DUP7 SUB SLT ISZERO PUSH2 0x3FF6 JUMPI PUSH2 0x3FF5 PUSH2 0x3A8D JUMP JUMPDEST JUMPDEST PUSH0 PUSH2 0x4003 DUP7 DUP3 DUP8 ADD PUSH2 0x3B0E JUMP JUMPDEST SWAP4 POP POP PUSH1 0x20 PUSH2 0x4014 DUP7 DUP3 DUP8 ADD PUSH2 0x3B0E JUMP JUMPDEST SWAP3 POP POP PUSH1 0x40 PUSH2 0x4025 DUP7 DUP3 DUP8 ADD PUSH2 0x3B0E JUMP JUMPDEST SWAP2 POP POP SWAP3 POP SWAP3 POP SWAP3 JUMP JUMPDEST PUSH0 PUSH0 PUSH1 0x40 DUP4 DUP6 SUB SLT ISZERO PUSH2 0x4045 JUMPI PUSH2 0x4044 PUSH2 0x3A8D JUMP JUMPDEST JUMPDEST PUSH0 PUSH2 0x4052 DUP6 DUP3 DUP7 ADD PUSH2 0x3ADB JUMP JUMPDEST SWAP3 POP POP PUSH1 0x20 PUSH2 0x4063 DUP6 DUP3 DUP7 ADD PUSH2 0x3ADB JUMP JUMPDEST SWAP2 POP POP SWAP3 POP SWAP3 SWAP1 POP JUMP JUMPDEST PUSH32 0x4E487B7100000000000000000000000000000000000000000000000000000000 PUSH0 MSTORE PUSH1 0x22 PUSH1 0x4 MSTORE PUSH1 0x24 PUSH0 REVERT JUMPDEST PUSH0 PUSH1 0x2 DUP3 DIV SWAP1 POP PUSH1 0x1 DUP3 AND DUP1 PUSH2 0x40B1 JUMPI PUSH1 0x7F DUP3 AND SWAP2 POP JUMPDEST PUSH1 0x20 DUP3 LT DUP2 SUB PUSH2 0x40C4 JUMPI PUSH2 0x40C3 PUSH2 0x406D JUMP JUMPDEST JUMPDEST POP SWAP2 SWAP1 POP JUMP JUMPDEST PUSH32 0x496E76616C6964207374616B696E67206475726174696F6E0000000000000000 PUSH0 DUP3 ADD MSTORE POP JUMP JUMPDEST PUSH0 PUSH2 0x40FE PUSH1 0x18 DUP4 PUSH2 0x3B6A JUMP JUMPDEST SWAP2 POP PUSH2 0x4109 DUP3 PUSH2 0x40CA JUMP JUMPDEST PUSH1 0x20 DUP3 ADD SWAP1 POP SWAP2 SWAP1 POP JUMP JUMPDEST PUSH0 PUSH1 0x20 DUP3 ADD SWAP1 POP DUP2 DUP2 SUB PUSH0 DUP4 ADD MSTORE PUSH2 0x412B DUP2 PUSH2 0x40F2 JUMP JUMPDEST SWAP1 POP SWAP2 SWAP1 POP JUMP JUMPDEST PUSH32 0x416C7265616479207374616B696E670000000000000000000000000000000000 PUSH0 DUP3 ADD MSTORE POP JUMP JUMPDEST PUSH0 PUSH2 0x4166 PUSH1 0xF DUP4 PUSH2 0x3B6A JUMP JUMPDEST SWAP2 POP PUSH2 0x4171 DUP3 PUSH2 0x4132 JUMP JUMPDEST PUSH1 0x20 DUP3 ADD SWAP1 POP SWAP2 SWAP1 POP JUMP JUMPDEST PUSH0 PUSH1 0x20 DUP3 ADD SWAP1 POP DUP2 DUP2 SUB PUSH0 DUP4 ADD MSTORE PUSH2 0x4193 DUP2 PUSH2 0x415A JUMP JUMPDEST SWAP1 POP SWAP2 SWAP1 POP JUMP JUMPDEST PUSH32 0x43616E6E6F74207374616B652030000000000000000000000000000000000000 PUSH0 DUP3 ADD MSTORE POP JUMP JUMPDEST PUSH0 PUSH2 0x41CE PUSH1 0xE DUP4 PUSH2 0x3B6A JUMP JUMPDEST SWAP2 POP PUSH2 0x41D9 DUP3 PUSH2 0x419A JUMP JUMPDEST PUSH1 0x20 DUP3 ADD SWAP1 POP SWAP2 SWAP1 POP JUMP JUMPDEST PUSH0 PUSH1 0x20 DUP3 ADD SWAP1 POP DUP2 DUP2 SUB PUSH0 DUP4 ADD MSTORE PUSH2 0x41FB DUP2 PUSH2 0x41C2 JUMP JUMPDEST SWAP1 POP SWAP2 SWAP1 POP JUMP JUMPDEST PUSH0 PUSH1 0x40 DUP3 ADD SWAP1 POP PUSH2 0x4215 PUSH0 DUP4 ADD DUP6 PUSH2 0x3C23 JUMP JUMPDEST PUSH2 0x4222 PUSH1 0x20 DUP4 ADD DUP5 PUSH2 0x3C23 JUMP JUMPDEST SWAP4 SWAP3 POP POP POP JUMP JUMPDEST PUSH0 DUP2 SWAP1 POP SWAP2 SWAP1 POP JUMP JUMPDEST PUSH0 PUSH8 0xFFFFFFFFFFFFFFFF DUP3 AND SWAP1 POP SWAP2 SWAP1 POP JUMP JUMPDEST PUSH0 DUP2 SWAP1 POP SWAP2 SWAP1 POP JUMP JUMPDEST PUSH0 PUSH2 0x4268 PUSH2 0x4263 PUSH2 0x425E DUP5 PUSH2 0x4229 JUMP JUMPDEST PUSH2 0x4245 JUMP JUMPDEST PUSH2 0x4232 JUMP JUMPDEST SWAP1 POP SWAP2 SWAP1 POP JUMP JUMPDEST PUSH2 0x4278 DUP2 PUSH2 0x424E JUMP JUMPDEST DUP3 MSTORE POP POP JUMP JUMPDEST PUSH0 PUSH1 0x20 DUP3 ADD SWAP1 POP PUSH2 0x4291 PUSH0 DUP4 ADD DUP5 PUSH2 0x426F JUMP JUMPDEST SWAP3 SWAP2 POP POP JUMP JUMPDEST PUSH32 0x4E487B7100000000000000000000000000000000000000000000000000000000 PUSH0 MSTORE PUSH1 0x11 PUSH1 0x4 MSTORE PUSH1 0x24 PUSH0 REVERT JUMPDEST PUSH0 PUSH2 0x42CE DUP3 PUSH2 0x3AEF JUMP JUMPDEST SWAP2 POP PUSH2 0x42D9 DUP4 PUSH2 0x3AEF JUMP JUMPDEST SWAP3 POP DUP3 DUP3 ADD SWAP1 POP DUP1 DUP3 GT ISZERO PUSH2 0x42F1 JUMPI PUSH2 0x42F0 PUSH2 0x4297 JUMP JUMPDEST JUMPDEST SWAP3 SWAP2 POP POP JUMP JUMPDEST PUSH32 0x4E6F207374616B6520666F756E64000000000000000000000000000000000000 PUSH0 DUP3 ADD MSTORE POP JUMP JUMPDEST PUSH0 PUSH2 0x432B PUSH1 0xE DUP4 PUSH2 0x3B6A JUMP JUMPDEST SWAP2 POP PUSH2 0x4336 DUP3 PUSH2 0x42F7 JUMP JUMPDEST PUSH1 0x20 DUP3 ADD SWAP1 POP SWAP2 SWAP1 POP JUMP JUMPDEST PUSH0 PUSH1 0x20 DUP3 ADD SWAP1 POP DUP2 DUP2 SUB PUSH0 DUP4 ADD MSTORE PUSH2 0x4358 DUP2 PUSH2 0x431F JUMP JUMPDEST SWAP1 POP SWAP2 SWAP1 POP JUMP JUMPDEST PUSH32 0x4E487B7100000000000000000000000000000000000000000000000000000000 PUSH0 MSTORE PUSH1 0x12 PUSH1 0x4 MSTORE PUSH1 0x24 PUSH0 REVERT JUMPDEST PUSH0 PUSH2 0x4396 DUP3 PUSH2 0x3AEF JUMP JUMPDEST SWAP2 POP PUSH2 0x43A1 DUP4 PUSH2 0x3AEF JUMP JUMPDEST SWAP3 POP DUP3 PUSH2 0x43B1 JUMPI PUSH2 0x43B0 PUSH2 0x435F JUMP JUMPDEST JUMPDEST DUP3 DUP3 DIV SWAP1 POP SWAP3 SWAP2 POP POP JUMP JUMPDEST PUSH0 PUSH2 0x43C6 DUP3 PUSH2 0x3AEF JUMP JUMPDEST SWAP2 POP PUSH2 0x43D1 DUP4 PUSH2 0x3AEF JUMP JUMPDEST SWAP3 POP DUP3 DUP3 MUL PUSH2 0x43DF DUP2 PUSH2 0x3AEF JUMP JUMPDEST SWAP2 POP DUP3 DUP3 DIV DUP5 EQ DUP4 ISZERO OR PUSH2 0x43F6 JUMPI PUSH2 0x43F5 PUSH2 0x4297 JUMP JUMPDEST JUMPDEST POP SWAP3 SWAP2 POP POP JUMP JUMPDEST PUSH0 PUSH2 0x4407 DUP3 PUSH2 0x3AEF JUMP JUMPDEST SWAP2 POP PUSH2 0x4412 DUP4 PUSH2 0x3AEF JUMP JUMPDEST SWAP3 POP DUP3 DUP3 SUB SWAP1 POP DUP2 DUP2 GT ISZERO PUSH2 0x442A JUMPI PUSH2 0x4429 PUSH2 0x4297 JUMP JUMPDEST JUMPDEST SWAP3 SWAP2 POP POP JUMP JUMPDEST PUSH0 PUSH1 0x60 DUP3 ADD SWAP1 POP PUSH2 0x4443 PUSH0 DUP4 ADD DUP7 PUSH2 0x3FB7 JUMP JUMPDEST PUSH2 0x4450 PUSH1 0x20 DUP4 ADD DUP6 PUSH2 0x3C23 JUMP JUMPDEST PUSH2 0x445D PUSH1 0x40 DUP4 ADD DUP5 PUSH2 0x3C23 JUMP JUMPDEST SWAP5 SWAP4 POP POP POP POP JUMP JUMPDEST PUSH2 0x446E DUP2 PUSH2 0x3F48 JUMP JUMPDEST DUP2 EQ PUSH2 0x4478 JUMPI PUSH0 PUSH0 REVERT JUMPDEST POP JUMP JUMPDEST PUSH0 DUP2 MLOAD SWAP1 POP PUSH2 0x4489 DUP2 PUSH2 0x4465 JUMP JUMPDEST SWAP3 SWAP2 POP POP JUMP JUMPDEST PUSH0 PUSH1 0x20 DUP3 DUP5 SUB SLT ISZERO PUSH2 0x44A4 JUMPI PUSH2 0x44A3 PUSH2 0x3A8D JUMP JUMPDEST JUMPDEST PUSH0 PUSH2 0x44B1 DUP5 DUP3 DUP6 ADD PUSH2 0x447B JUMP JUMPDEST SWAP2 POP POP SWAP3 SWAP2 POP POP JUMP JUMPDEST PUSH32 0x5061757361626C653A206E6F7420706175736564000000000000000000000000 PUSH0 DUP3 ADD MSTORE POP JUMP JUMPDEST PUSH0 PUSH2 0x44EE PUSH1 0x14 DUP4 PUSH2 0x3B6A JUMP JUMPDEST SWAP2 POP PUSH2 0x44F9 DUP3 PUSH2 0x44BA JUMP JUMPDEST PUSH1 0x20 DUP3 ADD SWAP1 POP SWAP2 SWAP1 POP JUMP JUMPDEST PUSH0 PUSH1 0x20 DUP3 ADD SWAP1 POP DUP2 DUP2 SUB PUSH0 DUP4 ADD MSTORE PUSH2 0x451B DUP2 PUSH2 0x44E2 JUMP JUMPDEST SWAP1 POP SWAP2 SWAP1 POP JUMP JUMPDEST PUSH0 DUP2 SWAP1 POP DUP2 PUSH0 MSTORE PUSH1 0x20 PUSH0 KECCAK256 SWAP1 POP SWAP2 SWAP1 POP JUMP JUMPDEST PUSH0 PUSH1 0x20 PUSH1 0x1F DUP4 ADD DIV SWAP1 POP SWAP2 SWAP1 POP JUMP JUMPDEST PUSH0 DUP3 DUP3 SHL SWAP1 POP SWAP3 SWAP2 POP POP JUMP JUMPDEST PUSH0 PUSH1 0x8 DUP4 MUL PUSH2 0x457E PUSH32 0xFFFFFFFFFFFFFFFFFFFFFFFFFFFFFFFFFFFFFFFFFFFFFFFFFFFFFFFFFFFFFFFF DUP3 PUSH2 0x4543 JUMP JUMPDEST PUSH2 0x4588 DUP7 DUP4 PUSH2 0x4543 JUMP JUMPDEST SWAP6 POP DUP1 NOT DUP5 AND SWAP4 POP DUP1 DUP7 AND DUP5 OR SWAP3 POP POP POP SWAP4 SWAP3 POP POP POP JUMP JUMPDEST PUSH0 PUSH2 0x45BA PUSH2 0x45B5 PUSH2 0x45B0 DUP5 PUSH2 0x3AEF JUMP JUMPDEST PUSH2 0x4245 JUMP JUMPDEST PUSH2 0x3AEF JUMP JUMPDEST SWAP1 POP SWAP2 SWAP1 POP JUMP JUMPDEST PUSH0 DUP2 SWAP1 POP SWAP2 SWAP1 POP JUMP JUMPDEST PUSH2 0x45D3 DUP4 PUSH2 0x45A0 JUMP JUMPDEST PUSH2 0x45E7 PUSH2 0x45DF DUP3 PUSH2 0x45C1 JUMP JUMPDEST DUP5 DUP5 SLOAD PUSH2 0x454F JUMP JUMPDEST DUP3 SSTORE POP POP POP POP JUMP JUMPDEST PUSH0 PUSH0 SWAP1 POP SWAP1 JUMP JUMPDEST PUSH2 0x45FE PUSH2 0x45EF JUMP JUMPDEST PUSH2 0x4609 DUP2 DUP5 DUP5 PUSH2 0x45CA JUMP JUMPDEST POP POP POP JUMP JUMPDEST JUMPDEST DUP2 DUP2 LT ISZERO PUSH2 0x462C JUMPI PUSH2 0x4621 PUSH0 DUP3 PUSH2 0x45F6 JUMP JUMPDEST PUSH1 0x1 DUP2 ADD SWAP1 POP PUSH2 0x460F JUMP JUMPDEST POP POP JUMP JUMPDEST PUSH1 0x1F DUP3 GT ISZERO PUSH2 0x4671 JUMPI PUSH2 0x4642 DUP2 PUSH2 0x4522 JUMP JUMPDEST PUSH2 0x464B DUP5 PUSH2 0x4534 JUMP JUMPDEST DUP2 ADD PUSH1 0x20 DUP6 LT ISZERO PUSH2 0x465A JUMPI DUP2 SWAP1 POP JUMPDEST PUSH2 0x466E PUSH2 0x4666 DUP6 PUSH2 0x4534 JUMP JUMPDEST DUP4 ADD DUP3 PUSH2 0x460E JUMP JUMPDEST POP POP JUMPDEST POP POP POP JUMP JUMPDEST PUSH0 DUP3 DUP3 SHR SWAP1 POP SWAP3 SWAP2 POP POP JUMP JUMPDEST PUSH0 PUSH2 0x4691 PUSH0 NOT DUP5 PUSH1 0x8 MUL PUSH2 0x4676 JUMP JUMPDEST NOT DUP1 DUP4 AND SWAP2 POP POP SWAP3 SWAP2 POP POP JUMP JUMPDEST PUSH0 PUSH2 0x46A9 DUP4 DUP4 PUSH2 0x4682 JUMP JUMPDEST SWAP2 POP DUP3 PUSH1 0x2 MUL DUP3 OR SWAP1 POP SWAP3 SWAP2 POP POP JUMP JUMPDEST PUSH2 0x46C2 DUP3 PUSH2 0x3B60 JUMP JUMPDEST PUSH8 0xFFFFFFFFFFFFFFFF DUP2 GT ISZERO PUSH2 0x46DB JUMPI PUSH2 0x46DA PUSH2 0x3DCA JUMP JUMPDEST JUMPDEST PUSH2 0x46E5 DUP3 SLOAD PUSH2 0x409A JUMP JUMPDEST PUSH2 0x46F0 DUP3 DUP3 DUP6 PUSH2 0x4630 JUMP JUMPDEST PUSH0 PUSH1 0x20 SWAP1 POP PUSH1 0x1F DUP4 GT PUSH1 0x1 DUP2 EQ PUSH2 0x4721 JUMPI PUSH0 DUP5 ISZERO PUSH2 0x470F JUMPI DUP3 DUP8 ADD MLOAD SWAP1 POP JUMPDEST PUSH2 0x4719 DUP6 DUP3 PUSH2 0x469E JUMP JUMPDEST DUP7 SSTORE POP PUSH2 0x4780 JUMP JUMPDEST PUSH1 0x1F NOT DUP5 AND PUSH2 0x472F DUP7 PUSH2 0x4522 JUMP JUMPDEST PUSH0 JUMPDEST DUP3 DUP2 LT ISZERO PUSH2 0x4756 JUMPI DUP5 DUP10 ADD MLOAD DUP3 SSTORE PUSH1 0x1 DUP3 ADD SWAP2 POP PUSH1 0x20 DUP6 ADD SWAP5 POP PUSH1 0x20 DUP2 ADD SWAP1 POP PUSH2 0x4731 JUMP JUMPDEST DUP7 DUP4 LT ISZERO PUSH2 0x4773 JUMPI DUP5 DUP10 ADD MLOAD PUSH2 0x476F PUSH1 0x1F DUP10 AND DUP3 PUSH2 0x4682 JUMP JUMPDEST DUP4 SSTORE POP JUMPDEST PUSH1 0x1 PUSH1 0x2 DUP9 MUL ADD DUP9 SSTORE POP POP POP JUMPDEST POP POP POP POP POP POP JUMP JUMPDEST PUSH32 0x5061757361626C653A2070617573656400000000000000000000000000000000 PUSH0 DUP3 ADD MSTORE POP JUMP JUMPDEST PUSH0 PUSH2 0x47BC PUSH1 0x10 DUP4 PUSH2 0x3B6A JUMP JUMPDEST SWAP2 POP PUSH2 0x47C7 DUP3 PUSH2 0x4788 JUMP JUMPDEST PUSH1 0x20 DUP3 ADD SWAP1 POP SWAP2 SWAP1 POP JUMP JUMPDEST PUSH0 PUSH1 0x20 DUP3 ADD SWAP1 POP DUP2 DUP2 SUB PUSH0 DUP4 ADD MSTORE PUSH2 0x47E9 DUP2 PUSH2 0x47B0 JUMP JUMPDEST SWAP1 POP SWAP2 SWAP1 POP JUMP JUMPDEST PUSH32 0x5061757361626C653A20746F6B656E207472616E73666572207768696C652070 PUSH0 DUP3 ADD MSTORE PUSH32 0x6175736564000000000000000000000000000000000000000000000000000000 PUSH1 0x20 DUP3 ADD MSTORE POP JUMP JUMPDEST PUSH0 PUSH2 0x484A PUSH1 0x25 DUP4 PUSH2 0x3B6A JUMP JUMPDEST SWAP2 POP PUSH2 0x4855 DUP3 PUSH2 0x47F0 JUMP JUMPDEST PUSH1 0x40 DUP3 ADD SWAP1 POP SWAP2 SWAP1 POP JUMP JUMPDEST PUSH0 PUSH1 0x20 DUP3 ADD SWAP1 POP DUP2 DUP2 SUB PUSH0 DUP4 ADD MSTORE PUSH2 0x4877 DUP2 PUSH2 0x483E JUMP JUMPDEST SWAP1 POP SWAP2 SWAP1 POP JUMP JUMPDEST PUSH32 0x4164647265737320697320626C61636B6C697374656400000000000000000000 PUSH0 DUP3 ADD MSTORE POP JUMP JUMPDEST PUSH0 PUSH2 0x48B2 PUSH1 0x16 DUP4 PUSH2 0x3B6A JUMP JUMPDEST SWAP2 POP PUSH2 0x48BD DUP3 PUSH2 0x487E JUMP JUMPDEST PUSH1 0x20 DUP3 ADD SWAP1 POP SWAP2 SWAP1 POP JUMP JUMPDEST PUSH0 PUSH1 0x20 DUP3 ADD SWAP1 POP DUP2 DUP2 SUB PUSH0 DUP4 ADD MSTORE PUSH2 0x48DF DUP2 PUSH2 0x48A6 JUMP JUMPDEST SWAP1 POP SWAP2 SWAP1 POP JUMP JUMPDEST PUSH32 0x4164647265737320697320756E6465722073616E6374696F6E73000000000000 PUSH0 DUP3 ADD MSTORE POP JUMP JUMPDEST PUSH0 PUSH2 0x491A PUSH1 0x1A DUP4 PUSH2 0x3B6A JUMP JUMPDEST SWAP2 POP PUSH2 0x4925 DUP3 PUSH2 0x48E6 JUMP JUMPDEST PUSH1 0x20 DUP3 ADD SWAP1 POP SWAP2 SWAP1 POP JUMP JUMPDEST PUSH0 PUSH1 0x20 DUP3 ADD SWAP1 POP DUP2 DUP2 SUB PUSH0 DUP4 ADD MSTORE PUSH2 0x4947 DUP2 PUSH2 0x490E JUMP JUMPDEST SWAP1 POP SWAP2 SWAP1 POP JUMP JUMPDEST PUSH32 0x5465616D20746F6B656E7320617265206C6F636B656400000000000000000000 PUSH0 DUP3 ADD MSTORE POP JUMP JUMPDEST PUSH0 PUSH2 0x4982 PUSH1 0x16 DUP4 PUSH2 0x3B6A JUMP JUMPDEST SWAP2 POP PUSH2 0x498D DUP3 PUSH2 0x494E JUMP JUMPDEST PUSH1 0x20 DUP3 ADD SWAP1 POP SWAP2 SWAP1 POP JUMP JUMPDEST PUSH0 PUSH1 0x20 DUP3 ADD SWAP1 POP DUP2 DUP2 SUB PUSH0 DUP4 ADD MSTORE PUSH2 0x49AF DUP2 PUSH2 0x4976 JUMP JUMPDEST SWAP1 POP SWAP2 SWAP1 POP JUMP JUMPDEST PUSH0 DUP2 MLOAD SWAP1 POP SWAP2 SWAP1 POP JUMP JUMPDEST PUSH0 DUP2 SWAP1 POP SWAP3 SWAP2 POP POP JUMP JUMPDEST PUSH0 PUSH2 0x49D4 DUP3 PUSH2 0x49B6 JUMP JUMPDEST PUSH2 0x49DE DUP2 DUP6 PUSH2 0x49C0 JUMP JUMPDEST SWAP4 POP PUSH2 0x49EE DUP2 DUP6 PUSH1 0x20 DUP7 ADD PUSH2 0x3B7A JUMP JUMPDEST DUP1 DUP5 ADD SWAP2 POP POP SWAP3 SWAP2 POP POP JUMP JUMPDEST PUSH0 PUSH2 0x4A05 DUP3 DUP5 PUSH2 0x49CA JUMP JUMPDEST SWAP2 POP DUP2 SWAP1 POP SWAP3 SWAP2 POP POP JUMP JUMPDEST PUSH32 0x45786365656473206461696C79207472616E73666572206C696D697400000000 PUSH0 DUP3 ADD MSTORE POP JUMP JUMPDEST PUSH0 PUSH2 0x4A44 PUSH1 0x1C DUP4 PUSH2 0x3B6A JUMP JUMPDEST SWAP2 POP PUSH2 0x4A4F DUP3 PUSH2 0x4A10 JUMP JUMPDEST PUSH1 0x20 DUP3 ADD SWAP1 POP SWAP2 SWAP1 POP JUMP JUMPDEST PUSH0 PUSH1 0x20 DUP3 ADD SWAP1 POP DUP2 DUP2 SUB PUSH0 DUP4 ADD MSTORE PUSH2 0x4A71 DUP2 PUSH2 0x4A38 JUMP JUMPDEST SWAP1 POP SWAP2 SWAP1 POP JUMP JUMPDEST PUSH32 0x45786365656473206D6F6E74686C79207472616E73666572206C696D69740000 PUSH0 DUP3 ADD MSTORE POP JUMP JUMPDEST PUSH0 PUSH2 0x4AAC PUSH1 0x1E DUP4 PUSH2 0x3B6A JUMP JUMPDEST SWAP2 POP PUSH2 0x4AB7 DUP3 PUSH2 0x4A78 JUMP JUMPDEST PUSH1 0x20 DUP3 ADD SWAP1 POP SWAP2 SWAP1 POP JUMP JUMPDEST PUSH0 PUSH1 0x20 DUP3 ADD SWAP1 POP DUP2 DUP2 SUB PUSH0 DUP4 ADD MSTORE PUSH2 0x4AD9 DUP2 PUSH2 0x4AA0 JUMP JUMPDEST SWAP1 POP SWAP2 SWAP1 POP JUMP INVALID LOG2 PUSH5 0x6970667358 0x22 SLT KECCAK256 DUP1 CALLCODE 0xAA 0xF7 0xF7 0xEF CALLER SWAP14 0xC9 0x2B ADD 0x1E INVALID PUSH12 0x25BEE83C4FFCF76CBCAAFBDF TLOAD SWAP5 0x4E 0x25 0x4F RJUMP 0x6473 PUSH16 0x6C634300081E00330000000000000000 "
		},
		"gasEstimates": {
			"creation": {
				"codeDepositCost": "3844400",
				"executionCost": "infinite",
				"totalCost": "infinite"
			},
			"external": {
				"INITIAL_APR_12_MONTHS()": "2537",
				"INITIAL_APR_24_MONTHS()": "2513",
				"INITIAL_BASE_FEE_PERCENT()": "2514",
				"INITIAL_EARLY_WITHDRAWAL_PENALTY()": "2561",
				"INITIAL_FEE_WALLET()": "2642",
				"INITIAL_HIGH_VALUE_FEE_PERCENT()": "2516",
				"INITIAL_HIGH_VALUE_FEE_THRESHOLD()": "2558",
				"INITIAL_MAX_DAILY_TRANSFER()": "2515",
				"INITIAL_MAX_MONTHLY_TRANSFER()": "2560",
				"INITIAL_TEAM_LOCK_DURATION_DAYS()": "2559",
				"TOKEN_DECIMALS()": "399",
				"TOKEN_NAME()": "infinite",
				"TOKEN_SYMBOL()": "infinite",
				"UPGRADE_INTERFACE_VERSION()": "infinite",
				"allowance(address,address)": "infinite",
				"approve(address,uint256)": "infinite",
				"apr12Months()": "2492",
				"apr24Months()": "2494",
				"balanceOf(address)": "2947",
				"baseFeePercent()": "2494",
				"blacklist(address)": "infinite",
				"burn(uint256)": "infinite",
				"burnFrom(address,uint256)": "infinite",
				"decimals()": "472",
				"earlyWithdrawalPenalty()": "2493",
				"feeWallet()": "2641",
				"getVotingPower(address)": "infinite",
				"highValueFeePercent()": "2492",
				"highValueFeeThreshold()": "2558",
				"initialize()": "infinite",
				"isBlacklisted(address)": "2987",
				"isExemptFromLimits(address)": "2923",
				"isSanctioned(address)": "2900",
				"kycVerified(address)": "2945",
				"maxDailyTransfer()": "2559",
				"maxMonthlyTransfer()": "2559",
				"mint(address,uint256)": "infinite",
				"name()": "infinite",
				"owner()": "2634",
				"pause()": "infinite",
				"paused()": "2562",
				"proxiableUUID()": "infinite",
				"renounceOwnership()": "infinite",
				"setAntiWhaleExemption(address,bool)": "infinite",
				"setEarlyWithdrawalPenalty(uint256)": "infinite",
				"setFeeWallet(address)": "infinite",
				"setFees(uint256,uint256,uint256)": "infinite",
				"setKycStatus(address,bool)": "infinite",
				"setMaxDailyTransfer(uint256)": "infinite",
				"setMaxMonthlyTransfer(uint256)": "infinite",
				"setSanctionStatus(address,bool)": "infinite",
				"setSpecialVotingPower(address,uint256)": "infinite",
				"setStakingAPRs(uint256,uint256)": "infinite",
				"setTeamLock(address,uint256)": "infinite",
				"specialVotingPower(address)": "2870",
				"stake(uint256,uint256)": "infinite",
				"stakes(address)": "infinite",
				"symbol()": "infinite",
				"teamTokenLockReleaseTime(address)": "2913",
				"totalSupply()": "2597",
				"transfer(address,uint256)": "infinite",
				"transferFrom(address,address,uint256)": "infinite",
				"transferOwnership(address)": "infinite",
				"unblacklist(address)": "infinite",
				"unpause()": "infinite",
				"upgradeToAndCall(address,bytes)": "infinite",
				"withdrawStake()": "infinite"
			},
			"internal": {
				"_authorizeUpgrade(address)": "infinite",
				"_beforeTokenTransfer(address,address,uint256)": "infinite",
				"_calculateFee(uint256)": "infinite",
				"_checkAntiWhaleLimits(address,uint256)": "infinite",
				"_update(address,address,uint256)": "infinite"
			}
		},
		"methodIdentifiers": {
			"INITIAL_APR_12_MONTHS()": "2b9da1f7",
			"INITIAL_APR_24_MONTHS()": "f528d6ce",
			"INITIAL_BASE_FEE_PERCENT()": "d7701f79",
			"INITIAL_EARLY_WITHDRAWAL_PENALTY()": "14f7eb87",
			"INITIAL_FEE_WALLET()": "6542dc0f",
			"INITIAL_HIGH_VALUE_FEE_PERCENT()": "1d6bd819",
			"INITIAL_HIGH_VALUE_FEE_THRESHOLD()": "de195e0b",
			"INITIAL_MAX_DAILY_TRANSFER()": "5286b59d",
			"INITIAL_MAX_MONTHLY_TRANSFER()": "27e50c65",
			"INITIAL_TEAM_LOCK_DURATION_DAYS()": "974b65d5",
			"TOKEN_DECIMALS()": "5b7f415c",
			"TOKEN_NAME()": "18821400",
			"TOKEN_SYMBOL()": "2a905318",
			"UPGRADE_INTERFACE_VERSION()": "ad3cb1cc",
			"allowance(address,address)": "dd62ed3e",
			"approve(address,uint256)": "095ea7b3",
			"apr12Months()": "aa9a4234",
			"apr24Months()": "364428df",
			"balanceOf(address)": "70a08231",
			"baseFeePercent()": "16469e7a",
			"blacklist(address)": "f9f92be4",
			"burn(uint256)": "42966c68",
			"burnFrom(address,uint256)": "79cc6790",
			"decimals()": "313ce567",
			"earlyWithdrawalPenalty()": "291a3d9e",
			"feeWallet()": "f25f4b56",
			"getVotingPower(address)": "bb4d4436",
			"highValueFeePercent()": "d3246b34",
			"highValueFeeThreshold()": "ba6ab529",
			"initialize()": "8129fc1c",
			"isBlacklisted(address)": "fe575a87",
			"isExemptFromLimits(address)": "cd2c6a99",
			"isSanctioned(address)": "df592f7d",
			"kycVerified(address)": "a5410a66",
			"maxDailyTransfer()": "d21b5f5b",
			"maxMonthlyTransfer()": "5b2a1b30",
			"mint(address,uint256)": "40c10f19",
			"name()": "06fdde03",
			"owner()": "8da5cb5b",
			"pause()": "8456cb59",
			"paused()": "5c975abb",
			"proxiableUUID()": "52d1902d",
			"renounceOwnership()": "715018a6",
			"setAntiWhaleExemption(address,bool)": "187881b7",
			"setEarlyWithdrawalPenalty(uint256)": "8a2e98f3",
			"setFeeWallet(address)": "90d49b9d",
			"setFees(uint256,uint256,uint256)": "cec10c11",
			"setKycStatus(address,bool)": "e37a35c7",
			"setMaxDailyTransfer(uint256)": "e0f4e01e",
			"setMaxMonthlyTransfer(uint256)": "7bcc2d47",
			"setSanctionStatus(address,bool)": "f998c3a0",
			"setSpecialVotingPower(address,uint256)": "a2086bb0",
			"setStakingAPRs(uint256,uint256)": "64732dc7",
			"setTeamLock(address,uint256)": "00676dcc",
			"specialVotingPower(address)": "987ea311",
			"stake(uint256,uint256)": "7b0472f0",
			"stakes(address)": "16934fc4",
			"symbol()": "95d89b41",
			"teamTokenLockReleaseTime(address)": "b776c4d6",
			"totalSupply()": "18160ddd",
			"transfer(address,uint256)": "a9059cbb",
			"transferFrom(address,address,uint256)": "23b872dd",
			"transferOwnership(address)": "f2fde38b",
			"unblacklist(address)": "75e3661e",
			"unpause()": "3f4ba83a",
			"upgradeToAndCall(address,bytes)": "4f1ef286",
			"withdrawStake()": "bed9d861"
		}
	},
	"abi": [
		{
			"inputs": [],
			"stateMutability": "nonpayable",
			"type": "constructor"
		},
		{
			"inputs": [
				{
					"internalType": "address",
					"name": "target",
					"type": "address"
				}
			],
			"name": "AddressEmptyCode",
			"type": "error"
		},
		{
			"inputs": [
				{
					"internalType": "address",
					"name": "implementation",
					"type": "address"
				}
			],
			"name": "ERC1967InvalidImplementation",
			"type": "error"
		},
		{
			"inputs": [],
			"name": "ERC1967NonPayable",
			"type": "error"
		},
		{
			"inputs": [
				{
					"internalType": "address",
					"name": "spender",
					"type": "address"
				},
				{
					"internalType": "uint256",
					"name": "allowance",
					"type": "uint256"
				},
				{
					"internalType": "uint256",
					"name": "needed",
					"type": "uint256"
				}
			],
			"name": "ERC20InsufficientAllowance",
			"type": "error"
		},
		{
			"inputs": [
				{
					"internalType": "address",
					"name": "sender",
					"type": "address"
				},
				{
					"internalType": "uint256",
					"name": "balance",
					"type": "uint256"
				},
				{
					"internalType": "uint256",
					"name": "needed",
					"type": "uint256"
				}
			],
			"name": "ERC20InsufficientBalance",
			"type": "error"
		},
		{
			"inputs": [
				{
					"internalType": "address",
					"name": "approver",
					"type": "address"
				}
			],
			"name": "ERC20InvalidApprover",
			"type": "error"
		},
		{
			"inputs": [
				{
					"internalType": "address",
					"name": "receiver",
					"type": "address"
				}
			],
			"name": "ERC20InvalidReceiver",
			"type": "error"
		},
		{
			"inputs": [
				{
					"internalType": "address",
					"name": "sender",
					"type": "address"
				}
			],
			"name": "ERC20InvalidSender",
			"type": "error"
		},
		{
			"inputs": [
				{
					"internalType": "address",
					"name": "spender",
					"type": "address"
				}
			],
			"name": "ERC20InvalidSpender",
			"type": "error"
		},
		{
			"inputs": [],
			"name": "FailedCall",
			"type": "error"
		},
		{
			"inputs": [],
			"name": "InvalidInitialization",
			"type": "error"
		},
		{
			"inputs": [],
			"name": "NotInitializing",
			"type": "error"
		},
		{
			"inputs": [
				{
					"internalType": "address",
					"name": "owner",
					"type": "address"
				}
			],
			"name": "OwnableInvalidOwner",
			"type": "error"
		},
		{
			"inputs": [
				{
					"internalType": "address",
					"name": "account",
					"type": "address"
				}
			],
			"name": "OwnableUnauthorizedAccount",
			"type": "error"
		},
		{
			"inputs": [],
			"name": "UUPSUnauthorizedCallContext",
			"type": "error"
		},
		{
			"inputs": [
				{
					"internalType": "bytes32",
					"name": "slot",
					"type": "bytes32"
				}
			],
			"name": "UUPSUnsupportedProxiableUUID",
			"type": "error"
		},
		{
			"anonymous": false,
			"inputs": [
				{
					"indexed": true,
					"internalType": "address",
					"name": "account",
					"type": "address"
				}
			],
			"name": "AddressBlacklisted",
			"type": "event"
		},
		{
			"anonymous": false,
			"inputs": [
				{
					"indexed": true,
					"internalType": "address",
					"name": "account",
					"type": "address"
				}
			],
			"name": "AddressUnblacklisted",
			"type": "event"
		},
		{
			"anonymous": false,
			"inputs": [
				{
					"indexed": true,
					"internalType": "address",
					"name": "owner",
					"type": "address"
				},
				{
					"indexed": true,
					"internalType": "address",
					"name": "spender",
					"type": "address"
				},
				{
					"indexed": false,
					"internalType": "uint256",
					"name": "value",
					"type": "uint256"
				}
			],
			"name": "Approval",
			"type": "event"
		},
		{
			"anonymous": false,
			"inputs": [
				{
					"indexed": false,
					"internalType": "uint64",
					"name": "version",
					"type": "uint64"
				}
			],
			"name": "Initialized",
			"type": "event"
		},
		{
			"anonymous": false,
			"inputs": [
				{
					"indexed": true,
					"internalType": "address",
					"name": "previousOwner",
					"type": "address"
				},
				{
					"indexed": true,
					"internalType": "address",
					"name": "newOwner",
					"type": "address"
				}
			],
			"name": "OwnershipTransferred",
			"type": "event"
		},
		{
			"anonymous": false,
			"inputs": [
				{
					"indexed": false,
					"internalType": "address",
					"name": "account",
					"type": "address"
				}
			],
			"name": "Paused",
			"type": "event"
		},
		{
			"anonymous": false,
			"inputs": [
				{
					"indexed": true,
					"internalType": "address",
					"name": "user",
					"type": "address"
				},
				{
					"indexed": false,
					"internalType": "uint256",
					"name": "amount",
					"type": "uint256"
				}
			],
			"name": "PenalizedWithdraw",
			"type": "event"
		},
		{
			"anonymous": false,
			"inputs": [
				{
					"indexed": true,
					"internalType": "address",
					"name": "user",
					"type": "address"
				},
				{
					"indexed": false,
					"internalType": "uint256",
					"name": "amount",
					"type": "uint256"
				},
				{
					"indexed": false,
					"internalType": "uint256",
					"name": "duration",
					"type": "uint256"
				}
			],
			"name": "Staked",
			"type": "event"
		},
		{
			"anonymous": false,
			"inputs": [
				{
					"indexed": true,
					"internalType": "address",
					"name": "from",
					"type": "address"
				},
				{
					"indexed": true,
					"internalType": "address",
					"name": "to",
					"type": "address"
				},
				{
					"indexed": false,
					"internalType": "uint256",
					"name": "value",
					"type": "uint256"
				}
			],
			"name": "Transfer",
			"type": "event"
		},
		{
			"anonymous": false,
			"inputs": [
				{
					"indexed": false,
					"internalType": "address",
					"name": "account",
					"type": "address"
				}
			],
			"name": "Unpaused",
			"type": "event"
		},
		{
			"anonymous": false,
			"inputs": [
				{
					"indexed": true,
					"internalType": "address",
					"name": "implementation",
					"type": "address"
				}
			],
			"name": "Upgraded",
			"type": "event"
		},
		{
			"anonymous": false,
			"inputs": [
				{
					"indexed": true,
					"internalType": "address",
					"name": "user",
					"type": "address"
				},
				{
					"indexed": false,
					"internalType": "uint256",
					"name": "principal",
					"type": "uint256"
				},
				{
					"indexed": false,
					"internalType": "uint256",
					"name": "reward",
					"type": "uint256"
				}
			],
			"name": "Withdrawn",
			"type": "event"
		},
		{
			"inputs": [],
			"name": "INITIAL_APR_12_MONTHS",
			"outputs": [
				{
					"internalType": "uint256",
					"name": "",
					"type": "uint256"
				}
			],
			"stateMutability": "view",
			"type": "function"
		},
		{
			"inputs": [],
			"name": "INITIAL_APR_24_MONTHS",
			"outputs": [
				{
					"internalType": "uint256",
					"name": "",
					"type": "uint256"
				}
			],
			"stateMutability": "view",
			"type": "function"
		},
		{
			"inputs": [],
			"name": "INITIAL_BASE_FEE_PERCENT",
			"outputs": [
				{
					"internalType": "uint256",
					"name": "",
					"type": "uint256"
				}
			],
			"stateMutability": "view",
			"type": "function"
		},
		{
			"inputs": [],
			"name": "INITIAL_EARLY_WITHDRAWAL_PENALTY",
			"outputs": [
				{
					"internalType": "uint256",
					"name": "",
					"type": "uint256"
				}
			],
			"stateMutability": "view",
			"type": "function"
		},
		{
			"inputs": [],
			"name": "INITIAL_FEE_WALLET",
			"outputs": [
				{
					"internalType": "address",
					"name": "",
					"type": "address"
				}
			],
			"stateMutability": "view",
			"type": "function"
		},
		{
			"inputs": [],
			"name": "INITIAL_HIGH_VALUE_FEE_PERCENT",
			"outputs": [
				{
					"internalType": "uint256",
					"name": "",
					"type": "uint256"
				}
			],
			"stateMutability": "view",
			"type": "function"
		},
		{
			"inputs": [],
			"name": "INITIAL_HIGH_VALUE_FEE_THRESHOLD",
			"outputs": [
				{
					"internalType": "uint256",
					"name": "",
					"type": "uint256"
				}
			],
			"stateMutability": "view",
			"type": "function"
		},
		{
			"inputs": [],
			"name": "INITIAL_MAX_DAILY_TRANSFER",
			"outputs": [
				{
					"internalType": "uint256",
					"name": "",
					"type": "uint256"
				}
			],
			"stateMutability": "view",
			"type": "function"
		},
		{
			"inputs": [],
			"name": "INITIAL_MAX_MONTHLY_TRANSFER",
			"outputs": [
				{
					"internalType": "uint256",
					"name": "",
					"type": "uint256"
				}
			],
			"stateMutability": "view",
			"type": "function"
		},
		{
			"inputs": [],
			"name": "INITIAL_TEAM_LOCK_DURATION_DAYS",
			"outputs": [
				{
					"internalType": "uint256",
					"name": "",
					"type": "uint256"
				}
			],
			"stateMutability": "view",
			"type": "function"
		},
		{
			"inputs": [],
			"name": "TOKEN_DECIMALS",
			"outputs": [
				{
					"internalType": "uint8",
					"name": "",
					"type": "uint8"
				}
			],
			"stateMutability": "view",
			"type": "function"
		},
		{
			"inputs": [],
			"name": "TOKEN_NAME",
			"outputs": [
				{
					"internalType": "string",
					"name": "",
					"type": "string"
				}
			],
			"stateMutability": "view",
			"type": "function"
		},
		{
			"inputs": [],
			"name": "TOKEN_SYMBOL",
			"outputs": [
				{
					"internalType": "string",
					"name": "",
					"type": "string"
				}
			],
			"stateMutability": "view",
			"type": "function"
		},
		{
			"inputs": [],
			"name": "UPGRADE_INTERFACE_VERSION",
			"outputs": [
				{
					"internalType": "string",
					"name": "",
					"type": "string"
				}
			],
			"stateMutability": "view",
			"type": "function"
		},
		{
			"inputs": [
				{
					"internalType": "address",
					"name": "owner",
					"type": "address"
				},
				{
					"internalType": "address",
					"name": "spender",
					"type": "address"
				}
			],
			"name": "allowance",
			"outputs": [
				{
					"internalType": "uint256",
					"name": "",
					"type": "uint256"
				}
			],
			"stateMutability": "view",
			"type": "function"
		},
		{
			"inputs": [
				{
					"internalType": "address",
					"name": "spender",
					"type": "address"
				},
				{
					"internalType": "uint256",
					"name": "value",
					"type": "uint256"
				}
			],
			"name": "approve",
			"outputs": [
				{
					"internalType": "bool",
					"name": "",
					"type": "bool"
				}
			],
			"stateMutability": "nonpayable",
			"type": "function"
		},
		{
			"inputs": [],
			"name": "apr12Months",
			"outputs": [
				{
					"internalType": "uint256",
					"name": "",
					"type": "uint256"
				}
			],
			"stateMutability": "view",
			"type": "function"
		},
		{
			"inputs": [],
			"name": "apr24Months",
			"outputs": [
				{
					"internalType": "uint256",
					"name": "",
					"type": "uint256"
				}
			],
			"stateMutability": "view",
			"type": "function"
		},
		{
			"inputs": [
				{
					"internalType": "address",
					"name": "account",
					"type": "address"
				}
			],
			"name": "balanceOf",
			"outputs": [
				{
					"internalType": "uint256",
					"name": "",
					"type": "uint256"
				}
			],
			"stateMutability": "view",
			"type": "function"
		},
		{
			"inputs": [],
			"name": "baseFeePercent",
			"outputs": [
				{
					"internalType": "uint256",
					"name": "",
					"type": "uint256"
				}
			],
			"stateMutability": "view",
			"type": "function"
		},
		{
			"inputs": [
				{
					"internalType": "address",
					"name": "account",
					"type": "address"
				}
			],
			"name": "blacklist",
			"outputs": [],
			"stateMutability": "nonpayable",
			"type": "function"
		},
		{
			"inputs": [
				{
					"internalType": "uint256",
					"name": "value",
					"type": "uint256"
				}
			],
			"name": "burn",
			"outputs": [],
			"stateMutability": "nonpayable",
			"type": "function"
		},
		{
			"inputs": [
				{
					"internalType": "address",
					"name": "account",
					"type": "address"
				},
				{
					"internalType": "uint256",
					"name": "value",
					"type": "uint256"
				}
			],
			"name": "burnFrom",
			"outputs": [],
			"stateMutability": "nonpayable",
			"type": "function"
		},
		{
			"inputs": [],
			"name": "decimals",
			"outputs": [
				{
					"internalType": "uint8",
					"name": "",
					"type": "uint8"
				}
			],
			"stateMutability": "pure",
			"type": "function"
		},
		{
			"inputs": [],
			"name": "earlyWithdrawalPenalty",
			"outputs": [
				{
					"internalType": "uint256",
					"name": "",
					"type": "uint256"
				}
			],
			"stateMutability": "view",
			"type": "function"
		},
		{
			"inputs": [],
			"name": "feeWallet",
			"outputs": [
				{
					"internalType": "address",
					"name": "",
					"type": "address"
				}
			],
			"stateMutability": "view",
			"type": "function"
		},
		{
			"inputs": [
				{
					"internalType": "address",
					"name": "account",
					"type": "address"
				}
			],
			"name": "getVotingPower",
			"outputs": [
				{
					"internalType": "uint256",
					"name": "",
					"type": "uint256"
				}
			],
			"stateMutability": "view",
			"type": "function"
		},
		{
			"inputs": [],
			"name": "highValueFeePercent",
			"outputs": [
				{
					"internalType": "uint256",
					"name": "",
					"type": "uint256"
				}
			],
			"stateMutability": "view",
			"type": "function"
		},
		{
			"inputs": [],
			"name": "highValueFeeThreshold",
			"outputs": [
				{
					"internalType": "uint256",
					"name": "",
					"type": "uint256"
				}
			],
			"stateMutability": "view",
			"type": "function"
		},
		{
			"inputs": [],
			"name": "initialize",
			"outputs": [],
			"stateMutability": "nonpayable",
			"type": "function"
		},
		{
			"inputs": [
				{
					"internalType": "address",
					"name": "",
					"type": "address"
				}
			],
			"name": "isBlacklisted",
			"outputs": [
				{
					"internalType": "bool",
					"name": "",
					"type": "bool"
				}
			],
			"stateMutability": "view",
			"type": "function"
		},
		{
			"inputs": [
				{
					"internalType": "address",
					"name": "",
					"type": "address"
				}
			],
			"name": "isExemptFromLimits",
			"outputs": [
				{
					"internalType": "bool",
					"name": "",
					"type": "bool"
				}
			],
			"stateMutability": "view",
			"type": "function"
		},
		{
			"inputs": [
				{
					"internalType": "address",
					"name": "",
					"type": "address"
				}
			],
			"name": "isSanctioned",
			"outputs": [
				{
					"internalType": "bool",
					"name": "",
					"type": "bool"
				}
			],
			"stateMutability": "view",
			"type": "function"
		},
		{
			"inputs": [
				{
					"internalType": "address",
					"name": "",
					"type": "address"
				}
			],
			"name": "kycVerified",
			"outputs": [
				{
					"internalType": "bool",
					"name": "",
					"type": "bool"
				}
			],
			"stateMutability": "view",
			"type": "function"
		},
		{
			"inputs": [],
			"name": "maxDailyTransfer",
			"outputs": [
				{
					"internalType": "uint256",
					"name": "",
					"type": "uint256"
				}
			],
			"stateMutability": "view",
			"type": "function"
		},
		{
			"inputs": [],
			"name": "maxMonthlyTransfer",
			"outputs": [
				{
					"internalType": "uint256",
					"name": "",
					"type": "uint256"
				}
			],
			"stateMutability": "view",
			"type": "function"
		},
		{
			"inputs": [
				{
					"internalType": "address",
					"name": "to",
					"type": "address"
				},
				{
					"internalType": "uint256",
					"name": "amount",
					"type": "uint256"
				}
			],
			"name": "mint",
			"outputs": [],
			"stateMutability": "nonpayable",
			"type": "function"
		},
		{
			"inputs": [],
			"name": "name",
			"outputs": [
				{
					"internalType": "string",
					"name": "",
					"type": "string"
				}
			],
			"stateMutability": "view",
			"type": "function"
		},
		{
			"inputs": [],
			"name": "owner",
			"outputs": [
				{
					"internalType": "address",
					"name": "",
					"type": "address"
				}
			],
			"stateMutability": "view",
			"type": "function"
		},
		{
			"inputs": [],
			"name": "pause",
			"outputs": [],
			"stateMutability": "nonpayable",
			"type": "function"
		},
		{
			"inputs": [],
			"name": "paused",
			"outputs": [
				{
					"internalType": "bool",
					"name": "",
					"type": "bool"
				}
			],
			"stateMutability": "view",
			"type": "function"
		},
		{
			"inputs": [],
			"name": "proxiableUUID",
			"outputs": [
				{
					"internalType": "bytes32",
					"name": "",
					"type": "bytes32"
				}
			],
			"stateMutability": "view",
			"type": "function"
		},
		{
			"inputs": [],
			"name": "renounceOwnership",
			"outputs": [],
			"stateMutability": "nonpayable",
			"type": "function"
		},
		{
			"inputs": [
				{
					"internalType": "address",
					"name": "account",
					"type": "address"
				},
				{
					"internalType": "bool",
					"name": "exempt",
					"type": "bool"
				}
			],
			"name": "setAntiWhaleExemption",
			"outputs": [],
			"stateMutability": "nonpayable",
			"type": "function"
		},
		{
			"inputs": [
				{
					"internalType": "uint256",
					"name": "newPenalty",
					"type": "uint256"
				}
			],
			"name": "setEarlyWithdrawalPenalty",
			"outputs": [],
			"stateMutability": "nonpayable",
			"type": "function"
		},
		{
			"inputs": [
				{
					"internalType": "address",
					"name": "newWallet",
					"type": "address"
				}
			],
			"name": "setFeeWallet",
			"outputs": [],
			"stateMutability": "nonpayable",
			"type": "function"
		},
		{
			"inputs": [
				{
					"internalType": "uint256",
					"name": "newBaseFee",
					"type": "uint256"
				},
				{
					"internalType": "uint256",
					"name": "newHighValueFee",
					"type": "uint256"
				},
				{
					"internalType": "uint256",
					"name": "newThreshold",
					"type": "uint256"
				}
			],
			"name": "setFees",
			"outputs": [],
			"stateMutability": "nonpayable",
			"type": "function"
		},
		{
			"inputs": [
				{
					"internalType": "address",
					"name": "user",
					"type": "address"
				},
				{
					"internalType": "bool",
					"name": "verified",
					"type": "bool"
				}
			],
			"name": "setKycStatus",
			"outputs": [],
			"stateMutability": "nonpayable",
			"type": "function"
		},
		{
			"inputs": [
				{
					"internalType": "uint256",
					"name": "newLimit",
					"type": "uint256"
				}
			],
			"name": "setMaxDailyTransfer",
			"outputs": [],
			"stateMutability": "nonpayable",
			"type": "function"
		},
		{
			"inputs": [
				{
					"internalType": "uint256",
					"name": "newLimit",
					"type": "uint256"
				}
			],
			"name": "setMaxMonthlyTransfer",
			"outputs": [],
			"stateMutability": "nonpayable",
			"type": "function"
		},
		{
			"inputs": [
				{
					"internalType": "address",
					"name": "user",
					"type": "address"
				},
				{
					"internalType": "bool",
					"name": "sanctioned",
					"type": "bool"
				}
			],
			"name": "setSanctionStatus",
			"outputs": [],
			"stateMutability": "nonpayable",
			"type": "function"
		},
		{
			"inputs": [
				{
					"internalType": "address",
					"name": "voter",
					"type": "address"
				},
				{
					"internalType": "uint256",
					"name": "power",
					"type": "uint256"
				}
			],
			"name": "setSpecialVotingPower",
			"outputs": [],
			"stateMutability": "nonpayable",
			"type": "function"
		},
		{
			"inputs": [
				{
					"internalType": "uint256",
					"name": "newApr12Months",
					"type": "uint256"
				},
				{
					"internalType": "uint256",
					"name": "newApr24Months",
					"type": "uint256"
				}
			],
			"name": "setStakingAPRs",
			"outputs": [],
			"stateMutability": "nonpayable",
			"type": "function"
		},
		{
			"inputs": [
				{
					"internalType": "address",
					"name": "member",
					"type": "address"
				},
				{
					"internalType": "uint256",
					"name": "releaseTimestamp",
					"type": "uint256"
				}
			],
			"name": "setTeamLock",
			"outputs": [],
			"stateMutability": "nonpayable",
			"type": "function"
		},
		{
			"inputs": [
				{
					"internalType": "address",
					"name": "",
					"type": "address"
				}
			],
			"name": "specialVotingPower",
			"outputs": [
				{
					"internalType": "uint256",
					"name": "",
					"type": "uint256"
				}
			],
			"stateMutability": "view",
			"type": "function"
		},
		{
			"inputs": [
				{
					"internalType": "uint256",
					"name": "amount",
					"type": "uint256"
				},
				{
					"internalType": "uint256",
					"name": "durationInMonths",
					"type": "uint256"
				}
			],
			"name": "stake",
			"outputs": [],
			"stateMutability": "nonpayable",
			"type": "function"
		},
		{
			"inputs": [
				{
					"internalType": "address",
					"name": "",
					"type": "address"
				}
			],
			"name": "stakes",
			"outputs": [
				{
					"internalType": "uint256",
					"name": "amount",
					"type": "uint256"
				},
				{
					"internalType": "uint256",
					"name": "since",
					"type": "uint256"
				},
				{
					"internalType": "uint256",
					"name": "duration",
					"type": "uint256"
				}
			],
			"stateMutability": "view",
			"type": "function"
		},
		{
			"inputs": [],
			"name": "symbol",
			"outputs": [
				{
					"internalType": "string",
					"name": "",
					"type": "string"
				}
			],
			"stateMutability": "view",
			"type": "function"
		},
		{
			"inputs": [
				{
					"internalType": "address",
					"name": "",
					"type": "address"
				}
			],
			"name": "teamTokenLockReleaseTime",
			"outputs": [
				{
					"internalType": "uint256",
					"name": "",
					"type": "uint256"
				}
			],
			"stateMutability": "view",
			"type": "function"
		},
		{
			"inputs": [],
			"name": "totalSupply",
			"outputs": [
				{
					"internalType": "uint256",
					"name": "",
					"type": "uint256"
				}
			],
			"stateMutability": "view",
			"type": "function"
		},
		{
			"inputs": [
				{
					"internalType": "address",
					"name": "to",
					"type": "address"
				},
				{
					"internalType": "uint256",
					"name": "value",
					"type": "uint256"
				}
			],
			"name": "transfer",
			"outputs": [
				{
					"internalType": "bool",
					"name": "",
					"type": "bool"
				}
			],
			"stateMutability": "nonpayable",
			"type": "function"
		},
		{
			"inputs": [
				{
					"internalType": "address",
					"name": "from",
					"type": "address"
				},
				{
					"internalType": "address",
					"name": "to",
					"type": "address"
				},
				{
					"internalType": "uint256",
					"name": "value",
					"type": "uint256"
				}
			],
			"name": "transferFrom",
			"outputs": [
				{
					"internalType": "bool",
					"name": "",
					"type": "bool"
				}
			],
			"stateMutability": "nonpayable",
			"type": "function"
		},
		{
			"inputs": [
				{
					"internalType": "address",
					"name": "newOwner",
					"type": "address"
				}
			],
			"name": "transferOwnership",
			"outputs": [],
			"stateMutability": "nonpayable",
			"type": "function"
		},
		{
			"inputs": [
				{
					"internalType": "address",
					"name": "account",
					"type": "address"
				}
			],
			"name": "unblacklist",
			"outputs": [],
			"stateMutability": "nonpayable",
			"type": "function"
		},
		{
			"inputs": [],
			"name": "unpause",
			"outputs": [],
			"stateMutability": "nonpayable",
			"type": "function"
		},
		{
			"inputs": [
				{
					"internalType": "address",
					"name": "newImplementation",
					"type": "address"
				},
				{
					"internalType": "bytes",
					"name": "data",
					"type": "bytes"
				}
			],
			"name": "upgradeToAndCall",
			"outputs": [],
			"stateMutability": "payable",
			"type": "function"
		},
		{
			"inputs": [],
			"name": "withdrawStake",
			"outputs": [],
			"stateMutability": "nonpayable",
			"type": "function"
		}
	]
}